{
	"ICOMarketplace.sol": {
		"ICOMarketplace": {
			"abi": [
				{
					"inputs": [],
					"stateMutability": "nonpayable",
					"type": "constructor"
				},
				{
					"anonymous": false,
					"inputs": [
						{
							"indexed": true,
							"internalType": "address",
							"name": "token",
							"type": "address"
						},
						{
							"indexed": false,
							"internalType": "uint256",
							"name": "price",
							"type": "uint256"
						},
						{
							"indexed": true,
							"internalType": "address",
							"name": "creator",
							"type": "address"
						},
						{
							"indexed": false,
							"internalType": "string",
							"name": "name",
							"type": "string"
						},
						{
							"indexed": false,
							"internalType": "string",
							"name": "symbol",
							"type": "string"
						}
					],
					"name": "TokenAdded",
					"type": "event"
				},
				{
					"anonymous": false,
					"inputs": [
						{
							"indexed": true,
							"internalType": "address",
							"name": "token",
							"type": "address"
						},
						{
							"indexed": true,
							"internalType": "address",
							"name": "from",
							"type": "address"
						},
						{
							"indexed": false,
							"internalType": "uint256",
							"name": "amount",
							"type": "uint256"
						}
					],
					"name": "TokenReceived",
					"type": "event"
				},
				{
					"anonymous": false,
					"inputs": [
						{
							"indexed": true,
							"internalType": "address",
							"name": "token",
							"type": "address"
						},
						{
							"indexed": true,
							"internalType": "address",
							"name": "to",
							"type": "address"
						},
						{
							"indexed": false,
							"internalType": "uint256",
							"name": "amount",
							"type": "uint256"
						}
					],
					"name": "TokenTransferred",
					"type": "event"
				},
				{
					"anonymous": false,
					"inputs": [
						{
							"indexed": true,
							"internalType": "address",
							"name": "token",
							"type": "address"
						},
						{
							"indexed": true,
							"internalType": "address",
							"name": "to",
							"type": "address"
						},
						{
							"indexed": false,
							"internalType": "uint256",
							"name": "amount",
							"type": "uint256"
						}
					],
					"name": "TokenWidthdraw",
					"type": "event"
				},
				{
					"inputs": [
						{
							"internalType": "uint256",
							"name": "",
							"type": "uint256"
						}
					],
					"name": "allSupportedToken",
					"outputs": [
						{
							"internalType": "address",
							"name": "",
							"type": "address"
						}
					],
					"stateMutability": "view",
					"type": "function"
				},
				{
					"inputs": [
						{
							"internalType": "address",
							"name": "_token",
							"type": "address"
						},
						{
							"internalType": "uint256",
							"name": "_amount",
							"type": "uint256"
						}
					],
					"name": "buyToken",
					"outputs": [],
					"stateMutability": "payable",
					"type": "function"
				},
				{
					"inputs": [
						{
							"internalType": "address",
							"name": "_token",
							"type": "address"
						},
						{
							"internalType": "uint256",
							"name": "_price",
							"type": "uint256"
						}
					],
					"name": "createICOSale",
					"outputs": [],
					"stateMutability": "nonpayable",
					"type": "function"
				},
				{
					"inputs": [],
					"name": "getAllTokens",
					"outputs": [
						{
							"components": [
								{
									"internalType": "address",
									"name": "token",
									"type": "address"
								},
								{
									"internalType": "bool",
									"name": "supported",
									"type": "bool"
								},
								{
									"internalType": "uint256",
									"name": "price",
									"type": "uint256"
								},
								{
									"internalType": "address",
									"name": "creator",
									"type": "address"
								},
								{
									"internalType": "string",
									"name": "name",
									"type": "string"
								},
								{
									"internalType": "string",
									"name": "symbol",
									"type": "string"
								}
							],
							"internalType": "struct ICOMarketplace.TokenDetails[]",
							"name": "",
							"type": "tuple[]"
						}
					],
					"stateMutability": "view",
					"type": "function"
				},
				{
					"inputs": [
						{
							"internalType": "address",
							"name": "_token",
							"type": "address"
						}
					],
					"name": "getBalance",
					"outputs": [
						{
							"internalType": "uint256",
							"name": "",
							"type": "uint256"
						}
					],
					"stateMutability": "view",
					"type": "function"
				},
				{
					"inputs": [],
					"name": "getSupportedTokens",
					"outputs": [
						{
							"internalType": "address[]",
							"name": "",
							"type": "address[]"
						}
					],
					"stateMutability": "view",
					"type": "function"
				},
				{
					"inputs": [
						{
							"internalType": "address",
							"name": "_creator",
							"type": "address"
						}
					],
					"name": "getTokenCreatedBy",
					"outputs": [
						{
							"components": [
								{
									"internalType": "address",
									"name": "token",
									"type": "address"
								},
								{
									"internalType": "bool",
									"name": "supported",
									"type": "bool"
								},
								{
									"internalType": "uint256",
									"name": "price",
									"type": "uint256"
								},
								{
									"internalType": "address",
									"name": "creator",
									"type": "address"
								},
								{
									"internalType": "string",
									"name": "name",
									"type": "string"
								},
								{
									"internalType": "string",
									"name": "symbol",
									"type": "string"
								}
							],
							"internalType": "struct ICOMarketplace.TokenDetails[]",
							"name": "",
							"type": "tuple[]"
						}
					],
					"stateMutability": "view",
					"type": "function"
				},
				{
					"inputs": [
						{
							"internalType": "address",
							"name": "_token",
							"type": "address"
						}
					],
					"name": "getTokenDetails",
					"outputs": [
						{
							"components": [
								{
									"internalType": "address",
									"name": "token",
									"type": "address"
								},
								{
									"internalType": "bool",
									"name": "supported",
									"type": "bool"
								},
								{
									"internalType": "uint256",
									"name": "price",
									"type": "uint256"
								},
								{
									"internalType": "address",
									"name": "creator",
									"type": "address"
								},
								{
									"internalType": "string",
									"name": "name",
									"type": "string"
								},
								{
									"internalType": "string",
									"name": "symbol",
									"type": "string"
								}
							],
							"internalType": "struct ICOMarketplace.TokenDetails",
							"name": "",
							"type": "tuple"
						}
					],
					"stateMutability": "view",
					"type": "function"
				},
				{
					"inputs": [],
					"name": "owner",
					"outputs": [
						{
							"internalType": "address",
							"name": "",
							"type": "address"
						}
					],
					"stateMutability": "view",
					"type": "function"
				},
				{
					"inputs": [
						{
							"internalType": "address",
							"name": "",
							"type": "address"
						}
					],
					"name": "tokenDetails",
					"outputs": [
						{
							"internalType": "address",
							"name": "token",
							"type": "address"
						},
						{
							"internalType": "bool",
							"name": "supported",
							"type": "bool"
						},
						{
							"internalType": "uint256",
							"name": "price",
							"type": "uint256"
						},
						{
							"internalType": "address",
							"name": "creator",
							"type": "address"
						},
						{
							"internalType": "string",
							"name": "name",
							"type": "string"
						},
						{
							"internalType": "string",
							"name": "symbol",
							"type": "string"
						}
					],
					"stateMutability": "view",
					"type": "function"
				},
				{
					"inputs": [
						{
							"internalType": "address",
							"name": "_token",
							"type": "address"
						},
						{
							"internalType": "uint256",
							"name": "_amount",
							"type": "uint256"
						}
					],
					"name": "widthdraw",
					"outputs": [],
					"stateMutability": "nonpayable",
					"type": "function"
				},
				{
					"stateMutability": "payable",
					"type": "receive"
				}
			],
			"devdoc": {
				"kind": "dev",
				"methods": {},
				"version": 1
			},
			"evm": {
				"assembly": "    /* \"ICOMarketplace.sol\":419:5335  contract ICOMarketplace{... */\n  mstore(0x40, 0x80)\n    /* \"ICOMarketplace.sol\":1699:1750  constructor(){... */\n  callvalue\n  dup1\n  iszero\n  tag_1\n  jumpi\n  0x00\n  dup1\n  revert\ntag_1:\n  pop\n    /* \"ICOMarketplace.sol\":1732:1742  msg.sender */\n  caller\n    /* \"ICOMarketplace.sol\":1723:1742  owner == msg.sender */\n  0xffffffffffffffffffffffffffffffffffffffff\n  and\n    /* \"ICOMarketplace.sol\":1723:1728  owner */\n  0x02\n  0x00\n  swap1\n  sload\n  swap1\n  0x0100\n  exp\n  swap1\n  pop\n  pop\n    /* \"ICOMarketplace.sol\":1723:1742  owner == msg.sender */\n  pop\n    /* \"ICOMarketplace.sol\":419:5335  contract ICOMarketplace{... */\n  dataSize(sub_0)\n  dup1\n  dataOffset(sub_0)\n  0x00\n  codecopy\n  0x00\n  return\nstop\n\nsub_0: assembly {\n        /* \"ICOMarketplace.sol\":419:5335  contract ICOMarketplace{... */\n      mstore(0x40, 0x80)\n      jumpi(tag_1, lt(calldatasize, 0x04))\n      shr(0xe0, calldataload(0x00))\n      dup1\n      0x8da5cb5b\n      gt\n      tag_14\n      jumpi\n      dup1\n      0x8da5cb5b\n      eq\n      tag_8\n      jumpi\n      dup1\n      0xc74b197c\n      eq\n      tag_9\n      jumpi\n      dup1\n      0xd3c7c2c7\n      eq\n      tag_10\n      jumpi\n      dup1\n      0xdd4be683\n      eq\n      tag_11\n      jumpi\n      dup1\n      0xeb18c0e5\n      eq\n      tag_12\n      jumpi\n      dup1\n      0xf8b2cb4f\n      eq\n      tag_13\n      jumpi\n      jump(tag_2)\n    tag_14:\n      dup1\n      0x2a074008\n      eq\n      tag_3\n      jumpi\n      dup1\n      0x2a5c792a\n      eq\n      tag_4\n      jumpi\n      dup1\n      0x68f8fc10\n      eq\n      tag_5\n      jumpi\n      dup1\n      0x6d2bb393\n      eq\n      tag_6\n      jumpi\n      dup1\n      0x88aa8bee\n      eq\n      tag_7\n      jumpi\n      jump(tag_2)\n    tag_1:\n      jumpi(tag_2, calldatasize)\n        /* \"ICOMarketplace.sol\":1634:1683  revert(\"Contract does not accept Ether directly\") */\n      mload(0x40)\n      0x08c379a000000000000000000000000000000000000000000000000000000000\n      dup2\n      mstore\n      0x04\n      add\n      tag_17\n      swap1\n      tag_18\n      jump\t// in\n    tag_17:\n      mload(0x40)\n      dup1\n      swap2\n      sub\n      swap1\n      revert\n        /* \"ICOMarketplace.sol\":419:5335  contract ICOMarketplace{... */\n    tag_2:\n      0x00\n      dup1\n      revert\n        /* \"ICOMarketplace.sol\":1758:2338  function createICOSale(address _token, uint256 _price) external {... */\n    tag_3:\n      callvalue\n      dup1\n      iszero\n      tag_19\n      jumpi\n      0x00\n      dup1\n      revert\n    tag_19:\n      pop\n      tag_20\n      0x04\n      dup1\n      calldatasize\n      sub\n      dup2\n      add\n      swap1\n      tag_21\n      swap2\n      swap1\n      tag_22\n      jump\t// in\n    tag_21:\n      tag_23\n      jump\t// in\n    tag_20:\n      stop\n        /* \"ICOMarketplace.sol\":4988:5332  function getAllTokens() external view returns(TokenDetails[] memory){... */\n    tag_4:\n      callvalue\n      dup1\n      iszero\n      tag_24\n      jumpi\n      0x00\n      dup1\n      revert\n    tag_24:\n      pop\n      tag_25\n      tag_26\n      jump\t// in\n    tag_25:\n      mload(0x40)\n      tag_27\n      swap2\n      swap1\n      tag_28\n      jump\t// in\n    tag_27:\n      mload(0x40)\n      dup1\n      swap2\n      sub\n      swap1\n      return\n        /* \"ICOMarketplace.sol\":2476:3215  function buyToken(address _token, uint256 _amount) external payable supportedToken(_token){... */\n    tag_5:\n      tag_29\n      0x04\n      dup1\n      calldatasize\n      sub\n      dup2\n      add\n      swap1\n      tag_30\n      swap2\n      swap1\n      tag_22\n      jump\t// in\n    tag_30:\n      tag_31\n      jump\t// in\n    tag_29:\n      stop\n        /* \"ICOMarketplace.sol\":704:738  address[] public allSupportedToken */\n    tag_6:\n      callvalue\n      dup1\n      iszero\n      tag_32\n      jumpi\n      0x00\n      dup1\n      revert\n    tag_32:\n      pop\n      tag_33\n      0x04\n      dup1\n      calldatasize\n      sub\n      dup2\n      add\n      swap1\n      tag_34\n      swap2\n      swap1\n      tag_35\n      jump\t// in\n    tag_34:\n      tag_36\n      jump\t// in\n    tag_33:\n      mload(0x40)\n      tag_37\n      swap2\n      swap1\n      tag_38\n      jump\t// in\n    tag_37:\n      mload(0x40)\n      dup1\n      swap2\n      sub\n      swap1\n      return\n        /* \"ICOMarketplace.sol\":4081:4285  function getTokenDetails(address _token) external view returns(TokenDetails memory){... */\n    tag_7:\n      callvalue\n      dup1\n      iszero\n      tag_39\n      jumpi\n      0x00\n      dup1\n      revert\n    tag_39:\n      pop\n      tag_40\n      0x04\n      dup1\n      calldatasize\n      sub\n      dup2\n      add\n      swap1\n      tag_41\n      swap2\n      swap1\n      tag_42\n      jump\t// in\n    tag_41:\n      tag_43\n      jump\t// in\n    tag_40:\n      mload(0x40)\n      tag_44\n      swap2\n      swap1\n      tag_45\n      jump\t// in\n    tag_44:\n      mload(0x40)\n      dup1\n      swap2\n      sub\n      swap1\n      return\n        /* \"ICOMarketplace.sol\":745:765  address public owner */\n    tag_8:\n      callvalue\n      dup1\n      iszero\n      tag_46\n      jumpi\n      0x00\n      dup1\n      revert\n    tag_46:\n      pop\n      tag_47\n      tag_48\n      jump\t// in\n    tag_47:\n      mload(0x40)\n      tag_49\n      swap2\n      swap1\n      tag_38\n      jump\t// in\n    tag_49:\n      mload(0x40)\n      dup1\n      swap2\n      sub\n      swap1\n      return\n        /* \"ICOMarketplace.sol\":3588:4073  function widthdraw(address _token, uint256 _amount) external onlyCreator(_token) supportedToken(_token) {... */\n    tag_9:\n      callvalue\n      dup1\n      iszero\n      tag_50\n      jumpi\n      0x00\n      dup1\n      revert\n    tag_50:\n      pop\n      tag_51\n      0x04\n      dup1\n      calldatasize\n      sub\n      dup2\n      add\n      swap1\n      tag_52\n      swap2\n      swap1\n      tag_22\n      jump\t// in\n    tag_52:\n      tag_53\n      jump\t// in\n    tag_51:\n      stop\n        /* \"ICOMarketplace.sol\":3468:3580  function getSupportedTokens() external view returns(address[] memory){... */\n    tag_10:\n      callvalue\n      dup1\n      iszero\n      tag_54\n      jumpi\n      0x00\n      dup1\n      revert\n    tag_54:\n      pop\n      tag_55\n      tag_56\n      jump\t// in\n    tag_55:\n      mload(0x40)\n      tag_57\n      swap2\n      swap1\n      tag_58\n      jump\t// in\n    tag_57:\n      mload(0x40)\n      dup1\n      swap2\n      sub\n      swap1\n      return\n        /* \"ICOMarketplace.sol\":645:697  mapping(address => TokenDetails) public tokenDetails */\n    tag_11:\n      callvalue\n      dup1\n      iszero\n      tag_59\n      jumpi\n      0x00\n      dup1\n      revert\n    tag_59:\n      pop\n      tag_60\n      0x04\n      dup1\n      calldatasize\n      sub\n      dup2\n      add\n      swap1\n      tag_61\n      swap2\n      swap1\n      tag_42\n      jump\t// in\n    tag_61:\n      tag_62\n      jump\t// in\n    tag_60:\n      mload(0x40)\n      tag_63\n      swap7\n      swap6\n      swap5\n      swap4\n      swap3\n      swap2\n      swap1\n      tag_64\n      jump\t// in\n    tag_63:\n      mload(0x40)\n      dup1\n      swap2\n      sub\n      swap1\n      return\n        /* \"ICOMarketplace.sol\":4293:4980  function getTokenCreatedBy(address _creator) external view returns(TokenDetails[] memory){... */\n    tag_12:\n      callvalue\n      dup1\n      iszero\n      tag_65\n      jumpi\n      0x00\n      dup1\n      revert\n    tag_65:\n      pop\n      tag_66\n      0x04\n      dup1\n      calldatasize\n      sub\n      dup2\n      add\n      swap1\n      tag_67\n      swap2\n      swap1\n      tag_42\n      jump\t// in\n    tag_67:\n      tag_68\n      jump\t// in\n    tag_66:\n      mload(0x40)\n      tag_69\n      swap2\n      swap1\n      tag_28\n      jump\t// in\n    tag_69:\n      mload(0x40)\n      dup1\n      swap2\n      sub\n      swap1\n      return\n        /* \"ICOMarketplace.sol\":3223:3460  function getBalance(address _token) external view returns(uint256){... */\n    tag_13:\n      callvalue\n      dup1\n      iszero\n      tag_70\n      jumpi\n      0x00\n      dup1\n      revert\n    tag_70:\n      pop\n      tag_71\n      0x04\n      dup1\n      calldatasize\n      sub\n      dup2\n      add\n      swap1\n      tag_72\n      swap2\n      swap1\n      tag_42\n      jump\t// in\n    tag_72:\n      tag_73\n      jump\t// in\n    tag_71:\n      mload(0x40)\n      tag_74\n      swap2\n      swap1\n      tag_75\n      jump\t// in\n    tag_74:\n      mload(0x40)\n      dup1\n      swap2\n      sub\n      swap1\n      return\n        /* \"ICOMarketplace.sol\":1758:2338  function createICOSale(address _token, uint256 _price) external {... */\n    tag_23:\n        /* \"ICOMarketplace.sol\":1833:1845  IERC20 token */\n      0x00\n        /* \"ICOMarketplace.sol\":1855:1861  _token */\n      dup3\n        /* \"ICOMarketplace.sol\":1833:1862  IERC20 token = IERC20(_token) */\n      swap1\n      pop\n        /* \"ICOMarketplace.sol\":1873:1896  string memory tokenName */\n      0x00\n        /* \"ICOMarketplace.sol\":1899:1904  token */\n      dup2\n        /* \"ICOMarketplace.sol\":1899:1909  token.name */\n      0xffffffffffffffffffffffffffffffffffffffff\n      and\n      0x06fdde03\n        /* \"ICOMarketplace.sol\":1899:1911  token.name() */\n      mload(0x40)\n      dup2\n      0xffffffff\n      and\n      0xe0\n      shl\n      dup2\n      mstore\n      0x04\n      add\n      0x00\n      mload(0x40)\n      dup1\n      dup4\n      sub\n      dup2\n      dup7\n      gas\n      staticcall\n      iszero\n      dup1\n      iszero\n      tag_78\n      jumpi\n      returndatasize\n      0x00\n      dup1\n      returndatacopy\n      revert(0x00, returndatasize)\n    tag_78:\n      pop\n      pop\n      pop\n      pop\n      mload(0x40)\n      returndatasize\n      0x00\n      dup3\n      returndatacopy\n      returndatasize\n      not(0x1f)\n      0x1f\n      dup3\n      add\n      and\n      dup3\n      add\n      dup1\n      0x40\n      mstore\n      pop\n      dup2\n      add\n      swap1\n      tag_79\n      swap2\n      swap1\n      tag_80\n      jump\t// in\n    tag_79:\n        /* \"ICOMarketplace.sol\":1873:1911  string memory tokenName = token.name() */\n      swap1\n      pop\n        /* \"ICOMarketplace.sol\":1922:1947  string memory tokenSymbol */\n      0x00\n        /* \"ICOMarketplace.sol\":1950:1955  token */\n      dup3\n        /* \"ICOMarketplace.sol\":1950:1962  token.symbol */\n      0xffffffffffffffffffffffffffffffffffffffff\n      and\n      0x95d89b41\n        /* \"ICOMarketplace.sol\":1950:1964  token.symbol() */\n      mload(0x40)\n      dup2\n      0xffffffff\n      and\n      0xe0\n      shl\n      dup2\n      mstore\n      0x04\n      add\n      0x00\n      mload(0x40)\n      dup1\n      dup4\n      sub\n      dup2\n      dup7\n      gas\n      staticcall\n      iszero\n      dup1\n      iszero\n      tag_82\n      jumpi\n      returndatasize\n      0x00\n      dup1\n      returndatacopy\n      revert(0x00, returndatasize)\n    tag_82:\n      pop\n      pop\n      pop\n      pop\n      mload(0x40)\n      returndatasize\n      0x00\n      dup3\n      returndatacopy\n      returndatasize\n      not(0x1f)\n      0x1f\n      dup3\n      add\n      and\n      dup3\n      add\n      dup1\n      0x40\n      mstore\n      pop\n      dup2\n      add\n      swap1\n      tag_83\n      swap2\n      swap1\n      tag_80\n      jump\t// in\n    tag_83:\n        /* \"ICOMarketplace.sol\":1922:1964  string memory tokenSymbol = token.symbol() */\n      swap1\n      pop\n        /* \"ICOMarketplace.sol\":2000:2209  TokenDetails({... */\n      mload(0x40)\n      dup1\n      0xc0\n      add\n      0x40\n      mstore\n      dup1\n        /* \"ICOMarketplace.sol\":2035:2041  _token */\n      dup7\n        /* \"ICOMarketplace.sol\":2000:2209  TokenDetails({... */\n      0xffffffffffffffffffffffffffffffffffffffff\n      and\n      dup2\n      mstore\n      0x20\n      add\n        /* \"ICOMarketplace.sol\":2067:2071  true */\n      0x01\n        /* \"ICOMarketplace.sol\":2000:2209  TokenDetails({... */\n      iszero\n      iszero\n      dup2\n      mstore\n      0x20\n      add\n        /* \"ICOMarketplace.sol\":2093:2099  _price */\n      dup6\n        /* \"ICOMarketplace.sol\":2000:2209  TokenDetails({... */\n      dup2\n      mstore\n      0x20\n      add\n        /* \"ICOMarketplace.sol\":2123:2133  msg.sender */\n      caller\n        /* \"ICOMarketplace.sol\":2000:2209  TokenDetails({... */\n      0xffffffffffffffffffffffffffffffffffffffff\n      and\n      dup2\n      mstore\n      0x20\n      add\n        /* \"ICOMarketplace.sol\":2154:2163  tokenName */\n      dup4\n        /* \"ICOMarketplace.sol\":2000:2209  TokenDetails({... */\n      dup2\n      mstore\n      0x20\n      add\n        /* \"ICOMarketplace.sol\":2186:2197  tokenSymbol */\n      dup3\n        /* \"ICOMarketplace.sol\":2000:2209  TokenDetails({... */\n      dup2\n      mstore\n      pop\n        /* \"ICOMarketplace.sol\":1977:1989  tokenDetails */\n      0x00\n        /* \"ICOMarketplace.sol\":1977:1997  tokenDetails[_token] */\n      dup1\n        /* \"ICOMarketplace.sol\":1990:1996  _token */\n      dup8\n        /* \"ICOMarketplace.sol\":1977:1997  tokenDetails[_token] */\n      0xffffffffffffffffffffffffffffffffffffffff\n      and\n      0xffffffffffffffffffffffffffffffffffffffff\n      and\n      dup2\n      mstore\n      0x20\n      add\n      swap1\n      dup2\n      mstore\n      0x20\n      add\n      0x00\n      keccak256\n        /* \"ICOMarketplace.sol\":1977:2209  tokenDetails[_token] = TokenDetails({... */\n      0x00\n      dup3\n      add\n      mload\n      dup2\n      0x00\n      add\n      exp(0x0100, 0x00)\n      dup2\n      sload\n      dup2\n      0xffffffffffffffffffffffffffffffffffffffff\n      mul\n      not\n      and\n      swap1\n      dup4\n      0xffffffffffffffffffffffffffffffffffffffff\n      and\n      mul\n      or\n      swap1\n      sstore\n      pop\n      0x20\n      dup3\n      add\n      mload\n      dup2\n      0x00\n      add\n      exp(0x0100, 0x14)\n      dup2\n      sload\n      dup2\n      0xff\n      mul\n      not\n      and\n      swap1\n      dup4\n      iszero\n      iszero\n      mul\n      or\n      swap1\n      sstore\n      pop\n      0x40\n      dup3\n      add\n      mload\n      dup2\n      0x01\n      add\n      sstore\n      0x60\n      dup3\n      add\n      mload\n      dup2\n      0x02\n      add\n      exp(0x0100, 0x00)\n      dup2\n      sload\n      dup2\n      0xffffffffffffffffffffffffffffffffffffffff\n      mul\n      not\n      and\n      swap1\n      dup4\n      0xffffffffffffffffffffffffffffffffffffffff\n      and\n      mul\n      or\n      swap1\n      sstore\n      pop\n      0x80\n      dup3\n      add\n      mload\n      dup2\n      0x03\n      add\n      swap1\n      dup2\n      tag_84\n      swap2\n      swap1\n      tag_85\n      jump\t// in\n    tag_84:\n      pop\n      0xa0\n      dup3\n      add\n      mload\n      dup2\n      0x04\n      add\n      swap1\n      dup2\n      tag_86\n      swap2\n      swap1\n      tag_85\n      jump\t// in\n    tag_86:\n      pop\n      swap1\n      pop\n      pop\n        /* \"ICOMarketplace.sol\":2220:2237  allSupportedToken */\n      0x01\n        /* \"ICOMarketplace.sol\":2243:2249  _token */\n      dup6\n        /* \"ICOMarketplace.sol\":2220:2250  allSupportedToken.push(_token) */\n      swap1\n      dup1\n      0x01\n      dup2\n      sload\n      add\n      dup1\n      dup3\n      sstore\n      dup1\n      swap2\n      pop\n      pop\n      0x01\n      swap1\n      sub\n      swap1\n      0x00\n      mstore\n      keccak256(0x00, 0x20)\n      add\n      0x00\n      swap1\n      swap2\n      swap1\n      swap2\n      swap1\n      swap2\n      0x0100\n      exp\n      dup2\n      sload\n      dup2\n      0xffffffffffffffffffffffffffffffffffffffff\n      mul\n      not\n      and\n      swap1\n      dup4\n      0xffffffffffffffffffffffffffffffffffffffff\n      and\n      mul\n      or\n      swap1\n      sstore\n      pop\n        /* \"ICOMarketplace.sol\":2295:2305  msg.sender */\n      caller\n        /* \"ICOMarketplace.sol\":2268:2330  TokenAdded(_token, _price, msg.sender, tokenName, tokenSymbol) */\n      0xffffffffffffffffffffffffffffffffffffffff\n      and\n        /* \"ICOMarketplace.sol\":2279:2285  _token */\n      dup6\n        /* \"ICOMarketplace.sol\":2268:2330  TokenAdded(_token, _price, msg.sender, tokenName, tokenSymbol) */\n      0xffffffffffffffffffffffffffffffffffffffff\n      and\n      0x3a9a79cd15a41f1359a9a9233af1f78982f570cfef886de45a01769c231b4c84\n        /* \"ICOMarketplace.sol\":2287:2293  _price */\n      dup7\n        /* \"ICOMarketplace.sol\":2307:2316  tokenName */\n      dup6\n        /* \"ICOMarketplace.sol\":2318:2329  tokenSymbol */\n      dup6\n        /* \"ICOMarketplace.sol\":2268:2330  TokenAdded(_token, _price, msg.sender, tokenName, tokenSymbol) */\n      mload(0x40)\n      tag_88\n      swap4\n      swap3\n      swap2\n      swap1\n      tag_89\n      jump\t// in\n    tag_88:\n      mload(0x40)\n      dup1\n      swap2\n      sub\n      swap1\n      log3\n        /* \"ICOMarketplace.sol\":1822:2338  {... */\n      pop\n      pop\n      pop\n        /* \"ICOMarketplace.sol\":1758:2338  function createICOSale(address _token, uint256 _price) external {... */\n      pop\n      pop\n      jump\t// out\n        /* \"ICOMarketplace.sol\":4988:5332  function getAllTokens() external view returns(TokenDetails[] memory){... */\n    tag_26:\n        /* \"ICOMarketplace.sol\":5034:5055  TokenDetails[] memory */\n      0x60\n        /* \"ICOMarketplace.sol\":5067:5081  uint256 length */\n      0x00\n        /* \"ICOMarketplace.sol\":5084:5101  allSupportedToken */\n      0x01\n        /* \"ICOMarketplace.sol\":5084:5108  allSupportedToken.length */\n      dup1\n      sload\n      swap1\n      pop\n        /* \"ICOMarketplace.sol\":5067:5108  uint256 length = allSupportedToken.length */\n      swap1\n      pop\n        /* \"ICOMarketplace.sol\":5121:5149  TokenDetails[] memory tokens */\n      0x00\n        /* \"ICOMarketplace.sol\":5171:5177  length */\n      dup2\n        /* \"ICOMarketplace.sol\":5152:5178  new TokenDetails[](length) */\n      0xffffffffffffffff\n      dup2\n      gt\n      iszero\n      tag_91\n      jumpi\n      tag_92\n      tag_93\n      jump\t// in\n    tag_92:\n    tag_91:\n      mload(0x40)\n      swap1\n      dup1\n      dup3\n      mstore\n      dup1\n      0x20\n      mul\n      0x20\n      add\n      dup3\n      add\n      0x40\n      mstore\n      dup1\n      iszero\n      tag_94\n      jumpi\n      dup2\n      0x20\n      add\n    tag_95:\n      tag_96\n      tag_97\n      jump\t// in\n    tag_96:\n      dup2\n      mstore\n      0x20\n      add\n      swap1\n      0x01\n      swap1\n      sub\n      swap1\n      dup2\n      tag_95\n      jumpi\n      swap1\n      pop\n    tag_94:\n      pop\n        /* \"ICOMarketplace.sol\":5121:5178  TokenDetails[] memory tokens = new TokenDetails[](length) */\n      swap1\n      pop\n        /* \"ICOMarketplace.sol\":5194:5203  uint256 i */\n      0x00\n        /* \"ICOMarketplace.sol\":5189:5299  for (uint256 i = 0; i < length; i++) {... */\n    tag_98:\n        /* \"ICOMarketplace.sol\":5213:5219  length */\n      dup3\n        /* \"ICOMarketplace.sol\":5209:5210  i */\n      dup2\n        /* \"ICOMarketplace.sol\":5209:5219  i < length */\n      lt\n        /* \"ICOMarketplace.sol\":5189:5299  for (uint256 i = 0; i < length; i++) {... */\n      iszero\n      tag_99\n      jumpi\n        /* \"ICOMarketplace.sol\":5253:5265  tokenDetails */\n      0x00\n        /* \"ICOMarketplace.sol\":5253:5287  tokenDetails[allSupportedToken[i]] */\n      dup1\n        /* \"ICOMarketplace.sol\":5266:5283  allSupportedToken */\n      0x01\n        /* \"ICOMarketplace.sol\":5284:5285  i */\n      dup4\n        /* \"ICOMarketplace.sol\":5266:5286  allSupportedToken[i] */\n      dup2\n      sload\n      dup2\n      lt\n      tag_101\n      jumpi\n      tag_102\n      tag_103\n      jump\t// in\n    tag_102:\n    tag_101:\n      swap1\n      0x00\n      mstore\n      keccak256(0x00, 0x20)\n      add\n      0x00\n      swap1\n      sload\n      swap1\n      0x0100\n      exp\n      swap1\n      div\n      0xffffffffffffffffffffffffffffffffffffffff\n      and\n        /* \"ICOMarketplace.sol\":5253:5287  tokenDetails[allSupportedToken[i]] */\n      0xffffffffffffffffffffffffffffffffffffffff\n      and\n      0xffffffffffffffffffffffffffffffffffffffff\n      and\n      dup2\n      mstore\n      0x20\n      add\n      swap1\n      dup2\n      mstore\n      0x20\n      add\n      0x00\n      keccak256\n        /* \"ICOMarketplace.sol\":5241:5287  tokens[i] = tokenDetails[allSupportedToken[i]] */\n      mload(0x40)\n      dup1\n      0xc0\n      add\n      0x40\n      mstore\n      swap1\n      dup2\n      0x00\n      dup3\n      add\n      0x00\n      swap1\n      sload\n      swap1\n      0x0100\n      exp\n      swap1\n      div\n      0xffffffffffffffffffffffffffffffffffffffff\n      and\n      0xffffffffffffffffffffffffffffffffffffffff\n      and\n      0xffffffffffffffffffffffffffffffffffffffff\n      and\n      dup2\n      mstore\n      0x20\n      add\n      0x00\n      dup3\n      add\n      0x14\n      swap1\n      sload\n      swap1\n      0x0100\n      exp\n      swap1\n      div\n      0xff\n      and\n      iszero\n      iszero\n      iszero\n      iszero\n      dup2\n      mstore\n      0x20\n      add\n      0x01\n      dup3\n      add\n      sload\n      dup2\n      mstore\n      0x20\n      add\n      0x02\n      dup3\n      add\n      0x00\n      swap1\n      sload\n      swap1\n      0x0100\n      exp\n      swap1\n      div\n      0xffffffffffffffffffffffffffffffffffffffff\n      and\n      0xffffffffffffffffffffffffffffffffffffffff\n      and\n      0xffffffffffffffffffffffffffffffffffffffff\n      and\n      dup2\n      mstore\n      0x20\n      add\n      0x03\n      dup3\n      add\n      dup1\n      sload\n      tag_105\n      swap1\n      tag_106\n      jump\t// in\n    tag_105:\n      dup1\n      0x1f\n      add\n      0x20\n      dup1\n      swap2\n      div\n      mul\n      0x20\n      add\n      mload(0x40)\n      swap1\n      dup2\n      add\n      0x40\n      mstore\n      dup1\n      swap3\n      swap2\n      swap1\n      dup2\n      dup2\n      mstore\n      0x20\n      add\n      dup3\n      dup1\n      sload\n      tag_107\n      swap1\n      tag_106\n      jump\t// in\n    tag_107:\n      dup1\n      iszero\n      tag_108\n      jumpi\n      dup1\n      0x1f\n      lt\n      tag_109\n      jumpi\n      0x0100\n      dup1\n      dup4\n      sload\n      div\n      mul\n      dup4\n      mstore\n      swap2\n      0x20\n      add\n      swap2\n      jump(tag_108)\n    tag_109:\n      dup3\n      add\n      swap2\n      swap1\n      0x00\n      mstore\n      keccak256(0x00, 0x20)\n      swap1\n    tag_110:\n      dup2\n      sload\n      dup2\n      mstore\n      swap1\n      0x01\n      add\n      swap1\n      0x20\n      add\n      dup1\n      dup4\n      gt\n      tag_110\n      jumpi\n      dup3\n      swap1\n      sub\n      0x1f\n      and\n      dup3\n      add\n      swap2\n    tag_108:\n      pop\n      pop\n      pop\n      pop\n      pop\n      dup2\n      mstore\n      0x20\n      add\n      0x04\n      dup3\n      add\n      dup1\n      sload\n      tag_111\n      swap1\n      tag_106\n      jump\t// in\n    tag_111:\n      dup1\n      0x1f\n      add\n      0x20\n      dup1\n      swap2\n      div\n      mul\n      0x20\n      add\n      mload(0x40)\n      swap1\n      dup2\n      add\n      0x40\n      mstore\n      dup1\n      swap3\n      swap2\n      swap1\n      dup2\n      dup2\n      mstore\n      0x20\n      add\n      dup3\n      dup1\n      sload\n      tag_112\n      swap1\n      tag_106\n      jump\t// in\n    tag_112:\n      dup1\n      iszero\n      tag_113\n      jumpi\n      dup1\n      0x1f\n      lt\n      tag_114\n      jumpi\n      0x0100\n      dup1\n      dup4\n      sload\n      div\n      mul\n      dup4\n      mstore\n      swap2\n      0x20\n      add\n      swap2\n      jump(tag_113)\n    tag_114:\n      dup3\n      add\n      swap2\n      swap1\n      0x00\n      mstore\n      keccak256(0x00, 0x20)\n      swap1\n    tag_115:\n      dup2\n      sload\n      dup2\n      mstore\n      swap1\n      0x01\n      add\n      swap1\n      0x20\n      add\n      dup1\n      dup4\n      gt\n      tag_115\n      jumpi\n      dup3\n      swap1\n      sub\n      0x1f\n      and\n      dup3\n      add\n      swap2\n    tag_113:\n      pop\n      pop\n      pop\n      pop\n      pop\n      dup2\n      mstore\n      pop\n      pop\n        /* \"ICOMarketplace.sol\":5241:5247  tokens */\n      dup3\n        /* \"ICOMarketplace.sol\":5248:5249  i */\n      dup3\n        /* \"ICOMarketplace.sol\":5241:5250  tokens[i] */\n      dup2\n      mload\n      dup2\n      lt\n      tag_116\n      jumpi\n      tag_117\n      tag_103\n      jump\t// in\n    tag_117:\n    tag_116:\n      0x20\n      mul\n      0x20\n      add\n      add\n        /* \"ICOMarketplace.sol\":5241:5287  tokens[i] = tokenDetails[allSupportedToken[i]] */\n      dup2\n      swap1\n      mstore\n      pop\n        /* \"ICOMarketplace.sol\":5221:5224  i++ */\n      dup1\n      dup1\n      0x01\n      add\n      swap2\n      pop\n      pop\n        /* \"ICOMarketplace.sol\":5189:5299  for (uint256 i = 0; i < length; i++) {... */\n      jump(tag_98)\n    tag_99:\n      pop\n        /* \"ICOMarketplace.sol\":5318:5324  tokens */\n      dup1\n        /* \"ICOMarketplace.sol\":5311:5324  return tokens */\n      swap3\n      pop\n      pop\n      pop\n        /* \"ICOMarketplace.sol\":4988:5332  function getAllTokens() external view returns(TokenDetails[] memory){... */\n      swap1\n      jump\t// out\n        /* \"ICOMarketplace.sol\":2476:3215  function buyToken(address _token, uint256 _amount) external payable supportedToken(_token){... */\n    tag_31:\n        /* \"ICOMarketplace.sol\":2559:2565  _token */\n      dup2\n        /* \"ICOMarketplace.sol\":1238:1250  tokenDetails */\n      0x00\n        /* \"ICOMarketplace.sol\":1238:1258  tokenDetails[_token] */\n      dup1\n        /* \"ICOMarketplace.sol\":1251:1257  _token */\n      dup3\n        /* \"ICOMarketplace.sol\":1238:1258  tokenDetails[_token] */\n      0xffffffffffffffffffffffffffffffffffffffff\n      and\n      0xffffffffffffffffffffffffffffffffffffffff\n      and\n      dup2\n      mstore\n      0x20\n      add\n      swap1\n      dup2\n      mstore\n      0x20\n      add\n      0x00\n      keccak256\n        /* \"ICOMarketplace.sol\":1238:1268  tokenDetails[_token].supported */\n      0x00\n      add\n      0x14\n      swap1\n      sload\n      swap1\n      0x0100\n      exp\n      swap1\n      div\n      0xff\n      and\n        /* \"ICOMarketplace.sol\":1230:1292  require(tokenDetails[_token].supported, \"Token not supported\") */\n      tag_119\n      jumpi\n      mload(0x40)\n      0x08c379a000000000000000000000000000000000000000000000000000000000\n      dup2\n      mstore\n      0x04\n      add\n      tag_120\n      swap1\n      tag_121\n      jump\t// in\n    tag_120:\n      mload(0x40)\n      dup1\n      swap2\n      sub\n      swap1\n      revert\n    tag_119:\n        /* \"ICOMarketplace.sol\":2593:2594  0 */\n      0x00\n        /* \"ICOMarketplace.sol\":2585:2592  _amount */\n      dup3\n        /* \"ICOMarketplace.sol\":2585:2594  _amount>0 */\n      gt\n        /* \"ICOMarketplace.sol\":2577:2628  require(_amount>0, \"Amount must be greater than 0\") */\n      tag_123\n      jumpi\n      mload(0x40)\n      0x08c379a000000000000000000000000000000000000000000000000000000000\n      dup2\n      mstore\n      0x04\n      add\n      tag_124\n      swap1\n      tag_125\n      jump\t// in\n    tag_124:\n      mload(0x40)\n      dup1\n      swap2\n      sub\n      swap1\n      revert\n    tag_123:\n        /* \"ICOMarketplace.sol\":2641:2668  TokenDetails memory details */\n      0x00\n        /* \"ICOMarketplace.sol\":2671:2683  tokenDetails */\n      dup1\n        /* \"ICOMarketplace.sol\":2671:2691  tokenDetails[_token] */\n      0x00\n        /* \"ICOMarketplace.sol\":2684:2690  _token */\n      dup6\n        /* \"ICOMarketplace.sol\":2671:2691  tokenDetails[_token] */\n      0xffffffffffffffffffffffffffffffffffffffff\n      and\n      0xffffffffffffffffffffffffffffffffffffffff\n      and\n      dup2\n      mstore\n      0x20\n      add\n      swap1\n      dup2\n      mstore\n      0x20\n      add\n      0x00\n      keccak256\n        /* \"ICOMarketplace.sol\":2641:2691  TokenDetails memory details = tokenDetails[_token] */\n      mload(0x40)\n      dup1\n      0xc0\n      add\n      0x40\n      mstore\n      swap1\n      dup2\n      0x00\n      dup3\n      add\n      0x00\n      swap1\n      sload\n      swap1\n      0x0100\n      exp\n      swap1\n      div\n      0xffffffffffffffffffffffffffffffffffffffff\n      and\n      0xffffffffffffffffffffffffffffffffffffffff\n      and\n      0xffffffffffffffffffffffffffffffffffffffff\n      and\n      dup2\n      mstore\n      0x20\n      add\n      0x00\n      dup3\n      add\n      0x14\n      swap1\n      sload\n      swap1\n      0x0100\n      exp\n      swap1\n      div\n      0xff\n      and\n      iszero\n      iszero\n      iszero\n      iszero\n      dup2\n      mstore\n      0x20\n      add\n      0x01\n      dup3\n      add\n      sload\n      dup2\n      mstore\n      0x20\n      add\n      0x02\n      dup3\n      add\n      0x00\n      swap1\n      sload\n      swap1\n      0x0100\n      exp\n      swap1\n      div\n      0xffffffffffffffffffffffffffffffffffffffff\n      and\n      0xffffffffffffffffffffffffffffffffffffffff\n      and\n      0xffffffffffffffffffffffffffffffffffffffff\n      and\n      dup2\n      mstore\n      0x20\n      add\n      0x03\n      dup3\n      add\n      dup1\n      sload\n      tag_126\n      swap1\n      tag_106\n      jump\t// in\n    tag_126:\n      dup1\n      0x1f\n      add\n      0x20\n      dup1\n      swap2\n      div\n      mul\n      0x20\n      add\n      mload(0x40)\n      swap1\n      dup2\n      add\n      0x40\n      mstore\n      dup1\n      swap3\n      swap2\n      swap1\n      dup2\n      dup2\n      mstore\n      0x20\n      add\n      dup3\n      dup1\n      sload\n      tag_127\n      swap1\n      tag_106\n      jump\t// in\n    tag_127:\n      dup1\n      iszero\n      tag_128\n      jumpi\n      dup1\n      0x1f\n      lt\n      tag_129\n      jumpi\n      0x0100\n      dup1\n      dup4\n      sload\n      div\n      mul\n      dup4\n      mstore\n      swap2\n      0x20\n      add\n      swap2\n      jump(tag_128)\n    tag_129:\n      dup3\n      add\n      swap2\n      swap1\n      0x00\n      mstore\n      keccak256(0x00, 0x20)\n      swap1\n    tag_130:\n      dup2\n      sload\n      dup2\n      mstore\n      swap1\n      0x01\n      add\n      swap1\n      0x20\n      add\n      dup1\n      dup4\n      gt\n      tag_130\n      jumpi\n      dup3\n      swap1\n      sub\n      0x1f\n      and\n      dup3\n      add\n      swap2\n    tag_128:\n      pop\n      pop\n      pop\n      pop\n      pop\n      dup2\n      mstore\n      0x20\n      add\n      0x04\n      dup3\n      add\n      dup1\n      sload\n      tag_131\n      swap1\n      tag_106\n      jump\t// in\n    tag_131:\n      dup1\n      0x1f\n      add\n      0x20\n      dup1\n      swap2\n      div\n      mul\n      0x20\n      add\n      mload(0x40)\n      swap1\n      dup2\n      add\n      0x40\n      mstore\n      dup1\n      swap3\n      swap2\n      swap1\n      dup2\n      dup2\n      mstore\n      0x20\n      add\n      dup3\n      dup1\n      sload\n      tag_132\n      swap1\n      tag_106\n      jump\t// in\n    tag_132:\n      dup1\n      iszero\n      tag_133\n      jumpi\n      dup1\n      0x1f\n      lt\n      tag_134\n      jumpi\n      0x0100\n      dup1\n      dup4\n      sload\n      div\n      mul\n      dup4\n      mstore\n      swap2\n      0x20\n      add\n      swap2\n      jump(tag_133)\n    tag_134:\n      dup3\n      add\n      swap2\n      swap1\n      0x00\n      mstore\n      keccak256(0x00, 0x20)\n      swap1\n    tag_135:\n      dup2\n      sload\n      dup2\n      mstore\n      swap1\n      0x01\n      add\n      swap1\n      0x20\n      add\n      dup1\n      dup4\n      gt\n      tag_135\n      jumpi\n      dup3\n      swap1\n      sub\n      0x1f\n      and\n      dup3\n      add\n      swap2\n    tag_133:\n      pop\n      pop\n      pop\n      pop\n      pop\n      dup2\n      mstore\n      pop\n      pop\n      swap1\n      pop\n        /* \"ICOMarketplace.sol\":2702:2719  uint256 totalCost */\n      0x00\n        /* \"ICOMarketplace.sol\":2722:2754  multiply(details.price, _amount) */\n      tag_136\n        /* \"ICOMarketplace.sol\":2731:2738  details */\n      dup3\n        /* \"ICOMarketplace.sol\":2731:2744  details.price */\n      0x40\n      add\n      mload\n        /* \"ICOMarketplace.sol\":2746:2753  _amount */\n      dup6\n        /* \"ICOMarketplace.sol\":2722:2730  multiply */\n      tag_137\n        /* \"ICOMarketplace.sol\":2722:2754  multiply(details.price, _amount) */\n      jump\t// in\n    tag_136:\n        /* \"ICOMarketplace.sol\":2702:2754  uint256 totalCost = multiply(details.price, _amount) */\n      swap1\n      pop\n        /* \"ICOMarketplace.sol\":2786:2795  totalCost */\n      dup1\n        /* \"ICOMarketplace.sol\":2773:2782  msg.value */\n      callvalue\n        /* \"ICOMarketplace.sol\":2773:2795  msg.value == totalCost */\n      eq\n        /* \"ICOMarketplace.sol\":2765:2827  require(msg.value == totalCost, \"Incorrect Ether amount sent\") */\n      tag_138\n      jumpi\n      mload(0x40)\n      0x08c379a000000000000000000000000000000000000000000000000000000000\n      dup2\n      mstore\n      0x04\n      add\n      tag_139\n      swap1\n      tag_140\n      jump\t// in\n    tag_139:\n      mload(0x40)\n      dup1\n      swap2\n      sub\n      swap1\n      revert\n    tag_138:\n        /* \"ICOMarketplace.sol\":2890:2899  bool sent */\n      0x00\n        /* \"ICOMarketplace.sol\":2904:2911  details */\n      dup3\n        /* \"ICOMarketplace.sol\":2904:2919  details.creator */\n      0x60\n      add\n      mload\n        /* \"ICOMarketplace.sol\":2904:2924  details.creator.call */\n      0xffffffffffffffffffffffffffffffffffffffff\n      and\n        /* \"ICOMarketplace.sol\":2932:2941  msg.value */\n      callvalue\n        /* \"ICOMarketplace.sol\":2904:2946  details.creator.call{value: msg.value}(\"\") */\n      mload(0x40)\n      tag_141\n      swap1\n      tag_142\n      jump\t// in\n    tag_141:\n      0x00\n      mload(0x40)\n      dup1\n      dup4\n      sub\n      dup2\n      dup6\n      dup8\n      gas\n      call\n      swap3\n      pop\n      pop\n      pop\n      returndatasize\n      dup1\n      0x00\n      dup2\n      eq\n      tag_145\n      jumpi\n      mload(0x40)\n      swap2\n      pop\n      and(add(returndatasize, 0x3f), not(0x1f))\n      dup3\n      add\n      0x40\n      mstore\n      returndatasize\n      dup3\n      mstore\n      returndatasize\n      0x00\n      0x20\n      dup5\n      add\n      returndatacopy\n      jump(tag_144)\n    tag_145:\n      0x60\n      swap2\n      pop\n    tag_144:\n      pop\n        /* \"ICOMarketplace.sol\":2889:2946  (bool sent,) = details.creator.call{value: msg.value}(\"\") */\n      pop\n      swap1\n      pop\n        /* \"ICOMarketplace.sol\":2965:2969  sent */\n      dup1\n        /* \"ICOMarketplace.sol\":2957:3019  require(sent, \"Failed tp transfer the ETher to token creator\") */\n      tag_146\n      jumpi\n      mload(0x40)\n      0x08c379a000000000000000000000000000000000000000000000000000000000\n      dup2\n      mstore\n      0x04\n      add\n      tag_147\n      swap1\n      tag_148\n      jump\t// in\n    tag_147:\n      mload(0x40)\n      dup1\n      swap2\n      sub\n      swap1\n      revert\n    tag_146:\n        /* \"ICOMarketplace.sol\":3032:3044  IERC20 token */\n      0x00\n        /* \"ICOMarketplace.sol\":3054:3060  _token */\n      dup7\n        /* \"ICOMarketplace.sol\":3032:3061  IERC20 token = IERC20(_token) */\n      swap1\n      pop\n        /* \"ICOMarketplace.sol\":3080:3085  token */\n      dup1\n        /* \"ICOMarketplace.sol\":3080:3094  token.transfer */\n      0xffffffffffffffffffffffffffffffffffffffff\n      and\n      0xa9059cbb\n        /* \"ICOMarketplace.sol\":3095:3105  msg.sender */\n      caller\n        /* \"ICOMarketplace.sol\":3115:3121  10**18 */\n      0x0de0b6b3a7640000\n        /* \"ICOMarketplace.sol\":3107:3114  _amount */\n      dup10\n        /* \"ICOMarketplace.sol\":3107:3121  _amount*10**18 */\n      tag_149\n      swap2\n      swap1\n      tag_150\n      jump\t// in\n    tag_149:\n        /* \"ICOMarketplace.sol\":3080:3122  token.transfer(msg.sender, _amount*10**18) */\n      mload(0x40)\n      dup4\n      0xffffffff\n      and\n      0xe0\n      shl\n      dup2\n      mstore\n      0x04\n      add\n      tag_151\n      swap3\n      swap2\n      swap1\n      tag_152\n      jump\t// in\n    tag_151:\n      0x20\n      mload(0x40)\n      dup1\n      dup4\n      sub\n      dup2\n      0x00\n      dup8\n      gas\n      call\n      iszero\n      dup1\n      iszero\n      tag_154\n      jumpi\n      returndatasize\n      0x00\n      dup1\n      returndatacopy\n      revert(0x00, returndatasize)\n    tag_154:\n      pop\n      pop\n      pop\n      pop\n      mload(0x40)\n      returndatasize\n      not(0x1f)\n      0x1f\n      dup3\n      add\n      and\n      dup3\n      add\n      dup1\n      0x40\n      mstore\n      pop\n      dup2\n      add\n      swap1\n      tag_155\n      swap2\n      swap1\n      tag_156\n      jump\t// in\n    tag_155:\n        /* \"ICOMarketplace.sol\":3072:3142  require(token.transfer(msg.sender, _amount*10**18), \"Transfer Failed\") */\n      tag_157\n      jumpi\n      mload(0x40)\n      0x08c379a000000000000000000000000000000000000000000000000000000000\n      dup2\n      mstore\n      0x04\n      add\n      tag_158\n      swap1\n      tag_159\n      jump\t// in\n    tag_158:\n      mload(0x40)\n      dup1\n      swap2\n      sub\n      swap1\n      revert\n    tag_157:\n        /* \"ICOMarketplace.sol\":3185:3195  msg.sender */\n      caller\n        /* \"ICOMarketplace.sol\":3160:3205  TokenTransferred(_token, msg.sender, _amount) */\n      0xffffffffffffffffffffffffffffffffffffffff\n      and\n        /* \"ICOMarketplace.sol\":3177:3183  _token */\n      dup8\n        /* \"ICOMarketplace.sol\":3160:3205  TokenTransferred(_token, msg.sender, _amount) */\n      0xffffffffffffffffffffffffffffffffffffffff\n      and\n      0x9c8515990fd8c61431c4ac8db9b81475f90c292a1dda77731e56c22e64fc7643\n        /* \"ICOMarketplace.sol\":3197:3204  _amount */\n      dup9\n        /* \"ICOMarketplace.sol\":3160:3205  TokenTransferred(_token, msg.sender, _amount) */\n      mload(0x40)\n      tag_160\n      swap2\n      swap1\n      tag_75\n      jump\t// in\n    tag_160:\n      mload(0x40)\n      dup1\n      swap2\n      sub\n      swap1\n      log3\n        /* \"ICOMarketplace.sol\":2566:3215  {... */\n      pop\n      pop\n      pop\n      pop\n        /* \"ICOMarketplace.sol\":2476:3215  function buyToken(address _token, uint256 _amount) external payable supportedToken(_token){... */\n      pop\n      pop\n      pop\n      jump\t// out\n        /* \"ICOMarketplace.sol\":704:738  address[] public allSupportedToken */\n    tag_36:\n      0x01\n      dup2\n      dup2\n      sload\n      dup2\n      lt\n      tag_161\n      jumpi\n      0x00\n      dup1\n      revert\n    tag_161:\n      swap1\n      0x00\n      mstore\n      keccak256(0x00, 0x20)\n      add\n      0x00\n      swap2\n      pop\n      sload\n      swap1\n      0x0100\n      exp\n      swap1\n      div\n      0xffffffffffffffffffffffffffffffffffffffff\n      and\n      dup2\n      jump\t// out\n        /* \"ICOMarketplace.sol\":4081:4285  function getTokenDetails(address _token) external view returns(TokenDetails memory){... */\n    tag_43:\n        /* \"ICOMarketplace.sol\":4144:4163  TokenDetails memory */\n      tag_163\n      tag_97\n      jump\t// in\n    tag_163:\n        /* \"ICOMarketplace.sol\":4183:4195  tokenDetails */\n      0x00\n        /* \"ICOMarketplace.sol\":4183:4203  tokenDetails[_token] */\n      dup1\n        /* \"ICOMarketplace.sol\":4196:4202  _token */\n      dup4\n        /* \"ICOMarketplace.sol\":4183:4203  tokenDetails[_token] */\n      0xffffffffffffffffffffffffffffffffffffffff\n      and\n      0xffffffffffffffffffffffffffffffffffffffff\n      and\n      dup2\n      mstore\n      0x20\n      add\n      swap1\n      dup2\n      mstore\n      0x20\n      add\n      0x00\n      keccak256\n        /* \"ICOMarketplace.sol\":4183:4213  tokenDetails[_token].supported */\n      0x00\n      add\n      0x14\n      swap1\n      sload\n      swap1\n      0x0100\n      exp\n      swap1\n      div\n      0xff\n      and\n        /* \"ICOMarketplace.sol\":4175:4237  require(tokenDetails[_token].supported, \"Token not supported\") */\n      tag_165\n      jumpi\n      mload(0x40)\n      0x08c379a000000000000000000000000000000000000000000000000000000000\n      dup2\n      mstore\n      0x04\n      add\n      tag_166\n      swap1\n      tag_121\n      jump\t// in\n    tag_166:\n      mload(0x40)\n      dup1\n      swap2\n      sub\n      swap1\n      revert\n    tag_165:\n        /* \"ICOMarketplace.sol\":4257:4269  tokenDetails */\n      0x00\n        /* \"ICOMarketplace.sol\":4257:4277  tokenDetails[_token] */\n      dup1\n        /* \"ICOMarketplace.sol\":4270:4276  _token */\n      dup4\n        /* \"ICOMarketplace.sol\":4257:4277  tokenDetails[_token] */\n      0xffffffffffffffffffffffffffffffffffffffff\n      and\n      0xffffffffffffffffffffffffffffffffffffffff\n      and\n      dup2\n      mstore\n      0x20\n      add\n      swap1\n      dup2\n      mstore\n      0x20\n      add\n      0x00\n      keccak256\n        /* \"ICOMarketplace.sol\":4250:4277  return tokenDetails[_token] */\n      mload(0x40)\n      dup1\n      0xc0\n      add\n      0x40\n      mstore\n      swap1\n      dup2\n      0x00\n      dup3\n      add\n      0x00\n      swap1\n      sload\n      swap1\n      0x0100\n      exp\n      swap1\n      div\n      0xffffffffffffffffffffffffffffffffffffffff\n      and\n      0xffffffffffffffffffffffffffffffffffffffff\n      and\n      0xffffffffffffffffffffffffffffffffffffffff\n      and\n      dup2\n      mstore\n      0x20\n      add\n      0x00\n      dup3\n      add\n      0x14\n      swap1\n      sload\n      swap1\n      0x0100\n      exp\n      swap1\n      div\n      0xff\n      and\n      iszero\n      iszero\n      iszero\n      iszero\n      dup2\n      mstore\n      0x20\n      add\n      0x01\n      dup3\n      add\n      sload\n      dup2\n      mstore\n      0x20\n      add\n      0x02\n      dup3\n      add\n      0x00\n      swap1\n      sload\n      swap1\n      0x0100\n      exp\n      swap1\n      div\n      0xffffffffffffffffffffffffffffffffffffffff\n      and\n      0xffffffffffffffffffffffffffffffffffffffff\n      and\n      0xffffffffffffffffffffffffffffffffffffffff\n      and\n      dup2\n      mstore\n      0x20\n      add\n      0x03\n      dup3\n      add\n      dup1\n      sload\n      tag_167\n      swap1\n      tag_106\n      jump\t// in\n    tag_167:\n      dup1\n      0x1f\n      add\n      0x20\n      dup1\n      swap2\n      div\n      mul\n      0x20\n      add\n      mload(0x40)\n      swap1\n      dup2\n      add\n      0x40\n      mstore\n      dup1\n      swap3\n      swap2\n      swap1\n      dup2\n      dup2\n      mstore\n      0x20\n      add\n      dup3\n      dup1\n      sload\n      tag_168\n      swap1\n      tag_106\n      jump\t// in\n    tag_168:\n      dup1\n      iszero\n      tag_169\n      jumpi\n      dup1\n      0x1f\n      lt\n      tag_170\n      jumpi\n      0x0100\n      dup1\n      dup4\n      sload\n      div\n      mul\n      dup4\n      mstore\n      swap2\n      0x20\n      add\n      swap2\n      jump(tag_169)\n    tag_170:\n      dup3\n      add\n      swap2\n      swap1\n      0x00\n      mstore\n      keccak256(0x00, 0x20)\n      swap1\n    tag_171:\n      dup2\n      sload\n      dup2\n      mstore\n      swap1\n      0x01\n      add\n      swap1\n      0x20\n      add\n      dup1\n      dup4\n      gt\n      tag_171\n      jumpi\n      dup3\n      swap1\n      sub\n      0x1f\n      and\n      dup3\n      add\n      swap2\n    tag_169:\n      pop\n      pop\n      pop\n      pop\n      pop\n      dup2\n      mstore\n      0x20\n      add\n      0x04\n      dup3\n      add\n      dup1\n      sload\n      tag_172\n      swap1\n      tag_106\n      jump\t// in\n    tag_172:\n      dup1\n      0x1f\n      add\n      0x20\n      dup1\n      swap2\n      div\n      mul\n      0x20\n      add\n      mload(0x40)\n      swap1\n      dup2\n      add\n      0x40\n      mstore\n      dup1\n      swap3\n      swap2\n      swap1\n      dup2\n      dup2\n      mstore\n      0x20\n      add\n      dup3\n      dup1\n      sload\n      tag_173\n      swap1\n      tag_106\n      jump\t// in\n    tag_173:\n      dup1\n      iszero\n      tag_174\n      jumpi\n      dup1\n      0x1f\n      lt\n      tag_175\n      jumpi\n      0x0100\n      dup1\n      dup4\n      sload\n      div\n      mul\n      dup4\n      mstore\n      swap2\n      0x20\n      add\n      swap2\n      jump(tag_174)\n    tag_175:\n      dup3\n      add\n      swap2\n      swap1\n      0x00\n      mstore\n      keccak256(0x00, 0x20)\n      swap1\n    tag_176:\n      dup2\n      sload\n      dup2\n      mstore\n      swap1\n      0x01\n      add\n      swap1\n      0x20\n      add\n      dup1\n      dup4\n      gt\n      tag_176\n      jumpi\n      dup3\n      swap1\n      sub\n      0x1f\n      and\n      dup3\n      add\n      swap2\n    tag_174:\n      pop\n      pop\n      pop\n      pop\n      pop\n      dup2\n      mstore\n      pop\n      pop\n      swap1\n      pop\n        /* \"ICOMarketplace.sol\":4081:4285  function getTokenDetails(address _token) external view returns(TokenDetails memory){... */\n      swap2\n      swap1\n      pop\n      jump\t// out\n        /* \"ICOMarketplace.sol\":745:765  address public owner */\n    tag_48:\n      0x02\n      0x00\n      swap1\n      sload\n      swap1\n      0x0100\n      exp\n      swap1\n      div\n      0xffffffffffffffffffffffffffffffffffffffff\n      and\n      dup2\n      jump\t// out\n        /* \"ICOMarketplace.sol\":3588:4073  function widthdraw(address _token, uint256 _amount) external onlyCreator(_token) supportedToken(_token) {... */\n    tag_53:\n        /* \"ICOMarketplace.sol\":3661:3667  _token */\n      dup2\n        /* \"ICOMarketplace.sol\":1503:1515  tokenDetails */\n      0x00\n        /* \"ICOMarketplace.sol\":1503:1523  tokenDetails[_token] */\n      dup1\n        /* \"ICOMarketplace.sol\":1516:1522  _token */\n      dup3\n        /* \"ICOMarketplace.sol\":1503:1523  tokenDetails[_token] */\n      0xffffffffffffffffffffffffffffffffffffffff\n      and\n      0xffffffffffffffffffffffffffffffffffffffff\n      and\n      dup2\n      mstore\n      0x20\n      add\n      swap1\n      dup2\n      mstore\n      0x20\n      add\n      0x00\n      keccak256\n        /* \"ICOMarketplace.sol\":1503:1531  tokenDetails[_token].creator */\n      0x02\n      add\n      0x00\n      swap1\n      sload\n      swap1\n      0x0100\n      exp\n      swap1\n      div\n      0xffffffffffffffffffffffffffffffffffffffff\n      and\n        /* \"ICOMarketplace.sol\":1489:1531  msg.sender == tokenDetails[_token].creator */\n      0xffffffffffffffffffffffffffffffffffffffff\n      and\n        /* \"ICOMarketplace.sol\":1489:1499  msg.sender */\n      caller\n        /* \"ICOMarketplace.sol\":1489:1531  msg.sender == tokenDetails[_token].creator */\n      0xffffffffffffffffffffffffffffffffffffffff\n      and\n      eq\n        /* \"ICOMarketplace.sol\":1481:1567  require(msg.sender == tokenDetails[_token].creator, \"Caller is not the token creator\") */\n      tag_178\n      jumpi\n      mload(0x40)\n      0x08c379a000000000000000000000000000000000000000000000000000000000\n      dup2\n      mstore\n      0x04\n      add\n      tag_179\n      swap1\n      tag_180\n      jump\t// in\n    tag_179:\n      mload(0x40)\n      dup1\n      swap2\n      sub\n      swap1\n      revert\n    tag_178:\n        /* \"ICOMarketplace.sol\":3684:3690  _token */\n      dup3\n        /* \"ICOMarketplace.sol\":1238:1250  tokenDetails */\n      0x00\n        /* \"ICOMarketplace.sol\":1238:1258  tokenDetails[_token] */\n      dup1\n        /* \"ICOMarketplace.sol\":1251:1257  _token */\n      dup3\n        /* \"ICOMarketplace.sol\":1238:1258  tokenDetails[_token] */\n      0xffffffffffffffffffffffffffffffffffffffff\n      and\n      0xffffffffffffffffffffffffffffffffffffffff\n      and\n      dup2\n      mstore\n      0x20\n      add\n      swap1\n      dup2\n      mstore\n      0x20\n      add\n      0x00\n      keccak256\n        /* \"ICOMarketplace.sol\":1238:1268  tokenDetails[_token].supported */\n      0x00\n      add\n      0x14\n      swap1\n      sload\n      swap1\n      0x0100\n      exp\n      swap1\n      div\n      0xff\n      and\n        /* \"ICOMarketplace.sol\":1230:1292  require(tokenDetails[_token].supported, \"Token not supported\") */\n      tag_182\n      jumpi\n      mload(0x40)\n      0x08c379a000000000000000000000000000000000000000000000000000000000\n      dup2\n      mstore\n      0x04\n      add\n      tag_183\n      swap1\n      tag_121\n      jump\t// in\n    tag_183:\n      mload(0x40)\n      dup1\n      swap2\n      sub\n      swap1\n      revert\n    tag_182:\n        /* \"ICOMarketplace.sol\":3719:3720  0 */\n      0x00\n        /* \"ICOMarketplace.sol\":3711:3718  _amount */\n      dup4\n        /* \"ICOMarketplace.sol\":3711:3720  _amount>0 */\n      gt\n        /* \"ICOMarketplace.sol\":3703:3753  require(_amount>0, \"Amount must be grater than 0\") */\n      tag_185\n      jumpi\n      mload(0x40)\n      0x08c379a000000000000000000000000000000000000000000000000000000000\n      dup2\n      mstore\n      0x04\n      add\n      tag_186\n      swap1\n      tag_187\n      jump\t// in\n    tag_186:\n      mload(0x40)\n      dup1\n      swap2\n      sub\n      swap1\n      revert\n    tag_185:\n        /* \"ICOMarketplace.sol\":3766:3778  IERC20 token */\n      0x00\n        /* \"ICOMarketplace.sol\":3788:3794  _token */\n      dup5\n        /* \"ICOMarketplace.sol\":3766:3795  IERC20 token = IERC20(_token) */\n      swap1\n      pop\n        /* \"ICOMarketplace.sol\":3806:3821  uint256 balance */\n      0x00\n        /* \"ICOMarketplace.sol\":3824:3829  token */\n      dup2\n        /* \"ICOMarketplace.sol\":3824:3839  token.balanceOf */\n      0xffffffffffffffffffffffffffffffffffffffff\n      and\n      0x70a08231\n        /* \"ICOMarketplace.sol\":3848:3852  this */\n      address\n        /* \"ICOMarketplace.sol\":3824:3854  token.balanceOf(address(this)) */\n      mload(0x40)\n      dup3\n      0xffffffff\n      and\n      0xe0\n      shl\n      dup2\n      mstore\n      0x04\n      add\n      tag_188\n      swap2\n      swap1\n      tag_38\n      jump\t// in\n    tag_188:\n      0x20\n      mload(0x40)\n      dup1\n      dup4\n      sub\n      dup2\n      dup7\n      gas\n      staticcall\n      iszero\n      dup1\n      iszero\n      tag_190\n      jumpi\n      returndatasize\n      0x00\n      dup1\n      returndatacopy\n      revert(0x00, returndatasize)\n    tag_190:\n      pop\n      pop\n      pop\n      pop\n      mload(0x40)\n      returndatasize\n      not(0x1f)\n      0x1f\n      dup3\n      add\n      and\n      dup3\n      add\n      dup1\n      0x40\n      mstore\n      pop\n      dup2\n      add\n      swap1\n      tag_191\n      swap2\n      swap1\n      tag_192\n      jump\t// in\n    tag_191:\n        /* \"ICOMarketplace.sol\":3806:3854  uint256 balance = token.balanceOf(address(this)) */\n      swap1\n      pop\n        /* \"ICOMarketplace.sol\":3884:3891  _amount */\n      dup5\n        /* \"ICOMarketplace.sol\":3873:3880  balance */\n      dup2\n        /* \"ICOMarketplace.sol\":3873:3891  balance >= _amount */\n      lt\n      iszero\n        /* \"ICOMarketplace.sol\":3865:3922  require(balance >= _amount, \"Insufficient token balance\") */\n      tag_193\n      jumpi\n      mload(0x40)\n      0x08c379a000000000000000000000000000000000000000000000000000000000\n      dup2\n      mstore\n      0x04\n      add\n      tag_194\n      swap1\n      tag_195\n      jump\t// in\n    tag_194:\n      mload(0x40)\n      dup1\n      swap2\n      sub\n      swap1\n      revert\n    tag_193:\n        /* \"ICOMarketplace.sol\":3941:3946  token */\n      dup2\n        /* \"ICOMarketplace.sol\":3941:3955  token.transfer */\n      0xffffffffffffffffffffffffffffffffffffffff\n      and\n      0xa9059cbb\n        /* \"ICOMarketplace.sol\":3956:3966  msg.sender */\n      caller\n        /* \"ICOMarketplace.sol\":3968:3975  _amount */\n      dup8\n        /* \"ICOMarketplace.sol\":3941:3976  token.transfer(msg.sender, _amount) */\n      mload(0x40)\n      dup4\n      0xffffffff\n      and\n      0xe0\n      shl\n      dup2\n      mstore\n      0x04\n      add\n      tag_196\n      swap3\n      swap2\n      swap1\n      tag_152\n      jump\t// in\n    tag_196:\n      0x20\n      mload(0x40)\n      dup1\n      dup4\n      sub\n      dup2\n      0x00\n      dup8\n      gas\n      call\n      iszero\n      dup1\n      iszero\n      tag_198\n      jumpi\n      returndatasize\n      0x00\n      dup1\n      returndatacopy\n      revert(0x00, returndatasize)\n    tag_198:\n      pop\n      pop\n      pop\n      pop\n      mload(0x40)\n      returndatasize\n      not(0x1f)\n      0x1f\n      dup3\n      add\n      and\n      dup3\n      add\n      dup1\n      0x40\n      mstore\n      pop\n      dup2\n      add\n      swap1\n      tag_199\n      swap2\n      swap1\n      tag_156\n      jump\t// in\n    tag_199:\n        /* \"ICOMarketplace.sol\":3933:4004  require(token.transfer(msg.sender, _amount), \"Token transfer failed!!\") */\n      tag_200\n      jumpi\n      mload(0x40)\n      0x08c379a000000000000000000000000000000000000000000000000000000000\n      dup2\n      mstore\n      0x04\n      add\n      tag_201\n      swap1\n      tag_202\n      jump\t// in\n    tag_201:\n      mload(0x40)\n      dup1\n      swap2\n      sub\n      swap1\n      revert\n    tag_200:\n        /* \"ICOMarketplace.sol\":4045:4055  msg.sender */\n      caller\n        /* \"ICOMarketplace.sol\":4022:4065  TokenWidthdraw(_token, msg.sender, _amount) */\n      0xffffffffffffffffffffffffffffffffffffffff\n      and\n        /* \"ICOMarketplace.sol\":4037:4043  _token */\n      dup7\n        /* \"ICOMarketplace.sol\":4022:4065  TokenWidthdraw(_token, msg.sender, _amount) */\n      0xffffffffffffffffffffffffffffffffffffffff\n      and\n      0x168d0b28f073c346700400252a3d9353bcebd06bd7dd82ad5cc5c57a773bb06e\n        /* \"ICOMarketplace.sol\":4057:4064  _amount */\n      dup8\n        /* \"ICOMarketplace.sol\":4022:4065  TokenWidthdraw(_token, msg.sender, _amount) */\n      mload(0x40)\n      tag_203\n      swap2\n      swap1\n      tag_75\n      jump\t// in\n    tag_203:\n      mload(0x40)\n      dup1\n      swap2\n      sub\n      swap1\n      log3\n        /* \"ICOMarketplace.sol\":3692:4073  {... */\n      pop\n      pop\n        /* \"ICOMarketplace.sol\":1578:1579  _ */\n      pop\n        /* \"ICOMarketplace.sol\":3588:4073  function widthdraw(address _token, uint256 _amount) external onlyCreator(_token) supportedToken(_token) {... */\n      pop\n      pop\n      pop\n      jump\t// out\n        /* \"ICOMarketplace.sol\":3468:3580  function getSupportedTokens() external view returns(address[] memory){... */\n    tag_56:\n        /* \"ICOMarketplace.sol\":3520:3536  address[] memory */\n      0x60\n        /* \"ICOMarketplace.sol\":3555:3572  allSupportedToken */\n      0x01\n        /* \"ICOMarketplace.sol\":3548:3572  return allSupportedToken */\n      dup1\n      sload\n      dup1\n      0x20\n      mul\n      0x20\n      add\n      mload(0x40)\n      swap1\n      dup2\n      add\n      0x40\n      mstore\n      dup1\n      swap3\n      swap2\n      swap1\n      dup2\n      dup2\n      mstore\n      0x20\n      add\n      dup3\n      dup1\n      sload\n      dup1\n      iszero\n      tag_205\n      jumpi\n      0x20\n      mul\n      dup3\n      add\n      swap2\n      swap1\n      0x00\n      mstore\n      keccak256(0x00, 0x20)\n      swap1\n    tag_206:\n      dup2\n      0x00\n      swap1\n      sload\n      swap1\n      0x0100\n      exp\n      swap1\n      div\n      0xffffffffffffffffffffffffffffffffffffffff\n      and\n      0xffffffffffffffffffffffffffffffffffffffff\n      and\n      dup2\n      mstore\n      0x20\n      add\n      swap1\n      0x01\n      add\n      swap1\n      dup1\n      dup4\n      gt\n      tag_206\n      jumpi\n    tag_205:\n      pop\n      pop\n      pop\n      pop\n      pop\n      swap1\n      pop\n        /* \"ICOMarketplace.sol\":3468:3580  function getSupportedTokens() external view returns(address[] memory){... */\n      swap1\n      jump\t// out\n        /* \"ICOMarketplace.sol\":645:697  mapping(address => TokenDetails) public tokenDetails */\n    tag_62:\n      mstore(0x20, 0x00)\n      dup1\n      0x00\n      mstore\n      keccak256(0x00, 0x40)\n      0x00\n      swap2\n      pop\n      swap1\n      pop\n      dup1\n      0x00\n      add\n      0x00\n      swap1\n      sload\n      swap1\n      0x0100\n      exp\n      swap1\n      div\n      0xffffffffffffffffffffffffffffffffffffffff\n      and\n      swap1\n      dup1\n      0x00\n      add\n      0x14\n      swap1\n      sload\n      swap1\n      0x0100\n      exp\n      swap1\n      div\n      0xff\n      and\n      swap1\n      dup1\n      0x01\n      add\n      sload\n      swap1\n      dup1\n      0x02\n      add\n      0x00\n      swap1\n      sload\n      swap1\n      0x0100\n      exp\n      swap1\n      div\n      0xffffffffffffffffffffffffffffffffffffffff\n      and\n      swap1\n      dup1\n      0x03\n      add\n      dup1\n      sload\n      tag_207\n      swap1\n      tag_106\n      jump\t// in\n    tag_207:\n      dup1\n      0x1f\n      add\n      0x20\n      dup1\n      swap2\n      div\n      mul\n      0x20\n      add\n      mload(0x40)\n      swap1\n      dup2\n      add\n      0x40\n      mstore\n      dup1\n      swap3\n      swap2\n      swap1\n      dup2\n      dup2\n      mstore\n      0x20\n      add\n      dup3\n      dup1\n      sload\n      tag_208\n      swap1\n      tag_106\n      jump\t// in\n    tag_208:\n      dup1\n      iszero\n      tag_209\n      jumpi\n      dup1\n      0x1f\n      lt\n      tag_210\n      jumpi\n      0x0100\n      dup1\n      dup4\n      sload\n      div\n      mul\n      dup4\n      mstore\n      swap2\n      0x20\n      add\n      swap2\n      jump(tag_209)\n    tag_210:\n      dup3\n      add\n      swap2\n      swap1\n      0x00\n      mstore\n      keccak256(0x00, 0x20)\n      swap1\n    tag_211:\n      dup2\n      sload\n      dup2\n      mstore\n      swap1\n      0x01\n      add\n      swap1\n      0x20\n      add\n      dup1\n      dup4\n      gt\n      tag_211\n      jumpi\n      dup3\n      swap1\n      sub\n      0x1f\n      and\n      dup3\n      add\n      swap2\n    tag_209:\n      pop\n      pop\n      pop\n      pop\n      pop\n      swap1\n      dup1\n      0x04\n      add\n      dup1\n      sload\n      tag_212\n      swap1\n      tag_106\n      jump\t// in\n    tag_212:\n      dup1\n      0x1f\n      add\n      0x20\n      dup1\n      swap2\n      div\n      mul\n      0x20\n      add\n      mload(0x40)\n      swap1\n      dup2\n      add\n      0x40\n      mstore\n      dup1\n      swap3\n      swap2\n      swap1\n      dup2\n      dup2\n      mstore\n      0x20\n      add\n      dup3\n      dup1\n      sload\n      tag_213\n      swap1\n      tag_106\n      jump\t// in\n    tag_213:\n      dup1\n      iszero\n      tag_214\n      jumpi\n      dup1\n      0x1f\n      lt\n      tag_215\n      jumpi\n      0x0100\n      dup1\n      dup4\n      sload\n      div\n      mul\n      dup4\n      mstore\n      swap2\n      0x20\n      add\n      swap2\n      jump(tag_214)\n    tag_215:\n      dup3\n      add\n      swap2\n      swap1\n      0x00\n      mstore\n      keccak256(0x00, 0x20)\n      swap1\n    tag_216:\n      dup2\n      sload\n      dup2\n      mstore\n      swap1\n      0x01\n      add\n      swap1\n      0x20\n      add\n      dup1\n      dup4\n      gt\n      tag_216\n      jumpi\n      dup3\n      swap1\n      sub\n      0x1f\n      and\n      dup3\n      add\n      swap2\n    tag_214:\n      pop\n      pop\n      pop\n      pop\n      pop\n      swap1\n      pop\n      dup7\n      jump\t// out\n        /* \"ICOMarketplace.sol\":4293:4980  function getTokenCreatedBy(address _creator) external view returns(TokenDetails[] memory){... */\n    tag_68:\n        /* \"ICOMarketplace.sol\":4360:4381  TokenDetails[] memory */\n      0x60\n        /* \"ICOMarketplace.sol\":4393:4406  uint256 count */\n      0x00\n        /* \"ICOMarketplace.sol\":4425:4434  uint256 i */\n      dup1\n        /* \"ICOMarketplace.sol\":4421:4596  for(uint256 i=0; i<allSupportedToken.length; i++){... */\n    tag_218:\n        /* \"ICOMarketplace.sol\":4440:4457  allSupportedToken */\n      0x01\n        /* \"ICOMarketplace.sol\":4440:4464  allSupportedToken.length */\n      dup1\n      sload\n      swap1\n      pop\n        /* \"ICOMarketplace.sol\":4438:4439  i */\n      dup2\n        /* \"ICOMarketplace.sol\":4438:4464  i<allSupportedToken.length */\n      lt\n        /* \"ICOMarketplace.sol\":4421:4596  for(uint256 i=0; i<allSupportedToken.length; i++){... */\n      iszero\n      tag_219\n      jumpi\n        /* \"ICOMarketplace.sol\":4534:4542  _creator */\n      dup4\n        /* \"ICOMarketplace.sol\":4488:4542  tokenDetails[allSupportedToken[i]].creator == _creator */\n      0xffffffffffffffffffffffffffffffffffffffff\n      and\n        /* \"ICOMarketplace.sol\":4488:4500  tokenDetails */\n      0x00\n        /* \"ICOMarketplace.sol\":4488:4522  tokenDetails[allSupportedToken[i]] */\n      dup1\n        /* \"ICOMarketplace.sol\":4501:4518  allSupportedToken */\n      0x01\n        /* \"ICOMarketplace.sol\":4519:4520  i */\n      dup5\n        /* \"ICOMarketplace.sol\":4501:4521  allSupportedToken[i] */\n      dup2\n      sload\n      dup2\n      lt\n      tag_221\n      jumpi\n      tag_222\n      tag_103\n      jump\t// in\n    tag_222:\n    tag_221:\n      swap1\n      0x00\n      mstore\n      keccak256(0x00, 0x20)\n      add\n      0x00\n      swap1\n      sload\n      swap1\n      0x0100\n      exp\n      swap1\n      div\n      0xffffffffffffffffffffffffffffffffffffffff\n      and\n        /* \"ICOMarketplace.sol\":4488:4522  tokenDetails[allSupportedToken[i]] */\n      0xffffffffffffffffffffffffffffffffffffffff\n      and\n      0xffffffffffffffffffffffffffffffffffffffff\n      and\n      dup2\n      mstore\n      0x20\n      add\n      swap1\n      dup2\n      mstore\n      0x20\n      add\n      0x00\n      keccak256\n        /* \"ICOMarketplace.sol\":4488:4530  tokenDetails[allSupportedToken[i]].creator */\n      0x02\n      add\n      0x00\n      swap1\n      sload\n      swap1\n      0x0100\n      exp\n      swap1\n      div\n      0xffffffffffffffffffffffffffffffffffffffff\n      and\n        /* \"ICOMarketplace.sol\":4488:4542  tokenDetails[allSupportedToken[i]].creator == _creator */\n      0xffffffffffffffffffffffffffffffffffffffff\n      and\n      sub\n        /* \"ICOMarketplace.sol\":4485:4585  if(tokenDetails[allSupportedToken[i]].creator == _creator){... */\n      tag_224\n      jumpi\n        /* \"ICOMarketplace.sol\":4562:4569  count++ */\n      dup2\n      dup1\n      tag_225\n      swap1\n      tag_226\n      jump\t// in\n    tag_225:\n      swap3\n      pop\n      pop\n        /* \"ICOMarketplace.sol\":4485:4585  if(tokenDetails[allSupportedToken[i]].creator == _creator){... */\n    tag_224:\n        /* \"ICOMarketplace.sol\":4466:4469  i++ */\n      dup1\n      dup1\n      0x01\n      add\n      swap2\n      pop\n      pop\n        /* \"ICOMarketplace.sol\":4421:4596  for(uint256 i=0; i<allSupportedToken.length; i++){... */\n      jump(tag_218)\n    tag_219:\n      pop\n        /* \"ICOMarketplace.sol\":4608:4636  TokenDetails[] memory tokens */\n      0x00\n        /* \"ICOMarketplace.sol\":4658:4663  count */\n      dup2\n        /* \"ICOMarketplace.sol\":4639:4664  new TokenDetails[](count) */\n      0xffffffffffffffff\n      dup2\n      gt\n      iszero\n      tag_227\n      jumpi\n      tag_228\n      tag_93\n      jump\t// in\n    tag_228:\n    tag_227:\n      mload(0x40)\n      swap1\n      dup1\n      dup3\n      mstore\n      dup1\n      0x20\n      mul\n      0x20\n      add\n      dup3\n      add\n      0x40\n      mstore\n      dup1\n      iszero\n      tag_229\n      jumpi\n      dup2\n      0x20\n      add\n    tag_230:\n      tag_231\n      tag_97\n      jump\t// in\n    tag_231:\n      dup2\n      mstore\n      0x20\n      add\n      swap1\n      0x01\n      swap1\n      sub\n      swap1\n      dup2\n      tag_230\n      jumpi\n      swap1\n      pop\n    tag_229:\n      pop\n        /* \"ICOMarketplace.sol\":4608:4664  TokenDetails[] memory tokens = new TokenDetails[](count) */\n      swap1\n      pop\n        /* \"ICOMarketplace.sol\":4675:4688  uint256 index */\n      0x00\n        /* \"ICOMarketplace.sol\":4707:4716  uint256 i */\n      dup1\n        /* \"ICOMarketplace.sol\":4703:4947  for(uint256 i=0; i<allSupportedToken.length; i++){... */\n    tag_232:\n        /* \"ICOMarketplace.sol\":4722:4739  allSupportedToken */\n      0x01\n        /* \"ICOMarketplace.sol\":4722:4746  allSupportedToken.length */\n      dup1\n      sload\n      swap1\n      pop\n        /* \"ICOMarketplace.sol\":4720:4721  i */\n      dup2\n        /* \"ICOMarketplace.sol\":4720:4746  i<allSupportedToken.length */\n      lt\n        /* \"ICOMarketplace.sol\":4703:4947  for(uint256 i=0; i<allSupportedToken.length; i++){... */\n      iszero\n      tag_233\n      jumpi\n        /* \"ICOMarketplace.sol\":4816:4824  _creator */\n      dup6\n        /* \"ICOMarketplace.sol\":4770:4824  tokenDetails[allSupportedToken[i]].creator == _creator */\n      0xffffffffffffffffffffffffffffffffffffffff\n      and\n        /* \"ICOMarketplace.sol\":4770:4782  tokenDetails */\n      0x00\n        /* \"ICOMarketplace.sol\":4770:4804  tokenDetails[allSupportedToken[i]] */\n      dup1\n        /* \"ICOMarketplace.sol\":4783:4800  allSupportedToken */\n      0x01\n        /* \"ICOMarketplace.sol\":4801:4802  i */\n      dup5\n        /* \"ICOMarketplace.sol\":4783:4803  allSupportedToken[i] */\n      dup2\n      sload\n      dup2\n      lt\n      tag_235\n      jumpi\n      tag_236\n      tag_103\n      jump\t// in\n    tag_236:\n    tag_235:\n      swap1\n      0x00\n      mstore\n      keccak256(0x00, 0x20)\n      add\n      0x00\n      swap1\n      sload\n      swap1\n      0x0100\n      exp\n      swap1\n      div\n      0xffffffffffffffffffffffffffffffffffffffff\n      and\n        /* \"ICOMarketplace.sol\":4770:4804  tokenDetails[allSupportedToken[i]] */\n      0xffffffffffffffffffffffffffffffffffffffff\n      and\n      0xffffffffffffffffffffffffffffffffffffffff\n      and\n      dup2\n      mstore\n      0x20\n      add\n      swap1\n      dup2\n      mstore\n      0x20\n      add\n      0x00\n      keccak256\n        /* \"ICOMarketplace.sol\":4770:4812  tokenDetails[allSupportedToken[i]].creator */\n      0x02\n      add\n      0x00\n      swap1\n      sload\n      swap1\n      0x0100\n      exp\n      swap1\n      div\n      0xffffffffffffffffffffffffffffffffffffffff\n      and\n        /* \"ICOMarketplace.sol\":4770:4824  tokenDetails[allSupportedToken[i]].creator == _creator */\n      0xffffffffffffffffffffffffffffffffffffffff\n      and\n      sub\n        /* \"ICOMarketplace.sol\":4767:4936  if(tokenDetails[allSupportedToken[i]].creator == _creator){... */\n      tag_238\n      jumpi\n        /* \"ICOMarketplace.sol\":4860:4872  tokenDetails */\n      0x00\n        /* \"ICOMarketplace.sol\":4860:4894  tokenDetails[allSupportedToken[i]] */\n      dup1\n        /* \"ICOMarketplace.sol\":4873:4890  allSupportedToken */\n      0x01\n        /* \"ICOMarketplace.sol\":4891:4892  i */\n      dup4\n        /* \"ICOMarketplace.sol\":4873:4893  allSupportedToken[i] */\n      dup2\n      sload\n      dup2\n      lt\n      tag_239\n      jumpi\n      tag_240\n      tag_103\n      jump\t// in\n    tag_240:\n    tag_239:\n      swap1\n      0x00\n      mstore\n      keccak256(0x00, 0x20)\n      add\n      0x00\n      swap1\n      sload\n      swap1\n      0x0100\n      exp\n      swap1\n      div\n      0xffffffffffffffffffffffffffffffffffffffff\n      and\n        /* \"ICOMarketplace.sol\":4860:4894  tokenDetails[allSupportedToken[i]] */\n      0xffffffffffffffffffffffffffffffffffffffff\n      and\n      0xffffffffffffffffffffffffffffffffffffffff\n      and\n      dup2\n      mstore\n      0x20\n      add\n      swap1\n      dup2\n      mstore\n      0x20\n      add\n      0x00\n      keccak256\n        /* \"ICOMarketplace.sol\":4844:4894  tokens[index] = tokenDetails[allSupportedToken[i]] */\n      mload(0x40)\n      dup1\n      0xc0\n      add\n      0x40\n      mstore\n      swap1\n      dup2\n      0x00\n      dup3\n      add\n      0x00\n      swap1\n      sload\n      swap1\n      0x0100\n      exp\n      swap1\n      div\n      0xffffffffffffffffffffffffffffffffffffffff\n      and\n      0xffffffffffffffffffffffffffffffffffffffff\n      and\n      0xffffffffffffffffffffffffffffffffffffffff\n      and\n      dup2\n      mstore\n      0x20\n      add\n      0x00\n      dup3\n      add\n      0x14\n      swap1\n      sload\n      swap1\n      0x0100\n      exp\n      swap1\n      div\n      0xff\n      and\n      iszero\n      iszero\n      iszero\n      iszero\n      dup2\n      mstore\n      0x20\n      add\n      0x01\n      dup3\n      add\n      sload\n      dup2\n      mstore\n      0x20\n      add\n      0x02\n      dup3\n      add\n      0x00\n      swap1\n      sload\n      swap1\n      0x0100\n      exp\n      swap1\n      div\n      0xffffffffffffffffffffffffffffffffffffffff\n      and\n      0xffffffffffffffffffffffffffffffffffffffff\n      and\n      0xffffffffffffffffffffffffffffffffffffffff\n      and\n      dup2\n      mstore\n      0x20\n      add\n      0x03\n      dup3\n      add\n      dup1\n      sload\n      tag_242\n      swap1\n      tag_106\n      jump\t// in\n    tag_242:\n      dup1\n      0x1f\n      add\n      0x20\n      dup1\n      swap2\n      div\n      mul\n      0x20\n      add\n      mload(0x40)\n      swap1\n      dup2\n      add\n      0x40\n      mstore\n      dup1\n      swap3\n      swap2\n      swap1\n      dup2\n      dup2\n      mstore\n      0x20\n      add\n      dup3\n      dup1\n      sload\n      tag_243\n      swap1\n      tag_106\n      jump\t// in\n    tag_243:\n      dup1\n      iszero\n      tag_244\n      jumpi\n      dup1\n      0x1f\n      lt\n      tag_245\n      jumpi\n      0x0100\n      dup1\n      dup4\n      sload\n      div\n      mul\n      dup4\n      mstore\n      swap2\n      0x20\n      add\n      swap2\n      jump(tag_244)\n    tag_245:\n      dup3\n      add\n      swap2\n      swap1\n      0x00\n      mstore\n      keccak256(0x00, 0x20)\n      swap1\n    tag_246:\n      dup2\n      sload\n      dup2\n      mstore\n      swap1\n      0x01\n      add\n      swap1\n      0x20\n      add\n      dup1\n      dup4\n      gt\n      tag_246\n      jumpi\n      dup3\n      swap1\n      sub\n      0x1f\n      and\n      dup3\n      add\n      swap2\n    tag_244:\n      pop\n      pop\n      pop\n      pop\n      pop\n      dup2\n      mstore\n      0x20\n      add\n      0x04\n      dup3\n      add\n      dup1\n      sload\n      tag_247\n      swap1\n      tag_106\n      jump\t// in\n    tag_247:\n      dup1\n      0x1f\n      add\n      0x20\n      dup1\n      swap2\n      div\n      mul\n      0x20\n      add\n      mload(0x40)\n      swap1\n      dup2\n      add\n      0x40\n      mstore\n      dup1\n      swap3\n      swap2\n      swap1\n      dup2\n      dup2\n      mstore\n      0x20\n      add\n      dup3\n      dup1\n      sload\n      tag_248\n      swap1\n      tag_106\n      jump\t// in\n    tag_248:\n      dup1\n      iszero\n      tag_249\n      jumpi\n      dup1\n      0x1f\n      lt\n      tag_250\n      jumpi\n      0x0100\n      dup1\n      dup4\n      sload\n      div\n      mul\n      dup4\n      mstore\n      swap2\n      0x20\n      add\n      swap2\n      jump(tag_249)\n    tag_250:\n      dup3\n      add\n      swap2\n      swap1\n      0x00\n      mstore\n      keccak256(0x00, 0x20)\n      swap1\n    tag_251:\n      dup2\n      sload\n      dup2\n      mstore\n      swap1\n      0x01\n      add\n      swap1\n      0x20\n      add\n      dup1\n      dup4\n      gt\n      tag_251\n      jumpi\n      dup3\n      swap1\n      sub\n      0x1f\n      and\n      dup3\n      add\n      swap2\n    tag_249:\n      pop\n      pop\n      pop\n      pop\n      pop\n      dup2\n      mstore\n      pop\n      pop\n        /* \"ICOMarketplace.sol\":4844:4850  tokens */\n      dup4\n        /* \"ICOMarketplace.sol\":4851:4856  index */\n      dup4\n        /* \"ICOMarketplace.sol\":4844:4857  tokens[index] */\n      dup2\n      mload\n      dup2\n      lt\n      tag_252\n      jumpi\n      tag_253\n      tag_103\n      jump\t// in\n    tag_253:\n    tag_252:\n      0x20\n      mul\n      0x20\n      add\n      add\n        /* \"ICOMarketplace.sol\":4844:4894  tokens[index] = tokenDetails[allSupportedToken[i]] */\n      dup2\n      swap1\n      mstore\n      pop\n        /* \"ICOMarketplace.sol\":4913:4920  index++ */\n      dup2\n      dup1\n      tag_254\n      swap1\n      tag_226\n      jump\t// in\n    tag_254:\n      swap3\n      pop\n      pop\n        /* \"ICOMarketplace.sol\":4767:4936  if(tokenDetails[allSupportedToken[i]].creator == _creator){... */\n    tag_238:\n        /* \"ICOMarketplace.sol\":4748:4751  i++ */\n      dup1\n      dup1\n      0x01\n      add\n      swap2\n      pop\n      pop\n        /* \"ICOMarketplace.sol\":4703:4947  for(uint256 i=0; i<allSupportedToken.length; i++){... */\n      jump(tag_232)\n    tag_233:\n      pop\n        /* \"ICOMarketplace.sol\":4966:4972  tokens */\n      dup2\n        /* \"ICOMarketplace.sol\":4959:4972  return tokens */\n      swap4\n      pop\n      pop\n      pop\n      pop\n        /* \"ICOMarketplace.sol\":4293:4980  function getTokenCreatedBy(address _creator) external view returns(TokenDetails[] memory){... */\n      swap2\n      swap1\n      pop\n      jump\t// out\n        /* \"ICOMarketplace.sol\":3223:3460  function getBalance(address _token) external view returns(uint256){... */\n    tag_73:\n        /* \"ICOMarketplace.sol\":3281:3288  uint256 */\n      0x00\n        /* \"ICOMarketplace.sol\":3308:3320  tokenDetails */\n      dup1\n        /* \"ICOMarketplace.sol\":3308:3328  tokenDetails[_token] */\n      0x00\n        /* \"ICOMarketplace.sol\":3321:3327  _token */\n      dup4\n        /* \"ICOMarketplace.sol\":3308:3328  tokenDetails[_token] */\n      0xffffffffffffffffffffffffffffffffffffffff\n      and\n      0xffffffffffffffffffffffffffffffffffffffff\n      and\n      dup2\n      mstore\n      0x20\n      add\n      swap1\n      dup2\n      mstore\n      0x20\n      add\n      0x00\n      keccak256\n        /* \"ICOMarketplace.sol\":3308:3338  tokenDetails[_token].supported */\n      0x00\n      add\n      0x14\n      swap1\n      sload\n      swap1\n      0x0100\n      exp\n      swap1\n      div\n      0xff\n      and\n        /* \"ICOMarketplace.sol\":3300:3362  require(tokenDetails[_token].supported, \"Token not supported\") */\n      tag_256\n      jumpi\n      mload(0x40)\n      0x08c379a000000000000000000000000000000000000000000000000000000000\n      dup2\n      mstore\n      0x04\n      add\n      tag_257\n      swap1\n      tag_121\n      jump\t// in\n    tag_257:\n      mload(0x40)\n      dup1\n      swap2\n      sub\n      swap1\n      revert\n    tag_256:\n        /* \"ICOMarketplace.sol\":3375:3387  IERC20 token */\n      0x00\n        /* \"ICOMarketplace.sol\":3397:3403  _token */\n      dup3\n        /* \"ICOMarketplace.sol\":3375:3404  IERC20 token = IERC20(_token) */\n      swap1\n      pop\n        /* \"ICOMarketplace.sol\":3422:3427  token */\n      dup1\n        /* \"ICOMarketplace.sol\":3422:3437  token.balanceOf */\n      0xffffffffffffffffffffffffffffffffffffffff\n      and\n      0x70a08231\n        /* \"ICOMarketplace.sol\":3446:3450  this */\n      address\n        /* \"ICOMarketplace.sol\":3422:3452  token.balanceOf(address(this)) */\n      mload(0x40)\n      dup3\n      0xffffffff\n      and\n      0xe0\n      shl\n      dup2\n      mstore\n      0x04\n      add\n      tag_258\n      swap2\n      swap1\n      tag_38\n      jump\t// in\n    tag_258:\n      0x20\n      mload(0x40)\n      dup1\n      dup4\n      sub\n      dup2\n      dup7\n      gas\n      staticcall\n      iszero\n      dup1\n      iszero\n      tag_260\n      jumpi\n      returndatasize\n      0x00\n      dup1\n      returndatacopy\n      revert(0x00, returndatasize)\n    tag_260:\n      pop\n      pop\n      pop\n      pop\n      mload(0x40)\n      returndatasize\n      not(0x1f)\n      0x1f\n      dup3\n      add\n      and\n      dup3\n      add\n      dup1\n      0x40\n      mstore\n      pop\n      dup2\n      add\n      swap1\n      tag_261\n      swap2\n      swap1\n      tag_192\n      jump\t// in\n    tag_261:\n        /* \"ICOMarketplace.sol\":3415:3452  return token.balanceOf(address(this)) */\n      swap2\n      pop\n      pop\n        /* \"ICOMarketplace.sol\":3223:3460  function getBalance(address _token) external view returns(uint256){... */\n      swap2\n      swap1\n      pop\n      jump\t// out\n        /* \"ICOMarketplace.sol\":2346:2468  function multiply(uint256 x, uint256 y) internal pure returns(uint256 z){... */\n    tag_137:\n        /* \"ICOMarketplace.sol\":2408:2417  uint256 z */\n      0x00\n        /* \"ICOMarketplace.sol\":2442:2443  0 */\n      dup1\n        /* \"ICOMarketplace.sol\":2437:2438  y */\n      dup3\n        /* \"ICOMarketplace.sol\":2437:2443  y == 0 */\n      eq\n        /* \"ICOMarketplace.sol\":2437:2459  y == 0 || (z=x*y)/y==x */\n      dup1\n      tag_263\n      jumpi\n      pop\n        /* \"ICOMarketplace.sol\":2458:2459  x */\n      dup3\n        /* \"ICOMarketplace.sol\":2455:2456  y */\n      dup3\n        /* \"ICOMarketplace.sol\":2452:2453  y */\n      dup4\n        /* \"ICOMarketplace.sol\":2450:2451  x */\n      dup6\n        /* \"ICOMarketplace.sol\":2450:2453  x*y */\n      tag_264\n      swap2\n      swap1\n      tag_150\n      jump\t// in\n    tag_264:\n        /* \"ICOMarketplace.sol\":2448:2453  z=x*y */\n      swap3\n      pop\n      dup3\n        /* \"ICOMarketplace.sol\":2447:2456  (z=x*y)/y */\n      tag_265\n      swap2\n      swap1\n      tag_266\n      jump\t// in\n    tag_265:\n        /* \"ICOMarketplace.sol\":2447:2459  (z=x*y)/y==x */\n      eq\n        /* \"ICOMarketplace.sol\":2437:2459  y == 0 || (z=x*y)/y==x */\n    tag_263:\n        /* \"ICOMarketplace.sol\":2429:2460  require(y == 0 || (z=x*y)/y==x) */\n      tag_267\n      jumpi\n      0x00\n      dup1\n      revert\n    tag_267:\n        /* \"ICOMarketplace.sol\":2346:2468  function multiply(uint256 x, uint256 y) internal pure returns(uint256 z){... */\n      swap3\n      swap2\n      pop\n      pop\n      jump\t// out\n    tag_97:\n      mload(0x40)\n      dup1\n      0xc0\n      add\n      0x40\n      mstore\n      dup1\n      and(0xffffffffffffffffffffffffffffffffffffffff, 0x00)\n      dup2\n      mstore\n      0x20\n      add\n      iszero(iszero(0x00))\n      dup2\n      mstore\n      0x20\n      add\n      0x00\n      dup2\n      mstore\n      0x20\n      add\n      and(0xffffffffffffffffffffffffffffffffffffffff, 0x00)\n      dup2\n      mstore\n      0x20\n      add\n      0x60\n      dup2\n      mstore\n      0x20\n      add\n      0x60\n      dup2\n      mstore\n      pop\n      swap1\n      jump\t// out\n        /* \"#utility.yul\":7:176   */\n    tag_268:\n        /* \"#utility.yul\":91:102   */\n      0x00\n        /* \"#utility.yul\":125:131   */\n      dup3\n        /* \"#utility.yul\":120:123   */\n      dup3\n        /* \"#utility.yul\":113:132   */\n      mstore\n        /* \"#utility.yul\":165:169   */\n      0x20\n        /* \"#utility.yul\":160:163   */\n      dup3\n        /* \"#utility.yul\":156:170   */\n      add\n        /* \"#utility.yul\":141:170   */\n      swap1\n      pop\n        /* \"#utility.yul\":7:176   */\n      swap3\n      swap2\n      pop\n      pop\n      jump\t// out\n        /* \"#utility.yul\":182:408   */\n    tag_269:\n        /* \"#utility.yul\":322:356   */\n      0x436f6e747261637420646f6573206e6f74206163636570742045746865722064\n        /* \"#utility.yul\":318:319   */\n      0x00\n        /* \"#utility.yul\":310:316   */\n      dup3\n        /* \"#utility.yul\":306:320   */\n      add\n        /* \"#utility.yul\":299:357   */\n      mstore\n        /* \"#utility.yul\":391:400   */\n      0x69726563746c7900000000000000000000000000000000000000000000000000\n        /* \"#utility.yul\":386:388   */\n      0x20\n        /* \"#utility.yul\":378:384   */\n      dup3\n        /* \"#utility.yul\":374:389   */\n      add\n        /* \"#utility.yul\":367:401   */\n      mstore\n        /* \"#utility.yul\":182:408   */\n      pop\n      jump\t// out\n        /* \"#utility.yul\":414:780   */\n    tag_270:\n        /* \"#utility.yul\":556:559   */\n      0x00\n        /* \"#utility.yul\":577:644   */\n      tag_361\n        /* \"#utility.yul\":641:643   */\n      0x27\n        /* \"#utility.yul\":636:639   */\n      dup4\n        /* \"#utility.yul\":577:644   */\n      tag_268\n      jump\t// in\n    tag_361:\n        /* \"#utility.yul\":570:644   */\n      swap2\n      pop\n        /* \"#utility.yul\":653:746   */\n      tag_362\n        /* \"#utility.yul\":742:745   */\n      dup3\n        /* \"#utility.yul\":653:746   */\n      tag_269\n      jump\t// in\n    tag_362:\n        /* \"#utility.yul\":771:773   */\n      0x40\n        /* \"#utility.yul\":766:769   */\n      dup3\n        /* \"#utility.yul\":762:774   */\n      add\n        /* \"#utility.yul\":755:774   */\n      swap1\n      pop\n        /* \"#utility.yul\":414:780   */\n      swap2\n      swap1\n      pop\n      jump\t// out\n        /* \"#utility.yul\":786:1205   */\n    tag_18:\n        /* \"#utility.yul\":952:956   */\n      0x00\n        /* \"#utility.yul\":990:992   */\n      0x20\n        /* \"#utility.yul\":979:988   */\n      dup3\n        /* \"#utility.yul\":975:993   */\n      add\n        /* \"#utility.yul\":967:993   */\n      swap1\n      pop\n        /* \"#utility.yul\":1039:1048   */\n      dup2\n        /* \"#utility.yul\":1033:1037   */\n      dup2\n        /* \"#utility.yul\":1029:1049   */\n      sub\n        /* \"#utility.yul\":1025:1026   */\n      0x00\n        /* \"#utility.yul\":1014:1023   */\n      dup4\n        /* \"#utility.yul\":1010:1027   */\n      add\n        /* \"#utility.yul\":1003:1050   */\n      mstore\n        /* \"#utility.yul\":1067:1198   */\n      tag_364\n        /* \"#utility.yul\":1193:1197   */\n      dup2\n        /* \"#utility.yul\":1067:1198   */\n      tag_270\n      jump\t// in\n    tag_364:\n        /* \"#utility.yul\":1059:1198   */\n      swap1\n      pop\n        /* \"#utility.yul\":786:1205   */\n      swap2\n      swap1\n      pop\n      jump\t// out\n        /* \"#utility.yul\":1211:1286   */\n    tag_271:\n        /* \"#utility.yul\":1244:1250   */\n      0x00\n        /* \"#utility.yul\":1277:1279   */\n      0x40\n        /* \"#utility.yul\":1271:1280   */\n      mload\n        /* \"#utility.yul\":1261:1280   */\n      swap1\n      pop\n        /* \"#utility.yul\":1211:1286   */\n      swap1\n      jump\t// out\n        /* \"#utility.yul\":1292:1409   */\n    tag_272:\n        /* \"#utility.yul\":1401:1402   */\n      0x00\n        /* \"#utility.yul\":1398:1399   */\n      dup1\n        /* \"#utility.yul\":1391:1403   */\n      revert\n        /* \"#utility.yul\":1415:1532   */\n    tag_273:\n        /* \"#utility.yul\":1524:1525   */\n      0x00\n        /* \"#utility.yul\":1521:1522   */\n      dup1\n        /* \"#utility.yul\":1514:1526   */\n      revert\n        /* \"#utility.yul\":1538:1664   */\n    tag_274:\n        /* \"#utility.yul\":1575:1582   */\n      0x00\n        /* \"#utility.yul\":1615:1657   */\n      0xffffffffffffffffffffffffffffffffffffffff\n        /* \"#utility.yul\":1608:1613   */\n      dup3\n        /* \"#utility.yul\":1604:1658   */\n      and\n        /* \"#utility.yul\":1593:1658   */\n      swap1\n      pop\n        /* \"#utility.yul\":1538:1664   */\n      swap2\n      swap1\n      pop\n      jump\t// out\n        /* \"#utility.yul\":1670:1766   */\n    tag_275:\n        /* \"#utility.yul\":1707:1714   */\n      0x00\n        /* \"#utility.yul\":1736:1760   */\n      tag_370\n        /* \"#utility.yul\":1754:1759   */\n      dup3\n        /* \"#utility.yul\":1736:1760   */\n      tag_274\n      jump\t// in\n    tag_370:\n        /* \"#utility.yul\":1725:1760   */\n      swap1\n      pop\n        /* \"#utility.yul\":1670:1766   */\n      swap2\n      swap1\n      pop\n      jump\t// out\n        /* \"#utility.yul\":1772:1894   */\n    tag_276:\n        /* \"#utility.yul\":1845:1869   */\n      tag_372\n        /* \"#utility.yul\":1863:1868   */\n      dup2\n        /* \"#utility.yul\":1845:1869   */\n      tag_275\n      jump\t// in\n    tag_372:\n        /* \"#utility.yul\":1838:1843   */\n      dup2\n        /* \"#utility.yul\":1835:1870   */\n      eq\n        /* \"#utility.yul\":1825:1888   */\n      tag_373\n      jumpi\n        /* \"#utility.yul\":1884:1885   */\n      0x00\n        /* \"#utility.yul\":1881:1882   */\n      dup1\n        /* \"#utility.yul\":1874:1886   */\n      revert\n        /* \"#utility.yul\":1825:1888   */\n    tag_373:\n        /* \"#utility.yul\":1772:1894   */\n      pop\n      jump\t// out\n        /* \"#utility.yul\":1900:2039   */\n    tag_277:\n        /* \"#utility.yul\":1946:1951   */\n      0x00\n        /* \"#utility.yul\":1984:1990   */\n      dup2\n        /* \"#utility.yul\":1971:1991   */\n      calldataload\n        /* \"#utility.yul\":1962:1991   */\n      swap1\n      pop\n        /* \"#utility.yul\":2000:2033   */\n      tag_375\n        /* \"#utility.yul\":2027:2032   */\n      dup2\n        /* \"#utility.yul\":2000:2033   */\n      tag_276\n      jump\t// in\n    tag_375:\n        /* \"#utility.yul\":1900:2039   */\n      swap3\n      swap2\n      pop\n      pop\n      jump\t// out\n        /* \"#utility.yul\":2045:2122   */\n    tag_278:\n        /* \"#utility.yul\":2082:2089   */\n      0x00\n        /* \"#utility.yul\":2111:2116   */\n      dup2\n        /* \"#utility.yul\":2100:2116   */\n      swap1\n      pop\n        /* \"#utility.yul\":2045:2122   */\n      swap2\n      swap1\n      pop\n      jump\t// out\n        /* \"#utility.yul\":2128:2250   */\n    tag_279:\n        /* \"#utility.yul\":2201:2225   */\n      tag_378\n        /* \"#utility.yul\":2219:2224   */\n      dup2\n        /* \"#utility.yul\":2201:2225   */\n      tag_278\n      jump\t// in\n    tag_378:\n        /* \"#utility.yul\":2194:2199   */\n      dup2\n        /* \"#utility.yul\":2191:2226   */\n      eq\n        /* \"#utility.yul\":2181:2244   */\n      tag_379\n      jumpi\n        /* \"#utility.yul\":2240:2241   */\n      0x00\n        /* \"#utility.yul\":2237:2238   */\n      dup1\n        /* \"#utility.yul\":2230:2242   */\n      revert\n        /* \"#utility.yul\":2181:2244   */\n    tag_379:\n        /* \"#utility.yul\":2128:2250   */\n      pop\n      jump\t// out\n        /* \"#utility.yul\":2256:2395   */\n    tag_280:\n        /* \"#utility.yul\":2302:2307   */\n      0x00\n        /* \"#utility.yul\":2340:2346   */\n      dup2\n        /* \"#utility.yul\":2327:2347   */\n      calldataload\n        /* \"#utility.yul\":2318:2347   */\n      swap1\n      pop\n        /* \"#utility.yul\":2356:2389   */\n      tag_381\n        /* \"#utility.yul\":2383:2388   */\n      dup2\n        /* \"#utility.yul\":2356:2389   */\n      tag_279\n      jump\t// in\n    tag_381:\n        /* \"#utility.yul\":2256:2395   */\n      swap3\n      swap2\n      pop\n      pop\n      jump\t// out\n        /* \"#utility.yul\":2401:2875   */\n    tag_22:\n        /* \"#utility.yul\":2469:2475   */\n      0x00\n        /* \"#utility.yul\":2477:2483   */\n      dup1\n        /* \"#utility.yul\":2526:2528   */\n      0x40\n        /* \"#utility.yul\":2514:2523   */\n      dup4\n        /* \"#utility.yul\":2505:2512   */\n      dup6\n        /* \"#utility.yul\":2501:2524   */\n      sub\n        /* \"#utility.yul\":2497:2529   */\n      slt\n        /* \"#utility.yul\":2494:2613   */\n      iszero\n      tag_383\n      jumpi\n        /* \"#utility.yul\":2532:2611   */\n      tag_384\n      tag_272\n      jump\t// in\n    tag_384:\n        /* \"#utility.yul\":2494:2613   */\n    tag_383:\n        /* \"#utility.yul\":2652:2653   */\n      0x00\n        /* \"#utility.yul\":2677:2730   */\n      tag_385\n        /* \"#utility.yul\":2722:2729   */\n      dup6\n        /* \"#utility.yul\":2713:2719   */\n      dup3\n        /* \"#utility.yul\":2702:2711   */\n      dup7\n        /* \"#utility.yul\":2698:2720   */\n      add\n        /* \"#utility.yul\":2677:2730   */\n      tag_277\n      jump\t// in\n    tag_385:\n        /* \"#utility.yul\":2667:2730   */\n      swap3\n      pop\n        /* \"#utility.yul\":2623:2740   */\n      pop\n        /* \"#utility.yul\":2779:2781   */\n      0x20\n        /* \"#utility.yul\":2805:2858   */\n      tag_386\n        /* \"#utility.yul\":2850:2857   */\n      dup6\n        /* \"#utility.yul\":2841:2847   */\n      dup3\n        /* \"#utility.yul\":2830:2839   */\n      dup7\n        /* \"#utility.yul\":2826:2848   */\n      add\n        /* \"#utility.yul\":2805:2858   */\n      tag_280\n      jump\t// in\n    tag_386:\n        /* \"#utility.yul\":2795:2858   */\n      swap2\n      pop\n        /* \"#utility.yul\":2750:2868   */\n      pop\n        /* \"#utility.yul\":2401:2875   */\n      swap3\n      pop\n      swap3\n      swap1\n      pop\n      jump\t// out\n        /* \"#utility.yul\":2881:3023   */\n    tag_281:\n        /* \"#utility.yul\":2976:2982   */\n      0x00\n        /* \"#utility.yul\":3010:3015   */\n      dup2\n        /* \"#utility.yul\":3004:3016   */\n      mload\n        /* \"#utility.yul\":2994:3016   */\n      swap1\n      pop\n        /* \"#utility.yul\":2881:3023   */\n      swap2\n      swap1\n      pop\n      jump\t// out\n        /* \"#utility.yul\":3029:3241   */\n    tag_282:\n        /* \"#utility.yul\":3156:3167   */\n      0x00\n        /* \"#utility.yul\":3190:3196   */\n      dup3\n        /* \"#utility.yul\":3185:3188   */\n      dup3\n        /* \"#utility.yul\":3178:3197   */\n      mstore\n        /* \"#utility.yul\":3230:3234   */\n      0x20\n        /* \"#utility.yul\":3225:3228   */\n      dup3\n        /* \"#utility.yul\":3221:3235   */\n      add\n        /* \"#utility.yul\":3206:3235   */\n      swap1\n      pop\n        /* \"#utility.yul\":3029:3241   */\n      swap3\n      swap2\n      pop\n      pop\n      jump\t// out\n        /* \"#utility.yul\":3247:3407   */\n    tag_283:\n        /* \"#utility.yul\":3342:3346   */\n      0x00\n        /* \"#utility.yul\":3365:3368   */\n      dup2\n        /* \"#utility.yul\":3357:3368   */\n      swap1\n      pop\n        /* \"#utility.yul\":3395:3399   */\n      0x20\n        /* \"#utility.yul\":3390:3393   */\n      dup3\n        /* \"#utility.yul\":3386:3400   */\n      add\n        /* \"#utility.yul\":3378:3400   */\n      swap1\n      pop\n        /* \"#utility.yul\":3247:3407   */\n      swap2\n      swap1\n      pop\n      jump\t// out\n        /* \"#utility.yul\":3413:3521   */\n    tag_284:\n        /* \"#utility.yul\":3490:3514   */\n      tag_391\n        /* \"#utility.yul\":3508:3513   */\n      dup2\n        /* \"#utility.yul\":3490:3514   */\n      tag_275\n      jump\t// in\n    tag_391:\n        /* \"#utility.yul\":3485:3488   */\n      dup3\n        /* \"#utility.yul\":3478:3515   */\n      mstore\n        /* \"#utility.yul\":3413:3521   */\n      pop\n      pop\n      jump\t// out\n        /* \"#utility.yul\":3527:3617   */\n    tag_285:\n        /* \"#utility.yul\":3561:3568   */\n      0x00\n        /* \"#utility.yul\":3604:3609   */\n      dup2\n        /* \"#utility.yul\":3597:3610   */\n      iszero\n        /* \"#utility.yul\":3590:3611   */\n      iszero\n        /* \"#utility.yul\":3579:3611   */\n      swap1\n      pop\n        /* \"#utility.yul\":3527:3617   */\n      swap2\n      swap1\n      pop\n      jump\t// out\n        /* \"#utility.yul\":3623:3722   */\n    tag_286:\n        /* \"#utility.yul\":3694:3715   */\n      tag_394\n        /* \"#utility.yul\":3709:3714   */\n      dup2\n        /* \"#utility.yul\":3694:3715   */\n      tag_285\n      jump\t// in\n    tag_394:\n        /* \"#utility.yul\":3689:3692   */\n      dup3\n        /* \"#utility.yul\":3682:3716   */\n      mstore\n        /* \"#utility.yul\":3623:3722   */\n      pop\n      pop\n      jump\t// out\n        /* \"#utility.yul\":3728:3836   */\n    tag_287:\n        /* \"#utility.yul\":3805:3829   */\n      tag_396\n        /* \"#utility.yul\":3823:3828   */\n      dup2\n        /* \"#utility.yul\":3805:3829   */\n      tag_278\n      jump\t// in\n    tag_396:\n        /* \"#utility.yul\":3800:3803   */\n      dup3\n        /* \"#utility.yul\":3793:3830   */\n      mstore\n        /* \"#utility.yul\":3728:3836   */\n      pop\n      pop\n      jump\t// out\n        /* \"#utility.yul\":3842:3941   */\n    tag_288:\n        /* \"#utility.yul\":3894:3900   */\n      0x00\n        /* \"#utility.yul\":3928:3933   */\n      dup2\n        /* \"#utility.yul\":3922:3934   */\n      mload\n        /* \"#utility.yul\":3912:3934   */\n      swap1\n      pop\n        /* \"#utility.yul\":3842:3941   */\n      swap2\n      swap1\n      pop\n      jump\t// out\n        /* \"#utility.yul\":3947:4106   */\n    tag_289:\n        /* \"#utility.yul\":4021:4032   */\n      0x00\n        /* \"#utility.yul\":4055:4061   */\n      dup3\n        /* \"#utility.yul\":4050:4053   */\n      dup3\n        /* \"#utility.yul\":4043:4062   */\n      mstore\n        /* \"#utility.yul\":4095:4099   */\n      0x20\n        /* \"#utility.yul\":4090:4093   */\n      dup3\n        /* \"#utility.yul\":4086:4100   */\n      add\n        /* \"#utility.yul\":4071:4100   */\n      swap1\n      pop\n        /* \"#utility.yul\":3947:4106   */\n      swap3\n      swap2\n      pop\n      pop\n      jump\t// out\n        /* \"#utility.yul\":4112:4251   */\n    tag_290:\n        /* \"#utility.yul\":4201:4207   */\n      dup3\n        /* \"#utility.yul\":4196:4199   */\n      dup2\n        /* \"#utility.yul\":4191:4194   */\n      dup4\n        /* \"#utility.yul\":4185:4208   */\n      mcopy\n        /* \"#utility.yul\":4242:4243   */\n      0x00\n        /* \"#utility.yul\":4233:4239   */\n      dup4\n        /* \"#utility.yul\":4228:4231   */\n      dup4\n        /* \"#utility.yul\":4224:4240   */\n      add\n        /* \"#utility.yul\":4217:4244   */\n      mstore\n        /* \"#utility.yul\":4112:4251   */\n      pop\n      pop\n      pop\n      jump\t// out\n        /* \"#utility.yul\":4257:4359   */\n    tag_291:\n        /* \"#utility.yul\":4298:4304   */\n      0x00\n        /* \"#utility.yul\":4349:4351   */\n      0x1f\n        /* \"#utility.yul\":4345:4352   */\n      not\n        /* \"#utility.yul\":4340:4342   */\n      0x1f\n        /* \"#utility.yul\":4333:4338   */\n      dup4\n        /* \"#utility.yul\":4329:4343   */\n      add\n        /* \"#utility.yul\":4325:4353   */\n      and\n        /* \"#utility.yul\":4315:4353   */\n      swap1\n      pop\n        /* \"#utility.yul\":4257:4359   */\n      swap2\n      swap1\n      pop\n      jump\t// out\n        /* \"#utility.yul\":4365:4722   */\n    tag_292:\n        /* \"#utility.yul\":4443:4446   */\n      0x00\n        /* \"#utility.yul\":4471:4510   */\n      tag_402\n        /* \"#utility.yul\":4504:4509   */\n      dup3\n        /* \"#utility.yul\":4471:4510   */\n      tag_288\n      jump\t// in\n    tag_402:\n        /* \"#utility.yul\":4526:4587   */\n      tag_403\n        /* \"#utility.yul\":4580:4586   */\n      dup2\n        /* \"#utility.yul\":4575:4578   */\n      dup6\n        /* \"#utility.yul\":4526:4587   */\n      tag_289\n      jump\t// in\n    tag_403:\n        /* \"#utility.yul\":4519:4587   */\n      swap4\n      pop\n        /* \"#utility.yul\":4596:4661   */\n      tag_404\n        /* \"#utility.yul\":4654:4660   */\n      dup2\n        /* \"#utility.yul\":4649:4652   */\n      dup6\n        /* \"#utility.yul\":4642:4646   */\n      0x20\n        /* \"#utility.yul\":4635:4640   */\n      dup7\n        /* \"#utility.yul\":4631:4647   */\n      add\n        /* \"#utility.yul\":4596:4661   */\n      tag_290\n      jump\t// in\n    tag_404:\n        /* \"#utility.yul\":4686:4715   */\n      tag_405\n        /* \"#utility.yul\":4708:4714   */\n      dup2\n        /* \"#utility.yul\":4686:4715   */\n      tag_291\n      jump\t// in\n    tag_405:\n        /* \"#utility.yul\":4681:4684   */\n      dup5\n        /* \"#utility.yul\":4677:4716   */\n      add\n        /* \"#utility.yul\":4670:4716   */\n      swap2\n      pop\n        /* \"#utility.yul\":4447:4722   */\n      pop\n        /* \"#utility.yul\":4365:4722   */\n      swap3\n      swap2\n      pop\n      pop\n      jump\t// out\n        /* \"#utility.yul\":4808:6183   */\n    tag_293:\n        /* \"#utility.yul\":4923:4926   */\n      0x00\n        /* \"#utility.yul\":4959:4963   */\n      0xc0\n        /* \"#utility.yul\":4954:4957   */\n      dup4\n        /* \"#utility.yul\":4950:4964   */\n      add\n        /* \"#utility.yul\":5047:5051   */\n      0x00\n        /* \"#utility.yul\":5040:5045   */\n      dup4\n        /* \"#utility.yul\":5036:5052   */\n      add\n        /* \"#utility.yul\":5030:5053   */\n      mload\n        /* \"#utility.yul\":5066:5129   */\n      tag_407\n        /* \"#utility.yul\":5123:5127   */\n      0x00\n        /* \"#utility.yul\":5118:5121   */\n      dup7\n        /* \"#utility.yul\":5114:5128   */\n      add\n        /* \"#utility.yul\":5100:5112   */\n      dup3\n        /* \"#utility.yul\":5066:5129   */\n      tag_284\n      jump\t// in\n    tag_407:\n        /* \"#utility.yul\":4974:5139   */\n      pop\n        /* \"#utility.yul\":5226:5230   */\n      0x20\n        /* \"#utility.yul\":5219:5224   */\n      dup4\n        /* \"#utility.yul\":5215:5231   */\n      add\n        /* \"#utility.yul\":5209:5232   */\n      mload\n        /* \"#utility.yul\":5245:5302   */\n      tag_408\n        /* \"#utility.yul\":5296:5300   */\n      0x20\n        /* \"#utility.yul\":5291:5294   */\n      dup7\n        /* \"#utility.yul\":5287:5301   */\n      add\n        /* \"#utility.yul\":5273:5285   */\n      dup3\n        /* \"#utility.yul\":5245:5302   */\n      tag_286\n      jump\t// in\n    tag_408:\n        /* \"#utility.yul\":5149:5312   */\n      pop\n        /* \"#utility.yul\":5395:5399   */\n      0x40\n        /* \"#utility.yul\":5388:5393   */\n      dup4\n        /* \"#utility.yul\":5384:5400   */\n      add\n        /* \"#utility.yul\":5378:5401   */\n      mload\n        /* \"#utility.yul\":5414:5477   */\n      tag_409\n        /* \"#utility.yul\":5471:5475   */\n      0x40\n        /* \"#utility.yul\":5466:5469   */\n      dup7\n        /* \"#utility.yul\":5462:5476   */\n      add\n        /* \"#utility.yul\":5448:5460   */\n      dup3\n        /* \"#utility.yul\":5414:5477   */\n      tag_287\n      jump\t// in\n    tag_409:\n        /* \"#utility.yul\":5322:5487   */\n      pop\n        /* \"#utility.yul\":5572:5576   */\n      0x60\n        /* \"#utility.yul\":5565:5570   */\n      dup4\n        /* \"#utility.yul\":5561:5577   */\n      add\n        /* \"#utility.yul\":5555:5578   */\n      mload\n        /* \"#utility.yul\":5591:5654   */\n      tag_410\n        /* \"#utility.yul\":5648:5652   */\n      0x60\n        /* \"#utility.yul\":5643:5646   */\n      dup7\n        /* \"#utility.yul\":5639:5653   */\n      add\n        /* \"#utility.yul\":5625:5637   */\n      dup3\n        /* \"#utility.yul\":5591:5654   */\n      tag_284\n      jump\t// in\n    tag_410:\n        /* \"#utility.yul\":5497:5664   */\n      pop\n        /* \"#utility.yul\":5746:5750   */\n      0x80\n        /* \"#utility.yul\":5739:5744   */\n      dup4\n        /* \"#utility.yul\":5735:5751   */\n      add\n        /* \"#utility.yul\":5729:5752   */\n      mload\n        /* \"#utility.yul\":5799:5802   */\n      dup5\n        /* \"#utility.yul\":5793:5797   */\n      dup3\n        /* \"#utility.yul\":5789:5803   */\n      sub\n        /* \"#utility.yul\":5782:5786   */\n      0x80\n        /* \"#utility.yul\":5777:5780   */\n      dup7\n        /* \"#utility.yul\":5773:5787   */\n      add\n        /* \"#utility.yul\":5766:5804   */\n      mstore\n        /* \"#utility.yul\":5825:5898   */\n      tag_411\n        /* \"#utility.yul\":5893:5897   */\n      dup3\n        /* \"#utility.yul\":5879:5891   */\n      dup3\n        /* \"#utility.yul\":5825:5898   */\n      tag_292\n      jump\t// in\n    tag_411:\n        /* \"#utility.yul\":5817:5898   */\n      swap2\n      pop\n        /* \"#utility.yul\":5674:5909   */\n      pop\n        /* \"#utility.yul\":5993:5997   */\n      0xa0\n        /* \"#utility.yul\":5986:5991   */\n      dup4\n        /* \"#utility.yul\":5982:5998   */\n      add\n        /* \"#utility.yul\":5976:5999   */\n      mload\n        /* \"#utility.yul\":6046:6049   */\n      dup5\n        /* \"#utility.yul\":6040:6044   */\n      dup3\n        /* \"#utility.yul\":6036:6050   */\n      sub\n        /* \"#utility.yul\":6029:6033   */\n      0xa0\n        /* \"#utility.yul\":6024:6027   */\n      dup7\n        /* \"#utility.yul\":6020:6034   */\n      add\n        /* \"#utility.yul\":6013:6051   */\n      mstore\n        /* \"#utility.yul\":6072:6145   */\n      tag_412\n        /* \"#utility.yul\":6140:6144   */\n      dup3\n        /* \"#utility.yul\":6126:6138   */\n      dup3\n        /* \"#utility.yul\":6072:6145   */\n      tag_292\n      jump\t// in\n    tag_412:\n        /* \"#utility.yul\":6064:6145   */\n      swap2\n      pop\n        /* \"#utility.yul\":5919:6156   */\n      pop\n        /* \"#utility.yul\":6173:6177   */\n      dup1\n        /* \"#utility.yul\":6166:6177   */\n      swap2\n      pop\n        /* \"#utility.yul\":4928:6183   */\n      pop\n        /* \"#utility.yul\":4808:6183   */\n      swap3\n      swap2\n      pop\n      pop\n      jump\t// out\n        /* \"#utility.yul\":6189:6457   */\n    tag_294:\n        /* \"#utility.yul\":6314:6324   */\n      0x00\n        /* \"#utility.yul\":6349:6451   */\n      tag_414\n        /* \"#utility.yul\":6447:6450   */\n      dup4\n        /* \"#utility.yul\":6439:6445   */\n      dup4\n        /* \"#utility.yul\":6349:6451   */\n      tag_293\n      jump\t// in\n    tag_414:\n        /* \"#utility.yul\":6335:6451   */\n      swap1\n      pop\n        /* \"#utility.yul\":6189:6457   */\n      swap3\n      swap2\n      pop\n      pop\n      jump\t// out\n        /* \"#utility.yul\":6463:6604   */\n    tag_295:\n        /* \"#utility.yul\":6561:6565   */\n      0x00\n        /* \"#utility.yul\":6593:6597   */\n      0x20\n        /* \"#utility.yul\":6588:6591   */\n      dup3\n        /* \"#utility.yul\":6584:6598   */\n      add\n        /* \"#utility.yul\":6576:6598   */\n      swap1\n      pop\n        /* \"#utility.yul\":6463:6604   */\n      swap2\n      swap1\n      pop\n      jump\t// out\n        /* \"#utility.yul\":6694:7829   */\n    tag_296:\n        /* \"#utility.yul\":6869:6872   */\n      0x00\n        /* \"#utility.yul\":6898:6980   */\n      tag_417\n        /* \"#utility.yul\":6974:6979   */\n      dup3\n        /* \"#utility.yul\":6898:6980   */\n      tag_281\n      jump\t// in\n    tag_417:\n        /* \"#utility.yul\":6996:7110   */\n      tag_418\n        /* \"#utility.yul\":7103:7109   */\n      dup2\n        /* \"#utility.yul\":7098:7101   */\n      dup6\n        /* \"#utility.yul\":6996:7110   */\n      tag_282\n      jump\t// in\n    tag_418:\n        /* \"#utility.yul\":6989:7110   */\n      swap4\n      pop\n        /* \"#utility.yul\":7136:7139   */\n      dup4\n        /* \"#utility.yul\":7181:7185   */\n      0x20\n        /* \"#utility.yul\":7173:7179   */\n      dup3\n        /* \"#utility.yul\":7169:7186   */\n      mul\n        /* \"#utility.yul\":7164:7167   */\n      dup6\n        /* \"#utility.yul\":7160:7187   */\n      add\n        /* \"#utility.yul\":7211:7295   */\n      tag_419\n        /* \"#utility.yul\":7289:7294   */\n      dup6\n        /* \"#utility.yul\":7211:7295   */\n      tag_283\n      jump\t// in\n    tag_419:\n        /* \"#utility.yul\":7318:7325   */\n      dup1\n        /* \"#utility.yul\":7349:7350   */\n      0x00\n        /* \"#utility.yul\":7334:7784   */\n    tag_420:\n        /* \"#utility.yul\":7359:7365   */\n      dup6\n        /* \"#utility.yul\":7356:7357   */\n      dup2\n        /* \"#utility.yul\":7353:7366   */\n      lt\n        /* \"#utility.yul\":7334:7784   */\n      iszero\n      tag_422\n      jumpi\n        /* \"#utility.yul\":7430:7439   */\n      dup5\n        /* \"#utility.yul\":7424:7428   */\n      dup5\n        /* \"#utility.yul\":7420:7440   */\n      sub\n        /* \"#utility.yul\":7415:7418   */\n      dup10\n        /* \"#utility.yul\":7408:7441   */\n      mstore\n        /* \"#utility.yul\":7481:7487   */\n      dup2\n        /* \"#utility.yul\":7475:7488   */\n      mload\n        /* \"#utility.yul\":7509:7629   */\n      tag_423\n        /* \"#utility.yul\":7624:7628   */\n      dup6\n        /* \"#utility.yul\":7609:7622   */\n      dup3\n        /* \"#utility.yul\":7509:7629   */\n      tag_294\n      jump\t// in\n    tag_423:\n        /* \"#utility.yul\":7501:7629   */\n      swap5\n      pop\n        /* \"#utility.yul\":7652:7740   */\n      tag_424\n        /* \"#utility.yul\":7733:7739   */\n      dup4\n        /* \"#utility.yul\":7652:7740   */\n      tag_295\n      jump\t// in\n    tag_424:\n        /* \"#utility.yul\":7642:7740   */\n      swap3\n      pop\n        /* \"#utility.yul\":7769:7773   */\n      0x20\n        /* \"#utility.yul\":7764:7767   */\n      dup11\n        /* \"#utility.yul\":7760:7774   */\n      add\n        /* \"#utility.yul\":7753:7774   */\n      swap10\n      pop\n        /* \"#utility.yul\":7394:7784   */\n      pop\n        /* \"#utility.yul\":7381:7382   */\n      0x01\n        /* \"#utility.yul\":7378:7379   */\n      dup2\n        /* \"#utility.yul\":7374:7383   */\n      add\n        /* \"#utility.yul\":7369:7383   */\n      swap1\n      pop\n        /* \"#utility.yul\":7334:7784   */\n      jump(tag_420)\n    tag_422:\n        /* \"#utility.yul\":7338:7352   */\n      pop\n        /* \"#utility.yul\":7800:7804   */\n      dup3\n        /* \"#utility.yul\":7793:7804   */\n      swap8\n      pop\n        /* \"#utility.yul\":7820:7823   */\n      dup8\n        /* \"#utility.yul\":7813:7823   */\n      swap6\n      pop\n        /* \"#utility.yul\":6874:7829   */\n      pop\n      pop\n      pop\n      pop\n      pop\n        /* \"#utility.yul\":6694:7829   */\n      swap3\n      swap2\n      pop\n      pop\n      jump\t// out\n        /* \"#utility.yul\":7835:8320   */\n    tag_28:\n        /* \"#utility.yul\":8034:8038   */\n      0x00\n        /* \"#utility.yul\":8072:8074   */\n      0x20\n        /* \"#utility.yul\":8061:8070   */\n      dup3\n        /* \"#utility.yul\":8057:8075   */\n      add\n        /* \"#utility.yul\":8049:8075   */\n      swap1\n      pop\n        /* \"#utility.yul\":8121:8130   */\n      dup2\n        /* \"#utility.yul\":8115:8119   */\n      dup2\n        /* \"#utility.yul\":8111:8131   */\n      sub\n        /* \"#utility.yul\":8107:8108   */\n      0x00\n        /* \"#utility.yul\":8096:8105   */\n      dup4\n        /* \"#utility.yul\":8092:8109   */\n      add\n        /* \"#utility.yul\":8085:8132   */\n      mstore\n        /* \"#utility.yul\":8149:8313   */\n      tag_426\n        /* \"#utility.yul\":8308:8312   */\n      dup2\n        /* \"#utility.yul\":8299:8305   */\n      dup5\n        /* \"#utility.yul\":8149:8313   */\n      tag_296\n      jump\t// in\n    tag_426:\n        /* \"#utility.yul\":8141:8313   */\n      swap1\n      pop\n        /* \"#utility.yul\":7835:8320   */\n      swap3\n      swap2\n      pop\n      pop\n      jump\t// out\n        /* \"#utility.yul\":8326:8655   */\n    tag_35:\n        /* \"#utility.yul\":8385:8391   */\n      0x00\n        /* \"#utility.yul\":8434:8436   */\n      0x20\n        /* \"#utility.yul\":8422:8431   */\n      dup3\n        /* \"#utility.yul\":8413:8420   */\n      dup5\n        /* \"#utility.yul\":8409:8432   */\n      sub\n        /* \"#utility.yul\":8405:8437   */\n      slt\n        /* \"#utility.yul\":8402:8521   */\n      iszero\n      tag_428\n      jumpi\n        /* \"#utility.yul\":8440:8519   */\n      tag_429\n      tag_272\n      jump\t// in\n    tag_429:\n        /* \"#utility.yul\":8402:8521   */\n    tag_428:\n        /* \"#utility.yul\":8560:8561   */\n      0x00\n        /* \"#utility.yul\":8585:8638   */\n      tag_430\n        /* \"#utility.yul\":8630:8637   */\n      dup5\n        /* \"#utility.yul\":8621:8627   */\n      dup3\n        /* \"#utility.yul\":8610:8619   */\n      dup6\n        /* \"#utility.yul\":8606:8628   */\n      add\n        /* \"#utility.yul\":8585:8638   */\n      tag_280\n      jump\t// in\n    tag_430:\n        /* \"#utility.yul\":8575:8638   */\n      swap2\n      pop\n        /* \"#utility.yul\":8531:8648   */\n      pop\n        /* \"#utility.yul\":8326:8655   */\n      swap3\n      swap2\n      pop\n      pop\n      jump\t// out\n        /* \"#utility.yul\":8661:8779   */\n    tag_297:\n        /* \"#utility.yul\":8748:8772   */\n      tag_432\n        /* \"#utility.yul\":8766:8771   */\n      dup2\n        /* \"#utility.yul\":8748:8772   */\n      tag_275\n      jump\t// in\n    tag_432:\n        /* \"#utility.yul\":8743:8746   */\n      dup3\n        /* \"#utility.yul\":8736:8773   */\n      mstore\n        /* \"#utility.yul\":8661:8779   */\n      pop\n      pop\n      jump\t// out\n        /* \"#utility.yul\":8785:9007   */\n    tag_38:\n        /* \"#utility.yul\":8878:8882   */\n      0x00\n        /* \"#utility.yul\":8916:8918   */\n      0x20\n        /* \"#utility.yul\":8905:8914   */\n      dup3\n        /* \"#utility.yul\":8901:8919   */\n      add\n        /* \"#utility.yul\":8893:8919   */\n      swap1\n      pop\n        /* \"#utility.yul\":8929:9000   */\n      tag_434\n        /* \"#utility.yul\":8997:8998   */\n      0x00\n        /* \"#utility.yul\":8986:8995   */\n      dup4\n        /* \"#utility.yul\":8982:8999   */\n      add\n        /* \"#utility.yul\":8973:8979   */\n      dup5\n        /* \"#utility.yul\":8929:9000   */\n      tag_297\n      jump\t// in\n    tag_434:\n        /* \"#utility.yul\":8785:9007   */\n      swap3\n      swap2\n      pop\n      pop\n      jump\t// out\n        /* \"#utility.yul\":9013:9342   */\n    tag_42:\n        /* \"#utility.yul\":9072:9078   */\n      0x00\n        /* \"#utility.yul\":9121:9123   */\n      0x20\n        /* \"#utility.yul\":9109:9118   */\n      dup3\n        /* \"#utility.yul\":9100:9107   */\n      dup5\n        /* \"#utility.yul\":9096:9119   */\n      sub\n        /* \"#utility.yul\":9092:9124   */\n      slt\n        /* \"#utility.yul\":9089:9208   */\n      iszero\n      tag_436\n      jumpi\n        /* \"#utility.yul\":9127:9206   */\n      tag_437\n      tag_272\n      jump\t// in\n    tag_437:\n        /* \"#utility.yul\":9089:9208   */\n    tag_436:\n        /* \"#utility.yul\":9247:9248   */\n      0x00\n        /* \"#utility.yul\":9272:9325   */\n      tag_438\n        /* \"#utility.yul\":9317:9324   */\n      dup5\n        /* \"#utility.yul\":9308:9314   */\n      dup3\n        /* \"#utility.yul\":9297:9306   */\n      dup6\n        /* \"#utility.yul\":9293:9315   */\n      add\n        /* \"#utility.yul\":9272:9325   */\n      tag_277\n      jump\t// in\n    tag_438:\n        /* \"#utility.yul\":9262:9325   */\n      swap2\n      pop\n        /* \"#utility.yul\":9218:9335   */\n      pop\n        /* \"#utility.yul\":9013:9342   */\n      swap3\n      swap2\n      pop\n      pop\n      jump\t// out\n        /* \"#utility.yul\":9428:10813   */\n    tag_298:\n        /* \"#utility.yul\":9553:9556   */\n      0x00\n        /* \"#utility.yul\":9589:9593   */\n      0xc0\n        /* \"#utility.yul\":9584:9587   */\n      dup4\n        /* \"#utility.yul\":9580:9594   */\n      add\n        /* \"#utility.yul\":9677:9681   */\n      0x00\n        /* \"#utility.yul\":9670:9675   */\n      dup4\n        /* \"#utility.yul\":9666:9682   */\n      add\n        /* \"#utility.yul\":9660:9683   */\n      mload\n        /* \"#utility.yul\":9696:9759   */\n      tag_440\n        /* \"#utility.yul\":9753:9757   */\n      0x00\n        /* \"#utility.yul\":9748:9751   */\n      dup7\n        /* \"#utility.yul\":9744:9758   */\n      add\n        /* \"#utility.yul\":9730:9742   */\n      dup3\n        /* \"#utility.yul\":9696:9759   */\n      tag_284\n      jump\t// in\n    tag_440:\n        /* \"#utility.yul\":9604:9769   */\n      pop\n        /* \"#utility.yul\":9856:9860   */\n      0x20\n        /* \"#utility.yul\":9849:9854   */\n      dup4\n        /* \"#utility.yul\":9845:9861   */\n      add\n        /* \"#utility.yul\":9839:9862   */\n      mload\n        /* \"#utility.yul\":9875:9932   */\n      tag_441\n        /* \"#utility.yul\":9926:9930   */\n      0x20\n        /* \"#utility.yul\":9921:9924   */\n      dup7\n        /* \"#utility.yul\":9917:9931   */\n      add\n        /* \"#utility.yul\":9903:9915   */\n      dup3\n        /* \"#utility.yul\":9875:9932   */\n      tag_286\n      jump\t// in\n    tag_441:\n        /* \"#utility.yul\":9779:9942   */\n      pop\n        /* \"#utility.yul\":10025:10029   */\n      0x40\n        /* \"#utility.yul\":10018:10023   */\n      dup4\n        /* \"#utility.yul\":10014:10030   */\n      add\n        /* \"#utility.yul\":10008:10031   */\n      mload\n        /* \"#utility.yul\":10044:10107   */\n      tag_442\n        /* \"#utility.yul\":10101:10105   */\n      0x40\n        /* \"#utility.yul\":10096:10099   */\n      dup7\n        /* \"#utility.yul\":10092:10106   */\n      add\n        /* \"#utility.yul\":10078:10090   */\n      dup3\n        /* \"#utility.yul\":10044:10107   */\n      tag_287\n      jump\t// in\n    tag_442:\n        /* \"#utility.yul\":9952:10117   */\n      pop\n        /* \"#utility.yul\":10202:10206   */\n      0x60\n        /* \"#utility.yul\":10195:10200   */\n      dup4\n        /* \"#utility.yul\":10191:10207   */\n      add\n        /* \"#utility.yul\":10185:10208   */\n      mload\n        /* \"#utility.yul\":10221:10284   */\n      tag_443\n        /* \"#utility.yul\":10278:10282   */\n      0x60\n        /* \"#utility.yul\":10273:10276   */\n      dup7\n        /* \"#utility.yul\":10269:10283   */\n      add\n        /* \"#utility.yul\":10255:10267   */\n      dup3\n        /* \"#utility.yul\":10221:10284   */\n      tag_284\n      jump\t// in\n    tag_443:\n        /* \"#utility.yul\":10127:10294   */\n      pop\n        /* \"#utility.yul\":10376:10380   */\n      0x80\n        /* \"#utility.yul\":10369:10374   */\n      dup4\n        /* \"#utility.yul\":10365:10381   */\n      add\n        /* \"#utility.yul\":10359:10382   */\n      mload\n        /* \"#utility.yul\":10429:10432   */\n      dup5\n        /* \"#utility.yul\":10423:10427   */\n      dup3\n        /* \"#utility.yul\":10419:10433   */\n      sub\n        /* \"#utility.yul\":10412:10416   */\n      0x80\n        /* \"#utility.yul\":10407:10410   */\n      dup7\n        /* \"#utility.yul\":10403:10417   */\n      add\n        /* \"#utility.yul\":10396:10434   */\n      mstore\n        /* \"#utility.yul\":10455:10528   */\n      tag_444\n        /* \"#utility.yul\":10523:10527   */\n      dup3\n        /* \"#utility.yul\":10509:10521   */\n      dup3\n        /* \"#utility.yul\":10455:10528   */\n      tag_292\n      jump\t// in\n    tag_444:\n        /* \"#utility.yul\":10447:10528   */\n      swap2\n      pop\n        /* \"#utility.yul\":10304:10539   */\n      pop\n        /* \"#utility.yul\":10623:10627   */\n      0xa0\n        /* \"#utility.yul\":10616:10621   */\n      dup4\n        /* \"#utility.yul\":10612:10628   */\n      add\n        /* \"#utility.yul\":10606:10629   */\n      mload\n        /* \"#utility.yul\":10676:10679   */\n      dup5\n        /* \"#utility.yul\":10670:10674   */\n      dup3\n        /* \"#utility.yul\":10666:10680   */\n      sub\n        /* \"#utility.yul\":10659:10663   */\n      0xa0\n        /* \"#utility.yul\":10654:10657   */\n      dup7\n        /* \"#utility.yul\":10650:10664   */\n      add\n        /* \"#utility.yul\":10643:10681   */\n      mstore\n        /* \"#utility.yul\":10702:10775   */\n      tag_445\n        /* \"#utility.yul\":10770:10774   */\n      dup3\n        /* \"#utility.yul\":10756:10768   */\n      dup3\n        /* \"#utility.yul\":10702:10775   */\n      tag_292\n      jump\t// in\n    tag_445:\n        /* \"#utility.yul\":10694:10775   */\n      swap2\n      pop\n        /* \"#utility.yul\":10549:10786   */\n      pop\n        /* \"#utility.yul\":10803:10807   */\n      dup1\n        /* \"#utility.yul\":10796:10807   */\n      swap2\n      pop\n        /* \"#utility.yul\":9558:10813   */\n      pop\n        /* \"#utility.yul\":9428:10813   */\n      swap3\n      swap2\n      pop\n      pop\n      jump\t// out\n        /* \"#utility.yul\":10819:11204   */\n    tag_45:\n        /* \"#utility.yul\":10968:10972   */\n      0x00\n        /* \"#utility.yul\":11006:11008   */\n      0x20\n        /* \"#utility.yul\":10995:11004   */\n      dup3\n        /* \"#utility.yul\":10991:11009   */\n      add\n        /* \"#utility.yul\":10983:11009   */\n      swap1\n      pop\n        /* \"#utility.yul\":11055:11064   */\n      dup2\n        /* \"#utility.yul\":11049:11053   */\n      dup2\n        /* \"#utility.yul\":11045:11065   */\n      sub\n        /* \"#utility.yul\":11041:11042   */\n      0x00\n        /* \"#utility.yul\":11030:11039   */\n      dup4\n        /* \"#utility.yul\":11026:11043   */\n      add\n        /* \"#utility.yul\":11019:11066   */\n      mstore\n        /* \"#utility.yul\":11083:11197   */\n      tag_447\n        /* \"#utility.yul\":11192:11196   */\n      dup2\n        /* \"#utility.yul\":11183:11189   */\n      dup5\n        /* \"#utility.yul\":11083:11197   */\n      tag_298\n      jump\t// in\n    tag_447:\n        /* \"#utility.yul\":11075:11197   */\n      swap1\n      pop\n        /* \"#utility.yul\":10819:11204   */\n      swap3\n      swap2\n      pop\n      pop\n      jump\t// out\n        /* \"#utility.yul\":11210:11324   */\n    tag_299:\n        /* \"#utility.yul\":11277:11283   */\n      0x00\n        /* \"#utility.yul\":11311:11316   */\n      dup2\n        /* \"#utility.yul\":11305:11317   */\n      mload\n        /* \"#utility.yul\":11295:11317   */\n      swap1\n      pop\n        /* \"#utility.yul\":11210:11324   */\n      swap2\n      swap1\n      pop\n      jump\t// out\n        /* \"#utility.yul\":11330:11514   */\n    tag_300:\n        /* \"#utility.yul\":11429:11440   */\n      0x00\n        /* \"#utility.yul\":11463:11469   */\n      dup3\n        /* \"#utility.yul\":11458:11461   */\n      dup3\n        /* \"#utility.yul\":11451:11470   */\n      mstore\n        /* \"#utility.yul\":11503:11507   */\n      0x20\n        /* \"#utility.yul\":11498:11501   */\n      dup3\n        /* \"#utility.yul\":11494:11508   */\n      add\n        /* \"#utility.yul\":11479:11508   */\n      swap1\n      pop\n        /* \"#utility.yul\":11330:11514   */\n      swap3\n      swap2\n      pop\n      pop\n      jump\t// out\n        /* \"#utility.yul\":11520:11652   */\n    tag_301:\n        /* \"#utility.yul\":11587:11591   */\n      0x00\n        /* \"#utility.yul\":11610:11613   */\n      dup2\n        /* \"#utility.yul\":11602:11613   */\n      swap1\n      pop\n        /* \"#utility.yul\":11640:11644   */\n      0x20\n        /* \"#utility.yul\":11635:11638   */\n      dup3\n        /* \"#utility.yul\":11631:11645   */\n      add\n        /* \"#utility.yul\":11623:11645   */\n      swap1\n      pop\n        /* \"#utility.yul\":11520:11652   */\n      swap2\n      swap1\n      pop\n      jump\t// out\n        /* \"#utility.yul\":11658:11837   */\n    tag_302:\n        /* \"#utility.yul\":11727:11737   */\n      0x00\n        /* \"#utility.yul\":11748:11794   */\n      tag_452\n        /* \"#utility.yul\":11790:11793   */\n      dup4\n        /* \"#utility.yul\":11782:11788   */\n      dup4\n        /* \"#utility.yul\":11748:11794   */\n      tag_284\n      jump\t// in\n    tag_452:\n        /* \"#utility.yul\":11826:11830   */\n      0x20\n        /* \"#utility.yul\":11821:11824   */\n      dup4\n        /* \"#utility.yul\":11817:11831   */\n      add\n        /* \"#utility.yul\":11803:11831   */\n      swap1\n      pop\n        /* \"#utility.yul\":11658:11837   */\n      swap3\n      swap2\n      pop\n      pop\n      jump\t// out\n        /* \"#utility.yul\":11843:11956   */\n    tag_303:\n        /* \"#utility.yul\":11913:11917   */\n      0x00\n        /* \"#utility.yul\":11945:11949   */\n      0x20\n        /* \"#utility.yul\":11940:11943   */\n      dup3\n        /* \"#utility.yul\":11936:11950   */\n      add\n        /* \"#utility.yul\":11928:11950   */\n      swap1\n      pop\n        /* \"#utility.yul\":11843:11956   */\n      swap2\n      swap1\n      pop\n      jump\t// out\n        /* \"#utility.yul\":11992:12724   */\n    tag_304:\n        /* \"#utility.yul\":12111:12114   */\n      0x00\n        /* \"#utility.yul\":12140:12194   */\n      tag_455\n        /* \"#utility.yul\":12188:12193   */\n      dup3\n        /* \"#utility.yul\":12140:12194   */\n      tag_299\n      jump\t// in\n    tag_455:\n        /* \"#utility.yul\":12210:12296   */\n      tag_456\n        /* \"#utility.yul\":12289:12295   */\n      dup2\n        /* \"#utility.yul\":12284:12287   */\n      dup6\n        /* \"#utility.yul\":12210:12296   */\n      tag_300\n      jump\t// in\n    tag_456:\n        /* \"#utility.yul\":12203:12296   */\n      swap4\n      pop\n        /* \"#utility.yul\":12320:12376   */\n      tag_457\n        /* \"#utility.yul\":12370:12375   */\n      dup4\n        /* \"#utility.yul\":12320:12376   */\n      tag_301\n      jump\t// in\n    tag_457:\n        /* \"#utility.yul\":12399:12406   */\n      dup1\n        /* \"#utility.yul\":12430:12431   */\n      0x00\n        /* \"#utility.yul\":12415:12699   */\n    tag_458:\n        /* \"#utility.yul\":12440:12446   */\n      dup4\n        /* \"#utility.yul\":12437:12438   */\n      dup2\n        /* \"#utility.yul\":12434:12447   */\n      lt\n        /* \"#utility.yul\":12415:12699   */\n      iszero\n      tag_460\n      jumpi\n        /* \"#utility.yul\":12516:12522   */\n      dup2\n        /* \"#utility.yul\":12510:12523   */\n      mload\n        /* \"#utility.yul\":12543:12606   */\n      tag_461\n        /* \"#utility.yul\":12602:12605   */\n      dup9\n        /* \"#utility.yul\":12587:12600   */\n      dup3\n        /* \"#utility.yul\":12543:12606   */\n      tag_302\n      jump\t// in\n    tag_461:\n        /* \"#utility.yul\":12536:12606   */\n      swap8\n      pop\n        /* \"#utility.yul\":12629:12689   */\n      tag_462\n        /* \"#utility.yul\":12682:12688   */\n      dup4\n        /* \"#utility.yul\":12629:12689   */\n      tag_303\n      jump\t// in\n    tag_462:\n        /* \"#utility.yul\":12619:12689   */\n      swap3\n      pop\n        /* \"#utility.yul\":12475:12699   */\n      pop\n        /* \"#utility.yul\":12462:12463   */\n      0x01\n        /* \"#utility.yul\":12459:12460   */\n      dup2\n        /* \"#utility.yul\":12455:12464   */\n      add\n        /* \"#utility.yul\":12450:12464   */\n      swap1\n      pop\n        /* \"#utility.yul\":12415:12699   */\n      jump(tag_458)\n    tag_460:\n        /* \"#utility.yul\":12419:12433   */\n      pop\n        /* \"#utility.yul\":12715:12718   */\n      dup6\n        /* \"#utility.yul\":12708:12718   */\n      swap4\n      pop\n        /* \"#utility.yul\":12116:12724   */\n      pop\n      pop\n      pop\n        /* \"#utility.yul\":11992:12724   */\n      swap3\n      swap2\n      pop\n      pop\n      jump\t// out\n        /* \"#utility.yul\":12730:13103   */\n    tag_58:\n        /* \"#utility.yul\":12873:12877   */\n      0x00\n        /* \"#utility.yul\":12911:12913   */\n      0x20\n        /* \"#utility.yul\":12900:12909   */\n      dup3\n        /* \"#utility.yul\":12896:12914   */\n      add\n        /* \"#utility.yul\":12888:12914   */\n      swap1\n      pop\n        /* \"#utility.yul\":12960:12969   */\n      dup2\n        /* \"#utility.yul\":12954:12958   */\n      dup2\n        /* \"#utility.yul\":12950:12970   */\n      sub\n        /* \"#utility.yul\":12946:12947   */\n      0x00\n        /* \"#utility.yul\":12935:12944   */\n      dup4\n        /* \"#utility.yul\":12931:12948   */\n      add\n        /* \"#utility.yul\":12924:12971   */\n      mstore\n        /* \"#utility.yul\":12988:13096   */\n      tag_464\n        /* \"#utility.yul\":13091:13095   */\n      dup2\n        /* \"#utility.yul\":13082:13088   */\n      dup5\n        /* \"#utility.yul\":12988:13096   */\n      tag_304\n      jump\t// in\n    tag_464:\n        /* \"#utility.yul\":12980:13096   */\n      swap1\n      pop\n        /* \"#utility.yul\":12730:13103   */\n      swap3\n      swap2\n      pop\n      pop\n      jump\t// out\n        /* \"#utility.yul\":13109:13218   */\n    tag_305:\n        /* \"#utility.yul\":13190:13211   */\n      tag_466\n        /* \"#utility.yul\":13205:13210   */\n      dup2\n        /* \"#utility.yul\":13190:13211   */\n      tag_285\n      jump\t// in\n    tag_466:\n        /* \"#utility.yul\":13185:13188   */\n      dup3\n        /* \"#utility.yul\":13178:13212   */\n      mstore\n        /* \"#utility.yul\":13109:13218   */\n      pop\n      pop\n      jump\t// out\n        /* \"#utility.yul\":13224:13342   */\n    tag_306:\n        /* \"#utility.yul\":13311:13335   */\n      tag_468\n        /* \"#utility.yul\":13329:13334   */\n      dup2\n        /* \"#utility.yul\":13311:13335   */\n      tag_278\n      jump\t// in\n    tag_468:\n        /* \"#utility.yul\":13306:13309   */\n      dup3\n        /* \"#utility.yul\":13299:13336   */\n      mstore\n        /* \"#utility.yul\":13224:13342   */\n      pop\n      pop\n      jump\t// out\n        /* \"#utility.yul\":13348:13725   */\n    tag_307:\n        /* \"#utility.yul\":13436:13439   */\n      0x00\n        /* \"#utility.yul\":13464:13503   */\n      tag_470\n        /* \"#utility.yul\":13497:13502   */\n      dup3\n        /* \"#utility.yul\":13464:13503   */\n      tag_288\n      jump\t// in\n    tag_470:\n        /* \"#utility.yul\":13519:13590   */\n      tag_471\n        /* \"#utility.yul\":13583:13589   */\n      dup2\n        /* \"#utility.yul\":13578:13581   */\n      dup6\n        /* \"#utility.yul\":13519:13590   */\n      tag_268\n      jump\t// in\n    tag_471:\n        /* \"#utility.yul\":13512:13590   */\n      swap4\n      pop\n        /* \"#utility.yul\":13599:13664   */\n      tag_472\n        /* \"#utility.yul\":13657:13663   */\n      dup2\n        /* \"#utility.yul\":13652:13655   */\n      dup6\n        /* \"#utility.yul\":13645:13649   */\n      0x20\n        /* \"#utility.yul\":13638:13643   */\n      dup7\n        /* \"#utility.yul\":13634:13650   */\n      add\n        /* \"#utility.yul\":13599:13664   */\n      tag_290\n      jump\t// in\n    tag_472:\n        /* \"#utility.yul\":13689:13718   */\n      tag_473\n        /* \"#utility.yul\":13711:13717   */\n      dup2\n        /* \"#utility.yul\":13689:13718   */\n      tag_291\n      jump\t// in\n    tag_473:\n        /* \"#utility.yul\":13684:13687   */\n      dup5\n        /* \"#utility.yul\":13680:13719   */\n      add\n        /* \"#utility.yul\":13673:13719   */\n      swap2\n      pop\n        /* \"#utility.yul\":13440:13725   */\n      pop\n        /* \"#utility.yul\":13348:13725   */\n      swap3\n      swap2\n      pop\n      pop\n      jump\t// out\n        /* \"#utility.yul\":13731:14676   */\n    tag_64:\n        /* \"#utility.yul\":13998:14002   */\n      0x00\n        /* \"#utility.yul\":14036:14039   */\n      0xc0\n        /* \"#utility.yul\":14025:14034   */\n      dup3\n        /* \"#utility.yul\":14021:14040   */\n      add\n        /* \"#utility.yul\":14013:14040   */\n      swap1\n      pop\n        /* \"#utility.yul\":14050:14121   */\n      tag_475\n        /* \"#utility.yul\":14118:14119   */\n      0x00\n        /* \"#utility.yul\":14107:14116   */\n      dup4\n        /* \"#utility.yul\":14103:14120   */\n      add\n        /* \"#utility.yul\":14094:14100   */\n      dup10\n        /* \"#utility.yul\":14050:14121   */\n      tag_297\n      jump\t// in\n    tag_475:\n        /* \"#utility.yul\":14131:14197   */\n      tag_476\n        /* \"#utility.yul\":14193:14195   */\n      0x20\n        /* \"#utility.yul\":14182:14191   */\n      dup4\n        /* \"#utility.yul\":14178:14196   */\n      add\n        /* \"#utility.yul\":14169:14175   */\n      dup9\n        /* \"#utility.yul\":14131:14197   */\n      tag_305\n      jump\t// in\n    tag_476:\n        /* \"#utility.yul\":14207:14279   */\n      tag_477\n        /* \"#utility.yul\":14275:14277   */\n      0x40\n        /* \"#utility.yul\":14264:14273   */\n      dup4\n        /* \"#utility.yul\":14260:14278   */\n      add\n        /* \"#utility.yul\":14251:14257   */\n      dup8\n        /* \"#utility.yul\":14207:14279   */\n      tag_306\n      jump\t// in\n    tag_477:\n        /* \"#utility.yul\":14289:14361   */\n      tag_478\n        /* \"#utility.yul\":14357:14359   */\n      0x60\n        /* \"#utility.yul\":14346:14355   */\n      dup4\n        /* \"#utility.yul\":14342:14360   */\n      add\n        /* \"#utility.yul\":14333:14339   */\n      dup7\n        /* \"#utility.yul\":14289:14361   */\n      tag_297\n      jump\t// in\n    tag_478:\n        /* \"#utility.yul\":14409:14418   */\n      dup2\n        /* \"#utility.yul\":14403:14407   */\n      dup2\n        /* \"#utility.yul\":14399:14419   */\n      sub\n        /* \"#utility.yul\":14393:14396   */\n      0x80\n        /* \"#utility.yul\":14382:14391   */\n      dup4\n        /* \"#utility.yul\":14378:14397   */\n      add\n        /* \"#utility.yul\":14371:14420   */\n      mstore\n        /* \"#utility.yul\":14437:14515   */\n      tag_479\n        /* \"#utility.yul\":14510:14514   */\n      dup2\n        /* \"#utility.yul\":14501:14507   */\n      dup6\n        /* \"#utility.yul\":14437:14515   */\n      tag_307\n      jump\t// in\n    tag_479:\n        /* \"#utility.yul\":14429:14515   */\n      swap1\n      pop\n        /* \"#utility.yul\":14563:14572   */\n      dup2\n        /* \"#utility.yul\":14557:14561   */\n      dup2\n        /* \"#utility.yul\":14553:14573   */\n      sub\n        /* \"#utility.yul\":14547:14550   */\n      0xa0\n        /* \"#utility.yul\":14536:14545   */\n      dup4\n        /* \"#utility.yul\":14532:14551   */\n      add\n        /* \"#utility.yul\":14525:14574   */\n      mstore\n        /* \"#utility.yul\":14591:14669   */\n      tag_480\n        /* \"#utility.yul\":14664:14668   */\n      dup2\n        /* \"#utility.yul\":14655:14661   */\n      dup5\n        /* \"#utility.yul\":14591:14669   */\n      tag_307\n      jump\t// in\n    tag_480:\n        /* \"#utility.yul\":14583:14669   */\n      swap1\n      pop\n        /* \"#utility.yul\":13731:14676   */\n      swap8\n      swap7\n      pop\n      pop\n      pop\n      pop\n      pop\n      pop\n      pop\n      jump\t// out\n        /* \"#utility.yul\":14682:14904   */\n    tag_75:\n        /* \"#utility.yul\":14775:14779   */\n      0x00\n        /* \"#utility.yul\":14813:14815   */\n      0x20\n        /* \"#utility.yul\":14802:14811   */\n      dup3\n        /* \"#utility.yul\":14798:14816   */\n      add\n        /* \"#utility.yul\":14790:14816   */\n      swap1\n      pop\n        /* \"#utility.yul\":14826:14897   */\n      tag_482\n        /* \"#utility.yul\":14894:14895   */\n      0x00\n        /* \"#utility.yul\":14883:14892   */\n      dup4\n        /* \"#utility.yul\":14879:14896   */\n      add\n        /* \"#utility.yul\":14870:14876   */\n      dup5\n        /* \"#utility.yul\":14826:14897   */\n      tag_306\n      jump\t// in\n    tag_482:\n        /* \"#utility.yul\":14682:14904   */\n      swap3\n      swap2\n      pop\n      pop\n      jump\t// out\n        /* \"#utility.yul\":14910:15027   */\n    tag_308:\n        /* \"#utility.yul\":15019:15020   */\n      0x00\n        /* \"#utility.yul\":15016:15017   */\n      dup1\n        /* \"#utility.yul\":15009:15021   */\n      revert\n        /* \"#utility.yul\":15033:15150   */\n    tag_309:\n        /* \"#utility.yul\":15142:15143   */\n      0x00\n        /* \"#utility.yul\":15139:15140   */\n      dup1\n        /* \"#utility.yul\":15132:15144   */\n      revert\n        /* \"#utility.yul\":15156:15336   */\n    tag_93:\n        /* \"#utility.yul\":15204:15281   */\n      0x4e487b7100000000000000000000000000000000000000000000000000000000\n        /* \"#utility.yul\":15201:15202   */\n      0x00\n        /* \"#utility.yul\":15194:15282   */\n      mstore\n        /* \"#utility.yul\":15301:15305   */\n      0x41\n        /* \"#utility.yul\":15298:15299   */\n      0x04\n        /* \"#utility.yul\":15291:15306   */\n      mstore\n        /* \"#utility.yul\":15325:15329   */\n      0x24\n        /* \"#utility.yul\":15322:15323   */\n      0x00\n        /* \"#utility.yul\":15315:15330   */\n      revert\n        /* \"#utility.yul\":15342:15623   */\n    tag_310:\n        /* \"#utility.yul\":15425:15452   */\n      tag_487\n        /* \"#utility.yul\":15447:15451   */\n      dup3\n        /* \"#utility.yul\":15425:15452   */\n      tag_291\n      jump\t// in\n    tag_487:\n        /* \"#utility.yul\":15417:15423   */\n      dup2\n        /* \"#utility.yul\":15413:15453   */\n      add\n        /* \"#utility.yul\":15555:15561   */\n      dup2\n        /* \"#utility.yul\":15543:15553   */\n      dup2\n        /* \"#utility.yul\":15540:15562   */\n      lt\n        /* \"#utility.yul\":15519:15537   */\n      0xffffffffffffffff\n        /* \"#utility.yul\":15507:15517   */\n      dup3\n        /* \"#utility.yul\":15504:15538   */\n      gt\n        /* \"#utility.yul\":15501:15563   */\n      or\n        /* \"#utility.yul\":15498:15586   */\n      iszero\n      tag_488\n      jumpi\n        /* \"#utility.yul\":15566:15584   */\n      tag_489\n      tag_93\n      jump\t// in\n    tag_489:\n        /* \"#utility.yul\":15498:15586   */\n    tag_488:\n        /* \"#utility.yul\":15606:15616   */\n      dup1\n        /* \"#utility.yul\":15602:15604   */\n      0x40\n        /* \"#utility.yul\":15595:15617   */\n      mstore\n        /* \"#utility.yul\":15385:15623   */\n      pop\n        /* \"#utility.yul\":15342:15623   */\n      pop\n      pop\n      jump\t// out\n        /* \"#utility.yul\":15629:15758   */\n    tag_311:\n        /* \"#utility.yul\":15663:15669   */\n      0x00\n        /* \"#utility.yul\":15690:15710   */\n      tag_491\n      tag_271\n      jump\t// in\n    tag_491:\n        /* \"#utility.yul\":15680:15710   */\n      swap1\n      pop\n        /* \"#utility.yul\":15719:15752   */\n      tag_492\n        /* \"#utility.yul\":15747:15751   */\n      dup3\n        /* \"#utility.yul\":15739:15745   */\n      dup3\n        /* \"#utility.yul\":15719:15752   */\n      tag_310\n      jump\t// in\n    tag_492:\n        /* \"#utility.yul\":15629:15758   */\n      swap2\n      swap1\n      pop\n      jump\t// out\n        /* \"#utility.yul\":15764:16072   */\n    tag_312:\n        /* \"#utility.yul\":15826:15830   */\n      0x00\n        /* \"#utility.yul\":15916:15934   */\n      0xffffffffffffffff\n        /* \"#utility.yul\":15908:15914   */\n      dup3\n        /* \"#utility.yul\":15905:15935   */\n      gt\n        /* \"#utility.yul\":15902:15958   */\n      iszero\n      tag_494\n      jumpi\n        /* \"#utility.yul\":15938:15956   */\n      tag_495\n      tag_93\n      jump\t// in\n    tag_495:\n        /* \"#utility.yul\":15902:15958   */\n    tag_494:\n        /* \"#utility.yul\":15976:16005   */\n      tag_496\n        /* \"#utility.yul\":15998:16004   */\n      dup3\n        /* \"#utility.yul\":15976:16005   */\n      tag_291\n      jump\t// in\n    tag_496:\n        /* \"#utility.yul\":15968:16005   */\n      swap1\n      pop\n        /* \"#utility.yul\":16060:16064   */\n      0x20\n        /* \"#utility.yul\":16054:16058   */\n      dup2\n        /* \"#utility.yul\":16050:16065   */\n      add\n        /* \"#utility.yul\":16042:16065   */\n      swap1\n      pop\n        /* \"#utility.yul\":15764:16072   */\n      swap2\n      swap1\n      pop\n      jump\t// out\n        /* \"#utility.yul\":16078:16512   */\n    tag_313:\n        /* \"#utility.yul\":16167:16172   */\n      0x00\n        /* \"#utility.yul\":16192:16258   */\n      tag_498\n        /* \"#utility.yul\":16208:16257   */\n      tag_499\n        /* \"#utility.yul\":16250:16256   */\n      dup5\n        /* \"#utility.yul\":16208:16257   */\n      tag_312\n      jump\t// in\n    tag_499:\n        /* \"#utility.yul\":16192:16258   */\n      tag_311\n      jump\t// in\n    tag_498:\n        /* \"#utility.yul\":16183:16258   */\n      swap1\n      pop\n        /* \"#utility.yul\":16281:16287   */\n      dup3\n        /* \"#utility.yul\":16274:16279   */\n      dup2\n        /* \"#utility.yul\":16267:16288   */\n      mstore\n        /* \"#utility.yul\":16319:16323   */\n      0x20\n        /* \"#utility.yul\":16312:16317   */\n      dup2\n        /* \"#utility.yul\":16308:16324   */\n      add\n        /* \"#utility.yul\":16357:16360   */\n      dup5\n        /* \"#utility.yul\":16348:16354   */\n      dup5\n        /* \"#utility.yul\":16343:16346   */\n      dup5\n        /* \"#utility.yul\":16339:16355   */\n      add\n        /* \"#utility.yul\":16336:16361   */\n      gt\n        /* \"#utility.yul\":16333:16445   */\n      iszero\n      tag_500\n      jumpi\n        /* \"#utility.yul\":16364:16443   */\n      tag_501\n      tag_309\n      jump\t// in\n    tag_501:\n        /* \"#utility.yul\":16333:16445   */\n    tag_500:\n        /* \"#utility.yul\":16454:16506   */\n      tag_502\n        /* \"#utility.yul\":16499:16505   */\n      dup5\n        /* \"#utility.yul\":16494:16497   */\n      dup3\n        /* \"#utility.yul\":16489:16492   */\n      dup6\n        /* \"#utility.yul\":16454:16506   */\n      tag_290\n      jump\t// in\n    tag_502:\n        /* \"#utility.yul\":16173:16512   */\n      pop\n        /* \"#utility.yul\":16078:16512   */\n      swap4\n      swap3\n      pop\n      pop\n      pop\n      jump\t// out\n        /* \"#utility.yul\":16532:16887   */\n    tag_314:\n        /* \"#utility.yul\":16599:16604   */\n      0x00\n        /* \"#utility.yul\":16648:16651   */\n      dup3\n        /* \"#utility.yul\":16641:16645   */\n      0x1f\n        /* \"#utility.yul\":16633:16639   */\n      dup4\n        /* \"#utility.yul\":16629:16646   */\n      add\n        /* \"#utility.yul\":16625:16652   */\n      slt\n        /* \"#utility.yul\":16615:16737   */\n      tag_504\n      jumpi\n        /* \"#utility.yul\":16656:16735   */\n      tag_505\n      tag_308\n      jump\t// in\n    tag_505:\n        /* \"#utility.yul\":16615:16737   */\n    tag_504:\n        /* \"#utility.yul\":16766:16772   */\n      dup2\n        /* \"#utility.yul\":16760:16773   */\n      mload\n        /* \"#utility.yul\":16791:16881   */\n      tag_506\n        /* \"#utility.yul\":16877:16880   */\n      dup5\n        /* \"#utility.yul\":16869:16875   */\n      dup3\n        /* \"#utility.yul\":16862:16866   */\n      0x20\n        /* \"#utility.yul\":16854:16860   */\n      dup7\n        /* \"#utility.yul\":16850:16867   */\n      add\n        /* \"#utility.yul\":16791:16881   */\n      tag_313\n      jump\t// in\n    tag_506:\n        /* \"#utility.yul\":16782:16881   */\n      swap2\n      pop\n        /* \"#utility.yul\":16605:16887   */\n      pop\n        /* \"#utility.yul\":16532:16887   */\n      swap3\n      swap2\n      pop\n      pop\n      jump\t// out\n        /* \"#utility.yul\":16893:17417   */\n    tag_80:\n        /* \"#utility.yul\":16973:16979   */\n      0x00\n        /* \"#utility.yul\":17022:17024   */\n      0x20\n        /* \"#utility.yul\":17010:17019   */\n      dup3\n        /* \"#utility.yul\":17001:17008   */\n      dup5\n        /* \"#utility.yul\":16997:17020   */\n      sub\n        /* \"#utility.yul\":16993:17025   */\n      slt\n        /* \"#utility.yul\":16990:17109   */\n      iszero\n      tag_508\n      jumpi\n        /* \"#utility.yul\":17028:17107   */\n      tag_509\n      tag_272\n      jump\t// in\n    tag_509:\n        /* \"#utility.yul\":16990:17109   */\n    tag_508:\n        /* \"#utility.yul\":17169:17170   */\n      0x00\n        /* \"#utility.yul\":17158:17167   */\n      dup3\n        /* \"#utility.yul\":17154:17171   */\n      add\n        /* \"#utility.yul\":17148:17172   */\n      mload\n        /* \"#utility.yul\":17199:17217   */\n      0xffffffffffffffff\n        /* \"#utility.yul\":17191:17197   */\n      dup2\n        /* \"#utility.yul\":17188:17218   */\n      gt\n        /* \"#utility.yul\":17185:17302   */\n      iszero\n      tag_510\n      jumpi\n        /* \"#utility.yul\":17221:17300   */\n      tag_511\n      tag_273\n      jump\t// in\n    tag_511:\n        /* \"#utility.yul\":17185:17302   */\n    tag_510:\n        /* \"#utility.yul\":17326:17400   */\n      tag_512\n        /* \"#utility.yul\":17392:17399   */\n      dup5\n        /* \"#utility.yul\":17383:17389   */\n      dup3\n        /* \"#utility.yul\":17372:17381   */\n      dup6\n        /* \"#utility.yul\":17368:17390   */\n      add\n        /* \"#utility.yul\":17326:17400   */\n      tag_314\n      jump\t// in\n    tag_512:\n        /* \"#utility.yul\":17316:17400   */\n      swap2\n      pop\n        /* \"#utility.yul\":17119:17410   */\n      pop\n        /* \"#utility.yul\":16893:17417   */\n      swap3\n      swap2\n      pop\n      pop\n      jump\t// out\n        /* \"#utility.yul\":17423:17603   */\n    tag_315:\n        /* \"#utility.yul\":17471:17548   */\n      0x4e487b7100000000000000000000000000000000000000000000000000000000\n        /* \"#utility.yul\":17468:17469   */\n      0x00\n        /* \"#utility.yul\":17461:17549   */\n      mstore\n        /* \"#utility.yul\":17568:17572   */\n      0x22\n        /* \"#utility.yul\":17565:17566   */\n      0x04\n        /* \"#utility.yul\":17558:17573   */\n      mstore\n        /* \"#utility.yul\":17592:17596   */\n      0x24\n        /* \"#utility.yul\":17589:17590   */\n      0x00\n        /* \"#utility.yul\":17582:17597   */\n      revert\n        /* \"#utility.yul\":17609:17929   */\n    tag_106:\n        /* \"#utility.yul\":17653:17659   */\n      0x00\n        /* \"#utility.yul\":17690:17691   */\n      0x02\n        /* \"#utility.yul\":17684:17688   */\n      dup3\n        /* \"#utility.yul\":17680:17692   */\n      div\n        /* \"#utility.yul\":17670:17692   */\n      swap1\n      pop\n        /* \"#utility.yul\":17737:17738   */\n      0x01\n        /* \"#utility.yul\":17731:17735   */\n      dup3\n        /* \"#utility.yul\":17727:17739   */\n      and\n        /* \"#utility.yul\":17758:17776   */\n      dup1\n        /* \"#utility.yul\":17748:17829   */\n      tag_515\n      jumpi\n        /* \"#utility.yul\":17814:17818   */\n      0x7f\n        /* \"#utility.yul\":17806:17812   */\n      dup3\n        /* \"#utility.yul\":17802:17819   */\n      and\n        /* \"#utility.yul\":17792:17819   */\n      swap2\n      pop\n        /* \"#utility.yul\":17748:17829   */\n    tag_515:\n        /* \"#utility.yul\":17876:17878   */\n      0x20\n        /* \"#utility.yul\":17868:17874   */\n      dup3\n        /* \"#utility.yul\":17865:17879   */\n      lt\n        /* \"#utility.yul\":17845:17863   */\n      dup2\n        /* \"#utility.yul\":17842:17880   */\n      sub\n        /* \"#utility.yul\":17839:17923   */\n      tag_516\n      jumpi\n        /* \"#utility.yul\":17895:17913   */\n      tag_517\n      tag_315\n      jump\t// in\n    tag_517:\n        /* \"#utility.yul\":17839:17923   */\n    tag_516:\n        /* \"#utility.yul\":17660:17929   */\n      pop\n        /* \"#utility.yul\":17609:17929   */\n      swap2\n      swap1\n      pop\n      jump\t// out\n        /* \"#utility.yul\":17935:18076   */\n    tag_316:\n        /* \"#utility.yul\":17984:17988   */\n      0x00\n        /* \"#utility.yul\":18007:18010   */\n      dup2\n        /* \"#utility.yul\":17999:18010   */\n      swap1\n      pop\n        /* \"#utility.yul\":18030:18033   */\n      dup2\n        /* \"#utility.yul\":18027:18028   */\n      0x00\n        /* \"#utility.yul\":18020:18034   */\n      mstore\n        /* \"#utility.yul\":18064:18068   */\n      0x20\n        /* \"#utility.yul\":18061:18062   */\n      0x00\n        /* \"#utility.yul\":18051:18069   */\n      keccak256\n        /* \"#utility.yul\":18043:18069   */\n      swap1\n      pop\n        /* \"#utility.yul\":17935:18076   */\n      swap2\n      swap1\n      pop\n      jump\t// out\n        /* \"#utility.yul\":18082:18175   */\n    tag_317:\n        /* \"#utility.yul\":18119:18125   */\n      0x00\n        /* \"#utility.yul\":18166:18168   */\n      0x20\n        /* \"#utility.yul\":18161:18163   */\n      0x1f\n        /* \"#utility.yul\":18154:18159   */\n      dup4\n        /* \"#utility.yul\":18150:18164   */\n      add\n        /* \"#utility.yul\":18146:18169   */\n      div\n        /* \"#utility.yul\":18136:18169   */\n      swap1\n      pop\n        /* \"#utility.yul\":18082:18175   */\n      swap2\n      swap1\n      pop\n      jump\t// out\n        /* \"#utility.yul\":18181:18288   */\n    tag_318:\n        /* \"#utility.yul\":18225:18233   */\n      0x00\n        /* \"#utility.yul\":18275:18280   */\n      dup3\n        /* \"#utility.yul\":18269:18273   */\n      dup3\n        /* \"#utility.yul\":18265:18281   */\n      shl\n        /* \"#utility.yul\":18244:18281   */\n      swap1\n      pop\n        /* \"#utility.yul\":18181:18288   */\n      swap3\n      swap2\n      pop\n      pop\n      jump\t// out\n        /* \"#utility.yul\":18294:18687   */\n    tag_319:\n        /* \"#utility.yul\":18363:18369   */\n      0x00\n        /* \"#utility.yul\":18413:18414   */\n      0x08\n        /* \"#utility.yul\":18401:18411   */\n      dup4\n        /* \"#utility.yul\":18397:18415   */\n      mul\n        /* \"#utility.yul\":18436:18533   */\n      tag_522\n        /* \"#utility.yul\":18466:18532   */\n      0xffffffffffffffffffffffffffffffffffffffffffffffffffffffffffffffff\n        /* \"#utility.yul\":18455:18464   */\n      dup3\n        /* \"#utility.yul\":18436:18533   */\n      tag_318\n      jump\t// in\n    tag_522:\n        /* \"#utility.yul\":18554:18593   */\n      tag_523\n        /* \"#utility.yul\":18584:18592   */\n      dup7\n        /* \"#utility.yul\":18573:18582   */\n      dup4\n        /* \"#utility.yul\":18554:18593   */\n      tag_318\n      jump\t// in\n    tag_523:\n        /* \"#utility.yul\":18542:18593   */\n      swap6\n      pop\n        /* \"#utility.yul\":18626:18630   */\n      dup1\n        /* \"#utility.yul\":18622:18631   */\n      not\n        /* \"#utility.yul\":18615:18620   */\n      dup5\n        /* \"#utility.yul\":18611:18632   */\n      and\n        /* \"#utility.yul\":18602:18632   */\n      swap4\n      pop\n        /* \"#utility.yul\":18675:18679   */\n      dup1\n        /* \"#utility.yul\":18665:18673   */\n      dup7\n        /* \"#utility.yul\":18661:18680   */\n      and\n        /* \"#utility.yul\":18654:18659   */\n      dup5\n        /* \"#utility.yul\":18651:18681   */\n      or\n        /* \"#utility.yul\":18641:18681   */\n      swap3\n      pop\n        /* \"#utility.yul\":18370:18687   */\n      pop\n      pop\n        /* \"#utility.yul\":18294:18687   */\n      swap4\n      swap3\n      pop\n      pop\n      pop\n      jump\t// out\n        /* \"#utility.yul\":18693:18753   */\n    tag_320:\n        /* \"#utility.yul\":18721:18724   */\n      0x00\n        /* \"#utility.yul\":18742:18747   */\n      dup2\n        /* \"#utility.yul\":18735:18747   */\n      swap1\n      pop\n        /* \"#utility.yul\":18693:18753   */\n      swap2\n      swap1\n      pop\n      jump\t// out\n        /* \"#utility.yul\":18759:18901   */\n    tag_321:\n        /* \"#utility.yul\":18809:18818   */\n      0x00\n        /* \"#utility.yul\":18842:18895   */\n      tag_526\n        /* \"#utility.yul\":18860:18894   */\n      tag_527\n        /* \"#utility.yul\":18869:18893   */\n      tag_528\n        /* \"#utility.yul\":18887:18892   */\n      dup5\n        /* \"#utility.yul\":18869:18893   */\n      tag_278\n      jump\t// in\n    tag_528:\n        /* \"#utility.yul\":18860:18894   */\n      tag_320\n      jump\t// in\n    tag_527:\n        /* \"#utility.yul\":18842:18895   */\n      tag_278\n      jump\t// in\n    tag_526:\n        /* \"#utility.yul\":18829:18895   */\n      swap1\n      pop\n        /* \"#utility.yul\":18759:18901   */\n      swap2\n      swap1\n      pop\n      jump\t// out\n        /* \"#utility.yul\":18907:18982   */\n    tag_322:\n        /* \"#utility.yul\":18950:18953   */\n      0x00\n        /* \"#utility.yul\":18971:18976   */\n      dup2\n        /* \"#utility.yul\":18964:18976   */\n      swap1\n      pop\n        /* \"#utility.yul\":18907:18982   */\n      swap2\n      swap1\n      pop\n      jump\t// out\n        /* \"#utility.yul\":18988:19257   */\n    tag_323:\n        /* \"#utility.yul\":19098:19137   */\n      tag_531\n        /* \"#utility.yul\":19129:19136   */\n      dup4\n        /* \"#utility.yul\":19098:19137   */\n      tag_321\n      jump\t// in\n    tag_531:\n        /* \"#utility.yul\":19159:19250   */\n      tag_532\n        /* \"#utility.yul\":19208:19249   */\n      tag_533\n        /* \"#utility.yul\":19232:19248   */\n      dup3\n        /* \"#utility.yul\":19208:19249   */\n      tag_322\n      jump\t// in\n    tag_533:\n        /* \"#utility.yul\":19200:19206   */\n      dup5\n        /* \"#utility.yul\":19193:19197   */\n      dup5\n        /* \"#utility.yul\":19187:19198   */\n      sload\n        /* \"#utility.yul\":19159:19250   */\n      tag_319\n      jump\t// in\n    tag_532:\n        /* \"#utility.yul\":19153:19157   */\n      dup3\n        /* \"#utility.yul\":19146:19251   */\n      sstore\n        /* \"#utility.yul\":19064:19257   */\n      pop\n        /* \"#utility.yul\":18988:19257   */\n      pop\n      pop\n      pop\n      jump\t// out\n        /* \"#utility.yul\":19263:19336   */\n    tag_324:\n        /* \"#utility.yul\":19308:19311   */\n      0x00\n        /* \"#utility.yul\":19263:19336   */\n      swap1\n      jump\t// out\n        /* \"#utility.yul\":19342:19531   */\n    tag_325:\n        /* \"#utility.yul\":19419:19451   */\n      tag_536\n      tag_324\n      jump\t// in\n    tag_536:\n        /* \"#utility.yul\":19460:19525   */\n      tag_537\n        /* \"#utility.yul\":19518:19524   */\n      dup2\n        /* \"#utility.yul\":19510:19516   */\n      dup5\n        /* \"#utility.yul\":19504:19508   */\n      dup5\n        /* \"#utility.yul\":19460:19525   */\n      tag_323\n      jump\t// in\n    tag_537:\n        /* \"#utility.yul\":19395:19531   */\n      pop\n        /* \"#utility.yul\":19342:19531   */\n      pop\n      pop\n      jump\t// out\n        /* \"#utility.yul\":19537:19723   */\n    tag_326:\n        /* \"#utility.yul\":19597:19717   */\n    tag_539:\n        /* \"#utility.yul\":19614:19617   */\n      dup2\n        /* \"#utility.yul\":19607:19612   */\n      dup2\n        /* \"#utility.yul\":19604:19618   */\n      lt\n        /* \"#utility.yul\":19597:19717   */\n      iszero\n      tag_541\n      jumpi\n        /* \"#utility.yul\":19668:19707   */\n      tag_542\n        /* \"#utility.yul\":19705:19706   */\n      0x00\n        /* \"#utility.yul\":19698:19703   */\n      dup3\n        /* \"#utility.yul\":19668:19707   */\n      tag_325\n      jump\t// in\n    tag_542:\n        /* \"#utility.yul\":19641:19642   */\n      0x01\n        /* \"#utility.yul\":19634:19639   */\n      dup2\n        /* \"#utility.yul\":19630:19643   */\n      add\n        /* \"#utility.yul\":19621:19643   */\n      swap1\n      pop\n        /* \"#utility.yul\":19597:19717   */\n      jump(tag_539)\n    tag_541:\n        /* \"#utility.yul\":19537:19723   */\n      pop\n      pop\n      jump\t// out\n        /* \"#utility.yul\":19729:20272   */\n    tag_327:\n        /* \"#utility.yul\":19830:19832   */\n      0x1f\n        /* \"#utility.yul\":19825:19828   */\n      dup3\n        /* \"#utility.yul\":19822:19833   */\n      gt\n        /* \"#utility.yul\":19819:20265   */\n      iszero\n      tag_544\n      jumpi\n        /* \"#utility.yul\":19864:19902   */\n      tag_545\n        /* \"#utility.yul\":19896:19901   */\n      dup2\n        /* \"#utility.yul\":19864:19902   */\n      tag_316\n      jump\t// in\n    tag_545:\n        /* \"#utility.yul\":19948:19977   */\n      tag_546\n        /* \"#utility.yul\":19966:19976   */\n      dup5\n        /* \"#utility.yul\":19948:19977   */\n      tag_317\n      jump\t// in\n    tag_546:\n        /* \"#utility.yul\":19938:19946   */\n      dup2\n        /* \"#utility.yul\":19934:19978   */\n      add\n        /* \"#utility.yul\":20131:20133   */\n      0x20\n        /* \"#utility.yul\":20119:20129   */\n      dup6\n        /* \"#utility.yul\":20116:20134   */\n      lt\n        /* \"#utility.yul\":20113:20162   */\n      iszero\n      tag_547\n      jumpi\n        /* \"#utility.yul\":20152:20160   */\n      dup2\n        /* \"#utility.yul\":20137:20160   */\n      swap1\n      pop\n        /* \"#utility.yul\":20113:20162   */\n    tag_547:\n        /* \"#utility.yul\":20175:20255   */\n      tag_548\n        /* \"#utility.yul\":20231:20253   */\n      tag_549\n        /* \"#utility.yul\":20249:20252   */\n      dup6\n        /* \"#utility.yul\":20231:20253   */\n      tag_317\n      jump\t// in\n    tag_549:\n        /* \"#utility.yul\":20221:20229   */\n      dup4\n        /* \"#utility.yul\":20217:20254   */\n      add\n        /* \"#utility.yul\":20204:20215   */\n      dup3\n        /* \"#utility.yul\":20175:20255   */\n      tag_326\n      jump\t// in\n    tag_548:\n        /* \"#utility.yul\":19834:20265   */\n      pop\n      pop\n        /* \"#utility.yul\":19819:20265   */\n    tag_544:\n        /* \"#utility.yul\":19729:20272   */\n      pop\n      pop\n      pop\n      jump\t// out\n        /* \"#utility.yul\":20278:20395   */\n    tag_328:\n        /* \"#utility.yul\":20332:20340   */\n      0x00\n        /* \"#utility.yul\":20382:20387   */\n      dup3\n        /* \"#utility.yul\":20376:20380   */\n      dup3\n        /* \"#utility.yul\":20372:20388   */\n      shr\n        /* \"#utility.yul\":20351:20388   */\n      swap1\n      pop\n        /* \"#utility.yul\":20278:20395   */\n      swap3\n      swap2\n      pop\n      pop\n      jump\t// out\n        /* \"#utility.yul\":20401:20570   */\n    tag_329:\n        /* \"#utility.yul\":20445:20451   */\n      0x00\n        /* \"#utility.yul\":20478:20529   */\n      tag_552\n        /* \"#utility.yul\":20526:20527   */\n      0x00\n        /* \"#utility.yul\":20522:20528   */\n      not\n        /* \"#utility.yul\":20514:20519   */\n      dup5\n        /* \"#utility.yul\":20511:20512   */\n      0x08\n        /* \"#utility.yul\":20507:20520   */\n      mul\n        /* \"#utility.yul\":20478:20529   */\n      tag_328\n      jump\t// in\n    tag_552:\n        /* \"#utility.yul\":20474:20530   */\n      not\n        /* \"#utility.yul\":20559:20563   */\n      dup1\n        /* \"#utility.yul\":20553:20557   */\n      dup4\n        /* \"#utility.yul\":20549:20564   */\n      and\n        /* \"#utility.yul\":20539:20564   */\n      swap2\n      pop\n        /* \"#utility.yul\":20452:20570   */\n      pop\n        /* \"#utility.yul\":20401:20570   */\n      swap3\n      swap2\n      pop\n      pop\n      jump\t// out\n        /* \"#utility.yul\":20575:20870   */\n    tag_330:\n        /* \"#utility.yul\":20651:20655   */\n      0x00\n        /* \"#utility.yul\":20797:20826   */\n      tag_554\n        /* \"#utility.yul\":20822:20825   */\n      dup4\n        /* \"#utility.yul\":20816:20820   */\n      dup4\n        /* \"#utility.yul\":20797:20826   */\n      tag_329\n      jump\t// in\n    tag_554:\n        /* \"#utility.yul\":20789:20826   */\n      swap2\n      pop\n        /* \"#utility.yul\":20859:20862   */\n      dup3\n        /* \"#utility.yul\":20856:20857   */\n      0x02\n        /* \"#utility.yul\":20852:20863   */\n      mul\n        /* \"#utility.yul\":20846:20850   */\n      dup3\n        /* \"#utility.yul\":20843:20864   */\n      or\n        /* \"#utility.yul\":20835:20864   */\n      swap1\n      pop\n        /* \"#utility.yul\":20575:20870   */\n      swap3\n      swap2\n      pop\n      pop\n      jump\t// out\n        /* \"#utility.yul\":20875:22270   */\n    tag_85:\n        /* \"#utility.yul\":20992:21029   */\n      tag_556\n        /* \"#utility.yul\":21025:21028   */\n      dup3\n        /* \"#utility.yul\":20992:21029   */\n      tag_288\n      jump\t// in\n    tag_556:\n        /* \"#utility.yul\":21094:21112   */\n      0xffffffffffffffff\n        /* \"#utility.yul\":21086:21092   */\n      dup2\n        /* \"#utility.yul\":21083:21113   */\n      gt\n        /* \"#utility.yul\":21080:21136   */\n      iszero\n      tag_557\n      jumpi\n        /* \"#utility.yul\":21116:21134   */\n      tag_558\n      tag_93\n      jump\t// in\n    tag_558:\n        /* \"#utility.yul\":21080:21136   */\n    tag_557:\n        /* \"#utility.yul\":21160:21198   */\n      tag_559\n        /* \"#utility.yul\":21192:21196   */\n      dup3\n        /* \"#utility.yul\":21186:21197   */\n      sload\n        /* \"#utility.yul\":21160:21198   */\n      tag_106\n      jump\t// in\n    tag_559:\n        /* \"#utility.yul\":21245:21312   */\n      tag_560\n        /* \"#utility.yul\":21305:21311   */\n      dup3\n        /* \"#utility.yul\":21297:21303   */\n      dup3\n        /* \"#utility.yul\":21291:21295   */\n      dup6\n        /* \"#utility.yul\":21245:21312   */\n      tag_327\n      jump\t// in\n    tag_560:\n        /* \"#utility.yul\":21339:21340   */\n      0x00\n        /* \"#utility.yul\":21363:21367   */\n      0x20\n        /* \"#utility.yul\":21350:21367   */\n      swap1\n      pop\n        /* \"#utility.yul\":21395:21397   */\n      0x1f\n        /* \"#utility.yul\":21387:21393   */\n      dup4\n        /* \"#utility.yul\":21384:21398   */\n      gt\n        /* \"#utility.yul\":21412:21413   */\n      0x01\n        /* \"#utility.yul\":21407:22025   */\n      dup2\n      eq\n      tag_562\n      jumpi\n        /* \"#utility.yul\":22069:22070   */\n      0x00\n        /* \"#utility.yul\":22086:22092   */\n      dup5\n        /* \"#utility.yul\":22083:22160   */\n      iszero\n      tag_563\n      jumpi\n        /* \"#utility.yul\":22135:22144   */\n      dup3\n        /* \"#utility.yul\":22130:22133   */\n      dup8\n        /* \"#utility.yul\":22126:22145   */\n      add\n        /* \"#utility.yul\":22120:22146   */\n      mload\n        /* \"#utility.yul\":22111:22146   */\n      swap1\n      pop\n        /* \"#utility.yul\":22083:22160   */\n    tag_563:\n        /* \"#utility.yul\":22186:22253   */\n      tag_564\n        /* \"#utility.yul\":22246:22252   */\n      dup6\n        /* \"#utility.yul\":22239:22244   */\n      dup3\n        /* \"#utility.yul\":22186:22253   */\n      tag_330\n      jump\t// in\n    tag_564:\n        /* \"#utility.yul\":22180:22184   */\n      dup7\n        /* \"#utility.yul\":22173:22254   */\n      sstore\n        /* \"#utility.yul\":22042:22264   */\n      pop\n        /* \"#utility.yul\":21377:22264   */\n      jump(tag_561)\n        /* \"#utility.yul\":21407:22025   */\n    tag_562:\n        /* \"#utility.yul\":21459:21463   */\n      0x1f\n        /* \"#utility.yul\":21455:21464   */\n      not\n        /* \"#utility.yul\":21447:21453   */\n      dup5\n        /* \"#utility.yul\":21443:21465   */\n      and\n        /* \"#utility.yul\":21493:21530   */\n      tag_565\n        /* \"#utility.yul\":21525:21529   */\n      dup7\n        /* \"#utility.yul\":21493:21530   */\n      tag_316\n      jump\t// in\n    tag_565:\n        /* \"#utility.yul\":21552:21553   */\n      0x00\n        /* \"#utility.yul\":21566:21774   */\n    tag_566:\n        /* \"#utility.yul\":21580:21587   */\n      dup3\n        /* \"#utility.yul\":21577:21578   */\n      dup2\n        /* \"#utility.yul\":21574:21588   */\n      lt\n        /* \"#utility.yul\":21566:21774   */\n      iszero\n      tag_568\n      jumpi\n        /* \"#utility.yul\":21659:21668   */\n      dup5\n        /* \"#utility.yul\":21654:21657   */\n      dup10\n        /* \"#utility.yul\":21650:21669   */\n      add\n        /* \"#utility.yul\":21644:21670   */\n      mload\n        /* \"#utility.yul\":21636:21642   */\n      dup3\n        /* \"#utility.yul\":21629:21671   */\n      sstore\n        /* \"#utility.yul\":21710:21711   */\n      0x01\n        /* \"#utility.yul\":21702:21708   */\n      dup3\n        /* \"#utility.yul\":21698:21712   */\n      add\n        /* \"#utility.yul\":21688:21712   */\n      swap2\n      pop\n        /* \"#utility.yul\":21757:21759   */\n      0x20\n        /* \"#utility.yul\":21746:21755   */\n      dup6\n        /* \"#utility.yul\":21742:21760   */\n      add\n        /* \"#utility.yul\":21729:21760   */\n      swap5\n      pop\n        /* \"#utility.yul\":21603:21607   */\n      0x20\n        /* \"#utility.yul\":21600:21601   */\n      dup2\n        /* \"#utility.yul\":21596:21608   */\n      add\n        /* \"#utility.yul\":21591:21608   */\n      swap1\n      pop\n        /* \"#utility.yul\":21566:21774   */\n      jump(tag_566)\n    tag_568:\n        /* \"#utility.yul\":21802:21808   */\n      dup7\n        /* \"#utility.yul\":21793:21800   */\n      dup4\n        /* \"#utility.yul\":21790:21809   */\n      lt\n        /* \"#utility.yul\":21787:21966   */\n      iszero\n      tag_569\n      jumpi\n        /* \"#utility.yul\":21860:21869   */\n      dup5\n        /* \"#utility.yul\":21855:21858   */\n      dup10\n        /* \"#utility.yul\":21851:21870   */\n      add\n        /* \"#utility.yul\":21845:21871   */\n      mload\n        /* \"#utility.yul\":21903:21951   */\n      tag_570\n        /* \"#utility.yul\":21945:21949   */\n      0x1f\n        /* \"#utility.yul\":21937:21943   */\n      dup10\n        /* \"#utility.yul\":21933:21950   */\n      and\n        /* \"#utility.yul\":21922:21931   */\n      dup3\n        /* \"#utility.yul\":21903:21951   */\n      tag_329\n      jump\t// in\n    tag_570:\n        /* \"#utility.yul\":21895:21901   */\n      dup4\n        /* \"#utility.yul\":21888:21952   */\n      sstore\n        /* \"#utility.yul\":21810:21966   */\n      pop\n        /* \"#utility.yul\":21787:21966   */\n    tag_569:\n        /* \"#utility.yul\":22012:22013   */\n      0x01\n        /* \"#utility.yul\":22008:22009   */\n      0x02\n        /* \"#utility.yul\":22000:22006   */\n      dup9\n        /* \"#utility.yul\":21996:22010   */\n      mul\n        /* \"#utility.yul\":21992:22014   */\n      add\n        /* \"#utility.yul\":21986:21990   */\n      dup9\n        /* \"#utility.yul\":21979:22015   */\n      sstore\n        /* \"#utility.yul\":21414:22025   */\n      pop\n      pop\n      pop\n        /* \"#utility.yul\":21377:22264   */\n    tag_561:\n      pop\n        /* \"#utility.yul\":20967:22270   */\n      pop\n      pop\n      pop\n        /* \"#utility.yul\":20875:22270   */\n      pop\n      pop\n      jump\t// out\n        /* \"#utility.yul\":22276:22900   */\n    tag_89:\n        /* \"#utility.yul\":22465:22469   */\n      0x00\n        /* \"#utility.yul\":22503:22505   */\n      0x60\n        /* \"#utility.yul\":22492:22501   */\n      dup3\n        /* \"#utility.yul\":22488:22506   */\n      add\n        /* \"#utility.yul\":22480:22506   */\n      swap1\n      pop\n        /* \"#utility.yul\":22516:22587   */\n      tag_572\n        /* \"#utility.yul\":22584:22585   */\n      0x00\n        /* \"#utility.yul\":22573:22582   */\n      dup4\n        /* \"#utility.yul\":22569:22586   */\n      add\n        /* \"#utility.yul\":22560:22566   */\n      dup7\n        /* \"#utility.yul\":22516:22587   */\n      tag_306\n      jump\t// in\n    tag_572:\n        /* \"#utility.yul\":22634:22643   */\n      dup2\n        /* \"#utility.yul\":22628:22632   */\n      dup2\n        /* \"#utility.yul\":22624:22644   */\n      sub\n        /* \"#utility.yul\":22619:22621   */\n      0x20\n        /* \"#utility.yul\":22608:22617   */\n      dup4\n        /* \"#utility.yul\":22604:22622   */\n      add\n        /* \"#utility.yul\":22597:22645   */\n      mstore\n        /* \"#utility.yul\":22662:22740   */\n      tag_573\n        /* \"#utility.yul\":22735:22739   */\n      dup2\n        /* \"#utility.yul\":22726:22732   */\n      dup6\n        /* \"#utility.yul\":22662:22740   */\n      tag_307\n      jump\t// in\n    tag_573:\n        /* \"#utility.yul\":22654:22740   */\n      swap1\n      pop\n        /* \"#utility.yul\":22787:22796   */\n      dup2\n        /* \"#utility.yul\":22781:22785   */\n      dup2\n        /* \"#utility.yul\":22777:22797   */\n      sub\n        /* \"#utility.yul\":22772:22774   */\n      0x40\n        /* \"#utility.yul\":22761:22770   */\n      dup4\n        /* \"#utility.yul\":22757:22775   */\n      add\n        /* \"#utility.yul\":22750:22798   */\n      mstore\n        /* \"#utility.yul\":22815:22893   */\n      tag_574\n        /* \"#utility.yul\":22888:22892   */\n      dup2\n        /* \"#utility.yul\":22879:22885   */\n      dup5\n        /* \"#utility.yul\":22815:22893   */\n      tag_307\n      jump\t// in\n    tag_574:\n        /* \"#utility.yul\":22807:22893   */\n      swap1\n      pop\n        /* \"#utility.yul\":22276:22900   */\n      swap5\n      swap4\n      pop\n      pop\n      pop\n      pop\n      jump\t// out\n        /* \"#utility.yul\":22906:23086   */\n    tag_103:\n        /* \"#utility.yul\":22954:23031   */\n      0x4e487b7100000000000000000000000000000000000000000000000000000000\n        /* \"#utility.yul\":22951:22952   */\n      0x00\n        /* \"#utility.yul\":22944:23032   */\n      mstore\n        /* \"#utility.yul\":23051:23055   */\n      0x32\n        /* \"#utility.yul\":23048:23049   */\n      0x04\n        /* \"#utility.yul\":23041:23056   */\n      mstore\n        /* \"#utility.yul\":23075:23079   */\n      0x24\n        /* \"#utility.yul\":23072:23073   */\n      0x00\n        /* \"#utility.yul\":23065:23080   */\n      revert\n        /* \"#utility.yul\":23092:23261   */\n    tag_331:\n        /* \"#utility.yul\":23232:23253   */\n      0x546f6b656e206e6f7420737570706f7274656400000000000000000000000000\n        /* \"#utility.yul\":23228:23229   */\n      0x00\n        /* \"#utility.yul\":23220:23226   */\n      dup3\n        /* \"#utility.yul\":23216:23230   */\n      add\n        /* \"#utility.yul\":23209:23254   */\n      mstore\n        /* \"#utility.yul\":23092:23261   */\n      pop\n      jump\t// out\n        /* \"#utility.yul\":23267:23633   */\n    tag_332:\n        /* \"#utility.yul\":23409:23412   */\n      0x00\n        /* \"#utility.yul\":23430:23497   */\n      tag_578\n        /* \"#utility.yul\":23494:23496   */\n      0x13\n        /* \"#utility.yul\":23489:23492   */\n      dup4\n        /* \"#utility.yul\":23430:23497   */\n      tag_268\n      jump\t// in\n    tag_578:\n        /* \"#utility.yul\":23423:23497   */\n      swap2\n      pop\n        /* \"#utility.yul\":23506:23599   */\n      tag_579\n        /* \"#utility.yul\":23595:23598   */\n      dup3\n        /* \"#utility.yul\":23506:23599   */\n      tag_331\n      jump\t// in\n    tag_579:\n        /* \"#utility.yul\":23624:23626   */\n      0x20\n        /* \"#utility.yul\":23619:23622   */\n      dup3\n        /* \"#utility.yul\":23615:23627   */\n      add\n        /* \"#utility.yul\":23608:23627   */\n      swap1\n      pop\n        /* \"#utility.yul\":23267:23633   */\n      swap2\n      swap1\n      pop\n      jump\t// out\n        /* \"#utility.yul\":23639:24058   */\n    tag_121:\n        /* \"#utility.yul\":23805:23809   */\n      0x00\n        /* \"#utility.yul\":23843:23845   */\n      0x20\n        /* \"#utility.yul\":23832:23841   */\n      dup3\n        /* \"#utility.yul\":23828:23846   */\n      add\n        /* \"#utility.yul\":23820:23846   */\n      swap1\n      pop\n        /* \"#utility.yul\":23892:23901   */\n      dup2\n        /* \"#utility.yul\":23886:23890   */\n      dup2\n        /* \"#utility.yul\":23882:23902   */\n      sub\n        /* \"#utility.yul\":23878:23879   */\n      0x00\n        /* \"#utility.yul\":23867:23876   */\n      dup4\n        /* \"#utility.yul\":23863:23880   */\n      add\n        /* \"#utility.yul\":23856:23903   */\n      mstore\n        /* \"#utility.yul\":23920:24051   */\n      tag_581\n        /* \"#utility.yul\":24046:24050   */\n      dup2\n        /* \"#utility.yul\":23920:24051   */\n      tag_332\n      jump\t// in\n    tag_581:\n        /* \"#utility.yul\":23912:24051   */\n      swap1\n      pop\n        /* \"#utility.yul\":23639:24058   */\n      swap2\n      swap1\n      pop\n      jump\t// out\n        /* \"#utility.yul\":24064:24243   */\n    tag_333:\n        /* \"#utility.yul\":24204:24235   */\n      0x416d6f756e74206d7573742062652067726561746572207468616e2030000000\n        /* \"#utility.yul\":24200:24201   */\n      0x00\n        /* \"#utility.yul\":24192:24198   */\n      dup3\n        /* \"#utility.yul\":24188:24202   */\n      add\n        /* \"#utility.yul\":24181:24236   */\n      mstore\n        /* \"#utility.yul\":24064:24243   */\n      pop\n      jump\t// out\n        /* \"#utility.yul\":24249:24615   */\n    tag_334:\n        /* \"#utility.yul\":24391:24394   */\n      0x00\n        /* \"#utility.yul\":24412:24479   */\n      tag_584\n        /* \"#utility.yul\":24476:24478   */\n      0x1d\n        /* \"#utility.yul\":24471:24474   */\n      dup4\n        /* \"#utility.yul\":24412:24479   */\n      tag_268\n      jump\t// in\n    tag_584:\n        /* \"#utility.yul\":24405:24479   */\n      swap2\n      pop\n        /* \"#utility.yul\":24488:24581   */\n      tag_585\n        /* \"#utility.yul\":24577:24580   */\n      dup3\n        /* \"#utility.yul\":24488:24581   */\n      tag_333\n      jump\t// in\n    tag_585:\n        /* \"#utility.yul\":24606:24608   */\n      0x20\n        /* \"#utility.yul\":24601:24604   */\n      dup3\n        /* \"#utility.yul\":24597:24609   */\n      add\n        /* \"#utility.yul\":24590:24609   */\n      swap1\n      pop\n        /* \"#utility.yul\":24249:24615   */\n      swap2\n      swap1\n      pop\n      jump\t// out\n        /* \"#utility.yul\":24621:25040   */\n    tag_125:\n        /* \"#utility.yul\":24787:24791   */\n      0x00\n        /* \"#utility.yul\":24825:24827   */\n      0x20\n        /* \"#utility.yul\":24814:24823   */\n      dup3\n        /* \"#utility.yul\":24810:24828   */\n      add\n        /* \"#utility.yul\":24802:24828   */\n      swap1\n      pop\n        /* \"#utility.yul\":24874:24883   */\n      dup2\n        /* \"#utility.yul\":24868:24872   */\n      dup2\n        /* \"#utility.yul\":24864:24884   */\n      sub\n        /* \"#utility.yul\":24860:24861   */\n      0x00\n        /* \"#utility.yul\":24849:24858   */\n      dup4\n        /* \"#utility.yul\":24845:24862   */\n      add\n        /* \"#utility.yul\":24838:24885   */\n      mstore\n        /* \"#utility.yul\":24902:25033   */\n      tag_587\n        /* \"#utility.yul\":25028:25032   */\n      dup2\n        /* \"#utility.yul\":24902:25033   */\n      tag_334\n      jump\t// in\n    tag_587:\n        /* \"#utility.yul\":24894:25033   */\n      swap1\n      pop\n        /* \"#utility.yul\":24621:25040   */\n      swap2\n      swap1\n      pop\n      jump\t// out\n        /* \"#utility.yul\":25046:25223   */\n    tag_335:\n        /* \"#utility.yul\":25186:25215   */\n      0x496e636f727265637420457468657220616d6f756e742073656e740000000000\n        /* \"#utility.yul\":25182:25183   */\n      0x00\n        /* \"#utility.yul\":25174:25180   */\n      dup3\n        /* \"#utility.yul\":25170:25184   */\n      add\n        /* \"#utility.yul\":25163:25216   */\n      mstore\n        /* \"#utility.yul\":25046:25223   */\n      pop\n      jump\t// out\n        /* \"#utility.yul\":25229:25595   */\n    tag_336:\n        /* \"#utility.yul\":25371:25374   */\n      0x00\n        /* \"#utility.yul\":25392:25459   */\n      tag_590\n        /* \"#utility.yul\":25456:25458   */\n      0x1b\n        /* \"#utility.yul\":25451:25454   */\n      dup4\n        /* \"#utility.yul\":25392:25459   */\n      tag_268\n      jump\t// in\n    tag_590:\n        /* \"#utility.yul\":25385:25459   */\n      swap2\n      pop\n        /* \"#utility.yul\":25468:25561   */\n      tag_591\n        /* \"#utility.yul\":25557:25560   */\n      dup3\n        /* \"#utility.yul\":25468:25561   */\n      tag_335\n      jump\t// in\n    tag_591:\n        /* \"#utility.yul\":25586:25588   */\n      0x20\n        /* \"#utility.yul\":25581:25584   */\n      dup3\n        /* \"#utility.yul\":25577:25589   */\n      add\n        /* \"#utility.yul\":25570:25589   */\n      swap1\n      pop\n        /* \"#utility.yul\":25229:25595   */\n      swap2\n      swap1\n      pop\n      jump\t// out\n        /* \"#utility.yul\":25601:26020   */\n    tag_140:\n        /* \"#utility.yul\":25767:25771   */\n      0x00\n        /* \"#utility.yul\":25805:25807   */\n      0x20\n        /* \"#utility.yul\":25794:25803   */\n      dup3\n        /* \"#utility.yul\":25790:25808   */\n      add\n        /* \"#utility.yul\":25782:25808   */\n      swap1\n      pop\n        /* \"#utility.yul\":25854:25863   */\n      dup2\n        /* \"#utility.yul\":25848:25852   */\n      dup2\n        /* \"#utility.yul\":25844:25864   */\n      sub\n        /* \"#utility.yul\":25840:25841   */\n      0x00\n        /* \"#utility.yul\":25829:25838   */\n      dup4\n        /* \"#utility.yul\":25825:25842   */\n      add\n        /* \"#utility.yul\":25818:25865   */\n      mstore\n        /* \"#utility.yul\":25882:26013   */\n      tag_593\n        /* \"#utility.yul\":26008:26012   */\n      dup2\n        /* \"#utility.yul\":25882:26013   */\n      tag_336\n      jump\t// in\n    tag_593:\n        /* \"#utility.yul\":25874:26013   */\n      swap1\n      pop\n        /* \"#utility.yul\":25601:26020   */\n      swap2\n      swap1\n      pop\n      jump\t// out\n        /* \"#utility.yul\":26026:26173   */\n    tag_337:\n        /* \"#utility.yul\":26127:26138   */\n      0x00\n        /* \"#utility.yul\":26164:26167   */\n      dup2\n        /* \"#utility.yul\":26149:26167   */\n      swap1\n      pop\n        /* \"#utility.yul\":26026:26173   */\n      swap3\n      swap2\n      pop\n      pop\n      jump\t// out\n        /* \"#utility.yul\":26179:26293   */\n    tag_338:\n      pop\n      jump\t// out\n        /* \"#utility.yul\":26299:26697   */\n    tag_339:\n        /* \"#utility.yul\":26458:26461   */\n      0x00\n        /* \"#utility.yul\":26479:26562   */\n      tag_597\n        /* \"#utility.yul\":26560:26561   */\n      0x00\n        /* \"#utility.yul\":26555:26558   */\n      dup4\n        /* \"#utility.yul\":26479:26562   */\n      tag_337\n      jump\t// in\n    tag_597:\n        /* \"#utility.yul\":26472:26562   */\n      swap2\n      pop\n        /* \"#utility.yul\":26571:26664   */\n      tag_598\n        /* \"#utility.yul\":26660:26663   */\n      dup3\n        /* \"#utility.yul\":26571:26664   */\n      tag_338\n      jump\t// in\n    tag_598:\n        /* \"#utility.yul\":26689:26690   */\n      0x00\n        /* \"#utility.yul\":26684:26687   */\n      dup3\n        /* \"#utility.yul\":26680:26691   */\n      add\n        /* \"#utility.yul\":26673:26691   */\n      swap1\n      pop\n        /* \"#utility.yul\":26299:26697   */\n      swap2\n      swap1\n      pop\n      jump\t// out\n        /* \"#utility.yul\":26703:27082   */\n    tag_142:\n        /* \"#utility.yul\":26887:26890   */\n      0x00\n        /* \"#utility.yul\":26909:27056   */\n      tag_600\n        /* \"#utility.yul\":27052:27055   */\n      dup3\n        /* \"#utility.yul\":26909:27056   */\n      tag_339\n      jump\t// in\n    tag_600:\n        /* \"#utility.yul\":26902:27056   */\n      swap2\n      pop\n        /* \"#utility.yul\":27073:27076   */\n      dup2\n        /* \"#utility.yul\":27066:27076   */\n      swap1\n      pop\n        /* \"#utility.yul\":26703:27082   */\n      swap2\n      swap1\n      pop\n      jump\t// out\n        /* \"#utility.yul\":27088:27320   */\n    tag_340:\n        /* \"#utility.yul\":27228:27262   */\n      0x4661696c6564207470207472616e736665722074686520455468657220746f20\n        /* \"#utility.yul\":27224:27225   */\n      0x00\n        /* \"#utility.yul\":27216:27222   */\n      dup3\n        /* \"#utility.yul\":27212:27226   */\n      add\n        /* \"#utility.yul\":27205:27263   */\n      mstore\n        /* \"#utility.yul\":27297:27312   */\n      0x746f6b656e2063726561746f7200000000000000000000000000000000000000\n        /* \"#utility.yul\":27292:27294   */\n      0x20\n        /* \"#utility.yul\":27284:27290   */\n      dup3\n        /* \"#utility.yul\":27280:27295   */\n      add\n        /* \"#utility.yul\":27273:27313   */\n      mstore\n        /* \"#utility.yul\":27088:27320   */\n      pop\n      jump\t// out\n        /* \"#utility.yul\":27326:27692   */\n    tag_341:\n        /* \"#utility.yul\":27468:27471   */\n      0x00\n        /* \"#utility.yul\":27489:27556   */\n      tag_603\n        /* \"#utility.yul\":27553:27555   */\n      0x2d\n        /* \"#utility.yul\":27548:27551   */\n      dup4\n        /* \"#utility.yul\":27489:27556   */\n      tag_268\n      jump\t// in\n    tag_603:\n        /* \"#utility.yul\":27482:27556   */\n      swap2\n      pop\n        /* \"#utility.yul\":27565:27658   */\n      tag_604\n        /* \"#utility.yul\":27654:27657   */\n      dup3\n        /* \"#utility.yul\":27565:27658   */\n      tag_340\n      jump\t// in\n    tag_604:\n        /* \"#utility.yul\":27683:27685   */\n      0x40\n        /* \"#utility.yul\":27678:27681   */\n      dup3\n        /* \"#utility.yul\":27674:27686   */\n      add\n        /* \"#utility.yul\":27667:27686   */\n      swap1\n      pop\n        /* \"#utility.yul\":27326:27692   */\n      swap2\n      swap1\n      pop\n      jump\t// out\n        /* \"#utility.yul\":27698:28117   */\n    tag_148:\n        /* \"#utility.yul\":27864:27868   */\n      0x00\n        /* \"#utility.yul\":27902:27904   */\n      0x20\n        /* \"#utility.yul\":27891:27900   */\n      dup3\n        /* \"#utility.yul\":27887:27905   */\n      add\n        /* \"#utility.yul\":27879:27905   */\n      swap1\n      pop\n        /* \"#utility.yul\":27951:27960   */\n      dup2\n        /* \"#utility.yul\":27945:27949   */\n      dup2\n        /* \"#utility.yul\":27941:27961   */\n      sub\n        /* \"#utility.yul\":27937:27938   */\n      0x00\n        /* \"#utility.yul\":27926:27935   */\n      dup4\n        /* \"#utility.yul\":27922:27939   */\n      add\n        /* \"#utility.yul\":27915:27962   */\n      mstore\n        /* \"#utility.yul\":27979:28110   */\n      tag_606\n        /* \"#utility.yul\":28105:28109   */\n      dup2\n        /* \"#utility.yul\":27979:28110   */\n      tag_341\n      jump\t// in\n    tag_606:\n        /* \"#utility.yul\":27971:28110   */\n      swap1\n      pop\n        /* \"#utility.yul\":27698:28117   */\n      swap2\n      swap1\n      pop\n      jump\t// out\n        /* \"#utility.yul\":28123:28303   */\n    tag_342:\n        /* \"#utility.yul\":28171:28248   */\n      0x4e487b7100000000000000000000000000000000000000000000000000000000\n        /* \"#utility.yul\":28168:28169   */\n      0x00\n        /* \"#utility.yul\":28161:28249   */\n      mstore\n        /* \"#utility.yul\":28268:28272   */\n      0x11\n        /* \"#utility.yul\":28265:28266   */\n      0x04\n        /* \"#utility.yul\":28258:28273   */\n      mstore\n        /* \"#utility.yul\":28292:28296   */\n      0x24\n        /* \"#utility.yul\":28289:28290   */\n      0x00\n        /* \"#utility.yul\":28282:28297   */\n      revert\n        /* \"#utility.yul\":28309:28719   */\n    tag_150:\n        /* \"#utility.yul\":28349:28356   */\n      0x00\n        /* \"#utility.yul\":28372:28392   */\n      tag_609\n        /* \"#utility.yul\":28390:28391   */\n      dup3\n        /* \"#utility.yul\":28372:28392   */\n      tag_278\n      jump\t// in\n    tag_609:\n        /* \"#utility.yul\":28367:28392   */\n      swap2\n      pop\n        /* \"#utility.yul\":28406:28426   */\n      tag_610\n        /* \"#utility.yul\":28424:28425   */\n      dup4\n        /* \"#utility.yul\":28406:28426   */\n      tag_278\n      jump\t// in\n    tag_610:\n        /* \"#utility.yul\":28401:28426   */\n      swap3\n      pop\n        /* \"#utility.yul\":28461:28462   */\n      dup3\n        /* \"#utility.yul\":28458:28459   */\n      dup3\n        /* \"#utility.yul\":28454:28463   */\n      mul\n        /* \"#utility.yul\":28483:28513   */\n      tag_611\n        /* \"#utility.yul\":28501:28512   */\n      dup2\n        /* \"#utility.yul\":28483:28513   */\n      tag_278\n      jump\t// in\n    tag_611:\n        /* \"#utility.yul\":28472:28513   */\n      swap2\n      pop\n        /* \"#utility.yul\":28662:28663   */\n      dup3\n        /* \"#utility.yul\":28653:28660   */\n      dup3\n        /* \"#utility.yul\":28649:28664   */\n      div\n        /* \"#utility.yul\":28646:28647   */\n      dup5\n        /* \"#utility.yul\":28643:28665   */\n      eq\n        /* \"#utility.yul\":28623:28624   */\n      dup4\n        /* \"#utility.yul\":28616:28625   */\n      iszero\n        /* \"#utility.yul\":28596:28679   */\n      or\n        /* \"#utility.yul\":28573:28712   */\n      tag_612\n      jumpi\n        /* \"#utility.yul\":28692:28710   */\n      tag_613\n      tag_342\n      jump\t// in\n    tag_613:\n        /* \"#utility.yul\":28573:28712   */\n    tag_612:\n        /* \"#utility.yul\":28357:28719   */\n      pop\n        /* \"#utility.yul\":28309:28719   */\n      swap3\n      swap2\n      pop\n      pop\n      jump\t// out\n        /* \"#utility.yul\":28725:29057   */\n    tag_152:\n        /* \"#utility.yul\":28846:28850   */\n      0x00\n        /* \"#utility.yul\":28884:28886   */\n      0x40\n        /* \"#utility.yul\":28873:28882   */\n      dup3\n        /* \"#utility.yul\":28869:28887   */\n      add\n        /* \"#utility.yul\":28861:28887   */\n      swap1\n      pop\n        /* \"#utility.yul\":28897:28968   */\n      tag_615\n        /* \"#utility.yul\":28965:28966   */\n      0x00\n        /* \"#utility.yul\":28954:28963   */\n      dup4\n        /* \"#utility.yul\":28950:28967   */\n      add\n        /* \"#utility.yul\":28941:28947   */\n      dup6\n        /* \"#utility.yul\":28897:28968   */\n      tag_297\n      jump\t// in\n    tag_615:\n        /* \"#utility.yul\":28978:29050   */\n      tag_616\n        /* \"#utility.yul\":29046:29048   */\n      0x20\n        /* \"#utility.yul\":29035:29044   */\n      dup4\n        /* \"#utility.yul\":29031:29049   */\n      add\n        /* \"#utility.yul\":29022:29028   */\n      dup5\n        /* \"#utility.yul\":28978:29050   */\n      tag_306\n      jump\t// in\n    tag_616:\n        /* \"#utility.yul\":28725:29057   */\n      swap4\n      swap3\n      pop\n      pop\n      pop\n      jump\t// out\n        /* \"#utility.yul\":29063:29179   */\n    tag_343:\n        /* \"#utility.yul\":29133:29154   */\n      tag_618\n        /* \"#utility.yul\":29148:29153   */\n      dup2\n        /* \"#utility.yul\":29133:29154   */\n      tag_285\n      jump\t// in\n    tag_618:\n        /* \"#utility.yul\":29126:29131   */\n      dup2\n        /* \"#utility.yul\":29123:29155   */\n      eq\n        /* \"#utility.yul\":29113:29173   */\n      tag_619\n      jumpi\n        /* \"#utility.yul\":29169:29170   */\n      0x00\n        /* \"#utility.yul\":29166:29167   */\n      dup1\n        /* \"#utility.yul\":29159:29171   */\n      revert\n        /* \"#utility.yul\":29113:29173   */\n    tag_619:\n        /* \"#utility.yul\":29063:29179   */\n      pop\n      jump\t// out\n        /* \"#utility.yul\":29185:29322   */\n    tag_344:\n        /* \"#utility.yul\":29239:29244   */\n      0x00\n        /* \"#utility.yul\":29270:29276   */\n      dup2\n        /* \"#utility.yul\":29264:29277   */\n      mload\n        /* \"#utility.yul\":29255:29277   */\n      swap1\n      pop\n        /* \"#utility.yul\":29286:29316   */\n      tag_621\n        /* \"#utility.yul\":29310:29315   */\n      dup2\n        /* \"#utility.yul\":29286:29316   */\n      tag_343\n      jump\t// in\n    tag_621:\n        /* \"#utility.yul\":29185:29322   */\n      swap3\n      swap2\n      pop\n      pop\n      jump\t// out\n        /* \"#utility.yul\":29328:29673   */\n    tag_156:\n        /* \"#utility.yul\":29395:29401   */\n      0x00\n        /* \"#utility.yul\":29444:29446   */\n      0x20\n        /* \"#utility.yul\":29432:29441   */\n      dup3\n        /* \"#utility.yul\":29423:29430   */\n      dup5\n        /* \"#utility.yul\":29419:29442   */\n      sub\n        /* \"#utility.yul\":29415:29447   */\n      slt\n        /* \"#utility.yul\":29412:29531   */\n      iszero\n      tag_623\n      jumpi\n        /* \"#utility.yul\":29450:29529   */\n      tag_624\n      tag_272\n      jump\t// in\n    tag_624:\n        /* \"#utility.yul\":29412:29531   */\n    tag_623:\n        /* \"#utility.yul\":29570:29571   */\n      0x00\n        /* \"#utility.yul\":29595:29656   */\n      tag_625\n        /* \"#utility.yul\":29648:29655   */\n      dup5\n        /* \"#utility.yul\":29639:29645   */\n      dup3\n        /* \"#utility.yul\":29628:29637   */\n      dup6\n        /* \"#utility.yul\":29624:29646   */\n      add\n        /* \"#utility.yul\":29595:29656   */\n      tag_344\n      jump\t// in\n    tag_625:\n        /* \"#utility.yul\":29585:29656   */\n      swap2\n      pop\n        /* \"#utility.yul\":29541:29666   */\n      pop\n        /* \"#utility.yul\":29328:29673   */\n      swap3\n      swap2\n      pop\n      pop\n      jump\t// out\n        /* \"#utility.yul\":29679:29844   */\n    tag_345:\n        /* \"#utility.yul\":29819:29836   */\n      0x5472616e73666572204661696c65640000000000000000000000000000000000\n        /* \"#utility.yul\":29815:29816   */\n      0x00\n        /* \"#utility.yul\":29807:29813   */\n      dup3\n        /* \"#utility.yul\":29803:29817   */\n      add\n        /* \"#utility.yul\":29796:29837   */\n      mstore\n        /* \"#utility.yul\":29679:29844   */\n      pop\n      jump\t// out\n        /* \"#utility.yul\":29850:30216   */\n    tag_346:\n        /* \"#utility.yul\":29992:29995   */\n      0x00\n        /* \"#utility.yul\":30013:30080   */\n      tag_628\n        /* \"#utility.yul\":30077:30079   */\n      0x0f\n        /* \"#utility.yul\":30072:30075   */\n      dup4\n        /* \"#utility.yul\":30013:30080   */\n      tag_268\n      jump\t// in\n    tag_628:\n        /* \"#utility.yul\":30006:30080   */\n      swap2\n      pop\n        /* \"#utility.yul\":30089:30182   */\n      tag_629\n        /* \"#utility.yul\":30178:30181   */\n      dup3\n        /* \"#utility.yul\":30089:30182   */\n      tag_345\n      jump\t// in\n    tag_629:\n        /* \"#utility.yul\":30207:30209   */\n      0x20\n        /* \"#utility.yul\":30202:30205   */\n      dup3\n        /* \"#utility.yul\":30198:30210   */\n      add\n        /* \"#utility.yul\":30191:30210   */\n      swap1\n      pop\n        /* \"#utility.yul\":29850:30216   */\n      swap2\n      swap1\n      pop\n      jump\t// out\n        /* \"#utility.yul\":30222:30641   */\n    tag_159:\n        /* \"#utility.yul\":30388:30392   */\n      0x00\n        /* \"#utility.yul\":30426:30428   */\n      0x20\n        /* \"#utility.yul\":30415:30424   */\n      dup3\n        /* \"#utility.yul\":30411:30429   */\n      add\n        /* \"#utility.yul\":30403:30429   */\n      swap1\n      pop\n        /* \"#utility.yul\":30475:30484   */\n      dup2\n        /* \"#utility.yul\":30469:30473   */\n      dup2\n        /* \"#utility.yul\":30465:30485   */\n      sub\n        /* \"#utility.yul\":30461:30462   */\n      0x00\n        /* \"#utility.yul\":30450:30459   */\n      dup4\n        /* \"#utility.yul\":30446:30463   */\n      add\n        /* \"#utility.yul\":30439:30486   */\n      mstore\n        /* \"#utility.yul\":30503:30634   */\n      tag_631\n        /* \"#utility.yul\":30629:30633   */\n      dup2\n        /* \"#utility.yul\":30503:30634   */\n      tag_346\n      jump\t// in\n    tag_631:\n        /* \"#utility.yul\":30495:30634   */\n      swap1\n      pop\n        /* \"#utility.yul\":30222:30641   */\n      swap2\n      swap1\n      pop\n      jump\t// out\n        /* \"#utility.yul\":30647:30828   */\n    tag_347:\n        /* \"#utility.yul\":30787:30820   */\n      0x43616c6c6572206973206e6f742074686520746f6b656e2063726561746f7200\n        /* \"#utility.yul\":30783:30784   */\n      0x00\n        /* \"#utility.yul\":30775:30781   */\n      dup3\n        /* \"#utility.yul\":30771:30785   */\n      add\n        /* \"#utility.yul\":30764:30821   */\n      mstore\n        /* \"#utility.yul\":30647:30828   */\n      pop\n      jump\t// out\n        /* \"#utility.yul\":30834:31200   */\n    tag_348:\n        /* \"#utility.yul\":30976:30979   */\n      0x00\n        /* \"#utility.yul\":30997:31064   */\n      tag_634\n        /* \"#utility.yul\":31061:31063   */\n      0x1f\n        /* \"#utility.yul\":31056:31059   */\n      dup4\n        /* \"#utility.yul\":30997:31064   */\n      tag_268\n      jump\t// in\n    tag_634:\n        /* \"#utility.yul\":30990:31064   */\n      swap2\n      pop\n        /* \"#utility.yul\":31073:31166   */\n      tag_635\n        /* \"#utility.yul\":31162:31165   */\n      dup3\n        /* \"#utility.yul\":31073:31166   */\n      tag_347\n      jump\t// in\n    tag_635:\n        /* \"#utility.yul\":31191:31193   */\n      0x20\n        /* \"#utility.yul\":31186:31189   */\n      dup3\n        /* \"#utility.yul\":31182:31194   */\n      add\n        /* \"#utility.yul\":31175:31194   */\n      swap1\n      pop\n        /* \"#utility.yul\":30834:31200   */\n      swap2\n      swap1\n      pop\n      jump\t// out\n        /* \"#utility.yul\":31206:31625   */\n    tag_180:\n        /* \"#utility.yul\":31372:31376   */\n      0x00\n        /* \"#utility.yul\":31410:31412   */\n      0x20\n        /* \"#utility.yul\":31399:31408   */\n      dup3\n        /* \"#utility.yul\":31395:31413   */\n      add\n        /* \"#utility.yul\":31387:31413   */\n      swap1\n      pop\n        /* \"#utility.yul\":31459:31468   */\n      dup2\n        /* \"#utility.yul\":31453:31457   */\n      dup2\n        /* \"#utility.yul\":31449:31469   */\n      sub\n        /* \"#utility.yul\":31445:31446   */\n      0x00\n        /* \"#utility.yul\":31434:31443   */\n      dup4\n        /* \"#utility.yul\":31430:31447   */\n      add\n        /* \"#utility.yul\":31423:31470   */\n      mstore\n        /* \"#utility.yul\":31487:31618   */\n      tag_637\n        /* \"#utility.yul\":31613:31617   */\n      dup2\n        /* \"#utility.yul\":31487:31618   */\n      tag_348\n      jump\t// in\n    tag_637:\n        /* \"#utility.yul\":31479:31618   */\n      swap1\n      pop\n        /* \"#utility.yul\":31206:31625   */\n      swap2\n      swap1\n      pop\n      jump\t// out\n        /* \"#utility.yul\":31631:31809   */\n    tag_349:\n        /* \"#utility.yul\":31771:31801   */\n      0x416d6f756e74206d75737420626520677261746572207468616e203000000000\n        /* \"#utility.yul\":31767:31768   */\n      0x00\n        /* \"#utility.yul\":31759:31765   */\n      dup3\n        /* \"#utility.yul\":31755:31769   */\n      add\n        /* \"#utility.yul\":31748:31802   */\n      mstore\n        /* \"#utility.yul\":31631:31809   */\n      pop\n      jump\t// out\n        /* \"#utility.yul\":31815:32181   */\n    tag_350:\n        /* \"#utility.yul\":31957:31960   */\n      0x00\n        /* \"#utility.yul\":31978:32045   */\n      tag_640\n        /* \"#utility.yul\":32042:32044   */\n      0x1c\n        /* \"#utility.yul\":32037:32040   */\n      dup4\n        /* \"#utility.yul\":31978:32045   */\n      tag_268\n      jump\t// in\n    tag_640:\n        /* \"#utility.yul\":31971:32045   */\n      swap2\n      pop\n        /* \"#utility.yul\":32054:32147   */\n      tag_641\n        /* \"#utility.yul\":32143:32146   */\n      dup3\n        /* \"#utility.yul\":32054:32147   */\n      tag_349\n      jump\t// in\n    tag_641:\n        /* \"#utility.yul\":32172:32174   */\n      0x20\n        /* \"#utility.yul\":32167:32170   */\n      dup3\n        /* \"#utility.yul\":32163:32175   */\n      add\n        /* \"#utility.yul\":32156:32175   */\n      swap1\n      pop\n        /* \"#utility.yul\":31815:32181   */\n      swap2\n      swap1\n      pop\n      jump\t// out\n        /* \"#utility.yul\":32187:32606   */\n    tag_187:\n        /* \"#utility.yul\":32353:32357   */\n      0x00\n        /* \"#utility.yul\":32391:32393   */\n      0x20\n        /* \"#utility.yul\":32380:32389   */\n      dup3\n        /* \"#utility.yul\":32376:32394   */\n      add\n        /* \"#utility.yul\":32368:32394   */\n      swap1\n      pop\n        /* \"#utility.yul\":32440:32449   */\n      dup2\n        /* \"#utility.yul\":32434:32438   */\n      dup2\n        /* \"#utility.yul\":32430:32450   */\n      sub\n        /* \"#utility.yul\":32426:32427   */\n      0x00\n        /* \"#utility.yul\":32415:32424   */\n      dup4\n        /* \"#utility.yul\":32411:32428   */\n      add\n        /* \"#utility.yul\":32404:32451   */\n      mstore\n        /* \"#utility.yul\":32468:32599   */\n      tag_643\n        /* \"#utility.yul\":32594:32598   */\n      dup2\n        /* \"#utility.yul\":32468:32599   */\n      tag_350\n      jump\t// in\n    tag_643:\n        /* \"#utility.yul\":32460:32599   */\n      swap1\n      pop\n        /* \"#utility.yul\":32187:32606   */\n      swap2\n      swap1\n      pop\n      jump\t// out\n        /* \"#utility.yul\":32612:32755   */\n    tag_351:\n        /* \"#utility.yul\":32669:32674   */\n      0x00\n        /* \"#utility.yul\":32700:32706   */\n      dup2\n        /* \"#utility.yul\":32694:32707   */\n      mload\n        /* \"#utility.yul\":32685:32707   */\n      swap1\n      pop\n        /* \"#utility.yul\":32716:32749   */\n      tag_645\n        /* \"#utility.yul\":32743:32748   */\n      dup2\n        /* \"#utility.yul\":32716:32749   */\n      tag_279\n      jump\t// in\n    tag_645:\n        /* \"#utility.yul\":32612:32755   */\n      swap3\n      swap2\n      pop\n      pop\n      jump\t// out\n        /* \"#utility.yul\":32761:33112   */\n    tag_192:\n        /* \"#utility.yul\":32831:32837   */\n      0x00\n        /* \"#utility.yul\":32880:32882   */\n      0x20\n        /* \"#utility.yul\":32868:32877   */\n      dup3\n        /* \"#utility.yul\":32859:32866   */\n      dup5\n        /* \"#utility.yul\":32855:32878   */\n      sub\n        /* \"#utility.yul\":32851:32883   */\n      slt\n        /* \"#utility.yul\":32848:32967   */\n      iszero\n      tag_647\n      jumpi\n        /* \"#utility.yul\":32886:32965   */\n      tag_648\n      tag_272\n      jump\t// in\n    tag_648:\n        /* \"#utility.yul\":32848:32967   */\n    tag_647:\n        /* \"#utility.yul\":33006:33007   */\n      0x00\n        /* \"#utility.yul\":33031:33095   */\n      tag_649\n        /* \"#utility.yul\":33087:33094   */\n      dup5\n        /* \"#utility.yul\":33078:33084   */\n      dup3\n        /* \"#utility.yul\":33067:33076   */\n      dup6\n        /* \"#utility.yul\":33063:33085   */\n      add\n        /* \"#utility.yul\":33031:33095   */\n      tag_351\n      jump\t// in\n    tag_649:\n        /* \"#utility.yul\":33021:33095   */\n      swap2\n      pop\n        /* \"#utility.yul\":32977:33105   */\n      pop\n        /* \"#utility.yul\":32761:33112   */\n      swap3\n      swap2\n      pop\n      pop\n      jump\t// out\n        /* \"#utility.yul\":33118:33294   */\n    tag_352:\n        /* \"#utility.yul\":33258:33286   */\n      0x496e73756666696369656e7420746f6b656e2062616c616e6365000000000000\n        /* \"#utility.yul\":33254:33255   */\n      0x00\n        /* \"#utility.yul\":33246:33252   */\n      dup3\n        /* \"#utility.yul\":33242:33256   */\n      add\n        /* \"#utility.yul\":33235:33287   */\n      mstore\n        /* \"#utility.yul\":33118:33294   */\n      pop\n      jump\t// out\n        /* \"#utility.yul\":33300:33666   */\n    tag_353:\n        /* \"#utility.yul\":33442:33445   */\n      0x00\n        /* \"#utility.yul\":33463:33530   */\n      tag_652\n        /* \"#utility.yul\":33527:33529   */\n      0x1a\n        /* \"#utility.yul\":33522:33525   */\n      dup4\n        /* \"#utility.yul\":33463:33530   */\n      tag_268\n      jump\t// in\n    tag_652:\n        /* \"#utility.yul\":33456:33530   */\n      swap2\n      pop\n        /* \"#utility.yul\":33539:33632   */\n      tag_653\n        /* \"#utility.yul\":33628:33631   */\n      dup3\n        /* \"#utility.yul\":33539:33632   */\n      tag_352\n      jump\t// in\n    tag_653:\n        /* \"#utility.yul\":33657:33659   */\n      0x20\n        /* \"#utility.yul\":33652:33655   */\n      dup3\n        /* \"#utility.yul\":33648:33660   */\n      add\n        /* \"#utility.yul\":33641:33660   */\n      swap1\n      pop\n        /* \"#utility.yul\":33300:33666   */\n      swap2\n      swap1\n      pop\n      jump\t// out\n        /* \"#utility.yul\":33672:34091   */\n    tag_195:\n        /* \"#utility.yul\":33838:33842   */\n      0x00\n        /* \"#utility.yul\":33876:33878   */\n      0x20\n        /* \"#utility.yul\":33865:33874   */\n      dup3\n        /* \"#utility.yul\":33861:33879   */\n      add\n        /* \"#utility.yul\":33853:33879   */\n      swap1\n      pop\n        /* \"#utility.yul\":33925:33934   */\n      dup2\n        /* \"#utility.yul\":33919:33923   */\n      dup2\n        /* \"#utility.yul\":33915:33935   */\n      sub\n        /* \"#utility.yul\":33911:33912   */\n      0x00\n        /* \"#utility.yul\":33900:33909   */\n      dup4\n        /* \"#utility.yul\":33896:33913   */\n      add\n        /* \"#utility.yul\":33889:33936   */\n      mstore\n        /* \"#utility.yul\":33953:34084   */\n      tag_655\n        /* \"#utility.yul\":34079:34083   */\n      dup2\n        /* \"#utility.yul\":33953:34084   */\n      tag_353\n      jump\t// in\n    tag_655:\n        /* \"#utility.yul\":33945:34084   */\n      swap1\n      pop\n        /* \"#utility.yul\":33672:34091   */\n      swap2\n      swap1\n      pop\n      jump\t// out\n        /* \"#utility.yul\":34097:34270   */\n    tag_354:\n        /* \"#utility.yul\":34237:34262   */\n      0x546f6b656e207472616e73666572206661696c65642121000000000000000000\n        /* \"#utility.yul\":34233:34234   */\n      0x00\n        /* \"#utility.yul\":34225:34231   */\n      dup3\n        /* \"#utility.yul\":34221:34235   */\n      add\n        /* \"#utility.yul\":34214:34263   */\n      mstore\n        /* \"#utility.yul\":34097:34270   */\n      pop\n      jump\t// out\n        /* \"#utility.yul\":34276:34642   */\n    tag_355:\n        /* \"#utility.yul\":34418:34421   */\n      0x00\n        /* \"#utility.yul\":34439:34506   */\n      tag_658\n        /* \"#utility.yul\":34503:34505   */\n      0x17\n        /* \"#utility.yul\":34498:34501   */\n      dup4\n        /* \"#utility.yul\":34439:34506   */\n      tag_268\n      jump\t// in\n    tag_658:\n        /* \"#utility.yul\":34432:34506   */\n      swap2\n      pop\n        /* \"#utility.yul\":34515:34608   */\n      tag_659\n        /* \"#utility.yul\":34604:34607   */\n      dup3\n        /* \"#utility.yul\":34515:34608   */\n      tag_354\n      jump\t// in\n    tag_659:\n        /* \"#utility.yul\":34633:34635   */\n      0x20\n        /* \"#utility.yul\":34628:34631   */\n      dup3\n        /* \"#utility.yul\":34624:34636   */\n      add\n        /* \"#utility.yul\":34617:34636   */\n      swap1\n      pop\n        /* \"#utility.yul\":34276:34642   */\n      swap2\n      swap1\n      pop\n      jump\t// out\n        /* \"#utility.yul\":34648:35067   */\n    tag_202:\n        /* \"#utility.yul\":34814:34818   */\n      0x00\n        /* \"#utility.yul\":34852:34854   */\n      0x20\n        /* \"#utility.yul\":34841:34850   */\n      dup3\n        /* \"#utility.yul\":34837:34855   */\n      add\n        /* \"#utility.yul\":34829:34855   */\n      swap1\n      pop\n        /* \"#utility.yul\":34901:34910   */\n      dup2\n        /* \"#utility.yul\":34895:34899   */\n      dup2\n        /* \"#utility.yul\":34891:34911   */\n      sub\n        /* \"#utility.yul\":34887:34888   */\n      0x00\n        /* \"#utility.yul\":34876:34885   */\n      dup4\n        /* \"#utility.yul\":34872:34889   */\n      add\n        /* \"#utility.yul\":34865:34912   */\n      mstore\n        /* \"#utility.yul\":34929:35060   */\n      tag_661\n        /* \"#utility.yul\":35055:35059   */\n      dup2\n        /* \"#utility.yul\":34929:35060   */\n      tag_355\n      jump\t// in\n    tag_661:\n        /* \"#utility.yul\":34921:35060   */\n      swap1\n      pop\n        /* \"#utility.yul\":34648:35067   */\n      swap2\n      swap1\n      pop\n      jump\t// out\n        /* \"#utility.yul\":35073:35306   */\n    tag_226:\n        /* \"#utility.yul\":35112:35115   */\n      0x00\n        /* \"#utility.yul\":35135:35159   */\n      tag_663\n        /* \"#utility.yul\":35153:35158   */\n      dup3\n        /* \"#utility.yul\":35135:35159   */\n      tag_278\n      jump\t// in\n    tag_663:\n        /* \"#utility.yul\":35126:35159   */\n      swap2\n      pop\n        /* \"#utility.yul\":35181:35247   */\n      0xffffffffffffffffffffffffffffffffffffffffffffffffffffffffffffffff\n        /* \"#utility.yul\":35174:35179   */\n      dup3\n        /* \"#utility.yul\":35171:35248   */\n      sub\n        /* \"#utility.yul\":35168:35271   */\n      tag_664\n      jumpi\n        /* \"#utility.yul\":35251:35269   */\n      tag_665\n      tag_342\n      jump\t// in\n    tag_665:\n        /* \"#utility.yul\":35168:35271   */\n    tag_664:\n        /* \"#utility.yul\":35298:35299   */\n      0x01\n        /* \"#utility.yul\":35291:35296   */\n      dup3\n        /* \"#utility.yul\":35287:35300   */\n      add\n        /* \"#utility.yul\":35280:35300   */\n      swap1\n      pop\n        /* \"#utility.yul\":35073:35306   */\n      swap2\n      swap1\n      pop\n      jump\t// out\n        /* \"#utility.yul\":35312:35492   */\n    tag_356:\n        /* \"#utility.yul\":35360:35437   */\n      0x4e487b7100000000000000000000000000000000000000000000000000000000\n        /* \"#utility.yul\":35357:35358   */\n      0x00\n        /* \"#utility.yul\":35350:35438   */\n      mstore\n        /* \"#utility.yul\":35457:35461   */\n      0x12\n        /* \"#utility.yul\":35454:35455   */\n      0x04\n        /* \"#utility.yul\":35447:35462   */\n      mstore\n        /* \"#utility.yul\":35481:35485   */\n      0x24\n        /* \"#utility.yul\":35478:35479   */\n      0x00\n        /* \"#utility.yul\":35471:35486   */\n      revert\n        /* \"#utility.yul\":35498:35683   */\n    tag_266:\n        /* \"#utility.yul\":35538:35539   */\n      0x00\n        /* \"#utility.yul\":35555:35575   */\n      tag_668\n        /* \"#utility.yul\":35573:35574   */\n      dup3\n        /* \"#utility.yul\":35555:35575   */\n      tag_278\n      jump\t// in\n    tag_668:\n        /* \"#utility.yul\":35550:35575   */\n      swap2\n      pop\n        /* \"#utility.yul\":35589:35609   */\n      tag_669\n        /* \"#utility.yul\":35607:35608   */\n      dup4\n        /* \"#utility.yul\":35589:35609   */\n      tag_278\n      jump\t// in\n    tag_669:\n        /* \"#utility.yul\":35584:35609   */\n      swap3\n      pop\n        /* \"#utility.yul\":35628:35629   */\n      dup3\n        /* \"#utility.yul\":35618:35653   */\n      tag_670\n      jumpi\n        /* \"#utility.yul\":35633:35651   */\n      tag_671\n      tag_356\n      jump\t// in\n    tag_671:\n        /* \"#utility.yul\":35618:35653   */\n    tag_670:\n        /* \"#utility.yul\":35675:35676   */\n      dup3\n        /* \"#utility.yul\":35672:35673   */\n      dup3\n        /* \"#utility.yul\":35668:35677   */\n      div\n        /* \"#utility.yul\":35663:35677   */\n      swap1\n      pop\n        /* \"#utility.yul\":35498:35683   */\n      swap3\n      swap2\n      pop\n      pop\n      jump\t// out\n\n    auxdata: 0xa26469706673582212206fc8e59a38fe9a4f608edd03dcc008ee8e776b30362ca857acaed9204324e66564736f6c634300081a0033\n}\n",
				"bytecode": {
					"linkReferences": {},
					"object": "6080604052348015600e575f80fd5b503373ffffffffffffffffffffffffffffffffffffffff1660025f9054906101000a90505050612edf806100415f395ff3fe60806040526004361061009f575f3560e01c80638da5cb5b116100635780638da5cb5b146101c9578063c74b197c146101f3578063d3c7c2c71461021b578063dd4be68314610245578063eb18c0e514610286578063f8b2cb4f146102c2576100df565b80632a074008146100e35780632a5c792a1461010b57806368f8fc10146101355780636d2bb3931461015157806388aa8bee1461018d576100df565b366100df576040517f08c379a00000000000000000000000000000000000000000000000000000000081526004016100d690611e56565b60405180910390fd5b5f80fd5b3480156100ee575f80fd5b5061010960048036038101906101049190611f12565b6102fe565b005b348015610116575f80fd5b5061011f610632565b60405161012c9190612140565b60405180910390f35b61014f600480360381019061014a9190611f12565b610941565b005b34801561015c575f80fd5b5061017760048036038101906101729190612160565b610e84565b604051610184919061219a565b60405180910390f35b348015610198575f80fd5b506101b360048036038101906101ae91906121b3565b610ebf565b6040516101c0919061226b565b60405180910390f35b3480156101d4575f80fd5b506101dd61118d565b6040516101ea919061219a565b60405180910390f35b3480156101fe575f80fd5b5061021960048036038101906102149190611f12565b6111b2565b005b348015610226575f80fd5b5061022f611536565b60405161023c9190612333565b60405180910390f35b348015610250575f80fd5b5061026b600480360381019061026691906121b3565b6115c1565b60405161027d969594939291906123a9565b60405180910390f35b348015610291575f80fd5b506102ac60048036038101906102a791906121b3565b61174e565b6040516102b99190612140565b60405180910390f35b3480156102cd575f80fd5b506102e860048036038101906102e391906121b3565b611c31565b6040516102f59190612416565b60405180910390f35b5f8290505f8173ffffffffffffffffffffffffffffffffffffffff166306fdde036040518163ffffffff1660e01b81526004015f60405180830381865afa15801561034b573d5f803e3d5ffd5b505050506040513d5f823e3d601f19601f82011682018060405250810190610373919061254d565b90505f8273ffffffffffffffffffffffffffffffffffffffff166395d89b416040518163ffffffff1660e01b81526004015f60405180830381865afa1580156103be573d5f803e3d5ffd5b505050506040513d5f823e3d601f19601f820116820180604052508101906103e6919061254d565b90506040518060c001604052808673ffffffffffffffffffffffffffffffffffffffff1681526020016001151581526020018581526020013373ffffffffffffffffffffffffffffffffffffffff168152602001838152602001828152505f808773ffffffffffffffffffffffffffffffffffffffff1673ffffffffffffffffffffffffffffffffffffffff1681526020019081526020015f205f820151815f015f6101000a81548173ffffffffffffffffffffffffffffffffffffffff021916908373ffffffffffffffffffffffffffffffffffffffff1602179055506020820151815f0160146101000a81548160ff021916908315150217905550604082015181600101556060820151816002015f6101000a81548173ffffffffffffffffffffffffffffffffffffffff021916908373ffffffffffffffffffffffffffffffffffffffff1602179055506080820151816003019081610548919061278e565b5060a082015181600401908161055e919061278e565b50905050600185908060018154018082558091505060019003905f5260205f20015f9091909190916101000a81548173ffffffffffffffffffffffffffffffffffffffff021916908373ffffffffffffffffffffffffffffffffffffffff1602179055503373ffffffffffffffffffffffffffffffffffffffff168573ffffffffffffffffffffffffffffffffffffffff167f3a9a79cd15a41f1359a9a9233af1f78982f570cfef886de45a01769c231b4c848685856040516106239392919061285d565b60405180910390a35050505050565b60605f60018054905090505f8167ffffffffffffffff81111561065857610657612437565b5b60405190808252806020026020018201604052801561069157816020015b61067e611d76565b8152602001906001900390816106765790505b5090505f5b82811015610938575f80600183815481106106b4576106b36128a0565b5b905f5260205f20015f9054906101000a900473ffffffffffffffffffffffffffffffffffffffff1673ffffffffffffffffffffffffffffffffffffffff1673ffffffffffffffffffffffffffffffffffffffff1681526020019081526020015f206040518060c00160405290815f82015f9054906101000a900473ffffffffffffffffffffffffffffffffffffffff1673ffffffffffffffffffffffffffffffffffffffff1673ffffffffffffffffffffffffffffffffffffffff1681526020015f820160149054906101000a900460ff1615151515815260200160018201548152602001600282015f9054906101000a900473ffffffffffffffffffffffffffffffffffffffff1673ffffffffffffffffffffffffffffffffffffffff1673ffffffffffffffffffffffffffffffffffffffff1681526020016003820180546107fd906125c1565b80601f0160208091040260200160405190810160405280929190818152602001828054610829906125c1565b80156108745780601f1061084b57610100808354040283529160200191610874565b820191905f5260205f20905b81548152906001019060200180831161085757829003601f168201915b5050505050815260200160048201805461088d906125c1565b80601f01602080910402602001604051908101604052809291908181526020018280546108b9906125c1565b80156109045780601f106108db57610100808354040283529160200191610904565b820191905f5260205f20905b8154815290600101906020018083116108e757829003601f168201915b5050505050815250508282815181106109205761091f6128a0565b5b60200260200101819052508080600101915050610696565b50809250505090565b815f808273ffffffffffffffffffffffffffffffffffffffff1673ffffffffffffffffffffffffffffffffffffffff1681526020019081526020015f205f0160149054906101000a900460ff166109cd576040517f08c379a00000000000000000000000000000000000000000000000000000000081526004016109c490612917565b60405180910390fd5b5f8211610a0f576040517f08c379a0000000000000000000000000000000000000000000000000000000008152600401610a069061297f565b60405180910390fd5b5f805f8573ffffffffffffffffffffffffffffffffffffffff1673ffffffffffffffffffffffffffffffffffffffff1681526020019081526020015f206040518060c00160405290815f82015f9054906101000a900473ffffffffffffffffffffffffffffffffffffffff1673ffffffffffffffffffffffffffffffffffffffff1673ffffffffffffffffffffffffffffffffffffffff1681526020015f820160149054906101000a900460ff1615151515815260200160018201548152602001600282015f9054906101000a900473ffffffffffffffffffffffffffffffffffffffff1673ffffffffffffffffffffffffffffffffffffffff1673ffffffffffffffffffffffffffffffffffffffff168152602001600382018054610b34906125c1565b80601f0160208091040260200160405190810160405280929190818152602001828054610b60906125c1565b8015610bab5780601f10610b8257610100808354040283529160200191610bab565b820191905f5260205f20905b815481529060010190602001808311610b8e57829003601f168201915b50505050508152602001600482018054610bc4906125c1565b80601f0160208091040260200160405190810160405280929190818152602001828054610bf0906125c1565b8015610c3b5780601f10610c1257610100808354040283529160200191610c3b565b820191905f5260205f20905b815481529060010190602001808311610c1e57829003601f168201915b50505050508152505090505f610c55826040015185611d41565b9050803414610c99576040517f08c379a0000000000000000000000000000000000000000000000000000000008152600401610c90906129e7565b60405180910390fd5b5f826060015173ffffffffffffffffffffffffffffffffffffffff1634604051610cc290612a32565b5f6040518083038185875af1925050503d805f8114610cfc576040519150601f19603f3d011682016040523d82523d5f602084013e610d01565b606091505b5050905080610d45576040517f08c379a0000000000000000000000000000000000000000000000000000000008152600401610d3c90612ab6565b60405180910390fd5b5f8690508073ffffffffffffffffffffffffffffffffffffffff1663a9059cbb33670de0b6b3a764000089610d7a9190612b01565b6040518363ffffffff1660e01b8152600401610d97929190612b42565b6020604051808303815f875af1158015610db3573d5f803e3d5ffd5b505050506040513d601f19601f82011682018060405250810190610dd79190612b93565b610e16576040517f08c379a0000000000000000000000000000000000000000000000000000000008152600401610e0d90612c08565b60405180910390fd5b3373ffffffffffffffffffffffffffffffffffffffff168773ffffffffffffffffffffffffffffffffffffffff167f9c8515990fd8c61431c4ac8db9b81475f90c292a1dda77731e56c22e64fc764388604051610e739190612416565b60405180910390a350505050505050565b60018181548110610e93575f80fd5b905f5260205f20015f915054906101000a900473ffffffffffffffffffffffffffffffffffffffff1681565b610ec7611d76565b5f808373ffffffffffffffffffffffffffffffffffffffff1673ffffffffffffffffffffffffffffffffffffffff1681526020019081526020015f205f0160149054906101000a900460ff16610f52576040517f08c379a0000000000000000000000000000000000000000000000000000000008152600401610f4990612917565b60405180910390fd5b5f808373ffffffffffffffffffffffffffffffffffffffff1673ffffffffffffffffffffffffffffffffffffffff1681526020019081526020015f206040518060c00160405290815f82015f9054906101000a900473ffffffffffffffffffffffffffffffffffffffff1673ffffffffffffffffffffffffffffffffffffffff1673ffffffffffffffffffffffffffffffffffffffff1681526020015f820160149054906101000a900460ff1615151515815260200160018201548152602001600282015f9054906101000a900473ffffffffffffffffffffffffffffffffffffffff1673ffffffffffffffffffffffffffffffffffffffff1673ffffffffffffffffffffffffffffffffffffffff168152602001600382018054611076906125c1565b80601f01602080910402602001604051908101604052809291908181526020018280546110a2906125c1565b80156110ed5780601f106110c4576101008083540402835291602001916110ed565b820191905f5260205f20905b8154815290600101906020018083116110d057829003601f168201915b50505050508152602001600482018054611106906125c1565b80601f0160208091040260200160405190810160405280929190818152602001828054611132906125c1565b801561117d5780601f106111545761010080835404028352916020019161117d565b820191905f5260205f20905b81548152906001019060200180831161116057829003601f168201915b5050505050815250509050919050565b60025f9054906101000a900473ffffffffffffffffffffffffffffffffffffffff1681565b815f808273ffffffffffffffffffffffffffffffffffffffff1673ffffffffffffffffffffffffffffffffffffffff1681526020019081526020015f206002015f9054906101000a900473ffffffffffffffffffffffffffffffffffffffff1673ffffffffffffffffffffffffffffffffffffffff163373ffffffffffffffffffffffffffffffffffffffff161461127f576040517f08c379a000000000000000000000000000000000000000000000000000000000815260040161127690612c70565b60405180910390fd5b825f808273ffffffffffffffffffffffffffffffffffffffff1673ffffffffffffffffffffffffffffffffffffffff1681526020019081526020015f205f0160149054906101000a900460ff1661130b576040517f08c379a000000000000000000000000000000000000000000000000000000000815260040161130290612917565b60405180910390fd5b5f831161134d576040517f08c379a000000000000000000000000000000000000000000000000000000000815260040161134490612cd8565b60405180910390fd5b5f8490505f8173ffffffffffffffffffffffffffffffffffffffff166370a08231306040518263ffffffff1660e01b815260040161138b919061219a565b602060405180830381865afa1580156113a6573d5f803e3d5ffd5b505050506040513d601f19601f820116820180604052508101906113ca9190612d0a565b90508481101561140f576040517f08c379a000000000000000000000000000000000000000000000000000000000815260040161140690612d7f565b60405180910390fd5b8173ffffffffffffffffffffffffffffffffffffffff1663a9059cbb33876040518363ffffffff1660e01b815260040161144a929190612b42565b6020604051808303815f875af1158015611466573d5f803e3d5ffd5b505050506040513d601f19601f8201168201806040525081019061148a9190612b93565b6114c9576040517f08c379a00000000000000000000000000000000000000000000000000000000081526004016114c090612de7565b60405180910390fd5b3373ffffffffffffffffffffffffffffffffffffffff168673ffffffffffffffffffffffffffffffffffffffff167f168d0b28f073c346700400252a3d9353bcebd06bd7dd82ad5cc5c57a773bb06e876040516115269190612416565b60405180910390a3505050505050565b606060018054806020026020016040519081016040528092919081815260200182805480156115b757602002820191905f5260205f20905b815f9054906101000a900473ffffffffffffffffffffffffffffffffffffffff1673ffffffffffffffffffffffffffffffffffffffff168152602001906001019080831161156e575b5050505050905090565b5f602052805f5260405f205f91509050805f015f9054906101000a900473ffffffffffffffffffffffffffffffffffffffff1690805f0160149054906101000a900460ff1690806001015490806002015f9054906101000a900473ffffffffffffffffffffffffffffffffffffffff1690806003018054611641906125c1565b80601f016020809104026020016040519081016040528092919081815260200182805461166d906125c1565b80156116b85780601f1061168f576101008083540402835291602001916116b8565b820191905f5260205f20905b81548152906001019060200180831161169b57829003601f168201915b5050505050908060040180546116cd906125c1565b80601f01602080910402602001604051908101604052809291908181526020018280546116f9906125c1565b80156117445780601f1061171b57610100808354040283529160200191611744565b820191905f5260205f20905b81548152906001019060200180831161172757829003601f168201915b5050505050905086565b60605f805b600180549050811015611848578373ffffffffffffffffffffffffffffffffffffffff165f806001848154811061178d5761178c6128a0565b5b905f5260205f20015f9054906101000a900473ffffffffffffffffffffffffffffffffffffffff1673ffffffffffffffffffffffffffffffffffffffff1673ffffffffffffffffffffffffffffffffffffffff1681526020019081526020015f206002015f9054906101000a900473ffffffffffffffffffffffffffffffffffffffff1673ffffffffffffffffffffffffffffffffffffffff160361183b57818061183790612e05565b9250505b8080600101915050611753565b505f8167ffffffffffffffff81111561186457611863612437565b5b60405190808252806020026020018201604052801561189d57816020015b61188a611d76565b8152602001906001900390816118825790505b5090505f805b600180549050811015611c25578573ffffffffffffffffffffffffffffffffffffffff165f80600184815481106118dd576118dc6128a0565b5b905f5260205f20015f9054906101000a900473ffffffffffffffffffffffffffffffffffffffff1673ffffffffffffffffffffffffffffffffffffffff1673ffffffffffffffffffffffffffffffffffffffff1681526020019081526020015f206002015f9054906101000a900473ffffffffffffffffffffffffffffffffffffffff1673ffffffffffffffffffffffffffffffffffffffff1603611c18575f8060018381548110611992576119916128a0565b5b905f5260205f20015f9054906101000a900473ffffffffffffffffffffffffffffffffffffffff1673ffffffffffffffffffffffffffffffffffffffff1673ffffffffffffffffffffffffffffffffffffffff1681526020019081526020015f206040518060c00160405290815f82015f9054906101000a900473ffffffffffffffffffffffffffffffffffffffff1673ffffffffffffffffffffffffffffffffffffffff1673ffffffffffffffffffffffffffffffffffffffff1681526020015f820160149054906101000a900460ff1615151515815260200160018201548152602001600282015f9054906101000a900473ffffffffffffffffffffffffffffffffffffffff1673ffffffffffffffffffffffffffffffffffffffff1673ffffffffffffffffffffffffffffffffffffffff168152602001600382018054611adb906125c1565b80601f0160208091040260200160405190810160405280929190818152602001828054611b07906125c1565b8015611b525780601f10611b2957610100808354040283529160200191611b52565b820191905f5260205f20905b815481529060010190602001808311611b3557829003601f168201915b50505050508152602001600482018054611b6b906125c1565b80601f0160208091040260200160405190810160405280929190818152602001828054611b97906125c1565b8015611be25780601f10611bb957610100808354040283529160200191611be2565b820191905f5260205f20905b815481529060010190602001808311611bc557829003601f168201915b505050505081525050838381518110611bfe57611bfd6128a0565b5b60200260200101819052508180611c1490612e05565b9250505b80806001019150506118a3565b50819350505050919050565b5f805f8373ffffffffffffffffffffffffffffffffffffffff1673ffffffffffffffffffffffffffffffffffffffff1681526020019081526020015f205f0160149054906101000a900460ff16611cbd576040517f08c379a0000000000000000000000000000000000000000000000000000000008152600401611cb490612917565b60405180910390fd5b5f8290508073ffffffffffffffffffffffffffffffffffffffff166370a08231306040518263ffffffff1660e01b8152600401611cfa919061219a565b602060405180830381865afa158015611d15573d5f803e3d5ffd5b505050506040513d601f19601f82011682018060405250810190611d399190612d0a565b915050919050565b5f80821480611d68575082828385611d599190612b01565b925082611d669190612e79565b145b611d70575f80fd5b92915050565b6040518060c001604052805f73ffffffffffffffffffffffffffffffffffffffff1681526020015f151581526020015f81526020015f73ffffffffffffffffffffffffffffffffffffffff16815260200160608152602001606081525090565b5f82825260208201905092915050565b7f436f6e747261637420646f6573206e6f742061636365707420457468657220645f8201527f69726563746c7900000000000000000000000000000000000000000000000000602082015250565b5f611e40602783611dd6565b9150611e4b82611de6565b604082019050919050565b5f6020820190508181035f830152611e6d81611e34565b9050919050565b5f604051905090565b5f80fd5b5f80fd5b5f73ffffffffffffffffffffffffffffffffffffffff82169050919050565b5f611eae82611e85565b9050919050565b611ebe81611ea4565b8114611ec8575f80fd5b50565b5f81359050611ed981611eb5565b92915050565b5f819050919050565b611ef181611edf565b8114611efb575f80fd5b50565b5f81359050611f0c81611ee8565b92915050565b5f8060408385031215611f2857611f27611e7d565b5b5f611f3585828601611ecb565b9250506020611f4685828601611efe565b9150509250929050565b5f81519050919050565b5f82825260208201905092915050565b5f819050602082019050919050565b611f8281611ea4565b82525050565b5f8115159050919050565b611f9c81611f88565b82525050565b611fab81611edf565b82525050565b5f81519050919050565b5f82825260208201905092915050565b8281835e5f83830152505050565b5f601f19601f8301169050919050565b5f611ff382611fb1565b611ffd8185611fbb565b935061200d818560208601611fcb565b61201681611fd9565b840191505092915050565b5f60c083015f8301516120365f860182611f79565b5060208301516120496020860182611f93565b50604083015161205c6040860182611fa2565b50606083015161206f6060860182611f79565b50608083015184820360808601526120878282611fe9565b91505060a083015184820360a08601526120a18282611fe9565b9150508091505092915050565b5f6120b98383612021565b905092915050565b5f602082019050919050565b5f6120d782611f50565b6120e18185611f5a565b9350836020820285016120f385611f6a565b805f5b8581101561212e578484038952815161210f85826120ae565b945061211a836120c1565b925060208a019950506001810190506120f6565b50829750879550505050505092915050565b5f6020820190508181035f83015261215881846120cd565b905092915050565b5f6020828403121561217557612174611e7d565b5b5f61218284828501611efe565b91505092915050565b61219481611ea4565b82525050565b5f6020820190506121ad5f83018461218b565b92915050565b5f602082840312156121c8576121c7611e7d565b5b5f6121d584828501611ecb565b91505092915050565b5f60c083015f8301516121f35f860182611f79565b5060208301516122066020860182611f93565b5060408301516122196040860182611fa2565b50606083015161222c6060860182611f79565b50608083015184820360808601526122448282611fe9565b91505060a083015184820360a086015261225e8282611fe9565b9150508091505092915050565b5f6020820190508181035f83015261228381846121de565b905092915050565b5f81519050919050565b5f82825260208201905092915050565b5f819050602082019050919050565b5f6122bf8383611f79565b60208301905092915050565b5f602082019050919050565b5f6122e18261228b565b6122eb8185612295565b93506122f6836122a5565b805f5b8381101561232657815161230d88826122b4565b9750612318836122cb565b9250506001810190506122f9565b5085935050505092915050565b5f6020820190508181035f83015261234b81846122d7565b905092915050565b61235c81611f88565b82525050565b61236b81611edf565b82525050565b5f61237b82611fb1565b6123858185611dd6565b9350612395818560208601611fcb565b61239e81611fd9565b840191505092915050565b5f60c0820190506123bc5f83018961218b565b6123c96020830188612353565b6123d66040830187612362565b6123e3606083018661218b565b81810360808301526123f58185612371565b905081810360a08301526124098184612371565b9050979650505050505050565b5f6020820190506124295f830184612362565b92915050565b5f80fd5b5f80fd5b7f4e487b71000000000000000000000000000000000000000000000000000000005f52604160045260245ffd5b61246d82611fd9565b810181811067ffffffffffffffff8211171561248c5761248b612437565b5b80604052505050565b5f61249e611e74565b90506124aa8282612464565b919050565b5f67ffffffffffffffff8211156124c9576124c8612437565b5b6124d282611fd9565b9050602081019050919050565b5f6124f16124ec846124af565b612495565b90508281526020810184848401111561250d5761250c612433565b5b612518848285611fcb565b509392505050565b5f82601f8301126125345761253361242f565b5b81516125448482602086016124df565b91505092915050565b5f6020828403121561256257612561611e7d565b5b5f82015167ffffffffffffffff81111561257f5761257e611e81565b5b61258b84828501612520565b91505092915050565b7f4e487b71000000000000000000000000000000000000000000000000000000005f52602260045260245ffd5b5f60028204905060018216806125d857607f821691505b6020821081036125eb576125ea612594565b5b50919050565b5f819050815f5260205f209050919050565b5f6020601f8301049050919050565b5f82821b905092915050565b5f6008830261264d7fffffffffffffffffffffffffffffffffffffffffffffffffffffffffffffffff82612612565b6126578683612612565b95508019841693508086168417925050509392505050565b5f819050919050565b5f61269261268d61268884611edf565b61266f565b611edf565b9050919050565b5f819050919050565b6126ab83612678565b6126bf6126b782612699565b84845461261e565b825550505050565b5f90565b6126d36126c7565b6126de8184846126a2565b505050565b5b81811015612701576126f65f826126cb565b6001810190506126e4565b5050565b601f82111561274657612717816125f1565b61272084612603565b8101602085101561272f578190505b61274361273b85612603565b8301826126e3565b50505b505050565b5f82821c905092915050565b5f6127665f198460080261274b565b1980831691505092915050565b5f61277e8383612757565b9150826002028217905092915050565b61279782611fb1565b67ffffffffffffffff8111156127b0576127af612437565b5b6127ba82546125c1565b6127c5828285612705565b5f60209050601f8311600181146127f6575f84156127e4578287015190505b6127ee8582612773565b865550612855565b601f198416612804866125f1565b5f5b8281101561282b57848901518255600182019150602085019450602081019050612806565b868310156128485784890151612844601f891682612757565b8355505b6001600288020188555050505b505050505050565b5f6060820190506128705f830186612362565b81810360208301526128828185612371565b905081810360408301526128968184612371565b9050949350505050565b7f4e487b71000000000000000000000000000000000000000000000000000000005f52603260045260245ffd5b7f546f6b656e206e6f7420737570706f72746564000000000000000000000000005f82015250565b5f612901601383611dd6565b915061290c826128cd565b602082019050919050565b5f6020820190508181035f83015261292e816128f5565b9050919050565b7f416d6f756e74206d7573742062652067726561746572207468616e20300000005f82015250565b5f612969601d83611dd6565b915061297482612935565b602082019050919050565b5f6020820190508181035f8301526129968161295d565b9050919050565b7f496e636f727265637420457468657220616d6f756e742073656e7400000000005f82015250565b5f6129d1601b83611dd6565b91506129dc8261299d565b602082019050919050565b5f6020820190508181035f8301526129fe816129c5565b9050919050565b5f81905092915050565b50565b5f612a1d5f83612a05565b9150612a2882612a0f565b5f82019050919050565b5f612a3c82612a12565b9150819050919050565b7f4661696c6564207470207472616e736665722074686520455468657220746f205f8201527f746f6b656e2063726561746f7200000000000000000000000000000000000000602082015250565b5f612aa0602d83611dd6565b9150612aab82612a46565b604082019050919050565b5f6020820190508181035f830152612acd81612a94565b9050919050565b7f4e487b71000000000000000000000000000000000000000000000000000000005f52601160045260245ffd5b5f612b0b82611edf565b9150612b1683611edf565b9250828202612b2481611edf565b91508282048414831517612b3b57612b3a612ad4565b5b5092915050565b5f604082019050612b555f83018561218b565b612b626020830184612362565b9392505050565b612b7281611f88565b8114612b7c575f80fd5b50565b5f81519050612b8d81612b69565b92915050565b5f60208284031215612ba857612ba7611e7d565b5b5f612bb584828501612b7f565b91505092915050565b7f5472616e73666572204661696c656400000000000000000000000000000000005f82015250565b5f612bf2600f83611dd6565b9150612bfd82612bbe565b602082019050919050565b5f6020820190508181035f830152612c1f81612be6565b9050919050565b7f43616c6c6572206973206e6f742074686520746f6b656e2063726561746f72005f82015250565b5f612c5a601f83611dd6565b9150612c6582612c26565b602082019050919050565b5f6020820190508181035f830152612c8781612c4e565b9050919050565b7f416d6f756e74206d75737420626520677261746572207468616e2030000000005f82015250565b5f612cc2601c83611dd6565b9150612ccd82612c8e565b602082019050919050565b5f6020820190508181035f830152612cef81612cb6565b9050919050565b5f81519050612d0481611ee8565b92915050565b5f60208284031215612d1f57612d1e611e7d565b5b5f612d2c84828501612cf6565b91505092915050565b7f496e73756666696369656e7420746f6b656e2062616c616e63650000000000005f82015250565b5f612d69601a83611dd6565b9150612d7482612d35565b602082019050919050565b5f6020820190508181035f830152612d9681612d5d565b9050919050565b7f546f6b656e207472616e73666572206661696c656421210000000000000000005f82015250565b5f612dd1601783611dd6565b9150612ddc82612d9d565b602082019050919050565b5f6020820190508181035f830152612dfe81612dc5565b9050919050565b5f612e0f82611edf565b91507fffffffffffffffffffffffffffffffffffffffffffffffffffffffffffffffff8203612e4157612e40612ad4565b5b600182019050919050565b7f4e487b71000000000000000000000000000000000000000000000000000000005f52601260045260245ffd5b5f612e8382611edf565b9150612e8e83611edf565b925082612e9e57612e9d612e4c565b5b82820490509291505056fea26469706673582212206fc8e59a38fe9a4f608edd03dcc008ee8e776b30362ca857acaed9204324e66564736f6c634300081a0033",
					"opcodes": "PUSH1 0x80 PUSH1 0x40 MSTORE CALLVALUE DUP1 ISZERO PUSH1 0xE JUMPI PUSH0 DUP1 REVERT JUMPDEST POP CALLER PUSH20 0xFFFFFFFFFFFFFFFFFFFFFFFFFFFFFFFFFFFFFFFF AND PUSH1 0x2 PUSH0 SWAP1 SLOAD SWAP1 PUSH2 0x100 EXP SWAP1 POP POP POP PUSH2 0x2EDF DUP1 PUSH2 0x41 PUSH0 CODECOPY PUSH0 RETURN INVALID PUSH1 0x80 PUSH1 0x40 MSTORE PUSH1 0x4 CALLDATASIZE LT PUSH2 0x9F JUMPI PUSH0 CALLDATALOAD PUSH1 0xE0 SHR DUP1 PUSH4 0x8DA5CB5B GT PUSH2 0x63 JUMPI DUP1 PUSH4 0x8DA5CB5B EQ PUSH2 0x1C9 JUMPI DUP1 PUSH4 0xC74B197C EQ PUSH2 0x1F3 JUMPI DUP1 PUSH4 0xD3C7C2C7 EQ PUSH2 0x21B JUMPI DUP1 PUSH4 0xDD4BE683 EQ PUSH2 0x245 JUMPI DUP1 PUSH4 0xEB18C0E5 EQ PUSH2 0x286 JUMPI DUP1 PUSH4 0xF8B2CB4F EQ PUSH2 0x2C2 JUMPI PUSH2 0xDF JUMP JUMPDEST DUP1 PUSH4 0x2A074008 EQ PUSH2 0xE3 JUMPI DUP1 PUSH4 0x2A5C792A EQ PUSH2 0x10B JUMPI DUP1 PUSH4 0x68F8FC10 EQ PUSH2 0x135 JUMPI DUP1 PUSH4 0x6D2BB393 EQ PUSH2 0x151 JUMPI DUP1 PUSH4 0x88AA8BEE EQ PUSH2 0x18D JUMPI PUSH2 0xDF JUMP JUMPDEST CALLDATASIZE PUSH2 0xDF JUMPI PUSH1 0x40 MLOAD PUSH32 0x8C379A000000000000000000000000000000000000000000000000000000000 DUP2 MSTORE PUSH1 0x4 ADD PUSH2 0xD6 SWAP1 PUSH2 0x1E56 JUMP JUMPDEST PUSH1 0x40 MLOAD DUP1 SWAP2 SUB SWAP1 REVERT JUMPDEST PUSH0 DUP1 REVERT JUMPDEST CALLVALUE DUP1 ISZERO PUSH2 0xEE JUMPI PUSH0 DUP1 REVERT JUMPDEST POP PUSH2 0x109 PUSH1 0x4 DUP1 CALLDATASIZE SUB DUP2 ADD SWAP1 PUSH2 0x104 SWAP2 SWAP1 PUSH2 0x1F12 JUMP JUMPDEST PUSH2 0x2FE JUMP JUMPDEST STOP JUMPDEST CALLVALUE DUP1 ISZERO PUSH2 0x116 JUMPI PUSH0 DUP1 REVERT JUMPDEST POP PUSH2 0x11F PUSH2 0x632 JUMP JUMPDEST PUSH1 0x40 MLOAD PUSH2 0x12C SWAP2 SWAP1 PUSH2 0x2140 JUMP JUMPDEST PUSH1 0x40 MLOAD DUP1 SWAP2 SUB SWAP1 RETURN JUMPDEST PUSH2 0x14F PUSH1 0x4 DUP1 CALLDATASIZE SUB DUP2 ADD SWAP1 PUSH2 0x14A SWAP2 SWAP1 PUSH2 0x1F12 JUMP JUMPDEST PUSH2 0x941 JUMP JUMPDEST STOP JUMPDEST CALLVALUE DUP1 ISZERO PUSH2 0x15C JUMPI PUSH0 DUP1 REVERT JUMPDEST POP PUSH2 0x177 PUSH1 0x4 DUP1 CALLDATASIZE SUB DUP2 ADD SWAP1 PUSH2 0x172 SWAP2 SWAP1 PUSH2 0x2160 JUMP JUMPDEST PUSH2 0xE84 JUMP JUMPDEST PUSH1 0x40 MLOAD PUSH2 0x184 SWAP2 SWAP1 PUSH2 0x219A JUMP JUMPDEST PUSH1 0x40 MLOAD DUP1 SWAP2 SUB SWAP1 RETURN JUMPDEST CALLVALUE DUP1 ISZERO PUSH2 0x198 JUMPI PUSH0 DUP1 REVERT JUMPDEST POP PUSH2 0x1B3 PUSH1 0x4 DUP1 CALLDATASIZE SUB DUP2 ADD SWAP1 PUSH2 0x1AE SWAP2 SWAP1 PUSH2 0x21B3 JUMP JUMPDEST PUSH2 0xEBF JUMP JUMPDEST PUSH1 0x40 MLOAD PUSH2 0x1C0 SWAP2 SWAP1 PUSH2 0x226B JUMP JUMPDEST PUSH1 0x40 MLOAD DUP1 SWAP2 SUB SWAP1 RETURN JUMPDEST CALLVALUE DUP1 ISZERO PUSH2 0x1D4 JUMPI PUSH0 DUP1 REVERT JUMPDEST POP PUSH2 0x1DD PUSH2 0x118D JUMP JUMPDEST PUSH1 0x40 MLOAD PUSH2 0x1EA SWAP2 SWAP1 PUSH2 0x219A JUMP JUMPDEST PUSH1 0x40 MLOAD DUP1 SWAP2 SUB SWAP1 RETURN JUMPDEST CALLVALUE DUP1 ISZERO PUSH2 0x1FE JUMPI PUSH0 DUP1 REVERT JUMPDEST POP PUSH2 0x219 PUSH1 0x4 DUP1 CALLDATASIZE SUB DUP2 ADD SWAP1 PUSH2 0x214 SWAP2 SWAP1 PUSH2 0x1F12 JUMP JUMPDEST PUSH2 0x11B2 JUMP JUMPDEST STOP JUMPDEST CALLVALUE DUP1 ISZERO PUSH2 0x226 JUMPI PUSH0 DUP1 REVERT JUMPDEST POP PUSH2 0x22F PUSH2 0x1536 JUMP JUMPDEST PUSH1 0x40 MLOAD PUSH2 0x23C SWAP2 SWAP1 PUSH2 0x2333 JUMP JUMPDEST PUSH1 0x40 MLOAD DUP1 SWAP2 SUB SWAP1 RETURN JUMPDEST CALLVALUE DUP1 ISZERO PUSH2 0x250 JUMPI PUSH0 DUP1 REVERT JUMPDEST POP PUSH2 0x26B PUSH1 0x4 DUP1 CALLDATASIZE SUB DUP2 ADD SWAP1 PUSH2 0x266 SWAP2 SWAP1 PUSH2 0x21B3 JUMP JUMPDEST PUSH2 0x15C1 JUMP JUMPDEST PUSH1 0x40 MLOAD PUSH2 0x27D SWAP7 SWAP6 SWAP5 SWAP4 SWAP3 SWAP2 SWAP1 PUSH2 0x23A9 JUMP JUMPDEST PUSH1 0x40 MLOAD DUP1 SWAP2 SUB SWAP1 RETURN JUMPDEST CALLVALUE DUP1 ISZERO PUSH2 0x291 JUMPI PUSH0 DUP1 REVERT JUMPDEST POP PUSH2 0x2AC PUSH1 0x4 DUP1 CALLDATASIZE SUB DUP2 ADD SWAP1 PUSH2 0x2A7 SWAP2 SWAP1 PUSH2 0x21B3 JUMP JUMPDEST PUSH2 0x174E JUMP JUMPDEST PUSH1 0x40 MLOAD PUSH2 0x2B9 SWAP2 SWAP1 PUSH2 0x2140 JUMP JUMPDEST PUSH1 0x40 MLOAD DUP1 SWAP2 SUB SWAP1 RETURN JUMPDEST CALLVALUE DUP1 ISZERO PUSH2 0x2CD JUMPI PUSH0 DUP1 REVERT JUMPDEST POP PUSH2 0x2E8 PUSH1 0x4 DUP1 CALLDATASIZE SUB DUP2 ADD SWAP1 PUSH2 0x2E3 SWAP2 SWAP1 PUSH2 0x21B3 JUMP JUMPDEST PUSH2 0x1C31 JUMP JUMPDEST PUSH1 0x40 MLOAD PUSH2 0x2F5 SWAP2 SWAP1 PUSH2 0x2416 JUMP JUMPDEST PUSH1 0x40 MLOAD DUP1 SWAP2 SUB SWAP1 RETURN JUMPDEST PUSH0 DUP3 SWAP1 POP PUSH0 DUP2 PUSH20 0xFFFFFFFFFFFFFFFFFFFFFFFFFFFFFFFFFFFFFFFF AND PUSH4 0x6FDDE03 PUSH1 0x40 MLOAD DUP2 PUSH4 0xFFFFFFFF AND PUSH1 0xE0 SHL DUP2 MSTORE PUSH1 0x4 ADD PUSH0 PUSH1 0x40 MLOAD DUP1 DUP4 SUB DUP2 DUP7 GAS STATICCALL ISZERO DUP1 ISZERO PUSH2 0x34B JUMPI RETURNDATASIZE PUSH0 DUP1 RETURNDATACOPY RETURNDATASIZE PUSH0 REVERT JUMPDEST POP POP POP POP PUSH1 0x40 MLOAD RETURNDATASIZE PUSH0 DUP3 RETURNDATACOPY RETURNDATASIZE PUSH1 0x1F NOT PUSH1 0x1F DUP3 ADD AND DUP3 ADD DUP1 PUSH1 0x40 MSTORE POP DUP2 ADD SWAP1 PUSH2 0x373 SWAP2 SWAP1 PUSH2 0x254D JUMP JUMPDEST SWAP1 POP PUSH0 DUP3 PUSH20 0xFFFFFFFFFFFFFFFFFFFFFFFFFFFFFFFFFFFFFFFF AND PUSH4 0x95D89B41 PUSH1 0x40 MLOAD DUP2 PUSH4 0xFFFFFFFF AND PUSH1 0xE0 SHL DUP2 MSTORE PUSH1 0x4 ADD PUSH0 PUSH1 0x40 MLOAD DUP1 DUP4 SUB DUP2 DUP7 GAS STATICCALL ISZERO DUP1 ISZERO PUSH2 0x3BE JUMPI RETURNDATASIZE PUSH0 DUP1 RETURNDATACOPY RETURNDATASIZE PUSH0 REVERT JUMPDEST POP POP POP POP PUSH1 0x40 MLOAD RETURNDATASIZE PUSH0 DUP3 RETURNDATACOPY RETURNDATASIZE PUSH1 0x1F NOT PUSH1 0x1F DUP3 ADD AND DUP3 ADD DUP1 PUSH1 0x40 MSTORE POP DUP2 ADD SWAP1 PUSH2 0x3E6 SWAP2 SWAP1 PUSH2 0x254D JUMP JUMPDEST SWAP1 POP PUSH1 0x40 MLOAD DUP1 PUSH1 0xC0 ADD PUSH1 0x40 MSTORE DUP1 DUP7 PUSH20 0xFFFFFFFFFFFFFFFFFFFFFFFFFFFFFFFFFFFFFFFF AND DUP2 MSTORE PUSH1 0x20 ADD PUSH1 0x1 ISZERO ISZERO DUP2 MSTORE PUSH1 0x20 ADD DUP6 DUP2 MSTORE PUSH1 0x20 ADD CALLER PUSH20 0xFFFFFFFFFFFFFFFFFFFFFFFFFFFFFFFFFFFFFFFF AND DUP2 MSTORE PUSH1 0x20 ADD DUP4 DUP2 MSTORE PUSH1 0x20 ADD DUP3 DUP2 MSTORE POP PUSH0 DUP1 DUP8 PUSH20 0xFFFFFFFFFFFFFFFFFFFFFFFFFFFFFFFFFFFFFFFF AND PUSH20 0xFFFFFFFFFFFFFFFFFFFFFFFFFFFFFFFFFFFFFFFF AND DUP2 MSTORE PUSH1 0x20 ADD SWAP1 DUP2 MSTORE PUSH1 0x20 ADD PUSH0 KECCAK256 PUSH0 DUP3 ADD MLOAD DUP2 PUSH0 ADD PUSH0 PUSH2 0x100 EXP DUP2 SLOAD DUP2 PUSH20 0xFFFFFFFFFFFFFFFFFFFFFFFFFFFFFFFFFFFFFFFF MUL NOT AND SWAP1 DUP4 PUSH20 0xFFFFFFFFFFFFFFFFFFFFFFFFFFFFFFFFFFFFFFFF AND MUL OR SWAP1 SSTORE POP PUSH1 0x20 DUP3 ADD MLOAD DUP2 PUSH0 ADD PUSH1 0x14 PUSH2 0x100 EXP DUP2 SLOAD DUP2 PUSH1 0xFF MUL NOT AND SWAP1 DUP4 ISZERO ISZERO MUL OR SWAP1 SSTORE POP PUSH1 0x40 DUP3 ADD MLOAD DUP2 PUSH1 0x1 ADD SSTORE PUSH1 0x60 DUP3 ADD MLOAD DUP2 PUSH1 0x2 ADD PUSH0 PUSH2 0x100 EXP DUP2 SLOAD DUP2 PUSH20 0xFFFFFFFFFFFFFFFFFFFFFFFFFFFFFFFFFFFFFFFF MUL NOT AND SWAP1 DUP4 PUSH20 0xFFFFFFFFFFFFFFFFFFFFFFFFFFFFFFFFFFFFFFFF AND MUL OR SWAP1 SSTORE POP PUSH1 0x80 DUP3 ADD MLOAD DUP2 PUSH1 0x3 ADD SWAP1 DUP2 PUSH2 0x548 SWAP2 SWAP1 PUSH2 0x278E JUMP JUMPDEST POP PUSH1 0xA0 DUP3 ADD MLOAD DUP2 PUSH1 0x4 ADD SWAP1 DUP2 PUSH2 0x55E SWAP2 SWAP1 PUSH2 0x278E JUMP JUMPDEST POP SWAP1 POP POP PUSH1 0x1 DUP6 SWAP1 DUP1 PUSH1 0x1 DUP2 SLOAD ADD DUP1 DUP3 SSTORE DUP1 SWAP2 POP POP PUSH1 0x1 SWAP1 SUB SWAP1 PUSH0 MSTORE PUSH1 0x20 PUSH0 KECCAK256 ADD PUSH0 SWAP1 SWAP2 SWAP1 SWAP2 SWAP1 SWAP2 PUSH2 0x100 EXP DUP2 SLOAD DUP2 PUSH20 0xFFFFFFFFFFFFFFFFFFFFFFFFFFFFFFFFFFFFFFFF MUL NOT AND SWAP1 DUP4 PUSH20 0xFFFFFFFFFFFFFFFFFFFFFFFFFFFFFFFFFFFFFFFF AND MUL OR SWAP1 SSTORE POP CALLER PUSH20 0xFFFFFFFFFFFFFFFFFFFFFFFFFFFFFFFFFFFFFFFF AND DUP6 PUSH20 0xFFFFFFFFFFFFFFFFFFFFFFFFFFFFFFFFFFFFFFFF AND PUSH32 0x3A9A79CD15A41F1359A9A9233AF1F78982F570CFEF886DE45A01769C231B4C84 DUP7 DUP6 DUP6 PUSH1 0x40 MLOAD PUSH2 0x623 SWAP4 SWAP3 SWAP2 SWAP1 PUSH2 0x285D JUMP JUMPDEST PUSH1 0x40 MLOAD DUP1 SWAP2 SUB SWAP1 LOG3 POP POP POP POP POP JUMP JUMPDEST PUSH1 0x60 PUSH0 PUSH1 0x1 DUP1 SLOAD SWAP1 POP SWAP1 POP PUSH0 DUP2 PUSH8 0xFFFFFFFFFFFFFFFF DUP2 GT ISZERO PUSH2 0x658 JUMPI PUSH2 0x657 PUSH2 0x2437 JUMP JUMPDEST JUMPDEST PUSH1 0x40 MLOAD SWAP1 DUP1 DUP3 MSTORE DUP1 PUSH1 0x20 MUL PUSH1 0x20 ADD DUP3 ADD PUSH1 0x40 MSTORE DUP1 ISZERO PUSH2 0x691 JUMPI DUP2 PUSH1 0x20 ADD JUMPDEST PUSH2 0x67E PUSH2 0x1D76 JUMP JUMPDEST DUP2 MSTORE PUSH1 0x20 ADD SWAP1 PUSH1 0x1 SWAP1 SUB SWAP1 DUP2 PUSH2 0x676 JUMPI SWAP1 POP JUMPDEST POP SWAP1 POP PUSH0 JUMPDEST DUP3 DUP2 LT ISZERO PUSH2 0x938 JUMPI PUSH0 DUP1 PUSH1 0x1 DUP4 DUP2 SLOAD DUP2 LT PUSH2 0x6B4 JUMPI PUSH2 0x6B3 PUSH2 0x28A0 JUMP JUMPDEST JUMPDEST SWAP1 PUSH0 MSTORE PUSH1 0x20 PUSH0 KECCAK256 ADD PUSH0 SWAP1 SLOAD SWAP1 PUSH2 0x100 EXP SWAP1 DIV PUSH20 0xFFFFFFFFFFFFFFFFFFFFFFFFFFFFFFFFFFFFFFFF AND PUSH20 0xFFFFFFFFFFFFFFFFFFFFFFFFFFFFFFFFFFFFFFFF AND PUSH20 0xFFFFFFFFFFFFFFFFFFFFFFFFFFFFFFFFFFFFFFFF AND DUP2 MSTORE PUSH1 0x20 ADD SWAP1 DUP2 MSTORE PUSH1 0x20 ADD PUSH0 KECCAK256 PUSH1 0x40 MLOAD DUP1 PUSH1 0xC0 ADD PUSH1 0x40 MSTORE SWAP1 DUP2 PUSH0 DUP3 ADD PUSH0 SWAP1 SLOAD SWAP1 PUSH2 0x100 EXP SWAP1 DIV PUSH20 0xFFFFFFFFFFFFFFFFFFFFFFFFFFFFFFFFFFFFFFFF AND PUSH20 0xFFFFFFFFFFFFFFFFFFFFFFFFFFFFFFFFFFFFFFFF AND PUSH20 0xFFFFFFFFFFFFFFFFFFFFFFFFFFFFFFFFFFFFFFFF AND DUP2 MSTORE PUSH1 0x20 ADD PUSH0 DUP3 ADD PUSH1 0x14 SWAP1 SLOAD SWAP1 PUSH2 0x100 EXP SWAP1 DIV PUSH1 0xFF AND ISZERO ISZERO ISZERO ISZERO DUP2 MSTORE PUSH1 0x20 ADD PUSH1 0x1 DUP3 ADD SLOAD DUP2 MSTORE PUSH1 0x20 ADD PUSH1 0x2 DUP3 ADD PUSH0 SWAP1 SLOAD SWAP1 PUSH2 0x100 EXP SWAP1 DIV PUSH20 0xFFFFFFFFFFFFFFFFFFFFFFFFFFFFFFFFFFFFFFFF AND PUSH20 0xFFFFFFFFFFFFFFFFFFFFFFFFFFFFFFFFFFFFFFFF AND PUSH20 0xFFFFFFFFFFFFFFFFFFFFFFFFFFFFFFFFFFFFFFFF AND DUP2 MSTORE PUSH1 0x20 ADD PUSH1 0x3 DUP3 ADD DUP1 SLOAD PUSH2 0x7FD SWAP1 PUSH2 0x25C1 JUMP JUMPDEST DUP1 PUSH1 0x1F ADD PUSH1 0x20 DUP1 SWAP2 DIV MUL PUSH1 0x20 ADD PUSH1 0x40 MLOAD SWAP1 DUP2 ADD PUSH1 0x40 MSTORE DUP1 SWAP3 SWAP2 SWAP1 DUP2 DUP2 MSTORE PUSH1 0x20 ADD DUP3 DUP1 SLOAD PUSH2 0x829 SWAP1 PUSH2 0x25C1 JUMP JUMPDEST DUP1 ISZERO PUSH2 0x874 JUMPI DUP1 PUSH1 0x1F LT PUSH2 0x84B JUMPI PUSH2 0x100 DUP1 DUP4 SLOAD DIV MUL DUP4 MSTORE SWAP2 PUSH1 0x20 ADD SWAP2 PUSH2 0x874 JUMP JUMPDEST DUP3 ADD SWAP2 SWAP1 PUSH0 MSTORE PUSH1 0x20 PUSH0 KECCAK256 SWAP1 JUMPDEST DUP2 SLOAD DUP2 MSTORE SWAP1 PUSH1 0x1 ADD SWAP1 PUSH1 0x20 ADD DUP1 DUP4 GT PUSH2 0x857 JUMPI DUP3 SWAP1 SUB PUSH1 0x1F AND DUP3 ADD SWAP2 JUMPDEST POP POP POP POP POP DUP2 MSTORE PUSH1 0x20 ADD PUSH1 0x4 DUP3 ADD DUP1 SLOAD PUSH2 0x88D SWAP1 PUSH2 0x25C1 JUMP JUMPDEST DUP1 PUSH1 0x1F ADD PUSH1 0x20 DUP1 SWAP2 DIV MUL PUSH1 0x20 ADD PUSH1 0x40 MLOAD SWAP1 DUP2 ADD PUSH1 0x40 MSTORE DUP1 SWAP3 SWAP2 SWAP1 DUP2 DUP2 MSTORE PUSH1 0x20 ADD DUP3 DUP1 SLOAD PUSH2 0x8B9 SWAP1 PUSH2 0x25C1 JUMP JUMPDEST DUP1 ISZERO PUSH2 0x904 JUMPI DUP1 PUSH1 0x1F LT PUSH2 0x8DB JUMPI PUSH2 0x100 DUP1 DUP4 SLOAD DIV MUL DUP4 MSTORE SWAP2 PUSH1 0x20 ADD SWAP2 PUSH2 0x904 JUMP JUMPDEST DUP3 ADD SWAP2 SWAP1 PUSH0 MSTORE PUSH1 0x20 PUSH0 KECCAK256 SWAP1 JUMPDEST DUP2 SLOAD DUP2 MSTORE SWAP1 PUSH1 0x1 ADD SWAP1 PUSH1 0x20 ADD DUP1 DUP4 GT PUSH2 0x8E7 JUMPI DUP3 SWAP1 SUB PUSH1 0x1F AND DUP3 ADD SWAP2 JUMPDEST POP POP POP POP POP DUP2 MSTORE POP POP DUP3 DUP3 DUP2 MLOAD DUP2 LT PUSH2 0x920 JUMPI PUSH2 0x91F PUSH2 0x28A0 JUMP JUMPDEST JUMPDEST PUSH1 0x20 MUL PUSH1 0x20 ADD ADD DUP2 SWAP1 MSTORE POP DUP1 DUP1 PUSH1 0x1 ADD SWAP2 POP POP PUSH2 0x696 JUMP JUMPDEST POP DUP1 SWAP3 POP POP POP SWAP1 JUMP JUMPDEST DUP2 PUSH0 DUP1 DUP3 PUSH20 0xFFFFFFFFFFFFFFFFFFFFFFFFFFFFFFFFFFFFFFFF AND PUSH20 0xFFFFFFFFFFFFFFFFFFFFFFFFFFFFFFFFFFFFFFFF AND DUP2 MSTORE PUSH1 0x20 ADD SWAP1 DUP2 MSTORE PUSH1 0x20 ADD PUSH0 KECCAK256 PUSH0 ADD PUSH1 0x14 SWAP1 SLOAD SWAP1 PUSH2 0x100 EXP SWAP1 DIV PUSH1 0xFF AND PUSH2 0x9CD JUMPI PUSH1 0x40 MLOAD PUSH32 0x8C379A000000000000000000000000000000000000000000000000000000000 DUP2 MSTORE PUSH1 0x4 ADD PUSH2 0x9C4 SWAP1 PUSH2 0x2917 JUMP JUMPDEST PUSH1 0x40 MLOAD DUP1 SWAP2 SUB SWAP1 REVERT JUMPDEST PUSH0 DUP3 GT PUSH2 0xA0F JUMPI PUSH1 0x40 MLOAD PUSH32 0x8C379A000000000000000000000000000000000000000000000000000000000 DUP2 MSTORE PUSH1 0x4 ADD PUSH2 0xA06 SWAP1 PUSH2 0x297F JUMP JUMPDEST PUSH1 0x40 MLOAD DUP1 SWAP2 SUB SWAP1 REVERT JUMPDEST PUSH0 DUP1 PUSH0 DUP6 PUSH20 0xFFFFFFFFFFFFFFFFFFFFFFFFFFFFFFFFFFFFFFFF AND PUSH20 0xFFFFFFFFFFFFFFFFFFFFFFFFFFFFFFFFFFFFFFFF AND DUP2 MSTORE PUSH1 0x20 ADD SWAP1 DUP2 MSTORE PUSH1 0x20 ADD PUSH0 KECCAK256 PUSH1 0x40 MLOAD DUP1 PUSH1 0xC0 ADD PUSH1 0x40 MSTORE SWAP1 DUP2 PUSH0 DUP3 ADD PUSH0 SWAP1 SLOAD SWAP1 PUSH2 0x100 EXP SWAP1 DIV PUSH20 0xFFFFFFFFFFFFFFFFFFFFFFFFFFFFFFFFFFFFFFFF AND PUSH20 0xFFFFFFFFFFFFFFFFFFFFFFFFFFFFFFFFFFFFFFFF AND PUSH20 0xFFFFFFFFFFFFFFFFFFFFFFFFFFFFFFFFFFFFFFFF AND DUP2 MSTORE PUSH1 0x20 ADD PUSH0 DUP3 ADD PUSH1 0x14 SWAP1 SLOAD SWAP1 PUSH2 0x100 EXP SWAP1 DIV PUSH1 0xFF AND ISZERO ISZERO ISZERO ISZERO DUP2 MSTORE PUSH1 0x20 ADD PUSH1 0x1 DUP3 ADD SLOAD DUP2 MSTORE PUSH1 0x20 ADD PUSH1 0x2 DUP3 ADD PUSH0 SWAP1 SLOAD SWAP1 PUSH2 0x100 EXP SWAP1 DIV PUSH20 0xFFFFFFFFFFFFFFFFFFFFFFFFFFFFFFFFFFFFFFFF AND PUSH20 0xFFFFFFFFFFFFFFFFFFFFFFFFFFFFFFFFFFFFFFFF AND PUSH20 0xFFFFFFFFFFFFFFFFFFFFFFFFFFFFFFFFFFFFFFFF AND DUP2 MSTORE PUSH1 0x20 ADD PUSH1 0x3 DUP3 ADD DUP1 SLOAD PUSH2 0xB34 SWAP1 PUSH2 0x25C1 JUMP JUMPDEST DUP1 PUSH1 0x1F ADD PUSH1 0x20 DUP1 SWAP2 DIV MUL PUSH1 0x20 ADD PUSH1 0x40 MLOAD SWAP1 DUP2 ADD PUSH1 0x40 MSTORE DUP1 SWAP3 SWAP2 SWAP1 DUP2 DUP2 MSTORE PUSH1 0x20 ADD DUP3 DUP1 SLOAD PUSH2 0xB60 SWAP1 PUSH2 0x25C1 JUMP JUMPDEST DUP1 ISZERO PUSH2 0xBAB JUMPI DUP1 PUSH1 0x1F LT PUSH2 0xB82 JUMPI PUSH2 0x100 DUP1 DUP4 SLOAD DIV MUL DUP4 MSTORE SWAP2 PUSH1 0x20 ADD SWAP2 PUSH2 0xBAB JUMP JUMPDEST DUP3 ADD SWAP2 SWAP1 PUSH0 MSTORE PUSH1 0x20 PUSH0 KECCAK256 SWAP1 JUMPDEST DUP2 SLOAD DUP2 MSTORE SWAP1 PUSH1 0x1 ADD SWAP1 PUSH1 0x20 ADD DUP1 DUP4 GT PUSH2 0xB8E JUMPI DUP3 SWAP1 SUB PUSH1 0x1F AND DUP3 ADD SWAP2 JUMPDEST POP POP POP POP POP DUP2 MSTORE PUSH1 0x20 ADD PUSH1 0x4 DUP3 ADD DUP1 SLOAD PUSH2 0xBC4 SWAP1 PUSH2 0x25C1 JUMP JUMPDEST DUP1 PUSH1 0x1F ADD PUSH1 0x20 DUP1 SWAP2 DIV MUL PUSH1 0x20 ADD PUSH1 0x40 MLOAD SWAP1 DUP2 ADD PUSH1 0x40 MSTORE DUP1 SWAP3 SWAP2 SWAP1 DUP2 DUP2 MSTORE PUSH1 0x20 ADD DUP3 DUP1 SLOAD PUSH2 0xBF0 SWAP1 PUSH2 0x25C1 JUMP JUMPDEST DUP1 ISZERO PUSH2 0xC3B JUMPI DUP1 PUSH1 0x1F LT PUSH2 0xC12 JUMPI PUSH2 0x100 DUP1 DUP4 SLOAD DIV MUL DUP4 MSTORE SWAP2 PUSH1 0x20 ADD SWAP2 PUSH2 0xC3B JUMP JUMPDEST DUP3 ADD SWAP2 SWAP1 PUSH0 MSTORE PUSH1 0x20 PUSH0 KECCAK256 SWAP1 JUMPDEST DUP2 SLOAD DUP2 MSTORE SWAP1 PUSH1 0x1 ADD SWAP1 PUSH1 0x20 ADD DUP1 DUP4 GT PUSH2 0xC1E JUMPI DUP3 SWAP1 SUB PUSH1 0x1F AND DUP3 ADD SWAP2 JUMPDEST POP POP POP POP POP DUP2 MSTORE POP POP SWAP1 POP PUSH0 PUSH2 0xC55 DUP3 PUSH1 0x40 ADD MLOAD DUP6 PUSH2 0x1D41 JUMP JUMPDEST SWAP1 POP DUP1 CALLVALUE EQ PUSH2 0xC99 JUMPI PUSH1 0x40 MLOAD PUSH32 0x8C379A000000000000000000000000000000000000000000000000000000000 DUP2 MSTORE PUSH1 0x4 ADD PUSH2 0xC90 SWAP1 PUSH2 0x29E7 JUMP JUMPDEST PUSH1 0x40 MLOAD DUP1 SWAP2 SUB SWAP1 REVERT JUMPDEST PUSH0 DUP3 PUSH1 0x60 ADD MLOAD PUSH20 0xFFFFFFFFFFFFFFFFFFFFFFFFFFFFFFFFFFFFFFFF AND CALLVALUE PUSH1 0x40 MLOAD PUSH2 0xCC2 SWAP1 PUSH2 0x2A32 JUMP JUMPDEST PUSH0 PUSH1 0x40 MLOAD DUP1 DUP4 SUB DUP2 DUP6 DUP8 GAS CALL SWAP3 POP POP POP RETURNDATASIZE DUP1 PUSH0 DUP2 EQ PUSH2 0xCFC JUMPI PUSH1 0x40 MLOAD SWAP2 POP PUSH1 0x1F NOT PUSH1 0x3F RETURNDATASIZE ADD AND DUP3 ADD PUSH1 0x40 MSTORE RETURNDATASIZE DUP3 MSTORE RETURNDATASIZE PUSH0 PUSH1 0x20 DUP5 ADD RETURNDATACOPY PUSH2 0xD01 JUMP JUMPDEST PUSH1 0x60 SWAP2 POP JUMPDEST POP POP SWAP1 POP DUP1 PUSH2 0xD45 JUMPI PUSH1 0x40 MLOAD PUSH32 0x8C379A000000000000000000000000000000000000000000000000000000000 DUP2 MSTORE PUSH1 0x4 ADD PUSH2 0xD3C SWAP1 PUSH2 0x2AB6 JUMP JUMPDEST PUSH1 0x40 MLOAD DUP1 SWAP2 SUB SWAP1 REVERT JUMPDEST PUSH0 DUP7 SWAP1 POP DUP1 PUSH20 0xFFFFFFFFFFFFFFFFFFFFFFFFFFFFFFFFFFFFFFFF AND PUSH4 0xA9059CBB CALLER PUSH8 0xDE0B6B3A7640000 DUP10 PUSH2 0xD7A SWAP2 SWAP1 PUSH2 0x2B01 JUMP JUMPDEST PUSH1 0x40 MLOAD DUP4 PUSH4 0xFFFFFFFF AND PUSH1 0xE0 SHL DUP2 MSTORE PUSH1 0x4 ADD PUSH2 0xD97 SWAP3 SWAP2 SWAP1 PUSH2 0x2B42 JUMP JUMPDEST PUSH1 0x20 PUSH1 0x40 MLOAD DUP1 DUP4 SUB DUP2 PUSH0 DUP8 GAS CALL ISZERO DUP1 ISZERO PUSH2 0xDB3 JUMPI RETURNDATASIZE PUSH0 DUP1 RETURNDATACOPY RETURNDATASIZE PUSH0 REVERT JUMPDEST POP POP POP POP PUSH1 0x40 MLOAD RETURNDATASIZE PUSH1 0x1F NOT PUSH1 0x1F DUP3 ADD AND DUP3 ADD DUP1 PUSH1 0x40 MSTORE POP DUP2 ADD SWAP1 PUSH2 0xDD7 SWAP2 SWAP1 PUSH2 0x2B93 JUMP JUMPDEST PUSH2 0xE16 JUMPI PUSH1 0x40 MLOAD PUSH32 0x8C379A000000000000000000000000000000000000000000000000000000000 DUP2 MSTORE PUSH1 0x4 ADD PUSH2 0xE0D SWAP1 PUSH2 0x2C08 JUMP JUMPDEST PUSH1 0x40 MLOAD DUP1 SWAP2 SUB SWAP1 REVERT JUMPDEST CALLER PUSH20 0xFFFFFFFFFFFFFFFFFFFFFFFFFFFFFFFFFFFFFFFF AND DUP8 PUSH20 0xFFFFFFFFFFFFFFFFFFFFFFFFFFFFFFFFFFFFFFFF AND PUSH32 0x9C8515990FD8C61431C4AC8DB9B81475F90C292A1DDA77731E56C22E64FC7643 DUP9 PUSH1 0x40 MLOAD PUSH2 0xE73 SWAP2 SWAP1 PUSH2 0x2416 JUMP JUMPDEST PUSH1 0x40 MLOAD DUP1 SWAP2 SUB SWAP1 LOG3 POP POP POP POP POP POP POP JUMP JUMPDEST PUSH1 0x1 DUP2 DUP2 SLOAD DUP2 LT PUSH2 0xE93 JUMPI PUSH0 DUP1 REVERT JUMPDEST SWAP1 PUSH0 MSTORE PUSH1 0x20 PUSH0 KECCAK256 ADD PUSH0 SWAP2 POP SLOAD SWAP1 PUSH2 0x100 EXP SWAP1 DIV PUSH20 0xFFFFFFFFFFFFFFFFFFFFFFFFFFFFFFFFFFFFFFFF AND DUP2 JUMP JUMPDEST PUSH2 0xEC7 PUSH2 0x1D76 JUMP JUMPDEST PUSH0 DUP1 DUP4 PUSH20 0xFFFFFFFFFFFFFFFFFFFFFFFFFFFFFFFFFFFFFFFF AND PUSH20 0xFFFFFFFFFFFFFFFFFFFFFFFFFFFFFFFFFFFFFFFF AND DUP2 MSTORE PUSH1 0x20 ADD SWAP1 DUP2 MSTORE PUSH1 0x20 ADD PUSH0 KECCAK256 PUSH0 ADD PUSH1 0x14 SWAP1 SLOAD SWAP1 PUSH2 0x100 EXP SWAP1 DIV PUSH1 0xFF AND PUSH2 0xF52 JUMPI PUSH1 0x40 MLOAD PUSH32 0x8C379A000000000000000000000000000000000000000000000000000000000 DUP2 MSTORE PUSH1 0x4 ADD PUSH2 0xF49 SWAP1 PUSH2 0x2917 JUMP JUMPDEST PUSH1 0x40 MLOAD DUP1 SWAP2 SUB SWAP1 REVERT JUMPDEST PUSH0 DUP1 DUP4 PUSH20 0xFFFFFFFFFFFFFFFFFFFFFFFFFFFFFFFFFFFFFFFF AND PUSH20 0xFFFFFFFFFFFFFFFFFFFFFFFFFFFFFFFFFFFFFFFF AND DUP2 MSTORE PUSH1 0x20 ADD SWAP1 DUP2 MSTORE PUSH1 0x20 ADD PUSH0 KECCAK256 PUSH1 0x40 MLOAD DUP1 PUSH1 0xC0 ADD PUSH1 0x40 MSTORE SWAP1 DUP2 PUSH0 DUP3 ADD PUSH0 SWAP1 SLOAD SWAP1 PUSH2 0x100 EXP SWAP1 DIV PUSH20 0xFFFFFFFFFFFFFFFFFFFFFFFFFFFFFFFFFFFFFFFF AND PUSH20 0xFFFFFFFFFFFFFFFFFFFFFFFFFFFFFFFFFFFFFFFF AND PUSH20 0xFFFFFFFFFFFFFFFFFFFFFFFFFFFFFFFFFFFFFFFF AND DUP2 MSTORE PUSH1 0x20 ADD PUSH0 DUP3 ADD PUSH1 0x14 SWAP1 SLOAD SWAP1 PUSH2 0x100 EXP SWAP1 DIV PUSH1 0xFF AND ISZERO ISZERO ISZERO ISZERO DUP2 MSTORE PUSH1 0x20 ADD PUSH1 0x1 DUP3 ADD SLOAD DUP2 MSTORE PUSH1 0x20 ADD PUSH1 0x2 DUP3 ADD PUSH0 SWAP1 SLOAD SWAP1 PUSH2 0x100 EXP SWAP1 DIV PUSH20 0xFFFFFFFFFFFFFFFFFFFFFFFFFFFFFFFFFFFFFFFF AND PUSH20 0xFFFFFFFFFFFFFFFFFFFFFFFFFFFFFFFFFFFFFFFF AND PUSH20 0xFFFFFFFFFFFFFFFFFFFFFFFFFFFFFFFFFFFFFFFF AND DUP2 MSTORE PUSH1 0x20 ADD PUSH1 0x3 DUP3 ADD DUP1 SLOAD PUSH2 0x1076 SWAP1 PUSH2 0x25C1 JUMP JUMPDEST DUP1 PUSH1 0x1F ADD PUSH1 0x20 DUP1 SWAP2 DIV MUL PUSH1 0x20 ADD PUSH1 0x40 MLOAD SWAP1 DUP2 ADD PUSH1 0x40 MSTORE DUP1 SWAP3 SWAP2 SWAP1 DUP2 DUP2 MSTORE PUSH1 0x20 ADD DUP3 DUP1 SLOAD PUSH2 0x10A2 SWAP1 PUSH2 0x25C1 JUMP JUMPDEST DUP1 ISZERO PUSH2 0x10ED JUMPI DUP1 PUSH1 0x1F LT PUSH2 0x10C4 JUMPI PUSH2 0x100 DUP1 DUP4 SLOAD DIV MUL DUP4 MSTORE SWAP2 PUSH1 0x20 ADD SWAP2 PUSH2 0x10ED JUMP JUMPDEST DUP3 ADD SWAP2 SWAP1 PUSH0 MSTORE PUSH1 0x20 PUSH0 KECCAK256 SWAP1 JUMPDEST DUP2 SLOAD DUP2 MSTORE SWAP1 PUSH1 0x1 ADD SWAP1 PUSH1 0x20 ADD DUP1 DUP4 GT PUSH2 0x10D0 JUMPI DUP3 SWAP1 SUB PUSH1 0x1F AND DUP3 ADD SWAP2 JUMPDEST POP POP POP POP POP DUP2 MSTORE PUSH1 0x20 ADD PUSH1 0x4 DUP3 ADD DUP1 SLOAD PUSH2 0x1106 SWAP1 PUSH2 0x25C1 JUMP JUMPDEST DUP1 PUSH1 0x1F ADD PUSH1 0x20 DUP1 SWAP2 DIV MUL PUSH1 0x20 ADD PUSH1 0x40 MLOAD SWAP1 DUP2 ADD PUSH1 0x40 MSTORE DUP1 SWAP3 SWAP2 SWAP1 DUP2 DUP2 MSTORE PUSH1 0x20 ADD DUP3 DUP1 SLOAD PUSH2 0x1132 SWAP1 PUSH2 0x25C1 JUMP JUMPDEST DUP1 ISZERO PUSH2 0x117D JUMPI DUP1 PUSH1 0x1F LT PUSH2 0x1154 JUMPI PUSH2 0x100 DUP1 DUP4 SLOAD DIV MUL DUP4 MSTORE SWAP2 PUSH1 0x20 ADD SWAP2 PUSH2 0x117D JUMP JUMPDEST DUP3 ADD SWAP2 SWAP1 PUSH0 MSTORE PUSH1 0x20 PUSH0 KECCAK256 SWAP1 JUMPDEST DUP2 SLOAD DUP2 MSTORE SWAP1 PUSH1 0x1 ADD SWAP1 PUSH1 0x20 ADD DUP1 DUP4 GT PUSH2 0x1160 JUMPI DUP3 SWAP1 SUB PUSH1 0x1F AND DUP3 ADD SWAP2 JUMPDEST POP POP POP POP POP DUP2 MSTORE POP POP SWAP1 POP SWAP2 SWAP1 POP JUMP JUMPDEST PUSH1 0x2 PUSH0 SWAP1 SLOAD SWAP1 PUSH2 0x100 EXP SWAP1 DIV PUSH20 0xFFFFFFFFFFFFFFFFFFFFFFFFFFFFFFFFFFFFFFFF AND DUP2 JUMP JUMPDEST DUP2 PUSH0 DUP1 DUP3 PUSH20 0xFFFFFFFFFFFFFFFFFFFFFFFFFFFFFFFFFFFFFFFF AND PUSH20 0xFFFFFFFFFFFFFFFFFFFFFFFFFFFFFFFFFFFFFFFF AND DUP2 MSTORE PUSH1 0x20 ADD SWAP1 DUP2 MSTORE PUSH1 0x20 ADD PUSH0 KECCAK256 PUSH1 0x2 ADD PUSH0 SWAP1 SLOAD SWAP1 PUSH2 0x100 EXP SWAP1 DIV PUSH20 0xFFFFFFFFFFFFFFFFFFFFFFFFFFFFFFFFFFFFFFFF AND PUSH20 0xFFFFFFFFFFFFFFFFFFFFFFFFFFFFFFFFFFFFFFFF AND CALLER PUSH20 0xFFFFFFFFFFFFFFFFFFFFFFFFFFFFFFFFFFFFFFFF AND EQ PUSH2 0x127F JUMPI PUSH1 0x40 MLOAD PUSH32 0x8C379A000000000000000000000000000000000000000000000000000000000 DUP2 MSTORE PUSH1 0x4 ADD PUSH2 0x1276 SWAP1 PUSH2 0x2C70 JUMP JUMPDEST PUSH1 0x40 MLOAD DUP1 SWAP2 SUB SWAP1 REVERT JUMPDEST DUP3 PUSH0 DUP1 DUP3 PUSH20 0xFFFFFFFFFFFFFFFFFFFFFFFFFFFFFFFFFFFFFFFF AND PUSH20 0xFFFFFFFFFFFFFFFFFFFFFFFFFFFFFFFFFFFFFFFF AND DUP2 MSTORE PUSH1 0x20 ADD SWAP1 DUP2 MSTORE PUSH1 0x20 ADD PUSH0 KECCAK256 PUSH0 ADD PUSH1 0x14 SWAP1 SLOAD SWAP1 PUSH2 0x100 EXP SWAP1 DIV PUSH1 0xFF AND PUSH2 0x130B JUMPI PUSH1 0x40 MLOAD PUSH32 0x8C379A000000000000000000000000000000000000000000000000000000000 DUP2 MSTORE PUSH1 0x4 ADD PUSH2 0x1302 SWAP1 PUSH2 0x2917 JUMP JUMPDEST PUSH1 0x40 MLOAD DUP1 SWAP2 SUB SWAP1 REVERT JUMPDEST PUSH0 DUP4 GT PUSH2 0x134D JUMPI PUSH1 0x40 MLOAD PUSH32 0x8C379A000000000000000000000000000000000000000000000000000000000 DUP2 MSTORE PUSH1 0x4 ADD PUSH2 0x1344 SWAP1 PUSH2 0x2CD8 JUMP JUMPDEST PUSH1 0x40 MLOAD DUP1 SWAP2 SUB SWAP1 REVERT JUMPDEST PUSH0 DUP5 SWAP1 POP PUSH0 DUP2 PUSH20 0xFFFFFFFFFFFFFFFFFFFFFFFFFFFFFFFFFFFFFFFF AND PUSH4 0x70A08231 ADDRESS PUSH1 0x40 MLOAD DUP3 PUSH4 0xFFFFFFFF AND PUSH1 0xE0 SHL DUP2 MSTORE PUSH1 0x4 ADD PUSH2 0x138B SWAP2 SWAP1 PUSH2 0x219A JUMP JUMPDEST PUSH1 0x20 PUSH1 0x40 MLOAD DUP1 DUP4 SUB DUP2 DUP7 GAS STATICCALL ISZERO DUP1 ISZERO PUSH2 0x13A6 JUMPI RETURNDATASIZE PUSH0 DUP1 RETURNDATACOPY RETURNDATASIZE PUSH0 REVERT JUMPDEST POP POP POP POP PUSH1 0x40 MLOAD RETURNDATASIZE PUSH1 0x1F NOT PUSH1 0x1F DUP3 ADD AND DUP3 ADD DUP1 PUSH1 0x40 MSTORE POP DUP2 ADD SWAP1 PUSH2 0x13CA SWAP2 SWAP1 PUSH2 0x2D0A JUMP JUMPDEST SWAP1 POP DUP5 DUP2 LT ISZERO PUSH2 0x140F JUMPI PUSH1 0x40 MLOAD PUSH32 0x8C379A000000000000000000000000000000000000000000000000000000000 DUP2 MSTORE PUSH1 0x4 ADD PUSH2 0x1406 SWAP1 PUSH2 0x2D7F JUMP JUMPDEST PUSH1 0x40 MLOAD DUP1 SWAP2 SUB SWAP1 REVERT JUMPDEST DUP2 PUSH20 0xFFFFFFFFFFFFFFFFFFFFFFFFFFFFFFFFFFFFFFFF AND PUSH4 0xA9059CBB CALLER DUP8 PUSH1 0x40 MLOAD DUP4 PUSH4 0xFFFFFFFF AND PUSH1 0xE0 SHL DUP2 MSTORE PUSH1 0x4 ADD PUSH2 0x144A SWAP3 SWAP2 SWAP1 PUSH2 0x2B42 JUMP JUMPDEST PUSH1 0x20 PUSH1 0x40 MLOAD DUP1 DUP4 SUB DUP2 PUSH0 DUP8 GAS CALL ISZERO DUP1 ISZERO PUSH2 0x1466 JUMPI RETURNDATASIZE PUSH0 DUP1 RETURNDATACOPY RETURNDATASIZE PUSH0 REVERT JUMPDEST POP POP POP POP PUSH1 0x40 MLOAD RETURNDATASIZE PUSH1 0x1F NOT PUSH1 0x1F DUP3 ADD AND DUP3 ADD DUP1 PUSH1 0x40 MSTORE POP DUP2 ADD SWAP1 PUSH2 0x148A SWAP2 SWAP1 PUSH2 0x2B93 JUMP JUMPDEST PUSH2 0x14C9 JUMPI PUSH1 0x40 MLOAD PUSH32 0x8C379A000000000000000000000000000000000000000000000000000000000 DUP2 MSTORE PUSH1 0x4 ADD PUSH2 0x14C0 SWAP1 PUSH2 0x2DE7 JUMP JUMPDEST PUSH1 0x40 MLOAD DUP1 SWAP2 SUB SWAP1 REVERT JUMPDEST CALLER PUSH20 0xFFFFFFFFFFFFFFFFFFFFFFFFFFFFFFFFFFFFFFFF AND DUP7 PUSH20 0xFFFFFFFFFFFFFFFFFFFFFFFFFFFFFFFFFFFFFFFF AND PUSH32 0x168D0B28F073C346700400252A3D9353BCEBD06BD7DD82AD5CC5C57A773BB06E DUP8 PUSH1 0x40 MLOAD PUSH2 0x1526 SWAP2 SWAP1 PUSH2 0x2416 JUMP JUMPDEST PUSH1 0x40 MLOAD DUP1 SWAP2 SUB SWAP1 LOG3 POP POP POP POP POP POP JUMP JUMPDEST PUSH1 0x60 PUSH1 0x1 DUP1 SLOAD DUP1 PUSH1 0x20 MUL PUSH1 0x20 ADD PUSH1 0x40 MLOAD SWAP1 DUP2 ADD PUSH1 0x40 MSTORE DUP1 SWAP3 SWAP2 SWAP1 DUP2 DUP2 MSTORE PUSH1 0x20 ADD DUP3 DUP1 SLOAD DUP1 ISZERO PUSH2 0x15B7 JUMPI PUSH1 0x20 MUL DUP3 ADD SWAP2 SWAP1 PUSH0 MSTORE PUSH1 0x20 PUSH0 KECCAK256 SWAP1 JUMPDEST DUP2 PUSH0 SWAP1 SLOAD SWAP1 PUSH2 0x100 EXP SWAP1 DIV PUSH20 0xFFFFFFFFFFFFFFFFFFFFFFFFFFFFFFFFFFFFFFFF AND PUSH20 0xFFFFFFFFFFFFFFFFFFFFFFFFFFFFFFFFFFFFFFFF AND DUP2 MSTORE PUSH1 0x20 ADD SWAP1 PUSH1 0x1 ADD SWAP1 DUP1 DUP4 GT PUSH2 0x156E JUMPI JUMPDEST POP POP POP POP POP SWAP1 POP SWAP1 JUMP JUMPDEST PUSH0 PUSH1 0x20 MSTORE DUP1 PUSH0 MSTORE PUSH1 0x40 PUSH0 KECCAK256 PUSH0 SWAP2 POP SWAP1 POP DUP1 PUSH0 ADD PUSH0 SWAP1 SLOAD SWAP1 PUSH2 0x100 EXP SWAP1 DIV PUSH20 0xFFFFFFFFFFFFFFFFFFFFFFFFFFFFFFFFFFFFFFFF AND SWAP1 DUP1 PUSH0 ADD PUSH1 0x14 SWAP1 SLOAD SWAP1 PUSH2 0x100 EXP SWAP1 DIV PUSH1 0xFF AND SWAP1 DUP1 PUSH1 0x1 ADD SLOAD SWAP1 DUP1 PUSH1 0x2 ADD PUSH0 SWAP1 SLOAD SWAP1 PUSH2 0x100 EXP SWAP1 DIV PUSH20 0xFFFFFFFFFFFFFFFFFFFFFFFFFFFFFFFFFFFFFFFF AND SWAP1 DUP1 PUSH1 0x3 ADD DUP1 SLOAD PUSH2 0x1641 SWAP1 PUSH2 0x25C1 JUMP JUMPDEST DUP1 PUSH1 0x1F ADD PUSH1 0x20 DUP1 SWAP2 DIV MUL PUSH1 0x20 ADD PUSH1 0x40 MLOAD SWAP1 DUP2 ADD PUSH1 0x40 MSTORE DUP1 SWAP3 SWAP2 SWAP1 DUP2 DUP2 MSTORE PUSH1 0x20 ADD DUP3 DUP1 SLOAD PUSH2 0x166D SWAP1 PUSH2 0x25C1 JUMP JUMPDEST DUP1 ISZERO PUSH2 0x16B8 JUMPI DUP1 PUSH1 0x1F LT PUSH2 0x168F JUMPI PUSH2 0x100 DUP1 DUP4 SLOAD DIV MUL DUP4 MSTORE SWAP2 PUSH1 0x20 ADD SWAP2 PUSH2 0x16B8 JUMP JUMPDEST DUP3 ADD SWAP2 SWAP1 PUSH0 MSTORE PUSH1 0x20 PUSH0 KECCAK256 SWAP1 JUMPDEST DUP2 SLOAD DUP2 MSTORE SWAP1 PUSH1 0x1 ADD SWAP1 PUSH1 0x20 ADD DUP1 DUP4 GT PUSH2 0x169B JUMPI DUP3 SWAP1 SUB PUSH1 0x1F AND DUP3 ADD SWAP2 JUMPDEST POP POP POP POP POP SWAP1 DUP1 PUSH1 0x4 ADD DUP1 SLOAD PUSH2 0x16CD SWAP1 PUSH2 0x25C1 JUMP JUMPDEST DUP1 PUSH1 0x1F ADD PUSH1 0x20 DUP1 SWAP2 DIV MUL PUSH1 0x20 ADD PUSH1 0x40 MLOAD SWAP1 DUP2 ADD PUSH1 0x40 MSTORE DUP1 SWAP3 SWAP2 SWAP1 DUP2 DUP2 MSTORE PUSH1 0x20 ADD DUP3 DUP1 SLOAD PUSH2 0x16F9 SWAP1 PUSH2 0x25C1 JUMP JUMPDEST DUP1 ISZERO PUSH2 0x1744 JUMPI DUP1 PUSH1 0x1F LT PUSH2 0x171B JUMPI PUSH2 0x100 DUP1 DUP4 SLOAD DIV MUL DUP4 MSTORE SWAP2 PUSH1 0x20 ADD SWAP2 PUSH2 0x1744 JUMP JUMPDEST DUP3 ADD SWAP2 SWAP1 PUSH0 MSTORE PUSH1 0x20 PUSH0 KECCAK256 SWAP1 JUMPDEST DUP2 SLOAD DUP2 MSTORE SWAP1 PUSH1 0x1 ADD SWAP1 PUSH1 0x20 ADD DUP1 DUP4 GT PUSH2 0x1727 JUMPI DUP3 SWAP1 SUB PUSH1 0x1F AND DUP3 ADD SWAP2 JUMPDEST POP POP POP POP POP SWAP1 POP DUP7 JUMP JUMPDEST PUSH1 0x60 PUSH0 DUP1 JUMPDEST PUSH1 0x1 DUP1 SLOAD SWAP1 POP DUP2 LT ISZERO PUSH2 0x1848 JUMPI DUP4 PUSH20 0xFFFFFFFFFFFFFFFFFFFFFFFFFFFFFFFFFFFFFFFF AND PUSH0 DUP1 PUSH1 0x1 DUP5 DUP2 SLOAD DUP2 LT PUSH2 0x178D JUMPI PUSH2 0x178C PUSH2 0x28A0 JUMP JUMPDEST JUMPDEST SWAP1 PUSH0 MSTORE PUSH1 0x20 PUSH0 KECCAK256 ADD PUSH0 SWAP1 SLOAD SWAP1 PUSH2 0x100 EXP SWAP1 DIV PUSH20 0xFFFFFFFFFFFFFFFFFFFFFFFFFFFFFFFFFFFFFFFF AND PUSH20 0xFFFFFFFFFFFFFFFFFFFFFFFFFFFFFFFFFFFFFFFF AND PUSH20 0xFFFFFFFFFFFFFFFFFFFFFFFFFFFFFFFFFFFFFFFF AND DUP2 MSTORE PUSH1 0x20 ADD SWAP1 DUP2 MSTORE PUSH1 0x20 ADD PUSH0 KECCAK256 PUSH1 0x2 ADD PUSH0 SWAP1 SLOAD SWAP1 PUSH2 0x100 EXP SWAP1 DIV PUSH20 0xFFFFFFFFFFFFFFFFFFFFFFFFFFFFFFFFFFFFFFFF AND PUSH20 0xFFFFFFFFFFFFFFFFFFFFFFFFFFFFFFFFFFFFFFFF AND SUB PUSH2 0x183B JUMPI DUP2 DUP1 PUSH2 0x1837 SWAP1 PUSH2 0x2E05 JUMP JUMPDEST SWAP3 POP POP JUMPDEST DUP1 DUP1 PUSH1 0x1 ADD SWAP2 POP POP PUSH2 0x1753 JUMP JUMPDEST POP PUSH0 DUP2 PUSH8 0xFFFFFFFFFFFFFFFF DUP2 GT ISZERO PUSH2 0x1864 JUMPI PUSH2 0x1863 PUSH2 0x2437 JUMP JUMPDEST JUMPDEST PUSH1 0x40 MLOAD SWAP1 DUP1 DUP3 MSTORE DUP1 PUSH1 0x20 MUL PUSH1 0x20 ADD DUP3 ADD PUSH1 0x40 MSTORE DUP1 ISZERO PUSH2 0x189D JUMPI DUP2 PUSH1 0x20 ADD JUMPDEST PUSH2 0x188A PUSH2 0x1D76 JUMP JUMPDEST DUP2 MSTORE PUSH1 0x20 ADD SWAP1 PUSH1 0x1 SWAP1 SUB SWAP1 DUP2 PUSH2 0x1882 JUMPI SWAP1 POP JUMPDEST POP SWAP1 POP PUSH0 DUP1 JUMPDEST PUSH1 0x1 DUP1 SLOAD SWAP1 POP DUP2 LT ISZERO PUSH2 0x1C25 JUMPI DUP6 PUSH20 0xFFFFFFFFFFFFFFFFFFFFFFFFFFFFFFFFFFFFFFFF AND PUSH0 DUP1 PUSH1 0x1 DUP5 DUP2 SLOAD DUP2 LT PUSH2 0x18DD JUMPI PUSH2 0x18DC PUSH2 0x28A0 JUMP JUMPDEST JUMPDEST SWAP1 PUSH0 MSTORE PUSH1 0x20 PUSH0 KECCAK256 ADD PUSH0 SWAP1 SLOAD SWAP1 PUSH2 0x100 EXP SWAP1 DIV PUSH20 0xFFFFFFFFFFFFFFFFFFFFFFFFFFFFFFFFFFFFFFFF AND PUSH20 0xFFFFFFFFFFFFFFFFFFFFFFFFFFFFFFFFFFFFFFFF AND PUSH20 0xFFFFFFFFFFFFFFFFFFFFFFFFFFFFFFFFFFFFFFFF AND DUP2 MSTORE PUSH1 0x20 ADD SWAP1 DUP2 MSTORE PUSH1 0x20 ADD PUSH0 KECCAK256 PUSH1 0x2 ADD PUSH0 SWAP1 SLOAD SWAP1 PUSH2 0x100 EXP SWAP1 DIV PUSH20 0xFFFFFFFFFFFFFFFFFFFFFFFFFFFFFFFFFFFFFFFF AND PUSH20 0xFFFFFFFFFFFFFFFFFFFFFFFFFFFFFFFFFFFFFFFF AND SUB PUSH2 0x1C18 JUMPI PUSH0 DUP1 PUSH1 0x1 DUP4 DUP2 SLOAD DUP2 LT PUSH2 0x1992 JUMPI PUSH2 0x1991 PUSH2 0x28A0 JUMP JUMPDEST JUMPDEST SWAP1 PUSH0 MSTORE PUSH1 0x20 PUSH0 KECCAK256 ADD PUSH0 SWAP1 SLOAD SWAP1 PUSH2 0x100 EXP SWAP1 DIV PUSH20 0xFFFFFFFFFFFFFFFFFFFFFFFFFFFFFFFFFFFFFFFF AND PUSH20 0xFFFFFFFFFFFFFFFFFFFFFFFFFFFFFFFFFFFFFFFF AND PUSH20 0xFFFFFFFFFFFFFFFFFFFFFFFFFFFFFFFFFFFFFFFF AND DUP2 MSTORE PUSH1 0x20 ADD SWAP1 DUP2 MSTORE PUSH1 0x20 ADD PUSH0 KECCAK256 PUSH1 0x40 MLOAD DUP1 PUSH1 0xC0 ADD PUSH1 0x40 MSTORE SWAP1 DUP2 PUSH0 DUP3 ADD PUSH0 SWAP1 SLOAD SWAP1 PUSH2 0x100 EXP SWAP1 DIV PUSH20 0xFFFFFFFFFFFFFFFFFFFFFFFFFFFFFFFFFFFFFFFF AND PUSH20 0xFFFFFFFFFFFFFFFFFFFFFFFFFFFFFFFFFFFFFFFF AND PUSH20 0xFFFFFFFFFFFFFFFFFFFFFFFFFFFFFFFFFFFFFFFF AND DUP2 MSTORE PUSH1 0x20 ADD PUSH0 DUP3 ADD PUSH1 0x14 SWAP1 SLOAD SWAP1 PUSH2 0x100 EXP SWAP1 DIV PUSH1 0xFF AND ISZERO ISZERO ISZERO ISZERO DUP2 MSTORE PUSH1 0x20 ADD PUSH1 0x1 DUP3 ADD SLOAD DUP2 MSTORE PUSH1 0x20 ADD PUSH1 0x2 DUP3 ADD PUSH0 SWAP1 SLOAD SWAP1 PUSH2 0x100 EXP SWAP1 DIV PUSH20 0xFFFFFFFFFFFFFFFFFFFFFFFFFFFFFFFFFFFFFFFF AND PUSH20 0xFFFFFFFFFFFFFFFFFFFFFFFFFFFFFFFFFFFFFFFF AND PUSH20 0xFFFFFFFFFFFFFFFFFFFFFFFFFFFFFFFFFFFFFFFF AND DUP2 MSTORE PUSH1 0x20 ADD PUSH1 0x3 DUP3 ADD DUP1 SLOAD PUSH2 0x1ADB SWAP1 PUSH2 0x25C1 JUMP JUMPDEST DUP1 PUSH1 0x1F ADD PUSH1 0x20 DUP1 SWAP2 DIV MUL PUSH1 0x20 ADD PUSH1 0x40 MLOAD SWAP1 DUP2 ADD PUSH1 0x40 MSTORE DUP1 SWAP3 SWAP2 SWAP1 DUP2 DUP2 MSTORE PUSH1 0x20 ADD DUP3 DUP1 SLOAD PUSH2 0x1B07 SWAP1 PUSH2 0x25C1 JUMP JUMPDEST DUP1 ISZERO PUSH2 0x1B52 JUMPI DUP1 PUSH1 0x1F LT PUSH2 0x1B29 JUMPI PUSH2 0x100 DUP1 DUP4 SLOAD DIV MUL DUP4 MSTORE SWAP2 PUSH1 0x20 ADD SWAP2 PUSH2 0x1B52 JUMP JUMPDEST DUP3 ADD SWAP2 SWAP1 PUSH0 MSTORE PUSH1 0x20 PUSH0 KECCAK256 SWAP1 JUMPDEST DUP2 SLOAD DUP2 MSTORE SWAP1 PUSH1 0x1 ADD SWAP1 PUSH1 0x20 ADD DUP1 DUP4 GT PUSH2 0x1B35 JUMPI DUP3 SWAP1 SUB PUSH1 0x1F AND DUP3 ADD SWAP2 JUMPDEST POP POP POP POP POP DUP2 MSTORE PUSH1 0x20 ADD PUSH1 0x4 DUP3 ADD DUP1 SLOAD PUSH2 0x1B6B SWAP1 PUSH2 0x25C1 JUMP JUMPDEST DUP1 PUSH1 0x1F ADD PUSH1 0x20 DUP1 SWAP2 DIV MUL PUSH1 0x20 ADD PUSH1 0x40 MLOAD SWAP1 DUP2 ADD PUSH1 0x40 MSTORE DUP1 SWAP3 SWAP2 SWAP1 DUP2 DUP2 MSTORE PUSH1 0x20 ADD DUP3 DUP1 SLOAD PUSH2 0x1B97 SWAP1 PUSH2 0x25C1 JUMP JUMPDEST DUP1 ISZERO PUSH2 0x1BE2 JUMPI DUP1 PUSH1 0x1F LT PUSH2 0x1BB9 JUMPI PUSH2 0x100 DUP1 DUP4 SLOAD DIV MUL DUP4 MSTORE SWAP2 PUSH1 0x20 ADD SWAP2 PUSH2 0x1BE2 JUMP JUMPDEST DUP3 ADD SWAP2 SWAP1 PUSH0 MSTORE PUSH1 0x20 PUSH0 KECCAK256 SWAP1 JUMPDEST DUP2 SLOAD DUP2 MSTORE SWAP1 PUSH1 0x1 ADD SWAP1 PUSH1 0x20 ADD DUP1 DUP4 GT PUSH2 0x1BC5 JUMPI DUP3 SWAP1 SUB PUSH1 0x1F AND DUP3 ADD SWAP2 JUMPDEST POP POP POP POP POP DUP2 MSTORE POP POP DUP4 DUP4 DUP2 MLOAD DUP2 LT PUSH2 0x1BFE JUMPI PUSH2 0x1BFD PUSH2 0x28A0 JUMP JUMPDEST JUMPDEST PUSH1 0x20 MUL PUSH1 0x20 ADD ADD DUP2 SWAP1 MSTORE POP DUP2 DUP1 PUSH2 0x1C14 SWAP1 PUSH2 0x2E05 JUMP JUMPDEST SWAP3 POP POP JUMPDEST DUP1 DUP1 PUSH1 0x1 ADD SWAP2 POP POP PUSH2 0x18A3 JUMP JUMPDEST POP DUP2 SWAP4 POP POP POP POP SWAP2 SWAP1 POP JUMP JUMPDEST PUSH0 DUP1 PUSH0 DUP4 PUSH20 0xFFFFFFFFFFFFFFFFFFFFFFFFFFFFFFFFFFFFFFFF AND PUSH20 0xFFFFFFFFFFFFFFFFFFFFFFFFFFFFFFFFFFFFFFFF AND DUP2 MSTORE PUSH1 0x20 ADD SWAP1 DUP2 MSTORE PUSH1 0x20 ADD PUSH0 KECCAK256 PUSH0 ADD PUSH1 0x14 SWAP1 SLOAD SWAP1 PUSH2 0x100 EXP SWAP1 DIV PUSH1 0xFF AND PUSH2 0x1CBD JUMPI PUSH1 0x40 MLOAD PUSH32 0x8C379A000000000000000000000000000000000000000000000000000000000 DUP2 MSTORE PUSH1 0x4 ADD PUSH2 0x1CB4 SWAP1 PUSH2 0x2917 JUMP JUMPDEST PUSH1 0x40 MLOAD DUP1 SWAP2 SUB SWAP1 REVERT JUMPDEST PUSH0 DUP3 SWAP1 POP DUP1 PUSH20 0xFFFFFFFFFFFFFFFFFFFFFFFFFFFFFFFFFFFFFFFF AND PUSH4 0x70A08231 ADDRESS PUSH1 0x40 MLOAD DUP3 PUSH4 0xFFFFFFFF AND PUSH1 0xE0 SHL DUP2 MSTORE PUSH1 0x4 ADD PUSH2 0x1CFA SWAP2 SWAP1 PUSH2 0x219A JUMP JUMPDEST PUSH1 0x20 PUSH1 0x40 MLOAD DUP1 DUP4 SUB DUP2 DUP7 GAS STATICCALL ISZERO DUP1 ISZERO PUSH2 0x1D15 JUMPI RETURNDATASIZE PUSH0 DUP1 RETURNDATACOPY RETURNDATASIZE PUSH0 REVERT JUMPDEST POP POP POP POP PUSH1 0x40 MLOAD RETURNDATASIZE PUSH1 0x1F NOT PUSH1 0x1F DUP3 ADD AND DUP3 ADD DUP1 PUSH1 0x40 MSTORE POP DUP2 ADD SWAP1 PUSH2 0x1D39 SWAP2 SWAP1 PUSH2 0x2D0A JUMP JUMPDEST SWAP2 POP POP SWAP2 SWAP1 POP JUMP JUMPDEST PUSH0 DUP1 DUP3 EQ DUP1 PUSH2 0x1D68 JUMPI POP DUP3 DUP3 DUP4 DUP6 PUSH2 0x1D59 SWAP2 SWAP1 PUSH2 0x2B01 JUMP JUMPDEST SWAP3 POP DUP3 PUSH2 0x1D66 SWAP2 SWAP1 PUSH2 0x2E79 JUMP JUMPDEST EQ JUMPDEST PUSH2 0x1D70 JUMPI PUSH0 DUP1 REVERT JUMPDEST SWAP3 SWAP2 POP POP JUMP JUMPDEST PUSH1 0x40 MLOAD DUP1 PUSH1 0xC0 ADD PUSH1 0x40 MSTORE DUP1 PUSH0 PUSH20 0xFFFFFFFFFFFFFFFFFFFFFFFFFFFFFFFFFFFFFFFF AND DUP2 MSTORE PUSH1 0x20 ADD PUSH0 ISZERO ISZERO DUP2 MSTORE PUSH1 0x20 ADD PUSH0 DUP2 MSTORE PUSH1 0x20 ADD PUSH0 PUSH20 0xFFFFFFFFFFFFFFFFFFFFFFFFFFFFFFFFFFFFFFFF AND DUP2 MSTORE PUSH1 0x20 ADD PUSH1 0x60 DUP2 MSTORE PUSH1 0x20 ADD PUSH1 0x60 DUP2 MSTORE POP SWAP1 JUMP JUMPDEST PUSH0 DUP3 DUP3 MSTORE PUSH1 0x20 DUP3 ADD SWAP1 POP SWAP3 SWAP2 POP POP JUMP JUMPDEST PUSH32 0x436F6E747261637420646F6573206E6F74206163636570742045746865722064 PUSH0 DUP3 ADD MSTORE PUSH32 0x69726563746C7900000000000000000000000000000000000000000000000000 PUSH1 0x20 DUP3 ADD MSTORE POP JUMP JUMPDEST PUSH0 PUSH2 0x1E40 PUSH1 0x27 DUP4 PUSH2 0x1DD6 JUMP JUMPDEST SWAP2 POP PUSH2 0x1E4B DUP3 PUSH2 0x1DE6 JUMP JUMPDEST PUSH1 0x40 DUP3 ADD SWAP1 POP SWAP2 SWAP1 POP JUMP JUMPDEST PUSH0 PUSH1 0x20 DUP3 ADD SWAP1 POP DUP2 DUP2 SUB PUSH0 DUP4 ADD MSTORE PUSH2 0x1E6D DUP2 PUSH2 0x1E34 JUMP JUMPDEST SWAP1 POP SWAP2 SWAP1 POP JUMP JUMPDEST PUSH0 PUSH1 0x40 MLOAD SWAP1 POP SWAP1 JUMP JUMPDEST PUSH0 DUP1 REVERT JUMPDEST PUSH0 DUP1 REVERT JUMPDEST PUSH0 PUSH20 0xFFFFFFFFFFFFFFFFFFFFFFFFFFFFFFFFFFFFFFFF DUP3 AND SWAP1 POP SWAP2 SWAP1 POP JUMP JUMPDEST PUSH0 PUSH2 0x1EAE DUP3 PUSH2 0x1E85 JUMP JUMPDEST SWAP1 POP SWAP2 SWAP1 POP JUMP JUMPDEST PUSH2 0x1EBE DUP2 PUSH2 0x1EA4 JUMP JUMPDEST DUP2 EQ PUSH2 0x1EC8 JUMPI PUSH0 DUP1 REVERT JUMPDEST POP JUMP JUMPDEST PUSH0 DUP2 CALLDATALOAD SWAP1 POP PUSH2 0x1ED9 DUP2 PUSH2 0x1EB5 JUMP JUMPDEST SWAP3 SWAP2 POP POP JUMP JUMPDEST PUSH0 DUP2 SWAP1 POP SWAP2 SWAP1 POP JUMP JUMPDEST PUSH2 0x1EF1 DUP2 PUSH2 0x1EDF JUMP JUMPDEST DUP2 EQ PUSH2 0x1EFB JUMPI PUSH0 DUP1 REVERT JUMPDEST POP JUMP JUMPDEST PUSH0 DUP2 CALLDATALOAD SWAP1 POP PUSH2 0x1F0C DUP2 PUSH2 0x1EE8 JUMP JUMPDEST SWAP3 SWAP2 POP POP JUMP JUMPDEST PUSH0 DUP1 PUSH1 0x40 DUP4 DUP6 SUB SLT ISZERO PUSH2 0x1F28 JUMPI PUSH2 0x1F27 PUSH2 0x1E7D JUMP JUMPDEST JUMPDEST PUSH0 PUSH2 0x1F35 DUP6 DUP3 DUP7 ADD PUSH2 0x1ECB JUMP JUMPDEST SWAP3 POP POP PUSH1 0x20 PUSH2 0x1F46 DUP6 DUP3 DUP7 ADD PUSH2 0x1EFE JUMP JUMPDEST SWAP2 POP POP SWAP3 POP SWAP3 SWAP1 POP JUMP JUMPDEST PUSH0 DUP2 MLOAD SWAP1 POP SWAP2 SWAP1 POP JUMP JUMPDEST PUSH0 DUP3 DUP3 MSTORE PUSH1 0x20 DUP3 ADD SWAP1 POP SWAP3 SWAP2 POP POP JUMP JUMPDEST PUSH0 DUP2 SWAP1 POP PUSH1 0x20 DUP3 ADD SWAP1 POP SWAP2 SWAP1 POP JUMP JUMPDEST PUSH2 0x1F82 DUP2 PUSH2 0x1EA4 JUMP JUMPDEST DUP3 MSTORE POP POP JUMP JUMPDEST PUSH0 DUP2 ISZERO ISZERO SWAP1 POP SWAP2 SWAP1 POP JUMP JUMPDEST PUSH2 0x1F9C DUP2 PUSH2 0x1F88 JUMP JUMPDEST DUP3 MSTORE POP POP JUMP JUMPDEST PUSH2 0x1FAB DUP2 PUSH2 0x1EDF JUMP JUMPDEST DUP3 MSTORE POP POP JUMP JUMPDEST PUSH0 DUP2 MLOAD SWAP1 POP SWAP2 SWAP1 POP JUMP JUMPDEST PUSH0 DUP3 DUP3 MSTORE PUSH1 0x20 DUP3 ADD SWAP1 POP SWAP3 SWAP2 POP POP JUMP JUMPDEST DUP3 DUP2 DUP4 MCOPY PUSH0 DUP4 DUP4 ADD MSTORE POP POP POP JUMP JUMPDEST PUSH0 PUSH1 0x1F NOT PUSH1 0x1F DUP4 ADD AND SWAP1 POP SWAP2 SWAP1 POP JUMP JUMPDEST PUSH0 PUSH2 0x1FF3 DUP3 PUSH2 0x1FB1 JUMP JUMPDEST PUSH2 0x1FFD DUP2 DUP6 PUSH2 0x1FBB JUMP JUMPDEST SWAP4 POP PUSH2 0x200D DUP2 DUP6 PUSH1 0x20 DUP7 ADD PUSH2 0x1FCB JUMP JUMPDEST PUSH2 0x2016 DUP2 PUSH2 0x1FD9 JUMP JUMPDEST DUP5 ADD SWAP2 POP POP SWAP3 SWAP2 POP POP JUMP JUMPDEST PUSH0 PUSH1 0xC0 DUP4 ADD PUSH0 DUP4 ADD MLOAD PUSH2 0x2036 PUSH0 DUP7 ADD DUP3 PUSH2 0x1F79 JUMP JUMPDEST POP PUSH1 0x20 DUP4 ADD MLOAD PUSH2 0x2049 PUSH1 0x20 DUP7 ADD DUP3 PUSH2 0x1F93 JUMP JUMPDEST POP PUSH1 0x40 DUP4 ADD MLOAD PUSH2 0x205C PUSH1 0x40 DUP7 ADD DUP3 PUSH2 0x1FA2 JUMP JUMPDEST POP PUSH1 0x60 DUP4 ADD MLOAD PUSH2 0x206F PUSH1 0x60 DUP7 ADD DUP3 PUSH2 0x1F79 JUMP JUMPDEST POP PUSH1 0x80 DUP4 ADD MLOAD DUP5 DUP3 SUB PUSH1 0x80 DUP7 ADD MSTORE PUSH2 0x2087 DUP3 DUP3 PUSH2 0x1FE9 JUMP JUMPDEST SWAP2 POP POP PUSH1 0xA0 DUP4 ADD MLOAD DUP5 DUP3 SUB PUSH1 0xA0 DUP7 ADD MSTORE PUSH2 0x20A1 DUP3 DUP3 PUSH2 0x1FE9 JUMP JUMPDEST SWAP2 POP POP DUP1 SWAP2 POP POP SWAP3 SWAP2 POP POP JUMP JUMPDEST PUSH0 PUSH2 0x20B9 DUP4 DUP4 PUSH2 0x2021 JUMP JUMPDEST SWAP1 POP SWAP3 SWAP2 POP POP JUMP JUMPDEST PUSH0 PUSH1 0x20 DUP3 ADD SWAP1 POP SWAP2 SWAP1 POP JUMP JUMPDEST PUSH0 PUSH2 0x20D7 DUP3 PUSH2 0x1F50 JUMP JUMPDEST PUSH2 0x20E1 DUP2 DUP6 PUSH2 0x1F5A JUMP JUMPDEST SWAP4 POP DUP4 PUSH1 0x20 DUP3 MUL DUP6 ADD PUSH2 0x20F3 DUP6 PUSH2 0x1F6A JUMP JUMPDEST DUP1 PUSH0 JUMPDEST DUP6 DUP2 LT ISZERO PUSH2 0x212E JUMPI DUP5 DUP5 SUB DUP10 MSTORE DUP2 MLOAD PUSH2 0x210F DUP6 DUP3 PUSH2 0x20AE JUMP JUMPDEST SWAP5 POP PUSH2 0x211A DUP4 PUSH2 0x20C1 JUMP JUMPDEST SWAP3 POP PUSH1 0x20 DUP11 ADD SWAP10 POP POP PUSH1 0x1 DUP2 ADD SWAP1 POP PUSH2 0x20F6 JUMP JUMPDEST POP DUP3 SWAP8 POP DUP8 SWAP6 POP POP POP POP POP POP SWAP3 SWAP2 POP POP JUMP JUMPDEST PUSH0 PUSH1 0x20 DUP3 ADD SWAP1 POP DUP2 DUP2 SUB PUSH0 DUP4 ADD MSTORE PUSH2 0x2158 DUP2 DUP5 PUSH2 0x20CD JUMP JUMPDEST SWAP1 POP SWAP3 SWAP2 POP POP JUMP JUMPDEST PUSH0 PUSH1 0x20 DUP3 DUP5 SUB SLT ISZERO PUSH2 0x2175 JUMPI PUSH2 0x2174 PUSH2 0x1E7D JUMP JUMPDEST JUMPDEST PUSH0 PUSH2 0x2182 DUP5 DUP3 DUP6 ADD PUSH2 0x1EFE JUMP JUMPDEST SWAP2 POP POP SWAP3 SWAP2 POP POP JUMP JUMPDEST PUSH2 0x2194 DUP2 PUSH2 0x1EA4 JUMP JUMPDEST DUP3 MSTORE POP POP JUMP JUMPDEST PUSH0 PUSH1 0x20 DUP3 ADD SWAP1 POP PUSH2 0x21AD PUSH0 DUP4 ADD DUP5 PUSH2 0x218B JUMP JUMPDEST SWAP3 SWAP2 POP POP JUMP JUMPDEST PUSH0 PUSH1 0x20 DUP3 DUP5 SUB SLT ISZERO PUSH2 0x21C8 JUMPI PUSH2 0x21C7 PUSH2 0x1E7D JUMP JUMPDEST JUMPDEST PUSH0 PUSH2 0x21D5 DUP5 DUP3 DUP6 ADD PUSH2 0x1ECB JUMP JUMPDEST SWAP2 POP POP SWAP3 SWAP2 POP POP JUMP JUMPDEST PUSH0 PUSH1 0xC0 DUP4 ADD PUSH0 DUP4 ADD MLOAD PUSH2 0x21F3 PUSH0 DUP7 ADD DUP3 PUSH2 0x1F79 JUMP JUMPDEST POP PUSH1 0x20 DUP4 ADD MLOAD PUSH2 0x2206 PUSH1 0x20 DUP7 ADD DUP3 PUSH2 0x1F93 JUMP JUMPDEST POP PUSH1 0x40 DUP4 ADD MLOAD PUSH2 0x2219 PUSH1 0x40 DUP7 ADD DUP3 PUSH2 0x1FA2 JUMP JUMPDEST POP PUSH1 0x60 DUP4 ADD MLOAD PUSH2 0x222C PUSH1 0x60 DUP7 ADD DUP3 PUSH2 0x1F79 JUMP JUMPDEST POP PUSH1 0x80 DUP4 ADD MLOAD DUP5 DUP3 SUB PUSH1 0x80 DUP7 ADD MSTORE PUSH2 0x2244 DUP3 DUP3 PUSH2 0x1FE9 JUMP JUMPDEST SWAP2 POP POP PUSH1 0xA0 DUP4 ADD MLOAD DUP5 DUP3 SUB PUSH1 0xA0 DUP7 ADD MSTORE PUSH2 0x225E DUP3 DUP3 PUSH2 0x1FE9 JUMP JUMPDEST SWAP2 POP POP DUP1 SWAP2 POP POP SWAP3 SWAP2 POP POP JUMP JUMPDEST PUSH0 PUSH1 0x20 DUP3 ADD SWAP1 POP DUP2 DUP2 SUB PUSH0 DUP4 ADD MSTORE PUSH2 0x2283 DUP2 DUP5 PUSH2 0x21DE JUMP JUMPDEST SWAP1 POP SWAP3 SWAP2 POP POP JUMP JUMPDEST PUSH0 DUP2 MLOAD SWAP1 POP SWAP2 SWAP1 POP JUMP JUMPDEST PUSH0 DUP3 DUP3 MSTORE PUSH1 0x20 DUP3 ADD SWAP1 POP SWAP3 SWAP2 POP POP JUMP JUMPDEST PUSH0 DUP2 SWAP1 POP PUSH1 0x20 DUP3 ADD SWAP1 POP SWAP2 SWAP1 POP JUMP JUMPDEST PUSH0 PUSH2 0x22BF DUP4 DUP4 PUSH2 0x1F79 JUMP JUMPDEST PUSH1 0x20 DUP4 ADD SWAP1 POP SWAP3 SWAP2 POP POP JUMP JUMPDEST PUSH0 PUSH1 0x20 DUP3 ADD SWAP1 POP SWAP2 SWAP1 POP JUMP JUMPDEST PUSH0 PUSH2 0x22E1 DUP3 PUSH2 0x228B JUMP JUMPDEST PUSH2 0x22EB DUP2 DUP6 PUSH2 0x2295 JUMP JUMPDEST SWAP4 POP PUSH2 0x22F6 DUP4 PUSH2 0x22A5 JUMP JUMPDEST DUP1 PUSH0 JUMPDEST DUP4 DUP2 LT ISZERO PUSH2 0x2326 JUMPI DUP2 MLOAD PUSH2 0x230D DUP9 DUP3 PUSH2 0x22B4 JUMP JUMPDEST SWAP8 POP PUSH2 0x2318 DUP4 PUSH2 0x22CB JUMP JUMPDEST SWAP3 POP POP PUSH1 0x1 DUP2 ADD SWAP1 POP PUSH2 0x22F9 JUMP JUMPDEST POP DUP6 SWAP4 POP POP POP POP SWAP3 SWAP2 POP POP JUMP JUMPDEST PUSH0 PUSH1 0x20 DUP3 ADD SWAP1 POP DUP2 DUP2 SUB PUSH0 DUP4 ADD MSTORE PUSH2 0x234B DUP2 DUP5 PUSH2 0x22D7 JUMP JUMPDEST SWAP1 POP SWAP3 SWAP2 POP POP JUMP JUMPDEST PUSH2 0x235C DUP2 PUSH2 0x1F88 JUMP JUMPDEST DUP3 MSTORE POP POP JUMP JUMPDEST PUSH2 0x236B DUP2 PUSH2 0x1EDF JUMP JUMPDEST DUP3 MSTORE POP POP JUMP JUMPDEST PUSH0 PUSH2 0x237B DUP3 PUSH2 0x1FB1 JUMP JUMPDEST PUSH2 0x2385 DUP2 DUP6 PUSH2 0x1DD6 JUMP JUMPDEST SWAP4 POP PUSH2 0x2395 DUP2 DUP6 PUSH1 0x20 DUP7 ADD PUSH2 0x1FCB JUMP JUMPDEST PUSH2 0x239E DUP2 PUSH2 0x1FD9 JUMP JUMPDEST DUP5 ADD SWAP2 POP POP SWAP3 SWAP2 POP POP JUMP JUMPDEST PUSH0 PUSH1 0xC0 DUP3 ADD SWAP1 POP PUSH2 0x23BC PUSH0 DUP4 ADD DUP10 PUSH2 0x218B JUMP JUMPDEST PUSH2 0x23C9 PUSH1 0x20 DUP4 ADD DUP9 PUSH2 0x2353 JUMP JUMPDEST PUSH2 0x23D6 PUSH1 0x40 DUP4 ADD DUP8 PUSH2 0x2362 JUMP JUMPDEST PUSH2 0x23E3 PUSH1 0x60 DUP4 ADD DUP7 PUSH2 0x218B JUMP JUMPDEST DUP2 DUP2 SUB PUSH1 0x80 DUP4 ADD MSTORE PUSH2 0x23F5 DUP2 DUP6 PUSH2 0x2371 JUMP JUMPDEST SWAP1 POP DUP2 DUP2 SUB PUSH1 0xA0 DUP4 ADD MSTORE PUSH2 0x2409 DUP2 DUP5 PUSH2 0x2371 JUMP JUMPDEST SWAP1 POP SWAP8 SWAP7 POP POP POP POP POP POP POP JUMP JUMPDEST PUSH0 PUSH1 0x20 DUP3 ADD SWAP1 POP PUSH2 0x2429 PUSH0 DUP4 ADD DUP5 PUSH2 0x2362 JUMP JUMPDEST SWAP3 SWAP2 POP POP JUMP JUMPDEST PUSH0 DUP1 REVERT JUMPDEST PUSH0 DUP1 REVERT JUMPDEST PUSH32 0x4E487B7100000000000000000000000000000000000000000000000000000000 PUSH0 MSTORE PUSH1 0x41 PUSH1 0x4 MSTORE PUSH1 0x24 PUSH0 REVERT JUMPDEST PUSH2 0x246D DUP3 PUSH2 0x1FD9 JUMP JUMPDEST DUP2 ADD DUP2 DUP2 LT PUSH8 0xFFFFFFFFFFFFFFFF DUP3 GT OR ISZERO PUSH2 0x248C JUMPI PUSH2 0x248B PUSH2 0x2437 JUMP JUMPDEST JUMPDEST DUP1 PUSH1 0x40 MSTORE POP POP POP JUMP JUMPDEST PUSH0 PUSH2 0x249E PUSH2 0x1E74 JUMP JUMPDEST SWAP1 POP PUSH2 0x24AA DUP3 DUP3 PUSH2 0x2464 JUMP JUMPDEST SWAP2 SWAP1 POP JUMP JUMPDEST PUSH0 PUSH8 0xFFFFFFFFFFFFFFFF DUP3 GT ISZERO PUSH2 0x24C9 JUMPI PUSH2 0x24C8 PUSH2 0x2437 JUMP JUMPDEST JUMPDEST PUSH2 0x24D2 DUP3 PUSH2 0x1FD9 JUMP JUMPDEST SWAP1 POP PUSH1 0x20 DUP2 ADD SWAP1 POP SWAP2 SWAP1 POP JUMP JUMPDEST PUSH0 PUSH2 0x24F1 PUSH2 0x24EC DUP5 PUSH2 0x24AF JUMP JUMPDEST PUSH2 0x2495 JUMP JUMPDEST SWAP1 POP DUP3 DUP2 MSTORE PUSH1 0x20 DUP2 ADD DUP5 DUP5 DUP5 ADD GT ISZERO PUSH2 0x250D JUMPI PUSH2 0x250C PUSH2 0x2433 JUMP JUMPDEST JUMPDEST PUSH2 0x2518 DUP5 DUP3 DUP6 PUSH2 0x1FCB JUMP JUMPDEST POP SWAP4 SWAP3 POP POP POP JUMP JUMPDEST PUSH0 DUP3 PUSH1 0x1F DUP4 ADD SLT PUSH2 0x2534 JUMPI PUSH2 0x2533 PUSH2 0x242F JUMP JUMPDEST JUMPDEST DUP2 MLOAD PUSH2 0x2544 DUP5 DUP3 PUSH1 0x20 DUP7 ADD PUSH2 0x24DF JUMP JUMPDEST SWAP2 POP POP SWAP3 SWAP2 POP POP JUMP JUMPDEST PUSH0 PUSH1 0x20 DUP3 DUP5 SUB SLT ISZERO PUSH2 0x2562 JUMPI PUSH2 0x2561 PUSH2 0x1E7D JUMP JUMPDEST JUMPDEST PUSH0 DUP3 ADD MLOAD PUSH8 0xFFFFFFFFFFFFFFFF DUP2 GT ISZERO PUSH2 0x257F JUMPI PUSH2 0x257E PUSH2 0x1E81 JUMP JUMPDEST JUMPDEST PUSH2 0x258B DUP5 DUP3 DUP6 ADD PUSH2 0x2520 JUMP JUMPDEST SWAP2 POP POP SWAP3 SWAP2 POP POP JUMP JUMPDEST PUSH32 0x4E487B7100000000000000000000000000000000000000000000000000000000 PUSH0 MSTORE PUSH1 0x22 PUSH1 0x4 MSTORE PUSH1 0x24 PUSH0 REVERT JUMPDEST PUSH0 PUSH1 0x2 DUP3 DIV SWAP1 POP PUSH1 0x1 DUP3 AND DUP1 PUSH2 0x25D8 JUMPI PUSH1 0x7F DUP3 AND SWAP2 POP JUMPDEST PUSH1 0x20 DUP3 LT DUP2 SUB PUSH2 0x25EB JUMPI PUSH2 0x25EA PUSH2 0x2594 JUMP JUMPDEST JUMPDEST POP SWAP2 SWAP1 POP JUMP JUMPDEST PUSH0 DUP2 SWAP1 POP DUP2 PUSH0 MSTORE PUSH1 0x20 PUSH0 KECCAK256 SWAP1 POP SWAP2 SWAP1 POP JUMP JUMPDEST PUSH0 PUSH1 0x20 PUSH1 0x1F DUP4 ADD DIV SWAP1 POP SWAP2 SWAP1 POP JUMP JUMPDEST PUSH0 DUP3 DUP3 SHL SWAP1 POP SWAP3 SWAP2 POP POP JUMP JUMPDEST PUSH0 PUSH1 0x8 DUP4 MUL PUSH2 0x264D PUSH32 0xFFFFFFFFFFFFFFFFFFFFFFFFFFFFFFFFFFFFFFFFFFFFFFFFFFFFFFFFFFFFFFFF DUP3 PUSH2 0x2612 JUMP JUMPDEST PUSH2 0x2657 DUP7 DUP4 PUSH2 0x2612 JUMP JUMPDEST SWAP6 POP DUP1 NOT DUP5 AND SWAP4 POP DUP1 DUP7 AND DUP5 OR SWAP3 POP POP POP SWAP4 SWAP3 POP POP POP JUMP JUMPDEST PUSH0 DUP2 SWAP1 POP SWAP2 SWAP1 POP JUMP JUMPDEST PUSH0 PUSH2 0x2692 PUSH2 0x268D PUSH2 0x2688 DUP5 PUSH2 0x1EDF JUMP JUMPDEST PUSH2 0x266F JUMP JUMPDEST PUSH2 0x1EDF JUMP JUMPDEST SWAP1 POP SWAP2 SWAP1 POP JUMP JUMPDEST PUSH0 DUP2 SWAP1 POP SWAP2 SWAP1 POP JUMP JUMPDEST PUSH2 0x26AB DUP4 PUSH2 0x2678 JUMP JUMPDEST PUSH2 0x26BF PUSH2 0x26B7 DUP3 PUSH2 0x2699 JUMP JUMPDEST DUP5 DUP5 SLOAD PUSH2 0x261E JUMP JUMPDEST DUP3 SSTORE POP POP POP POP JUMP JUMPDEST PUSH0 SWAP1 JUMP JUMPDEST PUSH2 0x26D3 PUSH2 0x26C7 JUMP JUMPDEST PUSH2 0x26DE DUP2 DUP5 DUP5 PUSH2 0x26A2 JUMP JUMPDEST POP POP POP JUMP JUMPDEST JUMPDEST DUP2 DUP2 LT ISZERO PUSH2 0x2701 JUMPI PUSH2 0x26F6 PUSH0 DUP3 PUSH2 0x26CB JUMP JUMPDEST PUSH1 0x1 DUP2 ADD SWAP1 POP PUSH2 0x26E4 JUMP JUMPDEST POP POP JUMP JUMPDEST PUSH1 0x1F DUP3 GT ISZERO PUSH2 0x2746 JUMPI PUSH2 0x2717 DUP2 PUSH2 0x25F1 JUMP JUMPDEST PUSH2 0x2720 DUP5 PUSH2 0x2603 JUMP JUMPDEST DUP2 ADD PUSH1 0x20 DUP6 LT ISZERO PUSH2 0x272F JUMPI DUP2 SWAP1 POP JUMPDEST PUSH2 0x2743 PUSH2 0x273B DUP6 PUSH2 0x2603 JUMP JUMPDEST DUP4 ADD DUP3 PUSH2 0x26E3 JUMP JUMPDEST POP POP JUMPDEST POP POP POP JUMP JUMPDEST PUSH0 DUP3 DUP3 SHR SWAP1 POP SWAP3 SWAP2 POP POP JUMP JUMPDEST PUSH0 PUSH2 0x2766 PUSH0 NOT DUP5 PUSH1 0x8 MUL PUSH2 0x274B JUMP JUMPDEST NOT DUP1 DUP4 AND SWAP2 POP POP SWAP3 SWAP2 POP POP JUMP JUMPDEST PUSH0 PUSH2 0x277E DUP4 DUP4 PUSH2 0x2757 JUMP JUMPDEST SWAP2 POP DUP3 PUSH1 0x2 MUL DUP3 OR SWAP1 POP SWAP3 SWAP2 POP POP JUMP JUMPDEST PUSH2 0x2797 DUP3 PUSH2 0x1FB1 JUMP JUMPDEST PUSH8 0xFFFFFFFFFFFFFFFF DUP2 GT ISZERO PUSH2 0x27B0 JUMPI PUSH2 0x27AF PUSH2 0x2437 JUMP JUMPDEST JUMPDEST PUSH2 0x27BA DUP3 SLOAD PUSH2 0x25C1 JUMP JUMPDEST PUSH2 0x27C5 DUP3 DUP3 DUP6 PUSH2 0x2705 JUMP JUMPDEST PUSH0 PUSH1 0x20 SWAP1 POP PUSH1 0x1F DUP4 GT PUSH1 0x1 DUP2 EQ PUSH2 0x27F6 JUMPI PUSH0 DUP5 ISZERO PUSH2 0x27E4 JUMPI DUP3 DUP8 ADD MLOAD SWAP1 POP JUMPDEST PUSH2 0x27EE DUP6 DUP3 PUSH2 0x2773 JUMP JUMPDEST DUP7 SSTORE POP PUSH2 0x2855 JUMP JUMPDEST PUSH1 0x1F NOT DUP5 AND PUSH2 0x2804 DUP7 PUSH2 0x25F1 JUMP JUMPDEST PUSH0 JUMPDEST DUP3 DUP2 LT ISZERO PUSH2 0x282B JUMPI DUP5 DUP10 ADD MLOAD DUP3 SSTORE PUSH1 0x1 DUP3 ADD SWAP2 POP PUSH1 0x20 DUP6 ADD SWAP5 POP PUSH1 0x20 DUP2 ADD SWAP1 POP PUSH2 0x2806 JUMP JUMPDEST DUP7 DUP4 LT ISZERO PUSH2 0x2848 JUMPI DUP5 DUP10 ADD MLOAD PUSH2 0x2844 PUSH1 0x1F DUP10 AND DUP3 PUSH2 0x2757 JUMP JUMPDEST DUP4 SSTORE POP JUMPDEST PUSH1 0x1 PUSH1 0x2 DUP9 MUL ADD DUP9 SSTORE POP POP POP JUMPDEST POP POP POP POP POP POP JUMP JUMPDEST PUSH0 PUSH1 0x60 DUP3 ADD SWAP1 POP PUSH2 0x2870 PUSH0 DUP4 ADD DUP7 PUSH2 0x2362 JUMP JUMPDEST DUP2 DUP2 SUB PUSH1 0x20 DUP4 ADD MSTORE PUSH2 0x2882 DUP2 DUP6 PUSH2 0x2371 JUMP JUMPDEST SWAP1 POP DUP2 DUP2 SUB PUSH1 0x40 DUP4 ADD MSTORE PUSH2 0x2896 DUP2 DUP5 PUSH2 0x2371 JUMP JUMPDEST SWAP1 POP SWAP5 SWAP4 POP POP POP POP JUMP JUMPDEST PUSH32 0x4E487B7100000000000000000000000000000000000000000000000000000000 PUSH0 MSTORE PUSH1 0x32 PUSH1 0x4 MSTORE PUSH1 0x24 PUSH0 REVERT JUMPDEST PUSH32 0x546F6B656E206E6F7420737570706F7274656400000000000000000000000000 PUSH0 DUP3 ADD MSTORE POP JUMP JUMPDEST PUSH0 PUSH2 0x2901 PUSH1 0x13 DUP4 PUSH2 0x1DD6 JUMP JUMPDEST SWAP2 POP PUSH2 0x290C DUP3 PUSH2 0x28CD JUMP JUMPDEST PUSH1 0x20 DUP3 ADD SWAP1 POP SWAP2 SWAP1 POP JUMP JUMPDEST PUSH0 PUSH1 0x20 DUP3 ADD SWAP1 POP DUP2 DUP2 SUB PUSH0 DUP4 ADD MSTORE PUSH2 0x292E DUP2 PUSH2 0x28F5 JUMP JUMPDEST SWAP1 POP SWAP2 SWAP1 POP JUMP JUMPDEST PUSH32 0x416D6F756E74206D7573742062652067726561746572207468616E2030000000 PUSH0 DUP3 ADD MSTORE POP JUMP JUMPDEST PUSH0 PUSH2 0x2969 PUSH1 0x1D DUP4 PUSH2 0x1DD6 JUMP JUMPDEST SWAP2 POP PUSH2 0x2974 DUP3 PUSH2 0x2935 JUMP JUMPDEST PUSH1 0x20 DUP3 ADD SWAP1 POP SWAP2 SWAP1 POP JUMP JUMPDEST PUSH0 PUSH1 0x20 DUP3 ADD SWAP1 POP DUP2 DUP2 SUB PUSH0 DUP4 ADD MSTORE PUSH2 0x2996 DUP2 PUSH2 0x295D JUMP JUMPDEST SWAP1 POP SWAP2 SWAP1 POP JUMP JUMPDEST PUSH32 0x496E636F727265637420457468657220616D6F756E742073656E740000000000 PUSH0 DUP3 ADD MSTORE POP JUMP JUMPDEST PUSH0 PUSH2 0x29D1 PUSH1 0x1B DUP4 PUSH2 0x1DD6 JUMP JUMPDEST SWAP2 POP PUSH2 0x29DC DUP3 PUSH2 0x299D JUMP JUMPDEST PUSH1 0x20 DUP3 ADD SWAP1 POP SWAP2 SWAP1 POP JUMP JUMPDEST PUSH0 PUSH1 0x20 DUP3 ADD SWAP1 POP DUP2 DUP2 SUB PUSH0 DUP4 ADD MSTORE PUSH2 0x29FE DUP2 PUSH2 0x29C5 JUMP JUMPDEST SWAP1 POP SWAP2 SWAP1 POP JUMP JUMPDEST PUSH0 DUP2 SWAP1 POP SWAP3 SWAP2 POP POP JUMP JUMPDEST POP JUMP JUMPDEST PUSH0 PUSH2 0x2A1D PUSH0 DUP4 PUSH2 0x2A05 JUMP JUMPDEST SWAP2 POP PUSH2 0x2A28 DUP3 PUSH2 0x2A0F JUMP JUMPDEST PUSH0 DUP3 ADD SWAP1 POP SWAP2 SWAP1 POP JUMP JUMPDEST PUSH0 PUSH2 0x2A3C DUP3 PUSH2 0x2A12 JUMP JUMPDEST SWAP2 POP DUP2 SWAP1 POP SWAP2 SWAP1 POP JUMP JUMPDEST PUSH32 0x4661696C6564207470207472616E736665722074686520455468657220746F20 PUSH0 DUP3 ADD MSTORE PUSH32 0x746F6B656E2063726561746F7200000000000000000000000000000000000000 PUSH1 0x20 DUP3 ADD MSTORE POP JUMP JUMPDEST PUSH0 PUSH2 0x2AA0 PUSH1 0x2D DUP4 PUSH2 0x1DD6 JUMP JUMPDEST SWAP2 POP PUSH2 0x2AAB DUP3 PUSH2 0x2A46 JUMP JUMPDEST PUSH1 0x40 DUP3 ADD SWAP1 POP SWAP2 SWAP1 POP JUMP JUMPDEST PUSH0 PUSH1 0x20 DUP3 ADD SWAP1 POP DUP2 DUP2 SUB PUSH0 DUP4 ADD MSTORE PUSH2 0x2ACD DUP2 PUSH2 0x2A94 JUMP JUMPDEST SWAP1 POP SWAP2 SWAP1 POP JUMP JUMPDEST PUSH32 0x4E487B7100000000000000000000000000000000000000000000000000000000 PUSH0 MSTORE PUSH1 0x11 PUSH1 0x4 MSTORE PUSH1 0x24 PUSH0 REVERT JUMPDEST PUSH0 PUSH2 0x2B0B DUP3 PUSH2 0x1EDF JUMP JUMPDEST SWAP2 POP PUSH2 0x2B16 DUP4 PUSH2 0x1EDF JUMP JUMPDEST SWAP3 POP DUP3 DUP3 MUL PUSH2 0x2B24 DUP2 PUSH2 0x1EDF JUMP JUMPDEST SWAP2 POP DUP3 DUP3 DIV DUP5 EQ DUP4 ISZERO OR PUSH2 0x2B3B JUMPI PUSH2 0x2B3A PUSH2 0x2AD4 JUMP JUMPDEST JUMPDEST POP SWAP3 SWAP2 POP POP JUMP JUMPDEST PUSH0 PUSH1 0x40 DUP3 ADD SWAP1 POP PUSH2 0x2B55 PUSH0 DUP4 ADD DUP6 PUSH2 0x218B JUMP JUMPDEST PUSH2 0x2B62 PUSH1 0x20 DUP4 ADD DUP5 PUSH2 0x2362 JUMP JUMPDEST SWAP4 SWAP3 POP POP POP JUMP JUMPDEST PUSH2 0x2B72 DUP2 PUSH2 0x1F88 JUMP JUMPDEST DUP2 EQ PUSH2 0x2B7C JUMPI PUSH0 DUP1 REVERT JUMPDEST POP JUMP JUMPDEST PUSH0 DUP2 MLOAD SWAP1 POP PUSH2 0x2B8D DUP2 PUSH2 0x2B69 JUMP JUMPDEST SWAP3 SWAP2 POP POP JUMP JUMPDEST PUSH0 PUSH1 0x20 DUP3 DUP5 SUB SLT ISZERO PUSH2 0x2BA8 JUMPI PUSH2 0x2BA7 PUSH2 0x1E7D JUMP JUMPDEST JUMPDEST PUSH0 PUSH2 0x2BB5 DUP5 DUP3 DUP6 ADD PUSH2 0x2B7F JUMP JUMPDEST SWAP2 POP POP SWAP3 SWAP2 POP POP JUMP JUMPDEST PUSH32 0x5472616E73666572204661696C65640000000000000000000000000000000000 PUSH0 DUP3 ADD MSTORE POP JUMP JUMPDEST PUSH0 PUSH2 0x2BF2 PUSH1 0xF DUP4 PUSH2 0x1DD6 JUMP JUMPDEST SWAP2 POP PUSH2 0x2BFD DUP3 PUSH2 0x2BBE JUMP JUMPDEST PUSH1 0x20 DUP3 ADD SWAP1 POP SWAP2 SWAP1 POP JUMP JUMPDEST PUSH0 PUSH1 0x20 DUP3 ADD SWAP1 POP DUP2 DUP2 SUB PUSH0 DUP4 ADD MSTORE PUSH2 0x2C1F DUP2 PUSH2 0x2BE6 JUMP JUMPDEST SWAP1 POP SWAP2 SWAP1 POP JUMP JUMPDEST PUSH32 0x43616C6C6572206973206E6F742074686520746F6B656E2063726561746F7200 PUSH0 DUP3 ADD MSTORE POP JUMP JUMPDEST PUSH0 PUSH2 0x2C5A PUSH1 0x1F DUP4 PUSH2 0x1DD6 JUMP JUMPDEST SWAP2 POP PUSH2 0x2C65 DUP3 PUSH2 0x2C26 JUMP JUMPDEST PUSH1 0x20 DUP3 ADD SWAP1 POP SWAP2 SWAP1 POP JUMP JUMPDEST PUSH0 PUSH1 0x20 DUP3 ADD SWAP1 POP DUP2 DUP2 SUB PUSH0 DUP4 ADD MSTORE PUSH2 0x2C87 DUP2 PUSH2 0x2C4E JUMP JUMPDEST SWAP1 POP SWAP2 SWAP1 POP JUMP JUMPDEST PUSH32 0x416D6F756E74206D75737420626520677261746572207468616E203000000000 PUSH0 DUP3 ADD MSTORE POP JUMP JUMPDEST PUSH0 PUSH2 0x2CC2 PUSH1 0x1C DUP4 PUSH2 0x1DD6 JUMP JUMPDEST SWAP2 POP PUSH2 0x2CCD DUP3 PUSH2 0x2C8E JUMP JUMPDEST PUSH1 0x20 DUP3 ADD SWAP1 POP SWAP2 SWAP1 POP JUMP JUMPDEST PUSH0 PUSH1 0x20 DUP3 ADD SWAP1 POP DUP2 DUP2 SUB PUSH0 DUP4 ADD MSTORE PUSH2 0x2CEF DUP2 PUSH2 0x2CB6 JUMP JUMPDEST SWAP1 POP SWAP2 SWAP1 POP JUMP JUMPDEST PUSH0 DUP2 MLOAD SWAP1 POP PUSH2 0x2D04 DUP2 PUSH2 0x1EE8 JUMP JUMPDEST SWAP3 SWAP2 POP POP JUMP JUMPDEST PUSH0 PUSH1 0x20 DUP3 DUP5 SUB SLT ISZERO PUSH2 0x2D1F JUMPI PUSH2 0x2D1E PUSH2 0x1E7D JUMP JUMPDEST JUMPDEST PUSH0 PUSH2 0x2D2C DUP5 DUP3 DUP6 ADD PUSH2 0x2CF6 JUMP JUMPDEST SWAP2 POP POP SWAP3 SWAP2 POP POP JUMP JUMPDEST PUSH32 0x496E73756666696369656E7420746F6B656E2062616C616E6365000000000000 PUSH0 DUP3 ADD MSTORE POP JUMP JUMPDEST PUSH0 PUSH2 0x2D69 PUSH1 0x1A DUP4 PUSH2 0x1DD6 JUMP JUMPDEST SWAP2 POP PUSH2 0x2D74 DUP3 PUSH2 0x2D35 JUMP JUMPDEST PUSH1 0x20 DUP3 ADD SWAP1 POP SWAP2 SWAP1 POP JUMP JUMPDEST PUSH0 PUSH1 0x20 DUP3 ADD SWAP1 POP DUP2 DUP2 SUB PUSH0 DUP4 ADD MSTORE PUSH2 0x2D96 DUP2 PUSH2 0x2D5D JUMP JUMPDEST SWAP1 POP SWAP2 SWAP1 POP JUMP JUMPDEST PUSH32 0x546F6B656E207472616E73666572206661696C65642121000000000000000000 PUSH0 DUP3 ADD MSTORE POP JUMP JUMPDEST PUSH0 PUSH2 0x2DD1 PUSH1 0x17 DUP4 PUSH2 0x1DD6 JUMP JUMPDEST SWAP2 POP PUSH2 0x2DDC DUP3 PUSH2 0x2D9D JUMP JUMPDEST PUSH1 0x20 DUP3 ADD SWAP1 POP SWAP2 SWAP1 POP JUMP JUMPDEST PUSH0 PUSH1 0x20 DUP3 ADD SWAP1 POP DUP2 DUP2 SUB PUSH0 DUP4 ADD MSTORE PUSH2 0x2DFE DUP2 PUSH2 0x2DC5 JUMP JUMPDEST SWAP1 POP SWAP2 SWAP1 POP JUMP JUMPDEST PUSH0 PUSH2 0x2E0F DUP3 PUSH2 0x1EDF JUMP JUMPDEST SWAP2 POP PUSH32 0xFFFFFFFFFFFFFFFFFFFFFFFFFFFFFFFFFFFFFFFFFFFFFFFFFFFFFFFFFFFFFFFF DUP3 SUB PUSH2 0x2E41 JUMPI PUSH2 0x2E40 PUSH2 0x2AD4 JUMP JUMPDEST JUMPDEST PUSH1 0x1 DUP3 ADD SWAP1 POP SWAP2 SWAP1 POP JUMP JUMPDEST PUSH32 0x4E487B7100000000000000000000000000000000000000000000000000000000 PUSH0 MSTORE PUSH1 0x12 PUSH1 0x4 MSTORE PUSH1 0x24 PUSH0 REVERT JUMPDEST PUSH0 PUSH2 0x2E83 DUP3 PUSH2 0x1EDF JUMP JUMPDEST SWAP2 POP PUSH2 0x2E8E DUP4 PUSH2 0x1EDF JUMP JUMPDEST SWAP3 POP DUP3 PUSH2 0x2E9E JUMPI PUSH2 0x2E9D PUSH2 0x2E4C JUMP JUMPDEST JUMPDEST DUP3 DUP3 DIV SWAP1 POP SWAP3 SWAP2 POP POP JUMP INVALID LOG2 PUSH5 0x6970667358 0x22 SLT KECCAK256 PUSH16 0xC8E59A38FE9A4F608EDD03DCC008EE8E PUSH24 0x6B30362CA857ACAED9204324E66564736F6C634300081A00 CALLER "
				},
				"gasEstimates": {
					"creation": {
						"codeDepositCost": "2399800",
						"executionCost": "4714",
						"totalCost": "2404514"
					},
					"external": {
						"allSupportedToken(uint256)": "5011",
						"buyToken(address,uint256)": "infinite",
						"createICOSale(address,uint256)": "infinite",
						"getAllTokens()": "infinite",
						"getBalance(address)": "infinite",
						"getSupportedTokens()": "infinite",
						"getTokenCreatedBy(address)": "infinite",
						"getTokenDetails(address)": "infinite",
						"owner()": "2508",
						"tokenDetails(address)": "infinite",
						"widthdraw(address,uint256)": "infinite"
					},
					"internal": {
						"multiply(uint256,uint256)": "infinite"
					}
				},
				"methodIdentifiers": {
					"allSupportedToken(uint256)": "6d2bb393",
					"buyToken(address,uint256)": "68f8fc10",
					"createICOSale(address,uint256)": "2a074008",
					"getAllTokens()": "2a5c792a",
					"getBalance(address)": "f8b2cb4f",
					"getSupportedTokens()": "d3c7c2c7",
					"getTokenCreatedBy(address)": "eb18c0e5",
					"getTokenDetails(address)": "88aa8bee",
					"owner()": "8da5cb5b",
					"tokenDetails(address)": "dd4be683",
					"widthdraw(address,uint256)": "c74b197c"
				}
			},
			"storageLayout": {
				"storage": [
					{
						"astId": 51,
						"contract": "ICOMarketplace.sol:ICOMarketplace",
						"label": "tokenDetails",
						"offset": 0,
						"slot": "0",
						"type": "t_mapping(t_address,t_struct(TokenDetails)46_storage)"
					},
					{
						"astId": 54,
						"contract": "ICOMarketplace.sol:ICOMarketplace",
						"label": "allSupportedToken",
						"offset": 0,
						"slot": "1",
						"type": "t_array(t_address)dyn_storage"
					},
					{
						"astId": 56,
						"contract": "ICOMarketplace.sol:ICOMarketplace",
						"label": "owner",
						"offset": 0,
						"slot": "2",
						"type": "t_address"
					}
				],
				"types": {
					"t_address": {
						"encoding": "inplace",
						"label": "address",
						"numberOfBytes": "20"
					},
					"t_array(t_address)dyn_storage": {
						"base": "t_address",
						"encoding": "dynamic_array",
						"label": "address[]",
						"numberOfBytes": "32"
					},
					"t_bool": {
						"encoding": "inplace",
						"label": "bool",
						"numberOfBytes": "1"
					},
					"t_mapping(t_address,t_struct(TokenDetails)46_storage)": {
						"encoding": "mapping",
						"key": "t_address",
						"label": "mapping(address => struct ICOMarketplace.TokenDetails)",
						"numberOfBytes": "32",
						"value": "t_struct(TokenDetails)46_storage"
					},
					"t_string_storage": {
						"encoding": "bytes",
						"label": "string",
						"numberOfBytes": "32"
					},
					"t_struct(TokenDetails)46_storage": {
						"encoding": "inplace",
						"label": "struct ICOMarketplace.TokenDetails",
						"members": [
							{
								"astId": 35,
								"contract": "ICOMarketplace.sol:ICOMarketplace",
								"label": "token",
								"offset": 0,
								"slot": "0",
								"type": "t_address"
							},
							{
								"astId": 37,
								"contract": "ICOMarketplace.sol:ICOMarketplace",
								"label": "supported",
								"offset": 20,
								"slot": "0",
								"type": "t_bool"
							},
							{
								"astId": 39,
								"contract": "ICOMarketplace.sol:ICOMarketplace",
								"label": "price",
								"offset": 0,
								"slot": "1",
								"type": "t_uint256"
							},
							{
								"astId": 41,
								"contract": "ICOMarketplace.sol:ICOMarketplace",
								"label": "creator",
								"offset": 0,
								"slot": "2",
								"type": "t_address"
							},
							{
								"astId": 43,
								"contract": "ICOMarketplace.sol:ICOMarketplace",
								"label": "name",
								"offset": 0,
								"slot": "3",
								"type": "t_string_storage"
							},
							{
								"astId": 45,
								"contract": "ICOMarketplace.sol:ICOMarketplace",
								"label": "symbol",
								"offset": 0,
								"slot": "4",
								"type": "t_string_storage"
							}
						],
						"numberOfBytes": "160"
					},
					"t_uint256": {
						"encoding": "inplace",
						"label": "uint256",
						"numberOfBytes": "32"
					}
				}
			},
			"userdoc": {
				"kind": "user",
				"methods": {},
				"version": 1
			}
		}
	}
}