{
	"cert-new2.sol": {
		"CertificateValidation": {
			"abi": [
				{
					"inputs": [],
					"stateMutability": "nonpayable",
					"type": "constructor"
				},
				{
					"anonymous": false,
					"inputs": [
						{
							"indexed": false,
							"internalType": "uint256",
							"name": "id",
							"type": "uint256"
						}
					],
					"name": "CertificateIssued",
					"type": "event"
				},
				{
					"anonymous": false,
					"inputs": [
						{
							"indexed": false,
							"internalType": "uint256",
							"name": "id",
							"type": "uint256"
						},
						{
							"indexed": false,
							"internalType": "bool",
							"name": "valid",
							"type": "bool"
						}
					],
					"name": "CertificateVerified",
					"type": "event"
				},
				{
					"anonymous": false,
					"inputs": [
						{
							"indexed": false,
							"internalType": "address",
							"name": "issuer",
							"type": "address"
						}
					],
					"name": "IssuerAdded",
					"type": "event"
				},
				{
					"anonymous": false,
					"inputs": [
						{
							"indexed": false,
							"internalType": "address",
							"name": "issuer",
							"type": "address"
						}
					],
					"name": "IssuerRemoved",
					"type": "event"
				},
				{
					"inputs": [
						{
							"internalType": "address",
							"name": "issuer",
							"type": "address"
						}
					],
					"name": "addIssuer",
					"outputs": [],
					"stateMutability": "nonpayable",
					"type": "function"
				},
				{
					"inputs": [],
					"name": "admin",
					"outputs": [
						{
							"internalType": "address",
							"name": "",
							"type": "address"
						}
					],
					"stateMutability": "view",
					"type": "function"
				},
				{
					"inputs": [
						{
							"internalType": "uint256",
							"name": "",
							"type": "uint256"
						}
					],
					"name": "certificates",
					"outputs": [
						{
							"internalType": "uint256",
							"name": "id",
							"type": "uint256"
						},
						{
							"internalType": "string",
							"name": "candidateName",
							"type": "string"
						},
						{
							"internalType": "string",
							"name": "course",
							"type": "string"
						},
						{
							"internalType": "string",
							"name": "issueDate",
							"type": "string"
						},
						{
							"internalType": "bool",
							"name": "valid",
							"type": "bool"
						},
						{
							"internalType": "bytes32",
							"name": "aiValidationHash",
							"type": "bytes32"
						}
					],
					"stateMutability": "view",
					"type": "function"
				},
				{
					"inputs": [
						{
							"internalType": "uint256",
							"name": "id",
							"type": "uint256"
						}
					],
					"name": "invalidateCertificate",
					"outputs": [],
					"stateMutability": "nonpayable",
					"type": "function"
				},
				{
					"inputs": [
						{
							"internalType": "string",
							"name": "candidateName",
							"type": "string"
						},
						{
							"internalType": "string",
							"name": "course",
							"type": "string"
						},
						{
							"internalType": "string",
							"name": "issueDate",
							"type": "string"
						}
					],
					"name": "issueCertificate",
					"outputs": [],
					"stateMutability": "nonpayable",
					"type": "function"
				},
				{
					"inputs": [
						{
							"internalType": "address",
							"name": "",
							"type": "address"
						}
					],
					"name": "issuers",
					"outputs": [
						{
							"internalType": "bool",
							"name": "",
							"type": "bool"
						}
					],
					"stateMutability": "view",
					"type": "function"
				},
				{
					"inputs": [],
					"name": "nextCertificateId",
					"outputs": [
						{
							"internalType": "uint256",
							"name": "",
							"type": "uint256"
						}
					],
					"stateMutability": "view",
					"type": "function"
				},
				{
					"inputs": [
						{
							"internalType": "address",
							"name": "issuer",
							"type": "address"
						}
					],
					"name": "removeIssuer",
					"outputs": [],
					"stateMutability": "nonpayable",
					"type": "function"
				},
				{
					"inputs": [
						{
							"internalType": "uint256",
							"name": "id",
							"type": "uint256"
						}
					],
					"name": "verifyCertificate",
					"outputs": [
						{
							"components": [
								{
									"internalType": "uint256",
									"name": "id",
									"type": "uint256"
								},
								{
									"internalType": "string",
									"name": "candidateName",
									"type": "string"
								},
								{
									"internalType": "string",
									"name": "course",
									"type": "string"
								},
								{
									"internalType": "string",
									"name": "issueDate",
									"type": "string"
								},
								{
									"internalType": "bool",
									"name": "valid",
									"type": "bool"
								},
								{
									"internalType": "bytes32",
									"name": "aiValidationHash",
									"type": "bytes32"
								}
							],
							"internalType": "struct CertificateValidation.Certificate",
							"name": "",
							"type": "tuple"
						}
					],
					"stateMutability": "view",
					"type": "function"
				}
			],
			"devdoc": {
				"kind": "dev",
				"methods": {},
				"version": 1
			},
			"evm": {
				"assembly": "    /* \"cert-new2.sol\":60:2704  contract CertificateValidation {... */\n  mstore(0x40, 0x80)\n    /* \"cert-new2.sol\":1010:1061  constructor() {... */\n  callvalue\n  dup1\n  iszero\n  tag_1\n  jumpi\n  0x00\n  dup1\n  revert\ntag_1:\n  pop\n    /* \"cert-new2.sol\":1043:1053  msg.sender */\n  caller\n    /* \"cert-new2.sol\":1035:1040  admin */\n  0x00\n  dup1\n    /* \"cert-new2.sol\":1035:1053  admin = msg.sender */\n  0x0100\n  exp\n  dup2\n  sload\n  dup2\n  0xffffffffffffffffffffffffffffffffffffffff\n  mul\n  not\n  and\n  swap1\n  dup4\n  0xffffffffffffffffffffffffffffffffffffffff\n  and\n  mul\n  or\n  swap1\n  sstore\n  pop\n    /* \"cert-new2.sol\":60:2704  contract CertificateValidation {... */\n  dataSize(sub_0)\n  dup1\n  dataOffset(sub_0)\n  0x00\n  codecopy\n  0x00\n  return\nstop\n\nsub_0: assembly {\n        /* \"cert-new2.sol\":60:2704  contract CertificateValidation {... */\n      mstore(0x40, 0x80)\n      callvalue\n      dup1\n      iszero\n      tag_1\n      jumpi\n      0x00\n      dup1\n      revert\n    tag_1:\n      pop\n      jumpi(tag_2, lt(calldatasize, 0x04))\n      shr(0xe0, calldataload(0x00))\n      dup1\n      0x663b3e22\n      gt\n      tag_12\n      jumpi\n      dup1\n      0x663b3e22\n      eq\n      tag_7\n      jumpi\n      dup1\n      0x7db3761b\n      eq\n      tag_8\n      jumpi\n      dup1\n      0xa0bdb003\n      eq\n      tag_9\n      jumpi\n      dup1\n      0xbeec1caa\n      eq\n      tag_10\n      jumpi\n      dup1\n      0xf851a440\n      eq\n      tag_11\n      jumpi\n      jump(tag_2)\n    tag_12:\n      dup1\n      0x1692a942\n      eq\n      tag_3\n      jumpi\n      dup1\n      0x20694db0\n      eq\n      tag_4\n      jumpi\n      dup1\n      0x38a7543e\n      eq\n      tag_5\n      jumpi\n      dup1\n      0x47bc7093\n      eq\n      tag_6\n      jumpi\n    tag_2:\n      0x00\n      dup1\n      revert\n        /* \"cert-new2.sol\":1922:2114  function verifyCertificate(uint256 id) external view returns (Certificate memory) {... */\n    tag_3:\n      tag_13\n      0x04\n      dup1\n      calldatasize\n      sub\n      dup2\n      add\n      swap1\n      tag_14\n      swap2\n      swap1\n      tag_15\n      jump\t// in\n    tag_14:\n      tag_16\n      jump\t// in\n    tag_13:\n      mload(0x40)\n      tag_17\n      swap2\n      swap1\n      tag_18\n      jump\t// in\n    tag_17:\n      mload(0x40)\n      dup1\n      swap2\n      sub\n      swap1\n      return\n        /* \"cert-new2.sol\":1087:1217  function addIssuer(address issuer) external onlyAdmin {... */\n    tag_4:\n      tag_19\n      0x04\n      dup1\n      calldatasize\n      sub\n      dup2\n      add\n      swap1\n      tag_20\n      swap2\n      swap1\n      tag_21\n      jump\t// in\n    tag_20:\n      tag_22\n      jump\t// in\n    tag_19:\n      stop\n        /* \"cert-new2.sol\":464:503  mapping(address => bool) public issuers */\n    tag_5:\n      tag_23\n      0x04\n      dup1\n      calldatasize\n      sub\n      dup2\n      add\n      swap1\n      tag_24\n      swap2\n      swap1\n      tag_21\n      jump\t// in\n    tag_24:\n      tag_25\n      jump\t// in\n    tag_23:\n      mload(0x40)\n      tag_26\n      swap2\n      swap1\n      tag_27\n      jump\t// in\n    tag_26:\n      mload(0x40)\n      dup1\n      swap2\n      sub\n      swap1\n      return\n        /* \"cert-new2.sol\":1225:1361  function removeIssuer(address issuer) external onlyAdmin {... */\n    tag_6:\n      tag_28\n      0x04\n      dup1\n      calldatasize\n      sub\n      dup2\n      add\n      swap1\n      tag_29\n      swap2\n      swap1\n      tag_21\n      jump\t// in\n    tag_29:\n      tag_30\n      jump\t// in\n    tag_28:\n      stop\n        /* \"cert-new2.sol\":367:418  mapping(uint256 => Certificate) public certificates */\n    tag_7:\n      tag_31\n      0x04\n      dup1\n      calldatasize\n      sub\n      dup2\n      add\n      swap1\n      tag_32\n      swap2\n      swap1\n      tag_15\n      jump\t// in\n    tag_32:\n      tag_33\n      jump\t// in\n    tag_31:\n      mload(0x40)\n      tag_34\n      swap7\n      swap6\n      swap5\n      swap4\n      swap3\n      swap2\n      swap1\n      tag_35\n      jump\t// in\n    tag_34:\n      mload(0x40)\n      dup1\n      swap2\n      sub\n      swap1\n      return\n        /* \"cert-new2.sol\":2122:2348  function invalidateCertificate(uint256 id) external onlyIssuer {... */\n    tag_8:\n      tag_36\n      0x04\n      dup1\n      calldatasize\n      sub\n      dup2\n      add\n      swap1\n      tag_37\n      swap2\n      swap1\n      tag_15\n      jump\t// in\n    tag_37:\n      tag_38\n      jump\t// in\n    tag_36:\n      stop\n        /* \"cert-new2.sol\":425:457  uint256 public nextCertificateId */\n    tag_9:\n      tag_39\n      tag_40\n      jump\t// in\n    tag_39:\n      mload(0x40)\n      tag_41\n      swap2\n      swap1\n      tag_42\n      jump\t// in\n    tag_41:\n      mload(0x40)\n      dup1\n      swap2\n      sub\n      swap1\n      return\n        /* \"cert-new2.sol\":1369:1914  function issueCertificate(... */\n    tag_10:\n      tag_43\n      0x04\n      dup1\n      calldatasize\n      sub\n      dup2\n      add\n      swap1\n      tag_44\n      swap2\n      swap1\n      tag_45\n      jump\t// in\n    tag_44:\n      tag_46\n      jump\t// in\n    tag_43:\n      stop\n        /* \"cert-new2.sol\":340:360  address public admin */\n    tag_11:\n      tag_47\n      tag_48\n      jump\t// in\n    tag_47:\n      mload(0x40)\n      tag_49\n      swap2\n      swap1\n      tag_50\n      jump\t// in\n    tag_49:\n      mload(0x40)\n      dup1\n      swap2\n      sub\n      swap1\n      return\n        /* \"cert-new2.sol\":1922:2114  function verifyCertificate(uint256 id) external view returns (Certificate memory) {... */\n    tag_16:\n        /* \"cert-new2.sol\":1984:2002  Certificate memory */\n      tag_51\n      tag_52\n      jump\t// in\n    tag_51:\n        /* \"cert-new2.sol\":2028:2045  nextCertificateId */\n      sload(0x02)\n        /* \"cert-new2.sol\":2023:2025  id */\n      dup3\n        /* \"cert-new2.sol\":2023:2045  id < nextCertificateId */\n      lt\n        /* \"cert-new2.sol\":2015:2072  require(id < nextCertificateId, \"Invalid certificate ID\") */\n      tag_54\n      jumpi\n      mload(0x40)\n      0x08c379a000000000000000000000000000000000000000000000000000000000\n      dup2\n      mstore\n      0x04\n      add\n      tag_55\n      swap1\n      tag_56\n      jump\t// in\n    tag_55:\n      mload(0x40)\n      dup1\n      swap2\n      sub\n      swap1\n      revert\n    tag_54:\n        /* \"cert-new2.sol\":2090:2102  certificates */\n      0x01\n        /* \"cert-new2.sol\":2090:2106  certificates[id] */\n      0x00\n        /* \"cert-new2.sol\":2103:2105  id */\n      dup4\n        /* \"cert-new2.sol\":2090:2106  certificates[id] */\n      dup2\n      mstore\n      0x20\n      add\n      swap1\n      dup2\n      mstore\n      0x20\n      add\n      0x00\n      keccak256\n        /* \"cert-new2.sol\":2083:2106  return certificates[id] */\n      mload(0x40)\n      dup1\n      0xc0\n      add\n      0x40\n      mstore\n      swap1\n      dup2\n      0x00\n      dup3\n      add\n      sload\n      dup2\n      mstore\n      0x20\n      add\n      0x01\n      dup3\n      add\n      dup1\n      sload\n      tag_57\n      swap1\n      tag_58\n      jump\t// in\n    tag_57:\n      dup1\n      0x1f\n      add\n      0x20\n      dup1\n      swap2\n      div\n      mul\n      0x20\n      add\n      mload(0x40)\n      swap1\n      dup2\n      add\n      0x40\n      mstore\n      dup1\n      swap3\n      swap2\n      swap1\n      dup2\n      dup2\n      mstore\n      0x20\n      add\n      dup3\n      dup1\n      sload\n      tag_59\n      swap1\n      tag_58\n      jump\t// in\n    tag_59:\n      dup1\n      iszero\n      tag_60\n      jumpi\n      dup1\n      0x1f\n      lt\n      tag_61\n      jumpi\n      0x0100\n      dup1\n      dup4\n      sload\n      div\n      mul\n      dup4\n      mstore\n      swap2\n      0x20\n      add\n      swap2\n      jump(tag_60)\n    tag_61:\n      dup3\n      add\n      swap2\n      swap1\n      0x00\n      mstore\n      keccak256(0x00, 0x20)\n      swap1\n    tag_62:\n      dup2\n      sload\n      dup2\n      mstore\n      swap1\n      0x01\n      add\n      swap1\n      0x20\n      add\n      dup1\n      dup4\n      gt\n      tag_62\n      jumpi\n      dup3\n      swap1\n      sub\n      0x1f\n      and\n      dup3\n      add\n      swap2\n    tag_60:\n      pop\n      pop\n      pop\n      pop\n      pop\n      dup2\n      mstore\n      0x20\n      add\n      0x02\n      dup3\n      add\n      dup1\n      sload\n      tag_63\n      swap1\n      tag_58\n      jump\t// in\n    tag_63:\n      dup1\n      0x1f\n      add\n      0x20\n      dup1\n      swap2\n      div\n      mul\n      0x20\n      add\n      mload(0x40)\n      swap1\n      dup2\n      add\n      0x40\n      mstore\n      dup1\n      swap3\n      swap2\n      swap1\n      dup2\n      dup2\n      mstore\n      0x20\n      add\n      dup3\n      dup1\n      sload\n      tag_64\n      swap1\n      tag_58\n      jump\t// in\n    tag_64:\n      dup1\n      iszero\n      tag_65\n      jumpi\n      dup1\n      0x1f\n      lt\n      tag_66\n      jumpi\n      0x0100\n      dup1\n      dup4\n      sload\n      div\n      mul\n      dup4\n      mstore\n      swap2\n      0x20\n      add\n      swap2\n      jump(tag_65)\n    tag_66:\n      dup3\n      add\n      swap2\n      swap1\n      0x00\n      mstore\n      keccak256(0x00, 0x20)\n      swap1\n    tag_67:\n      dup2\n      sload\n      dup2\n      mstore\n      swap1\n      0x01\n      add\n      swap1\n      0x20\n      add\n      dup1\n      dup4\n      gt\n      tag_67\n      jumpi\n      dup3\n      swap1\n      sub\n      0x1f\n      and\n      dup3\n      add\n      swap2\n    tag_65:\n      pop\n      pop\n      pop\n      pop\n      pop\n      dup2\n      mstore\n      0x20\n      add\n      0x03\n      dup3\n      add\n      dup1\n      sload\n      tag_68\n      swap1\n      tag_58\n      jump\t// in\n    tag_68:\n      dup1\n      0x1f\n      add\n      0x20\n      dup1\n      swap2\n      div\n      mul\n      0x20\n      add\n      mload(0x40)\n      swap1\n      dup2\n      add\n      0x40\n      mstore\n      dup1\n      swap3\n      swap2\n      swap1\n      dup2\n      dup2\n      mstore\n      0x20\n      add\n      dup3\n      dup1\n      sload\n      tag_69\n      swap1\n      tag_58\n      jump\t// in\n    tag_69:\n      dup1\n      iszero\n      tag_70\n      jumpi\n      dup1\n      0x1f\n      lt\n      tag_71\n      jumpi\n      0x0100\n      dup1\n      dup4\n      sload\n      div\n      mul\n      dup4\n      mstore\n      swap2\n      0x20\n      add\n      swap2\n      jump(tag_70)\n    tag_71:\n      dup3\n      add\n      swap2\n      swap1\n      0x00\n      mstore\n      keccak256(0x00, 0x20)\n      swap1\n    tag_72:\n      dup2\n      sload\n      dup2\n      mstore\n      swap1\n      0x01\n      add\n      swap1\n      0x20\n      add\n      dup1\n      dup4\n      gt\n      tag_72\n      jumpi\n      dup3\n      swap1\n      sub\n      0x1f\n      and\n      dup3\n      add\n      swap2\n    tag_70:\n      pop\n      pop\n      pop\n      pop\n      pop\n      dup2\n      mstore\n      0x20\n      add\n      0x04\n      dup3\n      add\n      0x00\n      swap1\n      sload\n      swap1\n      0x0100\n      exp\n      swap1\n      div\n      0xff\n      and\n      iszero\n      iszero\n      iszero\n      iszero\n      dup2\n      mstore\n      0x20\n      add\n      0x05\n      dup3\n      add\n      sload\n      dup2\n      mstore\n      pop\n      pop\n      swap1\n      pop\n        /* \"cert-new2.sol\":1922:2114  function verifyCertificate(uint256 id) external view returns (Certificate memory) {... */\n      swap2\n      swap1\n      pop\n      jump\t// out\n        /* \"cert-new2.sol\":1087:1217  function addIssuer(address issuer) external onlyAdmin {... */\n    tag_22:\n        /* \"cert-new2.sol\":781:786  admin */\n      0x00\n      dup1\n      sload\n      swap1\n      0x0100\n      exp\n      swap1\n      div\n      0xffffffffffffffffffffffffffffffffffffffff\n      and\n        /* \"cert-new2.sol\":767:786  msg.sender == admin */\n      0xffffffffffffffffffffffffffffffffffffffff\n      and\n        /* \"cert-new2.sol\":767:777  msg.sender */\n      caller\n        /* \"cert-new2.sol\":767:786  msg.sender == admin */\n      0xffffffffffffffffffffffffffffffffffffffff\n      and\n      eq\n        /* \"cert-new2.sol\":759:824  require(msg.sender == admin, \"Only admin can call this function\") */\n      tag_74\n      jumpi\n      mload(0x40)\n      0x08c379a000000000000000000000000000000000000000000000000000000000\n      dup2\n      mstore\n      0x04\n      add\n      tag_75\n      swap1\n      tag_76\n      jump\t// in\n    tag_75:\n      mload(0x40)\n      dup1\n      swap2\n      sub\n      swap1\n      revert\n    tag_74:\n        /* \"cert-new2.sol\":1170:1174  true */\n      0x01\n        /* \"cert-new2.sol\":1152:1159  issuers */\n      0x03\n        /* \"cert-new2.sol\":1152:1167  issuers[issuer] */\n      0x00\n        /* \"cert-new2.sol\":1160:1166  issuer */\n      dup4\n        /* \"cert-new2.sol\":1152:1167  issuers[issuer] */\n      0xffffffffffffffffffffffffffffffffffffffff\n      and\n      0xffffffffffffffffffffffffffffffffffffffff\n      and\n      dup2\n      mstore\n      0x20\n      add\n      swap1\n      dup2\n      mstore\n      0x20\n      add\n      0x00\n      keccak256\n      0x00\n        /* \"cert-new2.sol\":1152:1174  issuers[issuer] = true */\n      0x0100\n      exp\n      dup2\n      sload\n      dup2\n      0xff\n      mul\n      not\n      and\n      swap1\n      dup4\n      iszero\n      iszero\n      mul\n      or\n      swap1\n      sstore\n      pop\n        /* \"cert-new2.sol\":1190:1209  IssuerAdded(issuer) */\n      0x05e7c881d716bee8cb7ed92293133ba156704252439e5c502c277448f04e20c2\n        /* \"cert-new2.sol\":1202:1208  issuer */\n      dup2\n        /* \"cert-new2.sol\":1190:1209  IssuerAdded(issuer) */\n      mload(0x40)\n      tag_78\n      swap2\n      swap1\n      tag_50\n      jump\t// in\n    tag_78:\n      mload(0x40)\n      dup1\n      swap2\n      sub\n      swap1\n      log1\n        /* \"cert-new2.sol\":1087:1217  function addIssuer(address issuer) external onlyAdmin {... */\n      pop\n      jump\t// out\n        /* \"cert-new2.sol\":464:503  mapping(address => bool) public issuers */\n    tag_25:\n      mstore(0x20, 0x03)\n      dup1\n      0x00\n      mstore\n      keccak256(0x00, 0x40)\n      0x00\n      swap2\n      pop\n      sload\n      swap1\n      0x0100\n      exp\n      swap1\n      div\n      0xff\n      and\n      dup2\n      jump\t// out\n        /* \"cert-new2.sol\":1225:1361  function removeIssuer(address issuer) external onlyAdmin {... */\n    tag_30:\n        /* \"cert-new2.sol\":781:786  admin */\n      0x00\n      dup1\n      sload\n      swap1\n      0x0100\n      exp\n      swap1\n      div\n      0xffffffffffffffffffffffffffffffffffffffff\n      and\n        /* \"cert-new2.sol\":767:786  msg.sender == admin */\n      0xffffffffffffffffffffffffffffffffffffffff\n      and\n        /* \"cert-new2.sol\":767:777  msg.sender */\n      caller\n        /* \"cert-new2.sol\":767:786  msg.sender == admin */\n      0xffffffffffffffffffffffffffffffffffffffff\n      and\n      eq\n        /* \"cert-new2.sol\":759:824  require(msg.sender == admin, \"Only admin can call this function\") */\n      tag_80\n      jumpi\n      mload(0x40)\n      0x08c379a000000000000000000000000000000000000000000000000000000000\n      dup2\n      mstore\n      0x04\n      add\n      tag_81\n      swap1\n      tag_76\n      jump\t// in\n    tag_81:\n      mload(0x40)\n      dup1\n      swap2\n      sub\n      swap1\n      revert\n    tag_80:\n        /* \"cert-new2.sol\":1311:1316  false */\n      0x00\n        /* \"cert-new2.sol\":1293:1300  issuers */\n      0x03\n        /* \"cert-new2.sol\":1293:1308  issuers[issuer] */\n      0x00\n        /* \"cert-new2.sol\":1301:1307  issuer */\n      dup4\n        /* \"cert-new2.sol\":1293:1308  issuers[issuer] */\n      0xffffffffffffffffffffffffffffffffffffffff\n      and\n      0xffffffffffffffffffffffffffffffffffffffff\n      and\n      dup2\n      mstore\n      0x20\n      add\n      swap1\n      dup2\n      mstore\n      0x20\n      add\n      0x00\n      keccak256\n      0x00\n        /* \"cert-new2.sol\":1293:1316  issuers[issuer] = false */\n      0x0100\n      exp\n      dup2\n      sload\n      dup2\n      0xff\n      mul\n      not\n      and\n      swap1\n      dup4\n      iszero\n      iszero\n      mul\n      or\n      swap1\n      sstore\n      pop\n        /* \"cert-new2.sol\":1332:1353  IssuerRemoved(issuer) */\n      0xaf66545c919a3be306ee446d8f42a9558b5b022620df880517bc9593ec0f2d52\n        /* \"cert-new2.sol\":1346:1352  issuer */\n      dup2\n        /* \"cert-new2.sol\":1332:1353  IssuerRemoved(issuer) */\n      mload(0x40)\n      tag_83\n      swap2\n      swap1\n      tag_50\n      jump\t// in\n    tag_83:\n      mload(0x40)\n      dup1\n      swap2\n      sub\n      swap1\n      log1\n        /* \"cert-new2.sol\":1225:1361  function removeIssuer(address issuer) external onlyAdmin {... */\n      pop\n      jump\t// out\n        /* \"cert-new2.sol\":367:418  mapping(uint256 => Certificate) public certificates */\n    tag_33:\n      mstore(0x20, 0x01)\n      dup1\n      0x00\n      mstore\n      keccak256(0x00, 0x40)\n      0x00\n      swap2\n      pop\n      swap1\n      pop\n      dup1\n      0x00\n      add\n      sload\n      swap1\n      dup1\n      0x01\n      add\n      dup1\n      sload\n      tag_84\n      swap1\n      tag_58\n      jump\t// in\n    tag_84:\n      dup1\n      0x1f\n      add\n      0x20\n      dup1\n      swap2\n      div\n      mul\n      0x20\n      add\n      mload(0x40)\n      swap1\n      dup2\n      add\n      0x40\n      mstore\n      dup1\n      swap3\n      swap2\n      swap1\n      dup2\n      dup2\n      mstore\n      0x20\n      add\n      dup3\n      dup1\n      sload\n      tag_85\n      swap1\n      tag_58\n      jump\t// in\n    tag_85:\n      dup1\n      iszero\n      tag_86\n      jumpi\n      dup1\n      0x1f\n      lt\n      tag_87\n      jumpi\n      0x0100\n      dup1\n      dup4\n      sload\n      div\n      mul\n      dup4\n      mstore\n      swap2\n      0x20\n      add\n      swap2\n      jump(tag_86)\n    tag_87:\n      dup3\n      add\n      swap2\n      swap1\n      0x00\n      mstore\n      keccak256(0x00, 0x20)\n      swap1\n    tag_88:\n      dup2\n      sload\n      dup2\n      mstore\n      swap1\n      0x01\n      add\n      swap1\n      0x20\n      add\n      dup1\n      dup4\n      gt\n      tag_88\n      jumpi\n      dup3\n      swap1\n      sub\n      0x1f\n      and\n      dup3\n      add\n      swap2\n    tag_86:\n      pop\n      pop\n      pop\n      pop\n      pop\n      swap1\n      dup1\n      0x02\n      add\n      dup1\n      sload\n      tag_89\n      swap1\n      tag_58\n      jump\t// in\n    tag_89:\n      dup1\n      0x1f\n      add\n      0x20\n      dup1\n      swap2\n      div\n      mul\n      0x20\n      add\n      mload(0x40)\n      swap1\n      dup2\n      add\n      0x40\n      mstore\n      dup1\n      swap3\n      swap2\n      swap1\n      dup2\n      dup2\n      mstore\n      0x20\n      add\n      dup3\n      dup1\n      sload\n      tag_90\n      swap1\n      tag_58\n      jump\t// in\n    tag_90:\n      dup1\n      iszero\n      tag_91\n      jumpi\n      dup1\n      0x1f\n      lt\n      tag_92\n      jumpi\n      0x0100\n      dup1\n      dup4\n      sload\n      div\n      mul\n      dup4\n      mstore\n      swap2\n      0x20\n      add\n      swap2\n      jump(tag_91)\n    tag_92:\n      dup3\n      add\n      swap2\n      swap1\n      0x00\n      mstore\n      keccak256(0x00, 0x20)\n      swap1\n    tag_93:\n      dup2\n      sload\n      dup2\n      mstore\n      swap1\n      0x01\n      add\n      swap1\n      0x20\n      add\n      dup1\n      dup4\n      gt\n      tag_93\n      jumpi\n      dup3\n      swap1\n      sub\n      0x1f\n      and\n      dup3\n      add\n      swap2\n    tag_91:\n      pop\n      pop\n      pop\n      pop\n      pop\n      swap1\n      dup1\n      0x03\n      add\n      dup1\n      sload\n      tag_94\n      swap1\n      tag_58\n      jump\t// in\n    tag_94:\n      dup1\n      0x1f\n      add\n      0x20\n      dup1\n      swap2\n      div\n      mul\n      0x20\n      add\n      mload(0x40)\n      swap1\n      dup2\n      add\n      0x40\n      mstore\n      dup1\n      swap3\n      swap2\n      swap1\n      dup2\n      dup2\n      mstore\n      0x20\n      add\n      dup3\n      dup1\n      sload\n      tag_95\n      swap1\n      tag_58\n      jump\t// in\n    tag_95:\n      dup1\n      iszero\n      tag_96\n      jumpi\n      dup1\n      0x1f\n      lt\n      tag_97\n      jumpi\n      0x0100\n      dup1\n      dup4\n      sload\n      div\n      mul\n      dup4\n      mstore\n      swap2\n      0x20\n      add\n      swap2\n      jump(tag_96)\n    tag_97:\n      dup3\n      add\n      swap2\n      swap1\n      0x00\n      mstore\n      keccak256(0x00, 0x20)\n      swap1\n    tag_98:\n      dup2\n      sload\n      dup2\n      mstore\n      swap1\n      0x01\n      add\n      swap1\n      0x20\n      add\n      dup1\n      dup4\n      gt\n      tag_98\n      jumpi\n      dup3\n      swap1\n      sub\n      0x1f\n      and\n      dup3\n      add\n      swap2\n    tag_96:\n      pop\n      pop\n      pop\n      pop\n      pop\n      swap1\n      dup1\n      0x04\n      add\n      0x00\n      swap1\n      sload\n      swap1\n      0x0100\n      exp\n      swap1\n      div\n      0xff\n      and\n      swap1\n      dup1\n      0x05\n      add\n      sload\n      swap1\n      pop\n      dup7\n      jump\t// out\n        /* \"cert-new2.sol\":2122:2348  function invalidateCertificate(uint256 id) external onlyIssuer {... */\n    tag_38:\n        /* \"cert-new2.sol\":893:900  issuers */\n      0x03\n        /* \"cert-new2.sol\":893:912  issuers[msg.sender] */\n      0x00\n        /* \"cert-new2.sol\":901:911  msg.sender */\n      caller\n        /* \"cert-new2.sol\":893:912  issuers[msg.sender] */\n      0xffffffffffffffffffffffffffffffffffffffff\n      and\n      0xffffffffffffffffffffffffffffffffffffffff\n      and\n      dup2\n      mstore\n      0x20\n      add\n      swap1\n      dup2\n      mstore\n      0x20\n      add\n      0x00\n      keccak256\n      0x00\n      swap1\n      sload\n      swap1\n      0x0100\n      exp\n      swap1\n      div\n      0xff\n      and\n        /* \"cert-new2.sol\":885:962  require(issuers[msg.sender], \"Only authorized issuer can call this function\") */\n      tag_100\n      jumpi\n      mload(0x40)\n      0x08c379a000000000000000000000000000000000000000000000000000000000\n      dup2\n      mstore\n      0x04\n      add\n      tag_101\n      swap1\n      tag_102\n      jump\t// in\n    tag_101:\n      mload(0x40)\n      dup1\n      swap2\n      sub\n      swap1\n      revert\n    tag_100:\n        /* \"cert-new2.sol\":2209:2226  nextCertificateId */\n      sload(0x02)\n        /* \"cert-new2.sol\":2204:2206  id */\n      dup2\n        /* \"cert-new2.sol\":2204:2226  id < nextCertificateId */\n      lt\n        /* \"cert-new2.sol\":2196:2253  require(id < nextCertificateId, \"Invalid certificate ID\") */\n      tag_104\n      jumpi\n      mload(0x40)\n      0x08c379a000000000000000000000000000000000000000000000000000000000\n      dup2\n      mstore\n      0x04\n      add\n      tag_105\n      swap1\n      tag_56\n      jump\t// in\n    tag_105:\n      mload(0x40)\n      dup1\n      swap2\n      sub\n      swap1\n      revert\n    tag_104:\n        /* \"cert-new2.sol\":2289:2294  false */\n      0x00\n        /* \"cert-new2.sol\":2264:2276  certificates */\n      0x01\n        /* \"cert-new2.sol\":2264:2280  certificates[id] */\n      0x00\n        /* \"cert-new2.sol\":2277:2279  id */\n      dup4\n        /* \"cert-new2.sol\":2264:2280  certificates[id] */\n      dup2\n      mstore\n      0x20\n      add\n      swap1\n      dup2\n      mstore\n      0x20\n      add\n      0x00\n      keccak256\n        /* \"cert-new2.sol\":2264:2286  certificates[id].valid */\n      0x04\n      add\n      0x00\n        /* \"cert-new2.sol\":2264:2294  certificates[id].valid = false */\n      0x0100\n      exp\n      dup2\n      sload\n      dup2\n      0xff\n      mul\n      not\n      and\n      swap1\n      dup4\n      iszero\n      iszero\n      mul\n      or\n      swap1\n      sstore\n      pop\n        /* \"cert-new2.sol\":2310:2340  CertificateVerified(id, false) */\n      0x739766c917befd2312040cd8bdbcc45e456f5699d6e4466fb15dad5089660be0\n        /* \"cert-new2.sol\":2330:2332  id */\n      dup2\n        /* \"cert-new2.sol\":2334:2339  false */\n      0x00\n        /* \"cert-new2.sol\":2310:2340  CertificateVerified(id, false) */\n      mload(0x40)\n      tag_106\n      swap3\n      swap2\n      swap1\n      tag_107\n      jump\t// in\n    tag_106:\n      mload(0x40)\n      dup1\n      swap2\n      sub\n      swap1\n      log1\n        /* \"cert-new2.sol\":2122:2348  function invalidateCertificate(uint256 id) external onlyIssuer {... */\n      pop\n      jump\t// out\n        /* \"cert-new2.sol\":425:457  uint256 public nextCertificateId */\n    tag_40:\n      sload(0x02)\n      dup2\n      jump\t// out\n        /* \"cert-new2.sol\":1369:1914  function issueCertificate(... */\n    tag_46:\n        /* \"cert-new2.sol\":893:900  issuers */\n      0x03\n        /* \"cert-new2.sol\":893:912  issuers[msg.sender] */\n      0x00\n        /* \"cert-new2.sol\":901:911  msg.sender */\n      caller\n        /* \"cert-new2.sol\":893:912  issuers[msg.sender] */\n      0xffffffffffffffffffffffffffffffffffffffff\n      and\n      0xffffffffffffffffffffffffffffffffffffffff\n      and\n      dup2\n      mstore\n      0x20\n      add\n      swap1\n      dup2\n      mstore\n      0x20\n      add\n      0x00\n      keccak256\n      0x00\n      swap1\n      sload\n      swap1\n      0x0100\n      exp\n      swap1\n      div\n      0xff\n      and\n        /* \"cert-new2.sol\":885:962  require(issuers[msg.sender], \"Only authorized issuer can call this function\") */\n      tag_109\n      jumpi\n      mload(0x40)\n      0x08c379a000000000000000000000000000000000000000000000000000000000\n      dup2\n      mstore\n      0x04\n      add\n      tag_110\n      swap1\n      tag_102\n      jump\t// in\n    tag_110:\n      mload(0x40)\n      dup1\n      swap2\n      sub\n      swap1\n      revert\n    tag_109:\n        /* \"cert-new2.sol\":1536:1560  bytes32 aiValidationHash */\n      0x00\n        /* \"cert-new2.sol\":1563:1602  generateAIValidationHash(candidateName) */\n      tag_112\n        /* \"cert-new2.sol\":1588:1601  candidateName */\n      dup5\n        /* \"cert-new2.sol\":1563:1587  generateAIValidationHash */\n      tag_113\n        /* \"cert-new2.sol\":1563:1602  generateAIValidationHash(candidateName) */\n      jump\t// in\n    tag_112:\n        /* \"cert-new2.sol\":1536:1602  bytes32 aiValidationHash = generateAIValidationHash(candidateName) */\n      swap1\n      pop\n        /* \"cert-new2.sol\":1647:1824  Certificate(... */\n      mload(0x40)\n      dup1\n      0xc0\n      add\n      0x40\n      mstore\n      dup1\n        /* \"cert-new2.sol\":1673:1690  nextCertificateId */\n      sload(0x02)\n        /* \"cert-new2.sol\":1647:1824  Certificate(... */\n      dup2\n      mstore\n      0x20\n      add\n        /* \"cert-new2.sol\":1705:1718  candidateName */\n      dup6\n        /* \"cert-new2.sol\":1647:1824  Certificate(... */\n      dup2\n      mstore\n      0x20\n      add\n        /* \"cert-new2.sol\":1733:1739  course */\n      dup5\n        /* \"cert-new2.sol\":1647:1824  Certificate(... */\n      dup2\n      mstore\n      0x20\n      add\n        /* \"cert-new2.sol\":1754:1763  issueDate */\n      dup4\n        /* \"cert-new2.sol\":1647:1824  Certificate(... */\n      dup2\n      mstore\n      0x20\n      add\n        /* \"cert-new2.sol\":1778:1782  true */\n      0x01\n        /* \"cert-new2.sol\":1647:1824  Certificate(... */\n      iszero\n      iszero\n      dup2\n      mstore\n      0x20\n      add\n        /* \"cert-new2.sol\":1797:1813  aiValidationHash */\n      dup3\n        /* \"cert-new2.sol\":1647:1824  Certificate(... */\n      dup2\n      mstore\n      pop\n        /* \"cert-new2.sol\":1613:1625  certificates */\n      0x01\n        /* \"cert-new2.sol\":1613:1644  certificates[nextCertificateId] */\n      0x00\n        /* \"cert-new2.sol\":1626:1643  nextCertificateId */\n      sload(0x02)\n        /* \"cert-new2.sol\":1613:1644  certificates[nextCertificateId] */\n      dup2\n      mstore\n      0x20\n      add\n      swap1\n      dup2\n      mstore\n      0x20\n      add\n      0x00\n      keccak256\n        /* \"cert-new2.sol\":1613:1824  certificates[nextCertificateId] = Certificate(... */\n      0x00\n      dup3\n      add\n      mload\n      dup2\n      0x00\n      add\n      sstore\n      0x20\n      dup3\n      add\n      mload\n      dup2\n      0x01\n      add\n      swap1\n      dup2\n      tag_114\n      swap2\n      swap1\n      tag_115\n      jump\t// in\n    tag_114:\n      pop\n      0x40\n      dup3\n      add\n      mload\n      dup2\n      0x02\n      add\n      swap1\n      dup2\n      tag_116\n      swap2\n      swap1\n      tag_115\n      jump\t// in\n    tag_116:\n      pop\n      0x60\n      dup3\n      add\n      mload\n      dup2\n      0x03\n      add\n      swap1\n      dup2\n      tag_117\n      swap2\n      swap1\n      tag_115\n      jump\t// in\n    tag_117:\n      pop\n      0x80\n      dup3\n      add\n      mload\n      dup2\n      0x04\n      add\n      exp(0x0100, 0x00)\n      dup2\n      sload\n      dup2\n      0xff\n      mul\n      not\n      and\n      swap1\n      dup4\n      iszero\n      iszero\n      mul\n      or\n      swap1\n      sstore\n      pop\n      0xa0\n      dup3\n      add\n      mload\n      dup2\n      0x05\n      add\n      sstore\n      swap1\n      pop\n      pop\n        /* \"cert-new2.sol\":1840:1876  CertificateIssued(nextCertificateId) */\n      0x6b352e211b4d936da8b329b89379dc32df52c107a79a9544f3ecb5ccbe5ee2b7\n        /* \"cert-new2.sol\":1858:1875  nextCertificateId */\n      sload(0x02)\n        /* \"cert-new2.sol\":1840:1876  CertificateIssued(nextCertificateId) */\n      mload(0x40)\n      tag_118\n      swap2\n      swap1\n      tag_42\n      jump\t// in\n    tag_118:\n      mload(0x40)\n      dup1\n      swap2\n      sub\n      swap1\n      log1\n        /* \"cert-new2.sol\":1887:1904  nextCertificateId */\n      0x02\n      0x00\n        /* \"cert-new2.sol\":1887:1906  nextCertificateId++ */\n      dup2\n      sload\n      dup1\n      swap3\n      swap2\n      swap1\n      tag_119\n      swap1\n      tag_120\n      jump\t// in\n    tag_119:\n      swap2\n      swap1\n      pop\n      sstore\n      pop\n        /* \"cert-new2.sol\":1525:1914  {... */\n      pop\n        /* \"cert-new2.sol\":1369:1914  function issueCertificate(... */\n      pop\n      pop\n      pop\n      jump\t// out\n        /* \"cert-new2.sol\":340:360  address public admin */\n    tag_48:\n      0x00\n      dup1\n      sload\n      swap1\n      0x0100\n      exp\n      swap1\n      div\n      0xffffffffffffffffffffffffffffffffffffffff\n      and\n      dup2\n      jump\t// out\n        /* \"cert-new2.sol\":2413:2701  function generateAIValidationHash(string memory candidateName) internal pure returns (bytes32) {... */\n    tag_113:\n        /* \"cert-new2.sol\":2499:2506  bytes32 */\n      0x00\n        /* \"cert-new2.sol\":2678:2691  candidateName */\n      dup2\n        /* \"cert-new2.sol\":2661:2692  abi.encodePacked(candidateName) */\n      add(0x20, mload(0x40))\n      tag_122\n      swap2\n      swap1\n      tag_123\n      jump\t// in\n    tag_122:\n      mload(0x40)\n      0x20\n      dup2\n      dup4\n      sub\n      sub\n      dup2\n      mstore\n      swap1\n      0x40\n      mstore\n        /* \"cert-new2.sol\":2651:2693  keccak256(abi.encodePacked(candidateName)) */\n      dup1\n      mload\n      swap1\n      0x20\n      add\n      keccak256\n        /* \"cert-new2.sol\":2644:2693  return keccak256(abi.encodePacked(candidateName)) */\n      swap1\n      pop\n        /* \"cert-new2.sol\":2413:2701  function generateAIValidationHash(string memory candidateName) internal pure returns (bytes32) {... */\n      swap2\n      swap1\n      pop\n      jump\t// out\n    tag_52:\n      mload(0x40)\n      dup1\n      0xc0\n      add\n      0x40\n      mstore\n      dup1\n      0x00\n      dup2\n      mstore\n      0x20\n      add\n      0x60\n      dup2\n      mstore\n      0x20\n      add\n      0x60\n      dup2\n      mstore\n      0x20\n      add\n      0x60\n      dup2\n      mstore\n      0x20\n      add\n      iszero(iszero(0x00))\n      dup2\n      mstore\n      0x20\n      add\n      0x00\n      dup1\n      not\n      and\n      dup2\n      mstore\n      pop\n      swap1\n      jump\t// out\n        /* \"#utility.yul\":7:82   */\n    tag_124:\n        /* \"#utility.yul\":40:46   */\n      0x00\n        /* \"#utility.yul\":73:75   */\n      0x40\n        /* \"#utility.yul\":67:76   */\n      mload\n        /* \"#utility.yul\":57:76   */\n      swap1\n      pop\n        /* \"#utility.yul\":7:82   */\n      swap1\n      jump\t// out\n        /* \"#utility.yul\":88:205   */\n    tag_125:\n        /* \"#utility.yul\":197:198   */\n      0x00\n        /* \"#utility.yul\":194:195   */\n      dup1\n        /* \"#utility.yul\":187:199   */\n      revert\n        /* \"#utility.yul\":211:328   */\n    tag_126:\n        /* \"#utility.yul\":320:321   */\n      0x00\n        /* \"#utility.yul\":317:318   */\n      dup1\n        /* \"#utility.yul\":310:322   */\n      revert\n        /* \"#utility.yul\":334:411   */\n    tag_127:\n        /* \"#utility.yul\":371:378   */\n      0x00\n        /* \"#utility.yul\":400:405   */\n      dup2\n        /* \"#utility.yul\":389:405   */\n      swap1\n      pop\n        /* \"#utility.yul\":334:411   */\n      swap2\n      swap1\n      pop\n      jump\t// out\n        /* \"#utility.yul\":417:539   */\n    tag_128:\n        /* \"#utility.yul\":490:514   */\n      tag_191\n        /* \"#utility.yul\":508:513   */\n      dup2\n        /* \"#utility.yul\":490:514   */\n      tag_127\n      jump\t// in\n    tag_191:\n        /* \"#utility.yul\":483:488   */\n      dup2\n        /* \"#utility.yul\":480:515   */\n      eq\n        /* \"#utility.yul\":470:533   */\n      tag_192\n      jumpi\n        /* \"#utility.yul\":529:530   */\n      0x00\n        /* \"#utility.yul\":526:527   */\n      dup1\n        /* \"#utility.yul\":519:531   */\n      revert\n        /* \"#utility.yul\":470:533   */\n    tag_192:\n        /* \"#utility.yul\":417:539   */\n      pop\n      jump\t// out\n        /* \"#utility.yul\":545:684   */\n    tag_129:\n        /* \"#utility.yul\":591:596   */\n      0x00\n        /* \"#utility.yul\":629:635   */\n      dup2\n        /* \"#utility.yul\":616:636   */\n      calldataload\n        /* \"#utility.yul\":607:636   */\n      swap1\n      pop\n        /* \"#utility.yul\":645:678   */\n      tag_194\n        /* \"#utility.yul\":672:677   */\n      dup2\n        /* \"#utility.yul\":645:678   */\n      tag_128\n      jump\t// in\n    tag_194:\n        /* \"#utility.yul\":545:684   */\n      swap3\n      swap2\n      pop\n      pop\n      jump\t// out\n        /* \"#utility.yul\":690:1019   */\n    tag_15:\n        /* \"#utility.yul\":749:755   */\n      0x00\n        /* \"#utility.yul\":798:800   */\n      0x20\n        /* \"#utility.yul\":786:795   */\n      dup3\n        /* \"#utility.yul\":777:784   */\n      dup5\n        /* \"#utility.yul\":773:796   */\n      sub\n        /* \"#utility.yul\":769:801   */\n      slt\n        /* \"#utility.yul\":766:885   */\n      iszero\n      tag_196\n      jumpi\n        /* \"#utility.yul\":804:883   */\n      tag_197\n      tag_125\n      jump\t// in\n    tag_197:\n        /* \"#utility.yul\":766:885   */\n    tag_196:\n        /* \"#utility.yul\":924:925   */\n      0x00\n        /* \"#utility.yul\":949:1002   */\n      tag_198\n        /* \"#utility.yul\":994:1001   */\n      dup5\n        /* \"#utility.yul\":985:991   */\n      dup3\n        /* \"#utility.yul\":974:983   */\n      dup6\n        /* \"#utility.yul\":970:992   */\n      add\n        /* \"#utility.yul\":949:1002   */\n      tag_129\n      jump\t// in\n    tag_198:\n        /* \"#utility.yul\":939:1002   */\n      swap2\n      pop\n        /* \"#utility.yul\":895:1012   */\n      pop\n        /* \"#utility.yul\":690:1019   */\n      swap3\n      swap2\n      pop\n      pop\n      jump\t// out\n        /* \"#utility.yul\":1025:1133   */\n    tag_130:\n        /* \"#utility.yul\":1102:1126   */\n      tag_200\n        /* \"#utility.yul\":1120:1125   */\n      dup2\n        /* \"#utility.yul\":1102:1126   */\n      tag_127\n      jump\t// in\n    tag_200:\n        /* \"#utility.yul\":1097:1100   */\n      dup3\n        /* \"#utility.yul\":1090:1127   */\n      mstore\n        /* \"#utility.yul\":1025:1133   */\n      pop\n      pop\n      jump\t// out\n        /* \"#utility.yul\":1139:1238   */\n    tag_131:\n        /* \"#utility.yul\":1191:1197   */\n      0x00\n        /* \"#utility.yul\":1225:1230   */\n      dup2\n        /* \"#utility.yul\":1219:1231   */\n      mload\n        /* \"#utility.yul\":1209:1231   */\n      swap1\n      pop\n        /* \"#utility.yul\":1139:1238   */\n      swap2\n      swap1\n      pop\n      jump\t// out\n        /* \"#utility.yul\":1244:1403   */\n    tag_132:\n        /* \"#utility.yul\":1318:1329   */\n      0x00\n        /* \"#utility.yul\":1352:1358   */\n      dup3\n        /* \"#utility.yul\":1347:1350   */\n      dup3\n        /* \"#utility.yul\":1340:1359   */\n      mstore\n        /* \"#utility.yul\":1392:1396   */\n      0x20\n        /* \"#utility.yul\":1387:1390   */\n      dup3\n        /* \"#utility.yul\":1383:1397   */\n      add\n        /* \"#utility.yul\":1368:1397   */\n      swap1\n      pop\n        /* \"#utility.yul\":1244:1403   */\n      swap3\n      swap2\n      pop\n      pop\n      jump\t// out\n        /* \"#utility.yul\":1409:1655   */\n    tag_133:\n        /* \"#utility.yul\":1490:1491   */\n      0x00\n        /* \"#utility.yul\":1500:1613   */\n    tag_204:\n        /* \"#utility.yul\":1514:1520   */\n      dup4\n        /* \"#utility.yul\":1511:1512   */\n      dup2\n        /* \"#utility.yul\":1508:1521   */\n      lt\n        /* \"#utility.yul\":1500:1613   */\n      iszero\n      tag_206\n      jumpi\n        /* \"#utility.yul\":1599:1600   */\n      dup1\n        /* \"#utility.yul\":1594:1597   */\n      dup3\n        /* \"#utility.yul\":1590:1601   */\n      add\n        /* \"#utility.yul\":1584:1602   */\n      mload\n        /* \"#utility.yul\":1580:1581   */\n      dup2\n        /* \"#utility.yul\":1575:1578   */\n      dup5\n        /* \"#utility.yul\":1571:1582   */\n      add\n        /* \"#utility.yul\":1564:1603   */\n      mstore\n        /* \"#utility.yul\":1536:1538   */\n      0x20\n        /* \"#utility.yul\":1533:1534   */\n      dup2\n        /* \"#utility.yul\":1529:1539   */\n      add\n        /* \"#utility.yul\":1524:1539   */\n      swap1\n      pop\n        /* \"#utility.yul\":1500:1613   */\n      jump(tag_204)\n    tag_206:\n        /* \"#utility.yul\":1647:1648   */\n      0x00\n        /* \"#utility.yul\":1638:1644   */\n      dup5\n        /* \"#utility.yul\":1633:1636   */\n      dup5\n        /* \"#utility.yul\":1629:1645   */\n      add\n        /* \"#utility.yul\":1622:1649   */\n      mstore\n        /* \"#utility.yul\":1471:1655   */\n      pop\n        /* \"#utility.yul\":1409:1655   */\n      pop\n      pop\n      pop\n      jump\t// out\n        /* \"#utility.yul\":1661:1763   */\n    tag_134:\n        /* \"#utility.yul\":1702:1708   */\n      0x00\n        /* \"#utility.yul\":1753:1755   */\n      0x1f\n        /* \"#utility.yul\":1749:1756   */\n      not\n        /* \"#utility.yul\":1744:1746   */\n      0x1f\n        /* \"#utility.yul\":1737:1742   */\n      dup4\n        /* \"#utility.yul\":1733:1747   */\n      add\n        /* \"#utility.yul\":1729:1757   */\n      and\n        /* \"#utility.yul\":1719:1757   */\n      swap1\n      pop\n        /* \"#utility.yul\":1661:1763   */\n      swap2\n      swap1\n      pop\n      jump\t// out\n        /* \"#utility.yul\":1769:2126   */\n    tag_135:\n        /* \"#utility.yul\":1847:1850   */\n      0x00\n        /* \"#utility.yul\":1875:1914   */\n      tag_209\n        /* \"#utility.yul\":1908:1913   */\n      dup3\n        /* \"#utility.yul\":1875:1914   */\n      tag_131\n      jump\t// in\n    tag_209:\n        /* \"#utility.yul\":1930:1991   */\n      tag_210\n        /* \"#utility.yul\":1984:1990   */\n      dup2\n        /* \"#utility.yul\":1979:1982   */\n      dup6\n        /* \"#utility.yul\":1930:1991   */\n      tag_132\n      jump\t// in\n    tag_210:\n        /* \"#utility.yul\":1923:1991   */\n      swap4\n      pop\n        /* \"#utility.yul\":2000:2065   */\n      tag_211\n        /* \"#utility.yul\":2058:2064   */\n      dup2\n        /* \"#utility.yul\":2053:2056   */\n      dup6\n        /* \"#utility.yul\":2046:2050   */\n      0x20\n        /* \"#utility.yul\":2039:2044   */\n      dup7\n        /* \"#utility.yul\":2035:2051   */\n      add\n        /* \"#utility.yul\":2000:2065   */\n      tag_133\n      jump\t// in\n    tag_211:\n        /* \"#utility.yul\":2090:2119   */\n      tag_212\n        /* \"#utility.yul\":2112:2118   */\n      dup2\n        /* \"#utility.yul\":2090:2119   */\n      tag_134\n      jump\t// in\n    tag_212:\n        /* \"#utility.yul\":2085:2088   */\n      dup5\n        /* \"#utility.yul\":2081:2120   */\n      add\n        /* \"#utility.yul\":2074:2120   */\n      swap2\n      pop\n        /* \"#utility.yul\":1851:2126   */\n      pop\n        /* \"#utility.yul\":1769:2126   */\n      swap3\n      swap2\n      pop\n      pop\n      jump\t// out\n        /* \"#utility.yul\":2132:2222   */\n    tag_136:\n        /* \"#utility.yul\":2166:2173   */\n      0x00\n        /* \"#utility.yul\":2209:2214   */\n      dup2\n        /* \"#utility.yul\":2202:2215   */\n      iszero\n        /* \"#utility.yul\":2195:2216   */\n      iszero\n        /* \"#utility.yul\":2184:2216   */\n      swap1\n      pop\n        /* \"#utility.yul\":2132:2222   */\n      swap2\n      swap1\n      pop\n      jump\t// out\n        /* \"#utility.yul\":2228:2327   */\n    tag_137:\n        /* \"#utility.yul\":2299:2320   */\n      tag_215\n        /* \"#utility.yul\":2314:2319   */\n      dup2\n        /* \"#utility.yul\":2299:2320   */\n      tag_136\n      jump\t// in\n    tag_215:\n        /* \"#utility.yul\":2294:2297   */\n      dup3\n        /* \"#utility.yul\":2287:2321   */\n      mstore\n        /* \"#utility.yul\":2228:2327   */\n      pop\n      pop\n      jump\t// out\n        /* \"#utility.yul\":2333:2410   */\n    tag_138:\n        /* \"#utility.yul\":2370:2377   */\n      0x00\n        /* \"#utility.yul\":2399:2404   */\n      dup2\n        /* \"#utility.yul\":2388:2404   */\n      swap1\n      pop\n        /* \"#utility.yul\":2333:2410   */\n      swap2\n      swap1\n      pop\n      jump\t// out\n        /* \"#utility.yul\":2416:2524   */\n    tag_139:\n        /* \"#utility.yul\":2493:2517   */\n      tag_218\n        /* \"#utility.yul\":2511:2516   */\n      dup2\n        /* \"#utility.yul\":2493:2517   */\n      tag_138\n      jump\t// in\n    tag_218:\n        /* \"#utility.yul\":2488:2491   */\n      dup3\n        /* \"#utility.yul\":2481:2518   */\n      mstore\n        /* \"#utility.yul\":2416:2524   */\n      pop\n      pop\n      jump\t// out\n        /* \"#utility.yul\":2622:4091   */\n    tag_140:\n        /* \"#utility.yul\":2745:2748   */\n      0x00\n        /* \"#utility.yul\":2781:2785   */\n      0xc0\n        /* \"#utility.yul\":2776:2779   */\n      dup4\n        /* \"#utility.yul\":2772:2786   */\n      add\n        /* \"#utility.yul\":2866:2870   */\n      0x00\n        /* \"#utility.yul\":2859:2864   */\n      dup4\n        /* \"#utility.yul\":2855:2871   */\n      add\n        /* \"#utility.yul\":2849:2872   */\n      mload\n        /* \"#utility.yul\":2885:2948   */\n      tag_220\n        /* \"#utility.yul\":2942:2946   */\n      0x00\n        /* \"#utility.yul\":2937:2940   */\n      dup7\n        /* \"#utility.yul\":2933:2947   */\n      add\n        /* \"#utility.yul\":2919:2931   */\n      dup3\n        /* \"#utility.yul\":2885:2948   */\n      tag_130\n      jump\t// in\n    tag_220:\n        /* \"#utility.yul\":2796:2958   */\n      pop\n        /* \"#utility.yul\":3049:3053   */\n      0x20\n        /* \"#utility.yul\":3042:3047   */\n      dup4\n        /* \"#utility.yul\":3038:3054   */\n      add\n        /* \"#utility.yul\":3032:3055   */\n      mload\n        /* \"#utility.yul\":3102:3105   */\n      dup5\n        /* \"#utility.yul\":3096:3100   */\n      dup3\n        /* \"#utility.yul\":3092:3106   */\n      sub\n        /* \"#utility.yul\":3085:3089   */\n      0x20\n        /* \"#utility.yul\":3080:3083   */\n      dup7\n        /* \"#utility.yul\":3076:3090   */\n      add\n        /* \"#utility.yul\":3069:3107   */\n      mstore\n        /* \"#utility.yul\":3128:3201   */\n      tag_221\n        /* \"#utility.yul\":3196:3200   */\n      dup3\n        /* \"#utility.yul\":3182:3194   */\n      dup3\n        /* \"#utility.yul\":3128:3201   */\n      tag_135\n      jump\t// in\n    tag_221:\n        /* \"#utility.yul\":3120:3201   */\n      swap2\n      pop\n        /* \"#utility.yul\":2968:3212   */\n      pop\n        /* \"#utility.yul\":3296:3300   */\n      0x40\n        /* \"#utility.yul\":3289:3294   */\n      dup4\n        /* \"#utility.yul\":3285:3301   */\n      add\n        /* \"#utility.yul\":3279:3302   */\n      mload\n        /* \"#utility.yul\":3349:3352   */\n      dup5\n        /* \"#utility.yul\":3343:3347   */\n      dup3\n        /* \"#utility.yul\":3339:3353   */\n      sub\n        /* \"#utility.yul\":3332:3336   */\n      0x40\n        /* \"#utility.yul\":3327:3330   */\n      dup7\n        /* \"#utility.yul\":3323:3337   */\n      add\n        /* \"#utility.yul\":3316:3354   */\n      mstore\n        /* \"#utility.yul\":3375:3448   */\n      tag_222\n        /* \"#utility.yul\":3443:3447   */\n      dup3\n        /* \"#utility.yul\":3429:3441   */\n      dup3\n        /* \"#utility.yul\":3375:3448   */\n      tag_135\n      jump\t// in\n    tag_222:\n        /* \"#utility.yul\":3367:3448   */\n      swap2\n      pop\n        /* \"#utility.yul\":3222:3459   */\n      pop\n        /* \"#utility.yul\":3546:3550   */\n      0x60\n        /* \"#utility.yul\":3539:3544   */\n      dup4\n        /* \"#utility.yul\":3535:3551   */\n      add\n        /* \"#utility.yul\":3529:3552   */\n      mload\n        /* \"#utility.yul\":3599:3602   */\n      dup5\n        /* \"#utility.yul\":3593:3597   */\n      dup3\n        /* \"#utility.yul\":3589:3603   */\n      sub\n        /* \"#utility.yul\":3582:3586   */\n      0x60\n        /* \"#utility.yul\":3577:3580   */\n      dup7\n        /* \"#utility.yul\":3573:3587   */\n      add\n        /* \"#utility.yul\":3566:3604   */\n      mstore\n        /* \"#utility.yul\":3625:3698   */\n      tag_223\n        /* \"#utility.yul\":3693:3697   */\n      dup3\n        /* \"#utility.yul\":3679:3691   */\n      dup3\n        /* \"#utility.yul\":3625:3698   */\n      tag_135\n      jump\t// in\n    tag_223:\n        /* \"#utility.yul\":3617:3698   */\n      swap2\n      pop\n        /* \"#utility.yul\":3469:3709   */\n      pop\n        /* \"#utility.yul\":3792:3796   */\n      0x80\n        /* \"#utility.yul\":3785:3790   */\n      dup4\n        /* \"#utility.yul\":3781:3797   */\n      add\n        /* \"#utility.yul\":3775:3798   */\n      mload\n        /* \"#utility.yul\":3811:3868   */\n      tag_224\n        /* \"#utility.yul\":3862:3866   */\n      0x80\n        /* \"#utility.yul\":3857:3860   */\n      dup7\n        /* \"#utility.yul\":3853:3867   */\n      add\n        /* \"#utility.yul\":3839:3851   */\n      dup3\n        /* \"#utility.yul\":3811:3868   */\n      tag_137\n      jump\t// in\n    tag_224:\n        /* \"#utility.yul\":3719:3878   */\n      pop\n        /* \"#utility.yul\":3972:3976   */\n      0xa0\n        /* \"#utility.yul\":3965:3970   */\n      dup4\n        /* \"#utility.yul\":3961:3977   */\n      add\n        /* \"#utility.yul\":3955:3978   */\n      mload\n        /* \"#utility.yul\":3991:4054   */\n      tag_225\n        /* \"#utility.yul\":4048:4052   */\n      0xa0\n        /* \"#utility.yul\":4043:4046   */\n      dup7\n        /* \"#utility.yul\":4039:4053   */\n      add\n        /* \"#utility.yul\":4025:4037   */\n      dup3\n        /* \"#utility.yul\":3991:4054   */\n      tag_139\n      jump\t// in\n    tag_225:\n        /* \"#utility.yul\":3888:4064   */\n      pop\n        /* \"#utility.yul\":4081:4085   */\n      dup1\n        /* \"#utility.yul\":4074:4085   */\n      swap2\n      pop\n        /* \"#utility.yul\":2750:4091   */\n      pop\n        /* \"#utility.yul\":2622:4091   */\n      swap3\n      swap2\n      pop\n      pop\n      jump\t// out\n        /* \"#utility.yul\":4097:4478   */\n    tag_18:\n        /* \"#utility.yul\":4244:4248   */\n      0x00\n        /* \"#utility.yul\":4282:4284   */\n      0x20\n        /* \"#utility.yul\":4271:4280   */\n      dup3\n        /* \"#utility.yul\":4267:4285   */\n      add\n        /* \"#utility.yul\":4259:4285   */\n      swap1\n      pop\n        /* \"#utility.yul\":4331:4340   */\n      dup2\n        /* \"#utility.yul\":4325:4329   */\n      dup2\n        /* \"#utility.yul\":4321:4341   */\n      sub\n        /* \"#utility.yul\":4317:4318   */\n      0x00\n        /* \"#utility.yul\":4306:4315   */\n      dup4\n        /* \"#utility.yul\":4302:4319   */\n      add\n        /* \"#utility.yul\":4295:4342   */\n      mstore\n        /* \"#utility.yul\":4359:4471   */\n      tag_227\n        /* \"#utility.yul\":4466:4470   */\n      dup2\n        /* \"#utility.yul\":4457:4463   */\n      dup5\n        /* \"#utility.yul\":4359:4471   */\n      tag_140\n      jump\t// in\n    tag_227:\n        /* \"#utility.yul\":4351:4471   */\n      swap1\n      pop\n        /* \"#utility.yul\":4097:4478   */\n      swap3\n      swap2\n      pop\n      pop\n      jump\t// out\n        /* \"#utility.yul\":4484:4610   */\n    tag_141:\n        /* \"#utility.yul\":4521:4528   */\n      0x00\n        /* \"#utility.yul\":4561:4603   */\n      0xffffffffffffffffffffffffffffffffffffffff\n        /* \"#utility.yul\":4554:4559   */\n      dup3\n        /* \"#utility.yul\":4550:4604   */\n      and\n        /* \"#utility.yul\":4539:4604   */\n      swap1\n      pop\n        /* \"#utility.yul\":4484:4610   */\n      swap2\n      swap1\n      pop\n      jump\t// out\n        /* \"#utility.yul\":4616:4712   */\n    tag_142:\n        /* \"#utility.yul\":4653:4660   */\n      0x00\n        /* \"#utility.yul\":4682:4706   */\n      tag_230\n        /* \"#utility.yul\":4700:4705   */\n      dup3\n        /* \"#utility.yul\":4682:4706   */\n      tag_141\n      jump\t// in\n    tag_230:\n        /* \"#utility.yul\":4671:4706   */\n      swap1\n      pop\n        /* \"#utility.yul\":4616:4712   */\n      swap2\n      swap1\n      pop\n      jump\t// out\n        /* \"#utility.yul\":4718:4840   */\n    tag_143:\n        /* \"#utility.yul\":4791:4815   */\n      tag_232\n        /* \"#utility.yul\":4809:4814   */\n      dup2\n        /* \"#utility.yul\":4791:4815   */\n      tag_142\n      jump\t// in\n    tag_232:\n        /* \"#utility.yul\":4784:4789   */\n      dup2\n        /* \"#utility.yul\":4781:4816   */\n      eq\n        /* \"#utility.yul\":4771:4834   */\n      tag_233\n      jumpi\n        /* \"#utility.yul\":4830:4831   */\n      0x00\n        /* \"#utility.yul\":4827:4828   */\n      dup1\n        /* \"#utility.yul\":4820:4832   */\n      revert\n        /* \"#utility.yul\":4771:4834   */\n    tag_233:\n        /* \"#utility.yul\":4718:4840   */\n      pop\n      jump\t// out\n        /* \"#utility.yul\":4846:4985   */\n    tag_144:\n        /* \"#utility.yul\":4892:4897   */\n      0x00\n        /* \"#utility.yul\":4930:4936   */\n      dup2\n        /* \"#utility.yul\":4917:4937   */\n      calldataload\n        /* \"#utility.yul\":4908:4937   */\n      swap1\n      pop\n        /* \"#utility.yul\":4946:4979   */\n      tag_235\n        /* \"#utility.yul\":4973:4978   */\n      dup2\n        /* \"#utility.yul\":4946:4979   */\n      tag_143\n      jump\t// in\n    tag_235:\n        /* \"#utility.yul\":4846:4985   */\n      swap3\n      swap2\n      pop\n      pop\n      jump\t// out\n        /* \"#utility.yul\":4991:5320   */\n    tag_21:\n        /* \"#utility.yul\":5050:5056   */\n      0x00\n        /* \"#utility.yul\":5099:5101   */\n      0x20\n        /* \"#utility.yul\":5087:5096   */\n      dup3\n        /* \"#utility.yul\":5078:5085   */\n      dup5\n        /* \"#utility.yul\":5074:5097   */\n      sub\n        /* \"#utility.yul\":5070:5102   */\n      slt\n        /* \"#utility.yul\":5067:5186   */\n      iszero\n      tag_237\n      jumpi\n        /* \"#utility.yul\":5105:5184   */\n      tag_238\n      tag_125\n      jump\t// in\n    tag_238:\n        /* \"#utility.yul\":5067:5186   */\n    tag_237:\n        /* \"#utility.yul\":5225:5226   */\n      0x00\n        /* \"#utility.yul\":5250:5303   */\n      tag_239\n        /* \"#utility.yul\":5295:5302   */\n      dup5\n        /* \"#utility.yul\":5286:5292   */\n      dup3\n        /* \"#utility.yul\":5275:5284   */\n      dup6\n        /* \"#utility.yul\":5271:5293   */\n      add\n        /* \"#utility.yul\":5250:5303   */\n      tag_144\n      jump\t// in\n    tag_239:\n        /* \"#utility.yul\":5240:5303   */\n      swap2\n      pop\n        /* \"#utility.yul\":5196:5313   */\n      pop\n        /* \"#utility.yul\":4991:5320   */\n      swap3\n      swap2\n      pop\n      pop\n      jump\t// out\n        /* \"#utility.yul\":5326:5435   */\n    tag_145:\n        /* \"#utility.yul\":5407:5428   */\n      tag_241\n        /* \"#utility.yul\":5422:5427   */\n      dup2\n        /* \"#utility.yul\":5407:5428   */\n      tag_136\n      jump\t// in\n    tag_241:\n        /* \"#utility.yul\":5402:5405   */\n      dup3\n        /* \"#utility.yul\":5395:5429   */\n      mstore\n        /* \"#utility.yul\":5326:5435   */\n      pop\n      pop\n      jump\t// out\n        /* \"#utility.yul\":5441:5651   */\n    tag_27:\n        /* \"#utility.yul\":5528:5532   */\n      0x00\n        /* \"#utility.yul\":5566:5568   */\n      0x20\n        /* \"#utility.yul\":5555:5564   */\n      dup3\n        /* \"#utility.yul\":5551:5569   */\n      add\n        /* \"#utility.yul\":5543:5569   */\n      swap1\n      pop\n        /* \"#utility.yul\":5579:5644   */\n      tag_243\n        /* \"#utility.yul\":5641:5642   */\n      0x00\n        /* \"#utility.yul\":5630:5639   */\n      dup4\n        /* \"#utility.yul\":5626:5643   */\n      add\n        /* \"#utility.yul\":5617:5623   */\n      dup5\n        /* \"#utility.yul\":5579:5644   */\n      tag_145\n      jump\t// in\n    tag_243:\n        /* \"#utility.yul\":5441:5651   */\n      swap3\n      swap2\n      pop\n      pop\n      jump\t// out\n        /* \"#utility.yul\":5657:5775   */\n    tag_146:\n        /* \"#utility.yul\":5744:5768   */\n      tag_245\n        /* \"#utility.yul\":5762:5767   */\n      dup2\n        /* \"#utility.yul\":5744:5768   */\n      tag_127\n      jump\t// in\n    tag_245:\n        /* \"#utility.yul\":5739:5742   */\n      dup3\n        /* \"#utility.yul\":5732:5769   */\n      mstore\n        /* \"#utility.yul\":5657:5775   */\n      pop\n      pop\n      jump\t// out\n        /* \"#utility.yul\":5781:5950   */\n    tag_147:\n        /* \"#utility.yul\":5865:5876   */\n      0x00\n        /* \"#utility.yul\":5899:5905   */\n      dup3\n        /* \"#utility.yul\":5894:5897   */\n      dup3\n        /* \"#utility.yul\":5887:5906   */\n      mstore\n        /* \"#utility.yul\":5939:5943   */\n      0x20\n        /* \"#utility.yul\":5934:5937   */\n      dup3\n        /* \"#utility.yul\":5930:5944   */\n      add\n        /* \"#utility.yul\":5915:5944   */\n      swap1\n      pop\n        /* \"#utility.yul\":5781:5950   */\n      swap3\n      swap2\n      pop\n      pop\n      jump\t// out\n        /* \"#utility.yul\":5956:6333   */\n    tag_148:\n        /* \"#utility.yul\":6044:6047   */\n      0x00\n        /* \"#utility.yul\":6072:6111   */\n      tag_248\n        /* \"#utility.yul\":6105:6110   */\n      dup3\n        /* \"#utility.yul\":6072:6111   */\n      tag_131\n      jump\t// in\n    tag_248:\n        /* \"#utility.yul\":6127:6198   */\n      tag_249\n        /* \"#utility.yul\":6191:6197   */\n      dup2\n        /* \"#utility.yul\":6186:6189   */\n      dup6\n        /* \"#utility.yul\":6127:6198   */\n      tag_147\n      jump\t// in\n    tag_249:\n        /* \"#utility.yul\":6120:6198   */\n      swap4\n      pop\n        /* \"#utility.yul\":6207:6272   */\n      tag_250\n        /* \"#utility.yul\":6265:6271   */\n      dup2\n        /* \"#utility.yul\":6260:6263   */\n      dup6\n        /* \"#utility.yul\":6253:6257   */\n      0x20\n        /* \"#utility.yul\":6246:6251   */\n      dup7\n        /* \"#utility.yul\":6242:6258   */\n      add\n        /* \"#utility.yul\":6207:6272   */\n      tag_133\n      jump\t// in\n    tag_250:\n        /* \"#utility.yul\":6297:6326   */\n      tag_251\n        /* \"#utility.yul\":6319:6325   */\n      dup2\n        /* \"#utility.yul\":6297:6326   */\n      tag_134\n      jump\t// in\n    tag_251:\n        /* \"#utility.yul\":6292:6295   */\n      dup5\n        /* \"#utility.yul\":6288:6327   */\n      add\n        /* \"#utility.yul\":6281:6327   */\n      swap2\n      pop\n        /* \"#utility.yul\":6048:6333   */\n      pop\n        /* \"#utility.yul\":5956:6333   */\n      swap3\n      swap2\n      pop\n      pop\n      jump\t// out\n        /* \"#utility.yul\":6339:6457   */\n    tag_149:\n        /* \"#utility.yul\":6426:6450   */\n      tag_253\n        /* \"#utility.yul\":6444:6449   */\n      dup2\n        /* \"#utility.yul\":6426:6450   */\n      tag_138\n      jump\t// in\n    tag_253:\n        /* \"#utility.yul\":6421:6424   */\n      dup3\n        /* \"#utility.yul\":6414:6451   */\n      mstore\n        /* \"#utility.yul\":6339:6457   */\n      pop\n      pop\n      jump\t// out\n        /* \"#utility.yul\":6463:7499   */\n    tag_35:\n        /* \"#utility.yul\":6750:6754   */\n      0x00\n        /* \"#utility.yul\":6788:6791   */\n      0xc0\n        /* \"#utility.yul\":6777:6786   */\n      dup3\n        /* \"#utility.yul\":6773:6792   */\n      add\n        /* \"#utility.yul\":6765:6792   */\n      swap1\n      pop\n        /* \"#utility.yul\":6802:6873   */\n      tag_255\n        /* \"#utility.yul\":6870:6871   */\n      0x00\n        /* \"#utility.yul\":6859:6868   */\n      dup4\n        /* \"#utility.yul\":6855:6872   */\n      add\n        /* \"#utility.yul\":6846:6852   */\n      dup10\n        /* \"#utility.yul\":6802:6873   */\n      tag_146\n      jump\t// in\n    tag_255:\n        /* \"#utility.yul\":6920:6929   */\n      dup2\n        /* \"#utility.yul\":6914:6918   */\n      dup2\n        /* \"#utility.yul\":6910:6930   */\n      sub\n        /* \"#utility.yul\":6905:6907   */\n      0x20\n        /* \"#utility.yul\":6894:6903   */\n      dup4\n        /* \"#utility.yul\":6890:6908   */\n      add\n        /* \"#utility.yul\":6883:6931   */\n      mstore\n        /* \"#utility.yul\":6948:7026   */\n      tag_256\n        /* \"#utility.yul\":7021:7025   */\n      dup2\n        /* \"#utility.yul\":7012:7018   */\n      dup9\n        /* \"#utility.yul\":6948:7026   */\n      tag_148\n      jump\t// in\n    tag_256:\n        /* \"#utility.yul\":6940:7026   */\n      swap1\n      pop\n        /* \"#utility.yul\":7073:7082   */\n      dup2\n        /* \"#utility.yul\":7067:7071   */\n      dup2\n        /* \"#utility.yul\":7063:7083   */\n      sub\n        /* \"#utility.yul\":7058:7060   */\n      0x40\n        /* \"#utility.yul\":7047:7056   */\n      dup4\n        /* \"#utility.yul\":7043:7061   */\n      add\n        /* \"#utility.yul\":7036:7084   */\n      mstore\n        /* \"#utility.yul\":7101:7179   */\n      tag_257\n        /* \"#utility.yul\":7174:7178   */\n      dup2\n        /* \"#utility.yul\":7165:7171   */\n      dup8\n        /* \"#utility.yul\":7101:7179   */\n      tag_148\n      jump\t// in\n    tag_257:\n        /* \"#utility.yul\":7093:7179   */\n      swap1\n      pop\n        /* \"#utility.yul\":7226:7235   */\n      dup2\n        /* \"#utility.yul\":7220:7224   */\n      dup2\n        /* \"#utility.yul\":7216:7236   */\n      sub\n        /* \"#utility.yul\":7211:7213   */\n      0x60\n        /* \"#utility.yul\":7200:7209   */\n      dup4\n        /* \"#utility.yul\":7196:7214   */\n      add\n        /* \"#utility.yul\":7189:7237   */\n      mstore\n        /* \"#utility.yul\":7254:7332   */\n      tag_258\n        /* \"#utility.yul\":7327:7331   */\n      dup2\n        /* \"#utility.yul\":7318:7324   */\n      dup7\n        /* \"#utility.yul\":7254:7332   */\n      tag_148\n      jump\t// in\n    tag_258:\n        /* \"#utility.yul\":7246:7332   */\n      swap1\n      pop\n        /* \"#utility.yul\":7342:7409   */\n      tag_259\n        /* \"#utility.yul\":7404:7407   */\n      0x80\n        /* \"#utility.yul\":7393:7402   */\n      dup4\n        /* \"#utility.yul\":7389:7408   */\n      add\n        /* \"#utility.yul\":7380:7386   */\n      dup6\n        /* \"#utility.yul\":7342:7409   */\n      tag_145\n      jump\t// in\n    tag_259:\n        /* \"#utility.yul\":7419:7492   */\n      tag_260\n        /* \"#utility.yul\":7487:7490   */\n      0xa0\n        /* \"#utility.yul\":7476:7485   */\n      dup4\n        /* \"#utility.yul\":7472:7491   */\n      add\n        /* \"#utility.yul\":7463:7469   */\n      dup5\n        /* \"#utility.yul\":7419:7492   */\n      tag_149\n      jump\t// in\n    tag_260:\n        /* \"#utility.yul\":6463:7499   */\n      swap8\n      swap7\n      pop\n      pop\n      pop\n      pop\n      pop\n      pop\n      pop\n      jump\t// out\n        /* \"#utility.yul\":7505:7727   */\n    tag_42:\n        /* \"#utility.yul\":7598:7602   */\n      0x00\n        /* \"#utility.yul\":7636:7638   */\n      0x20\n        /* \"#utility.yul\":7625:7634   */\n      dup3\n        /* \"#utility.yul\":7621:7639   */\n      add\n        /* \"#utility.yul\":7613:7639   */\n      swap1\n      pop\n        /* \"#utility.yul\":7649:7720   */\n      tag_262\n        /* \"#utility.yul\":7717:7718   */\n      0x00\n        /* \"#utility.yul\":7706:7715   */\n      dup4\n        /* \"#utility.yul\":7702:7719   */\n      add\n        /* \"#utility.yul\":7693:7699   */\n      dup5\n        /* \"#utility.yul\":7649:7720   */\n      tag_146\n      jump\t// in\n    tag_262:\n        /* \"#utility.yul\":7505:7727   */\n      swap3\n      swap2\n      pop\n      pop\n      jump\t// out\n        /* \"#utility.yul\":7733:7850   */\n    tag_150:\n        /* \"#utility.yul\":7842:7843   */\n      0x00\n        /* \"#utility.yul\":7839:7840   */\n      dup1\n        /* \"#utility.yul\":7832:7844   */\n      revert\n        /* \"#utility.yul\":7856:7973   */\n    tag_151:\n        /* \"#utility.yul\":7965:7966   */\n      0x00\n        /* \"#utility.yul\":7962:7963   */\n      dup1\n        /* \"#utility.yul\":7955:7967   */\n      revert\n        /* \"#utility.yul\":7979:8159   */\n    tag_152:\n        /* \"#utility.yul\":8027:8104   */\n      0x4e487b7100000000000000000000000000000000000000000000000000000000\n        /* \"#utility.yul\":8024:8025   */\n      0x00\n        /* \"#utility.yul\":8017:8105   */\n      mstore\n        /* \"#utility.yul\":8124:8128   */\n      0x41\n        /* \"#utility.yul\":8121:8122   */\n      0x04\n        /* \"#utility.yul\":8114:8129   */\n      mstore\n        /* \"#utility.yul\":8148:8152   */\n      0x24\n        /* \"#utility.yul\":8145:8146   */\n      0x00\n        /* \"#utility.yul\":8138:8153   */\n      revert\n        /* \"#utility.yul\":8165:8446   */\n    tag_153:\n        /* \"#utility.yul\":8248:8275   */\n      tag_267\n        /* \"#utility.yul\":8270:8274   */\n      dup3\n        /* \"#utility.yul\":8248:8275   */\n      tag_134\n      jump\t// in\n    tag_267:\n        /* \"#utility.yul\":8240:8246   */\n      dup2\n        /* \"#utility.yul\":8236:8276   */\n      add\n        /* \"#utility.yul\":8378:8384   */\n      dup2\n        /* \"#utility.yul\":8366:8376   */\n      dup2\n        /* \"#utility.yul\":8363:8385   */\n      lt\n        /* \"#utility.yul\":8342:8360   */\n      0xffffffffffffffff\n        /* \"#utility.yul\":8330:8340   */\n      dup3\n        /* \"#utility.yul\":8327:8361   */\n      gt\n        /* \"#utility.yul\":8324:8386   */\n      or\n        /* \"#utility.yul\":8321:8409   */\n      iszero\n      tag_268\n      jumpi\n        /* \"#utility.yul\":8389:8407   */\n      tag_269\n      tag_152\n      jump\t// in\n    tag_269:\n        /* \"#utility.yul\":8321:8409   */\n    tag_268:\n        /* \"#utility.yul\":8429:8439   */\n      dup1\n        /* \"#utility.yul\":8425:8427   */\n      0x40\n        /* \"#utility.yul\":8418:8440   */\n      mstore\n        /* \"#utility.yul\":8208:8446   */\n      pop\n        /* \"#utility.yul\":8165:8446   */\n      pop\n      pop\n      jump\t// out\n        /* \"#utility.yul\":8452:8581   */\n    tag_154:\n        /* \"#utility.yul\":8486:8492   */\n      0x00\n        /* \"#utility.yul\":8513:8533   */\n      tag_271\n      tag_124\n      jump\t// in\n    tag_271:\n        /* \"#utility.yul\":8503:8533   */\n      swap1\n      pop\n        /* \"#utility.yul\":8542:8575   */\n      tag_272\n        /* \"#utility.yul\":8570:8574   */\n      dup3\n        /* \"#utility.yul\":8562:8568   */\n      dup3\n        /* \"#utility.yul\":8542:8575   */\n      tag_153\n      jump\t// in\n    tag_272:\n        /* \"#utility.yul\":8452:8581   */\n      swap2\n      swap1\n      pop\n      jump\t// out\n        /* \"#utility.yul\":8587:8895   */\n    tag_155:\n        /* \"#utility.yul\":8649:8653   */\n      0x00\n        /* \"#utility.yul\":8739:8757   */\n      0xffffffffffffffff\n        /* \"#utility.yul\":8731:8737   */\n      dup3\n        /* \"#utility.yul\":8728:8758   */\n      gt\n        /* \"#utility.yul\":8725:8781   */\n      iszero\n      tag_274\n      jumpi\n        /* \"#utility.yul\":8761:8779   */\n      tag_275\n      tag_152\n      jump\t// in\n    tag_275:\n        /* \"#utility.yul\":8725:8781   */\n    tag_274:\n        /* \"#utility.yul\":8799:8828   */\n      tag_276\n        /* \"#utility.yul\":8821:8827   */\n      dup3\n        /* \"#utility.yul\":8799:8828   */\n      tag_134\n      jump\t// in\n    tag_276:\n        /* \"#utility.yul\":8791:8828   */\n      swap1\n      pop\n        /* \"#utility.yul\":8883:8887   */\n      0x20\n        /* \"#utility.yul\":8877:8881   */\n      dup2\n        /* \"#utility.yul\":8873:8888   */\n      add\n        /* \"#utility.yul\":8865:8888   */\n      swap1\n      pop\n        /* \"#utility.yul\":8587:8895   */\n      swap2\n      swap1\n      pop\n      jump\t// out\n        /* \"#utility.yul\":8901:9047   */\n    tag_156:\n        /* \"#utility.yul\":8998:9004   */\n      dup3\n        /* \"#utility.yul\":8993:8996   */\n      dup2\n        /* \"#utility.yul\":8988:8991   */\n      dup4\n        /* \"#utility.yul\":8975:9005   */\n      calldatacopy\n        /* \"#utility.yul\":9039:9040   */\n      0x00\n        /* \"#utility.yul\":9030:9036   */\n      dup4\n        /* \"#utility.yul\":9025:9028   */\n      dup4\n        /* \"#utility.yul\":9021:9037   */\n      add\n        /* \"#utility.yul\":9014:9041   */\n      mstore\n        /* \"#utility.yul\":8901:9047   */\n      pop\n      pop\n      pop\n      jump\t// out\n        /* \"#utility.yul\":9053:9478   */\n    tag_157:\n        /* \"#utility.yul\":9131:9136   */\n      0x00\n        /* \"#utility.yul\":9156:9222   */\n      tag_279\n        /* \"#utility.yul\":9172:9221   */\n      tag_280\n        /* \"#utility.yul\":9214:9220   */\n      dup5\n        /* \"#utility.yul\":9172:9221   */\n      tag_155\n      jump\t// in\n    tag_280:\n        /* \"#utility.yul\":9156:9222   */\n      tag_154\n      jump\t// in\n    tag_279:\n        /* \"#utility.yul\":9147:9222   */\n      swap1\n      pop\n        /* \"#utility.yul\":9245:9251   */\n      dup3\n        /* \"#utility.yul\":9238:9243   */\n      dup2\n        /* \"#utility.yul\":9231:9252   */\n      mstore\n        /* \"#utility.yul\":9283:9287   */\n      0x20\n        /* \"#utility.yul\":9276:9281   */\n      dup2\n        /* \"#utility.yul\":9272:9288   */\n      add\n        /* \"#utility.yul\":9321:9324   */\n      dup5\n        /* \"#utility.yul\":9312:9318   */\n      dup5\n        /* \"#utility.yul\":9307:9310   */\n      dup5\n        /* \"#utility.yul\":9303:9319   */\n      add\n        /* \"#utility.yul\":9300:9325   */\n      gt\n        /* \"#utility.yul\":9297:9409   */\n      iszero\n      tag_281\n      jumpi\n        /* \"#utility.yul\":9328:9407   */\n      tag_282\n      tag_151\n      jump\t// in\n    tag_282:\n        /* \"#utility.yul\":9297:9409   */\n    tag_281:\n        /* \"#utility.yul\":9418:9472   */\n      tag_283\n        /* \"#utility.yul\":9465:9471   */\n      dup5\n        /* \"#utility.yul\":9460:9463   */\n      dup3\n        /* \"#utility.yul\":9455:9458   */\n      dup6\n        /* \"#utility.yul\":9418:9472   */\n      tag_156\n      jump\t// in\n    tag_283:\n        /* \"#utility.yul\":9137:9478   */\n      pop\n        /* \"#utility.yul\":9053:9478   */\n      swap4\n      swap3\n      pop\n      pop\n      pop\n      jump\t// out\n        /* \"#utility.yul\":9498:9838   */\n    tag_158:\n        /* \"#utility.yul\":9554:9559   */\n      0x00\n        /* \"#utility.yul\":9603:9606   */\n      dup3\n        /* \"#utility.yul\":9596:9600   */\n      0x1f\n        /* \"#utility.yul\":9588:9594   */\n      dup4\n        /* \"#utility.yul\":9584:9601   */\n      add\n        /* \"#utility.yul\":9580:9607   */\n      slt\n        /* \"#utility.yul\":9570:9692   */\n      tag_285\n      jumpi\n        /* \"#utility.yul\":9611:9690   */\n      tag_286\n      tag_150\n      jump\t// in\n    tag_286:\n        /* \"#utility.yul\":9570:9692   */\n    tag_285:\n        /* \"#utility.yul\":9728:9734   */\n      dup2\n        /* \"#utility.yul\":9715:9735   */\n      calldataload\n        /* \"#utility.yul\":9753:9832   */\n      tag_287\n        /* \"#utility.yul\":9828:9831   */\n      dup5\n        /* \"#utility.yul\":9820:9826   */\n      dup3\n        /* \"#utility.yul\":9813:9817   */\n      0x20\n        /* \"#utility.yul\":9805:9811   */\n      dup7\n        /* \"#utility.yul\":9801:9818   */\n      add\n        /* \"#utility.yul\":9753:9832   */\n      tag_157\n      jump\t// in\n    tag_287:\n        /* \"#utility.yul\":9744:9832   */\n      swap2\n      pop\n        /* \"#utility.yul\":9560:9838   */\n      pop\n        /* \"#utility.yul\":9498:9838   */\n      swap3\n      swap2\n      pop\n      pop\n      jump\t// out\n        /* \"#utility.yul\":9844:11003   */\n    tag_45:\n        /* \"#utility.yul\":9951:9957   */\n      0x00\n        /* \"#utility.yul\":9959:9965   */\n      dup1\n        /* \"#utility.yul\":9967:9973   */\n      0x00\n        /* \"#utility.yul\":10016:10018   */\n      0x60\n        /* \"#utility.yul\":10004:10013   */\n      dup5\n        /* \"#utility.yul\":9995:10002   */\n      dup7\n        /* \"#utility.yul\":9991:10014   */\n      sub\n        /* \"#utility.yul\":9987:10019   */\n      slt\n        /* \"#utility.yul\":9984:10103   */\n      iszero\n      tag_289\n      jumpi\n        /* \"#utility.yul\":10022:10101   */\n      tag_290\n      tag_125\n      jump\t// in\n    tag_290:\n        /* \"#utility.yul\":9984:10103   */\n    tag_289:\n        /* \"#utility.yul\":10170:10171   */\n      0x00\n        /* \"#utility.yul\":10159:10168   */\n      dup5\n        /* \"#utility.yul\":10155:10172   */\n      add\n        /* \"#utility.yul\":10142:10173   */\n      calldataload\n        /* \"#utility.yul\":10200:10218   */\n      0xffffffffffffffff\n        /* \"#utility.yul\":10192:10198   */\n      dup2\n        /* \"#utility.yul\":10189:10219   */\n      gt\n        /* \"#utility.yul\":10186:10303   */\n      iszero\n      tag_291\n      jumpi\n        /* \"#utility.yul\":10222:10301   */\n      tag_292\n      tag_126\n      jump\t// in\n    tag_292:\n        /* \"#utility.yul\":10186:10303   */\n    tag_291:\n        /* \"#utility.yul\":10327:10390   */\n      tag_293\n        /* \"#utility.yul\":10382:10389   */\n      dup7\n        /* \"#utility.yul\":10373:10379   */\n      dup3\n        /* \"#utility.yul\":10362:10371   */\n      dup8\n        /* \"#utility.yul\":10358:10380   */\n      add\n        /* \"#utility.yul\":10327:10390   */\n      tag_158\n      jump\t// in\n    tag_293:\n        /* \"#utility.yul\":10317:10390   */\n      swap4\n      pop\n        /* \"#utility.yul\":10113:10400   */\n      pop\n        /* \"#utility.yul\":10467:10469   */\n      0x20\n        /* \"#utility.yul\":10456:10465   */\n      dup5\n        /* \"#utility.yul\":10452:10470   */\n      add\n        /* \"#utility.yul\":10439:10471   */\n      calldataload\n        /* \"#utility.yul\":10498:10516   */\n      0xffffffffffffffff\n        /* \"#utility.yul\":10490:10496   */\n      dup2\n        /* \"#utility.yul\":10487:10517   */\n      gt\n        /* \"#utility.yul\":10484:10601   */\n      iszero\n      tag_294\n      jumpi\n        /* \"#utility.yul\":10520:10599   */\n      tag_295\n      tag_126\n      jump\t// in\n    tag_295:\n        /* \"#utility.yul\":10484:10601   */\n    tag_294:\n        /* \"#utility.yul\":10625:10688   */\n      tag_296\n        /* \"#utility.yul\":10680:10687   */\n      dup7\n        /* \"#utility.yul\":10671:10677   */\n      dup3\n        /* \"#utility.yul\":10660:10669   */\n      dup8\n        /* \"#utility.yul\":10656:10678   */\n      add\n        /* \"#utility.yul\":10625:10688   */\n      tag_158\n      jump\t// in\n    tag_296:\n        /* \"#utility.yul\":10615:10688   */\n      swap3\n      pop\n        /* \"#utility.yul\":10410:10698   */\n      pop\n        /* \"#utility.yul\":10765:10767   */\n      0x40\n        /* \"#utility.yul\":10754:10763   */\n      dup5\n        /* \"#utility.yul\":10750:10768   */\n      add\n        /* \"#utility.yul\":10737:10769   */\n      calldataload\n        /* \"#utility.yul\":10796:10814   */\n      0xffffffffffffffff\n        /* \"#utility.yul\":10788:10794   */\n      dup2\n        /* \"#utility.yul\":10785:10815   */\n      gt\n        /* \"#utility.yul\":10782:10899   */\n      iszero\n      tag_297\n      jumpi\n        /* \"#utility.yul\":10818:10897   */\n      tag_298\n      tag_126\n      jump\t// in\n    tag_298:\n        /* \"#utility.yul\":10782:10899   */\n    tag_297:\n        /* \"#utility.yul\":10923:10986   */\n      tag_299\n        /* \"#utility.yul\":10978:10985   */\n      dup7\n        /* \"#utility.yul\":10969:10975   */\n      dup3\n        /* \"#utility.yul\":10958:10967   */\n      dup8\n        /* \"#utility.yul\":10954:10976   */\n      add\n        /* \"#utility.yul\":10923:10986   */\n      tag_158\n      jump\t// in\n    tag_299:\n        /* \"#utility.yul\":10913:10986   */\n      swap2\n      pop\n        /* \"#utility.yul\":10708:10996   */\n      pop\n        /* \"#utility.yul\":9844:11003   */\n      swap3\n      pop\n      swap3\n      pop\n      swap3\n      jump\t// out\n        /* \"#utility.yul\":11009:11127   */\n    tag_159:\n        /* \"#utility.yul\":11096:11120   */\n      tag_301\n        /* \"#utility.yul\":11114:11119   */\n      dup2\n        /* \"#utility.yul\":11096:11120   */\n      tag_142\n      jump\t// in\n    tag_301:\n        /* \"#utility.yul\":11091:11094   */\n      dup3\n        /* \"#utility.yul\":11084:11121   */\n      mstore\n        /* \"#utility.yul\":11009:11127   */\n      pop\n      pop\n      jump\t// out\n        /* \"#utility.yul\":11133:11355   */\n    tag_50:\n        /* \"#utility.yul\":11226:11230   */\n      0x00\n        /* \"#utility.yul\":11264:11266   */\n      0x20\n        /* \"#utility.yul\":11253:11262   */\n      dup3\n        /* \"#utility.yul\":11249:11267   */\n      add\n        /* \"#utility.yul\":11241:11267   */\n      swap1\n      pop\n        /* \"#utility.yul\":11277:11348   */\n      tag_303\n        /* \"#utility.yul\":11345:11346   */\n      0x00\n        /* \"#utility.yul\":11334:11343   */\n      dup4\n        /* \"#utility.yul\":11330:11347   */\n      add\n        /* \"#utility.yul\":11321:11327   */\n      dup5\n        /* \"#utility.yul\":11277:11348   */\n      tag_159\n      jump\t// in\n    tag_303:\n        /* \"#utility.yul\":11133:11355   */\n      swap3\n      swap2\n      pop\n      pop\n      jump\t// out\n        /* \"#utility.yul\":11361:11533   */\n    tag_160:\n        /* \"#utility.yul\":11501:11525   */\n      0x496e76616c696420636572746966696361746520494400000000000000000000\n        /* \"#utility.yul\":11497:11498   */\n      0x00\n        /* \"#utility.yul\":11489:11495   */\n      dup3\n        /* \"#utility.yul\":11485:11499   */\n      add\n        /* \"#utility.yul\":11478:11526   */\n      mstore\n        /* \"#utility.yul\":11361:11533   */\n      pop\n      jump\t// out\n        /* \"#utility.yul\":11539:11905   */\n    tag_161:\n        /* \"#utility.yul\":11681:11684   */\n      0x00\n        /* \"#utility.yul\":11702:11769   */\n      tag_306\n        /* \"#utility.yul\":11766:11768   */\n      0x16\n        /* \"#utility.yul\":11761:11764   */\n      dup4\n        /* \"#utility.yul\":11702:11769   */\n      tag_147\n      jump\t// in\n    tag_306:\n        /* \"#utility.yul\":11695:11769   */\n      swap2\n      pop\n        /* \"#utility.yul\":11778:11871   */\n      tag_307\n        /* \"#utility.yul\":11867:11870   */\n      dup3\n        /* \"#utility.yul\":11778:11871   */\n      tag_160\n      jump\t// in\n    tag_307:\n        /* \"#utility.yul\":11896:11898   */\n      0x20\n        /* \"#utility.yul\":11891:11894   */\n      dup3\n        /* \"#utility.yul\":11887:11899   */\n      add\n        /* \"#utility.yul\":11880:11899   */\n      swap1\n      pop\n        /* \"#utility.yul\":11539:11905   */\n      swap2\n      swap1\n      pop\n      jump\t// out\n        /* \"#utility.yul\":11911:12330   */\n    tag_56:\n        /* \"#utility.yul\":12077:12081   */\n      0x00\n        /* \"#utility.yul\":12115:12117   */\n      0x20\n        /* \"#utility.yul\":12104:12113   */\n      dup3\n        /* \"#utility.yul\":12100:12118   */\n      add\n        /* \"#utility.yul\":12092:12118   */\n      swap1\n      pop\n        /* \"#utility.yul\":12164:12173   */\n      dup2\n        /* \"#utility.yul\":12158:12162   */\n      dup2\n        /* \"#utility.yul\":12154:12174   */\n      sub\n        /* \"#utility.yul\":12150:12151   */\n      0x00\n        /* \"#utility.yul\":12139:12148   */\n      dup4\n        /* \"#utility.yul\":12135:12152   */\n      add\n        /* \"#utility.yul\":12128:12175   */\n      mstore\n        /* \"#utility.yul\":12192:12323   */\n      tag_309\n        /* \"#utility.yul\":12318:12322   */\n      dup2\n        /* \"#utility.yul\":12192:12323   */\n      tag_161\n      jump\t// in\n    tag_309:\n        /* \"#utility.yul\":12184:12323   */\n      swap1\n      pop\n        /* \"#utility.yul\":11911:12330   */\n      swap2\n      swap1\n      pop\n      jump\t// out\n        /* \"#utility.yul\":12336:12516   */\n    tag_162:\n        /* \"#utility.yul\":12384:12461   */\n      0x4e487b7100000000000000000000000000000000000000000000000000000000\n        /* \"#utility.yul\":12381:12382   */\n      0x00\n        /* \"#utility.yul\":12374:12462   */\n      mstore\n        /* \"#utility.yul\":12481:12485   */\n      0x22\n        /* \"#utility.yul\":12478:12479   */\n      0x04\n        /* \"#utility.yul\":12471:12486   */\n      mstore\n        /* \"#utility.yul\":12505:12509   */\n      0x24\n        /* \"#utility.yul\":12502:12503   */\n      0x00\n        /* \"#utility.yul\":12495:12510   */\n      revert\n        /* \"#utility.yul\":12522:12842   */\n    tag_58:\n        /* \"#utility.yul\":12566:12572   */\n      0x00\n        /* \"#utility.yul\":12603:12604   */\n      0x02\n        /* \"#utility.yul\":12597:12601   */\n      dup3\n        /* \"#utility.yul\":12593:12605   */\n      div\n        /* \"#utility.yul\":12583:12605   */\n      swap1\n      pop\n        /* \"#utility.yul\":12650:12651   */\n      0x01\n        /* \"#utility.yul\":12644:12648   */\n      dup3\n        /* \"#utility.yul\":12640:12652   */\n      and\n        /* \"#utility.yul\":12671:12689   */\n      dup1\n        /* \"#utility.yul\":12661:12742   */\n      tag_312\n      jumpi\n        /* \"#utility.yul\":12727:12731   */\n      0x7f\n        /* \"#utility.yul\":12719:12725   */\n      dup3\n        /* \"#utility.yul\":12715:12732   */\n      and\n        /* \"#utility.yul\":12705:12732   */\n      swap2\n      pop\n        /* \"#utility.yul\":12661:12742   */\n    tag_312:\n        /* \"#utility.yul\":12789:12791   */\n      0x20\n        /* \"#utility.yul\":12781:12787   */\n      dup3\n        /* \"#utility.yul\":12778:12792   */\n      lt\n        /* \"#utility.yul\":12758:12776   */\n      dup2\n        /* \"#utility.yul\":12755:12793   */\n      sub\n        /* \"#utility.yul\":12752:12836   */\n      tag_313\n      jumpi\n        /* \"#utility.yul\":12808:12826   */\n      tag_314\n      tag_162\n      jump\t// in\n    tag_314:\n        /* \"#utility.yul\":12752:12836   */\n    tag_313:\n        /* \"#utility.yul\":12573:12842   */\n      pop\n        /* \"#utility.yul\":12522:12842   */\n      swap2\n      swap1\n      pop\n      jump\t// out\n        /* \"#utility.yul\":12848:13068   */\n    tag_163:\n        /* \"#utility.yul\":12988:13022   */\n      0x4f6e6c792061646d696e2063616e2063616c6c20746869732066756e6374696f\n        /* \"#utility.yul\":12984:12985   */\n      0x00\n        /* \"#utility.yul\":12976:12982   */\n      dup3\n        /* \"#utility.yul\":12972:12986   */\n      add\n        /* \"#utility.yul\":12965:13023   */\n      mstore\n        /* \"#utility.yul\":13057:13060   */\n      0x6e00000000000000000000000000000000000000000000000000000000000000\n        /* \"#utility.yul\":13052:13054   */\n      0x20\n        /* \"#utility.yul\":13044:13050   */\n      dup3\n        /* \"#utility.yul\":13040:13055   */\n      add\n        /* \"#utility.yul\":13033:13061   */\n      mstore\n        /* \"#utility.yul\":12848:13068   */\n      pop\n      jump\t// out\n        /* \"#utility.yul\":13074:13440   */\n    tag_164:\n        /* \"#utility.yul\":13216:13219   */\n      0x00\n        /* \"#utility.yul\":13237:13304   */\n      tag_317\n        /* \"#utility.yul\":13301:13303   */\n      0x21\n        /* \"#utility.yul\":13296:13299   */\n      dup4\n        /* \"#utility.yul\":13237:13304   */\n      tag_147\n      jump\t// in\n    tag_317:\n        /* \"#utility.yul\":13230:13304   */\n      swap2\n      pop\n        /* \"#utility.yul\":13313:13406   */\n      tag_318\n        /* \"#utility.yul\":13402:13405   */\n      dup3\n        /* \"#utility.yul\":13313:13406   */\n      tag_163\n      jump\t// in\n    tag_318:\n        /* \"#utility.yul\":13431:13433   */\n      0x40\n        /* \"#utility.yul\":13426:13429   */\n      dup3\n        /* \"#utility.yul\":13422:13434   */\n      add\n        /* \"#utility.yul\":13415:13434   */\n      swap1\n      pop\n        /* \"#utility.yul\":13074:13440   */\n      swap2\n      swap1\n      pop\n      jump\t// out\n        /* \"#utility.yul\":13446:13865   */\n    tag_76:\n        /* \"#utility.yul\":13612:13616   */\n      0x00\n        /* \"#utility.yul\":13650:13652   */\n      0x20\n        /* \"#utility.yul\":13639:13648   */\n      dup3\n        /* \"#utility.yul\":13635:13653   */\n      add\n        /* \"#utility.yul\":13627:13653   */\n      swap1\n      pop\n        /* \"#utility.yul\":13699:13708   */\n      dup2\n        /* \"#utility.yul\":13693:13697   */\n      dup2\n        /* \"#utility.yul\":13689:13709   */\n      sub\n        /* \"#utility.yul\":13685:13686   */\n      0x00\n        /* \"#utility.yul\":13674:13683   */\n      dup4\n        /* \"#utility.yul\":13670:13687   */\n      add\n        /* \"#utility.yul\":13663:13710   */\n      mstore\n        /* \"#utility.yul\":13727:13858   */\n      tag_320\n        /* \"#utility.yul\":13853:13857   */\n      dup2\n        /* \"#utility.yul\":13727:13858   */\n      tag_164\n      jump\t// in\n    tag_320:\n        /* \"#utility.yul\":13719:13858   */\n      swap1\n      pop\n        /* \"#utility.yul\":13446:13865   */\n      swap2\n      swap1\n      pop\n      jump\t// out\n        /* \"#utility.yul\":13871:14103   */\n    tag_165:\n        /* \"#utility.yul\":14011:14045   */\n      0x4f6e6c7920617574686f72697a6564206973737565722063616e2063616c6c20\n        /* \"#utility.yul\":14007:14008   */\n      0x00\n        /* \"#utility.yul\":13999:14005   */\n      dup3\n        /* \"#utility.yul\":13995:14009   */\n      add\n        /* \"#utility.yul\":13988:14046   */\n      mstore\n        /* \"#utility.yul\":14080:14095   */\n      0x746869732066756e6374696f6e00000000000000000000000000000000000000\n        /* \"#utility.yul\":14075:14077   */\n      0x20\n        /* \"#utility.yul\":14067:14073   */\n      dup3\n        /* \"#utility.yul\":14063:14078   */\n      add\n        /* \"#utility.yul\":14056:14096   */\n      mstore\n        /* \"#utility.yul\":13871:14103   */\n      pop\n      jump\t// out\n        /* \"#utility.yul\":14109:14475   */\n    tag_166:\n        /* \"#utility.yul\":14251:14254   */\n      0x00\n        /* \"#utility.yul\":14272:14339   */\n      tag_323\n        /* \"#utility.yul\":14336:14338   */\n      0x2d\n        /* \"#utility.yul\":14331:14334   */\n      dup4\n        /* \"#utility.yul\":14272:14339   */\n      tag_147\n      jump\t// in\n    tag_323:\n        /* \"#utility.yul\":14265:14339   */\n      swap2\n      pop\n        /* \"#utility.yul\":14348:14441   */\n      tag_324\n        /* \"#utility.yul\":14437:14440   */\n      dup3\n        /* \"#utility.yul\":14348:14441   */\n      tag_165\n      jump\t// in\n    tag_324:\n        /* \"#utility.yul\":14466:14468   */\n      0x40\n        /* \"#utility.yul\":14461:14464   */\n      dup3\n        /* \"#utility.yul\":14457:14469   */\n      add\n        /* \"#utility.yul\":14450:14469   */\n      swap1\n      pop\n        /* \"#utility.yul\":14109:14475   */\n      swap2\n      swap1\n      pop\n      jump\t// out\n        /* \"#utility.yul\":14481:14900   */\n    tag_102:\n        /* \"#utility.yul\":14647:14651   */\n      0x00\n        /* \"#utility.yul\":14685:14687   */\n      0x20\n        /* \"#utility.yul\":14674:14683   */\n      dup3\n        /* \"#utility.yul\":14670:14688   */\n      add\n        /* \"#utility.yul\":14662:14688   */\n      swap1\n      pop\n        /* \"#utility.yul\":14734:14743   */\n      dup2\n        /* \"#utility.yul\":14728:14732   */\n      dup2\n        /* \"#utility.yul\":14724:14744   */\n      sub\n        /* \"#utility.yul\":14720:14721   */\n      0x00\n        /* \"#utility.yul\":14709:14718   */\n      dup4\n        /* \"#utility.yul\":14705:14722   */\n      add\n        /* \"#utility.yul\":14698:14745   */\n      mstore\n        /* \"#utility.yul\":14762:14893   */\n      tag_326\n        /* \"#utility.yul\":14888:14892   */\n      dup2\n        /* \"#utility.yul\":14762:14893   */\n      tag_166\n      jump\t// in\n    tag_326:\n        /* \"#utility.yul\":14754:14893   */\n      swap1\n      pop\n        /* \"#utility.yul\":14481:14900   */\n      swap2\n      swap1\n      pop\n      jump\t// out\n        /* \"#utility.yul\":14906:15226   */\n    tag_107:\n        /* \"#utility.yul\":15021:15025   */\n      0x00\n        /* \"#utility.yul\":15059:15061   */\n      0x40\n        /* \"#utility.yul\":15048:15057   */\n      dup3\n        /* \"#utility.yul\":15044:15062   */\n      add\n        /* \"#utility.yul\":15036:15062   */\n      swap1\n      pop\n        /* \"#utility.yul\":15072:15143   */\n      tag_328\n        /* \"#utility.yul\":15140:15141   */\n      0x00\n        /* \"#utility.yul\":15129:15138   */\n      dup4\n        /* \"#utility.yul\":15125:15142   */\n      add\n        /* \"#utility.yul\":15116:15122   */\n      dup6\n        /* \"#utility.yul\":15072:15143   */\n      tag_146\n      jump\t// in\n    tag_328:\n        /* \"#utility.yul\":15153:15219   */\n      tag_329\n        /* \"#utility.yul\":15215:15217   */\n      0x20\n        /* \"#utility.yul\":15204:15213   */\n      dup4\n        /* \"#utility.yul\":15200:15218   */\n      add\n        /* \"#utility.yul\":15191:15197   */\n      dup5\n        /* \"#utility.yul\":15153:15219   */\n      tag_145\n      jump\t// in\n    tag_329:\n        /* \"#utility.yul\":14906:15226   */\n      swap4\n      swap3\n      pop\n      pop\n      pop\n      jump\t// out\n        /* \"#utility.yul\":15232:15373   */\n    tag_167:\n        /* \"#utility.yul\":15281:15285   */\n      0x00\n        /* \"#utility.yul\":15304:15307   */\n      dup2\n        /* \"#utility.yul\":15296:15307   */\n      swap1\n      pop\n        /* \"#utility.yul\":15327:15330   */\n      dup2\n        /* \"#utility.yul\":15324:15325   */\n      0x00\n        /* \"#utility.yul\":15317:15331   */\n      mstore\n        /* \"#utility.yul\":15361:15365   */\n      0x20\n        /* \"#utility.yul\":15358:15359   */\n      0x00\n        /* \"#utility.yul\":15348:15366   */\n      keccak256\n        /* \"#utility.yul\":15340:15366   */\n      swap1\n      pop\n        /* \"#utility.yul\":15232:15373   */\n      swap2\n      swap1\n      pop\n      jump\t// out\n        /* \"#utility.yul\":15379:15472   */\n    tag_168:\n        /* \"#utility.yul\":15416:15422   */\n      0x00\n        /* \"#utility.yul\":15463:15465   */\n      0x20\n        /* \"#utility.yul\":15458:15460   */\n      0x1f\n        /* \"#utility.yul\":15451:15456   */\n      dup4\n        /* \"#utility.yul\":15447:15461   */\n      add\n        /* \"#utility.yul\":15443:15466   */\n      div\n        /* \"#utility.yul\":15433:15466   */\n      swap1\n      pop\n        /* \"#utility.yul\":15379:15472   */\n      swap2\n      swap1\n      pop\n      jump\t// out\n        /* \"#utility.yul\":15478:15585   */\n    tag_169:\n        /* \"#utility.yul\":15522:15530   */\n      0x00\n        /* \"#utility.yul\":15572:15577   */\n      dup3\n        /* \"#utility.yul\":15566:15570   */\n      dup3\n        /* \"#utility.yul\":15562:15578   */\n      shl\n        /* \"#utility.yul\":15541:15578   */\n      swap1\n      pop\n        /* \"#utility.yul\":15478:15585   */\n      swap3\n      swap2\n      pop\n      pop\n      jump\t// out\n        /* \"#utility.yul\":15591:15984   */\n    tag_170:\n        /* \"#utility.yul\":15660:15666   */\n      0x00\n        /* \"#utility.yul\":15710:15711   */\n      0x08\n        /* \"#utility.yul\":15698:15708   */\n      dup4\n        /* \"#utility.yul\":15694:15712   */\n      mul\n        /* \"#utility.yul\":15733:15830   */\n      tag_334\n        /* \"#utility.yul\":15763:15829   */\n      0xffffffffffffffffffffffffffffffffffffffffffffffffffffffffffffffff\n        /* \"#utility.yul\":15752:15761   */\n      dup3\n        /* \"#utility.yul\":15733:15830   */\n      tag_169\n      jump\t// in\n    tag_334:\n        /* \"#utility.yul\":15851:15890   */\n      tag_335\n        /* \"#utility.yul\":15881:15889   */\n      dup7\n        /* \"#utility.yul\":15870:15879   */\n      dup4\n        /* \"#utility.yul\":15851:15890   */\n      tag_169\n      jump\t// in\n    tag_335:\n        /* \"#utility.yul\":15839:15890   */\n      swap6\n      pop\n        /* \"#utility.yul\":15923:15927   */\n      dup1\n        /* \"#utility.yul\":15919:15928   */\n      not\n        /* \"#utility.yul\":15912:15917   */\n      dup5\n        /* \"#utility.yul\":15908:15929   */\n      and\n        /* \"#utility.yul\":15899:15929   */\n      swap4\n      pop\n        /* \"#utility.yul\":15972:15976   */\n      dup1\n        /* \"#utility.yul\":15962:15970   */\n      dup7\n        /* \"#utility.yul\":15958:15977   */\n      and\n        /* \"#utility.yul\":15951:15956   */\n      dup5\n        /* \"#utility.yul\":15948:15978   */\n      or\n        /* \"#utility.yul\":15938:15978   */\n      swap3\n      pop\n        /* \"#utility.yul\":15667:15984   */\n      pop\n      pop\n        /* \"#utility.yul\":15591:15984   */\n      swap4\n      swap3\n      pop\n      pop\n      pop\n      jump\t// out\n        /* \"#utility.yul\":15990:16050   */\n    tag_171:\n        /* \"#utility.yul\":16018:16021   */\n      0x00\n        /* \"#utility.yul\":16039:16044   */\n      dup2\n        /* \"#utility.yul\":16032:16044   */\n      swap1\n      pop\n        /* \"#utility.yul\":15990:16050   */\n      swap2\n      swap1\n      pop\n      jump\t// out\n        /* \"#utility.yul\":16056:16198   */\n    tag_172:\n        /* \"#utility.yul\":16106:16115   */\n      0x00\n        /* \"#utility.yul\":16139:16192   */\n      tag_338\n        /* \"#utility.yul\":16157:16191   */\n      tag_339\n        /* \"#utility.yul\":16166:16190   */\n      tag_340\n        /* \"#utility.yul\":16184:16189   */\n      dup5\n        /* \"#utility.yul\":16166:16190   */\n      tag_127\n      jump\t// in\n    tag_340:\n        /* \"#utility.yul\":16157:16191   */\n      tag_171\n      jump\t// in\n    tag_339:\n        /* \"#utility.yul\":16139:16192   */\n      tag_127\n      jump\t// in\n    tag_338:\n        /* \"#utility.yul\":16126:16192   */\n      swap1\n      pop\n        /* \"#utility.yul\":16056:16198   */\n      swap2\n      swap1\n      pop\n      jump\t// out\n        /* \"#utility.yul\":16204:16279   */\n    tag_173:\n        /* \"#utility.yul\":16247:16250   */\n      0x00\n        /* \"#utility.yul\":16268:16273   */\n      dup2\n        /* \"#utility.yul\":16261:16273   */\n      swap1\n      pop\n        /* \"#utility.yul\":16204:16279   */\n      swap2\n      swap1\n      pop\n      jump\t// out\n        /* \"#utility.yul\":16285:16554   */\n    tag_174:\n        /* \"#utility.yul\":16395:16434   */\n      tag_343\n        /* \"#utility.yul\":16426:16433   */\n      dup4\n        /* \"#utility.yul\":16395:16434   */\n      tag_172\n      jump\t// in\n    tag_343:\n        /* \"#utility.yul\":16456:16547   */\n      tag_344\n        /* \"#utility.yul\":16505:16546   */\n      tag_345\n        /* \"#utility.yul\":16529:16545   */\n      dup3\n        /* \"#utility.yul\":16505:16546   */\n      tag_173\n      jump\t// in\n    tag_345:\n        /* \"#utility.yul\":16497:16503   */\n      dup5\n        /* \"#utility.yul\":16490:16494   */\n      dup5\n        /* \"#utility.yul\":16484:16495   */\n      sload\n        /* \"#utility.yul\":16456:16547   */\n      tag_170\n      jump\t// in\n    tag_344:\n        /* \"#utility.yul\":16450:16454   */\n      dup3\n        /* \"#utility.yul\":16443:16548   */\n      sstore\n        /* \"#utility.yul\":16361:16554   */\n      pop\n        /* \"#utility.yul\":16285:16554   */\n      pop\n      pop\n      pop\n      jump\t// out\n        /* \"#utility.yul\":16560:16633   */\n    tag_175:\n        /* \"#utility.yul\":16605:16608   */\n      0x00\n        /* \"#utility.yul\":16560:16633   */\n      swap1\n      jump\t// out\n        /* \"#utility.yul\":16639:16828   */\n    tag_176:\n        /* \"#utility.yul\":16716:16748   */\n      tag_348\n      tag_175\n      jump\t// in\n    tag_348:\n        /* \"#utility.yul\":16757:16822   */\n      tag_349\n        /* \"#utility.yul\":16815:16821   */\n      dup2\n        /* \"#utility.yul\":16807:16813   */\n      dup5\n        /* \"#utility.yul\":16801:16805   */\n      dup5\n        /* \"#utility.yul\":16757:16822   */\n      tag_174\n      jump\t// in\n    tag_349:\n        /* \"#utility.yul\":16692:16828   */\n      pop\n        /* \"#utility.yul\":16639:16828   */\n      pop\n      pop\n      jump\t// out\n        /* \"#utility.yul\":16834:17020   */\n    tag_177:\n        /* \"#utility.yul\":16894:17014   */\n    tag_351:\n        /* \"#utility.yul\":16911:16914   */\n      dup2\n        /* \"#utility.yul\":16904:16909   */\n      dup2\n        /* \"#utility.yul\":16901:16915   */\n      lt\n        /* \"#utility.yul\":16894:17014   */\n      iszero\n      tag_353\n      jumpi\n        /* \"#utility.yul\":16965:17004   */\n      tag_354\n        /* \"#utility.yul\":17002:17003   */\n      0x00\n        /* \"#utility.yul\":16995:17000   */\n      dup3\n        /* \"#utility.yul\":16965:17004   */\n      tag_176\n      jump\t// in\n    tag_354:\n        /* \"#utility.yul\":16938:16939   */\n      0x01\n        /* \"#utility.yul\":16931:16936   */\n      dup2\n        /* \"#utility.yul\":16927:16940   */\n      add\n        /* \"#utility.yul\":16918:16940   */\n      swap1\n      pop\n        /* \"#utility.yul\":16894:17014   */\n      jump(tag_351)\n    tag_353:\n        /* \"#utility.yul\":16834:17020   */\n      pop\n      pop\n      jump\t// out\n        /* \"#utility.yul\":17026:17569   */\n    tag_178:\n        /* \"#utility.yul\":17127:17129   */\n      0x1f\n        /* \"#utility.yul\":17122:17125   */\n      dup3\n        /* \"#utility.yul\":17119:17130   */\n      gt\n        /* \"#utility.yul\":17116:17562   */\n      iszero\n      tag_356\n      jumpi\n        /* \"#utility.yul\":17161:17199   */\n      tag_357\n        /* \"#utility.yul\":17193:17198   */\n      dup2\n        /* \"#utility.yul\":17161:17199   */\n      tag_167\n      jump\t// in\n    tag_357:\n        /* \"#utility.yul\":17245:17274   */\n      tag_358\n        /* \"#utility.yul\":17263:17273   */\n      dup5\n        /* \"#utility.yul\":17245:17274   */\n      tag_168\n      jump\t// in\n    tag_358:\n        /* \"#utility.yul\":17235:17243   */\n      dup2\n        /* \"#utility.yul\":17231:17275   */\n      add\n        /* \"#utility.yul\":17428:17430   */\n      0x20\n        /* \"#utility.yul\":17416:17426   */\n      dup6\n        /* \"#utility.yul\":17413:17431   */\n      lt\n        /* \"#utility.yul\":17410:17459   */\n      iszero\n      tag_359\n      jumpi\n        /* \"#utility.yul\":17449:17457   */\n      dup2\n        /* \"#utility.yul\":17434:17457   */\n      swap1\n      pop\n        /* \"#utility.yul\":17410:17459   */\n    tag_359:\n        /* \"#utility.yul\":17472:17552   */\n      tag_360\n        /* \"#utility.yul\":17528:17550   */\n      tag_361\n        /* \"#utility.yul\":17546:17549   */\n      dup6\n        /* \"#utility.yul\":17528:17550   */\n      tag_168\n      jump\t// in\n    tag_361:\n        /* \"#utility.yul\":17518:17526   */\n      dup4\n        /* \"#utility.yul\":17514:17551   */\n      add\n        /* \"#utility.yul\":17501:17512   */\n      dup3\n        /* \"#utility.yul\":17472:17552   */\n      tag_177\n      jump\t// in\n    tag_360:\n        /* \"#utility.yul\":17131:17562   */\n      pop\n      pop\n        /* \"#utility.yul\":17116:17562   */\n    tag_356:\n        /* \"#utility.yul\":17026:17569   */\n      pop\n      pop\n      pop\n      jump\t// out\n        /* \"#utility.yul\":17575:17692   */\n    tag_179:\n        /* \"#utility.yul\":17629:17637   */\n      0x00\n        /* \"#utility.yul\":17679:17684   */\n      dup3\n        /* \"#utility.yul\":17673:17677   */\n      dup3\n        /* \"#utility.yul\":17669:17685   */\n      shr\n        /* \"#utility.yul\":17648:17685   */\n      swap1\n      pop\n        /* \"#utility.yul\":17575:17692   */\n      swap3\n      swap2\n      pop\n      pop\n      jump\t// out\n        /* \"#utility.yul\":17698:17867   */\n    tag_180:\n        /* \"#utility.yul\":17742:17748   */\n      0x00\n        /* \"#utility.yul\":17775:17826   */\n      tag_364\n        /* \"#utility.yul\":17823:17824   */\n      0x00\n        /* \"#utility.yul\":17819:17825   */\n      not\n        /* \"#utility.yul\":17811:17816   */\n      dup5\n        /* \"#utility.yul\":17808:17809   */\n      0x08\n        /* \"#utility.yul\":17804:17817   */\n      mul\n        /* \"#utility.yul\":17775:17826   */\n      tag_179\n      jump\t// in\n    tag_364:\n        /* \"#utility.yul\":17771:17827   */\n      not\n        /* \"#utility.yul\":17856:17860   */\n      dup1\n        /* \"#utility.yul\":17850:17854   */\n      dup4\n        /* \"#utility.yul\":17846:17861   */\n      and\n        /* \"#utility.yul\":17836:17861   */\n      swap2\n      pop\n        /* \"#utility.yul\":17749:17867   */\n      pop\n        /* \"#utility.yul\":17698:17867   */\n      swap3\n      swap2\n      pop\n      pop\n      jump\t// out\n        /* \"#utility.yul\":17872:18167   */\n    tag_181:\n        /* \"#utility.yul\":17948:17952   */\n      0x00\n        /* \"#utility.yul\":18094:18123   */\n      tag_366\n        /* \"#utility.yul\":18119:18122   */\n      dup4\n        /* \"#utility.yul\":18113:18117   */\n      dup4\n        /* \"#utility.yul\":18094:18123   */\n      tag_180\n      jump\t// in\n    tag_366:\n        /* \"#utility.yul\":18086:18123   */\n      swap2\n      pop\n        /* \"#utility.yul\":18156:18159   */\n      dup3\n        /* \"#utility.yul\":18153:18154   */\n      0x02\n        /* \"#utility.yul\":18149:18160   */\n      mul\n        /* \"#utility.yul\":18143:18147   */\n      dup3\n        /* \"#utility.yul\":18140:18161   */\n      or\n        /* \"#utility.yul\":18132:18161   */\n      swap1\n      pop\n        /* \"#utility.yul\":17872:18167   */\n      swap3\n      swap2\n      pop\n      pop\n      jump\t// out\n        /* \"#utility.yul\":18172:19567   */\n    tag_115:\n        /* \"#utility.yul\":18289:18326   */\n      tag_368\n        /* \"#utility.yul\":18322:18325   */\n      dup3\n        /* \"#utility.yul\":18289:18326   */\n      tag_131\n      jump\t// in\n    tag_368:\n        /* \"#utility.yul\":18391:18409   */\n      0xffffffffffffffff\n        /* \"#utility.yul\":18383:18389   */\n      dup2\n        /* \"#utility.yul\":18380:18410   */\n      gt\n        /* \"#utility.yul\":18377:18433   */\n      iszero\n      tag_369\n      jumpi\n        /* \"#utility.yul\":18413:18431   */\n      tag_370\n      tag_152\n      jump\t// in\n    tag_370:\n        /* \"#utility.yul\":18377:18433   */\n    tag_369:\n        /* \"#utility.yul\":18457:18495   */\n      tag_371\n        /* \"#utility.yul\":18489:18493   */\n      dup3\n        /* \"#utility.yul\":18483:18494   */\n      sload\n        /* \"#utility.yul\":18457:18495   */\n      tag_58\n      jump\t// in\n    tag_371:\n        /* \"#utility.yul\":18542:18609   */\n      tag_372\n        /* \"#utility.yul\":18602:18608   */\n      dup3\n        /* \"#utility.yul\":18594:18600   */\n      dup3\n        /* \"#utility.yul\":18588:18592   */\n      dup6\n        /* \"#utility.yul\":18542:18609   */\n      tag_178\n      jump\t// in\n    tag_372:\n        /* \"#utility.yul\":18636:18637   */\n      0x00\n        /* \"#utility.yul\":18660:18664   */\n      0x20\n        /* \"#utility.yul\":18647:18664   */\n      swap1\n      pop\n        /* \"#utility.yul\":18692:18694   */\n      0x1f\n        /* \"#utility.yul\":18684:18690   */\n      dup4\n        /* \"#utility.yul\":18681:18695   */\n      gt\n        /* \"#utility.yul\":18709:18710   */\n      0x01\n        /* \"#utility.yul\":18704:19322   */\n      dup2\n      eq\n      tag_374\n      jumpi\n        /* \"#utility.yul\":19366:19367   */\n      0x00\n        /* \"#utility.yul\":19383:19389   */\n      dup5\n        /* \"#utility.yul\":19380:19457   */\n      iszero\n      tag_375\n      jumpi\n        /* \"#utility.yul\":19432:19441   */\n      dup3\n        /* \"#utility.yul\":19427:19430   */\n      dup8\n        /* \"#utility.yul\":19423:19442   */\n      add\n        /* \"#utility.yul\":19417:19443   */\n      mload\n        /* \"#utility.yul\":19408:19443   */\n      swap1\n      pop\n        /* \"#utility.yul\":19380:19457   */\n    tag_375:\n        /* \"#utility.yul\":19483:19550   */\n      tag_376\n        /* \"#utility.yul\":19543:19549   */\n      dup6\n        /* \"#utility.yul\":19536:19541   */\n      dup3\n        /* \"#utility.yul\":19483:19550   */\n      tag_181\n      jump\t// in\n    tag_376:\n        /* \"#utility.yul\":19477:19481   */\n      dup7\n        /* \"#utility.yul\":19470:19551   */\n      sstore\n        /* \"#utility.yul\":19339:19561   */\n      pop\n        /* \"#utility.yul\":18674:19561   */\n      jump(tag_373)\n        /* \"#utility.yul\":18704:19322   */\n    tag_374:\n        /* \"#utility.yul\":18756:18760   */\n      0x1f\n        /* \"#utility.yul\":18752:18761   */\n      not\n        /* \"#utility.yul\":18744:18750   */\n      dup5\n        /* \"#utility.yul\":18740:18762   */\n      and\n        /* \"#utility.yul\":18790:18827   */\n      tag_377\n        /* \"#utility.yul\":18822:18826   */\n      dup7\n        /* \"#utility.yul\":18790:18827   */\n      tag_167\n      jump\t// in\n    tag_377:\n        /* \"#utility.yul\":18849:18850   */\n      0x00\n        /* \"#utility.yul\":18863:19071   */\n    tag_378:\n        /* \"#utility.yul\":18877:18884   */\n      dup3\n        /* \"#utility.yul\":18874:18875   */\n      dup2\n        /* \"#utility.yul\":18871:18885   */\n      lt\n        /* \"#utility.yul\":18863:19071   */\n      iszero\n      tag_380\n      jumpi\n        /* \"#utility.yul\":18956:18965   */\n      dup5\n        /* \"#utility.yul\":18951:18954   */\n      dup10\n        /* \"#utility.yul\":18947:18966   */\n      add\n        /* \"#utility.yul\":18941:18967   */\n      mload\n        /* \"#utility.yul\":18933:18939   */\n      dup3\n        /* \"#utility.yul\":18926:18968   */\n      sstore\n        /* \"#utility.yul\":19007:19008   */\n      0x01\n        /* \"#utility.yul\":18999:19005   */\n      dup3\n        /* \"#utility.yul\":18995:19009   */\n      add\n        /* \"#utility.yul\":18985:19009   */\n      swap2\n      pop\n        /* \"#utility.yul\":19054:19056   */\n      0x20\n        /* \"#utility.yul\":19043:19052   */\n      dup6\n        /* \"#utility.yul\":19039:19057   */\n      add\n        /* \"#utility.yul\":19026:19057   */\n      swap5\n      pop\n        /* \"#utility.yul\":18900:18904   */\n      0x20\n        /* \"#utility.yul\":18897:18898   */\n      dup2\n        /* \"#utility.yul\":18893:18905   */\n      add\n        /* \"#utility.yul\":18888:18905   */\n      swap1\n      pop\n        /* \"#utility.yul\":18863:19071   */\n      jump(tag_378)\n    tag_380:\n        /* \"#utility.yul\":19099:19105   */\n      dup7\n        /* \"#utility.yul\":19090:19097   */\n      dup4\n        /* \"#utility.yul\":19087:19106   */\n      lt\n        /* \"#utility.yul\":19084:19263   */\n      iszero\n      tag_381\n      jumpi\n        /* \"#utility.yul\":19157:19166   */\n      dup5\n        /* \"#utility.yul\":19152:19155   */\n      dup10\n        /* \"#utility.yul\":19148:19167   */\n      add\n        /* \"#utility.yul\":19142:19168   */\n      mload\n        /* \"#utility.yul\":19200:19248   */\n      tag_382\n        /* \"#utility.yul\":19242:19246   */\n      0x1f\n        /* \"#utility.yul\":19234:19240   */\n      dup10\n        /* \"#utility.yul\":19230:19247   */\n      and\n        /* \"#utility.yul\":19219:19228   */\n      dup3\n        /* \"#utility.yul\":19200:19248   */\n      tag_180\n      jump\t// in\n    tag_382:\n        /* \"#utility.yul\":19192:19198   */\n      dup4\n        /* \"#utility.yul\":19185:19249   */\n      sstore\n        /* \"#utility.yul\":19107:19263   */\n      pop\n        /* \"#utility.yul\":19084:19263   */\n    tag_381:\n        /* \"#utility.yul\":19309:19310   */\n      0x01\n        /* \"#utility.yul\":19305:19306   */\n      0x02\n        /* \"#utility.yul\":19297:19303   */\n      dup9\n        /* \"#utility.yul\":19293:19307   */\n      mul\n        /* \"#utility.yul\":19289:19311   */\n      add\n        /* \"#utility.yul\":19283:19287   */\n      dup9\n        /* \"#utility.yul\":19276:19312   */\n      sstore\n        /* \"#utility.yul\":18711:19322   */\n      pop\n      pop\n      pop\n        /* \"#utility.yul\":18674:19561   */\n    tag_373:\n      pop\n        /* \"#utility.yul\":18264:19567   */\n      pop\n      pop\n      pop\n        /* \"#utility.yul\":18172:19567   */\n      pop\n      pop\n      jump\t// out\n        /* \"#utility.yul\":19573:19753   */\n    tag_182:\n        /* \"#utility.yul\":19621:19698   */\n      0x4e487b7100000000000000000000000000000000000000000000000000000000\n        /* \"#utility.yul\":19618:19619   */\n      0x00\n        /* \"#utility.yul\":19611:19699   */\n      mstore\n        /* \"#utility.yul\":19718:19722   */\n      0x11\n        /* \"#utility.yul\":19715:19716   */\n      0x04\n        /* \"#utility.yul\":19708:19723   */\n      mstore\n        /* \"#utility.yul\":19742:19746   */\n      0x24\n        /* \"#utility.yul\":19739:19740   */\n      0x00\n        /* \"#utility.yul\":19732:19747   */\n      revert\n        /* \"#utility.yul\":19759:19992   */\n    tag_120:\n        /* \"#utility.yul\":19798:19801   */\n      0x00\n        /* \"#utility.yul\":19821:19845   */\n      tag_385\n        /* \"#utility.yul\":19839:19844   */\n      dup3\n        /* \"#utility.yul\":19821:19845   */\n      tag_127\n      jump\t// in\n    tag_385:\n        /* \"#utility.yul\":19812:19845   */\n      swap2\n      pop\n        /* \"#utility.yul\":19867:19933   */\n      0xffffffffffffffffffffffffffffffffffffffffffffffffffffffffffffffff\n        /* \"#utility.yul\":19860:19865   */\n      dup3\n        /* \"#utility.yul\":19857:19934   */\n      sub\n        /* \"#utility.yul\":19854:19957   */\n      tag_386\n      jumpi\n        /* \"#utility.yul\":19937:19955   */\n      tag_387\n      tag_182\n      jump\t// in\n    tag_387:\n        /* \"#utility.yul\":19854:19957   */\n    tag_386:\n        /* \"#utility.yul\":19984:19985   */\n      0x01\n        /* \"#utility.yul\":19977:19982   */\n      dup3\n        /* \"#utility.yul\":19973:19986   */\n      add\n        /* \"#utility.yul\":19966:19986   */\n      swap1\n      pop\n        /* \"#utility.yul\":19759:19992   */\n      swap2\n      swap1\n      pop\n      jump\t// out\n        /* \"#utility.yul\":19998:20146   */\n    tag_183:\n        /* \"#utility.yul\":20100:20111   */\n      0x00\n        /* \"#utility.yul\":20137:20140   */\n      dup2\n        /* \"#utility.yul\":20122:20140   */\n      swap1\n      pop\n        /* \"#utility.yul\":19998:20146   */\n      swap3\n      swap2\n      pop\n      pop\n      jump\t// out\n        /* \"#utility.yul\":20152:20542   */\n    tag_184:\n        /* \"#utility.yul\":20258:20261   */\n      0x00\n        /* \"#utility.yul\":20286:20325   */\n      tag_390\n        /* \"#utility.yul\":20319:20324   */\n      dup3\n        /* \"#utility.yul\":20286:20325   */\n      tag_131\n      jump\t// in\n    tag_390:\n        /* \"#utility.yul\":20341:20430   */\n      tag_391\n        /* \"#utility.yul\":20423:20429   */\n      dup2\n        /* \"#utility.yul\":20418:20421   */\n      dup6\n        /* \"#utility.yul\":20341:20430   */\n      tag_183\n      jump\t// in\n    tag_391:\n        /* \"#utility.yul\":20334:20430   */\n      swap4\n      pop\n        /* \"#utility.yul\":20439:20504   */\n      tag_392\n        /* \"#utility.yul\":20497:20503   */\n      dup2\n        /* \"#utility.yul\":20492:20495   */\n      dup6\n        /* \"#utility.yul\":20485:20489   */\n      0x20\n        /* \"#utility.yul\":20478:20483   */\n      dup7\n        /* \"#utility.yul\":20474:20490   */\n      add\n        /* \"#utility.yul\":20439:20504   */\n      tag_133\n      jump\t// in\n    tag_392:\n        /* \"#utility.yul\":20529:20535   */\n      dup1\n        /* \"#utility.yul\":20524:20527   */\n      dup5\n        /* \"#utility.yul\":20520:20536   */\n      add\n        /* \"#utility.yul\":20513:20536   */\n      swap2\n      pop\n        /* \"#utility.yul\":20262:20542   */\n      pop\n        /* \"#utility.yul\":20152:20542   */\n      swap3\n      swap2\n      pop\n      pop\n      jump\t// out\n        /* \"#utility.yul\":20548:20823   */\n    tag_123:\n        /* \"#utility.yul\":20680:20683   */\n      0x00\n        /* \"#utility.yul\":20702:20797   */\n      tag_394\n        /* \"#utility.yul\":20793:20796   */\n      dup3\n        /* \"#utility.yul\":20784:20790   */\n      dup5\n        /* \"#utility.yul\":20702:20797   */\n      tag_184\n      jump\t// in\n    tag_394:\n        /* \"#utility.yul\":20695:20797   */\n      swap2\n      pop\n        /* \"#utility.yul\":20814:20817   */\n      dup2\n        /* \"#utility.yul\":20807:20817   */\n      swap1\n      pop\n        /* \"#utility.yul\":20548:20823   */\n      swap3\n      swap2\n      pop\n      pop\n      jump\t// out\n\n    auxdata: 0xa2646970667358221220c505b2357815a2cf85ebd7e3d3f3a33c51d9ba00c7fe25c03a09ebb1e097ed9364736f6c63430008180033\n}\n",
				"bytecode": {
					"linkReferences": {},
					"object": "608060405234801561000f575f80fd5b50335f806101000a81548173ffffffffffffffffffffffffffffffffffffffff021916908373ffffffffffffffffffffffffffffffffffffffff1602179055506116aa8061005c5f395ff3fe608060405234801561000f575f80fd5b5060043610610091575f3560e01c8063663b3e2211610064578063663b3e221461012d5780637db3761b14610162578063a0bdb0031461017e578063beec1caa1461019c578063f851a440146101b857610091565b80631692a9421461009557806320694db0146100c557806338a7543e146100e157806347bc709314610111575b5f80fd5b6100af60048036038101906100aa9190610bfa565b6101d6565b6040516100bc9190610d84565b60405180910390f35b6100df60048036038101906100da9190610dfe565b610422565b005b6100fb60048036038101906100f69190610dfe565b61053e565b6040516101089190610e38565b60405180910390f35b61012b60048036038101906101269190610dfe565b61055b565b005b61014760048036038101906101429190610bfa565b610676565b60405161015996959493929190610eb7565b60405180910390f35b61017c60048036038101906101779190610bfa565b61084c565b005b610186610980565b6040516101939190610f2b565b60405180910390f35b6101b660048036038101906101b19190611070565b610986565b005b6101c0610b2c565b6040516101cd9190611123565b60405180910390f35b6101de610b7e565b6002548210610222576040517f08c379a000000000000000000000000000000000000000000000000000000000815260040161021990611186565b60405180910390fd5b60015f8381526020019081526020015f206040518060c00160405290815f8201548152602001600182018054610257906111d1565b80601f0160208091040260200160405190810160405280929190818152602001828054610283906111d1565b80156102ce5780601f106102a5576101008083540402835291602001916102ce565b820191905f5260205f20905b8154815290600101906020018083116102b157829003601f168201915b505050505081526020016002820180546102e7906111d1565b80601f0160208091040260200160405190810160405280929190818152602001828054610313906111d1565b801561035e5780601f106103355761010080835404028352916020019161035e565b820191905f5260205f20905b81548152906001019060200180831161034157829003601f168201915b50505050508152602001600382018054610377906111d1565b80601f01602080910402602001604051908101604052809291908181526020018280546103a3906111d1565b80156103ee5780601f106103c5576101008083540402835291602001916103ee565b820191905f5260205f20905b8154815290600101906020018083116103d157829003601f168201915b50505050508152602001600482015f9054906101000a900460ff161515151581526020016005820154815250509050919050565b5f8054906101000a900473ffffffffffffffffffffffffffffffffffffffff1673ffffffffffffffffffffffffffffffffffffffff163373ffffffffffffffffffffffffffffffffffffffff16146104af576040517f08c379a00000000000000000000000000000000000000000000000000000000081526004016104a690611271565b60405180910390fd5b600160035f8373ffffffffffffffffffffffffffffffffffffffff1673ffffffffffffffffffffffffffffffffffffffff1681526020019081526020015f205f6101000a81548160ff0219169083151502179055507f05e7c881d716bee8cb7ed92293133ba156704252439e5c502c277448f04e20c2816040516105339190611123565b60405180910390a150565b6003602052805f5260405f205f915054906101000a900460ff1681565b5f8054906101000a900473ffffffffffffffffffffffffffffffffffffffff1673ffffffffffffffffffffffffffffffffffffffff163373ffffffffffffffffffffffffffffffffffffffff16146105e8576040517f08c379a00000000000000000000000000000000000000000000000000000000081526004016105df90611271565b60405180910390fd5b5f60035f8373ffffffffffffffffffffffffffffffffffffffff1673ffffffffffffffffffffffffffffffffffffffff1681526020019081526020015f205f6101000a81548160ff0219169083151502179055507faf66545c919a3be306ee446d8f42a9558b5b022620df880517bc9593ec0f2d528160405161066b9190611123565b60405180910390a150565b6001602052805f5260405f205f91509050805f01549080600101805461069b906111d1565b80601f01602080910402602001604051908101604052809291908181526020018280546106c7906111d1565b80156107125780601f106106e957610100808354040283529160200191610712565b820191905f5260205f20905b8154815290600101906020018083116106f557829003601f168201915b505050505090806002018054610727906111d1565b80601f0160208091040260200160405190810160405280929190818152602001828054610753906111d1565b801561079e5780601f106107755761010080835404028352916020019161079e565b820191905f5260205f20905b81548152906001019060200180831161078157829003601f168201915b5050505050908060030180546107b3906111d1565b80601f01602080910402602001604051908101604052809291908181526020018280546107df906111d1565b801561082a5780601f106108015761010080835404028352916020019161082a565b820191905f5260205f20905b81548152906001019060200180831161080d57829003601f168201915b505050505090806004015f9054906101000a900460ff16908060050154905086565b60035f3373ffffffffffffffffffffffffffffffffffffffff1673ffffffffffffffffffffffffffffffffffffffff1681526020019081526020015f205f9054906101000a900460ff166108d5576040517f08c379a00000000000000000000000000000000000000000000000000000000081526004016108cc906112ff565b60405180910390fd5b6002548110610919576040517f08c379a000000000000000000000000000000000000000000000000000000000815260040161091090611186565b60405180910390fd5b5f60015f8381526020019081526020015f206004015f6101000a81548160ff0219169083151502179055507f739766c917befd2312040cd8bdbcc45e456f5699d6e4466fb15dad5089660be0815f60405161097592919061131d565b60405180910390a150565b60025481565b60035f3373ffffffffffffffffffffffffffffffffffffffff1673ffffffffffffffffffffffffffffffffffffffff1681526020019081526020015f205f9054906101000a900460ff16610a0f576040517f08c379a0000000000000000000000000000000000000000000000000000000008152600401610a06906112ff565b60405180910390fd5b5f610a1984610b4f565b90506040518060c0016040528060025481526020018581526020018481526020018381526020016001151581526020018281525060015f60025481526020019081526020015f205f820151815f01556020820151816001019081610a7d91906114e1565b506040820151816002019081610a9391906114e1565b506060820151816003019081610aa991906114e1565b506080820151816004015f6101000a81548160ff02191690831515021790555060a082015181600501559050507f6b352e211b4d936da8b329b89379dc32df52c107a79a9544f3ecb5ccbe5ee2b7600254604051610b079190610f2b565b60405180910390a160025f815480929190610b21906115dd565b919050555050505050565b5f8054906101000a900473ffffffffffffffffffffffffffffffffffffffff1681565b5f81604051602001610b61919061165e565b604051602081830303815290604052805190602001209050919050565b6040518060c001604052805f81526020016060815260200160608152602001606081526020015f151581526020015f80191681525090565b5f604051905090565b5f80fd5b5f80fd5b5f819050919050565b610bd981610bc7565b8114610be3575f80fd5b50565b5f81359050610bf481610bd0565b92915050565b5f60208284031215610c0f57610c0e610bbf565b5b5f610c1c84828501610be6565b91505092915050565b610c2e81610bc7565b82525050565b5f81519050919050565b5f82825260208201905092915050565b5f5b83811015610c6b578082015181840152602081019050610c50565b5f8484015250505050565b5f601f19601f8301169050919050565b5f610c9082610c34565b610c9a8185610c3e565b9350610caa818560208601610c4e565b610cb381610c76565b840191505092915050565b5f8115159050919050565b610cd281610cbe565b82525050565b5f819050919050565b610cea81610cd8565b82525050565b5f60c083015f830151610d055f860182610c25565b5060208301518482036020860152610d1d8282610c86565b91505060408301518482036040860152610d378282610c86565b91505060608301518482036060860152610d518282610c86565b9150506080830151610d666080860182610cc9565b5060a0830151610d7960a0860182610ce1565b508091505092915050565b5f6020820190508181035f830152610d9c8184610cf0565b905092915050565b5f73ffffffffffffffffffffffffffffffffffffffff82169050919050565b5f610dcd82610da4565b9050919050565b610ddd81610dc3565b8114610de7575f80fd5b50565b5f81359050610df881610dd4565b92915050565b5f60208284031215610e1357610e12610bbf565b5b5f610e2084828501610dea565b91505092915050565b610e3281610cbe565b82525050565b5f602082019050610e4b5f830184610e29565b92915050565b610e5a81610bc7565b82525050565b5f82825260208201905092915050565b5f610e7a82610c34565b610e848185610e60565b9350610e94818560208601610c4e565b610e9d81610c76565b840191505092915050565b610eb181610cd8565b82525050565b5f60c082019050610eca5f830189610e51565b8181036020830152610edc8188610e70565b90508181036040830152610ef08187610e70565b90508181036060830152610f048186610e70565b9050610f136080830185610e29565b610f2060a0830184610ea8565b979650505050505050565b5f602082019050610f3e5f830184610e51565b92915050565b5f80fd5b5f80fd5b7f4e487b71000000000000000000000000000000000000000000000000000000005f52604160045260245ffd5b610f8282610c76565b810181811067ffffffffffffffff82111715610fa157610fa0610f4c565b5b80604052505050565b5f610fb3610bb6565b9050610fbf8282610f79565b919050565b5f67ffffffffffffffff821115610fde57610fdd610f4c565b5b610fe782610c76565b9050602081019050919050565b828183375f83830152505050565b5f61101461100f84610fc4565b610faa565b9050828152602081018484840111156110305761102f610f48565b5b61103b848285610ff4565b509392505050565b5f82601f83011261105757611056610f44565b5b8135611067848260208601611002565b91505092915050565b5f805f6060848603121561108757611086610bbf565b5b5f84013567ffffffffffffffff8111156110a4576110a3610bc3565b5b6110b086828701611043565b935050602084013567ffffffffffffffff8111156110d1576110d0610bc3565b5b6110dd86828701611043565b925050604084013567ffffffffffffffff8111156110fe576110fd610bc3565b5b61110a86828701611043565b9150509250925092565b61111d81610dc3565b82525050565b5f6020820190506111365f830184611114565b92915050565b7f496e76616c6964206365727469666963617465204944000000000000000000005f82015250565b5f611170601683610e60565b915061117b8261113c565b602082019050919050565b5f6020820190508181035f83015261119d81611164565b9050919050565b7f4e487b71000000000000000000000000000000000000000000000000000000005f52602260045260245ffd5b5f60028204905060018216806111e857607f821691505b6020821081036111fb576111fa6111a4565b5b50919050565b7f4f6e6c792061646d696e2063616e2063616c6c20746869732066756e6374696f5f8201527f6e00000000000000000000000000000000000000000000000000000000000000602082015250565b5f61125b602183610e60565b915061126682611201565b604082019050919050565b5f6020820190508181035f8301526112888161124f565b9050919050565b7f4f6e6c7920617574686f72697a6564206973737565722063616e2063616c6c205f8201527f746869732066756e6374696f6e00000000000000000000000000000000000000602082015250565b5f6112e9602d83610e60565b91506112f48261128f565b604082019050919050565b5f6020820190508181035f830152611316816112dd565b9050919050565b5f6040820190506113305f830185610e51565b61133d6020830184610e29565b9392505050565b5f819050815f5260205f209050919050565b5f6020601f8301049050919050565b5f82821b905092915050565b5f600883026113a07fffffffffffffffffffffffffffffffffffffffffffffffffffffffffffffffff82611365565b6113aa8683611365565b95508019841693508086168417925050509392505050565b5f819050919050565b5f6113e56113e06113db84610bc7565b6113c2565b610bc7565b9050919050565b5f819050919050565b6113fe836113cb565b61141261140a826113ec565b848454611371565b825550505050565b5f90565b61142661141a565b6114318184846113f5565b505050565b5b81811015611454576114495f8261141e565b600181019050611437565b5050565b601f8211156114995761146a81611344565b61147384611356565b81016020851015611482578190505b61149661148e85611356565b830182611436565b50505b505050565b5f82821c905092915050565b5f6114b95f198460080261149e565b1980831691505092915050565b5f6114d183836114aa565b9150826002028217905092915050565b6114ea82610c34565b67ffffffffffffffff81111561150357611502610f4c565b5b61150d82546111d1565b611518828285611458565b5f60209050601f831160018114611549575f8415611537578287015190505b61154185826114c6565b8655506115a8565b601f19841661155786611344565b5f5b8281101561157e57848901518255600182019150602085019450602081019050611559565b8683101561159b5784890151611597601f8916826114aa565b8355505b6001600288020188555050505b505050505050565b7f4e487b71000000000000000000000000000000000000000000000000000000005f52601160045260245ffd5b5f6115e782610bc7565b91507fffffffffffffffffffffffffffffffffffffffffffffffffffffffffffffffff8203611619576116186115b0565b5b600182019050919050565b5f81905092915050565b5f61163882610c34565b6116428185611624565b9350611652818560208601610c4e565b80840191505092915050565b5f611669828461162e565b91508190509291505056fea2646970667358221220c505b2357815a2cf85ebd7e3d3f3a33c51d9ba00c7fe25c03a09ebb1e097ed9364736f6c63430008180033",
					"opcodes": "PUSH1 0x80 PUSH1 0x40 MSTORE CALLVALUE DUP1 ISZERO PUSH2 0xF JUMPI PUSH0 DUP1 REVERT JUMPDEST POP CALLER PUSH0 DUP1 PUSH2 0x100 EXP DUP2 SLOAD DUP2 PUSH20 0xFFFFFFFFFFFFFFFFFFFFFFFFFFFFFFFFFFFFFFFF MUL NOT AND SWAP1 DUP4 PUSH20 0xFFFFFFFFFFFFFFFFFFFFFFFFFFFFFFFFFFFFFFFF AND MUL OR SWAP1 SSTORE POP PUSH2 0x16AA DUP1 PUSH2 0x5C PUSH0 CODECOPY PUSH0 RETURN INVALID PUSH1 0x80 PUSH1 0x40 MSTORE CALLVALUE DUP1 ISZERO PUSH2 0xF JUMPI PUSH0 DUP1 REVERT JUMPDEST POP PUSH1 0x4 CALLDATASIZE LT PUSH2 0x91 JUMPI PUSH0 CALLDATALOAD PUSH1 0xE0 SHR DUP1 PUSH4 0x663B3E22 GT PUSH2 0x64 JUMPI DUP1 PUSH4 0x663B3E22 EQ PUSH2 0x12D JUMPI DUP1 PUSH4 0x7DB3761B EQ PUSH2 0x162 JUMPI DUP1 PUSH4 0xA0BDB003 EQ PUSH2 0x17E JUMPI DUP1 PUSH4 0xBEEC1CAA EQ PUSH2 0x19C JUMPI DUP1 PUSH4 0xF851A440 EQ PUSH2 0x1B8 JUMPI PUSH2 0x91 JUMP JUMPDEST DUP1 PUSH4 0x1692A942 EQ PUSH2 0x95 JUMPI DUP1 PUSH4 0x20694DB0 EQ PUSH2 0xC5 JUMPI DUP1 PUSH4 0x38A7543E EQ PUSH2 0xE1 JUMPI DUP1 PUSH4 0x47BC7093 EQ PUSH2 0x111 JUMPI JUMPDEST PUSH0 DUP1 REVERT JUMPDEST PUSH2 0xAF PUSH1 0x4 DUP1 CALLDATASIZE SUB DUP2 ADD SWAP1 PUSH2 0xAA SWAP2 SWAP1 PUSH2 0xBFA JUMP JUMPDEST PUSH2 0x1D6 JUMP JUMPDEST PUSH1 0x40 MLOAD PUSH2 0xBC SWAP2 SWAP1 PUSH2 0xD84 JUMP JUMPDEST PUSH1 0x40 MLOAD DUP1 SWAP2 SUB SWAP1 RETURN JUMPDEST PUSH2 0xDF PUSH1 0x4 DUP1 CALLDATASIZE SUB DUP2 ADD SWAP1 PUSH2 0xDA SWAP2 SWAP1 PUSH2 0xDFE JUMP JUMPDEST PUSH2 0x422 JUMP JUMPDEST STOP JUMPDEST PUSH2 0xFB PUSH1 0x4 DUP1 CALLDATASIZE SUB DUP2 ADD SWAP1 PUSH2 0xF6 SWAP2 SWAP1 PUSH2 0xDFE JUMP JUMPDEST PUSH2 0x53E JUMP JUMPDEST PUSH1 0x40 MLOAD PUSH2 0x108 SWAP2 SWAP1 PUSH2 0xE38 JUMP JUMPDEST PUSH1 0x40 MLOAD DUP1 SWAP2 SUB SWAP1 RETURN JUMPDEST PUSH2 0x12B PUSH1 0x4 DUP1 CALLDATASIZE SUB DUP2 ADD SWAP1 PUSH2 0x126 SWAP2 SWAP1 PUSH2 0xDFE JUMP JUMPDEST PUSH2 0x55B JUMP JUMPDEST STOP JUMPDEST PUSH2 0x147 PUSH1 0x4 DUP1 CALLDATASIZE SUB DUP2 ADD SWAP1 PUSH2 0x142 SWAP2 SWAP1 PUSH2 0xBFA JUMP JUMPDEST PUSH2 0x676 JUMP JUMPDEST PUSH1 0x40 MLOAD PUSH2 0x159 SWAP7 SWAP6 SWAP5 SWAP4 SWAP3 SWAP2 SWAP1 PUSH2 0xEB7 JUMP JUMPDEST PUSH1 0x40 MLOAD DUP1 SWAP2 SUB SWAP1 RETURN JUMPDEST PUSH2 0x17C PUSH1 0x4 DUP1 CALLDATASIZE SUB DUP2 ADD SWAP1 PUSH2 0x177 SWAP2 SWAP1 PUSH2 0xBFA JUMP JUMPDEST PUSH2 0x84C JUMP JUMPDEST STOP JUMPDEST PUSH2 0x186 PUSH2 0x980 JUMP JUMPDEST PUSH1 0x40 MLOAD PUSH2 0x193 SWAP2 SWAP1 PUSH2 0xF2B JUMP JUMPDEST PUSH1 0x40 MLOAD DUP1 SWAP2 SUB SWAP1 RETURN JUMPDEST PUSH2 0x1B6 PUSH1 0x4 DUP1 CALLDATASIZE SUB DUP2 ADD SWAP1 PUSH2 0x1B1 SWAP2 SWAP1 PUSH2 0x1070 JUMP JUMPDEST PUSH2 0x986 JUMP JUMPDEST STOP JUMPDEST PUSH2 0x1C0 PUSH2 0xB2C JUMP JUMPDEST PUSH1 0x40 MLOAD PUSH2 0x1CD SWAP2 SWAP1 PUSH2 0x1123 JUMP JUMPDEST PUSH1 0x40 MLOAD DUP1 SWAP2 SUB SWAP1 RETURN JUMPDEST PUSH2 0x1DE PUSH2 0xB7E JUMP JUMPDEST PUSH1 0x2 SLOAD DUP3 LT PUSH2 0x222 JUMPI PUSH1 0x40 MLOAD PUSH32 0x8C379A000000000000000000000000000000000000000000000000000000000 DUP2 MSTORE PUSH1 0x4 ADD PUSH2 0x219 SWAP1 PUSH2 0x1186 JUMP JUMPDEST PUSH1 0x40 MLOAD DUP1 SWAP2 SUB SWAP1 REVERT JUMPDEST PUSH1 0x1 PUSH0 DUP4 DUP2 MSTORE PUSH1 0x20 ADD SWAP1 DUP2 MSTORE PUSH1 0x20 ADD PUSH0 KECCAK256 PUSH1 0x40 MLOAD DUP1 PUSH1 0xC0 ADD PUSH1 0x40 MSTORE SWAP1 DUP2 PUSH0 DUP3 ADD SLOAD DUP2 MSTORE PUSH1 0x20 ADD PUSH1 0x1 DUP3 ADD DUP1 SLOAD PUSH2 0x257 SWAP1 PUSH2 0x11D1 JUMP JUMPDEST DUP1 PUSH1 0x1F ADD PUSH1 0x20 DUP1 SWAP2 DIV MUL PUSH1 0x20 ADD PUSH1 0x40 MLOAD SWAP1 DUP2 ADD PUSH1 0x40 MSTORE DUP1 SWAP3 SWAP2 SWAP1 DUP2 DUP2 MSTORE PUSH1 0x20 ADD DUP3 DUP1 SLOAD PUSH2 0x283 SWAP1 PUSH2 0x11D1 JUMP JUMPDEST DUP1 ISZERO PUSH2 0x2CE JUMPI DUP1 PUSH1 0x1F LT PUSH2 0x2A5 JUMPI PUSH2 0x100 DUP1 DUP4 SLOAD DIV MUL DUP4 MSTORE SWAP2 PUSH1 0x20 ADD SWAP2 PUSH2 0x2CE JUMP JUMPDEST DUP3 ADD SWAP2 SWAP1 PUSH0 MSTORE PUSH1 0x20 PUSH0 KECCAK256 SWAP1 JUMPDEST DUP2 SLOAD DUP2 MSTORE SWAP1 PUSH1 0x1 ADD SWAP1 PUSH1 0x20 ADD DUP1 DUP4 GT PUSH2 0x2B1 JUMPI DUP3 SWAP1 SUB PUSH1 0x1F AND DUP3 ADD SWAP2 JUMPDEST POP POP POP POP POP DUP2 MSTORE PUSH1 0x20 ADD PUSH1 0x2 DUP3 ADD DUP1 SLOAD PUSH2 0x2E7 SWAP1 PUSH2 0x11D1 JUMP JUMPDEST DUP1 PUSH1 0x1F ADD PUSH1 0x20 DUP1 SWAP2 DIV MUL PUSH1 0x20 ADD PUSH1 0x40 MLOAD SWAP1 DUP2 ADD PUSH1 0x40 MSTORE DUP1 SWAP3 SWAP2 SWAP1 DUP2 DUP2 MSTORE PUSH1 0x20 ADD DUP3 DUP1 SLOAD PUSH2 0x313 SWAP1 PUSH2 0x11D1 JUMP JUMPDEST DUP1 ISZERO PUSH2 0x35E JUMPI DUP1 PUSH1 0x1F LT PUSH2 0x335 JUMPI PUSH2 0x100 DUP1 DUP4 SLOAD DIV MUL DUP4 MSTORE SWAP2 PUSH1 0x20 ADD SWAP2 PUSH2 0x35E JUMP JUMPDEST DUP3 ADD SWAP2 SWAP1 PUSH0 MSTORE PUSH1 0x20 PUSH0 KECCAK256 SWAP1 JUMPDEST DUP2 SLOAD DUP2 MSTORE SWAP1 PUSH1 0x1 ADD SWAP1 PUSH1 0x20 ADD DUP1 DUP4 GT PUSH2 0x341 JUMPI DUP3 SWAP1 SUB PUSH1 0x1F AND DUP3 ADD SWAP2 JUMPDEST POP POP POP POP POP DUP2 MSTORE PUSH1 0x20 ADD PUSH1 0x3 DUP3 ADD DUP1 SLOAD PUSH2 0x377 SWAP1 PUSH2 0x11D1 JUMP JUMPDEST DUP1 PUSH1 0x1F ADD PUSH1 0x20 DUP1 SWAP2 DIV MUL PUSH1 0x20 ADD PUSH1 0x40 MLOAD SWAP1 DUP2 ADD PUSH1 0x40 MSTORE DUP1 SWAP3 SWAP2 SWAP1 DUP2 DUP2 MSTORE PUSH1 0x20 ADD DUP3 DUP1 SLOAD PUSH2 0x3A3 SWAP1 PUSH2 0x11D1 JUMP JUMPDEST DUP1 ISZERO PUSH2 0x3EE JUMPI DUP1 PUSH1 0x1F LT PUSH2 0x3C5 JUMPI PUSH2 0x100 DUP1 DUP4 SLOAD DIV MUL DUP4 MSTORE SWAP2 PUSH1 0x20 ADD SWAP2 PUSH2 0x3EE JUMP JUMPDEST DUP3 ADD SWAP2 SWAP1 PUSH0 MSTORE PUSH1 0x20 PUSH0 KECCAK256 SWAP1 JUMPDEST DUP2 SLOAD DUP2 MSTORE SWAP1 PUSH1 0x1 ADD SWAP1 PUSH1 0x20 ADD DUP1 DUP4 GT PUSH2 0x3D1 JUMPI DUP3 SWAP1 SUB PUSH1 0x1F AND DUP3 ADD SWAP2 JUMPDEST POP POP POP POP POP DUP2 MSTORE PUSH1 0x20 ADD PUSH1 0x4 DUP3 ADD PUSH0 SWAP1 SLOAD SWAP1 PUSH2 0x100 EXP SWAP1 DIV PUSH1 0xFF AND ISZERO ISZERO ISZERO ISZERO DUP2 MSTORE PUSH1 0x20 ADD PUSH1 0x5 DUP3 ADD SLOAD DUP2 MSTORE POP POP SWAP1 POP SWAP2 SWAP1 POP JUMP JUMPDEST PUSH0 DUP1 SLOAD SWAP1 PUSH2 0x100 EXP SWAP1 DIV PUSH20 0xFFFFFFFFFFFFFFFFFFFFFFFFFFFFFFFFFFFFFFFF AND PUSH20 0xFFFFFFFFFFFFFFFFFFFFFFFFFFFFFFFFFFFFFFFF AND CALLER PUSH20 0xFFFFFFFFFFFFFFFFFFFFFFFFFFFFFFFFFFFFFFFF AND EQ PUSH2 0x4AF JUMPI PUSH1 0x40 MLOAD PUSH32 0x8C379A000000000000000000000000000000000000000000000000000000000 DUP2 MSTORE PUSH1 0x4 ADD PUSH2 0x4A6 SWAP1 PUSH2 0x1271 JUMP JUMPDEST PUSH1 0x40 MLOAD DUP1 SWAP2 SUB SWAP1 REVERT JUMPDEST PUSH1 0x1 PUSH1 0x3 PUSH0 DUP4 PUSH20 0xFFFFFFFFFFFFFFFFFFFFFFFFFFFFFFFFFFFFFFFF AND PUSH20 0xFFFFFFFFFFFFFFFFFFFFFFFFFFFFFFFFFFFFFFFF AND DUP2 MSTORE PUSH1 0x20 ADD SWAP1 DUP2 MSTORE PUSH1 0x20 ADD PUSH0 KECCAK256 PUSH0 PUSH2 0x100 EXP DUP2 SLOAD DUP2 PUSH1 0xFF MUL NOT AND SWAP1 DUP4 ISZERO ISZERO MUL OR SWAP1 SSTORE POP PUSH32 0x5E7C881D716BEE8CB7ED92293133BA156704252439E5C502C277448F04E20C2 DUP2 PUSH1 0x40 MLOAD PUSH2 0x533 SWAP2 SWAP1 PUSH2 0x1123 JUMP JUMPDEST PUSH1 0x40 MLOAD DUP1 SWAP2 SUB SWAP1 LOG1 POP JUMP JUMPDEST PUSH1 0x3 PUSH1 0x20 MSTORE DUP1 PUSH0 MSTORE PUSH1 0x40 PUSH0 KECCAK256 PUSH0 SWAP2 POP SLOAD SWAP1 PUSH2 0x100 EXP SWAP1 DIV PUSH1 0xFF AND DUP2 JUMP JUMPDEST PUSH0 DUP1 SLOAD SWAP1 PUSH2 0x100 EXP SWAP1 DIV PUSH20 0xFFFFFFFFFFFFFFFFFFFFFFFFFFFFFFFFFFFFFFFF AND PUSH20 0xFFFFFFFFFFFFFFFFFFFFFFFFFFFFFFFFFFFFFFFF AND CALLER PUSH20 0xFFFFFFFFFFFFFFFFFFFFFFFFFFFFFFFFFFFFFFFF AND EQ PUSH2 0x5E8 JUMPI PUSH1 0x40 MLOAD PUSH32 0x8C379A000000000000000000000000000000000000000000000000000000000 DUP2 MSTORE PUSH1 0x4 ADD PUSH2 0x5DF SWAP1 PUSH2 0x1271 JUMP JUMPDEST PUSH1 0x40 MLOAD DUP1 SWAP2 SUB SWAP1 REVERT JUMPDEST PUSH0 PUSH1 0x3 PUSH0 DUP4 PUSH20 0xFFFFFFFFFFFFFFFFFFFFFFFFFFFFFFFFFFFFFFFF AND PUSH20 0xFFFFFFFFFFFFFFFFFFFFFFFFFFFFFFFFFFFFFFFF AND DUP2 MSTORE PUSH1 0x20 ADD SWAP1 DUP2 MSTORE PUSH1 0x20 ADD PUSH0 KECCAK256 PUSH0 PUSH2 0x100 EXP DUP2 SLOAD DUP2 PUSH1 0xFF MUL NOT AND SWAP1 DUP4 ISZERO ISZERO MUL OR SWAP1 SSTORE POP PUSH32 0xAF66545C919A3BE306EE446D8F42A9558B5B022620DF880517BC9593EC0F2D52 DUP2 PUSH1 0x40 MLOAD PUSH2 0x66B SWAP2 SWAP1 PUSH2 0x1123 JUMP JUMPDEST PUSH1 0x40 MLOAD DUP1 SWAP2 SUB SWAP1 LOG1 POP JUMP JUMPDEST PUSH1 0x1 PUSH1 0x20 MSTORE DUP1 PUSH0 MSTORE PUSH1 0x40 PUSH0 KECCAK256 PUSH0 SWAP2 POP SWAP1 POP DUP1 PUSH0 ADD SLOAD SWAP1 DUP1 PUSH1 0x1 ADD DUP1 SLOAD PUSH2 0x69B SWAP1 PUSH2 0x11D1 JUMP JUMPDEST DUP1 PUSH1 0x1F ADD PUSH1 0x20 DUP1 SWAP2 DIV MUL PUSH1 0x20 ADD PUSH1 0x40 MLOAD SWAP1 DUP2 ADD PUSH1 0x40 MSTORE DUP1 SWAP3 SWAP2 SWAP1 DUP2 DUP2 MSTORE PUSH1 0x20 ADD DUP3 DUP1 SLOAD PUSH2 0x6C7 SWAP1 PUSH2 0x11D1 JUMP JUMPDEST DUP1 ISZERO PUSH2 0x712 JUMPI DUP1 PUSH1 0x1F LT PUSH2 0x6E9 JUMPI PUSH2 0x100 DUP1 DUP4 SLOAD DIV MUL DUP4 MSTORE SWAP2 PUSH1 0x20 ADD SWAP2 PUSH2 0x712 JUMP JUMPDEST DUP3 ADD SWAP2 SWAP1 PUSH0 MSTORE PUSH1 0x20 PUSH0 KECCAK256 SWAP1 JUMPDEST DUP2 SLOAD DUP2 MSTORE SWAP1 PUSH1 0x1 ADD SWAP1 PUSH1 0x20 ADD DUP1 DUP4 GT PUSH2 0x6F5 JUMPI DUP3 SWAP1 SUB PUSH1 0x1F AND DUP3 ADD SWAP2 JUMPDEST POP POP POP POP POP SWAP1 DUP1 PUSH1 0x2 ADD DUP1 SLOAD PUSH2 0x727 SWAP1 PUSH2 0x11D1 JUMP JUMPDEST DUP1 PUSH1 0x1F ADD PUSH1 0x20 DUP1 SWAP2 DIV MUL PUSH1 0x20 ADD PUSH1 0x40 MLOAD SWAP1 DUP2 ADD PUSH1 0x40 MSTORE DUP1 SWAP3 SWAP2 SWAP1 DUP2 DUP2 MSTORE PUSH1 0x20 ADD DUP3 DUP1 SLOAD PUSH2 0x753 SWAP1 PUSH2 0x11D1 JUMP JUMPDEST DUP1 ISZERO PUSH2 0x79E JUMPI DUP1 PUSH1 0x1F LT PUSH2 0x775 JUMPI PUSH2 0x100 DUP1 DUP4 SLOAD DIV MUL DUP4 MSTORE SWAP2 PUSH1 0x20 ADD SWAP2 PUSH2 0x79E JUMP JUMPDEST DUP3 ADD SWAP2 SWAP1 PUSH0 MSTORE PUSH1 0x20 PUSH0 KECCAK256 SWAP1 JUMPDEST DUP2 SLOAD DUP2 MSTORE SWAP1 PUSH1 0x1 ADD SWAP1 PUSH1 0x20 ADD DUP1 DUP4 GT PUSH2 0x781 JUMPI DUP3 SWAP1 SUB PUSH1 0x1F AND DUP3 ADD SWAP2 JUMPDEST POP POP POP POP POP SWAP1 DUP1 PUSH1 0x3 ADD DUP1 SLOAD PUSH2 0x7B3 SWAP1 PUSH2 0x11D1 JUMP JUMPDEST DUP1 PUSH1 0x1F ADD PUSH1 0x20 DUP1 SWAP2 DIV MUL PUSH1 0x20 ADD PUSH1 0x40 MLOAD SWAP1 DUP2 ADD PUSH1 0x40 MSTORE DUP1 SWAP3 SWAP2 SWAP1 DUP2 DUP2 MSTORE PUSH1 0x20 ADD DUP3 DUP1 SLOAD PUSH2 0x7DF SWAP1 PUSH2 0x11D1 JUMP JUMPDEST DUP1 ISZERO PUSH2 0x82A JUMPI DUP1 PUSH1 0x1F LT PUSH2 0x801 JUMPI PUSH2 0x100 DUP1 DUP4 SLOAD DIV MUL DUP4 MSTORE SWAP2 PUSH1 0x20 ADD SWAP2 PUSH2 0x82A JUMP JUMPDEST DUP3 ADD SWAP2 SWAP1 PUSH0 MSTORE PUSH1 0x20 PUSH0 KECCAK256 SWAP1 JUMPDEST DUP2 SLOAD DUP2 MSTORE SWAP1 PUSH1 0x1 ADD SWAP1 PUSH1 0x20 ADD DUP1 DUP4 GT PUSH2 0x80D JUMPI DUP3 SWAP1 SUB PUSH1 0x1F AND DUP3 ADD SWAP2 JUMPDEST POP POP POP POP POP SWAP1 DUP1 PUSH1 0x4 ADD PUSH0 SWAP1 SLOAD SWAP1 PUSH2 0x100 EXP SWAP1 DIV PUSH1 0xFF AND SWAP1 DUP1 PUSH1 0x5 ADD SLOAD SWAP1 POP DUP7 JUMP JUMPDEST PUSH1 0x3 PUSH0 CALLER PUSH20 0xFFFFFFFFFFFFFFFFFFFFFFFFFFFFFFFFFFFFFFFF AND PUSH20 0xFFFFFFFFFFFFFFFFFFFFFFFFFFFFFFFFFFFFFFFF AND DUP2 MSTORE PUSH1 0x20 ADD SWAP1 DUP2 MSTORE PUSH1 0x20 ADD PUSH0 KECCAK256 PUSH0 SWAP1 SLOAD SWAP1 PUSH2 0x100 EXP SWAP1 DIV PUSH1 0xFF AND PUSH2 0x8D5 JUMPI PUSH1 0x40 MLOAD PUSH32 0x8C379A000000000000000000000000000000000000000000000000000000000 DUP2 MSTORE PUSH1 0x4 ADD PUSH2 0x8CC SWAP1 PUSH2 0x12FF JUMP JUMPDEST PUSH1 0x40 MLOAD DUP1 SWAP2 SUB SWAP1 REVERT JUMPDEST PUSH1 0x2 SLOAD DUP2 LT PUSH2 0x919 JUMPI PUSH1 0x40 MLOAD PUSH32 0x8C379A000000000000000000000000000000000000000000000000000000000 DUP2 MSTORE PUSH1 0x4 ADD PUSH2 0x910 SWAP1 PUSH2 0x1186 JUMP JUMPDEST PUSH1 0x40 MLOAD DUP1 SWAP2 SUB SWAP1 REVERT JUMPDEST PUSH0 PUSH1 0x1 PUSH0 DUP4 DUP2 MSTORE PUSH1 0x20 ADD SWAP1 DUP2 MSTORE PUSH1 0x20 ADD PUSH0 KECCAK256 PUSH1 0x4 ADD PUSH0 PUSH2 0x100 EXP DUP2 SLOAD DUP2 PUSH1 0xFF MUL NOT AND SWAP1 DUP4 ISZERO ISZERO MUL OR SWAP1 SSTORE POP PUSH32 0x739766C917BEFD2312040CD8BDBCC45E456F5699D6E4466FB15DAD5089660BE0 DUP2 PUSH0 PUSH1 0x40 MLOAD PUSH2 0x975 SWAP3 SWAP2 SWAP1 PUSH2 0x131D JUMP JUMPDEST PUSH1 0x40 MLOAD DUP1 SWAP2 SUB SWAP1 LOG1 POP JUMP JUMPDEST PUSH1 0x2 SLOAD DUP2 JUMP JUMPDEST PUSH1 0x3 PUSH0 CALLER PUSH20 0xFFFFFFFFFFFFFFFFFFFFFFFFFFFFFFFFFFFFFFFF AND PUSH20 0xFFFFFFFFFFFFFFFFFFFFFFFFFFFFFFFFFFFFFFFF AND DUP2 MSTORE PUSH1 0x20 ADD SWAP1 DUP2 MSTORE PUSH1 0x20 ADD PUSH0 KECCAK256 PUSH0 SWAP1 SLOAD SWAP1 PUSH2 0x100 EXP SWAP1 DIV PUSH1 0xFF AND PUSH2 0xA0F JUMPI PUSH1 0x40 MLOAD PUSH32 0x8C379A000000000000000000000000000000000000000000000000000000000 DUP2 MSTORE PUSH1 0x4 ADD PUSH2 0xA06 SWAP1 PUSH2 0x12FF JUMP JUMPDEST PUSH1 0x40 MLOAD DUP1 SWAP2 SUB SWAP1 REVERT JUMPDEST PUSH0 PUSH2 0xA19 DUP5 PUSH2 0xB4F JUMP JUMPDEST SWAP1 POP PUSH1 0x40 MLOAD DUP1 PUSH1 0xC0 ADD PUSH1 0x40 MSTORE DUP1 PUSH1 0x2 SLOAD DUP2 MSTORE PUSH1 0x20 ADD DUP6 DUP2 MSTORE PUSH1 0x20 ADD DUP5 DUP2 MSTORE PUSH1 0x20 ADD DUP4 DUP2 MSTORE PUSH1 0x20 ADD PUSH1 0x1 ISZERO ISZERO DUP2 MSTORE PUSH1 0x20 ADD DUP3 DUP2 MSTORE POP PUSH1 0x1 PUSH0 PUSH1 0x2 SLOAD DUP2 MSTORE PUSH1 0x20 ADD SWAP1 DUP2 MSTORE PUSH1 0x20 ADD PUSH0 KECCAK256 PUSH0 DUP3 ADD MLOAD DUP2 PUSH0 ADD SSTORE PUSH1 0x20 DUP3 ADD MLOAD DUP2 PUSH1 0x1 ADD SWAP1 DUP2 PUSH2 0xA7D SWAP2 SWAP1 PUSH2 0x14E1 JUMP JUMPDEST POP PUSH1 0x40 DUP3 ADD MLOAD DUP2 PUSH1 0x2 ADD SWAP1 DUP2 PUSH2 0xA93 SWAP2 SWAP1 PUSH2 0x14E1 JUMP JUMPDEST POP PUSH1 0x60 DUP3 ADD MLOAD DUP2 PUSH1 0x3 ADD SWAP1 DUP2 PUSH2 0xAA9 SWAP2 SWAP1 PUSH2 0x14E1 JUMP JUMPDEST POP PUSH1 0x80 DUP3 ADD MLOAD DUP2 PUSH1 0x4 ADD PUSH0 PUSH2 0x100 EXP DUP2 SLOAD DUP2 PUSH1 0xFF MUL NOT AND SWAP1 DUP4 ISZERO ISZERO MUL OR SWAP1 SSTORE POP PUSH1 0xA0 DUP3 ADD MLOAD DUP2 PUSH1 0x5 ADD SSTORE SWAP1 POP POP PUSH32 0x6B352E211B4D936DA8B329B89379DC32DF52C107A79A9544F3ECB5CCBE5EE2B7 PUSH1 0x2 SLOAD PUSH1 0x40 MLOAD PUSH2 0xB07 SWAP2 SWAP1 PUSH2 0xF2B JUMP JUMPDEST PUSH1 0x40 MLOAD DUP1 SWAP2 SUB SWAP1 LOG1 PUSH1 0x2 PUSH0 DUP2 SLOAD DUP1 SWAP3 SWAP2 SWAP1 PUSH2 0xB21 SWAP1 PUSH2 0x15DD JUMP JUMPDEST SWAP2 SWAP1 POP SSTORE POP POP POP POP POP JUMP JUMPDEST PUSH0 DUP1 SLOAD SWAP1 PUSH2 0x100 EXP SWAP1 DIV PUSH20 0xFFFFFFFFFFFFFFFFFFFFFFFFFFFFFFFFFFFFFFFF AND DUP2 JUMP JUMPDEST PUSH0 DUP2 PUSH1 0x40 MLOAD PUSH1 0x20 ADD PUSH2 0xB61 SWAP2 SWAP1 PUSH2 0x165E JUMP JUMPDEST PUSH1 0x40 MLOAD PUSH1 0x20 DUP2 DUP4 SUB SUB DUP2 MSTORE SWAP1 PUSH1 0x40 MSTORE DUP1 MLOAD SWAP1 PUSH1 0x20 ADD KECCAK256 SWAP1 POP SWAP2 SWAP1 POP JUMP JUMPDEST PUSH1 0x40 MLOAD DUP1 PUSH1 0xC0 ADD PUSH1 0x40 MSTORE DUP1 PUSH0 DUP2 MSTORE PUSH1 0x20 ADD PUSH1 0x60 DUP2 MSTORE PUSH1 0x20 ADD PUSH1 0x60 DUP2 MSTORE PUSH1 0x20 ADD PUSH1 0x60 DUP2 MSTORE PUSH1 0x20 ADD PUSH0 ISZERO ISZERO DUP2 MSTORE PUSH1 0x20 ADD PUSH0 DUP1 NOT AND DUP2 MSTORE POP SWAP1 JUMP JUMPDEST PUSH0 PUSH1 0x40 MLOAD SWAP1 POP SWAP1 JUMP JUMPDEST PUSH0 DUP1 REVERT JUMPDEST PUSH0 DUP1 REVERT JUMPDEST PUSH0 DUP2 SWAP1 POP SWAP2 SWAP1 POP JUMP JUMPDEST PUSH2 0xBD9 DUP2 PUSH2 0xBC7 JUMP JUMPDEST DUP2 EQ PUSH2 0xBE3 JUMPI PUSH0 DUP1 REVERT JUMPDEST POP JUMP JUMPDEST PUSH0 DUP2 CALLDATALOAD SWAP1 POP PUSH2 0xBF4 DUP2 PUSH2 0xBD0 JUMP JUMPDEST SWAP3 SWAP2 POP POP JUMP JUMPDEST PUSH0 PUSH1 0x20 DUP3 DUP5 SUB SLT ISZERO PUSH2 0xC0F JUMPI PUSH2 0xC0E PUSH2 0xBBF JUMP JUMPDEST JUMPDEST PUSH0 PUSH2 0xC1C DUP5 DUP3 DUP6 ADD PUSH2 0xBE6 JUMP JUMPDEST SWAP2 POP POP SWAP3 SWAP2 POP POP JUMP JUMPDEST PUSH2 0xC2E DUP2 PUSH2 0xBC7 JUMP JUMPDEST DUP3 MSTORE POP POP JUMP JUMPDEST PUSH0 DUP2 MLOAD SWAP1 POP SWAP2 SWAP1 POP JUMP JUMPDEST PUSH0 DUP3 DUP3 MSTORE PUSH1 0x20 DUP3 ADD SWAP1 POP SWAP3 SWAP2 POP POP JUMP JUMPDEST PUSH0 JUMPDEST DUP4 DUP2 LT ISZERO PUSH2 0xC6B JUMPI DUP1 DUP3 ADD MLOAD DUP2 DUP5 ADD MSTORE PUSH1 0x20 DUP2 ADD SWAP1 POP PUSH2 0xC50 JUMP JUMPDEST PUSH0 DUP5 DUP5 ADD MSTORE POP POP POP POP JUMP JUMPDEST PUSH0 PUSH1 0x1F NOT PUSH1 0x1F DUP4 ADD AND SWAP1 POP SWAP2 SWAP1 POP JUMP JUMPDEST PUSH0 PUSH2 0xC90 DUP3 PUSH2 0xC34 JUMP JUMPDEST PUSH2 0xC9A DUP2 DUP6 PUSH2 0xC3E JUMP JUMPDEST SWAP4 POP PUSH2 0xCAA DUP2 DUP6 PUSH1 0x20 DUP7 ADD PUSH2 0xC4E JUMP JUMPDEST PUSH2 0xCB3 DUP2 PUSH2 0xC76 JUMP JUMPDEST DUP5 ADD SWAP2 POP POP SWAP3 SWAP2 POP POP JUMP JUMPDEST PUSH0 DUP2 ISZERO ISZERO SWAP1 POP SWAP2 SWAP1 POP JUMP JUMPDEST PUSH2 0xCD2 DUP2 PUSH2 0xCBE JUMP JUMPDEST DUP3 MSTORE POP POP JUMP JUMPDEST PUSH0 DUP2 SWAP1 POP SWAP2 SWAP1 POP JUMP JUMPDEST PUSH2 0xCEA DUP2 PUSH2 0xCD8 JUMP JUMPDEST DUP3 MSTORE POP POP JUMP JUMPDEST PUSH0 PUSH1 0xC0 DUP4 ADD PUSH0 DUP4 ADD MLOAD PUSH2 0xD05 PUSH0 DUP7 ADD DUP3 PUSH2 0xC25 JUMP JUMPDEST POP PUSH1 0x20 DUP4 ADD MLOAD DUP5 DUP3 SUB PUSH1 0x20 DUP7 ADD MSTORE PUSH2 0xD1D DUP3 DUP3 PUSH2 0xC86 JUMP JUMPDEST SWAP2 POP POP PUSH1 0x40 DUP4 ADD MLOAD DUP5 DUP3 SUB PUSH1 0x40 DUP7 ADD MSTORE PUSH2 0xD37 DUP3 DUP3 PUSH2 0xC86 JUMP JUMPDEST SWAP2 POP POP PUSH1 0x60 DUP4 ADD MLOAD DUP5 DUP3 SUB PUSH1 0x60 DUP7 ADD MSTORE PUSH2 0xD51 DUP3 DUP3 PUSH2 0xC86 JUMP JUMPDEST SWAP2 POP POP PUSH1 0x80 DUP4 ADD MLOAD PUSH2 0xD66 PUSH1 0x80 DUP7 ADD DUP3 PUSH2 0xCC9 JUMP JUMPDEST POP PUSH1 0xA0 DUP4 ADD MLOAD PUSH2 0xD79 PUSH1 0xA0 DUP7 ADD DUP3 PUSH2 0xCE1 JUMP JUMPDEST POP DUP1 SWAP2 POP POP SWAP3 SWAP2 POP POP JUMP JUMPDEST PUSH0 PUSH1 0x20 DUP3 ADD SWAP1 POP DUP2 DUP2 SUB PUSH0 DUP4 ADD MSTORE PUSH2 0xD9C DUP2 DUP5 PUSH2 0xCF0 JUMP JUMPDEST SWAP1 POP SWAP3 SWAP2 POP POP JUMP JUMPDEST PUSH0 PUSH20 0xFFFFFFFFFFFFFFFFFFFFFFFFFFFFFFFFFFFFFFFF DUP3 AND SWAP1 POP SWAP2 SWAP1 POP JUMP JUMPDEST PUSH0 PUSH2 0xDCD DUP3 PUSH2 0xDA4 JUMP JUMPDEST SWAP1 POP SWAP2 SWAP1 POP JUMP JUMPDEST PUSH2 0xDDD DUP2 PUSH2 0xDC3 JUMP JUMPDEST DUP2 EQ PUSH2 0xDE7 JUMPI PUSH0 DUP1 REVERT JUMPDEST POP JUMP JUMPDEST PUSH0 DUP2 CALLDATALOAD SWAP1 POP PUSH2 0xDF8 DUP2 PUSH2 0xDD4 JUMP JUMPDEST SWAP3 SWAP2 POP POP JUMP JUMPDEST PUSH0 PUSH1 0x20 DUP3 DUP5 SUB SLT ISZERO PUSH2 0xE13 JUMPI PUSH2 0xE12 PUSH2 0xBBF JUMP JUMPDEST JUMPDEST PUSH0 PUSH2 0xE20 DUP5 DUP3 DUP6 ADD PUSH2 0xDEA JUMP JUMPDEST SWAP2 POP POP SWAP3 SWAP2 POP POP JUMP JUMPDEST PUSH2 0xE32 DUP2 PUSH2 0xCBE JUMP JUMPDEST DUP3 MSTORE POP POP JUMP JUMPDEST PUSH0 PUSH1 0x20 DUP3 ADD SWAP1 POP PUSH2 0xE4B PUSH0 DUP4 ADD DUP5 PUSH2 0xE29 JUMP JUMPDEST SWAP3 SWAP2 POP POP JUMP JUMPDEST PUSH2 0xE5A DUP2 PUSH2 0xBC7 JUMP JUMPDEST DUP3 MSTORE POP POP JUMP JUMPDEST PUSH0 DUP3 DUP3 MSTORE PUSH1 0x20 DUP3 ADD SWAP1 POP SWAP3 SWAP2 POP POP JUMP JUMPDEST PUSH0 PUSH2 0xE7A DUP3 PUSH2 0xC34 JUMP JUMPDEST PUSH2 0xE84 DUP2 DUP6 PUSH2 0xE60 JUMP JUMPDEST SWAP4 POP PUSH2 0xE94 DUP2 DUP6 PUSH1 0x20 DUP7 ADD PUSH2 0xC4E JUMP JUMPDEST PUSH2 0xE9D DUP2 PUSH2 0xC76 JUMP JUMPDEST DUP5 ADD SWAP2 POP POP SWAP3 SWAP2 POP POP JUMP JUMPDEST PUSH2 0xEB1 DUP2 PUSH2 0xCD8 JUMP JUMPDEST DUP3 MSTORE POP POP JUMP JUMPDEST PUSH0 PUSH1 0xC0 DUP3 ADD SWAP1 POP PUSH2 0xECA PUSH0 DUP4 ADD DUP10 PUSH2 0xE51 JUMP JUMPDEST DUP2 DUP2 SUB PUSH1 0x20 DUP4 ADD MSTORE PUSH2 0xEDC DUP2 DUP9 PUSH2 0xE70 JUMP JUMPDEST SWAP1 POP DUP2 DUP2 SUB PUSH1 0x40 DUP4 ADD MSTORE PUSH2 0xEF0 DUP2 DUP8 PUSH2 0xE70 JUMP JUMPDEST SWAP1 POP DUP2 DUP2 SUB PUSH1 0x60 DUP4 ADD MSTORE PUSH2 0xF04 DUP2 DUP7 PUSH2 0xE70 JUMP JUMPDEST SWAP1 POP PUSH2 0xF13 PUSH1 0x80 DUP4 ADD DUP6 PUSH2 0xE29 JUMP JUMPDEST PUSH2 0xF20 PUSH1 0xA0 DUP4 ADD DUP5 PUSH2 0xEA8 JUMP JUMPDEST SWAP8 SWAP7 POP POP POP POP POP POP POP JUMP JUMPDEST PUSH0 PUSH1 0x20 DUP3 ADD SWAP1 POP PUSH2 0xF3E PUSH0 DUP4 ADD DUP5 PUSH2 0xE51 JUMP JUMPDEST SWAP3 SWAP2 POP POP JUMP JUMPDEST PUSH0 DUP1 REVERT JUMPDEST PUSH0 DUP1 REVERT JUMPDEST PUSH32 0x4E487B7100000000000000000000000000000000000000000000000000000000 PUSH0 MSTORE PUSH1 0x41 PUSH1 0x4 MSTORE PUSH1 0x24 PUSH0 REVERT JUMPDEST PUSH2 0xF82 DUP3 PUSH2 0xC76 JUMP JUMPDEST DUP2 ADD DUP2 DUP2 LT PUSH8 0xFFFFFFFFFFFFFFFF DUP3 GT OR ISZERO PUSH2 0xFA1 JUMPI PUSH2 0xFA0 PUSH2 0xF4C JUMP JUMPDEST JUMPDEST DUP1 PUSH1 0x40 MSTORE POP POP POP JUMP JUMPDEST PUSH0 PUSH2 0xFB3 PUSH2 0xBB6 JUMP JUMPDEST SWAP1 POP PUSH2 0xFBF DUP3 DUP3 PUSH2 0xF79 JUMP JUMPDEST SWAP2 SWAP1 POP JUMP JUMPDEST PUSH0 PUSH8 0xFFFFFFFFFFFFFFFF DUP3 GT ISZERO PUSH2 0xFDE JUMPI PUSH2 0xFDD PUSH2 0xF4C JUMP JUMPDEST JUMPDEST PUSH2 0xFE7 DUP3 PUSH2 0xC76 JUMP JUMPDEST SWAP1 POP PUSH1 0x20 DUP2 ADD SWAP1 POP SWAP2 SWAP1 POP JUMP JUMPDEST DUP3 DUP2 DUP4 CALLDATACOPY PUSH0 DUP4 DUP4 ADD MSTORE POP POP POP JUMP JUMPDEST PUSH0 PUSH2 0x1014 PUSH2 0x100F DUP5 PUSH2 0xFC4 JUMP JUMPDEST PUSH2 0xFAA JUMP JUMPDEST SWAP1 POP DUP3 DUP2 MSTORE PUSH1 0x20 DUP2 ADD DUP5 DUP5 DUP5 ADD GT ISZERO PUSH2 0x1030 JUMPI PUSH2 0x102F PUSH2 0xF48 JUMP JUMPDEST JUMPDEST PUSH2 0x103B DUP5 DUP3 DUP6 PUSH2 0xFF4 JUMP JUMPDEST POP SWAP4 SWAP3 POP POP POP JUMP JUMPDEST PUSH0 DUP3 PUSH1 0x1F DUP4 ADD SLT PUSH2 0x1057 JUMPI PUSH2 0x1056 PUSH2 0xF44 JUMP JUMPDEST JUMPDEST DUP2 CALLDATALOAD PUSH2 0x1067 DUP5 DUP3 PUSH1 0x20 DUP7 ADD PUSH2 0x1002 JUMP JUMPDEST SWAP2 POP POP SWAP3 SWAP2 POP POP JUMP JUMPDEST PUSH0 DUP1 PUSH0 PUSH1 0x60 DUP5 DUP7 SUB SLT ISZERO PUSH2 0x1087 JUMPI PUSH2 0x1086 PUSH2 0xBBF JUMP JUMPDEST JUMPDEST PUSH0 DUP5 ADD CALLDATALOAD PUSH8 0xFFFFFFFFFFFFFFFF DUP2 GT ISZERO PUSH2 0x10A4 JUMPI PUSH2 0x10A3 PUSH2 0xBC3 JUMP JUMPDEST JUMPDEST PUSH2 0x10B0 DUP7 DUP3 DUP8 ADD PUSH2 0x1043 JUMP JUMPDEST SWAP4 POP POP PUSH1 0x20 DUP5 ADD CALLDATALOAD PUSH8 0xFFFFFFFFFFFFFFFF DUP2 GT ISZERO PUSH2 0x10D1 JUMPI PUSH2 0x10D0 PUSH2 0xBC3 JUMP JUMPDEST JUMPDEST PUSH2 0x10DD DUP7 DUP3 DUP8 ADD PUSH2 0x1043 JUMP JUMPDEST SWAP3 POP POP PUSH1 0x40 DUP5 ADD CALLDATALOAD PUSH8 0xFFFFFFFFFFFFFFFF DUP2 GT ISZERO PUSH2 0x10FE JUMPI PUSH2 0x10FD PUSH2 0xBC3 JUMP JUMPDEST JUMPDEST PUSH2 0x110A DUP7 DUP3 DUP8 ADD PUSH2 0x1043 JUMP JUMPDEST SWAP2 POP POP SWAP3 POP SWAP3 POP SWAP3 JUMP JUMPDEST PUSH2 0x111D DUP2 PUSH2 0xDC3 JUMP JUMPDEST DUP3 MSTORE POP POP JUMP JUMPDEST PUSH0 PUSH1 0x20 DUP3 ADD SWAP1 POP PUSH2 0x1136 PUSH0 DUP4 ADD DUP5 PUSH2 0x1114 JUMP JUMPDEST SWAP3 SWAP2 POP POP JUMP JUMPDEST PUSH32 0x496E76616C696420636572746966696361746520494400000000000000000000 PUSH0 DUP3 ADD MSTORE POP JUMP JUMPDEST PUSH0 PUSH2 0x1170 PUSH1 0x16 DUP4 PUSH2 0xE60 JUMP JUMPDEST SWAP2 POP PUSH2 0x117B DUP3 PUSH2 0x113C JUMP JUMPDEST PUSH1 0x20 DUP3 ADD SWAP1 POP SWAP2 SWAP1 POP JUMP JUMPDEST PUSH0 PUSH1 0x20 DUP3 ADD SWAP1 POP DUP2 DUP2 SUB PUSH0 DUP4 ADD MSTORE PUSH2 0x119D DUP2 PUSH2 0x1164 JUMP JUMPDEST SWAP1 POP SWAP2 SWAP1 POP JUMP JUMPDEST PUSH32 0x4E487B7100000000000000000000000000000000000000000000000000000000 PUSH0 MSTORE PUSH1 0x22 PUSH1 0x4 MSTORE PUSH1 0x24 PUSH0 REVERT JUMPDEST PUSH0 PUSH1 0x2 DUP3 DIV SWAP1 POP PUSH1 0x1 DUP3 AND DUP1 PUSH2 0x11E8 JUMPI PUSH1 0x7F DUP3 AND SWAP2 POP JUMPDEST PUSH1 0x20 DUP3 LT DUP2 SUB PUSH2 0x11FB JUMPI PUSH2 0x11FA PUSH2 0x11A4 JUMP JUMPDEST JUMPDEST POP SWAP2 SWAP1 POP JUMP JUMPDEST PUSH32 0x4F6E6C792061646D696E2063616E2063616C6C20746869732066756E6374696F PUSH0 DUP3 ADD MSTORE PUSH32 0x6E00000000000000000000000000000000000000000000000000000000000000 PUSH1 0x20 DUP3 ADD MSTORE POP JUMP JUMPDEST PUSH0 PUSH2 0x125B PUSH1 0x21 DUP4 PUSH2 0xE60 JUMP JUMPDEST SWAP2 POP PUSH2 0x1266 DUP3 PUSH2 0x1201 JUMP JUMPDEST PUSH1 0x40 DUP3 ADD SWAP1 POP SWAP2 SWAP1 POP JUMP JUMPDEST PUSH0 PUSH1 0x20 DUP3 ADD SWAP1 POP DUP2 DUP2 SUB PUSH0 DUP4 ADD MSTORE PUSH2 0x1288 DUP2 PUSH2 0x124F JUMP JUMPDEST SWAP1 POP SWAP2 SWAP1 POP JUMP JUMPDEST PUSH32 0x4F6E6C7920617574686F72697A6564206973737565722063616E2063616C6C20 PUSH0 DUP3 ADD MSTORE PUSH32 0x746869732066756E6374696F6E00000000000000000000000000000000000000 PUSH1 0x20 DUP3 ADD MSTORE POP JUMP JUMPDEST PUSH0 PUSH2 0x12E9 PUSH1 0x2D DUP4 PUSH2 0xE60 JUMP JUMPDEST SWAP2 POP PUSH2 0x12F4 DUP3 PUSH2 0x128F JUMP JUMPDEST PUSH1 0x40 DUP3 ADD SWAP1 POP SWAP2 SWAP1 POP JUMP JUMPDEST PUSH0 PUSH1 0x20 DUP3 ADD SWAP1 POP DUP2 DUP2 SUB PUSH0 DUP4 ADD MSTORE PUSH2 0x1316 DUP2 PUSH2 0x12DD JUMP JUMPDEST SWAP1 POP SWAP2 SWAP1 POP JUMP JUMPDEST PUSH0 PUSH1 0x40 DUP3 ADD SWAP1 POP PUSH2 0x1330 PUSH0 DUP4 ADD DUP6 PUSH2 0xE51 JUMP JUMPDEST PUSH2 0x133D PUSH1 0x20 DUP4 ADD DUP5 PUSH2 0xE29 JUMP JUMPDEST SWAP4 SWAP3 POP POP POP JUMP JUMPDEST PUSH0 DUP2 SWAP1 POP DUP2 PUSH0 MSTORE PUSH1 0x20 PUSH0 KECCAK256 SWAP1 POP SWAP2 SWAP1 POP JUMP JUMPDEST PUSH0 PUSH1 0x20 PUSH1 0x1F DUP4 ADD DIV SWAP1 POP SWAP2 SWAP1 POP JUMP JUMPDEST PUSH0 DUP3 DUP3 SHL SWAP1 POP SWAP3 SWAP2 POP POP JUMP JUMPDEST PUSH0 PUSH1 0x8 DUP4 MUL PUSH2 0x13A0 PUSH32 0xFFFFFFFFFFFFFFFFFFFFFFFFFFFFFFFFFFFFFFFFFFFFFFFFFFFFFFFFFFFFFFFF DUP3 PUSH2 0x1365 JUMP JUMPDEST PUSH2 0x13AA DUP7 DUP4 PUSH2 0x1365 JUMP JUMPDEST SWAP6 POP DUP1 NOT DUP5 AND SWAP4 POP DUP1 DUP7 AND DUP5 OR SWAP3 POP POP POP SWAP4 SWAP3 POP POP POP JUMP JUMPDEST PUSH0 DUP2 SWAP1 POP SWAP2 SWAP1 POP JUMP JUMPDEST PUSH0 PUSH2 0x13E5 PUSH2 0x13E0 PUSH2 0x13DB DUP5 PUSH2 0xBC7 JUMP JUMPDEST PUSH2 0x13C2 JUMP JUMPDEST PUSH2 0xBC7 JUMP JUMPDEST SWAP1 POP SWAP2 SWAP1 POP JUMP JUMPDEST PUSH0 DUP2 SWAP1 POP SWAP2 SWAP1 POP JUMP JUMPDEST PUSH2 0x13FE DUP4 PUSH2 0x13CB JUMP JUMPDEST PUSH2 0x1412 PUSH2 0x140A DUP3 PUSH2 0x13EC JUMP JUMPDEST DUP5 DUP5 SLOAD PUSH2 0x1371 JUMP JUMPDEST DUP3 SSTORE POP POP POP POP JUMP JUMPDEST PUSH0 SWAP1 JUMP JUMPDEST PUSH2 0x1426 PUSH2 0x141A JUMP JUMPDEST PUSH2 0x1431 DUP2 DUP5 DUP5 PUSH2 0x13F5 JUMP JUMPDEST POP POP POP JUMP JUMPDEST JUMPDEST DUP2 DUP2 LT ISZERO PUSH2 0x1454 JUMPI PUSH2 0x1449 PUSH0 DUP3 PUSH2 0x141E JUMP JUMPDEST PUSH1 0x1 DUP2 ADD SWAP1 POP PUSH2 0x1437 JUMP JUMPDEST POP POP JUMP JUMPDEST PUSH1 0x1F DUP3 GT ISZERO PUSH2 0x1499 JUMPI PUSH2 0x146A DUP2 PUSH2 0x1344 JUMP JUMPDEST PUSH2 0x1473 DUP5 PUSH2 0x1356 JUMP JUMPDEST DUP2 ADD PUSH1 0x20 DUP6 LT ISZERO PUSH2 0x1482 JUMPI DUP2 SWAP1 POP JUMPDEST PUSH2 0x1496 PUSH2 0x148E DUP6 PUSH2 0x1356 JUMP JUMPDEST DUP4 ADD DUP3 PUSH2 0x1436 JUMP JUMPDEST POP POP JUMPDEST POP POP POP JUMP JUMPDEST PUSH0 DUP3 DUP3 SHR SWAP1 POP SWAP3 SWAP2 POP POP JUMP JUMPDEST PUSH0 PUSH2 0x14B9 PUSH0 NOT DUP5 PUSH1 0x8 MUL PUSH2 0x149E JUMP JUMPDEST NOT DUP1 DUP4 AND SWAP2 POP POP SWAP3 SWAP2 POP POP JUMP JUMPDEST PUSH0 PUSH2 0x14D1 DUP4 DUP4 PUSH2 0x14AA JUMP JUMPDEST SWAP2 POP DUP3 PUSH1 0x2 MUL DUP3 OR SWAP1 POP SWAP3 SWAP2 POP POP JUMP JUMPDEST PUSH2 0x14EA DUP3 PUSH2 0xC34 JUMP JUMPDEST PUSH8 0xFFFFFFFFFFFFFFFF DUP2 GT ISZERO PUSH2 0x1503 JUMPI PUSH2 0x1502 PUSH2 0xF4C JUMP JUMPDEST JUMPDEST PUSH2 0x150D DUP3 SLOAD PUSH2 0x11D1 JUMP JUMPDEST PUSH2 0x1518 DUP3 DUP3 DUP6 PUSH2 0x1458 JUMP JUMPDEST PUSH0 PUSH1 0x20 SWAP1 POP PUSH1 0x1F DUP4 GT PUSH1 0x1 DUP2 EQ PUSH2 0x1549 JUMPI PUSH0 DUP5 ISZERO PUSH2 0x1537 JUMPI DUP3 DUP8 ADD MLOAD SWAP1 POP JUMPDEST PUSH2 0x1541 DUP6 DUP3 PUSH2 0x14C6 JUMP JUMPDEST DUP7 SSTORE POP PUSH2 0x15A8 JUMP JUMPDEST PUSH1 0x1F NOT DUP5 AND PUSH2 0x1557 DUP7 PUSH2 0x1344 JUMP JUMPDEST PUSH0 JUMPDEST DUP3 DUP2 LT ISZERO PUSH2 0x157E JUMPI DUP5 DUP10 ADD MLOAD DUP3 SSTORE PUSH1 0x1 DUP3 ADD SWAP2 POP PUSH1 0x20 DUP6 ADD SWAP5 POP PUSH1 0x20 DUP2 ADD SWAP1 POP PUSH2 0x1559 JUMP JUMPDEST DUP7 DUP4 LT ISZERO PUSH2 0x159B JUMPI DUP5 DUP10 ADD MLOAD PUSH2 0x1597 PUSH1 0x1F DUP10 AND DUP3 PUSH2 0x14AA JUMP JUMPDEST DUP4 SSTORE POP JUMPDEST PUSH1 0x1 PUSH1 0x2 DUP9 MUL ADD DUP9 SSTORE POP POP POP JUMPDEST POP POP POP POP POP POP JUMP JUMPDEST PUSH32 0x4E487B7100000000000000000000000000000000000000000000000000000000 PUSH0 MSTORE PUSH1 0x11 PUSH1 0x4 MSTORE PUSH1 0x24 PUSH0 REVERT JUMPDEST PUSH0 PUSH2 0x15E7 DUP3 PUSH2 0xBC7 JUMP JUMPDEST SWAP2 POP PUSH32 0xFFFFFFFFFFFFFFFFFFFFFFFFFFFFFFFFFFFFFFFFFFFFFFFFFFFFFFFFFFFFFFFF DUP3 SUB PUSH2 0x1619 JUMPI PUSH2 0x1618 PUSH2 0x15B0 JUMP JUMPDEST JUMPDEST PUSH1 0x1 DUP3 ADD SWAP1 POP SWAP2 SWAP1 POP JUMP JUMPDEST PUSH0 DUP2 SWAP1 POP SWAP3 SWAP2 POP POP JUMP JUMPDEST PUSH0 PUSH2 0x1638 DUP3 PUSH2 0xC34 JUMP JUMPDEST PUSH2 0x1642 DUP2 DUP6 PUSH2 0x1624 JUMP JUMPDEST SWAP4 POP PUSH2 0x1652 DUP2 DUP6 PUSH1 0x20 DUP7 ADD PUSH2 0xC4E JUMP JUMPDEST DUP1 DUP5 ADD SWAP2 POP POP SWAP3 SWAP2 POP POP JUMP JUMPDEST PUSH0 PUSH2 0x1669 DUP3 DUP5 PUSH2 0x162E JUMP JUMPDEST SWAP2 POP DUP2 SWAP1 POP SWAP3 SWAP2 POP POP JUMP INVALID LOG2 PUSH5 0x6970667358 0x22 SLT KECCAK256 0xC5 SDIV 0xB2 CALLDATALOAD PUSH25 0x15A2CF85EBD7E3D3F3A33C51D9BA00C7FE25C03A09EBB1E097 0xED SWAP4 PUSH5 0x736F6C6343 STOP ADDMOD XOR STOP CALLER "
				},
				"gasEstimates": {
					"creation": {
						"codeDepositCost": "1160400",
						"executionCost": "25470",
						"totalCost": "1185870"
					},
					"external": {
						"addIssuer(address)": "infinite",
						"admin()": "2593",
						"certificates(uint256)": "infinite",
						"invalidateCertificate(uint256)": "infinite",
						"issueCertificate(string,string,string)": "infinite",
						"issuers(address)": "2878",
						"nextCertificateId()": "2469",
						"removeIssuer(address)": "infinite",
						"verifyCertificate(uint256)": "infinite"
					},
					"internal": {
						"generateAIValidationHash(string memory)": "infinite"
					}
				},
				"methodIdentifiers": {
					"addIssuer(address)": "20694db0",
					"admin()": "f851a440",
					"certificates(uint256)": "663b3e22",
					"invalidateCertificate(uint256)": "7db3761b",
					"issueCertificate(string,string,string)": "beec1caa",
					"issuers(address)": "38a7543e",
					"nextCertificateId()": "a0bdb003",
					"removeIssuer(address)": "47bc7093",
					"verifyCertificate(uint256)": "1692a942"
				}
			},
			"storageLayout": {
				"storage": [
					{
						"astId": 16,
						"contract": "cert-new2.sol:CertificateValidation",
						"label": "admin",
						"offset": 0,
						"slot": "0",
						"type": "t_address"
					},
					{
						"astId": 21,
						"contract": "cert-new2.sol:CertificateValidation",
						"label": "certificates",
						"offset": 0,
						"slot": "1",
						"type": "t_mapping(t_uint256,t_struct(Certificate)14_storage)"
					},
					{
						"astId": 23,
						"contract": "cert-new2.sol:CertificateValidation",
						"label": "nextCertificateId",
						"offset": 0,
						"slot": "2",
						"type": "t_uint256"
					},
					{
						"astId": 27,
						"contract": "cert-new2.sol:CertificateValidation",
						"label": "issuers",
						"offset": 0,
						"slot": "3",
						"type": "t_mapping(t_address,t_bool)"
					}
				],
				"types": {
					"t_address": {
						"encoding": "inplace",
						"label": "address",
						"numberOfBytes": "20"
					},
					"t_bool": {
						"encoding": "inplace",
						"label": "bool",
						"numberOfBytes": "1"
					},
					"t_bytes32": {
						"encoding": "inplace",
						"label": "bytes32",
						"numberOfBytes": "32"
					},
					"t_mapping(t_address,t_bool)": {
						"encoding": "mapping",
						"key": "t_address",
						"label": "mapping(address => bool)",
						"numberOfBytes": "32",
						"value": "t_bool"
					},
					"t_mapping(t_uint256,t_struct(Certificate)14_storage)": {
						"encoding": "mapping",
						"key": "t_uint256",
						"label": "mapping(uint256 => struct CertificateValidation.Certificate)",
						"numberOfBytes": "32",
						"value": "t_struct(Certificate)14_storage"
					},
					"t_string_storage": {
						"encoding": "bytes",
						"label": "string",
						"numberOfBytes": "32"
					},
					"t_struct(Certificate)14_storage": {
						"encoding": "inplace",
						"label": "struct CertificateValidation.Certificate",
						"members": [
							{
								"astId": 3,
								"contract": "cert-new2.sol:CertificateValidation",
								"label": "id",
								"offset": 0,
								"slot": "0",
								"type": "t_uint256"
							},
							{
								"astId": 5,
								"contract": "cert-new2.sol:CertificateValidation",
								"label": "candidateName",
								"offset": 0,
								"slot": "1",
								"type": "t_string_storage"
							},
							{
								"astId": 7,
								"contract": "cert-new2.sol:CertificateValidation",
								"label": "course",
								"offset": 0,
								"slot": "2",
								"type": "t_string_storage"
							},
							{
								"astId": 9,
								"contract": "cert-new2.sol:CertificateValidation",
								"label": "issueDate",
								"offset": 0,
								"slot": "3",
								"type": "t_string_storage"
							},
							{
								"astId": 11,
								"contract": "cert-new2.sol:CertificateValidation",
								"label": "valid",
								"offset": 0,
								"slot": "4",
								"type": "t_bool"
							},
							{
								"astId": 13,
								"contract": "cert-new2.sol:CertificateValidation",
								"label": "aiValidationHash",
								"offset": 0,
								"slot": "5",
								"type": "t_bytes32"
							}
						],
						"numberOfBytes": "192"
					},
					"t_uint256": {
						"encoding": "inplace",
						"label": "uint256",
						"numberOfBytes": "32"
					}
				}
			},
			"userdoc": {
				"kind": "user",
				"methods": {},
				"version": 1
			}
		}
	}
}