{
	"contracts/2_Owner.sol": {
		"MyFeedBack": {
			"abi": [
				{
					"inputs": [],
					"name": "getFeedBack",
					"outputs": [
						{
							"components": [
								{
									"internalType": "address",
									"name": "sender",
									"type": "address"
								},
								{
									"internalType": "string",
									"name": "title",
									"type": "string"
								},
								{
									"internalType": "string",
									"name": "feedback",
									"type": "string"
								},
								{
									"internalType": "uint256",
									"name": "timestamp",
									"type": "uint256"
								}
							],
							"internalType": "struct MyFeedBack.Feedback[]",
							"name": "",
							"type": "tuple[]"
						}
					],
					"stateMutability": "view",
					"type": "function"
				},
				{
					"inputs": [
						{
							"internalType": "string",
							"name": "_title",
							"type": "string"
						},
						{
							"internalType": "string",
							"name": "_userFeedback",
							"type": "string"
						}
					],
					"name": "sendFeedBack",
					"outputs": [],
					"stateMutability": "nonpayable",
					"type": "function"
				},
				{
					"inputs": [
						{
							"internalType": "uint256",
							"name": "",
							"type": "uint256"
						}
					],
					"name": "userFeedback",
					"outputs": [
						{
							"internalType": "address",
							"name": "sender",
							"type": "address"
						},
						{
							"internalType": "string",
							"name": "title",
							"type": "string"
						},
						{
							"internalType": "string",
							"name": "feedback",
							"type": "string"
						},
						{
							"internalType": "uint256",
							"name": "timestamp",
							"type": "uint256"
						}
					],
					"stateMutability": "view",
					"type": "function"
				}
			],
			"devdoc": {
				"kind": "dev",
				"methods": {},
				"version": 1
			},
			"evm": {
				"assembly": "    /* \"contracts/2_Owner.sol\":66:742  contract MyFeedBack {... */\n  mstore(0x40, 0x80)\n  callvalue\n  dup1\n  iszero\n  tag_1\n  jumpi\n  0x00\n  dup1\n  revert\ntag_1:\n  pop\n  dataSize(sub_0)\n  dup1\n  dataOffset(sub_0)\n  0x00\n  codecopy\n  0x00\n  return\nstop\n\nsub_0: assembly {\n        /* \"contracts/2_Owner.sol\":66:742  contract MyFeedBack {... */\n      mstore(0x40, 0x80)\n      callvalue\n      dup1\n      iszero\n      tag_1\n      jumpi\n      0x00\n      dup1\n      revert\n    tag_1:\n      pop\n      jumpi(tag_2, lt(calldatasize, 0x04))\n      shr(0xe0, calldataload(0x00))\n      dup1\n      0x1760da80\n      eq\n      tag_3\n      jumpi\n      dup1\n      0x630e6deb\n      eq\n      tag_4\n      jumpi\n      dup1\n      0xd4e81170\n      eq\n      tag_5\n      jumpi\n    tag_2:\n      0x00\n      dup1\n      revert\n        /* \"contracts/2_Owner.sol\":641:740  function getFeedBack() public view returns (Feedback[] memory) {... */\n    tag_3:\n      tag_6\n      tag_7\n      jump\t// in\n    tag_6:\n      mload(0x40)\n      tag_8\n      swap2\n      swap1\n      tag_9\n      jump\t// in\n    tag_8:\n      mload(0x40)\n      dup1\n      swap2\n      sub\n      swap1\n      return\n        /* \"contracts/2_Owner.sol\":283:635  function sendFeedBack(string calldata _title, string calldata _userFeedback) external {... */\n    tag_4:\n      tag_10\n      0x04\n      dup1\n      calldatasize\n      sub\n      dup2\n      add\n      swap1\n      tag_11\n      swap2\n      swap1\n      tag_12\n      jump\t// in\n    tag_11:\n      tag_13\n      jump\t// in\n    tag_10:\n      stop\n        /* \"contracts/2_Owner.sol\":246:276  Feedback[] public userFeedback */\n    tag_5:\n      tag_14\n      0x04\n      dup1\n      calldatasize\n      sub\n      dup2\n      add\n      swap1\n      tag_15\n      swap2\n      swap1\n      tag_16\n      jump\t// in\n    tag_15:\n      tag_17\n      jump\t// in\n    tag_14:\n      mload(0x40)\n      tag_18\n      swap5\n      swap4\n      swap3\n      swap2\n      swap1\n      tag_19\n      jump\t// in\n    tag_18:\n      mload(0x40)\n      dup1\n      swap2\n      sub\n      swap1\n      return\n        /* \"contracts/2_Owner.sol\":641:740  function getFeedBack() public view returns (Feedback[] memory) {... */\n    tag_7:\n        /* \"contracts/2_Owner.sol\":685:702  Feedback[] memory */\n      0x60\n        /* \"contracts/2_Owner.sol\":721:733  userFeedback */\n      0x00\n        /* \"contracts/2_Owner.sol\":714:733  return userFeedback */\n      dup1\n      sload\n      dup1\n      0x20\n      mul\n      0x20\n      add\n      mload(0x40)\n      swap1\n      dup2\n      add\n      0x40\n      mstore\n      dup1\n      swap3\n      swap2\n      swap1\n      dup2\n      dup2\n      mstore\n      0x20\n      add\n      0x00\n      swap1\n    tag_21:\n      dup3\n      dup3\n      lt\n      iszero\n      tag_22\n      jumpi\n      dup4\n      dup3\n      swap1\n      0x00\n      mstore\n      keccak256(0x00, 0x20)\n      swap1\n      0x04\n      mul\n      add\n      mload(0x40)\n      dup1\n      0x80\n      add\n      0x40\n      mstore\n      swap1\n      dup2\n      0x00\n      dup3\n      add\n      0x00\n      swap1\n      sload\n      swap1\n      0x0100\n      exp\n      swap1\n      div\n      0xffffffffffffffffffffffffffffffffffffffff\n      and\n      0xffffffffffffffffffffffffffffffffffffffff\n      and\n      0xffffffffffffffffffffffffffffffffffffffff\n      and\n      dup2\n      mstore\n      0x20\n      add\n      0x01\n      dup3\n      add\n      dup1\n      sload\n      tag_24\n      swap1\n      tag_25\n      jump\t// in\n    tag_24:\n      dup1\n      0x1f\n      add\n      0x20\n      dup1\n      swap2\n      div\n      mul\n      0x20\n      add\n      mload(0x40)\n      swap1\n      dup2\n      add\n      0x40\n      mstore\n      dup1\n      swap3\n      swap2\n      swap1\n      dup2\n      dup2\n      mstore\n      0x20\n      add\n      dup3\n      dup1\n      sload\n      tag_26\n      swap1\n      tag_25\n      jump\t// in\n    tag_26:\n      dup1\n      iszero\n      tag_27\n      jumpi\n      dup1\n      0x1f\n      lt\n      tag_28\n      jumpi\n      0x0100\n      dup1\n      dup4\n      sload\n      div\n      mul\n      dup4\n      mstore\n      swap2\n      0x20\n      add\n      swap2\n      jump(tag_27)\n    tag_28:\n      dup3\n      add\n      swap2\n      swap1\n      0x00\n      mstore\n      keccak256(0x00, 0x20)\n      swap1\n    tag_29:\n      dup2\n      sload\n      dup2\n      mstore\n      swap1\n      0x01\n      add\n      swap1\n      0x20\n      add\n      dup1\n      dup4\n      gt\n      tag_29\n      jumpi\n      dup3\n      swap1\n      sub\n      0x1f\n      and\n      dup3\n      add\n      swap2\n    tag_27:\n      pop\n      pop\n      pop\n      pop\n      pop\n      dup2\n      mstore\n      0x20\n      add\n      0x02\n      dup3\n      add\n      dup1\n      sload\n      tag_30\n      swap1\n      tag_25\n      jump\t// in\n    tag_30:\n      dup1\n      0x1f\n      add\n      0x20\n      dup1\n      swap2\n      div\n      mul\n      0x20\n      add\n      mload(0x40)\n      swap1\n      dup2\n      add\n      0x40\n      mstore\n      dup1\n      swap3\n      swap2\n      swap1\n      dup2\n      dup2\n      mstore\n      0x20\n      add\n      dup3\n      dup1\n      sload\n      tag_31\n      swap1\n      tag_25\n      jump\t// in\n    tag_31:\n      dup1\n      iszero\n      tag_32\n      jumpi\n      dup1\n      0x1f\n      lt\n      tag_33\n      jumpi\n      0x0100\n      dup1\n      dup4\n      sload\n      div\n      mul\n      dup4\n      mstore\n      swap2\n      0x20\n      add\n      swap2\n      jump(tag_32)\n    tag_33:\n      dup3\n      add\n      swap2\n      swap1\n      0x00\n      mstore\n      keccak256(0x00, 0x20)\n      swap1\n    tag_34:\n      dup2\n      sload\n      dup2\n      mstore\n      swap1\n      0x01\n      add\n      swap1\n      0x20\n      add\n      dup1\n      dup4\n      gt\n      tag_34\n      jumpi\n      dup3\n      swap1\n      sub\n      0x1f\n      and\n      dup3\n      add\n      swap2\n    tag_32:\n      pop\n      pop\n      pop\n      pop\n      pop\n      dup2\n      mstore\n      0x20\n      add\n      0x03\n      dup3\n      add\n      sload\n      dup2\n      mstore\n      pop\n      pop\n      dup2\n      mstore\n      0x20\n      add\n      swap1\n      0x01\n      add\n      swap1\n      jump(tag_21)\n    tag_22:\n      pop\n      pop\n      pop\n      pop\n      swap1\n      pop\n        /* \"contracts/2_Owner.sol\":641:740  function getFeedBack() public view returns (Feedback[] memory) {... */\n      swap1\n      jump\t// out\n        /* \"contracts/2_Owner.sol\":283:635  function sendFeedBack(string calldata _title, string calldata _userFeedback) external {... */\n    tag_13:\n        /* \"contracts/2_Owner.sol\":379:403  Feedback memory feedback */\n      0x00\n        /* \"contracts/2_Owner.sol\":406:591  Feedback({... */\n      mload(0x40)\n      dup1\n      0x80\n      add\n      0x40\n      mstore\n      dup1\n        /* \"contracts/2_Owner.sol\":437:447  msg.sender */\n      caller\n        /* \"contracts/2_Owner.sol\":406:591  Feedback({... */\n      0xffffffffffffffffffffffffffffffffffffffff\n      and\n      dup2\n      mstore\n      0x20\n      add\n        /* \"contracts/2_Owner.sol\":468:474  _title */\n      dup7\n      dup7\n        /* \"contracts/2_Owner.sol\":406:591  Feedback({... */\n      dup1\n      dup1\n      0x1f\n      add\n      0x20\n      dup1\n      swap2\n      div\n      mul\n      0x20\n      add\n      mload(0x40)\n      swap1\n      dup2\n      add\n      0x40\n      mstore\n      dup1\n      swap4\n      swap3\n      swap2\n      swap1\n      dup2\n      dup2\n      mstore\n      0x20\n      add\n      dup4\n      dup4\n      dup1\n      dup3\n      dup5\n      calldatacopy\n      0x00\n      dup2\n      dup5\n      add\n      mstore\n      not(0x1f)\n      0x1f\n      dup3\n      add\n      and\n      swap1\n      pop\n      dup1\n      dup4\n      add\n      swap3\n      pop\n      pop\n      pop\n      pop\n      pop\n      pop\n      pop\n      dup2\n      mstore\n      0x20\n      add\n        /* \"contracts/2_Owner.sol\":527:540  _userFeedback */\n      dup5\n      dup5\n        /* \"contracts/2_Owner.sol\":406:591  Feedback({... */\n      dup1\n      dup1\n      0x1f\n      add\n      0x20\n      dup1\n      swap2\n      div\n      mul\n      0x20\n      add\n      mload(0x40)\n      swap1\n      dup2\n      add\n      0x40\n      mstore\n      dup1\n      swap4\n      swap3\n      swap2\n      swap1\n      dup2\n      dup2\n      mstore\n      0x20\n      add\n      dup4\n      dup4\n      dup1\n      dup3\n      dup5\n      calldatacopy\n      0x00\n      dup2\n      dup5\n      add\n      mstore\n      not(0x1f)\n      0x1f\n      dup3\n      add\n      and\n      swap1\n      pop\n      dup1\n      dup4\n      add\n      swap3\n      pop\n      pop\n      pop\n      pop\n      pop\n      pop\n      pop\n      dup2\n      mstore\n      0x20\n      add\n        /* \"contracts/2_Owner.sol\":565:580  block.timestamp */\n      timestamp\n        /* \"contracts/2_Owner.sol\":406:591  Feedback({... */\n      dup2\n      mstore\n      pop\n        /* \"contracts/2_Owner.sol\":379:591  Feedback memory feedback = Feedback({... */\n      swap1\n      pop\n        /* \"contracts/2_Owner.sol\":601:613  userFeedback */\n      0x00\n        /* \"contracts/2_Owner.sol\":619:627  feedback */\n      dup2\n        /* \"contracts/2_Owner.sol\":601:628  userFeedback.push(feedback) */\n      swap1\n      dup1\n      0x01\n      dup2\n      sload\n      add\n      dup1\n      dup3\n      sstore\n      dup1\n      swap2\n      pop\n      pop\n      0x01\n      swap1\n      sub\n      swap1\n      0x00\n      mstore\n      keccak256(0x00, 0x20)\n      swap1\n      0x04\n      mul\n      add\n      0x00\n      swap1\n      swap2\n      swap1\n      swap2\n      swap1\n      swap2\n      pop\n      0x00\n      dup3\n      add\n      mload\n      dup2\n      0x00\n      add\n      exp(0x0100, 0x00)\n      dup2\n      sload\n      dup2\n      0xffffffffffffffffffffffffffffffffffffffff\n      mul\n      not\n      and\n      swap1\n      dup4\n      0xffffffffffffffffffffffffffffffffffffffff\n      and\n      mul\n      or\n      swap1\n      sstore\n      pop\n      0x20\n      dup3\n      add\n      mload\n      dup2\n      0x01\n      add\n      swap1\n      dup2\n      tag_37\n      swap2\n      swap1\n      tag_38\n      jump\t// in\n    tag_37:\n      pop\n      0x40\n      dup3\n      add\n      mload\n      dup2\n      0x02\n      add\n      swap1\n      dup2\n      tag_39\n      swap2\n      swap1\n      tag_38\n      jump\t// in\n    tag_39:\n      pop\n      0x60\n      dup3\n      add\n      mload\n      dup2\n      0x03\n      add\n      sstore\n      pop\n      pop\n        /* \"contracts/2_Owner.sol\":369:635  {... */\n      pop\n        /* \"contracts/2_Owner.sol\":283:635  function sendFeedBack(string calldata _title, string calldata _userFeedback) external {... */\n      pop\n      pop\n      pop\n      pop\n      jump\t// out\n        /* \"contracts/2_Owner.sol\":246:276  Feedback[] public userFeedback */\n    tag_17:\n      0x00\n      dup2\n      dup2\n      sload\n      dup2\n      lt\n      tag_40\n      jumpi\n      0x00\n      dup1\n      revert\n    tag_40:\n      swap1\n      0x00\n      mstore\n      keccak256(0x00, 0x20)\n      swap1\n      0x04\n      mul\n      add\n      0x00\n      swap2\n      pop\n      swap1\n      pop\n      dup1\n      0x00\n      add\n      0x00\n      swap1\n      sload\n      swap1\n      0x0100\n      exp\n      swap1\n      div\n      0xffffffffffffffffffffffffffffffffffffffff\n      and\n      swap1\n      dup1\n      0x01\n      add\n      dup1\n      sload\n      tag_42\n      swap1\n      tag_25\n      jump\t// in\n    tag_42:\n      dup1\n      0x1f\n      add\n      0x20\n      dup1\n      swap2\n      div\n      mul\n      0x20\n      add\n      mload(0x40)\n      swap1\n      dup2\n      add\n      0x40\n      mstore\n      dup1\n      swap3\n      swap2\n      swap1\n      dup2\n      dup2\n      mstore\n      0x20\n      add\n      dup3\n      dup1\n      sload\n      tag_43\n      swap1\n      tag_25\n      jump\t// in\n    tag_43:\n      dup1\n      iszero\n      tag_44\n      jumpi\n      dup1\n      0x1f\n      lt\n      tag_45\n      jumpi\n      0x0100\n      dup1\n      dup4\n      sload\n      div\n      mul\n      dup4\n      mstore\n      swap2\n      0x20\n      add\n      swap2\n      jump(tag_44)\n    tag_45:\n      dup3\n      add\n      swap2\n      swap1\n      0x00\n      mstore\n      keccak256(0x00, 0x20)\n      swap1\n    tag_46:\n      dup2\n      sload\n      dup2\n      mstore\n      swap1\n      0x01\n      add\n      swap1\n      0x20\n      add\n      dup1\n      dup4\n      gt\n      tag_46\n      jumpi\n      dup3\n      swap1\n      sub\n      0x1f\n      and\n      dup3\n      add\n      swap2\n    tag_44:\n      pop\n      pop\n      pop\n      pop\n      pop\n      swap1\n      dup1\n      0x02\n      add\n      dup1\n      sload\n      tag_47\n      swap1\n      tag_25\n      jump\t// in\n    tag_47:\n      dup1\n      0x1f\n      add\n      0x20\n      dup1\n      swap2\n      div\n      mul\n      0x20\n      add\n      mload(0x40)\n      swap1\n      dup2\n      add\n      0x40\n      mstore\n      dup1\n      swap3\n      swap2\n      swap1\n      dup2\n      dup2\n      mstore\n      0x20\n      add\n      dup3\n      dup1\n      sload\n      tag_48\n      swap1\n      tag_25\n      jump\t// in\n    tag_48:\n      dup1\n      iszero\n      tag_49\n      jumpi\n      dup1\n      0x1f\n      lt\n      tag_50\n      jumpi\n      0x0100\n      dup1\n      dup4\n      sload\n      div\n      mul\n      dup4\n      mstore\n      swap2\n      0x20\n      add\n      swap2\n      jump(tag_49)\n    tag_50:\n      dup3\n      add\n      swap2\n      swap1\n      0x00\n      mstore\n      keccak256(0x00, 0x20)\n      swap1\n    tag_51:\n      dup2\n      sload\n      dup2\n      mstore\n      swap1\n      0x01\n      add\n      swap1\n      0x20\n      add\n      dup1\n      dup4\n      gt\n      tag_51\n      jumpi\n      dup3\n      swap1\n      sub\n      0x1f\n      and\n      dup3\n      add\n      swap2\n    tag_49:\n      pop\n      pop\n      pop\n      pop\n      pop\n      swap1\n      dup1\n      0x03\n      add\n      sload\n      swap1\n      pop\n      dup5\n      jump\t// out\n        /* \"#utility.yul\":7:145   */\n    tag_52:\n        /* \"#utility.yul\":98:104   */\n      0x00\n        /* \"#utility.yul\":132:137   */\n      dup2\n        /* \"#utility.yul\":126:138   */\n      mload\n        /* \"#utility.yul\":116:138   */\n      swap1\n      pop\n        /* \"#utility.yul\":7:145   */\n      swap2\n      swap1\n      pop\n      jump\t// out\n        /* \"#utility.yul\":151:359   */\n    tag_53:\n        /* \"#utility.yul\":274:285   */\n      0x00\n        /* \"#utility.yul\":308:314   */\n      dup3\n        /* \"#utility.yul\":303:306   */\n      dup3\n        /* \"#utility.yul\":296:315   */\n      mstore\n        /* \"#utility.yul\":348:352   */\n      0x20\n        /* \"#utility.yul\":343:346   */\n      dup3\n        /* \"#utility.yul\":339:353   */\n      add\n        /* \"#utility.yul\":324:353   */\n      swap1\n      pop\n        /* \"#utility.yul\":151:359   */\n      swap3\n      swap2\n      pop\n      pop\n      jump\t// out\n        /* \"#utility.yul\":365:521   */\n    tag_54:\n        /* \"#utility.yul\":456:460   */\n      0x00\n        /* \"#utility.yul\":479:482   */\n      dup2\n        /* \"#utility.yul\":471:482   */\n      swap1\n      pop\n        /* \"#utility.yul\":509:513   */\n      0x20\n        /* \"#utility.yul\":504:507   */\n      dup3\n        /* \"#utility.yul\":500:514   */\n      add\n        /* \"#utility.yul\":492:514   */\n      swap1\n      pop\n        /* \"#utility.yul\":365:521   */\n      swap2\n      swap1\n      pop\n      jump\t// out\n        /* \"#utility.yul\":527:653   */\n    tag_55:\n        /* \"#utility.yul\":564:571   */\n      0x00\n        /* \"#utility.yul\":604:646   */\n      0xffffffffffffffffffffffffffffffffffffffff\n        /* \"#utility.yul\":597:602   */\n      dup3\n        /* \"#utility.yul\":593:647   */\n      and\n        /* \"#utility.yul\":582:647   */\n      swap1\n      pop\n        /* \"#utility.yul\":527:653   */\n      swap2\n      swap1\n      pop\n      jump\t// out\n        /* \"#utility.yul\":659:755   */\n    tag_56:\n        /* \"#utility.yul\":696:703   */\n      0x00\n        /* \"#utility.yul\":725:749   */\n      tag_105\n        /* \"#utility.yul\":743:748   */\n      dup3\n        /* \"#utility.yul\":725:749   */\n      tag_55\n      jump\t// in\n    tag_105:\n        /* \"#utility.yul\":714:749   */\n      swap1\n      pop\n        /* \"#utility.yul\":659:755   */\n      swap2\n      swap1\n      pop\n      jump\t// out\n        /* \"#utility.yul\":761:869   */\n    tag_57:\n        /* \"#utility.yul\":838:862   */\n      tag_107\n        /* \"#utility.yul\":856:861   */\n      dup2\n        /* \"#utility.yul\":838:862   */\n      tag_56\n      jump\t// in\n    tag_107:\n        /* \"#utility.yul\":833:836   */\n      dup3\n        /* \"#utility.yul\":826:863   */\n      mstore\n        /* \"#utility.yul\":761:869   */\n      pop\n      pop\n      jump\t// out\n        /* \"#utility.yul\":875:974   */\n    tag_58:\n        /* \"#utility.yul\":927:933   */\n      0x00\n        /* \"#utility.yul\":961:966   */\n      dup2\n        /* \"#utility.yul\":955:967   */\n      mload\n        /* \"#utility.yul\":945:967   */\n      swap1\n      pop\n        /* \"#utility.yul\":875:974   */\n      swap2\n      swap1\n      pop\n      jump\t// out\n        /* \"#utility.yul\":980:1139   */\n    tag_59:\n        /* \"#utility.yul\":1054:1065   */\n      0x00\n        /* \"#utility.yul\":1088:1094   */\n      dup3\n        /* \"#utility.yul\":1083:1086   */\n      dup3\n        /* \"#utility.yul\":1076:1095   */\n      mstore\n        /* \"#utility.yul\":1128:1132   */\n      0x20\n        /* \"#utility.yul\":1123:1126   */\n      dup3\n        /* \"#utility.yul\":1119:1133   */\n      add\n        /* \"#utility.yul\":1104:1133   */\n      swap1\n      pop\n        /* \"#utility.yul\":980:1139   */\n      swap3\n      swap2\n      pop\n      pop\n      jump\t// out\n        /* \"#utility.yul\":1145:1284   */\n    tag_60:\n        /* \"#utility.yul\":1234:1240   */\n      dup3\n        /* \"#utility.yul\":1229:1232   */\n      dup2\n        /* \"#utility.yul\":1224:1227   */\n      dup4\n        /* \"#utility.yul\":1218:1241   */\n      mcopy\n        /* \"#utility.yul\":1275:1276   */\n      0x00\n        /* \"#utility.yul\":1266:1272   */\n      dup4\n        /* \"#utility.yul\":1261:1264   */\n      dup4\n        /* \"#utility.yul\":1257:1273   */\n      add\n        /* \"#utility.yul\":1250:1277   */\n      mstore\n        /* \"#utility.yul\":1145:1284   */\n      pop\n      pop\n      pop\n      jump\t// out\n        /* \"#utility.yul\":1290:1392   */\n    tag_61:\n        /* \"#utility.yul\":1331:1337   */\n      0x00\n        /* \"#utility.yul\":1382:1384   */\n      0x1f\n        /* \"#utility.yul\":1378:1385   */\n      not\n        /* \"#utility.yul\":1373:1375   */\n      0x1f\n        /* \"#utility.yul\":1366:1371   */\n      dup4\n        /* \"#utility.yul\":1362:1376   */\n      add\n        /* \"#utility.yul\":1358:1386   */\n      and\n        /* \"#utility.yul\":1348:1386   */\n      swap1\n      pop\n        /* \"#utility.yul\":1290:1392   */\n      swap2\n      swap1\n      pop\n      jump\t// out\n        /* \"#utility.yul\":1398:1755   */\n    tag_62:\n        /* \"#utility.yul\":1476:1479   */\n      0x00\n        /* \"#utility.yul\":1504:1543   */\n      tag_113\n        /* \"#utility.yul\":1537:1542   */\n      dup3\n        /* \"#utility.yul\":1504:1543   */\n      tag_58\n      jump\t// in\n    tag_113:\n        /* \"#utility.yul\":1559:1620   */\n      tag_114\n        /* \"#utility.yul\":1613:1619   */\n      dup2\n        /* \"#utility.yul\":1608:1611   */\n      dup6\n        /* \"#utility.yul\":1559:1620   */\n      tag_59\n      jump\t// in\n    tag_114:\n        /* \"#utility.yul\":1552:1620   */\n      swap4\n      pop\n        /* \"#utility.yul\":1629:1694   */\n      tag_115\n        /* \"#utility.yul\":1687:1693   */\n      dup2\n        /* \"#utility.yul\":1682:1685   */\n      dup6\n        /* \"#utility.yul\":1675:1679   */\n      0x20\n        /* \"#utility.yul\":1668:1673   */\n      dup7\n        /* \"#utility.yul\":1664:1680   */\n      add\n        /* \"#utility.yul\":1629:1694   */\n      tag_60\n      jump\t// in\n    tag_115:\n        /* \"#utility.yul\":1719:1748   */\n      tag_116\n        /* \"#utility.yul\":1741:1747   */\n      dup2\n        /* \"#utility.yul\":1719:1748   */\n      tag_61\n      jump\t// in\n    tag_116:\n        /* \"#utility.yul\":1714:1717   */\n      dup5\n        /* \"#utility.yul\":1710:1749   */\n      add\n        /* \"#utility.yul\":1703:1749   */\n      swap2\n      pop\n        /* \"#utility.yul\":1480:1755   */\n      pop\n        /* \"#utility.yul\":1398:1755   */\n      swap3\n      swap2\n      pop\n      pop\n      jump\t// out\n        /* \"#utility.yul\":1761:1838   */\n    tag_63:\n        /* \"#utility.yul\":1798:1805   */\n      0x00\n        /* \"#utility.yul\":1827:1832   */\n      dup2\n        /* \"#utility.yul\":1816:1832   */\n      swap1\n      pop\n        /* \"#utility.yul\":1761:1838   */\n      swap2\n      swap1\n      pop\n      jump\t// out\n        /* \"#utility.yul\":1844:1952   */\n    tag_64:\n        /* \"#utility.yul\":1921:1945   */\n      tag_119\n        /* \"#utility.yul\":1939:1944   */\n      dup2\n        /* \"#utility.yul\":1921:1945   */\n      tag_63\n      jump\t// in\n    tag_119:\n        /* \"#utility.yul\":1916:1919   */\n      dup3\n        /* \"#utility.yul\":1909:1946   */\n      mstore\n        /* \"#utility.yul\":1844:1952   */\n      pop\n      pop\n      jump\t// out\n        /* \"#utility.yul\":2022:3047   */\n    tag_65:\n        /* \"#utility.yul\":2129:2132   */\n      0x00\n        /* \"#utility.yul\":2165:2169   */\n      0x80\n        /* \"#utility.yul\":2160:2163   */\n      dup4\n        /* \"#utility.yul\":2156:2170   */\n      add\n        /* \"#utility.yul\":2254:2258   */\n      0x00\n        /* \"#utility.yul\":2247:2252   */\n      dup4\n        /* \"#utility.yul\":2243:2259   */\n      add\n        /* \"#utility.yul\":2237:2260   */\n      mload\n        /* \"#utility.yul\":2273:2336   */\n      tag_121\n        /* \"#utility.yul\":2330:2334   */\n      0x00\n        /* \"#utility.yul\":2325:2328   */\n      dup7\n        /* \"#utility.yul\":2321:2335   */\n      add\n        /* \"#utility.yul\":2307:2319   */\n      dup3\n        /* \"#utility.yul\":2273:2336   */\n      tag_57\n      jump\t// in\n    tag_121:\n        /* \"#utility.yul\":2180:2346   */\n      pop\n        /* \"#utility.yul\":2429:2433   */\n      0x20\n        /* \"#utility.yul\":2422:2427   */\n      dup4\n        /* \"#utility.yul\":2418:2434   */\n      add\n        /* \"#utility.yul\":2412:2435   */\n      mload\n        /* \"#utility.yul\":2482:2485   */\n      dup5\n        /* \"#utility.yul\":2476:2480   */\n      dup3\n        /* \"#utility.yul\":2472:2486   */\n      sub\n        /* \"#utility.yul\":2465:2469   */\n      0x20\n        /* \"#utility.yul\":2460:2463   */\n      dup7\n        /* \"#utility.yul\":2456:2470   */\n      add\n        /* \"#utility.yul\":2449:2487   */\n      mstore\n        /* \"#utility.yul\":2508:2581   */\n      tag_122\n        /* \"#utility.yul\":2576:2580   */\n      dup3\n        /* \"#utility.yul\":2562:2574   */\n      dup3\n        /* \"#utility.yul\":2508:2581   */\n      tag_62\n      jump\t// in\n    tag_122:\n        /* \"#utility.yul\":2500:2581   */\n      swap2\n      pop\n        /* \"#utility.yul\":2356:2592   */\n      pop\n        /* \"#utility.yul\":2678:2682   */\n      0x40\n        /* \"#utility.yul\":2671:2676   */\n      dup4\n        /* \"#utility.yul\":2667:2683   */\n      add\n        /* \"#utility.yul\":2661:2684   */\n      mload\n        /* \"#utility.yul\":2731:2734   */\n      dup5\n        /* \"#utility.yul\":2725:2729   */\n      dup3\n        /* \"#utility.yul\":2721:2735   */\n      sub\n        /* \"#utility.yul\":2714:2718   */\n      0x40\n        /* \"#utility.yul\":2709:2712   */\n      dup7\n        /* \"#utility.yul\":2705:2719   */\n      add\n        /* \"#utility.yul\":2698:2736   */\n      mstore\n        /* \"#utility.yul\":2757:2830   */\n      tag_123\n        /* \"#utility.yul\":2825:2829   */\n      dup3\n        /* \"#utility.yul\":2811:2823   */\n      dup3\n        /* \"#utility.yul\":2757:2830   */\n      tag_62\n      jump\t// in\n    tag_123:\n        /* \"#utility.yul\":2749:2830   */\n      swap2\n      pop\n        /* \"#utility.yul\":2602:2841   */\n      pop\n        /* \"#utility.yul\":2928:2932   */\n      0x60\n        /* \"#utility.yul\":2921:2926   */\n      dup4\n        /* \"#utility.yul\":2917:2933   */\n      add\n        /* \"#utility.yul\":2911:2934   */\n      mload\n        /* \"#utility.yul\":2947:3010   */\n      tag_124\n        /* \"#utility.yul\":3004:3008   */\n      0x60\n        /* \"#utility.yul\":2999:3002   */\n      dup7\n        /* \"#utility.yul\":2995:3009   */\n      add\n        /* \"#utility.yul\":2981:2993   */\n      dup3\n        /* \"#utility.yul\":2947:3010   */\n      tag_64\n      jump\t// in\n    tag_124:\n        /* \"#utility.yul\":2851:3020   */\n      pop\n        /* \"#utility.yul\":3037:3041   */\n      dup1\n        /* \"#utility.yul\":3030:3041   */\n      swap2\n      pop\n        /* \"#utility.yul\":2134:3047   */\n      pop\n        /* \"#utility.yul\":2022:3047   */\n      swap3\n      swap2\n      pop\n      pop\n      jump\t// out\n        /* \"#utility.yul\":3053:3305   */\n    tag_66:\n        /* \"#utility.yul\":3170:3180   */\n      0x00\n        /* \"#utility.yul\":3205:3299   */\n      tag_126\n        /* \"#utility.yul\":3295:3298   */\n      dup4\n        /* \"#utility.yul\":3287:3293   */\n      dup4\n        /* \"#utility.yul\":3205:3299   */\n      tag_65\n      jump\t// in\n    tag_126:\n        /* \"#utility.yul\":3191:3299   */\n      swap1\n      pop\n        /* \"#utility.yul\":3053:3305   */\n      swap3\n      swap2\n      pop\n      pop\n      jump\t// out\n        /* \"#utility.yul\":3311:3448   */\n    tag_67:\n        /* \"#utility.yul\":3405:3409   */\n      0x00\n        /* \"#utility.yul\":3437:3441   */\n      0x20\n        /* \"#utility.yul\":3432:3435   */\n      dup3\n        /* \"#utility.yul\":3428:3442   */\n      add\n        /* \"#utility.yul\":3420:3442   */\n      swap1\n      pop\n        /* \"#utility.yul\":3311:3448   */\n      swap2\n      swap1\n      pop\n      jump\t// out\n        /* \"#utility.yul\":3522:4625   */\n    tag_68:\n        /* \"#utility.yul\":3689:3692   */\n      0x00\n        /* \"#utility.yul\":3718:3796   */\n      tag_129\n        /* \"#utility.yul\":3790:3795   */\n      dup3\n        /* \"#utility.yul\":3718:3796   */\n      tag_52\n      jump\t// in\n    tag_129:\n        /* \"#utility.yul\":3812:3922   */\n      tag_130\n        /* \"#utility.yul\":3915:3921   */\n      dup2\n        /* \"#utility.yul\":3910:3913   */\n      dup6\n        /* \"#utility.yul\":3812:3922   */\n      tag_53\n      jump\t// in\n    tag_130:\n        /* \"#utility.yul\":3805:3922   */\n      swap4\n      pop\n        /* \"#utility.yul\":3948:3951   */\n      dup4\n        /* \"#utility.yul\":3993:3997   */\n      0x20\n        /* \"#utility.yul\":3985:3991   */\n      dup3\n        /* \"#utility.yul\":3981:3998   */\n      mul\n        /* \"#utility.yul\":3976:3979   */\n      dup6\n        /* \"#utility.yul\":3972:3999   */\n      add\n        /* \"#utility.yul\":4023:4103   */\n      tag_131\n        /* \"#utility.yul\":4097:4102   */\n      dup6\n        /* \"#utility.yul\":4023:4103   */\n      tag_54\n      jump\t// in\n    tag_131:\n        /* \"#utility.yul\":4126:4133   */\n      dup1\n        /* \"#utility.yul\":4157:4158   */\n      0x00\n        /* \"#utility.yul\":4142:4580   */\n    tag_132:\n        /* \"#utility.yul\":4167:4173   */\n      dup6\n        /* \"#utility.yul\":4164:4165   */\n      dup2\n        /* \"#utility.yul\":4161:4174   */\n      lt\n        /* \"#utility.yul\":4142:4580   */\n      iszero\n      tag_134\n      jumpi\n        /* \"#utility.yul\":4238:4247   */\n      dup5\n        /* \"#utility.yul\":4232:4236   */\n      dup5\n        /* \"#utility.yul\":4228:4248   */\n      sub\n        /* \"#utility.yul\":4223:4226   */\n      dup10\n        /* \"#utility.yul\":4216:4249   */\n      mstore\n        /* \"#utility.yul\":4289:4295   */\n      dup2\n        /* \"#utility.yul\":4283:4296   */\n      mload\n        /* \"#utility.yul\":4317:4429   */\n      tag_135\n        /* \"#utility.yul\":4424:4428   */\n      dup6\n        /* \"#utility.yul\":4409:4422   */\n      dup3\n        /* \"#utility.yul\":4317:4429   */\n      tag_66\n      jump\t// in\n    tag_135:\n        /* \"#utility.yul\":4309:4429   */\n      swap5\n      pop\n        /* \"#utility.yul\":4452:4536   */\n      tag_136\n        /* \"#utility.yul\":4529:4535   */\n      dup4\n        /* \"#utility.yul\":4452:4536   */\n      tag_67\n      jump\t// in\n    tag_136:\n        /* \"#utility.yul\":4442:4536   */\n      swap3\n      pop\n        /* \"#utility.yul\":4565:4569   */\n      0x20\n        /* \"#utility.yul\":4560:4563   */\n      dup11\n        /* \"#utility.yul\":4556:4570   */\n      add\n        /* \"#utility.yul\":4549:4570   */\n      swap10\n      pop\n        /* \"#utility.yul\":4202:4580   */\n      pop\n        /* \"#utility.yul\":4189:4190   */\n      0x01\n        /* \"#utility.yul\":4186:4187   */\n      dup2\n        /* \"#utility.yul\":4182:4191   */\n      add\n        /* \"#utility.yul\":4177:4191   */\n      swap1\n      pop\n        /* \"#utility.yul\":4142:4580   */\n      jump(tag_132)\n    tag_134:\n        /* \"#utility.yul\":4146:4160   */\n      pop\n        /* \"#utility.yul\":4596:4600   */\n      dup3\n        /* \"#utility.yul\":4589:4600   */\n      swap8\n      pop\n        /* \"#utility.yul\":4616:4619   */\n      dup8\n        /* \"#utility.yul\":4609:4619   */\n      swap6\n      pop\n        /* \"#utility.yul\":3694:4625   */\n      pop\n      pop\n      pop\n      pop\n      pop\n        /* \"#utility.yul\":3522:4625   */\n      swap3\n      swap2\n      pop\n      pop\n      jump\t// out\n        /* \"#utility.yul\":4631:5100   */\n    tag_9:\n        /* \"#utility.yul\":4822:4826   */\n      0x00\n        /* \"#utility.yul\":4860:4862   */\n      0x20\n        /* \"#utility.yul\":4849:4858   */\n      dup3\n        /* \"#utility.yul\":4845:4863   */\n      add\n        /* \"#utility.yul\":4837:4863   */\n      swap1\n      pop\n        /* \"#utility.yul\":4909:4918   */\n      dup2\n        /* \"#utility.yul\":4903:4907   */\n      dup2\n        /* \"#utility.yul\":4899:4919   */\n      sub\n        /* \"#utility.yul\":4895:4896   */\n      0x00\n        /* \"#utility.yul\":4884:4893   */\n      dup4\n        /* \"#utility.yul\":4880:4897   */\n      add\n        /* \"#utility.yul\":4873:4920   */\n      mstore\n        /* \"#utility.yul\":4937:5093   */\n      tag_138\n        /* \"#utility.yul\":5088:5092   */\n      dup2\n        /* \"#utility.yul\":5079:5085   */\n      dup5\n        /* \"#utility.yul\":4937:5093   */\n      tag_68\n      jump\t// in\n    tag_138:\n        /* \"#utility.yul\":4929:5093   */\n      swap1\n      pop\n        /* \"#utility.yul\":4631:5100   */\n      swap3\n      swap2\n      pop\n      pop\n      jump\t// out\n        /* \"#utility.yul\":5187:5304   */\n    tag_70:\n        /* \"#utility.yul\":5296:5297   */\n      0x00\n        /* \"#utility.yul\":5293:5294   */\n      dup1\n        /* \"#utility.yul\":5286:5298   */\n      revert\n        /* \"#utility.yul\":5310:5427   */\n    tag_71:\n        /* \"#utility.yul\":5419:5420   */\n      0x00\n        /* \"#utility.yul\":5416:5417   */\n      dup1\n        /* \"#utility.yul\":5409:5421   */\n      revert\n        /* \"#utility.yul\":5433:5550   */\n    tag_72:\n        /* \"#utility.yul\":5542:5543   */\n      0x00\n        /* \"#utility.yul\":5539:5540   */\n      dup1\n        /* \"#utility.yul\":5532:5544   */\n      revert\n        /* \"#utility.yul\":5556:5673   */\n    tag_73:\n        /* \"#utility.yul\":5665:5666   */\n      0x00\n        /* \"#utility.yul\":5662:5663   */\n      dup1\n        /* \"#utility.yul\":5655:5667   */\n      revert\n        /* \"#utility.yul\":5679:5796   */\n    tag_74:\n        /* \"#utility.yul\":5788:5789   */\n      0x00\n        /* \"#utility.yul\":5785:5786   */\n      dup1\n        /* \"#utility.yul\":5778:5790   */\n      revert\n        /* \"#utility.yul\":5816:6369   */\n    tag_75:\n        /* \"#utility.yul\":5874:5882   */\n      0x00\n        /* \"#utility.yul\":5884:5890   */\n      dup1\n        /* \"#utility.yul\":5934:5937   */\n      dup4\n        /* \"#utility.yul\":5927:5931   */\n      0x1f\n        /* \"#utility.yul\":5919:5925   */\n      dup5\n        /* \"#utility.yul\":5915:5932   */\n      add\n        /* \"#utility.yul\":5911:5938   */\n      slt\n        /* \"#utility.yul\":5901:6023   */\n      tag_146\n      jumpi\n        /* \"#utility.yul\":5942:6021   */\n      tag_147\n      tag_72\n      jump\t// in\n    tag_147:\n        /* \"#utility.yul\":5901:6023   */\n    tag_146:\n        /* \"#utility.yul\":6055:6061   */\n      dup3\n        /* \"#utility.yul\":6042:6062   */\n      calldataload\n        /* \"#utility.yul\":6032:6062   */\n      swap1\n      pop\n        /* \"#utility.yul\":6085:6103   */\n      0xffffffffffffffff\n        /* \"#utility.yul\":6077:6083   */\n      dup2\n        /* \"#utility.yul\":6074:6104   */\n      gt\n        /* \"#utility.yul\":6071:6188   */\n      iszero\n      tag_148\n      jumpi\n        /* \"#utility.yul\":6107:6186   */\n      tag_149\n      tag_73\n      jump\t// in\n    tag_149:\n        /* \"#utility.yul\":6071:6188   */\n    tag_148:\n        /* \"#utility.yul\":6221:6225   */\n      0x20\n        /* \"#utility.yul\":6213:6219   */\n      dup4\n        /* \"#utility.yul\":6209:6226   */\n      add\n        /* \"#utility.yul\":6197:6226   */\n      swap2\n      pop\n        /* \"#utility.yul\":6275:6278   */\n      dup4\n        /* \"#utility.yul\":6267:6271   */\n      0x01\n        /* \"#utility.yul\":6259:6265   */\n      dup3\n        /* \"#utility.yul\":6255:6272   */\n      mul\n        /* \"#utility.yul\":6245:6253   */\n      dup4\n        /* \"#utility.yul\":6241:6273   */\n      add\n        /* \"#utility.yul\":6238:6279   */\n      gt\n        /* \"#utility.yul\":6235:6363   */\n      iszero\n      tag_150\n      jumpi\n        /* \"#utility.yul\":6282:6361   */\n      tag_151\n      tag_74\n      jump\t// in\n    tag_151:\n        /* \"#utility.yul\":6235:6363   */\n    tag_150:\n        /* \"#utility.yul\":5816:6369   */\n      swap3\n      pop\n      swap3\n      swap1\n      pop\n      jump\t// out\n        /* \"#utility.yul\":6375:7249   */\n    tag_12:\n        /* \"#utility.yul\":6467:6473   */\n      0x00\n        /* \"#utility.yul\":6475:6481   */\n      dup1\n        /* \"#utility.yul\":6483:6489   */\n      0x00\n        /* \"#utility.yul\":6491:6497   */\n      dup1\n        /* \"#utility.yul\":6540:6542   */\n      0x40\n        /* \"#utility.yul\":6528:6537   */\n      dup6\n        /* \"#utility.yul\":6519:6526   */\n      dup8\n        /* \"#utility.yul\":6515:6538   */\n      sub\n        /* \"#utility.yul\":6511:6543   */\n      slt\n        /* \"#utility.yul\":6508:6627   */\n      iszero\n      tag_153\n      jumpi\n        /* \"#utility.yul\":6546:6625   */\n      tag_154\n      tag_70\n      jump\t// in\n    tag_154:\n        /* \"#utility.yul\":6508:6627   */\n    tag_153:\n        /* \"#utility.yul\":6694:6695   */\n      0x00\n        /* \"#utility.yul\":6683:6692   */\n      dup6\n        /* \"#utility.yul\":6679:6696   */\n      add\n        /* \"#utility.yul\":6666:6697   */\n      calldataload\n        /* \"#utility.yul\":6724:6742   */\n      0xffffffffffffffff\n        /* \"#utility.yul\":6716:6722   */\n      dup2\n        /* \"#utility.yul\":6713:6743   */\n      gt\n        /* \"#utility.yul\":6710:6827   */\n      iszero\n      tag_155\n      jumpi\n        /* \"#utility.yul\":6746:6825   */\n      tag_156\n      tag_71\n      jump\t// in\n    tag_156:\n        /* \"#utility.yul\":6710:6827   */\n    tag_155:\n        /* \"#utility.yul\":6859:6924   */\n      tag_157\n        /* \"#utility.yul\":6916:6923   */\n      dup8\n        /* \"#utility.yul\":6907:6913   */\n      dup3\n        /* \"#utility.yul\":6896:6905   */\n      dup9\n        /* \"#utility.yul\":6892:6914   */\n      add\n        /* \"#utility.yul\":6859:6924   */\n      tag_75\n      jump\t// in\n    tag_157:\n        /* \"#utility.yul\":6841:6924   */\n      swap5\n      pop\n      swap5\n      pop\n        /* \"#utility.yul\":6637:6934   */\n      pop\n        /* \"#utility.yul\":7001:7003   */\n      0x20\n        /* \"#utility.yul\":6990:6999   */\n      dup6\n        /* \"#utility.yul\":6986:7004   */\n      add\n        /* \"#utility.yul\":6973:7005   */\n      calldataload\n        /* \"#utility.yul\":7032:7050   */\n      0xffffffffffffffff\n        /* \"#utility.yul\":7024:7030   */\n      dup2\n        /* \"#utility.yul\":7021:7051   */\n      gt\n        /* \"#utility.yul\":7018:7135   */\n      iszero\n      tag_158\n      jumpi\n        /* \"#utility.yul\":7054:7133   */\n      tag_159\n      tag_71\n      jump\t// in\n    tag_159:\n        /* \"#utility.yul\":7018:7135   */\n    tag_158:\n        /* \"#utility.yul\":7167:7232   */\n      tag_160\n        /* \"#utility.yul\":7224:7231   */\n      dup8\n        /* \"#utility.yul\":7215:7221   */\n      dup3\n        /* \"#utility.yul\":7204:7213   */\n      dup9\n        /* \"#utility.yul\":7200:7222   */\n      add\n        /* \"#utility.yul\":7167:7232   */\n      tag_75\n      jump\t// in\n    tag_160:\n        /* \"#utility.yul\":7149:7232   */\n      swap3\n      pop\n      swap3\n      pop\n        /* \"#utility.yul\":6944:7242   */\n      pop\n        /* \"#utility.yul\":6375:7249   */\n      swap3\n      swap6\n      swap2\n      swap5\n      pop\n      swap3\n      pop\n      jump\t// out\n        /* \"#utility.yul\":7255:7377   */\n    tag_76:\n        /* \"#utility.yul\":7328:7352   */\n      tag_162\n        /* \"#utility.yul\":7346:7351   */\n      dup2\n        /* \"#utility.yul\":7328:7352   */\n      tag_63\n      jump\t// in\n    tag_162:\n        /* \"#utility.yul\":7321:7326   */\n      dup2\n        /* \"#utility.yul\":7318:7353   */\n      eq\n        /* \"#utility.yul\":7308:7371   */\n      tag_163\n      jumpi\n        /* \"#utility.yul\":7367:7368   */\n      0x00\n        /* \"#utility.yul\":7364:7365   */\n      dup1\n        /* \"#utility.yul\":7357:7369   */\n      revert\n        /* \"#utility.yul\":7308:7371   */\n    tag_163:\n        /* \"#utility.yul\":7255:7377   */\n      pop\n      jump\t// out\n        /* \"#utility.yul\":7383:7522   */\n    tag_77:\n        /* \"#utility.yul\":7429:7434   */\n      0x00\n        /* \"#utility.yul\":7467:7473   */\n      dup2\n        /* \"#utility.yul\":7454:7474   */\n      calldataload\n        /* \"#utility.yul\":7445:7474   */\n      swap1\n      pop\n        /* \"#utility.yul\":7483:7516   */\n      tag_165\n        /* \"#utility.yul\":7510:7515   */\n      dup2\n        /* \"#utility.yul\":7483:7516   */\n      tag_76\n      jump\t// in\n    tag_165:\n        /* \"#utility.yul\":7383:7522   */\n      swap3\n      swap2\n      pop\n      pop\n      jump\t// out\n        /* \"#utility.yul\":7528:7857   */\n    tag_16:\n        /* \"#utility.yul\":7587:7593   */\n      0x00\n        /* \"#utility.yul\":7636:7638   */\n      0x20\n        /* \"#utility.yul\":7624:7633   */\n      dup3\n        /* \"#utility.yul\":7615:7622   */\n      dup5\n        /* \"#utility.yul\":7611:7634   */\n      sub\n        /* \"#utility.yul\":7607:7639   */\n      slt\n        /* \"#utility.yul\":7604:7723   */\n      iszero\n      tag_167\n      jumpi\n        /* \"#utility.yul\":7642:7721   */\n      tag_168\n      tag_70\n      jump\t// in\n    tag_168:\n        /* \"#utility.yul\":7604:7723   */\n    tag_167:\n        /* \"#utility.yul\":7762:7763   */\n      0x00\n        /* \"#utility.yul\":7787:7840   */\n      tag_169\n        /* \"#utility.yul\":7832:7839   */\n      dup5\n        /* \"#utility.yul\":7823:7829   */\n      dup3\n        /* \"#utility.yul\":7812:7821   */\n      dup6\n        /* \"#utility.yul\":7808:7830   */\n      add\n        /* \"#utility.yul\":7787:7840   */\n      tag_77\n      jump\t// in\n    tag_169:\n        /* \"#utility.yul\":7777:7840   */\n      swap2\n      pop\n        /* \"#utility.yul\":7733:7850   */\n      pop\n        /* \"#utility.yul\":7528:7857   */\n      swap3\n      swap2\n      pop\n      pop\n      jump\t// out\n        /* \"#utility.yul\":7863:7981   */\n    tag_78:\n        /* \"#utility.yul\":7950:7974   */\n      tag_171\n        /* \"#utility.yul\":7968:7973   */\n      dup2\n        /* \"#utility.yul\":7950:7974   */\n      tag_56\n      jump\t// in\n    tag_171:\n        /* \"#utility.yul\":7945:7948   */\n      dup3\n        /* \"#utility.yul\":7938:7975   */\n      mstore\n        /* \"#utility.yul\":7863:7981   */\n      pop\n      pop\n      jump\t// out\n        /* \"#utility.yul\":7987:8156   */\n    tag_79:\n        /* \"#utility.yul\":8071:8082   */\n      0x00\n        /* \"#utility.yul\":8105:8111   */\n      dup3\n        /* \"#utility.yul\":8100:8103   */\n      dup3\n        /* \"#utility.yul\":8093:8112   */\n      mstore\n        /* \"#utility.yul\":8145:8149   */\n      0x20\n        /* \"#utility.yul\":8140:8143   */\n      dup3\n        /* \"#utility.yul\":8136:8150   */\n      add\n        /* \"#utility.yul\":8121:8150   */\n      swap1\n      pop\n        /* \"#utility.yul\":7987:8156   */\n      swap3\n      swap2\n      pop\n      pop\n      jump\t// out\n        /* \"#utility.yul\":8162:8539   */\n    tag_80:\n        /* \"#utility.yul\":8250:8253   */\n      0x00\n        /* \"#utility.yul\":8278:8317   */\n      tag_174\n        /* \"#utility.yul\":8311:8316   */\n      dup3\n        /* \"#utility.yul\":8278:8317   */\n      tag_58\n      jump\t// in\n    tag_174:\n        /* \"#utility.yul\":8333:8404   */\n      tag_175\n        /* \"#utility.yul\":8397:8403   */\n      dup2\n        /* \"#utility.yul\":8392:8395   */\n      dup6\n        /* \"#utility.yul\":8333:8404   */\n      tag_79\n      jump\t// in\n    tag_175:\n        /* \"#utility.yul\":8326:8404   */\n      swap4\n      pop\n        /* \"#utility.yul\":8413:8478   */\n      tag_176\n        /* \"#utility.yul\":8471:8477   */\n      dup2\n        /* \"#utility.yul\":8466:8469   */\n      dup6\n        /* \"#utility.yul\":8459:8463   */\n      0x20\n        /* \"#utility.yul\":8452:8457   */\n      dup7\n        /* \"#utility.yul\":8448:8464   */\n      add\n        /* \"#utility.yul\":8413:8478   */\n      tag_60\n      jump\t// in\n    tag_176:\n        /* \"#utility.yul\":8503:8532   */\n      tag_177\n        /* \"#utility.yul\":8525:8531   */\n      dup2\n        /* \"#utility.yul\":8503:8532   */\n      tag_61\n      jump\t// in\n    tag_177:\n        /* \"#utility.yul\":8498:8501   */\n      dup5\n        /* \"#utility.yul\":8494:8533   */\n      add\n        /* \"#utility.yul\":8487:8533   */\n      swap2\n      pop\n        /* \"#utility.yul\":8254:8539   */\n      pop\n        /* \"#utility.yul\":8162:8539   */\n      swap3\n      swap2\n      pop\n      pop\n      jump\t// out\n        /* \"#utility.yul\":8545:8663   */\n    tag_81:\n        /* \"#utility.yul\":8632:8656   */\n      tag_179\n        /* \"#utility.yul\":8650:8655   */\n      dup2\n        /* \"#utility.yul\":8632:8656   */\n      tag_63\n      jump\t// in\n    tag_179:\n        /* \"#utility.yul\":8627:8630   */\n      dup3\n        /* \"#utility.yul\":8620:8657   */\n      mstore\n        /* \"#utility.yul\":8545:8663   */\n      pop\n      pop\n      jump\t// out\n        /* \"#utility.yul\":8669:9404   */\n    tag_19:\n        /* \"#utility.yul\":8886:8890   */\n      0x00\n        /* \"#utility.yul\":8924:8927   */\n      0x80\n        /* \"#utility.yul\":8913:8922   */\n      dup3\n        /* \"#utility.yul\":8909:8928   */\n      add\n        /* \"#utility.yul\":8901:8928   */\n      swap1\n      pop\n        /* \"#utility.yul\":8938:9009   */\n      tag_181\n        /* \"#utility.yul\":9006:9007   */\n      0x00\n        /* \"#utility.yul\":8995:9004   */\n      dup4\n        /* \"#utility.yul\":8991:9008   */\n      add\n        /* \"#utility.yul\":8982:8988   */\n      dup8\n        /* \"#utility.yul\":8938:9009   */\n      tag_78\n      jump\t// in\n    tag_181:\n        /* \"#utility.yul\":9056:9065   */\n      dup2\n        /* \"#utility.yul\":9050:9054   */\n      dup2\n        /* \"#utility.yul\":9046:9066   */\n      sub\n        /* \"#utility.yul\":9041:9043   */\n      0x20\n        /* \"#utility.yul\":9030:9039   */\n      dup4\n        /* \"#utility.yul\":9026:9044   */\n      add\n        /* \"#utility.yul\":9019:9067   */\n      mstore\n        /* \"#utility.yul\":9084:9162   */\n      tag_182\n        /* \"#utility.yul\":9157:9161   */\n      dup2\n        /* \"#utility.yul\":9148:9154   */\n      dup7\n        /* \"#utility.yul\":9084:9162   */\n      tag_80\n      jump\t// in\n    tag_182:\n        /* \"#utility.yul\":9076:9162   */\n      swap1\n      pop\n        /* \"#utility.yul\":9209:9218   */\n      dup2\n        /* \"#utility.yul\":9203:9207   */\n      dup2\n        /* \"#utility.yul\":9199:9219   */\n      sub\n        /* \"#utility.yul\":9194:9196   */\n      0x40\n        /* \"#utility.yul\":9183:9192   */\n      dup4\n        /* \"#utility.yul\":9179:9197   */\n      add\n        /* \"#utility.yul\":9172:9220   */\n      mstore\n        /* \"#utility.yul\":9237:9315   */\n      tag_183\n        /* \"#utility.yul\":9310:9314   */\n      dup2\n        /* \"#utility.yul\":9301:9307   */\n      dup6\n        /* \"#utility.yul\":9237:9315   */\n      tag_80\n      jump\t// in\n    tag_183:\n        /* \"#utility.yul\":9229:9315   */\n      swap1\n      pop\n        /* \"#utility.yul\":9325:9397   */\n      tag_184\n        /* \"#utility.yul\":9393:9395   */\n      0x60\n        /* \"#utility.yul\":9382:9391   */\n      dup4\n        /* \"#utility.yul\":9378:9396   */\n      add\n        /* \"#utility.yul\":9369:9375   */\n      dup5\n        /* \"#utility.yul\":9325:9397   */\n      tag_81\n      jump\t// in\n    tag_184:\n        /* \"#utility.yul\":8669:9404   */\n      swap6\n      swap5\n      pop\n      pop\n      pop\n      pop\n      pop\n      jump\t// out\n        /* \"#utility.yul\":9410:9590   */\n    tag_82:\n        /* \"#utility.yul\":9458:9535   */\n      0x4e487b7100000000000000000000000000000000000000000000000000000000\n        /* \"#utility.yul\":9455:9456   */\n      0x00\n        /* \"#utility.yul\":9448:9536   */\n      mstore\n        /* \"#utility.yul\":9555:9559   */\n      0x22\n        /* \"#utility.yul\":9552:9553   */\n      0x04\n        /* \"#utility.yul\":9545:9560   */\n      mstore\n        /* \"#utility.yul\":9579:9583   */\n      0x24\n        /* \"#utility.yul\":9576:9577   */\n      0x00\n        /* \"#utility.yul\":9569:9584   */\n      revert\n        /* \"#utility.yul\":9596:9916   */\n    tag_25:\n        /* \"#utility.yul\":9640:9646   */\n      0x00\n        /* \"#utility.yul\":9677:9678   */\n      0x02\n        /* \"#utility.yul\":9671:9675   */\n      dup3\n        /* \"#utility.yul\":9667:9679   */\n      div\n        /* \"#utility.yul\":9657:9679   */\n      swap1\n      pop\n        /* \"#utility.yul\":9724:9725   */\n      0x01\n        /* \"#utility.yul\":9718:9722   */\n      dup3\n        /* \"#utility.yul\":9714:9726   */\n      and\n        /* \"#utility.yul\":9745:9763   */\n      dup1\n        /* \"#utility.yul\":9735:9816   */\n      tag_187\n      jumpi\n        /* \"#utility.yul\":9801:9805   */\n      0x7f\n        /* \"#utility.yul\":9793:9799   */\n      dup3\n        /* \"#utility.yul\":9789:9806   */\n      and\n        /* \"#utility.yul\":9779:9806   */\n      swap2\n      pop\n        /* \"#utility.yul\":9735:9816   */\n    tag_187:\n        /* \"#utility.yul\":9863:9865   */\n      0x20\n        /* \"#utility.yul\":9855:9861   */\n      dup3\n        /* \"#utility.yul\":9852:9866   */\n      lt\n        /* \"#utility.yul\":9832:9850   */\n      dup2\n        /* \"#utility.yul\":9829:9867   */\n      sub\n        /* \"#utility.yul\":9826:9910   */\n      tag_188\n      jumpi\n        /* \"#utility.yul\":9882:9900   */\n      tag_189\n      tag_82\n      jump\t// in\n    tag_189:\n        /* \"#utility.yul\":9826:9910   */\n    tag_188:\n        /* \"#utility.yul\":9647:9916   */\n      pop\n        /* \"#utility.yul\":9596:9916   */\n      swap2\n      swap1\n      pop\n      jump\t// out\n        /* \"#utility.yul\":9922:10102   */\n    tag_83:\n        /* \"#utility.yul\":9970:10047   */\n      0x4e487b7100000000000000000000000000000000000000000000000000000000\n        /* \"#utility.yul\":9967:9968   */\n      0x00\n        /* \"#utility.yul\":9960:10048   */\n      mstore\n        /* \"#utility.yul\":10067:10071   */\n      0x41\n        /* \"#utility.yul\":10064:10065   */\n      0x04\n        /* \"#utility.yul\":10057:10072   */\n      mstore\n        /* \"#utility.yul\":10091:10095   */\n      0x24\n        /* \"#utility.yul\":10088:10089   */\n      0x00\n        /* \"#utility.yul\":10081:10096   */\n      revert\n        /* \"#utility.yul\":10108:10249   */\n    tag_84:\n        /* \"#utility.yul\":10157:10161   */\n      0x00\n        /* \"#utility.yul\":10180:10183   */\n      dup2\n        /* \"#utility.yul\":10172:10183   */\n      swap1\n      pop\n        /* \"#utility.yul\":10203:10206   */\n      dup2\n        /* \"#utility.yul\":10200:10201   */\n      0x00\n        /* \"#utility.yul\":10193:10207   */\n      mstore\n        /* \"#utility.yul\":10237:10241   */\n      0x20\n        /* \"#utility.yul\":10234:10235   */\n      0x00\n        /* \"#utility.yul\":10224:10242   */\n      keccak256\n        /* \"#utility.yul\":10216:10242   */\n      swap1\n      pop\n        /* \"#utility.yul\":10108:10249   */\n      swap2\n      swap1\n      pop\n      jump\t// out\n        /* \"#utility.yul\":10255:10348   */\n    tag_85:\n        /* \"#utility.yul\":10292:10298   */\n      0x00\n        /* \"#utility.yul\":10339:10341   */\n      0x20\n        /* \"#utility.yul\":10334:10336   */\n      0x1f\n        /* \"#utility.yul\":10327:10332   */\n      dup4\n        /* \"#utility.yul\":10323:10337   */\n      add\n        /* \"#utility.yul\":10319:10342   */\n      div\n        /* \"#utility.yul\":10309:10342   */\n      swap1\n      pop\n        /* \"#utility.yul\":10255:10348   */\n      swap2\n      swap1\n      pop\n      jump\t// out\n        /* \"#utility.yul\":10354:10461   */\n    tag_86:\n        /* \"#utility.yul\":10398:10406   */\n      0x00\n        /* \"#utility.yul\":10448:10453   */\n      dup3\n        /* \"#utility.yul\":10442:10446   */\n      dup3\n        /* \"#utility.yul\":10438:10454   */\n      shl\n        /* \"#utility.yul\":10417:10454   */\n      swap1\n      pop\n        /* \"#utility.yul\":10354:10461   */\n      swap3\n      swap2\n      pop\n      pop\n      jump\t// out\n        /* \"#utility.yul\":10467:10860   */\n    tag_87:\n        /* \"#utility.yul\":10536:10542   */\n      0x00\n        /* \"#utility.yul\":10586:10587   */\n      0x08\n        /* \"#utility.yul\":10574:10584   */\n      dup4\n        /* \"#utility.yul\":10570:10588   */\n      mul\n        /* \"#utility.yul\":10609:10706   */\n      tag_195\n        /* \"#utility.yul\":10639:10705   */\n      0xffffffffffffffffffffffffffffffffffffffffffffffffffffffffffffffff\n        /* \"#utility.yul\":10628:10637   */\n      dup3\n        /* \"#utility.yul\":10609:10706   */\n      tag_86\n      jump\t// in\n    tag_195:\n        /* \"#utility.yul\":10727:10766   */\n      tag_196\n        /* \"#utility.yul\":10757:10765   */\n      dup7\n        /* \"#utility.yul\":10746:10755   */\n      dup4\n        /* \"#utility.yul\":10727:10766   */\n      tag_86\n      jump\t// in\n    tag_196:\n        /* \"#utility.yul\":10715:10766   */\n      swap6\n      pop\n        /* \"#utility.yul\":10799:10803   */\n      dup1\n        /* \"#utility.yul\":10795:10804   */\n      not\n        /* \"#utility.yul\":10788:10793   */\n      dup5\n        /* \"#utility.yul\":10784:10805   */\n      and\n        /* \"#utility.yul\":10775:10805   */\n      swap4\n      pop\n        /* \"#utility.yul\":10848:10852   */\n      dup1\n        /* \"#utility.yul\":10838:10846   */\n      dup7\n        /* \"#utility.yul\":10834:10853   */\n      and\n        /* \"#utility.yul\":10827:10832   */\n      dup5\n        /* \"#utility.yul\":10824:10854   */\n      or\n        /* \"#utility.yul\":10814:10854   */\n      swap3\n      pop\n        /* \"#utility.yul\":10543:10860   */\n      pop\n      pop\n        /* \"#utility.yul\":10467:10860   */\n      swap4\n      swap3\n      pop\n      pop\n      pop\n      jump\t// out\n        /* \"#utility.yul\":10866:10926   */\n    tag_88:\n        /* \"#utility.yul\":10894:10897   */\n      0x00\n        /* \"#utility.yul\":10915:10920   */\n      dup2\n        /* \"#utility.yul\":10908:10920   */\n      swap1\n      pop\n        /* \"#utility.yul\":10866:10926   */\n      swap2\n      swap1\n      pop\n      jump\t// out\n        /* \"#utility.yul\":10932:11074   */\n    tag_89:\n        /* \"#utility.yul\":10982:10991   */\n      0x00\n        /* \"#utility.yul\":11015:11068   */\n      tag_199\n        /* \"#utility.yul\":11033:11067   */\n      tag_200\n        /* \"#utility.yul\":11042:11066   */\n      tag_201\n        /* \"#utility.yul\":11060:11065   */\n      dup5\n        /* \"#utility.yul\":11042:11066   */\n      tag_63\n      jump\t// in\n    tag_201:\n        /* \"#utility.yul\":11033:11067   */\n      tag_88\n      jump\t// in\n    tag_200:\n        /* \"#utility.yul\":11015:11068   */\n      tag_63\n      jump\t// in\n    tag_199:\n        /* \"#utility.yul\":11002:11068   */\n      swap1\n      pop\n        /* \"#utility.yul\":10932:11074   */\n      swap2\n      swap1\n      pop\n      jump\t// out\n        /* \"#utility.yul\":11080:11155   */\n    tag_90:\n        /* \"#utility.yul\":11123:11126   */\n      0x00\n        /* \"#utility.yul\":11144:11149   */\n      dup2\n        /* \"#utility.yul\":11137:11149   */\n      swap1\n      pop\n        /* \"#utility.yul\":11080:11155   */\n      swap2\n      swap1\n      pop\n      jump\t// out\n        /* \"#utility.yul\":11161:11430   */\n    tag_91:\n        /* \"#utility.yul\":11271:11310   */\n      tag_204\n        /* \"#utility.yul\":11302:11309   */\n      dup4\n        /* \"#utility.yul\":11271:11310   */\n      tag_89\n      jump\t// in\n    tag_204:\n        /* \"#utility.yul\":11332:11423   */\n      tag_205\n        /* \"#utility.yul\":11381:11422   */\n      tag_206\n        /* \"#utility.yul\":11405:11421   */\n      dup3\n        /* \"#utility.yul\":11381:11422   */\n      tag_90\n      jump\t// in\n    tag_206:\n        /* \"#utility.yul\":11373:11379   */\n      dup5\n        /* \"#utility.yul\":11366:11370   */\n      dup5\n        /* \"#utility.yul\":11360:11371   */\n      sload\n        /* \"#utility.yul\":11332:11423   */\n      tag_87\n      jump\t// in\n    tag_205:\n        /* \"#utility.yul\":11326:11330   */\n      dup3\n        /* \"#utility.yul\":11319:11424   */\n      sstore\n        /* \"#utility.yul\":11237:11430   */\n      pop\n        /* \"#utility.yul\":11161:11430   */\n      pop\n      pop\n      pop\n      jump\t// out\n        /* \"#utility.yul\":11436:11509   */\n    tag_92:\n        /* \"#utility.yul\":11481:11484   */\n      0x00\n        /* \"#utility.yul\":11436:11509   */\n      swap1\n      jump\t// out\n        /* \"#utility.yul\":11515:11704   */\n    tag_93:\n        /* \"#utility.yul\":11592:11624   */\n      tag_209\n      tag_92\n      jump\t// in\n    tag_209:\n        /* \"#utility.yul\":11633:11698   */\n      tag_210\n        /* \"#utility.yul\":11691:11697   */\n      dup2\n        /* \"#utility.yul\":11683:11689   */\n      dup5\n        /* \"#utility.yul\":11677:11681   */\n      dup5\n        /* \"#utility.yul\":11633:11698   */\n      tag_91\n      jump\t// in\n    tag_210:\n        /* \"#utility.yul\":11568:11704   */\n      pop\n        /* \"#utility.yul\":11515:11704   */\n      pop\n      pop\n      jump\t// out\n        /* \"#utility.yul\":11710:11896   */\n    tag_94:\n        /* \"#utility.yul\":11770:11890   */\n    tag_212:\n        /* \"#utility.yul\":11787:11790   */\n      dup2\n        /* \"#utility.yul\":11780:11785   */\n      dup2\n        /* \"#utility.yul\":11777:11791   */\n      lt\n        /* \"#utility.yul\":11770:11890   */\n      iszero\n      tag_214\n      jumpi\n        /* \"#utility.yul\":11841:11880   */\n      tag_215\n        /* \"#utility.yul\":11878:11879   */\n      0x00\n        /* \"#utility.yul\":11871:11876   */\n      dup3\n        /* \"#utility.yul\":11841:11880   */\n      tag_93\n      jump\t// in\n    tag_215:\n        /* \"#utility.yul\":11814:11815   */\n      0x01\n        /* \"#utility.yul\":11807:11812   */\n      dup2\n        /* \"#utility.yul\":11803:11816   */\n      add\n        /* \"#utility.yul\":11794:11816   */\n      swap1\n      pop\n        /* \"#utility.yul\":11770:11890   */\n      jump(tag_212)\n    tag_214:\n        /* \"#utility.yul\":11710:11896   */\n      pop\n      pop\n      jump\t// out\n        /* \"#utility.yul\":11902:12445   */\n    tag_95:\n        /* \"#utility.yul\":12003:12005   */\n      0x1f\n        /* \"#utility.yul\":11998:12001   */\n      dup3\n        /* \"#utility.yul\":11995:12006   */\n      gt\n        /* \"#utility.yul\":11992:12438   */\n      iszero\n      tag_217\n      jumpi\n        /* \"#utility.yul\":12037:12075   */\n      tag_218\n        /* \"#utility.yul\":12069:12074   */\n      dup2\n        /* \"#utility.yul\":12037:12075   */\n      tag_84\n      jump\t// in\n    tag_218:\n        /* \"#utility.yul\":12121:12150   */\n      tag_219\n        /* \"#utility.yul\":12139:12149   */\n      dup5\n        /* \"#utility.yul\":12121:12150   */\n      tag_85\n      jump\t// in\n    tag_219:\n        /* \"#utility.yul\":12111:12119   */\n      dup2\n        /* \"#utility.yul\":12107:12151   */\n      add\n        /* \"#utility.yul\":12304:12306   */\n      0x20\n        /* \"#utility.yul\":12292:12302   */\n      dup6\n        /* \"#utility.yul\":12289:12307   */\n      lt\n        /* \"#utility.yul\":12286:12335   */\n      iszero\n      tag_220\n      jumpi\n        /* \"#utility.yul\":12325:12333   */\n      dup2\n        /* \"#utility.yul\":12310:12333   */\n      swap1\n      pop\n        /* \"#utility.yul\":12286:12335   */\n    tag_220:\n        /* \"#utility.yul\":12348:12428   */\n      tag_221\n        /* \"#utility.yul\":12404:12426   */\n      tag_222\n        /* \"#utility.yul\":12422:12425   */\n      dup6\n        /* \"#utility.yul\":12404:12426   */\n      tag_85\n      jump\t// in\n    tag_222:\n        /* \"#utility.yul\":12394:12402   */\n      dup4\n        /* \"#utility.yul\":12390:12427   */\n      add\n        /* \"#utility.yul\":12377:12388   */\n      dup3\n        /* \"#utility.yul\":12348:12428   */\n      tag_94\n      jump\t// in\n    tag_221:\n        /* \"#utility.yul\":12007:12438   */\n      pop\n      pop\n        /* \"#utility.yul\":11992:12438   */\n    tag_217:\n        /* \"#utility.yul\":11902:12445   */\n      pop\n      pop\n      pop\n      jump\t// out\n        /* \"#utility.yul\":12451:12568   */\n    tag_96:\n        /* \"#utility.yul\":12505:12513   */\n      0x00\n        /* \"#utility.yul\":12555:12560   */\n      dup3\n        /* \"#utility.yul\":12549:12553   */\n      dup3\n        /* \"#utility.yul\":12545:12561   */\n      shr\n        /* \"#utility.yul\":12524:12561   */\n      swap1\n      pop\n        /* \"#utility.yul\":12451:12568   */\n      swap3\n      swap2\n      pop\n      pop\n      jump\t// out\n        /* \"#utility.yul\":12574:12743   */\n    tag_97:\n        /* \"#utility.yul\":12618:12624   */\n      0x00\n        /* \"#utility.yul\":12651:12702   */\n      tag_225\n        /* \"#utility.yul\":12699:12700   */\n      0x00\n        /* \"#utility.yul\":12695:12701   */\n      not\n        /* \"#utility.yul\":12687:12692   */\n      dup5\n        /* \"#utility.yul\":12684:12685   */\n      0x08\n        /* \"#utility.yul\":12680:12693   */\n      mul\n        /* \"#utility.yul\":12651:12702   */\n      tag_96\n      jump\t// in\n    tag_225:\n        /* \"#utility.yul\":12647:12703   */\n      not\n        /* \"#utility.yul\":12732:12736   */\n      dup1\n        /* \"#utility.yul\":12726:12730   */\n      dup4\n        /* \"#utility.yul\":12722:12737   */\n      and\n        /* \"#utility.yul\":12712:12737   */\n      swap2\n      pop\n        /* \"#utility.yul\":12625:12743   */\n      pop\n        /* \"#utility.yul\":12574:12743   */\n      swap3\n      swap2\n      pop\n      pop\n      jump\t// out\n        /* \"#utility.yul\":12748:13043   */\n    tag_98:\n        /* \"#utility.yul\":12824:12828   */\n      0x00\n        /* \"#utility.yul\":12970:12999   */\n      tag_227\n        /* \"#utility.yul\":12995:12998   */\n      dup4\n        /* \"#utility.yul\":12989:12993   */\n      dup4\n        /* \"#utility.yul\":12970:12999   */\n      tag_97\n      jump\t// in\n    tag_227:\n        /* \"#utility.yul\":12962:12999   */\n      swap2\n      pop\n        /* \"#utility.yul\":13032:13035   */\n      dup3\n        /* \"#utility.yul\":13029:13030   */\n      0x02\n        /* \"#utility.yul\":13025:13036   */\n      mul\n        /* \"#utility.yul\":13019:13023   */\n      dup3\n        /* \"#utility.yul\":13016:13037   */\n      or\n        /* \"#utility.yul\":13008:13037   */\n      swap1\n      pop\n        /* \"#utility.yul\":12748:13043   */\n      swap3\n      swap2\n      pop\n      pop\n      jump\t// out\n        /* \"#utility.yul\":13048:14443   */\n    tag_38:\n        /* \"#utility.yul\":13165:13202   */\n      tag_229\n        /* \"#utility.yul\":13198:13201   */\n      dup3\n        /* \"#utility.yul\":13165:13202   */\n      tag_58\n      jump\t// in\n    tag_229:\n        /* \"#utility.yul\":13267:13285   */\n      0xffffffffffffffff\n        /* \"#utility.yul\":13259:13265   */\n      dup2\n        /* \"#utility.yul\":13256:13286   */\n      gt\n        /* \"#utility.yul\":13253:13309   */\n      iszero\n      tag_230\n      jumpi\n        /* \"#utility.yul\":13289:13307   */\n      tag_231\n      tag_83\n      jump\t// in\n    tag_231:\n        /* \"#utility.yul\":13253:13309   */\n    tag_230:\n        /* \"#utility.yul\":13333:13371   */\n      tag_232\n        /* \"#utility.yul\":13365:13369   */\n      dup3\n        /* \"#utility.yul\":13359:13370   */\n      sload\n        /* \"#utility.yul\":13333:13371   */\n      tag_25\n      jump\t// in\n    tag_232:\n        /* \"#utility.yul\":13418:13485   */\n      tag_233\n        /* \"#utility.yul\":13478:13484   */\n      dup3\n        /* \"#utility.yul\":13470:13476   */\n      dup3\n        /* \"#utility.yul\":13464:13468   */\n      dup6\n        /* \"#utility.yul\":13418:13485   */\n      tag_95\n      jump\t// in\n    tag_233:\n        /* \"#utility.yul\":13512:13513   */\n      0x00\n        /* \"#utility.yul\":13536:13540   */\n      0x20\n        /* \"#utility.yul\":13523:13540   */\n      swap1\n      pop\n        /* \"#utility.yul\":13568:13570   */\n      0x1f\n        /* \"#utility.yul\":13560:13566   */\n      dup4\n        /* \"#utility.yul\":13557:13571   */\n      gt\n        /* \"#utility.yul\":13585:13586   */\n      0x01\n        /* \"#utility.yul\":13580:14198   */\n      dup2\n      eq\n      tag_235\n      jumpi\n        /* \"#utility.yul\":14242:14243   */\n      0x00\n        /* \"#utility.yul\":14259:14265   */\n      dup5\n        /* \"#utility.yul\":14256:14333   */\n      iszero\n      tag_236\n      jumpi\n        /* \"#utility.yul\":14308:14317   */\n      dup3\n        /* \"#utility.yul\":14303:14306   */\n      dup8\n        /* \"#utility.yul\":14299:14318   */\n      add\n        /* \"#utility.yul\":14293:14319   */\n      mload\n        /* \"#utility.yul\":14284:14319   */\n      swap1\n      pop\n        /* \"#utility.yul\":14256:14333   */\n    tag_236:\n        /* \"#utility.yul\":14359:14426   */\n      tag_237\n        /* \"#utility.yul\":14419:14425   */\n      dup6\n        /* \"#utility.yul\":14412:14417   */\n      dup3\n        /* \"#utility.yul\":14359:14426   */\n      tag_98\n      jump\t// in\n    tag_237:\n        /* \"#utility.yul\":14353:14357   */\n      dup7\n        /* \"#utility.yul\":14346:14427   */\n      sstore\n        /* \"#utility.yul\":14215:14437   */\n      pop\n        /* \"#utility.yul\":13550:14437   */\n      jump(tag_234)\n        /* \"#utility.yul\":13580:14198   */\n    tag_235:\n        /* \"#utility.yul\":13632:13636   */\n      0x1f\n        /* \"#utility.yul\":13628:13637   */\n      not\n        /* \"#utility.yul\":13620:13626   */\n      dup5\n        /* \"#utility.yul\":13616:13638   */\n      and\n        /* \"#utility.yul\":13666:13703   */\n      tag_238\n        /* \"#utility.yul\":13698:13702   */\n      dup7\n        /* \"#utility.yul\":13666:13703   */\n      tag_84\n      jump\t// in\n    tag_238:\n        /* \"#utility.yul\":13725:13726   */\n      0x00\n        /* \"#utility.yul\":13739:13947   */\n    tag_239:\n        /* \"#utility.yul\":13753:13760   */\n      dup3\n        /* \"#utility.yul\":13750:13751   */\n      dup2\n        /* \"#utility.yul\":13747:13761   */\n      lt\n        /* \"#utility.yul\":13739:13947   */\n      iszero\n      tag_241\n      jumpi\n        /* \"#utility.yul\":13832:13841   */\n      dup5\n        /* \"#utility.yul\":13827:13830   */\n      dup10\n        /* \"#utility.yul\":13823:13842   */\n      add\n        /* \"#utility.yul\":13817:13843   */\n      mload\n        /* \"#utility.yul\":13809:13815   */\n      dup3\n        /* \"#utility.yul\":13802:13844   */\n      sstore\n        /* \"#utility.yul\":13883:13884   */\n      0x01\n        /* \"#utility.yul\":13875:13881   */\n      dup3\n        /* \"#utility.yul\":13871:13885   */\n      add\n        /* \"#utility.yul\":13861:13885   */\n      swap2\n      pop\n        /* \"#utility.yul\":13930:13932   */\n      0x20\n        /* \"#utility.yul\":13919:13928   */\n      dup6\n        /* \"#utility.yul\":13915:13933   */\n      add\n        /* \"#utility.yul\":13902:13933   */\n      swap5\n      pop\n        /* \"#utility.yul\":13776:13780   */\n      0x20\n        /* \"#utility.yul\":13773:13774   */\n      dup2\n        /* \"#utility.yul\":13769:13781   */\n      add\n        /* \"#utility.yul\":13764:13781   */\n      swap1\n      pop\n        /* \"#utility.yul\":13739:13947   */\n      jump(tag_239)\n    tag_241:\n        /* \"#utility.yul\":13975:13981   */\n      dup7\n        /* \"#utility.yul\":13966:13973   */\n      dup4\n        /* \"#utility.yul\":13963:13982   */\n      lt\n        /* \"#utility.yul\":13960:14139   */\n      iszero\n      tag_242\n      jumpi\n        /* \"#utility.yul\":14033:14042   */\n      dup5\n        /* \"#utility.yul\":14028:14031   */\n      dup10\n        /* \"#utility.yul\":14024:14043   */\n      add\n        /* \"#utility.yul\":14018:14044   */\n      mload\n        /* \"#utility.yul\":14076:14124   */\n      tag_243\n        /* \"#utility.yul\":14118:14122   */\n      0x1f\n        /* \"#utility.yul\":14110:14116   */\n      dup10\n        /* \"#utility.yul\":14106:14123   */\n      and\n        /* \"#utility.yul\":14095:14104   */\n      dup3\n        /* \"#utility.yul\":14076:14124   */\n      tag_97\n      jump\t// in\n    tag_243:\n        /* \"#utility.yul\":14068:14074   */\n      dup4\n        /* \"#utility.yul\":14061:14125   */\n      sstore\n        /* \"#utility.yul\":13983:14139   */\n      pop\n        /* \"#utility.yul\":13960:14139   */\n    tag_242:\n        /* \"#utility.yul\":14185:14186   */\n      0x01\n        /* \"#utility.yul\":14181:14182   */\n      0x02\n        /* \"#utility.yul\":14173:14179   */\n      dup9\n        /* \"#utility.yul\":14169:14183   */\n      mul\n        /* \"#utility.yul\":14165:14187   */\n      add\n        /* \"#utility.yul\":14159:14163   */\n      dup9\n        /* \"#utility.yul\":14152:14188   */\n      sstore\n        /* \"#utility.yul\":13587:14198   */\n      pop\n      pop\n      pop\n        /* \"#utility.yul\":13550:14437   */\n    tag_234:\n      pop\n        /* \"#utility.yul\":13140:14443   */\n      pop\n      pop\n      pop\n        /* \"#utility.yul\":13048:14443   */\n      pop\n      pop\n      jump\t// out\n\n    auxdata: 0xa26469706673582212208c912eaade2e40c4c16ab21b2c8a66ce000282ee368cf1ee53cf6fb87f9a58c564736f6c63430008190033\n}\n",
				"bytecode": {
					"linkReferences": {},
					"object": "6080604052348015600e575f80fd5b50610c818061001c5f395ff3fe608060405234801561000f575f80fd5b506004361061003f575f3560e01c80631760da8014610043578063630e6deb14610061578063d4e811701461007d575b5f80fd5b61004b6100b0565b6040516100589190610742565b60405180910390f35b61007b600480360381019061007691906107cb565b610289565b005b61009760048036038101906100929190610873565b6103f4565b6040516100a79493929190610904565b60405180910390f35b60605f805480602002602001604051908101604052809291908181526020015f905b82821015610280578382905f5260205f2090600402016040518060800160405290815f82015f9054906101000a900473ffffffffffffffffffffffffffffffffffffffff1673ffffffffffffffffffffffffffffffffffffffff1673ffffffffffffffffffffffffffffffffffffffff16815260200160018201805461015790610982565b80601f016020809104026020016040519081016040528092919081815260200182805461018390610982565b80156101ce5780601f106101a5576101008083540402835291602001916101ce565b820191905f5260205f20905b8154815290600101906020018083116101b157829003601f168201915b505050505081526020016002820180546101e790610982565b80601f016020809104026020016040519081016040528092919081815260200182805461021390610982565b801561025e5780601f106102355761010080835404028352916020019161025e565b820191905f5260205f20905b81548152906001019060200180831161024157829003601f168201915b50505050508152602001600382015481525050815260200190600101906100d2565b50505050905090565b5f60405180608001604052803373ffffffffffffffffffffffffffffffffffffffff16815260200186868080601f0160208091040260200160405190810160405280939291908181526020018383808284375f81840152601f19601f82011690508083019250505050505050815260200184848080601f0160208091040260200160405190810160405280939291908181526020018383808284375f81840152601f19601f8201169050808301925050505050505081526020014281525090505f81908060018154018082558091505060019003905f5260205f2090600402015f909190919091505f820151815f015f6101000a81548173ffffffffffffffffffffffffffffffffffffffff021916908373ffffffffffffffffffffffffffffffffffffffff16021790555060208201518160010190816103ca9190610b7c565b5060408201518160020190816103e09190610b7c565b506060820151816003015550505050505050565b5f8181548110610402575f80fd5b905f5260205f2090600402015f91509050805f015f9054906101000a900473ffffffffffffffffffffffffffffffffffffffff169080600101805461044690610982565b80601f016020809104026020016040519081016040528092919081815260200182805461047290610982565b80156104bd5780601f10610494576101008083540402835291602001916104bd565b820191905f5260205f20905b8154815290600101906020018083116104a057829003601f168201915b5050505050908060020180546104d290610982565b80601f01602080910402602001604051908101604052809291908181526020018280546104fe90610982565b80156105495780601f1061052057610100808354040283529160200191610549565b820191905f5260205f20905b81548152906001019060200180831161052c57829003601f168201915b5050505050908060030154905084565b5f81519050919050565b5f82825260208201905092915050565b5f819050602082019050919050565b5f73ffffffffffffffffffffffffffffffffffffffff82169050919050565b5f6105ab82610582565b9050919050565b6105bb816105a1565b82525050565b5f81519050919050565b5f82825260208201905092915050565b8281835e5f83830152505050565b5f601f19601f8301169050919050565b5f610603826105c1565b61060d81856105cb565b935061061d8185602086016105db565b610626816105e9565b840191505092915050565b5f819050919050565b61064381610631565b82525050565b5f608083015f83015161065e5f8601826105b2565b506020830151848203602086015261067682826105f9565b9150506040830151848203604086015261069082826105f9565b91505060608301516106a5606086018261063a565b508091505092915050565b5f6106bb8383610649565b905092915050565b5f602082019050919050565b5f6106d982610559565b6106e38185610563565b9350836020820285016106f585610573565b805f5b85811015610730578484038952815161071185826106b0565b945061071c836106c3565b925060208a019950506001810190506106f8565b50829750879550505050505092915050565b5f6020820190508181035f83015261075a81846106cf565b905092915050565b5f80fd5b5f80fd5b5f80fd5b5f80fd5b5f80fd5b5f8083601f84011261078b5761078a61076a565b5b8235905067ffffffffffffffff8111156107a8576107a761076e565b5b6020830191508360018202830111156107c4576107c3610772565b5b9250929050565b5f805f80604085870312156107e3576107e2610762565b5b5f85013567ffffffffffffffff811115610800576107ff610766565b5b61080c87828801610776565b9450945050602085013567ffffffffffffffff81111561082f5761082e610766565b5b61083b87828801610776565b925092505092959194509250565b61085281610631565b811461085c575f80fd5b50565b5f8135905061086d81610849565b92915050565b5f6020828403121561088857610887610762565b5b5f6108958482850161085f565b91505092915050565b6108a7816105a1565b82525050565b5f82825260208201905092915050565b5f6108c7826105c1565b6108d181856108ad565b93506108e18185602086016105db565b6108ea816105e9565b840191505092915050565b6108fe81610631565b82525050565b5f6080820190506109175f83018761089e565b818103602083015261092981866108bd565b9050818103604083015261093d81856108bd565b905061094c60608301846108f5565b95945050505050565b7f4e487b71000000000000000000000000000000000000000000000000000000005f52602260045260245ffd5b5f600282049050600182168061099957607f821691505b6020821081036109ac576109ab610955565b5b50919050565b7f4e487b71000000000000000000000000000000000000000000000000000000005f52604160045260245ffd5b5f819050815f5260205f209050919050565b5f6020601f8301049050919050565b5f82821b905092915050565b5f60088302610a3b7fffffffffffffffffffffffffffffffffffffffffffffffffffffffffffffffff82610a00565b610a458683610a00565b95508019841693508086168417925050509392505050565b5f819050919050565b5f610a80610a7b610a7684610631565b610a5d565b610631565b9050919050565b5f819050919050565b610a9983610a66565b610aad610aa582610a87565b848454610a0c565b825550505050565b5f90565b610ac1610ab5565b610acc818484610a90565b505050565b5b81811015610aef57610ae45f82610ab9565b600181019050610ad2565b5050565b601f821115610b3457610b05816109df565b610b0e846109f1565b81016020851015610b1d578190505b610b31610b29856109f1565b830182610ad1565b50505b505050565b5f82821c905092915050565b5f610b545f1984600802610b39565b1980831691505092915050565b5f610b6c8383610b45565b9150826002028217905092915050565b610b85826105c1565b67ffffffffffffffff811115610b9e57610b9d6109b2565b5b610ba88254610982565b610bb3828285610af3565b5f60209050601f831160018114610be4575f8415610bd2578287015190505b610bdc8582610b61565b865550610c43565b601f198416610bf2866109df565b5f5b82811015610c1957848901518255600182019150602085019450602081019050610bf4565b86831015610c365784890151610c32601f891682610b45565b8355505b6001600288020188555050505b50505050505056fea26469706673582212208c912eaade2e40c4c16ab21b2c8a66ce000282ee368cf1ee53cf6fb87f9a58c564736f6c63430008190033",
					"opcodes": "PUSH1 0x80 PUSH1 0x40 MSTORE CALLVALUE DUP1 ISZERO PUSH1 0xE JUMPI PUSH0 DUP1 REVERT JUMPDEST POP PUSH2 0xC81 DUP1 PUSH2 0x1C PUSH0 CODECOPY PUSH0 RETURN INVALID PUSH1 0x80 PUSH1 0x40 MSTORE CALLVALUE DUP1 ISZERO PUSH2 0xF JUMPI PUSH0 DUP1 REVERT JUMPDEST POP PUSH1 0x4 CALLDATASIZE LT PUSH2 0x3F JUMPI PUSH0 CALLDATALOAD PUSH1 0xE0 SHR DUP1 PUSH4 0x1760DA80 EQ PUSH2 0x43 JUMPI DUP1 PUSH4 0x630E6DEB EQ PUSH2 0x61 JUMPI DUP1 PUSH4 0xD4E81170 EQ PUSH2 0x7D JUMPI JUMPDEST PUSH0 DUP1 REVERT JUMPDEST PUSH2 0x4B PUSH2 0xB0 JUMP JUMPDEST PUSH1 0x40 MLOAD PUSH2 0x58 SWAP2 SWAP1 PUSH2 0x742 JUMP JUMPDEST PUSH1 0x40 MLOAD DUP1 SWAP2 SUB SWAP1 RETURN JUMPDEST PUSH2 0x7B PUSH1 0x4 DUP1 CALLDATASIZE SUB DUP2 ADD SWAP1 PUSH2 0x76 SWAP2 SWAP1 PUSH2 0x7CB JUMP JUMPDEST PUSH2 0x289 JUMP JUMPDEST STOP JUMPDEST PUSH2 0x97 PUSH1 0x4 DUP1 CALLDATASIZE SUB DUP2 ADD SWAP1 PUSH2 0x92 SWAP2 SWAP1 PUSH2 0x873 JUMP JUMPDEST PUSH2 0x3F4 JUMP JUMPDEST PUSH1 0x40 MLOAD PUSH2 0xA7 SWAP5 SWAP4 SWAP3 SWAP2 SWAP1 PUSH2 0x904 JUMP JUMPDEST PUSH1 0x40 MLOAD DUP1 SWAP2 SUB SWAP1 RETURN JUMPDEST PUSH1 0x60 PUSH0 DUP1 SLOAD DUP1 PUSH1 0x20 MUL PUSH1 0x20 ADD PUSH1 0x40 MLOAD SWAP1 DUP2 ADD PUSH1 0x40 MSTORE DUP1 SWAP3 SWAP2 SWAP1 DUP2 DUP2 MSTORE PUSH1 0x20 ADD PUSH0 SWAP1 JUMPDEST DUP3 DUP3 LT ISZERO PUSH2 0x280 JUMPI DUP4 DUP3 SWAP1 PUSH0 MSTORE PUSH1 0x20 PUSH0 KECCAK256 SWAP1 PUSH1 0x4 MUL ADD PUSH1 0x40 MLOAD DUP1 PUSH1 0x80 ADD PUSH1 0x40 MSTORE SWAP1 DUP2 PUSH0 DUP3 ADD PUSH0 SWAP1 SLOAD SWAP1 PUSH2 0x100 EXP SWAP1 DIV PUSH20 0xFFFFFFFFFFFFFFFFFFFFFFFFFFFFFFFFFFFFFFFF AND PUSH20 0xFFFFFFFFFFFFFFFFFFFFFFFFFFFFFFFFFFFFFFFF AND PUSH20 0xFFFFFFFFFFFFFFFFFFFFFFFFFFFFFFFFFFFFFFFF AND DUP2 MSTORE PUSH1 0x20 ADD PUSH1 0x1 DUP3 ADD DUP1 SLOAD PUSH2 0x157 SWAP1 PUSH2 0x982 JUMP JUMPDEST DUP1 PUSH1 0x1F ADD PUSH1 0x20 DUP1 SWAP2 DIV MUL PUSH1 0x20 ADD PUSH1 0x40 MLOAD SWAP1 DUP2 ADD PUSH1 0x40 MSTORE DUP1 SWAP3 SWAP2 SWAP1 DUP2 DUP2 MSTORE PUSH1 0x20 ADD DUP3 DUP1 SLOAD PUSH2 0x183 SWAP1 PUSH2 0x982 JUMP JUMPDEST DUP1 ISZERO PUSH2 0x1CE JUMPI DUP1 PUSH1 0x1F LT PUSH2 0x1A5 JUMPI PUSH2 0x100 DUP1 DUP4 SLOAD DIV MUL DUP4 MSTORE SWAP2 PUSH1 0x20 ADD SWAP2 PUSH2 0x1CE JUMP JUMPDEST DUP3 ADD SWAP2 SWAP1 PUSH0 MSTORE PUSH1 0x20 PUSH0 KECCAK256 SWAP1 JUMPDEST DUP2 SLOAD DUP2 MSTORE SWAP1 PUSH1 0x1 ADD SWAP1 PUSH1 0x20 ADD DUP1 DUP4 GT PUSH2 0x1B1 JUMPI DUP3 SWAP1 SUB PUSH1 0x1F AND DUP3 ADD SWAP2 JUMPDEST POP POP POP POP POP DUP2 MSTORE PUSH1 0x20 ADD PUSH1 0x2 DUP3 ADD DUP1 SLOAD PUSH2 0x1E7 SWAP1 PUSH2 0x982 JUMP JUMPDEST DUP1 PUSH1 0x1F ADD PUSH1 0x20 DUP1 SWAP2 DIV MUL PUSH1 0x20 ADD PUSH1 0x40 MLOAD SWAP1 DUP2 ADD PUSH1 0x40 MSTORE DUP1 SWAP3 SWAP2 SWAP1 DUP2 DUP2 MSTORE PUSH1 0x20 ADD DUP3 DUP1 SLOAD PUSH2 0x213 SWAP1 PUSH2 0x982 JUMP JUMPDEST DUP1 ISZERO PUSH2 0x25E JUMPI DUP1 PUSH1 0x1F LT PUSH2 0x235 JUMPI PUSH2 0x100 DUP1 DUP4 SLOAD DIV MUL DUP4 MSTORE SWAP2 PUSH1 0x20 ADD SWAP2 PUSH2 0x25E JUMP JUMPDEST DUP3 ADD SWAP2 SWAP1 PUSH0 MSTORE PUSH1 0x20 PUSH0 KECCAK256 SWAP1 JUMPDEST DUP2 SLOAD DUP2 MSTORE SWAP1 PUSH1 0x1 ADD SWAP1 PUSH1 0x20 ADD DUP1 DUP4 GT PUSH2 0x241 JUMPI DUP3 SWAP1 SUB PUSH1 0x1F AND DUP3 ADD SWAP2 JUMPDEST POP POP POP POP POP DUP2 MSTORE PUSH1 0x20 ADD PUSH1 0x3 DUP3 ADD SLOAD DUP2 MSTORE POP POP DUP2 MSTORE PUSH1 0x20 ADD SWAP1 PUSH1 0x1 ADD SWAP1 PUSH2 0xD2 JUMP JUMPDEST POP POP POP POP SWAP1 POP SWAP1 JUMP JUMPDEST PUSH0 PUSH1 0x40 MLOAD DUP1 PUSH1 0x80 ADD PUSH1 0x40 MSTORE DUP1 CALLER PUSH20 0xFFFFFFFFFFFFFFFFFFFFFFFFFFFFFFFFFFFFFFFF AND DUP2 MSTORE PUSH1 0x20 ADD DUP7 DUP7 DUP1 DUP1 PUSH1 0x1F ADD PUSH1 0x20 DUP1 SWAP2 DIV MUL PUSH1 0x20 ADD PUSH1 0x40 MLOAD SWAP1 DUP2 ADD PUSH1 0x40 MSTORE DUP1 SWAP4 SWAP3 SWAP2 SWAP1 DUP2 DUP2 MSTORE PUSH1 0x20 ADD DUP4 DUP4 DUP1 DUP3 DUP5 CALLDATACOPY PUSH0 DUP2 DUP5 ADD MSTORE PUSH1 0x1F NOT PUSH1 0x1F DUP3 ADD AND SWAP1 POP DUP1 DUP4 ADD SWAP3 POP POP POP POP POP POP POP DUP2 MSTORE PUSH1 0x20 ADD DUP5 DUP5 DUP1 DUP1 PUSH1 0x1F ADD PUSH1 0x20 DUP1 SWAP2 DIV MUL PUSH1 0x20 ADD PUSH1 0x40 MLOAD SWAP1 DUP2 ADD PUSH1 0x40 MSTORE DUP1 SWAP4 SWAP3 SWAP2 SWAP1 DUP2 DUP2 MSTORE PUSH1 0x20 ADD DUP4 DUP4 DUP1 DUP3 DUP5 CALLDATACOPY PUSH0 DUP2 DUP5 ADD MSTORE PUSH1 0x1F NOT PUSH1 0x1F DUP3 ADD AND SWAP1 POP DUP1 DUP4 ADD SWAP3 POP POP POP POP POP POP POP DUP2 MSTORE PUSH1 0x20 ADD TIMESTAMP DUP2 MSTORE POP SWAP1 POP PUSH0 DUP2 SWAP1 DUP1 PUSH1 0x1 DUP2 SLOAD ADD DUP1 DUP3 SSTORE DUP1 SWAP2 POP POP PUSH1 0x1 SWAP1 SUB SWAP1 PUSH0 MSTORE PUSH1 0x20 PUSH0 KECCAK256 SWAP1 PUSH1 0x4 MUL ADD PUSH0 SWAP1 SWAP2 SWAP1 SWAP2 SWAP1 SWAP2 POP PUSH0 DUP3 ADD MLOAD DUP2 PUSH0 ADD PUSH0 PUSH2 0x100 EXP DUP2 SLOAD DUP2 PUSH20 0xFFFFFFFFFFFFFFFFFFFFFFFFFFFFFFFFFFFFFFFF MUL NOT AND SWAP1 DUP4 PUSH20 0xFFFFFFFFFFFFFFFFFFFFFFFFFFFFFFFFFFFFFFFF AND MUL OR SWAP1 SSTORE POP PUSH1 0x20 DUP3 ADD MLOAD DUP2 PUSH1 0x1 ADD SWAP1 DUP2 PUSH2 0x3CA SWAP2 SWAP1 PUSH2 0xB7C JUMP JUMPDEST POP PUSH1 0x40 DUP3 ADD MLOAD DUP2 PUSH1 0x2 ADD SWAP1 DUP2 PUSH2 0x3E0 SWAP2 SWAP1 PUSH2 0xB7C JUMP JUMPDEST POP PUSH1 0x60 DUP3 ADD MLOAD DUP2 PUSH1 0x3 ADD SSTORE POP POP POP POP POP POP POP JUMP JUMPDEST PUSH0 DUP2 DUP2 SLOAD DUP2 LT PUSH2 0x402 JUMPI PUSH0 DUP1 REVERT JUMPDEST SWAP1 PUSH0 MSTORE PUSH1 0x20 PUSH0 KECCAK256 SWAP1 PUSH1 0x4 MUL ADD PUSH0 SWAP2 POP SWAP1 POP DUP1 PUSH0 ADD PUSH0 SWAP1 SLOAD SWAP1 PUSH2 0x100 EXP SWAP1 DIV PUSH20 0xFFFFFFFFFFFFFFFFFFFFFFFFFFFFFFFFFFFFFFFF AND SWAP1 DUP1 PUSH1 0x1 ADD DUP1 SLOAD PUSH2 0x446 SWAP1 PUSH2 0x982 JUMP JUMPDEST DUP1 PUSH1 0x1F ADD PUSH1 0x20 DUP1 SWAP2 DIV MUL PUSH1 0x20 ADD PUSH1 0x40 MLOAD SWAP1 DUP2 ADD PUSH1 0x40 MSTORE DUP1 SWAP3 SWAP2 SWAP1 DUP2 DUP2 MSTORE PUSH1 0x20 ADD DUP3 DUP1 SLOAD PUSH2 0x472 SWAP1 PUSH2 0x982 JUMP JUMPDEST DUP1 ISZERO PUSH2 0x4BD JUMPI DUP1 PUSH1 0x1F LT PUSH2 0x494 JUMPI PUSH2 0x100 DUP1 DUP4 SLOAD DIV MUL DUP4 MSTORE SWAP2 PUSH1 0x20 ADD SWAP2 PUSH2 0x4BD JUMP JUMPDEST DUP3 ADD SWAP2 SWAP1 PUSH0 MSTORE PUSH1 0x20 PUSH0 KECCAK256 SWAP1 JUMPDEST DUP2 SLOAD DUP2 MSTORE SWAP1 PUSH1 0x1 ADD SWAP1 PUSH1 0x20 ADD DUP1 DUP4 GT PUSH2 0x4A0 JUMPI DUP3 SWAP1 SUB PUSH1 0x1F AND DUP3 ADD SWAP2 JUMPDEST POP POP POP POP POP SWAP1 DUP1 PUSH1 0x2 ADD DUP1 SLOAD PUSH2 0x4D2 SWAP1 PUSH2 0x982 JUMP JUMPDEST DUP1 PUSH1 0x1F ADD PUSH1 0x20 DUP1 SWAP2 DIV MUL PUSH1 0x20 ADD PUSH1 0x40 MLOAD SWAP1 DUP2 ADD PUSH1 0x40 MSTORE DUP1 SWAP3 SWAP2 SWAP1 DUP2 DUP2 MSTORE PUSH1 0x20 ADD DUP3 DUP1 SLOAD PUSH2 0x4FE SWAP1 PUSH2 0x982 JUMP JUMPDEST DUP1 ISZERO PUSH2 0x549 JUMPI DUP1 PUSH1 0x1F LT PUSH2 0x520 JUMPI PUSH2 0x100 DUP1 DUP4 SLOAD DIV MUL DUP4 MSTORE SWAP2 PUSH1 0x20 ADD SWAP2 PUSH2 0x549 JUMP JUMPDEST DUP3 ADD SWAP2 SWAP1 PUSH0 MSTORE PUSH1 0x20 PUSH0 KECCAK256 SWAP1 JUMPDEST DUP2 SLOAD DUP2 MSTORE SWAP1 PUSH1 0x1 ADD SWAP1 PUSH1 0x20 ADD DUP1 DUP4 GT PUSH2 0x52C JUMPI DUP3 SWAP1 SUB PUSH1 0x1F AND DUP3 ADD SWAP2 JUMPDEST POP POP POP POP POP SWAP1 DUP1 PUSH1 0x3 ADD SLOAD SWAP1 POP DUP5 JUMP JUMPDEST PUSH0 DUP2 MLOAD SWAP1 POP SWAP2 SWAP1 POP JUMP JUMPDEST PUSH0 DUP3 DUP3 MSTORE PUSH1 0x20 DUP3 ADD SWAP1 POP SWAP3 SWAP2 POP POP JUMP JUMPDEST PUSH0 DUP2 SWAP1 POP PUSH1 0x20 DUP3 ADD SWAP1 POP SWAP2 SWAP1 POP JUMP JUMPDEST PUSH0 PUSH20 0xFFFFFFFFFFFFFFFFFFFFFFFFFFFFFFFFFFFFFFFF DUP3 AND SWAP1 POP SWAP2 SWAP1 POP JUMP JUMPDEST PUSH0 PUSH2 0x5AB DUP3 PUSH2 0x582 JUMP JUMPDEST SWAP1 POP SWAP2 SWAP1 POP JUMP JUMPDEST PUSH2 0x5BB DUP2 PUSH2 0x5A1 JUMP JUMPDEST DUP3 MSTORE POP POP JUMP JUMPDEST PUSH0 DUP2 MLOAD SWAP1 POP SWAP2 SWAP1 POP JUMP JUMPDEST PUSH0 DUP3 DUP3 MSTORE PUSH1 0x20 DUP3 ADD SWAP1 POP SWAP3 SWAP2 POP POP JUMP JUMPDEST DUP3 DUP2 DUP4 MCOPY PUSH0 DUP4 DUP4 ADD MSTORE POP POP POP JUMP JUMPDEST PUSH0 PUSH1 0x1F NOT PUSH1 0x1F DUP4 ADD AND SWAP1 POP SWAP2 SWAP1 POP JUMP JUMPDEST PUSH0 PUSH2 0x603 DUP3 PUSH2 0x5C1 JUMP JUMPDEST PUSH2 0x60D DUP2 DUP6 PUSH2 0x5CB JUMP JUMPDEST SWAP4 POP PUSH2 0x61D DUP2 DUP6 PUSH1 0x20 DUP7 ADD PUSH2 0x5DB JUMP JUMPDEST PUSH2 0x626 DUP2 PUSH2 0x5E9 JUMP JUMPDEST DUP5 ADD SWAP2 POP POP SWAP3 SWAP2 POP POP JUMP JUMPDEST PUSH0 DUP2 SWAP1 POP SWAP2 SWAP1 POP JUMP JUMPDEST PUSH2 0x643 DUP2 PUSH2 0x631 JUMP JUMPDEST DUP3 MSTORE POP POP JUMP JUMPDEST PUSH0 PUSH1 0x80 DUP4 ADD PUSH0 DUP4 ADD MLOAD PUSH2 0x65E PUSH0 DUP7 ADD DUP3 PUSH2 0x5B2 JUMP JUMPDEST POP PUSH1 0x20 DUP4 ADD MLOAD DUP5 DUP3 SUB PUSH1 0x20 DUP7 ADD MSTORE PUSH2 0x676 DUP3 DUP3 PUSH2 0x5F9 JUMP JUMPDEST SWAP2 POP POP PUSH1 0x40 DUP4 ADD MLOAD DUP5 DUP3 SUB PUSH1 0x40 DUP7 ADD MSTORE PUSH2 0x690 DUP3 DUP3 PUSH2 0x5F9 JUMP JUMPDEST SWAP2 POP POP PUSH1 0x60 DUP4 ADD MLOAD PUSH2 0x6A5 PUSH1 0x60 DUP7 ADD DUP3 PUSH2 0x63A JUMP JUMPDEST POP DUP1 SWAP2 POP POP SWAP3 SWAP2 POP POP JUMP JUMPDEST PUSH0 PUSH2 0x6BB DUP4 DUP4 PUSH2 0x649 JUMP JUMPDEST SWAP1 POP SWAP3 SWAP2 POP POP JUMP JUMPDEST PUSH0 PUSH1 0x20 DUP3 ADD SWAP1 POP SWAP2 SWAP1 POP JUMP JUMPDEST PUSH0 PUSH2 0x6D9 DUP3 PUSH2 0x559 JUMP JUMPDEST PUSH2 0x6E3 DUP2 DUP6 PUSH2 0x563 JUMP JUMPDEST SWAP4 POP DUP4 PUSH1 0x20 DUP3 MUL DUP6 ADD PUSH2 0x6F5 DUP6 PUSH2 0x573 JUMP JUMPDEST DUP1 PUSH0 JUMPDEST DUP6 DUP2 LT ISZERO PUSH2 0x730 JUMPI DUP5 DUP5 SUB DUP10 MSTORE DUP2 MLOAD PUSH2 0x711 DUP6 DUP3 PUSH2 0x6B0 JUMP JUMPDEST SWAP5 POP PUSH2 0x71C DUP4 PUSH2 0x6C3 JUMP JUMPDEST SWAP3 POP PUSH1 0x20 DUP11 ADD SWAP10 POP POP PUSH1 0x1 DUP2 ADD SWAP1 POP PUSH2 0x6F8 JUMP JUMPDEST POP DUP3 SWAP8 POP DUP8 SWAP6 POP POP POP POP POP POP SWAP3 SWAP2 POP POP JUMP JUMPDEST PUSH0 PUSH1 0x20 DUP3 ADD SWAP1 POP DUP2 DUP2 SUB PUSH0 DUP4 ADD MSTORE PUSH2 0x75A DUP2 DUP5 PUSH2 0x6CF JUMP JUMPDEST SWAP1 POP SWAP3 SWAP2 POP POP JUMP JUMPDEST PUSH0 DUP1 REVERT JUMPDEST PUSH0 DUP1 REVERT JUMPDEST PUSH0 DUP1 REVERT JUMPDEST PUSH0 DUP1 REVERT JUMPDEST PUSH0 DUP1 REVERT JUMPDEST PUSH0 DUP1 DUP4 PUSH1 0x1F DUP5 ADD SLT PUSH2 0x78B JUMPI PUSH2 0x78A PUSH2 0x76A JUMP JUMPDEST JUMPDEST DUP3 CALLDATALOAD SWAP1 POP PUSH8 0xFFFFFFFFFFFFFFFF DUP2 GT ISZERO PUSH2 0x7A8 JUMPI PUSH2 0x7A7 PUSH2 0x76E JUMP JUMPDEST JUMPDEST PUSH1 0x20 DUP4 ADD SWAP2 POP DUP4 PUSH1 0x1 DUP3 MUL DUP4 ADD GT ISZERO PUSH2 0x7C4 JUMPI PUSH2 0x7C3 PUSH2 0x772 JUMP JUMPDEST JUMPDEST SWAP3 POP SWAP3 SWAP1 POP JUMP JUMPDEST PUSH0 DUP1 PUSH0 DUP1 PUSH1 0x40 DUP6 DUP8 SUB SLT ISZERO PUSH2 0x7E3 JUMPI PUSH2 0x7E2 PUSH2 0x762 JUMP JUMPDEST JUMPDEST PUSH0 DUP6 ADD CALLDATALOAD PUSH8 0xFFFFFFFFFFFFFFFF DUP2 GT ISZERO PUSH2 0x800 JUMPI PUSH2 0x7FF PUSH2 0x766 JUMP JUMPDEST JUMPDEST PUSH2 0x80C DUP8 DUP3 DUP9 ADD PUSH2 0x776 JUMP JUMPDEST SWAP5 POP SWAP5 POP POP PUSH1 0x20 DUP6 ADD CALLDATALOAD PUSH8 0xFFFFFFFFFFFFFFFF DUP2 GT ISZERO PUSH2 0x82F JUMPI PUSH2 0x82E PUSH2 0x766 JUMP JUMPDEST JUMPDEST PUSH2 0x83B DUP8 DUP3 DUP9 ADD PUSH2 0x776 JUMP JUMPDEST SWAP3 POP SWAP3 POP POP SWAP3 SWAP6 SWAP2 SWAP5 POP SWAP3 POP JUMP JUMPDEST PUSH2 0x852 DUP2 PUSH2 0x631 JUMP JUMPDEST DUP2 EQ PUSH2 0x85C JUMPI PUSH0 DUP1 REVERT JUMPDEST POP JUMP JUMPDEST PUSH0 DUP2 CALLDATALOAD SWAP1 POP PUSH2 0x86D DUP2 PUSH2 0x849 JUMP JUMPDEST SWAP3 SWAP2 POP POP JUMP JUMPDEST PUSH0 PUSH1 0x20 DUP3 DUP5 SUB SLT ISZERO PUSH2 0x888 JUMPI PUSH2 0x887 PUSH2 0x762 JUMP JUMPDEST JUMPDEST PUSH0 PUSH2 0x895 DUP5 DUP3 DUP6 ADD PUSH2 0x85F JUMP JUMPDEST SWAP2 POP POP SWAP3 SWAP2 POP POP JUMP JUMPDEST PUSH2 0x8A7 DUP2 PUSH2 0x5A1 JUMP JUMPDEST DUP3 MSTORE POP POP JUMP JUMPDEST PUSH0 DUP3 DUP3 MSTORE PUSH1 0x20 DUP3 ADD SWAP1 POP SWAP3 SWAP2 POP POP JUMP JUMPDEST PUSH0 PUSH2 0x8C7 DUP3 PUSH2 0x5C1 JUMP JUMPDEST PUSH2 0x8D1 DUP2 DUP6 PUSH2 0x8AD JUMP JUMPDEST SWAP4 POP PUSH2 0x8E1 DUP2 DUP6 PUSH1 0x20 DUP7 ADD PUSH2 0x5DB JUMP JUMPDEST PUSH2 0x8EA DUP2 PUSH2 0x5E9 JUMP JUMPDEST DUP5 ADD SWAP2 POP POP SWAP3 SWAP2 POP POP JUMP JUMPDEST PUSH2 0x8FE DUP2 PUSH2 0x631 JUMP JUMPDEST DUP3 MSTORE POP POP JUMP JUMPDEST PUSH0 PUSH1 0x80 DUP3 ADD SWAP1 POP PUSH2 0x917 PUSH0 DUP4 ADD DUP8 PUSH2 0x89E JUMP JUMPDEST DUP2 DUP2 SUB PUSH1 0x20 DUP4 ADD MSTORE PUSH2 0x929 DUP2 DUP7 PUSH2 0x8BD JUMP JUMPDEST SWAP1 POP DUP2 DUP2 SUB PUSH1 0x40 DUP4 ADD MSTORE PUSH2 0x93D DUP2 DUP6 PUSH2 0x8BD JUMP JUMPDEST SWAP1 POP PUSH2 0x94C PUSH1 0x60 DUP4 ADD DUP5 PUSH2 0x8F5 JUMP JUMPDEST SWAP6 SWAP5 POP POP POP POP POP JUMP JUMPDEST PUSH32 0x4E487B7100000000000000000000000000000000000000000000000000000000 PUSH0 MSTORE PUSH1 0x22 PUSH1 0x4 MSTORE PUSH1 0x24 PUSH0 REVERT JUMPDEST PUSH0 PUSH1 0x2 DUP3 DIV SWAP1 POP PUSH1 0x1 DUP3 AND DUP1 PUSH2 0x999 JUMPI PUSH1 0x7F DUP3 AND SWAP2 POP JUMPDEST PUSH1 0x20 DUP3 LT DUP2 SUB PUSH2 0x9AC JUMPI PUSH2 0x9AB PUSH2 0x955 JUMP JUMPDEST JUMPDEST POP SWAP2 SWAP1 POP JUMP JUMPDEST PUSH32 0x4E487B7100000000000000000000000000000000000000000000000000000000 PUSH0 MSTORE PUSH1 0x41 PUSH1 0x4 MSTORE PUSH1 0x24 PUSH0 REVERT JUMPDEST PUSH0 DUP2 SWAP1 POP DUP2 PUSH0 MSTORE PUSH1 0x20 PUSH0 KECCAK256 SWAP1 POP SWAP2 SWAP1 POP JUMP JUMPDEST PUSH0 PUSH1 0x20 PUSH1 0x1F DUP4 ADD DIV SWAP1 POP SWAP2 SWAP1 POP JUMP JUMPDEST PUSH0 DUP3 DUP3 SHL SWAP1 POP SWAP3 SWAP2 POP POP JUMP JUMPDEST PUSH0 PUSH1 0x8 DUP4 MUL PUSH2 0xA3B PUSH32 0xFFFFFFFFFFFFFFFFFFFFFFFFFFFFFFFFFFFFFFFFFFFFFFFFFFFFFFFFFFFFFFFF DUP3 PUSH2 0xA00 JUMP JUMPDEST PUSH2 0xA45 DUP7 DUP4 PUSH2 0xA00 JUMP JUMPDEST SWAP6 POP DUP1 NOT DUP5 AND SWAP4 POP DUP1 DUP7 AND DUP5 OR SWAP3 POP POP POP SWAP4 SWAP3 POP POP POP JUMP JUMPDEST PUSH0 DUP2 SWAP1 POP SWAP2 SWAP1 POP JUMP JUMPDEST PUSH0 PUSH2 0xA80 PUSH2 0xA7B PUSH2 0xA76 DUP5 PUSH2 0x631 JUMP JUMPDEST PUSH2 0xA5D JUMP JUMPDEST PUSH2 0x631 JUMP JUMPDEST SWAP1 POP SWAP2 SWAP1 POP JUMP JUMPDEST PUSH0 DUP2 SWAP1 POP SWAP2 SWAP1 POP JUMP JUMPDEST PUSH2 0xA99 DUP4 PUSH2 0xA66 JUMP JUMPDEST PUSH2 0xAAD PUSH2 0xAA5 DUP3 PUSH2 0xA87 JUMP JUMPDEST DUP5 DUP5 SLOAD PUSH2 0xA0C JUMP JUMPDEST DUP3 SSTORE POP POP POP POP JUMP JUMPDEST PUSH0 SWAP1 JUMP JUMPDEST PUSH2 0xAC1 PUSH2 0xAB5 JUMP JUMPDEST PUSH2 0xACC DUP2 DUP5 DUP5 PUSH2 0xA90 JUMP JUMPDEST POP POP POP JUMP JUMPDEST JUMPDEST DUP2 DUP2 LT ISZERO PUSH2 0xAEF JUMPI PUSH2 0xAE4 PUSH0 DUP3 PUSH2 0xAB9 JUMP JUMPDEST PUSH1 0x1 DUP2 ADD SWAP1 POP PUSH2 0xAD2 JUMP JUMPDEST POP POP JUMP JUMPDEST PUSH1 0x1F DUP3 GT ISZERO PUSH2 0xB34 JUMPI PUSH2 0xB05 DUP2 PUSH2 0x9DF JUMP JUMPDEST PUSH2 0xB0E DUP5 PUSH2 0x9F1 JUMP JUMPDEST DUP2 ADD PUSH1 0x20 DUP6 LT ISZERO PUSH2 0xB1D JUMPI DUP2 SWAP1 POP JUMPDEST PUSH2 0xB31 PUSH2 0xB29 DUP6 PUSH2 0x9F1 JUMP JUMPDEST DUP4 ADD DUP3 PUSH2 0xAD1 JUMP JUMPDEST POP POP JUMPDEST POP POP POP JUMP JUMPDEST PUSH0 DUP3 DUP3 SHR SWAP1 POP SWAP3 SWAP2 POP POP JUMP JUMPDEST PUSH0 PUSH2 0xB54 PUSH0 NOT DUP5 PUSH1 0x8 MUL PUSH2 0xB39 JUMP JUMPDEST NOT DUP1 DUP4 AND SWAP2 POP POP SWAP3 SWAP2 POP POP JUMP JUMPDEST PUSH0 PUSH2 0xB6C DUP4 DUP4 PUSH2 0xB45 JUMP JUMPDEST SWAP2 POP DUP3 PUSH1 0x2 MUL DUP3 OR SWAP1 POP SWAP3 SWAP2 POP POP JUMP JUMPDEST PUSH2 0xB85 DUP3 PUSH2 0x5C1 JUMP JUMPDEST PUSH8 0xFFFFFFFFFFFFFFFF DUP2 GT ISZERO PUSH2 0xB9E JUMPI PUSH2 0xB9D PUSH2 0x9B2 JUMP JUMPDEST JUMPDEST PUSH2 0xBA8 DUP3 SLOAD PUSH2 0x982 JUMP JUMPDEST PUSH2 0xBB3 DUP3 DUP3 DUP6 PUSH2 0xAF3 JUMP JUMPDEST PUSH0 PUSH1 0x20 SWAP1 POP PUSH1 0x1F DUP4 GT PUSH1 0x1 DUP2 EQ PUSH2 0xBE4 JUMPI PUSH0 DUP5 ISZERO PUSH2 0xBD2 JUMPI DUP3 DUP8 ADD MLOAD SWAP1 POP JUMPDEST PUSH2 0xBDC DUP6 DUP3 PUSH2 0xB61 JUMP JUMPDEST DUP7 SSTORE POP PUSH2 0xC43 JUMP JUMPDEST PUSH1 0x1F NOT DUP5 AND PUSH2 0xBF2 DUP7 PUSH2 0x9DF JUMP JUMPDEST PUSH0 JUMPDEST DUP3 DUP2 LT ISZERO PUSH2 0xC19 JUMPI DUP5 DUP10 ADD MLOAD DUP3 SSTORE PUSH1 0x1 DUP3 ADD SWAP2 POP PUSH1 0x20 DUP6 ADD SWAP5 POP PUSH1 0x20 DUP2 ADD SWAP1 POP PUSH2 0xBF4 JUMP JUMPDEST DUP7 DUP4 LT ISZERO PUSH2 0xC36 JUMPI DUP5 DUP10 ADD MLOAD PUSH2 0xC32 PUSH1 0x1F DUP10 AND DUP3 PUSH2 0xB45 JUMP JUMPDEST DUP4 SSTORE POP JUMPDEST PUSH1 0x1 PUSH1 0x2 DUP9 MUL ADD DUP9 SSTORE POP POP POP JUMPDEST POP POP POP POP POP POP JUMP INVALID LOG2 PUSH5 0x6970667358 0x22 SLT KECCAK256 DUP13 SWAP2 0x2E 0xAA 0xDE 0x2E BLOCKHASH 0xC4 0xC1 PUSH11 0xB21B2C8A66CE000282EE36 DUP13 CALL 0xEE MSTORE8 0xCF PUSH16 0xB87F9A58C564736F6C63430008190033 "
				},
				"gasEstimates": {
					"creation": {
						"codeDepositCost": "640200",
						"executionCost": "674",
						"totalCost": "640874"
					},
					"external": {
						"getFeedBack()": "infinite",
						"sendFeedBack(string,string)": "infinite",
						"userFeedback(uint256)": "infinite"
					}
				},
				"methodIdentifiers": {
					"getFeedBack()": "1760da80",
					"sendFeedBack(string,string)": "630e6deb",
					"userFeedback(uint256)": "d4e81170"
				}
			},
			"storageLayout": {
				"storage": [
					{
						"astId": 14,
						"contract": "contracts/2_Owner.sol:MyFeedBack",
						"label": "userFeedback",
						"offset": 0,
						"slot": "0",
						"type": "t_array(t_struct(Feedback)10_storage)dyn_storage"
					}
				],
				"types": {
					"t_address": {
						"encoding": "inplace",
						"label": "address",
						"numberOfBytes": "20"
					},
					"t_array(t_struct(Feedback)10_storage)dyn_storage": {
						"base": "t_struct(Feedback)10_storage",
						"encoding": "dynamic_array",
						"label": "struct MyFeedBack.Feedback[]",
						"numberOfBytes": "32"
					},
					"t_string_storage": {
						"encoding": "bytes",
						"label": "string",
						"numberOfBytes": "32"
					},
					"t_struct(Feedback)10_storage": {
						"encoding": "inplace",
						"label": "struct MyFeedBack.Feedback",
						"members": [
							{
								"astId": 3,
								"contract": "contracts/2_Owner.sol:MyFeedBack",
								"label": "sender",
								"offset": 0,
								"slot": "0",
								"type": "t_address"
							},
							{
								"astId": 5,
								"contract": "contracts/2_Owner.sol:MyFeedBack",
								"label": "title",
								"offset": 0,
								"slot": "1",
								"type": "t_string_storage"
							},
							{
								"astId": 7,
								"contract": "contracts/2_Owner.sol:MyFeedBack",
								"label": "feedback",
								"offset": 0,
								"slot": "2",
								"type": "t_string_storage"
							},
							{
								"astId": 9,
								"contract": "contracts/2_Owner.sol:MyFeedBack",
								"label": "timestamp",
								"offset": 0,
								"slot": "3",
								"type": "t_uint256"
							}
						],
						"numberOfBytes": "128"
					},
					"t_uint256": {
						"encoding": "inplace",
						"label": "uint256",
						"numberOfBytes": "32"
					}
				}
			},
			"userdoc": {
				"kind": "user",
				"methods": {},
				"version": 1
			}
		}
	}
}