{
	"contracts/Cert.sol": {
		"CertificateValidation": {
			"abi": [
				{
					"inputs": [],
					"stateMutability": "nonpayable",
					"type": "constructor"
				},
				{
					"anonymous": false,
					"inputs": [
						{
							"indexed": false,
							"internalType": "string",
							"name": "candidateDetails",
							"type": "string"
						},
						{
							"indexed": false,
							"internalType": "bytes32",
							"name": "validationHash",
							"type": "bytes32"
						}
					],
					"name": "AIValidationRecorded",
					"type": "event"
				},
				{
					"anonymous": false,
					"inputs": [
						{
							"indexed": false,
							"internalType": "uint256",
							"name": "id",
							"type": "uint256"
						}
					],
					"name": "CertificateIssued",
					"type": "event"
				},
				{
					"anonymous": false,
					"inputs": [
						{
							"indexed": false,
							"internalType": "uint256",
							"name": "id",
							"type": "uint256"
						},
						{
							"indexed": false,
							"internalType": "bool",
							"name": "valid",
							"type": "bool"
						}
					],
					"name": "CertificateVerified",
					"type": "event"
				},
				{
					"anonymous": false,
					"inputs": [
						{
							"indexed": false,
							"internalType": "address",
							"name": "issuer",
							"type": "address"
						}
					],
					"name": "IssuerAdded",
					"type": "event"
				},
				{
					"anonymous": false,
					"inputs": [
						{
							"indexed": false,
							"internalType": "address",
							"name": "issuer",
							"type": "address"
						}
					],
					"name": "IssuerRemoved",
					"type": "event"
				},
				{
					"inputs": [
						{
							"internalType": "address",
							"name": "issuer",
							"type": "address"
						}
					],
					"name": "addIssuer",
					"outputs": [],
					"stateMutability": "nonpayable",
					"type": "function"
				},
				{
					"inputs": [],
					"name": "admin",
					"outputs": [
						{
							"internalType": "address",
							"name": "",
							"type": "address"
						}
					],
					"stateMutability": "view",
					"type": "function"
				},
				{
					"inputs": [
						{
							"internalType": "string",
							"name": "",
							"type": "string"
						}
					],
					"name": "aiValidations",
					"outputs": [
						{
							"internalType": "bool",
							"name": "validated",
							"type": "bool"
						},
						{
							"internalType": "bytes32",
							"name": "validationHash",
							"type": "bytes32"
						}
					],
					"stateMutability": "view",
					"type": "function"
				},
				{
					"inputs": [
						{
							"internalType": "uint256",
							"name": "",
							"type": "uint256"
						}
					],
					"name": "certificates",
					"outputs": [
						{
							"internalType": "uint256",
							"name": "id",
							"type": "uint256"
						},
						{
							"internalType": "string",
							"name": "candidateName",
							"type": "string"
						},
						{
							"internalType": "string",
							"name": "course",
							"type": "string"
						},
						{
							"internalType": "string",
							"name": "issueDate",
							"type": "string"
						},
						{
							"internalType": "bool",
							"name": "valid",
							"type": "bool"
						},
						{
							"internalType": "bytes32",
							"name": "aiValidationHash",
							"type": "bytes32"
						}
					],
					"stateMutability": "view",
					"type": "function"
				},
				{
					"inputs": [
						{
							"internalType": "uint256",
							"name": "id",
							"type": "uint256"
						}
					],
					"name": "invalidateCertificate",
					"outputs": [],
					"stateMutability": "nonpayable",
					"type": "function"
				},
				{
					"inputs": [
						{
							"internalType": "string",
							"name": "candidateName",
							"type": "string"
						},
						{
							"internalType": "string",
							"name": "course",
							"type": "string"
						},
						{
							"internalType": "string",
							"name": "issueDate",
							"type": "string"
						},
						{
							"internalType": "bytes32",
							"name": "aiValidationHash",
							"type": "bytes32"
						}
					],
					"name": "issueCertificate",
					"outputs": [],
					"stateMutability": "nonpayable",
					"type": "function"
				},
				{
					"inputs": [
						{
							"internalType": "address",
							"name": "",
							"type": "address"
						}
					],
					"name": "issuers",
					"outputs": [
						{
							"internalType": "bool",
							"name": "",
							"type": "bool"
						}
					],
					"stateMutability": "view",
					"type": "function"
				},
				{
					"inputs": [],
					"name": "nextCertificateId",
					"outputs": [
						{
							"internalType": "uint256",
							"name": "",
							"type": "uint256"
						}
					],
					"stateMutability": "view",
					"type": "function"
				},
				{
					"inputs": [
						{
							"internalType": "string",
							"name": "candidateDetails",
							"type": "string"
						},
						{
							"internalType": "bytes32",
							"name": "validationHash",
							"type": "bytes32"
						}
					],
					"name": "recordAIValidation",
					"outputs": [],
					"stateMutability": "nonpayable",
					"type": "function"
				},
				{
					"inputs": [
						{
							"internalType": "address",
							"name": "issuer",
							"type": "address"
						}
					],
					"name": "removeIssuer",
					"outputs": [],
					"stateMutability": "nonpayable",
					"type": "function"
				},
				{
					"inputs": [
						{
							"internalType": "uint256",
							"name": "id",
							"type": "uint256"
						}
					],
					"name": "verifyCertificate",
					"outputs": [
						{
							"components": [
								{
									"internalType": "uint256",
									"name": "id",
									"type": "uint256"
								},
								{
									"internalType": "string",
									"name": "candidateName",
									"type": "string"
								},
								{
									"internalType": "string",
									"name": "course",
									"type": "string"
								},
								{
									"internalType": "string",
									"name": "issueDate",
									"type": "string"
								},
								{
									"internalType": "bool",
									"name": "valid",
									"type": "bool"
								},
								{
									"internalType": "bytes32",
									"name": "aiValidationHash",
									"type": "bytes32"
								}
							],
							"internalType": "struct CertificateValidation.Certificate",
							"name": "",
							"type": "tuple"
						}
					],
					"stateMutability": "view",
					"type": "function"
				}
			],
			"devdoc": {
				"kind": "dev",
				"methods": {},
				"version": 1
			},
			"evm": {
				"assembly": "    /* \"contracts/Cert.sol\":60:3128  contract CertificateValidation {... */\n  mstore(0x40, 0x80)\n    /* \"contracts/Cert.sol\":1428:1479  constructor() {... */\n  callvalue\n  dup1\n  iszero\n  tag_1\n  jumpi\n  0x00\n  dup1\n  revert\ntag_1:\n  pop\n    /* \"contracts/Cert.sol\":1461:1471  msg.sender */\n  caller\n    /* \"contracts/Cert.sol\":1453:1458  admin */\n  0x00\n  dup1\n    /* \"contracts/Cert.sol\":1453:1471  admin = msg.sender */\n  0x0100\n  exp\n  dup2\n  sload\n  dup2\n  0xffffffffffffffffffffffffffffffffffffffff\n  mul\n  not\n  and\n  swap1\n  dup4\n  0xffffffffffffffffffffffffffffffffffffffff\n  and\n  mul\n  or\n  swap1\n  sstore\n  pop\n    /* \"contracts/Cert.sol\":60:3128  contract CertificateValidation {... */\n  dataSize(sub_0)\n  dup1\n  dataOffset(sub_0)\n  0x00\n  codecopy\n  0x00\n  return\nstop\n\nsub_0: assembly {\n        /* \"contracts/Cert.sol\":60:3128  contract CertificateValidation {... */\n      mstore(0x40, 0x80)\n      callvalue\n      dup1\n      iszero\n      tag_1\n      jumpi\n      0x00\n      dup1\n      revert\n    tag_1:\n      pop\n      jumpi(tag_2, lt(calldatasize, 0x04))\n      shr(0xe0, calldataload(0x00))\n      dup1\n      0x663b3e22\n      gt\n      tag_14\n      jumpi\n      dup1\n      0x663b3e22\n      eq\n      tag_8\n      jumpi\n      dup1\n      0x7db3761b\n      eq\n      tag_9\n      jumpi\n      dup1\n      0x8a50e907\n      eq\n      tag_10\n      jumpi\n      dup1\n      0xa0bdb003\n      eq\n      tag_11\n      jumpi\n      dup1\n      0xedf54b9c\n      eq\n      tag_12\n      jumpi\n      dup1\n      0xf851a440\n      eq\n      tag_13\n      jumpi\n      jump(tag_2)\n    tag_14:\n      dup1\n      0x1692a942\n      eq\n      tag_3\n      jumpi\n      dup1\n      0x20694db0\n      eq\n      tag_4\n      jumpi\n      dup1\n      0x38a7543e\n      eq\n      tag_5\n      jumpi\n      dup1\n      0x47bc7093\n      eq\n      tag_6\n      jumpi\n      dup1\n      0x5f2a4cda\n      eq\n      tag_7\n      jumpi\n    tag_2:\n      0x00\n      dup1\n      revert\n        /* \"contracts/Cert.sol\":2594:2838  function verifyCertificate(uint256 id) external view returns (Certificate memory) {... */\n    tag_3:\n      tag_15\n      0x04\n      dup1\n      calldatasize\n      sub\n      dup2\n      add\n      swap1\n      tag_16\n      swap2\n      swap1\n      tag_17\n      jump\t// in\n    tag_16:\n      tag_18\n      jump\t// in\n    tag_15:\n      mload(0x40)\n      tag_19\n      swap2\n      swap1\n      tag_20\n      jump\t// in\n    tag_19:\n      mload(0x40)\n      dup1\n      swap2\n      sub\n      swap1\n      return\n        /* \"contracts/Cert.sol\":1505:1635  function addIssuer(address issuer) external onlyAdmin {... */\n    tag_4:\n      tag_21\n      0x04\n      dup1\n      calldatasize\n      sub\n      dup2\n      add\n      swap1\n      tag_22\n      swap2\n      swap1\n      tag_23\n      jump\t// in\n    tag_22:\n      tag_24\n      jump\t// in\n    tag_21:\n      stop\n        /* \"contracts/Cert.sol\":617:656  mapping(address => bool) public issuers */\n    tag_5:\n      tag_25\n      0x04\n      dup1\n      calldatasize\n      sub\n      dup2\n      add\n      swap1\n      tag_26\n      swap2\n      swap1\n      tag_23\n      jump\t// in\n    tag_26:\n      tag_27\n      jump\t// in\n    tag_25:\n      mload(0x40)\n      tag_28\n      swap2\n      swap1\n      tag_29\n      jump\t// in\n    tag_28:\n      mload(0x40)\n      dup1\n      swap2\n      sub\n      swap1\n      return\n        /* \"contracts/Cert.sol\":1643:1779  function removeIssuer(address issuer) external onlyAdmin {... */\n    tag_6:\n      tag_30\n      0x04\n      dup1\n      calldatasize\n      sub\n      dup2\n      add\n      swap1\n      tag_31\n      swap2\n      swap1\n      tag_23\n      jump\t// in\n    tag_31:\n      tag_32\n      jump\t// in\n    tag_30:\n      stop\n        /* \"contracts/Cert.sol\":2056:2586  function issueCertificate(... */\n    tag_7:\n      tag_33\n      0x04\n      dup1\n      calldatasize\n      sub\n      dup2\n      add\n      swap1\n      tag_34\n      swap2\n      swap1\n      tag_35\n      jump\t// in\n    tag_34:\n      tag_36\n      jump\t// in\n    tag_33:\n      stop\n        /* \"contracts/Cert.sol\":461:512  mapping(uint256 => Certificate) public certificates */\n    tag_8:\n      tag_37\n      0x04\n      dup1\n      calldatasize\n      sub\n      dup2\n      add\n      swap1\n      tag_38\n      swap2\n      swap1\n      tag_17\n      jump\t// in\n    tag_38:\n      tag_39\n      jump\t// in\n    tag_37:\n      mload(0x40)\n      tag_40\n      swap7\n      swap6\n      swap5\n      swap4\n      swap3\n      swap2\n      swap1\n      tag_41\n      jump\t// in\n    tag_40:\n      mload(0x40)\n      dup1\n      swap2\n      sub\n      swap1\n      return\n        /* \"contracts/Cert.sol\":2846:3125  function invalidateCertificate(uint256 id) external onlyIssuer {... */\n    tag_9:\n      tag_42\n      0x04\n      dup1\n      calldatasize\n      sub\n      dup2\n      add\n      swap1\n      tag_43\n      swap2\n      swap1\n      tag_17\n      jump\t// in\n    tag_43:\n      tag_44\n      jump\t// in\n    tag_42:\n      stop\n        /* \"contracts/Cert.sol\":519:571  mapping(string => AIValidation) public aiValidations */\n    tag_10:\n      tag_45\n      0x04\n      dup1\n      calldatasize\n      sub\n      dup2\n      add\n      swap1\n      tag_46\n      swap2\n      swap1\n      tag_47\n      jump\t// in\n    tag_46:\n      tag_48\n      jump\t// in\n    tag_45:\n      mload(0x40)\n      tag_49\n      swap3\n      swap2\n      swap1\n      tag_50\n      jump\t// in\n    tag_49:\n      mload(0x40)\n      dup1\n      swap2\n      sub\n      swap1\n      return\n        /* \"contracts/Cert.sol\":578:610  uint256 public nextCertificateId */\n    tag_11:\n      tag_51\n      tag_52\n      jump\t// in\n    tag_51:\n      mload(0x40)\n      tag_53\n      swap2\n      swap1\n      tag_54\n      jump\t// in\n    tag_53:\n      mload(0x40)\n      dup1\n      swap2\n      sub\n      swap1\n      return\n        /* \"contracts/Cert.sol\":1787:2048  function recordAIValidation(string memory candidateDetails, bytes32 validationHash) external onlyIssuer {... */\n    tag_12:\n      tag_55\n      0x04\n      dup1\n      calldatasize\n      sub\n      dup2\n      add\n      swap1\n      tag_56\n      swap2\n      swap1\n      tag_57\n      jump\t// in\n    tag_56:\n      tag_58\n      jump\t// in\n    tag_55:\n      stop\n        /* \"contracts/Cert.sol\":434:454  address public admin */\n    tag_13:\n      tag_59\n      tag_60\n      jump\t// in\n    tag_59:\n      mload(0x40)\n      tag_61\n      swap2\n      swap1\n      tag_62\n      jump\t// in\n    tag_61:\n      mload(0x40)\n      dup1\n      swap2\n      sub\n      swap1\n      return\n        /* \"contracts/Cert.sol\":2594:2838  function verifyCertificate(uint256 id) external view returns (Certificate memory) {... */\n    tag_18:\n        /* \"contracts/Cert.sol\":2656:2674  Certificate memory */\n      tag_63\n      tag_64\n      jump\t// in\n    tag_63:\n        /* \"contracts/Cert.sol\":2687:2717  Certificate memory certificate */\n      0x00\n        /* \"contracts/Cert.sol\":2720:2732  certificates */\n      0x01\n        /* \"contracts/Cert.sol\":2720:2736  certificates[id] */\n      0x00\n        /* \"contracts/Cert.sol\":2733:2735  id */\n      dup5\n        /* \"contracts/Cert.sol\":2720:2736  certificates[id] */\n      dup2\n      mstore\n      0x20\n      add\n      swap1\n      dup2\n      mstore\n      0x20\n      add\n      0x00\n      keccak256\n        /* \"contracts/Cert.sol\":2687:2736  Certificate memory certificate = certificates[id] */\n      mload(0x40)\n      dup1\n      0xc0\n      add\n      0x40\n      mstore\n      swap1\n      dup2\n      0x00\n      dup3\n      add\n      sload\n      dup2\n      mstore\n      0x20\n      add\n      0x01\n      dup3\n      add\n      dup1\n      sload\n      tag_66\n      swap1\n      tag_67\n      jump\t// in\n    tag_66:\n      dup1\n      0x1f\n      add\n      0x20\n      dup1\n      swap2\n      div\n      mul\n      0x20\n      add\n      mload(0x40)\n      swap1\n      dup2\n      add\n      0x40\n      mstore\n      dup1\n      swap3\n      swap2\n      swap1\n      dup2\n      dup2\n      mstore\n      0x20\n      add\n      dup3\n      dup1\n      sload\n      tag_68\n      swap1\n      tag_67\n      jump\t// in\n    tag_68:\n      dup1\n      iszero\n      tag_69\n      jumpi\n      dup1\n      0x1f\n      lt\n      tag_70\n      jumpi\n      0x0100\n      dup1\n      dup4\n      sload\n      div\n      mul\n      dup4\n      mstore\n      swap2\n      0x20\n      add\n      swap2\n      jump(tag_69)\n    tag_70:\n      dup3\n      add\n      swap2\n      swap1\n      0x00\n      mstore\n      keccak256(0x00, 0x20)\n      swap1\n    tag_71:\n      dup2\n      sload\n      dup2\n      mstore\n      swap1\n      0x01\n      add\n      swap1\n      0x20\n      add\n      dup1\n      dup4\n      gt\n      tag_71\n      jumpi\n      dup3\n      swap1\n      sub\n      0x1f\n      and\n      dup3\n      add\n      swap2\n    tag_69:\n      pop\n      pop\n      pop\n      pop\n      pop\n      dup2\n      mstore\n      0x20\n      add\n      0x02\n      dup3\n      add\n      dup1\n      sload\n      tag_72\n      swap1\n      tag_67\n      jump\t// in\n    tag_72:\n      dup1\n      0x1f\n      add\n      0x20\n      dup1\n      swap2\n      div\n      mul\n      0x20\n      add\n      mload(0x40)\n      swap1\n      dup2\n      add\n      0x40\n      mstore\n      dup1\n      swap3\n      swap2\n      swap1\n      dup2\n      dup2\n      mstore\n      0x20\n      add\n      dup3\n      dup1\n      sload\n      tag_73\n      swap1\n      tag_67\n      jump\t// in\n    tag_73:\n      dup1\n      iszero\n      tag_74\n      jumpi\n      dup1\n      0x1f\n      lt\n      tag_75\n      jumpi\n      0x0100\n      dup1\n      dup4\n      sload\n      div\n      mul\n      dup4\n      mstore\n      swap2\n      0x20\n      add\n      swap2\n      jump(tag_74)\n    tag_75:\n      dup3\n      add\n      swap2\n      swap1\n      0x00\n      mstore\n      keccak256(0x00, 0x20)\n      swap1\n    tag_76:\n      dup2\n      sload\n      dup2\n      mstore\n      swap1\n      0x01\n      add\n      swap1\n      0x20\n      add\n      dup1\n      dup4\n      gt\n      tag_76\n      jumpi\n      dup3\n      swap1\n      sub\n      0x1f\n      and\n      dup3\n      add\n      swap2\n    tag_74:\n      pop\n      pop\n      pop\n      pop\n      pop\n      dup2\n      mstore\n      0x20\n      add\n      0x03\n      dup3\n      add\n      dup1\n      sload\n      tag_77\n      swap1\n      tag_67\n      jump\t// in\n    tag_77:\n      dup1\n      0x1f\n      add\n      0x20\n      dup1\n      swap2\n      div\n      mul\n      0x20\n      add\n      mload(0x40)\n      swap1\n      dup2\n      add\n      0x40\n      mstore\n      dup1\n      swap3\n      swap2\n      swap1\n      dup2\n      dup2\n      mstore\n      0x20\n      add\n      dup3\n      dup1\n      sload\n      tag_78\n      swap1\n      tag_67\n      jump\t// in\n    tag_78:\n      dup1\n      iszero\n      tag_79\n      jumpi\n      dup1\n      0x1f\n      lt\n      tag_80\n      jumpi\n      0x0100\n      dup1\n      dup4\n      sload\n      div\n      mul\n      dup4\n      mstore\n      swap2\n      0x20\n      add\n      swap2\n      jump(tag_79)\n    tag_80:\n      dup3\n      add\n      swap2\n      swap1\n      0x00\n      mstore\n      keccak256(0x00, 0x20)\n      swap1\n    tag_81:\n      dup2\n      sload\n      dup2\n      mstore\n      swap1\n      0x01\n      add\n      swap1\n      0x20\n      add\n      dup1\n      dup4\n      gt\n      tag_81\n      jumpi\n      dup3\n      swap1\n      sub\n      0x1f\n      and\n      dup3\n      add\n      swap2\n    tag_79:\n      pop\n      pop\n      pop\n      pop\n      pop\n      dup2\n      mstore\n      0x20\n      add\n      0x04\n      dup3\n      add\n      0x00\n      swap1\n      sload\n      swap1\n      0x0100\n      exp\n      swap1\n      div\n      0xff\n      and\n      iszero\n      iszero\n      iszero\n      iszero\n      dup2\n      mstore\n      0x20\n      add\n      0x05\n      dup3\n      add\n      sload\n      dup2\n      mstore\n      pop\n      pop\n      swap1\n      pop\n        /* \"contracts/Cert.sol\":2773:2775  id */\n      dup3\n        /* \"contracts/Cert.sol\":2755:2766  certificate */\n      dup2\n        /* \"contracts/Cert.sol\":2755:2769  certificate.id */\n      0x00\n      add\n      mload\n        /* \"contracts/Cert.sol\":2755:2775  certificate.id == id */\n      eq\n        /* \"contracts/Cert.sol\":2747:2801  require(certificate.id == id, \"Certificate not found\") */\n      tag_82\n      jumpi\n      mload(0x40)\n      0x08c379a000000000000000000000000000000000000000000000000000000000\n      dup2\n      mstore\n      0x04\n      add\n      tag_83\n      swap1\n      tag_84\n      jump\t// in\n    tag_83:\n      mload(0x40)\n      dup1\n      swap2\n      sub\n      swap1\n      revert\n    tag_82:\n        /* \"contracts/Cert.sol\":2819:2830  certificate */\n      dup1\n        /* \"contracts/Cert.sol\":2812:2830  return certificate */\n      swap2\n      pop\n      pop\n        /* \"contracts/Cert.sol\":2594:2838  function verifyCertificate(uint256 id) external view returns (Certificate memory) {... */\n      swap2\n      swap1\n      pop\n      jump\t// out\n        /* \"contracts/Cert.sol\":1505:1635  function addIssuer(address issuer) external onlyAdmin {... */\n    tag_24:\n        /* \"contracts/Cert.sol\":1016:1021  admin */\n      0x00\n      dup1\n      sload\n      swap1\n      0x0100\n      exp\n      swap1\n      div\n      0xffffffffffffffffffffffffffffffffffffffff\n      and\n        /* \"contracts/Cert.sol\":1002:1021  msg.sender == admin */\n      0xffffffffffffffffffffffffffffffffffffffff\n      and\n        /* \"contracts/Cert.sol\":1002:1012  msg.sender */\n      caller\n        /* \"contracts/Cert.sol\":1002:1021  msg.sender == admin */\n      0xffffffffffffffffffffffffffffffffffffffff\n      and\n      eq\n        /* \"contracts/Cert.sol\":994:1059  require(msg.sender == admin, \"Only admin can call this function\") */\n      tag_86\n      jumpi\n      mload(0x40)\n      0x08c379a000000000000000000000000000000000000000000000000000000000\n      dup2\n      mstore\n      0x04\n      add\n      tag_87\n      swap1\n      tag_88\n      jump\t// in\n    tag_87:\n      mload(0x40)\n      dup1\n      swap2\n      sub\n      swap1\n      revert\n    tag_86:\n        /* \"contracts/Cert.sol\":1588:1592  true */\n      0x01\n        /* \"contracts/Cert.sol\":1570:1577  issuers */\n      0x04\n        /* \"contracts/Cert.sol\":1570:1585  issuers[issuer] */\n      0x00\n        /* \"contracts/Cert.sol\":1578:1584  issuer */\n      dup4\n        /* \"contracts/Cert.sol\":1570:1585  issuers[issuer] */\n      0xffffffffffffffffffffffffffffffffffffffff\n      and\n      0xffffffffffffffffffffffffffffffffffffffff\n      and\n      dup2\n      mstore\n      0x20\n      add\n      swap1\n      dup2\n      mstore\n      0x20\n      add\n      0x00\n      keccak256\n      0x00\n        /* \"contracts/Cert.sol\":1570:1592  issuers[issuer] = true */\n      0x0100\n      exp\n      dup2\n      sload\n      dup2\n      0xff\n      mul\n      not\n      and\n      swap1\n      dup4\n      iszero\n      iszero\n      mul\n      or\n      swap1\n      sstore\n      pop\n        /* \"contracts/Cert.sol\":1608:1627  IssuerAdded(issuer) */\n      0x05e7c881d716bee8cb7ed92293133ba156704252439e5c502c277448f04e20c2\n        /* \"contracts/Cert.sol\":1620:1626  issuer */\n      dup2\n        /* \"contracts/Cert.sol\":1608:1627  IssuerAdded(issuer) */\n      mload(0x40)\n      tag_90\n      swap2\n      swap1\n      tag_62\n      jump\t// in\n    tag_90:\n      mload(0x40)\n      dup1\n      swap2\n      sub\n      swap1\n      log1\n        /* \"contracts/Cert.sol\":1505:1635  function addIssuer(address issuer) external onlyAdmin {... */\n      pop\n      jump\t// out\n        /* \"contracts/Cert.sol\":617:656  mapping(address => bool) public issuers */\n    tag_27:\n      mstore(0x20, 0x04)\n      dup1\n      0x00\n      mstore\n      keccak256(0x00, 0x40)\n      0x00\n      swap2\n      pop\n      sload\n      swap1\n      0x0100\n      exp\n      swap1\n      div\n      0xff\n      and\n      dup2\n      jump\t// out\n        /* \"contracts/Cert.sol\":1643:1779  function removeIssuer(address issuer) external onlyAdmin {... */\n    tag_32:\n        /* \"contracts/Cert.sol\":1016:1021  admin */\n      0x00\n      dup1\n      sload\n      swap1\n      0x0100\n      exp\n      swap1\n      div\n      0xffffffffffffffffffffffffffffffffffffffff\n      and\n        /* \"contracts/Cert.sol\":1002:1021  msg.sender == admin */\n      0xffffffffffffffffffffffffffffffffffffffff\n      and\n        /* \"contracts/Cert.sol\":1002:1012  msg.sender */\n      caller\n        /* \"contracts/Cert.sol\":1002:1021  msg.sender == admin */\n      0xffffffffffffffffffffffffffffffffffffffff\n      and\n      eq\n        /* \"contracts/Cert.sol\":994:1059  require(msg.sender == admin, \"Only admin can call this function\") */\n      tag_92\n      jumpi\n      mload(0x40)\n      0x08c379a000000000000000000000000000000000000000000000000000000000\n      dup2\n      mstore\n      0x04\n      add\n      tag_93\n      swap1\n      tag_88\n      jump\t// in\n    tag_93:\n      mload(0x40)\n      dup1\n      swap2\n      sub\n      swap1\n      revert\n    tag_92:\n        /* \"contracts/Cert.sol\":1729:1734  false */\n      0x00\n        /* \"contracts/Cert.sol\":1711:1718  issuers */\n      0x04\n        /* \"contracts/Cert.sol\":1711:1726  issuers[issuer] */\n      0x00\n        /* \"contracts/Cert.sol\":1719:1725  issuer */\n      dup4\n        /* \"contracts/Cert.sol\":1711:1726  issuers[issuer] */\n      0xffffffffffffffffffffffffffffffffffffffff\n      and\n      0xffffffffffffffffffffffffffffffffffffffff\n      and\n      dup2\n      mstore\n      0x20\n      add\n      swap1\n      dup2\n      mstore\n      0x20\n      add\n      0x00\n      keccak256\n      0x00\n        /* \"contracts/Cert.sol\":1711:1734  issuers[issuer] = false */\n      0x0100\n      exp\n      dup2\n      sload\n      dup2\n      0xff\n      mul\n      not\n      and\n      swap1\n      dup4\n      iszero\n      iszero\n      mul\n      or\n      swap1\n      sstore\n      pop\n        /* \"contracts/Cert.sol\":1750:1771  IssuerRemoved(issuer) */\n      0xaf66545c919a3be306ee446d8f42a9558b5b022620df880517bc9593ec0f2d52\n        /* \"contracts/Cert.sol\":1764:1770  issuer */\n      dup2\n        /* \"contracts/Cert.sol\":1750:1771  IssuerRemoved(issuer) */\n      mload(0x40)\n      tag_95\n      swap2\n      swap1\n      tag_62\n      jump\t// in\n    tag_95:\n      mload(0x40)\n      dup1\n      swap2\n      sub\n      swap1\n      log1\n        /* \"contracts/Cert.sol\":1643:1779  function removeIssuer(address issuer) external onlyAdmin {... */\n      pop\n      jump\t// out\n        /* \"contracts/Cert.sol\":2056:2586  function issueCertificate(... */\n    tag_36:\n        /* \"contracts/Cert.sol\":1128:1135  issuers */\n      0x04\n        /* \"contracts/Cert.sol\":1128:1147  issuers[msg.sender] */\n      0x00\n        /* \"contracts/Cert.sol\":1136:1146  msg.sender */\n      caller\n        /* \"contracts/Cert.sol\":1128:1147  issuers[msg.sender] */\n      0xffffffffffffffffffffffffffffffffffffffff\n      and\n      0xffffffffffffffffffffffffffffffffffffffff\n      and\n      dup2\n      mstore\n      0x20\n      add\n      swap1\n      dup2\n      mstore\n      0x20\n      add\n      0x00\n      keccak256\n      0x00\n      swap1\n      sload\n      swap1\n      0x0100\n      exp\n      swap1\n      div\n      0xff\n      and\n        /* \"contracts/Cert.sol\":1120:1197  require(issuers[msg.sender], \"Only authorized issuer can call this function\") */\n      tag_97\n      jumpi\n      mload(0x40)\n      0x08c379a000000000000000000000000000000000000000000000000000000000\n      dup2\n      mstore\n      0x04\n      add\n      tag_98\n      swap1\n      tag_99\n      jump\t// in\n    tag_98:\n      mload(0x40)\n      dup1\n      swap2\n      sub\n      swap1\n      revert\n    tag_97:\n        /* \"contracts/Cert.sol\":2259:2272  candidateName */\n      dup4\n        /* \"contracts/Cert.sol\":1297:1310  aiValidations */\n      0x02\n        /* \"contracts/Cert.sol\":1311:1327  candidateDetails */\n      dup2\n        /* \"contracts/Cert.sol\":1297:1328  aiValidations[candidateDetails] */\n      mload(0x40)\n      tag_101\n      swap2\n      swap1\n      tag_102\n      jump\t// in\n    tag_101:\n      swap1\n      dup2\n      mstore\n      0x20\n      add\n      mload(0x40)\n      dup1\n      swap2\n      sub\n      swap1\n      keccak256\n        /* \"contracts/Cert.sol\":1297:1338  aiValidations[candidateDetails].validated */\n      0x00\n      add\n      0x00\n      swap1\n      sload\n      swap1\n      0x0100\n      exp\n      swap1\n      div\n      0xff\n      and\n        /* \"contracts/Cert.sol\":1289:1380  require(aiValidations[candidateDetails].validated, \"Candidate details not validated by AI\") */\n      tag_103\n      jumpi\n      mload(0x40)\n      0x08c379a000000000000000000000000000000000000000000000000000000000\n      dup2\n      mstore\n      0x04\n      add\n      tag_104\n      swap1\n      tag_105\n      jump\t// in\n    tag_104:\n      mload(0x40)\n      dup1\n      swap2\n      sub\n      swap1\n      revert\n    tag_103:\n        /* \"contracts/Cert.sol\":2319:2496  Certificate(... */\n      mload(0x40)\n      dup1\n      0xc0\n      add\n      0x40\n      mstore\n      dup1\n        /* \"contracts/Cert.sol\":2345:2362  nextCertificateId */\n      sload(0x03)\n        /* \"contracts/Cert.sol\":2319:2496  Certificate(... */\n      dup2\n      mstore\n      0x20\n      add\n        /* \"contracts/Cert.sol\":2377:2390  candidateName */\n      dup7\n        /* \"contracts/Cert.sol\":2319:2496  Certificate(... */\n      dup2\n      mstore\n      0x20\n      add\n        /* \"contracts/Cert.sol\":2405:2411  course */\n      dup6\n        /* \"contracts/Cert.sol\":2319:2496  Certificate(... */\n      dup2\n      mstore\n      0x20\n      add\n        /* \"contracts/Cert.sol\":2426:2435  issueDate */\n      dup5\n        /* \"contracts/Cert.sol\":2319:2496  Certificate(... */\n      dup2\n      mstore\n      0x20\n      add\n        /* \"contracts/Cert.sol\":2450:2454  true */\n      0x01\n        /* \"contracts/Cert.sol\":2319:2496  Certificate(... */\n      iszero\n      iszero\n      dup2\n      mstore\n      0x20\n      add\n        /* \"contracts/Cert.sol\":2469:2485  aiValidationHash */\n      dup4\n        /* \"contracts/Cert.sol\":2319:2496  Certificate(... */\n      dup2\n      mstore\n      pop\n        /* \"contracts/Cert.sol\":2285:2297  certificates */\n      0x01\n        /* \"contracts/Cert.sol\":2285:2316  certificates[nextCertificateId] */\n      0x00\n        /* \"contracts/Cert.sol\":2298:2315  nextCertificateId */\n      sload(0x03)\n        /* \"contracts/Cert.sol\":2285:2316  certificates[nextCertificateId] */\n      dup2\n      mstore\n      0x20\n      add\n      swap1\n      dup2\n      mstore\n      0x20\n      add\n      0x00\n      keccak256\n        /* \"contracts/Cert.sol\":2285:2496  certificates[nextCertificateId] = Certificate(... */\n      0x00\n      dup3\n      add\n      mload\n      dup2\n      0x00\n      add\n      sstore\n      0x20\n      dup3\n      add\n      mload\n      dup2\n      0x01\n      add\n      swap1\n      dup2\n      tag_107\n      swap2\n      swap1\n      tag_108\n      jump\t// in\n    tag_107:\n      pop\n      0x40\n      dup3\n      add\n      mload\n      dup2\n      0x02\n      add\n      swap1\n      dup2\n      tag_109\n      swap2\n      swap1\n      tag_108\n      jump\t// in\n    tag_109:\n      pop\n      0x60\n      dup3\n      add\n      mload\n      dup2\n      0x03\n      add\n      swap1\n      dup2\n      tag_110\n      swap2\n      swap1\n      tag_108\n      jump\t// in\n    tag_110:\n      pop\n      0x80\n      dup3\n      add\n      mload\n      dup2\n      0x04\n      add\n      exp(0x0100, 0x00)\n      dup2\n      sload\n      dup2\n      0xff\n      mul\n      not\n      and\n      swap1\n      dup4\n      iszero\n      iszero\n      mul\n      or\n      swap1\n      sstore\n      pop\n      0xa0\n      dup3\n      add\n      mload\n      dup2\n      0x05\n      add\n      sstore\n      swap1\n      pop\n      pop\n        /* \"contracts/Cert.sol\":2512:2548  CertificateIssued(nextCertificateId) */\n      0x6b352e211b4d936da8b329b89379dc32df52c107a79a9544f3ecb5ccbe5ee2b7\n        /* \"contracts/Cert.sol\":2530:2547  nextCertificateId */\n      sload(0x03)\n        /* \"contracts/Cert.sol\":2512:2548  CertificateIssued(nextCertificateId) */\n      mload(0x40)\n      tag_111\n      swap2\n      swap1\n      tag_54\n      jump\t// in\n    tag_111:\n      mload(0x40)\n      dup1\n      swap2\n      sub\n      swap1\n      log1\n        /* \"contracts/Cert.sol\":2559:2576  nextCertificateId */\n      0x03\n      0x00\n        /* \"contracts/Cert.sol\":2559:2578  nextCertificateId++ */\n      dup2\n      sload\n      dup1\n      swap3\n      swap2\n      swap1\n      tag_112\n      swap1\n      tag_113\n      jump\t// in\n    tag_112:\n      swap2\n      swap1\n      pop\n      sstore\n      pop\n        /* \"contracts/Cert.sol\":1208:1209  _ */\n      pop\n        /* \"contracts/Cert.sol\":2056:2586  function issueCertificate(... */\n      pop\n      pop\n      pop\n      pop\n      jump\t// out\n        /* \"contracts/Cert.sol\":461:512  mapping(uint256 => Certificate) public certificates */\n    tag_39:\n      mstore(0x20, 0x01)\n      dup1\n      0x00\n      mstore\n      keccak256(0x00, 0x40)\n      0x00\n      swap2\n      pop\n      swap1\n      pop\n      dup1\n      0x00\n      add\n      sload\n      swap1\n      dup1\n      0x01\n      add\n      dup1\n      sload\n      tag_114\n      swap1\n      tag_67\n      jump\t// in\n    tag_114:\n      dup1\n      0x1f\n      add\n      0x20\n      dup1\n      swap2\n      div\n      mul\n      0x20\n      add\n      mload(0x40)\n      swap1\n      dup2\n      add\n      0x40\n      mstore\n      dup1\n      swap3\n      swap2\n      swap1\n      dup2\n      dup2\n      mstore\n      0x20\n      add\n      dup3\n      dup1\n      sload\n      tag_115\n      swap1\n      tag_67\n      jump\t// in\n    tag_115:\n      dup1\n      iszero\n      tag_116\n      jumpi\n      dup1\n      0x1f\n      lt\n      tag_117\n      jumpi\n      0x0100\n      dup1\n      dup4\n      sload\n      div\n      mul\n      dup4\n      mstore\n      swap2\n      0x20\n      add\n      swap2\n      jump(tag_116)\n    tag_117:\n      dup3\n      add\n      swap2\n      swap1\n      0x00\n      mstore\n      keccak256(0x00, 0x20)\n      swap1\n    tag_118:\n      dup2\n      sload\n      dup2\n      mstore\n      swap1\n      0x01\n      add\n      swap1\n      0x20\n      add\n      dup1\n      dup4\n      gt\n      tag_118\n      jumpi\n      dup3\n      swap1\n      sub\n      0x1f\n      and\n      dup3\n      add\n      swap2\n    tag_116:\n      pop\n      pop\n      pop\n      pop\n      pop\n      swap1\n      dup1\n      0x02\n      add\n      dup1\n      sload\n      tag_119\n      swap1\n      tag_67\n      jump\t// in\n    tag_119:\n      dup1\n      0x1f\n      add\n      0x20\n      dup1\n      swap2\n      div\n      mul\n      0x20\n      add\n      mload(0x40)\n      swap1\n      dup2\n      add\n      0x40\n      mstore\n      dup1\n      swap3\n      swap2\n      swap1\n      dup2\n      dup2\n      mstore\n      0x20\n      add\n      dup3\n      dup1\n      sload\n      tag_120\n      swap1\n      tag_67\n      jump\t// in\n    tag_120:\n      dup1\n      iszero\n      tag_121\n      jumpi\n      dup1\n      0x1f\n      lt\n      tag_122\n      jumpi\n      0x0100\n      dup1\n      dup4\n      sload\n      div\n      mul\n      dup4\n      mstore\n      swap2\n      0x20\n      add\n      swap2\n      jump(tag_121)\n    tag_122:\n      dup3\n      add\n      swap2\n      swap1\n      0x00\n      mstore\n      keccak256(0x00, 0x20)\n      swap1\n    tag_123:\n      dup2\n      sload\n      dup2\n      mstore\n      swap1\n      0x01\n      add\n      swap1\n      0x20\n      add\n      dup1\n      dup4\n      gt\n      tag_123\n      jumpi\n      dup3\n      swap1\n      sub\n      0x1f\n      and\n      dup3\n      add\n      swap2\n    tag_121:\n      pop\n      pop\n      pop\n      pop\n      pop\n      swap1\n      dup1\n      0x03\n      add\n      dup1\n      sload\n      tag_124\n      swap1\n      tag_67\n      jump\t// in\n    tag_124:\n      dup1\n      0x1f\n      add\n      0x20\n      dup1\n      swap2\n      div\n      mul\n      0x20\n      add\n      mload(0x40)\n      swap1\n      dup2\n      add\n      0x40\n      mstore\n      dup1\n      swap3\n      swap2\n      swap1\n      dup2\n      dup2\n      mstore\n      0x20\n      add\n      dup3\n      dup1\n      sload\n      tag_125\n      swap1\n      tag_67\n      jump\t// in\n    tag_125:\n      dup1\n      iszero\n      tag_126\n      jumpi\n      dup1\n      0x1f\n      lt\n      tag_127\n      jumpi\n      0x0100\n      dup1\n      dup4\n      sload\n      div\n      mul\n      dup4\n      mstore\n      swap2\n      0x20\n      add\n      swap2\n      jump(tag_126)\n    tag_127:\n      dup3\n      add\n      swap2\n      swap1\n      0x00\n      mstore\n      keccak256(0x00, 0x20)\n      swap1\n    tag_128:\n      dup2\n      sload\n      dup2\n      mstore\n      swap1\n      0x01\n      add\n      swap1\n      0x20\n      add\n      dup1\n      dup4\n      gt\n      tag_128\n      jumpi\n      dup3\n      swap1\n      sub\n      0x1f\n      and\n      dup3\n      add\n      swap2\n    tag_126:\n      pop\n      pop\n      pop\n      pop\n      pop\n      swap1\n      dup1\n      0x04\n      add\n      0x00\n      swap1\n      sload\n      swap1\n      0x0100\n      exp\n      swap1\n      div\n      0xff\n      and\n      swap1\n      dup1\n      0x05\n      add\n      sload\n      swap1\n      pop\n      dup7\n      jump\t// out\n        /* \"contracts/Cert.sol\":2846:3125  function invalidateCertificate(uint256 id) external onlyIssuer {... */\n    tag_44:\n        /* \"contracts/Cert.sol\":1128:1135  issuers */\n      0x04\n        /* \"contracts/Cert.sol\":1128:1147  issuers[msg.sender] */\n      0x00\n        /* \"contracts/Cert.sol\":1136:1146  msg.sender */\n      caller\n        /* \"contracts/Cert.sol\":1128:1147  issuers[msg.sender] */\n      0xffffffffffffffffffffffffffffffffffffffff\n      and\n      0xffffffffffffffffffffffffffffffffffffffff\n      and\n      dup2\n      mstore\n      0x20\n      add\n      swap1\n      dup2\n      mstore\n      0x20\n      add\n      0x00\n      keccak256\n      0x00\n      swap1\n      sload\n      swap1\n      0x0100\n      exp\n      swap1\n      div\n      0xff\n      and\n        /* \"contracts/Cert.sol\":1120:1197  require(issuers[msg.sender], \"Only authorized issuer can call this function\") */\n      tag_130\n      jumpi\n      mload(0x40)\n      0x08c379a000000000000000000000000000000000000000000000000000000000\n      dup2\n      mstore\n      0x04\n      add\n      tag_131\n      swap1\n      tag_99\n      jump\t// in\n    tag_131:\n      mload(0x40)\n      dup1\n      swap2\n      sub\n      swap1\n      revert\n    tag_130:\n        /* \"contracts/Cert.sol\":2920:2951  Certificate storage certificate */\n      0x00\n        /* \"contracts/Cert.sol\":2954:2966  certificates */\n      0x01\n        /* \"contracts/Cert.sol\":2954:2970  certificates[id] */\n      0x00\n        /* \"contracts/Cert.sol\":2967:2969  id */\n      dup4\n        /* \"contracts/Cert.sol\":2954:2970  certificates[id] */\n      dup2\n      mstore\n      0x20\n      add\n      swap1\n      dup2\n      mstore\n      0x20\n      add\n      0x00\n      keccak256\n        /* \"contracts/Cert.sol\":2920:2970  Certificate storage certificate = certificates[id] */\n      swap1\n      pop\n        /* \"contracts/Cert.sol\":3007:3009  id */\n      dup2\n        /* \"contracts/Cert.sol\":2989:3000  certificate */\n      dup2\n        /* \"contracts/Cert.sol\":2989:3003  certificate.id */\n      0x00\n      add\n      sload\n        /* \"contracts/Cert.sol\":2989:3009  certificate.id == id */\n      eq\n        /* \"contracts/Cert.sol\":2981:3035  require(certificate.id == id, \"Certificate not found\") */\n      tag_133\n      jumpi\n      mload(0x40)\n      0x08c379a000000000000000000000000000000000000000000000000000000000\n      dup2\n      mstore\n      0x04\n      add\n      tag_134\n      swap1\n      tag_84\n      jump\t// in\n    tag_134:\n      mload(0x40)\n      dup1\n      swap2\n      sub\n      swap1\n      revert\n    tag_133:\n        /* \"contracts/Cert.sol\":3066:3071  false */\n      0x00\n        /* \"contracts/Cert.sol\":3046:3057  certificate */\n      dup2\n        /* \"contracts/Cert.sol\":3046:3063  certificate.valid */\n      0x04\n      add\n      0x00\n        /* \"contracts/Cert.sol\":3046:3071  certificate.valid = false */\n      0x0100\n      exp\n      dup2\n      sload\n      dup2\n      0xff\n      mul\n      not\n      and\n      swap1\n      dup4\n      iszero\n      iszero\n      mul\n      or\n      swap1\n      sstore\n      pop\n        /* \"contracts/Cert.sol\":3087:3117  CertificateVerified(id, false) */\n      0x739766c917befd2312040cd8bdbcc45e456f5699d6e4466fb15dad5089660be0\n        /* \"contracts/Cert.sol\":3107:3109  id */\n      dup3\n        /* \"contracts/Cert.sol\":3111:3116  false */\n      0x00\n        /* \"contracts/Cert.sol\":3087:3117  CertificateVerified(id, false) */\n      mload(0x40)\n      tag_135\n      swap3\n      swap2\n      swap1\n      tag_136\n      jump\t// in\n    tag_135:\n      mload(0x40)\n      dup1\n      swap2\n      sub\n      swap1\n      log1\n        /* \"contracts/Cert.sol\":2909:3125  {... */\n      pop\n        /* \"contracts/Cert.sol\":2846:3125  function invalidateCertificate(uint256 id) external onlyIssuer {... */\n      pop\n      jump\t// out\n        /* \"contracts/Cert.sol\":519:571  mapping(string => AIValidation) public aiValidations */\n    tag_48:\n      0x02\n      dup2\n      dup1\n      mload\n      0x20\n      dup2\n      add\n      dup3\n      add\n      dup1\n      mload\n      dup5\n      dup3\n      mstore\n      0x20\n      dup4\n      add\n      0x20\n      dup6\n      add\n      keccak256\n      dup2\n      dup4\n      mstore\n      dup1\n      swap6\n      pop\n      pop\n      pop\n      pop\n      pop\n      pop\n      0x00\n      swap2\n      pop\n      swap1\n      pop\n      dup1\n      0x00\n      add\n      0x00\n      swap1\n      sload\n      swap1\n      0x0100\n      exp\n      swap1\n      div\n      0xff\n      and\n      swap1\n      dup1\n      0x01\n      add\n      sload\n      swap1\n      pop\n      dup3\n      jump\t// out\n        /* \"contracts/Cert.sol\":578:610  uint256 public nextCertificateId */\n    tag_52:\n      sload(0x03)\n      dup2\n      jump\t// out\n        /* \"contracts/Cert.sol\":1787:2048  function recordAIValidation(string memory candidateDetails, bytes32 validationHash) external onlyIssuer {... */\n    tag_58:\n        /* \"contracts/Cert.sol\":1128:1135  issuers */\n      0x04\n        /* \"contracts/Cert.sol\":1128:1147  issuers[msg.sender] */\n      0x00\n        /* \"contracts/Cert.sol\":1136:1146  msg.sender */\n      caller\n        /* \"contracts/Cert.sol\":1128:1147  issuers[msg.sender] */\n      0xffffffffffffffffffffffffffffffffffffffff\n      and\n      0xffffffffffffffffffffffffffffffffffffffff\n      and\n      dup2\n      mstore\n      0x20\n      add\n      swap1\n      dup2\n      mstore\n      0x20\n      add\n      0x00\n      keccak256\n      0x00\n      swap1\n      sload\n      swap1\n      0x0100\n      exp\n      swap1\n      div\n      0xff\n      and\n        /* \"contracts/Cert.sol\":1120:1197  require(issuers[msg.sender], \"Only authorized issuer can call this function\") */\n      tag_138\n      jumpi\n      mload(0x40)\n      0x08c379a000000000000000000000000000000000000000000000000000000000\n      dup2\n      mstore\n      0x04\n      add\n      tag_139\n      swap1\n      tag_99\n      jump\t// in\n    tag_139:\n      mload(0x40)\n      dup1\n      swap2\n      sub\n      swap1\n      revert\n    tag_138:\n        /* \"contracts/Cert.sol\":1936:1970  AIValidation(true, validationHash) */\n      mload(0x40)\n      dup1\n      0x40\n      add\n      0x40\n      mstore\n      dup1\n        /* \"contracts/Cert.sol\":1949:1953  true */\n      0x01\n        /* \"contracts/Cert.sol\":1936:1970  AIValidation(true, validationHash) */\n      iszero\n      iszero\n      dup2\n      mstore\n      0x20\n      add\n        /* \"contracts/Cert.sol\":1955:1969  validationHash */\n      dup3\n        /* \"contracts/Cert.sol\":1936:1970  AIValidation(true, validationHash) */\n      dup2\n      mstore\n      pop\n        /* \"contracts/Cert.sol\":1902:1915  aiValidations */\n      0x02\n        /* \"contracts/Cert.sol\":1916:1932  candidateDetails */\n      dup4\n        /* \"contracts/Cert.sol\":1902:1933  aiValidations[candidateDetails] */\n      mload(0x40)\n      tag_141\n      swap2\n      swap1\n      tag_102\n      jump\t// in\n    tag_141:\n      swap1\n      dup2\n      mstore\n      0x20\n      add\n      mload(0x40)\n      dup1\n      swap2\n      sub\n      swap1\n      keccak256\n        /* \"contracts/Cert.sol\":1902:1970  aiValidations[candidateDetails] = AIValidation(true, validationHash) */\n      0x00\n      dup3\n      add\n      mload\n      dup2\n      0x00\n      add\n      exp(0x0100, 0x00)\n      dup2\n      sload\n      dup2\n      0xff\n      mul\n      not\n      and\n      swap1\n      dup4\n      iszero\n      iszero\n      mul\n      or\n      swap1\n      sstore\n      pop\n      0x20\n      dup3\n      add\n      mload\n      dup2\n      0x01\n      add\n      sstore\n      swap1\n      pop\n      pop\n        /* \"contracts/Cert.sol\":1986:2040  AIValidationRecorded(candidateDetails, validationHash) */\n      0x1ad9041122fe2e478ee6bd11d31817a11bea93fd6fe94266dc5dde821dedd781\n        /* \"contracts/Cert.sol\":2007:2023  candidateDetails */\n      dup3\n        /* \"contracts/Cert.sol\":2025:2039  validationHash */\n      dup3\n        /* \"contracts/Cert.sol\":1986:2040  AIValidationRecorded(candidateDetails, validationHash) */\n      mload(0x40)\n      tag_142\n      swap3\n      swap2\n      swap1\n      tag_143\n      jump\t// in\n    tag_142:\n      mload(0x40)\n      dup1\n      swap2\n      sub\n      swap1\n      log1\n        /* \"contracts/Cert.sol\":1787:2048  function recordAIValidation(string memory candidateDetails, bytes32 validationHash) external onlyIssuer {... */\n      pop\n      pop\n      jump\t// out\n        /* \"contracts/Cert.sol\":434:454  address public admin */\n    tag_60:\n      0x00\n      dup1\n      sload\n      swap1\n      0x0100\n      exp\n      swap1\n      div\n      0xffffffffffffffffffffffffffffffffffffffff\n      and\n      dup2\n      jump\t// out\n    tag_64:\n      mload(0x40)\n      dup1\n      0xc0\n      add\n      0x40\n      mstore\n      dup1\n      0x00\n      dup2\n      mstore\n      0x20\n      add\n      0x60\n      dup2\n      mstore\n      0x20\n      add\n      0x60\n      dup2\n      mstore\n      0x20\n      add\n      0x60\n      dup2\n      mstore\n      0x20\n      add\n      iszero(iszero(0x00))\n      dup2\n      mstore\n      0x20\n      add\n      0x00\n      dup1\n      not\n      and\n      dup2\n      mstore\n      pop\n      swap1\n      jump\t// out\n        /* \"#utility.yul\":7:82   */\n    tag_144:\n        /* \"#utility.yul\":40:46   */\n      0x00\n        /* \"#utility.yul\":73:75   */\n      0x40\n        /* \"#utility.yul\":67:76   */\n      mload\n        /* \"#utility.yul\":57:76   */\n      swap1\n      pop\n        /* \"#utility.yul\":7:82   */\n      swap1\n      jump\t// out\n        /* \"#utility.yul\":88:205   */\n    tag_145:\n        /* \"#utility.yul\":197:198   */\n      0x00\n        /* \"#utility.yul\":194:195   */\n      dup1\n        /* \"#utility.yul\":187:199   */\n      revert\n        /* \"#utility.yul\":211:328   */\n    tag_146:\n        /* \"#utility.yul\":320:321   */\n      0x00\n        /* \"#utility.yul\":317:318   */\n      dup1\n        /* \"#utility.yul\":310:322   */\n      revert\n        /* \"#utility.yul\":334:411   */\n    tag_147:\n        /* \"#utility.yul\":371:378   */\n      0x00\n        /* \"#utility.yul\":400:405   */\n      dup2\n        /* \"#utility.yul\":389:405   */\n      swap1\n      pop\n        /* \"#utility.yul\":334:411   */\n      swap2\n      swap1\n      pop\n      jump\t// out\n        /* \"#utility.yul\":417:539   */\n    tag_148:\n        /* \"#utility.yul\":490:514   */\n      tag_215\n        /* \"#utility.yul\":508:513   */\n      dup2\n        /* \"#utility.yul\":490:514   */\n      tag_147\n      jump\t// in\n    tag_215:\n        /* \"#utility.yul\":483:488   */\n      dup2\n        /* \"#utility.yul\":480:515   */\n      eq\n        /* \"#utility.yul\":470:533   */\n      tag_216\n      jumpi\n        /* \"#utility.yul\":529:530   */\n      0x00\n        /* \"#utility.yul\":526:527   */\n      dup1\n        /* \"#utility.yul\":519:531   */\n      revert\n        /* \"#utility.yul\":470:533   */\n    tag_216:\n        /* \"#utility.yul\":417:539   */\n      pop\n      jump\t// out\n        /* \"#utility.yul\":545:684   */\n    tag_149:\n        /* \"#utility.yul\":591:596   */\n      0x00\n        /* \"#utility.yul\":629:635   */\n      dup2\n        /* \"#utility.yul\":616:636   */\n      calldataload\n        /* \"#utility.yul\":607:636   */\n      swap1\n      pop\n        /* \"#utility.yul\":645:678   */\n      tag_218\n        /* \"#utility.yul\":672:677   */\n      dup2\n        /* \"#utility.yul\":645:678   */\n      tag_148\n      jump\t// in\n    tag_218:\n        /* \"#utility.yul\":545:684   */\n      swap3\n      swap2\n      pop\n      pop\n      jump\t// out\n        /* \"#utility.yul\":690:1019   */\n    tag_17:\n        /* \"#utility.yul\":749:755   */\n      0x00\n        /* \"#utility.yul\":798:800   */\n      0x20\n        /* \"#utility.yul\":786:795   */\n      dup3\n        /* \"#utility.yul\":777:784   */\n      dup5\n        /* \"#utility.yul\":773:796   */\n      sub\n        /* \"#utility.yul\":769:801   */\n      slt\n        /* \"#utility.yul\":766:885   */\n      iszero\n      tag_220\n      jumpi\n        /* \"#utility.yul\":804:883   */\n      tag_221\n      tag_145\n      jump\t// in\n    tag_221:\n        /* \"#utility.yul\":766:885   */\n    tag_220:\n        /* \"#utility.yul\":924:925   */\n      0x00\n        /* \"#utility.yul\":949:1002   */\n      tag_222\n        /* \"#utility.yul\":994:1001   */\n      dup5\n        /* \"#utility.yul\":985:991   */\n      dup3\n        /* \"#utility.yul\":974:983   */\n      dup6\n        /* \"#utility.yul\":970:992   */\n      add\n        /* \"#utility.yul\":949:1002   */\n      tag_149\n      jump\t// in\n    tag_222:\n        /* \"#utility.yul\":939:1002   */\n      swap2\n      pop\n        /* \"#utility.yul\":895:1012   */\n      pop\n        /* \"#utility.yul\":690:1019   */\n      swap3\n      swap2\n      pop\n      pop\n      jump\t// out\n        /* \"#utility.yul\":1025:1133   */\n    tag_150:\n        /* \"#utility.yul\":1102:1126   */\n      tag_224\n        /* \"#utility.yul\":1120:1125   */\n      dup2\n        /* \"#utility.yul\":1102:1126   */\n      tag_147\n      jump\t// in\n    tag_224:\n        /* \"#utility.yul\":1097:1100   */\n      dup3\n        /* \"#utility.yul\":1090:1127   */\n      mstore\n        /* \"#utility.yul\":1025:1133   */\n      pop\n      pop\n      jump\t// out\n        /* \"#utility.yul\":1139:1238   */\n    tag_151:\n        /* \"#utility.yul\":1191:1197   */\n      0x00\n        /* \"#utility.yul\":1225:1230   */\n      dup2\n        /* \"#utility.yul\":1219:1231   */\n      mload\n        /* \"#utility.yul\":1209:1231   */\n      swap1\n      pop\n        /* \"#utility.yul\":1139:1238   */\n      swap2\n      swap1\n      pop\n      jump\t// out\n        /* \"#utility.yul\":1244:1403   */\n    tag_152:\n        /* \"#utility.yul\":1318:1329   */\n      0x00\n        /* \"#utility.yul\":1352:1358   */\n      dup3\n        /* \"#utility.yul\":1347:1350   */\n      dup3\n        /* \"#utility.yul\":1340:1359   */\n      mstore\n        /* \"#utility.yul\":1392:1396   */\n      0x20\n        /* \"#utility.yul\":1387:1390   */\n      dup3\n        /* \"#utility.yul\":1383:1397   */\n      add\n        /* \"#utility.yul\":1368:1397   */\n      swap1\n      pop\n        /* \"#utility.yul\":1244:1403   */\n      swap3\n      swap2\n      pop\n      pop\n      jump\t// out\n        /* \"#utility.yul\":1409:1548   */\n    tag_153:\n        /* \"#utility.yul\":1498:1504   */\n      dup3\n        /* \"#utility.yul\":1493:1496   */\n      dup2\n        /* \"#utility.yul\":1488:1491   */\n      dup4\n        /* \"#utility.yul\":1482:1505   */\n      mcopy\n        /* \"#utility.yul\":1539:1540   */\n      0x00\n        /* \"#utility.yul\":1530:1536   */\n      dup4\n        /* \"#utility.yul\":1525:1528   */\n      dup4\n        /* \"#utility.yul\":1521:1537   */\n      add\n        /* \"#utility.yul\":1514:1541   */\n      mstore\n        /* \"#utility.yul\":1409:1548   */\n      pop\n      pop\n      pop\n      jump\t// out\n        /* \"#utility.yul\":1554:1656   */\n    tag_154:\n        /* \"#utility.yul\":1595:1601   */\n      0x00\n        /* \"#utility.yul\":1646:1648   */\n      0x1f\n        /* \"#utility.yul\":1642:1649   */\n      not\n        /* \"#utility.yul\":1637:1639   */\n      0x1f\n        /* \"#utility.yul\":1630:1635   */\n      dup4\n        /* \"#utility.yul\":1626:1640   */\n      add\n        /* \"#utility.yul\":1622:1650   */\n      and\n        /* \"#utility.yul\":1612:1650   */\n      swap1\n      pop\n        /* \"#utility.yul\":1554:1656   */\n      swap2\n      swap1\n      pop\n      jump\t// out\n        /* \"#utility.yul\":1662:2019   */\n    tag_155:\n        /* \"#utility.yul\":1740:1743   */\n      0x00\n        /* \"#utility.yul\":1768:1807   */\n      tag_230\n        /* \"#utility.yul\":1801:1806   */\n      dup3\n        /* \"#utility.yul\":1768:1807   */\n      tag_151\n      jump\t// in\n    tag_230:\n        /* \"#utility.yul\":1823:1884   */\n      tag_231\n        /* \"#utility.yul\":1877:1883   */\n      dup2\n        /* \"#utility.yul\":1872:1875   */\n      dup6\n        /* \"#utility.yul\":1823:1884   */\n      tag_152\n      jump\t// in\n    tag_231:\n        /* \"#utility.yul\":1816:1884   */\n      swap4\n      pop\n        /* \"#utility.yul\":1893:1958   */\n      tag_232\n        /* \"#utility.yul\":1951:1957   */\n      dup2\n        /* \"#utility.yul\":1946:1949   */\n      dup6\n        /* \"#utility.yul\":1939:1943   */\n      0x20\n        /* \"#utility.yul\":1932:1937   */\n      dup7\n        /* \"#utility.yul\":1928:1944   */\n      add\n        /* \"#utility.yul\":1893:1958   */\n      tag_153\n      jump\t// in\n    tag_232:\n        /* \"#utility.yul\":1983:2012   */\n      tag_233\n        /* \"#utility.yul\":2005:2011   */\n      dup2\n        /* \"#utility.yul\":1983:2012   */\n      tag_154\n      jump\t// in\n    tag_233:\n        /* \"#utility.yul\":1978:1981   */\n      dup5\n        /* \"#utility.yul\":1974:2013   */\n      add\n        /* \"#utility.yul\":1967:2013   */\n      swap2\n      pop\n        /* \"#utility.yul\":1744:2019   */\n      pop\n        /* \"#utility.yul\":1662:2019   */\n      swap3\n      swap2\n      pop\n      pop\n      jump\t// out\n        /* \"#utility.yul\":2025:2115   */\n    tag_156:\n        /* \"#utility.yul\":2059:2066   */\n      0x00\n        /* \"#utility.yul\":2102:2107   */\n      dup2\n        /* \"#utility.yul\":2095:2108   */\n      iszero\n        /* \"#utility.yul\":2088:2109   */\n      iszero\n        /* \"#utility.yul\":2077:2109   */\n      swap1\n      pop\n        /* \"#utility.yul\":2025:2115   */\n      swap2\n      swap1\n      pop\n      jump\t// out\n        /* \"#utility.yul\":2121:2220   */\n    tag_157:\n        /* \"#utility.yul\":2192:2213   */\n      tag_236\n        /* \"#utility.yul\":2207:2212   */\n      dup2\n        /* \"#utility.yul\":2192:2213   */\n      tag_156\n      jump\t// in\n    tag_236:\n        /* \"#utility.yul\":2187:2190   */\n      dup3\n        /* \"#utility.yul\":2180:2214   */\n      mstore\n        /* \"#utility.yul\":2121:2220   */\n      pop\n      pop\n      jump\t// out\n        /* \"#utility.yul\":2226:2303   */\n    tag_158:\n        /* \"#utility.yul\":2263:2270   */\n      0x00\n        /* \"#utility.yul\":2292:2297   */\n      dup2\n        /* \"#utility.yul\":2281:2297   */\n      swap1\n      pop\n        /* \"#utility.yul\":2226:2303   */\n      swap2\n      swap1\n      pop\n      jump\t// out\n        /* \"#utility.yul\":2309:2417   */\n    tag_159:\n        /* \"#utility.yul\":2386:2410   */\n      tag_239\n        /* \"#utility.yul\":2404:2409   */\n      dup2\n        /* \"#utility.yul\":2386:2410   */\n      tag_158\n      jump\t// in\n    tag_239:\n        /* \"#utility.yul\":2381:2384   */\n      dup3\n        /* \"#utility.yul\":2374:2411   */\n      mstore\n        /* \"#utility.yul\":2309:2417   */\n      pop\n      pop\n      jump\t// out\n        /* \"#utility.yul\":2515:3984   */\n    tag_160:\n        /* \"#utility.yul\":2638:2641   */\n      0x00\n        /* \"#utility.yul\":2674:2678   */\n      0xc0\n        /* \"#utility.yul\":2669:2672   */\n      dup4\n        /* \"#utility.yul\":2665:2679   */\n      add\n        /* \"#utility.yul\":2759:2763   */\n      0x00\n        /* \"#utility.yul\":2752:2757   */\n      dup4\n        /* \"#utility.yul\":2748:2764   */\n      add\n        /* \"#utility.yul\":2742:2765   */\n      mload\n        /* \"#utility.yul\":2778:2841   */\n      tag_241\n        /* \"#utility.yul\":2835:2839   */\n      0x00\n        /* \"#utility.yul\":2830:2833   */\n      dup7\n        /* \"#utility.yul\":2826:2840   */\n      add\n        /* \"#utility.yul\":2812:2824   */\n      dup3\n        /* \"#utility.yul\":2778:2841   */\n      tag_150\n      jump\t// in\n    tag_241:\n        /* \"#utility.yul\":2689:2851   */\n      pop\n        /* \"#utility.yul\":2942:2946   */\n      0x20\n        /* \"#utility.yul\":2935:2940   */\n      dup4\n        /* \"#utility.yul\":2931:2947   */\n      add\n        /* \"#utility.yul\":2925:2948   */\n      mload\n        /* \"#utility.yul\":2995:2998   */\n      dup5\n        /* \"#utility.yul\":2989:2993   */\n      dup3\n        /* \"#utility.yul\":2985:2999   */\n      sub\n        /* \"#utility.yul\":2978:2982   */\n      0x20\n        /* \"#utility.yul\":2973:2976   */\n      dup7\n        /* \"#utility.yul\":2969:2983   */\n      add\n        /* \"#utility.yul\":2962:3000   */\n      mstore\n        /* \"#utility.yul\":3021:3094   */\n      tag_242\n        /* \"#utility.yul\":3089:3093   */\n      dup3\n        /* \"#utility.yul\":3075:3087   */\n      dup3\n        /* \"#utility.yul\":3021:3094   */\n      tag_155\n      jump\t// in\n    tag_242:\n        /* \"#utility.yul\":3013:3094   */\n      swap2\n      pop\n        /* \"#utility.yul\":2861:3105   */\n      pop\n        /* \"#utility.yul\":3189:3193   */\n      0x40\n        /* \"#utility.yul\":3182:3187   */\n      dup4\n        /* \"#utility.yul\":3178:3194   */\n      add\n        /* \"#utility.yul\":3172:3195   */\n      mload\n        /* \"#utility.yul\":3242:3245   */\n      dup5\n        /* \"#utility.yul\":3236:3240   */\n      dup3\n        /* \"#utility.yul\":3232:3246   */\n      sub\n        /* \"#utility.yul\":3225:3229   */\n      0x40\n        /* \"#utility.yul\":3220:3223   */\n      dup7\n        /* \"#utility.yul\":3216:3230   */\n      add\n        /* \"#utility.yul\":3209:3247   */\n      mstore\n        /* \"#utility.yul\":3268:3341   */\n      tag_243\n        /* \"#utility.yul\":3336:3340   */\n      dup3\n        /* \"#utility.yul\":3322:3334   */\n      dup3\n        /* \"#utility.yul\":3268:3341   */\n      tag_155\n      jump\t// in\n    tag_243:\n        /* \"#utility.yul\":3260:3341   */\n      swap2\n      pop\n        /* \"#utility.yul\":3115:3352   */\n      pop\n        /* \"#utility.yul\":3439:3443   */\n      0x60\n        /* \"#utility.yul\":3432:3437   */\n      dup4\n        /* \"#utility.yul\":3428:3444   */\n      add\n        /* \"#utility.yul\":3422:3445   */\n      mload\n        /* \"#utility.yul\":3492:3495   */\n      dup5\n        /* \"#utility.yul\":3486:3490   */\n      dup3\n        /* \"#utility.yul\":3482:3496   */\n      sub\n        /* \"#utility.yul\":3475:3479   */\n      0x60\n        /* \"#utility.yul\":3470:3473   */\n      dup7\n        /* \"#utility.yul\":3466:3480   */\n      add\n        /* \"#utility.yul\":3459:3497   */\n      mstore\n        /* \"#utility.yul\":3518:3591   */\n      tag_244\n        /* \"#utility.yul\":3586:3590   */\n      dup3\n        /* \"#utility.yul\":3572:3584   */\n      dup3\n        /* \"#utility.yul\":3518:3591   */\n      tag_155\n      jump\t// in\n    tag_244:\n        /* \"#utility.yul\":3510:3591   */\n      swap2\n      pop\n        /* \"#utility.yul\":3362:3602   */\n      pop\n        /* \"#utility.yul\":3685:3689   */\n      0x80\n        /* \"#utility.yul\":3678:3683   */\n      dup4\n        /* \"#utility.yul\":3674:3690   */\n      add\n        /* \"#utility.yul\":3668:3691   */\n      mload\n        /* \"#utility.yul\":3704:3761   */\n      tag_245\n        /* \"#utility.yul\":3755:3759   */\n      0x80\n        /* \"#utility.yul\":3750:3753   */\n      dup7\n        /* \"#utility.yul\":3746:3760   */\n      add\n        /* \"#utility.yul\":3732:3744   */\n      dup3\n        /* \"#utility.yul\":3704:3761   */\n      tag_157\n      jump\t// in\n    tag_245:\n        /* \"#utility.yul\":3612:3771   */\n      pop\n        /* \"#utility.yul\":3865:3869   */\n      0xa0\n        /* \"#utility.yul\":3858:3863   */\n      dup4\n        /* \"#utility.yul\":3854:3870   */\n      add\n        /* \"#utility.yul\":3848:3871   */\n      mload\n        /* \"#utility.yul\":3884:3947   */\n      tag_246\n        /* \"#utility.yul\":3941:3945   */\n      0xa0\n        /* \"#utility.yul\":3936:3939   */\n      dup7\n        /* \"#utility.yul\":3932:3946   */\n      add\n        /* \"#utility.yul\":3918:3930   */\n      dup3\n        /* \"#utility.yul\":3884:3947   */\n      tag_159\n      jump\t// in\n    tag_246:\n        /* \"#utility.yul\":3781:3957   */\n      pop\n        /* \"#utility.yul\":3974:3978   */\n      dup1\n        /* \"#utility.yul\":3967:3978   */\n      swap2\n      pop\n        /* \"#utility.yul\":2643:3984   */\n      pop\n        /* \"#utility.yul\":2515:3984   */\n      swap3\n      swap2\n      pop\n      pop\n      jump\t// out\n        /* \"#utility.yul\":3990:4371   */\n    tag_20:\n        /* \"#utility.yul\":4137:4141   */\n      0x00\n        /* \"#utility.yul\":4175:4177   */\n      0x20\n        /* \"#utility.yul\":4164:4173   */\n      dup3\n        /* \"#utility.yul\":4160:4178   */\n      add\n        /* \"#utility.yul\":4152:4178   */\n      swap1\n      pop\n        /* \"#utility.yul\":4224:4233   */\n      dup2\n        /* \"#utility.yul\":4218:4222   */\n      dup2\n        /* \"#utility.yul\":4214:4234   */\n      sub\n        /* \"#utility.yul\":4210:4211   */\n      0x00\n        /* \"#utility.yul\":4199:4208   */\n      dup4\n        /* \"#utility.yul\":4195:4212   */\n      add\n        /* \"#utility.yul\":4188:4235   */\n      mstore\n        /* \"#utility.yul\":4252:4364   */\n      tag_248\n        /* \"#utility.yul\":4359:4363   */\n      dup2\n        /* \"#utility.yul\":4350:4356   */\n      dup5\n        /* \"#utility.yul\":4252:4364   */\n      tag_160\n      jump\t// in\n    tag_248:\n        /* \"#utility.yul\":4244:4364   */\n      swap1\n      pop\n        /* \"#utility.yul\":3990:4371   */\n      swap3\n      swap2\n      pop\n      pop\n      jump\t// out\n        /* \"#utility.yul\":4377:4503   */\n    tag_161:\n        /* \"#utility.yul\":4414:4421   */\n      0x00\n        /* \"#utility.yul\":4454:4496   */\n      0xffffffffffffffffffffffffffffffffffffffff\n        /* \"#utility.yul\":4447:4452   */\n      dup3\n        /* \"#utility.yul\":4443:4497   */\n      and\n        /* \"#utility.yul\":4432:4497   */\n      swap1\n      pop\n        /* \"#utility.yul\":4377:4503   */\n      swap2\n      swap1\n      pop\n      jump\t// out\n        /* \"#utility.yul\":4509:4605   */\n    tag_162:\n        /* \"#utility.yul\":4546:4553   */\n      0x00\n        /* \"#utility.yul\":4575:4599   */\n      tag_251\n        /* \"#utility.yul\":4593:4598   */\n      dup3\n        /* \"#utility.yul\":4575:4599   */\n      tag_161\n      jump\t// in\n    tag_251:\n        /* \"#utility.yul\":4564:4599   */\n      swap1\n      pop\n        /* \"#utility.yul\":4509:4605   */\n      swap2\n      swap1\n      pop\n      jump\t// out\n        /* \"#utility.yul\":4611:4733   */\n    tag_163:\n        /* \"#utility.yul\":4684:4708   */\n      tag_253\n        /* \"#utility.yul\":4702:4707   */\n      dup2\n        /* \"#utility.yul\":4684:4708   */\n      tag_162\n      jump\t// in\n    tag_253:\n        /* \"#utility.yul\":4677:4682   */\n      dup2\n        /* \"#utility.yul\":4674:4709   */\n      eq\n        /* \"#utility.yul\":4664:4727   */\n      tag_254\n      jumpi\n        /* \"#utility.yul\":4723:4724   */\n      0x00\n        /* \"#utility.yul\":4720:4721   */\n      dup1\n        /* \"#utility.yul\":4713:4725   */\n      revert\n        /* \"#utility.yul\":4664:4727   */\n    tag_254:\n        /* \"#utility.yul\":4611:4733   */\n      pop\n      jump\t// out\n        /* \"#utility.yul\":4739:4878   */\n    tag_164:\n        /* \"#utility.yul\":4785:4790   */\n      0x00\n        /* \"#utility.yul\":4823:4829   */\n      dup2\n        /* \"#utility.yul\":4810:4830   */\n      calldataload\n        /* \"#utility.yul\":4801:4830   */\n      swap1\n      pop\n        /* \"#utility.yul\":4839:4872   */\n      tag_256\n        /* \"#utility.yul\":4866:4871   */\n      dup2\n        /* \"#utility.yul\":4839:4872   */\n      tag_163\n      jump\t// in\n    tag_256:\n        /* \"#utility.yul\":4739:4878   */\n      swap3\n      swap2\n      pop\n      pop\n      jump\t// out\n        /* \"#utility.yul\":4884:5213   */\n    tag_23:\n        /* \"#utility.yul\":4943:4949   */\n      0x00\n        /* \"#utility.yul\":4992:4994   */\n      0x20\n        /* \"#utility.yul\":4980:4989   */\n      dup3\n        /* \"#utility.yul\":4971:4978   */\n      dup5\n        /* \"#utility.yul\":4967:4990   */\n      sub\n        /* \"#utility.yul\":4963:4995   */\n      slt\n        /* \"#utility.yul\":4960:5079   */\n      iszero\n      tag_258\n      jumpi\n        /* \"#utility.yul\":4998:5077   */\n      tag_259\n      tag_145\n      jump\t// in\n    tag_259:\n        /* \"#utility.yul\":4960:5079   */\n    tag_258:\n        /* \"#utility.yul\":5118:5119   */\n      0x00\n        /* \"#utility.yul\":5143:5196   */\n      tag_260\n        /* \"#utility.yul\":5188:5195   */\n      dup5\n        /* \"#utility.yul\":5179:5185   */\n      dup3\n        /* \"#utility.yul\":5168:5177   */\n      dup6\n        /* \"#utility.yul\":5164:5186   */\n      add\n        /* \"#utility.yul\":5143:5196   */\n      tag_164\n      jump\t// in\n    tag_260:\n        /* \"#utility.yul\":5133:5196   */\n      swap2\n      pop\n        /* \"#utility.yul\":5089:5206   */\n      pop\n        /* \"#utility.yul\":4884:5213   */\n      swap3\n      swap2\n      pop\n      pop\n      jump\t// out\n        /* \"#utility.yul\":5219:5328   */\n    tag_165:\n        /* \"#utility.yul\":5300:5321   */\n      tag_262\n        /* \"#utility.yul\":5315:5320   */\n      dup2\n        /* \"#utility.yul\":5300:5321   */\n      tag_156\n      jump\t// in\n    tag_262:\n        /* \"#utility.yul\":5295:5298   */\n      dup3\n        /* \"#utility.yul\":5288:5322   */\n      mstore\n        /* \"#utility.yul\":5219:5328   */\n      pop\n      pop\n      jump\t// out\n        /* \"#utility.yul\":5334:5544   */\n    tag_29:\n        /* \"#utility.yul\":5421:5425   */\n      0x00\n        /* \"#utility.yul\":5459:5461   */\n      0x20\n        /* \"#utility.yul\":5448:5457   */\n      dup3\n        /* \"#utility.yul\":5444:5462   */\n      add\n        /* \"#utility.yul\":5436:5462   */\n      swap1\n      pop\n        /* \"#utility.yul\":5472:5537   */\n      tag_264\n        /* \"#utility.yul\":5534:5535   */\n      0x00\n        /* \"#utility.yul\":5523:5532   */\n      dup4\n        /* \"#utility.yul\":5519:5536   */\n      add\n        /* \"#utility.yul\":5510:5516   */\n      dup5\n        /* \"#utility.yul\":5472:5537   */\n      tag_165\n      jump\t// in\n    tag_264:\n        /* \"#utility.yul\":5334:5544   */\n      swap3\n      swap2\n      pop\n      pop\n      jump\t// out\n        /* \"#utility.yul\":5550:5667   */\n    tag_166:\n        /* \"#utility.yul\":5659:5660   */\n      0x00\n        /* \"#utility.yul\":5656:5657   */\n      dup1\n        /* \"#utility.yul\":5649:5661   */\n      revert\n        /* \"#utility.yul\":5673:5790   */\n    tag_167:\n        /* \"#utility.yul\":5782:5783   */\n      0x00\n        /* \"#utility.yul\":5779:5780   */\n      dup1\n        /* \"#utility.yul\":5772:5784   */\n      revert\n        /* \"#utility.yul\":5796:5976   */\n    tag_168:\n        /* \"#utility.yul\":5844:5921   */\n      0x4e487b7100000000000000000000000000000000000000000000000000000000\n        /* \"#utility.yul\":5841:5842   */\n      0x00\n        /* \"#utility.yul\":5834:5922   */\n      mstore\n        /* \"#utility.yul\":5941:5945   */\n      0x41\n        /* \"#utility.yul\":5938:5939   */\n      0x04\n        /* \"#utility.yul\":5931:5946   */\n      mstore\n        /* \"#utility.yul\":5965:5969   */\n      0x24\n        /* \"#utility.yul\":5962:5963   */\n      0x00\n        /* \"#utility.yul\":5955:5970   */\n      revert\n        /* \"#utility.yul\":5982:6263   */\n    tag_169:\n        /* \"#utility.yul\":6065:6092   */\n      tag_269\n        /* \"#utility.yul\":6087:6091   */\n      dup3\n        /* \"#utility.yul\":6065:6092   */\n      tag_154\n      jump\t// in\n    tag_269:\n        /* \"#utility.yul\":6057:6063   */\n      dup2\n        /* \"#utility.yul\":6053:6093   */\n      add\n        /* \"#utility.yul\":6195:6201   */\n      dup2\n        /* \"#utility.yul\":6183:6193   */\n      dup2\n        /* \"#utility.yul\":6180:6202   */\n      lt\n        /* \"#utility.yul\":6159:6177   */\n      0xffffffffffffffff\n        /* \"#utility.yul\":6147:6157   */\n      dup3\n        /* \"#utility.yul\":6144:6178   */\n      gt\n        /* \"#utility.yul\":6141:6203   */\n      or\n        /* \"#utility.yul\":6138:6226   */\n      iszero\n      tag_270\n      jumpi\n        /* \"#utility.yul\":6206:6224   */\n      tag_271\n      tag_168\n      jump\t// in\n    tag_271:\n        /* \"#utility.yul\":6138:6226   */\n    tag_270:\n        /* \"#utility.yul\":6246:6256   */\n      dup1\n        /* \"#utility.yul\":6242:6244   */\n      0x40\n        /* \"#utility.yul\":6235:6257   */\n      mstore\n        /* \"#utility.yul\":6025:6263   */\n      pop\n        /* \"#utility.yul\":5982:6263   */\n      pop\n      pop\n      jump\t// out\n        /* \"#utility.yul\":6269:6398   */\n    tag_170:\n        /* \"#utility.yul\":6303:6309   */\n      0x00\n        /* \"#utility.yul\":6330:6350   */\n      tag_273\n      tag_144\n      jump\t// in\n    tag_273:\n        /* \"#utility.yul\":6320:6350   */\n      swap1\n      pop\n        /* \"#utility.yul\":6359:6392   */\n      tag_274\n        /* \"#utility.yul\":6387:6391   */\n      dup3\n        /* \"#utility.yul\":6379:6385   */\n      dup3\n        /* \"#utility.yul\":6359:6392   */\n      tag_169\n      jump\t// in\n    tag_274:\n        /* \"#utility.yul\":6269:6398   */\n      swap2\n      swap1\n      pop\n      jump\t// out\n        /* \"#utility.yul\":6404:6712   */\n    tag_171:\n        /* \"#utility.yul\":6466:6470   */\n      0x00\n        /* \"#utility.yul\":6556:6574   */\n      0xffffffffffffffff\n        /* \"#utility.yul\":6548:6554   */\n      dup3\n        /* \"#utility.yul\":6545:6575   */\n      gt\n        /* \"#utility.yul\":6542:6598   */\n      iszero\n      tag_276\n      jumpi\n        /* \"#utility.yul\":6578:6596   */\n      tag_277\n      tag_168\n      jump\t// in\n    tag_277:\n        /* \"#utility.yul\":6542:6598   */\n    tag_276:\n        /* \"#utility.yul\":6616:6645   */\n      tag_278\n        /* \"#utility.yul\":6638:6644   */\n      dup3\n        /* \"#utility.yul\":6616:6645   */\n      tag_154\n      jump\t// in\n    tag_278:\n        /* \"#utility.yul\":6608:6645   */\n      swap1\n      pop\n        /* \"#utility.yul\":6700:6704   */\n      0x20\n        /* \"#utility.yul\":6694:6698   */\n      dup2\n        /* \"#utility.yul\":6690:6705   */\n      add\n        /* \"#utility.yul\":6682:6705   */\n      swap1\n      pop\n        /* \"#utility.yul\":6404:6712   */\n      swap2\n      swap1\n      pop\n      jump\t// out\n        /* \"#utility.yul\":6718:6866   */\n    tag_172:\n        /* \"#utility.yul\":6816:6822   */\n      dup3\n        /* \"#utility.yul\":6811:6814   */\n      dup2\n        /* \"#utility.yul\":6806:6809   */\n      dup4\n        /* \"#utility.yul\":6793:6823   */\n      calldatacopy\n        /* \"#utility.yul\":6857:6858   */\n      0x00\n        /* \"#utility.yul\":6848:6854   */\n      dup4\n        /* \"#utility.yul\":6843:6846   */\n      dup4\n        /* \"#utility.yul\":6839:6855   */\n      add\n        /* \"#utility.yul\":6832:6859   */\n      mstore\n        /* \"#utility.yul\":6718:6866   */\n      pop\n      pop\n      pop\n      jump\t// out\n        /* \"#utility.yul\":6872:7297   */\n    tag_173:\n        /* \"#utility.yul\":6950:6955   */\n      0x00\n        /* \"#utility.yul\":6975:7041   */\n      tag_281\n        /* \"#utility.yul\":6991:7040   */\n      tag_282\n        /* \"#utility.yul\":7033:7039   */\n      dup5\n        /* \"#utility.yul\":6991:7040   */\n      tag_171\n      jump\t// in\n    tag_282:\n        /* \"#utility.yul\":6975:7041   */\n      tag_170\n      jump\t// in\n    tag_281:\n        /* \"#utility.yul\":6966:7041   */\n      swap1\n      pop\n        /* \"#utility.yul\":7064:7070   */\n      dup3\n        /* \"#utility.yul\":7057:7062   */\n      dup2\n        /* \"#utility.yul\":7050:7071   */\n      mstore\n        /* \"#utility.yul\":7102:7106   */\n      0x20\n        /* \"#utility.yul\":7095:7100   */\n      dup2\n        /* \"#utility.yul\":7091:7107   */\n      add\n        /* \"#utility.yul\":7140:7143   */\n      dup5\n        /* \"#utility.yul\":7131:7137   */\n      dup5\n        /* \"#utility.yul\":7126:7129   */\n      dup5\n        /* \"#utility.yul\":7122:7138   */\n      add\n        /* \"#utility.yul\":7119:7144   */\n      gt\n        /* \"#utility.yul\":7116:7228   */\n      iszero\n      tag_283\n      jumpi\n        /* \"#utility.yul\":7147:7226   */\n      tag_284\n      tag_167\n      jump\t// in\n    tag_284:\n        /* \"#utility.yul\":7116:7228   */\n    tag_283:\n        /* \"#utility.yul\":7237:7291   */\n      tag_285\n        /* \"#utility.yul\":7284:7290   */\n      dup5\n        /* \"#utility.yul\":7279:7282   */\n      dup3\n        /* \"#utility.yul\":7274:7277   */\n      dup6\n        /* \"#utility.yul\":7237:7291   */\n      tag_172\n      jump\t// in\n    tag_285:\n        /* \"#utility.yul\":6956:7297   */\n      pop\n        /* \"#utility.yul\":6872:7297   */\n      swap4\n      swap3\n      pop\n      pop\n      pop\n      jump\t// out\n        /* \"#utility.yul\":7317:7657   */\n    tag_174:\n        /* \"#utility.yul\":7373:7378   */\n      0x00\n        /* \"#utility.yul\":7422:7425   */\n      dup3\n        /* \"#utility.yul\":7415:7419   */\n      0x1f\n        /* \"#utility.yul\":7407:7413   */\n      dup4\n        /* \"#utility.yul\":7403:7420   */\n      add\n        /* \"#utility.yul\":7399:7426   */\n      slt\n        /* \"#utility.yul\":7389:7511   */\n      tag_287\n      jumpi\n        /* \"#utility.yul\":7430:7509   */\n      tag_288\n      tag_166\n      jump\t// in\n    tag_288:\n        /* \"#utility.yul\":7389:7511   */\n    tag_287:\n        /* \"#utility.yul\":7547:7553   */\n      dup2\n        /* \"#utility.yul\":7534:7554   */\n      calldataload\n        /* \"#utility.yul\":7572:7651   */\n      tag_289\n        /* \"#utility.yul\":7647:7650   */\n      dup5\n        /* \"#utility.yul\":7639:7645   */\n      dup3\n        /* \"#utility.yul\":7632:7636   */\n      0x20\n        /* \"#utility.yul\":7624:7630   */\n      dup7\n        /* \"#utility.yul\":7620:7637   */\n      add\n        /* \"#utility.yul\":7572:7651   */\n      tag_173\n      jump\t// in\n    tag_289:\n        /* \"#utility.yul\":7563:7651   */\n      swap2\n      pop\n        /* \"#utility.yul\":7379:7657   */\n      pop\n        /* \"#utility.yul\":7317:7657   */\n      swap3\n      swap2\n      pop\n      pop\n      jump\t// out\n        /* \"#utility.yul\":7663:7785   */\n    tag_175:\n        /* \"#utility.yul\":7736:7760   */\n      tag_291\n        /* \"#utility.yul\":7754:7759   */\n      dup2\n        /* \"#utility.yul\":7736:7760   */\n      tag_158\n      jump\t// in\n    tag_291:\n        /* \"#utility.yul\":7729:7734   */\n      dup2\n        /* \"#utility.yul\":7726:7761   */\n      eq\n        /* \"#utility.yul\":7716:7779   */\n      tag_292\n      jumpi\n        /* \"#utility.yul\":7775:7776   */\n      0x00\n        /* \"#utility.yul\":7772:7773   */\n      dup1\n        /* \"#utility.yul\":7765:7777   */\n      revert\n        /* \"#utility.yul\":7716:7779   */\n    tag_292:\n        /* \"#utility.yul\":7663:7785   */\n      pop\n      jump\t// out\n        /* \"#utility.yul\":7791:7930   */\n    tag_176:\n        /* \"#utility.yul\":7837:7842   */\n      0x00\n        /* \"#utility.yul\":7875:7881   */\n      dup2\n        /* \"#utility.yul\":7862:7882   */\n      calldataload\n        /* \"#utility.yul\":7853:7882   */\n      swap1\n      pop\n        /* \"#utility.yul\":7891:7924   */\n      tag_294\n        /* \"#utility.yul\":7918:7923   */\n      dup2\n        /* \"#utility.yul\":7891:7924   */\n      tag_175\n      jump\t// in\n    tag_294:\n        /* \"#utility.yul\":7791:7930   */\n      swap3\n      swap2\n      pop\n      pop\n      jump\t// out\n        /* \"#utility.yul\":7936:9241   */\n    tag_35:\n        /* \"#utility.yul\":8052:8058   */\n      0x00\n        /* \"#utility.yul\":8060:8066   */\n      dup1\n        /* \"#utility.yul\":8068:8074   */\n      0x00\n        /* \"#utility.yul\":8076:8082   */\n      dup1\n        /* \"#utility.yul\":8125:8128   */\n      0x80\n        /* \"#utility.yul\":8113:8122   */\n      dup6\n        /* \"#utility.yul\":8104:8111   */\n      dup8\n        /* \"#utility.yul\":8100:8123   */\n      sub\n        /* \"#utility.yul\":8096:8129   */\n      slt\n        /* \"#utility.yul\":8093:8213   */\n      iszero\n      tag_296\n      jumpi\n        /* \"#utility.yul\":8132:8211   */\n      tag_297\n      tag_145\n      jump\t// in\n    tag_297:\n        /* \"#utility.yul\":8093:8213   */\n    tag_296:\n        /* \"#utility.yul\":8280:8281   */\n      0x00\n        /* \"#utility.yul\":8269:8278   */\n      dup6\n        /* \"#utility.yul\":8265:8282   */\n      add\n        /* \"#utility.yul\":8252:8283   */\n      calldataload\n        /* \"#utility.yul\":8310:8328   */\n      0xffffffffffffffff\n        /* \"#utility.yul\":8302:8308   */\n      dup2\n        /* \"#utility.yul\":8299:8329   */\n      gt\n        /* \"#utility.yul\":8296:8413   */\n      iszero\n      tag_298\n      jumpi\n        /* \"#utility.yul\":8332:8411   */\n      tag_299\n      tag_146\n      jump\t// in\n    tag_299:\n        /* \"#utility.yul\":8296:8413   */\n    tag_298:\n        /* \"#utility.yul\":8437:8500   */\n      tag_300\n        /* \"#utility.yul\":8492:8499   */\n      dup8\n        /* \"#utility.yul\":8483:8489   */\n      dup3\n        /* \"#utility.yul\":8472:8481   */\n      dup9\n        /* \"#utility.yul\":8468:8490   */\n      add\n        /* \"#utility.yul\":8437:8500   */\n      tag_174\n      jump\t// in\n    tag_300:\n        /* \"#utility.yul\":8427:8500   */\n      swap5\n      pop\n        /* \"#utility.yul\":8223:8510   */\n      pop\n        /* \"#utility.yul\":8577:8579   */\n      0x20\n        /* \"#utility.yul\":8566:8575   */\n      dup6\n        /* \"#utility.yul\":8562:8580   */\n      add\n        /* \"#utility.yul\":8549:8581   */\n      calldataload\n        /* \"#utility.yul\":8608:8626   */\n      0xffffffffffffffff\n        /* \"#utility.yul\":8600:8606   */\n      dup2\n        /* \"#utility.yul\":8597:8627   */\n      gt\n        /* \"#utility.yul\":8594:8711   */\n      iszero\n      tag_301\n      jumpi\n        /* \"#utility.yul\":8630:8709   */\n      tag_302\n      tag_146\n      jump\t// in\n    tag_302:\n        /* \"#utility.yul\":8594:8711   */\n    tag_301:\n        /* \"#utility.yul\":8735:8798   */\n      tag_303\n        /* \"#utility.yul\":8790:8797   */\n      dup8\n        /* \"#utility.yul\":8781:8787   */\n      dup3\n        /* \"#utility.yul\":8770:8779   */\n      dup9\n        /* \"#utility.yul\":8766:8788   */\n      add\n        /* \"#utility.yul\":8735:8798   */\n      tag_174\n      jump\t// in\n    tag_303:\n        /* \"#utility.yul\":8725:8798   */\n      swap4\n      pop\n        /* \"#utility.yul\":8520:8808   */\n      pop\n        /* \"#utility.yul\":8875:8877   */\n      0x40\n        /* \"#utility.yul\":8864:8873   */\n      dup6\n        /* \"#utility.yul\":8860:8878   */\n      add\n        /* \"#utility.yul\":8847:8879   */\n      calldataload\n        /* \"#utility.yul\":8906:8924   */\n      0xffffffffffffffff\n        /* \"#utility.yul\":8898:8904   */\n      dup2\n        /* \"#utility.yul\":8895:8925   */\n      gt\n        /* \"#utility.yul\":8892:9009   */\n      iszero\n      tag_304\n      jumpi\n        /* \"#utility.yul\":8928:9007   */\n      tag_305\n      tag_146\n      jump\t// in\n    tag_305:\n        /* \"#utility.yul\":8892:9009   */\n    tag_304:\n        /* \"#utility.yul\":9033:9096   */\n      tag_306\n        /* \"#utility.yul\":9088:9095   */\n      dup8\n        /* \"#utility.yul\":9079:9085   */\n      dup3\n        /* \"#utility.yul\":9068:9077   */\n      dup9\n        /* \"#utility.yul\":9064:9086   */\n      add\n        /* \"#utility.yul\":9033:9096   */\n      tag_174\n      jump\t// in\n    tag_306:\n        /* \"#utility.yul\":9023:9096   */\n      swap3\n      pop\n        /* \"#utility.yul\":8818:9106   */\n      pop\n        /* \"#utility.yul\":9145:9147   */\n      0x60\n        /* \"#utility.yul\":9171:9224   */\n      tag_307\n        /* \"#utility.yul\":9216:9223   */\n      dup8\n        /* \"#utility.yul\":9207:9213   */\n      dup3\n        /* \"#utility.yul\":9196:9205   */\n      dup9\n        /* \"#utility.yul\":9192:9214   */\n      add\n        /* \"#utility.yul\":9171:9224   */\n      tag_176\n      jump\t// in\n    tag_307:\n        /* \"#utility.yul\":9161:9224   */\n      swap2\n      pop\n        /* \"#utility.yul\":9116:9234   */\n      pop\n        /* \"#utility.yul\":7936:9241   */\n      swap3\n      swap6\n      swap2\n      swap5\n      pop\n      swap3\n      pop\n      jump\t// out\n        /* \"#utility.yul\":9247:9365   */\n    tag_177:\n        /* \"#utility.yul\":9334:9358   */\n      tag_309\n        /* \"#utility.yul\":9352:9357   */\n      dup2\n        /* \"#utility.yul\":9334:9358   */\n      tag_147\n      jump\t// in\n    tag_309:\n        /* \"#utility.yul\":9329:9332   */\n      dup3\n        /* \"#utility.yul\":9322:9359   */\n      mstore\n        /* \"#utility.yul\":9247:9365   */\n      pop\n      pop\n      jump\t// out\n        /* \"#utility.yul\":9371:9540   */\n    tag_178:\n        /* \"#utility.yul\":9455:9466   */\n      0x00\n        /* \"#utility.yul\":9489:9495   */\n      dup3\n        /* \"#utility.yul\":9484:9487   */\n      dup3\n        /* \"#utility.yul\":9477:9496   */\n      mstore\n        /* \"#utility.yul\":9529:9533   */\n      0x20\n        /* \"#utility.yul\":9524:9527   */\n      dup3\n        /* \"#utility.yul\":9520:9534   */\n      add\n        /* \"#utility.yul\":9505:9534   */\n      swap1\n      pop\n        /* \"#utility.yul\":9371:9540   */\n      swap3\n      swap2\n      pop\n      pop\n      jump\t// out\n        /* \"#utility.yul\":9546:9923   */\n    tag_179:\n        /* \"#utility.yul\":9634:9637   */\n      0x00\n        /* \"#utility.yul\":9662:9701   */\n      tag_312\n        /* \"#utility.yul\":9695:9700   */\n      dup3\n        /* \"#utility.yul\":9662:9701   */\n      tag_151\n      jump\t// in\n    tag_312:\n        /* \"#utility.yul\":9717:9788   */\n      tag_313\n        /* \"#utility.yul\":9781:9787   */\n      dup2\n        /* \"#utility.yul\":9776:9779   */\n      dup6\n        /* \"#utility.yul\":9717:9788   */\n      tag_178\n      jump\t// in\n    tag_313:\n        /* \"#utility.yul\":9710:9788   */\n      swap4\n      pop\n        /* \"#utility.yul\":9797:9862   */\n      tag_314\n        /* \"#utility.yul\":9855:9861   */\n      dup2\n        /* \"#utility.yul\":9850:9853   */\n      dup6\n        /* \"#utility.yul\":9843:9847   */\n      0x20\n        /* \"#utility.yul\":9836:9841   */\n      dup7\n        /* \"#utility.yul\":9832:9848   */\n      add\n        /* \"#utility.yul\":9797:9862   */\n      tag_153\n      jump\t// in\n    tag_314:\n        /* \"#utility.yul\":9887:9916   */\n      tag_315\n        /* \"#utility.yul\":9909:9915   */\n      dup2\n        /* \"#utility.yul\":9887:9916   */\n      tag_154\n      jump\t// in\n    tag_315:\n        /* \"#utility.yul\":9882:9885   */\n      dup5\n        /* \"#utility.yul\":9878:9917   */\n      add\n        /* \"#utility.yul\":9871:9917   */\n      swap2\n      pop\n        /* \"#utility.yul\":9638:9923   */\n      pop\n        /* \"#utility.yul\":9546:9923   */\n      swap3\n      swap2\n      pop\n      pop\n      jump\t// out\n        /* \"#utility.yul\":9929:10047   */\n    tag_180:\n        /* \"#utility.yul\":10016:10040   */\n      tag_317\n        /* \"#utility.yul\":10034:10039   */\n      dup2\n        /* \"#utility.yul\":10016:10040   */\n      tag_158\n      jump\t// in\n    tag_317:\n        /* \"#utility.yul\":10011:10014   */\n      dup3\n        /* \"#utility.yul\":10004:10041   */\n      mstore\n        /* \"#utility.yul\":9929:10047   */\n      pop\n      pop\n      jump\t// out\n        /* \"#utility.yul\":10053:11089   */\n    tag_41:\n        /* \"#utility.yul\":10340:10344   */\n      0x00\n        /* \"#utility.yul\":10378:10381   */\n      0xc0\n        /* \"#utility.yul\":10367:10376   */\n      dup3\n        /* \"#utility.yul\":10363:10382   */\n      add\n        /* \"#utility.yul\":10355:10382   */\n      swap1\n      pop\n        /* \"#utility.yul\":10392:10463   */\n      tag_319\n        /* \"#utility.yul\":10460:10461   */\n      0x00\n        /* \"#utility.yul\":10449:10458   */\n      dup4\n        /* \"#utility.yul\":10445:10462   */\n      add\n        /* \"#utility.yul\":10436:10442   */\n      dup10\n        /* \"#utility.yul\":10392:10463   */\n      tag_177\n      jump\t// in\n    tag_319:\n        /* \"#utility.yul\":10510:10519   */\n      dup2\n        /* \"#utility.yul\":10504:10508   */\n      dup2\n        /* \"#utility.yul\":10500:10520   */\n      sub\n        /* \"#utility.yul\":10495:10497   */\n      0x20\n        /* \"#utility.yul\":10484:10493   */\n      dup4\n        /* \"#utility.yul\":10480:10498   */\n      add\n        /* \"#utility.yul\":10473:10521   */\n      mstore\n        /* \"#utility.yul\":10538:10616   */\n      tag_320\n        /* \"#utility.yul\":10611:10615   */\n      dup2\n        /* \"#utility.yul\":10602:10608   */\n      dup9\n        /* \"#utility.yul\":10538:10616   */\n      tag_179\n      jump\t// in\n    tag_320:\n        /* \"#utility.yul\":10530:10616   */\n      swap1\n      pop\n        /* \"#utility.yul\":10663:10672   */\n      dup2\n        /* \"#utility.yul\":10657:10661   */\n      dup2\n        /* \"#utility.yul\":10653:10673   */\n      sub\n        /* \"#utility.yul\":10648:10650   */\n      0x40\n        /* \"#utility.yul\":10637:10646   */\n      dup4\n        /* \"#utility.yul\":10633:10651   */\n      add\n        /* \"#utility.yul\":10626:10674   */\n      mstore\n        /* \"#utility.yul\":10691:10769   */\n      tag_321\n        /* \"#utility.yul\":10764:10768   */\n      dup2\n        /* \"#utility.yul\":10755:10761   */\n      dup8\n        /* \"#utility.yul\":10691:10769   */\n      tag_179\n      jump\t// in\n    tag_321:\n        /* \"#utility.yul\":10683:10769   */\n      swap1\n      pop\n        /* \"#utility.yul\":10816:10825   */\n      dup2\n        /* \"#utility.yul\":10810:10814   */\n      dup2\n        /* \"#utility.yul\":10806:10826   */\n      sub\n        /* \"#utility.yul\":10801:10803   */\n      0x60\n        /* \"#utility.yul\":10790:10799   */\n      dup4\n        /* \"#utility.yul\":10786:10804   */\n      add\n        /* \"#utility.yul\":10779:10827   */\n      mstore\n        /* \"#utility.yul\":10844:10922   */\n      tag_322\n        /* \"#utility.yul\":10917:10921   */\n      dup2\n        /* \"#utility.yul\":10908:10914   */\n      dup7\n        /* \"#utility.yul\":10844:10922   */\n      tag_179\n      jump\t// in\n    tag_322:\n        /* \"#utility.yul\":10836:10922   */\n      swap1\n      pop\n        /* \"#utility.yul\":10932:10999   */\n      tag_323\n        /* \"#utility.yul\":10994:10997   */\n      0x80\n        /* \"#utility.yul\":10983:10992   */\n      dup4\n        /* \"#utility.yul\":10979:10998   */\n      add\n        /* \"#utility.yul\":10970:10976   */\n      dup6\n        /* \"#utility.yul\":10932:10999   */\n      tag_165\n      jump\t// in\n    tag_323:\n        /* \"#utility.yul\":11009:11082   */\n      tag_324\n        /* \"#utility.yul\":11077:11080   */\n      0xa0\n        /* \"#utility.yul\":11066:11075   */\n      dup4\n        /* \"#utility.yul\":11062:11081   */\n      add\n        /* \"#utility.yul\":11053:11059   */\n      dup5\n        /* \"#utility.yul\":11009:11082   */\n      tag_180\n      jump\t// in\n    tag_324:\n        /* \"#utility.yul\":10053:11089   */\n      swap8\n      swap7\n      pop\n      pop\n      pop\n      pop\n      pop\n      pop\n      pop\n      jump\t// out\n        /* \"#utility.yul\":11095:11604   */\n    tag_47:\n        /* \"#utility.yul\":11164:11170   */\n      0x00\n        /* \"#utility.yul\":11213:11215   */\n      0x20\n        /* \"#utility.yul\":11201:11210   */\n      dup3\n        /* \"#utility.yul\":11192:11199   */\n      dup5\n        /* \"#utility.yul\":11188:11211   */\n      sub\n        /* \"#utility.yul\":11184:11216   */\n      slt\n        /* \"#utility.yul\":11181:11300   */\n      iszero\n      tag_326\n      jumpi\n        /* \"#utility.yul\":11219:11298   */\n      tag_327\n      tag_145\n      jump\t// in\n    tag_327:\n        /* \"#utility.yul\":11181:11300   */\n    tag_326:\n        /* \"#utility.yul\":11367:11368   */\n      0x00\n        /* \"#utility.yul\":11356:11365   */\n      dup3\n        /* \"#utility.yul\":11352:11369   */\n      add\n        /* \"#utility.yul\":11339:11370   */\n      calldataload\n        /* \"#utility.yul\":11397:11415   */\n      0xffffffffffffffff\n        /* \"#utility.yul\":11389:11395   */\n      dup2\n        /* \"#utility.yul\":11386:11416   */\n      gt\n        /* \"#utility.yul\":11383:11500   */\n      iszero\n      tag_328\n      jumpi\n        /* \"#utility.yul\":11419:11498   */\n      tag_329\n      tag_146\n      jump\t// in\n    tag_329:\n        /* \"#utility.yul\":11383:11500   */\n    tag_328:\n        /* \"#utility.yul\":11524:11587   */\n      tag_330\n        /* \"#utility.yul\":11579:11586   */\n      dup5\n        /* \"#utility.yul\":11570:11576   */\n      dup3\n        /* \"#utility.yul\":11559:11568   */\n      dup6\n        /* \"#utility.yul\":11555:11577   */\n      add\n        /* \"#utility.yul\":11524:11587   */\n      tag_174\n      jump\t// in\n    tag_330:\n        /* \"#utility.yul\":11514:11587   */\n      swap2\n      pop\n        /* \"#utility.yul\":11310:11597   */\n      pop\n        /* \"#utility.yul\":11095:11604   */\n      swap3\n      swap2\n      pop\n      pop\n      jump\t// out\n        /* \"#utility.yul\":11610:11930   */\n    tag_50:\n        /* \"#utility.yul\":11725:11729   */\n      0x00\n        /* \"#utility.yul\":11763:11765   */\n      0x40\n        /* \"#utility.yul\":11752:11761   */\n      dup3\n        /* \"#utility.yul\":11748:11766   */\n      add\n        /* \"#utility.yul\":11740:11766   */\n      swap1\n      pop\n        /* \"#utility.yul\":11776:11841   */\n      tag_332\n        /* \"#utility.yul\":11838:11839   */\n      0x00\n        /* \"#utility.yul\":11827:11836   */\n      dup4\n        /* \"#utility.yul\":11823:11840   */\n      add\n        /* \"#utility.yul\":11814:11820   */\n      dup6\n        /* \"#utility.yul\":11776:11841   */\n      tag_165\n      jump\t// in\n    tag_332:\n        /* \"#utility.yul\":11851:11923   */\n      tag_333\n        /* \"#utility.yul\":11919:11921   */\n      0x20\n        /* \"#utility.yul\":11908:11917   */\n      dup4\n        /* \"#utility.yul\":11904:11922   */\n      add\n        /* \"#utility.yul\":11895:11901   */\n      dup5\n        /* \"#utility.yul\":11851:11923   */\n      tag_180\n      jump\t// in\n    tag_333:\n        /* \"#utility.yul\":11610:11930   */\n      swap4\n      swap3\n      pop\n      pop\n      pop\n      jump\t// out\n        /* \"#utility.yul\":11936:12158   */\n    tag_54:\n        /* \"#utility.yul\":12029:12033   */\n      0x00\n        /* \"#utility.yul\":12067:12069   */\n      0x20\n        /* \"#utility.yul\":12056:12065   */\n      dup3\n        /* \"#utility.yul\":12052:12070   */\n      add\n        /* \"#utility.yul\":12044:12070   */\n      swap1\n      pop\n        /* \"#utility.yul\":12080:12151   */\n      tag_335\n        /* \"#utility.yul\":12148:12149   */\n      0x00\n        /* \"#utility.yul\":12137:12146   */\n      dup4\n        /* \"#utility.yul\":12133:12150   */\n      add\n        /* \"#utility.yul\":12124:12130   */\n      dup5\n        /* \"#utility.yul\":12080:12151   */\n      tag_177\n      jump\t// in\n    tag_335:\n        /* \"#utility.yul\":11936:12158   */\n      swap3\n      swap2\n      pop\n      pop\n      jump\t// out\n        /* \"#utility.yul\":12164:12818   */\n    tag_57:\n        /* \"#utility.yul\":12242:12248   */\n      0x00\n        /* \"#utility.yul\":12250:12256   */\n      dup1\n        /* \"#utility.yul\":12299:12301   */\n      0x40\n        /* \"#utility.yul\":12287:12296   */\n      dup4\n        /* \"#utility.yul\":12278:12285   */\n      dup6\n        /* \"#utility.yul\":12274:12297   */\n      sub\n        /* \"#utility.yul\":12270:12302   */\n      slt\n        /* \"#utility.yul\":12267:12386   */\n      iszero\n      tag_337\n      jumpi\n        /* \"#utility.yul\":12305:12384   */\n      tag_338\n      tag_145\n      jump\t// in\n    tag_338:\n        /* \"#utility.yul\":12267:12386   */\n    tag_337:\n        /* \"#utility.yul\":12453:12454   */\n      0x00\n        /* \"#utility.yul\":12442:12451   */\n      dup4\n        /* \"#utility.yul\":12438:12455   */\n      add\n        /* \"#utility.yul\":12425:12456   */\n      calldataload\n        /* \"#utility.yul\":12483:12501   */\n      0xffffffffffffffff\n        /* \"#utility.yul\":12475:12481   */\n      dup2\n        /* \"#utility.yul\":12472:12502   */\n      gt\n        /* \"#utility.yul\":12469:12586   */\n      iszero\n      tag_339\n      jumpi\n        /* \"#utility.yul\":12505:12584   */\n      tag_340\n      tag_146\n      jump\t// in\n    tag_340:\n        /* \"#utility.yul\":12469:12586   */\n    tag_339:\n        /* \"#utility.yul\":12610:12673   */\n      tag_341\n        /* \"#utility.yul\":12665:12672   */\n      dup6\n        /* \"#utility.yul\":12656:12662   */\n      dup3\n        /* \"#utility.yul\":12645:12654   */\n      dup7\n        /* \"#utility.yul\":12641:12663   */\n      add\n        /* \"#utility.yul\":12610:12673   */\n      tag_174\n      jump\t// in\n    tag_341:\n        /* \"#utility.yul\":12600:12673   */\n      swap3\n      pop\n        /* \"#utility.yul\":12396:12683   */\n      pop\n        /* \"#utility.yul\":12722:12724   */\n      0x20\n        /* \"#utility.yul\":12748:12801   */\n      tag_342\n        /* \"#utility.yul\":12793:12800   */\n      dup6\n        /* \"#utility.yul\":12784:12790   */\n      dup3\n        /* \"#utility.yul\":12773:12782   */\n      dup7\n        /* \"#utility.yul\":12769:12791   */\n      add\n        /* \"#utility.yul\":12748:12801   */\n      tag_176\n      jump\t// in\n    tag_342:\n        /* \"#utility.yul\":12738:12801   */\n      swap2\n      pop\n        /* \"#utility.yul\":12693:12811   */\n      pop\n        /* \"#utility.yul\":12164:12818   */\n      swap3\n      pop\n      swap3\n      swap1\n      pop\n      jump\t// out\n        /* \"#utility.yul\":12824:12942   */\n    tag_181:\n        /* \"#utility.yul\":12911:12935   */\n      tag_344\n        /* \"#utility.yul\":12929:12934   */\n      dup2\n        /* \"#utility.yul\":12911:12935   */\n      tag_162\n      jump\t// in\n    tag_344:\n        /* \"#utility.yul\":12906:12909   */\n      dup3\n        /* \"#utility.yul\":12899:12936   */\n      mstore\n        /* \"#utility.yul\":12824:12942   */\n      pop\n      pop\n      jump\t// out\n        /* \"#utility.yul\":12948:13170   */\n    tag_62:\n        /* \"#utility.yul\":13041:13045   */\n      0x00\n        /* \"#utility.yul\":13079:13081   */\n      0x20\n        /* \"#utility.yul\":13068:13077   */\n      dup3\n        /* \"#utility.yul\":13064:13082   */\n      add\n        /* \"#utility.yul\":13056:13082   */\n      swap1\n      pop\n        /* \"#utility.yul\":13092:13163   */\n      tag_346\n        /* \"#utility.yul\":13160:13161   */\n      0x00\n        /* \"#utility.yul\":13149:13158   */\n      dup4\n        /* \"#utility.yul\":13145:13162   */\n      add\n        /* \"#utility.yul\":13136:13142   */\n      dup5\n        /* \"#utility.yul\":13092:13163   */\n      tag_181\n      jump\t// in\n    tag_346:\n        /* \"#utility.yul\":12948:13170   */\n      swap3\n      swap2\n      pop\n      pop\n      jump\t// out\n        /* \"#utility.yul\":13176:13356   */\n    tag_182:\n        /* \"#utility.yul\":13224:13301   */\n      0x4e487b7100000000000000000000000000000000000000000000000000000000\n        /* \"#utility.yul\":13221:13222   */\n      0x00\n        /* \"#utility.yul\":13214:13302   */\n      mstore\n        /* \"#utility.yul\":13321:13325   */\n      0x22\n        /* \"#utility.yul\":13318:13319   */\n      0x04\n        /* \"#utility.yul\":13311:13326   */\n      mstore\n        /* \"#utility.yul\":13345:13349   */\n      0x24\n        /* \"#utility.yul\":13342:13343   */\n      0x00\n        /* \"#utility.yul\":13335:13350   */\n      revert\n        /* \"#utility.yul\":13362:13682   */\n    tag_67:\n        /* \"#utility.yul\":13406:13412   */\n      0x00\n        /* \"#utility.yul\":13443:13444   */\n      0x02\n        /* \"#utility.yul\":13437:13441   */\n      dup3\n        /* \"#utility.yul\":13433:13445   */\n      div\n        /* \"#utility.yul\":13423:13445   */\n      swap1\n      pop\n        /* \"#utility.yul\":13490:13491   */\n      0x01\n        /* \"#utility.yul\":13484:13488   */\n      dup3\n        /* \"#utility.yul\":13480:13492   */\n      and\n        /* \"#utility.yul\":13511:13529   */\n      dup1\n        /* \"#utility.yul\":13501:13582   */\n      tag_349\n      jumpi\n        /* \"#utility.yul\":13567:13571   */\n      0x7f\n        /* \"#utility.yul\":13559:13565   */\n      dup3\n        /* \"#utility.yul\":13555:13572   */\n      and\n        /* \"#utility.yul\":13545:13572   */\n      swap2\n      pop\n        /* \"#utility.yul\":13501:13582   */\n    tag_349:\n        /* \"#utility.yul\":13629:13631   */\n      0x20\n        /* \"#utility.yul\":13621:13627   */\n      dup3\n        /* \"#utility.yul\":13618:13632   */\n      lt\n        /* \"#utility.yul\":13598:13616   */\n      dup2\n        /* \"#utility.yul\":13595:13633   */\n      sub\n        /* \"#utility.yul\":13592:13676   */\n      tag_350\n      jumpi\n        /* \"#utility.yul\":13648:13666   */\n      tag_351\n      tag_182\n      jump\t// in\n    tag_351:\n        /* \"#utility.yul\":13592:13676   */\n    tag_350:\n        /* \"#utility.yul\":13413:13682   */\n      pop\n        /* \"#utility.yul\":13362:13682   */\n      swap2\n      swap1\n      pop\n      jump\t// out\n        /* \"#utility.yul\":13688:13859   */\n    tag_183:\n        /* \"#utility.yul\":13828:13851   */\n      0x4365727469666963617465206e6f7420666f756e640000000000000000000000\n        /* \"#utility.yul\":13824:13825   */\n      0x00\n        /* \"#utility.yul\":13816:13822   */\n      dup3\n        /* \"#utility.yul\":13812:13826   */\n      add\n        /* \"#utility.yul\":13805:13852   */\n      mstore\n        /* \"#utility.yul\":13688:13859   */\n      pop\n      jump\t// out\n        /* \"#utility.yul\":13865:14231   */\n    tag_184:\n        /* \"#utility.yul\":14007:14010   */\n      0x00\n        /* \"#utility.yul\":14028:14095   */\n      tag_354\n        /* \"#utility.yul\":14092:14094   */\n      0x15\n        /* \"#utility.yul\":14087:14090   */\n      dup4\n        /* \"#utility.yul\":14028:14095   */\n      tag_178\n      jump\t// in\n    tag_354:\n        /* \"#utility.yul\":14021:14095   */\n      swap2\n      pop\n        /* \"#utility.yul\":14104:14197   */\n      tag_355\n        /* \"#utility.yul\":14193:14196   */\n      dup3\n        /* \"#utility.yul\":14104:14197   */\n      tag_183\n      jump\t// in\n    tag_355:\n        /* \"#utility.yul\":14222:14224   */\n      0x20\n        /* \"#utility.yul\":14217:14220   */\n      dup3\n        /* \"#utility.yul\":14213:14225   */\n      add\n        /* \"#utility.yul\":14206:14225   */\n      swap1\n      pop\n        /* \"#utility.yul\":13865:14231   */\n      swap2\n      swap1\n      pop\n      jump\t// out\n        /* \"#utility.yul\":14237:14656   */\n    tag_84:\n        /* \"#utility.yul\":14403:14407   */\n      0x00\n        /* \"#utility.yul\":14441:14443   */\n      0x20\n        /* \"#utility.yul\":14430:14439   */\n      dup3\n        /* \"#utility.yul\":14426:14444   */\n      add\n        /* \"#utility.yul\":14418:14444   */\n      swap1\n      pop\n        /* \"#utility.yul\":14490:14499   */\n      dup2\n        /* \"#utility.yul\":14484:14488   */\n      dup2\n        /* \"#utility.yul\":14480:14500   */\n      sub\n        /* \"#utility.yul\":14476:14477   */\n      0x00\n        /* \"#utility.yul\":14465:14474   */\n      dup4\n        /* \"#utility.yul\":14461:14478   */\n      add\n        /* \"#utility.yul\":14454:14501   */\n      mstore\n        /* \"#utility.yul\":14518:14649   */\n      tag_357\n        /* \"#utility.yul\":14644:14648   */\n      dup2\n        /* \"#utility.yul\":14518:14649   */\n      tag_184\n      jump\t// in\n    tag_357:\n        /* \"#utility.yul\":14510:14649   */\n      swap1\n      pop\n        /* \"#utility.yul\":14237:14656   */\n      swap2\n      swap1\n      pop\n      jump\t// out\n        /* \"#utility.yul\":14662:14882   */\n    tag_185:\n        /* \"#utility.yul\":14802:14836   */\n      0x4f6e6c792061646d696e2063616e2063616c6c20746869732066756e6374696f\n        /* \"#utility.yul\":14798:14799   */\n      0x00\n        /* \"#utility.yul\":14790:14796   */\n      dup3\n        /* \"#utility.yul\":14786:14800   */\n      add\n        /* \"#utility.yul\":14779:14837   */\n      mstore\n        /* \"#utility.yul\":14871:14874   */\n      0x6e00000000000000000000000000000000000000000000000000000000000000\n        /* \"#utility.yul\":14866:14868   */\n      0x20\n        /* \"#utility.yul\":14858:14864   */\n      dup3\n        /* \"#utility.yul\":14854:14869   */\n      add\n        /* \"#utility.yul\":14847:14875   */\n      mstore\n        /* \"#utility.yul\":14662:14882   */\n      pop\n      jump\t// out\n        /* \"#utility.yul\":14888:15254   */\n    tag_186:\n        /* \"#utility.yul\":15030:15033   */\n      0x00\n        /* \"#utility.yul\":15051:15118   */\n      tag_360\n        /* \"#utility.yul\":15115:15117   */\n      0x21\n        /* \"#utility.yul\":15110:15113   */\n      dup4\n        /* \"#utility.yul\":15051:15118   */\n      tag_178\n      jump\t// in\n    tag_360:\n        /* \"#utility.yul\":15044:15118   */\n      swap2\n      pop\n        /* \"#utility.yul\":15127:15220   */\n      tag_361\n        /* \"#utility.yul\":15216:15219   */\n      dup3\n        /* \"#utility.yul\":15127:15220   */\n      tag_185\n      jump\t// in\n    tag_361:\n        /* \"#utility.yul\":15245:15247   */\n      0x40\n        /* \"#utility.yul\":15240:15243   */\n      dup3\n        /* \"#utility.yul\":15236:15248   */\n      add\n        /* \"#utility.yul\":15229:15248   */\n      swap1\n      pop\n        /* \"#utility.yul\":14888:15254   */\n      swap2\n      swap1\n      pop\n      jump\t// out\n        /* \"#utility.yul\":15260:15679   */\n    tag_88:\n        /* \"#utility.yul\":15426:15430   */\n      0x00\n        /* \"#utility.yul\":15464:15466   */\n      0x20\n        /* \"#utility.yul\":15453:15462   */\n      dup3\n        /* \"#utility.yul\":15449:15467   */\n      add\n        /* \"#utility.yul\":15441:15467   */\n      swap1\n      pop\n        /* \"#utility.yul\":15513:15522   */\n      dup2\n        /* \"#utility.yul\":15507:15511   */\n      dup2\n        /* \"#utility.yul\":15503:15523   */\n      sub\n        /* \"#utility.yul\":15499:15500   */\n      0x00\n        /* \"#utility.yul\":15488:15497   */\n      dup4\n        /* \"#utility.yul\":15484:15501   */\n      add\n        /* \"#utility.yul\":15477:15524   */\n      mstore\n        /* \"#utility.yul\":15541:15672   */\n      tag_363\n        /* \"#utility.yul\":15667:15671   */\n      dup2\n        /* \"#utility.yul\":15541:15672   */\n      tag_186\n      jump\t// in\n    tag_363:\n        /* \"#utility.yul\":15533:15672   */\n      swap1\n      pop\n        /* \"#utility.yul\":15260:15679   */\n      swap2\n      swap1\n      pop\n      jump\t// out\n        /* \"#utility.yul\":15685:15917   */\n    tag_187:\n        /* \"#utility.yul\":15825:15859   */\n      0x4f6e6c7920617574686f72697a6564206973737565722063616e2063616c6c20\n        /* \"#utility.yul\":15821:15822   */\n      0x00\n        /* \"#utility.yul\":15813:15819   */\n      dup3\n        /* \"#utility.yul\":15809:15823   */\n      add\n        /* \"#utility.yul\":15802:15860   */\n      mstore\n        /* \"#utility.yul\":15894:15909   */\n      0x746869732066756e6374696f6e00000000000000000000000000000000000000\n        /* \"#utility.yul\":15889:15891   */\n      0x20\n        /* \"#utility.yul\":15881:15887   */\n      dup3\n        /* \"#utility.yul\":15877:15892   */\n      add\n        /* \"#utility.yul\":15870:15910   */\n      mstore\n        /* \"#utility.yul\":15685:15917   */\n      pop\n      jump\t// out\n        /* \"#utility.yul\":15923:16289   */\n    tag_188:\n        /* \"#utility.yul\":16065:16068   */\n      0x00\n        /* \"#utility.yul\":16086:16153   */\n      tag_366\n        /* \"#utility.yul\":16150:16152   */\n      0x2d\n        /* \"#utility.yul\":16145:16148   */\n      dup4\n        /* \"#utility.yul\":16086:16153   */\n      tag_178\n      jump\t// in\n    tag_366:\n        /* \"#utility.yul\":16079:16153   */\n      swap2\n      pop\n        /* \"#utility.yul\":16162:16255   */\n      tag_367\n        /* \"#utility.yul\":16251:16254   */\n      dup3\n        /* \"#utility.yul\":16162:16255   */\n      tag_187\n      jump\t// in\n    tag_367:\n        /* \"#utility.yul\":16280:16282   */\n      0x40\n        /* \"#utility.yul\":16275:16278   */\n      dup3\n        /* \"#utility.yul\":16271:16283   */\n      add\n        /* \"#utility.yul\":16264:16283   */\n      swap1\n      pop\n        /* \"#utility.yul\":15923:16289   */\n      swap2\n      swap1\n      pop\n      jump\t// out\n        /* \"#utility.yul\":16295:16714   */\n    tag_99:\n        /* \"#utility.yul\":16461:16465   */\n      0x00\n        /* \"#utility.yul\":16499:16501   */\n      0x20\n        /* \"#utility.yul\":16488:16497   */\n      dup3\n        /* \"#utility.yul\":16484:16502   */\n      add\n        /* \"#utility.yul\":16476:16502   */\n      swap1\n      pop\n        /* \"#utility.yul\":16548:16557   */\n      dup2\n        /* \"#utility.yul\":16542:16546   */\n      dup2\n        /* \"#utility.yul\":16538:16558   */\n      sub\n        /* \"#utility.yul\":16534:16535   */\n      0x00\n        /* \"#utility.yul\":16523:16532   */\n      dup4\n        /* \"#utility.yul\":16519:16536   */\n      add\n        /* \"#utility.yul\":16512:16559   */\n      mstore\n        /* \"#utility.yul\":16576:16707   */\n      tag_369\n        /* \"#utility.yul\":16702:16706   */\n      dup2\n        /* \"#utility.yul\":16576:16707   */\n      tag_188\n      jump\t// in\n    tag_369:\n        /* \"#utility.yul\":16568:16707   */\n      swap1\n      pop\n        /* \"#utility.yul\":16295:16714   */\n      swap2\n      swap1\n      pop\n      jump\t// out\n        /* \"#utility.yul\":16720:16868   */\n    tag_189:\n        /* \"#utility.yul\":16822:16833   */\n      0x00\n        /* \"#utility.yul\":16859:16862   */\n      dup2\n        /* \"#utility.yul\":16844:16862   */\n      swap1\n      pop\n        /* \"#utility.yul\":16720:16868   */\n      swap3\n      swap2\n      pop\n      pop\n      jump\t// out\n        /* \"#utility.yul\":16874:17264   */\n    tag_190:\n        /* \"#utility.yul\":16980:16983   */\n      0x00\n        /* \"#utility.yul\":17008:17047   */\n      tag_372\n        /* \"#utility.yul\":17041:17046   */\n      dup3\n        /* \"#utility.yul\":17008:17047   */\n      tag_151\n      jump\t// in\n    tag_372:\n        /* \"#utility.yul\":17063:17152   */\n      tag_373\n        /* \"#utility.yul\":17145:17151   */\n      dup2\n        /* \"#utility.yul\":17140:17143   */\n      dup6\n        /* \"#utility.yul\":17063:17152   */\n      tag_189\n      jump\t// in\n    tag_373:\n        /* \"#utility.yul\":17056:17152   */\n      swap4\n      pop\n        /* \"#utility.yul\":17161:17226   */\n      tag_374\n        /* \"#utility.yul\":17219:17225   */\n      dup2\n        /* \"#utility.yul\":17214:17217   */\n      dup6\n        /* \"#utility.yul\":17207:17211   */\n      0x20\n        /* \"#utility.yul\":17200:17205   */\n      dup7\n        /* \"#utility.yul\":17196:17212   */\n      add\n        /* \"#utility.yul\":17161:17226   */\n      tag_153\n      jump\t// in\n    tag_374:\n        /* \"#utility.yul\":17251:17257   */\n      dup1\n        /* \"#utility.yul\":17246:17249   */\n      dup5\n        /* \"#utility.yul\":17242:17258   */\n      add\n        /* \"#utility.yul\":17235:17258   */\n      swap2\n      pop\n        /* \"#utility.yul\":16984:17264   */\n      pop\n        /* \"#utility.yul\":16874:17264   */\n      swap3\n      swap2\n      pop\n      pop\n      jump\t// out\n        /* \"#utility.yul\":17270:17545   */\n    tag_102:\n        /* \"#utility.yul\":17402:17405   */\n      0x00\n        /* \"#utility.yul\":17424:17519   */\n      tag_376\n        /* \"#utility.yul\":17515:17518   */\n      dup3\n        /* \"#utility.yul\":17506:17512   */\n      dup5\n        /* \"#utility.yul\":17424:17519   */\n      tag_190\n      jump\t// in\n    tag_376:\n        /* \"#utility.yul\":17417:17519   */\n      swap2\n      pop\n        /* \"#utility.yul\":17536:17539   */\n      dup2\n        /* \"#utility.yul\":17529:17539   */\n      swap1\n      pop\n        /* \"#utility.yul\":17270:17545   */\n      swap3\n      swap2\n      pop\n      pop\n      jump\t// out\n        /* \"#utility.yul\":17551:17775   */\n    tag_191:\n        /* \"#utility.yul\":17691:17725   */\n      0x43616e6469646174652064657461696c73206e6f742076616c69646174656420\n        /* \"#utility.yul\":17687:17688   */\n      0x00\n        /* \"#utility.yul\":17679:17685   */\n      dup3\n        /* \"#utility.yul\":17675:17689   */\n      add\n        /* \"#utility.yul\":17668:17726   */\n      mstore\n        /* \"#utility.yul\":17760:17767   */\n      0x6279204149000000000000000000000000000000000000000000000000000000\n        /* \"#utility.yul\":17755:17757   */\n      0x20\n        /* \"#utility.yul\":17747:17753   */\n      dup3\n        /* \"#utility.yul\":17743:17758   */\n      add\n        /* \"#utility.yul\":17736:17768   */\n      mstore\n        /* \"#utility.yul\":17551:17775   */\n      pop\n      jump\t// out\n        /* \"#utility.yul\":17781:18147   */\n    tag_192:\n        /* \"#utility.yul\":17923:17926   */\n      0x00\n        /* \"#utility.yul\":17944:18011   */\n      tag_379\n        /* \"#utility.yul\":18008:18010   */\n      0x25\n        /* \"#utility.yul\":18003:18006   */\n      dup4\n        /* \"#utility.yul\":17944:18011   */\n      tag_178\n      jump\t// in\n    tag_379:\n        /* \"#utility.yul\":17937:18011   */\n      swap2\n      pop\n        /* \"#utility.yul\":18020:18113   */\n      tag_380\n        /* \"#utility.yul\":18109:18112   */\n      dup3\n        /* \"#utility.yul\":18020:18113   */\n      tag_191\n      jump\t// in\n    tag_380:\n        /* \"#utility.yul\":18138:18140   */\n      0x40\n        /* \"#utility.yul\":18133:18136   */\n      dup3\n        /* \"#utility.yul\":18129:18141   */\n      add\n        /* \"#utility.yul\":18122:18141   */\n      swap1\n      pop\n        /* \"#utility.yul\":17781:18147   */\n      swap2\n      swap1\n      pop\n      jump\t// out\n        /* \"#utility.yul\":18153:18572   */\n    tag_105:\n        /* \"#utility.yul\":18319:18323   */\n      0x00\n        /* \"#utility.yul\":18357:18359   */\n      0x20\n        /* \"#utility.yul\":18346:18355   */\n      dup3\n        /* \"#utility.yul\":18342:18360   */\n      add\n        /* \"#utility.yul\":18334:18360   */\n      swap1\n      pop\n        /* \"#utility.yul\":18406:18415   */\n      dup2\n        /* \"#utility.yul\":18400:18404   */\n      dup2\n        /* \"#utility.yul\":18396:18416   */\n      sub\n        /* \"#utility.yul\":18392:18393   */\n      0x00\n        /* \"#utility.yul\":18381:18390   */\n      dup4\n        /* \"#utility.yul\":18377:18394   */\n      add\n        /* \"#utility.yul\":18370:18417   */\n      mstore\n        /* \"#utility.yul\":18434:18565   */\n      tag_382\n        /* \"#utility.yul\":18560:18564   */\n      dup2\n        /* \"#utility.yul\":18434:18565   */\n      tag_192\n      jump\t// in\n    tag_382:\n        /* \"#utility.yul\":18426:18565   */\n      swap1\n      pop\n        /* \"#utility.yul\":18153:18572   */\n      swap2\n      swap1\n      pop\n      jump\t// out\n        /* \"#utility.yul\":18578:18719   */\n    tag_193:\n        /* \"#utility.yul\":18627:18631   */\n      0x00\n        /* \"#utility.yul\":18650:18653   */\n      dup2\n        /* \"#utility.yul\":18642:18653   */\n      swap1\n      pop\n        /* \"#utility.yul\":18673:18676   */\n      dup2\n        /* \"#utility.yul\":18670:18671   */\n      0x00\n        /* \"#utility.yul\":18663:18677   */\n      mstore\n        /* \"#utility.yul\":18707:18711   */\n      0x20\n        /* \"#utility.yul\":18704:18705   */\n      0x00\n        /* \"#utility.yul\":18694:18712   */\n      keccak256\n        /* \"#utility.yul\":18686:18712   */\n      swap1\n      pop\n        /* \"#utility.yul\":18578:18719   */\n      swap2\n      swap1\n      pop\n      jump\t// out\n        /* \"#utility.yul\":18725:18818   */\n    tag_194:\n        /* \"#utility.yul\":18762:18768   */\n      0x00\n        /* \"#utility.yul\":18809:18811   */\n      0x20\n        /* \"#utility.yul\":18804:18806   */\n      0x1f\n        /* \"#utility.yul\":18797:18802   */\n      dup4\n        /* \"#utility.yul\":18793:18807   */\n      add\n        /* \"#utility.yul\":18789:18812   */\n      div\n        /* \"#utility.yul\":18779:18812   */\n      swap1\n      pop\n        /* \"#utility.yul\":18725:18818   */\n      swap2\n      swap1\n      pop\n      jump\t// out\n        /* \"#utility.yul\":18824:18931   */\n    tag_195:\n        /* \"#utility.yul\":18868:18876   */\n      0x00\n        /* \"#utility.yul\":18918:18923   */\n      dup3\n        /* \"#utility.yul\":18912:18916   */\n      dup3\n        /* \"#utility.yul\":18908:18924   */\n      shl\n        /* \"#utility.yul\":18887:18924   */\n      swap1\n      pop\n        /* \"#utility.yul\":18824:18931   */\n      swap3\n      swap2\n      pop\n      pop\n      jump\t// out\n        /* \"#utility.yul\":18937:19330   */\n    tag_196:\n        /* \"#utility.yul\":19006:19012   */\n      0x00\n        /* \"#utility.yul\":19056:19057   */\n      0x08\n        /* \"#utility.yul\":19044:19054   */\n      dup4\n        /* \"#utility.yul\":19040:19058   */\n      mul\n        /* \"#utility.yul\":19079:19176   */\n      tag_387\n        /* \"#utility.yul\":19109:19175   */\n      0xffffffffffffffffffffffffffffffffffffffffffffffffffffffffffffffff\n        /* \"#utility.yul\":19098:19107   */\n      dup3\n        /* \"#utility.yul\":19079:19176   */\n      tag_195\n      jump\t// in\n    tag_387:\n        /* \"#utility.yul\":19197:19236   */\n      tag_388\n        /* \"#utility.yul\":19227:19235   */\n      dup7\n        /* \"#utility.yul\":19216:19225   */\n      dup4\n        /* \"#utility.yul\":19197:19236   */\n      tag_195\n      jump\t// in\n    tag_388:\n        /* \"#utility.yul\":19185:19236   */\n      swap6\n      pop\n        /* \"#utility.yul\":19269:19273   */\n      dup1\n        /* \"#utility.yul\":19265:19274   */\n      not\n        /* \"#utility.yul\":19258:19263   */\n      dup5\n        /* \"#utility.yul\":19254:19275   */\n      and\n        /* \"#utility.yul\":19245:19275   */\n      swap4\n      pop\n        /* \"#utility.yul\":19318:19322   */\n      dup1\n        /* \"#utility.yul\":19308:19316   */\n      dup7\n        /* \"#utility.yul\":19304:19323   */\n      and\n        /* \"#utility.yul\":19297:19302   */\n      dup5\n        /* \"#utility.yul\":19294:19324   */\n      or\n        /* \"#utility.yul\":19284:19324   */\n      swap3\n      pop\n        /* \"#utility.yul\":19013:19330   */\n      pop\n      pop\n        /* \"#utility.yul\":18937:19330   */\n      swap4\n      swap3\n      pop\n      pop\n      pop\n      jump\t// out\n        /* \"#utility.yul\":19336:19396   */\n    tag_197:\n        /* \"#utility.yul\":19364:19367   */\n      0x00\n        /* \"#utility.yul\":19385:19390   */\n      dup2\n        /* \"#utility.yul\":19378:19390   */\n      swap1\n      pop\n        /* \"#utility.yul\":19336:19396   */\n      swap2\n      swap1\n      pop\n      jump\t// out\n        /* \"#utility.yul\":19402:19544   */\n    tag_198:\n        /* \"#utility.yul\":19452:19461   */\n      0x00\n        /* \"#utility.yul\":19485:19538   */\n      tag_391\n        /* \"#utility.yul\":19503:19537   */\n      tag_392\n        /* \"#utility.yul\":19512:19536   */\n      tag_393\n        /* \"#utility.yul\":19530:19535   */\n      dup5\n        /* \"#utility.yul\":19512:19536   */\n      tag_147\n      jump\t// in\n    tag_393:\n        /* \"#utility.yul\":19503:19537   */\n      tag_197\n      jump\t// in\n    tag_392:\n        /* \"#utility.yul\":19485:19538   */\n      tag_147\n      jump\t// in\n    tag_391:\n        /* \"#utility.yul\":19472:19538   */\n      swap1\n      pop\n        /* \"#utility.yul\":19402:19544   */\n      swap2\n      swap1\n      pop\n      jump\t// out\n        /* \"#utility.yul\":19550:19625   */\n    tag_199:\n        /* \"#utility.yul\":19593:19596   */\n      0x00\n        /* \"#utility.yul\":19614:19619   */\n      dup2\n        /* \"#utility.yul\":19607:19619   */\n      swap1\n      pop\n        /* \"#utility.yul\":19550:19625   */\n      swap2\n      swap1\n      pop\n      jump\t// out\n        /* \"#utility.yul\":19631:19900   */\n    tag_200:\n        /* \"#utility.yul\":19741:19780   */\n      tag_396\n        /* \"#utility.yul\":19772:19779   */\n      dup4\n        /* \"#utility.yul\":19741:19780   */\n      tag_198\n      jump\t// in\n    tag_396:\n        /* \"#utility.yul\":19802:19893   */\n      tag_397\n        /* \"#utility.yul\":19851:19892   */\n      tag_398\n        /* \"#utility.yul\":19875:19891   */\n      dup3\n        /* \"#utility.yul\":19851:19892   */\n      tag_199\n      jump\t// in\n    tag_398:\n        /* \"#utility.yul\":19843:19849   */\n      dup5\n        /* \"#utility.yul\":19836:19840   */\n      dup5\n        /* \"#utility.yul\":19830:19841   */\n      sload\n        /* \"#utility.yul\":19802:19893   */\n      tag_196\n      jump\t// in\n    tag_397:\n        /* \"#utility.yul\":19796:19800   */\n      dup3\n        /* \"#utility.yul\":19789:19894   */\n      sstore\n        /* \"#utility.yul\":19707:19900   */\n      pop\n        /* \"#utility.yul\":19631:19900   */\n      pop\n      pop\n      pop\n      jump\t// out\n        /* \"#utility.yul\":19906:19979   */\n    tag_201:\n        /* \"#utility.yul\":19951:19954   */\n      0x00\n        /* \"#utility.yul\":19906:19979   */\n      swap1\n      jump\t// out\n        /* \"#utility.yul\":19985:20174   */\n    tag_202:\n        /* \"#utility.yul\":20062:20094   */\n      tag_401\n      tag_201\n      jump\t// in\n    tag_401:\n        /* \"#utility.yul\":20103:20168   */\n      tag_402\n        /* \"#utility.yul\":20161:20167   */\n      dup2\n        /* \"#utility.yul\":20153:20159   */\n      dup5\n        /* \"#utility.yul\":20147:20151   */\n      dup5\n        /* \"#utility.yul\":20103:20168   */\n      tag_200\n      jump\t// in\n    tag_402:\n        /* \"#utility.yul\":20038:20174   */\n      pop\n        /* \"#utility.yul\":19985:20174   */\n      pop\n      pop\n      jump\t// out\n        /* \"#utility.yul\":20180:20366   */\n    tag_203:\n        /* \"#utility.yul\":20240:20360   */\n    tag_404:\n        /* \"#utility.yul\":20257:20260   */\n      dup2\n        /* \"#utility.yul\":20250:20255   */\n      dup2\n        /* \"#utility.yul\":20247:20261   */\n      lt\n        /* \"#utility.yul\":20240:20360   */\n      iszero\n      tag_406\n      jumpi\n        /* \"#utility.yul\":20311:20350   */\n      tag_407\n        /* \"#utility.yul\":20348:20349   */\n      0x00\n        /* \"#utility.yul\":20341:20346   */\n      dup3\n        /* \"#utility.yul\":20311:20350   */\n      tag_202\n      jump\t// in\n    tag_407:\n        /* \"#utility.yul\":20284:20285   */\n      0x01\n        /* \"#utility.yul\":20277:20282   */\n      dup2\n        /* \"#utility.yul\":20273:20286   */\n      add\n        /* \"#utility.yul\":20264:20286   */\n      swap1\n      pop\n        /* \"#utility.yul\":20240:20360   */\n      jump(tag_404)\n    tag_406:\n        /* \"#utility.yul\":20180:20366   */\n      pop\n      pop\n      jump\t// out\n        /* \"#utility.yul\":20372:20915   */\n    tag_204:\n        /* \"#utility.yul\":20473:20475   */\n      0x1f\n        /* \"#utility.yul\":20468:20471   */\n      dup3\n        /* \"#utility.yul\":20465:20476   */\n      gt\n        /* \"#utility.yul\":20462:20908   */\n      iszero\n      tag_409\n      jumpi\n        /* \"#utility.yul\":20507:20545   */\n      tag_410\n        /* \"#utility.yul\":20539:20544   */\n      dup2\n        /* \"#utility.yul\":20507:20545   */\n      tag_193\n      jump\t// in\n    tag_410:\n        /* \"#utility.yul\":20591:20620   */\n      tag_411\n        /* \"#utility.yul\":20609:20619   */\n      dup5\n        /* \"#utility.yul\":20591:20620   */\n      tag_194\n      jump\t// in\n    tag_411:\n        /* \"#utility.yul\":20581:20589   */\n      dup2\n        /* \"#utility.yul\":20577:20621   */\n      add\n        /* \"#utility.yul\":20774:20776   */\n      0x20\n        /* \"#utility.yul\":20762:20772   */\n      dup6\n        /* \"#utility.yul\":20759:20777   */\n      lt\n        /* \"#utility.yul\":20756:20805   */\n      iszero\n      tag_412\n      jumpi\n        /* \"#utility.yul\":20795:20803   */\n      dup2\n        /* \"#utility.yul\":20780:20803   */\n      swap1\n      pop\n        /* \"#utility.yul\":20756:20805   */\n    tag_412:\n        /* \"#utility.yul\":20818:20898   */\n      tag_413\n        /* \"#utility.yul\":20874:20896   */\n      tag_414\n        /* \"#utility.yul\":20892:20895   */\n      dup6\n        /* \"#utility.yul\":20874:20896   */\n      tag_194\n      jump\t// in\n    tag_414:\n        /* \"#utility.yul\":20864:20872   */\n      dup4\n        /* \"#utility.yul\":20860:20897   */\n      add\n        /* \"#utility.yul\":20847:20858   */\n      dup3\n        /* \"#utility.yul\":20818:20898   */\n      tag_203\n      jump\t// in\n    tag_413:\n        /* \"#utility.yul\":20477:20908   */\n      pop\n      pop\n        /* \"#utility.yul\":20462:20908   */\n    tag_409:\n        /* \"#utility.yul\":20372:20915   */\n      pop\n      pop\n      pop\n      jump\t// out\n        /* \"#utility.yul\":20921:21038   */\n    tag_205:\n        /* \"#utility.yul\":20975:20983   */\n      0x00\n        /* \"#utility.yul\":21025:21030   */\n      dup3\n        /* \"#utility.yul\":21019:21023   */\n      dup3\n        /* \"#utility.yul\":21015:21031   */\n      shr\n        /* \"#utility.yul\":20994:21031   */\n      swap1\n      pop\n        /* \"#utility.yul\":20921:21038   */\n      swap3\n      swap2\n      pop\n      pop\n      jump\t// out\n        /* \"#utility.yul\":21044:21213   */\n    tag_206:\n        /* \"#utility.yul\":21088:21094   */\n      0x00\n        /* \"#utility.yul\":21121:21172   */\n      tag_417\n        /* \"#utility.yul\":21169:21170   */\n      0x00\n        /* \"#utility.yul\":21165:21171   */\n      not\n        /* \"#utility.yul\":21157:21162   */\n      dup5\n        /* \"#utility.yul\":21154:21155   */\n      0x08\n        /* \"#utility.yul\":21150:21163   */\n      mul\n        /* \"#utility.yul\":21121:21172   */\n      tag_205\n      jump\t// in\n    tag_417:\n        /* \"#utility.yul\":21117:21173   */\n      not\n        /* \"#utility.yul\":21202:21206   */\n      dup1\n        /* \"#utility.yul\":21196:21200   */\n      dup4\n        /* \"#utility.yul\":21192:21207   */\n      and\n        /* \"#utility.yul\":21182:21207   */\n      swap2\n      pop\n        /* \"#utility.yul\":21095:21213   */\n      pop\n        /* \"#utility.yul\":21044:21213   */\n      swap3\n      swap2\n      pop\n      pop\n      jump\t// out\n        /* \"#utility.yul\":21218:21513   */\n    tag_207:\n        /* \"#utility.yul\":21294:21298   */\n      0x00\n        /* \"#utility.yul\":21440:21469   */\n      tag_419\n        /* \"#utility.yul\":21465:21468   */\n      dup4\n        /* \"#utility.yul\":21459:21463   */\n      dup4\n        /* \"#utility.yul\":21440:21469   */\n      tag_206\n      jump\t// in\n    tag_419:\n        /* \"#utility.yul\":21432:21469   */\n      swap2\n      pop\n        /* \"#utility.yul\":21502:21505   */\n      dup3\n        /* \"#utility.yul\":21499:21500   */\n      0x02\n        /* \"#utility.yul\":21495:21506   */\n      mul\n        /* \"#utility.yul\":21489:21493   */\n      dup3\n        /* \"#utility.yul\":21486:21507   */\n      or\n        /* \"#utility.yul\":21478:21507   */\n      swap1\n      pop\n        /* \"#utility.yul\":21218:21513   */\n      swap3\n      swap2\n      pop\n      pop\n      jump\t// out\n        /* \"#utility.yul\":21518:22913   */\n    tag_108:\n        /* \"#utility.yul\":21635:21672   */\n      tag_421\n        /* \"#utility.yul\":21668:21671   */\n      dup3\n        /* \"#utility.yul\":21635:21672   */\n      tag_151\n      jump\t// in\n    tag_421:\n        /* \"#utility.yul\":21737:21755   */\n      0xffffffffffffffff\n        /* \"#utility.yul\":21729:21735   */\n      dup2\n        /* \"#utility.yul\":21726:21756   */\n      gt\n        /* \"#utility.yul\":21723:21779   */\n      iszero\n      tag_422\n      jumpi\n        /* \"#utility.yul\":21759:21777   */\n      tag_423\n      tag_168\n      jump\t// in\n    tag_423:\n        /* \"#utility.yul\":21723:21779   */\n    tag_422:\n        /* \"#utility.yul\":21803:21841   */\n      tag_424\n        /* \"#utility.yul\":21835:21839   */\n      dup3\n        /* \"#utility.yul\":21829:21840   */\n      sload\n        /* \"#utility.yul\":21803:21841   */\n      tag_67\n      jump\t// in\n    tag_424:\n        /* \"#utility.yul\":21888:21955   */\n      tag_425\n        /* \"#utility.yul\":21948:21954   */\n      dup3\n        /* \"#utility.yul\":21940:21946   */\n      dup3\n        /* \"#utility.yul\":21934:21938   */\n      dup6\n        /* \"#utility.yul\":21888:21955   */\n      tag_204\n      jump\t// in\n    tag_425:\n        /* \"#utility.yul\":21982:21983   */\n      0x00\n        /* \"#utility.yul\":22006:22010   */\n      0x20\n        /* \"#utility.yul\":21993:22010   */\n      swap1\n      pop\n        /* \"#utility.yul\":22038:22040   */\n      0x1f\n        /* \"#utility.yul\":22030:22036   */\n      dup4\n        /* \"#utility.yul\":22027:22041   */\n      gt\n        /* \"#utility.yul\":22055:22056   */\n      0x01\n        /* \"#utility.yul\":22050:22668   */\n      dup2\n      eq\n      tag_427\n      jumpi\n        /* \"#utility.yul\":22712:22713   */\n      0x00\n        /* \"#utility.yul\":22729:22735   */\n      dup5\n        /* \"#utility.yul\":22726:22803   */\n      iszero\n      tag_428\n      jumpi\n        /* \"#utility.yul\":22778:22787   */\n      dup3\n        /* \"#utility.yul\":22773:22776   */\n      dup8\n        /* \"#utility.yul\":22769:22788   */\n      add\n        /* \"#utility.yul\":22763:22789   */\n      mload\n        /* \"#utility.yul\":22754:22789   */\n      swap1\n      pop\n        /* \"#utility.yul\":22726:22803   */\n    tag_428:\n        /* \"#utility.yul\":22829:22896   */\n      tag_429\n        /* \"#utility.yul\":22889:22895   */\n      dup6\n        /* \"#utility.yul\":22882:22887   */\n      dup3\n        /* \"#utility.yul\":22829:22896   */\n      tag_207\n      jump\t// in\n    tag_429:\n        /* \"#utility.yul\":22823:22827   */\n      dup7\n        /* \"#utility.yul\":22816:22897   */\n      sstore\n        /* \"#utility.yul\":22685:22907   */\n      pop\n        /* \"#utility.yul\":22020:22907   */\n      jump(tag_426)\n        /* \"#utility.yul\":22050:22668   */\n    tag_427:\n        /* \"#utility.yul\":22102:22106   */\n      0x1f\n        /* \"#utility.yul\":22098:22107   */\n      not\n        /* \"#utility.yul\":22090:22096   */\n      dup5\n        /* \"#utility.yul\":22086:22108   */\n      and\n        /* \"#utility.yul\":22136:22173   */\n      tag_430\n        /* \"#utility.yul\":22168:22172   */\n      dup7\n        /* \"#utility.yul\":22136:22173   */\n      tag_193\n      jump\t// in\n    tag_430:\n        /* \"#utility.yul\":22195:22196   */\n      0x00\n        /* \"#utility.yul\":22209:22417   */\n    tag_431:\n        /* \"#utility.yul\":22223:22230   */\n      dup3\n        /* \"#utility.yul\":22220:22221   */\n      dup2\n        /* \"#utility.yul\":22217:22231   */\n      lt\n        /* \"#utility.yul\":22209:22417   */\n      iszero\n      tag_433\n      jumpi\n        /* \"#utility.yul\":22302:22311   */\n      dup5\n        /* \"#utility.yul\":22297:22300   */\n      dup10\n        /* \"#utility.yul\":22293:22312   */\n      add\n        /* \"#utility.yul\":22287:22313   */\n      mload\n        /* \"#utility.yul\":22279:22285   */\n      dup3\n        /* \"#utility.yul\":22272:22314   */\n      sstore\n        /* \"#utility.yul\":22353:22354   */\n      0x01\n        /* \"#utility.yul\":22345:22351   */\n      dup3\n        /* \"#utility.yul\":22341:22355   */\n      add\n        /* \"#utility.yul\":22331:22355   */\n      swap2\n      pop\n        /* \"#utility.yul\":22400:22402   */\n      0x20\n        /* \"#utility.yul\":22389:22398   */\n      dup6\n        /* \"#utility.yul\":22385:22403   */\n      add\n        /* \"#utility.yul\":22372:22403   */\n      swap5\n      pop\n        /* \"#utility.yul\":22246:22250   */\n      0x20\n        /* \"#utility.yul\":22243:22244   */\n      dup2\n        /* \"#utility.yul\":22239:22251   */\n      add\n        /* \"#utility.yul\":22234:22251   */\n      swap1\n      pop\n        /* \"#utility.yul\":22209:22417   */\n      jump(tag_431)\n    tag_433:\n        /* \"#utility.yul\":22445:22451   */\n      dup7\n        /* \"#utility.yul\":22436:22443   */\n      dup4\n        /* \"#utility.yul\":22433:22452   */\n      lt\n        /* \"#utility.yul\":22430:22609   */\n      iszero\n      tag_434\n      jumpi\n        /* \"#utility.yul\":22503:22512   */\n      dup5\n        /* \"#utility.yul\":22498:22501   */\n      dup10\n        /* \"#utility.yul\":22494:22513   */\n      add\n        /* \"#utility.yul\":22488:22514   */\n      mload\n        /* \"#utility.yul\":22546:22594   */\n      tag_435\n        /* \"#utility.yul\":22588:22592   */\n      0x1f\n        /* \"#utility.yul\":22580:22586   */\n      dup10\n        /* \"#utility.yul\":22576:22593   */\n      and\n        /* \"#utility.yul\":22565:22574   */\n      dup3\n        /* \"#utility.yul\":22546:22594   */\n      tag_206\n      jump\t// in\n    tag_435:\n        /* \"#utility.yul\":22538:22544   */\n      dup4\n        /* \"#utility.yul\":22531:22595   */\n      sstore\n        /* \"#utility.yul\":22453:22609   */\n      pop\n        /* \"#utility.yul\":22430:22609   */\n    tag_434:\n        /* \"#utility.yul\":22655:22656   */\n      0x01\n        /* \"#utility.yul\":22651:22652   */\n      0x02\n        /* \"#utility.yul\":22643:22649   */\n      dup9\n        /* \"#utility.yul\":22639:22653   */\n      mul\n        /* \"#utility.yul\":22635:22657   */\n      add\n        /* \"#utility.yul\":22629:22633   */\n      dup9\n        /* \"#utility.yul\":22622:22658   */\n      sstore\n        /* \"#utility.yul\":22057:22668   */\n      pop\n      pop\n      pop\n        /* \"#utility.yul\":22020:22907   */\n    tag_426:\n      pop\n        /* \"#utility.yul\":21610:22913   */\n      pop\n      pop\n      pop\n        /* \"#utility.yul\":21518:22913   */\n      pop\n      pop\n      jump\t// out\n        /* \"#utility.yul\":22919:23099   */\n    tag_208:\n        /* \"#utility.yul\":22967:23044   */\n      0x4e487b7100000000000000000000000000000000000000000000000000000000\n        /* \"#utility.yul\":22964:22965   */\n      0x00\n        /* \"#utility.yul\":22957:23045   */\n      mstore\n        /* \"#utility.yul\":23064:23068   */\n      0x11\n        /* \"#utility.yul\":23061:23062   */\n      0x04\n        /* \"#utility.yul\":23054:23069   */\n      mstore\n        /* \"#utility.yul\":23088:23092   */\n      0x24\n        /* \"#utility.yul\":23085:23086   */\n      0x00\n        /* \"#utility.yul\":23078:23093   */\n      revert\n        /* \"#utility.yul\":23105:23338   */\n    tag_113:\n        /* \"#utility.yul\":23144:23147   */\n      0x00\n        /* \"#utility.yul\":23167:23191   */\n      tag_438\n        /* \"#utility.yul\":23185:23190   */\n      dup3\n        /* \"#utility.yul\":23167:23191   */\n      tag_147\n      jump\t// in\n    tag_438:\n        /* \"#utility.yul\":23158:23191   */\n      swap2\n      pop\n        /* \"#utility.yul\":23213:23279   */\n      0xffffffffffffffffffffffffffffffffffffffffffffffffffffffffffffffff\n        /* \"#utility.yul\":23206:23211   */\n      dup3\n        /* \"#utility.yul\":23203:23280   */\n      sub\n        /* \"#utility.yul\":23200:23303   */\n      tag_439\n      jumpi\n        /* \"#utility.yul\":23283:23301   */\n      tag_440\n      tag_208\n      jump\t// in\n    tag_440:\n        /* \"#utility.yul\":23200:23303   */\n    tag_439:\n        /* \"#utility.yul\":23330:23331   */\n      0x01\n        /* \"#utility.yul\":23323:23328   */\n      dup3\n        /* \"#utility.yul\":23319:23332   */\n      add\n        /* \"#utility.yul\":23312:23332   */\n      swap1\n      pop\n        /* \"#utility.yul\":23105:23338   */\n      swap2\n      swap1\n      pop\n      jump\t// out\n        /* \"#utility.yul\":23344:23664   */\n    tag_136:\n        /* \"#utility.yul\":23459:23463   */\n      0x00\n        /* \"#utility.yul\":23497:23499   */\n      0x40\n        /* \"#utility.yul\":23486:23495   */\n      dup3\n        /* \"#utility.yul\":23482:23500   */\n      add\n        /* \"#utility.yul\":23474:23500   */\n      swap1\n      pop\n        /* \"#utility.yul\":23510:23581   */\n      tag_442\n        /* \"#utility.yul\":23578:23579   */\n      0x00\n        /* \"#utility.yul\":23567:23576   */\n      dup4\n        /* \"#utility.yul\":23563:23580   */\n      add\n        /* \"#utility.yul\":23554:23560   */\n      dup6\n        /* \"#utility.yul\":23510:23581   */\n      tag_177\n      jump\t// in\n    tag_442:\n        /* \"#utility.yul\":23591:23657   */\n      tag_443\n        /* \"#utility.yul\":23653:23655   */\n      0x20\n        /* \"#utility.yul\":23642:23651   */\n      dup4\n        /* \"#utility.yul\":23638:23656   */\n      add\n        /* \"#utility.yul\":23629:23635   */\n      dup5\n        /* \"#utility.yul\":23591:23657   */\n      tag_165\n      jump\t// in\n    tag_443:\n        /* \"#utility.yul\":23344:23664   */\n      swap4\n      swap3\n      pop\n      pop\n      pop\n      jump\t// out\n        /* \"#utility.yul\":23670:24093   */\n    tag_143:\n        /* \"#utility.yul\":23811:23815   */\n      0x00\n        /* \"#utility.yul\":23849:23851   */\n      0x40\n        /* \"#utility.yul\":23838:23847   */\n      dup3\n        /* \"#utility.yul\":23834:23852   */\n      add\n        /* \"#utility.yul\":23826:23852   */\n      swap1\n      pop\n        /* \"#utility.yul\":23898:23907   */\n      dup2\n        /* \"#utility.yul\":23892:23896   */\n      dup2\n        /* \"#utility.yul\":23888:23908   */\n      sub\n        /* \"#utility.yul\":23884:23885   */\n      0x00\n        /* \"#utility.yul\":23873:23882   */\n      dup4\n        /* \"#utility.yul\":23869:23886   */\n      add\n        /* \"#utility.yul\":23862:23909   */\n      mstore\n        /* \"#utility.yul\":23926:24004   */\n      tag_445\n        /* \"#utility.yul\":23999:24003   */\n      dup2\n        /* \"#utility.yul\":23990:23996   */\n      dup6\n        /* \"#utility.yul\":23926:24004   */\n      tag_179\n      jump\t// in\n    tag_445:\n        /* \"#utility.yul\":23918:24004   */\n      swap1\n      pop\n        /* \"#utility.yul\":24014:24086   */\n      tag_446\n        /* \"#utility.yul\":24082:24084   */\n      0x20\n        /* \"#utility.yul\":24071:24080   */\n      dup4\n        /* \"#utility.yul\":24067:24085   */\n      add\n        /* \"#utility.yul\":24058:24064   */\n      dup5\n        /* \"#utility.yul\":24014:24086   */\n      tag_180\n      jump\t// in\n    tag_446:\n        /* \"#utility.yul\":23670:24093   */\n      swap4\n      swap3\n      pop\n      pop\n      pop\n      jump\t// out\n\n    auxdata: 0xa2646970667358221220e4733044cd8a419e9b8aa32c4558ba6f352aa4256c5a88d6811f0a52b0e9a36b64736f6c63430008190033\n}\n",
				"bytecode": {
					"linkReferences": {},
					"object": "6080604052348015600e575f80fd5b50335f806101000a81548173ffffffffffffffffffffffffffffffffffffffff021916908373ffffffffffffffffffffffffffffffffffffffff160217905550611a5e8061005b5f395ff3fe608060405234801561000f575f80fd5b50600436106100a7575f3560e01c8063663b3e221161006f578063663b3e221461015f5780637db3761b146101945780638a50e907146101b0578063a0bdb003146101e1578063edf54b9c146101ff578063f851a4401461021b576100a7565b80631692a942146100ab57806320694db0146100db57806338a7543e146100f757806347bc7093146101275780635f2a4cda14610143575b5f80fd5b6100c560048036038101906100c09190610e06565b610239565b6040516100d29190610f76565b60405180910390f35b6100f560048036038101906100f09190610ff0565b61048b565b005b610111600480360381019061010c9190610ff0565b6105a7565b60405161011e919061102a565b60405180910390f35b610141600480360381019061013c9190610ff0565b6105c4565b005b61015d60048036038101906101589190611199565b6106df565b005b61017960048036038101906101749190610e06565b6108e7565b60405161018b969594939291906112b7565b60405180910390f35b6101ae60048036038101906101a99190610e06565b610abd565b005b6101ca60048036038101906101c5919061132b565b610bf7565b6040516101d8929190611372565b60405180910390f35b6101e9610c3b565b6040516101f69190611399565b60405180910390f35b610219600480360381019061021491906113b2565b610c41565b005b610223610d67565b604051610230919061141b565b60405180910390f35b610241610d8a565b5f60015f8481526020019081526020015f206040518060c00160405290815f820154815260200160018201805461027790611461565b80601f01602080910402602001604051908101604052809291908181526020018280546102a390611461565b80156102ee5780601f106102c5576101008083540402835291602001916102ee565b820191905f5260205f20905b8154815290600101906020018083116102d157829003601f168201915b5050505050815260200160028201805461030790611461565b80601f016020809104026020016040519081016040528092919081815260200182805461033390611461565b801561037e5780601f106103555761010080835404028352916020019161037e565b820191905f5260205f20905b81548152906001019060200180831161036157829003601f168201915b5050505050815260200160038201805461039790611461565b80601f01602080910402602001604051908101604052809291908181526020018280546103c390611461565b801561040e5780601f106103e55761010080835404028352916020019161040e565b820191905f5260205f20905b8154815290600101906020018083116103f157829003601f168201915b50505050508152602001600482015f9054906101000a900460ff16151515158152602001600582015481525050905082815f015114610482576040517f08c379a0000000000000000000000000000000000000000000000000000000008152600401610479906114db565b60405180910390fd5b80915050919050565b5f8054906101000a900473ffffffffffffffffffffffffffffffffffffffff1673ffffffffffffffffffffffffffffffffffffffff163373ffffffffffffffffffffffffffffffffffffffff1614610518576040517f08c379a000000000000000000000000000000000000000000000000000000000815260040161050f90611569565b60405180910390fd5b600160045f8373ffffffffffffffffffffffffffffffffffffffff1673ffffffffffffffffffffffffffffffffffffffff1681526020019081526020015f205f6101000a81548160ff0219169083151502179055507f05e7c881d716bee8cb7ed92293133ba156704252439e5c502c277448f04e20c28160405161059c919061141b565b60405180910390a150565b6004602052805f5260405f205f915054906101000a900460ff1681565b5f8054906101000a900473ffffffffffffffffffffffffffffffffffffffff1673ffffffffffffffffffffffffffffffffffffffff163373ffffffffffffffffffffffffffffffffffffffff1614610651576040517f08c379a000000000000000000000000000000000000000000000000000000000815260040161064890611569565b60405180910390fd5b5f60045f8373ffffffffffffffffffffffffffffffffffffffff1673ffffffffffffffffffffffffffffffffffffffff1681526020019081526020015f205f6101000a81548160ff0219169083151502179055507faf66545c919a3be306ee446d8f42a9558b5b022620df880517bc9593ec0f2d52816040516106d4919061141b565b60405180910390a150565b60045f3373ffffffffffffffffffffffffffffffffffffffff1673ffffffffffffffffffffffffffffffffffffffff1681526020019081526020015f205f9054906101000a900460ff16610768576040517f08c379a000000000000000000000000000000000000000000000000000000000815260040161075f906115f7565b60405180910390fd5b83600281604051610779919061164f565b90815260200160405180910390205f015f9054906101000a900460ff166107d5576040517f08c379a00000000000000000000000000000000000000000000000000000000081526004016107cc906116d5565b60405180910390fd5b6040518060c0016040528060035481526020018681526020018581526020018481526020016001151581526020018381525060015f60035481526020019081526020015f205f820151815f015560208201518160010190816108379190611890565b50604082015181600201908161084d9190611890565b5060608201518160030190816108639190611890565b506080820151816004015f6101000a81548160ff02191690831515021790555060a082015181600501559050507f6b352e211b4d936da8b329b89379dc32df52c107a79a9544f3ecb5ccbe5ee2b76003546040516108c19190611399565b60405180910390a160035f8154809291906108db9061198c565b91905055505050505050565b6001602052805f5260405f205f91509050805f01549080600101805461090c90611461565b80601f016020809104026020016040519081016040528092919081815260200182805461093890611461565b80156109835780601f1061095a57610100808354040283529160200191610983565b820191905f5260205f20905b81548152906001019060200180831161096657829003601f168201915b50505050509080600201805461099890611461565b80601f01602080910402602001604051908101604052809291908181526020018280546109c490611461565b8015610a0f5780601f106109e657610100808354040283529160200191610a0f565b820191905f5260205f20905b8154815290600101906020018083116109f257829003601f168201915b505050505090806003018054610a2490611461565b80601f0160208091040260200160405190810160405280929190818152602001828054610a5090611461565b8015610a9b5780601f10610a7257610100808354040283529160200191610a9b565b820191905f5260205f20905b815481529060010190602001808311610a7e57829003601f168201915b505050505090806004015f9054906101000a900460ff16908060050154905086565b60045f3373ffffffffffffffffffffffffffffffffffffffff1673ffffffffffffffffffffffffffffffffffffffff1681526020019081526020015f205f9054906101000a900460ff16610b46576040517f08c379a0000000000000000000000000000000000000000000000000000000008152600401610b3d906115f7565b60405180910390fd5b5f60015f8381526020019081526020015f20905081815f015414610b9f576040517f08c379a0000000000000000000000000000000000000000000000000000000008152600401610b96906114db565b60405180910390fd5b5f816004015f6101000a81548160ff0219169083151502179055507f739766c917befd2312040cd8bdbcc45e456f5699d6e4466fb15dad5089660be0825f604051610beb9291906119d3565b60405180910390a15050565b6002818051602081018201805184825260208301602085012081835280955050505050505f91509050805f015f9054906101000a900460ff16908060010154905082565b60035481565b60045f3373ffffffffffffffffffffffffffffffffffffffff1673ffffffffffffffffffffffffffffffffffffffff1681526020019081526020015f205f9054906101000a900460ff16610cca576040517f08c379a0000000000000000000000000000000000000000000000000000000008152600401610cc1906115f7565b60405180910390fd5b604051806040016040528060011515815260200182815250600283604051610cf2919061164f565b90815260200160405180910390205f820151815f015f6101000a81548160ff021916908315150217905550602082015181600101559050507f1ad9041122fe2e478ee6bd11d31817a11bea93fd6fe94266dc5dde821dedd7818282604051610d5b9291906119fa565b60405180910390a15050565b5f8054906101000a900473ffffffffffffffffffffffffffffffffffffffff1681565b6040518060c001604052805f81526020016060815260200160608152602001606081526020015f151581526020015f80191681525090565b5f604051905090565b5f80fd5b5f80fd5b5f819050919050565b610de581610dd3565b8114610def575f80fd5b50565b5f81359050610e0081610ddc565b92915050565b5f60208284031215610e1b57610e1a610dcb565b5b5f610e2884828501610df2565b91505092915050565b610e3a81610dd3565b82525050565b5f81519050919050565b5f82825260208201905092915050565b8281835e5f83830152505050565b5f601f19601f8301169050919050565b5f610e8282610e40565b610e8c8185610e4a565b9350610e9c818560208601610e5a565b610ea581610e68565b840191505092915050565b5f8115159050919050565b610ec481610eb0565b82525050565b5f819050919050565b610edc81610eca565b82525050565b5f60c083015f830151610ef75f860182610e31565b5060208301518482036020860152610f0f8282610e78565b91505060408301518482036040860152610f298282610e78565b91505060608301518482036060860152610f438282610e78565b9150506080830151610f586080860182610ebb565b5060a0830151610f6b60a0860182610ed3565b508091505092915050565b5f6020820190508181035f830152610f8e8184610ee2565b905092915050565b5f73ffffffffffffffffffffffffffffffffffffffff82169050919050565b5f610fbf82610f96565b9050919050565b610fcf81610fb5565b8114610fd9575f80fd5b50565b5f81359050610fea81610fc6565b92915050565b5f6020828403121561100557611004610dcb565b5b5f61101284828501610fdc565b91505092915050565b61102481610eb0565b82525050565b5f60208201905061103d5f83018461101b565b92915050565b5f80fd5b5f80fd5b7f4e487b71000000000000000000000000000000000000000000000000000000005f52604160045260245ffd5b61108182610e68565b810181811067ffffffffffffffff821117156110a05761109f61104b565b5b80604052505050565b5f6110b2610dc2565b90506110be8282611078565b919050565b5f67ffffffffffffffff8211156110dd576110dc61104b565b5b6110e682610e68565b9050602081019050919050565b828183375f83830152505050565b5f61111361110e846110c3565b6110a9565b90508281526020810184848401111561112f5761112e611047565b5b61113a8482856110f3565b509392505050565b5f82601f83011261115657611155611043565b5b8135611166848260208601611101565b91505092915050565b61117881610eca565b8114611182575f80fd5b50565b5f813590506111938161116f565b92915050565b5f805f80608085870312156111b1576111b0610dcb565b5b5f85013567ffffffffffffffff8111156111ce576111cd610dcf565b5b6111da87828801611142565b945050602085013567ffffffffffffffff8111156111fb576111fa610dcf565b5b61120787828801611142565b935050604085013567ffffffffffffffff81111561122857611227610dcf565b5b61123487828801611142565b925050606061124587828801611185565b91505092959194509250565b61125a81610dd3565b82525050565b5f82825260208201905092915050565b5f61127a82610e40565b6112848185611260565b9350611294818560208601610e5a565b61129d81610e68565b840191505092915050565b6112b181610eca565b82525050565b5f60c0820190506112ca5f830189611251565b81810360208301526112dc8188611270565b905081810360408301526112f08187611270565b905081810360608301526113048186611270565b9050611313608083018561101b565b61132060a08301846112a8565b979650505050505050565b5f602082840312156113405761133f610dcb565b5b5f82013567ffffffffffffffff81111561135d5761135c610dcf565b5b61136984828501611142565b91505092915050565b5f6040820190506113855f83018561101b565b61139260208301846112a8565b9392505050565b5f6020820190506113ac5f830184611251565b92915050565b5f80604083850312156113c8576113c7610dcb565b5b5f83013567ffffffffffffffff8111156113e5576113e4610dcf565b5b6113f185828601611142565b925050602061140285828601611185565b9150509250929050565b61141581610fb5565b82525050565b5f60208201905061142e5f83018461140c565b92915050565b7f4e487b71000000000000000000000000000000000000000000000000000000005f52602260045260245ffd5b5f600282049050600182168061147857607f821691505b60208210810361148b5761148a611434565b5b50919050565b7f4365727469666963617465206e6f7420666f756e6400000000000000000000005f82015250565b5f6114c5601583611260565b91506114d082611491565b602082019050919050565b5f6020820190508181035f8301526114f2816114b9565b9050919050565b7f4f6e6c792061646d696e2063616e2063616c6c20746869732066756e6374696f5f8201527f6e00000000000000000000000000000000000000000000000000000000000000602082015250565b5f611553602183611260565b915061155e826114f9565b604082019050919050565b5f6020820190508181035f83015261158081611547565b9050919050565b7f4f6e6c7920617574686f72697a6564206973737565722063616e2063616c6c205f8201527f746869732066756e6374696f6e00000000000000000000000000000000000000602082015250565b5f6115e1602d83611260565b91506115ec82611587565b604082019050919050565b5f6020820190508181035f83015261160e816115d5565b9050919050565b5f81905092915050565b5f61162982610e40565b6116338185611615565b9350611643818560208601610e5a565b80840191505092915050565b5f61165a828461161f565b915081905092915050565b7f43616e6469646174652064657461696c73206e6f742076616c696461746564205f8201527f6279204149000000000000000000000000000000000000000000000000000000602082015250565b5f6116bf602583611260565b91506116ca82611665565b604082019050919050565b5f6020820190508181035f8301526116ec816116b3565b9050919050565b5f819050815f5260205f209050919050565b5f6020601f8301049050919050565b5f82821b905092915050565b5f6008830261174f7fffffffffffffffffffffffffffffffffffffffffffffffffffffffffffffffff82611714565b6117598683611714565b95508019841693508086168417925050509392505050565b5f819050919050565b5f61179461178f61178a84610dd3565b611771565b610dd3565b9050919050565b5f819050919050565b6117ad8361177a565b6117c16117b98261179b565b848454611720565b825550505050565b5f90565b6117d56117c9565b6117e08184846117a4565b505050565b5b81811015611803576117f85f826117cd565b6001810190506117e6565b5050565b601f82111561184857611819816116f3565b61182284611705565b81016020851015611831578190505b61184561183d85611705565b8301826117e5565b50505b505050565b5f82821c905092915050565b5f6118685f198460080261184d565b1980831691505092915050565b5f6118808383611859565b9150826002028217905092915050565b61189982610e40565b67ffffffffffffffff8111156118b2576118b161104b565b5b6118bc8254611461565b6118c7828285611807565b5f60209050601f8311600181146118f8575f84156118e6578287015190505b6118f08582611875565b865550611957565b601f198416611906866116f3565b5f5b8281101561192d57848901518255600182019150602085019450602081019050611908565b8683101561194a5784890151611946601f891682611859565b8355505b6001600288020188555050505b505050505050565b7f4e487b71000000000000000000000000000000000000000000000000000000005f52601160045260245ffd5b5f61199682610dd3565b91507fffffffffffffffffffffffffffffffffffffffffffffffffffffffffffffffff82036119c8576119c761195f565b5b600182019050919050565b5f6040820190506119e65f830185611251565b6119f3602083018461101b565b9392505050565b5f6040820190508181035f830152611a128185611270565b9050611a2160208301846112a8565b939250505056fea2646970667358221220e4733044cd8a419e9b8aa32c4558ba6f352aa4256c5a88d6811f0a52b0e9a36b64736f6c63430008190033",
					"opcodes": "PUSH1 0x80 PUSH1 0x40 MSTORE CALLVALUE DUP1 ISZERO PUSH1 0xE JUMPI PUSH0 DUP1 REVERT JUMPDEST POP CALLER PUSH0 DUP1 PUSH2 0x100 EXP DUP2 SLOAD DUP2 PUSH20 0xFFFFFFFFFFFFFFFFFFFFFFFFFFFFFFFFFFFFFFFF MUL NOT AND SWAP1 DUP4 PUSH20 0xFFFFFFFFFFFFFFFFFFFFFFFFFFFFFFFFFFFFFFFF AND MUL OR SWAP1 SSTORE POP PUSH2 0x1A5E DUP1 PUSH2 0x5B PUSH0 CODECOPY PUSH0 RETURN INVALID PUSH1 0x80 PUSH1 0x40 MSTORE CALLVALUE DUP1 ISZERO PUSH2 0xF JUMPI PUSH0 DUP1 REVERT JUMPDEST POP PUSH1 0x4 CALLDATASIZE LT PUSH2 0xA7 JUMPI PUSH0 CALLDATALOAD PUSH1 0xE0 SHR DUP1 PUSH4 0x663B3E22 GT PUSH2 0x6F JUMPI DUP1 PUSH4 0x663B3E22 EQ PUSH2 0x15F JUMPI DUP1 PUSH4 0x7DB3761B EQ PUSH2 0x194 JUMPI DUP1 PUSH4 0x8A50E907 EQ PUSH2 0x1B0 JUMPI DUP1 PUSH4 0xA0BDB003 EQ PUSH2 0x1E1 JUMPI DUP1 PUSH4 0xEDF54B9C EQ PUSH2 0x1FF JUMPI DUP1 PUSH4 0xF851A440 EQ PUSH2 0x21B JUMPI PUSH2 0xA7 JUMP JUMPDEST DUP1 PUSH4 0x1692A942 EQ PUSH2 0xAB JUMPI DUP1 PUSH4 0x20694DB0 EQ PUSH2 0xDB JUMPI DUP1 PUSH4 0x38A7543E EQ PUSH2 0xF7 JUMPI DUP1 PUSH4 0x47BC7093 EQ PUSH2 0x127 JUMPI DUP1 PUSH4 0x5F2A4CDA EQ PUSH2 0x143 JUMPI JUMPDEST PUSH0 DUP1 REVERT JUMPDEST PUSH2 0xC5 PUSH1 0x4 DUP1 CALLDATASIZE SUB DUP2 ADD SWAP1 PUSH2 0xC0 SWAP2 SWAP1 PUSH2 0xE06 JUMP JUMPDEST PUSH2 0x239 JUMP JUMPDEST PUSH1 0x40 MLOAD PUSH2 0xD2 SWAP2 SWAP1 PUSH2 0xF76 JUMP JUMPDEST PUSH1 0x40 MLOAD DUP1 SWAP2 SUB SWAP1 RETURN JUMPDEST PUSH2 0xF5 PUSH1 0x4 DUP1 CALLDATASIZE SUB DUP2 ADD SWAP1 PUSH2 0xF0 SWAP2 SWAP1 PUSH2 0xFF0 JUMP JUMPDEST PUSH2 0x48B JUMP JUMPDEST STOP JUMPDEST PUSH2 0x111 PUSH1 0x4 DUP1 CALLDATASIZE SUB DUP2 ADD SWAP1 PUSH2 0x10C SWAP2 SWAP1 PUSH2 0xFF0 JUMP JUMPDEST PUSH2 0x5A7 JUMP JUMPDEST PUSH1 0x40 MLOAD PUSH2 0x11E SWAP2 SWAP1 PUSH2 0x102A JUMP JUMPDEST PUSH1 0x40 MLOAD DUP1 SWAP2 SUB SWAP1 RETURN JUMPDEST PUSH2 0x141 PUSH1 0x4 DUP1 CALLDATASIZE SUB DUP2 ADD SWAP1 PUSH2 0x13C SWAP2 SWAP1 PUSH2 0xFF0 JUMP JUMPDEST PUSH2 0x5C4 JUMP JUMPDEST STOP JUMPDEST PUSH2 0x15D PUSH1 0x4 DUP1 CALLDATASIZE SUB DUP2 ADD SWAP1 PUSH2 0x158 SWAP2 SWAP1 PUSH2 0x1199 JUMP JUMPDEST PUSH2 0x6DF JUMP JUMPDEST STOP JUMPDEST PUSH2 0x179 PUSH1 0x4 DUP1 CALLDATASIZE SUB DUP2 ADD SWAP1 PUSH2 0x174 SWAP2 SWAP1 PUSH2 0xE06 JUMP JUMPDEST PUSH2 0x8E7 JUMP JUMPDEST PUSH1 0x40 MLOAD PUSH2 0x18B SWAP7 SWAP6 SWAP5 SWAP4 SWAP3 SWAP2 SWAP1 PUSH2 0x12B7 JUMP JUMPDEST PUSH1 0x40 MLOAD DUP1 SWAP2 SUB SWAP1 RETURN JUMPDEST PUSH2 0x1AE PUSH1 0x4 DUP1 CALLDATASIZE SUB DUP2 ADD SWAP1 PUSH2 0x1A9 SWAP2 SWAP1 PUSH2 0xE06 JUMP JUMPDEST PUSH2 0xABD JUMP JUMPDEST STOP JUMPDEST PUSH2 0x1CA PUSH1 0x4 DUP1 CALLDATASIZE SUB DUP2 ADD SWAP1 PUSH2 0x1C5 SWAP2 SWAP1 PUSH2 0x132B JUMP JUMPDEST PUSH2 0xBF7 JUMP JUMPDEST PUSH1 0x40 MLOAD PUSH2 0x1D8 SWAP3 SWAP2 SWAP1 PUSH2 0x1372 JUMP JUMPDEST PUSH1 0x40 MLOAD DUP1 SWAP2 SUB SWAP1 RETURN JUMPDEST PUSH2 0x1E9 PUSH2 0xC3B JUMP JUMPDEST PUSH1 0x40 MLOAD PUSH2 0x1F6 SWAP2 SWAP1 PUSH2 0x1399 JUMP JUMPDEST PUSH1 0x40 MLOAD DUP1 SWAP2 SUB SWAP1 RETURN JUMPDEST PUSH2 0x219 PUSH1 0x4 DUP1 CALLDATASIZE SUB DUP2 ADD SWAP1 PUSH2 0x214 SWAP2 SWAP1 PUSH2 0x13B2 JUMP JUMPDEST PUSH2 0xC41 JUMP JUMPDEST STOP JUMPDEST PUSH2 0x223 PUSH2 0xD67 JUMP JUMPDEST PUSH1 0x40 MLOAD PUSH2 0x230 SWAP2 SWAP1 PUSH2 0x141B JUMP JUMPDEST PUSH1 0x40 MLOAD DUP1 SWAP2 SUB SWAP1 RETURN JUMPDEST PUSH2 0x241 PUSH2 0xD8A JUMP JUMPDEST PUSH0 PUSH1 0x1 PUSH0 DUP5 DUP2 MSTORE PUSH1 0x20 ADD SWAP1 DUP2 MSTORE PUSH1 0x20 ADD PUSH0 KECCAK256 PUSH1 0x40 MLOAD DUP1 PUSH1 0xC0 ADD PUSH1 0x40 MSTORE SWAP1 DUP2 PUSH0 DUP3 ADD SLOAD DUP2 MSTORE PUSH1 0x20 ADD PUSH1 0x1 DUP3 ADD DUP1 SLOAD PUSH2 0x277 SWAP1 PUSH2 0x1461 JUMP JUMPDEST DUP1 PUSH1 0x1F ADD PUSH1 0x20 DUP1 SWAP2 DIV MUL PUSH1 0x20 ADD PUSH1 0x40 MLOAD SWAP1 DUP2 ADD PUSH1 0x40 MSTORE DUP1 SWAP3 SWAP2 SWAP1 DUP2 DUP2 MSTORE PUSH1 0x20 ADD DUP3 DUP1 SLOAD PUSH2 0x2A3 SWAP1 PUSH2 0x1461 JUMP JUMPDEST DUP1 ISZERO PUSH2 0x2EE JUMPI DUP1 PUSH1 0x1F LT PUSH2 0x2C5 JUMPI PUSH2 0x100 DUP1 DUP4 SLOAD DIV MUL DUP4 MSTORE SWAP2 PUSH1 0x20 ADD SWAP2 PUSH2 0x2EE JUMP JUMPDEST DUP3 ADD SWAP2 SWAP1 PUSH0 MSTORE PUSH1 0x20 PUSH0 KECCAK256 SWAP1 JUMPDEST DUP2 SLOAD DUP2 MSTORE SWAP1 PUSH1 0x1 ADD SWAP1 PUSH1 0x20 ADD DUP1 DUP4 GT PUSH2 0x2D1 JUMPI DUP3 SWAP1 SUB PUSH1 0x1F AND DUP3 ADD SWAP2 JUMPDEST POP POP POP POP POP DUP2 MSTORE PUSH1 0x20 ADD PUSH1 0x2 DUP3 ADD DUP1 SLOAD PUSH2 0x307 SWAP1 PUSH2 0x1461 JUMP JUMPDEST DUP1 PUSH1 0x1F ADD PUSH1 0x20 DUP1 SWAP2 DIV MUL PUSH1 0x20 ADD PUSH1 0x40 MLOAD SWAP1 DUP2 ADD PUSH1 0x40 MSTORE DUP1 SWAP3 SWAP2 SWAP1 DUP2 DUP2 MSTORE PUSH1 0x20 ADD DUP3 DUP1 SLOAD PUSH2 0x333 SWAP1 PUSH2 0x1461 JUMP JUMPDEST DUP1 ISZERO PUSH2 0x37E JUMPI DUP1 PUSH1 0x1F LT PUSH2 0x355 JUMPI PUSH2 0x100 DUP1 DUP4 SLOAD DIV MUL DUP4 MSTORE SWAP2 PUSH1 0x20 ADD SWAP2 PUSH2 0x37E JUMP JUMPDEST DUP3 ADD SWAP2 SWAP1 PUSH0 MSTORE PUSH1 0x20 PUSH0 KECCAK256 SWAP1 JUMPDEST DUP2 SLOAD DUP2 MSTORE SWAP1 PUSH1 0x1 ADD SWAP1 PUSH1 0x20 ADD DUP1 DUP4 GT PUSH2 0x361 JUMPI DUP3 SWAP1 SUB PUSH1 0x1F AND DUP3 ADD SWAP2 JUMPDEST POP POP POP POP POP DUP2 MSTORE PUSH1 0x20 ADD PUSH1 0x3 DUP3 ADD DUP1 SLOAD PUSH2 0x397 SWAP1 PUSH2 0x1461 JUMP JUMPDEST DUP1 PUSH1 0x1F ADD PUSH1 0x20 DUP1 SWAP2 DIV MUL PUSH1 0x20 ADD PUSH1 0x40 MLOAD SWAP1 DUP2 ADD PUSH1 0x40 MSTORE DUP1 SWAP3 SWAP2 SWAP1 DUP2 DUP2 MSTORE PUSH1 0x20 ADD DUP3 DUP1 SLOAD PUSH2 0x3C3 SWAP1 PUSH2 0x1461 JUMP JUMPDEST DUP1 ISZERO PUSH2 0x40E JUMPI DUP1 PUSH1 0x1F LT PUSH2 0x3E5 JUMPI PUSH2 0x100 DUP1 DUP4 SLOAD DIV MUL DUP4 MSTORE SWAP2 PUSH1 0x20 ADD SWAP2 PUSH2 0x40E JUMP JUMPDEST DUP3 ADD SWAP2 SWAP1 PUSH0 MSTORE PUSH1 0x20 PUSH0 KECCAK256 SWAP1 JUMPDEST DUP2 SLOAD DUP2 MSTORE SWAP1 PUSH1 0x1 ADD SWAP1 PUSH1 0x20 ADD DUP1 DUP4 GT PUSH2 0x3F1 JUMPI DUP3 SWAP1 SUB PUSH1 0x1F AND DUP3 ADD SWAP2 JUMPDEST POP POP POP POP POP DUP2 MSTORE PUSH1 0x20 ADD PUSH1 0x4 DUP3 ADD PUSH0 SWAP1 SLOAD SWAP1 PUSH2 0x100 EXP SWAP1 DIV PUSH1 0xFF AND ISZERO ISZERO ISZERO ISZERO DUP2 MSTORE PUSH1 0x20 ADD PUSH1 0x5 DUP3 ADD SLOAD DUP2 MSTORE POP POP SWAP1 POP DUP3 DUP2 PUSH0 ADD MLOAD EQ PUSH2 0x482 JUMPI PUSH1 0x40 MLOAD PUSH32 0x8C379A000000000000000000000000000000000000000000000000000000000 DUP2 MSTORE PUSH1 0x4 ADD PUSH2 0x479 SWAP1 PUSH2 0x14DB JUMP JUMPDEST PUSH1 0x40 MLOAD DUP1 SWAP2 SUB SWAP1 REVERT JUMPDEST DUP1 SWAP2 POP POP SWAP2 SWAP1 POP JUMP JUMPDEST PUSH0 DUP1 SLOAD SWAP1 PUSH2 0x100 EXP SWAP1 DIV PUSH20 0xFFFFFFFFFFFFFFFFFFFFFFFFFFFFFFFFFFFFFFFF AND PUSH20 0xFFFFFFFFFFFFFFFFFFFFFFFFFFFFFFFFFFFFFFFF AND CALLER PUSH20 0xFFFFFFFFFFFFFFFFFFFFFFFFFFFFFFFFFFFFFFFF AND EQ PUSH2 0x518 JUMPI PUSH1 0x40 MLOAD PUSH32 0x8C379A000000000000000000000000000000000000000000000000000000000 DUP2 MSTORE PUSH1 0x4 ADD PUSH2 0x50F SWAP1 PUSH2 0x1569 JUMP JUMPDEST PUSH1 0x40 MLOAD DUP1 SWAP2 SUB SWAP1 REVERT JUMPDEST PUSH1 0x1 PUSH1 0x4 PUSH0 DUP4 PUSH20 0xFFFFFFFFFFFFFFFFFFFFFFFFFFFFFFFFFFFFFFFF AND PUSH20 0xFFFFFFFFFFFFFFFFFFFFFFFFFFFFFFFFFFFFFFFF AND DUP2 MSTORE PUSH1 0x20 ADD SWAP1 DUP2 MSTORE PUSH1 0x20 ADD PUSH0 KECCAK256 PUSH0 PUSH2 0x100 EXP DUP2 SLOAD DUP2 PUSH1 0xFF MUL NOT AND SWAP1 DUP4 ISZERO ISZERO MUL OR SWAP1 SSTORE POP PUSH32 0x5E7C881D716BEE8CB7ED92293133BA156704252439E5C502C277448F04E20C2 DUP2 PUSH1 0x40 MLOAD PUSH2 0x59C SWAP2 SWAP1 PUSH2 0x141B JUMP JUMPDEST PUSH1 0x40 MLOAD DUP1 SWAP2 SUB SWAP1 LOG1 POP JUMP JUMPDEST PUSH1 0x4 PUSH1 0x20 MSTORE DUP1 PUSH0 MSTORE PUSH1 0x40 PUSH0 KECCAK256 PUSH0 SWAP2 POP SLOAD SWAP1 PUSH2 0x100 EXP SWAP1 DIV PUSH1 0xFF AND DUP2 JUMP JUMPDEST PUSH0 DUP1 SLOAD SWAP1 PUSH2 0x100 EXP SWAP1 DIV PUSH20 0xFFFFFFFFFFFFFFFFFFFFFFFFFFFFFFFFFFFFFFFF AND PUSH20 0xFFFFFFFFFFFFFFFFFFFFFFFFFFFFFFFFFFFFFFFF AND CALLER PUSH20 0xFFFFFFFFFFFFFFFFFFFFFFFFFFFFFFFFFFFFFFFF AND EQ PUSH2 0x651 JUMPI PUSH1 0x40 MLOAD PUSH32 0x8C379A000000000000000000000000000000000000000000000000000000000 DUP2 MSTORE PUSH1 0x4 ADD PUSH2 0x648 SWAP1 PUSH2 0x1569 JUMP JUMPDEST PUSH1 0x40 MLOAD DUP1 SWAP2 SUB SWAP1 REVERT JUMPDEST PUSH0 PUSH1 0x4 PUSH0 DUP4 PUSH20 0xFFFFFFFFFFFFFFFFFFFFFFFFFFFFFFFFFFFFFFFF AND PUSH20 0xFFFFFFFFFFFFFFFFFFFFFFFFFFFFFFFFFFFFFFFF AND DUP2 MSTORE PUSH1 0x20 ADD SWAP1 DUP2 MSTORE PUSH1 0x20 ADD PUSH0 KECCAK256 PUSH0 PUSH2 0x100 EXP DUP2 SLOAD DUP2 PUSH1 0xFF MUL NOT AND SWAP1 DUP4 ISZERO ISZERO MUL OR SWAP1 SSTORE POP PUSH32 0xAF66545C919A3BE306EE446D8F42A9558B5B022620DF880517BC9593EC0F2D52 DUP2 PUSH1 0x40 MLOAD PUSH2 0x6D4 SWAP2 SWAP1 PUSH2 0x141B JUMP JUMPDEST PUSH1 0x40 MLOAD DUP1 SWAP2 SUB SWAP1 LOG1 POP JUMP JUMPDEST PUSH1 0x4 PUSH0 CALLER PUSH20 0xFFFFFFFFFFFFFFFFFFFFFFFFFFFFFFFFFFFFFFFF AND PUSH20 0xFFFFFFFFFFFFFFFFFFFFFFFFFFFFFFFFFFFFFFFF AND DUP2 MSTORE PUSH1 0x20 ADD SWAP1 DUP2 MSTORE PUSH1 0x20 ADD PUSH0 KECCAK256 PUSH0 SWAP1 SLOAD SWAP1 PUSH2 0x100 EXP SWAP1 DIV PUSH1 0xFF AND PUSH2 0x768 JUMPI PUSH1 0x40 MLOAD PUSH32 0x8C379A000000000000000000000000000000000000000000000000000000000 DUP2 MSTORE PUSH1 0x4 ADD PUSH2 0x75F SWAP1 PUSH2 0x15F7 JUMP JUMPDEST PUSH1 0x40 MLOAD DUP1 SWAP2 SUB SWAP1 REVERT JUMPDEST DUP4 PUSH1 0x2 DUP2 PUSH1 0x40 MLOAD PUSH2 0x779 SWAP2 SWAP1 PUSH2 0x164F JUMP JUMPDEST SWAP1 DUP2 MSTORE PUSH1 0x20 ADD PUSH1 0x40 MLOAD DUP1 SWAP2 SUB SWAP1 KECCAK256 PUSH0 ADD PUSH0 SWAP1 SLOAD SWAP1 PUSH2 0x100 EXP SWAP1 DIV PUSH1 0xFF AND PUSH2 0x7D5 JUMPI PUSH1 0x40 MLOAD PUSH32 0x8C379A000000000000000000000000000000000000000000000000000000000 DUP2 MSTORE PUSH1 0x4 ADD PUSH2 0x7CC SWAP1 PUSH2 0x16D5 JUMP JUMPDEST PUSH1 0x40 MLOAD DUP1 SWAP2 SUB SWAP1 REVERT JUMPDEST PUSH1 0x40 MLOAD DUP1 PUSH1 0xC0 ADD PUSH1 0x40 MSTORE DUP1 PUSH1 0x3 SLOAD DUP2 MSTORE PUSH1 0x20 ADD DUP7 DUP2 MSTORE PUSH1 0x20 ADD DUP6 DUP2 MSTORE PUSH1 0x20 ADD DUP5 DUP2 MSTORE PUSH1 0x20 ADD PUSH1 0x1 ISZERO ISZERO DUP2 MSTORE PUSH1 0x20 ADD DUP4 DUP2 MSTORE POP PUSH1 0x1 PUSH0 PUSH1 0x3 SLOAD DUP2 MSTORE PUSH1 0x20 ADD SWAP1 DUP2 MSTORE PUSH1 0x20 ADD PUSH0 KECCAK256 PUSH0 DUP3 ADD MLOAD DUP2 PUSH0 ADD SSTORE PUSH1 0x20 DUP3 ADD MLOAD DUP2 PUSH1 0x1 ADD SWAP1 DUP2 PUSH2 0x837 SWAP2 SWAP1 PUSH2 0x1890 JUMP JUMPDEST POP PUSH1 0x40 DUP3 ADD MLOAD DUP2 PUSH1 0x2 ADD SWAP1 DUP2 PUSH2 0x84D SWAP2 SWAP1 PUSH2 0x1890 JUMP JUMPDEST POP PUSH1 0x60 DUP3 ADD MLOAD DUP2 PUSH1 0x3 ADD SWAP1 DUP2 PUSH2 0x863 SWAP2 SWAP1 PUSH2 0x1890 JUMP JUMPDEST POP PUSH1 0x80 DUP3 ADD MLOAD DUP2 PUSH1 0x4 ADD PUSH0 PUSH2 0x100 EXP DUP2 SLOAD DUP2 PUSH1 0xFF MUL NOT AND SWAP1 DUP4 ISZERO ISZERO MUL OR SWAP1 SSTORE POP PUSH1 0xA0 DUP3 ADD MLOAD DUP2 PUSH1 0x5 ADD SSTORE SWAP1 POP POP PUSH32 0x6B352E211B4D936DA8B329B89379DC32DF52C107A79A9544F3ECB5CCBE5EE2B7 PUSH1 0x3 SLOAD PUSH1 0x40 MLOAD PUSH2 0x8C1 SWAP2 SWAP1 PUSH2 0x1399 JUMP JUMPDEST PUSH1 0x40 MLOAD DUP1 SWAP2 SUB SWAP1 LOG1 PUSH1 0x3 PUSH0 DUP2 SLOAD DUP1 SWAP3 SWAP2 SWAP1 PUSH2 0x8DB SWAP1 PUSH2 0x198C JUMP JUMPDEST SWAP2 SWAP1 POP SSTORE POP POP POP POP POP POP JUMP JUMPDEST PUSH1 0x1 PUSH1 0x20 MSTORE DUP1 PUSH0 MSTORE PUSH1 0x40 PUSH0 KECCAK256 PUSH0 SWAP2 POP SWAP1 POP DUP1 PUSH0 ADD SLOAD SWAP1 DUP1 PUSH1 0x1 ADD DUP1 SLOAD PUSH2 0x90C SWAP1 PUSH2 0x1461 JUMP JUMPDEST DUP1 PUSH1 0x1F ADD PUSH1 0x20 DUP1 SWAP2 DIV MUL PUSH1 0x20 ADD PUSH1 0x40 MLOAD SWAP1 DUP2 ADD PUSH1 0x40 MSTORE DUP1 SWAP3 SWAP2 SWAP1 DUP2 DUP2 MSTORE PUSH1 0x20 ADD DUP3 DUP1 SLOAD PUSH2 0x938 SWAP1 PUSH2 0x1461 JUMP JUMPDEST DUP1 ISZERO PUSH2 0x983 JUMPI DUP1 PUSH1 0x1F LT PUSH2 0x95A JUMPI PUSH2 0x100 DUP1 DUP4 SLOAD DIV MUL DUP4 MSTORE SWAP2 PUSH1 0x20 ADD SWAP2 PUSH2 0x983 JUMP JUMPDEST DUP3 ADD SWAP2 SWAP1 PUSH0 MSTORE PUSH1 0x20 PUSH0 KECCAK256 SWAP1 JUMPDEST DUP2 SLOAD DUP2 MSTORE SWAP1 PUSH1 0x1 ADD SWAP1 PUSH1 0x20 ADD DUP1 DUP4 GT PUSH2 0x966 JUMPI DUP3 SWAP1 SUB PUSH1 0x1F AND DUP3 ADD SWAP2 JUMPDEST POP POP POP POP POP SWAP1 DUP1 PUSH1 0x2 ADD DUP1 SLOAD PUSH2 0x998 SWAP1 PUSH2 0x1461 JUMP JUMPDEST DUP1 PUSH1 0x1F ADD PUSH1 0x20 DUP1 SWAP2 DIV MUL PUSH1 0x20 ADD PUSH1 0x40 MLOAD SWAP1 DUP2 ADD PUSH1 0x40 MSTORE DUP1 SWAP3 SWAP2 SWAP1 DUP2 DUP2 MSTORE PUSH1 0x20 ADD DUP3 DUP1 SLOAD PUSH2 0x9C4 SWAP1 PUSH2 0x1461 JUMP JUMPDEST DUP1 ISZERO PUSH2 0xA0F JUMPI DUP1 PUSH1 0x1F LT PUSH2 0x9E6 JUMPI PUSH2 0x100 DUP1 DUP4 SLOAD DIV MUL DUP4 MSTORE SWAP2 PUSH1 0x20 ADD SWAP2 PUSH2 0xA0F JUMP JUMPDEST DUP3 ADD SWAP2 SWAP1 PUSH0 MSTORE PUSH1 0x20 PUSH0 KECCAK256 SWAP1 JUMPDEST DUP2 SLOAD DUP2 MSTORE SWAP1 PUSH1 0x1 ADD SWAP1 PUSH1 0x20 ADD DUP1 DUP4 GT PUSH2 0x9F2 JUMPI DUP3 SWAP1 SUB PUSH1 0x1F AND DUP3 ADD SWAP2 JUMPDEST POP POP POP POP POP SWAP1 DUP1 PUSH1 0x3 ADD DUP1 SLOAD PUSH2 0xA24 SWAP1 PUSH2 0x1461 JUMP JUMPDEST DUP1 PUSH1 0x1F ADD PUSH1 0x20 DUP1 SWAP2 DIV MUL PUSH1 0x20 ADD PUSH1 0x40 MLOAD SWAP1 DUP2 ADD PUSH1 0x40 MSTORE DUP1 SWAP3 SWAP2 SWAP1 DUP2 DUP2 MSTORE PUSH1 0x20 ADD DUP3 DUP1 SLOAD PUSH2 0xA50 SWAP1 PUSH2 0x1461 JUMP JUMPDEST DUP1 ISZERO PUSH2 0xA9B JUMPI DUP1 PUSH1 0x1F LT PUSH2 0xA72 JUMPI PUSH2 0x100 DUP1 DUP4 SLOAD DIV MUL DUP4 MSTORE SWAP2 PUSH1 0x20 ADD SWAP2 PUSH2 0xA9B JUMP JUMPDEST DUP3 ADD SWAP2 SWAP1 PUSH0 MSTORE PUSH1 0x20 PUSH0 KECCAK256 SWAP1 JUMPDEST DUP2 SLOAD DUP2 MSTORE SWAP1 PUSH1 0x1 ADD SWAP1 PUSH1 0x20 ADD DUP1 DUP4 GT PUSH2 0xA7E JUMPI DUP3 SWAP1 SUB PUSH1 0x1F AND DUP3 ADD SWAP2 JUMPDEST POP POP POP POP POP SWAP1 DUP1 PUSH1 0x4 ADD PUSH0 SWAP1 SLOAD SWAP1 PUSH2 0x100 EXP SWAP1 DIV PUSH1 0xFF AND SWAP1 DUP1 PUSH1 0x5 ADD SLOAD SWAP1 POP DUP7 JUMP JUMPDEST PUSH1 0x4 PUSH0 CALLER PUSH20 0xFFFFFFFFFFFFFFFFFFFFFFFFFFFFFFFFFFFFFFFF AND PUSH20 0xFFFFFFFFFFFFFFFFFFFFFFFFFFFFFFFFFFFFFFFF AND DUP2 MSTORE PUSH1 0x20 ADD SWAP1 DUP2 MSTORE PUSH1 0x20 ADD PUSH0 KECCAK256 PUSH0 SWAP1 SLOAD SWAP1 PUSH2 0x100 EXP SWAP1 DIV PUSH1 0xFF AND PUSH2 0xB46 JUMPI PUSH1 0x40 MLOAD PUSH32 0x8C379A000000000000000000000000000000000000000000000000000000000 DUP2 MSTORE PUSH1 0x4 ADD PUSH2 0xB3D SWAP1 PUSH2 0x15F7 JUMP JUMPDEST PUSH1 0x40 MLOAD DUP1 SWAP2 SUB SWAP1 REVERT JUMPDEST PUSH0 PUSH1 0x1 PUSH0 DUP4 DUP2 MSTORE PUSH1 0x20 ADD SWAP1 DUP2 MSTORE PUSH1 0x20 ADD PUSH0 KECCAK256 SWAP1 POP DUP2 DUP2 PUSH0 ADD SLOAD EQ PUSH2 0xB9F JUMPI PUSH1 0x40 MLOAD PUSH32 0x8C379A000000000000000000000000000000000000000000000000000000000 DUP2 MSTORE PUSH1 0x4 ADD PUSH2 0xB96 SWAP1 PUSH2 0x14DB JUMP JUMPDEST PUSH1 0x40 MLOAD DUP1 SWAP2 SUB SWAP1 REVERT JUMPDEST PUSH0 DUP2 PUSH1 0x4 ADD PUSH0 PUSH2 0x100 EXP DUP2 SLOAD DUP2 PUSH1 0xFF MUL NOT AND SWAP1 DUP4 ISZERO ISZERO MUL OR SWAP1 SSTORE POP PUSH32 0x739766C917BEFD2312040CD8BDBCC45E456F5699D6E4466FB15DAD5089660BE0 DUP3 PUSH0 PUSH1 0x40 MLOAD PUSH2 0xBEB SWAP3 SWAP2 SWAP1 PUSH2 0x19D3 JUMP JUMPDEST PUSH1 0x40 MLOAD DUP1 SWAP2 SUB SWAP1 LOG1 POP POP JUMP JUMPDEST PUSH1 0x2 DUP2 DUP1 MLOAD PUSH1 0x20 DUP2 ADD DUP3 ADD DUP1 MLOAD DUP5 DUP3 MSTORE PUSH1 0x20 DUP4 ADD PUSH1 0x20 DUP6 ADD KECCAK256 DUP2 DUP4 MSTORE DUP1 SWAP6 POP POP POP POP POP POP PUSH0 SWAP2 POP SWAP1 POP DUP1 PUSH0 ADD PUSH0 SWAP1 SLOAD SWAP1 PUSH2 0x100 EXP SWAP1 DIV PUSH1 0xFF AND SWAP1 DUP1 PUSH1 0x1 ADD SLOAD SWAP1 POP DUP3 JUMP JUMPDEST PUSH1 0x3 SLOAD DUP2 JUMP JUMPDEST PUSH1 0x4 PUSH0 CALLER PUSH20 0xFFFFFFFFFFFFFFFFFFFFFFFFFFFFFFFFFFFFFFFF AND PUSH20 0xFFFFFFFFFFFFFFFFFFFFFFFFFFFFFFFFFFFFFFFF AND DUP2 MSTORE PUSH1 0x20 ADD SWAP1 DUP2 MSTORE PUSH1 0x20 ADD PUSH0 KECCAK256 PUSH0 SWAP1 SLOAD SWAP1 PUSH2 0x100 EXP SWAP1 DIV PUSH1 0xFF AND PUSH2 0xCCA JUMPI PUSH1 0x40 MLOAD PUSH32 0x8C379A000000000000000000000000000000000000000000000000000000000 DUP2 MSTORE PUSH1 0x4 ADD PUSH2 0xCC1 SWAP1 PUSH2 0x15F7 JUMP JUMPDEST PUSH1 0x40 MLOAD DUP1 SWAP2 SUB SWAP1 REVERT JUMPDEST PUSH1 0x40 MLOAD DUP1 PUSH1 0x40 ADD PUSH1 0x40 MSTORE DUP1 PUSH1 0x1 ISZERO ISZERO DUP2 MSTORE PUSH1 0x20 ADD DUP3 DUP2 MSTORE POP PUSH1 0x2 DUP4 PUSH1 0x40 MLOAD PUSH2 0xCF2 SWAP2 SWAP1 PUSH2 0x164F JUMP JUMPDEST SWAP1 DUP2 MSTORE PUSH1 0x20 ADD PUSH1 0x40 MLOAD DUP1 SWAP2 SUB SWAP1 KECCAK256 PUSH0 DUP3 ADD MLOAD DUP2 PUSH0 ADD PUSH0 PUSH2 0x100 EXP DUP2 SLOAD DUP2 PUSH1 0xFF MUL NOT AND SWAP1 DUP4 ISZERO ISZERO MUL OR SWAP1 SSTORE POP PUSH1 0x20 DUP3 ADD MLOAD DUP2 PUSH1 0x1 ADD SSTORE SWAP1 POP POP PUSH32 0x1AD9041122FE2E478EE6BD11D31817A11BEA93FD6FE94266DC5DDE821DEDD781 DUP3 DUP3 PUSH1 0x40 MLOAD PUSH2 0xD5B SWAP3 SWAP2 SWAP1 PUSH2 0x19FA JUMP JUMPDEST PUSH1 0x40 MLOAD DUP1 SWAP2 SUB SWAP1 LOG1 POP POP JUMP JUMPDEST PUSH0 DUP1 SLOAD SWAP1 PUSH2 0x100 EXP SWAP1 DIV PUSH20 0xFFFFFFFFFFFFFFFFFFFFFFFFFFFFFFFFFFFFFFFF AND DUP2 JUMP JUMPDEST PUSH1 0x40 MLOAD DUP1 PUSH1 0xC0 ADD PUSH1 0x40 MSTORE DUP1 PUSH0 DUP2 MSTORE PUSH1 0x20 ADD PUSH1 0x60 DUP2 MSTORE PUSH1 0x20 ADD PUSH1 0x60 DUP2 MSTORE PUSH1 0x20 ADD PUSH1 0x60 DUP2 MSTORE PUSH1 0x20 ADD PUSH0 ISZERO ISZERO DUP2 MSTORE PUSH1 0x20 ADD PUSH0 DUP1 NOT AND DUP2 MSTORE POP SWAP1 JUMP JUMPDEST PUSH0 PUSH1 0x40 MLOAD SWAP1 POP SWAP1 JUMP JUMPDEST PUSH0 DUP1 REVERT JUMPDEST PUSH0 DUP1 REVERT JUMPDEST PUSH0 DUP2 SWAP1 POP SWAP2 SWAP1 POP JUMP JUMPDEST PUSH2 0xDE5 DUP2 PUSH2 0xDD3 JUMP JUMPDEST DUP2 EQ PUSH2 0xDEF JUMPI PUSH0 DUP1 REVERT JUMPDEST POP JUMP JUMPDEST PUSH0 DUP2 CALLDATALOAD SWAP1 POP PUSH2 0xE00 DUP2 PUSH2 0xDDC JUMP JUMPDEST SWAP3 SWAP2 POP POP JUMP JUMPDEST PUSH0 PUSH1 0x20 DUP3 DUP5 SUB SLT ISZERO PUSH2 0xE1B JUMPI PUSH2 0xE1A PUSH2 0xDCB JUMP JUMPDEST JUMPDEST PUSH0 PUSH2 0xE28 DUP5 DUP3 DUP6 ADD PUSH2 0xDF2 JUMP JUMPDEST SWAP2 POP POP SWAP3 SWAP2 POP POP JUMP JUMPDEST PUSH2 0xE3A DUP2 PUSH2 0xDD3 JUMP JUMPDEST DUP3 MSTORE POP POP JUMP JUMPDEST PUSH0 DUP2 MLOAD SWAP1 POP SWAP2 SWAP1 POP JUMP JUMPDEST PUSH0 DUP3 DUP3 MSTORE PUSH1 0x20 DUP3 ADD SWAP1 POP SWAP3 SWAP2 POP POP JUMP JUMPDEST DUP3 DUP2 DUP4 MCOPY PUSH0 DUP4 DUP4 ADD MSTORE POP POP POP JUMP JUMPDEST PUSH0 PUSH1 0x1F NOT PUSH1 0x1F DUP4 ADD AND SWAP1 POP SWAP2 SWAP1 POP JUMP JUMPDEST PUSH0 PUSH2 0xE82 DUP3 PUSH2 0xE40 JUMP JUMPDEST PUSH2 0xE8C DUP2 DUP6 PUSH2 0xE4A JUMP JUMPDEST SWAP4 POP PUSH2 0xE9C DUP2 DUP6 PUSH1 0x20 DUP7 ADD PUSH2 0xE5A JUMP JUMPDEST PUSH2 0xEA5 DUP2 PUSH2 0xE68 JUMP JUMPDEST DUP5 ADD SWAP2 POP POP SWAP3 SWAP2 POP POP JUMP JUMPDEST PUSH0 DUP2 ISZERO ISZERO SWAP1 POP SWAP2 SWAP1 POP JUMP JUMPDEST PUSH2 0xEC4 DUP2 PUSH2 0xEB0 JUMP JUMPDEST DUP3 MSTORE POP POP JUMP JUMPDEST PUSH0 DUP2 SWAP1 POP SWAP2 SWAP1 POP JUMP JUMPDEST PUSH2 0xEDC DUP2 PUSH2 0xECA JUMP JUMPDEST DUP3 MSTORE POP POP JUMP JUMPDEST PUSH0 PUSH1 0xC0 DUP4 ADD PUSH0 DUP4 ADD MLOAD PUSH2 0xEF7 PUSH0 DUP7 ADD DUP3 PUSH2 0xE31 JUMP JUMPDEST POP PUSH1 0x20 DUP4 ADD MLOAD DUP5 DUP3 SUB PUSH1 0x20 DUP7 ADD MSTORE PUSH2 0xF0F DUP3 DUP3 PUSH2 0xE78 JUMP JUMPDEST SWAP2 POP POP PUSH1 0x40 DUP4 ADD MLOAD DUP5 DUP3 SUB PUSH1 0x40 DUP7 ADD MSTORE PUSH2 0xF29 DUP3 DUP3 PUSH2 0xE78 JUMP JUMPDEST SWAP2 POP POP PUSH1 0x60 DUP4 ADD MLOAD DUP5 DUP3 SUB PUSH1 0x60 DUP7 ADD MSTORE PUSH2 0xF43 DUP3 DUP3 PUSH2 0xE78 JUMP JUMPDEST SWAP2 POP POP PUSH1 0x80 DUP4 ADD MLOAD PUSH2 0xF58 PUSH1 0x80 DUP7 ADD DUP3 PUSH2 0xEBB JUMP JUMPDEST POP PUSH1 0xA0 DUP4 ADD MLOAD PUSH2 0xF6B PUSH1 0xA0 DUP7 ADD DUP3 PUSH2 0xED3 JUMP JUMPDEST POP DUP1 SWAP2 POP POP SWAP3 SWAP2 POP POP JUMP JUMPDEST PUSH0 PUSH1 0x20 DUP3 ADD SWAP1 POP DUP2 DUP2 SUB PUSH0 DUP4 ADD MSTORE PUSH2 0xF8E DUP2 DUP5 PUSH2 0xEE2 JUMP JUMPDEST SWAP1 POP SWAP3 SWAP2 POP POP JUMP JUMPDEST PUSH0 PUSH20 0xFFFFFFFFFFFFFFFFFFFFFFFFFFFFFFFFFFFFFFFF DUP3 AND SWAP1 POP SWAP2 SWAP1 POP JUMP JUMPDEST PUSH0 PUSH2 0xFBF DUP3 PUSH2 0xF96 JUMP JUMPDEST SWAP1 POP SWAP2 SWAP1 POP JUMP JUMPDEST PUSH2 0xFCF DUP2 PUSH2 0xFB5 JUMP JUMPDEST DUP2 EQ PUSH2 0xFD9 JUMPI PUSH0 DUP1 REVERT JUMPDEST POP JUMP JUMPDEST PUSH0 DUP2 CALLDATALOAD SWAP1 POP PUSH2 0xFEA DUP2 PUSH2 0xFC6 JUMP JUMPDEST SWAP3 SWAP2 POP POP JUMP JUMPDEST PUSH0 PUSH1 0x20 DUP3 DUP5 SUB SLT ISZERO PUSH2 0x1005 JUMPI PUSH2 0x1004 PUSH2 0xDCB JUMP JUMPDEST JUMPDEST PUSH0 PUSH2 0x1012 DUP5 DUP3 DUP6 ADD PUSH2 0xFDC JUMP JUMPDEST SWAP2 POP POP SWAP3 SWAP2 POP POP JUMP JUMPDEST PUSH2 0x1024 DUP2 PUSH2 0xEB0 JUMP JUMPDEST DUP3 MSTORE POP POP JUMP JUMPDEST PUSH0 PUSH1 0x20 DUP3 ADD SWAP1 POP PUSH2 0x103D PUSH0 DUP4 ADD DUP5 PUSH2 0x101B JUMP JUMPDEST SWAP3 SWAP2 POP POP JUMP JUMPDEST PUSH0 DUP1 REVERT JUMPDEST PUSH0 DUP1 REVERT JUMPDEST PUSH32 0x4E487B7100000000000000000000000000000000000000000000000000000000 PUSH0 MSTORE PUSH1 0x41 PUSH1 0x4 MSTORE PUSH1 0x24 PUSH0 REVERT JUMPDEST PUSH2 0x1081 DUP3 PUSH2 0xE68 JUMP JUMPDEST DUP2 ADD DUP2 DUP2 LT PUSH8 0xFFFFFFFFFFFFFFFF DUP3 GT OR ISZERO PUSH2 0x10A0 JUMPI PUSH2 0x109F PUSH2 0x104B JUMP JUMPDEST JUMPDEST DUP1 PUSH1 0x40 MSTORE POP POP POP JUMP JUMPDEST PUSH0 PUSH2 0x10B2 PUSH2 0xDC2 JUMP JUMPDEST SWAP1 POP PUSH2 0x10BE DUP3 DUP3 PUSH2 0x1078 JUMP JUMPDEST SWAP2 SWAP1 POP JUMP JUMPDEST PUSH0 PUSH8 0xFFFFFFFFFFFFFFFF DUP3 GT ISZERO PUSH2 0x10DD JUMPI PUSH2 0x10DC PUSH2 0x104B JUMP JUMPDEST JUMPDEST PUSH2 0x10E6 DUP3 PUSH2 0xE68 JUMP JUMPDEST SWAP1 POP PUSH1 0x20 DUP2 ADD SWAP1 POP SWAP2 SWAP1 POP JUMP JUMPDEST DUP3 DUP2 DUP4 CALLDATACOPY PUSH0 DUP4 DUP4 ADD MSTORE POP POP POP JUMP JUMPDEST PUSH0 PUSH2 0x1113 PUSH2 0x110E DUP5 PUSH2 0x10C3 JUMP JUMPDEST PUSH2 0x10A9 JUMP JUMPDEST SWAP1 POP DUP3 DUP2 MSTORE PUSH1 0x20 DUP2 ADD DUP5 DUP5 DUP5 ADD GT ISZERO PUSH2 0x112F JUMPI PUSH2 0x112E PUSH2 0x1047 JUMP JUMPDEST JUMPDEST PUSH2 0x113A DUP5 DUP3 DUP6 PUSH2 0x10F3 JUMP JUMPDEST POP SWAP4 SWAP3 POP POP POP JUMP JUMPDEST PUSH0 DUP3 PUSH1 0x1F DUP4 ADD SLT PUSH2 0x1156 JUMPI PUSH2 0x1155 PUSH2 0x1043 JUMP JUMPDEST JUMPDEST DUP2 CALLDATALOAD PUSH2 0x1166 DUP5 DUP3 PUSH1 0x20 DUP7 ADD PUSH2 0x1101 JUMP JUMPDEST SWAP2 POP POP SWAP3 SWAP2 POP POP JUMP JUMPDEST PUSH2 0x1178 DUP2 PUSH2 0xECA JUMP JUMPDEST DUP2 EQ PUSH2 0x1182 JUMPI PUSH0 DUP1 REVERT JUMPDEST POP JUMP JUMPDEST PUSH0 DUP2 CALLDATALOAD SWAP1 POP PUSH2 0x1193 DUP2 PUSH2 0x116F JUMP JUMPDEST SWAP3 SWAP2 POP POP JUMP JUMPDEST PUSH0 DUP1 PUSH0 DUP1 PUSH1 0x80 DUP6 DUP8 SUB SLT ISZERO PUSH2 0x11B1 JUMPI PUSH2 0x11B0 PUSH2 0xDCB JUMP JUMPDEST JUMPDEST PUSH0 DUP6 ADD CALLDATALOAD PUSH8 0xFFFFFFFFFFFFFFFF DUP2 GT ISZERO PUSH2 0x11CE JUMPI PUSH2 0x11CD PUSH2 0xDCF JUMP JUMPDEST JUMPDEST PUSH2 0x11DA DUP8 DUP3 DUP9 ADD PUSH2 0x1142 JUMP JUMPDEST SWAP5 POP POP PUSH1 0x20 DUP6 ADD CALLDATALOAD PUSH8 0xFFFFFFFFFFFFFFFF DUP2 GT ISZERO PUSH2 0x11FB JUMPI PUSH2 0x11FA PUSH2 0xDCF JUMP JUMPDEST JUMPDEST PUSH2 0x1207 DUP8 DUP3 DUP9 ADD PUSH2 0x1142 JUMP JUMPDEST SWAP4 POP POP PUSH1 0x40 DUP6 ADD CALLDATALOAD PUSH8 0xFFFFFFFFFFFFFFFF DUP2 GT ISZERO PUSH2 0x1228 JUMPI PUSH2 0x1227 PUSH2 0xDCF JUMP JUMPDEST JUMPDEST PUSH2 0x1234 DUP8 DUP3 DUP9 ADD PUSH2 0x1142 JUMP JUMPDEST SWAP3 POP POP PUSH1 0x60 PUSH2 0x1245 DUP8 DUP3 DUP9 ADD PUSH2 0x1185 JUMP JUMPDEST SWAP2 POP POP SWAP3 SWAP6 SWAP2 SWAP5 POP SWAP3 POP JUMP JUMPDEST PUSH2 0x125A DUP2 PUSH2 0xDD3 JUMP JUMPDEST DUP3 MSTORE POP POP JUMP JUMPDEST PUSH0 DUP3 DUP3 MSTORE PUSH1 0x20 DUP3 ADD SWAP1 POP SWAP3 SWAP2 POP POP JUMP JUMPDEST PUSH0 PUSH2 0x127A DUP3 PUSH2 0xE40 JUMP JUMPDEST PUSH2 0x1284 DUP2 DUP6 PUSH2 0x1260 JUMP JUMPDEST SWAP4 POP PUSH2 0x1294 DUP2 DUP6 PUSH1 0x20 DUP7 ADD PUSH2 0xE5A JUMP JUMPDEST PUSH2 0x129D DUP2 PUSH2 0xE68 JUMP JUMPDEST DUP5 ADD SWAP2 POP POP SWAP3 SWAP2 POP POP JUMP JUMPDEST PUSH2 0x12B1 DUP2 PUSH2 0xECA JUMP JUMPDEST DUP3 MSTORE POP POP JUMP JUMPDEST PUSH0 PUSH1 0xC0 DUP3 ADD SWAP1 POP PUSH2 0x12CA PUSH0 DUP4 ADD DUP10 PUSH2 0x1251 JUMP JUMPDEST DUP2 DUP2 SUB PUSH1 0x20 DUP4 ADD MSTORE PUSH2 0x12DC DUP2 DUP9 PUSH2 0x1270 JUMP JUMPDEST SWAP1 POP DUP2 DUP2 SUB PUSH1 0x40 DUP4 ADD MSTORE PUSH2 0x12F0 DUP2 DUP8 PUSH2 0x1270 JUMP JUMPDEST SWAP1 POP DUP2 DUP2 SUB PUSH1 0x60 DUP4 ADD MSTORE PUSH2 0x1304 DUP2 DUP7 PUSH2 0x1270 JUMP JUMPDEST SWAP1 POP PUSH2 0x1313 PUSH1 0x80 DUP4 ADD DUP6 PUSH2 0x101B JUMP JUMPDEST PUSH2 0x1320 PUSH1 0xA0 DUP4 ADD DUP5 PUSH2 0x12A8 JUMP JUMPDEST SWAP8 SWAP7 POP POP POP POP POP POP POP JUMP JUMPDEST PUSH0 PUSH1 0x20 DUP3 DUP5 SUB SLT ISZERO PUSH2 0x1340 JUMPI PUSH2 0x133F PUSH2 0xDCB JUMP JUMPDEST JUMPDEST PUSH0 DUP3 ADD CALLDATALOAD PUSH8 0xFFFFFFFFFFFFFFFF DUP2 GT ISZERO PUSH2 0x135D JUMPI PUSH2 0x135C PUSH2 0xDCF JUMP JUMPDEST JUMPDEST PUSH2 0x1369 DUP5 DUP3 DUP6 ADD PUSH2 0x1142 JUMP JUMPDEST SWAP2 POP POP SWAP3 SWAP2 POP POP JUMP JUMPDEST PUSH0 PUSH1 0x40 DUP3 ADD SWAP1 POP PUSH2 0x1385 PUSH0 DUP4 ADD DUP6 PUSH2 0x101B JUMP JUMPDEST PUSH2 0x1392 PUSH1 0x20 DUP4 ADD DUP5 PUSH2 0x12A8 JUMP JUMPDEST SWAP4 SWAP3 POP POP POP JUMP JUMPDEST PUSH0 PUSH1 0x20 DUP3 ADD SWAP1 POP PUSH2 0x13AC PUSH0 DUP4 ADD DUP5 PUSH2 0x1251 JUMP JUMPDEST SWAP3 SWAP2 POP POP JUMP JUMPDEST PUSH0 DUP1 PUSH1 0x40 DUP4 DUP6 SUB SLT ISZERO PUSH2 0x13C8 JUMPI PUSH2 0x13C7 PUSH2 0xDCB JUMP JUMPDEST JUMPDEST PUSH0 DUP4 ADD CALLDATALOAD PUSH8 0xFFFFFFFFFFFFFFFF DUP2 GT ISZERO PUSH2 0x13E5 JUMPI PUSH2 0x13E4 PUSH2 0xDCF JUMP JUMPDEST JUMPDEST PUSH2 0x13F1 DUP6 DUP3 DUP7 ADD PUSH2 0x1142 JUMP JUMPDEST SWAP3 POP POP PUSH1 0x20 PUSH2 0x1402 DUP6 DUP3 DUP7 ADD PUSH2 0x1185 JUMP JUMPDEST SWAP2 POP POP SWAP3 POP SWAP3 SWAP1 POP JUMP JUMPDEST PUSH2 0x1415 DUP2 PUSH2 0xFB5 JUMP JUMPDEST DUP3 MSTORE POP POP JUMP JUMPDEST PUSH0 PUSH1 0x20 DUP3 ADD SWAP1 POP PUSH2 0x142E PUSH0 DUP4 ADD DUP5 PUSH2 0x140C JUMP JUMPDEST SWAP3 SWAP2 POP POP JUMP JUMPDEST PUSH32 0x4E487B7100000000000000000000000000000000000000000000000000000000 PUSH0 MSTORE PUSH1 0x22 PUSH1 0x4 MSTORE PUSH1 0x24 PUSH0 REVERT JUMPDEST PUSH0 PUSH1 0x2 DUP3 DIV SWAP1 POP PUSH1 0x1 DUP3 AND DUP1 PUSH2 0x1478 JUMPI PUSH1 0x7F DUP3 AND SWAP2 POP JUMPDEST PUSH1 0x20 DUP3 LT DUP2 SUB PUSH2 0x148B JUMPI PUSH2 0x148A PUSH2 0x1434 JUMP JUMPDEST JUMPDEST POP SWAP2 SWAP1 POP JUMP JUMPDEST PUSH32 0x4365727469666963617465206E6F7420666F756E640000000000000000000000 PUSH0 DUP3 ADD MSTORE POP JUMP JUMPDEST PUSH0 PUSH2 0x14C5 PUSH1 0x15 DUP4 PUSH2 0x1260 JUMP JUMPDEST SWAP2 POP PUSH2 0x14D0 DUP3 PUSH2 0x1491 JUMP JUMPDEST PUSH1 0x20 DUP3 ADD SWAP1 POP SWAP2 SWAP1 POP JUMP JUMPDEST PUSH0 PUSH1 0x20 DUP3 ADD SWAP1 POP DUP2 DUP2 SUB PUSH0 DUP4 ADD MSTORE PUSH2 0x14F2 DUP2 PUSH2 0x14B9 JUMP JUMPDEST SWAP1 POP SWAP2 SWAP1 POP JUMP JUMPDEST PUSH32 0x4F6E6C792061646D696E2063616E2063616C6C20746869732066756E6374696F PUSH0 DUP3 ADD MSTORE PUSH32 0x6E00000000000000000000000000000000000000000000000000000000000000 PUSH1 0x20 DUP3 ADD MSTORE POP JUMP JUMPDEST PUSH0 PUSH2 0x1553 PUSH1 0x21 DUP4 PUSH2 0x1260 JUMP JUMPDEST SWAP2 POP PUSH2 0x155E DUP3 PUSH2 0x14F9 JUMP JUMPDEST PUSH1 0x40 DUP3 ADD SWAP1 POP SWAP2 SWAP1 POP JUMP JUMPDEST PUSH0 PUSH1 0x20 DUP3 ADD SWAP1 POP DUP2 DUP2 SUB PUSH0 DUP4 ADD MSTORE PUSH2 0x1580 DUP2 PUSH2 0x1547 JUMP JUMPDEST SWAP1 POP SWAP2 SWAP1 POP JUMP JUMPDEST PUSH32 0x4F6E6C7920617574686F72697A6564206973737565722063616E2063616C6C20 PUSH0 DUP3 ADD MSTORE PUSH32 0x746869732066756E6374696F6E00000000000000000000000000000000000000 PUSH1 0x20 DUP3 ADD MSTORE POP JUMP JUMPDEST PUSH0 PUSH2 0x15E1 PUSH1 0x2D DUP4 PUSH2 0x1260 JUMP JUMPDEST SWAP2 POP PUSH2 0x15EC DUP3 PUSH2 0x1587 JUMP JUMPDEST PUSH1 0x40 DUP3 ADD SWAP1 POP SWAP2 SWAP1 POP JUMP JUMPDEST PUSH0 PUSH1 0x20 DUP3 ADD SWAP1 POP DUP2 DUP2 SUB PUSH0 DUP4 ADD MSTORE PUSH2 0x160E DUP2 PUSH2 0x15D5 JUMP JUMPDEST SWAP1 POP SWAP2 SWAP1 POP JUMP JUMPDEST PUSH0 DUP2 SWAP1 POP SWAP3 SWAP2 POP POP JUMP JUMPDEST PUSH0 PUSH2 0x1629 DUP3 PUSH2 0xE40 JUMP JUMPDEST PUSH2 0x1633 DUP2 DUP6 PUSH2 0x1615 JUMP JUMPDEST SWAP4 POP PUSH2 0x1643 DUP2 DUP6 PUSH1 0x20 DUP7 ADD PUSH2 0xE5A JUMP JUMPDEST DUP1 DUP5 ADD SWAP2 POP POP SWAP3 SWAP2 POP POP JUMP JUMPDEST PUSH0 PUSH2 0x165A DUP3 DUP5 PUSH2 0x161F JUMP JUMPDEST SWAP2 POP DUP2 SWAP1 POP SWAP3 SWAP2 POP POP JUMP JUMPDEST PUSH32 0x43616E6469646174652064657461696C73206E6F742076616C69646174656420 PUSH0 DUP3 ADD MSTORE PUSH32 0x6279204149000000000000000000000000000000000000000000000000000000 PUSH1 0x20 DUP3 ADD MSTORE POP JUMP JUMPDEST PUSH0 PUSH2 0x16BF PUSH1 0x25 DUP4 PUSH2 0x1260 JUMP JUMPDEST SWAP2 POP PUSH2 0x16CA DUP3 PUSH2 0x1665 JUMP JUMPDEST PUSH1 0x40 DUP3 ADD SWAP1 POP SWAP2 SWAP1 POP JUMP JUMPDEST PUSH0 PUSH1 0x20 DUP3 ADD SWAP1 POP DUP2 DUP2 SUB PUSH0 DUP4 ADD MSTORE PUSH2 0x16EC DUP2 PUSH2 0x16B3 JUMP JUMPDEST SWAP1 POP SWAP2 SWAP1 POP JUMP JUMPDEST PUSH0 DUP2 SWAP1 POP DUP2 PUSH0 MSTORE PUSH1 0x20 PUSH0 KECCAK256 SWAP1 POP SWAP2 SWAP1 POP JUMP JUMPDEST PUSH0 PUSH1 0x20 PUSH1 0x1F DUP4 ADD DIV SWAP1 POP SWAP2 SWAP1 POP JUMP JUMPDEST PUSH0 DUP3 DUP3 SHL SWAP1 POP SWAP3 SWAP2 POP POP JUMP JUMPDEST PUSH0 PUSH1 0x8 DUP4 MUL PUSH2 0x174F PUSH32 0xFFFFFFFFFFFFFFFFFFFFFFFFFFFFFFFFFFFFFFFFFFFFFFFFFFFFFFFFFFFFFFFF DUP3 PUSH2 0x1714 JUMP JUMPDEST PUSH2 0x1759 DUP7 DUP4 PUSH2 0x1714 JUMP JUMPDEST SWAP6 POP DUP1 NOT DUP5 AND SWAP4 POP DUP1 DUP7 AND DUP5 OR SWAP3 POP POP POP SWAP4 SWAP3 POP POP POP JUMP JUMPDEST PUSH0 DUP2 SWAP1 POP SWAP2 SWAP1 POP JUMP JUMPDEST PUSH0 PUSH2 0x1794 PUSH2 0x178F PUSH2 0x178A DUP5 PUSH2 0xDD3 JUMP JUMPDEST PUSH2 0x1771 JUMP JUMPDEST PUSH2 0xDD3 JUMP JUMPDEST SWAP1 POP SWAP2 SWAP1 POP JUMP JUMPDEST PUSH0 DUP2 SWAP1 POP SWAP2 SWAP1 POP JUMP JUMPDEST PUSH2 0x17AD DUP4 PUSH2 0x177A JUMP JUMPDEST PUSH2 0x17C1 PUSH2 0x17B9 DUP3 PUSH2 0x179B JUMP JUMPDEST DUP5 DUP5 SLOAD PUSH2 0x1720 JUMP JUMPDEST DUP3 SSTORE POP POP POP POP JUMP JUMPDEST PUSH0 SWAP1 JUMP JUMPDEST PUSH2 0x17D5 PUSH2 0x17C9 JUMP JUMPDEST PUSH2 0x17E0 DUP2 DUP5 DUP5 PUSH2 0x17A4 JUMP JUMPDEST POP POP POP JUMP JUMPDEST JUMPDEST DUP2 DUP2 LT ISZERO PUSH2 0x1803 JUMPI PUSH2 0x17F8 PUSH0 DUP3 PUSH2 0x17CD JUMP JUMPDEST PUSH1 0x1 DUP2 ADD SWAP1 POP PUSH2 0x17E6 JUMP JUMPDEST POP POP JUMP JUMPDEST PUSH1 0x1F DUP3 GT ISZERO PUSH2 0x1848 JUMPI PUSH2 0x1819 DUP2 PUSH2 0x16F3 JUMP JUMPDEST PUSH2 0x1822 DUP5 PUSH2 0x1705 JUMP JUMPDEST DUP2 ADD PUSH1 0x20 DUP6 LT ISZERO PUSH2 0x1831 JUMPI DUP2 SWAP1 POP JUMPDEST PUSH2 0x1845 PUSH2 0x183D DUP6 PUSH2 0x1705 JUMP JUMPDEST DUP4 ADD DUP3 PUSH2 0x17E5 JUMP JUMPDEST POP POP JUMPDEST POP POP POP JUMP JUMPDEST PUSH0 DUP3 DUP3 SHR SWAP1 POP SWAP3 SWAP2 POP POP JUMP JUMPDEST PUSH0 PUSH2 0x1868 PUSH0 NOT DUP5 PUSH1 0x8 MUL PUSH2 0x184D JUMP JUMPDEST NOT DUP1 DUP4 AND SWAP2 POP POP SWAP3 SWAP2 POP POP JUMP JUMPDEST PUSH0 PUSH2 0x1880 DUP4 DUP4 PUSH2 0x1859 JUMP JUMPDEST SWAP2 POP DUP3 PUSH1 0x2 MUL DUP3 OR SWAP1 POP SWAP3 SWAP2 POP POP JUMP JUMPDEST PUSH2 0x1899 DUP3 PUSH2 0xE40 JUMP JUMPDEST PUSH8 0xFFFFFFFFFFFFFFFF DUP2 GT ISZERO PUSH2 0x18B2 JUMPI PUSH2 0x18B1 PUSH2 0x104B JUMP JUMPDEST JUMPDEST PUSH2 0x18BC DUP3 SLOAD PUSH2 0x1461 JUMP JUMPDEST PUSH2 0x18C7 DUP3 DUP3 DUP6 PUSH2 0x1807 JUMP JUMPDEST PUSH0 PUSH1 0x20 SWAP1 POP PUSH1 0x1F DUP4 GT PUSH1 0x1 DUP2 EQ PUSH2 0x18F8 JUMPI PUSH0 DUP5 ISZERO PUSH2 0x18E6 JUMPI DUP3 DUP8 ADD MLOAD SWAP1 POP JUMPDEST PUSH2 0x18F0 DUP6 DUP3 PUSH2 0x1875 JUMP JUMPDEST DUP7 SSTORE POP PUSH2 0x1957 JUMP JUMPDEST PUSH1 0x1F NOT DUP5 AND PUSH2 0x1906 DUP7 PUSH2 0x16F3 JUMP JUMPDEST PUSH0 JUMPDEST DUP3 DUP2 LT ISZERO PUSH2 0x192D JUMPI DUP5 DUP10 ADD MLOAD DUP3 SSTORE PUSH1 0x1 DUP3 ADD SWAP2 POP PUSH1 0x20 DUP6 ADD SWAP5 POP PUSH1 0x20 DUP2 ADD SWAP1 POP PUSH2 0x1908 JUMP JUMPDEST DUP7 DUP4 LT ISZERO PUSH2 0x194A JUMPI DUP5 DUP10 ADD MLOAD PUSH2 0x1946 PUSH1 0x1F DUP10 AND DUP3 PUSH2 0x1859 JUMP JUMPDEST DUP4 SSTORE POP JUMPDEST PUSH1 0x1 PUSH1 0x2 DUP9 MUL ADD DUP9 SSTORE POP POP POP JUMPDEST POP POP POP POP POP POP JUMP JUMPDEST PUSH32 0x4E487B7100000000000000000000000000000000000000000000000000000000 PUSH0 MSTORE PUSH1 0x11 PUSH1 0x4 MSTORE PUSH1 0x24 PUSH0 REVERT JUMPDEST PUSH0 PUSH2 0x1996 DUP3 PUSH2 0xDD3 JUMP JUMPDEST SWAP2 POP PUSH32 0xFFFFFFFFFFFFFFFFFFFFFFFFFFFFFFFFFFFFFFFFFFFFFFFFFFFFFFFFFFFFFFFF DUP3 SUB PUSH2 0x19C8 JUMPI PUSH2 0x19C7 PUSH2 0x195F JUMP JUMPDEST JUMPDEST PUSH1 0x1 DUP3 ADD SWAP1 POP SWAP2 SWAP1 POP JUMP JUMPDEST PUSH0 PUSH1 0x40 DUP3 ADD SWAP1 POP PUSH2 0x19E6 PUSH0 DUP4 ADD DUP6 PUSH2 0x1251 JUMP JUMPDEST PUSH2 0x19F3 PUSH1 0x20 DUP4 ADD DUP5 PUSH2 0x101B JUMP JUMPDEST SWAP4 SWAP3 POP POP POP JUMP JUMPDEST PUSH0 PUSH1 0x40 DUP3 ADD SWAP1 POP DUP2 DUP2 SUB PUSH0 DUP4 ADD MSTORE PUSH2 0x1A12 DUP2 DUP6 PUSH2 0x1270 JUMP JUMPDEST SWAP1 POP PUSH2 0x1A21 PUSH1 0x20 DUP4 ADD DUP5 PUSH2 0x12A8 JUMP JUMPDEST SWAP4 SWAP3 POP POP POP JUMP INVALID LOG2 PUSH5 0x6970667358 0x22 SLT KECCAK256 0xE4 PUSH20 0x3044CD8A419E9B8AA32C4558BA6F352AA4256C5A DUP9 0xD6 DUP2 0x1F EXP MSTORE 0xB0 0xE9 LOG3 PUSH12 0x64736F6C6343000819003300 "
				},
				"gasEstimates": {
					"creation": {
						"codeDepositCost": "1350000",
						"executionCost": "25666",
						"totalCost": "1375666"
					},
					"external": {
						"addIssuer(address)": "infinite",
						"admin()": "2615",
						"aiValidations(string)": "infinite",
						"certificates(uint256)": "infinite",
						"invalidateCertificate(uint256)": "infinite",
						"issueCertificate(string,string,string,bytes32)": "infinite",
						"issuers(address)": "2878",
						"nextCertificateId()": "2491",
						"recordAIValidation(string,bytes32)": "infinite",
						"removeIssuer(address)": "infinite",
						"verifyCertificate(uint256)": "infinite"
					}
				},
				"methodIdentifiers": {
					"addIssuer(address)": "20694db0",
					"admin()": "f851a440",
					"aiValidations(string)": "8a50e907",
					"certificates(uint256)": "663b3e22",
					"invalidateCertificate(uint256)": "7db3761b",
					"issueCertificate(string,string,string,bytes32)": "5f2a4cda",
					"issuers(address)": "38a7543e",
					"nextCertificateId()": "a0bdb003",
					"recordAIValidation(string,bytes32)": "edf54b9c",
					"removeIssuer(address)": "47bc7093",
					"verifyCertificate(uint256)": "1692a942"
				}
			},
			"storageLayout": {
				"storage": [
					{
						"astId": 21,
						"contract": "contracts/Cert.sol:CertificateValidation",
						"label": "admin",
						"offset": 0,
						"slot": "0",
						"type": "t_address"
					},
					{
						"astId": 26,
						"contract": "contracts/Cert.sol:CertificateValidation",
						"label": "certificates",
						"offset": 0,
						"slot": "1",
						"type": "t_mapping(t_uint256,t_struct(Certificate)14_storage)"
					},
					{
						"astId": 31,
						"contract": "contracts/Cert.sol:CertificateValidation",
						"label": "aiValidations",
						"offset": 0,
						"slot": "2",
						"type": "t_mapping(t_string_memory_ptr,t_struct(AIValidation)19_storage)"
					},
					{
						"astId": 33,
						"contract": "contracts/Cert.sol:CertificateValidation",
						"label": "nextCertificateId",
						"offset": 0,
						"slot": "3",
						"type": "t_uint256"
					},
					{
						"astId": 37,
						"contract": "contracts/Cert.sol:CertificateValidation",
						"label": "issuers",
						"offset": 0,
						"slot": "4",
						"type": "t_mapping(t_address,t_bool)"
					}
				],
				"types": {
					"t_address": {
						"encoding": "inplace",
						"label": "address",
						"numberOfBytes": "20"
					},
					"t_bool": {
						"encoding": "inplace",
						"label": "bool",
						"numberOfBytes": "1"
					},
					"t_bytes32": {
						"encoding": "inplace",
						"label": "bytes32",
						"numberOfBytes": "32"
					},
					"t_mapping(t_address,t_bool)": {
						"encoding": "mapping",
						"key": "t_address",
						"label": "mapping(address => bool)",
						"numberOfBytes": "32",
						"value": "t_bool"
					},
					"t_mapping(t_string_memory_ptr,t_struct(AIValidation)19_storage)": {
						"encoding": "mapping",
						"key": "t_string_memory_ptr",
						"label": "mapping(string => struct CertificateValidation.AIValidation)",
						"numberOfBytes": "32",
						"value": "t_struct(AIValidation)19_storage"
					},
					"t_mapping(t_uint256,t_struct(Certificate)14_storage)": {
						"encoding": "mapping",
						"key": "t_uint256",
						"label": "mapping(uint256 => struct CertificateValidation.Certificate)",
						"numberOfBytes": "32",
						"value": "t_struct(Certificate)14_storage"
					},
					"t_string_memory_ptr": {
						"encoding": "bytes",
						"label": "string",
						"numberOfBytes": "32"
					},
					"t_string_storage": {
						"encoding": "bytes",
						"label": "string",
						"numberOfBytes": "32"
					},
					"t_struct(AIValidation)19_storage": {
						"encoding": "inplace",
						"label": "struct CertificateValidation.AIValidation",
						"members": [
							{
								"astId": 16,
								"contract": "contracts/Cert.sol:CertificateValidation",
								"label": "validated",
								"offset": 0,
								"slot": "0",
								"type": "t_bool"
							},
							{
								"astId": 18,
								"contract": "contracts/Cert.sol:CertificateValidation",
								"label": "validationHash",
								"offset": 0,
								"slot": "1",
								"type": "t_bytes32"
							}
						],
						"numberOfBytes": "64"
					},
					"t_struct(Certificate)14_storage": {
						"encoding": "inplace",
						"label": "struct CertificateValidation.Certificate",
						"members": [
							{
								"astId": 3,
								"contract": "contracts/Cert.sol:CertificateValidation",
								"label": "id",
								"offset": 0,
								"slot": "0",
								"type": "t_uint256"
							},
							{
								"astId": 5,
								"contract": "contracts/Cert.sol:CertificateValidation",
								"label": "candidateName",
								"offset": 0,
								"slot": "1",
								"type": "t_string_storage"
							},
							{
								"astId": 7,
								"contract": "contracts/Cert.sol:CertificateValidation",
								"label": "course",
								"offset": 0,
								"slot": "2",
								"type": "t_string_storage"
							},
							{
								"astId": 9,
								"contract": "contracts/Cert.sol:CertificateValidation",
								"label": "issueDate",
								"offset": 0,
								"slot": "3",
								"type": "t_string_storage"
							},
							{
								"astId": 11,
								"contract": "contracts/Cert.sol:CertificateValidation",
								"label": "valid",
								"offset": 0,
								"slot": "4",
								"type": "t_bool"
							},
							{
								"astId": 13,
								"contract": "contracts/Cert.sol:CertificateValidation",
								"label": "aiValidationHash",
								"offset": 0,
								"slot": "5",
								"type": "t_bytes32"
							}
						],
						"numberOfBytes": "192"
					},
					"t_uint256": {
						"encoding": "inplace",
						"label": "uint256",
						"numberOfBytes": "32"
					}
				}
			},
			"userdoc": {
				"kind": "user",
				"methods": {},
				"version": 1
			}
		}
	}
}