{
	"contracts/Ai-Blt.sol": {
		"DeepFakeVerification": {
			"abi": [
				{
					"inputs": [],
					"stateMutability": "nonpayable",
					"type": "constructor"
				},
				{
					"anonymous": false,
					"inputs": [
						{
							"indexed": true,
							"internalType": "uint256",
							"name": "videoId",
							"type": "uint256"
						},
						{
							"indexed": false,
							"internalType": "bytes32",
							"name": "ipfsHash",
							"type": "bytes32"
						},
						{
							"indexed": false,
							"internalType": "bool",
							"name": "aiVerificationResult",
							"type": "bool"
						},
						{
							"indexed": false,
							"internalType": "uint256",
							"name": "timestamp",
							"type": "uint256"
						}
					],
					"name": "VideoVerified",
					"type": "event"
				},
				{
					"inputs": [
						{
							"internalType": "uint256",
							"name": "videoId",
							"type": "uint256"
						}
					],
					"name": "getAIVerificationResult",
					"outputs": [
						{
							"internalType": "bool",
							"name": "",
							"type": "bool"
						}
					],
					"stateMutability": "view",
					"type": "function"
				},
				{
					"inputs": [
						{
							"internalType": "uint256",
							"name": "videoId",
							"type": "uint256"
						}
					],
					"name": "getVideoDetails",
					"outputs": [
						{
							"internalType": "bytes32",
							"name": "",
							"type": "bytes32"
						},
						{
							"internalType": "bool",
							"name": "",
							"type": "bool"
						},
						{
							"internalType": "uint256",
							"name": "",
							"type": "uint256"
						}
					],
					"stateMutability": "view",
					"type": "function"
				},
				{
					"inputs": [],
					"name": "systemAddress",
					"outputs": [
						{
							"internalType": "address",
							"name": "",
							"type": "address"
						}
					],
					"stateMutability": "view",
					"type": "function"
				},
				{
					"inputs": [
						{
							"internalType": "uint256",
							"name": "videoId",
							"type": "uint256"
						},
						{
							"internalType": "bytes32",
							"name": "_ipfsHash",
							"type": "bytes32"
						},
						{
							"internalType": "bool",
							"name": "_aiVerificationResult",
							"type": "bool"
						}
					],
					"name": "timestampVideo",
					"outputs": [],
					"stateMutability": "nonpayable",
					"type": "function"
				},
				{
					"inputs": [
						{
							"internalType": "uint256",
							"name": "",
							"type": "uint256"
						}
					],
					"name": "videos",
					"outputs": [
						{
							"internalType": "bytes32",
							"name": "ipfsHash",
							"type": "bytes32"
						},
						{
							"internalType": "bool",
							"name": "aiVerificationResult",
							"type": "bool"
						},
						{
							"internalType": "uint256",
							"name": "timestamp",
							"type": "uint256"
						}
					],
					"stateMutability": "view",
					"type": "function"
				}
			],
			"devdoc": {
				"kind": "dev",
				"methods": {},
				"version": 1
			},
			"evm": {
				"assembly": "    /* \"contracts/Ai-Blt.sol\":60:2167  contract DeepFakeVerification {... */\n  mstore(0x40, 0x80)\n    /* \"contracts/Ai-Blt.sol\":914:973  constructor() {... */\n  callvalue\n  dup1\n  iszero\n  tag_1\n  jumpi\n  0x00\n  dup1\n  revert\ntag_1:\n  pop\n    /* \"contracts/Ai-Blt.sol\":955:965  msg.sender */\n  caller\n    /* \"contracts/Ai-Blt.sol\":939:952  systemAddress */\n  0x01\n  0x00\n    /* \"contracts/Ai-Blt.sol\":939:965  systemAddress = msg.sender */\n  0x0100\n  exp\n  dup2\n  sload\n  dup2\n  0xffffffffffffffffffffffffffffffffffffffff\n  mul\n  not\n  and\n  swap1\n  dup4\n  0xffffffffffffffffffffffffffffffffffffffff\n  and\n  mul\n  or\n  swap1\n  sstore\n  pop\n    /* \"contracts/Ai-Blt.sol\":60:2167  contract DeepFakeVerification {... */\n  dataSize(sub_0)\n  dup1\n  dataOffset(sub_0)\n  0x00\n  codecopy\n  0x00\n  return\nstop\n\nsub_0: assembly {\n        /* \"contracts/Ai-Blt.sol\":60:2167  contract DeepFakeVerification {... */\n      mstore(0x40, 0x80)\n      callvalue\n      dup1\n      iszero\n      tag_1\n      jumpi\n      0x00\n      dup1\n      revert\n    tag_1:\n      pop\n      jumpi(tag_2, lt(calldatasize, 0x04))\n      shr(0xe0, calldataload(0x00))\n      dup1\n      0x762f88b3\n      eq\n      tag_3\n      jumpi\n      dup1\n      0xab1a5cb7\n      eq\n      tag_4\n      jumpi\n      dup1\n      0xd20e395a\n      eq\n      tag_5\n      jumpi\n      dup1\n      0xd3e848f1\n      eq\n      tag_6\n      jumpi\n      dup1\n      0xe6821bf5\n      eq\n      tag_7\n      jumpi\n    tag_2:\n      0x00\n      dup1\n      revert\n        /* \"contracts/Ai-Blt.sol\":1048:1674  function timestampVideo(uint256 videoId, bytes32 _ipfsHash, bool _aiVerificationResult) external onlySystem {... */\n    tag_3:\n      tag_8\n      0x04\n      dup1\n      calldatasize\n      sub\n      dup2\n      add\n      swap1\n      tag_9\n      swap2\n      swap1\n      tag_10\n      jump\t// in\n    tag_9:\n      tag_11\n      jump\t// in\n    tag_8:\n      stop\n        /* \"contracts/Ai-Blt.sol\":1958:2164  function getVideoDetails(uint256 videoId) external view returns (bytes32, bool, uint256) {... */\n    tag_4:\n      tag_12\n      0x04\n      dup1\n      calldatasize\n      sub\n      dup2\n      add\n      swap1\n      tag_13\n      swap2\n      swap1\n      tag_14\n      jump\t// in\n    tag_13:\n      tag_15\n      jump\t// in\n    tag_12:\n      mload(0x40)\n      tag_16\n      swap4\n      swap3\n      swap2\n      swap1\n      tag_17\n      jump\t// in\n    tag_16:\n      mload(0x40)\n      dup1\n      swap2\n      sub\n      swap1\n      return\n        /* \"contracts/Ai-Blt.sol\":1743:1884  function getAIVerificationResult(uint256 videoId) external view returns (bool) {... */\n    tag_5:\n      tag_18\n      0x04\n      dup1\n      calldatasize\n      sub\n      dup2\n      add\n      swap1\n      tag_19\n      swap2\n      swap1\n      tag_14\n      jump\t// in\n    tag_19:\n      tag_20\n      jump\t// in\n    tag_18:\n      mload(0x40)\n      tag_21\n      swap2\n      swap1\n      tag_22\n      jump\t// in\n    tag_21:\n      mload(0x40)\n      dup1\n      swap2\n      sub\n      swap1\n      return\n        /* \"contracts/Ai-Blt.sol\":822:850  address public systemAddress */\n    tag_6:\n      tag_23\n      tag_24\n      jump\t// in\n    tag_23:\n      mload(0x40)\n      tag_25\n      swap2\n      swap1\n      tag_26\n      jump\t// in\n    tag_25:\n      mload(0x40)\n      dup1\n      swap2\n      sub\n      swap1\n      return\n        /* \"contracts/Ai-Blt.sol\":346:393  mapping (uint256 => VideoDetails) public videos */\n    tag_7:\n      tag_27\n      0x04\n      dup1\n      calldatasize\n      sub\n      dup2\n      add\n      swap1\n      tag_28\n      swap2\n      swap1\n      tag_14\n      jump\t// in\n    tag_28:\n      tag_29\n      jump\t// in\n    tag_27:\n      mload(0x40)\n      tag_30\n      swap4\n      swap3\n      swap2\n      swap1\n      tag_17\n      jump\t// in\n    tag_30:\n      mload(0x40)\n      dup1\n      swap2\n      sub\n      swap1\n      return\n        /* \"contracts/Ai-Blt.sol\":1048:1674  function timestampVideo(uint256 videoId, bytes32 _ipfsHash, bool _aiVerificationResult) external onlySystem {... */\n    tag_11:\n        /* \"contracts/Ai-Blt.sol\":696:709  systemAddress */\n      0x01\n      0x00\n      swap1\n      sload\n      swap1\n      0x0100\n      exp\n      swap1\n      div\n      0xffffffffffffffffffffffffffffffffffffffff\n      and\n        /* \"contracts/Ai-Blt.sol\":682:709  msg.sender == systemAddress */\n      0xffffffffffffffffffffffffffffffffffffffff\n      and\n        /* \"contracts/Ai-Blt.sol\":682:692  msg.sender */\n      caller\n        /* \"contracts/Ai-Blt.sol\":682:709  msg.sender == systemAddress */\n      0xffffffffffffffffffffffffffffffffffffffff\n      and\n      eq\n        /* \"contracts/Ai-Blt.sol\":674:731  require(msg.sender == systemAddress, \"Permission denied\") */\n      tag_32\n      jumpi\n      mload(0x40)\n      0x08c379a000000000000000000000000000000000000000000000000000000000\n      dup2\n      mstore\n      0x04\n      add\n      tag_33\n      swap1\n      tag_34\n      jump\t// in\n    tag_33:\n      mload(0x40)\n      dup1\n      swap2\n      sub\n      swap1\n      revert\n    tag_32:\n        /* \"contracts/Ai-Blt.sol\":1246:1247  0 */\n      0x00\n        /* \"contracts/Ai-Blt.sol\":1217:1223  videos */\n      dup1\n        /* \"contracts/Ai-Blt.sol\":1217:1232  videos[videoId] */\n      0x00\n        /* \"contracts/Ai-Blt.sol\":1224:1231  videoId */\n      dup6\n        /* \"contracts/Ai-Blt.sol\":1217:1232  videos[videoId] */\n      dup2\n      mstore\n      0x20\n      add\n      swap1\n      dup2\n      mstore\n      0x20\n      add\n      0x00\n      keccak256\n        /* \"contracts/Ai-Blt.sol\":1217:1242  videos[videoId].timestamp */\n      0x02\n      add\n      sload\n        /* \"contracts/Ai-Blt.sol\":1217:1247  videos[videoId].timestamp == 0 */\n      eq\n        /* \"contracts/Ai-Blt.sol\":1209:1270  require(videos[videoId].timestamp == 0, \"Duplicate video ID\") */\n      tag_36\n      jumpi\n      mload(0x40)\n      0x08c379a000000000000000000000000000000000000000000000000000000000\n      dup2\n      mstore\n      0x04\n      add\n      tag_37\n      swap1\n      tag_38\n      jump\t// in\n    tag_37:\n      mload(0x40)\n      dup1\n      swap2\n      sub\n      swap1\n      revert\n    tag_36:\n        /* \"contracts/Ai-Blt.sol\":1361:1519  VideoDetails({... */\n      mload(0x40)\n      dup1\n      0x60\n      add\n      0x40\n      mstore\n      dup1\n        /* \"contracts/Ai-Blt.sol\":1399:1408  _ipfsHash */\n      dup4\n        /* \"contracts/Ai-Blt.sol\":1361:1519  VideoDetails({... */\n      dup2\n      mstore\n      0x20\n      add\n        /* \"contracts/Ai-Blt.sol\":1445:1466  _aiVerificationResult */\n      dup3\n        /* \"contracts/Ai-Blt.sol\":1361:1519  VideoDetails({... */\n      iszero\n      iszero\n      dup2\n      mstore\n      0x20\n      add\n        /* \"contracts/Ai-Blt.sol\":1492:1507  block.timestamp */\n      timestamp\n        /* \"contracts/Ai-Blt.sol\":1361:1519  VideoDetails({... */\n      dup2\n      mstore\n      pop\n        /* \"contracts/Ai-Blt.sol\":1343:1349  videos */\n      0x00\n        /* \"contracts/Ai-Blt.sol\":1343:1358  videos[videoId] */\n      dup1\n        /* \"contracts/Ai-Blt.sol\":1350:1357  videoId */\n      dup6\n        /* \"contracts/Ai-Blt.sol\":1343:1358  videos[videoId] */\n      dup2\n      mstore\n      0x20\n      add\n      swap1\n      dup2\n      mstore\n      0x20\n      add\n      0x00\n      keccak256\n        /* \"contracts/Ai-Blt.sol\":1343:1519  videos[videoId] = VideoDetails({... */\n      0x00\n      dup3\n      add\n      mload\n      dup2\n      0x00\n      add\n      sstore\n      0x20\n      dup3\n      add\n      mload\n      dup2\n      0x01\n      add\n      exp(0x0100, 0x00)\n      dup2\n      sload\n      dup2\n      0xff\n      mul\n      not\n      and\n      swap1\n      dup4\n      iszero\n      iszero\n      mul\n      or\n      swap1\n      sstore\n      pop\n      0x40\n      dup3\n      add\n      mload\n      dup2\n      0x02\n      add\n      sstore\n      swap1\n      pop\n      pop\n        /* \"contracts/Ai-Blt.sol\":1607:1614  videoId */\n      dup3\n        /* \"contracts/Ai-Blt.sol\":1593:1666  VideoVerified(videoId, _ipfsHash, _aiVerificationResult, block.timestamp) */\n      0xe83aba0b9b63fcd1eab12f7b8262bf64551c0e751779b4b86bd2040765256b0b\n        /* \"contracts/Ai-Blt.sol\":1616:1625  _ipfsHash */\n      dup4\n        /* \"contracts/Ai-Blt.sol\":1627:1648  _aiVerificationResult */\n      dup4\n        /* \"contracts/Ai-Blt.sol\":1650:1665  block.timestamp */\n      timestamp\n        /* \"contracts/Ai-Blt.sol\":1593:1666  VideoVerified(videoId, _ipfsHash, _aiVerificationResult, block.timestamp) */\n      mload(0x40)\n      tag_39\n      swap4\n      swap3\n      swap2\n      swap1\n      tag_17\n      jump\t// in\n    tag_39:\n      mload(0x40)\n      dup1\n      swap2\n      sub\n      swap1\n      log2\n        /* \"contracts/Ai-Blt.sol\":1048:1674  function timestampVideo(uint256 videoId, bytes32 _ipfsHash, bool _aiVerificationResult) external onlySystem {... */\n      pop\n      pop\n      pop\n      jump\t// out\n        /* \"contracts/Ai-Blt.sol\":1958:2164  function getVideoDetails(uint256 videoId) external view returns (bytes32, bool, uint256) {... */\n    tag_15:\n        /* \"contracts/Ai-Blt.sol\":2023:2030  bytes32 */\n      0x00\n        /* \"contracts/Ai-Blt.sol\":2032:2036  bool */\n      dup1\n        /* \"contracts/Ai-Blt.sol\":2038:2045  uint256 */\n      0x00\n        /* \"contracts/Ai-Blt.sol\":2066:2072  videos */\n      dup1\n        /* \"contracts/Ai-Blt.sol\":2066:2081  videos[videoId] */\n      0x00\n        /* \"contracts/Ai-Blt.sol\":2073:2080  videoId */\n      dup6\n        /* \"contracts/Ai-Blt.sol\":2066:2081  videos[videoId] */\n      dup2\n      mstore\n      0x20\n      add\n      swap1\n      dup2\n      mstore\n      0x20\n      add\n      0x00\n      keccak256\n        /* \"contracts/Ai-Blt.sol\":2066:2090  videos[videoId].ipfsHash */\n      0x00\n      add\n      sload\n        /* \"contracts/Ai-Blt.sol\":2092:2098  videos */\n      0x00\n        /* \"contracts/Ai-Blt.sol\":2092:2107  videos[videoId] */\n      dup1\n        /* \"contracts/Ai-Blt.sol\":2099:2106  videoId */\n      dup7\n        /* \"contracts/Ai-Blt.sol\":2092:2107  videos[videoId] */\n      dup2\n      mstore\n      0x20\n      add\n      swap1\n      dup2\n      mstore\n      0x20\n      add\n      0x00\n      keccak256\n        /* \"contracts/Ai-Blt.sol\":2092:2128  videos[videoId].aiVerificationResult */\n      0x01\n      add\n      0x00\n      swap1\n      sload\n      swap1\n      0x0100\n      exp\n      swap1\n      div\n      0xff\n      and\n        /* \"contracts/Ai-Blt.sol\":2130:2136  videos */\n      0x00\n        /* \"contracts/Ai-Blt.sol\":2130:2145  videos[videoId] */\n      dup1\n        /* \"contracts/Ai-Blt.sol\":2137:2144  videoId */\n      dup8\n        /* \"contracts/Ai-Blt.sol\":2130:2145  videos[videoId] */\n      dup2\n      mstore\n      0x20\n      add\n      swap1\n      dup2\n      mstore\n      0x20\n      add\n      0x00\n      keccak256\n        /* \"contracts/Ai-Blt.sol\":2130:2155  videos[videoId].timestamp */\n      0x02\n      add\n      sload\n        /* \"contracts/Ai-Blt.sol\":2058:2156  return (videos[videoId].ipfsHash, videos[videoId].aiVerificationResult, videos[videoId].timestamp) */\n      swap3\n      pop\n      swap3\n      pop\n      swap3\n      pop\n        /* \"contracts/Ai-Blt.sol\":1958:2164  function getVideoDetails(uint256 videoId) external view returns (bytes32, bool, uint256) {... */\n      swap2\n      swap4\n      swap1\n      swap3\n      pop\n      jump\t// out\n        /* \"contracts/Ai-Blt.sol\":1743:1884  function getAIVerificationResult(uint256 videoId) external view returns (bool) {... */\n    tag_20:\n        /* \"contracts/Ai-Blt.sol\":1816:1820  bool */\n      0x00\n        /* \"contracts/Ai-Blt.sol\":1840:1846  videos */\n      dup1\n        /* \"contracts/Ai-Blt.sol\":1840:1855  videos[videoId] */\n      0x00\n        /* \"contracts/Ai-Blt.sol\":1847:1854  videoId */\n      dup4\n        /* \"contracts/Ai-Blt.sol\":1840:1855  videos[videoId] */\n      dup2\n      mstore\n      0x20\n      add\n      swap1\n      dup2\n      mstore\n      0x20\n      add\n      0x00\n      keccak256\n        /* \"contracts/Ai-Blt.sol\":1840:1876  videos[videoId].aiVerificationResult */\n      0x01\n      add\n      0x00\n      swap1\n      sload\n      swap1\n      0x0100\n      exp\n      swap1\n      div\n      0xff\n      and\n        /* \"contracts/Ai-Blt.sol\":1833:1876  return videos[videoId].aiVerificationResult */\n      swap1\n      pop\n        /* \"contracts/Ai-Blt.sol\":1743:1884  function getAIVerificationResult(uint256 videoId) external view returns (bool) {... */\n      swap2\n      swap1\n      pop\n      jump\t// out\n        /* \"contracts/Ai-Blt.sol\":822:850  address public systemAddress */\n    tag_24:\n      0x01\n      0x00\n      swap1\n      sload\n      swap1\n      0x0100\n      exp\n      swap1\n      div\n      0xffffffffffffffffffffffffffffffffffffffff\n      and\n      dup2\n      jump\t// out\n        /* \"contracts/Ai-Blt.sol\":346:393  mapping (uint256 => VideoDetails) public videos */\n    tag_29:\n      mstore(0x20, 0x00)\n      dup1\n      0x00\n      mstore\n      keccak256(0x00, 0x40)\n      0x00\n      swap2\n      pop\n      swap1\n      pop\n      dup1\n      0x00\n      add\n      sload\n      swap1\n      dup1\n      0x01\n      add\n      0x00\n      swap1\n      sload\n      swap1\n      0x0100\n      exp\n      swap1\n      div\n      0xff\n      and\n      swap1\n      dup1\n      0x02\n      add\n      sload\n      swap1\n      pop\n      dup4\n      jump\t// out\n        /* \"#utility.yul\":88:205   */\n    tag_43:\n        /* \"#utility.yul\":197:198   */\n      0x00\n        /* \"#utility.yul\":194:195   */\n      dup1\n        /* \"#utility.yul\":187:199   */\n      revert\n        /* \"#utility.yul\":334:411   */\n    tag_45:\n        /* \"#utility.yul\":371:378   */\n      0x00\n        /* \"#utility.yul\":400:405   */\n      dup2\n        /* \"#utility.yul\":389:405   */\n      swap1\n      pop\n        /* \"#utility.yul\":334:411   */\n      swap2\n      swap1\n      pop\n      jump\t// out\n        /* \"#utility.yul\":417:539   */\n    tag_46:\n        /* \"#utility.yul\":490:514   */\n      tag_71\n        /* \"#utility.yul\":508:513   */\n      dup2\n        /* \"#utility.yul\":490:514   */\n      tag_45\n      jump\t// in\n    tag_71:\n        /* \"#utility.yul\":483:488   */\n      dup2\n        /* \"#utility.yul\":480:515   */\n      eq\n        /* \"#utility.yul\":470:533   */\n      tag_72\n      jumpi\n        /* \"#utility.yul\":529:530   */\n      0x00\n        /* \"#utility.yul\":526:527   */\n      dup1\n        /* \"#utility.yul\":519:531   */\n      revert\n        /* \"#utility.yul\":470:533   */\n    tag_72:\n        /* \"#utility.yul\":417:539   */\n      pop\n      jump\t// out\n        /* \"#utility.yul\":545:684   */\n    tag_47:\n        /* \"#utility.yul\":591:596   */\n      0x00\n        /* \"#utility.yul\":629:635   */\n      dup2\n        /* \"#utility.yul\":616:636   */\n      calldataload\n        /* \"#utility.yul\":607:636   */\n      swap1\n      pop\n        /* \"#utility.yul\":645:678   */\n      tag_74\n        /* \"#utility.yul\":672:677   */\n      dup2\n        /* \"#utility.yul\":645:678   */\n      tag_46\n      jump\t// in\n    tag_74:\n        /* \"#utility.yul\":545:684   */\n      swap3\n      swap2\n      pop\n      pop\n      jump\t// out\n        /* \"#utility.yul\":690:767   */\n    tag_48:\n        /* \"#utility.yul\":727:734   */\n      0x00\n        /* \"#utility.yul\":756:761   */\n      dup2\n        /* \"#utility.yul\":745:761   */\n      swap1\n      pop\n        /* \"#utility.yul\":690:767   */\n      swap2\n      swap1\n      pop\n      jump\t// out\n        /* \"#utility.yul\":773:895   */\n    tag_49:\n        /* \"#utility.yul\":846:870   */\n      tag_77\n        /* \"#utility.yul\":864:869   */\n      dup2\n        /* \"#utility.yul\":846:870   */\n      tag_48\n      jump\t// in\n    tag_77:\n        /* \"#utility.yul\":839:844   */\n      dup2\n        /* \"#utility.yul\":836:871   */\n      eq\n        /* \"#utility.yul\":826:889   */\n      tag_78\n      jumpi\n        /* \"#utility.yul\":885:886   */\n      0x00\n        /* \"#utility.yul\":882:883   */\n      dup1\n        /* \"#utility.yul\":875:887   */\n      revert\n        /* \"#utility.yul\":826:889   */\n    tag_78:\n        /* \"#utility.yul\":773:895   */\n      pop\n      jump\t// out\n        /* \"#utility.yul\":901:1040   */\n    tag_50:\n        /* \"#utility.yul\":947:952   */\n      0x00\n        /* \"#utility.yul\":985:991   */\n      dup2\n        /* \"#utility.yul\":972:992   */\n      calldataload\n        /* \"#utility.yul\":963:992   */\n      swap1\n      pop\n        /* \"#utility.yul\":1001:1034   */\n      tag_80\n        /* \"#utility.yul\":1028:1033   */\n      dup2\n        /* \"#utility.yul\":1001:1034   */\n      tag_49\n      jump\t// in\n    tag_80:\n        /* \"#utility.yul\":901:1040   */\n      swap3\n      swap2\n      pop\n      pop\n      jump\t// out\n        /* \"#utility.yul\":1046:1136   */\n    tag_51:\n        /* \"#utility.yul\":1080:1087   */\n      0x00\n        /* \"#utility.yul\":1123:1128   */\n      dup2\n        /* \"#utility.yul\":1116:1129   */\n      iszero\n        /* \"#utility.yul\":1109:1130   */\n      iszero\n        /* \"#utility.yul\":1098:1130   */\n      swap1\n      pop\n        /* \"#utility.yul\":1046:1136   */\n      swap2\n      swap1\n      pop\n      jump\t// out\n        /* \"#utility.yul\":1142:1258   */\n    tag_52:\n        /* \"#utility.yul\":1212:1233   */\n      tag_83\n        /* \"#utility.yul\":1227:1232   */\n      dup2\n        /* \"#utility.yul\":1212:1233   */\n      tag_51\n      jump\t// in\n    tag_83:\n        /* \"#utility.yul\":1205:1210   */\n      dup2\n        /* \"#utility.yul\":1202:1234   */\n      eq\n        /* \"#utility.yul\":1192:1252   */\n      tag_84\n      jumpi\n        /* \"#utility.yul\":1248:1249   */\n      0x00\n        /* \"#utility.yul\":1245:1246   */\n      dup1\n        /* \"#utility.yul\":1238:1250   */\n      revert\n        /* \"#utility.yul\":1192:1252   */\n    tag_84:\n        /* \"#utility.yul\":1142:1258   */\n      pop\n      jump\t// out\n        /* \"#utility.yul\":1264:1397   */\n    tag_53:\n        /* \"#utility.yul\":1307:1312   */\n      0x00\n        /* \"#utility.yul\":1345:1351   */\n      dup2\n        /* \"#utility.yul\":1332:1352   */\n      calldataload\n        /* \"#utility.yul\":1323:1352   */\n      swap1\n      pop\n        /* \"#utility.yul\":1361:1391   */\n      tag_86\n        /* \"#utility.yul\":1385:1390   */\n      dup2\n        /* \"#utility.yul\":1361:1391   */\n      tag_52\n      jump\t// in\n    tag_86:\n        /* \"#utility.yul\":1264:1397   */\n      swap3\n      swap2\n      pop\n      pop\n      jump\t// out\n        /* \"#utility.yul\":1403:2016   */\n    tag_10:\n        /* \"#utility.yul\":1477:1483   */\n      0x00\n        /* \"#utility.yul\":1485:1491   */\n      dup1\n        /* \"#utility.yul\":1493:1499   */\n      0x00\n        /* \"#utility.yul\":1542:1544   */\n      0x60\n        /* \"#utility.yul\":1530:1539   */\n      dup5\n        /* \"#utility.yul\":1521:1528   */\n      dup7\n        /* \"#utility.yul\":1517:1540   */\n      sub\n        /* \"#utility.yul\":1513:1545   */\n      slt\n        /* \"#utility.yul\":1510:1629   */\n      iszero\n      tag_88\n      jumpi\n        /* \"#utility.yul\":1548:1627   */\n      tag_89\n      tag_43\n      jump\t// in\n    tag_89:\n        /* \"#utility.yul\":1510:1629   */\n    tag_88:\n        /* \"#utility.yul\":1668:1669   */\n      0x00\n        /* \"#utility.yul\":1693:1746   */\n      tag_90\n        /* \"#utility.yul\":1738:1745   */\n      dup7\n        /* \"#utility.yul\":1729:1735   */\n      dup3\n        /* \"#utility.yul\":1718:1727   */\n      dup8\n        /* \"#utility.yul\":1714:1736   */\n      add\n        /* \"#utility.yul\":1693:1746   */\n      tag_47\n      jump\t// in\n    tag_90:\n        /* \"#utility.yul\":1683:1746   */\n      swap4\n      pop\n        /* \"#utility.yul\":1639:1756   */\n      pop\n        /* \"#utility.yul\":1795:1797   */\n      0x20\n        /* \"#utility.yul\":1821:1874   */\n      tag_91\n        /* \"#utility.yul\":1866:1873   */\n      dup7\n        /* \"#utility.yul\":1857:1863   */\n      dup3\n        /* \"#utility.yul\":1846:1855   */\n      dup8\n        /* \"#utility.yul\":1842:1864   */\n      add\n        /* \"#utility.yul\":1821:1874   */\n      tag_50\n      jump\t// in\n    tag_91:\n        /* \"#utility.yul\":1811:1874   */\n      swap3\n      pop\n        /* \"#utility.yul\":1766:1884   */\n      pop\n        /* \"#utility.yul\":1923:1925   */\n      0x40\n        /* \"#utility.yul\":1949:1999   */\n      tag_92\n        /* \"#utility.yul\":1991:1998   */\n      dup7\n        /* \"#utility.yul\":1982:1988   */\n      dup3\n        /* \"#utility.yul\":1971:1980   */\n      dup8\n        /* \"#utility.yul\":1967:1989   */\n      add\n        /* \"#utility.yul\":1949:1999   */\n      tag_53\n      jump\t// in\n    tag_92:\n        /* \"#utility.yul\":1939:1999   */\n      swap2\n      pop\n        /* \"#utility.yul\":1894:2009   */\n      pop\n        /* \"#utility.yul\":1403:2016   */\n      swap3\n      pop\n      swap3\n      pop\n      swap3\n      jump\t// out\n        /* \"#utility.yul\":2022:2351   */\n    tag_14:\n        /* \"#utility.yul\":2081:2087   */\n      0x00\n        /* \"#utility.yul\":2130:2132   */\n      0x20\n        /* \"#utility.yul\":2118:2127   */\n      dup3\n        /* \"#utility.yul\":2109:2116   */\n      dup5\n        /* \"#utility.yul\":2105:2128   */\n      sub\n        /* \"#utility.yul\":2101:2133   */\n      slt\n        /* \"#utility.yul\":2098:2217   */\n      iszero\n      tag_94\n      jumpi\n        /* \"#utility.yul\":2136:2215   */\n      tag_95\n      tag_43\n      jump\t// in\n    tag_95:\n        /* \"#utility.yul\":2098:2217   */\n    tag_94:\n        /* \"#utility.yul\":2256:2257   */\n      0x00\n        /* \"#utility.yul\":2281:2334   */\n      tag_96\n        /* \"#utility.yul\":2326:2333   */\n      dup5\n        /* \"#utility.yul\":2317:2323   */\n      dup3\n        /* \"#utility.yul\":2306:2315   */\n      dup6\n        /* \"#utility.yul\":2302:2324   */\n      add\n        /* \"#utility.yul\":2281:2334   */\n      tag_47\n      jump\t// in\n    tag_96:\n        /* \"#utility.yul\":2271:2334   */\n      swap2\n      pop\n        /* \"#utility.yul\":2227:2344   */\n      pop\n        /* \"#utility.yul\":2022:2351   */\n      swap3\n      swap2\n      pop\n      pop\n      jump\t// out\n        /* \"#utility.yul\":2357:2475   */\n    tag_54:\n        /* \"#utility.yul\":2444:2468   */\n      tag_98\n        /* \"#utility.yul\":2462:2467   */\n      dup2\n        /* \"#utility.yul\":2444:2468   */\n      tag_48\n      jump\t// in\n    tag_98:\n        /* \"#utility.yul\":2439:2442   */\n      dup3\n        /* \"#utility.yul\":2432:2469   */\n      mstore\n        /* \"#utility.yul\":2357:2475   */\n      pop\n      pop\n      jump\t// out\n        /* \"#utility.yul\":2481:2590   */\n    tag_55:\n        /* \"#utility.yul\":2562:2583   */\n      tag_100\n        /* \"#utility.yul\":2577:2582   */\n      dup2\n        /* \"#utility.yul\":2562:2583   */\n      tag_51\n      jump\t// in\n    tag_100:\n        /* \"#utility.yul\":2557:2560   */\n      dup3\n        /* \"#utility.yul\":2550:2584   */\n      mstore\n        /* \"#utility.yul\":2481:2590   */\n      pop\n      pop\n      jump\t// out\n        /* \"#utility.yul\":2596:2714   */\n    tag_56:\n        /* \"#utility.yul\":2683:2707   */\n      tag_102\n        /* \"#utility.yul\":2701:2706   */\n      dup2\n        /* \"#utility.yul\":2683:2707   */\n      tag_45\n      jump\t// in\n    tag_102:\n        /* \"#utility.yul\":2678:2681   */\n      dup3\n        /* \"#utility.yul\":2671:2708   */\n      mstore\n        /* \"#utility.yul\":2596:2714   */\n      pop\n      pop\n      jump\t// out\n        /* \"#utility.yul\":2720:3150   */\n    tag_17:\n        /* \"#utility.yul\":2863:2867   */\n      0x00\n        /* \"#utility.yul\":2901:2903   */\n      0x60\n        /* \"#utility.yul\":2890:2899   */\n      dup3\n        /* \"#utility.yul\":2886:2904   */\n      add\n        /* \"#utility.yul\":2878:2904   */\n      swap1\n      pop\n        /* \"#utility.yul\":2914:2985   */\n      tag_104\n        /* \"#utility.yul\":2982:2983   */\n      0x00\n        /* \"#utility.yul\":2971:2980   */\n      dup4\n        /* \"#utility.yul\":2967:2984   */\n      add\n        /* \"#utility.yul\":2958:2964   */\n      dup7\n        /* \"#utility.yul\":2914:2985   */\n      tag_54\n      jump\t// in\n    tag_104:\n        /* \"#utility.yul\":2995:3061   */\n      tag_105\n        /* \"#utility.yul\":3057:3059   */\n      0x20\n        /* \"#utility.yul\":3046:3055   */\n      dup4\n        /* \"#utility.yul\":3042:3060   */\n      add\n        /* \"#utility.yul\":3033:3039   */\n      dup6\n        /* \"#utility.yul\":2995:3061   */\n      tag_55\n      jump\t// in\n    tag_105:\n        /* \"#utility.yul\":3071:3143   */\n      tag_106\n        /* \"#utility.yul\":3139:3141   */\n      0x40\n        /* \"#utility.yul\":3128:3137   */\n      dup4\n        /* \"#utility.yul\":3124:3142   */\n      add\n        /* \"#utility.yul\":3115:3121   */\n      dup5\n        /* \"#utility.yul\":3071:3143   */\n      tag_56\n      jump\t// in\n    tag_106:\n        /* \"#utility.yul\":2720:3150   */\n      swap5\n      swap4\n      pop\n      pop\n      pop\n      pop\n      jump\t// out\n        /* \"#utility.yul\":3156:3366   */\n    tag_22:\n        /* \"#utility.yul\":3243:3247   */\n      0x00\n        /* \"#utility.yul\":3281:3283   */\n      0x20\n        /* \"#utility.yul\":3270:3279   */\n      dup3\n        /* \"#utility.yul\":3266:3284   */\n      add\n        /* \"#utility.yul\":3258:3284   */\n      swap1\n      pop\n        /* \"#utility.yul\":3294:3359   */\n      tag_108\n        /* \"#utility.yul\":3356:3357   */\n      0x00\n        /* \"#utility.yul\":3345:3354   */\n      dup4\n        /* \"#utility.yul\":3341:3358   */\n      add\n        /* \"#utility.yul\":3332:3338   */\n      dup5\n        /* \"#utility.yul\":3294:3359   */\n      tag_55\n      jump\t// in\n    tag_108:\n        /* \"#utility.yul\":3156:3366   */\n      swap3\n      swap2\n      pop\n      pop\n      jump\t// out\n        /* \"#utility.yul\":3372:3498   */\n    tag_57:\n        /* \"#utility.yul\":3409:3416   */\n      0x00\n        /* \"#utility.yul\":3449:3491   */\n      0xffffffffffffffffffffffffffffffffffffffff\n        /* \"#utility.yul\":3442:3447   */\n      dup3\n        /* \"#utility.yul\":3438:3492   */\n      and\n        /* \"#utility.yul\":3427:3492   */\n      swap1\n      pop\n        /* \"#utility.yul\":3372:3498   */\n      swap2\n      swap1\n      pop\n      jump\t// out\n        /* \"#utility.yul\":3504:3600   */\n    tag_58:\n        /* \"#utility.yul\":3541:3548   */\n      0x00\n        /* \"#utility.yul\":3570:3594   */\n      tag_111\n        /* \"#utility.yul\":3588:3593   */\n      dup3\n        /* \"#utility.yul\":3570:3594   */\n      tag_57\n      jump\t// in\n    tag_111:\n        /* \"#utility.yul\":3559:3594   */\n      swap1\n      pop\n        /* \"#utility.yul\":3504:3600   */\n      swap2\n      swap1\n      pop\n      jump\t// out\n        /* \"#utility.yul\":3606:3724   */\n    tag_59:\n        /* \"#utility.yul\":3693:3717   */\n      tag_113\n        /* \"#utility.yul\":3711:3716   */\n      dup2\n        /* \"#utility.yul\":3693:3717   */\n      tag_58\n      jump\t// in\n    tag_113:\n        /* \"#utility.yul\":3688:3691   */\n      dup3\n        /* \"#utility.yul\":3681:3718   */\n      mstore\n        /* \"#utility.yul\":3606:3724   */\n      pop\n      pop\n      jump\t// out\n        /* \"#utility.yul\":3730:3952   */\n    tag_26:\n        /* \"#utility.yul\":3823:3827   */\n      0x00\n        /* \"#utility.yul\":3861:3863   */\n      0x20\n        /* \"#utility.yul\":3850:3859   */\n      dup3\n        /* \"#utility.yul\":3846:3864   */\n      add\n        /* \"#utility.yul\":3838:3864   */\n      swap1\n      pop\n        /* \"#utility.yul\":3874:3945   */\n      tag_115\n        /* \"#utility.yul\":3942:3943   */\n      0x00\n        /* \"#utility.yul\":3931:3940   */\n      dup4\n        /* \"#utility.yul\":3927:3944   */\n      add\n        /* \"#utility.yul\":3918:3924   */\n      dup5\n        /* \"#utility.yul\":3874:3945   */\n      tag_59\n      jump\t// in\n    tag_115:\n        /* \"#utility.yul\":3730:3952   */\n      swap3\n      swap2\n      pop\n      pop\n      jump\t// out\n        /* \"#utility.yul\":3958:4127   */\n    tag_60:\n        /* \"#utility.yul\":4042:4053   */\n      0x00\n        /* \"#utility.yul\":4076:4082   */\n      dup3\n        /* \"#utility.yul\":4071:4074   */\n      dup3\n        /* \"#utility.yul\":4064:4083   */\n      mstore\n        /* \"#utility.yul\":4116:4120   */\n      0x20\n        /* \"#utility.yul\":4111:4114   */\n      dup3\n        /* \"#utility.yul\":4107:4121   */\n      add\n        /* \"#utility.yul\":4092:4121   */\n      swap1\n      pop\n        /* \"#utility.yul\":3958:4127   */\n      swap3\n      swap2\n      pop\n      pop\n      jump\t// out\n        /* \"#utility.yul\":4133:4300   */\n    tag_61:\n        /* \"#utility.yul\":4273:4292   */\n      0x5065726d697373696f6e2064656e696564000000000000000000000000000000\n        /* \"#utility.yul\":4269:4270   */\n      0x00\n        /* \"#utility.yul\":4261:4267   */\n      dup3\n        /* \"#utility.yul\":4257:4271   */\n      add\n        /* \"#utility.yul\":4250:4293   */\n      mstore\n        /* \"#utility.yul\":4133:4300   */\n      pop\n      jump\t// out\n        /* \"#utility.yul\":4306:4672   */\n    tag_62:\n        /* \"#utility.yul\":4448:4451   */\n      0x00\n        /* \"#utility.yul\":4469:4536   */\n      tag_119\n        /* \"#utility.yul\":4533:4535   */\n      0x11\n        /* \"#utility.yul\":4528:4531   */\n      dup4\n        /* \"#utility.yul\":4469:4536   */\n      tag_60\n      jump\t// in\n    tag_119:\n        /* \"#utility.yul\":4462:4536   */\n      swap2\n      pop\n        /* \"#utility.yul\":4545:4638   */\n      tag_120\n        /* \"#utility.yul\":4634:4637   */\n      dup3\n        /* \"#utility.yul\":4545:4638   */\n      tag_61\n      jump\t// in\n    tag_120:\n        /* \"#utility.yul\":4663:4665   */\n      0x20\n        /* \"#utility.yul\":4658:4661   */\n      dup3\n        /* \"#utility.yul\":4654:4666   */\n      add\n        /* \"#utility.yul\":4647:4666   */\n      swap1\n      pop\n        /* \"#utility.yul\":4306:4672   */\n      swap2\n      swap1\n      pop\n      jump\t// out\n        /* \"#utility.yul\":4678:5097   */\n    tag_34:\n        /* \"#utility.yul\":4844:4848   */\n      0x00\n        /* \"#utility.yul\":4882:4884   */\n      0x20\n        /* \"#utility.yul\":4871:4880   */\n      dup3\n        /* \"#utility.yul\":4867:4885   */\n      add\n        /* \"#utility.yul\":4859:4885   */\n      swap1\n      pop\n        /* \"#utility.yul\":4931:4940   */\n      dup2\n        /* \"#utility.yul\":4925:4929   */\n      dup2\n        /* \"#utility.yul\":4921:4941   */\n      sub\n        /* \"#utility.yul\":4917:4918   */\n      0x00\n        /* \"#utility.yul\":4906:4915   */\n      dup4\n        /* \"#utility.yul\":4902:4919   */\n      add\n        /* \"#utility.yul\":4895:4942   */\n      mstore\n        /* \"#utility.yul\":4959:5090   */\n      tag_122\n        /* \"#utility.yul\":5085:5089   */\n      dup2\n        /* \"#utility.yul\":4959:5090   */\n      tag_62\n      jump\t// in\n    tag_122:\n        /* \"#utility.yul\":4951:5090   */\n      swap1\n      pop\n        /* \"#utility.yul\":4678:5097   */\n      swap2\n      swap1\n      pop\n      jump\t// out\n        /* \"#utility.yul\":5103:5271   */\n    tag_63:\n        /* \"#utility.yul\":5243:5263   */\n      0x4475706c696361746520766964656f2049440000000000000000000000000000\n        /* \"#utility.yul\":5239:5240   */\n      0x00\n        /* \"#utility.yul\":5231:5237   */\n      dup3\n        /* \"#utility.yul\":5227:5241   */\n      add\n        /* \"#utility.yul\":5220:5264   */\n      mstore\n        /* \"#utility.yul\":5103:5271   */\n      pop\n      jump\t// out\n        /* \"#utility.yul\":5277:5643   */\n    tag_64:\n        /* \"#utility.yul\":5419:5422   */\n      0x00\n        /* \"#utility.yul\":5440:5507   */\n      tag_125\n        /* \"#utility.yul\":5504:5506   */\n      0x12\n        /* \"#utility.yul\":5499:5502   */\n      dup4\n        /* \"#utility.yul\":5440:5507   */\n      tag_60\n      jump\t// in\n    tag_125:\n        /* \"#utility.yul\":5433:5507   */\n      swap2\n      pop\n        /* \"#utility.yul\":5516:5609   */\n      tag_126\n        /* \"#utility.yul\":5605:5608   */\n      dup3\n        /* \"#utility.yul\":5516:5609   */\n      tag_63\n      jump\t// in\n    tag_126:\n        /* \"#utility.yul\":5634:5636   */\n      0x20\n        /* \"#utility.yul\":5629:5632   */\n      dup3\n        /* \"#utility.yul\":5625:5637   */\n      add\n        /* \"#utility.yul\":5618:5637   */\n      swap1\n      pop\n        /* \"#utility.yul\":5277:5643   */\n      swap2\n      swap1\n      pop\n      jump\t// out\n        /* \"#utility.yul\":5649:6068   */\n    tag_38:\n        /* \"#utility.yul\":5815:5819   */\n      0x00\n        /* \"#utility.yul\":5853:5855   */\n      0x20\n        /* \"#utility.yul\":5842:5851   */\n      dup3\n        /* \"#utility.yul\":5838:5856   */\n      add\n        /* \"#utility.yul\":5830:5856   */\n      swap1\n      pop\n        /* \"#utility.yul\":5902:5911   */\n      dup2\n        /* \"#utility.yul\":5896:5900   */\n      dup2\n        /* \"#utility.yul\":5892:5912   */\n      sub\n        /* \"#utility.yul\":5888:5889   */\n      0x00\n        /* \"#utility.yul\":5877:5886   */\n      dup4\n        /* \"#utility.yul\":5873:5890   */\n      add\n        /* \"#utility.yul\":5866:5913   */\n      mstore\n        /* \"#utility.yul\":5930:6061   */\n      tag_128\n        /* \"#utility.yul\":6056:6060   */\n      dup2\n        /* \"#utility.yul\":5930:6061   */\n      tag_64\n      jump\t// in\n    tag_128:\n        /* \"#utility.yul\":5922:6061   */\n      swap1\n      pop\n        /* \"#utility.yul\":5649:6068   */\n      swap2\n      swap1\n      pop\n      jump\t// out\n\n    auxdata: 0xa264697066735822122002136b262c377f3360292735803a1e3f02bcdd880918764dda3edda085bfdc8464736f6c63430008190033\n}\n",
				"bytecode": {
					"linkReferences": {},
					"object": "6080604052348015600e575f80fd5b503360015f6101000a81548173ffffffffffffffffffffffffffffffffffffffff021916908373ffffffffffffffffffffffffffffffffffffffff1602179055506106858061005c5f395ff3fe608060405234801561000f575f80fd5b5060043610610055575f3560e01c8063762f88b314610059578063ab1a5cb714610075578063d20e395a146100a7578063d3e848f1146100d7578063e6821bf5146100f5575b5f80fd5b610073600480360381019061006e9190610421565b610127565b005b61008f600480360381019061008a9190610471565b6102ad565b60405161009e939291906104c9565b60405180910390f35b6100c160048036038101906100bc9190610471565b610304565b6040516100ce91906104fe565b60405180910390f35b6100df61032c565b6040516100ec9190610556565b60405180910390f35b61010f600480360381019061010a9190610471565b610351565b60405161011e939291906104c9565b60405180910390f35b60015f9054906101000a900473ffffffffffffffffffffffffffffffffffffffff1673ffffffffffffffffffffffffffffffffffffffff163373ffffffffffffffffffffffffffffffffffffffff16146101b6576040517f08c379a00000000000000000000000000000000000000000000000000000000081526004016101ad906105c9565b60405180910390fd5b5f805f8581526020019081526020015f20600201541461020b576040517f08c379a000000000000000000000000000000000000000000000000000000000815260040161020290610631565b60405180910390fd5b60405180606001604052808381526020018215158152602001428152505f808581526020019081526020015f205f820151815f01556020820151816001015f6101000a81548160ff02191690831515021790555060408201518160020155905050827fe83aba0b9b63fcd1eab12f7b8262bf64551c0e751779b4b86bd2040765256b0b8383426040516102a0939291906104c9565b60405180910390a2505050565b5f805f805f8581526020019081526020015f205f01545f808681526020019081526020015f206001015f9054906101000a900460ff165f808781526020019081526020015f20600201549250925092509193909250565b5f805f8381526020019081526020015f206001015f9054906101000a900460ff169050919050565b60015f9054906101000a900473ffffffffffffffffffffffffffffffffffffffff1681565b5f602052805f5260405f205f91509050805f015490806001015f9054906101000a900460ff16908060020154905083565b5f80fd5b5f819050919050565b61039881610386565b81146103a2575f80fd5b50565b5f813590506103b38161038f565b92915050565b5f819050919050565b6103cb816103b9565b81146103d5575f80fd5b50565b5f813590506103e6816103c2565b92915050565b5f8115159050919050565b610400816103ec565b811461040a575f80fd5b50565b5f8135905061041b816103f7565b92915050565b5f805f6060848603121561043857610437610382565b5b5f610445868287016103a5565b9350506020610456868287016103d8565b92505060406104678682870161040d565b9150509250925092565b5f6020828403121561048657610485610382565b5b5f610493848285016103a5565b91505092915050565b6104a5816103b9565b82525050565b6104b4816103ec565b82525050565b6104c381610386565b82525050565b5f6060820190506104dc5f83018661049c565b6104e960208301856104ab565b6104f660408301846104ba565b949350505050565b5f6020820190506105115f8301846104ab565b92915050565b5f73ffffffffffffffffffffffffffffffffffffffff82169050919050565b5f61054082610517565b9050919050565b61055081610536565b82525050565b5f6020820190506105695f830184610547565b92915050565b5f82825260208201905092915050565b7f5065726d697373696f6e2064656e6965640000000000000000000000000000005f82015250565b5f6105b360118361056f565b91506105be8261057f565b602082019050919050565b5f6020820190508181035f8301526105e0816105a7565b9050919050565b7f4475706c696361746520766964656f20494400000000000000000000000000005f82015250565b5f61061b60128361056f565b9150610626826105e7565b602082019050919050565b5f6020820190508181035f8301526106488161060f565b905091905056fea264697066735822122002136b262c377f3360292735803a1e3f02bcdd880918764dda3edda085bfdc8464736f6c63430008190033",
					"opcodes": "PUSH1 0x80 PUSH1 0x40 MSTORE CALLVALUE DUP1 ISZERO PUSH1 0xE JUMPI PUSH0 DUP1 REVERT JUMPDEST POP CALLER PUSH1 0x1 PUSH0 PUSH2 0x100 EXP DUP2 SLOAD DUP2 PUSH20 0xFFFFFFFFFFFFFFFFFFFFFFFFFFFFFFFFFFFFFFFF MUL NOT AND SWAP1 DUP4 PUSH20 0xFFFFFFFFFFFFFFFFFFFFFFFFFFFFFFFFFFFFFFFF AND MUL OR SWAP1 SSTORE POP PUSH2 0x685 DUP1 PUSH2 0x5C PUSH0 CODECOPY PUSH0 RETURN INVALID PUSH1 0x80 PUSH1 0x40 MSTORE CALLVALUE DUP1 ISZERO PUSH2 0xF JUMPI PUSH0 DUP1 REVERT JUMPDEST POP PUSH1 0x4 CALLDATASIZE LT PUSH2 0x55 JUMPI PUSH0 CALLDATALOAD PUSH1 0xE0 SHR DUP1 PUSH4 0x762F88B3 EQ PUSH2 0x59 JUMPI DUP1 PUSH4 0xAB1A5CB7 EQ PUSH2 0x75 JUMPI DUP1 PUSH4 0xD20E395A EQ PUSH2 0xA7 JUMPI DUP1 PUSH4 0xD3E848F1 EQ PUSH2 0xD7 JUMPI DUP1 PUSH4 0xE6821BF5 EQ PUSH2 0xF5 JUMPI JUMPDEST PUSH0 DUP1 REVERT JUMPDEST PUSH2 0x73 PUSH1 0x4 DUP1 CALLDATASIZE SUB DUP2 ADD SWAP1 PUSH2 0x6E SWAP2 SWAP1 PUSH2 0x421 JUMP JUMPDEST PUSH2 0x127 JUMP JUMPDEST STOP JUMPDEST PUSH2 0x8F PUSH1 0x4 DUP1 CALLDATASIZE SUB DUP2 ADD SWAP1 PUSH2 0x8A SWAP2 SWAP1 PUSH2 0x471 JUMP JUMPDEST PUSH2 0x2AD JUMP JUMPDEST PUSH1 0x40 MLOAD PUSH2 0x9E SWAP4 SWAP3 SWAP2 SWAP1 PUSH2 0x4C9 JUMP JUMPDEST PUSH1 0x40 MLOAD DUP1 SWAP2 SUB SWAP1 RETURN JUMPDEST PUSH2 0xC1 PUSH1 0x4 DUP1 CALLDATASIZE SUB DUP2 ADD SWAP1 PUSH2 0xBC SWAP2 SWAP1 PUSH2 0x471 JUMP JUMPDEST PUSH2 0x304 JUMP JUMPDEST PUSH1 0x40 MLOAD PUSH2 0xCE SWAP2 SWAP1 PUSH2 0x4FE JUMP JUMPDEST PUSH1 0x40 MLOAD DUP1 SWAP2 SUB SWAP1 RETURN JUMPDEST PUSH2 0xDF PUSH2 0x32C JUMP JUMPDEST PUSH1 0x40 MLOAD PUSH2 0xEC SWAP2 SWAP1 PUSH2 0x556 JUMP JUMPDEST PUSH1 0x40 MLOAD DUP1 SWAP2 SUB SWAP1 RETURN JUMPDEST PUSH2 0x10F PUSH1 0x4 DUP1 CALLDATASIZE SUB DUP2 ADD SWAP1 PUSH2 0x10A SWAP2 SWAP1 PUSH2 0x471 JUMP JUMPDEST PUSH2 0x351 JUMP JUMPDEST PUSH1 0x40 MLOAD PUSH2 0x11E SWAP4 SWAP3 SWAP2 SWAP1 PUSH2 0x4C9 JUMP JUMPDEST PUSH1 0x40 MLOAD DUP1 SWAP2 SUB SWAP1 RETURN JUMPDEST PUSH1 0x1 PUSH0 SWAP1 SLOAD SWAP1 PUSH2 0x100 EXP SWAP1 DIV PUSH20 0xFFFFFFFFFFFFFFFFFFFFFFFFFFFFFFFFFFFFFFFF AND PUSH20 0xFFFFFFFFFFFFFFFFFFFFFFFFFFFFFFFFFFFFFFFF AND CALLER PUSH20 0xFFFFFFFFFFFFFFFFFFFFFFFFFFFFFFFFFFFFFFFF AND EQ PUSH2 0x1B6 JUMPI PUSH1 0x40 MLOAD PUSH32 0x8C379A000000000000000000000000000000000000000000000000000000000 DUP2 MSTORE PUSH1 0x4 ADD PUSH2 0x1AD SWAP1 PUSH2 0x5C9 JUMP JUMPDEST PUSH1 0x40 MLOAD DUP1 SWAP2 SUB SWAP1 REVERT JUMPDEST PUSH0 DUP1 PUSH0 DUP6 DUP2 MSTORE PUSH1 0x20 ADD SWAP1 DUP2 MSTORE PUSH1 0x20 ADD PUSH0 KECCAK256 PUSH1 0x2 ADD SLOAD EQ PUSH2 0x20B JUMPI PUSH1 0x40 MLOAD PUSH32 0x8C379A000000000000000000000000000000000000000000000000000000000 DUP2 MSTORE PUSH1 0x4 ADD PUSH2 0x202 SWAP1 PUSH2 0x631 JUMP JUMPDEST PUSH1 0x40 MLOAD DUP1 SWAP2 SUB SWAP1 REVERT JUMPDEST PUSH1 0x40 MLOAD DUP1 PUSH1 0x60 ADD PUSH1 0x40 MSTORE DUP1 DUP4 DUP2 MSTORE PUSH1 0x20 ADD DUP3 ISZERO ISZERO DUP2 MSTORE PUSH1 0x20 ADD TIMESTAMP DUP2 MSTORE POP PUSH0 DUP1 DUP6 DUP2 MSTORE PUSH1 0x20 ADD SWAP1 DUP2 MSTORE PUSH1 0x20 ADD PUSH0 KECCAK256 PUSH0 DUP3 ADD MLOAD DUP2 PUSH0 ADD SSTORE PUSH1 0x20 DUP3 ADD MLOAD DUP2 PUSH1 0x1 ADD PUSH0 PUSH2 0x100 EXP DUP2 SLOAD DUP2 PUSH1 0xFF MUL NOT AND SWAP1 DUP4 ISZERO ISZERO MUL OR SWAP1 SSTORE POP PUSH1 0x40 DUP3 ADD MLOAD DUP2 PUSH1 0x2 ADD SSTORE SWAP1 POP POP DUP3 PUSH32 0xE83ABA0B9B63FCD1EAB12F7B8262BF64551C0E751779B4B86BD2040765256B0B DUP4 DUP4 TIMESTAMP PUSH1 0x40 MLOAD PUSH2 0x2A0 SWAP4 SWAP3 SWAP2 SWAP1 PUSH2 0x4C9 JUMP JUMPDEST PUSH1 0x40 MLOAD DUP1 SWAP2 SUB SWAP1 LOG2 POP POP POP JUMP JUMPDEST PUSH0 DUP1 PUSH0 DUP1 PUSH0 DUP6 DUP2 MSTORE PUSH1 0x20 ADD SWAP1 DUP2 MSTORE PUSH1 0x20 ADD PUSH0 KECCAK256 PUSH0 ADD SLOAD PUSH0 DUP1 DUP7 DUP2 MSTORE PUSH1 0x20 ADD SWAP1 DUP2 MSTORE PUSH1 0x20 ADD PUSH0 KECCAK256 PUSH1 0x1 ADD PUSH0 SWAP1 SLOAD SWAP1 PUSH2 0x100 EXP SWAP1 DIV PUSH1 0xFF AND PUSH0 DUP1 DUP8 DUP2 MSTORE PUSH1 0x20 ADD SWAP1 DUP2 MSTORE PUSH1 0x20 ADD PUSH0 KECCAK256 PUSH1 0x2 ADD SLOAD SWAP3 POP SWAP3 POP SWAP3 POP SWAP2 SWAP4 SWAP1 SWAP3 POP JUMP JUMPDEST PUSH0 DUP1 PUSH0 DUP4 DUP2 MSTORE PUSH1 0x20 ADD SWAP1 DUP2 MSTORE PUSH1 0x20 ADD PUSH0 KECCAK256 PUSH1 0x1 ADD PUSH0 SWAP1 SLOAD SWAP1 PUSH2 0x100 EXP SWAP1 DIV PUSH1 0xFF AND SWAP1 POP SWAP2 SWAP1 POP JUMP JUMPDEST PUSH1 0x1 PUSH0 SWAP1 SLOAD SWAP1 PUSH2 0x100 EXP SWAP1 DIV PUSH20 0xFFFFFFFFFFFFFFFFFFFFFFFFFFFFFFFFFFFFFFFF AND DUP2 JUMP JUMPDEST PUSH0 PUSH1 0x20 MSTORE DUP1 PUSH0 MSTORE PUSH1 0x40 PUSH0 KECCAK256 PUSH0 SWAP2 POP SWAP1 POP DUP1 PUSH0 ADD SLOAD SWAP1 DUP1 PUSH1 0x1 ADD PUSH0 SWAP1 SLOAD SWAP1 PUSH2 0x100 EXP SWAP1 DIV PUSH1 0xFF AND SWAP1 DUP1 PUSH1 0x2 ADD SLOAD SWAP1 POP DUP4 JUMP JUMPDEST PUSH0 DUP1 REVERT JUMPDEST PUSH0 DUP2 SWAP1 POP SWAP2 SWAP1 POP JUMP JUMPDEST PUSH2 0x398 DUP2 PUSH2 0x386 JUMP JUMPDEST DUP2 EQ PUSH2 0x3A2 JUMPI PUSH0 DUP1 REVERT JUMPDEST POP JUMP JUMPDEST PUSH0 DUP2 CALLDATALOAD SWAP1 POP PUSH2 0x3B3 DUP2 PUSH2 0x38F JUMP JUMPDEST SWAP3 SWAP2 POP POP JUMP JUMPDEST PUSH0 DUP2 SWAP1 POP SWAP2 SWAP1 POP JUMP JUMPDEST PUSH2 0x3CB DUP2 PUSH2 0x3B9 JUMP JUMPDEST DUP2 EQ PUSH2 0x3D5 JUMPI PUSH0 DUP1 REVERT JUMPDEST POP JUMP JUMPDEST PUSH0 DUP2 CALLDATALOAD SWAP1 POP PUSH2 0x3E6 DUP2 PUSH2 0x3C2 JUMP JUMPDEST SWAP3 SWAP2 POP POP JUMP JUMPDEST PUSH0 DUP2 ISZERO ISZERO SWAP1 POP SWAP2 SWAP1 POP JUMP JUMPDEST PUSH2 0x400 DUP2 PUSH2 0x3EC JUMP JUMPDEST DUP2 EQ PUSH2 0x40A JUMPI PUSH0 DUP1 REVERT JUMPDEST POP JUMP JUMPDEST PUSH0 DUP2 CALLDATALOAD SWAP1 POP PUSH2 0x41B DUP2 PUSH2 0x3F7 JUMP JUMPDEST SWAP3 SWAP2 POP POP JUMP JUMPDEST PUSH0 DUP1 PUSH0 PUSH1 0x60 DUP5 DUP7 SUB SLT ISZERO PUSH2 0x438 JUMPI PUSH2 0x437 PUSH2 0x382 JUMP JUMPDEST JUMPDEST PUSH0 PUSH2 0x445 DUP7 DUP3 DUP8 ADD PUSH2 0x3A5 JUMP JUMPDEST SWAP4 POP POP PUSH1 0x20 PUSH2 0x456 DUP7 DUP3 DUP8 ADD PUSH2 0x3D8 JUMP JUMPDEST SWAP3 POP POP PUSH1 0x40 PUSH2 0x467 DUP7 DUP3 DUP8 ADD PUSH2 0x40D JUMP JUMPDEST SWAP2 POP POP SWAP3 POP SWAP3 POP SWAP3 JUMP JUMPDEST PUSH0 PUSH1 0x20 DUP3 DUP5 SUB SLT ISZERO PUSH2 0x486 JUMPI PUSH2 0x485 PUSH2 0x382 JUMP JUMPDEST JUMPDEST PUSH0 PUSH2 0x493 DUP5 DUP3 DUP6 ADD PUSH2 0x3A5 JUMP JUMPDEST SWAP2 POP POP SWAP3 SWAP2 POP POP JUMP JUMPDEST PUSH2 0x4A5 DUP2 PUSH2 0x3B9 JUMP JUMPDEST DUP3 MSTORE POP POP JUMP JUMPDEST PUSH2 0x4B4 DUP2 PUSH2 0x3EC JUMP JUMPDEST DUP3 MSTORE POP POP JUMP JUMPDEST PUSH2 0x4C3 DUP2 PUSH2 0x386 JUMP JUMPDEST DUP3 MSTORE POP POP JUMP JUMPDEST PUSH0 PUSH1 0x60 DUP3 ADD SWAP1 POP PUSH2 0x4DC PUSH0 DUP4 ADD DUP7 PUSH2 0x49C JUMP JUMPDEST PUSH2 0x4E9 PUSH1 0x20 DUP4 ADD DUP6 PUSH2 0x4AB JUMP JUMPDEST PUSH2 0x4F6 PUSH1 0x40 DUP4 ADD DUP5 PUSH2 0x4BA JUMP JUMPDEST SWAP5 SWAP4 POP POP POP POP JUMP JUMPDEST PUSH0 PUSH1 0x20 DUP3 ADD SWAP1 POP PUSH2 0x511 PUSH0 DUP4 ADD DUP5 PUSH2 0x4AB JUMP JUMPDEST SWAP3 SWAP2 POP POP JUMP JUMPDEST PUSH0 PUSH20 0xFFFFFFFFFFFFFFFFFFFFFFFFFFFFFFFFFFFFFFFF DUP3 AND SWAP1 POP SWAP2 SWAP1 POP JUMP JUMPDEST PUSH0 PUSH2 0x540 DUP3 PUSH2 0x517 JUMP JUMPDEST SWAP1 POP SWAP2 SWAP1 POP JUMP JUMPDEST PUSH2 0x550 DUP2 PUSH2 0x536 JUMP JUMPDEST DUP3 MSTORE POP POP JUMP JUMPDEST PUSH0 PUSH1 0x20 DUP3 ADD SWAP1 POP PUSH2 0x569 PUSH0 DUP4 ADD DUP5 PUSH2 0x547 JUMP JUMPDEST SWAP3 SWAP2 POP POP JUMP JUMPDEST PUSH0 DUP3 DUP3 MSTORE PUSH1 0x20 DUP3 ADD SWAP1 POP SWAP3 SWAP2 POP POP JUMP JUMPDEST PUSH32 0x5065726D697373696F6E2064656E696564000000000000000000000000000000 PUSH0 DUP3 ADD MSTORE POP JUMP JUMPDEST PUSH0 PUSH2 0x5B3 PUSH1 0x11 DUP4 PUSH2 0x56F JUMP JUMPDEST SWAP2 POP PUSH2 0x5BE DUP3 PUSH2 0x57F JUMP JUMPDEST PUSH1 0x20 DUP3 ADD SWAP1 POP SWAP2 SWAP1 POP JUMP JUMPDEST PUSH0 PUSH1 0x20 DUP3 ADD SWAP1 POP DUP2 DUP2 SUB PUSH0 DUP4 ADD MSTORE PUSH2 0x5E0 DUP2 PUSH2 0x5A7 JUMP JUMPDEST SWAP1 POP SWAP2 SWAP1 POP JUMP JUMPDEST PUSH32 0x4475706C696361746520766964656F2049440000000000000000000000000000 PUSH0 DUP3 ADD MSTORE POP JUMP JUMPDEST PUSH0 PUSH2 0x61B PUSH1 0x12 DUP4 PUSH2 0x56F JUMP JUMPDEST SWAP2 POP PUSH2 0x626 DUP3 PUSH2 0x5E7 JUMP JUMPDEST PUSH1 0x20 DUP3 ADD SWAP1 POP SWAP2 SWAP1 POP JUMP JUMPDEST PUSH0 PUSH1 0x20 DUP3 ADD SWAP1 POP DUP2 DUP2 SUB PUSH0 DUP4 ADD MSTORE PUSH2 0x648 DUP2 PUSH2 0x60F JUMP JUMPDEST SWAP1 POP SWAP2 SWAP1 POP JUMP INVALID LOG2 PUSH5 0x6970667358 0x22 SLT KECCAK256 MUL SGT PUSH12 0x262C377F3360292735803A1E EXTCODEHASH MUL 0xBC 0xDD DUP9 MULMOD XOR PUSH23 0x4DDA3EDDA085BFDC8464736F6C63430008190033000000 "
				},
				"gasEstimates": {
					"creation": {
						"codeDepositCost": "333800",
						"executionCost": "24637",
						"totalCost": "358437"
					},
					"external": {
						"getAIVerificationResult(uint256)": "2838",
						"getVideoDetails(uint256)": "infinite",
						"systemAddress()": "2552",
						"timestampVideo(uint256,bytes32,bool)": "infinite",
						"videos(uint256)": "infinite"
					}
				},
				"methodIdentifiers": {
					"getAIVerificationResult(uint256)": "d20e395a",
					"getVideoDetails(uint256)": "ab1a5cb7",
					"systemAddress()": "d3e848f1",
					"timestampVideo(uint256,bytes32,bool)": "762f88b3",
					"videos(uint256)": "e6821bf5"
				}
			},
			"storageLayout": {
				"storage": [
					{
						"astId": 13,
						"contract": "contracts/Ai-Blt.sol:DeepFakeVerification",
						"label": "videos",
						"offset": 0,
						"slot": "0",
						"type": "t_mapping(t_uint256,t_struct(VideoDetails)8_storage)"
					},
					{
						"astId": 37,
						"contract": "contracts/Ai-Blt.sol:DeepFakeVerification",
						"label": "systemAddress",
						"offset": 0,
						"slot": "1",
						"type": "t_address"
					}
				],
				"types": {
					"t_address": {
						"encoding": "inplace",
						"label": "address",
						"numberOfBytes": "20"
					},
					"t_bool": {
						"encoding": "inplace",
						"label": "bool",
						"numberOfBytes": "1"
					},
					"t_bytes32": {
						"encoding": "inplace",
						"label": "bytes32",
						"numberOfBytes": "32"
					},
					"t_mapping(t_uint256,t_struct(VideoDetails)8_storage)": {
						"encoding": "mapping",
						"key": "t_uint256",
						"label": "mapping(uint256 => struct DeepFakeVerification.VideoDetails)",
						"numberOfBytes": "32",
						"value": "t_struct(VideoDetails)8_storage"
					},
					"t_struct(VideoDetails)8_storage": {
						"encoding": "inplace",
						"label": "struct DeepFakeVerification.VideoDetails",
						"members": [
							{
								"astId": 3,
								"contract": "contracts/Ai-Blt.sol:DeepFakeVerification",
								"label": "ipfsHash",
								"offset": 0,
								"slot": "0",
								"type": "t_bytes32"
							},
							{
								"astId": 5,
								"contract": "contracts/Ai-Blt.sol:DeepFakeVerification",
								"label": "aiVerificationResult",
								"offset": 0,
								"slot": "1",
								"type": "t_bool"
							},
							{
								"astId": 7,
								"contract": "contracts/Ai-Blt.sol:DeepFakeVerification",
								"label": "timestamp",
								"offset": 0,
								"slot": "2",
								"type": "t_uint256"
							}
						],
						"numberOfBytes": "96"
					},
					"t_uint256": {
						"encoding": "inplace",
						"label": "uint256",
						"numberOfBytes": "32"
					}
				}
			},
			"userdoc": {
				"kind": "user",
				"methods": {},
				"version": 1
			}
		}
	}
}