{
	"contracts/Lottery.sol": {
		"Lottery": {
			"abi": [
				{
					"inputs": [],
					"stateMutability": "nonpayable",
					"type": "constructor"
				},
				{
					"inputs": [],
					"name": "BuyTickets",
					"outputs": [],
					"stateMutability": "payable",
					"type": "function"
				},
				{
					"inputs": [],
					"name": "CurrentWinningReward",
					"outputs": [
						{
							"internalType": "uint256",
							"name": "",
							"type": "uint256"
						}
					],
					"stateMutability": "view",
					"type": "function"
				},
				{
					"inputs": [],
					"name": "DrawWinnerTicket",
					"outputs": [],
					"stateMutability": "nonpayable",
					"type": "function"
				},
				{
					"inputs": [],
					"name": "IsWinner",
					"outputs": [
						{
							"internalType": "bool",
							"name": "",
							"type": "bool"
						}
					],
					"stateMutability": "view",
					"type": "function"
				},
				{
					"inputs": [],
					"name": "RefundAll",
					"outputs": [],
					"stateMutability": "nonpayable",
					"type": "function"
				},
				{
					"inputs": [],
					"name": "RemainingTickets",
					"outputs": [
						{
							"internalType": "uint256",
							"name": "",
							"type": "uint256"
						}
					],
					"stateMutability": "view",
					"type": "function"
				},
				{
					"inputs": [],
					"name": "WithdrawCommission",
					"outputs": [],
					"stateMutability": "nonpayable",
					"type": "function"
				},
				{
					"inputs": [],
					"name": "WithdrawWinnings",
					"outputs": [],
					"stateMutability": "nonpayable",
					"type": "function"
				},
				{
					"inputs": [],
					"name": "checkWinningsAmount",
					"outputs": [
						{
							"internalType": "uint256",
							"name": "",
							"type": "uint256"
						}
					],
					"stateMutability": "view",
					"type": "function"
				},
				{
					"inputs": [],
					"name": "duration",
					"outputs": [
						{
							"internalType": "uint256",
							"name": "",
							"type": "uint256"
						}
					],
					"stateMutability": "view",
					"type": "function"
				},
				{
					"inputs": [],
					"name": "expiration",
					"outputs": [
						{
							"internalType": "uint256",
							"name": "",
							"type": "uint256"
						}
					],
					"stateMutability": "view",
					"type": "function"
				},
				{
					"inputs": [],
					"name": "getTickets",
					"outputs": [
						{
							"internalType": "address[]",
							"name": "",
							"type": "address[]"
						}
					],
					"stateMutability": "view",
					"type": "function"
				},
				{
					"inputs": [
						{
							"internalType": "address",
							"name": "addr",
							"type": "address"
						}
					],
					"name": "getWinningsForAddress",
					"outputs": [
						{
							"internalType": "uint256",
							"name": "",
							"type": "uint256"
						}
					],
					"stateMutability": "view",
					"type": "function"
				},
				{
					"inputs": [],
					"name": "lastWinner",
					"outputs": [
						{
							"internalType": "address",
							"name": "",
							"type": "address"
						}
					],
					"stateMutability": "view",
					"type": "function"
				},
				{
					"inputs": [],
					"name": "lastWinnerAmount",
					"outputs": [
						{
							"internalType": "uint256",
							"name": "",
							"type": "uint256"
						}
					],
					"stateMutability": "view",
					"type": "function"
				},
				{
					"inputs": [],
					"name": "lotteryOperator",
					"outputs": [
						{
							"internalType": "address",
							"name": "",
							"type": "address"
						}
					],
					"stateMutability": "view",
					"type": "function"
				},
				{
					"inputs": [],
					"name": "maxTickets",
					"outputs": [
						{
							"internalType": "uint256",
							"name": "",
							"type": "uint256"
						}
					],
					"stateMutability": "view",
					"type": "function"
				},
				{
					"inputs": [],
					"name": "operatorTotalCommission",
					"outputs": [
						{
							"internalType": "uint256",
							"name": "",
							"type": "uint256"
						}
					],
					"stateMutability": "view",
					"type": "function"
				},
				{
					"inputs": [],
					"name": "restartDraw",
					"outputs": [],
					"stateMutability": "nonpayable",
					"type": "function"
				},
				{
					"inputs": [],
					"name": "ticketCommission",
					"outputs": [
						{
							"internalType": "uint256",
							"name": "",
							"type": "uint256"
						}
					],
					"stateMutability": "view",
					"type": "function"
				},
				{
					"inputs": [],
					"name": "ticketPrice",
					"outputs": [
						{
							"internalType": "uint256",
							"name": "",
							"type": "uint256"
						}
					],
					"stateMutability": "view",
					"type": "function"
				},
				{
					"inputs": [
						{
							"internalType": "uint256",
							"name": "",
							"type": "uint256"
						}
					],
					"name": "tickets",
					"outputs": [
						{
							"internalType": "address",
							"name": "",
							"type": "address"
						}
					],
					"stateMutability": "view",
					"type": "function"
				},
				{
					"inputs": [
						{
							"internalType": "address",
							"name": "",
							"type": "address"
						}
					],
					"name": "winnings",
					"outputs": [
						{
							"internalType": "uint256",
							"name": "",
							"type": "uint256"
						}
					],
					"stateMutability": "view",
					"type": "function"
				}
			],
			"devdoc": {
				"kind": "dev",
				"methods": {},
				"version": 1
			},
			"evm": {
				"assembly": "    /* \"contracts/Lottery.sol\":125:4612  contract Lottery {... */\n  mstore(0x40, 0x80)\n    /* \"contracts/Lottery.sol\":646:647  0 */\n  0x00\n    /* \"contracts/Lottery.sol\":605:647  uint256 public operatorTotalCommission = 0 */\n  0x02\n  sstore\n    /* \"contracts/Lottery.sol\":1349:1457  constructor() {... */\n  callvalue\n  dup1\n  iszero\n  tag_1\n  jumpi\n  0x00\n  dup1\n  revert\ntag_1:\n  pop\n    /* \"contracts/Lottery.sol\":1391:1401  msg.sender */\n  caller\n    /* \"contracts/Lottery.sol\":1373:1388  lotteryOperator */\n  0x01\n  0x00\n    /* \"contracts/Lottery.sol\":1373:1401  lotteryOperator = msg.sender */\n  0x0100\n  exp\n  dup2\n  sload\n  dup2\n  0xffffffffffffffffffffffffffffffffffffffff\n  mul\n  not\n  and\n  swap1\n  dup4\n  0xffffffffffffffffffffffffffffffffffffffff\n  and\n  mul\n  or\n  swap1\n  sstore\n  pop\n    /* \"contracts/Lottery.sol\":398:408  30 minutes */\n  0x0708\n    /* \"contracts/Lottery.sol\":1424:1439  block.timestamp */\n  timestamp\n    /* \"contracts/Lottery.sol\":1424:1450  block.timestamp + duration */\n  tag_4\n  swap2\n  swap1\n  tag_5\n  jump\t// in\ntag_4:\n    /* \"contracts/Lottery.sol\":1411:1421  expiration */\n  0x00\n    /* \"contracts/Lottery.sol\":1411:1450  expiration = block.timestamp + duration */\n  dup2\n  swap1\n  sstore\n  pop\n    /* \"contracts/Lottery.sol\":125:4612  contract Lottery {... */\n  jump(tag_6)\n    /* \"#utility.yul\":7:84   */\ntag_7:\n    /* \"#utility.yul\":44:51   */\n  0x00\n    /* \"#utility.yul\":73:78   */\n  dup2\n    /* \"#utility.yul\":62:78   */\n  swap1\n  pop\n    /* \"#utility.yul\":7:84   */\n  swap2\n  swap1\n  pop\n  jump\t// out\n    /* \"#utility.yul\":90:270   */\ntag_8:\n    /* \"#utility.yul\":138:215   */\n  0x4e487b7100000000000000000000000000000000000000000000000000000000\n    /* \"#utility.yul\":135:136   */\n  0x00\n    /* \"#utility.yul\":128:216   */\n  mstore\n    /* \"#utility.yul\":235:239   */\n  0x11\n    /* \"#utility.yul\":232:233   */\n  0x04\n    /* \"#utility.yul\":225:240   */\n  mstore\n    /* \"#utility.yul\":259:263   */\n  0x24\n    /* \"#utility.yul\":256:257   */\n  0x00\n    /* \"#utility.yul\":249:264   */\n  revert\n    /* \"#utility.yul\":276:467   */\ntag_5:\n    /* \"#utility.yul\":316:319   */\n  0x00\n    /* \"#utility.yul\":335:355   */\n  tag_13\n    /* \"#utility.yul\":353:354   */\n  dup3\n    /* \"#utility.yul\":335:355   */\n  tag_7\n  jump\t// in\ntag_13:\n    /* \"#utility.yul\":330:355   */\n  swap2\n  pop\n    /* \"#utility.yul\":369:389   */\n  tag_14\n    /* \"#utility.yul\":387:388   */\n  dup4\n    /* \"#utility.yul\":369:389   */\n  tag_7\n  jump\t// in\ntag_14:\n    /* \"#utility.yul\":364:389   */\n  swap3\n  pop\n    /* \"#utility.yul\":412:413   */\n  dup3\n    /* \"#utility.yul\":409:410   */\n  dup3\n    /* \"#utility.yul\":405:414   */\n  add\n    /* \"#utility.yul\":398:414   */\n  swap1\n  pop\n    /* \"#utility.yul\":433:436   */\n  dup1\n    /* \"#utility.yul\":430:431   */\n  dup3\n    /* \"#utility.yul\":427:437   */\n  gt\n    /* \"#utility.yul\":424:460   */\n  iszero\n  tag_15\n  jumpi\n    /* \"#utility.yul\":440:458   */\n  tag_16\n  tag_8\n  jump\t// in\ntag_16:\n    /* \"#utility.yul\":424:460   */\ntag_15:\n    /* \"#utility.yul\":276:467   */\n  swap3\n  swap2\n  pop\n  pop\n  jump\t// out\n    /* \"contracts/Lottery.sol\":125:4612  contract Lottery {... */\ntag_6:\n  dataSize(sub_0)\n  dup1\n  dataOffset(sub_0)\n  0x00\n  codecopy\n  0x00\n  return\nstop\n\nsub_0: assembly {\n        /* \"contracts/Lottery.sol\":125:4612  contract Lottery {... */\n      mstore(0x40, 0x80)\n      jumpi(tag_1, lt(calldatasize, 0x04))\n      shr(0xe0, calldataload(0x00))\n      dup1\n      0x71827b7b\n      gt\n      tag_25\n      jumpi\n      dup1\n      0xba946d79\n      gt\n      tag_26\n      jumpi\n      dup1\n      0xba946d79\n      eq\n      tag_19\n      jumpi\n      dup1\n      0xc6944fa0\n      eq\n      tag_20\n      jumpi\n      dup1\n      0xdd64e534\n      eq\n      tag_21\n      jumpi\n      dup1\n      0xea3a1499\n      eq\n      tag_22\n      jumpi\n      dup1\n      0xf2613269\n      eq\n      tag_23\n      jumpi\n      dup1\n      0xfe188184\n      eq\n      tag_24\n      jumpi\n      jump(tag_1)\n    tag_26:\n      dup1\n      0x71827b7b\n      eq\n      tag_13\n      jumpi\n      dup1\n      0x91d8b14e\n      eq\n      tag_14\n      jumpi\n      dup1\n      0x93a563b5\n      eq\n      tag_15\n      jumpi\n      dup1\n      0x96c85ef3\n      eq\n      tag_16\n      jumpi\n      dup1\n      0x9b894703\n      eq\n      tag_17\n      jumpi\n      dup1\n      0xa88f4672\n      eq\n      tag_18\n      jumpi\n      jump(tag_1)\n    tag_25:\n      dup1\n      0x4665096d\n      gt\n      tag_27\n      jumpi\n      dup1\n      0x4665096d\n      eq\n      tag_7\n      jumpi\n      dup1\n      0x4788af7c\n      eq\n      tag_8\n      jumpi\n      dup1\n      0x4ed02622\n      eq\n      tag_9\n      jumpi\n      dup1\n      0x50b44712\n      eq\n      tag_10\n      jumpi\n      dup1\n      0x5a58acdd\n      eq\n      tag_11\n      jumpi\n      dup1\n      0x6032a4f9\n      eq\n      tag_12\n      jumpi\n      jump(tag_1)\n    tag_27:\n      dup1\n      0x06f7f3bf\n      eq\n      tag_2\n      jumpi\n      dup1\n      0x0789c607\n      eq\n      tag_3\n      jumpi\n      dup1\n      0x0fb5a6b4\n      eq\n      tag_4\n      jumpi\n      dup1\n      0x1209b1f6\n      eq\n      tag_5\n      jumpi\n      dup1\n      0x35580df2\n      eq\n      tag_6\n      jumpi\n    tag_1:\n      0x00\n      dup1\n      revert\n        /* \"contracts/Lottery.sol\":750:781  uint256 public lastWinnerAmount */\n    tag_2:\n      callvalue\n      dup1\n      iszero\n      tag_28\n      jumpi\n      0x00\n      dup1\n      revert\n    tag_28:\n      pop\n      tag_29\n      tag_30\n      jump\t// in\n    tag_29:\n      mload(0x40)\n      tag_31\n      swap2\n      swap1\n      tag_32\n      jump\t// in\n    tag_31:\n      mload(0x40)\n      dup1\n      swap2\n      sub\n      swap1\n      return\n        /* \"contracts/Lottery.sol\":3223:3431  function checkWinningsAmount() public view returns (uint256) {... */\n    tag_3:\n      callvalue\n      dup1\n      iszero\n      tag_33\n      jumpi\n      0x00\n      dup1\n      revert\n    tag_33:\n      pop\n      tag_34\n      tag_35\n      jump\t// in\n    tag_34:\n      mload(0x40)\n      tag_36\n      swap2\n      swap1\n      tag_32\n      jump\t// in\n    tag_36:\n      mload(0x40)\n      dup1\n      swap2\n      sub\n      swap1\n      return\n        /* \"contracts/Lottery.sol\":363:408  uint256 public constant duration = 30 minutes */\n    tag_4:\n      callvalue\n      dup1\n      iszero\n      tag_37\n      jumpi\n      0x00\n      dup1\n      revert\n    tag_37:\n      pop\n      tag_38\n      tag_39\n      jump\t// in\n    tag_38:\n      mload(0x40)\n      tag_40\n      swap2\n      swap1\n      tag_32\n      jump\t// in\n    tag_40:\n      mload(0x40)\n      dup1\n      swap2\n      sub\n      swap1\n      return\n        /* \"contracts/Lottery.sol\":148:196  uint256 public constant ticketPrice = 0.01 ether */\n    tag_5:\n      callvalue\n      dup1\n      iszero\n      tag_41\n      jumpi\n      0x00\n      dup1\n      revert\n    tag_41:\n      pop\n      tag_42\n      tag_43\n      jump\t// in\n    tag_42:\n      mload(0x40)\n      tag_44\n      swap2\n      swap1\n      tag_32\n      jump\t// in\n    tag_44:\n      mload(0x40)\n      dup1\n      swap2\n      sub\n      swap1\n      return\n        /* \"contracts/Lottery.sol\":4013:4274  function WithdrawCommission() public isOperator {... */\n    tag_6:\n      callvalue\n      dup1\n      iszero\n      tag_45\n      jumpi\n      0x00\n      dup1\n      revert\n    tag_45:\n      pop\n      tag_46\n      tag_47\n      jump\t// in\n    tag_46:\n      stop\n        /* \"contracts/Lottery.sol\":451:476  uint256 public expiration */\n    tag_7:\n      callvalue\n      dup1\n      iszero\n      tag_48\n      jumpi\n      0x00\n      dup1\n      revert\n    tag_48:\n      pop\n      tag_49\n      tag_50\n      jump\t// in\n    tag_49:\n      mload(0x40)\n      tag_51\n      swap2\n      swap1\n      tag_32\n      jump\t// in\n    tag_51:\n      mload(0x40)\n      dup1\n      swap2\n      sub\n      swap1\n      return\n        /* \"contracts/Lottery.sol\":2287:3009  function DrawWinnerTicket() public isOperator {... */\n    tag_8:\n      callvalue\n      dup1\n      iszero\n      tag_52\n      jumpi\n      0x00\n      dup1\n      revert\n    tag_52:\n      pop\n      tag_53\n      tag_54\n      jump\t// in\n    tag_53:\n      stop\n        /* \"contracts/Lottery.sol\":1493:1585  function getTickets() public view returns (address[] memory) {... */\n    tag_9:\n      callvalue\n      dup1\n      iszero\n      tag_55\n      jumpi\n      0x00\n      dup1\n      revert\n    tag_55:\n      pop\n      tag_56\n      tag_57\n      jump\t// in\n    tag_56:\n      mload(0x40)\n      tag_58\n      swap2\n      swap1\n      tag_59\n      jump\t// in\n    tag_58:\n      mload(0x40)\n      dup1\n      swap2\n      sub\n      swap1\n      return\n        /* \"contracts/Lottery.sol\":916:940  address[] public tickets */\n    tag_10:\n      callvalue\n      dup1\n      iszero\n      tag_60\n      jumpi\n      0x00\n      dup1\n      revert\n    tag_60:\n      pop\n      tag_61\n      0x04\n      dup1\n      calldatasize\n      sub\n      dup2\n      add\n      swap1\n      tag_62\n      swap2\n      swap1\n      tag_63\n      jump\t// in\n    tag_62:\n      tag_64\n      jump\t// in\n    tag_61:\n      mload(0x40)\n      tag_65\n      swap2\n      swap1\n      tag_66\n      jump\t// in\n    tag_65:\n      mload(0x40)\n      dup1\n      swap2\n      sub\n      swap1\n      return\n        /* \"contracts/Lottery.sol\":539:569  address public lotteryOperator */\n    tag_11:\n      callvalue\n      dup1\n      iszero\n      tag_67\n      jumpi\n      0x00\n      dup1\n      revert\n    tag_67:\n      pop\n      tag_68\n      tag_69\n      jump\t// in\n    tag_68:\n      mload(0x40)\n      tag_70\n      swap2\n      swap1\n      tag_66\n      jump\t// in\n    tag_70:\n      mload(0x40)\n      dup1\n      swap2\n      sub\n      swap1\n      return\n        /* \"contracts/Lottery.sol\":279:333  uint256 public constant ticketCommission = 0.001 ether */\n    tag_12:\n      callvalue\n      dup1\n      iszero\n      tag_71\n      jumpi\n      0x00\n      dup1\n      revert\n    tag_71:\n      pop\n      tag_72\n      tag_73\n      jump\t// in\n    tag_72:\n      mload(0x40)\n      tag_74\n      swap2\n      swap1\n      tag_32\n      jump\t// in\n    tag_74:\n      mload(0x40)\n      dup1\n      swap2\n      sub\n      swap1\n      return\n        /* \"contracts/Lottery.sol\":3437:3668  function WithdrawWinnings() public isWinner {... */\n    tag_13:\n      callvalue\n      dup1\n      iszero\n      tag_75\n      jumpi\n      0x00\n      dup1\n      revert\n    tag_75:\n      pop\n      tag_76\n      tag_77\n      jump\t// in\n    tag_76:\n      stop\n        /* \"contracts/Lottery.sol\":1710:2281  function BuyTickets() public payable {... */\n    tag_14:\n      tag_78\n      tag_79\n      jump\t// in\n    tag_78:\n      stop\n        /* \"contracts/Lottery.sol\":4501:4610  function RemainingTickets() public view returns (uint256) {... */\n    tag_15:\n      callvalue\n      dup1\n      iszero\n      tag_80\n      jumpi\n      0x00\n      dup1\n      revert\n    tag_80:\n      pop\n      tag_81\n      tag_82\n      jump\t// in\n    tag_81:\n      mload(0x40)\n      tag_83\n      swap2\n      swap1\n      tag_32\n      jump\t// in\n    tag_83:\n      mload(0x40)\n      dup1\n      swap2\n      sub\n      swap1\n      return\n        /* \"contracts/Lottery.sol\":4280:4375  function IsWinner() public view returns (bool) {... */\n    tag_16:\n      callvalue\n      dup1\n      iszero\n      tag_84\n      jumpi\n      0x00\n      dup1\n      revert\n    tag_84:\n      pop\n      tag_85\n      tag_86\n      jump\t// in\n    tag_85:\n      mload(0x40)\n      tag_87\n      swap2\n      swap1\n      tag_88\n      jump\t// in\n    tag_87:\n      mload(0x40)\n      dup1\n      swap2\n      sub\n      swap1\n      return\n        /* \"contracts/Lottery.sol\":202:242  uint256 public constant maxTickets = 100 */\n    tag_17:\n      callvalue\n      dup1\n      iszero\n      tag_89\n      jumpi\n      0x00\n      dup1\n      revert\n    tag_89:\n      pop\n      tag_90\n      tag_91\n      jump\t// in\n    tag_90:\n      mload(0x40)\n      tag_92\n      swap2\n      swap1\n      tag_32\n      jump\t// in\n    tag_92:\n      mload(0x40)\n      dup1\n      swap2\n      sub\n      swap1\n      return\n        /* \"contracts/Lottery.sol\":3674:4007  function RefundAll() public {... */\n    tag_18:\n      callvalue\n      dup1\n      iszero\n      tag_93\n      jumpi\n      0x00\n      dup1\n      revert\n    tag_93:\n      pop\n      tag_94\n      tag_95\n      jump\t// in\n    tag_94:\n      stop\n        /* \"contracts/Lottery.sol\":605:647  uint256 public operatorTotalCommission = 0 */\n    tag_19:\n      callvalue\n      dup1\n      iszero\n      tag_96\n      jumpi\n      0x00\n      dup1\n      revert\n    tag_96:\n      pop\n      tag_97\n      tag_98\n      jump\t// in\n    tag_97:\n      mload(0x40)\n      tag_99\n      swap2\n      swap1\n      tag_32\n      jump\t// in\n    tag_99:\n      mload(0x40)\n      dup1\n      swap2\n      sub\n      swap1\n      return\n        /* \"contracts/Lottery.sol\":4381:4495  function CurrentWinningReward() public view returns (uint256) {... */\n    tag_20:\n      callvalue\n      dup1\n      iszero\n      tag_100\n      jumpi\n      0x00\n      dup1\n      revert\n    tag_100:\n      pop\n      tag_101\n      tag_102\n      jump\t// in\n    tag_101:\n      mload(0x40)\n      tag_103\n      swap2\n      swap1\n      tag_32\n      jump\t// in\n    tag_103:\n      mload(0x40)\n      dup1\n      swap2\n      sub\n      swap1\n      return\n        /* \"contracts/Lottery.sol\":1591:1704  function getWinningsForAddress(address addr) public view returns (uint256) {... */\n    tag_21:\n      callvalue\n      dup1\n      iszero\n      tag_104\n      jumpi\n      0x00\n      dup1\n      revert\n    tag_104:\n      pop\n      tag_105\n      0x04\n      dup1\n      calldatasize\n      sub\n      dup2\n      add\n      swap1\n      tag_106\n      swap2\n      swap1\n      tag_107\n      jump\t// in\n    tag_106:\n      tag_108\n      jump\t// in\n    tag_105:\n      mload(0x40)\n      tag_109\n      swap2\n      swap1\n      tag_32\n      jump\t// in\n    tag_109:\n      mload(0x40)\n      dup1\n      swap2\n      sub\n      swap1\n      return\n        /* \"contracts/Lottery.sol\":829:872  mapping(address => uint256) public winnings */\n    tag_22:\n      callvalue\n      dup1\n      iszero\n      tag_110\n      jumpi\n      0x00\n      dup1\n      revert\n    tag_110:\n      pop\n      tag_111\n      0x04\n      dup1\n      calldatasize\n      sub\n      dup2\n      add\n      swap1\n      tag_112\n      swap2\n      swap1\n      tag_107\n      jump\t// in\n    tag_112:\n      tag_113\n      jump\t// in\n    tag_111:\n      mload(0x40)\n      tag_114\n      swap2\n      swap1\n      tag_32\n      jump\t// in\n    tag_114:\n      mload(0x40)\n      dup1\n      swap2\n      sub\n      swap1\n      return\n        /* \"contracts/Lottery.sol\":3015:3217  function restartDraw() public isOperator {... */\n    tag_23:\n      callvalue\n      dup1\n      iszero\n      tag_115\n      jumpi\n      0x00\n      dup1\n      revert\n    tag_115:\n      pop\n      tag_116\n      tag_117\n      jump\t// in\n    tag_116:\n      stop\n        /* \"contracts/Lottery.sol\":685:710  address public lastWinner */\n    tag_24:\n      callvalue\n      dup1\n      iszero\n      tag_118\n      jumpi\n      0x00\n      dup1\n      revert\n    tag_118:\n      pop\n      tag_119\n      tag_120\n      jump\t// in\n    tag_119:\n      mload(0x40)\n      tag_121\n      swap2\n      swap1\n      tag_66\n      jump\t// in\n    tag_121:\n      mload(0x40)\n      dup1\n      swap2\n      sub\n      swap1\n      return\n        /* \"contracts/Lottery.sol\":750:781  uint256 public lastWinnerAmount */\n    tag_30:\n      sload(0x04)\n      dup2\n      jump\t// out\n        /* \"contracts/Lottery.sol\":3223:3431  function checkWinningsAmount() public view returns (uint256) {... */\n    tag_35:\n        /* \"contracts/Lottery.sol\":3275:3282  uint256 */\n      0x00\n        /* \"contracts/Lottery.sol\":3294:3316  address payable winner */\n      dup1\n        /* \"contracts/Lottery.sol\":3327:3337  msg.sender */\n      caller\n        /* \"contracts/Lottery.sol\":3294:3338  address payable winner = payable(msg.sender) */\n      swap1\n      pop\n        /* \"contracts/Lottery.sol\":3349:3372  uint256 reward2Transfer */\n      0x00\n        /* \"contracts/Lottery.sol\":3375:3383  winnings */\n      0x05\n        /* \"contracts/Lottery.sol\":3375:3391  winnings[winner] */\n      0x00\n        /* \"contracts/Lottery.sol\":3384:3390  winner */\n      dup4\n        /* \"contracts/Lottery.sol\":3375:3391  winnings[winner] */\n      0xffffffffffffffffffffffffffffffffffffffff\n      and\n      0xffffffffffffffffffffffffffffffffffffffff\n      and\n      dup2\n      mstore\n      0x20\n      add\n      swap1\n      dup2\n      mstore\n      0x20\n      add\n      0x00\n      keccak256\n      sload\n        /* \"contracts/Lottery.sol\":3349:3391  uint256 reward2Transfer = winnings[winner] */\n      swap1\n      pop\n        /* \"contracts/Lottery.sol\":3409:3424  reward2Transfer */\n      dup1\n        /* \"contracts/Lottery.sol\":3402:3424  return reward2Transfer */\n      swap3\n      pop\n      pop\n      pop\n        /* \"contracts/Lottery.sol\":3223:3431  function checkWinningsAmount() public view returns (uint256) {... */\n      swap1\n      jump\t// out\n        /* \"contracts/Lottery.sol\":363:408  uint256 public constant duration = 30 minutes */\n    tag_39:\n        /* \"contracts/Lottery.sol\":398:408  30 minutes */\n      0x0708\n        /* \"contracts/Lottery.sol\":363:408  uint256 public constant duration = 30 minutes */\n      dup2\n      jump\t// out\n        /* \"contracts/Lottery.sol\":148:196  uint256 public constant ticketPrice = 0.01 ether */\n    tag_43:\n        /* \"contracts/Lottery.sol\":186:196  0.01 ether */\n      0x2386f26fc10000\n        /* \"contracts/Lottery.sol\":148:196  uint256 public constant ticketPrice = 0.01 ether */\n      dup2\n      jump\t// out\n        /* \"contracts/Lottery.sol\":4013:4274  function WithdrawCommission() public isOperator {... */\n    tag_47:\n        /* \"contracts/Lottery.sol\":1103:1118  lotteryOperator */\n      0x01\n      0x00\n      swap1\n      sload\n      swap1\n      0x0100\n      exp\n      swap1\n      div\n      0xffffffffffffffffffffffffffffffffffffffff\n      and\n        /* \"contracts/Lottery.sol\":1089:1118  msg.sender == lotteryOperator */\n      0xffffffffffffffffffffffffffffffffffffffff\n      and\n        /* \"contracts/Lottery.sol\":1089:1099  msg.sender */\n      caller\n        /* \"contracts/Lottery.sol\":1089:1118  msg.sender == lotteryOperator */\n      0xffffffffffffffffffffffffffffffffffffffff\n      and\n      eq\n        /* \"contracts/Lottery.sol\":1067:1179  require(... */\n      tag_124\n      jumpi\n      mload(0x40)\n      0x08c379a000000000000000000000000000000000000000000000000000000000\n      dup2\n      mstore\n      0x04\n      add\n      tag_125\n      swap1\n      tag_126\n      jump\t// in\n    tag_125:\n      mload(0x40)\n      dup1\n      swap2\n      sub\n      swap1\n      revert\n    tag_124:\n        /* \"contracts/Lottery.sol\":4071:4095  address payable operator */\n      0x00\n        /* \"contracts/Lottery.sol\":4106:4116  msg.sender */\n      caller\n        /* \"contracts/Lottery.sol\":4071:4117  address payable operator = payable(msg.sender) */\n      swap1\n      pop\n        /* \"contracts/Lottery.sol\":4128:4155  uint256 commission2Transfer */\n      0x00\n        /* \"contracts/Lottery.sol\":4158:4181  operatorTotalCommission */\n      sload(0x02)\n        /* \"contracts/Lottery.sol\":4128:4181  uint256 commission2Transfer = operatorTotalCommission */\n      swap1\n      pop\n        /* \"contracts/Lottery.sol\":4217:4218  0 */\n      0x00\n        /* \"contracts/Lottery.sol\":4191:4214  operatorTotalCommission */\n      0x02\n        /* \"contracts/Lottery.sol\":4191:4218  operatorTotalCommission = 0 */\n      dup2\n      swap1\n      sstore\n      pop\n        /* \"contracts/Lottery.sol\":4229:4237  operator */\n      dup2\n        /* \"contracts/Lottery.sol\":4229:4246  operator.transfer */\n      0xffffffffffffffffffffffffffffffffffffffff\n      and\n        /* \"contracts/Lottery.sol\":4229:4267  operator.transfer(commission2Transfer) */\n      0x08fc\n        /* \"contracts/Lottery.sol\":4247:4266  commission2Transfer */\n      dup3\n        /* \"contracts/Lottery.sol\":4229:4267  operator.transfer(commission2Transfer) */\n      swap1\n      dup2\n      iszero\n      mul\n      swap1\n      mload(0x40)\n      0x00\n      mload(0x40)\n      dup1\n      dup4\n      sub\n      dup2\n      dup6\n      dup9\n      dup9\n      call\n      swap4\n      pop\n      pop\n      pop\n      pop\n      iszero\n      dup1\n      iszero\n      tag_129\n      jumpi\n      returndatasize\n      0x00\n      dup1\n      returndatacopy\n      revert(0x00, returndatasize)\n    tag_129:\n      pop\n        /* \"contracts/Lottery.sol\":4061:4274  {... */\n      pop\n      pop\n        /* \"contracts/Lottery.sol\":4013:4274  function WithdrawCommission() public isOperator {... */\n      jump\t// out\n        /* \"contracts/Lottery.sol\":451:476  uint256 public expiration */\n    tag_50:\n      sload(0x00)\n      dup2\n      jump\t// out\n        /* \"contracts/Lottery.sol\":2287:3009  function DrawWinnerTicket() public isOperator {... */\n    tag_54:\n        /* \"contracts/Lottery.sol\":1103:1118  lotteryOperator */\n      0x01\n      0x00\n      swap1\n      sload\n      swap1\n      0x0100\n      exp\n      swap1\n      div\n      0xffffffffffffffffffffffffffffffffffffffff\n      and\n        /* \"contracts/Lottery.sol\":1089:1118  msg.sender == lotteryOperator */\n      0xffffffffffffffffffffffffffffffffffffffff\n      and\n        /* \"contracts/Lottery.sol\":1089:1099  msg.sender */\n      caller\n        /* \"contracts/Lottery.sol\":1089:1118  msg.sender == lotteryOperator */\n      0xffffffffffffffffffffffffffffffffffffffff\n      and\n      eq\n        /* \"contracts/Lottery.sol\":1067:1179  require(... */\n      tag_131\n      jumpi\n      mload(0x40)\n      0x08c379a000000000000000000000000000000000000000000000000000000000\n      dup2\n      mstore\n      0x04\n      add\n      tag_132\n      swap1\n      tag_126\n      jump\t// in\n    tag_132:\n      mload(0x40)\n      dup1\n      swap2\n      sub\n      swap1\n      revert\n    tag_131:\n        /* \"contracts/Lottery.sol\":2368:2369  0 */\n      0x00\n        /* \"contracts/Lottery.sol\":2351:2358  tickets */\n      0x06\n        /* \"contracts/Lottery.sol\":2351:2365  tickets.length */\n      dup1\n      sload\n      swap1\n      pop\n        /* \"contracts/Lottery.sol\":2351:2369  tickets.length > 0 */\n      gt\n        /* \"contracts/Lottery.sol\":2343:2399  require(tickets.length > 0, \"No tickets were purchased\") */\n      tag_134\n      jumpi\n      mload(0x40)\n      0x08c379a000000000000000000000000000000000000000000000000000000000\n      dup2\n      mstore\n      0x04\n      add\n      tag_135\n      swap1\n      tag_136\n      jump\t// in\n    tag_135:\n      mload(0x40)\n      dup1\n      swap2\n      sub\n      swap1\n      revert\n    tag_134:\n        /* \"contracts/Lottery.sol\":2410:2427  bytes32 blockHash */\n      0x00\n        /* \"contracts/Lottery.sol\":2455:2462  tickets */\n      0x06\n        /* \"contracts/Lottery.sol\":2455:2469  tickets.length */\n      dup1\n      sload\n      swap1\n      pop\n        /* \"contracts/Lottery.sol\":2440:2452  block.number */\n      number\n        /* \"contracts/Lottery.sol\":2440:2469  block.number - tickets.length */\n      tag_137\n      swap2\n      swap1\n      tag_138\n      jump\t// in\n    tag_137:\n        /* \"contracts/Lottery.sol\":2430:2470  blockhash(block.number - tickets.length) */\n      blockhash\n        /* \"contracts/Lottery.sol\":2410:2470  bytes32 blockHash = blockhash(block.number - tickets.length) */\n      swap1\n      pop\n        /* \"contracts/Lottery.sol\":2480:2500  uint256 randomNumber */\n      0x00\n        /* \"contracts/Lottery.sol\":2551:2566  block.timestamp */\n      timestamp\n        /* \"contracts/Lottery.sol\":2568:2577  blockHash */\n      dup3\n        /* \"contracts/Lottery.sol\":2534:2578  abi.encodePacked(block.timestamp, blockHash) */\n      add(0x20, mload(0x40))\n      tag_139\n      swap3\n      swap2\n      swap1\n      tag_140\n      jump\t// in\n    tag_139:\n      mload(0x40)\n      0x20\n      dup2\n      dup4\n      sub\n      sub\n      dup2\n      mstore\n      swap1\n      0x40\n      mstore\n        /* \"contracts/Lottery.sol\":2524:2579  keccak256(abi.encodePacked(block.timestamp, blockHash)) */\n      dup1\n      mload\n      swap1\n      0x20\n      add\n      keccak256\n        /* \"contracts/Lottery.sol\":2503:2589  uint256(... */\n      0x00\n      shr\n        /* \"contracts/Lottery.sol\":2480:2589  uint256 randomNumber = uint256(... */\n      swap1\n      pop\n        /* \"contracts/Lottery.sol\":2599:2620  uint256 winningTicket */\n      0x00\n        /* \"contracts/Lottery.sol\":2638:2645  tickets */\n      0x06\n        /* \"contracts/Lottery.sol\":2638:2652  tickets.length */\n      dup1\n      sload\n      swap1\n      pop\n        /* \"contracts/Lottery.sol\":2623:2635  randomNumber */\n      dup3\n        /* \"contracts/Lottery.sol\":2623:2652  randomNumber % tickets.length */\n      tag_141\n      swap2\n      swap1\n      tag_142\n      jump\t// in\n    tag_141:\n        /* \"contracts/Lottery.sol\":2599:2652  uint256 winningTicket = randomNumber % tickets.length */\n      swap1\n      pop\n        /* \"contracts/Lottery.sol\":2663:2677  address winner */\n      0x00\n        /* \"contracts/Lottery.sol\":2680:2687  tickets */\n      0x06\n        /* \"contracts/Lottery.sol\":2688:2701  winningTicket */\n      dup3\n        /* \"contracts/Lottery.sol\":2680:2702  tickets[winningTicket] */\n      dup2\n      sload\n      dup2\n      lt\n      tag_143\n      jumpi\n      tag_144\n      tag_145\n      jump\t// in\n    tag_144:\n    tag_143:\n      swap1\n      0x00\n      mstore\n      keccak256(0x00, 0x20)\n      add\n      0x00\n      swap1\n      sload\n      swap1\n      0x0100\n      exp\n      swap1\n      div\n      0xffffffffffffffffffffffffffffffffffffffff\n      and\n        /* \"contracts/Lottery.sol\":2663:2702  address winner = tickets[winningTicket] */\n      swap1\n      pop\n        /* \"contracts/Lottery.sol\":2725:2731  winner */\n      dup1\n        /* \"contracts/Lottery.sol\":2712:2722  lastWinner */\n      0x03\n      0x00\n        /* \"contracts/Lottery.sol\":2712:2731  lastWinner = winner */\n      0x0100\n      exp\n      dup2\n      sload\n      dup2\n      0xffffffffffffffffffffffffffffffffffffffff\n      mul\n      not\n      and\n      swap1\n      dup4\n      0xffffffffffffffffffffffffffffffffffffffff\n      and\n      mul\n      or\n      swap1\n      sstore\n      pop\n        /* \"contracts/Lottery.sol\":322:333  0.001 ether */\n      0x038d7ea4c68000\n        /* \"contracts/Lottery.sol\":186:196  0.01 ether */\n      0x2386f26fc10000\n        /* \"contracts/Lottery.sol\":2780:2810  ticketPrice - ticketCommission */\n      tag_147\n      swap2\n      swap1\n      tag_138\n      jump\t// in\n    tag_147:\n        /* \"contracts/Lottery.sol\":2762:2769  tickets */\n      0x06\n        /* \"contracts/Lottery.sol\":2762:2776  tickets.length */\n      dup1\n      sload\n      swap1\n      pop\n        /* \"contracts/Lottery.sol\":2762:2811  tickets.length * (ticketPrice - ticketCommission) */\n      tag_148\n      swap2\n      swap1\n      tag_149\n      jump\t// in\n    tag_148:\n        /* \"contracts/Lottery.sol\":2741:2749  winnings */\n      0x05\n        /* \"contracts/Lottery.sol\":2741:2757  winnings[winner] */\n      0x00\n        /* \"contracts/Lottery.sol\":2750:2756  winner */\n      dup4\n        /* \"contracts/Lottery.sol\":2741:2757  winnings[winner] */\n      0xffffffffffffffffffffffffffffffffffffffff\n      and\n      0xffffffffffffffffffffffffffffffffffffffff\n      and\n      dup2\n      mstore\n      0x20\n      add\n      swap1\n      dup2\n      mstore\n      0x20\n      add\n      0x00\n      keccak256\n      0x00\n        /* \"contracts/Lottery.sol\":2741:2812  winnings[winner] += (tickets.length * (ticketPrice - ticketCommission)) */\n      dup3\n      dup3\n      sload\n      tag_150\n      swap2\n      swap1\n      tag_151\n      jump\t// in\n    tag_150:\n      swap3\n      pop\n      pop\n      dup2\n      swap1\n      sstore\n      pop\n        /* \"contracts/Lottery.sol\":2841:2849  winnings */\n      0x05\n        /* \"contracts/Lottery.sol\":2841:2857  winnings[winner] */\n      0x00\n        /* \"contracts/Lottery.sol\":2850:2856  winner */\n      dup3\n        /* \"contracts/Lottery.sol\":2841:2857  winnings[winner] */\n      0xffffffffffffffffffffffffffffffffffffffff\n      and\n      0xffffffffffffffffffffffffffffffffffffffff\n      and\n      dup2\n      mstore\n      0x20\n      add\n      swap1\n      dup2\n      mstore\n      0x20\n      add\n      0x00\n      keccak256\n      sload\n        /* \"contracts/Lottery.sol\":2822:2838  lastWinnerAmount */\n      0x04\n        /* \"contracts/Lottery.sol\":2822:2857  lastWinnerAmount = winnings[winner] */\n      dup2\n      swap1\n      sstore\n      pop\n        /* \"contracts/Lottery.sol\":322:333  0.001 ether */\n      0x038d7ea4c68000\n        /* \"contracts/Lottery.sol\":2895:2902  tickets */\n      0x06\n        /* \"contracts/Lottery.sol\":2895:2909  tickets.length */\n      dup1\n      sload\n      swap1\n      pop\n        /* \"contracts/Lottery.sol\":2895:2928  tickets.length * ticketCommission */\n      tag_152\n      swap2\n      swap1\n      tag_149\n      jump\t// in\n    tag_152:\n        /* \"contracts/Lottery.sol\":2867:2890  operatorTotalCommission */\n      0x02\n      0x00\n        /* \"contracts/Lottery.sol\":2867:2929  operatorTotalCommission += (tickets.length * ticketCommission) */\n      dup3\n      dup3\n      sload\n      tag_153\n      swap2\n      swap1\n      tag_151\n      jump\t// in\n    tag_153:\n      swap3\n      pop\n      pop\n      dup2\n      swap1\n      sstore\n      pop\n        /* \"contracts/Lottery.sol\":2946:2953  tickets */\n      0x06\n      0x00\n        /* \"contracts/Lottery.sol\":2939:2953  delete tickets */\n      tag_154\n      swap2\n      swap1\n      tag_155\n      jump\t// in\n    tag_154:\n        /* \"contracts/Lottery.sol\":398:408  30 minutes */\n      0x0708\n        /* \"contracts/Lottery.sol\":2976:2991  block.timestamp */\n      timestamp\n        /* \"contracts/Lottery.sol\":2976:3002  block.timestamp + duration */\n      tag_156\n      swap2\n      swap1\n      tag_151\n      jump\t// in\n    tag_156:\n        /* \"contracts/Lottery.sol\":2963:2973  expiration */\n      0x00\n        /* \"contracts/Lottery.sol\":2963:3002  expiration = block.timestamp + duration */\n      dup2\n      swap1\n      sstore\n      pop\n        /* \"contracts/Lottery.sol\":2333:3009  {... */\n      pop\n      pop\n      pop\n      pop\n        /* \"contracts/Lottery.sol\":2287:3009  function DrawWinnerTicket() public isOperator {... */\n      jump\t// out\n        /* \"contracts/Lottery.sol\":1493:1585  function getTickets() public view returns (address[] memory) {... */\n    tag_57:\n        /* \"contracts/Lottery.sol\":1536:1552  address[] memory */\n      0x60\n        /* \"contracts/Lottery.sol\":1571:1578  tickets */\n      0x06\n        /* \"contracts/Lottery.sol\":1564:1578  return tickets */\n      dup1\n      sload\n      dup1\n      0x20\n      mul\n      0x20\n      add\n      mload(0x40)\n      swap1\n      dup2\n      add\n      0x40\n      mstore\n      dup1\n      swap3\n      swap2\n      swap1\n      dup2\n      dup2\n      mstore\n      0x20\n      add\n      dup3\n      dup1\n      sload\n      dup1\n      iszero\n      tag_158\n      jumpi\n      0x20\n      mul\n      dup3\n      add\n      swap2\n      swap1\n      0x00\n      mstore\n      keccak256(0x00, 0x20)\n      swap1\n    tag_159:\n      dup2\n      0x00\n      swap1\n      sload\n      swap1\n      0x0100\n      exp\n      swap1\n      div\n      0xffffffffffffffffffffffffffffffffffffffff\n      and\n      0xffffffffffffffffffffffffffffffffffffffff\n      and\n      dup2\n      mstore\n      0x20\n      add\n      swap1\n      0x01\n      add\n      swap1\n      dup1\n      dup4\n      gt\n      tag_159\n      jumpi\n    tag_158:\n      pop\n      pop\n      pop\n      pop\n      pop\n      swap1\n      pop\n        /* \"contracts/Lottery.sol\":1493:1585  function getTickets() public view returns (address[] memory) {... */\n      swap1\n      jump\t// out\n        /* \"contracts/Lottery.sol\":916:940  address[] public tickets */\n    tag_64:\n      0x06\n      dup2\n      dup2\n      sload\n      dup2\n      lt\n      tag_160\n      jumpi\n      0x00\n      dup1\n      revert\n    tag_160:\n      swap1\n      0x00\n      mstore\n      keccak256(0x00, 0x20)\n      add\n      0x00\n      swap2\n      pop\n      sload\n      swap1\n      0x0100\n      exp\n      swap1\n      div\n      0xffffffffffffffffffffffffffffffffffffffff\n      and\n      dup2\n      jump\t// out\n        /* \"contracts/Lottery.sol\":539:569  address public lotteryOperator */\n    tag_69:\n      0x01\n      0x00\n      swap1\n      sload\n      swap1\n      0x0100\n      exp\n      swap1\n      div\n      0xffffffffffffffffffffffffffffffffffffffff\n      and\n      dup2\n      jump\t// out\n        /* \"contracts/Lottery.sol\":279:333  uint256 public constant ticketCommission = 0.001 ether */\n    tag_73:\n        /* \"contracts/Lottery.sol\":322:333  0.001 ether */\n      0x038d7ea4c68000\n        /* \"contracts/Lottery.sol\":279:333  uint256 public constant ticketCommission = 0.001 ether */\n      dup2\n      jump\t// out\n        /* \"contracts/Lottery.sol\":3437:3668  function WithdrawWinnings() public isWinner {... */\n    tag_77:\n        /* \"contracts/Lottery.sol\":1288:1298  IsWinner() */\n      tag_163\n        /* \"contracts/Lottery.sol\":1288:1296  IsWinner */\n      tag_86\n        /* \"contracts/Lottery.sol\":1288:1298  IsWinner() */\n      jump\t// in\n    tag_163:\n        /* \"contracts/Lottery.sol\":1280:1325  require(IsWinner(), \"Caller is not a winner\") */\n      tag_164\n      jumpi\n      mload(0x40)\n      0x08c379a000000000000000000000000000000000000000000000000000000000\n      dup2\n      mstore\n      0x04\n      add\n      tag_165\n      swap1\n      tag_166\n      jump\t// in\n    tag_165:\n      mload(0x40)\n      dup1\n      swap2\n      sub\n      swap1\n      revert\n    tag_164:\n        /* \"contracts/Lottery.sol\":3491:3513  address payable winner */\n      0x00\n        /* \"contracts/Lottery.sol\":3524:3534  msg.sender */\n      caller\n        /* \"contracts/Lottery.sol\":3491:3535  address payable winner = payable(msg.sender) */\n      swap1\n      pop\n        /* \"contracts/Lottery.sol\":3546:3569  uint256 reward2Transfer */\n      0x00\n        /* \"contracts/Lottery.sol\":3572:3580  winnings */\n      0x05\n        /* \"contracts/Lottery.sol\":3572:3588  winnings[winner] */\n      0x00\n        /* \"contracts/Lottery.sol\":3581:3587  winner */\n      dup4\n        /* \"contracts/Lottery.sol\":3572:3588  winnings[winner] */\n      0xffffffffffffffffffffffffffffffffffffffff\n      and\n      0xffffffffffffffffffffffffffffffffffffffff\n      and\n      dup2\n      mstore\n      0x20\n      add\n      swap1\n      dup2\n      mstore\n      0x20\n      add\n      0x00\n      keccak256\n      sload\n        /* \"contracts/Lottery.sol\":3546:3588  uint256 reward2Transfer = winnings[winner] */\n      swap1\n      pop\n        /* \"contracts/Lottery.sol\":3617:3618  0 */\n      0x00\n        /* \"contracts/Lottery.sol\":3598:3606  winnings */\n      0x05\n        /* \"contracts/Lottery.sol\":3598:3614  winnings[winner] */\n      0x00\n        /* \"contracts/Lottery.sol\":3607:3613  winner */\n      dup5\n        /* \"contracts/Lottery.sol\":3598:3614  winnings[winner] */\n      0xffffffffffffffffffffffffffffffffffffffff\n      and\n      0xffffffffffffffffffffffffffffffffffffffff\n      and\n      dup2\n      mstore\n      0x20\n      add\n      swap1\n      dup2\n      mstore\n      0x20\n      add\n      0x00\n      keccak256\n        /* \"contracts/Lottery.sol\":3598:3618  winnings[winner] = 0 */\n      dup2\n      swap1\n      sstore\n      pop\n        /* \"contracts/Lottery.sol\":3629:3635  winner */\n      dup2\n        /* \"contracts/Lottery.sol\":3629:3644  winner.transfer */\n      0xffffffffffffffffffffffffffffffffffffffff\n      and\n        /* \"contracts/Lottery.sol\":3629:3661  winner.transfer(reward2Transfer) */\n      0x08fc\n        /* \"contracts/Lottery.sol\":3645:3660  reward2Transfer */\n      dup3\n        /* \"contracts/Lottery.sol\":3629:3661  winner.transfer(reward2Transfer) */\n      swap1\n      dup2\n      iszero\n      mul\n      swap1\n      mload(0x40)\n      0x00\n      mload(0x40)\n      dup1\n      dup4\n      sub\n      dup2\n      dup6\n      dup9\n      dup9\n      call\n      swap4\n      pop\n      pop\n      pop\n      pop\n      iszero\n      dup1\n      iszero\n      tag_169\n      jumpi\n      returndatasize\n      0x00\n      dup1\n      returndatacopy\n      revert(0x00, returndatasize)\n    tag_169:\n      pop\n        /* \"contracts/Lottery.sol\":3481:3668  {... */\n      pop\n      pop\n        /* \"contracts/Lottery.sol\":3437:3668  function WithdrawWinnings() public isWinner {... */\n      jump\t// out\n        /* \"contracts/Lottery.sol\":1710:2281  function BuyTickets() public payable {... */\n    tag_79:\n        /* \"contracts/Lottery.sol\":1805:1806  0 */\n      0x00\n        /* \"contracts/Lottery.sol\":186:196  0.01 ether */\n      0x2386f26fc10000\n        /* \"contracts/Lottery.sol\":1778:1787  msg.value */\n      callvalue\n        /* \"contracts/Lottery.sol\":1778:1801  msg.value % ticketPrice */\n      tag_171\n      swap2\n      swap1\n      tag_142\n      jump\t// in\n    tag_171:\n        /* \"contracts/Lottery.sol\":1778:1806  msg.value % ticketPrice == 0 */\n      eq\n        /* \"contracts/Lottery.sol\":1901:1930  Strings.toString(ticketPrice) */\n      tag_172\n        /* \"contracts/Lottery.sol\":186:196  0.01 ether */\n      0x2386f26fc10000\n        /* \"contracts/Lottery.sol\":1901:1917  Strings.toString */\n      tag_173\n        /* \"contracts/Lottery.sol\":1901:1930  Strings.toString(ticketPrice) */\n      jump\t// in\n    tag_172:\n        /* \"contracts/Lottery.sol\":1820:1970  string.concat(... */\n      add(0x20, mload(0x40))\n      tag_174\n      swap2\n      swap1\n      tag_175\n      jump\t// in\n    tag_174:\n      mload(0x40)\n      0x20\n      dup2\n      dup4\n      sub\n      sub\n      dup2\n      mstore\n      swap1\n      0x40\n      mstore\n        /* \"contracts/Lottery.sol\":1757:1980  require(... */\n      swap1\n      tag_176\n      jumpi\n      mload(0x40)\n      0x08c379a000000000000000000000000000000000000000000000000000000000\n      dup2\n      mstore\n      0x04\n      add\n      tag_177\n      swap2\n      swap1\n      tag_178\n      jump\t// in\n    tag_177:\n      mload(0x40)\n      dup1\n      swap2\n      sub\n      swap1\n      revert\n    tag_176:\n      pop\n        /* \"contracts/Lottery.sol\":1990:2015  uint256 numOfTicketsToBuy */\n      0x00\n        /* \"contracts/Lottery.sol\":186:196  0.01 ether */\n      0x2386f26fc10000\n        /* \"contracts/Lottery.sol\":2018:2027  msg.value */\n      callvalue\n        /* \"contracts/Lottery.sol\":2018:2041  msg.value / ticketPrice */\n      tag_179\n      swap2\n      swap1\n      tag_180\n      jump\t// in\n    tag_179:\n        /* \"contracts/Lottery.sol\":1990:2041  uint256 numOfTicketsToBuy = msg.value / ticketPrice */\n      swap1\n      pop\n        /* \"contracts/Lottery.sol\":2094:2112  RemainingTickets() */\n      tag_181\n        /* \"contracts/Lottery.sol\":2094:2110  RemainingTickets */\n      tag_82\n        /* \"contracts/Lottery.sol\":2094:2112  RemainingTickets() */\n      jump\t// in\n    tag_181:\n        /* \"contracts/Lottery.sol\":2073:2090  numOfTicketsToBuy */\n      dup2\n        /* \"contracts/Lottery.sol\":2073:2112  numOfTicketsToBuy <= RemainingTickets() */\n      gt\n      iszero\n        /* \"contracts/Lottery.sol\":2052:2167  require(... */\n      tag_182\n      jumpi\n      mload(0x40)\n      0x08c379a000000000000000000000000000000000000000000000000000000000\n      dup2\n      mstore\n      0x04\n      add\n      tag_183\n      swap1\n      tag_184\n      jump\t// in\n    tag_183:\n      mload(0x40)\n      dup1\n      swap2\n      sub\n      swap1\n      revert\n    tag_182:\n        /* \"contracts/Lottery.sol\":2183:2192  uint256 i */\n      0x00\n        /* \"contracts/Lottery.sol\":2178:2275  for (uint256 i = 0; i < numOfTicketsToBuy; i++) {... */\n    tag_185:\n        /* \"contracts/Lottery.sol\":2202:2219  numOfTicketsToBuy */\n      dup2\n        /* \"contracts/Lottery.sol\":2198:2199  i */\n      dup2\n        /* \"contracts/Lottery.sol\":2198:2219  i < numOfTicketsToBuy */\n      lt\n        /* \"contracts/Lottery.sol\":2178:2275  for (uint256 i = 0; i < numOfTicketsToBuy; i++) {... */\n      iszero\n      tag_186\n      jumpi\n        /* \"contracts/Lottery.sol\":2240:2247  tickets */\n      0x06\n        /* \"contracts/Lottery.sol\":2253:2263  msg.sender */\n      caller\n        /* \"contracts/Lottery.sol\":2240:2264  tickets.push(msg.sender) */\n      swap1\n      dup1\n      0x01\n      dup2\n      sload\n      add\n      dup1\n      dup3\n      sstore\n      dup1\n      swap2\n      pop\n      pop\n      0x01\n      swap1\n      sub\n      swap1\n      0x00\n      mstore\n      keccak256(0x00, 0x20)\n      add\n      0x00\n      swap1\n      swap2\n      swap1\n      swap2\n      swap1\n      swap2\n      0x0100\n      exp\n      dup2\n      sload\n      dup2\n      0xffffffffffffffffffffffffffffffffffffffff\n      mul\n      not\n      and\n      swap1\n      dup4\n      0xffffffffffffffffffffffffffffffffffffffff\n      and\n      mul\n      or\n      swap1\n      sstore\n      pop\n        /* \"contracts/Lottery.sol\":2221:2224  i++ */\n      dup1\n      dup1\n      0x01\n      add\n      swap2\n      pop\n      pop\n        /* \"contracts/Lottery.sol\":2178:2275  for (uint256 i = 0; i < numOfTicketsToBuy; i++) {... */\n      jump(tag_185)\n    tag_186:\n      pop\n        /* \"contracts/Lottery.sol\":1747:2281  {... */\n      pop\n        /* \"contracts/Lottery.sol\":1710:2281  function BuyTickets() public payable {... */\n      jump\t// out\n        /* \"contracts/Lottery.sol\":4501:4610  function RemainingTickets() public view returns (uint256) {... */\n    tag_82:\n        /* \"contracts/Lottery.sol\":4550:4557  uint256 */\n      0x00\n        /* \"contracts/Lottery.sol\":4589:4596  tickets */\n      0x06\n        /* \"contracts/Lottery.sol\":4589:4603  tickets.length */\n      dup1\n      sload\n      swap1\n      pop\n        /* \"contracts/Lottery.sol\":239:242  100 */\n      0x64\n        /* \"contracts/Lottery.sol\":4576:4603  maxTickets - tickets.length */\n      tag_190\n      swap2\n      swap1\n      tag_138\n      jump\t// in\n    tag_190:\n        /* \"contracts/Lottery.sol\":4569:4603  return maxTickets - tickets.length */\n      swap1\n      pop\n        /* \"contracts/Lottery.sol\":4501:4610  function RemainingTickets() public view returns (uint256) {... */\n      swap1\n      jump\t// out\n        /* \"contracts/Lottery.sol\":4280:4375  function IsWinner() public view returns (bool) {... */\n    tag_86:\n        /* \"contracts/Lottery.sol\":4321:4325  bool */\n      0x00\n        /* \"contracts/Lottery.sol\":4367:4368  0 */\n      dup1\n        /* \"contracts/Lottery.sol\":4344:4352  winnings */\n      0x05\n        /* \"contracts/Lottery.sol\":4344:4364  winnings[msg.sender] */\n      0x00\n        /* \"contracts/Lottery.sol\":4353:4363  msg.sender */\n      caller\n        /* \"contracts/Lottery.sol\":4344:4364  winnings[msg.sender] */\n      0xffffffffffffffffffffffffffffffffffffffff\n      and\n      0xffffffffffffffffffffffffffffffffffffffff\n      and\n      dup2\n      mstore\n      0x20\n      add\n      swap1\n      dup2\n      mstore\n      0x20\n      add\n      0x00\n      keccak256\n      sload\n        /* \"contracts/Lottery.sol\":4344:4368  winnings[msg.sender] > 0 */\n      gt\n        /* \"contracts/Lottery.sol\":4337:4368  return winnings[msg.sender] > 0 */\n      swap1\n      pop\n        /* \"contracts/Lottery.sol\":4280:4375  function IsWinner() public view returns (bool) {... */\n      swap1\n      jump\t// out\n        /* \"contracts/Lottery.sol\":202:242  uint256 public constant maxTickets = 100 */\n    tag_91:\n        /* \"contracts/Lottery.sol\":239:242  100 */\n      0x64\n        /* \"contracts/Lottery.sol\":202:242  uint256 public constant maxTickets = 100 */\n      dup2\n      jump\t// out\n        /* \"contracts/Lottery.sol\":3674:4007  function RefundAll() public {... */\n    tag_95:\n        /* \"contracts/Lottery.sol\":3739:3749  expiration */\n      sload(0x00)\n        /* \"contracts/Lottery.sol\":3720:3735  block.timestamp */\n      timestamp\n        /* \"contracts/Lottery.sol\":3720:3749  block.timestamp >= expiration */\n      lt\n      iszero\n        /* \"contracts/Lottery.sol\":3712:3781  require(block.timestamp >= expiration, \"the lottery not expired yet\") */\n      tag_193\n      jumpi\n      mload(0x40)\n      0x08c379a000000000000000000000000000000000000000000000000000000000\n      dup2\n      mstore\n      0x04\n      add\n      tag_194\n      swap1\n      tag_195\n      jump\t// in\n    tag_194:\n      mload(0x40)\n      dup1\n      swap2\n      sub\n      swap1\n      revert\n    tag_193:\n        /* \"contracts/Lottery.sol\":3797:3806  uint256 i */\n      0x00\n        /* \"contracts/Lottery.sol\":3792:3977  for (uint256 i = 0; i < tickets.length; i++) {... */\n    tag_196:\n        /* \"contracts/Lottery.sol\":3816:3823  tickets */\n      0x06\n        /* \"contracts/Lottery.sol\":3816:3830  tickets.length */\n      dup1\n      sload\n      swap1\n      pop\n        /* \"contracts/Lottery.sol\":3812:3813  i */\n      dup2\n        /* \"contracts/Lottery.sol\":3812:3830  i < tickets.length */\n      lt\n        /* \"contracts/Lottery.sol\":3792:3977  for (uint256 i = 0; i < tickets.length; i++) {... */\n      iszero\n      tag_197\n      jumpi\n        /* \"contracts/Lottery.sol\":3851:3869  address payable to */\n      0x00\n        /* \"contracts/Lottery.sol\":3880:3887  tickets */\n      0x06\n        /* \"contracts/Lottery.sol\":3888:3889  i */\n      dup3\n        /* \"contracts/Lottery.sol\":3880:3890  tickets[i] */\n      dup2\n      sload\n      dup2\n      lt\n      tag_199\n      jumpi\n      tag_200\n      tag_145\n      jump\t// in\n    tag_200:\n    tag_199:\n      swap1\n      0x00\n      mstore\n      keccak256(0x00, 0x20)\n      add\n      0x00\n      swap1\n      sload\n      swap1\n      0x0100\n      exp\n      swap1\n      div\n      0xffffffffffffffffffffffffffffffffffffffff\n      and\n        /* \"contracts/Lottery.sol\":3851:3891  address payable to = payable(tickets[i]) */\n      swap1\n      pop\n        /* \"contracts/Lottery.sol\":3926:3927  0 */\n      0x00\n        /* \"contracts/Lottery.sol\":3905:3912  tickets */\n      0x06\n        /* \"contracts/Lottery.sol\":3913:3914  i */\n      dup4\n        /* \"contracts/Lottery.sol\":3905:3915  tickets[i] */\n      dup2\n      sload\n      dup2\n      lt\n      tag_202\n      jumpi\n      tag_203\n      tag_145\n      jump\t// in\n    tag_203:\n    tag_202:\n      swap1\n      0x00\n      mstore\n      keccak256(0x00, 0x20)\n      add\n      0x00\n        /* \"contracts/Lottery.sol\":3905:3928  tickets[i] = address(0) */\n      0x0100\n      exp\n      dup2\n      sload\n      dup2\n      0xffffffffffffffffffffffffffffffffffffffff\n      mul\n      not\n      and\n      swap1\n      dup4\n      0xffffffffffffffffffffffffffffffffffffffff\n      and\n      mul\n      or\n      swap1\n      sstore\n      pop\n        /* \"contracts/Lottery.sol\":3942:3944  to */\n      dup1\n        /* \"contracts/Lottery.sol\":3942:3953  to.transfer */\n      0xffffffffffffffffffffffffffffffffffffffff\n      and\n        /* \"contracts/Lottery.sol\":3942:3966  to.transfer(ticketPrice) */\n      0x08fc\n        /* \"contracts/Lottery.sol\":186:196  0.01 ether */\n      0x2386f26fc10000\n        /* \"contracts/Lottery.sol\":3942:3966  to.transfer(ticketPrice) */\n      swap1\n      dup2\n      iszero\n      mul\n      swap1\n      mload(0x40)\n      0x00\n      mload(0x40)\n      dup1\n      dup4\n      sub\n      dup2\n      dup6\n      dup9\n      dup9\n      call\n      swap4\n      pop\n      pop\n      pop\n      pop\n      iszero\n      dup1\n      iszero\n      tag_206\n      jumpi\n      returndatasize\n      0x00\n      dup1\n      returndatacopy\n      revert(0x00, returndatasize)\n    tag_206:\n      pop\n        /* \"contracts/Lottery.sol\":3837:3977  {... */\n      pop\n        /* \"contracts/Lottery.sol\":3832:3835  i++ */\n      dup1\n      dup1\n      0x01\n      add\n      swap2\n      pop\n      pop\n        /* \"contracts/Lottery.sol\":3792:3977  for (uint256 i = 0; i < tickets.length; i++) {... */\n      jump(tag_196)\n    tag_197:\n      pop\n        /* \"contracts/Lottery.sol\":3993:4000  tickets */\n      0x06\n      0x00\n        /* \"contracts/Lottery.sol\":3986:4000  delete tickets */\n      tag_207\n      swap2\n      swap1\n      tag_155\n      jump\t// in\n    tag_207:\n        /* \"contracts/Lottery.sol\":3674:4007  function RefundAll() public {... */\n      jump\t// out\n        /* \"contracts/Lottery.sol\":605:647  uint256 public operatorTotalCommission = 0 */\n    tag_98:\n      sload(0x02)\n      dup2\n      jump\t// out\n        /* \"contracts/Lottery.sol\":4381:4495  function CurrentWinningReward() public view returns (uint256) {... */\n    tag_102:\n        /* \"contracts/Lottery.sol\":4434:4441  uint256 */\n      0x00\n        /* \"contracts/Lottery.sol\":186:196  0.01 ether */\n      0x2386f26fc10000\n        /* \"contracts/Lottery.sol\":4460:4467  tickets */\n      0x06\n        /* \"contracts/Lottery.sol\":4460:4474  tickets.length */\n      dup1\n      sload\n      swap1\n      pop\n        /* \"contracts/Lottery.sol\":4460:4488  tickets.length * ticketPrice */\n      tag_209\n      swap2\n      swap1\n      tag_149\n      jump\t// in\n    tag_209:\n        /* \"contracts/Lottery.sol\":4453:4488  return tickets.length * ticketPrice */\n      swap1\n      pop\n        /* \"contracts/Lottery.sol\":4381:4495  function CurrentWinningReward() public view returns (uint256) {... */\n      swap1\n      jump\t// out\n        /* \"contracts/Lottery.sol\":1591:1704  function getWinningsForAddress(address addr) public view returns (uint256) {... */\n    tag_108:\n        /* \"contracts/Lottery.sol\":1657:1664  uint256 */\n      0x00\n        /* \"contracts/Lottery.sol\":1683:1691  winnings */\n      0x05\n        /* \"contracts/Lottery.sol\":1683:1697  winnings[addr] */\n      0x00\n        /* \"contracts/Lottery.sol\":1692:1696  addr */\n      dup4\n        /* \"contracts/Lottery.sol\":1683:1697  winnings[addr] */\n      0xffffffffffffffffffffffffffffffffffffffff\n      and\n      0xffffffffffffffffffffffffffffffffffffffff\n      and\n      dup2\n      mstore\n      0x20\n      add\n      swap1\n      dup2\n      mstore\n      0x20\n      add\n      0x00\n      keccak256\n      sload\n        /* \"contracts/Lottery.sol\":1676:1697  return winnings[addr] */\n      swap1\n      pop\n        /* \"contracts/Lottery.sol\":1591:1704  function getWinningsForAddress(address addr) public view returns (uint256) {... */\n      swap2\n      swap1\n      pop\n      jump\t// out\n        /* \"contracts/Lottery.sol\":829:872  mapping(address => uint256) public winnings */\n    tag_113:\n      mstore(0x20, 0x05)\n      dup1\n      0x00\n      mstore\n      keccak256(0x00, 0x40)\n      0x00\n      swap2\n      pop\n      swap1\n      pop\n      sload\n      dup2\n      jump\t// out\n        /* \"contracts/Lottery.sol\":3015:3217  function restartDraw() public isOperator {... */\n    tag_117:\n        /* \"contracts/Lottery.sol\":1103:1118  lotteryOperator */\n      0x01\n      0x00\n      swap1\n      sload\n      swap1\n      0x0100\n      exp\n      swap1\n      div\n      0xffffffffffffffffffffffffffffffffffffffff\n      and\n        /* \"contracts/Lottery.sol\":1089:1118  msg.sender == lotteryOperator */\n      0xffffffffffffffffffffffffffffffffffffffff\n      and\n        /* \"contracts/Lottery.sol\":1089:1099  msg.sender */\n      caller\n        /* \"contracts/Lottery.sol\":1089:1118  msg.sender == lotteryOperator */\n      0xffffffffffffffffffffffffffffffffffffffff\n      and\n      eq\n        /* \"contracts/Lottery.sol\":1067:1179  require(... */\n      tag_212\n      jumpi\n      mload(0x40)\n      0x08c379a000000000000000000000000000000000000000000000000000000000\n      dup2\n      mstore\n      0x04\n      add\n      tag_213\n      swap1\n      tag_126\n      jump\t// in\n    tag_213:\n      mload(0x40)\n      dup1\n      swap2\n      sub\n      swap1\n      revert\n    tag_212:\n        /* \"contracts/Lottery.sol\":3092:3093  0 */\n      0x00\n        /* \"contracts/Lottery.sol\":3074:3081  tickets */\n      0x06\n        /* \"contracts/Lottery.sol\":3074:3088  tickets.length */\n      dup1\n      sload\n      swap1\n      pop\n        /* \"contracts/Lottery.sol\":3074:3093  tickets.length == 0 */\n      eq\n        /* \"contracts/Lottery.sol\":3066:3136  require(tickets.length == 0, \"Cannot Restart Draw as Draw is in play\") */\n      tag_215\n      jumpi\n      mload(0x40)\n      0x08c379a000000000000000000000000000000000000000000000000000000000\n      dup2\n      mstore\n      0x04\n      add\n      tag_216\n      swap1\n      tag_217\n      jump\t// in\n    tag_216:\n      mload(0x40)\n      dup1\n      swap2\n      sub\n      swap1\n      revert\n    tag_215:\n        /* \"contracts/Lottery.sol\":3154:3161  tickets */\n      0x06\n      0x00\n        /* \"contracts/Lottery.sol\":3147:3161  delete tickets */\n      tag_218\n      swap2\n      swap1\n      tag_155\n      jump\t// in\n    tag_218:\n        /* \"contracts/Lottery.sol\":398:408  30 minutes */\n      0x0708\n        /* \"contracts/Lottery.sol\":3184:3199  block.timestamp */\n      timestamp\n        /* \"contracts/Lottery.sol\":3184:3210  block.timestamp + duration */\n      tag_219\n      swap2\n      swap1\n      tag_151\n      jump\t// in\n    tag_219:\n        /* \"contracts/Lottery.sol\":3171:3181  expiration */\n      0x00\n        /* \"contracts/Lottery.sol\":3171:3210  expiration = block.timestamp + duration */\n      dup2\n      swap1\n      sstore\n      pop\n        /* \"contracts/Lottery.sol\":3015:3217  function restartDraw() public isOperator {... */\n      jump\t// out\n        /* \"contracts/Lottery.sol\":685:710  address public lastWinner */\n    tag_120:\n      0x03\n      0x00\n      swap1\n      sload\n      swap1\n      0x0100\n      exp\n      swap1\n      div\n      0xffffffffffffffffffffffffffffffffffffffff\n      and\n      dup2\n      jump\t// out\n        /* \"@openzeppelin/contracts/utils/Strings.sol\":447:1143  function toString(uint256 value) internal pure returns (string memory) {... */\n    tag_173:\n        /* \"@openzeppelin/contracts/utils/Strings.sol\":503:516  string memory */\n      0x60\n        /* \"@openzeppelin/contracts/utils/Strings.sol\":552:566  uint256 length */\n      0x00\n        /* \"@openzeppelin/contracts/utils/Strings.sol\":589:590  1 */\n      0x01\n        /* \"@openzeppelin/contracts/utils/Strings.sol\":569:586  Math.log10(value) */\n      tag_221\n        /* \"@openzeppelin/contracts/utils/Strings.sol\":580:585  value */\n      dup5\n        /* \"@openzeppelin/contracts/utils/Strings.sol\":569:579  Math.log10 */\n      tag_222\n        /* \"@openzeppelin/contracts/utils/Strings.sol\":569:586  Math.log10(value) */\n      jump\t// in\n    tag_221:\n        /* \"@openzeppelin/contracts/utils/Strings.sol\":569:590  Math.log10(value) + 1 */\n      add\n        /* \"@openzeppelin/contracts/utils/Strings.sol\":552:590  uint256 length = Math.log10(value) + 1 */\n      swap1\n      pop\n        /* \"@openzeppelin/contracts/utils/Strings.sol\":604:624  string memory buffer */\n      0x00\n        /* \"@openzeppelin/contracts/utils/Strings.sol\":638:644  length */\n      dup2\n        /* \"@openzeppelin/contracts/utils/Strings.sol\":627:645  new string(length) */\n      0xffffffffffffffff\n      dup2\n      gt\n      iszero\n      tag_223\n      jumpi\n      tag_224\n      tag_225\n      jump\t// in\n    tag_224:\n    tag_223:\n      mload(0x40)\n      swap1\n      dup1\n      dup3\n      mstore\n      dup1\n      0x1f\n      add\n      not(0x1f)\n      and\n      0x20\n      add\n      dup3\n      add\n      0x40\n      mstore\n      dup1\n      iszero\n      tag_226\n      jumpi\n      dup2\n      0x20\n      add\n      0x01\n      dup3\n      mul\n      dup1\n      calldatasize\n      dup4\n      calldatacopy\n      dup1\n      dup3\n      add\n      swap2\n      pop\n      pop\n      swap1\n      pop\n    tag_226:\n      pop\n        /* \"@openzeppelin/contracts/utils/Strings.sol\":604:645  string memory buffer = new string(length) */\n      swap1\n      pop\n        /* \"@openzeppelin/contracts/utils/Strings.sol\":659:670  uint256 ptr */\n      0x00\n        /* \"@openzeppelin/contracts/utils/Strings.sol\":785:791  length */\n      dup3\n        /* \"@openzeppelin/contracts/utils/Strings.sol\":781:783  32 */\n      0x20\n        /* \"@openzeppelin/contracts/utils/Strings.sol\":777:792  add(32, length) */\n      add\n        /* \"@openzeppelin/contracts/utils/Strings.sol\":769:775  buffer */\n      dup3\n        /* \"@openzeppelin/contracts/utils/Strings.sol\":765:793  add(buffer, add(32, length)) */\n      add\n        /* \"@openzeppelin/contracts/utils/Strings.sol\":758:793  ptr := add(buffer, add(32, length)) */\n      swap1\n      pop\n        /* \"@openzeppelin/contracts/utils/Strings.sol\":820:1100  while (true) {... */\n    tag_227:\n        /* \"@openzeppelin/contracts/utils/Strings.sol\":827:831  true */\n      0x01\n        /* \"@openzeppelin/contracts/utils/Strings.sol\":820:1100  while (true) {... */\n      iszero\n      tag_228\n      jumpi\n        /* \"@openzeppelin/contracts/utils/Strings.sol\":851:856  ptr-- */\n      dup1\n      dup1\n      0x01\n      swap1\n      sub\n      swap2\n      pop\n      pop\n        /* \"@openzeppelin/contracts/utils/Strings.sol\":990:998  _SYMBOLS */\n      0x3031323334353637383961626364656600000000000000000000000000000000\n        /* \"@openzeppelin/contracts/utils/Strings.sol\":985:987  10 */\n      0x0a\n        /* \"@openzeppelin/contracts/utils/Strings.sol\":978:983  value */\n      dup7\n        /* \"@openzeppelin/contracts/utils/Strings.sol\":974:988  mod(value, 10) */\n      mod\n        /* \"@openzeppelin/contracts/utils/Strings.sol\":969:999  byte(mod(value, 10), _SYMBOLS) */\n      byte\n        /* \"@openzeppelin/contracts/utils/Strings.sol\":964:967  ptr */\n      dup2\n        /* \"@openzeppelin/contracts/utils/Strings.sol\":956:1000  mstore8(ptr, byte(mod(value, 10), _SYMBOLS)) */\n      mstore8\n        /* \"@openzeppelin/contracts/utils/Strings.sol\":1044:1046  10 */\n      0x0a\n        /* \"@openzeppelin/contracts/utils/Strings.sol\":1035:1046  value /= 10 */\n      dup6\n      dup2\n      tag_229\n      jumpi\n      tag_230\n      tag_231\n      jump\t// in\n    tag_230:\n    tag_229:\n      div\n      swap5\n      pop\n        /* \"@openzeppelin/contracts/utils/Strings.sol\":1077:1078  0 */\n      0x00\n        /* \"@openzeppelin/contracts/utils/Strings.sol\":1068:1073  value */\n      dup6\n        /* \"@openzeppelin/contracts/utils/Strings.sol\":1068:1078  value == 0 */\n      sub\n        /* \"@openzeppelin/contracts/utils/Strings.sol\":820:1100  while (true) {... */\n      tag_227\n        /* \"@openzeppelin/contracts/utils/Strings.sol\":1064:1085  if (value == 0) break */\n      jumpi\n        /* \"@openzeppelin/contracts/utils/Strings.sol\":820:1100  while (true) {... */\n    tag_228:\n        /* \"@openzeppelin/contracts/utils/Strings.sol\":1120:1126  buffer */\n      dup2\n        /* \"@openzeppelin/contracts/utils/Strings.sol\":1113:1126  return buffer */\n      swap4\n      pop\n      pop\n      pop\n      pop\n        /* \"@openzeppelin/contracts/utils/Strings.sol\":447:1143  function toString(uint256 value) internal pure returns (string memory) {... */\n      swap2\n      swap1\n      pop\n      jump\t// out\n        /* \"@openzeppelin/contracts/utils/math/Math.sol\":10139:11055  function log10(uint256 value) internal pure returns (uint256) {... */\n    tag_222:\n        /* \"@openzeppelin/contracts/utils/math/Math.sol\":10192:10199  uint256 */\n      0x00\n        /* \"@openzeppelin/contracts/utils/math/Math.sol\":10211:10225  uint256 result */\n      dup1\n        /* \"@openzeppelin/contracts/utils/math/Math.sol\":10228:10229  0 */\n      0x00\n        /* \"@openzeppelin/contracts/utils/math/Math.sol\":10211:10229  uint256 result = 0 */\n      swap1\n      pop\n        /* \"@openzeppelin/contracts/utils/math/Math.sol\":10276:10284  10 ** 64 */\n      0x184f03e93ff9f4daa797ed6e38ed64bf6a1f010000000000000000\n        /* \"@openzeppelin/contracts/utils/math/Math.sol\":10267:10272  value */\n      dup4\n        /* \"@openzeppelin/contracts/utils/math/Math.sol\":10267:10284  value >= 10 ** 64 */\n      lt\n        /* \"@openzeppelin/contracts/utils/math/Math.sol\":10263:10366  if (value >= 10 ** 64) {... */\n      tag_234\n      jumpi\n        /* \"@openzeppelin/contracts/utils/math/Math.sol\":10313:10321  10 ** 64 */\n      0x184f03e93ff9f4daa797ed6e38ed64bf6a1f010000000000000000\n        /* \"@openzeppelin/contracts/utils/math/Math.sol\":10304:10321  value /= 10 ** 64 */\n      dup4\n      dup2\n      tag_235\n      jumpi\n      tag_236\n      tag_231\n      jump\t// in\n    tag_236:\n    tag_235:\n      div\n      swap3\n      pop\n        /* \"@openzeppelin/contracts/utils/math/Math.sol\":10349:10351  64 */\n      0x40\n        /* \"@openzeppelin/contracts/utils/math/Math.sol\":10339:10351  result += 64 */\n      dup2\n      add\n      swap1\n      pop\n        /* \"@openzeppelin/contracts/utils/math/Math.sol\":10263:10366  if (value >= 10 ** 64) {... */\n    tag_234:\n        /* \"@openzeppelin/contracts/utils/math/Math.sol\":10392:10400  10 ** 32 */\n      0x04ee2d6d415b85acef8100000000\n        /* \"@openzeppelin/contracts/utils/math/Math.sol\":10383:10388  value */\n      dup4\n        /* \"@openzeppelin/contracts/utils/math/Math.sol\":10383:10400  value >= 10 ** 32 */\n      lt\n        /* \"@openzeppelin/contracts/utils/math/Math.sol\":10379:10482  if (value >= 10 ** 32) {... */\n      tag_237\n      jumpi\n        /* \"@openzeppelin/contracts/utils/math/Math.sol\":10429:10437  10 ** 32 */\n      0x04ee2d6d415b85acef8100000000\n        /* \"@openzeppelin/contracts/utils/math/Math.sol\":10420:10437  value /= 10 ** 32 */\n      dup4\n      dup2\n      tag_238\n      jumpi\n      tag_239\n      tag_231\n      jump\t// in\n    tag_239:\n    tag_238:\n      div\n      swap3\n      pop\n        /* \"@openzeppelin/contracts/utils/math/Math.sol\":10465:10467  32 */\n      0x20\n        /* \"@openzeppelin/contracts/utils/math/Math.sol\":10455:10467  result += 32 */\n      dup2\n      add\n      swap1\n      pop\n        /* \"@openzeppelin/contracts/utils/math/Math.sol\":10379:10482  if (value >= 10 ** 32) {... */\n    tag_237:\n        /* \"@openzeppelin/contracts/utils/math/Math.sol\":10508:10516  10 ** 16 */\n      0x2386f26fc10000\n        /* \"@openzeppelin/contracts/utils/math/Math.sol\":10499:10504  value */\n      dup4\n        /* \"@openzeppelin/contracts/utils/math/Math.sol\":10499:10516  value >= 10 ** 16 */\n      lt\n        /* \"@openzeppelin/contracts/utils/math/Math.sol\":10495:10598  if (value >= 10 ** 16) {... */\n      tag_240\n      jumpi\n        /* \"@openzeppelin/contracts/utils/math/Math.sol\":10545:10553  10 ** 16 */\n      0x2386f26fc10000\n        /* \"@openzeppelin/contracts/utils/math/Math.sol\":10536:10553  value /= 10 ** 16 */\n      dup4\n      dup2\n      tag_241\n      jumpi\n      tag_242\n      tag_231\n      jump\t// in\n    tag_242:\n    tag_241:\n      div\n      swap3\n      pop\n        /* \"@openzeppelin/contracts/utils/math/Math.sol\":10581:10583  16 */\n      0x10\n        /* \"@openzeppelin/contracts/utils/math/Math.sol\":10571:10583  result += 16 */\n      dup2\n      add\n      swap1\n      pop\n        /* \"@openzeppelin/contracts/utils/math/Math.sol\":10495:10598  if (value >= 10 ** 16) {... */\n    tag_240:\n        /* \"@openzeppelin/contracts/utils/math/Math.sol\":10624:10631  10 ** 8 */\n      0x05f5e100\n        /* \"@openzeppelin/contracts/utils/math/Math.sol\":10615:10620  value */\n      dup4\n        /* \"@openzeppelin/contracts/utils/math/Math.sol\":10615:10631  value >= 10 ** 8 */\n      lt\n        /* \"@openzeppelin/contracts/utils/math/Math.sol\":10611:10711  if (value >= 10 ** 8) {... */\n      tag_243\n      jumpi\n        /* \"@openzeppelin/contracts/utils/math/Math.sol\":10660:10667  10 ** 8 */\n      0x05f5e100\n        /* \"@openzeppelin/contracts/utils/math/Math.sol\":10651:10667  value /= 10 ** 8 */\n      dup4\n      dup2\n      tag_244\n      jumpi\n      tag_245\n      tag_231\n      jump\t// in\n    tag_245:\n    tag_244:\n      div\n      swap3\n      pop\n        /* \"@openzeppelin/contracts/utils/math/Math.sol\":10695:10696  8 */\n      0x08\n        /* \"@openzeppelin/contracts/utils/math/Math.sol\":10685:10696  result += 8 */\n      dup2\n      add\n      swap1\n      pop\n        /* \"@openzeppelin/contracts/utils/math/Math.sol\":10611:10711  if (value >= 10 ** 8) {... */\n    tag_243:\n        /* \"@openzeppelin/contracts/utils/math/Math.sol\":10737:10744  10 ** 4 */\n      0x2710\n        /* \"@openzeppelin/contracts/utils/math/Math.sol\":10728:10733  value */\n      dup4\n        /* \"@openzeppelin/contracts/utils/math/Math.sol\":10728:10744  value >= 10 ** 4 */\n      lt\n        /* \"@openzeppelin/contracts/utils/math/Math.sol\":10724:10824  if (value >= 10 ** 4) {... */\n      tag_246\n      jumpi\n        /* \"@openzeppelin/contracts/utils/math/Math.sol\":10773:10780  10 ** 4 */\n      0x2710\n        /* \"@openzeppelin/contracts/utils/math/Math.sol\":10764:10780  value /= 10 ** 4 */\n      dup4\n      dup2\n      tag_247\n      jumpi\n      tag_248\n      tag_231\n      jump\t// in\n    tag_248:\n    tag_247:\n      div\n      swap3\n      pop\n        /* \"@openzeppelin/contracts/utils/math/Math.sol\":10808:10809  4 */\n      0x04\n        /* \"@openzeppelin/contracts/utils/math/Math.sol\":10798:10809  result += 4 */\n      dup2\n      add\n      swap1\n      pop\n        /* \"@openzeppelin/contracts/utils/math/Math.sol\":10724:10824  if (value >= 10 ** 4) {... */\n    tag_246:\n        /* \"@openzeppelin/contracts/utils/math/Math.sol\":10850:10857  10 ** 2 */\n      0x64\n        /* \"@openzeppelin/contracts/utils/math/Math.sol\":10841:10846  value */\n      dup4\n        /* \"@openzeppelin/contracts/utils/math/Math.sol\":10841:10857  value >= 10 ** 2 */\n      lt\n        /* \"@openzeppelin/contracts/utils/math/Math.sol\":10837:10937  if (value >= 10 ** 2) {... */\n      tag_249\n      jumpi\n        /* \"@openzeppelin/contracts/utils/math/Math.sol\":10886:10893  10 ** 2 */\n      0x64\n        /* \"@openzeppelin/contracts/utils/math/Math.sol\":10877:10893  value /= 10 ** 2 */\n      dup4\n      dup2\n      tag_250\n      jumpi\n      tag_251\n      tag_231\n      jump\t// in\n    tag_251:\n    tag_250:\n      div\n      swap3\n      pop\n        /* \"@openzeppelin/contracts/utils/math/Math.sol\":10921:10922  2 */\n      0x02\n        /* \"@openzeppelin/contracts/utils/math/Math.sol\":10911:10922  result += 2 */\n      dup2\n      add\n      swap1\n      pop\n        /* \"@openzeppelin/contracts/utils/math/Math.sol\":10837:10937  if (value >= 10 ** 2) {... */\n    tag_249:\n        /* \"@openzeppelin/contracts/utils/math/Math.sol\":10963:10970  10 ** 1 */\n      0x0a\n        /* \"@openzeppelin/contracts/utils/math/Math.sol\":10954:10959  value */\n      dup4\n        /* \"@openzeppelin/contracts/utils/math/Math.sol\":10954:10970  value >= 10 ** 1 */\n      lt\n        /* \"@openzeppelin/contracts/utils/math/Math.sol\":10950:11016  if (value >= 10 ** 1) {... */\n      tag_252\n      jumpi\n        /* \"@openzeppelin/contracts/utils/math/Math.sol\":11000:11001  1 */\n      0x01\n        /* \"@openzeppelin/contracts/utils/math/Math.sol\":10990:11001  result += 1 */\n      dup2\n      add\n      swap1\n      pop\n        /* \"@openzeppelin/contracts/utils/math/Math.sol\":10950:11016  if (value >= 10 ** 1) {... */\n    tag_252:\n        /* \"@openzeppelin/contracts/utils/math/Math.sol\":11042:11048  result */\n      dup1\n        /* \"@openzeppelin/contracts/utils/math/Math.sol\":11035:11048  return result */\n      swap2\n      pop\n      pop\n        /* \"@openzeppelin/contracts/utils/math/Math.sol\":10139:11055  function log10(uint256 value) internal pure returns (uint256) {... */\n      swap2\n      swap1\n      pop\n      jump\t// out\n    tag_155:\n      pop\n      dup1\n      sload\n      0x00\n      dup3\n      sstore\n      swap1\n      0x00\n      mstore\n      keccak256(0x00, 0x20)\n      swap1\n      dup2\n      add\n      swap1\n      tag_254\n      swap2\n      swap1\n      tag_255\n      jump\t// in\n    tag_254:\n      pop\n      jump\t// out\n    tag_255:\n    tag_256:\n      dup1\n      dup3\n      gt\n      iszero\n      tag_257\n      jumpi\n      0x00\n      dup2\n      0x00\n      swap1\n      sstore\n      pop\n      0x01\n      add\n      jump(tag_256)\n    tag_257:\n      pop\n      swap1\n      jump\t// out\n        /* \"#utility.yul\":7:84   */\n    tag_258:\n        /* \"#utility.yul\":44:51   */\n      0x00\n        /* \"#utility.yul\":73:78   */\n      dup2\n        /* \"#utility.yul\":62:78   */\n      swap1\n      pop\n        /* \"#utility.yul\":7:84   */\n      swap2\n      swap1\n      pop\n      jump\t// out\n        /* \"#utility.yul\":90:208   */\n    tag_259:\n        /* \"#utility.yul\":177:201   */\n      tag_309\n        /* \"#utility.yul\":195:200   */\n      dup2\n        /* \"#utility.yul\":177:201   */\n      tag_258\n      jump\t// in\n    tag_309:\n        /* \"#utility.yul\":172:175   */\n      dup3\n        /* \"#utility.yul\":165:202   */\n      mstore\n        /* \"#utility.yul\":90:208   */\n      pop\n      pop\n      jump\t// out\n        /* \"#utility.yul\":214:436   */\n    tag_32:\n        /* \"#utility.yul\":307:311   */\n      0x00\n        /* \"#utility.yul\":345:347   */\n      0x20\n        /* \"#utility.yul\":334:343   */\n      dup3\n        /* \"#utility.yul\":330:348   */\n      add\n        /* \"#utility.yul\":322:348   */\n      swap1\n      pop\n        /* \"#utility.yul\":358:429   */\n      tag_311\n        /* \"#utility.yul\":426:427   */\n      0x00\n        /* \"#utility.yul\":415:424   */\n      dup4\n        /* \"#utility.yul\":411:428   */\n      add\n        /* \"#utility.yul\":402:408   */\n      dup5\n        /* \"#utility.yul\":358:429   */\n      tag_259\n      jump\t// in\n    tag_311:\n        /* \"#utility.yul\":214:436   */\n      swap3\n      swap2\n      pop\n      pop\n      jump\t// out\n        /* \"#utility.yul\":442:556   */\n    tag_260:\n        /* \"#utility.yul\":509:515   */\n      0x00\n        /* \"#utility.yul\":543:548   */\n      dup2\n        /* \"#utility.yul\":537:549   */\n      mload\n        /* \"#utility.yul\":527:549   */\n      swap1\n      pop\n        /* \"#utility.yul\":442:556   */\n      swap2\n      swap1\n      pop\n      jump\t// out\n        /* \"#utility.yul\":562:746   */\n    tag_261:\n        /* \"#utility.yul\":661:672   */\n      0x00\n        /* \"#utility.yul\":695:701   */\n      dup3\n        /* \"#utility.yul\":690:693   */\n      dup3\n        /* \"#utility.yul\":683:702   */\n      mstore\n        /* \"#utility.yul\":735:739   */\n      0x20\n        /* \"#utility.yul\":730:733   */\n      dup3\n        /* \"#utility.yul\":726:740   */\n      add\n        /* \"#utility.yul\":711:740   */\n      swap1\n      pop\n        /* \"#utility.yul\":562:746   */\n      swap3\n      swap2\n      pop\n      pop\n      jump\t// out\n        /* \"#utility.yul\":752:884   */\n    tag_262:\n        /* \"#utility.yul\":819:823   */\n      0x00\n        /* \"#utility.yul\":842:845   */\n      dup2\n        /* \"#utility.yul\":834:845   */\n      swap1\n      pop\n        /* \"#utility.yul\":872:876   */\n      0x20\n        /* \"#utility.yul\":867:870   */\n      dup3\n        /* \"#utility.yul\":863:877   */\n      add\n        /* \"#utility.yul\":855:877   */\n      swap1\n      pop\n        /* \"#utility.yul\":752:884   */\n      swap2\n      swap1\n      pop\n      jump\t// out\n        /* \"#utility.yul\":890:1016   */\n    tag_263:\n        /* \"#utility.yul\":927:934   */\n      0x00\n        /* \"#utility.yul\":967:1009   */\n      0xffffffffffffffffffffffffffffffffffffffff\n        /* \"#utility.yul\":960:965   */\n      dup3\n        /* \"#utility.yul\":956:1010   */\n      and\n        /* \"#utility.yul\":945:1010   */\n      swap1\n      pop\n        /* \"#utility.yul\":890:1016   */\n      swap2\n      swap1\n      pop\n      jump\t// out\n        /* \"#utility.yul\":1022:1118   */\n    tag_264:\n        /* \"#utility.yul\":1059:1066   */\n      0x00\n        /* \"#utility.yul\":1088:1112   */\n      tag_317\n        /* \"#utility.yul\":1106:1111   */\n      dup3\n        /* \"#utility.yul\":1088:1112   */\n      tag_263\n      jump\t// in\n    tag_317:\n        /* \"#utility.yul\":1077:1112   */\n      swap1\n      pop\n        /* \"#utility.yul\":1022:1118   */\n      swap2\n      swap1\n      pop\n      jump\t// out\n        /* \"#utility.yul\":1124:1232   */\n    tag_265:\n        /* \"#utility.yul\":1201:1225   */\n      tag_319\n        /* \"#utility.yul\":1219:1224   */\n      dup2\n        /* \"#utility.yul\":1201:1225   */\n      tag_264\n      jump\t// in\n    tag_319:\n        /* \"#utility.yul\":1196:1199   */\n      dup3\n        /* \"#utility.yul\":1189:1226   */\n      mstore\n        /* \"#utility.yul\":1124:1232   */\n      pop\n      pop\n      jump\t// out\n        /* \"#utility.yul\":1238:1417   */\n    tag_266:\n        /* \"#utility.yul\":1307:1317   */\n      0x00\n        /* \"#utility.yul\":1328:1374   */\n      tag_321\n        /* \"#utility.yul\":1370:1373   */\n      dup4\n        /* \"#utility.yul\":1362:1368   */\n      dup4\n        /* \"#utility.yul\":1328:1374   */\n      tag_265\n      jump\t// in\n    tag_321:\n        /* \"#utility.yul\":1406:1410   */\n      0x20\n        /* \"#utility.yul\":1401:1404   */\n      dup4\n        /* \"#utility.yul\":1397:1411   */\n      add\n        /* \"#utility.yul\":1383:1411   */\n      swap1\n      pop\n        /* \"#utility.yul\":1238:1417   */\n      swap3\n      swap2\n      pop\n      pop\n      jump\t// out\n        /* \"#utility.yul\":1423:1536   */\n    tag_267:\n        /* \"#utility.yul\":1493:1497   */\n      0x00\n        /* \"#utility.yul\":1525:1529   */\n      0x20\n        /* \"#utility.yul\":1520:1523   */\n      dup3\n        /* \"#utility.yul\":1516:1530   */\n      add\n        /* \"#utility.yul\":1508:1530   */\n      swap1\n      pop\n        /* \"#utility.yul\":1423:1536   */\n      swap2\n      swap1\n      pop\n      jump\t// out\n        /* \"#utility.yul\":1572:2304   */\n    tag_268:\n        /* \"#utility.yul\":1691:1694   */\n      0x00\n        /* \"#utility.yul\":1720:1774   */\n      tag_324\n        /* \"#utility.yul\":1768:1773   */\n      dup3\n        /* \"#utility.yul\":1720:1774   */\n      tag_260\n      jump\t// in\n    tag_324:\n        /* \"#utility.yul\":1790:1876   */\n      tag_325\n        /* \"#utility.yul\":1869:1875   */\n      dup2\n        /* \"#utility.yul\":1864:1867   */\n      dup6\n        /* \"#utility.yul\":1790:1876   */\n      tag_261\n      jump\t// in\n    tag_325:\n        /* \"#utility.yul\":1783:1876   */\n      swap4\n      pop\n        /* \"#utility.yul\":1900:1956   */\n      tag_326\n        /* \"#utility.yul\":1950:1955   */\n      dup4\n        /* \"#utility.yul\":1900:1956   */\n      tag_262\n      jump\t// in\n    tag_326:\n        /* \"#utility.yul\":1979:1986   */\n      dup1\n        /* \"#utility.yul\":2010:2011   */\n      0x00\n        /* \"#utility.yul\":1995:2279   */\n    tag_327:\n        /* \"#utility.yul\":2020:2026   */\n      dup4\n        /* \"#utility.yul\":2017:2018   */\n      dup2\n        /* \"#utility.yul\":2014:2027   */\n      lt\n        /* \"#utility.yul\":1995:2279   */\n      iszero\n      tag_329\n      jumpi\n        /* \"#utility.yul\":2096:2102   */\n      dup2\n        /* \"#utility.yul\":2090:2103   */\n      mload\n        /* \"#utility.yul\":2123:2186   */\n      tag_330\n        /* \"#utility.yul\":2182:2185   */\n      dup9\n        /* \"#utility.yul\":2167:2180   */\n      dup3\n        /* \"#utility.yul\":2123:2186   */\n      tag_266\n      jump\t// in\n    tag_330:\n        /* \"#utility.yul\":2116:2186   */\n      swap8\n      pop\n        /* \"#utility.yul\":2209:2269   */\n      tag_331\n        /* \"#utility.yul\":2262:2268   */\n      dup4\n        /* \"#utility.yul\":2209:2269   */\n      tag_267\n      jump\t// in\n    tag_331:\n        /* \"#utility.yul\":2199:2269   */\n      swap3\n      pop\n        /* \"#utility.yul\":2055:2279   */\n      pop\n        /* \"#utility.yul\":2042:2043   */\n      0x01\n        /* \"#utility.yul\":2039:2040   */\n      dup2\n        /* \"#utility.yul\":2035:2044   */\n      add\n        /* \"#utility.yul\":2030:2044   */\n      swap1\n      pop\n        /* \"#utility.yul\":1995:2279   */\n      jump(tag_327)\n    tag_329:\n        /* \"#utility.yul\":1999:2013   */\n      pop\n        /* \"#utility.yul\":2295:2298   */\n      dup6\n        /* \"#utility.yul\":2288:2298   */\n      swap4\n      pop\n        /* \"#utility.yul\":1696:2304   */\n      pop\n      pop\n      pop\n        /* \"#utility.yul\":1572:2304   */\n      swap3\n      swap2\n      pop\n      pop\n      jump\t// out\n        /* \"#utility.yul\":2310:2683   */\n    tag_59:\n        /* \"#utility.yul\":2453:2457   */\n      0x00\n        /* \"#utility.yul\":2491:2493   */\n      0x20\n        /* \"#utility.yul\":2480:2489   */\n      dup3\n        /* \"#utility.yul\":2476:2494   */\n      add\n        /* \"#utility.yul\":2468:2494   */\n      swap1\n      pop\n        /* \"#utility.yul\":2540:2549   */\n      dup2\n        /* \"#utility.yul\":2534:2538   */\n      dup2\n        /* \"#utility.yul\":2530:2550   */\n      sub\n        /* \"#utility.yul\":2526:2527   */\n      0x00\n        /* \"#utility.yul\":2515:2524   */\n      dup4\n        /* \"#utility.yul\":2511:2528   */\n      add\n        /* \"#utility.yul\":2504:2551   */\n      mstore\n        /* \"#utility.yul\":2568:2676   */\n      tag_333\n        /* \"#utility.yul\":2671:2675   */\n      dup2\n        /* \"#utility.yul\":2662:2668   */\n      dup5\n        /* \"#utility.yul\":2568:2676   */\n      tag_268\n      jump\t// in\n    tag_333:\n        /* \"#utility.yul\":2560:2676   */\n      swap1\n      pop\n        /* \"#utility.yul\":2310:2683   */\n      swap3\n      swap2\n      pop\n      pop\n      jump\t// out\n        /* \"#utility.yul\":2770:2887   */\n    tag_270:\n        /* \"#utility.yul\":2879:2880   */\n      0x00\n        /* \"#utility.yul\":2876:2877   */\n      dup1\n        /* \"#utility.yul\":2869:2881   */\n      revert\n        /* \"#utility.yul\":3016:3138   */\n    tag_272:\n        /* \"#utility.yul\":3089:3113   */\n      tag_338\n        /* \"#utility.yul\":3107:3112   */\n      dup2\n        /* \"#utility.yul\":3089:3113   */\n      tag_258\n      jump\t// in\n    tag_338:\n        /* \"#utility.yul\":3082:3087   */\n      dup2\n        /* \"#utility.yul\":3079:3114   */\n      eq\n        /* \"#utility.yul\":3069:3132   */\n      tag_339\n      jumpi\n        /* \"#utility.yul\":3128:3129   */\n      0x00\n        /* \"#utility.yul\":3125:3126   */\n      dup1\n        /* \"#utility.yul\":3118:3130   */\n      revert\n        /* \"#utility.yul\":3069:3132   */\n    tag_339:\n        /* \"#utility.yul\":3016:3138   */\n      pop\n      jump\t// out\n        /* \"#utility.yul\":3144:3283   */\n    tag_273:\n        /* \"#utility.yul\":3190:3195   */\n      0x00\n        /* \"#utility.yul\":3228:3234   */\n      dup2\n        /* \"#utility.yul\":3215:3235   */\n      calldataload\n        /* \"#utility.yul\":3206:3235   */\n      swap1\n      pop\n        /* \"#utility.yul\":3244:3277   */\n      tag_341\n        /* \"#utility.yul\":3271:3276   */\n      dup2\n        /* \"#utility.yul\":3244:3277   */\n      tag_272\n      jump\t// in\n    tag_341:\n        /* \"#utility.yul\":3144:3283   */\n      swap3\n      swap2\n      pop\n      pop\n      jump\t// out\n        /* \"#utility.yul\":3289:3618   */\n    tag_63:\n        /* \"#utility.yul\":3348:3354   */\n      0x00\n        /* \"#utility.yul\":3397:3399   */\n      0x20\n        /* \"#utility.yul\":3385:3394   */\n      dup3\n        /* \"#utility.yul\":3376:3383   */\n      dup5\n        /* \"#utility.yul\":3372:3395   */\n      sub\n        /* \"#utility.yul\":3368:3400   */\n      slt\n        /* \"#utility.yul\":3365:3484   */\n      iszero\n      tag_343\n      jumpi\n        /* \"#utility.yul\":3403:3482   */\n      tag_344\n      tag_270\n      jump\t// in\n    tag_344:\n        /* \"#utility.yul\":3365:3484   */\n    tag_343:\n        /* \"#utility.yul\":3523:3524   */\n      0x00\n        /* \"#utility.yul\":3548:3601   */\n      tag_345\n        /* \"#utility.yul\":3593:3600   */\n      dup5\n        /* \"#utility.yul\":3584:3590   */\n      dup3\n        /* \"#utility.yul\":3573:3582   */\n      dup6\n        /* \"#utility.yul\":3569:3591   */\n      add\n        /* \"#utility.yul\":3548:3601   */\n      tag_273\n      jump\t// in\n    tag_345:\n        /* \"#utility.yul\":3538:3601   */\n      swap2\n      pop\n        /* \"#utility.yul\":3494:3611   */\n      pop\n        /* \"#utility.yul\":3289:3618   */\n      swap3\n      swap2\n      pop\n      pop\n      jump\t// out\n        /* \"#utility.yul\":3624:3742   */\n    tag_274:\n        /* \"#utility.yul\":3711:3735   */\n      tag_347\n        /* \"#utility.yul\":3729:3734   */\n      dup2\n        /* \"#utility.yul\":3711:3735   */\n      tag_264\n      jump\t// in\n    tag_347:\n        /* \"#utility.yul\":3706:3709   */\n      dup3\n        /* \"#utility.yul\":3699:3736   */\n      mstore\n        /* \"#utility.yul\":3624:3742   */\n      pop\n      pop\n      jump\t// out\n        /* \"#utility.yul\":3748:3970   */\n    tag_66:\n        /* \"#utility.yul\":3841:3845   */\n      0x00\n        /* \"#utility.yul\":3879:3881   */\n      0x20\n        /* \"#utility.yul\":3868:3877   */\n      dup3\n        /* \"#utility.yul\":3864:3882   */\n      add\n        /* \"#utility.yul\":3856:3882   */\n      swap1\n      pop\n        /* \"#utility.yul\":3892:3963   */\n      tag_349\n        /* \"#utility.yul\":3960:3961   */\n      0x00\n        /* \"#utility.yul\":3949:3958   */\n      dup4\n        /* \"#utility.yul\":3945:3962   */\n      add\n        /* \"#utility.yul\":3936:3942   */\n      dup5\n        /* \"#utility.yul\":3892:3963   */\n      tag_274\n      jump\t// in\n    tag_349:\n        /* \"#utility.yul\":3748:3970   */\n      swap3\n      swap2\n      pop\n      pop\n      jump\t// out\n        /* \"#utility.yul\":3976:4066   */\n    tag_275:\n        /* \"#utility.yul\":4010:4017   */\n      0x00\n        /* \"#utility.yul\":4053:4058   */\n      dup2\n        /* \"#utility.yul\":4046:4059   */\n      iszero\n        /* \"#utility.yul\":4039:4060   */\n      iszero\n        /* \"#utility.yul\":4028:4060   */\n      swap1\n      pop\n        /* \"#utility.yul\":3976:4066   */\n      swap2\n      swap1\n      pop\n      jump\t// out\n        /* \"#utility.yul\":4072:4181   */\n    tag_276:\n        /* \"#utility.yul\":4153:4174   */\n      tag_352\n        /* \"#utility.yul\":4168:4173   */\n      dup2\n        /* \"#utility.yul\":4153:4174   */\n      tag_275\n      jump\t// in\n    tag_352:\n        /* \"#utility.yul\":4148:4151   */\n      dup3\n        /* \"#utility.yul\":4141:4175   */\n      mstore\n        /* \"#utility.yul\":4072:4181   */\n      pop\n      pop\n      jump\t// out\n        /* \"#utility.yul\":4187:4397   */\n    tag_88:\n        /* \"#utility.yul\":4274:4278   */\n      0x00\n        /* \"#utility.yul\":4312:4314   */\n      0x20\n        /* \"#utility.yul\":4301:4310   */\n      dup3\n        /* \"#utility.yul\":4297:4315   */\n      add\n        /* \"#utility.yul\":4289:4315   */\n      swap1\n      pop\n        /* \"#utility.yul\":4325:4390   */\n      tag_354\n        /* \"#utility.yul\":4387:4388   */\n      0x00\n        /* \"#utility.yul\":4376:4385   */\n      dup4\n        /* \"#utility.yul\":4372:4389   */\n      add\n        /* \"#utility.yul\":4363:4369   */\n      dup5\n        /* \"#utility.yul\":4325:4390   */\n      tag_276\n      jump\t// in\n    tag_354:\n        /* \"#utility.yul\":4187:4397   */\n      swap3\n      swap2\n      pop\n      pop\n      jump\t// out\n        /* \"#utility.yul\":4403:4525   */\n    tag_277:\n        /* \"#utility.yul\":4476:4500   */\n      tag_356\n        /* \"#utility.yul\":4494:4499   */\n      dup2\n        /* \"#utility.yul\":4476:4500   */\n      tag_264\n      jump\t// in\n    tag_356:\n        /* \"#utility.yul\":4469:4474   */\n      dup2\n        /* \"#utility.yul\":4466:4501   */\n      eq\n        /* \"#utility.yul\":4456:4519   */\n      tag_357\n      jumpi\n        /* \"#utility.yul\":4515:4516   */\n      0x00\n        /* \"#utility.yul\":4512:4513   */\n      dup1\n        /* \"#utility.yul\":4505:4517   */\n      revert\n        /* \"#utility.yul\":4456:4519   */\n    tag_357:\n        /* \"#utility.yul\":4403:4525   */\n      pop\n      jump\t// out\n        /* \"#utility.yul\":4531:4670   */\n    tag_278:\n        /* \"#utility.yul\":4577:4582   */\n      0x00\n        /* \"#utility.yul\":4615:4621   */\n      dup2\n        /* \"#utility.yul\":4602:4622   */\n      calldataload\n        /* \"#utility.yul\":4593:4622   */\n      swap1\n      pop\n        /* \"#utility.yul\":4631:4664   */\n      tag_359\n        /* \"#utility.yul\":4658:4663   */\n      dup2\n        /* \"#utility.yul\":4631:4664   */\n      tag_277\n      jump\t// in\n    tag_359:\n        /* \"#utility.yul\":4531:4670   */\n      swap3\n      swap2\n      pop\n      pop\n      jump\t// out\n        /* \"#utility.yul\":4676:5005   */\n    tag_107:\n        /* \"#utility.yul\":4735:4741   */\n      0x00\n        /* \"#utility.yul\":4784:4786   */\n      0x20\n        /* \"#utility.yul\":4772:4781   */\n      dup3\n        /* \"#utility.yul\":4763:4770   */\n      dup5\n        /* \"#utility.yul\":4759:4782   */\n      sub\n        /* \"#utility.yul\":4755:4787   */\n      slt\n        /* \"#utility.yul\":4752:4871   */\n      iszero\n      tag_361\n      jumpi\n        /* \"#utility.yul\":4790:4869   */\n      tag_362\n      tag_270\n      jump\t// in\n    tag_362:\n        /* \"#utility.yul\":4752:4871   */\n    tag_361:\n        /* \"#utility.yul\":4910:4911   */\n      0x00\n        /* \"#utility.yul\":4935:4988   */\n      tag_363\n        /* \"#utility.yul\":4980:4987   */\n      dup5\n        /* \"#utility.yul\":4971:4977   */\n      dup3\n        /* \"#utility.yul\":4960:4969   */\n      dup6\n        /* \"#utility.yul\":4956:4978   */\n      add\n        /* \"#utility.yul\":4935:4988   */\n      tag_278\n      jump\t// in\n    tag_363:\n        /* \"#utility.yul\":4925:4988   */\n      swap2\n      pop\n        /* \"#utility.yul\":4881:4998   */\n      pop\n        /* \"#utility.yul\":4676:5005   */\n      swap3\n      swap2\n      pop\n      pop\n      jump\t// out\n        /* \"#utility.yul\":5011:5180   */\n    tag_279:\n        /* \"#utility.yul\":5095:5106   */\n      0x00\n        /* \"#utility.yul\":5129:5135   */\n      dup3\n        /* \"#utility.yul\":5124:5127   */\n      dup3\n        /* \"#utility.yul\":5117:5136   */\n      mstore\n        /* \"#utility.yul\":5169:5173   */\n      0x20\n        /* \"#utility.yul\":5164:5167   */\n      dup3\n        /* \"#utility.yul\":5160:5174   */\n      add\n        /* \"#utility.yul\":5145:5174   */\n      swap1\n      pop\n        /* \"#utility.yul\":5011:5180   */\n      swap3\n      swap2\n      pop\n      pop\n      jump\t// out\n        /* \"#utility.yul\":5186:5407   */\n    tag_280:\n        /* \"#utility.yul\":5326:5360   */\n      0x43616c6c6572206973206e6f7420746865206c6f7474657279206f7065726174\n        /* \"#utility.yul\":5322:5323   */\n      0x00\n        /* \"#utility.yul\":5314:5320   */\n      dup3\n        /* \"#utility.yul\":5310:5324   */\n      add\n        /* \"#utility.yul\":5303:5361   */\n      mstore\n        /* \"#utility.yul\":5395:5399   */\n      0x6f72000000000000000000000000000000000000000000000000000000000000\n        /* \"#utility.yul\":5390:5392   */\n      0x20\n        /* \"#utility.yul\":5382:5388   */\n      dup3\n        /* \"#utility.yul\":5378:5393   */\n      add\n        /* \"#utility.yul\":5371:5400   */\n      mstore\n        /* \"#utility.yul\":5186:5407   */\n      pop\n      jump\t// out\n        /* \"#utility.yul\":5413:5779   */\n    tag_281:\n        /* \"#utility.yul\":5555:5558   */\n      0x00\n        /* \"#utility.yul\":5576:5643   */\n      tag_367\n        /* \"#utility.yul\":5640:5642   */\n      0x22\n        /* \"#utility.yul\":5635:5638   */\n      dup4\n        /* \"#utility.yul\":5576:5643   */\n      tag_279\n      jump\t// in\n    tag_367:\n        /* \"#utility.yul\":5569:5643   */\n      swap2\n      pop\n        /* \"#utility.yul\":5652:5745   */\n      tag_368\n        /* \"#utility.yul\":5741:5744   */\n      dup3\n        /* \"#utility.yul\":5652:5745   */\n      tag_280\n      jump\t// in\n    tag_368:\n        /* \"#utility.yul\":5770:5772   */\n      0x40\n        /* \"#utility.yul\":5765:5768   */\n      dup3\n        /* \"#utility.yul\":5761:5773   */\n      add\n        /* \"#utility.yul\":5754:5773   */\n      swap1\n      pop\n        /* \"#utility.yul\":5413:5779   */\n      swap2\n      swap1\n      pop\n      jump\t// out\n        /* \"#utility.yul\":5785:6204   */\n    tag_126:\n        /* \"#utility.yul\":5951:5955   */\n      0x00\n        /* \"#utility.yul\":5989:5991   */\n      0x20\n        /* \"#utility.yul\":5978:5987   */\n      dup3\n        /* \"#utility.yul\":5974:5992   */\n      add\n        /* \"#utility.yul\":5966:5992   */\n      swap1\n      pop\n        /* \"#utility.yul\":6038:6047   */\n      dup2\n        /* \"#utility.yul\":6032:6036   */\n      dup2\n        /* \"#utility.yul\":6028:6048   */\n      sub\n        /* \"#utility.yul\":6024:6025   */\n      0x00\n        /* \"#utility.yul\":6013:6022   */\n      dup4\n        /* \"#utility.yul\":6009:6026   */\n      add\n        /* \"#utility.yul\":6002:6049   */\n      mstore\n        /* \"#utility.yul\":6066:6197   */\n      tag_370\n        /* \"#utility.yul\":6192:6196   */\n      dup2\n        /* \"#utility.yul\":6066:6197   */\n      tag_281\n      jump\t// in\n    tag_370:\n        /* \"#utility.yul\":6058:6197   */\n      swap1\n      pop\n        /* \"#utility.yul\":5785:6204   */\n      swap2\n      swap1\n      pop\n      jump\t// out\n        /* \"#utility.yul\":6210:6385   */\n    tag_282:\n        /* \"#utility.yul\":6350:6377   */\n      0x4e6f207469636b65747320776572652070757263686173656400000000000000\n        /* \"#utility.yul\":6346:6347   */\n      0x00\n        /* \"#utility.yul\":6338:6344   */\n      dup3\n        /* \"#utility.yul\":6334:6348   */\n      add\n        /* \"#utility.yul\":6327:6378   */\n      mstore\n        /* \"#utility.yul\":6210:6385   */\n      pop\n      jump\t// out\n        /* \"#utility.yul\":6391:6757   */\n    tag_283:\n        /* \"#utility.yul\":6533:6536   */\n      0x00\n        /* \"#utility.yul\":6554:6621   */\n      tag_373\n        /* \"#utility.yul\":6618:6620   */\n      0x19\n        /* \"#utility.yul\":6613:6616   */\n      dup4\n        /* \"#utility.yul\":6554:6621   */\n      tag_279\n      jump\t// in\n    tag_373:\n        /* \"#utility.yul\":6547:6621   */\n      swap2\n      pop\n        /* \"#utility.yul\":6630:6723   */\n      tag_374\n        /* \"#utility.yul\":6719:6722   */\n      dup3\n        /* \"#utility.yul\":6630:6723   */\n      tag_282\n      jump\t// in\n    tag_374:\n        /* \"#utility.yul\":6748:6750   */\n      0x20\n        /* \"#utility.yul\":6743:6746   */\n      dup3\n        /* \"#utility.yul\":6739:6751   */\n      add\n        /* \"#utility.yul\":6732:6751   */\n      swap1\n      pop\n        /* \"#utility.yul\":6391:6757   */\n      swap2\n      swap1\n      pop\n      jump\t// out\n        /* \"#utility.yul\":6763:7182   */\n    tag_136:\n        /* \"#utility.yul\":6929:6933   */\n      0x00\n        /* \"#utility.yul\":6967:6969   */\n      0x20\n        /* \"#utility.yul\":6956:6965   */\n      dup3\n        /* \"#utility.yul\":6952:6970   */\n      add\n        /* \"#utility.yul\":6944:6970   */\n      swap1\n      pop\n        /* \"#utility.yul\":7016:7025   */\n      dup2\n        /* \"#utility.yul\":7010:7014   */\n      dup2\n        /* \"#utility.yul\":7006:7026   */\n      sub\n        /* \"#utility.yul\":7002:7003   */\n      0x00\n        /* \"#utility.yul\":6991:7000   */\n      dup4\n        /* \"#utility.yul\":6987:7004   */\n      add\n        /* \"#utility.yul\":6980:7027   */\n      mstore\n        /* \"#utility.yul\":7044:7175   */\n      tag_376\n        /* \"#utility.yul\":7170:7174   */\n      dup2\n        /* \"#utility.yul\":7044:7175   */\n      tag_283\n      jump\t// in\n    tag_376:\n        /* \"#utility.yul\":7036:7175   */\n      swap1\n      pop\n        /* \"#utility.yul\":6763:7182   */\n      swap2\n      swap1\n      pop\n      jump\t// out\n        /* \"#utility.yul\":7188:7368   */\n    tag_284:\n        /* \"#utility.yul\":7236:7313   */\n      0x4e487b7100000000000000000000000000000000000000000000000000000000\n        /* \"#utility.yul\":7233:7234   */\n      0x00\n        /* \"#utility.yul\":7226:7314   */\n      mstore\n        /* \"#utility.yul\":7333:7337   */\n      0x11\n        /* \"#utility.yul\":7330:7331   */\n      0x04\n        /* \"#utility.yul\":7323:7338   */\n      mstore\n        /* \"#utility.yul\":7357:7361   */\n      0x24\n        /* \"#utility.yul\":7354:7355   */\n      0x00\n        /* \"#utility.yul\":7347:7362   */\n      revert\n        /* \"#utility.yul\":7374:7568   */\n    tag_138:\n        /* \"#utility.yul\":7414:7418   */\n      0x00\n        /* \"#utility.yul\":7434:7454   */\n      tag_379\n        /* \"#utility.yul\":7452:7453   */\n      dup3\n        /* \"#utility.yul\":7434:7454   */\n      tag_258\n      jump\t// in\n    tag_379:\n        /* \"#utility.yul\":7429:7454   */\n      swap2\n      pop\n        /* \"#utility.yul\":7468:7488   */\n      tag_380\n        /* \"#utility.yul\":7486:7487   */\n      dup4\n        /* \"#utility.yul\":7468:7488   */\n      tag_258\n      jump\t// in\n    tag_380:\n        /* \"#utility.yul\":7463:7488   */\n      swap3\n      pop\n        /* \"#utility.yul\":7512:7513   */\n      dup3\n        /* \"#utility.yul\":7509:7510   */\n      dup3\n        /* \"#utility.yul\":7505:7514   */\n      sub\n        /* \"#utility.yul\":7497:7514   */\n      swap1\n      pop\n        /* \"#utility.yul\":7536:7537   */\n      dup2\n        /* \"#utility.yul\":7530:7534   */\n      dup2\n        /* \"#utility.yul\":7527:7538   */\n      gt\n        /* \"#utility.yul\":7524:7561   */\n      iszero\n      tag_381\n      jumpi\n        /* \"#utility.yul\":7541:7559   */\n      tag_382\n      tag_284\n      jump\t// in\n    tag_382:\n        /* \"#utility.yul\":7524:7561   */\n    tag_381:\n        /* \"#utility.yul\":7374:7568   */\n      swap3\n      swap2\n      pop\n      pop\n      jump\t// out\n        /* \"#utility.yul\":7574:7653   */\n    tag_285:\n        /* \"#utility.yul\":7613:7620   */\n      0x00\n        /* \"#utility.yul\":7642:7647   */\n      dup2\n        /* \"#utility.yul\":7631:7647   */\n      swap1\n      pop\n        /* \"#utility.yul\":7574:7653   */\n      swap2\n      swap1\n      pop\n      jump\t// out\n        /* \"#utility.yul\":7659:7816   */\n    tag_286:\n        /* \"#utility.yul\":7764:7809   */\n      tag_385\n        /* \"#utility.yul\":7784:7808   */\n      tag_386\n        /* \"#utility.yul\":7802:7807   */\n      dup3\n        /* \"#utility.yul\":7784:7808   */\n      tag_258\n      jump\t// in\n    tag_386:\n        /* \"#utility.yul\":7764:7809   */\n      tag_285\n      jump\t// in\n    tag_385:\n        /* \"#utility.yul\":7759:7762   */\n      dup3\n        /* \"#utility.yul\":7752:7810   */\n      mstore\n        /* \"#utility.yul\":7659:7816   */\n      pop\n      pop\n      jump\t// out\n        /* \"#utility.yul\":7822:7899   */\n    tag_287:\n        /* \"#utility.yul\":7859:7866   */\n      0x00\n        /* \"#utility.yul\":7888:7893   */\n      dup2\n        /* \"#utility.yul\":7877:7893   */\n      swap1\n      pop\n        /* \"#utility.yul\":7822:7899   */\n      swap2\n      swap1\n      pop\n      jump\t// out\n        /* \"#utility.yul\":7905:7984   */\n    tag_288:\n        /* \"#utility.yul\":7944:7951   */\n      0x00\n        /* \"#utility.yul\":7973:7978   */\n      dup2\n        /* \"#utility.yul\":7962:7978   */\n      swap1\n      pop\n        /* \"#utility.yul\":7905:7984   */\n      swap2\n      swap1\n      pop\n      jump\t// out\n        /* \"#utility.yul\":7990:8147   */\n    tag_289:\n        /* \"#utility.yul\":8095:8140   */\n      tag_390\n        /* \"#utility.yul\":8115:8139   */\n      tag_391\n        /* \"#utility.yul\":8133:8138   */\n      dup3\n        /* \"#utility.yul\":8115:8139   */\n      tag_287\n      jump\t// in\n    tag_391:\n        /* \"#utility.yul\":8095:8140   */\n      tag_288\n      jump\t// in\n    tag_390:\n        /* \"#utility.yul\":8090:8093   */\n      dup3\n        /* \"#utility.yul\":8083:8141   */\n      mstore\n        /* \"#utility.yul\":7990:8147   */\n      pop\n      pop\n      jump\t// out\n        /* \"#utility.yul\":8153:8550   */\n    tag_140:\n        /* \"#utility.yul\":8293:8296   */\n      0x00\n        /* \"#utility.yul\":8308:8383   */\n      tag_393\n        /* \"#utility.yul\":8379:8382   */\n      dup3\n        /* \"#utility.yul\":8370:8376   */\n      dup6\n        /* \"#utility.yul\":8308:8383   */\n      tag_286\n      jump\t// in\n    tag_393:\n        /* \"#utility.yul\":8408:8410   */\n      0x20\n        /* \"#utility.yul\":8403:8406   */\n      dup3\n        /* \"#utility.yul\":8399:8411   */\n      add\n        /* \"#utility.yul\":8392:8411   */\n      swap2\n      pop\n        /* \"#utility.yul\":8421:8496   */\n      tag_394\n        /* \"#utility.yul\":8492:8495   */\n      dup3\n        /* \"#utility.yul\":8483:8489   */\n      dup5\n        /* \"#utility.yul\":8421:8496   */\n      tag_289\n      jump\t// in\n    tag_394:\n        /* \"#utility.yul\":8521:8523   */\n      0x20\n        /* \"#utility.yul\":8516:8519   */\n      dup3\n        /* \"#utility.yul\":8512:8524   */\n      add\n        /* \"#utility.yul\":8505:8524   */\n      swap2\n      pop\n        /* \"#utility.yul\":8541:8544   */\n      dup2\n        /* \"#utility.yul\":8534:8544   */\n      swap1\n      pop\n        /* \"#utility.yul\":8153:8550   */\n      swap4\n      swap3\n      pop\n      pop\n      pop\n      jump\t// out\n        /* \"#utility.yul\":8556:8736   */\n    tag_231:\n        /* \"#utility.yul\":8604:8681   */\n      0x4e487b7100000000000000000000000000000000000000000000000000000000\n        /* \"#utility.yul\":8601:8602   */\n      0x00\n        /* \"#utility.yul\":8594:8682   */\n      mstore\n        /* \"#utility.yul\":8701:8705   */\n      0x12\n        /* \"#utility.yul\":8698:8699   */\n      0x04\n        /* \"#utility.yul\":8691:8706   */\n      mstore\n        /* \"#utility.yul\":8725:8729   */\n      0x24\n        /* \"#utility.yul\":8722:8723   */\n      0x00\n        /* \"#utility.yul\":8715:8730   */\n      revert\n        /* \"#utility.yul\":8742:8918   */\n    tag_142:\n        /* \"#utility.yul\":8774:8775   */\n      0x00\n        /* \"#utility.yul\":8791:8811   */\n      tag_397\n        /* \"#utility.yul\":8809:8810   */\n      dup3\n        /* \"#utility.yul\":8791:8811   */\n      tag_258\n      jump\t// in\n    tag_397:\n        /* \"#utility.yul\":8786:8811   */\n      swap2\n      pop\n        /* \"#utility.yul\":8825:8845   */\n      tag_398\n        /* \"#utility.yul\":8843:8844   */\n      dup4\n        /* \"#utility.yul\":8825:8845   */\n      tag_258\n      jump\t// in\n    tag_398:\n        /* \"#utility.yul\":8820:8845   */\n      swap3\n      pop\n        /* \"#utility.yul\":8864:8865   */\n      dup3\n        /* \"#utility.yul\":8854:8889   */\n      tag_399\n      jumpi\n        /* \"#utility.yul\":8869:8887   */\n      tag_400\n      tag_231\n      jump\t// in\n    tag_400:\n        /* \"#utility.yul\":8854:8889   */\n    tag_399:\n        /* \"#utility.yul\":8910:8911   */\n      dup3\n        /* \"#utility.yul\":8907:8908   */\n      dup3\n        /* \"#utility.yul\":8903:8912   */\n      mod\n        /* \"#utility.yul\":8898:8912   */\n      swap1\n      pop\n        /* \"#utility.yul\":8742:8918   */\n      swap3\n      swap2\n      pop\n      pop\n      jump\t// out\n        /* \"#utility.yul\":8924:9104   */\n    tag_145:\n        /* \"#utility.yul\":8972:9049   */\n      0x4e487b7100000000000000000000000000000000000000000000000000000000\n        /* \"#utility.yul\":8969:8970   */\n      0x00\n        /* \"#utility.yul\":8962:9050   */\n      mstore\n        /* \"#utility.yul\":9069:9073   */\n      0x32\n        /* \"#utility.yul\":9066:9067   */\n      0x04\n        /* \"#utility.yul\":9059:9074   */\n      mstore\n        /* \"#utility.yul\":9093:9097   */\n      0x24\n        /* \"#utility.yul\":9090:9091   */\n      0x00\n        /* \"#utility.yul\":9083:9098   */\n      revert\n        /* \"#utility.yul\":9110:9520   */\n    tag_149:\n        /* \"#utility.yul\":9150:9157   */\n      0x00\n        /* \"#utility.yul\":9173:9193   */\n      tag_403\n        /* \"#utility.yul\":9191:9192   */\n      dup3\n        /* \"#utility.yul\":9173:9193   */\n      tag_258\n      jump\t// in\n    tag_403:\n        /* \"#utility.yul\":9168:9193   */\n      swap2\n      pop\n        /* \"#utility.yul\":9207:9227   */\n      tag_404\n        /* \"#utility.yul\":9225:9226   */\n      dup4\n        /* \"#utility.yul\":9207:9227   */\n      tag_258\n      jump\t// in\n    tag_404:\n        /* \"#utility.yul\":9202:9227   */\n      swap3\n      pop\n        /* \"#utility.yul\":9262:9263   */\n      dup3\n        /* \"#utility.yul\":9259:9260   */\n      dup3\n        /* \"#utility.yul\":9255:9264   */\n      mul\n        /* \"#utility.yul\":9284:9314   */\n      tag_405\n        /* \"#utility.yul\":9302:9313   */\n      dup2\n        /* \"#utility.yul\":9284:9314   */\n      tag_258\n      jump\t// in\n    tag_405:\n        /* \"#utility.yul\":9273:9314   */\n      swap2\n      pop\n        /* \"#utility.yul\":9463:9464   */\n      dup3\n        /* \"#utility.yul\":9454:9461   */\n      dup3\n        /* \"#utility.yul\":9450:9465   */\n      div\n        /* \"#utility.yul\":9447:9448   */\n      dup5\n        /* \"#utility.yul\":9444:9466   */\n      eq\n        /* \"#utility.yul\":9424:9425   */\n      dup4\n        /* \"#utility.yul\":9417:9426   */\n      iszero\n        /* \"#utility.yul\":9397:9480   */\n      or\n        /* \"#utility.yul\":9374:9513   */\n      tag_406\n      jumpi\n        /* \"#utility.yul\":9493:9511   */\n      tag_407\n      tag_284\n      jump\t// in\n    tag_407:\n        /* \"#utility.yul\":9374:9513   */\n    tag_406:\n        /* \"#utility.yul\":9158:9520   */\n      pop\n        /* \"#utility.yul\":9110:9520   */\n      swap3\n      swap2\n      pop\n      pop\n      jump\t// out\n        /* \"#utility.yul\":9526:9717   */\n    tag_151:\n        /* \"#utility.yul\":9566:9569   */\n      0x00\n        /* \"#utility.yul\":9585:9605   */\n      tag_409\n        /* \"#utility.yul\":9603:9604   */\n      dup3\n        /* \"#utility.yul\":9585:9605   */\n      tag_258\n      jump\t// in\n    tag_409:\n        /* \"#utility.yul\":9580:9605   */\n      swap2\n      pop\n        /* \"#utility.yul\":9619:9639   */\n      tag_410\n        /* \"#utility.yul\":9637:9638   */\n      dup4\n        /* \"#utility.yul\":9619:9639   */\n      tag_258\n      jump\t// in\n    tag_410:\n        /* \"#utility.yul\":9614:9639   */\n      swap3\n      pop\n        /* \"#utility.yul\":9662:9663   */\n      dup3\n        /* \"#utility.yul\":9659:9660   */\n      dup3\n        /* \"#utility.yul\":9655:9664   */\n      add\n        /* \"#utility.yul\":9648:9664   */\n      swap1\n      pop\n        /* \"#utility.yul\":9683:9686   */\n      dup1\n        /* \"#utility.yul\":9680:9681   */\n      dup3\n        /* \"#utility.yul\":9677:9687   */\n      gt\n        /* \"#utility.yul\":9674:9710   */\n      iszero\n      tag_411\n      jumpi\n        /* \"#utility.yul\":9690:9708   */\n      tag_412\n      tag_284\n      jump\t// in\n    tag_412:\n        /* \"#utility.yul\":9674:9710   */\n    tag_411:\n        /* \"#utility.yul\":9526:9717   */\n      swap3\n      swap2\n      pop\n      pop\n      jump\t// out\n        /* \"#utility.yul\":9723:9895   */\n    tag_290:\n        /* \"#utility.yul\":9863:9887   */\n      0x43616c6c6572206973206e6f7420612077696e6e657200000000000000000000\n        /* \"#utility.yul\":9859:9860   */\n      0x00\n        /* \"#utility.yul\":9851:9857   */\n      dup3\n        /* \"#utility.yul\":9847:9861   */\n      add\n        /* \"#utility.yul\":9840:9888   */\n      mstore\n        /* \"#utility.yul\":9723:9895   */\n      pop\n      jump\t// out\n        /* \"#utility.yul\":9901:10267   */\n    tag_291:\n        /* \"#utility.yul\":10043:10046   */\n      0x00\n        /* \"#utility.yul\":10064:10131   */\n      tag_415\n        /* \"#utility.yul\":10128:10130   */\n      0x16\n        /* \"#utility.yul\":10123:10126   */\n      dup4\n        /* \"#utility.yul\":10064:10131   */\n      tag_279\n      jump\t// in\n    tag_415:\n        /* \"#utility.yul\":10057:10131   */\n      swap2\n      pop\n        /* \"#utility.yul\":10140:10233   */\n      tag_416\n        /* \"#utility.yul\":10229:10232   */\n      dup3\n        /* \"#utility.yul\":10140:10233   */\n      tag_290\n      jump\t// in\n    tag_416:\n        /* \"#utility.yul\":10258:10260   */\n      0x20\n        /* \"#utility.yul\":10253:10256   */\n      dup3\n        /* \"#utility.yul\":10249:10261   */\n      add\n        /* \"#utility.yul\":10242:10261   */\n      swap1\n      pop\n        /* \"#utility.yul\":9901:10267   */\n      swap2\n      swap1\n      pop\n      jump\t// out\n        /* \"#utility.yul\":10273:10692   */\n    tag_166:\n        /* \"#utility.yul\":10439:10443   */\n      0x00\n        /* \"#utility.yul\":10477:10479   */\n      0x20\n        /* \"#utility.yul\":10466:10475   */\n      dup3\n        /* \"#utility.yul\":10462:10480   */\n      add\n        /* \"#utility.yul\":10454:10480   */\n      swap1\n      pop\n        /* \"#utility.yul\":10526:10535   */\n      dup2\n        /* \"#utility.yul\":10520:10524   */\n      dup2\n        /* \"#utility.yul\":10516:10536   */\n      sub\n        /* \"#utility.yul\":10512:10513   */\n      0x00\n        /* \"#utility.yul\":10501:10510   */\n      dup4\n        /* \"#utility.yul\":10497:10514   */\n      add\n        /* \"#utility.yul\":10490:10537   */\n      mstore\n        /* \"#utility.yul\":10554:10685   */\n      tag_418\n        /* \"#utility.yul\":10680:10684   */\n      dup2\n        /* \"#utility.yul\":10554:10685   */\n      tag_291\n      jump\t// in\n    tag_418:\n        /* \"#utility.yul\":10546:10685   */\n      swap1\n      pop\n        /* \"#utility.yul\":10273:10692   */\n      swap2\n      swap1\n      pop\n      jump\t// out\n        /* \"#utility.yul\":10698:10906   */\n    tag_292:\n        /* \"#utility.yul\":10867:10899   */\n      0x7468652076616c7565206d757374206265206d756c7469706c65206f66200000\n        /* \"#utility.yul\":10862:10865   */\n      dup2\n        /* \"#utility.yul\":10855:10900   */\n      mstore\n        /* \"#utility.yul\":10698:10906   */\n      pop\n      jump\t// out\n        /* \"#utility.yul\":10912:11011   */\n    tag_293:\n        /* \"#utility.yul\":10964:10970   */\n      0x00\n        /* \"#utility.yul\":10998:11003   */\n      dup2\n        /* \"#utility.yul\":10992:11004   */\n      mload\n        /* \"#utility.yul\":10982:11004   */\n      swap1\n      pop\n        /* \"#utility.yul\":10912:11011   */\n      swap2\n      swap1\n      pop\n      jump\t// out\n        /* \"#utility.yul\":11017:11165   */\n    tag_294:\n        /* \"#utility.yul\":11119:11130   */\n      0x00\n        /* \"#utility.yul\":11156:11159   */\n      dup2\n        /* \"#utility.yul\":11141:11159   */\n      swap1\n      pop\n        /* \"#utility.yul\":11017:11165   */\n      swap3\n      swap2\n      pop\n      pop\n      jump\t// out\n        /* \"#utility.yul\":11171:11310   */\n    tag_295:\n        /* \"#utility.yul\":11260:11266   */\n      dup3\n        /* \"#utility.yul\":11255:11258   */\n      dup2\n        /* \"#utility.yul\":11250:11253   */\n      dup4\n        /* \"#utility.yul\":11244:11267   */\n      mcopy\n        /* \"#utility.yul\":11301:11302   */\n      0x00\n        /* \"#utility.yul\":11292:11298   */\n      dup4\n        /* \"#utility.yul\":11287:11290   */\n      dup4\n        /* \"#utility.yul\":11283:11299   */\n      add\n        /* \"#utility.yul\":11276:11303   */\n      mstore\n        /* \"#utility.yul\":11171:11310   */\n      pop\n      pop\n      pop\n      jump\t// out\n        /* \"#utility.yul\":11316:11706   */\n    tag_296:\n        /* \"#utility.yul\":11422:11425   */\n      0x00\n        /* \"#utility.yul\":11450:11489   */\n      tag_424\n        /* \"#utility.yul\":11483:11488   */\n      dup3\n        /* \"#utility.yul\":11450:11489   */\n      tag_293\n      jump\t// in\n    tag_424:\n        /* \"#utility.yul\":11505:11594   */\n      tag_425\n        /* \"#utility.yul\":11587:11593   */\n      dup2\n        /* \"#utility.yul\":11582:11585   */\n      dup6\n        /* \"#utility.yul\":11505:11594   */\n      tag_294\n      jump\t// in\n    tag_425:\n        /* \"#utility.yul\":11498:11594   */\n      swap4\n      pop\n        /* \"#utility.yul\":11603:11668   */\n      tag_426\n        /* \"#utility.yul\":11661:11667   */\n      dup2\n        /* \"#utility.yul\":11656:11659   */\n      dup6\n        /* \"#utility.yul\":11649:11653   */\n      0x20\n        /* \"#utility.yul\":11642:11647   */\n      dup7\n        /* \"#utility.yul\":11638:11654   */\n      add\n        /* \"#utility.yul\":11603:11668   */\n      tag_295\n      jump\t// in\n    tag_426:\n        /* \"#utility.yul\":11693:11699   */\n      dup1\n        /* \"#utility.yul\":11688:11691   */\n      dup5\n        /* \"#utility.yul\":11684:11700   */\n      add\n        /* \"#utility.yul\":11677:11700   */\n      swap2\n      pop\n        /* \"#utility.yul\":11426:11706   */\n      pop\n        /* \"#utility.yul\":11316:11706   */\n      swap3\n      swap2\n      pop\n      pop\n      jump\t// out\n        /* \"#utility.yul\":11712:11895   */\n    tag_297:\n        /* \"#utility.yul\":11880:11888   */\n      0x2045746865720000000000000000000000000000000000000000000000000000\n        /* \"#utility.yul\":11875:11878   */\n      dup2\n        /* \"#utility.yul\":11868:11889   */\n      mstore\n        /* \"#utility.yul\":11712:11895   */\n      pop\n      jump\t// out\n        /* \"#utility.yul\":11901:12707   */\n    tag_175:\n        /* \"#utility.yul\":12214:12217   */\n      0x00\n        /* \"#utility.yul\":12229:12367   */\n      tag_429\n        /* \"#utility.yul\":12363:12366   */\n      dup3\n        /* \"#utility.yul\":12229:12367   */\n      tag_292\n      jump\t// in\n    tag_429:\n        /* \"#utility.yul\":12392:12394   */\n      0x1e\n        /* \"#utility.yul\":12387:12390   */\n      dup3\n        /* \"#utility.yul\":12383:12395   */\n      add\n        /* \"#utility.yul\":12376:12395   */\n      swap2\n      pop\n        /* \"#utility.yul\":12412:12507   */\n      tag_430\n        /* \"#utility.yul\":12503:12506   */\n      dup3\n        /* \"#utility.yul\":12494:12500   */\n      dup5\n        /* \"#utility.yul\":12412:12507   */\n      tag_296\n      jump\t// in\n    tag_430:\n        /* \"#utility.yul\":12405:12507   */\n      swap2\n      pop\n        /* \"#utility.yul\":12517:12654   */\n      tag_431\n        /* \"#utility.yul\":12650:12653   */\n      dup3\n        /* \"#utility.yul\":12517:12654   */\n      tag_297\n      jump\t// in\n    tag_431:\n        /* \"#utility.yul\":12679:12680   */\n      0x06\n        /* \"#utility.yul\":12674:12677   */\n      dup3\n        /* \"#utility.yul\":12670:12681   */\n      add\n        /* \"#utility.yul\":12663:12681   */\n      swap2\n      pop\n        /* \"#utility.yul\":12698:12701   */\n      dup2\n        /* \"#utility.yul\":12691:12701   */\n      swap1\n      pop\n        /* \"#utility.yul\":11901:12707   */\n      swap3\n      swap2\n      pop\n      pop\n      jump\t// out\n        /* \"#utility.yul\":12713:12815   */\n    tag_298:\n        /* \"#utility.yul\":12754:12760   */\n      0x00\n        /* \"#utility.yul\":12805:12807   */\n      0x1f\n        /* \"#utility.yul\":12801:12808   */\n      not\n        /* \"#utility.yul\":12796:12798   */\n      0x1f\n        /* \"#utility.yul\":12789:12794   */\n      dup4\n        /* \"#utility.yul\":12785:12799   */\n      add\n        /* \"#utility.yul\":12781:12809   */\n      and\n        /* \"#utility.yul\":12771:12809   */\n      swap1\n      pop\n        /* \"#utility.yul\":12713:12815   */\n      swap2\n      swap1\n      pop\n      jump\t// out\n        /* \"#utility.yul\":12821:13198   */\n    tag_299:\n        /* \"#utility.yul\":12909:12912   */\n      0x00\n        /* \"#utility.yul\":12937:12976   */\n      tag_434\n        /* \"#utility.yul\":12970:12975   */\n      dup3\n        /* \"#utility.yul\":12937:12976   */\n      tag_293\n      jump\t// in\n    tag_434:\n        /* \"#utility.yul\":12992:13063   */\n      tag_435\n        /* \"#utility.yul\":13056:13062   */\n      dup2\n        /* \"#utility.yul\":13051:13054   */\n      dup6\n        /* \"#utility.yul\":12992:13063   */\n      tag_279\n      jump\t// in\n    tag_435:\n        /* \"#utility.yul\":12985:13063   */\n      swap4\n      pop\n        /* \"#utility.yul\":13072:13137   */\n      tag_436\n        /* \"#utility.yul\":13130:13136   */\n      dup2\n        /* \"#utility.yul\":13125:13128   */\n      dup6\n        /* \"#utility.yul\":13118:13122   */\n      0x20\n        /* \"#utility.yul\":13111:13116   */\n      dup7\n        /* \"#utility.yul\":13107:13123   */\n      add\n        /* \"#utility.yul\":13072:13137   */\n      tag_295\n      jump\t// in\n    tag_436:\n        /* \"#utility.yul\":13162:13191   */\n      tag_437\n        /* \"#utility.yul\":13184:13190   */\n      dup2\n        /* \"#utility.yul\":13162:13191   */\n      tag_298\n      jump\t// in\n    tag_437:\n        /* \"#utility.yul\":13157:13160   */\n      dup5\n        /* \"#utility.yul\":13153:13192   */\n      add\n        /* \"#utility.yul\":13146:13192   */\n      swap2\n      pop\n        /* \"#utility.yul\":12913:13198   */\n      pop\n        /* \"#utility.yul\":12821:13198   */\n      swap3\n      swap2\n      pop\n      pop\n      jump\t// out\n        /* \"#utility.yul\":13204:13517   */\n    tag_178:\n        /* \"#utility.yul\":13317:13321   */\n      0x00\n        /* \"#utility.yul\":13355:13357   */\n      0x20\n        /* \"#utility.yul\":13344:13353   */\n      dup3\n        /* \"#utility.yul\":13340:13358   */\n      add\n        /* \"#utility.yul\":13332:13358   */\n      swap1\n      pop\n        /* \"#utility.yul\":13404:13413   */\n      dup2\n        /* \"#utility.yul\":13398:13402   */\n      dup2\n        /* \"#utility.yul\":13394:13414   */\n      sub\n        /* \"#utility.yul\":13390:13391   */\n      0x00\n        /* \"#utility.yul\":13379:13388   */\n      dup4\n        /* \"#utility.yul\":13375:13392   */\n      add\n        /* \"#utility.yul\":13368:13415   */\n      mstore\n        /* \"#utility.yul\":13432:13510   */\n      tag_439\n        /* \"#utility.yul\":13505:13509   */\n      dup2\n        /* \"#utility.yul\":13496:13502   */\n      dup5\n        /* \"#utility.yul\":13432:13510   */\n      tag_299\n      jump\t// in\n    tag_439:\n        /* \"#utility.yul\":13424:13510   */\n      swap1\n      pop\n        /* \"#utility.yul\":13204:13517   */\n      swap3\n      swap2\n      pop\n      pop\n      jump\t// out\n        /* \"#utility.yul\":13523:13708   */\n    tag_180:\n        /* \"#utility.yul\":13563:13564   */\n      0x00\n        /* \"#utility.yul\":13580:13600   */\n      tag_441\n        /* \"#utility.yul\":13598:13599   */\n      dup3\n        /* \"#utility.yul\":13580:13600   */\n      tag_258\n      jump\t// in\n    tag_441:\n        /* \"#utility.yul\":13575:13600   */\n      swap2\n      pop\n        /* \"#utility.yul\":13614:13634   */\n      tag_442\n        /* \"#utility.yul\":13632:13633   */\n      dup4\n        /* \"#utility.yul\":13614:13634   */\n      tag_258\n      jump\t// in\n    tag_442:\n        /* \"#utility.yul\":13609:13634   */\n      swap3\n      pop\n        /* \"#utility.yul\":13653:13654   */\n      dup3\n        /* \"#utility.yul\":13643:13678   */\n      tag_443\n      jumpi\n        /* \"#utility.yul\":13658:13676   */\n      tag_444\n      tag_231\n      jump\t// in\n    tag_444:\n        /* \"#utility.yul\":13643:13678   */\n    tag_443:\n        /* \"#utility.yul\":13700:13701   */\n      dup3\n        /* \"#utility.yul\":13697:13698   */\n      dup3\n        /* \"#utility.yul\":13693:13702   */\n      div\n        /* \"#utility.yul\":13688:13702   */\n      swap1\n      pop\n        /* \"#utility.yul\":13523:13708   */\n      swap3\n      swap2\n      pop\n      pop\n      jump\t// out\n        /* \"#utility.yul\":13714:13893   */\n    tag_300:\n        /* \"#utility.yul\":13854:13885   */\n      0x4e6f7420656e6f756768207469636b65747320617661696c61626c652e000000\n        /* \"#utility.yul\":13850:13851   */\n      0x00\n        /* \"#utility.yul\":13842:13848   */\n      dup3\n        /* \"#utility.yul\":13838:13852   */\n      add\n        /* \"#utility.yul\":13831:13886   */\n      mstore\n        /* \"#utility.yul\":13714:13893   */\n      pop\n      jump\t// out\n        /* \"#utility.yul\":13899:14265   */\n    tag_301:\n        /* \"#utility.yul\":14041:14044   */\n      0x00\n        /* \"#utility.yul\":14062:14129   */\n      tag_447\n        /* \"#utility.yul\":14126:14128   */\n      0x1d\n        /* \"#utility.yul\":14121:14124   */\n      dup4\n        /* \"#utility.yul\":14062:14129   */\n      tag_279\n      jump\t// in\n    tag_447:\n        /* \"#utility.yul\":14055:14129   */\n      swap2\n      pop\n        /* \"#utility.yul\":14138:14231   */\n      tag_448\n        /* \"#utility.yul\":14227:14230   */\n      dup3\n        /* \"#utility.yul\":14138:14231   */\n      tag_300\n      jump\t// in\n    tag_448:\n        /* \"#utility.yul\":14256:14258   */\n      0x20\n        /* \"#utility.yul\":14251:14254   */\n      dup3\n        /* \"#utility.yul\":14247:14259   */\n      add\n        /* \"#utility.yul\":14240:14259   */\n      swap1\n      pop\n        /* \"#utility.yul\":13899:14265   */\n      swap2\n      swap1\n      pop\n      jump\t// out\n        /* \"#utility.yul\":14271:14690   */\n    tag_184:\n        /* \"#utility.yul\":14437:14441   */\n      0x00\n        /* \"#utility.yul\":14475:14477   */\n      0x20\n        /* \"#utility.yul\":14464:14473   */\n      dup3\n        /* \"#utility.yul\":14460:14478   */\n      add\n        /* \"#utility.yul\":14452:14478   */\n      swap1\n      pop\n        /* \"#utility.yul\":14524:14533   */\n      dup2\n        /* \"#utility.yul\":14518:14522   */\n      dup2\n        /* \"#utility.yul\":14514:14534   */\n      sub\n        /* \"#utility.yul\":14510:14511   */\n      0x00\n        /* \"#utility.yul\":14499:14508   */\n      dup4\n        /* \"#utility.yul\":14495:14512   */\n      add\n        /* \"#utility.yul\":14488:14535   */\n      mstore\n        /* \"#utility.yul\":14552:14683   */\n      tag_450\n        /* \"#utility.yul\":14678:14682   */\n      dup2\n        /* \"#utility.yul\":14552:14683   */\n      tag_301\n      jump\t// in\n    tag_450:\n        /* \"#utility.yul\":14544:14683   */\n      swap1\n      pop\n        /* \"#utility.yul\":14271:14690   */\n      swap2\n      swap1\n      pop\n      jump\t// out\n        /* \"#utility.yul\":14696:14873   */\n    tag_302:\n        /* \"#utility.yul\":14836:14865   */\n      0x746865206c6f7474657279206e6f742065787069726564207965740000000000\n        /* \"#utility.yul\":14832:14833   */\n      0x00\n        /* \"#utility.yul\":14824:14830   */\n      dup3\n        /* \"#utility.yul\":14820:14834   */\n      add\n        /* \"#utility.yul\":14813:14866   */\n      mstore\n        /* \"#utility.yul\":14696:14873   */\n      pop\n      jump\t// out\n        /* \"#utility.yul\":14879:15245   */\n    tag_303:\n        /* \"#utility.yul\":15021:15024   */\n      0x00\n        /* \"#utility.yul\":15042:15109   */\n      tag_453\n        /* \"#utility.yul\":15106:15108   */\n      0x1b\n        /* \"#utility.yul\":15101:15104   */\n      dup4\n        /* \"#utility.yul\":15042:15109   */\n      tag_279\n      jump\t// in\n    tag_453:\n        /* \"#utility.yul\":15035:15109   */\n      swap2\n      pop\n        /* \"#utility.yul\":15118:15211   */\n      tag_454\n        /* \"#utility.yul\":15207:15210   */\n      dup3\n        /* \"#utility.yul\":15118:15211   */\n      tag_302\n      jump\t// in\n    tag_454:\n        /* \"#utility.yul\":15236:15238   */\n      0x20\n        /* \"#utility.yul\":15231:15234   */\n      dup3\n        /* \"#utility.yul\":15227:15239   */\n      add\n        /* \"#utility.yul\":15220:15239   */\n      swap1\n      pop\n        /* \"#utility.yul\":14879:15245   */\n      swap2\n      swap1\n      pop\n      jump\t// out\n        /* \"#utility.yul\":15251:15670   */\n    tag_195:\n        /* \"#utility.yul\":15417:15421   */\n      0x00\n        /* \"#utility.yul\":15455:15457   */\n      0x20\n        /* \"#utility.yul\":15444:15453   */\n      dup3\n        /* \"#utility.yul\":15440:15458   */\n      add\n        /* \"#utility.yul\":15432:15458   */\n      swap1\n      pop\n        /* \"#utility.yul\":15504:15513   */\n      dup2\n        /* \"#utility.yul\":15498:15502   */\n      dup2\n        /* \"#utility.yul\":15494:15514   */\n      sub\n        /* \"#utility.yul\":15490:15491   */\n      0x00\n        /* \"#utility.yul\":15479:15488   */\n      dup4\n        /* \"#utility.yul\":15475:15492   */\n      add\n        /* \"#utility.yul\":15468:15515   */\n      mstore\n        /* \"#utility.yul\":15532:15663   */\n      tag_456\n        /* \"#utility.yul\":15658:15662   */\n      dup2\n        /* \"#utility.yul\":15532:15663   */\n      tag_303\n      jump\t// in\n    tag_456:\n        /* \"#utility.yul\":15524:15663   */\n      swap1\n      pop\n        /* \"#utility.yul\":15251:15670   */\n      swap2\n      swap1\n      pop\n      jump\t// out\n        /* \"#utility.yul\":15676:15901   */\n    tag_304:\n        /* \"#utility.yul\":15816:15850   */\n      0x43616e6e6f742052657374617274204472617720617320447261772069732069\n        /* \"#utility.yul\":15812:15813   */\n      0x00\n        /* \"#utility.yul\":15804:15810   */\n      dup3\n        /* \"#utility.yul\":15800:15814   */\n      add\n        /* \"#utility.yul\":15793:15851   */\n      mstore\n        /* \"#utility.yul\":15885:15893   */\n      0x6e20706c61790000000000000000000000000000000000000000000000000000\n        /* \"#utility.yul\":15880:15882   */\n      0x20\n        /* \"#utility.yul\":15872:15878   */\n      dup3\n        /* \"#utility.yul\":15868:15883   */\n      add\n        /* \"#utility.yul\":15861:15894   */\n      mstore\n        /* \"#utility.yul\":15676:15901   */\n      pop\n      jump\t// out\n        /* \"#utility.yul\":15907:16273   */\n    tag_305:\n        /* \"#utility.yul\":16049:16052   */\n      0x00\n        /* \"#utility.yul\":16070:16137   */\n      tag_459\n        /* \"#utility.yul\":16134:16136   */\n      0x26\n        /* \"#utility.yul\":16129:16132   */\n      dup4\n        /* \"#utility.yul\":16070:16137   */\n      tag_279\n      jump\t// in\n    tag_459:\n        /* \"#utility.yul\":16063:16137   */\n      swap2\n      pop\n        /* \"#utility.yul\":16146:16239   */\n      tag_460\n        /* \"#utility.yul\":16235:16238   */\n      dup3\n        /* \"#utility.yul\":16146:16239   */\n      tag_304\n      jump\t// in\n    tag_460:\n        /* \"#utility.yul\":16264:16266   */\n      0x40\n        /* \"#utility.yul\":16259:16262   */\n      dup3\n        /* \"#utility.yul\":16255:16267   */\n      add\n        /* \"#utility.yul\":16248:16267   */\n      swap1\n      pop\n        /* \"#utility.yul\":15907:16273   */\n      swap2\n      swap1\n      pop\n      jump\t// out\n        /* \"#utility.yul\":16279:16698   */\n    tag_217:\n        /* \"#utility.yul\":16445:16449   */\n      0x00\n        /* \"#utility.yul\":16483:16485   */\n      0x20\n        /* \"#utility.yul\":16472:16481   */\n      dup3\n        /* \"#utility.yul\":16468:16486   */\n      add\n        /* \"#utility.yul\":16460:16486   */\n      swap1\n      pop\n        /* \"#utility.yul\":16532:16541   */\n      dup2\n        /* \"#utility.yul\":16526:16530   */\n      dup2\n        /* \"#utility.yul\":16522:16542   */\n      sub\n        /* \"#utility.yul\":16518:16519   */\n      0x00\n        /* \"#utility.yul\":16507:16516   */\n      dup4\n        /* \"#utility.yul\":16503:16520   */\n      add\n        /* \"#utility.yul\":16496:16543   */\n      mstore\n        /* \"#utility.yul\":16560:16691   */\n      tag_462\n        /* \"#utility.yul\":16686:16690   */\n      dup2\n        /* \"#utility.yul\":16560:16691   */\n      tag_305\n      jump\t// in\n    tag_462:\n        /* \"#utility.yul\":16552:16691   */\n      swap1\n      pop\n        /* \"#utility.yul\":16279:16698   */\n      swap2\n      swap1\n      pop\n      jump\t// out\n        /* \"#utility.yul\":16704:16884   */\n    tag_225:\n        /* \"#utility.yul\":16752:16829   */\n      0x4e487b7100000000000000000000000000000000000000000000000000000000\n        /* \"#utility.yul\":16749:16750   */\n      0x00\n        /* \"#utility.yul\":16742:16830   */\n      mstore\n        /* \"#utility.yul\":16849:16853   */\n      0x41\n        /* \"#utility.yul\":16846:16847   */\n      0x04\n        /* \"#utility.yul\":16839:16854   */\n      mstore\n        /* \"#utility.yul\":16873:16877   */\n      0x24\n        /* \"#utility.yul\":16870:16871   */\n      0x00\n        /* \"#utility.yul\":16863:16878   */\n      revert\n\n    auxdata: 0xa2646970667358221220cc5d8160548314803a52d076fc9a934d3b37261876fa69c770ecf6f167fc70e164736f6c63430008190033\n}\n",
				"bytecode": {
					"linkReferences": {},
					"object": "60806040525f6002553480156012575f80fd5b503360015f6101000a81548173ffffffffffffffffffffffffffffffffffffffff021916908373ffffffffffffffffffffffffffffffffffffffff16021790555061070842605f9190609e565b5f8190555060ca565b5f819050919050565b7f4e487b71000000000000000000000000000000000000000000000000000000005f52601160045260245ffd5b5f60a6826068565b915060af836068565b925082820190508082111560c45760c36071565b5b92915050565b611a8f806100d75f395ff3fe60806040526004361061013f575f3560e01c806371827b7b116100b5578063ba946d791161006e578063ba946d79146103af578063c6944fa0146103d9578063dd64e53414610403578063ea3a14991461043f578063f26132691461047b578063fe188184146104915761013f565b806371827b7b146102fb57806391d8b14e1461031157806393a563b51461031b57806396c85ef3146103455780639b8947031461036f578063a88f4672146103995761013f565b80634665096d116101075780634665096d146102015780634788af7c1461022b5780634ed026221461024157806350b447121461026b5780635a58acdd146102a75780636032a4f9146102d15761013f565b806306f7f3bf146101435780630789c6071461016d5780630fb5a6b4146101975780631209b1f6146101c157806335580df2146101eb575b5f80fd5b34801561014e575f80fd5b506101576104bb565b60405161016491906111fb565b60405180910390f35b348015610178575f80fd5b506101816104c1565b60405161018e91906111fb565b60405180910390f35b3480156101a2575f80fd5b506101ab61050f565b6040516101b891906111fb565b60405180910390f35b3480156101cc575f80fd5b506101d5610515565b6040516101e291906111fb565b60405180910390f35b3480156101f6575f80fd5b506101ff610520565b005b34801561020c575f80fd5b50610215610608565b60405161022291906111fb565b60405180910390f35b348015610236575f80fd5b5061023f61060d565b005b34801561024c575f80fd5b506102556108ce565b60405161026291906112fb565b60405180910390f35b348015610276575f80fd5b50610291600480360381019061028c9190611349565b610959565b60405161029e9190611383565b60405180910390f35b3480156102b2575f80fd5b506102bb610994565b6040516102c89190611383565b60405180910390f35b3480156102dc575f80fd5b506102e56109b9565b6040516102f291906111fb565b60405180910390f35b348015610306575f80fd5b5061030f6109c4565b005b610319610ada565b005b348015610326575f80fd5b5061032f610c3b565b60405161033c91906111fb565b60405180910390f35b348015610350575f80fd5b50610359610c53565b60405161036691906113b6565b60405180910390f35b34801561037a575f80fd5b50610383610c99565b60405161039091906111fb565b60405180910390f35b3480156103a4575f80fd5b506103ad610c9e565b005b3480156103ba575f80fd5b506103c3610df3565b6040516103d091906111fb565b60405180910390f35b3480156103e4575f80fd5b506103ed610df9565b6040516103fa91906111fb565b60405180910390f35b34801561040e575f80fd5b50610429600480360381019061042491906113f9565b610e17565b60405161043691906111fb565b60405180910390f35b34801561044a575f80fd5b50610465600480360381019061046091906113f9565b610e5d565b60405161047291906111fb565b60405180910390f35b348015610486575f80fd5b5061048f610e72565b005b34801561049c575f80fd5b506104a5610f6a565b6040516104b29190611383565b60405180910390f35b60045481565b5f803390505f60055f8373ffffffffffffffffffffffffffffffffffffffff1673ffffffffffffffffffffffffffffffffffffffff1681526020019081526020015f20549050809250505090565b61070881565b662386f26fc1000081565b60015f9054906101000a900473ffffffffffffffffffffffffffffffffffffffff1673ffffffffffffffffffffffffffffffffffffffff163373ffffffffffffffffffffffffffffffffffffffff16146105af576040517f08c379a00000000000000000000000000000000000000000000000000000000081526004016105a6906114a4565b60405180910390fd5b5f3390505f60025490505f6002819055508173ffffffffffffffffffffffffffffffffffffffff166108fc8290811502906040515f60405180830381858888f19350505050158015610603573d5f803e3d5ffd5b505050565b5f5481565b60015f9054906101000a900473ffffffffffffffffffffffffffffffffffffffff1673ffffffffffffffffffffffffffffffffffffffff163373ffffffffffffffffffffffffffffffffffffffff161461069c576040517f08c379a0000000000000000000000000000000000000000000000000000000008152600401610693906114a4565b60405180910390fd5b5f600680549050116106e3576040517f08c379a00000000000000000000000000000000000000000000000000000000081526004016106da9061150c565b60405180910390fd5b5f600680549050436106f59190611557565b4090505f428260405160200161070c9291906115d3565b604051602081830303815290604052805190602001205f1c90505f60068054905082610738919061162b565b90505f6006828154811061074f5761074e61165b565b5b905f5260205f20015f9054906101000a900473ffffffffffffffffffffffffffffffffffffffff1690508060035f6101000a81548173ffffffffffffffffffffffffffffffffffffffff021916908373ffffffffffffffffffffffffffffffffffffffff16021790555066038d7ea4c68000662386f26fc100006107d39190611557565b6006805490506107e39190611688565b60055f8373ffffffffffffffffffffffffffffffffffffffff1673ffffffffffffffffffffffffffffffffffffffff1681526020019081526020015f205f82825461082e91906116c9565b9250508190555060055f8273ffffffffffffffffffffffffffffffffffffffff1673ffffffffffffffffffffffffffffffffffffffff1681526020019081526020015f205460048190555066038d7ea4c680006006805490506108919190611688565b60025f8282546108a191906116c9565b9250508190555060065f6108b591906111aa565b610708426108c391906116c9565b5f8190555050505050565b6060600680548060200260200160405190810160405280929190818152602001828054801561094f57602002820191905f5260205f20905b815f9054906101000a900473ffffffffffffffffffffffffffffffffffffffff1673ffffffffffffffffffffffffffffffffffffffff1681526020019060010190808311610906575b5050505050905090565b60068181548110610968575f80fd5b905f5260205f20015f915054906101000a900473ffffffffffffffffffffffffffffffffffffffff1681565b60015f9054906101000a900473ffffffffffffffffffffffffffffffffffffffff1681565b66038d7ea4c6800081565b6109cc610c53565b610a0b576040517f08c379a0000000000000000000000000000000000000000000000000000000008152600401610a0290611746565b60405180910390fd5b5f3390505f60055f8373ffffffffffffffffffffffffffffffffffffffff1673ffffffffffffffffffffffffffffffffffffffff1681526020019081526020015f205490505f60055f8473ffffffffffffffffffffffffffffffffffffffff1673ffffffffffffffffffffffffffffffffffffffff1681526020019081526020015f20819055508173ffffffffffffffffffffffffffffffffffffffff166108fc8290811502906040515f60405180830381858888f19350505050158015610ad5573d5f803e3d5ffd5b505050565b5f662386f26fc1000034610aee919061162b565b14610aff662386f26fc10000610f8f565b604051602001610b0f9190611802565b60405160208183030381529060405290610b5f576040517f08c379a0000000000000000000000000000000000000000000000000000000008152600401610b56919061187e565b60405180910390fd5b505f662386f26fc1000034610b74919061189e565b9050610b7e610c3b565b811115610bc0576040517f08c379a0000000000000000000000000000000000000000000000000000000008152600401610bb790611918565b60405180910390fd5b5f5b81811015610c3757600633908060018154018082558091505060019003905f5260205f20015f9091909190916101000a81548173ffffffffffffffffffffffffffffffffffffffff021916908373ffffffffffffffffffffffffffffffffffffffff1602179055508080600101915050610bc2565b5050565b5f6006805490506064610c4e9190611557565b905090565b5f8060055f3373ffffffffffffffffffffffffffffffffffffffff1673ffffffffffffffffffffffffffffffffffffffff1681526020019081526020015f205411905090565b606481565b5f54421015610ce2576040517f08c379a0000000000000000000000000000000000000000000000000000000008152600401610cd990611980565b60405180910390fd5b5f5b600680549050811015610de3575f60068281548110610d0657610d0561165b565b5b905f5260205f20015f9054906101000a900473ffffffffffffffffffffffffffffffffffffffff1690505f60068381548110610d4557610d4461165b565b5b905f5260205f20015f6101000a81548173ffffffffffffffffffffffffffffffffffffffff021916908373ffffffffffffffffffffffffffffffffffffffff1602179055508073ffffffffffffffffffffffffffffffffffffffff166108fc662386f26fc1000090811502906040515f60405180830381858888f19350505050158015610dd4573d5f803e3d5ffd5b50508080600101915050610ce4565b5060065f610df191906111aa565b565b60025481565b5f662386f26fc10000600680549050610e129190611688565b905090565b5f60055f8373ffffffffffffffffffffffffffffffffffffffff1673ffffffffffffffffffffffffffffffffffffffff1681526020019081526020015f20549050919050565b6005602052805f5260405f205f915090505481565b60015f9054906101000a900473ffffffffffffffffffffffffffffffffffffffff1673ffffffffffffffffffffffffffffffffffffffff163373ffffffffffffffffffffffffffffffffffffffff1614610f01576040517f08c379a0000000000000000000000000000000000000000000000000000000008152600401610ef8906114a4565b60405180910390fd5b5f60068054905014610f48576040517f08c379a0000000000000000000000000000000000000000000000000000000008152600401610f3f90611a0e565b60405180910390fd5b60065f610f5591906111aa565b61070842610f6391906116c9565b5f81905550565b60035f9054906101000a900473ffffffffffffffffffffffffffffffffffffffff1681565b60605f6001610f9d84611059565b0190505f8167ffffffffffffffff811115610fbb57610fba611a2c565b5b6040519080825280601f01601f191660200182016040528015610fed5781602001600182028036833780820191505090505b5090505f82602001820190505b60011561104e578080600190039150507f3031323334353637383961626364656600000000000000000000000000000000600a86061a8153600a8581611043576110426115fe565b5b0494505f8503610ffa575b819350505050919050565b5f805f90507a184f03e93ff9f4daa797ed6e38ed64bf6a1f01000000000000000083106110b5577a184f03e93ff9f4daa797ed6e38ed64bf6a1f01000000000000000083816110ab576110aa6115fe565b5b0492506040810190505b6d04ee2d6d415b85acef810000000083106110f2576d04ee2d6d415b85acef810000000083816110e8576110e76115fe565b5b0492506020810190505b662386f26fc10000831061112157662386f26fc100008381611117576111166115fe565b5b0492506010810190505b6305f5e100831061114a576305f5e10083816111405761113f6115fe565b5b0492506008810190505b612710831061116f576127108381611165576111646115fe565b5b0492506004810190505b606483106111925760648381611188576111876115fe565b5b0492506002810190505b600a83106111a1576001810190505b80915050919050565b5080545f8255905f5260205f20908101906111c591906111c8565b50565b5b808211156111df575f815f9055506001016111c9565b5090565b5f819050919050565b6111f5816111e3565b82525050565b5f60208201905061120e5f8301846111ec565b92915050565b5f81519050919050565b5f82825260208201905092915050565b5f819050602082019050919050565b5f73ffffffffffffffffffffffffffffffffffffffff82169050919050565b5f6112668261123d565b9050919050565b6112768161125c565b82525050565b5f611287838361126d565b60208301905092915050565b5f602082019050919050565b5f6112a982611214565b6112b3818561121e565b93506112be8361122e565b805f5b838110156112ee5781516112d5888261127c565b97506112e083611293565b9250506001810190506112c1565b5085935050505092915050565b5f6020820190508181035f830152611313818461129f565b905092915050565b5f80fd5b611328816111e3565b8114611332575f80fd5b50565b5f813590506113438161131f565b92915050565b5f6020828403121561135e5761135d61131b565b5b5f61136b84828501611335565b91505092915050565b61137d8161125c565b82525050565b5f6020820190506113965f830184611374565b92915050565b5f8115159050919050565b6113b08161139c565b82525050565b5f6020820190506113c95f8301846113a7565b92915050565b6113d88161125c565b81146113e2575f80fd5b50565b5f813590506113f3816113cf565b92915050565b5f6020828403121561140e5761140d61131b565b5b5f61141b848285016113e5565b91505092915050565b5f82825260208201905092915050565b7f43616c6c6572206973206e6f7420746865206c6f7474657279206f70657261745f8201527f6f72000000000000000000000000000000000000000000000000000000000000602082015250565b5f61148e602283611424565b915061149982611434565b604082019050919050565b5f6020820190508181035f8301526114bb81611482565b9050919050565b7f4e6f207469636b657473207765726520707572636861736564000000000000005f82015250565b5f6114f6601983611424565b9150611501826114c2565b602082019050919050565b5f6020820190508181035f830152611523816114ea565b9050919050565b7f4e487b71000000000000000000000000000000000000000000000000000000005f52601160045260245ffd5b5f611561826111e3565b915061156c836111e3565b92508282039050818111156115845761158361152a565b5b92915050565b5f819050919050565b6115a461159f826111e3565b61158a565b82525050565b5f819050919050565b5f819050919050565b6115cd6115c8826115aa565b6115b3565b82525050565b5f6115de8285611593565b6020820191506115ee82846115bc565b6020820191508190509392505050565b7f4e487b71000000000000000000000000000000000000000000000000000000005f52601260045260245ffd5b5f611635826111e3565b9150611640836111e3565b9250826116505761164f6115fe565b5b828206905092915050565b7f4e487b71000000000000000000000000000000000000000000000000000000005f52603260045260245ffd5b5f611692826111e3565b915061169d836111e3565b92508282026116ab816111e3565b915082820484148315176116c2576116c161152a565b5b5092915050565b5f6116d3826111e3565b91506116de836111e3565b92508282019050808211156116f6576116f561152a565b5b92915050565b7f43616c6c6572206973206e6f7420612077696e6e6572000000000000000000005f82015250565b5f611730601683611424565b915061173b826116fc565b602082019050919050565b5f6020820190508181035f83015261175d81611724565b9050919050565b7f7468652076616c7565206d757374206265206d756c7469706c65206f66200000815250565b5f81519050919050565b5f81905092915050565b8281835e5f83830152505050565b5f6117b68261178a565b6117c08185611794565b93506117d081856020860161179e565b80840191505092915050565b7f2045746865720000000000000000000000000000000000000000000000000000815250565b5f61180c82611764565b601e8201915061181c82846117ac565b9150611827826117dc565b60068201915081905092915050565b5f601f19601f8301169050919050565b5f6118508261178a565b61185a8185611424565b935061186a81856020860161179e565b61187381611836565b840191505092915050565b5f6020820190508181035f8301526118968184611846565b905092915050565b5f6118a8826111e3565b91506118b3836111e3565b9250826118c3576118c26115fe565b5b828204905092915050565b7f4e6f7420656e6f756768207469636b65747320617661696c61626c652e0000005f82015250565b5f611902601d83611424565b915061190d826118ce565b602082019050919050565b5f6020820190508181035f83015261192f816118f6565b9050919050565b7f746865206c6f7474657279206e6f7420657870697265642079657400000000005f82015250565b5f61196a601b83611424565b915061197582611936565b602082019050919050565b5f6020820190508181035f8301526119978161195e565b9050919050565b7f43616e6e6f7420526573746172742044726177206173204472617720697320695f8201527f6e20706c61790000000000000000000000000000000000000000000000000000602082015250565b5f6119f8602683611424565b9150611a038261199e565b604082019050919050565b5f6020820190508181035f830152611a25816119ec565b9050919050565b7f4e487b71000000000000000000000000000000000000000000000000000000005f52604160045260245ffdfea2646970667358221220cc5d8160548314803a52d076fc9a934d3b37261876fa69c770ecf6f167fc70e164736f6c63430008190033",
					"opcodes": "PUSH1 0x80 PUSH1 0x40 MSTORE PUSH0 PUSH1 0x2 SSTORE CALLVALUE DUP1 ISZERO PUSH1 0x12 JUMPI PUSH0 DUP1 REVERT JUMPDEST POP CALLER PUSH1 0x1 PUSH0 PUSH2 0x100 EXP DUP2 SLOAD DUP2 PUSH20 0xFFFFFFFFFFFFFFFFFFFFFFFFFFFFFFFFFFFFFFFF MUL NOT AND SWAP1 DUP4 PUSH20 0xFFFFFFFFFFFFFFFFFFFFFFFFFFFFFFFFFFFFFFFF AND MUL OR SWAP1 SSTORE POP PUSH2 0x708 TIMESTAMP PUSH1 0x5F SWAP2 SWAP1 PUSH1 0x9E JUMP JUMPDEST PUSH0 DUP2 SWAP1 SSTORE POP PUSH1 0xCA JUMP JUMPDEST PUSH0 DUP2 SWAP1 POP SWAP2 SWAP1 POP JUMP JUMPDEST PUSH32 0x4E487B7100000000000000000000000000000000000000000000000000000000 PUSH0 MSTORE PUSH1 0x11 PUSH1 0x4 MSTORE PUSH1 0x24 PUSH0 REVERT JUMPDEST PUSH0 PUSH1 0xA6 DUP3 PUSH1 0x68 JUMP JUMPDEST SWAP2 POP PUSH1 0xAF DUP4 PUSH1 0x68 JUMP JUMPDEST SWAP3 POP DUP3 DUP3 ADD SWAP1 POP DUP1 DUP3 GT ISZERO PUSH1 0xC4 JUMPI PUSH1 0xC3 PUSH1 0x71 JUMP JUMPDEST JUMPDEST SWAP3 SWAP2 POP POP JUMP JUMPDEST PUSH2 0x1A8F DUP1 PUSH2 0xD7 PUSH0 CODECOPY PUSH0 RETURN INVALID PUSH1 0x80 PUSH1 0x40 MSTORE PUSH1 0x4 CALLDATASIZE LT PUSH2 0x13F JUMPI PUSH0 CALLDATALOAD PUSH1 0xE0 SHR DUP1 PUSH4 0x71827B7B GT PUSH2 0xB5 JUMPI DUP1 PUSH4 0xBA946D79 GT PUSH2 0x6E JUMPI DUP1 PUSH4 0xBA946D79 EQ PUSH2 0x3AF JUMPI DUP1 PUSH4 0xC6944FA0 EQ PUSH2 0x3D9 JUMPI DUP1 PUSH4 0xDD64E534 EQ PUSH2 0x403 JUMPI DUP1 PUSH4 0xEA3A1499 EQ PUSH2 0x43F JUMPI DUP1 PUSH4 0xF2613269 EQ PUSH2 0x47B JUMPI DUP1 PUSH4 0xFE188184 EQ PUSH2 0x491 JUMPI PUSH2 0x13F JUMP JUMPDEST DUP1 PUSH4 0x71827B7B EQ PUSH2 0x2FB JUMPI DUP1 PUSH4 0x91D8B14E EQ PUSH2 0x311 JUMPI DUP1 PUSH4 0x93A563B5 EQ PUSH2 0x31B JUMPI DUP1 PUSH4 0x96C85EF3 EQ PUSH2 0x345 JUMPI DUP1 PUSH4 0x9B894703 EQ PUSH2 0x36F JUMPI DUP1 PUSH4 0xA88F4672 EQ PUSH2 0x399 JUMPI PUSH2 0x13F JUMP JUMPDEST DUP1 PUSH4 0x4665096D GT PUSH2 0x107 JUMPI DUP1 PUSH4 0x4665096D EQ PUSH2 0x201 JUMPI DUP1 PUSH4 0x4788AF7C EQ PUSH2 0x22B JUMPI DUP1 PUSH4 0x4ED02622 EQ PUSH2 0x241 JUMPI DUP1 PUSH4 0x50B44712 EQ PUSH2 0x26B JUMPI DUP1 PUSH4 0x5A58ACDD EQ PUSH2 0x2A7 JUMPI DUP1 PUSH4 0x6032A4F9 EQ PUSH2 0x2D1 JUMPI PUSH2 0x13F JUMP JUMPDEST DUP1 PUSH4 0x6F7F3BF EQ PUSH2 0x143 JUMPI DUP1 PUSH4 0x789C607 EQ PUSH2 0x16D JUMPI DUP1 PUSH4 0xFB5A6B4 EQ PUSH2 0x197 JUMPI DUP1 PUSH4 0x1209B1F6 EQ PUSH2 0x1C1 JUMPI DUP1 PUSH4 0x35580DF2 EQ PUSH2 0x1EB JUMPI JUMPDEST PUSH0 DUP1 REVERT JUMPDEST CALLVALUE DUP1 ISZERO PUSH2 0x14E JUMPI PUSH0 DUP1 REVERT JUMPDEST POP PUSH2 0x157 PUSH2 0x4BB JUMP JUMPDEST PUSH1 0x40 MLOAD PUSH2 0x164 SWAP2 SWAP1 PUSH2 0x11FB JUMP JUMPDEST PUSH1 0x40 MLOAD DUP1 SWAP2 SUB SWAP1 RETURN JUMPDEST CALLVALUE DUP1 ISZERO PUSH2 0x178 JUMPI PUSH0 DUP1 REVERT JUMPDEST POP PUSH2 0x181 PUSH2 0x4C1 JUMP JUMPDEST PUSH1 0x40 MLOAD PUSH2 0x18E SWAP2 SWAP1 PUSH2 0x11FB JUMP JUMPDEST PUSH1 0x40 MLOAD DUP1 SWAP2 SUB SWAP1 RETURN JUMPDEST CALLVALUE DUP1 ISZERO PUSH2 0x1A2 JUMPI PUSH0 DUP1 REVERT JUMPDEST POP PUSH2 0x1AB PUSH2 0x50F JUMP JUMPDEST PUSH1 0x40 MLOAD PUSH2 0x1B8 SWAP2 SWAP1 PUSH2 0x11FB JUMP JUMPDEST PUSH1 0x40 MLOAD DUP1 SWAP2 SUB SWAP1 RETURN JUMPDEST CALLVALUE DUP1 ISZERO PUSH2 0x1CC JUMPI PUSH0 DUP1 REVERT JUMPDEST POP PUSH2 0x1D5 PUSH2 0x515 JUMP JUMPDEST PUSH1 0x40 MLOAD PUSH2 0x1E2 SWAP2 SWAP1 PUSH2 0x11FB JUMP JUMPDEST PUSH1 0x40 MLOAD DUP1 SWAP2 SUB SWAP1 RETURN JUMPDEST CALLVALUE DUP1 ISZERO PUSH2 0x1F6 JUMPI PUSH0 DUP1 REVERT JUMPDEST POP PUSH2 0x1FF PUSH2 0x520 JUMP JUMPDEST STOP JUMPDEST CALLVALUE DUP1 ISZERO PUSH2 0x20C JUMPI PUSH0 DUP1 REVERT JUMPDEST POP PUSH2 0x215 PUSH2 0x608 JUMP JUMPDEST PUSH1 0x40 MLOAD PUSH2 0x222 SWAP2 SWAP1 PUSH2 0x11FB JUMP JUMPDEST PUSH1 0x40 MLOAD DUP1 SWAP2 SUB SWAP1 RETURN JUMPDEST CALLVALUE DUP1 ISZERO PUSH2 0x236 JUMPI PUSH0 DUP1 REVERT JUMPDEST POP PUSH2 0x23F PUSH2 0x60D JUMP JUMPDEST STOP JUMPDEST CALLVALUE DUP1 ISZERO PUSH2 0x24C JUMPI PUSH0 DUP1 REVERT JUMPDEST POP PUSH2 0x255 PUSH2 0x8CE JUMP JUMPDEST PUSH1 0x40 MLOAD PUSH2 0x262 SWAP2 SWAP1 PUSH2 0x12FB JUMP JUMPDEST PUSH1 0x40 MLOAD DUP1 SWAP2 SUB SWAP1 RETURN JUMPDEST CALLVALUE DUP1 ISZERO PUSH2 0x276 JUMPI PUSH0 DUP1 REVERT JUMPDEST POP PUSH2 0x291 PUSH1 0x4 DUP1 CALLDATASIZE SUB DUP2 ADD SWAP1 PUSH2 0x28C SWAP2 SWAP1 PUSH2 0x1349 JUMP JUMPDEST PUSH2 0x959 JUMP JUMPDEST PUSH1 0x40 MLOAD PUSH2 0x29E SWAP2 SWAP1 PUSH2 0x1383 JUMP JUMPDEST PUSH1 0x40 MLOAD DUP1 SWAP2 SUB SWAP1 RETURN JUMPDEST CALLVALUE DUP1 ISZERO PUSH2 0x2B2 JUMPI PUSH0 DUP1 REVERT JUMPDEST POP PUSH2 0x2BB PUSH2 0x994 JUMP JUMPDEST PUSH1 0x40 MLOAD PUSH2 0x2C8 SWAP2 SWAP1 PUSH2 0x1383 JUMP JUMPDEST PUSH1 0x40 MLOAD DUP1 SWAP2 SUB SWAP1 RETURN JUMPDEST CALLVALUE DUP1 ISZERO PUSH2 0x2DC JUMPI PUSH0 DUP1 REVERT JUMPDEST POP PUSH2 0x2E5 PUSH2 0x9B9 JUMP JUMPDEST PUSH1 0x40 MLOAD PUSH2 0x2F2 SWAP2 SWAP1 PUSH2 0x11FB JUMP JUMPDEST PUSH1 0x40 MLOAD DUP1 SWAP2 SUB SWAP1 RETURN JUMPDEST CALLVALUE DUP1 ISZERO PUSH2 0x306 JUMPI PUSH0 DUP1 REVERT JUMPDEST POP PUSH2 0x30F PUSH2 0x9C4 JUMP JUMPDEST STOP JUMPDEST PUSH2 0x319 PUSH2 0xADA JUMP JUMPDEST STOP JUMPDEST CALLVALUE DUP1 ISZERO PUSH2 0x326 JUMPI PUSH0 DUP1 REVERT JUMPDEST POP PUSH2 0x32F PUSH2 0xC3B JUMP JUMPDEST PUSH1 0x40 MLOAD PUSH2 0x33C SWAP2 SWAP1 PUSH2 0x11FB JUMP JUMPDEST PUSH1 0x40 MLOAD DUP1 SWAP2 SUB SWAP1 RETURN JUMPDEST CALLVALUE DUP1 ISZERO PUSH2 0x350 JUMPI PUSH0 DUP1 REVERT JUMPDEST POP PUSH2 0x359 PUSH2 0xC53 JUMP JUMPDEST PUSH1 0x40 MLOAD PUSH2 0x366 SWAP2 SWAP1 PUSH2 0x13B6 JUMP JUMPDEST PUSH1 0x40 MLOAD DUP1 SWAP2 SUB SWAP1 RETURN JUMPDEST CALLVALUE DUP1 ISZERO PUSH2 0x37A JUMPI PUSH0 DUP1 REVERT JUMPDEST POP PUSH2 0x383 PUSH2 0xC99 JUMP JUMPDEST PUSH1 0x40 MLOAD PUSH2 0x390 SWAP2 SWAP1 PUSH2 0x11FB JUMP JUMPDEST PUSH1 0x40 MLOAD DUP1 SWAP2 SUB SWAP1 RETURN JUMPDEST CALLVALUE DUP1 ISZERO PUSH2 0x3A4 JUMPI PUSH0 DUP1 REVERT JUMPDEST POP PUSH2 0x3AD PUSH2 0xC9E JUMP JUMPDEST STOP JUMPDEST CALLVALUE DUP1 ISZERO PUSH2 0x3BA JUMPI PUSH0 DUP1 REVERT JUMPDEST POP PUSH2 0x3C3 PUSH2 0xDF3 JUMP JUMPDEST PUSH1 0x40 MLOAD PUSH2 0x3D0 SWAP2 SWAP1 PUSH2 0x11FB JUMP JUMPDEST PUSH1 0x40 MLOAD DUP1 SWAP2 SUB SWAP1 RETURN JUMPDEST CALLVALUE DUP1 ISZERO PUSH2 0x3E4 JUMPI PUSH0 DUP1 REVERT JUMPDEST POP PUSH2 0x3ED PUSH2 0xDF9 JUMP JUMPDEST PUSH1 0x40 MLOAD PUSH2 0x3FA SWAP2 SWAP1 PUSH2 0x11FB JUMP JUMPDEST PUSH1 0x40 MLOAD DUP1 SWAP2 SUB SWAP1 RETURN JUMPDEST CALLVALUE DUP1 ISZERO PUSH2 0x40E JUMPI PUSH0 DUP1 REVERT JUMPDEST POP PUSH2 0x429 PUSH1 0x4 DUP1 CALLDATASIZE SUB DUP2 ADD SWAP1 PUSH2 0x424 SWAP2 SWAP1 PUSH2 0x13F9 JUMP JUMPDEST PUSH2 0xE17 JUMP JUMPDEST PUSH1 0x40 MLOAD PUSH2 0x436 SWAP2 SWAP1 PUSH2 0x11FB JUMP JUMPDEST PUSH1 0x40 MLOAD DUP1 SWAP2 SUB SWAP1 RETURN JUMPDEST CALLVALUE DUP1 ISZERO PUSH2 0x44A JUMPI PUSH0 DUP1 REVERT JUMPDEST POP PUSH2 0x465 PUSH1 0x4 DUP1 CALLDATASIZE SUB DUP2 ADD SWAP1 PUSH2 0x460 SWAP2 SWAP1 PUSH2 0x13F9 JUMP JUMPDEST PUSH2 0xE5D JUMP JUMPDEST PUSH1 0x40 MLOAD PUSH2 0x472 SWAP2 SWAP1 PUSH2 0x11FB JUMP JUMPDEST PUSH1 0x40 MLOAD DUP1 SWAP2 SUB SWAP1 RETURN JUMPDEST CALLVALUE DUP1 ISZERO PUSH2 0x486 JUMPI PUSH0 DUP1 REVERT JUMPDEST POP PUSH2 0x48F PUSH2 0xE72 JUMP JUMPDEST STOP JUMPDEST CALLVALUE DUP1 ISZERO PUSH2 0x49C JUMPI PUSH0 DUP1 REVERT JUMPDEST POP PUSH2 0x4A5 PUSH2 0xF6A JUMP JUMPDEST PUSH1 0x40 MLOAD PUSH2 0x4B2 SWAP2 SWAP1 PUSH2 0x1383 JUMP JUMPDEST PUSH1 0x40 MLOAD DUP1 SWAP2 SUB SWAP1 RETURN JUMPDEST PUSH1 0x4 SLOAD DUP2 JUMP JUMPDEST PUSH0 DUP1 CALLER SWAP1 POP PUSH0 PUSH1 0x5 PUSH0 DUP4 PUSH20 0xFFFFFFFFFFFFFFFFFFFFFFFFFFFFFFFFFFFFFFFF AND PUSH20 0xFFFFFFFFFFFFFFFFFFFFFFFFFFFFFFFFFFFFFFFF AND DUP2 MSTORE PUSH1 0x20 ADD SWAP1 DUP2 MSTORE PUSH1 0x20 ADD PUSH0 KECCAK256 SLOAD SWAP1 POP DUP1 SWAP3 POP POP POP SWAP1 JUMP JUMPDEST PUSH2 0x708 DUP2 JUMP JUMPDEST PUSH7 0x2386F26FC10000 DUP2 JUMP JUMPDEST PUSH1 0x1 PUSH0 SWAP1 SLOAD SWAP1 PUSH2 0x100 EXP SWAP1 DIV PUSH20 0xFFFFFFFFFFFFFFFFFFFFFFFFFFFFFFFFFFFFFFFF AND PUSH20 0xFFFFFFFFFFFFFFFFFFFFFFFFFFFFFFFFFFFFFFFF AND CALLER PUSH20 0xFFFFFFFFFFFFFFFFFFFFFFFFFFFFFFFFFFFFFFFF AND EQ PUSH2 0x5AF JUMPI PUSH1 0x40 MLOAD PUSH32 0x8C379A000000000000000000000000000000000000000000000000000000000 DUP2 MSTORE PUSH1 0x4 ADD PUSH2 0x5A6 SWAP1 PUSH2 0x14A4 JUMP JUMPDEST PUSH1 0x40 MLOAD DUP1 SWAP2 SUB SWAP1 REVERT JUMPDEST PUSH0 CALLER SWAP1 POP PUSH0 PUSH1 0x2 SLOAD SWAP1 POP PUSH0 PUSH1 0x2 DUP2 SWAP1 SSTORE POP DUP2 PUSH20 0xFFFFFFFFFFFFFFFFFFFFFFFFFFFFFFFFFFFFFFFF AND PUSH2 0x8FC DUP3 SWAP1 DUP2 ISZERO MUL SWAP1 PUSH1 0x40 MLOAD PUSH0 PUSH1 0x40 MLOAD DUP1 DUP4 SUB DUP2 DUP6 DUP9 DUP9 CALL SWAP4 POP POP POP POP ISZERO DUP1 ISZERO PUSH2 0x603 JUMPI RETURNDATASIZE PUSH0 DUP1 RETURNDATACOPY RETURNDATASIZE PUSH0 REVERT JUMPDEST POP POP POP JUMP JUMPDEST PUSH0 SLOAD DUP2 JUMP JUMPDEST PUSH1 0x1 PUSH0 SWAP1 SLOAD SWAP1 PUSH2 0x100 EXP SWAP1 DIV PUSH20 0xFFFFFFFFFFFFFFFFFFFFFFFFFFFFFFFFFFFFFFFF AND PUSH20 0xFFFFFFFFFFFFFFFFFFFFFFFFFFFFFFFFFFFFFFFF AND CALLER PUSH20 0xFFFFFFFFFFFFFFFFFFFFFFFFFFFFFFFFFFFFFFFF AND EQ PUSH2 0x69C JUMPI PUSH1 0x40 MLOAD PUSH32 0x8C379A000000000000000000000000000000000000000000000000000000000 DUP2 MSTORE PUSH1 0x4 ADD PUSH2 0x693 SWAP1 PUSH2 0x14A4 JUMP JUMPDEST PUSH1 0x40 MLOAD DUP1 SWAP2 SUB SWAP1 REVERT JUMPDEST PUSH0 PUSH1 0x6 DUP1 SLOAD SWAP1 POP GT PUSH2 0x6E3 JUMPI PUSH1 0x40 MLOAD PUSH32 0x8C379A000000000000000000000000000000000000000000000000000000000 DUP2 MSTORE PUSH1 0x4 ADD PUSH2 0x6DA SWAP1 PUSH2 0x150C JUMP JUMPDEST PUSH1 0x40 MLOAD DUP1 SWAP2 SUB SWAP1 REVERT JUMPDEST PUSH0 PUSH1 0x6 DUP1 SLOAD SWAP1 POP NUMBER PUSH2 0x6F5 SWAP2 SWAP1 PUSH2 0x1557 JUMP JUMPDEST BLOCKHASH SWAP1 POP PUSH0 TIMESTAMP DUP3 PUSH1 0x40 MLOAD PUSH1 0x20 ADD PUSH2 0x70C SWAP3 SWAP2 SWAP1 PUSH2 0x15D3 JUMP JUMPDEST PUSH1 0x40 MLOAD PUSH1 0x20 DUP2 DUP4 SUB SUB DUP2 MSTORE SWAP1 PUSH1 0x40 MSTORE DUP1 MLOAD SWAP1 PUSH1 0x20 ADD KECCAK256 PUSH0 SHR SWAP1 POP PUSH0 PUSH1 0x6 DUP1 SLOAD SWAP1 POP DUP3 PUSH2 0x738 SWAP2 SWAP1 PUSH2 0x162B JUMP JUMPDEST SWAP1 POP PUSH0 PUSH1 0x6 DUP3 DUP2 SLOAD DUP2 LT PUSH2 0x74F JUMPI PUSH2 0x74E PUSH2 0x165B JUMP JUMPDEST JUMPDEST SWAP1 PUSH0 MSTORE PUSH1 0x20 PUSH0 KECCAK256 ADD PUSH0 SWAP1 SLOAD SWAP1 PUSH2 0x100 EXP SWAP1 DIV PUSH20 0xFFFFFFFFFFFFFFFFFFFFFFFFFFFFFFFFFFFFFFFF AND SWAP1 POP DUP1 PUSH1 0x3 PUSH0 PUSH2 0x100 EXP DUP2 SLOAD DUP2 PUSH20 0xFFFFFFFFFFFFFFFFFFFFFFFFFFFFFFFFFFFFFFFF MUL NOT AND SWAP1 DUP4 PUSH20 0xFFFFFFFFFFFFFFFFFFFFFFFFFFFFFFFFFFFFFFFF AND MUL OR SWAP1 SSTORE POP PUSH7 0x38D7EA4C68000 PUSH7 0x2386F26FC10000 PUSH2 0x7D3 SWAP2 SWAP1 PUSH2 0x1557 JUMP JUMPDEST PUSH1 0x6 DUP1 SLOAD SWAP1 POP PUSH2 0x7E3 SWAP2 SWAP1 PUSH2 0x1688 JUMP JUMPDEST PUSH1 0x5 PUSH0 DUP4 PUSH20 0xFFFFFFFFFFFFFFFFFFFFFFFFFFFFFFFFFFFFFFFF AND PUSH20 0xFFFFFFFFFFFFFFFFFFFFFFFFFFFFFFFFFFFFFFFF AND DUP2 MSTORE PUSH1 0x20 ADD SWAP1 DUP2 MSTORE PUSH1 0x20 ADD PUSH0 KECCAK256 PUSH0 DUP3 DUP3 SLOAD PUSH2 0x82E SWAP2 SWAP1 PUSH2 0x16C9 JUMP JUMPDEST SWAP3 POP POP DUP2 SWAP1 SSTORE POP PUSH1 0x5 PUSH0 DUP3 PUSH20 0xFFFFFFFFFFFFFFFFFFFFFFFFFFFFFFFFFFFFFFFF AND PUSH20 0xFFFFFFFFFFFFFFFFFFFFFFFFFFFFFFFFFFFFFFFF AND DUP2 MSTORE PUSH1 0x20 ADD SWAP1 DUP2 MSTORE PUSH1 0x20 ADD PUSH0 KECCAK256 SLOAD PUSH1 0x4 DUP2 SWAP1 SSTORE POP PUSH7 0x38D7EA4C68000 PUSH1 0x6 DUP1 SLOAD SWAP1 POP PUSH2 0x891 SWAP2 SWAP1 PUSH2 0x1688 JUMP JUMPDEST PUSH1 0x2 PUSH0 DUP3 DUP3 SLOAD PUSH2 0x8A1 SWAP2 SWAP1 PUSH2 0x16C9 JUMP JUMPDEST SWAP3 POP POP DUP2 SWAP1 SSTORE POP PUSH1 0x6 PUSH0 PUSH2 0x8B5 SWAP2 SWAP1 PUSH2 0x11AA JUMP JUMPDEST PUSH2 0x708 TIMESTAMP PUSH2 0x8C3 SWAP2 SWAP1 PUSH2 0x16C9 JUMP JUMPDEST PUSH0 DUP2 SWAP1 SSTORE POP POP POP POP POP JUMP JUMPDEST PUSH1 0x60 PUSH1 0x6 DUP1 SLOAD DUP1 PUSH1 0x20 MUL PUSH1 0x20 ADD PUSH1 0x40 MLOAD SWAP1 DUP2 ADD PUSH1 0x40 MSTORE DUP1 SWAP3 SWAP2 SWAP1 DUP2 DUP2 MSTORE PUSH1 0x20 ADD DUP3 DUP1 SLOAD DUP1 ISZERO PUSH2 0x94F JUMPI PUSH1 0x20 MUL DUP3 ADD SWAP2 SWAP1 PUSH0 MSTORE PUSH1 0x20 PUSH0 KECCAK256 SWAP1 JUMPDEST DUP2 PUSH0 SWAP1 SLOAD SWAP1 PUSH2 0x100 EXP SWAP1 DIV PUSH20 0xFFFFFFFFFFFFFFFFFFFFFFFFFFFFFFFFFFFFFFFF AND PUSH20 0xFFFFFFFFFFFFFFFFFFFFFFFFFFFFFFFFFFFFFFFF AND DUP2 MSTORE PUSH1 0x20 ADD SWAP1 PUSH1 0x1 ADD SWAP1 DUP1 DUP4 GT PUSH2 0x906 JUMPI JUMPDEST POP POP POP POP POP SWAP1 POP SWAP1 JUMP JUMPDEST PUSH1 0x6 DUP2 DUP2 SLOAD DUP2 LT PUSH2 0x968 JUMPI PUSH0 DUP1 REVERT JUMPDEST SWAP1 PUSH0 MSTORE PUSH1 0x20 PUSH0 KECCAK256 ADD PUSH0 SWAP2 POP SLOAD SWAP1 PUSH2 0x100 EXP SWAP1 DIV PUSH20 0xFFFFFFFFFFFFFFFFFFFFFFFFFFFFFFFFFFFFFFFF AND DUP2 JUMP JUMPDEST PUSH1 0x1 PUSH0 SWAP1 SLOAD SWAP1 PUSH2 0x100 EXP SWAP1 DIV PUSH20 0xFFFFFFFFFFFFFFFFFFFFFFFFFFFFFFFFFFFFFFFF AND DUP2 JUMP JUMPDEST PUSH7 0x38D7EA4C68000 DUP2 JUMP JUMPDEST PUSH2 0x9CC PUSH2 0xC53 JUMP JUMPDEST PUSH2 0xA0B JUMPI PUSH1 0x40 MLOAD PUSH32 0x8C379A000000000000000000000000000000000000000000000000000000000 DUP2 MSTORE PUSH1 0x4 ADD PUSH2 0xA02 SWAP1 PUSH2 0x1746 JUMP JUMPDEST PUSH1 0x40 MLOAD DUP1 SWAP2 SUB SWAP1 REVERT JUMPDEST PUSH0 CALLER SWAP1 POP PUSH0 PUSH1 0x5 PUSH0 DUP4 PUSH20 0xFFFFFFFFFFFFFFFFFFFFFFFFFFFFFFFFFFFFFFFF AND PUSH20 0xFFFFFFFFFFFFFFFFFFFFFFFFFFFFFFFFFFFFFFFF AND DUP2 MSTORE PUSH1 0x20 ADD SWAP1 DUP2 MSTORE PUSH1 0x20 ADD PUSH0 KECCAK256 SLOAD SWAP1 POP PUSH0 PUSH1 0x5 PUSH0 DUP5 PUSH20 0xFFFFFFFFFFFFFFFFFFFFFFFFFFFFFFFFFFFFFFFF AND PUSH20 0xFFFFFFFFFFFFFFFFFFFFFFFFFFFFFFFFFFFFFFFF AND DUP2 MSTORE PUSH1 0x20 ADD SWAP1 DUP2 MSTORE PUSH1 0x20 ADD PUSH0 KECCAK256 DUP2 SWAP1 SSTORE POP DUP2 PUSH20 0xFFFFFFFFFFFFFFFFFFFFFFFFFFFFFFFFFFFFFFFF AND PUSH2 0x8FC DUP3 SWAP1 DUP2 ISZERO MUL SWAP1 PUSH1 0x40 MLOAD PUSH0 PUSH1 0x40 MLOAD DUP1 DUP4 SUB DUP2 DUP6 DUP9 DUP9 CALL SWAP4 POP POP POP POP ISZERO DUP1 ISZERO PUSH2 0xAD5 JUMPI RETURNDATASIZE PUSH0 DUP1 RETURNDATACOPY RETURNDATASIZE PUSH0 REVERT JUMPDEST POP POP POP JUMP JUMPDEST PUSH0 PUSH7 0x2386F26FC10000 CALLVALUE PUSH2 0xAEE SWAP2 SWAP1 PUSH2 0x162B JUMP JUMPDEST EQ PUSH2 0xAFF PUSH7 0x2386F26FC10000 PUSH2 0xF8F JUMP JUMPDEST PUSH1 0x40 MLOAD PUSH1 0x20 ADD PUSH2 0xB0F SWAP2 SWAP1 PUSH2 0x1802 JUMP JUMPDEST PUSH1 0x40 MLOAD PUSH1 0x20 DUP2 DUP4 SUB SUB DUP2 MSTORE SWAP1 PUSH1 0x40 MSTORE SWAP1 PUSH2 0xB5F JUMPI PUSH1 0x40 MLOAD PUSH32 0x8C379A000000000000000000000000000000000000000000000000000000000 DUP2 MSTORE PUSH1 0x4 ADD PUSH2 0xB56 SWAP2 SWAP1 PUSH2 0x187E JUMP JUMPDEST PUSH1 0x40 MLOAD DUP1 SWAP2 SUB SWAP1 REVERT JUMPDEST POP PUSH0 PUSH7 0x2386F26FC10000 CALLVALUE PUSH2 0xB74 SWAP2 SWAP1 PUSH2 0x189E JUMP JUMPDEST SWAP1 POP PUSH2 0xB7E PUSH2 0xC3B JUMP JUMPDEST DUP2 GT ISZERO PUSH2 0xBC0 JUMPI PUSH1 0x40 MLOAD PUSH32 0x8C379A000000000000000000000000000000000000000000000000000000000 DUP2 MSTORE PUSH1 0x4 ADD PUSH2 0xBB7 SWAP1 PUSH2 0x1918 JUMP JUMPDEST PUSH1 0x40 MLOAD DUP1 SWAP2 SUB SWAP1 REVERT JUMPDEST PUSH0 JUMPDEST DUP2 DUP2 LT ISZERO PUSH2 0xC37 JUMPI PUSH1 0x6 CALLER SWAP1 DUP1 PUSH1 0x1 DUP2 SLOAD ADD DUP1 DUP3 SSTORE DUP1 SWAP2 POP POP PUSH1 0x1 SWAP1 SUB SWAP1 PUSH0 MSTORE PUSH1 0x20 PUSH0 KECCAK256 ADD PUSH0 SWAP1 SWAP2 SWAP1 SWAP2 SWAP1 SWAP2 PUSH2 0x100 EXP DUP2 SLOAD DUP2 PUSH20 0xFFFFFFFFFFFFFFFFFFFFFFFFFFFFFFFFFFFFFFFF MUL NOT AND SWAP1 DUP4 PUSH20 0xFFFFFFFFFFFFFFFFFFFFFFFFFFFFFFFFFFFFFFFF AND MUL OR SWAP1 SSTORE POP DUP1 DUP1 PUSH1 0x1 ADD SWAP2 POP POP PUSH2 0xBC2 JUMP JUMPDEST POP POP JUMP JUMPDEST PUSH0 PUSH1 0x6 DUP1 SLOAD SWAP1 POP PUSH1 0x64 PUSH2 0xC4E SWAP2 SWAP1 PUSH2 0x1557 JUMP JUMPDEST SWAP1 POP SWAP1 JUMP JUMPDEST PUSH0 DUP1 PUSH1 0x5 PUSH0 CALLER PUSH20 0xFFFFFFFFFFFFFFFFFFFFFFFFFFFFFFFFFFFFFFFF AND PUSH20 0xFFFFFFFFFFFFFFFFFFFFFFFFFFFFFFFFFFFFFFFF AND DUP2 MSTORE PUSH1 0x20 ADD SWAP1 DUP2 MSTORE PUSH1 0x20 ADD PUSH0 KECCAK256 SLOAD GT SWAP1 POP SWAP1 JUMP JUMPDEST PUSH1 0x64 DUP2 JUMP JUMPDEST PUSH0 SLOAD TIMESTAMP LT ISZERO PUSH2 0xCE2 JUMPI PUSH1 0x40 MLOAD PUSH32 0x8C379A000000000000000000000000000000000000000000000000000000000 DUP2 MSTORE PUSH1 0x4 ADD PUSH2 0xCD9 SWAP1 PUSH2 0x1980 JUMP JUMPDEST PUSH1 0x40 MLOAD DUP1 SWAP2 SUB SWAP1 REVERT JUMPDEST PUSH0 JUMPDEST PUSH1 0x6 DUP1 SLOAD SWAP1 POP DUP2 LT ISZERO PUSH2 0xDE3 JUMPI PUSH0 PUSH1 0x6 DUP3 DUP2 SLOAD DUP2 LT PUSH2 0xD06 JUMPI PUSH2 0xD05 PUSH2 0x165B JUMP JUMPDEST JUMPDEST SWAP1 PUSH0 MSTORE PUSH1 0x20 PUSH0 KECCAK256 ADD PUSH0 SWAP1 SLOAD SWAP1 PUSH2 0x100 EXP SWAP1 DIV PUSH20 0xFFFFFFFFFFFFFFFFFFFFFFFFFFFFFFFFFFFFFFFF AND SWAP1 POP PUSH0 PUSH1 0x6 DUP4 DUP2 SLOAD DUP2 LT PUSH2 0xD45 JUMPI PUSH2 0xD44 PUSH2 0x165B JUMP JUMPDEST JUMPDEST SWAP1 PUSH0 MSTORE PUSH1 0x20 PUSH0 KECCAK256 ADD PUSH0 PUSH2 0x100 EXP DUP2 SLOAD DUP2 PUSH20 0xFFFFFFFFFFFFFFFFFFFFFFFFFFFFFFFFFFFFFFFF MUL NOT AND SWAP1 DUP4 PUSH20 0xFFFFFFFFFFFFFFFFFFFFFFFFFFFFFFFFFFFFFFFF AND MUL OR SWAP1 SSTORE POP DUP1 PUSH20 0xFFFFFFFFFFFFFFFFFFFFFFFFFFFFFFFFFFFFFFFF AND PUSH2 0x8FC PUSH7 0x2386F26FC10000 SWAP1 DUP2 ISZERO MUL SWAP1 PUSH1 0x40 MLOAD PUSH0 PUSH1 0x40 MLOAD DUP1 DUP4 SUB DUP2 DUP6 DUP9 DUP9 CALL SWAP4 POP POP POP POP ISZERO DUP1 ISZERO PUSH2 0xDD4 JUMPI RETURNDATASIZE PUSH0 DUP1 RETURNDATACOPY RETURNDATASIZE PUSH0 REVERT JUMPDEST POP POP DUP1 DUP1 PUSH1 0x1 ADD SWAP2 POP POP PUSH2 0xCE4 JUMP JUMPDEST POP PUSH1 0x6 PUSH0 PUSH2 0xDF1 SWAP2 SWAP1 PUSH2 0x11AA JUMP JUMPDEST JUMP JUMPDEST PUSH1 0x2 SLOAD DUP2 JUMP JUMPDEST PUSH0 PUSH7 0x2386F26FC10000 PUSH1 0x6 DUP1 SLOAD SWAP1 POP PUSH2 0xE12 SWAP2 SWAP1 PUSH2 0x1688 JUMP JUMPDEST SWAP1 POP SWAP1 JUMP JUMPDEST PUSH0 PUSH1 0x5 PUSH0 DUP4 PUSH20 0xFFFFFFFFFFFFFFFFFFFFFFFFFFFFFFFFFFFFFFFF AND PUSH20 0xFFFFFFFFFFFFFFFFFFFFFFFFFFFFFFFFFFFFFFFF AND DUP2 MSTORE PUSH1 0x20 ADD SWAP1 DUP2 MSTORE PUSH1 0x20 ADD PUSH0 KECCAK256 SLOAD SWAP1 POP SWAP2 SWAP1 POP JUMP JUMPDEST PUSH1 0x5 PUSH1 0x20 MSTORE DUP1 PUSH0 MSTORE PUSH1 0x40 PUSH0 KECCAK256 PUSH0 SWAP2 POP SWAP1 POP SLOAD DUP2 JUMP JUMPDEST PUSH1 0x1 PUSH0 SWAP1 SLOAD SWAP1 PUSH2 0x100 EXP SWAP1 DIV PUSH20 0xFFFFFFFFFFFFFFFFFFFFFFFFFFFFFFFFFFFFFFFF AND PUSH20 0xFFFFFFFFFFFFFFFFFFFFFFFFFFFFFFFFFFFFFFFF AND CALLER PUSH20 0xFFFFFFFFFFFFFFFFFFFFFFFFFFFFFFFFFFFFFFFF AND EQ PUSH2 0xF01 JUMPI PUSH1 0x40 MLOAD PUSH32 0x8C379A000000000000000000000000000000000000000000000000000000000 DUP2 MSTORE PUSH1 0x4 ADD PUSH2 0xEF8 SWAP1 PUSH2 0x14A4 JUMP JUMPDEST PUSH1 0x40 MLOAD DUP1 SWAP2 SUB SWAP1 REVERT JUMPDEST PUSH0 PUSH1 0x6 DUP1 SLOAD SWAP1 POP EQ PUSH2 0xF48 JUMPI PUSH1 0x40 MLOAD PUSH32 0x8C379A000000000000000000000000000000000000000000000000000000000 DUP2 MSTORE PUSH1 0x4 ADD PUSH2 0xF3F SWAP1 PUSH2 0x1A0E JUMP JUMPDEST PUSH1 0x40 MLOAD DUP1 SWAP2 SUB SWAP1 REVERT JUMPDEST PUSH1 0x6 PUSH0 PUSH2 0xF55 SWAP2 SWAP1 PUSH2 0x11AA JUMP JUMPDEST PUSH2 0x708 TIMESTAMP PUSH2 0xF63 SWAP2 SWAP1 PUSH2 0x16C9 JUMP JUMPDEST PUSH0 DUP2 SWAP1 SSTORE POP JUMP JUMPDEST PUSH1 0x3 PUSH0 SWAP1 SLOAD SWAP1 PUSH2 0x100 EXP SWAP1 DIV PUSH20 0xFFFFFFFFFFFFFFFFFFFFFFFFFFFFFFFFFFFFFFFF AND DUP2 JUMP JUMPDEST PUSH1 0x60 PUSH0 PUSH1 0x1 PUSH2 0xF9D DUP5 PUSH2 0x1059 JUMP JUMPDEST ADD SWAP1 POP PUSH0 DUP2 PUSH8 0xFFFFFFFFFFFFFFFF DUP2 GT ISZERO PUSH2 0xFBB JUMPI PUSH2 0xFBA PUSH2 0x1A2C JUMP JUMPDEST JUMPDEST PUSH1 0x40 MLOAD SWAP1 DUP1 DUP3 MSTORE DUP1 PUSH1 0x1F ADD PUSH1 0x1F NOT AND PUSH1 0x20 ADD DUP3 ADD PUSH1 0x40 MSTORE DUP1 ISZERO PUSH2 0xFED JUMPI DUP2 PUSH1 0x20 ADD PUSH1 0x1 DUP3 MUL DUP1 CALLDATASIZE DUP4 CALLDATACOPY DUP1 DUP3 ADD SWAP2 POP POP SWAP1 POP JUMPDEST POP SWAP1 POP PUSH0 DUP3 PUSH1 0x20 ADD DUP3 ADD SWAP1 POP JUMPDEST PUSH1 0x1 ISZERO PUSH2 0x104E JUMPI DUP1 DUP1 PUSH1 0x1 SWAP1 SUB SWAP2 POP POP PUSH32 0x3031323334353637383961626364656600000000000000000000000000000000 PUSH1 0xA DUP7 MOD BYTE DUP2 MSTORE8 PUSH1 0xA DUP6 DUP2 PUSH2 0x1043 JUMPI PUSH2 0x1042 PUSH2 0x15FE JUMP JUMPDEST JUMPDEST DIV SWAP5 POP PUSH0 DUP6 SUB PUSH2 0xFFA JUMPI JUMPDEST DUP2 SWAP4 POP POP POP POP SWAP2 SWAP1 POP JUMP JUMPDEST PUSH0 DUP1 PUSH0 SWAP1 POP PUSH27 0x184F03E93FF9F4DAA797ED6E38ED64BF6A1F010000000000000000 DUP4 LT PUSH2 0x10B5 JUMPI PUSH27 0x184F03E93FF9F4DAA797ED6E38ED64BF6A1F010000000000000000 DUP4 DUP2 PUSH2 0x10AB JUMPI PUSH2 0x10AA PUSH2 0x15FE JUMP JUMPDEST JUMPDEST DIV SWAP3 POP PUSH1 0x40 DUP2 ADD SWAP1 POP JUMPDEST PUSH14 0x4EE2D6D415B85ACEF8100000000 DUP4 LT PUSH2 0x10F2 JUMPI PUSH14 0x4EE2D6D415B85ACEF8100000000 DUP4 DUP2 PUSH2 0x10E8 JUMPI PUSH2 0x10E7 PUSH2 0x15FE JUMP JUMPDEST JUMPDEST DIV SWAP3 POP PUSH1 0x20 DUP2 ADD SWAP1 POP JUMPDEST PUSH7 0x2386F26FC10000 DUP4 LT PUSH2 0x1121 JUMPI PUSH7 0x2386F26FC10000 DUP4 DUP2 PUSH2 0x1117 JUMPI PUSH2 0x1116 PUSH2 0x15FE JUMP JUMPDEST JUMPDEST DIV SWAP3 POP PUSH1 0x10 DUP2 ADD SWAP1 POP JUMPDEST PUSH4 0x5F5E100 DUP4 LT PUSH2 0x114A JUMPI PUSH4 0x5F5E100 DUP4 DUP2 PUSH2 0x1140 JUMPI PUSH2 0x113F PUSH2 0x15FE JUMP JUMPDEST JUMPDEST DIV SWAP3 POP PUSH1 0x8 DUP2 ADD SWAP1 POP JUMPDEST PUSH2 0x2710 DUP4 LT PUSH2 0x116F JUMPI PUSH2 0x2710 DUP4 DUP2 PUSH2 0x1165 JUMPI PUSH2 0x1164 PUSH2 0x15FE JUMP JUMPDEST JUMPDEST DIV SWAP3 POP PUSH1 0x4 DUP2 ADD SWAP1 POP JUMPDEST PUSH1 0x64 DUP4 LT PUSH2 0x1192 JUMPI PUSH1 0x64 DUP4 DUP2 PUSH2 0x1188 JUMPI PUSH2 0x1187 PUSH2 0x15FE JUMP JUMPDEST JUMPDEST DIV SWAP3 POP PUSH1 0x2 DUP2 ADD SWAP1 POP JUMPDEST PUSH1 0xA DUP4 LT PUSH2 0x11A1 JUMPI PUSH1 0x1 DUP2 ADD SWAP1 POP JUMPDEST DUP1 SWAP2 POP POP SWAP2 SWAP1 POP JUMP JUMPDEST POP DUP1 SLOAD PUSH0 DUP3 SSTORE SWAP1 PUSH0 MSTORE PUSH1 0x20 PUSH0 KECCAK256 SWAP1 DUP2 ADD SWAP1 PUSH2 0x11C5 SWAP2 SWAP1 PUSH2 0x11C8 JUMP JUMPDEST POP JUMP JUMPDEST JUMPDEST DUP1 DUP3 GT ISZERO PUSH2 0x11DF JUMPI PUSH0 DUP2 PUSH0 SWAP1 SSTORE POP PUSH1 0x1 ADD PUSH2 0x11C9 JUMP JUMPDEST POP SWAP1 JUMP JUMPDEST PUSH0 DUP2 SWAP1 POP SWAP2 SWAP1 POP JUMP JUMPDEST PUSH2 0x11F5 DUP2 PUSH2 0x11E3 JUMP JUMPDEST DUP3 MSTORE POP POP JUMP JUMPDEST PUSH0 PUSH1 0x20 DUP3 ADD SWAP1 POP PUSH2 0x120E PUSH0 DUP4 ADD DUP5 PUSH2 0x11EC JUMP JUMPDEST SWAP3 SWAP2 POP POP JUMP JUMPDEST PUSH0 DUP2 MLOAD SWAP1 POP SWAP2 SWAP1 POP JUMP JUMPDEST PUSH0 DUP3 DUP3 MSTORE PUSH1 0x20 DUP3 ADD SWAP1 POP SWAP3 SWAP2 POP POP JUMP JUMPDEST PUSH0 DUP2 SWAP1 POP PUSH1 0x20 DUP3 ADD SWAP1 POP SWAP2 SWAP1 POP JUMP JUMPDEST PUSH0 PUSH20 0xFFFFFFFFFFFFFFFFFFFFFFFFFFFFFFFFFFFFFFFF DUP3 AND SWAP1 POP SWAP2 SWAP1 POP JUMP JUMPDEST PUSH0 PUSH2 0x1266 DUP3 PUSH2 0x123D JUMP JUMPDEST SWAP1 POP SWAP2 SWAP1 POP JUMP JUMPDEST PUSH2 0x1276 DUP2 PUSH2 0x125C JUMP JUMPDEST DUP3 MSTORE POP POP JUMP JUMPDEST PUSH0 PUSH2 0x1287 DUP4 DUP4 PUSH2 0x126D JUMP JUMPDEST PUSH1 0x20 DUP4 ADD SWAP1 POP SWAP3 SWAP2 POP POP JUMP JUMPDEST PUSH0 PUSH1 0x20 DUP3 ADD SWAP1 POP SWAP2 SWAP1 POP JUMP JUMPDEST PUSH0 PUSH2 0x12A9 DUP3 PUSH2 0x1214 JUMP JUMPDEST PUSH2 0x12B3 DUP2 DUP6 PUSH2 0x121E JUMP JUMPDEST SWAP4 POP PUSH2 0x12BE DUP4 PUSH2 0x122E JUMP JUMPDEST DUP1 PUSH0 JUMPDEST DUP4 DUP2 LT ISZERO PUSH2 0x12EE JUMPI DUP2 MLOAD PUSH2 0x12D5 DUP9 DUP3 PUSH2 0x127C JUMP JUMPDEST SWAP8 POP PUSH2 0x12E0 DUP4 PUSH2 0x1293 JUMP JUMPDEST SWAP3 POP POP PUSH1 0x1 DUP2 ADD SWAP1 POP PUSH2 0x12C1 JUMP JUMPDEST POP DUP6 SWAP4 POP POP POP POP SWAP3 SWAP2 POP POP JUMP JUMPDEST PUSH0 PUSH1 0x20 DUP3 ADD SWAP1 POP DUP2 DUP2 SUB PUSH0 DUP4 ADD MSTORE PUSH2 0x1313 DUP2 DUP5 PUSH2 0x129F JUMP JUMPDEST SWAP1 POP SWAP3 SWAP2 POP POP JUMP JUMPDEST PUSH0 DUP1 REVERT JUMPDEST PUSH2 0x1328 DUP2 PUSH2 0x11E3 JUMP JUMPDEST DUP2 EQ PUSH2 0x1332 JUMPI PUSH0 DUP1 REVERT JUMPDEST POP JUMP JUMPDEST PUSH0 DUP2 CALLDATALOAD SWAP1 POP PUSH2 0x1343 DUP2 PUSH2 0x131F JUMP JUMPDEST SWAP3 SWAP2 POP POP JUMP JUMPDEST PUSH0 PUSH1 0x20 DUP3 DUP5 SUB SLT ISZERO PUSH2 0x135E JUMPI PUSH2 0x135D PUSH2 0x131B JUMP JUMPDEST JUMPDEST PUSH0 PUSH2 0x136B DUP5 DUP3 DUP6 ADD PUSH2 0x1335 JUMP JUMPDEST SWAP2 POP POP SWAP3 SWAP2 POP POP JUMP JUMPDEST PUSH2 0x137D DUP2 PUSH2 0x125C JUMP JUMPDEST DUP3 MSTORE POP POP JUMP JUMPDEST PUSH0 PUSH1 0x20 DUP3 ADD SWAP1 POP PUSH2 0x1396 PUSH0 DUP4 ADD DUP5 PUSH2 0x1374 JUMP JUMPDEST SWAP3 SWAP2 POP POP JUMP JUMPDEST PUSH0 DUP2 ISZERO ISZERO SWAP1 POP SWAP2 SWAP1 POP JUMP JUMPDEST PUSH2 0x13B0 DUP2 PUSH2 0x139C JUMP JUMPDEST DUP3 MSTORE POP POP JUMP JUMPDEST PUSH0 PUSH1 0x20 DUP3 ADD SWAP1 POP PUSH2 0x13C9 PUSH0 DUP4 ADD DUP5 PUSH2 0x13A7 JUMP JUMPDEST SWAP3 SWAP2 POP POP JUMP JUMPDEST PUSH2 0x13D8 DUP2 PUSH2 0x125C JUMP JUMPDEST DUP2 EQ PUSH2 0x13E2 JUMPI PUSH0 DUP1 REVERT JUMPDEST POP JUMP JUMPDEST PUSH0 DUP2 CALLDATALOAD SWAP1 POP PUSH2 0x13F3 DUP2 PUSH2 0x13CF JUMP JUMPDEST SWAP3 SWAP2 POP POP JUMP JUMPDEST PUSH0 PUSH1 0x20 DUP3 DUP5 SUB SLT ISZERO PUSH2 0x140E JUMPI PUSH2 0x140D PUSH2 0x131B JUMP JUMPDEST JUMPDEST PUSH0 PUSH2 0x141B DUP5 DUP3 DUP6 ADD PUSH2 0x13E5 JUMP JUMPDEST SWAP2 POP POP SWAP3 SWAP2 POP POP JUMP JUMPDEST PUSH0 DUP3 DUP3 MSTORE PUSH1 0x20 DUP3 ADD SWAP1 POP SWAP3 SWAP2 POP POP JUMP JUMPDEST PUSH32 0x43616C6C6572206973206E6F7420746865206C6F7474657279206F7065726174 PUSH0 DUP3 ADD MSTORE PUSH32 0x6F72000000000000000000000000000000000000000000000000000000000000 PUSH1 0x20 DUP3 ADD MSTORE POP JUMP JUMPDEST PUSH0 PUSH2 0x148E PUSH1 0x22 DUP4 PUSH2 0x1424 JUMP JUMPDEST SWAP2 POP PUSH2 0x1499 DUP3 PUSH2 0x1434 JUMP JUMPDEST PUSH1 0x40 DUP3 ADD SWAP1 POP SWAP2 SWAP1 POP JUMP JUMPDEST PUSH0 PUSH1 0x20 DUP3 ADD SWAP1 POP DUP2 DUP2 SUB PUSH0 DUP4 ADD MSTORE PUSH2 0x14BB DUP2 PUSH2 0x1482 JUMP JUMPDEST SWAP1 POP SWAP2 SWAP1 POP JUMP JUMPDEST PUSH32 0x4E6F207469636B65747320776572652070757263686173656400000000000000 PUSH0 DUP3 ADD MSTORE POP JUMP JUMPDEST PUSH0 PUSH2 0x14F6 PUSH1 0x19 DUP4 PUSH2 0x1424 JUMP JUMPDEST SWAP2 POP PUSH2 0x1501 DUP3 PUSH2 0x14C2 JUMP JUMPDEST PUSH1 0x20 DUP3 ADD SWAP1 POP SWAP2 SWAP1 POP JUMP JUMPDEST PUSH0 PUSH1 0x20 DUP3 ADD SWAP1 POP DUP2 DUP2 SUB PUSH0 DUP4 ADD MSTORE PUSH2 0x1523 DUP2 PUSH2 0x14EA JUMP JUMPDEST SWAP1 POP SWAP2 SWAP1 POP JUMP JUMPDEST PUSH32 0x4E487B7100000000000000000000000000000000000000000000000000000000 PUSH0 MSTORE PUSH1 0x11 PUSH1 0x4 MSTORE PUSH1 0x24 PUSH0 REVERT JUMPDEST PUSH0 PUSH2 0x1561 DUP3 PUSH2 0x11E3 JUMP JUMPDEST SWAP2 POP PUSH2 0x156C DUP4 PUSH2 0x11E3 JUMP JUMPDEST SWAP3 POP DUP3 DUP3 SUB SWAP1 POP DUP2 DUP2 GT ISZERO PUSH2 0x1584 JUMPI PUSH2 0x1583 PUSH2 0x152A JUMP JUMPDEST JUMPDEST SWAP3 SWAP2 POP POP JUMP JUMPDEST PUSH0 DUP2 SWAP1 POP SWAP2 SWAP1 POP JUMP JUMPDEST PUSH2 0x15A4 PUSH2 0x159F DUP3 PUSH2 0x11E3 JUMP JUMPDEST PUSH2 0x158A JUMP JUMPDEST DUP3 MSTORE POP POP JUMP JUMPDEST PUSH0 DUP2 SWAP1 POP SWAP2 SWAP1 POP JUMP JUMPDEST PUSH0 DUP2 SWAP1 POP SWAP2 SWAP1 POP JUMP JUMPDEST PUSH2 0x15CD PUSH2 0x15C8 DUP3 PUSH2 0x15AA JUMP JUMPDEST PUSH2 0x15B3 JUMP JUMPDEST DUP3 MSTORE POP POP JUMP JUMPDEST PUSH0 PUSH2 0x15DE DUP3 DUP6 PUSH2 0x1593 JUMP JUMPDEST PUSH1 0x20 DUP3 ADD SWAP2 POP PUSH2 0x15EE DUP3 DUP5 PUSH2 0x15BC JUMP JUMPDEST PUSH1 0x20 DUP3 ADD SWAP2 POP DUP2 SWAP1 POP SWAP4 SWAP3 POP POP POP JUMP JUMPDEST PUSH32 0x4E487B7100000000000000000000000000000000000000000000000000000000 PUSH0 MSTORE PUSH1 0x12 PUSH1 0x4 MSTORE PUSH1 0x24 PUSH0 REVERT JUMPDEST PUSH0 PUSH2 0x1635 DUP3 PUSH2 0x11E3 JUMP JUMPDEST SWAP2 POP PUSH2 0x1640 DUP4 PUSH2 0x11E3 JUMP JUMPDEST SWAP3 POP DUP3 PUSH2 0x1650 JUMPI PUSH2 0x164F PUSH2 0x15FE JUMP JUMPDEST JUMPDEST DUP3 DUP3 MOD SWAP1 POP SWAP3 SWAP2 POP POP JUMP JUMPDEST PUSH32 0x4E487B7100000000000000000000000000000000000000000000000000000000 PUSH0 MSTORE PUSH1 0x32 PUSH1 0x4 MSTORE PUSH1 0x24 PUSH0 REVERT JUMPDEST PUSH0 PUSH2 0x1692 DUP3 PUSH2 0x11E3 JUMP JUMPDEST SWAP2 POP PUSH2 0x169D DUP4 PUSH2 0x11E3 JUMP JUMPDEST SWAP3 POP DUP3 DUP3 MUL PUSH2 0x16AB DUP2 PUSH2 0x11E3 JUMP JUMPDEST SWAP2 POP DUP3 DUP3 DIV DUP5 EQ DUP4 ISZERO OR PUSH2 0x16C2 JUMPI PUSH2 0x16C1 PUSH2 0x152A JUMP JUMPDEST JUMPDEST POP SWAP3 SWAP2 POP POP JUMP JUMPDEST PUSH0 PUSH2 0x16D3 DUP3 PUSH2 0x11E3 JUMP JUMPDEST SWAP2 POP PUSH2 0x16DE DUP4 PUSH2 0x11E3 JUMP JUMPDEST SWAP3 POP DUP3 DUP3 ADD SWAP1 POP DUP1 DUP3 GT ISZERO PUSH2 0x16F6 JUMPI PUSH2 0x16F5 PUSH2 0x152A JUMP JUMPDEST JUMPDEST SWAP3 SWAP2 POP POP JUMP JUMPDEST PUSH32 0x43616C6C6572206973206E6F7420612077696E6E657200000000000000000000 PUSH0 DUP3 ADD MSTORE POP JUMP JUMPDEST PUSH0 PUSH2 0x1730 PUSH1 0x16 DUP4 PUSH2 0x1424 JUMP JUMPDEST SWAP2 POP PUSH2 0x173B DUP3 PUSH2 0x16FC JUMP JUMPDEST PUSH1 0x20 DUP3 ADD SWAP1 POP SWAP2 SWAP1 POP JUMP JUMPDEST PUSH0 PUSH1 0x20 DUP3 ADD SWAP1 POP DUP2 DUP2 SUB PUSH0 DUP4 ADD MSTORE PUSH2 0x175D DUP2 PUSH2 0x1724 JUMP JUMPDEST SWAP1 POP SWAP2 SWAP1 POP JUMP JUMPDEST PUSH32 0x7468652076616C7565206D757374206265206D756C7469706C65206F66200000 DUP2 MSTORE POP JUMP JUMPDEST PUSH0 DUP2 MLOAD SWAP1 POP SWAP2 SWAP1 POP JUMP JUMPDEST PUSH0 DUP2 SWAP1 POP SWAP3 SWAP2 POP POP JUMP JUMPDEST DUP3 DUP2 DUP4 MCOPY PUSH0 DUP4 DUP4 ADD MSTORE POP POP POP JUMP JUMPDEST PUSH0 PUSH2 0x17B6 DUP3 PUSH2 0x178A JUMP JUMPDEST PUSH2 0x17C0 DUP2 DUP6 PUSH2 0x1794 JUMP JUMPDEST SWAP4 POP PUSH2 0x17D0 DUP2 DUP6 PUSH1 0x20 DUP7 ADD PUSH2 0x179E JUMP JUMPDEST DUP1 DUP5 ADD SWAP2 POP POP SWAP3 SWAP2 POP POP JUMP JUMPDEST PUSH32 0x2045746865720000000000000000000000000000000000000000000000000000 DUP2 MSTORE POP JUMP JUMPDEST PUSH0 PUSH2 0x180C DUP3 PUSH2 0x1764 JUMP JUMPDEST PUSH1 0x1E DUP3 ADD SWAP2 POP PUSH2 0x181C DUP3 DUP5 PUSH2 0x17AC JUMP JUMPDEST SWAP2 POP PUSH2 0x1827 DUP3 PUSH2 0x17DC JUMP JUMPDEST PUSH1 0x6 DUP3 ADD SWAP2 POP DUP2 SWAP1 POP SWAP3 SWAP2 POP POP JUMP JUMPDEST PUSH0 PUSH1 0x1F NOT PUSH1 0x1F DUP4 ADD AND SWAP1 POP SWAP2 SWAP1 POP JUMP JUMPDEST PUSH0 PUSH2 0x1850 DUP3 PUSH2 0x178A JUMP JUMPDEST PUSH2 0x185A DUP2 DUP6 PUSH2 0x1424 JUMP JUMPDEST SWAP4 POP PUSH2 0x186A DUP2 DUP6 PUSH1 0x20 DUP7 ADD PUSH2 0x179E JUMP JUMPDEST PUSH2 0x1873 DUP2 PUSH2 0x1836 JUMP JUMPDEST DUP5 ADD SWAP2 POP POP SWAP3 SWAP2 POP POP JUMP JUMPDEST PUSH0 PUSH1 0x20 DUP3 ADD SWAP1 POP DUP2 DUP2 SUB PUSH0 DUP4 ADD MSTORE PUSH2 0x1896 DUP2 DUP5 PUSH2 0x1846 JUMP JUMPDEST SWAP1 POP SWAP3 SWAP2 POP POP JUMP JUMPDEST PUSH0 PUSH2 0x18A8 DUP3 PUSH2 0x11E3 JUMP JUMPDEST SWAP2 POP PUSH2 0x18B3 DUP4 PUSH2 0x11E3 JUMP JUMPDEST SWAP3 POP DUP3 PUSH2 0x18C3 JUMPI PUSH2 0x18C2 PUSH2 0x15FE JUMP JUMPDEST JUMPDEST DUP3 DUP3 DIV SWAP1 POP SWAP3 SWAP2 POP POP JUMP JUMPDEST PUSH32 0x4E6F7420656E6F756768207469636B65747320617661696C61626C652E000000 PUSH0 DUP3 ADD MSTORE POP JUMP JUMPDEST PUSH0 PUSH2 0x1902 PUSH1 0x1D DUP4 PUSH2 0x1424 JUMP JUMPDEST SWAP2 POP PUSH2 0x190D DUP3 PUSH2 0x18CE JUMP JUMPDEST PUSH1 0x20 DUP3 ADD SWAP1 POP SWAP2 SWAP1 POP JUMP JUMPDEST PUSH0 PUSH1 0x20 DUP3 ADD SWAP1 POP DUP2 DUP2 SUB PUSH0 DUP4 ADD MSTORE PUSH2 0x192F DUP2 PUSH2 0x18F6 JUMP JUMPDEST SWAP1 POP SWAP2 SWAP1 POP JUMP JUMPDEST PUSH32 0x746865206C6F7474657279206E6F742065787069726564207965740000000000 PUSH0 DUP3 ADD MSTORE POP JUMP JUMPDEST PUSH0 PUSH2 0x196A PUSH1 0x1B DUP4 PUSH2 0x1424 JUMP JUMPDEST SWAP2 POP PUSH2 0x1975 DUP3 PUSH2 0x1936 JUMP JUMPDEST PUSH1 0x20 DUP3 ADD SWAP1 POP SWAP2 SWAP1 POP JUMP JUMPDEST PUSH0 PUSH1 0x20 DUP3 ADD SWAP1 POP DUP2 DUP2 SUB PUSH0 DUP4 ADD MSTORE PUSH2 0x1997 DUP2 PUSH2 0x195E JUMP JUMPDEST SWAP1 POP SWAP2 SWAP1 POP JUMP JUMPDEST PUSH32 0x43616E6E6F742052657374617274204472617720617320447261772069732069 PUSH0 DUP3 ADD MSTORE PUSH32 0x6E20706C61790000000000000000000000000000000000000000000000000000 PUSH1 0x20 DUP3 ADD MSTORE POP JUMP JUMPDEST PUSH0 PUSH2 0x19F8 PUSH1 0x26 DUP4 PUSH2 0x1424 JUMP JUMPDEST SWAP2 POP PUSH2 0x1A03 DUP3 PUSH2 0x199E JUMP JUMPDEST PUSH1 0x40 DUP3 ADD SWAP1 POP SWAP2 SWAP1 POP JUMP JUMPDEST PUSH0 PUSH1 0x20 DUP3 ADD SWAP1 POP DUP2 DUP2 SUB PUSH0 DUP4 ADD MSTORE PUSH2 0x1A25 DUP2 PUSH2 0x19EC JUMP JUMPDEST SWAP1 POP SWAP2 SWAP1 POP JUMP JUMPDEST PUSH32 0x4E487B7100000000000000000000000000000000000000000000000000000000 PUSH0 MSTORE PUSH1 0x41 PUSH1 0x4 MSTORE PUSH1 0x24 PUSH0 REVERT INVALID LOG2 PUSH5 0x6970667358 0x22 SLT KECCAK256 0xCC TSTORE DUP2 PUSH1 0x54 DUP4 EQ DUP1 GASPRICE MSTORE 0xD0 PUSH23 0xFC9A934D3B37261876FA69C770ECF6F167FC70E164736F PUSH13 0x63430008190033000000000000 "
				},
				"gasEstimates": {
					"creation": {
						"codeDepositCost": "1359800",
						"executionCost": "infinite",
						"totalCost": "infinite"
					},
					"external": {
						"BuyTickets()": "infinite",
						"CurrentWinningReward()": "infinite",
						"DrawWinnerTicket()": "infinite",
						"IsWinner()": "2620",
						"RefundAll()": "infinite",
						"RemainingTickets()": "infinite",
						"WithdrawCommission()": "infinite",
						"WithdrawWinnings()": "infinite",
						"checkWinningsAmount()": "2590",
						"duration()": "393",
						"expiration()": "2447",
						"getTickets()": "infinite",
						"getWinningsForAddress(address)": "2895",
						"lastWinner()": "2640",
						"lastWinnerAmount()": "2449",
						"lotteryOperator()": "2619",
						"maxTickets()": "436",
						"operatorTotalCommission()": "2447",
						"restartDraw()": "infinite",
						"ticketCommission()": "458",
						"ticketPrice()": "415",
						"tickets(uint256)": "5033",
						"winnings(address)": "2890"
					}
				},
				"methodIdentifiers": {
					"BuyTickets()": "91d8b14e",
					"CurrentWinningReward()": "c6944fa0",
					"DrawWinnerTicket()": "4788af7c",
					"IsWinner()": "96c85ef3",
					"RefundAll()": "a88f4672",
					"RemainingTickets()": "93a563b5",
					"WithdrawCommission()": "35580df2",
					"WithdrawWinnings()": "71827b7b",
					"checkWinningsAmount()": "0789c607",
					"duration()": "0fb5a6b4",
					"expiration()": "4665096d",
					"getTickets()": "4ed02622",
					"getWinningsForAddress(address)": "dd64e534",
					"lastWinner()": "fe188184",
					"lastWinnerAmount()": "06f7f3bf",
					"lotteryOperator()": "5a58acdd",
					"maxTickets()": "9b894703",
					"operatorTotalCommission()": "ba946d79",
					"restartDraw()": "f2613269",
					"ticketCommission()": "6032a4f9",
					"ticketPrice()": "1209b1f6",
					"tickets(uint256)": "50b44712",
					"winnings(address)": "ea3a1499"
				}
			},
			"storageLayout": {
				"storage": [
					{
						"astId": 1216,
						"contract": "contracts/Lottery.sol:Lottery",
						"label": "expiration",
						"offset": 0,
						"slot": "0",
						"type": "t_uint256"
					},
					{
						"astId": 1218,
						"contract": "contracts/Lottery.sol:Lottery",
						"label": "lotteryOperator",
						"offset": 0,
						"slot": "1",
						"type": "t_address"
					},
					{
						"astId": 1221,
						"contract": "contracts/Lottery.sol:Lottery",
						"label": "operatorTotalCommission",
						"offset": 0,
						"slot": "2",
						"type": "t_uint256"
					},
					{
						"astId": 1223,
						"contract": "contracts/Lottery.sol:Lottery",
						"label": "lastWinner",
						"offset": 0,
						"slot": "3",
						"type": "t_address"
					},
					{
						"astId": 1225,
						"contract": "contracts/Lottery.sol:Lottery",
						"label": "lastWinnerAmount",
						"offset": 0,
						"slot": "4",
						"type": "t_uint256"
					},
					{
						"astId": 1229,
						"contract": "contracts/Lottery.sol:Lottery",
						"label": "winnings",
						"offset": 0,
						"slot": "5",
						"type": "t_mapping(t_address,t_uint256)"
					},
					{
						"astId": 1232,
						"contract": "contracts/Lottery.sol:Lottery",
						"label": "tickets",
						"offset": 0,
						"slot": "6",
						"type": "t_array(t_address)dyn_storage"
					}
				],
				"types": {
					"t_address": {
						"encoding": "inplace",
						"label": "address",
						"numberOfBytes": "20"
					},
					"t_array(t_address)dyn_storage": {
						"base": "t_address",
						"encoding": "dynamic_array",
						"label": "address[]",
						"numberOfBytes": "32"
					},
					"t_mapping(t_address,t_uint256)": {
						"encoding": "mapping",
						"key": "t_address",
						"label": "mapping(address => uint256)",
						"numberOfBytes": "32",
						"value": "t_uint256"
					},
					"t_uint256": {
						"encoding": "inplace",
						"label": "uint256",
						"numberOfBytes": "32"
					}
				}
			},
			"userdoc": {
				"kind": "user",
				"methods": {},
				"version": 1
			}
		}
	}
}