{
	"data": {
		"bytecode": {
			"linkReferences": {},
			"object": "60806040526003601c556002601d556001601e555f601f555f602055348015610026575f5ffd5b5060405161885a38038061885a833981810160405281019061004891906105d7565b8686868686868484816002908161005f91906108d8565b50806003908161006f91906108d8565b5061007e61013160201b60201c565b5f8190555050506100948661013860201b60201c565b6100b683836fffffffffffffffffffffffffffffffff166101fb60201b60201c565b6100c5816102f560201b60201c565b50505050505080602190816100da91906108d8565b505f600190505b6004811161012457662386f26fc10000816100fc91906109d4565b60225f8381526020019081526020015f2081905550808061011c90610a15565b9150506100e1565b5050505050505050610b0c565b5f5f905090565b5f60095f9054906101000a900473ffffffffffffffffffffffffffffffffffffffff1690508160095f6101000a81548173ffffffffffffffffffffffffffffffffffffffff021916908373ffffffffffffffffffffffffffffffffffffffff1602179055508173ffffffffffffffffffffffffffffffffffffffff168173ffffffffffffffffffffffffffffffffffffffff167f8292fce18fa69edf4db7b94ea2e58241df0ae57f97e0a6c9b29067028bf92d7660405160405180910390a35050565b61271081111561024657612710816040517f5249856800000000000000000000000000000000000000000000000000000000815260040161023d929190610aa4565b60405180910390fd5b81600a5f6101000a81548173ffffffffffffffffffffffffffffffffffffffff021916908373ffffffffffffffffffffffffffffffffffffffff16021790555080600a60146101000a81548161ffff021916908361ffff1602179055508173ffffffffffffffffffffffffffffffffffffffff167f90d7ec04bcb8978719414f82e52e4cb651db41d0e6f8cea6118c2191e6183adb826040516102e99190610acb565b60405180910390a25050565b5f73ffffffffffffffffffffffffffffffffffffffff168173ffffffffffffffffffffffffffffffffffffffff160361036557806040517f3df2b0dc00000000000000000000000000000000000000000000000000000000815260040161035c9190610af3565b60405180910390fd5b80600f5f6101000a81548173ffffffffffffffffffffffffffffffffffffffff021916908373ffffffffffffffffffffffffffffffffffffffff1602179055508073ffffffffffffffffffffffffffffffffffffffff167f299d17e95023f496e0ffc4909cff1a61f74bb5eb18de6f900f4155bfa1b3b33360405160405180910390a250565b5f604051905090565b5f5ffd5b5f5ffd5b5f73ffffffffffffffffffffffffffffffffffffffff82169050919050565b5f610425826103fc565b9050919050565b6104358161041b565b811461043f575f5ffd5b50565b5f815190506104508161042c565b92915050565b5f5ffd5b5f5ffd5b5f601f19601f8301169050919050565b7f4e487b71000000000000000000000000000000000000000000000000000000005f52604160045260245ffd5b6104a48261045e565b810181811067ffffffffffffffff821117156104c3576104c261046e565b5b80604052505050565b5f6104d56103eb565b90506104e1828261049b565b919050565b5f67ffffffffffffffff821115610500576104ff61046e565b5b6105098261045e565b9050602081019050919050565b8281835e5f83830152505050565b5f610536610531846104e6565b6104cc565b9050828152602081018484840111156105525761055161045a565b5b61055d848285610516565b509392505050565b5f82601f83011261057957610578610456565b5b8151610589848260208601610524565b91505092915050565b5f6fffffffffffffffffffffffffffffffff82169050919050565b6105b681610592565b81146105c0575f5ffd5b50565b5f815190506105d1816105ad565b92915050565b5f5f5f5f5f5f5f60e0888a0312156105f2576105f16103f4565b5b5f6105ff8a828b01610442565b975050602088015167ffffffffffffffff8111156106205761061f6103f8565b5b61062c8a828b01610565565b965050604088015167ffffffffffffffff81111561064d5761064c6103f8565b5b6106598a828b01610565565b955050606061066a8a828b01610442565b945050608061067b8a828b016105c3565b93505060a061068c8a828b01610442565b92505060c088015167ffffffffffffffff8111156106ad576106ac6103f8565b5b6106b98a828b01610565565b91505092959891949750929550565b5f81519050919050565b7f4e487b71000000000000000000000000000000000000000000000000000000005f52602260045260245ffd5b5f600282049050600182168061071657607f821691505b602082108103610729576107286106d2565b5b50919050565b5f819050815f5260205f209050919050565b5f6020601f8301049050919050565b5f82821b905092915050565b5f6008830261078b7fffffffffffffffffffffffffffffffffffffffffffffffffffffffffffffffff82610750565b6107958683610750565b95508019841693508086168417925050509392505050565b5f819050919050565b5f819050919050565b5f6107d96107d46107cf846107ad565b6107b6565b6107ad565b9050919050565b5f819050919050565b6107f2836107bf565b6108066107fe826107e0565b84845461075c565b825550505050565b5f5f905090565b61081d61080e565b6108288184846107e9565b505050565b5b8181101561084b576108405f82610815565b60018101905061082e565b5050565b601f821115610890576108618161072f565b61086a84610741565b81016020851015610879578190505b61088d61088585610741565b83018261082d565b50505b505050565b5f82821c905092915050565b5f6108b05f1984600802610895565b1980831691505092915050565b5f6108c883836108a1565b9150826002028217905092915050565b6108e1826106c8565b67ffffffffffffffff8111156108fa576108f961046e565b5b61090482546106ff565b61090f82828561084f565b5f60209050601f831160018114610940575f841561092e578287015190505b61093885826108bd565b86555061099f565b601f19841661094e8661072f565b5f5b8281101561097557848901518255600182019150602085019450602081019050610950565b86831015610992578489015161098e601f8916826108a1565b8355505b6001600288020188555050505b505050505050565b7f4e487b71000000000000000000000000000000000000000000000000000000005f52601160045260245ffd5b5f6109de826107ad565b91506109e9836107ad565b92508282026109f7816107ad565b91508282048414831517610a0e57610a0d6109a7565b5b5092915050565b5f610a1f826107ad565b91507fffffffffffffffffffffffffffffffffffffffffffffffffffffffffffffffff8203610a5157610a506109a7565b5b600182019050919050565b5f819050919050565b5f610a7f610a7a610a7584610a5c565b6107b6565b6107ad565b9050919050565b610a8f81610a65565b82525050565b610a9e816107ad565b82525050565b5f604082019050610ab75f830185610a86565b610ac46020830184610a95565b9392505050565b5f602082019050610ade5f830184610a95565b92915050565b610aed8161041b565b82525050565b5f602082019050610b065f830184610ae4565b92915050565b617d4180610b195f395ff3fe60806040526004361061036a575f3560e01c806370a08231116101c5578063b24f2d39116100f6578063dd7d938611610094578063e8a3d4851161006e578063e8a3d48514610d0a578063e985e9c514610d34578063eec8897c14610d70578063f0293fd314610dac5761036a565b8063dd7d938614610c7c578063e268e4d314610ca6578063e715032214610cce5761036a565b8063ce805642116100d0578063ce80564214610ba9578063d37c353b14610be5578063d637ed5914610c21578063d679677a14610c525761036a565b8063b24f2d3914610b1a578063b88d4fde14610b45578063c87b56dd14610b6d5761036a565b80639bcf7a1511610163578063a22cb4651161013d578063a22cb46514610a62578063a2309ff814610a8a578063ac9650d814610ab4578063acd083f814610af05761036a565b80639bcf7a15146109c25780639fc4d68f146109ea578063a05112fc14610a265761036a565b80638da5cb5b1161019f5780638da5cb5b1461091c578063902d55a514610946578063938e3d7b1461097057806395d89b41146109985761036a565b806370a082311461088857806383040532146108c457806384bb1e42146109005761036a565b80633b1475a71161029f57806355f804b31161023d5780636352211e116102175780636352211e146107d057806363b45e2d1461080c57806368a9a2fd146108365780636f4f2837146108605761036a565b806355f804b3146107585780635e6bb7bf14610780578063600dd5ea146107a85761036a565b806342966c681161027957806342966c681461068d578063453c2310146106b5578063492e224b146106df5780634cc157df1461071b5761036a565b80633b1475a714610613578063426cfaf31461063d57806342842e0e146106655761036a565b806318160ddd1161030c5780632a55205a116102e65780632a55205a14610542578063300eccab1461057f57806335b65e1f146105bb578063379607f5146105f75761036a565b806318160ddd146104b457806323b872dd146104de5780632419f51b146105065761036a565b806307c3d4af1161034857806307c3d4af146103fe578063081812fc14610428578063095ea7b31461046457806313af40351461048c5761036a565b806301ffc9a71461036e57806306fdde03146103aa578063079fe40e146103d4575b5f5ffd5b348015610379575f5ffd5b50610394600480360381019061038f91906159d8565b610de8565b6040516103a19190615a1d565b60405180910390f35b3480156103b5575f5ffd5b506103be610ee1565b6040516103cb9190615aa6565b60405180910390f35b3480156103df575f5ffd5b506103e8610f71565b6040516103f59190615b05565b60405180910390f35b348015610409575f5ffd5b50610412610f99565b60405161041f9190615b36565b60405180910390f35b348015610433575f5ffd5b5061044e60048036038101906104499190615b79565b610f9e565b60405161045b9190615b05565b60405180910390f35b34801561046f575f5ffd5b5061048a60048036038101906104859190615bce565b611016565b005b348015610497575f5ffd5b506104b260048036038101906104ad9190615c0c565b611119565b005b3480156104bf575f5ffd5b506104c8611163565b6040516104d59190615b36565b60405180910390f35b3480156104e9575f5ffd5b5061050460048036038101906104ff9190615c37565b611178565b005b348015610511575f5ffd5b5061052c60048036038101906105279190615b79565b611188565b6040516105399190615b36565b60405180910390f35b34801561054d575f5ffd5b5061056860048036038101906105639190615c87565b6111f8565b604051610576929190615cc5565b60405180910390f35b34801561058a575f5ffd5b506105a560048036038101906105a09190615b79565b611234565b6040516105b29190615b36565b60405180910390f35b3480156105c6575f5ffd5b506105e160048036038101906105dc9190615c0c565b611249565b6040516105ee9190615b36565b60405180910390f35b610611600480360381019061060c9190615b79565b6112a0565b005b34801561061e575f5ffd5b50610627611513565b6040516106349190615b36565b60405180910390f35b348015610648575f5ffd5b50610663600480360381019061065e9190615d39565b61151c565b005b348015610670575f5ffd5b5061068b60048036038101906106869190615c37565b61178a565b005b348015610698575f5ffd5b506106b360048036038101906106ae9190615b79565b6117a9565b005b3480156106c0575f5ffd5b506106c96117b7565b6040516106d69190615b36565b60405180910390f35b3480156106ea575f5ffd5b5061070560048036038101906107009190615b79565b6117bd565b6040516107129190615a1d565b60405180910390f35b348015610726575f5ffd5b50610741600480360381019061073c9190615b79565b6117e5565b60405161074f929190615daf565b60405180910390f35b348015610763575f5ffd5b5061077e60048036038101906107799190615f02565b6118e6565b005b34801561078b575f5ffd5b506107a660048036038101906107a19190615c87565b61197f565b005b3480156107b3575f5ffd5b506107ce60048036038101906107c99190615bce565b611a6e565b005b3480156107db575f5ffd5b506107f660048036038101906107f19190615b79565b611aba565b6040516108039190615b05565b60405180910390f35b348015610817575f5ffd5b50610820611ace565b60405161082d9190615b36565b60405180910390f35b348015610841575f5ffd5b5061084a611ada565b6040516108579190615b36565b60405180910390f35b34801561086b575f5ffd5b5061088660048036038101906108819190615c0c565b611ae0565b005b348015610893575f5ffd5b506108ae60048036038101906108a99190615c0c565b611b2a565b6040516108bb9190615b36565b60405180910390f35b3480156108cf575f5ffd5b506108ea60048036038101906108e59190615b79565b611bf4565b6040516108f79190615a1d565b60405180910390f35b61091a60048036038101906109159190616005565b611c11565b005b348015610927575f5ffd5b50610930611d5c565b60405161093d9190615b05565b60405180910390f35b348015610951575f5ffd5b5061095a611d84565b6040516109679190615b36565b60405180910390f35b34801561097b575f5ffd5b5061099660048036038101906109919190615f02565b611d89565b005b3480156109a3575f5ffd5b506109ac611dd3565b6040516109b99190615aa6565b60405180910390f35b3480156109cd575f5ffd5b506109e860048036038101906109e391906160c6565b611e63565b005b3480156109f5575f5ffd5b50610a106004803603810190610a0b9190616173565b611eb1565b604051610a1d9190615aa6565b60405180910390f35b348015610a31575f5ffd5b50610a4c6004803603810190610a479190615b79565b612057565b604051610a599190616222565b60405180910390f35b348015610a6d575f5ffd5b50610a886004803603810190610a839190616242565b6120f2565b005b348015610a95575f5ffd5b50610a9e612264565b604051610aab9190615b36565b60405180910390f35b348015610abf575f5ffd5b50610ada6004803603810190610ad591906162d5565b61226a565b604051610ae79190616423565b60405180910390f35b348015610afb575f5ffd5b50610b0461242b565b604051610b119190615b36565b60405180910390f35b348015610b25575f5ffd5b50610b2e612433565b604051610b3c929190615daf565b60405180910390f35b348015610b50575f5ffd5b50610b6b6004803603810190610b669190616443565b612470565b005b348015610b78575f5ffd5b50610b936004803603810190610b8e9190615b79565b6124e8565b604051610ba09190615aa6565b60405180910390f35b348015610bb4575f5ffd5b50610bcf6004803603810190610bca9190616173565b61256e565b604051610bdc9190615aa6565b60405180910390f35b348015610bf0575f5ffd5b50610c0b6004803603810190610c069190616518565b612632565b604051610c189190615b36565b60405180910390f35b348015610c2c575f5ffd5b50610c356126df565b604051610c499897969594939291906165c1565b60405180910390f35b348015610c5d575f5ffd5b50610c666127b9565b604051610c739190615b36565b60405180910390f35b348015610c87575f5ffd5b50610c906127bf565b604051610c9d9190615b36565b60405180910390f35b348015610cb1575f5ffd5b50610ccc6004803603810190610cc79190615b79565b6127c5565b005b348015610cd9575f5ffd5b50610cf46004803603810190610cef9190616644565b612855565b604051610d019190616222565b60405180910390f35b348015610d15575f5ffd5b50610d1e6128de565b604051610d2b9190615aa6565b60405180910390f35b348015610d3f575f5ffd5b50610d5a6004803603810190610d5591906166bd565b61296a565b604051610d679190615a1d565b60405180910390f35b348015610d7b575f5ffd5b50610d966004803603810190610d9191906166fb565b6129f8565b604051610da39190615a1d565b60405180910390f35b348015610db7575f5ffd5b50610dd26004803603810190610dcd9190615c0c565b612ea7565b604051610ddf9190615b36565b60405180910390f35b5f6301ffc9a760e01b827bffffffffffffffffffffffffffffffffffffffffffffffffffffffff19161480610e4257506380ac58cd60e01b827bffffffffffffffffffffffffffffffffffffffffffffffffffffffff1916145b80610e725750635b5e139f60e01b827bffffffffffffffffffffffffffffffffffffffffffffffffffffffff1916145b80610eda57507f2a55205a000000000000000000000000000000000000000000000000000000007bffffffffffffffffffffffffffffffffffffffffffffffffffffffff1916827bffffffffffffffffffffffffffffffffffffffffffffffffffffffff1916145b9050919050565b606060028054610ef0906167bb565b80601f0160208091040260200160405190810160405280929190818152602001828054610f1c906167bb565b8015610f675780601f10610f3e57610100808354040283529160200191610f67565b820191905f5260205f20905b815481529060010190602001808311610f4a57829003601f168201915b5050505050905090565b5f600f5f9054906101000a900473ffffffffffffffffffffffffffffffffffffffff16905090565b600481565b5f610fa882612ebc565b610fde576040517fcf4700e400000000000000000000000000000000000000000000000000000000815260040160405180910390fd5b60065f8381526020019081526020015f205f9054906101000a900473ffffffffffffffffffffffffffffffffffffffff169050919050565b5f61102082611aba565b90508073ffffffffffffffffffffffffffffffffffffffff168373ffffffffffffffffffffffffffffffffffffffff1603611087576040517f943f7b8c00000000000000000000000000000000000000000000000000000000815260040160405180910390fd5b8073ffffffffffffffffffffffffffffffffffffffff166110a6612f05565b73ffffffffffffffffffffffffffffffffffffffff1614611109576110d2816110cd612f05565b61296a565b611108576040517fcfb3b94200000000000000000000000000000000000000000000000000000000815260040160405180910390fd5b5b611114838383612f0c565b505050565b611121612fbb565b611157576040517f2d99739600000000000000000000000000000000000000000000000000000000815260040160405180910390fd5b61116081612ff7565b50565b5f61116c6130ba565b6001545f540303905090565b6111838383836130c1565b505050565b5f611191611ace565b82106111d457816040517f0f2624ee0000000000000000000000000000000000000000000000000000000081526004016111cb9190615b36565b60405180910390fd5b600c82815481106111e8576111e76167eb565b5b905f5260205f2001549050919050565b5f5f5f5f611205866117e5565b61ffff1691509150819350612710818661121f9190616845565b61122991906168b3565b925050509250929050565b6022602052805f5260405f205f915090505481565b5f601b5f601a5481526020019081526020015f205f8373ffffffffffffffffffffffffffffffffffffffff1673ffffffffffffffffffffffffffffffffffffffff1681526020019081526020015f20549050919050565b5f81116112e2576040517f08c379a00000000000000000000000000000000000000000000000000000000081526004016112d99061692d565b60405180910390fd5b601d548160235f3373ffffffffffffffffffffffffffffffffffffffff1673ffffffffffffffffffffffffffffffffffffffff1681526020019081526020015f205461132e919061694b565b111561136f576040517f08c379a0000000000000000000000000000000000000000000000000000000008152600401611366906169c8565b60405180910390fd5b600a81601f5461137f919061694b565b11156113c0576040517f08c379a00000000000000000000000000000000000000000000000000000000081526004016113b790616a30565b60405180910390fd5b8060225f601e5481526020019081526020015f20546113df9190616845565b341015611421576040517f08c379a000000000000000000000000000000000000000000000000000000000815260040161141890616a98565b60405180910390fd5b5f5f90505b81811015611486575f6001601f5461143e919061694b565b905061144a3382613557565b601f5f81548092919061145c90616ab6565b919050555060205f81548092919061147390616ab6565b9190505550508080600101915050611426565b508060235f3373ffffffffffffffffffffffffffffffffffffffff1673ffffffffffffffffffffffffffffffffffffffff1681526020019081526020015f205f8282546114d3919061694b565b92505081905550601c5460205410611510575f6020819055506004601e54101561150f57601e5f81548092919061150990616ab6565b91905055505b5b50565b5f601054905090565b61152461381a565b61155a576040517f56c4ef5100000000000000000000000000000000000000000000000000000000815260040160405180910390fd5b5f601a5490505f601260020154905082156115a5575f905061157a613856565b4360405160200161158c929190616b62565b6040516020818303038152906040528051906020012091505b83602001358111156115e3576040517f0656a73e00000000000000000000000000000000000000000000000000000000815260040160405180910390fd5b604051806101000160405280855f013581526020018560200135815260200182815260200185606001358152602001856080013581526020018560a0013581526020018560c00160208101906116399190615c0c565b73ffffffffffffffffffffffffffffffffffffffff168152602001858060e001906116649190616b99565b8080601f0160208091040260200160405190810160405280939291908181526020018383808284375f81840152601f19601f8201169050808301925050505050505081525060125f820151815f01556020820151816001015560408201518160020155606082015181600301556080820151816004015560a0820151816005015560c0820151816006015f6101000a81548173ffffffffffffffffffffffffffffffffffffffff021916908373ffffffffffffffffffffffffffffffffffffffff16021790555060e08201518160070190816117409190616d9b565b5090505081601a819055507f6dab9d7d05d468100139089b2516cb8ff286c3972ff070d3b509e371f0d0d4b8848460405161177c92919061709c565b60405180910390a150505050565b6117a483838360405180602001604052805f815250612470565b505050565b6117b481600161385d565b50565b601d5481565b5f5f60115f8481526020019081526020015f2080546117db906167bb565b9050119050919050565b5f5f5f600b5f8581526020019081526020015f206040518060400160405290815f82015f9054906101000a900473ffffffffffffffffffffffffffffffffffffffff1673ffffffffffffffffffffffffffffffffffffffff1673ffffffffffffffffffffffffffffffffffffffff16815260200160018201548152505090505f73ffffffffffffffffffffffffffffffffffffffff16815f015173ffffffffffffffffffffffffffffffffffffffff16146118a857805f015181602001516118dc565b600a5f9054906101000a900473ffffffffffffffffffffffffffffffffffffffff16600a60149054906101000a900461ffff165b9250925050915091565b60095f9054906101000a900473ffffffffffffffffffffffffffffffffffffffff1673ffffffffffffffffffffffffffffffffffffffff163373ffffffffffffffffffffffffffffffffffffffff161461196c576040517f2d99739600000000000000000000000000000000000000000000000000000000815260040160405180910390fd5b806021908161197b9190616d9b565b5050565b60095f9054906101000a900473ffffffffffffffffffffffffffffffffffffffff1673ffffffffffffffffffffffffffffffffffffffff163373ffffffffffffffffffffffffffffffffffffffff1614611a05576040517f2d99739600000000000000000000000000000000000000000000000000000000815260040160405180910390fd5b5f82118015611a15575060048211155b611a54576040517f08c379a0000000000000000000000000000000000000000000000000000000008152600401611a4b90617114565b60405180910390fd5b8060225f8481526020019081526020015f20819055505050565b611a76613c2b565b611aac576040517fdf5c6b0200000000000000000000000000000000000000000000000000000000815260040160405180910390fd5b611ab68282613c67565b5050565b5f611ac482613d61565b5f01519050919050565b5f600c80549050905090565b601c5481565b611ae8613fd9565b611b1e576040517f7260843c00000000000000000000000000000000000000000000000000000000815260040160405180910390fd5b611b2781614015565b50565b5f5f73ffffffffffffffffffffffffffffffffffffffff168273ffffffffffffffffffffffffffffffffffffffff1603611b90576040517f8f4eb60400000000000000000000000000000000000000000000000000000000815260040160405180910390fd5b60055f8373ffffffffffffffffffffffffffffffffffffffff1673ffffffffffffffffffffffffffffffffffffffff1681526020019081526020015f205f015f9054906101000a900467ffffffffffffffff1667ffffffffffffffff169050919050565b600e602052805f5260405f205f915054906101000a900460ff1681565b611c1f86868686868661410b565b5f601a549050611c39611c30613856565b878787876129f8565b508560126002015f828254611c4e919061694b565b9250508190555085601b5f8381526020019081526020015f205f611c70613856565b73ffffffffffffffffffffffffffffffffffffffff1673ffffffffffffffffffffffffffffffffffffffff1681526020019081526020015f205f828254611cb7919061694b565b92505081905550611cca5f878787614164565b5f611cd588886142b4565b9050808873ffffffffffffffffffffffffffffffffffffffff16611cf7613856565b73ffffffffffffffffffffffffffffffffffffffff167fff097c7d8b1957a4ff09ef1361b5fb54dcede3941ba836d0beb9d10bec725de68a604051611d3c9190615b36565b60405180910390a4611d528888888888886142c9565b5050505050505050565b5f60095f9054906101000a900473ffffffffffffffffffffffffffffffffffffffff16905090565b600a81565b611d916142d1565b611dc7576040517f9f7f092500000000000000000000000000000000000000000000000000000000815260040160405180910390fd5b611dd08161430d565b50565b606060038054611de2906167bb565b80601f0160208091040260200160405190810160405280929190818152602001828054611e0e906167bb565b8015611e595780601f10611e3057610100808354040283529160200191611e59565b820191905f5260205f20905b815481529060010190602001808311611e3c57829003601f168201915b5050505050905090565b611e6b613c2b565b611ea1576040517fdf5c6b0200000000000000000000000000000000000000000000000000000000815260040160405180910390fd5b611eac8383836143e6565b505050565b60605f60115f8681526020019081526020015f208054611ed0906167bb565b80601f0160208091040260200160405190810160405280929190818152602001828054611efc906167bb565b8015611f475780601f10611f1e57610100808354040283529160200191611f47565b820191905f5260205f20905b815481529060010190602001808311611f2a57829003601f168201915b505050505090505f815103611f88576040517f5d0580b300000000000000000000000000000000000000000000000000000000815260040160405180910390fd5b5f5f82806020019051810190611f9e91906171b4565b91509150611fad828787612855565b93508084878746604051602001611fc79493929190617276565b604051602081830303815290604052805190602001201461204d578084878746604051602001611ffa9493929190617276565b604051602081830303815290604052805190602001206040517fcd915d3c0000000000000000000000000000000000000000000000000000000081526004016120449291906172ac565b60405180910390fd5b5050509392505050565b6011602052805f5260405f205f915090508054612073906167bb565b80601f016020809104026020016040519081016040528092919081815260200182805461209f906167bb565b80156120ea5780601f106120c1576101008083540402835291602001916120ea565b820191905f5260205f20905b8154815290600101906020018083116120cd57829003601f168201915b505050505081565b6120fa612f05565b73ffffffffffffffffffffffffffffffffffffffff168273ffffffffffffffffffffffffffffffffffffffff160361215e576040517fb06307db00000000000000000000000000000000000000000000000000000000815260040160405180910390fd5b8060075f61216a612f05565b73ffffffffffffffffffffffffffffffffffffffff1673ffffffffffffffffffffffffffffffffffffffff1681526020019081526020015f205f8473ffffffffffffffffffffffffffffffffffffffff1673ffffffffffffffffffffffffffffffffffffffff1681526020019081526020015f205f6101000a81548160ff0219169083151502179055508173ffffffffffffffffffffffffffffffffffffffff16612213612f05565b73ffffffffffffffffffffffffffffffffffffffff167f17307eab39ab6107e8899845ad3d59bd9653f200f220920489ca2b5937696c31836040516122589190615a1d565b60405180910390a35050565b601f5481565b60608282905067ffffffffffffffff81111561228957612288615dde565b5b6040519080825280602002602001820160405280156122bc57816020015b60608152602001906001900390816122a75790505b5090505f6122c8612f05565b90505f8173ffffffffffffffffffffffffffffffffffffffff163373ffffffffffffffffffffffffffffffffffffffff16141590505f5f90505b85859050811015612422578115612386576123633087878481811061232a576123296167eb565b5b905060200281019061233c91906172d3565b8660405160200161234f93929190617335565b604051602081830303815290604052614512565b848281518110612376576123756167eb565b5b6020026020010181905250612415565b6123f63087878481811061239d5761239c6167eb565b5b90506020028101906123af91906172d3565b8080601f0160208091040260200160405190810160405280939291908181526020018383808284375f81840152601f19601f82011690508083019250505050505050614512565b848281518110612409576124086167eb565b5b60200260200101819052505b8080600101915050612302565b50505092915050565b5f5f54905090565b5f5f600a5f9054906101000a900473ffffffffffffffffffffffffffffffffffffffff16600a60149054906101000a900461ffff16915091509091565b61247b8484846130c1565b61249a8373ffffffffffffffffffffffffffffffffffffffff1661453f565b156124e2576124ab84848484614561565b6124e1576040517fd1a57ed600000000000000000000000000000000000000000000000000000000815260040160405180910390fd5b5b50505050565b60605f6124f4836146ac565b5090505f612501846147b9565b905061250c826117bd565b1561253a578060405160200161252291906173a8565b60405160208183030381529060405292505050612569565b806125448561495a565b6040516020016125559291906173c9565b604051602081830303815290604052925050505b919050565b6060612578614ab3565b6125b7576040517f08c379a00000000000000000000000000000000000000000000000000000000081526004016125ae90617436565b60405180910390fd5b5f6125c185611188565b90506125ce818585611eb1565b91506125e88160405180602001604052805f815250614aef565b6125f28183614b12565b847f6df1d8db2a036436ffe0b2d1833f2c5f1e624818dfce2578c0faa4b83ef9998d836040516126229190615aa6565b60405180910390a2509392505050565b5f5f8383905011156126c7575f5f848481019061264f9190617454565b915091505f82511415801561266457505f8114155b156126c4576126c38860105461267a919061694b565b86868080601f0160208091040260200160405190810160405280939291908181526020018383808284375f81840152601f19601f82011690508083019250505050505050614aef565b5b50505b6126d48686868686614bd6565b905095945050505050565b6012805f015490806001015490806002015490806003015490806004015490806005015490806006015f9054906101000a900473ffffffffffffffffffffffffffffffffffffffff1690806007018054612738906167bb565b80601f0160208091040260200160405190810160405280929190818152602001828054612764906167bb565b80156127af5780601f10612786576101008083540402835291602001916127af565b820191905f5260205f20905b81548152906001019060200180831161279257829003601f168201915b5050505050905088565b601e5481565b60205481565b60095f9054906101000a900473ffffffffffffffffffffffffffffffffffffffff1673ffffffffffffffffffffffffffffffffffffffff163373ffffffffffffffffffffffffffffffffffffffff161461284b576040517f2d99739600000000000000000000000000000000000000000000000000000000815260040160405180910390fd5b80601d8190555050565b60605f8451905060405191506020818301016040528082525f5f90505b818110156128d5575f858583604051602001612890939291906174ae565b6040516020818303038152906040528051906020012090505f6020830188015190508181189050806020840186015250506020816128ce919061694b565b9050612872565b50509392505050565b600880546128eb906167bb565b80601f0160208091040260200160405190810160405280929190818152602001828054612917906167bb565b80156129625780601f1061293957610100808354040283529160200191612962565b820191905f5260205f20905b81548152906001019060200180831161294557829003601f168201915b505050505081565b5f60075f8473ffffffffffffffffffffffffffffffffffffffff1673ffffffffffffffffffffffffffffffffffffffff1681526020019081526020015f205f8373ffffffffffffffffffffffffffffffffffffffff1673ffffffffffffffffffffffffffffffffffffffff1681526020019081526020015f205f9054906101000a900460ff16905092915050565b5f5f6012604051806101000160405290815f82015481526020016001820154815260200160028201548152602001600382015481526020016004820154815260200160058201548152602001600682015f9054906101000a900473ffffffffffffffffffffffffffffffffffffffff1673ffffffffffffffffffffffffffffffffffffffff1673ffffffffffffffffffffffffffffffffffffffff168152602001600782018054612aa8906167bb565b80601f0160208091040260200160405190810160405280929190818152602001828054612ad4906167bb565b8015612b1f5780601f10612af657610100808354040283529160200191612b1f565b820191905f5260205f20905b815481529060010190602001808311612b0257829003601f168201915b50505050508152505090505f816060015190505f8260a0015190505f8360c0015190505f5f1b846080015114612bb857612bb286805f0190612b6191906174d7565b86608001518d8a602001358b604001358c6060016020810190612b849190615c0c565b604051602001612b979493929190617539565b60405160208183030381529060405280519060200120614d10565b50809550505b8415612ca3575f866020013503612bcf5782612bd5565b85602001355b92507fffffffffffffffffffffffffffffffffffffffffffffffffffffffffffffffff866040013503612c085781612c0e565b85604001355b91507fffffffffffffffffffffffffffffffffffffffffffffffffffffffffffffffff866040013514158015612c8257505f73ffffffffffffffffffffffffffffffffffffffff16866060016020810190612c699190615c0c565b73ffffffffffffffffffffffffffffffffffffffff1614155b612c8c5780612ca0565b856060016020810190612c9f9190615c0c565b5b90505b5f601b5f601a5481526020019081526020015f205f8c73ffffffffffffffffffffffffffffffffffffffff1673ffffffffffffffffffffffffffffffffffffffff1681526020019081526020015f205490508173ffffffffffffffffffffffffffffffffffffffff168973ffffffffffffffffffffffffffffffffffffffff16141580612d305750828814155b15612d7857888883856040517ff13474e9000000000000000000000000000000000000000000000000000000008152600401612d6f9493929190617586565b60405180910390fd5b5f8a1480612d90575083818b612d8e919061694b565b115b15612ddf5783818b612da2919061694b565b6040517f9e7762db000000000000000000000000000000000000000000000000000000008152600401612dd69291906175c9565b60405180910390fd5b84602001518a8660400151612df4919061694b565b1115612e4c5784602001518a8660400151612e0f919061694b565b6040517ffe381cc9000000000000000000000000000000000000000000000000000000008152600401612e439291906175c9565b60405180910390fd5b42855f01511115612e9957845f0151426040517f4562091e000000000000000000000000000000000000000000000000000000008152600401612e909291906175c9565b60405180910390fd5b505050505095945050505050565b6023602052805f5260405f205f915090505481565b5f81612ec66130ba565b11158015612ed457505f5482105b8015612efe575060045f8381526020019081526020015f205f01601c9054906101000a900460ff16155b9050919050565b5f33905090565b8260065f8481526020019081526020015f205f6101000a81548173ffffffffffffffffffffffffffffffffffffffff021916908373ffffffffffffffffffffffffffffffffffffffff160217905550818373ffffffffffffffffffffffffffffffffffffffff168273ffffffffffffffffffffffffffffffffffffffff167f8c5be1e5ebec7d5bd14f71427d1e84f3dd0314c0f7b2291e5b200ac8c7c3b92560405160405180910390a4505050565b5f612fc4611d5c565b73ffffffffffffffffffffffffffffffffffffffff163373ffffffffffffffffffffffffffffffffffffffff1614905090565b5f60095f9054906101000a900473ffffffffffffffffffffffffffffffffffffffff1690508160095f6101000a81548173ffffffffffffffffffffffffffffffffffffffff021916908373ffffffffffffffffffffffffffffffffffffffff1602179055508173ffffffffffffffffffffffffffffffffffffffff168173ffffffffffffffffffffffffffffffffffffffff167f8292fce18fa69edf4db7b94ea2e58241df0ae57f97e0a6c9b29067028bf92d7660405160405180910390a35050565b5f5f905090565b5f6130cb82613d61565b90508373ffffffffffffffffffffffffffffffffffffffff16815f015173ffffffffffffffffffffffffffffffffffffffff1614613135576040517fa114810000000000000000000000000000000000000000000000000000000000815260040160405180910390fd5b5f8473ffffffffffffffffffffffffffffffffffffffff16613155612f05565b73ffffffffffffffffffffffffffffffffffffffff16148061318457506131838561317e612f05565b61296a565b5b806131c95750613192612f05565b73ffffffffffffffffffffffffffffffffffffffff166131b184610f9e565b73ffffffffffffffffffffffffffffffffffffffff16145b905080613202576040517f59c896be00000000000000000000000000000000000000000000000000000000815260040160405180910390fd5b5f73ffffffffffffffffffffffffffffffffffffffff168473ffffffffffffffffffffffffffffffffffffffff1603613267576040517fea553b3400000000000000000000000000000000000000000000000000000000815260040160405180910390fd5b6132748585856001614dac565b61327f5f8487612f0c565b600160055f8773ffffffffffffffffffffffffffffffffffffffff1673ffffffffffffffffffffffffffffffffffffffff1681526020019081526020015f205f015f8282829054906101000a900467ffffffffffffffff160392506101000a81548167ffffffffffffffff021916908367ffffffffffffffff160217905550600160055f8673ffffffffffffffffffffffffffffffffffffffff1673ffffffffffffffffffffffffffffffffffffffff1681526020019081526020015f205f015f8282829054906101000a900467ffffffffffffffff160192506101000a81548167ffffffffffffffff021916908367ffffffffffffffff1602179055505f60045f8581526020019081526020015f20905084815f015f6101000a81548173ffffffffffffffffffffffffffffffffffffffff021916908373ffffffffffffffffffffffffffffffffffffffff16021790555042815f0160146101000a81548167ffffffffffffffff021916908367ffffffffffffffff1602179055505f6001850190505f60045f8381526020019081526020015f2090505f73ffffffffffffffffffffffffffffffffffffffff16815f015f9054906101000a900473ffffffffffffffffffffffffffffffffffffffff1673ffffffffffffffffffffffffffffffffffffffff16036134e5575f5482146134e45787815f015f6101000a81548173ffffffffffffffffffffffffffffffffffffffff021916908373ffffffffffffffffffffffffffffffffffffffff1602179055508460200151815f0160146101000a81548167ffffffffffffffff021916908367ffffffffffffffff1602179055505b5b505050828473ffffffffffffffffffffffffffffffffffffffff168673ffffffffffffffffffffffffffffffffffffffff167fddf252ad1be2c89b69c2b068fc378daa952ba7f163c4a11628f55a4df523b3ef60405160405180910390a46135508585856001614db2565b5050505050565b5f5f5490505f73ffffffffffffffffffffffffffffffffffffffff168373ffffffffffffffffffffffffffffffffffffffff16036135c1576040517f2e07630000000000000000000000000000000000000000000000000000000000815260040160405180910390fd5b5f82036135fa576040517fb562e8dd00000000000000000000000000000000000000000000000000000000815260040160405180910390fd5b6136065f848385614dac565b8160055f8573ffffffffffffffffffffffffffffffffffffffff1673ffffffffffffffffffffffffffffffffffffffff1681526020019081526020015f205f015f8282829054906101000a900467ffffffffffffffff160192506101000a81548167ffffffffffffffff021916908367ffffffffffffffff1602179055508160055f8573ffffffffffffffffffffffffffffffffffffffff1673ffffffffffffffffffffffffffffffffffffffff1681526020019081526020015f205f0160088282829054906101000a900467ffffffffffffffff160192506101000a81548167ffffffffffffffff021916908367ffffffffffffffff1602179055508260045f8381526020019081526020015f205f015f6101000a81548173ffffffffffffffffffffffffffffffffffffffff021916908373ffffffffffffffffffffffffffffffffffffffff1602179055504260045f8381526020019081526020015f205f0160146101000a81548167ffffffffffffffff021916908367ffffffffffffffff1602179055505f8190505f83820190505b818060010192508573ffffffffffffffffffffffffffffffffffffffff165f73ffffffffffffffffffffffffffffffffffffffff167fddf252ad1be2c89b69c2b068fc378daa952ba7f163c4a11628f55a4df523b3ef60405160405180910390a480821061379957815f8190555050506138155f848385614db2565b505050565b5f613823611d5c565b73ffffffffffffffffffffffffffffffffffffffff163373ffffffffffffffffffffffffffffffffffffffff1614905090565b5f33905090565b5f61386783613d61565b90505f815f015190508215613945575f8173ffffffffffffffffffffffffffffffffffffffff16613896612f05565b73ffffffffffffffffffffffffffffffffffffffff1614806138c557506138c4826138bf612f05565b61296a565b5b8061390a57506138d3612f05565b73ffffffffffffffffffffffffffffffffffffffff166138f286610f9e565b73ffffffffffffffffffffffffffffffffffffffff16145b905080613943576040517f59c896be00000000000000000000000000000000000000000000000000000000815260040160405180910390fd5b505b613952815f866001614dac565b61395d5f8583612f0c565b5f60055f8373ffffffffffffffffffffffffffffffffffffffff1673ffffffffffffffffffffffffffffffffffffffff1681526020019081526020015f2090506001815f015f8282829054906101000a900467ffffffffffffffff160392506101000a81548167ffffffffffffffff021916908367ffffffffffffffff1602179055506001815f0160108282829054906101000a900467ffffffffffffffff160192506101000a81548167ffffffffffffffff021916908367ffffffffffffffff1602179055505f60045f8781526020019081526020015f20905082815f015f6101000a81548173ffffffffffffffffffffffffffffffffffffffff021916908373ffffffffffffffffffffffffffffffffffffffff16021790555042815f0160146101000a81548167ffffffffffffffff021916908367ffffffffffffffff1602179055506001815f01601c6101000a81548160ff0219169083151502179055505f6001870190505f60045f8381526020019081526020015f2090505f73ffffffffffffffffffffffffffffffffffffffff16815f015f9054906101000a900473ffffffffffffffffffffffffffffffffffffffff1673ffffffffffffffffffffffffffffffffffffffff1603613ba8575f548214613ba75784815f015f6101000a81548173ffffffffffffffffffffffffffffffffffffffff021916908373ffffffffffffffffffffffffffffffffffffffff1602179055508560200151815f0160146101000a81548167ffffffffffffffff021916908367ffffffffffffffff1602179055505b5b50505050835f73ffffffffffffffffffffffffffffffffffffffff168273ffffffffffffffffffffffffffffffffffffffff167fddf252ad1be2c89b69c2b068fc378daa952ba7f163c4a11628f55a4df523b3ef60405160405180910390a4613c14815f866001614db2565b60015f815480929190600101919050555050505050565b5f613c34611d5c565b73ffffffffffffffffffffffffffffffffffffffff163373ffffffffffffffffffffffffffffffffffffffff1614905090565b612710811115613cb257612710816040517f52498568000000000000000000000000000000000000000000000000000000008152600401613ca9929190617629565b60405180910390fd5b81600a5f6101000a81548173ffffffffffffffffffffffffffffffffffffffff021916908373ffffffffffffffffffffffffffffffffffffffff16021790555080600a60146101000a81548161ffff021916908361ffff1602179055508173ffffffffffffffffffffffffffffffffffffffff167f90d7ec04bcb8978719414f82e52e4cb651db41d0e6f8cea6118c2191e6183adb82604051613d559190615b36565b60405180910390a25050565b613d69615932565b5f82905080613d766130ba565b11613fa2575f54811015613fa1575f60045f8381526020019081526020015f206040518060600160405290815f82015f9054906101000a900473ffffffffffffffffffffffffffffffffffffffff1673ffffffffffffffffffffffffffffffffffffffff1673ffffffffffffffffffffffffffffffffffffffff1681526020015f820160149054906101000a900467ffffffffffffffff1667ffffffffffffffff1667ffffffffffffffff1681526020015f8201601c9054906101000a900460ff16151515158152505090508060400151613f9f575f73ffffffffffffffffffffffffffffffffffffffff16815f015173ffffffffffffffffffffffffffffffffffffffff1614613e8b578092505050613fd4565b5b600115613f9e5781806001900392505060045f8381526020019081526020015f206040518060600160405290815f82015f9054906101000a900473ffffffffffffffffffffffffffffffffffffffff1673ffffffffffffffffffffffffffffffffffffffff1673ffffffffffffffffffffffffffffffffffffffff1681526020015f820160149054906101000a900467ffffffffffffffff1667ffffffffffffffff1667ffffffffffffffff1681526020015f8201601c9054906101000a900460ff16151515158152505090505f73ffffffffffffffffffffffffffffffffffffffff16815f015173ffffffffffffffffffffffffffffffffffffffff1614613f99578092505050613fd4565b613e8c565b5b505b5b6040517fdf2d9b4200000000000000000000000000000000000000000000000000000000815260040160405180910390fd5b919050565b5f613fe2611d5c565b73ffffffffffffffffffffffffffffffffffffffff163373ffffffffffffffffffffffffffffffffffffffff1614905090565b5f73ffffffffffffffffffffffffffffffffffffffff168173ffffffffffffffffffffffffffffffffffffffff160361408557806040517f3df2b0dc00000000000000000000000000000000000000000000000000000000815260040161407c9190615b05565b60405180910390fd5b80600f5f6101000a81548173ffffffffffffffffffffffffffffffffffffffff021916908373ffffffffffffffffffffffffffffffffffffffff1602179055508073ffffffffffffffffffffffffffffffffffffffff167f299d17e95023f496e0ffc4909cff1a61f74bb5eb18de6f900f4155bfa1b3b33360405160405180910390a250565b601054855f5461411b919061694b565b111561415c576040517f08c379a00000000000000000000000000000000000000000000000000000000081526004016141539061769a565b60405180910390fd5b505050505050565b5f81036141b2575f34146141ad576040517f08c379a00000000000000000000000000000000000000000000000000000000081526004016141a490617702565b60405180910390fd5b6142ae565b5f81846141bf9190616845565b90505f73eeeeeeeeeeeeeeeeeeeeeeeeeeeeeeeeeeeeeeee73ffffffffffffffffffffffffffffffffffffffff168473ffffffffffffffffffffffffffffffffffffffff1603614213578134149050614219565b5f341490505b80614259576040517f08c379a00000000000000000000000000000000000000000000000000000000081526004016142509061776a565b60405180910390fd5b5f5f73ffffffffffffffffffffffffffffffffffffffff168773ffffffffffffffffffffffffffffffffffffffff1614614293578661429c565b61429b610f71565b5b90506142aa85338386614db8565b5050505b50505050565b5f5f5490506142c38383614e2a565b92915050565b505050505050565b5f6142da611d5c565b73ffffffffffffffffffffffffffffffffffffffff163373ffffffffffffffffffffffffffffffffffffffff1614905090565b5f6008805461431b906167bb565b80601f0160208091040260200160405190810160405280929190818152602001828054614347906167bb565b80156143925780601f1061436957610100808354040283529160200191614392565b820191905f5260205f20905b81548152906001019060200180831161437557829003601f168201915b5050505050905081600890816143a89190616d9b565b507fc9c7c3fe08b88b4df9d4d47ef47d2c43d55c025a0ba88ca442580ed9e7348a1681836040516143da929190617788565b60405180910390a15050565b61271081111561443157612710816040517f52498568000000000000000000000000000000000000000000000000000000008152600401614428929190617629565b60405180910390fd5b60405180604001604052808373ffffffffffffffffffffffffffffffffffffffff16815260200182815250600b5f8581526020019081526020015f205f820151815f015f6101000a81548173ffffffffffffffffffffffffffffffffffffffff021916908373ffffffffffffffffffffffffffffffffffffffff160217905550602082015181600101559050508173ffffffffffffffffffffffffffffffffffffffff16837f7365cf4122f072a3365c20d54eff9b38d73c096c28e1892ec8f5b0e403a0f12d836040516145059190615b36565b60405180910390a3505050565b60606145378383604051806060016040528060278152602001617ce560279139614e47565b905092915050565b5f5f8273ffffffffffffffffffffffffffffffffffffffff163b119050919050565b5f8373ffffffffffffffffffffffffffffffffffffffff1663150b7a02614586612f05565b8786866040518563ffffffff1660e01b81526004016145a894939291906177bd565b6020604051808303815f875af19250505080156145e357506040513d601f19601f820116820180604052508101906145e0919061781b565b60015b614659573d805f8114614611576040519150601f19603f3d011682016040523d82523d5f602084013e614616565b606091505b505f815103614651576040517fd1a57ed600000000000000000000000000000000000000000000000000000000815260040160405180910390fd5b805181602001fd5b63150b7a0260e01b7bffffffffffffffffffffffffffffffffffffffffffffffffffffffff1916817bffffffffffffffffffffffffffffffffffffffffffffffffffffffff191614915050949350505050565b5f5f5f6146b7611ace565b90505f600c80548060200260200160405190810160405280929190818152602001828054801561470457602002820191905f5260205f20905b8154815260200190600101908083116146f0575b505050505090505f5f90505b828110156147765781818151811061472b5761472a6167eb565b5b6020026020010151861015614762578093508181815181106147505761474f6167eb565b5b602002602001015194505050506147b4565b60018161476f919061694b565b9050614710565b50846040517f25e5fda40000000000000000000000000000000000000000000000000000000081526004016147ab9190615b36565b60405180910390fd5b915091565b60605f6147c4611ace565b90505f600c80548060200260200160405190810160405280929190818152602001828054801561481157602002820191905f5260205f20905b8154815260200190600101908083116147fd575b505050505090505f5f90505b8281101561491757818181518110614838576148376167eb565b5b602002602001015185101561490357600d5f83838151811061485d5761485c6167eb565b5b602002602001015181526020019081526020015f20805461487d906167bb565b80601f01602080910402602001604051908101604052809291908181526020018280546148a9906167bb565b80156148f45780601f106148cb576101008083540402835291602001916148f4565b820191905f5260205f20905b8154815290600101906020018083116148d757829003601f168201915b50505050509350505050614955565b600181614910919061694b565b905061481d565b50836040517f25e5fda400000000000000000000000000000000000000000000000000000000815260040161494c9190615b36565b60405180910390fd5b919050565b60605f82036149a0576040518060400160405280600181526020017f30000000000000000000000000000000000000000000000000000000000000008152509050614aae565b5f8290505f5b5f82146149cf5780806149b890616ab6565b915050600a826149c891906168b3565b91506149a6565b5f8167ffffffffffffffff8111156149ea576149e9615dde565b5b6040519080825280601f01601f191660200182016040528015614a1c5781602001600182028036833780820191505090505b5090505b5f8514614aa757600182614a349190617846565b9150600a85614a439190617879565b6030614a4f919061694b565b60f81b818381518110614a6557614a646167eb565b5b60200101907effffffffffffffffffffffffffffffffffffffffffffffffffffffffffffff191690815f1a905350600a85614aa091906168b3565b9450614a20565b8093505050505b919050565b5f614abc611d5c565b73ffffffffffffffffffffffffffffffffffffffff163373ffffffffffffffffffffffffffffffffffffffff1614905090565b8060115f8481526020019081526020015f209081614b0d9190617901565b505050565b600e5f8381526020019081526020015f205f9054906101000a900460ff1615614b7257816040517fba0f3592000000000000000000000000000000000000000000000000000000008152600401614b699190615b36565b60405180910390fd5b80600d5f8481526020019081526020015f209081614b909190616d9b565b507f6bd5c950a8d8df17f772f5af37cb3655737899cbf903264b9795592da439661c614bbb83614ec9565b83604051614bca9291906175c9565b60405180910390a15050565b5f614bdf614fe9565b614c15576040517ff409ec7300000000000000000000000000000000000000000000000000000000815260040160405180910390fd5b5f8603614c4e576040517f8fd36a9b00000000000000000000000000000000000000000000000000000000815260040160405180910390fd5b5f6010549050614ca2818888888080601f0160208091040260200160405190810160405280939291908181526020018383808284375f81840152601f19601f82011690508083019250505050505050615025565b60105f82955083919050555050807f2a0365091ef1a40953c670dce28177e37520648a6fdc91506bffac0ab045570d60018984614cdf919061694b565b614ce99190617846565b88888888604051614cfe959493929190617a28565b60405180910390a25095945050505050565b5f5f5f8390505f5f90505f5f90505b88889050811015614d9857600282614d379190616845565b91505f898983818110614d4d57614d4c6167eb565b5b905060200201359050808411614d6e57614d678482615085565b9350614d8a565b614d788185615085565b9350600183614d87919061694b565b92505b508080600101915050614d1f565b508582148193509350505094509492505050565b50505050565b50505050565b5f810315614e245773eeeeeeeeeeeeeeeeeeeeeeeeeeeeeeeeeeeeeeee73ffffffffffffffffffffffffffffffffffffffff168473ffffffffffffffffffffffffffffffffffffffff1603614e1657614e118282615099565b614e23565b614e228484848461514a565b5b5b50505050565b614e43828260405180602001604052805f815250615216565b5050565b60605f5f8573ffffffffffffffffffffffffffffffffffffffff1685604051614e709190617a9f565b5f60405180830381855af49150503d805f8114614ea8576040519150601f19603f3d011682016040523d82523d5f602084013e614ead565b606091505b5091509150614ebe868383876155bb565b925050509392505050565b5f5f614ed3611ace565b90505f600c805480602002602001604051908101604052809291908181526020018280548015614f2057602002820191905f5260205f20905b815481526020019060010190808311614f0c575b505050505090505f5f90505b82811015614fa657818181518110614f4757614f466167eb565b5b60200260200101518503614f99575f811115614f8e5781600182614f6b9190617846565b81518110614f7c57614f7b6167eb565b5b60200260200101519350505050614fe4565b5f9350505050614fe4565b8080600101915050614f2c565b50836040517f0f2624ee000000000000000000000000000000000000000000000000000000008152600401614fdb9190615b36565b60405180910390fd5b919050565b5f614ff2611d5c565b73ffffffffffffffffffffffffffffffffffffffff163373ffffffffffffffffffffffffffffffffffffffff1614905090565b5f5f8385615033919061694b565b9050809150600c81908060018154018082558091505060019003905f5260205f20015f909190919091505582600d5f8381526020019081526020015f20908161507c9190616d9b565b50935093915050565b5f825f528160205260405f20905092915050565b5f8273ffffffffffffffffffffffffffffffffffffffff16826040516150be90617ad8565b5f6040518083038185875af1925050503d805f81146150f8576040519150601f19603f3d011682016040523d82523d5f602084013e6150fd565b606091505b50509050806151455782826040517fbfb89d8200000000000000000000000000000000000000000000000000000000815260040161513c929190615cc5565b60405180910390fd5b505050565b8173ffffffffffffffffffffffffffffffffffffffff168373ffffffffffffffffffffffffffffffffffffffff160315615210573073ffffffffffffffffffffffffffffffffffffffff168373ffffffffffffffffffffffffffffffffffffffff16036151e1576151dc82828673ffffffffffffffffffffffffffffffffffffffff1661562f9092919063ffffffff16565b61520f565b61520e8383838773ffffffffffffffffffffffffffffffffffffffff166156b5909392919063ffffffff16565b5b5b50505050565b5f5f5490505f73ffffffffffffffffffffffffffffffffffffffff168473ffffffffffffffffffffffffffffffffffffffff1603615280576040517f2e07630000000000000000000000000000000000000000000000000000000000815260040160405180910390fd5b5f83036152b9576040517fb562e8dd00000000000000000000000000000000000000000000000000000000815260040160405180910390fd5b6152c55f858386614dac565b8260055f8673ffffffffffffffffffffffffffffffffffffffff1673ffffffffffffffffffffffffffffffffffffffff1681526020019081526020015f205f015f8282829054906101000a900467ffffffffffffffff160192506101000a81548167ffffffffffffffff021916908367ffffffffffffffff1602179055508260055f8673ffffffffffffffffffffffffffffffffffffffff1673ffffffffffffffffffffffffffffffffffffffff1681526020019081526020015f205f0160088282829054906101000a900467ffffffffffffffff160192506101000a81548167ffffffffffffffff021916908367ffffffffffffffff1602179055508360045f8381526020019081526020015f205f015f6101000a81548173ffffffffffffffffffffffffffffffffffffffff021916908373ffffffffffffffffffffffffffffffffffffffff1602179055504260045f8381526020019081526020015f205f0160146101000a81548167ffffffffffffffff021916908367ffffffffffffffff1602179055505f8190505f84820190506154768673ffffffffffffffffffffffffffffffffffffffff1661453f565b15615537575b818673ffffffffffffffffffffffffffffffffffffffff165f73ffffffffffffffffffffffffffffffffffffffff167fddf252ad1be2c89b69c2b068fc378daa952ba7f163c4a11628f55a4df523b3ef60405160405180910390a46154e95f878480600101955087614561565b61551f576040517fd1a57ed600000000000000000000000000000000000000000000000000000000815260040160405180910390fd5b80821061547c57825f5414615532575f5ffd5b6155a1565b5b818060010192508673ffffffffffffffffffffffffffffffffffffffff165f73ffffffffffffffffffffffffffffffffffffffff167fddf252ad1be2c89b69c2b068fc378daa952ba7f163c4a11628f55a4df523b3ef60405160405180910390a4808210615538575b815f8190555050506155b55f858386614db2565b50505050565b6060831561561c575f835103615614576155d48561453f565b615613576040517f08c379a000000000000000000000000000000000000000000000000000000000815260040161560a90617b36565b60405180910390fd5b5b829050615627565b615626838361573e565b5b949350505050565b6156b08363a9059cbb60e01b848460405160240161564e929190615cc5565b604051602081830303815290604052907bffffffffffffffffffffffffffffffffffffffffffffffffffffffff19166020820180517bffffffffffffffffffffffffffffffffffffffffffffffffffffffff838183161783525050505061578d565b505050565b615738846323b872dd60e01b8585856040516024016156d693929190617b54565b604051602081830303815290604052907bffffffffffffffffffffffffffffffffffffffffffffffffffffffff19166020820180517bffffffffffffffffffffffffffffffffffffffffffffffffffffffff838183161783525050505061578d565b50505050565b5f825111156157505781518083602001fd5b806040517f08c379a00000000000000000000000000000000000000000000000000000000081526004016157849190615aa6565b60405180910390fd5b5f6157ee826040518060400160405280602081526020017f5361666545524332303a206c6f772d6c6576656c2063616c6c206661696c65648152508573ffffffffffffffffffffffffffffffffffffffff166158529092919063ffffffff16565b90505f8151111561584d578080602001905181019061580d9190617b9d565b61584c576040517f08c379a000000000000000000000000000000000000000000000000000000000815260040161584390617c38565b60405180910390fd5b5b505050565b606061586084845f85615869565b90509392505050565b6060824710156158ae576040517f08c379a00000000000000000000000000000000000000000000000000000000081526004016158a590617cc6565b60405180910390fd5b5f5f8673ffffffffffffffffffffffffffffffffffffffff1685876040516158d69190617a9f565b5f6040518083038185875af1925050503d805f8114615910576040519150601f19603f3d011682016040523d82523d5f602084013e615915565b606091505b5091509150615926878383876155bb565b92505050949350505050565b60405180606001604052805f73ffffffffffffffffffffffffffffffffffffffff1681526020015f67ffffffffffffffff1681526020015f151581525090565b5f604051905090565b5f5ffd5b5f5ffd5b5f7fffffffff0000000000000000000000000000000000000000000000000000000082169050919050565b6159b781615983565b81146159c1575f5ffd5b50565b5f813590506159d2816159ae565b92915050565b5f602082840312156159ed576159ec61597b565b5b5f6159fa848285016159c4565b91505092915050565b5f8115159050919050565b615a1781615a03565b82525050565b5f602082019050615a305f830184615a0e565b92915050565b5f81519050919050565b5f82825260208201905092915050565b8281835e5f83830152505050565b5f601f19601f8301169050919050565b5f615a7882615a36565b615a828185615a40565b9350615a92818560208601615a50565b615a9b81615a5e565b840191505092915050565b5f6020820190508181035f830152615abe8184615a6e565b905092915050565b5f73ffffffffffffffffffffffffffffffffffffffff82169050919050565b5f615aef82615ac6565b9050919050565b615aff81615ae5565b82525050565b5f602082019050615b185f830184615af6565b92915050565b5f819050919050565b615b3081615b1e565b82525050565b5f602082019050615b495f830184615b27565b92915050565b615b5881615b1e565b8114615b62575f5ffd5b50565b5f81359050615b7381615b4f565b92915050565b5f60208284031215615b8e57615b8d61597b565b5b5f615b9b84828501615b65565b91505092915050565b615bad81615ae5565b8114615bb7575f5ffd5b50565b5f81359050615bc881615ba4565b92915050565b5f5f60408385031215615be457615be361597b565b5b5f615bf185828601615bba565b9250506020615c0285828601615b65565b9150509250929050565b5f60208284031215615c2157615c2061597b565b5b5f615c2e84828501615bba565b91505092915050565b5f5f5f60608486031215615c4e57615c4d61597b565b5b5f615c5b86828701615bba565b9350506020615c6c86828701615bba565b9250506040615c7d86828701615b65565b9150509250925092565b5f5f60408385031215615c9d57615c9c61597b565b5b5f615caa85828601615b65565b9250506020615cbb85828601615b65565b9150509250929050565b5f604082019050615cd85f830185615af6565b615ce56020830184615b27565b9392505050565b5f5ffd5b5f6101008284031215615d0657615d05615cec565b5b81905092915050565b615d1881615a03565b8114615d22575f5ffd5b50565b5f81359050615d3381615d0f565b92915050565b5f5f60408385031215615d4f57615d4e61597b565b5b5f83013567ffffffffffffffff811115615d6c57615d6b61597f565b5b615d7885828601615cf0565b9250506020615d8985828601615d25565b9150509250929050565b5f61ffff82169050919050565b615da981615d93565b82525050565b5f604082019050615dc25f830185615af6565b615dcf6020830184615da0565b9392505050565b5f5ffd5b5f5ffd5b7f4e487b71000000000000000000000000000000000000000000000000000000005f52604160045260245ffd5b615e1482615a5e565b810181811067ffffffffffffffff82111715615e3357615e32615dde565b5b80604052505050565b5f615e45615972565b9050615e518282615e0b565b919050565b5f67ffffffffffffffff821115615e7057615e6f615dde565b5b615e7982615a5e565b9050602081019050919050565b828183375f83830152505050565b5f615ea6615ea184615e56565b615e3c565b905082815260208101848484011115615ec257615ec1615dda565b5b615ecd848285615e86565b509392505050565b5f82601f830112615ee957615ee8615dd6565b5b8135615ef9848260208601615e94565b91505092915050565b5f60208284031215615f1757615f1661597b565b5b5f82013567ffffffffffffffff811115615f3457615f3361597f565b5b615f4084828501615ed5565b91505092915050565b5f60808284031215615f5e57615f5d615cec565b5b81905092915050565b5f67ffffffffffffffff821115615f8157615f80615dde565b5b615f8a82615a5e565b9050602081019050919050565b5f615fa9615fa484615f67565b615e3c565b905082815260208101848484011115615fc557615fc4615dda565b5b615fd0848285615e86565b509392505050565b5f82601f830112615fec57615feb615dd6565b5b8135615ffc848260208601615f97565b91505092915050565b5f5f5f5f5f5f60c0878903121561601f5761601e61597b565b5b5f61602c89828a01615bba565b965050602061603d89828a01615b65565b955050604061604e89828a01615bba565b945050606061605f89828a01615b65565b935050608087013567ffffffffffffffff8111156160805761607f61597f565b5b61608c89828a01615f49565b92505060a087013567ffffffffffffffff8111156160ad576160ac61597f565b5b6160b989828a01615fd8565b9150509295509295509295565b5f5f5f606084860312156160dd576160dc61597b565b5b5f6160ea86828701615b65565b93505060206160fb86828701615bba565b925050604061610c86828701615b65565b9150509250925092565b5f5ffd5b5f5ffd5b5f5f83601f84011261613357616132615dd6565b5b8235905067ffffffffffffffff8111156161505761614f616116565b5b60208301915083600182028301111561616c5761616b61611a565b5b9250929050565b5f5f5f6040848603121561618a5761618961597b565b5b5f61619786828701615b65565b935050602084013567ffffffffffffffff8111156161b8576161b761597f565b5b6161c48682870161611e565b92509250509250925092565b5f81519050919050565b5f82825260208201905092915050565b5f6161f4826161d0565b6161fe81856161da565b935061620e818560208601615a50565b61621781615a5e565b840191505092915050565b5f6020820190508181035f83015261623a81846161ea565b905092915050565b5f5f604083850312156162585761625761597b565b5b5f61626585828601615bba565b925050602061627685828601615d25565b9150509250929050565b5f5f83601f84011261629557616294615dd6565b5b8235905067ffffffffffffffff8111156162b2576162b1616116565b5b6020830191508360208202830111156162ce576162cd61611a565b5b9250929050565b5f5f602083850312156162eb576162ea61597b565b5b5f83013567ffffffffffffffff8111156163085761630761597f565b5b61631485828601616280565b92509250509250929050565b5f81519050919050565b5f82825260208201905092915050565b5f819050602082019050919050565b5f82825260208201905092915050565b5f616363826161d0565b61636d8185616349565b935061637d818560208601615a50565b61638681615a5e565b840191505092915050565b5f61639c8383616359565b905092915050565b5f602082019050919050565b5f6163ba82616320565b6163c4818561632a565b9350836020820285016163d68561633a565b805f5b8581101561641157848403895281516163f28582616391565b94506163fd836163a4565b925060208a019950506001810190506163d9565b50829750879550505050505092915050565b5f6020820190508181035f83015261643b81846163b0565b905092915050565b5f5f5f5f6080858703121561645b5761645a61597b565b5b5f61646887828801615bba565b945050602061647987828801615bba565b935050604061648a87828801615b65565b925050606085013567ffffffffffffffff8111156164ab576164aa61597f565b5b6164b787828801615fd8565b91505092959194509250565b5f5f83601f8401126164d8576164d7615dd6565b5b8235905067ffffffffffffffff8111156164f5576164f4616116565b5b6020830191508360018202830111156165115761651061611a565b5b9250929050565b5f5f5f5f5f606086880312156165315761653061597b565b5b5f61653e88828901615b65565b955050602086013567ffffffffffffffff81111561655f5761655e61597f565b5b61656b888289016164c3565b9450945050604086013567ffffffffffffffff81111561658e5761658d61597f565b5b61659a8882890161611e565b92509250509295509295909350565b5f819050919050565b6165bb816165a9565b82525050565b5f610100820190506165d55f83018b615b27565b6165e2602083018a615b27565b6165ef6040830189615b27565b6165fc6060830188615b27565b61660960808301876165b2565b61661660a0830186615b27565b61662360c0830185615af6565b81810360e08301526166358184615a6e565b90509998505050505050505050565b5f5f5f6040848603121561665b5761665a61597b565b5b5f84013567ffffffffffffffff8111156166785761667761597f565b5b61668486828701615fd8565b935050602084013567ffffffffffffffff8111156166a5576166a461597f565b5b6166b18682870161611e565b92509250509250925092565b5f5f604083850312156166d3576166d261597b565b5b5f6166e085828601615bba565b92505060206166f185828601615bba565b9150509250929050565b5f5f5f5f5f60a086880312156167145761671361597b565b5b5f61672188828901615bba565b955050602061673288828901615b65565b945050604061674388828901615bba565b935050606061675488828901615b65565b925050608086013567ffffffffffffffff8111156167755761677461597f565b5b61678188828901615f49565b9150509295509295909350565b7f4e487b71000000000000000000000000000000000000000000000000000000005f52602260045260245ffd5b5f60028204905060018216806167d257607f821691505b6020821081036167e5576167e461678e565b5b50919050565b7f4e487b71000000000000000000000000000000000000000000000000000000005f52603260045260245ffd5b7f4e487b71000000000000000000000000000000000000000000000000000000005f52601160045260245ffd5b5f61684f82615b1e565b915061685a83615b1e565b925082820261686881615b1e565b9150828204841483151761687f5761687e616818565b5b5092915050565b7f4e487b71000000000000000000000000000000000000000000000000000000005f52601260045260245ffd5b5f6168bd82615b1e565b91506168c883615b1e565b9250826168d8576168d7616886565b5b828204905092915050565b7f5175616e746974792063616e6e6f74206265207a65726f0000000000000000005f82015250565b5f616917601783615a40565b9150616922826168e3565b602082019050919050565b5f6020820190508181035f8301526169448161690b565b9050919050565b5f61695582615b1e565b915061696083615b1e565b925082820190508082111561697857616977616818565b5b92915050565b7f45786365656473206d6178207065722077616c6c6574000000000000000000005f82015250565b5f6169b2601683615a40565b91506169bd8261697e565b602082019050919050565b5f6020820190508181035f8301526169df816169a6565b9050919050565b7f4578636565647320746f74616c20737570706c790000000000000000000000005f82015250565b5f616a1a601483615a40565b9150616a25826169e6565b602082019050919050565b5f6020820190508181035f830152616a4781616a0e565b9050919050565b7f496e73756666696369656e74204554482073656e7400000000000000000000005f82015250565b5f616a82601583615a40565b9150616a8d82616a4e565b602082019050919050565b5f6020820190508181035f830152616aaf81616a76565b9050919050565b5f616ac082615b1e565b91507fffffffffffffffffffffffffffffffffffffffffffffffffffffffffffffffff8203616af257616af1616818565b5b600182019050919050565b5f8160601b9050919050565b5f616b1382616afd565b9050919050565b5f616b2482616b09565b9050919050565b616b3c616b3782615ae5565b616b1a565b82525050565b5f819050919050565b616b5c616b5782615b1e565b616b42565b82525050565b5f616b6d8285616b2b565b601482019150616b7d8284616b4b565b6020820191508190509392505050565b5f5ffd5b5f5ffd5b5f5ffd5b5f5f83356001602003843603038112616bb557616bb4616b8d565b5b80840192508235915067ffffffffffffffff821115616bd757616bd6616b91565b5b602083019250600182023603831315616bf357616bf2616b95565b5b509250929050565b5f819050815f5260205f209050919050565b5f6020601f8301049050919050565b5f82821b905092915050565b5f60088302616c577fffffffffffffffffffffffffffffffffffffffffffffffffffffffffffffffff82616c1c565b616c618683616c1c565b95508019841693508086168417925050509392505050565b5f819050919050565b5f616c9c616c97616c9284615b1e565b616c79565b615b1e565b9050919050565b5f819050919050565b616cb583616c82565b616cc9616cc182616ca3565b848454616c28565b825550505050565b5f5f905090565b616ce0616cd1565b616ceb818484616cac565b505050565b5b81811015616d0e57616d035f82616cd8565b600181019050616cf1565b5050565b601f821115616d5357616d2481616bfb565b616d2d84616c0d565b81016020851015616d3c578190505b616d50616d4885616c0d565b830182616cf0565b50505b505050565b5f82821c905092915050565b5f616d735f1984600802616d58565b1980831691505092915050565b5f616d8b8383616d64565b9150826002028217905092915050565b616da482615a36565b67ffffffffffffffff811115616dbd57616dbc615dde565b5b616dc782546167bb565b616dd2828285616d12565b5f60209050601f831160018114616e03575f8415616df1578287015190505b616dfb8582616d80565b865550616e62565b601f198416616e1186616bfb565b5f5b82811015616e3857848901518255600182019150602085019450602081019050616e13565b86831015616e555784890151616e51601f891682616d64565b8355505b6001600288020188555050505b505050505050565b5f616e786020840184615b65565b905092915050565b616e8981615b1e565b82525050565b616e98816165a9565b8114616ea2575f5ffd5b50565b5f81359050616eb381616e8f565b92915050565b5f616ec76020840184616ea5565b905092915050565b616ed8816165a9565b82525050565b5f616eec6020840184615bba565b905092915050565b616efd81615ae5565b82525050565b5f5ffd5b5f5ffd5b5f5ffd5b5f5f83356001602003843603038112616f2b57616f2a616f0b565b5b83810192508235915060208301925067ffffffffffffffff821115616f5357616f52616f03565b5b600182023603831315616f6957616f68616f07565b5b509250929050565b5f82825260208201905092915050565b5f616f8c8385616f71565b9350616f99838584615e86565b616fa283615a5e565b840190509392505050565b5f6101008301616fbf5f840184616e6a565b616fcb5f860182616e80565b50616fd96020840184616e6a565b616fe66020860182616e80565b50616ff46040840184616e6a565b6170016040860182616e80565b5061700f6060840184616e6a565b61701c6060860182616e80565b5061702a6080840184616eb9565b6170376080860182616ecf565b5061704560a0840184616e6a565b61705260a0860182616e80565b5061706060c0840184616ede565b61706d60c0860182616ef4565b5061707b60e0840184616f0f565b85830360e087015261708e838284616f81565b925050508091505092915050565b5f6040820190508181035f8301526170b48185616fad565b90506170c36020830184615a0e565b9392505050565b7f496e76616c6964207469657200000000000000000000000000000000000000005f82015250565b5f6170fe600c83615a40565b9150617109826170ca565b602082019050919050565b5f6020820190508181035f83015261712b816170f2565b9050919050565b5f61714461713f84615f67565b615e3c565b9050828152602081018484840111156171605761715f615dda565b5b61716b848285615a50565b509392505050565b5f82601f83011261718757617186615dd6565b5b8151617197848260208601617132565b91505092915050565b5f815190506171ae81616e8f565b92915050565b5f5f604083850312156171ca576171c961597b565b5b5f83015167ffffffffffffffff8111156171e7576171e661597f565b5b6171f385828601617173565b9250506020617204858286016171a0565b9150509250929050565b5f81905092915050565b5f61722282615a36565b61722c818561720e565b935061723c818560208601615a50565b80840191505092915050565b5f81905092915050565b5f61725d8385617248565b935061726a838584615e86565b82840190509392505050565b5f6172818287617218565b915061728e828587617252565b915061729a8284616b4b565b60208201915081905095945050505050565b5f6040820190506172bf5f8301856165b2565b6172cc60208301846165b2565b9392505050565b5f5f833560016020038436030381126172ef576172ee616b8d565b5b80840192508235915067ffffffffffffffff82111561731157617310616b91565b5b60208301925060018202360383131561732d5761732c616b95565b5b509250929050565b5f617341828587617252565b915061734d8284616b2b565b601482019150819050949350505050565b7f30000000000000000000000000000000000000000000000000000000000000005f82015250565b5f61739260018361720e565b915061739d8261735e565b600182019050919050565b5f6173b38284617218565b91506173be82617386565b915081905092915050565b5f6173d48285617218565b91506173e08284617218565b91508190509392505050565b7f4e6f7420617574686f72697a65640000000000000000000000000000000000005f82015250565b5f617420600e83615a40565b915061742b826173ec565b602082019050919050565b5f6020820190508181035f83015261744d81617414565b9050919050565b5f5f6040838503121561746a5761746961597b565b5b5f83013567ffffffffffffffff8111156174875761748661597f565b5b61749385828601615fd8565b92505060206174a485828601616ea5565b9150509250929050565b5f6174ba828587617252565b91506174c68284616b4b565b602082019150819050949350505050565b5f5f833560016020038436030381126174f3576174f2616b8d565b5b80840192508235915067ffffffffffffffff82111561751557617514616b91565b5b60208301925060208202360383131561753157617530616b95565b5b509250929050565b5f6175448287616b2b565b6014820191506175548286616b4b565b6020820191506175648285616b4b565b6020820191506175748284616b2b565b60148201915081905095945050505050565b5f6080820190506175995f830187615af6565b6175a66020830186615b27565b6175b36040830185615af6565b6175c06060830184615b27565b95945050505050565b5f6040820190506175dc5f830185615b27565b6175e96020830184615b27565b9392505050565b5f819050919050565b5f61761361760e617609846175f0565b616c79565b615b1e565b9050919050565b617623816175f9565b82525050565b5f60408201905061763c5f83018561761a565b6176496020830184615b27565b9392505050565b7f4e6f7420656e6f756768206d696e74656420746f6b656e7300000000000000005f82015250565b5f617684601883615a40565b915061768f82617650565b602082019050919050565b5f6020820190508181035f8301526176b181617678565b9050919050565b7f2156616c756500000000000000000000000000000000000000000000000000005f82015250565b5f6176ec600683615a40565b91506176f7826176b8565b602082019050919050565b5f6020820190508181035f830152617719816176e0565b9050919050565b7f496e76616c6964206d73672076616c75650000000000000000000000000000005f82015250565b5f617754601183615a40565b915061775f82617720565b602082019050919050565b5f6020820190508181035f83015261778181617748565b9050919050565b5f6040820190508181035f8301526177a08185615a6e565b905081810360208301526177b48184615a6e565b90509392505050565b5f6080820190506177d05f830187615af6565b6177dd6020830186615af6565b6177ea6040830185615b27565b81810360608301526177fc81846161ea565b905095945050505050565b5f81519050617815816159ae565b92915050565b5f602082840312156178305761782f61597b565b5b5f61783d84828501617807565b91505092915050565b5f61785082615b1e565b915061785b83615b1e565b925082820390508181111561787357617872616818565b5b92915050565b5f61788382615b1e565b915061788e83615b1e565b92508261789e5761789d616886565b5b828206905092915050565b5f819050815f5260205f209050919050565b601f8211156178fc576178cd816178a9565b6178d684616c0d565b810160208510156178e5578190505b6178f96178f185616c0d565b830182616cf0565b50505b505050565b61790a826161d0565b67ffffffffffffffff81111561792357617922615dde565b5b61792d82546167bb565b6179388282856178bb565b5f60209050601f831160018114617969575f8415617957578287015190505b6179618582616d80565b8655506179c8565b601f198416617977866178a9565b5f5b8281101561799e57848901518255600182019150602085019450602081019050617979565b868310156179bb57848901516179b7601f891682616d64565b8355505b6001600288020188555050505b505050505050565b5f6179db8385615a40565b93506179e8838584615e86565b6179f183615a5e565b840190509392505050565b5f617a0783856161da565b9350617a14838584615e86565b617a1d83615a5e565b840190509392505050565b5f606082019050617a3b5f830188615b27565b8181036020830152617a4e8186886179d0565b90508181036040830152617a638184866179fc565b90509695505050505050565b5f617a79826161d0565b617a838185617248565b9350617a93818560208601615a50565b80840191505092915050565b5f617aaa8284617a6f565b915081905092915050565b50565b5f617ac35f83617248565b9150617ace82617ab5565b5f82019050919050565b5f617ae282617ab8565b9150819050919050565b7f416464726573733a2063616c6c20746f206e6f6e2d636f6e74726163740000005f82015250565b5f617b20601d83615a40565b9150617b2b82617aec565b602082019050919050565b5f6020820190508181035f830152617b4d81617b14565b9050919050565b5f606082019050617b675f830186615af6565b617b746020830185615af6565b617b816040830184615b27565b949350505050565b5f81519050617b9781615d0f565b92915050565b5f60208284031215617bb257617bb161597b565b5b5f617bbf84828501617b89565b91505092915050565b7f5361666545524332303a204552433230206f7065726174696f6e20646964206e5f8201527f6f74207375636365656400000000000000000000000000000000000000000000602082015250565b5f617c22602a83615a40565b9150617c2d82617bc8565b604082019050919050565b5f6020820190508181035f830152617c4f81617c16565b9050919050565b7f416464726573733a20696e73756666696369656e742062616c616e636520666f5f8201527f722063616c6c0000000000000000000000000000000000000000000000000000602082015250565b5f617cb0602683615a40565b9150617cbb82617c56565b604082019050919050565b5f6020820190508181035f830152617cdd81617ca4565b905091905056fe416464726573733a206c6f772d6c6576656c2064656c65676174652063616c6c206661696c6564a2646970667358221220fe465247b9b2e7ea99de405f91daf1dd149a332b643c1a7975570740cb434a5664736f6c634300081c0033",
			"opcodes": "PUSH1 0x80 PUSH1 0x40 MSTORE PUSH1 0x3 PUSH1 0x1C SSTORE PUSH1 0x2 PUSH1 0x1D SSTORE PUSH1 0x1 PUSH1 0x1E SSTORE PUSH0 PUSH1 0x1F SSTORE PUSH0 PUSH1 0x20 SSTORE CALLVALUE DUP1 ISZERO PUSH2 0x26 JUMPI PUSH0 PUSH0 REVERT JUMPDEST POP PUSH1 0x40 MLOAD PUSH2 0x885A CODESIZE SUB DUP1 PUSH2 0x885A DUP4 CODECOPY DUP2 DUP2 ADD PUSH1 0x40 MSTORE DUP2 ADD SWAP1 PUSH2 0x48 SWAP2 SWAP1 PUSH2 0x5D7 JUMP JUMPDEST DUP7 DUP7 DUP7 DUP7 DUP7 DUP7 DUP5 DUP5 DUP2 PUSH1 0x2 SWAP1 DUP2 PUSH2 0x5F SWAP2 SWAP1 PUSH2 0x8D8 JUMP JUMPDEST POP DUP1 PUSH1 0x3 SWAP1 DUP2 PUSH2 0x6F SWAP2 SWAP1 PUSH2 0x8D8 JUMP JUMPDEST POP PUSH2 0x7E PUSH2 0x131 PUSH1 0x20 SHL PUSH1 0x20 SHR JUMP JUMPDEST PUSH0 DUP2 SWAP1 SSTORE POP POP POP PUSH2 0x94 DUP7 PUSH2 0x138 PUSH1 0x20 SHL PUSH1 0x20 SHR JUMP JUMPDEST PUSH2 0xB6 DUP4 DUP4 PUSH16 0xFFFFFFFFFFFFFFFFFFFFFFFFFFFFFFFF AND PUSH2 0x1FB PUSH1 0x20 SHL PUSH1 0x20 SHR JUMP JUMPDEST PUSH2 0xC5 DUP2 PUSH2 0x2F5 PUSH1 0x20 SHL PUSH1 0x20 SHR JUMP JUMPDEST POP POP POP POP POP POP DUP1 PUSH1 0x21 SWAP1 DUP2 PUSH2 0xDA SWAP2 SWAP1 PUSH2 0x8D8 JUMP JUMPDEST POP PUSH0 PUSH1 0x1 SWAP1 POP JUMPDEST PUSH1 0x4 DUP2 GT PUSH2 0x124 JUMPI PUSH7 0x2386F26FC10000 DUP2 PUSH2 0xFC SWAP2 SWAP1 PUSH2 0x9D4 JUMP JUMPDEST PUSH1 0x22 PUSH0 DUP4 DUP2 MSTORE PUSH1 0x20 ADD SWAP1 DUP2 MSTORE PUSH1 0x20 ADD PUSH0 KECCAK256 DUP2 SWAP1 SSTORE POP DUP1 DUP1 PUSH2 0x11C SWAP1 PUSH2 0xA15 JUMP JUMPDEST SWAP2 POP POP PUSH2 0xE1 JUMP JUMPDEST POP POP POP POP POP POP POP POP PUSH2 0xB0C JUMP JUMPDEST PUSH0 PUSH0 SWAP1 POP SWAP1 JUMP JUMPDEST PUSH0 PUSH1 0x9 PUSH0 SWAP1 SLOAD SWAP1 PUSH2 0x100 EXP SWAP1 DIV PUSH20 0xFFFFFFFFFFFFFFFFFFFFFFFFFFFFFFFFFFFFFFFF AND SWAP1 POP DUP2 PUSH1 0x9 PUSH0 PUSH2 0x100 EXP DUP2 SLOAD DUP2 PUSH20 0xFFFFFFFFFFFFFFFFFFFFFFFFFFFFFFFFFFFFFFFF MUL NOT AND SWAP1 DUP4 PUSH20 0xFFFFFFFFFFFFFFFFFFFFFFFFFFFFFFFFFFFFFFFF AND MUL OR SWAP1 SSTORE POP DUP2 PUSH20 0xFFFFFFFFFFFFFFFFFFFFFFFFFFFFFFFFFFFFFFFF AND DUP2 PUSH20 0xFFFFFFFFFFFFFFFFFFFFFFFFFFFFFFFFFFFFFFFF AND PUSH32 0x8292FCE18FA69EDF4DB7B94EA2E58241DF0AE57F97E0A6C9B29067028BF92D76 PUSH1 0x40 MLOAD PUSH1 0x40 MLOAD DUP1 SWAP2 SUB SWAP1 LOG3 POP POP JUMP JUMPDEST PUSH2 0x2710 DUP2 GT ISZERO PUSH2 0x246 JUMPI PUSH2 0x2710 DUP2 PUSH1 0x40 MLOAD PUSH32 0x5249856800000000000000000000000000000000000000000000000000000000 DUP2 MSTORE PUSH1 0x4 ADD PUSH2 0x23D SWAP3 SWAP2 SWAP1 PUSH2 0xAA4 JUMP JUMPDEST PUSH1 0x40 MLOAD DUP1 SWAP2 SUB SWAP1 REVERT JUMPDEST DUP2 PUSH1 0xA PUSH0 PUSH2 0x100 EXP DUP2 SLOAD DUP2 PUSH20 0xFFFFFFFFFFFFFFFFFFFFFFFFFFFFFFFFFFFFFFFF MUL NOT AND SWAP1 DUP4 PUSH20 0xFFFFFFFFFFFFFFFFFFFFFFFFFFFFFFFFFFFFFFFF AND MUL OR SWAP1 SSTORE POP DUP1 PUSH1 0xA PUSH1 0x14 PUSH2 0x100 EXP DUP2 SLOAD DUP2 PUSH2 0xFFFF MUL NOT AND SWAP1 DUP4 PUSH2 0xFFFF AND MUL OR SWAP1 SSTORE POP DUP2 PUSH20 0xFFFFFFFFFFFFFFFFFFFFFFFFFFFFFFFFFFFFFFFF AND PUSH32 0x90D7EC04BCB8978719414F82E52E4CB651DB41D0E6F8CEA6118C2191E6183ADB DUP3 PUSH1 0x40 MLOAD PUSH2 0x2E9 SWAP2 SWAP1 PUSH2 0xACB JUMP JUMPDEST PUSH1 0x40 MLOAD DUP1 SWAP2 SUB SWAP1 LOG2 POP POP JUMP JUMPDEST PUSH0 PUSH20 0xFFFFFFFFFFFFFFFFFFFFFFFFFFFFFFFFFFFFFFFF AND DUP2 PUSH20 0xFFFFFFFFFFFFFFFFFFFFFFFFFFFFFFFFFFFFFFFF AND SUB PUSH2 0x365 JUMPI DUP1 PUSH1 0x40 MLOAD PUSH32 0x3DF2B0DC00000000000000000000000000000000000000000000000000000000 DUP2 MSTORE PUSH1 0x4 ADD PUSH2 0x35C SWAP2 SWAP1 PUSH2 0xAF3 JUMP JUMPDEST PUSH1 0x40 MLOAD DUP1 SWAP2 SUB SWAP1 REVERT JUMPDEST DUP1 PUSH1 0xF PUSH0 PUSH2 0x100 EXP DUP2 SLOAD DUP2 PUSH20 0xFFFFFFFFFFFFFFFFFFFFFFFFFFFFFFFFFFFFFFFF MUL NOT AND SWAP1 DUP4 PUSH20 0xFFFFFFFFFFFFFFFFFFFFFFFFFFFFFFFFFFFFFFFF AND MUL OR SWAP1 SSTORE POP DUP1 PUSH20 0xFFFFFFFFFFFFFFFFFFFFFFFFFFFFFFFFFFFFFFFF AND PUSH32 0x299D17E95023F496E0FFC4909CFF1A61F74BB5EB18DE6F900F4155BFA1B3B333 PUSH1 0x40 MLOAD PUSH1 0x40 MLOAD DUP1 SWAP2 SUB SWAP1 LOG2 POP JUMP JUMPDEST PUSH0 PUSH1 0x40 MLOAD SWAP1 POP SWAP1 JUMP JUMPDEST PUSH0 PUSH0 REVERT JUMPDEST PUSH0 PUSH0 REVERT JUMPDEST PUSH0 PUSH20 0xFFFFFFFFFFFFFFFFFFFFFFFFFFFFFFFFFFFFFFFF DUP3 AND SWAP1 POP SWAP2 SWAP1 POP JUMP JUMPDEST PUSH0 PUSH2 0x425 DUP3 PUSH2 0x3FC JUMP JUMPDEST SWAP1 POP SWAP2 SWAP1 POP JUMP JUMPDEST PUSH2 0x435 DUP2 PUSH2 0x41B JUMP JUMPDEST DUP2 EQ PUSH2 0x43F JUMPI PUSH0 PUSH0 REVERT JUMPDEST POP JUMP JUMPDEST PUSH0 DUP2 MLOAD SWAP1 POP PUSH2 0x450 DUP2 PUSH2 0x42C JUMP JUMPDEST SWAP3 SWAP2 POP POP JUMP JUMPDEST PUSH0 PUSH0 REVERT JUMPDEST PUSH0 PUSH0 REVERT JUMPDEST PUSH0 PUSH1 0x1F NOT PUSH1 0x1F DUP4 ADD AND SWAP1 POP SWAP2 SWAP1 POP JUMP JUMPDEST PUSH32 0x4E487B7100000000000000000000000000000000000000000000000000000000 PUSH0 MSTORE PUSH1 0x41 PUSH1 0x4 MSTORE PUSH1 0x24 PUSH0 REVERT JUMPDEST PUSH2 0x4A4 DUP3 PUSH2 0x45E JUMP JUMPDEST DUP2 ADD DUP2 DUP2 LT PUSH8 0xFFFFFFFFFFFFFFFF DUP3 GT OR ISZERO PUSH2 0x4C3 JUMPI PUSH2 0x4C2 PUSH2 0x46E JUMP JUMPDEST JUMPDEST DUP1 PUSH1 0x40 MSTORE POP POP POP JUMP JUMPDEST PUSH0 PUSH2 0x4D5 PUSH2 0x3EB JUMP JUMPDEST SWAP1 POP PUSH2 0x4E1 DUP3 DUP3 PUSH2 0x49B JUMP JUMPDEST SWAP2 SWAP1 POP JUMP JUMPDEST PUSH0 PUSH8 0xFFFFFFFFFFFFFFFF DUP3 GT ISZERO PUSH2 0x500 JUMPI PUSH2 0x4FF PUSH2 0x46E JUMP JUMPDEST JUMPDEST PUSH2 0x509 DUP3 PUSH2 0x45E JUMP JUMPDEST SWAP1 POP PUSH1 0x20 DUP2 ADD SWAP1 POP SWAP2 SWAP1 POP JUMP JUMPDEST DUP3 DUP2 DUP4 MCOPY PUSH0 DUP4 DUP4 ADD MSTORE POP POP POP JUMP JUMPDEST PUSH0 PUSH2 0x536 PUSH2 0x531 DUP5 PUSH2 0x4E6 JUMP JUMPDEST PUSH2 0x4CC JUMP JUMPDEST SWAP1 POP DUP3 DUP2 MSTORE PUSH1 0x20 DUP2 ADD DUP5 DUP5 DUP5 ADD GT ISZERO PUSH2 0x552 JUMPI PUSH2 0x551 PUSH2 0x45A JUMP JUMPDEST JUMPDEST PUSH2 0x55D DUP5 DUP3 DUP6 PUSH2 0x516 JUMP JUMPDEST POP SWAP4 SWAP3 POP POP POP JUMP JUMPDEST PUSH0 DUP3 PUSH1 0x1F DUP4 ADD SLT PUSH2 0x579 JUMPI PUSH2 0x578 PUSH2 0x456 JUMP JUMPDEST JUMPDEST DUP2 MLOAD PUSH2 0x589 DUP5 DUP3 PUSH1 0x20 DUP7 ADD PUSH2 0x524 JUMP JUMPDEST SWAP2 POP POP SWAP3 SWAP2 POP POP JUMP JUMPDEST PUSH0 PUSH16 0xFFFFFFFFFFFFFFFFFFFFFFFFFFFFFFFF DUP3 AND SWAP1 POP SWAP2 SWAP1 POP JUMP JUMPDEST PUSH2 0x5B6 DUP2 PUSH2 0x592 JUMP JUMPDEST DUP2 EQ PUSH2 0x5C0 JUMPI PUSH0 PUSH0 REVERT JUMPDEST POP JUMP JUMPDEST PUSH0 DUP2 MLOAD SWAP1 POP PUSH2 0x5D1 DUP2 PUSH2 0x5AD JUMP JUMPDEST SWAP3 SWAP2 POP POP JUMP JUMPDEST PUSH0 PUSH0 PUSH0 PUSH0 PUSH0 PUSH0 PUSH0 PUSH1 0xE0 DUP9 DUP11 SUB SLT ISZERO PUSH2 0x5F2 JUMPI PUSH2 0x5F1 PUSH2 0x3F4 JUMP JUMPDEST JUMPDEST PUSH0 PUSH2 0x5FF DUP11 DUP3 DUP12 ADD PUSH2 0x442 JUMP JUMPDEST SWAP8 POP POP PUSH1 0x20 DUP9 ADD MLOAD PUSH8 0xFFFFFFFFFFFFFFFF DUP2 GT ISZERO PUSH2 0x620 JUMPI PUSH2 0x61F PUSH2 0x3F8 JUMP JUMPDEST JUMPDEST PUSH2 0x62C DUP11 DUP3 DUP12 ADD PUSH2 0x565 JUMP JUMPDEST SWAP7 POP POP PUSH1 0x40 DUP9 ADD MLOAD PUSH8 0xFFFFFFFFFFFFFFFF DUP2 GT ISZERO PUSH2 0x64D JUMPI PUSH2 0x64C PUSH2 0x3F8 JUMP JUMPDEST JUMPDEST PUSH2 0x659 DUP11 DUP3 DUP12 ADD PUSH2 0x565 JUMP JUMPDEST SWAP6 POP POP PUSH1 0x60 PUSH2 0x66A DUP11 DUP3 DUP12 ADD PUSH2 0x442 JUMP JUMPDEST SWAP5 POP POP PUSH1 0x80 PUSH2 0x67B DUP11 DUP3 DUP12 ADD PUSH2 0x5C3 JUMP JUMPDEST SWAP4 POP POP PUSH1 0xA0 PUSH2 0x68C DUP11 DUP3 DUP12 ADD PUSH2 0x442 JUMP JUMPDEST SWAP3 POP POP PUSH1 0xC0 DUP9 ADD MLOAD PUSH8 0xFFFFFFFFFFFFFFFF DUP2 GT ISZERO PUSH2 0x6AD JUMPI PUSH2 0x6AC PUSH2 0x3F8 JUMP JUMPDEST JUMPDEST PUSH2 0x6B9 DUP11 DUP3 DUP12 ADD PUSH2 0x565 JUMP JUMPDEST SWAP2 POP POP SWAP3 SWAP6 SWAP9 SWAP2 SWAP5 SWAP8 POP SWAP3 SWAP6 POP JUMP JUMPDEST PUSH0 DUP2 MLOAD SWAP1 POP SWAP2 SWAP1 POP JUMP JUMPDEST PUSH32 0x4E487B7100000000000000000000000000000000000000000000000000000000 PUSH0 MSTORE PUSH1 0x22 PUSH1 0x4 MSTORE PUSH1 0x24 PUSH0 REVERT JUMPDEST PUSH0 PUSH1 0x2 DUP3 DIV SWAP1 POP PUSH1 0x1 DUP3 AND DUP1 PUSH2 0x716 JUMPI PUSH1 0x7F DUP3 AND SWAP2 POP JUMPDEST PUSH1 0x20 DUP3 LT DUP2 SUB PUSH2 0x729 JUMPI PUSH2 0x728 PUSH2 0x6D2 JUMP JUMPDEST JUMPDEST POP SWAP2 SWAP1 POP JUMP JUMPDEST PUSH0 DUP2 SWAP1 POP DUP2 PUSH0 MSTORE PUSH1 0x20 PUSH0 KECCAK256 SWAP1 POP SWAP2 SWAP1 POP JUMP JUMPDEST PUSH0 PUSH1 0x20 PUSH1 0x1F DUP4 ADD DIV SWAP1 POP SWAP2 SWAP1 POP JUMP JUMPDEST PUSH0 DUP3 DUP3 SHL SWAP1 POP SWAP3 SWAP2 POP POP JUMP JUMPDEST PUSH0 PUSH1 0x8 DUP4 MUL PUSH2 0x78B PUSH32 0xFFFFFFFFFFFFFFFFFFFFFFFFFFFFFFFFFFFFFFFFFFFFFFFFFFFFFFFFFFFFFFFF DUP3 PUSH2 0x750 JUMP JUMPDEST PUSH2 0x795 DUP7 DUP4 PUSH2 0x750 JUMP JUMPDEST SWAP6 POP DUP1 NOT DUP5 AND SWAP4 POP DUP1 DUP7 AND DUP5 OR SWAP3 POP POP POP SWAP4 SWAP3 POP POP POP JUMP JUMPDEST PUSH0 DUP2 SWAP1 POP SWAP2 SWAP1 POP JUMP JUMPDEST PUSH0 DUP2 SWAP1 POP SWAP2 SWAP1 POP JUMP JUMPDEST PUSH0 PUSH2 0x7D9 PUSH2 0x7D4 PUSH2 0x7CF DUP5 PUSH2 0x7AD JUMP JUMPDEST PUSH2 0x7B6 JUMP JUMPDEST PUSH2 0x7AD JUMP JUMPDEST SWAP1 POP SWAP2 SWAP1 POP JUMP JUMPDEST PUSH0 DUP2 SWAP1 POP SWAP2 SWAP1 POP JUMP JUMPDEST PUSH2 0x7F2 DUP4 PUSH2 0x7BF JUMP JUMPDEST PUSH2 0x806 PUSH2 0x7FE DUP3 PUSH2 0x7E0 JUMP JUMPDEST DUP5 DUP5 SLOAD PUSH2 0x75C JUMP JUMPDEST DUP3 SSTORE POP POP POP POP JUMP JUMPDEST PUSH0 PUSH0 SWAP1 POP SWAP1 JUMP JUMPDEST PUSH2 0x81D PUSH2 0x80E JUMP JUMPDEST PUSH2 0x828 DUP2 DUP5 DUP5 PUSH2 0x7E9 JUMP JUMPDEST POP POP POP JUMP JUMPDEST JUMPDEST DUP2 DUP2 LT ISZERO PUSH2 0x84B JUMPI PUSH2 0x840 PUSH0 DUP3 PUSH2 0x815 JUMP JUMPDEST PUSH1 0x1 DUP2 ADD SWAP1 POP PUSH2 0x82E JUMP JUMPDEST POP POP JUMP JUMPDEST PUSH1 0x1F DUP3 GT ISZERO PUSH2 0x890 JUMPI PUSH2 0x861 DUP2 PUSH2 0x72F JUMP JUMPDEST PUSH2 0x86A DUP5 PUSH2 0x741 JUMP JUMPDEST DUP2 ADD PUSH1 0x20 DUP6 LT ISZERO PUSH2 0x879 JUMPI DUP2 SWAP1 POP JUMPDEST PUSH2 0x88D PUSH2 0x885 DUP6 PUSH2 0x741 JUMP JUMPDEST DUP4 ADD DUP3 PUSH2 0x82D JUMP JUMPDEST POP POP JUMPDEST POP POP POP JUMP JUMPDEST PUSH0 DUP3 DUP3 SHR SWAP1 POP SWAP3 SWAP2 POP POP JUMP JUMPDEST PUSH0 PUSH2 0x8B0 PUSH0 NOT DUP5 PUSH1 0x8 MUL PUSH2 0x895 JUMP JUMPDEST NOT DUP1 DUP4 AND SWAP2 POP POP SWAP3 SWAP2 POP POP JUMP JUMPDEST PUSH0 PUSH2 0x8C8 DUP4 DUP4 PUSH2 0x8A1 JUMP JUMPDEST SWAP2 POP DUP3 PUSH1 0x2 MUL DUP3 OR SWAP1 POP SWAP3 SWAP2 POP POP JUMP JUMPDEST PUSH2 0x8E1 DUP3 PUSH2 0x6C8 JUMP JUMPDEST PUSH8 0xFFFFFFFFFFFFFFFF DUP2 GT ISZERO PUSH2 0x8FA JUMPI PUSH2 0x8F9 PUSH2 0x46E JUMP JUMPDEST JUMPDEST PUSH2 0x904 DUP3 SLOAD PUSH2 0x6FF JUMP JUMPDEST PUSH2 0x90F DUP3 DUP3 DUP6 PUSH2 0x84F JUMP JUMPDEST PUSH0 PUSH1 0x20 SWAP1 POP PUSH1 0x1F DUP4 GT PUSH1 0x1 DUP2 EQ PUSH2 0x940 JUMPI PUSH0 DUP5 ISZERO PUSH2 0x92E JUMPI DUP3 DUP8 ADD MLOAD SWAP1 POP JUMPDEST PUSH2 0x938 DUP6 DUP3 PUSH2 0x8BD JUMP JUMPDEST DUP7 SSTORE POP PUSH2 0x99F JUMP JUMPDEST PUSH1 0x1F NOT DUP5 AND PUSH2 0x94E DUP7 PUSH2 0x72F JUMP JUMPDEST PUSH0 JUMPDEST DUP3 DUP2 LT ISZERO PUSH2 0x975 JUMPI DUP5 DUP10 ADD MLOAD DUP3 SSTORE PUSH1 0x1 DUP3 ADD SWAP2 POP PUSH1 0x20 DUP6 ADD SWAP5 POP PUSH1 0x20 DUP2 ADD SWAP1 POP PUSH2 0x950 JUMP JUMPDEST DUP7 DUP4 LT ISZERO PUSH2 0x992 JUMPI DUP5 DUP10 ADD MLOAD PUSH2 0x98E PUSH1 0x1F DUP10 AND DUP3 PUSH2 0x8A1 JUMP JUMPDEST DUP4 SSTORE POP JUMPDEST PUSH1 0x1 PUSH1 0x2 DUP9 MUL ADD DUP9 SSTORE POP POP POP JUMPDEST POP POP POP POP POP POP JUMP JUMPDEST PUSH32 0x4E487B7100000000000000000000000000000000000000000000000000000000 PUSH0 MSTORE PUSH1 0x11 PUSH1 0x4 MSTORE PUSH1 0x24 PUSH0 REVERT JUMPDEST PUSH0 PUSH2 0x9DE DUP3 PUSH2 0x7AD JUMP JUMPDEST SWAP2 POP PUSH2 0x9E9 DUP4 PUSH2 0x7AD JUMP JUMPDEST SWAP3 POP DUP3 DUP3 MUL PUSH2 0x9F7 DUP2 PUSH2 0x7AD JUMP JUMPDEST SWAP2 POP DUP3 DUP3 DIV DUP5 EQ DUP4 ISZERO OR PUSH2 0xA0E JUMPI PUSH2 0xA0D PUSH2 0x9A7 JUMP JUMPDEST JUMPDEST POP SWAP3 SWAP2 POP POP JUMP JUMPDEST PUSH0 PUSH2 0xA1F DUP3 PUSH2 0x7AD JUMP JUMPDEST SWAP2 POP PUSH32 0xFFFFFFFFFFFFFFFFFFFFFFFFFFFFFFFFFFFFFFFFFFFFFFFFFFFFFFFFFFFFFFFF DUP3 SUB PUSH2 0xA51 JUMPI PUSH2 0xA50 PUSH2 0x9A7 JUMP JUMPDEST JUMPDEST PUSH1 0x1 DUP3 ADD SWAP1 POP SWAP2 SWAP1 POP JUMP JUMPDEST PUSH0 DUP2 SWAP1 POP SWAP2 SWAP1 POP JUMP JUMPDEST PUSH0 PUSH2 0xA7F PUSH2 0xA7A PUSH2 0xA75 DUP5 PUSH2 0xA5C JUMP JUMPDEST PUSH2 0x7B6 JUMP JUMPDEST PUSH2 0x7AD JUMP JUMPDEST SWAP1 POP SWAP2 SWAP1 POP JUMP JUMPDEST PUSH2 0xA8F DUP2 PUSH2 0xA65 JUMP JUMPDEST DUP3 MSTORE POP POP JUMP JUMPDEST PUSH2 0xA9E DUP2 PUSH2 0x7AD JUMP JUMPDEST DUP3 MSTORE POP POP JUMP JUMPDEST PUSH0 PUSH1 0x40 DUP3 ADD SWAP1 POP PUSH2 0xAB7 PUSH0 DUP4 ADD DUP6 PUSH2 0xA86 JUMP JUMPDEST PUSH2 0xAC4 PUSH1 0x20 DUP4 ADD DUP5 PUSH2 0xA95 JUMP JUMPDEST SWAP4 SWAP3 POP POP POP JUMP JUMPDEST PUSH0 PUSH1 0x20 DUP3 ADD SWAP1 POP PUSH2 0xADE PUSH0 DUP4 ADD DUP5 PUSH2 0xA95 JUMP JUMPDEST SWAP3 SWAP2 POP POP JUMP JUMPDEST PUSH2 0xAED DUP2 PUSH2 0x41B JUMP JUMPDEST DUP3 MSTORE POP POP JUMP JUMPDEST PUSH0 PUSH1 0x20 DUP3 ADD SWAP1 POP PUSH2 0xB06 PUSH0 DUP4 ADD DUP5 PUSH2 0xAE4 JUMP JUMPDEST SWAP3 SWAP2 POP POP JUMP JUMPDEST PUSH2 0x7D41 DUP1 PUSH2 0xB19 PUSH0 CODECOPY PUSH0 RETURN INVALID PUSH1 0x80 PUSH1 0x40 MSTORE PUSH1 0x4 CALLDATASIZE LT PUSH2 0x36A JUMPI PUSH0 CALLDATALOAD PUSH1 0xE0 SHR DUP1 PUSH4 0x70A08231 GT PUSH2 0x1C5 JUMPI DUP1 PUSH4 0xB24F2D39 GT PUSH2 0xF6 JUMPI DUP1 PUSH4 0xDD7D9386 GT PUSH2 0x94 JUMPI DUP1 PUSH4 0xE8A3D485 GT PUSH2 0x6E JUMPI DUP1 PUSH4 0xE8A3D485 EQ PUSH2 0xD0A JUMPI DUP1 PUSH4 0xE985E9C5 EQ PUSH2 0xD34 JUMPI DUP1 PUSH4 0xEEC8897C EQ PUSH2 0xD70 JUMPI DUP1 PUSH4 0xF0293FD3 EQ PUSH2 0xDAC JUMPI PUSH2 0x36A JUMP JUMPDEST DUP1 PUSH4 0xDD7D9386 EQ PUSH2 0xC7C JUMPI DUP1 PUSH4 0xE268E4D3 EQ PUSH2 0xCA6 JUMPI DUP1 PUSH4 0xE7150322 EQ PUSH2 0xCCE JUMPI PUSH2 0x36A JUMP JUMPDEST DUP1 PUSH4 0xCE805642 GT PUSH2 0xD0 JUMPI DUP1 PUSH4 0xCE805642 EQ PUSH2 0xBA9 JUMPI DUP1 PUSH4 0xD37C353B EQ PUSH2 0xBE5 JUMPI DUP1 PUSH4 0xD637ED59 EQ PUSH2 0xC21 JUMPI DUP1 PUSH4 0xD679677A EQ PUSH2 0xC52 JUMPI PUSH2 0x36A JUMP JUMPDEST DUP1 PUSH4 0xB24F2D39 EQ PUSH2 0xB1A JUMPI DUP1 PUSH4 0xB88D4FDE EQ PUSH2 0xB45 JUMPI DUP1 PUSH4 0xC87B56DD EQ PUSH2 0xB6D JUMPI PUSH2 0x36A JUMP JUMPDEST DUP1 PUSH4 0x9BCF7A15 GT PUSH2 0x163 JUMPI DUP1 PUSH4 0xA22CB465 GT PUSH2 0x13D JUMPI DUP1 PUSH4 0xA22CB465 EQ PUSH2 0xA62 JUMPI DUP1 PUSH4 0xA2309FF8 EQ PUSH2 0xA8A JUMPI DUP1 PUSH4 0xAC9650D8 EQ PUSH2 0xAB4 JUMPI DUP1 PUSH4 0xACD083F8 EQ PUSH2 0xAF0 JUMPI PUSH2 0x36A JUMP JUMPDEST DUP1 PUSH4 0x9BCF7A15 EQ PUSH2 0x9C2 JUMPI DUP1 PUSH4 0x9FC4D68F EQ PUSH2 0x9EA JUMPI DUP1 PUSH4 0xA05112FC EQ PUSH2 0xA26 JUMPI PUSH2 0x36A JUMP JUMPDEST DUP1 PUSH4 0x8DA5CB5B GT PUSH2 0x19F JUMPI DUP1 PUSH4 0x8DA5CB5B EQ PUSH2 0x91C JUMPI DUP1 PUSH4 0x902D55A5 EQ PUSH2 0x946 JUMPI DUP1 PUSH4 0x938E3D7B EQ PUSH2 0x970 JUMPI DUP1 PUSH4 0x95D89B41 EQ PUSH2 0x998 JUMPI PUSH2 0x36A JUMP JUMPDEST DUP1 PUSH4 0x70A08231 EQ PUSH2 0x888 JUMPI DUP1 PUSH4 0x83040532 EQ PUSH2 0x8C4 JUMPI DUP1 PUSH4 0x84BB1E42 EQ PUSH2 0x900 JUMPI PUSH2 0x36A JUMP JUMPDEST DUP1 PUSH4 0x3B1475A7 GT PUSH2 0x29F JUMPI DUP1 PUSH4 0x55F804B3 GT PUSH2 0x23D JUMPI DUP1 PUSH4 0x6352211E GT PUSH2 0x217 JUMPI DUP1 PUSH4 0x6352211E EQ PUSH2 0x7D0 JUMPI DUP1 PUSH4 0x63B45E2D EQ PUSH2 0x80C JUMPI DUP1 PUSH4 0x68A9A2FD EQ PUSH2 0x836 JUMPI DUP1 PUSH4 0x6F4F2837 EQ PUSH2 0x860 JUMPI PUSH2 0x36A JUMP JUMPDEST DUP1 PUSH4 0x55F804B3 EQ PUSH2 0x758 JUMPI DUP1 PUSH4 0x5E6BB7BF EQ PUSH2 0x780 JUMPI DUP1 PUSH4 0x600DD5EA EQ PUSH2 0x7A8 JUMPI PUSH2 0x36A JUMP JUMPDEST DUP1 PUSH4 0x42966C68 GT PUSH2 0x279 JUMPI DUP1 PUSH4 0x42966C68 EQ PUSH2 0x68D JUMPI DUP1 PUSH4 0x453C2310 EQ PUSH2 0x6B5 JUMPI DUP1 PUSH4 0x492E224B EQ PUSH2 0x6DF JUMPI DUP1 PUSH4 0x4CC157DF EQ PUSH2 0x71B JUMPI PUSH2 0x36A JUMP JUMPDEST DUP1 PUSH4 0x3B1475A7 EQ PUSH2 0x613 JUMPI DUP1 PUSH4 0x426CFAF3 EQ PUSH2 0x63D JUMPI DUP1 PUSH4 0x42842E0E EQ PUSH2 0x665 JUMPI PUSH2 0x36A JUMP JUMPDEST DUP1 PUSH4 0x18160DDD GT PUSH2 0x30C JUMPI DUP1 PUSH4 0x2A55205A GT PUSH2 0x2E6 JUMPI DUP1 PUSH4 0x2A55205A EQ PUSH2 0x542 JUMPI DUP1 PUSH4 0x300ECCAB EQ PUSH2 0x57F JUMPI DUP1 PUSH4 0x35B65E1F EQ PUSH2 0x5BB JUMPI DUP1 PUSH4 0x379607F5 EQ PUSH2 0x5F7 JUMPI PUSH2 0x36A JUMP JUMPDEST DUP1 PUSH4 0x18160DDD EQ PUSH2 0x4B4 JUMPI DUP1 PUSH4 0x23B872DD EQ PUSH2 0x4DE JUMPI DUP1 PUSH4 0x2419F51B EQ PUSH2 0x506 JUMPI PUSH2 0x36A JUMP JUMPDEST DUP1 PUSH4 0x7C3D4AF GT PUSH2 0x348 JUMPI DUP1 PUSH4 0x7C3D4AF EQ PUSH2 0x3FE JUMPI DUP1 PUSH4 0x81812FC EQ PUSH2 0x428 JUMPI DUP1 PUSH4 0x95EA7B3 EQ PUSH2 0x464 JUMPI DUP1 PUSH4 0x13AF4035 EQ PUSH2 0x48C JUMPI PUSH2 0x36A JUMP JUMPDEST DUP1 PUSH4 0x1FFC9A7 EQ PUSH2 0x36E JUMPI DUP1 PUSH4 0x6FDDE03 EQ PUSH2 0x3AA JUMPI DUP1 PUSH4 0x79FE40E EQ PUSH2 0x3D4 JUMPI JUMPDEST PUSH0 PUSH0 REVERT JUMPDEST CALLVALUE DUP1 ISZERO PUSH2 0x379 JUMPI PUSH0 PUSH0 REVERT JUMPDEST POP PUSH2 0x394 PUSH1 0x4 DUP1 CALLDATASIZE SUB DUP2 ADD SWAP1 PUSH2 0x38F SWAP2 SWAP1 PUSH2 0x59D8 JUMP JUMPDEST PUSH2 0xDE8 JUMP JUMPDEST PUSH1 0x40 MLOAD PUSH2 0x3A1 SWAP2 SWAP1 PUSH2 0x5A1D JUMP JUMPDEST PUSH1 0x40 MLOAD DUP1 SWAP2 SUB SWAP1 RETURN JUMPDEST CALLVALUE DUP1 ISZERO PUSH2 0x3B5 JUMPI PUSH0 PUSH0 REVERT JUMPDEST POP PUSH2 0x3BE PUSH2 0xEE1 JUMP JUMPDEST PUSH1 0x40 MLOAD PUSH2 0x3CB SWAP2 SWAP1 PUSH2 0x5AA6 JUMP JUMPDEST PUSH1 0x40 MLOAD DUP1 SWAP2 SUB SWAP1 RETURN JUMPDEST CALLVALUE DUP1 ISZERO PUSH2 0x3DF JUMPI PUSH0 PUSH0 REVERT JUMPDEST POP PUSH2 0x3E8 PUSH2 0xF71 JUMP JUMPDEST PUSH1 0x40 MLOAD PUSH2 0x3F5 SWAP2 SWAP1 PUSH2 0x5B05 JUMP JUMPDEST PUSH1 0x40 MLOAD DUP1 SWAP2 SUB SWAP1 RETURN JUMPDEST CALLVALUE DUP1 ISZERO PUSH2 0x409 JUMPI PUSH0 PUSH0 REVERT JUMPDEST POP PUSH2 0x412 PUSH2 0xF99 JUMP JUMPDEST PUSH1 0x40 MLOAD PUSH2 0x41F SWAP2 SWAP1 PUSH2 0x5B36 JUMP JUMPDEST PUSH1 0x40 MLOAD DUP1 SWAP2 SUB SWAP1 RETURN JUMPDEST CALLVALUE DUP1 ISZERO PUSH2 0x433 JUMPI PUSH0 PUSH0 REVERT JUMPDEST POP PUSH2 0x44E PUSH1 0x4 DUP1 CALLDATASIZE SUB DUP2 ADD SWAP1 PUSH2 0x449 SWAP2 SWAP1 PUSH2 0x5B79 JUMP JUMPDEST PUSH2 0xF9E JUMP JUMPDEST PUSH1 0x40 MLOAD PUSH2 0x45B SWAP2 SWAP1 PUSH2 0x5B05 JUMP JUMPDEST PUSH1 0x40 MLOAD DUP1 SWAP2 SUB SWAP1 RETURN JUMPDEST CALLVALUE DUP1 ISZERO PUSH2 0x46F JUMPI PUSH0 PUSH0 REVERT JUMPDEST POP PUSH2 0x48A PUSH1 0x4 DUP1 CALLDATASIZE SUB DUP2 ADD SWAP1 PUSH2 0x485 SWAP2 SWAP1 PUSH2 0x5BCE JUMP JUMPDEST PUSH2 0x1016 JUMP JUMPDEST STOP JUMPDEST CALLVALUE DUP1 ISZERO PUSH2 0x497 JUMPI PUSH0 PUSH0 REVERT JUMPDEST POP PUSH2 0x4B2 PUSH1 0x4 DUP1 CALLDATASIZE SUB DUP2 ADD SWAP1 PUSH2 0x4AD SWAP2 SWAP1 PUSH2 0x5C0C JUMP JUMPDEST PUSH2 0x1119 JUMP JUMPDEST STOP JUMPDEST CALLVALUE DUP1 ISZERO PUSH2 0x4BF JUMPI PUSH0 PUSH0 REVERT JUMPDEST POP PUSH2 0x4C8 PUSH2 0x1163 JUMP JUMPDEST PUSH1 0x40 MLOAD PUSH2 0x4D5 SWAP2 SWAP1 PUSH2 0x5B36 JUMP JUMPDEST PUSH1 0x40 MLOAD DUP1 SWAP2 SUB SWAP1 RETURN JUMPDEST CALLVALUE DUP1 ISZERO PUSH2 0x4E9 JUMPI PUSH0 PUSH0 REVERT JUMPDEST POP PUSH2 0x504 PUSH1 0x4 DUP1 CALLDATASIZE SUB DUP2 ADD SWAP1 PUSH2 0x4FF SWAP2 SWAP1 PUSH2 0x5C37 JUMP JUMPDEST PUSH2 0x1178 JUMP JUMPDEST STOP JUMPDEST CALLVALUE DUP1 ISZERO PUSH2 0x511 JUMPI PUSH0 PUSH0 REVERT JUMPDEST POP PUSH2 0x52C PUSH1 0x4 DUP1 CALLDATASIZE SUB DUP2 ADD SWAP1 PUSH2 0x527 SWAP2 SWAP1 PUSH2 0x5B79 JUMP JUMPDEST PUSH2 0x1188 JUMP JUMPDEST PUSH1 0x40 MLOAD PUSH2 0x539 SWAP2 SWAP1 PUSH2 0x5B36 JUMP JUMPDEST PUSH1 0x40 MLOAD DUP1 SWAP2 SUB SWAP1 RETURN JUMPDEST CALLVALUE DUP1 ISZERO PUSH2 0x54D JUMPI PUSH0 PUSH0 REVERT JUMPDEST POP PUSH2 0x568 PUSH1 0x4 DUP1 CALLDATASIZE SUB DUP2 ADD SWAP1 PUSH2 0x563 SWAP2 SWAP1 PUSH2 0x5C87 JUMP JUMPDEST PUSH2 0x11F8 JUMP JUMPDEST PUSH1 0x40 MLOAD PUSH2 0x576 SWAP3 SWAP2 SWAP1 PUSH2 0x5CC5 JUMP JUMPDEST PUSH1 0x40 MLOAD DUP1 SWAP2 SUB SWAP1 RETURN JUMPDEST CALLVALUE DUP1 ISZERO PUSH2 0x58A JUMPI PUSH0 PUSH0 REVERT JUMPDEST POP PUSH2 0x5A5 PUSH1 0x4 DUP1 CALLDATASIZE SUB DUP2 ADD SWAP1 PUSH2 0x5A0 SWAP2 SWAP1 PUSH2 0x5B79 JUMP JUMPDEST PUSH2 0x1234 JUMP JUMPDEST PUSH1 0x40 MLOAD PUSH2 0x5B2 SWAP2 SWAP1 PUSH2 0x5B36 JUMP JUMPDEST PUSH1 0x40 MLOAD DUP1 SWAP2 SUB SWAP1 RETURN JUMPDEST CALLVALUE DUP1 ISZERO PUSH2 0x5C6 JUMPI PUSH0 PUSH0 REVERT JUMPDEST POP PUSH2 0x5E1 PUSH1 0x4 DUP1 CALLDATASIZE SUB DUP2 ADD SWAP1 PUSH2 0x5DC SWAP2 SWAP1 PUSH2 0x5C0C JUMP JUMPDEST PUSH2 0x1249 JUMP JUMPDEST PUSH1 0x40 MLOAD PUSH2 0x5EE SWAP2 SWAP1 PUSH2 0x5B36 JUMP JUMPDEST PUSH1 0x40 MLOAD DUP1 SWAP2 SUB SWAP1 RETURN JUMPDEST PUSH2 0x611 PUSH1 0x4 DUP1 CALLDATASIZE SUB DUP2 ADD SWAP1 PUSH2 0x60C SWAP2 SWAP1 PUSH2 0x5B79 JUMP JUMPDEST PUSH2 0x12A0 JUMP JUMPDEST STOP JUMPDEST CALLVALUE DUP1 ISZERO PUSH2 0x61E JUMPI PUSH0 PUSH0 REVERT JUMPDEST POP PUSH2 0x627 PUSH2 0x1513 JUMP JUMPDEST PUSH1 0x40 MLOAD PUSH2 0x634 SWAP2 SWAP1 PUSH2 0x5B36 JUMP JUMPDEST PUSH1 0x40 MLOAD DUP1 SWAP2 SUB SWAP1 RETURN JUMPDEST CALLVALUE DUP1 ISZERO PUSH2 0x648 JUMPI PUSH0 PUSH0 REVERT JUMPDEST POP PUSH2 0x663 PUSH1 0x4 DUP1 CALLDATASIZE SUB DUP2 ADD SWAP1 PUSH2 0x65E SWAP2 SWAP1 PUSH2 0x5D39 JUMP JUMPDEST PUSH2 0x151C JUMP JUMPDEST STOP JUMPDEST CALLVALUE DUP1 ISZERO PUSH2 0x670 JUMPI PUSH0 PUSH0 REVERT JUMPDEST POP PUSH2 0x68B PUSH1 0x4 DUP1 CALLDATASIZE SUB DUP2 ADD SWAP1 PUSH2 0x686 SWAP2 SWAP1 PUSH2 0x5C37 JUMP JUMPDEST PUSH2 0x178A JUMP JUMPDEST STOP JUMPDEST CALLVALUE DUP1 ISZERO PUSH2 0x698 JUMPI PUSH0 PUSH0 REVERT JUMPDEST POP PUSH2 0x6B3 PUSH1 0x4 DUP1 CALLDATASIZE SUB DUP2 ADD SWAP1 PUSH2 0x6AE SWAP2 SWAP1 PUSH2 0x5B79 JUMP JUMPDEST PUSH2 0x17A9 JUMP JUMPDEST STOP JUMPDEST CALLVALUE DUP1 ISZERO PUSH2 0x6C0 JUMPI PUSH0 PUSH0 REVERT JUMPDEST POP PUSH2 0x6C9 PUSH2 0x17B7 JUMP JUMPDEST PUSH1 0x40 MLOAD PUSH2 0x6D6 SWAP2 SWAP1 PUSH2 0x5B36 JUMP JUMPDEST PUSH1 0x40 MLOAD DUP1 SWAP2 SUB SWAP1 RETURN JUMPDEST CALLVALUE DUP1 ISZERO PUSH2 0x6EA JUMPI PUSH0 PUSH0 REVERT JUMPDEST POP PUSH2 0x705 PUSH1 0x4 DUP1 CALLDATASIZE SUB DUP2 ADD SWAP1 PUSH2 0x700 SWAP2 SWAP1 PUSH2 0x5B79 JUMP JUMPDEST PUSH2 0x17BD JUMP JUMPDEST PUSH1 0x40 MLOAD PUSH2 0x712 SWAP2 SWAP1 PUSH2 0x5A1D JUMP JUMPDEST PUSH1 0x40 MLOAD DUP1 SWAP2 SUB SWAP1 RETURN JUMPDEST CALLVALUE DUP1 ISZERO PUSH2 0x726 JUMPI PUSH0 PUSH0 REVERT JUMPDEST POP PUSH2 0x741 PUSH1 0x4 DUP1 CALLDATASIZE SUB DUP2 ADD SWAP1 PUSH2 0x73C SWAP2 SWAP1 PUSH2 0x5B79 JUMP JUMPDEST PUSH2 0x17E5 JUMP JUMPDEST PUSH1 0x40 MLOAD PUSH2 0x74F SWAP3 SWAP2 SWAP1 PUSH2 0x5DAF JUMP JUMPDEST PUSH1 0x40 MLOAD DUP1 SWAP2 SUB SWAP1 RETURN JUMPDEST CALLVALUE DUP1 ISZERO PUSH2 0x763 JUMPI PUSH0 PUSH0 REVERT JUMPDEST POP PUSH2 0x77E PUSH1 0x4 DUP1 CALLDATASIZE SUB DUP2 ADD SWAP1 PUSH2 0x779 SWAP2 SWAP1 PUSH2 0x5F02 JUMP JUMPDEST PUSH2 0x18E6 JUMP JUMPDEST STOP JUMPDEST CALLVALUE DUP1 ISZERO PUSH2 0x78B JUMPI PUSH0 PUSH0 REVERT JUMPDEST POP PUSH2 0x7A6 PUSH1 0x4 DUP1 CALLDATASIZE SUB DUP2 ADD SWAP1 PUSH2 0x7A1 SWAP2 SWAP1 PUSH2 0x5C87 JUMP JUMPDEST PUSH2 0x197F JUMP JUMPDEST STOP JUMPDEST CALLVALUE DUP1 ISZERO PUSH2 0x7B3 JUMPI PUSH0 PUSH0 REVERT JUMPDEST POP PUSH2 0x7CE PUSH1 0x4 DUP1 CALLDATASIZE SUB DUP2 ADD SWAP1 PUSH2 0x7C9 SWAP2 SWAP1 PUSH2 0x5BCE JUMP JUMPDEST PUSH2 0x1A6E JUMP JUMPDEST STOP JUMPDEST CALLVALUE DUP1 ISZERO PUSH2 0x7DB JUMPI PUSH0 PUSH0 REVERT JUMPDEST POP PUSH2 0x7F6 PUSH1 0x4 DUP1 CALLDATASIZE SUB DUP2 ADD SWAP1 PUSH2 0x7F1 SWAP2 SWAP1 PUSH2 0x5B79 JUMP JUMPDEST PUSH2 0x1ABA JUMP JUMPDEST PUSH1 0x40 MLOAD PUSH2 0x803 SWAP2 SWAP1 PUSH2 0x5B05 JUMP JUMPDEST PUSH1 0x40 MLOAD DUP1 SWAP2 SUB SWAP1 RETURN JUMPDEST CALLVALUE DUP1 ISZERO PUSH2 0x817 JUMPI PUSH0 PUSH0 REVERT JUMPDEST POP PUSH2 0x820 PUSH2 0x1ACE JUMP JUMPDEST PUSH1 0x40 MLOAD PUSH2 0x82D SWAP2 SWAP1 PUSH2 0x5B36 JUMP JUMPDEST PUSH1 0x40 MLOAD DUP1 SWAP2 SUB SWAP1 RETURN JUMPDEST CALLVALUE DUP1 ISZERO PUSH2 0x841 JUMPI PUSH0 PUSH0 REVERT JUMPDEST POP PUSH2 0x84A PUSH2 0x1ADA JUMP JUMPDEST PUSH1 0x40 MLOAD PUSH2 0x857 SWAP2 SWAP1 PUSH2 0x5B36 JUMP JUMPDEST PUSH1 0x40 MLOAD DUP1 SWAP2 SUB SWAP1 RETURN JUMPDEST CALLVALUE DUP1 ISZERO PUSH2 0x86B JUMPI PUSH0 PUSH0 REVERT JUMPDEST POP PUSH2 0x886 PUSH1 0x4 DUP1 CALLDATASIZE SUB DUP2 ADD SWAP1 PUSH2 0x881 SWAP2 SWAP1 PUSH2 0x5C0C JUMP JUMPDEST PUSH2 0x1AE0 JUMP JUMPDEST STOP JUMPDEST CALLVALUE DUP1 ISZERO PUSH2 0x893 JUMPI PUSH0 PUSH0 REVERT JUMPDEST POP PUSH2 0x8AE PUSH1 0x4 DUP1 CALLDATASIZE SUB DUP2 ADD SWAP1 PUSH2 0x8A9 SWAP2 SWAP1 PUSH2 0x5C0C JUMP JUMPDEST PUSH2 0x1B2A JUMP JUMPDEST PUSH1 0x40 MLOAD PUSH2 0x8BB SWAP2 SWAP1 PUSH2 0x5B36 JUMP JUMPDEST PUSH1 0x40 MLOAD DUP1 SWAP2 SUB SWAP1 RETURN JUMPDEST CALLVALUE DUP1 ISZERO PUSH2 0x8CF JUMPI PUSH0 PUSH0 REVERT JUMPDEST POP PUSH2 0x8EA PUSH1 0x4 DUP1 CALLDATASIZE SUB DUP2 ADD SWAP1 PUSH2 0x8E5 SWAP2 SWAP1 PUSH2 0x5B79 JUMP JUMPDEST PUSH2 0x1BF4 JUMP JUMPDEST PUSH1 0x40 MLOAD PUSH2 0x8F7 SWAP2 SWAP1 PUSH2 0x5A1D JUMP JUMPDEST PUSH1 0x40 MLOAD DUP1 SWAP2 SUB SWAP1 RETURN JUMPDEST PUSH2 0x91A PUSH1 0x4 DUP1 CALLDATASIZE SUB DUP2 ADD SWAP1 PUSH2 0x915 SWAP2 SWAP1 PUSH2 0x6005 JUMP JUMPDEST PUSH2 0x1C11 JUMP JUMPDEST STOP JUMPDEST CALLVALUE DUP1 ISZERO PUSH2 0x927 JUMPI PUSH0 PUSH0 REVERT JUMPDEST POP PUSH2 0x930 PUSH2 0x1D5C JUMP JUMPDEST PUSH1 0x40 MLOAD PUSH2 0x93D SWAP2 SWAP1 PUSH2 0x5B05 JUMP JUMPDEST PUSH1 0x40 MLOAD DUP1 SWAP2 SUB SWAP1 RETURN JUMPDEST CALLVALUE DUP1 ISZERO PUSH2 0x951 JUMPI PUSH0 PUSH0 REVERT JUMPDEST POP PUSH2 0x95A PUSH2 0x1D84 JUMP JUMPDEST PUSH1 0x40 MLOAD PUSH2 0x967 SWAP2 SWAP1 PUSH2 0x5B36 JUMP JUMPDEST PUSH1 0x40 MLOAD DUP1 SWAP2 SUB SWAP1 RETURN JUMPDEST CALLVALUE DUP1 ISZERO PUSH2 0x97B JUMPI PUSH0 PUSH0 REVERT JUMPDEST POP PUSH2 0x996 PUSH1 0x4 DUP1 CALLDATASIZE SUB DUP2 ADD SWAP1 PUSH2 0x991 SWAP2 SWAP1 PUSH2 0x5F02 JUMP JUMPDEST PUSH2 0x1D89 JUMP JUMPDEST STOP JUMPDEST CALLVALUE DUP1 ISZERO PUSH2 0x9A3 JUMPI PUSH0 PUSH0 REVERT JUMPDEST POP PUSH2 0x9AC PUSH2 0x1DD3 JUMP JUMPDEST PUSH1 0x40 MLOAD PUSH2 0x9B9 SWAP2 SWAP1 PUSH2 0x5AA6 JUMP JUMPDEST PUSH1 0x40 MLOAD DUP1 SWAP2 SUB SWAP1 RETURN JUMPDEST CALLVALUE DUP1 ISZERO PUSH2 0x9CD JUMPI PUSH0 PUSH0 REVERT JUMPDEST POP PUSH2 0x9E8 PUSH1 0x4 DUP1 CALLDATASIZE SUB DUP2 ADD SWAP1 PUSH2 0x9E3 SWAP2 SWAP1 PUSH2 0x60C6 JUMP JUMPDEST PUSH2 0x1E63 JUMP JUMPDEST STOP JUMPDEST CALLVALUE DUP1 ISZERO PUSH2 0x9F5 JUMPI PUSH0 PUSH0 REVERT JUMPDEST POP PUSH2 0xA10 PUSH1 0x4 DUP1 CALLDATASIZE SUB DUP2 ADD SWAP1 PUSH2 0xA0B SWAP2 SWAP1 PUSH2 0x6173 JUMP JUMPDEST PUSH2 0x1EB1 JUMP JUMPDEST PUSH1 0x40 MLOAD PUSH2 0xA1D SWAP2 SWAP1 PUSH2 0x5AA6 JUMP JUMPDEST PUSH1 0x40 MLOAD DUP1 SWAP2 SUB SWAP1 RETURN JUMPDEST CALLVALUE DUP1 ISZERO PUSH2 0xA31 JUMPI PUSH0 PUSH0 REVERT JUMPDEST POP PUSH2 0xA4C PUSH1 0x4 DUP1 CALLDATASIZE SUB DUP2 ADD SWAP1 PUSH2 0xA47 SWAP2 SWAP1 PUSH2 0x5B79 JUMP JUMPDEST PUSH2 0x2057 JUMP JUMPDEST PUSH1 0x40 MLOAD PUSH2 0xA59 SWAP2 SWAP1 PUSH2 0x6222 JUMP JUMPDEST PUSH1 0x40 MLOAD DUP1 SWAP2 SUB SWAP1 RETURN JUMPDEST CALLVALUE DUP1 ISZERO PUSH2 0xA6D JUMPI PUSH0 PUSH0 REVERT JUMPDEST POP PUSH2 0xA88 PUSH1 0x4 DUP1 CALLDATASIZE SUB DUP2 ADD SWAP1 PUSH2 0xA83 SWAP2 SWAP1 PUSH2 0x6242 JUMP JUMPDEST PUSH2 0x20F2 JUMP JUMPDEST STOP JUMPDEST CALLVALUE DUP1 ISZERO PUSH2 0xA95 JUMPI PUSH0 PUSH0 REVERT JUMPDEST POP PUSH2 0xA9E PUSH2 0x2264 JUMP JUMPDEST PUSH1 0x40 MLOAD PUSH2 0xAAB SWAP2 SWAP1 PUSH2 0x5B36 JUMP JUMPDEST PUSH1 0x40 MLOAD DUP1 SWAP2 SUB SWAP1 RETURN JUMPDEST CALLVALUE DUP1 ISZERO PUSH2 0xABF JUMPI PUSH0 PUSH0 REVERT JUMPDEST POP PUSH2 0xADA PUSH1 0x4 DUP1 CALLDATASIZE SUB DUP2 ADD SWAP1 PUSH2 0xAD5 SWAP2 SWAP1 PUSH2 0x62D5 JUMP JUMPDEST PUSH2 0x226A JUMP JUMPDEST PUSH1 0x40 MLOAD PUSH2 0xAE7 SWAP2 SWAP1 PUSH2 0x6423 JUMP JUMPDEST PUSH1 0x40 MLOAD DUP1 SWAP2 SUB SWAP1 RETURN JUMPDEST CALLVALUE DUP1 ISZERO PUSH2 0xAFB JUMPI PUSH0 PUSH0 REVERT JUMPDEST POP PUSH2 0xB04 PUSH2 0x242B JUMP JUMPDEST PUSH1 0x40 MLOAD PUSH2 0xB11 SWAP2 SWAP1 PUSH2 0x5B36 JUMP JUMPDEST PUSH1 0x40 MLOAD DUP1 SWAP2 SUB SWAP1 RETURN JUMPDEST CALLVALUE DUP1 ISZERO PUSH2 0xB25 JUMPI PUSH0 PUSH0 REVERT JUMPDEST POP PUSH2 0xB2E PUSH2 0x2433 JUMP JUMPDEST PUSH1 0x40 MLOAD PUSH2 0xB3C SWAP3 SWAP2 SWAP1 PUSH2 0x5DAF JUMP JUMPDEST PUSH1 0x40 MLOAD DUP1 SWAP2 SUB SWAP1 RETURN JUMPDEST CALLVALUE DUP1 ISZERO PUSH2 0xB50 JUMPI PUSH0 PUSH0 REVERT JUMPDEST POP PUSH2 0xB6B PUSH1 0x4 DUP1 CALLDATASIZE SUB DUP2 ADD SWAP1 PUSH2 0xB66 SWAP2 SWAP1 PUSH2 0x6443 JUMP JUMPDEST PUSH2 0x2470 JUMP JUMPDEST STOP JUMPDEST CALLVALUE DUP1 ISZERO PUSH2 0xB78 JUMPI PUSH0 PUSH0 REVERT JUMPDEST POP PUSH2 0xB93 PUSH1 0x4 DUP1 CALLDATASIZE SUB DUP2 ADD SWAP1 PUSH2 0xB8E SWAP2 SWAP1 PUSH2 0x5B79 JUMP JUMPDEST PUSH2 0x24E8 JUMP JUMPDEST PUSH1 0x40 MLOAD PUSH2 0xBA0 SWAP2 SWAP1 PUSH2 0x5AA6 JUMP JUMPDEST PUSH1 0x40 MLOAD DUP1 SWAP2 SUB SWAP1 RETURN JUMPDEST CALLVALUE DUP1 ISZERO PUSH2 0xBB4 JUMPI PUSH0 PUSH0 REVERT JUMPDEST POP PUSH2 0xBCF PUSH1 0x4 DUP1 CALLDATASIZE SUB DUP2 ADD SWAP1 PUSH2 0xBCA SWAP2 SWAP1 PUSH2 0x6173 JUMP JUMPDEST PUSH2 0x256E JUMP JUMPDEST PUSH1 0x40 MLOAD PUSH2 0xBDC SWAP2 SWAP1 PUSH2 0x5AA6 JUMP JUMPDEST PUSH1 0x40 MLOAD DUP1 SWAP2 SUB SWAP1 RETURN JUMPDEST CALLVALUE DUP1 ISZERO PUSH2 0xBF0 JUMPI PUSH0 PUSH0 REVERT JUMPDEST POP PUSH2 0xC0B PUSH1 0x4 DUP1 CALLDATASIZE SUB DUP2 ADD SWAP1 PUSH2 0xC06 SWAP2 SWAP1 PUSH2 0x6518 JUMP JUMPDEST PUSH2 0x2632 JUMP JUMPDEST PUSH1 0x40 MLOAD PUSH2 0xC18 SWAP2 SWAP1 PUSH2 0x5B36 JUMP JUMPDEST PUSH1 0x40 MLOAD DUP1 SWAP2 SUB SWAP1 RETURN JUMPDEST CALLVALUE DUP1 ISZERO PUSH2 0xC2C JUMPI PUSH0 PUSH0 REVERT JUMPDEST POP PUSH2 0xC35 PUSH2 0x26DF JUMP JUMPDEST PUSH1 0x40 MLOAD PUSH2 0xC49 SWAP9 SWAP8 SWAP7 SWAP6 SWAP5 SWAP4 SWAP3 SWAP2 SWAP1 PUSH2 0x65C1 JUMP JUMPDEST PUSH1 0x40 MLOAD DUP1 SWAP2 SUB SWAP1 RETURN JUMPDEST CALLVALUE DUP1 ISZERO PUSH2 0xC5D JUMPI PUSH0 PUSH0 REVERT JUMPDEST POP PUSH2 0xC66 PUSH2 0x27B9 JUMP JUMPDEST PUSH1 0x40 MLOAD PUSH2 0xC73 SWAP2 SWAP1 PUSH2 0x5B36 JUMP JUMPDEST PUSH1 0x40 MLOAD DUP1 SWAP2 SUB SWAP1 RETURN JUMPDEST CALLVALUE DUP1 ISZERO PUSH2 0xC87 JUMPI PUSH0 PUSH0 REVERT JUMPDEST POP PUSH2 0xC90 PUSH2 0x27BF JUMP JUMPDEST PUSH1 0x40 MLOAD PUSH2 0xC9D SWAP2 SWAP1 PUSH2 0x5B36 JUMP JUMPDEST PUSH1 0x40 MLOAD DUP1 SWAP2 SUB SWAP1 RETURN JUMPDEST CALLVALUE DUP1 ISZERO PUSH2 0xCB1 JUMPI PUSH0 PUSH0 REVERT JUMPDEST POP PUSH2 0xCCC PUSH1 0x4 DUP1 CALLDATASIZE SUB DUP2 ADD SWAP1 PUSH2 0xCC7 SWAP2 SWAP1 PUSH2 0x5B79 JUMP JUMPDEST PUSH2 0x27C5 JUMP JUMPDEST STOP JUMPDEST CALLVALUE DUP1 ISZERO PUSH2 0xCD9 JUMPI PUSH0 PUSH0 REVERT JUMPDEST POP PUSH2 0xCF4 PUSH1 0x4 DUP1 CALLDATASIZE SUB DUP2 ADD SWAP1 PUSH2 0xCEF SWAP2 SWAP1 PUSH2 0x6644 JUMP JUMPDEST PUSH2 0x2855 JUMP JUMPDEST PUSH1 0x40 MLOAD PUSH2 0xD01 SWAP2 SWAP1 PUSH2 0x6222 JUMP JUMPDEST PUSH1 0x40 MLOAD DUP1 SWAP2 SUB SWAP1 RETURN JUMPDEST CALLVALUE DUP1 ISZERO PUSH2 0xD15 JUMPI PUSH0 PUSH0 REVERT JUMPDEST POP PUSH2 0xD1E PUSH2 0x28DE JUMP JUMPDEST PUSH1 0x40 MLOAD PUSH2 0xD2B SWAP2 SWAP1 PUSH2 0x5AA6 JUMP JUMPDEST PUSH1 0x40 MLOAD DUP1 SWAP2 SUB SWAP1 RETURN JUMPDEST CALLVALUE DUP1 ISZERO PUSH2 0xD3F JUMPI PUSH0 PUSH0 REVERT JUMPDEST POP PUSH2 0xD5A PUSH1 0x4 DUP1 CALLDATASIZE SUB DUP2 ADD SWAP1 PUSH2 0xD55 SWAP2 SWAP1 PUSH2 0x66BD JUMP JUMPDEST PUSH2 0x296A JUMP JUMPDEST PUSH1 0x40 MLOAD PUSH2 0xD67 SWAP2 SWAP1 PUSH2 0x5A1D JUMP JUMPDEST PUSH1 0x40 MLOAD DUP1 SWAP2 SUB SWAP1 RETURN JUMPDEST CALLVALUE DUP1 ISZERO PUSH2 0xD7B JUMPI PUSH0 PUSH0 REVERT JUMPDEST POP PUSH2 0xD96 PUSH1 0x4 DUP1 CALLDATASIZE SUB DUP2 ADD SWAP1 PUSH2 0xD91 SWAP2 SWAP1 PUSH2 0x66FB JUMP JUMPDEST PUSH2 0x29F8 JUMP JUMPDEST PUSH1 0x40 MLOAD PUSH2 0xDA3 SWAP2 SWAP1 PUSH2 0x5A1D JUMP JUMPDEST PUSH1 0x40 MLOAD DUP1 SWAP2 SUB SWAP1 RETURN JUMPDEST CALLVALUE DUP1 ISZERO PUSH2 0xDB7 JUMPI PUSH0 PUSH0 REVERT JUMPDEST POP PUSH2 0xDD2 PUSH1 0x4 DUP1 CALLDATASIZE SUB DUP2 ADD SWAP1 PUSH2 0xDCD SWAP2 SWAP1 PUSH2 0x5C0C JUMP JUMPDEST PUSH2 0x2EA7 JUMP JUMPDEST PUSH1 0x40 MLOAD PUSH2 0xDDF SWAP2 SWAP1 PUSH2 0x5B36 JUMP JUMPDEST PUSH1 0x40 MLOAD DUP1 SWAP2 SUB SWAP1 RETURN JUMPDEST PUSH0 PUSH4 0x1FFC9A7 PUSH1 0xE0 SHL DUP3 PUSH28 0xFFFFFFFFFFFFFFFFFFFFFFFFFFFFFFFFFFFFFFFFFFFFFFFFFFFFFFFF NOT AND EQ DUP1 PUSH2 0xE42 JUMPI POP PUSH4 0x80AC58CD PUSH1 0xE0 SHL DUP3 PUSH28 0xFFFFFFFFFFFFFFFFFFFFFFFFFFFFFFFFFFFFFFFFFFFFFFFFFFFFFFFF NOT AND EQ JUMPDEST DUP1 PUSH2 0xE72 JUMPI POP PUSH4 0x5B5E139F PUSH1 0xE0 SHL DUP3 PUSH28 0xFFFFFFFFFFFFFFFFFFFFFFFFFFFFFFFFFFFFFFFFFFFFFFFFFFFFFFFF NOT AND EQ JUMPDEST DUP1 PUSH2 0xEDA JUMPI POP PUSH32 0x2A55205A00000000000000000000000000000000000000000000000000000000 PUSH28 0xFFFFFFFFFFFFFFFFFFFFFFFFFFFFFFFFFFFFFFFFFFFFFFFFFFFFFFFF NOT AND DUP3 PUSH28 0xFFFFFFFFFFFFFFFFFFFFFFFFFFFFFFFFFFFFFFFFFFFFFFFFFFFFFFFF NOT AND EQ JUMPDEST SWAP1 POP SWAP2 SWAP1 POP JUMP JUMPDEST PUSH1 0x60 PUSH1 0x2 DUP1 SLOAD PUSH2 0xEF0 SWAP1 PUSH2 0x67BB JUMP JUMPDEST DUP1 PUSH1 0x1F ADD PUSH1 0x20 DUP1 SWAP2 DIV MUL PUSH1 0x20 ADD PUSH1 0x40 MLOAD SWAP1 DUP2 ADD PUSH1 0x40 MSTORE DUP1 SWAP3 SWAP2 SWAP1 DUP2 DUP2 MSTORE PUSH1 0x20 ADD DUP3 DUP1 SLOAD PUSH2 0xF1C SWAP1 PUSH2 0x67BB JUMP JUMPDEST DUP1 ISZERO PUSH2 0xF67 JUMPI DUP1 PUSH1 0x1F LT PUSH2 0xF3E JUMPI PUSH2 0x100 DUP1 DUP4 SLOAD DIV MUL DUP4 MSTORE SWAP2 PUSH1 0x20 ADD SWAP2 PUSH2 0xF67 JUMP JUMPDEST DUP3 ADD SWAP2 SWAP1 PUSH0 MSTORE PUSH1 0x20 PUSH0 KECCAK256 SWAP1 JUMPDEST DUP2 SLOAD DUP2 MSTORE SWAP1 PUSH1 0x1 ADD SWAP1 PUSH1 0x20 ADD DUP1 DUP4 GT PUSH2 0xF4A JUMPI DUP3 SWAP1 SUB PUSH1 0x1F AND DUP3 ADD SWAP2 JUMPDEST POP POP POP POP POP SWAP1 POP SWAP1 JUMP JUMPDEST PUSH0 PUSH1 0xF PUSH0 SWAP1 SLOAD SWAP1 PUSH2 0x100 EXP SWAP1 DIV PUSH20 0xFFFFFFFFFFFFFFFFFFFFFFFFFFFFFFFFFFFFFFFF AND SWAP1 POP SWAP1 JUMP JUMPDEST PUSH1 0x4 DUP2 JUMP JUMPDEST PUSH0 PUSH2 0xFA8 DUP3 PUSH2 0x2EBC JUMP JUMPDEST PUSH2 0xFDE JUMPI PUSH1 0x40 MLOAD PUSH32 0xCF4700E400000000000000000000000000000000000000000000000000000000 DUP2 MSTORE PUSH1 0x4 ADD PUSH1 0x40 MLOAD DUP1 SWAP2 SUB SWAP1 REVERT JUMPDEST PUSH1 0x6 PUSH0 DUP4 DUP2 MSTORE PUSH1 0x20 ADD SWAP1 DUP2 MSTORE PUSH1 0x20 ADD PUSH0 KECCAK256 PUSH0 SWAP1 SLOAD SWAP1 PUSH2 0x100 EXP SWAP1 DIV PUSH20 0xFFFFFFFFFFFFFFFFFFFFFFFFFFFFFFFFFFFFFFFF AND SWAP1 POP SWAP2 SWAP1 POP JUMP JUMPDEST PUSH0 PUSH2 0x1020 DUP3 PUSH2 0x1ABA JUMP JUMPDEST SWAP1 POP DUP1 PUSH20 0xFFFFFFFFFFFFFFFFFFFFFFFFFFFFFFFFFFFFFFFF AND DUP4 PUSH20 0xFFFFFFFFFFFFFFFFFFFFFFFFFFFFFFFFFFFFFFFF AND SUB PUSH2 0x1087 JUMPI PUSH1 0x40 MLOAD PUSH32 0x943F7B8C00000000000000000000000000000000000000000000000000000000 DUP2 MSTORE PUSH1 0x4 ADD PUSH1 0x40 MLOAD DUP1 SWAP2 SUB SWAP1 REVERT JUMPDEST DUP1 PUSH20 0xFFFFFFFFFFFFFFFFFFFFFFFFFFFFFFFFFFFFFFFF AND PUSH2 0x10A6 PUSH2 0x2F05 JUMP JUMPDEST PUSH20 0xFFFFFFFFFFFFFFFFFFFFFFFFFFFFFFFFFFFFFFFF AND EQ PUSH2 0x1109 JUMPI PUSH2 0x10D2 DUP2 PUSH2 0x10CD PUSH2 0x2F05 JUMP JUMPDEST PUSH2 0x296A JUMP JUMPDEST PUSH2 0x1108 JUMPI PUSH1 0x40 MLOAD PUSH32 0xCFB3B94200000000000000000000000000000000000000000000000000000000 DUP2 MSTORE PUSH1 0x4 ADD PUSH1 0x40 MLOAD DUP1 SWAP2 SUB SWAP1 REVERT JUMPDEST JUMPDEST PUSH2 0x1114 DUP4 DUP4 DUP4 PUSH2 0x2F0C JUMP JUMPDEST POP POP POP JUMP JUMPDEST PUSH2 0x1121 PUSH2 0x2FBB JUMP JUMPDEST PUSH2 0x1157 JUMPI PUSH1 0x40 MLOAD PUSH32 0x2D99739600000000000000000000000000000000000000000000000000000000 DUP2 MSTORE PUSH1 0x4 ADD PUSH1 0x40 MLOAD DUP1 SWAP2 SUB SWAP1 REVERT JUMPDEST PUSH2 0x1160 DUP2 PUSH2 0x2FF7 JUMP JUMPDEST POP JUMP JUMPDEST PUSH0 PUSH2 0x116C PUSH2 0x30BA JUMP JUMPDEST PUSH1 0x1 SLOAD PUSH0 SLOAD SUB SUB SWAP1 POP SWAP1 JUMP JUMPDEST PUSH2 0x1183 DUP4 DUP4 DUP4 PUSH2 0x30C1 JUMP JUMPDEST POP POP POP JUMP JUMPDEST PUSH0 PUSH2 0x1191 PUSH2 0x1ACE JUMP JUMPDEST DUP3 LT PUSH2 0x11D4 JUMPI DUP2 PUSH1 0x40 MLOAD PUSH32 0xF2624EE00000000000000000000000000000000000000000000000000000000 DUP2 MSTORE PUSH1 0x4 ADD PUSH2 0x11CB SWAP2 SWAP1 PUSH2 0x5B36 JUMP JUMPDEST PUSH1 0x40 MLOAD DUP1 SWAP2 SUB SWAP1 REVERT JUMPDEST PUSH1 0xC DUP3 DUP2 SLOAD DUP2 LT PUSH2 0x11E8 JUMPI PUSH2 0x11E7 PUSH2 0x67EB JUMP JUMPDEST JUMPDEST SWAP1 PUSH0 MSTORE PUSH1 0x20 PUSH0 KECCAK256 ADD SLOAD SWAP1 POP SWAP2 SWAP1 POP JUMP JUMPDEST PUSH0 PUSH0 PUSH0 PUSH0 PUSH2 0x1205 DUP7 PUSH2 0x17E5 JUMP JUMPDEST PUSH2 0xFFFF AND SWAP2 POP SWAP2 POP DUP2 SWAP4 POP PUSH2 0x2710 DUP2 DUP7 PUSH2 0x121F SWAP2 SWAP1 PUSH2 0x6845 JUMP JUMPDEST PUSH2 0x1229 SWAP2 SWAP1 PUSH2 0x68B3 JUMP JUMPDEST SWAP3 POP POP POP SWAP3 POP SWAP3 SWAP1 POP JUMP JUMPDEST PUSH1 0x22 PUSH1 0x20 MSTORE DUP1 PUSH0 MSTORE PUSH1 0x40 PUSH0 KECCAK256 PUSH0 SWAP2 POP SWAP1 POP SLOAD DUP2 JUMP JUMPDEST PUSH0 PUSH1 0x1B PUSH0 PUSH1 0x1A SLOAD DUP2 MSTORE PUSH1 0x20 ADD SWAP1 DUP2 MSTORE PUSH1 0x20 ADD PUSH0 KECCAK256 PUSH0 DUP4 PUSH20 0xFFFFFFFFFFFFFFFFFFFFFFFFFFFFFFFFFFFFFFFF AND PUSH20 0xFFFFFFFFFFFFFFFFFFFFFFFFFFFFFFFFFFFFFFFF AND DUP2 MSTORE PUSH1 0x20 ADD SWAP1 DUP2 MSTORE PUSH1 0x20 ADD PUSH0 KECCAK256 SLOAD SWAP1 POP SWAP2 SWAP1 POP JUMP JUMPDEST PUSH0 DUP2 GT PUSH2 0x12E2 JUMPI PUSH1 0x40 MLOAD PUSH32 0x8C379A000000000000000000000000000000000000000000000000000000000 DUP2 MSTORE PUSH1 0x4 ADD PUSH2 0x12D9 SWAP1 PUSH2 0x692D JUMP JUMPDEST PUSH1 0x40 MLOAD DUP1 SWAP2 SUB SWAP1 REVERT JUMPDEST PUSH1 0x1D SLOAD DUP2 PUSH1 0x23 PUSH0 CALLER PUSH20 0xFFFFFFFFFFFFFFFFFFFFFFFFFFFFFFFFFFFFFFFF AND PUSH20 0xFFFFFFFFFFFFFFFFFFFFFFFFFFFFFFFFFFFFFFFF AND DUP2 MSTORE PUSH1 0x20 ADD SWAP1 DUP2 MSTORE PUSH1 0x20 ADD PUSH0 KECCAK256 SLOAD PUSH2 0x132E SWAP2 SWAP1 PUSH2 0x694B JUMP JUMPDEST GT ISZERO PUSH2 0x136F JUMPI PUSH1 0x40 MLOAD PUSH32 0x8C379A000000000000000000000000000000000000000000000000000000000 DUP2 MSTORE PUSH1 0x4 ADD PUSH2 0x1366 SWAP1 PUSH2 0x69C8 JUMP JUMPDEST PUSH1 0x40 MLOAD DUP1 SWAP2 SUB SWAP1 REVERT JUMPDEST PUSH1 0xA DUP2 PUSH1 0x1F SLOAD PUSH2 0x137F SWAP2 SWAP1 PUSH2 0x694B JUMP JUMPDEST GT ISZERO PUSH2 0x13C0 JUMPI PUSH1 0x40 MLOAD PUSH32 0x8C379A000000000000000000000000000000000000000000000000000000000 DUP2 MSTORE PUSH1 0x4 ADD PUSH2 0x13B7 SWAP1 PUSH2 0x6A30 JUMP JUMPDEST PUSH1 0x40 MLOAD DUP1 SWAP2 SUB SWAP1 REVERT JUMPDEST DUP1 PUSH1 0x22 PUSH0 PUSH1 0x1E SLOAD DUP2 MSTORE PUSH1 0x20 ADD SWAP1 DUP2 MSTORE PUSH1 0x20 ADD PUSH0 KECCAK256 SLOAD PUSH2 0x13DF SWAP2 SWAP1 PUSH2 0x6845 JUMP JUMPDEST CALLVALUE LT ISZERO PUSH2 0x1421 JUMPI PUSH1 0x40 MLOAD PUSH32 0x8C379A000000000000000000000000000000000000000000000000000000000 DUP2 MSTORE PUSH1 0x4 ADD PUSH2 0x1418 SWAP1 PUSH2 0x6A98 JUMP JUMPDEST PUSH1 0x40 MLOAD DUP1 SWAP2 SUB SWAP1 REVERT JUMPDEST PUSH0 PUSH0 SWAP1 POP JUMPDEST DUP2 DUP2 LT ISZERO PUSH2 0x1486 JUMPI PUSH0 PUSH1 0x1 PUSH1 0x1F SLOAD PUSH2 0x143E SWAP2 SWAP1 PUSH2 0x694B JUMP JUMPDEST SWAP1 POP PUSH2 0x144A CALLER DUP3 PUSH2 0x3557 JUMP JUMPDEST PUSH1 0x1F PUSH0 DUP2 SLOAD DUP1 SWAP3 SWAP2 SWAP1 PUSH2 0x145C SWAP1 PUSH2 0x6AB6 JUMP JUMPDEST SWAP2 SWAP1 POP SSTORE POP PUSH1 0x20 PUSH0 DUP2 SLOAD DUP1 SWAP3 SWAP2 SWAP1 PUSH2 0x1473 SWAP1 PUSH2 0x6AB6 JUMP JUMPDEST SWAP2 SWAP1 POP SSTORE POP POP DUP1 DUP1 PUSH1 0x1 ADD SWAP2 POP POP PUSH2 0x1426 JUMP JUMPDEST POP DUP1 PUSH1 0x23 PUSH0 CALLER PUSH20 0xFFFFFFFFFFFFFFFFFFFFFFFFFFFFFFFFFFFFFFFF AND PUSH20 0xFFFFFFFFFFFFFFFFFFFFFFFFFFFFFFFFFFFFFFFF AND DUP2 MSTORE PUSH1 0x20 ADD SWAP1 DUP2 MSTORE PUSH1 0x20 ADD PUSH0 KECCAK256 PUSH0 DUP3 DUP3 SLOAD PUSH2 0x14D3 SWAP2 SWAP1 PUSH2 0x694B JUMP JUMPDEST SWAP3 POP POP DUP2 SWAP1 SSTORE POP PUSH1 0x1C SLOAD PUSH1 0x20 SLOAD LT PUSH2 0x1510 JUMPI PUSH0 PUSH1 0x20 DUP2 SWAP1 SSTORE POP PUSH1 0x4 PUSH1 0x1E SLOAD LT ISZERO PUSH2 0x150F JUMPI PUSH1 0x1E PUSH0 DUP2 SLOAD DUP1 SWAP3 SWAP2 SWAP1 PUSH2 0x1509 SWAP1 PUSH2 0x6AB6 JUMP JUMPDEST SWAP2 SWAP1 POP SSTORE POP JUMPDEST JUMPDEST POP JUMP JUMPDEST PUSH0 PUSH1 0x10 SLOAD SWAP1 POP SWAP1 JUMP JUMPDEST PUSH2 0x1524 PUSH2 0x381A JUMP JUMPDEST PUSH2 0x155A JUMPI PUSH1 0x40 MLOAD PUSH32 0x56C4EF5100000000000000000000000000000000000000000000000000000000 DUP2 MSTORE PUSH1 0x4 ADD PUSH1 0x40 MLOAD DUP1 SWAP2 SUB SWAP1 REVERT JUMPDEST PUSH0 PUSH1 0x1A SLOAD SWAP1 POP PUSH0 PUSH1 0x12 PUSH1 0x2 ADD SLOAD SWAP1 POP DUP3 ISZERO PUSH2 0x15A5 JUMPI PUSH0 SWAP1 POP PUSH2 0x157A PUSH2 0x3856 JUMP JUMPDEST NUMBER PUSH1 0x40 MLOAD PUSH1 0x20 ADD PUSH2 0x158C SWAP3 SWAP2 SWAP1 PUSH2 0x6B62 JUMP JUMPDEST PUSH1 0x40 MLOAD PUSH1 0x20 DUP2 DUP4 SUB SUB DUP2 MSTORE SWAP1 PUSH1 0x40 MSTORE DUP1 MLOAD SWAP1 PUSH1 0x20 ADD KECCAK256 SWAP2 POP JUMPDEST DUP4 PUSH1 0x20 ADD CALLDATALOAD DUP2 GT ISZERO PUSH2 0x15E3 JUMPI PUSH1 0x40 MLOAD PUSH32 0x656A73E00000000000000000000000000000000000000000000000000000000 DUP2 MSTORE PUSH1 0x4 ADD PUSH1 0x40 MLOAD DUP1 SWAP2 SUB SWAP1 REVERT JUMPDEST PUSH1 0x40 MLOAD DUP1 PUSH2 0x100 ADD PUSH1 0x40 MSTORE DUP1 DUP6 PUSH0 ADD CALLDATALOAD DUP2 MSTORE PUSH1 0x20 ADD DUP6 PUSH1 0x20 ADD CALLDATALOAD DUP2 MSTORE PUSH1 0x20 ADD DUP3 DUP2 MSTORE PUSH1 0x20 ADD DUP6 PUSH1 0x60 ADD CALLDATALOAD DUP2 MSTORE PUSH1 0x20 ADD DUP6 PUSH1 0x80 ADD CALLDATALOAD DUP2 MSTORE PUSH1 0x20 ADD DUP6 PUSH1 0xA0 ADD CALLDATALOAD DUP2 MSTORE PUSH1 0x20 ADD DUP6 PUSH1 0xC0 ADD PUSH1 0x20 DUP2 ADD SWAP1 PUSH2 0x1639 SWAP2 SWAP1 PUSH2 0x5C0C JUMP JUMPDEST PUSH20 0xFFFFFFFFFFFFFFFFFFFFFFFFFFFFFFFFFFFFFFFF AND DUP2 MSTORE PUSH1 0x20 ADD DUP6 DUP1 PUSH1 0xE0 ADD SWAP1 PUSH2 0x1664 SWAP2 SWAP1 PUSH2 0x6B99 JUMP JUMPDEST DUP1 DUP1 PUSH1 0x1F ADD PUSH1 0x20 DUP1 SWAP2 DIV MUL PUSH1 0x20 ADD PUSH1 0x40 MLOAD SWAP1 DUP2 ADD PUSH1 0x40 MSTORE DUP1 SWAP4 SWAP3 SWAP2 SWAP1 DUP2 DUP2 MSTORE PUSH1 0x20 ADD DUP4 DUP4 DUP1 DUP3 DUP5 CALLDATACOPY PUSH0 DUP2 DUP5 ADD MSTORE PUSH1 0x1F NOT PUSH1 0x1F DUP3 ADD AND SWAP1 POP DUP1 DUP4 ADD SWAP3 POP POP POP POP POP POP POP DUP2 MSTORE POP PUSH1 0x12 PUSH0 DUP3 ADD MLOAD DUP2 PUSH0 ADD SSTORE PUSH1 0x20 DUP3 ADD MLOAD DUP2 PUSH1 0x1 ADD SSTORE PUSH1 0x40 DUP3 ADD MLOAD DUP2 PUSH1 0x2 ADD SSTORE PUSH1 0x60 DUP3 ADD MLOAD DUP2 PUSH1 0x3 ADD SSTORE PUSH1 0x80 DUP3 ADD MLOAD DUP2 PUSH1 0x4 ADD SSTORE PUSH1 0xA0 DUP3 ADD MLOAD DUP2 PUSH1 0x5 ADD SSTORE PUSH1 0xC0 DUP3 ADD MLOAD DUP2 PUSH1 0x6 ADD PUSH0 PUSH2 0x100 EXP DUP2 SLOAD DUP2 PUSH20 0xFFFFFFFFFFFFFFFFFFFFFFFFFFFFFFFFFFFFFFFF MUL NOT AND SWAP1 DUP4 PUSH20 0xFFFFFFFFFFFFFFFFFFFFFFFFFFFFFFFFFFFFFFFF AND MUL OR SWAP1 SSTORE POP PUSH1 0xE0 DUP3 ADD MLOAD DUP2 PUSH1 0x7 ADD SWAP1 DUP2 PUSH2 0x1740 SWAP2 SWAP1 PUSH2 0x6D9B JUMP JUMPDEST POP SWAP1 POP POP DUP2 PUSH1 0x1A DUP2 SWAP1 SSTORE POP PUSH32 0x6DAB9D7D05D468100139089B2516CB8FF286C3972FF070D3B509E371F0D0D4B8 DUP5 DUP5 PUSH1 0x40 MLOAD PUSH2 0x177C SWAP3 SWAP2 SWAP1 PUSH2 0x709C JUMP JUMPDEST PUSH1 0x40 MLOAD DUP1 SWAP2 SUB SWAP1 LOG1 POP POP POP POP JUMP JUMPDEST PUSH2 0x17A4 DUP4 DUP4 DUP4 PUSH1 0x40 MLOAD DUP1 PUSH1 0x20 ADD PUSH1 0x40 MSTORE DUP1 PUSH0 DUP2 MSTORE POP PUSH2 0x2470 JUMP JUMPDEST POP POP POP JUMP JUMPDEST PUSH2 0x17B4 DUP2 PUSH1 0x1 PUSH2 0x385D JUMP JUMPDEST POP JUMP JUMPDEST PUSH1 0x1D SLOAD DUP2 JUMP JUMPDEST PUSH0 PUSH0 PUSH1 0x11 PUSH0 DUP5 DUP2 MSTORE PUSH1 0x20 ADD SWAP1 DUP2 MSTORE PUSH1 0x20 ADD PUSH0 KECCAK256 DUP1 SLOAD PUSH2 0x17DB SWAP1 PUSH2 0x67BB JUMP JUMPDEST SWAP1 POP GT SWAP1 POP SWAP2 SWAP1 POP JUMP JUMPDEST PUSH0 PUSH0 PUSH0 PUSH1 0xB PUSH0 DUP6 DUP2 MSTORE PUSH1 0x20 ADD SWAP1 DUP2 MSTORE PUSH1 0x20 ADD PUSH0 KECCAK256 PUSH1 0x40 MLOAD DUP1 PUSH1 0x40 ADD PUSH1 0x40 MSTORE SWAP1 DUP2 PUSH0 DUP3 ADD PUSH0 SWAP1 SLOAD SWAP1 PUSH2 0x100 EXP SWAP1 DIV PUSH20 0xFFFFFFFFFFFFFFFFFFFFFFFFFFFFFFFFFFFFFFFF AND PUSH20 0xFFFFFFFFFFFFFFFFFFFFFFFFFFFFFFFFFFFFFFFF AND PUSH20 0xFFFFFFFFFFFFFFFFFFFFFFFFFFFFFFFFFFFFFFFF AND DUP2 MSTORE PUSH1 0x20 ADD PUSH1 0x1 DUP3 ADD SLOAD DUP2 MSTORE POP POP SWAP1 POP PUSH0 PUSH20 0xFFFFFFFFFFFFFFFFFFFFFFFFFFFFFFFFFFFFFFFF AND DUP2 PUSH0 ADD MLOAD PUSH20 0xFFFFFFFFFFFFFFFFFFFFFFFFFFFFFFFFFFFFFFFF AND EQ PUSH2 0x18A8 JUMPI DUP1 PUSH0 ADD MLOAD DUP2 PUSH1 0x20 ADD MLOAD PUSH2 0x18DC JUMP JUMPDEST PUSH1 0xA PUSH0 SWAP1 SLOAD SWAP1 PUSH2 0x100 EXP SWAP1 DIV PUSH20 0xFFFFFFFFFFFFFFFFFFFFFFFFFFFFFFFFFFFFFFFF AND PUSH1 0xA PUSH1 0x14 SWAP1 SLOAD SWAP1 PUSH2 0x100 EXP SWAP1 DIV PUSH2 0xFFFF AND JUMPDEST SWAP3 POP SWAP3 POP POP SWAP2 POP SWAP2 JUMP JUMPDEST PUSH1 0x9 PUSH0 SWAP1 SLOAD SWAP1 PUSH2 0x100 EXP SWAP1 DIV PUSH20 0xFFFFFFFFFFFFFFFFFFFFFFFFFFFFFFFFFFFFFFFF AND PUSH20 0xFFFFFFFFFFFFFFFFFFFFFFFFFFFFFFFFFFFFFFFF AND CALLER PUSH20 0xFFFFFFFFFFFFFFFFFFFFFFFFFFFFFFFFFFFFFFFF AND EQ PUSH2 0x196C JUMPI PUSH1 0x40 MLOAD PUSH32 0x2D99739600000000000000000000000000000000000000000000000000000000 DUP2 MSTORE PUSH1 0x4 ADD PUSH1 0x40 MLOAD DUP1 SWAP2 SUB SWAP1 REVERT JUMPDEST DUP1 PUSH1 0x21 SWAP1 DUP2 PUSH2 0x197B SWAP2 SWAP1 PUSH2 0x6D9B JUMP JUMPDEST POP POP JUMP JUMPDEST PUSH1 0x9 PUSH0 SWAP1 SLOAD SWAP1 PUSH2 0x100 EXP SWAP1 DIV PUSH20 0xFFFFFFFFFFFFFFFFFFFFFFFFFFFFFFFFFFFFFFFF AND PUSH20 0xFFFFFFFFFFFFFFFFFFFFFFFFFFFFFFFFFFFFFFFF AND CALLER PUSH20 0xFFFFFFFFFFFFFFFFFFFFFFFFFFFFFFFFFFFFFFFF AND EQ PUSH2 0x1A05 JUMPI PUSH1 0x40 MLOAD PUSH32 0x2D99739600000000000000000000000000000000000000000000000000000000 DUP2 MSTORE PUSH1 0x4 ADD PUSH1 0x40 MLOAD DUP1 SWAP2 SUB SWAP1 REVERT JUMPDEST PUSH0 DUP3 GT DUP1 ISZERO PUSH2 0x1A15 JUMPI POP PUSH1 0x4 DUP3 GT ISZERO JUMPDEST PUSH2 0x1A54 JUMPI PUSH1 0x40 MLOAD PUSH32 0x8C379A000000000000000000000000000000000000000000000000000000000 DUP2 MSTORE PUSH1 0x4 ADD PUSH2 0x1A4B SWAP1 PUSH2 0x7114 JUMP JUMPDEST PUSH1 0x40 MLOAD DUP1 SWAP2 SUB SWAP1 REVERT JUMPDEST DUP1 PUSH1 0x22 PUSH0 DUP5 DUP2 MSTORE PUSH1 0x20 ADD SWAP1 DUP2 MSTORE PUSH1 0x20 ADD PUSH0 KECCAK256 DUP2 SWAP1 SSTORE POP POP POP JUMP JUMPDEST PUSH2 0x1A76 PUSH2 0x3C2B JUMP JUMPDEST PUSH2 0x1AAC JUMPI PUSH1 0x40 MLOAD PUSH32 0xDF5C6B0200000000000000000000000000000000000000000000000000000000 DUP2 MSTORE PUSH1 0x4 ADD PUSH1 0x40 MLOAD DUP1 SWAP2 SUB SWAP1 REVERT JUMPDEST PUSH2 0x1AB6 DUP3 DUP3 PUSH2 0x3C67 JUMP JUMPDEST POP POP JUMP JUMPDEST PUSH0 PUSH2 0x1AC4 DUP3 PUSH2 0x3D61 JUMP JUMPDEST PUSH0 ADD MLOAD SWAP1 POP SWAP2 SWAP1 POP JUMP JUMPDEST PUSH0 PUSH1 0xC DUP1 SLOAD SWAP1 POP SWAP1 POP SWAP1 JUMP JUMPDEST PUSH1 0x1C SLOAD DUP2 JUMP JUMPDEST PUSH2 0x1AE8 PUSH2 0x3FD9 JUMP JUMPDEST PUSH2 0x1B1E JUMPI PUSH1 0x40 MLOAD PUSH32 0x7260843C00000000000000000000000000000000000000000000000000000000 DUP2 MSTORE PUSH1 0x4 ADD PUSH1 0x40 MLOAD DUP1 SWAP2 SUB SWAP1 REVERT JUMPDEST PUSH2 0x1B27 DUP2 PUSH2 0x4015 JUMP JUMPDEST POP JUMP JUMPDEST PUSH0 PUSH0 PUSH20 0xFFFFFFFFFFFFFFFFFFFFFFFFFFFFFFFFFFFFFFFF AND DUP3 PUSH20 0xFFFFFFFFFFFFFFFFFFFFFFFFFFFFFFFFFFFFFFFF AND SUB PUSH2 0x1B90 JUMPI PUSH1 0x40 MLOAD PUSH32 0x8F4EB60400000000000000000000000000000000000000000000000000000000 DUP2 MSTORE PUSH1 0x4 ADD PUSH1 0x40 MLOAD DUP1 SWAP2 SUB SWAP1 REVERT JUMPDEST PUSH1 0x5 PUSH0 DUP4 PUSH20 0xFFFFFFFFFFFFFFFFFFFFFFFFFFFFFFFFFFFFFFFF AND PUSH20 0xFFFFFFFFFFFFFFFFFFFFFFFFFFFFFFFFFFFFFFFF AND DUP2 MSTORE PUSH1 0x20 ADD SWAP1 DUP2 MSTORE PUSH1 0x20 ADD PUSH0 KECCAK256 PUSH0 ADD PUSH0 SWAP1 SLOAD SWAP1 PUSH2 0x100 EXP SWAP1 DIV PUSH8 0xFFFFFFFFFFFFFFFF AND PUSH8 0xFFFFFFFFFFFFFFFF AND SWAP1 POP SWAP2 SWAP1 POP JUMP JUMPDEST PUSH1 0xE PUSH1 0x20 MSTORE DUP1 PUSH0 MSTORE PUSH1 0x40 PUSH0 KECCAK256 PUSH0 SWAP2 POP SLOAD SWAP1 PUSH2 0x100 EXP SWAP1 DIV PUSH1 0xFF AND DUP2 JUMP JUMPDEST PUSH2 0x1C1F DUP7 DUP7 DUP7 DUP7 DUP7 DUP7 PUSH2 0x410B JUMP JUMPDEST PUSH0 PUSH1 0x1A SLOAD SWAP1 POP PUSH2 0x1C39 PUSH2 0x1C30 PUSH2 0x3856 JUMP JUMPDEST DUP8 DUP8 DUP8 DUP8 PUSH2 0x29F8 JUMP JUMPDEST POP DUP6 PUSH1 0x12 PUSH1 0x2 ADD PUSH0 DUP3 DUP3 SLOAD PUSH2 0x1C4E SWAP2 SWAP1 PUSH2 0x694B JUMP JUMPDEST SWAP3 POP POP DUP2 SWAP1 SSTORE POP DUP6 PUSH1 0x1B PUSH0 DUP4 DUP2 MSTORE PUSH1 0x20 ADD SWAP1 DUP2 MSTORE PUSH1 0x20 ADD PUSH0 KECCAK256 PUSH0 PUSH2 0x1C70 PUSH2 0x3856 JUMP JUMPDEST PUSH20 0xFFFFFFFFFFFFFFFFFFFFFFFFFFFFFFFFFFFFFFFF AND PUSH20 0xFFFFFFFFFFFFFFFFFFFFFFFFFFFFFFFFFFFFFFFF AND DUP2 MSTORE PUSH1 0x20 ADD SWAP1 DUP2 MSTORE PUSH1 0x20 ADD PUSH0 KECCAK256 PUSH0 DUP3 DUP3 SLOAD PUSH2 0x1CB7 SWAP2 SWAP1 PUSH2 0x694B JUMP JUMPDEST SWAP3 POP POP DUP2 SWAP1 SSTORE POP PUSH2 0x1CCA PUSH0 DUP8 DUP8 DUP8 PUSH2 0x4164 JUMP JUMPDEST PUSH0 PUSH2 0x1CD5 DUP9 DUP9 PUSH2 0x42B4 JUMP JUMPDEST SWAP1 POP DUP1 DUP9 PUSH20 0xFFFFFFFFFFFFFFFFFFFFFFFFFFFFFFFFFFFFFFFF AND PUSH2 0x1CF7 PUSH2 0x3856 JUMP JUMPDEST PUSH20 0xFFFFFFFFFFFFFFFFFFFFFFFFFFFFFFFFFFFFFFFF AND PUSH32 0xFF097C7D8B1957A4FF09EF1361B5FB54DCEDE3941BA836D0BEB9D10BEC725DE6 DUP11 PUSH1 0x40 MLOAD PUSH2 0x1D3C SWAP2 SWAP1 PUSH2 0x5B36 JUMP JUMPDEST PUSH1 0x40 MLOAD DUP1 SWAP2 SUB SWAP1 LOG4 PUSH2 0x1D52 DUP9 DUP9 DUP9 DUP9 DUP9 DUP9 PUSH2 0x42C9 JUMP JUMPDEST POP POP POP POP POP POP POP POP JUMP JUMPDEST PUSH0 PUSH1 0x9 PUSH0 SWAP1 SLOAD SWAP1 PUSH2 0x100 EXP SWAP1 DIV PUSH20 0xFFFFFFFFFFFFFFFFFFFFFFFFFFFFFFFFFFFFFFFF AND SWAP1 POP SWAP1 JUMP JUMPDEST PUSH1 0xA DUP2 JUMP JUMPDEST PUSH2 0x1D91 PUSH2 0x42D1 JUMP JUMPDEST PUSH2 0x1DC7 JUMPI PUSH1 0x40 MLOAD PUSH32 0x9F7F092500000000000000000000000000000000000000000000000000000000 DUP2 MSTORE PUSH1 0x4 ADD PUSH1 0x40 MLOAD DUP1 SWAP2 SUB SWAP1 REVERT JUMPDEST PUSH2 0x1DD0 DUP2 PUSH2 0x430D JUMP JUMPDEST POP JUMP JUMPDEST PUSH1 0x60 PUSH1 0x3 DUP1 SLOAD PUSH2 0x1DE2 SWAP1 PUSH2 0x67BB JUMP JUMPDEST DUP1 PUSH1 0x1F ADD PUSH1 0x20 DUP1 SWAP2 DIV MUL PUSH1 0x20 ADD PUSH1 0x40 MLOAD SWAP1 DUP2 ADD PUSH1 0x40 MSTORE DUP1 SWAP3 SWAP2 SWAP1 DUP2 DUP2 MSTORE PUSH1 0x20 ADD DUP3 DUP1 SLOAD PUSH2 0x1E0E SWAP1 PUSH2 0x67BB JUMP JUMPDEST DUP1 ISZERO PUSH2 0x1E59 JUMPI DUP1 PUSH1 0x1F LT PUSH2 0x1E30 JUMPI PUSH2 0x100 DUP1 DUP4 SLOAD DIV MUL DUP4 MSTORE SWAP2 PUSH1 0x20 ADD SWAP2 PUSH2 0x1E59 JUMP JUMPDEST DUP3 ADD SWAP2 SWAP1 PUSH0 MSTORE PUSH1 0x20 PUSH0 KECCAK256 SWAP1 JUMPDEST DUP2 SLOAD DUP2 MSTORE SWAP1 PUSH1 0x1 ADD SWAP1 PUSH1 0x20 ADD DUP1 DUP4 GT PUSH2 0x1E3C JUMPI DUP3 SWAP1 SUB PUSH1 0x1F AND DUP3 ADD SWAP2 JUMPDEST POP POP POP POP POP SWAP1 POP SWAP1 JUMP JUMPDEST PUSH2 0x1E6B PUSH2 0x3C2B JUMP JUMPDEST PUSH2 0x1EA1 JUMPI PUSH1 0x40 MLOAD PUSH32 0xDF5C6B0200000000000000000000000000000000000000000000000000000000 DUP2 MSTORE PUSH1 0x4 ADD PUSH1 0x40 MLOAD DUP1 SWAP2 SUB SWAP1 REVERT JUMPDEST PUSH2 0x1EAC DUP4 DUP4 DUP4 PUSH2 0x43E6 JUMP JUMPDEST POP POP POP JUMP JUMPDEST PUSH1 0x60 PUSH0 PUSH1 0x11 PUSH0 DUP7 DUP2 MSTORE PUSH1 0x20 ADD SWAP1 DUP2 MSTORE PUSH1 0x20 ADD PUSH0 KECCAK256 DUP1 SLOAD PUSH2 0x1ED0 SWAP1 PUSH2 0x67BB JUMP JUMPDEST DUP1 PUSH1 0x1F ADD PUSH1 0x20 DUP1 SWAP2 DIV MUL PUSH1 0x20 ADD PUSH1 0x40 MLOAD SWAP1 DUP2 ADD PUSH1 0x40 MSTORE DUP1 SWAP3 SWAP2 SWAP1 DUP2 DUP2 MSTORE PUSH1 0x20 ADD DUP3 DUP1 SLOAD PUSH2 0x1EFC SWAP1 PUSH2 0x67BB JUMP JUMPDEST DUP1 ISZERO PUSH2 0x1F47 JUMPI DUP1 PUSH1 0x1F LT PUSH2 0x1F1E JUMPI PUSH2 0x100 DUP1 DUP4 SLOAD DIV MUL DUP4 MSTORE SWAP2 PUSH1 0x20 ADD SWAP2 PUSH2 0x1F47 JUMP JUMPDEST DUP3 ADD SWAP2 SWAP1 PUSH0 MSTORE PUSH1 0x20 PUSH0 KECCAK256 SWAP1 JUMPDEST DUP2 SLOAD DUP2 MSTORE SWAP1 PUSH1 0x1 ADD SWAP1 PUSH1 0x20 ADD DUP1 DUP4 GT PUSH2 0x1F2A JUMPI DUP3 SWAP1 SUB PUSH1 0x1F AND DUP3 ADD SWAP2 JUMPDEST POP POP POP POP POP SWAP1 POP PUSH0 DUP2 MLOAD SUB PUSH2 0x1F88 JUMPI PUSH1 0x40 MLOAD PUSH32 0x5D0580B300000000000000000000000000000000000000000000000000000000 DUP2 MSTORE PUSH1 0x4 ADD PUSH1 0x40 MLOAD DUP1 SWAP2 SUB SWAP1 REVERT JUMPDEST PUSH0 PUSH0 DUP3 DUP1 PUSH1 0x20 ADD SWAP1 MLOAD DUP2 ADD SWAP1 PUSH2 0x1F9E SWAP2 SWAP1 PUSH2 0x71B4 JUMP JUMPDEST SWAP2 POP SWAP2 POP PUSH2 0x1FAD DUP3 DUP8 DUP8 PUSH2 0x2855 JUMP JUMPDEST SWAP4 POP DUP1 DUP5 DUP8 DUP8 CHAINID PUSH1 0x40 MLOAD PUSH1 0x20 ADD PUSH2 0x1FC7 SWAP5 SWAP4 SWAP3 SWAP2 SWAP1 PUSH2 0x7276 JUMP JUMPDEST PUSH1 0x40 MLOAD PUSH1 0x20 DUP2 DUP4 SUB SUB DUP2 MSTORE SWAP1 PUSH1 0x40 MSTORE DUP1 MLOAD SWAP1 PUSH1 0x20 ADD KECCAK256 EQ PUSH2 0x204D JUMPI DUP1 DUP5 DUP8 DUP8 CHAINID PUSH1 0x40 MLOAD PUSH1 0x20 ADD PUSH2 0x1FFA SWAP5 SWAP4 SWAP3 SWAP2 SWAP1 PUSH2 0x7276 JUMP JUMPDEST PUSH1 0x40 MLOAD PUSH1 0x20 DUP2 DUP4 SUB SUB DUP2 MSTORE SWAP1 PUSH1 0x40 MSTORE DUP1 MLOAD SWAP1 PUSH1 0x20 ADD KECCAK256 PUSH1 0x40 MLOAD PUSH32 0xCD915D3C00000000000000000000000000000000000000000000000000000000 DUP2 MSTORE PUSH1 0x4 ADD PUSH2 0x2044 SWAP3 SWAP2 SWAP1 PUSH2 0x72AC JUMP JUMPDEST PUSH1 0x40 MLOAD DUP1 SWAP2 SUB SWAP1 REVERT JUMPDEST POP POP POP SWAP4 SWAP3 POP POP POP JUMP JUMPDEST PUSH1 0x11 PUSH1 0x20 MSTORE DUP1 PUSH0 MSTORE PUSH1 0x40 PUSH0 KECCAK256 PUSH0 SWAP2 POP SWAP1 POP DUP1 SLOAD PUSH2 0x2073 SWAP1 PUSH2 0x67BB JUMP JUMPDEST DUP1 PUSH1 0x1F ADD PUSH1 0x20 DUP1 SWAP2 DIV MUL PUSH1 0x20 ADD PUSH1 0x40 MLOAD SWAP1 DUP2 ADD PUSH1 0x40 MSTORE DUP1 SWAP3 SWAP2 SWAP1 DUP2 DUP2 MSTORE PUSH1 0x20 ADD DUP3 DUP1 SLOAD PUSH2 0x209F SWAP1 PUSH2 0x67BB JUMP JUMPDEST DUP1 ISZERO PUSH2 0x20EA JUMPI DUP1 PUSH1 0x1F LT PUSH2 0x20C1 JUMPI PUSH2 0x100 DUP1 DUP4 SLOAD DIV MUL DUP4 MSTORE SWAP2 PUSH1 0x20 ADD SWAP2 PUSH2 0x20EA JUMP JUMPDEST DUP3 ADD SWAP2 SWAP1 PUSH0 MSTORE PUSH1 0x20 PUSH0 KECCAK256 SWAP1 JUMPDEST DUP2 SLOAD DUP2 MSTORE SWAP1 PUSH1 0x1 ADD SWAP1 PUSH1 0x20 ADD DUP1 DUP4 GT PUSH2 0x20CD JUMPI DUP3 SWAP1 SUB PUSH1 0x1F AND DUP3 ADD SWAP2 JUMPDEST POP POP POP POP POP DUP2 JUMP JUMPDEST PUSH2 0x20FA PUSH2 0x2F05 JUMP JUMPDEST PUSH20 0xFFFFFFFFFFFFFFFFFFFFFFFFFFFFFFFFFFFFFFFF AND DUP3 PUSH20 0xFFFFFFFFFFFFFFFFFFFFFFFFFFFFFFFFFFFFFFFF AND SUB PUSH2 0x215E JUMPI PUSH1 0x40 MLOAD PUSH32 0xB06307DB00000000000000000000000000000000000000000000000000000000 DUP2 MSTORE PUSH1 0x4 ADD PUSH1 0x40 MLOAD DUP1 SWAP2 SUB SWAP1 REVERT JUMPDEST DUP1 PUSH1 0x7 PUSH0 PUSH2 0x216A PUSH2 0x2F05 JUMP JUMPDEST PUSH20 0xFFFFFFFFFFFFFFFFFFFFFFFFFFFFFFFFFFFFFFFF AND PUSH20 0xFFFFFFFFFFFFFFFFFFFFFFFFFFFFFFFFFFFFFFFF AND DUP2 MSTORE PUSH1 0x20 ADD SWAP1 DUP2 MSTORE PUSH1 0x20 ADD PUSH0 KECCAK256 PUSH0 DUP5 PUSH20 0xFFFFFFFFFFFFFFFFFFFFFFFFFFFFFFFFFFFFFFFF AND PUSH20 0xFFFFFFFFFFFFFFFFFFFFFFFFFFFFFFFFFFFFFFFF AND DUP2 MSTORE PUSH1 0x20 ADD SWAP1 DUP2 MSTORE PUSH1 0x20 ADD PUSH0 KECCAK256 PUSH0 PUSH2 0x100 EXP DUP2 SLOAD DUP2 PUSH1 0xFF MUL NOT AND SWAP1 DUP4 ISZERO ISZERO MUL OR SWAP1 SSTORE POP DUP2 PUSH20 0xFFFFFFFFFFFFFFFFFFFFFFFFFFFFFFFFFFFFFFFF AND PUSH2 0x2213 PUSH2 0x2F05 JUMP JUMPDEST PUSH20 0xFFFFFFFFFFFFFFFFFFFFFFFFFFFFFFFFFFFFFFFF AND PUSH32 0x17307EAB39AB6107E8899845AD3D59BD9653F200F220920489CA2B5937696C31 DUP4 PUSH1 0x40 MLOAD PUSH2 0x2258 SWAP2 SWAP1 PUSH2 0x5A1D JUMP JUMPDEST PUSH1 0x40 MLOAD DUP1 SWAP2 SUB SWAP1 LOG3 POP POP JUMP JUMPDEST PUSH1 0x1F SLOAD DUP2 JUMP JUMPDEST PUSH1 0x60 DUP3 DUP3 SWAP1 POP PUSH8 0xFFFFFFFFFFFFFFFF DUP2 GT ISZERO PUSH2 0x2289 JUMPI PUSH2 0x2288 PUSH2 0x5DDE JUMP JUMPDEST JUMPDEST PUSH1 0x40 MLOAD SWAP1 DUP1 DUP3 MSTORE DUP1 PUSH1 0x20 MUL PUSH1 0x20 ADD DUP3 ADD PUSH1 0x40 MSTORE DUP1 ISZERO PUSH2 0x22BC JUMPI DUP2 PUSH1 0x20 ADD JUMPDEST PUSH1 0x60 DUP2 MSTORE PUSH1 0x20 ADD SWAP1 PUSH1 0x1 SWAP1 SUB SWAP1 DUP2 PUSH2 0x22A7 JUMPI SWAP1 POP JUMPDEST POP SWAP1 POP PUSH0 PUSH2 0x22C8 PUSH2 0x2F05 JUMP JUMPDEST SWAP1 POP PUSH0 DUP2 PUSH20 0xFFFFFFFFFFFFFFFFFFFFFFFFFFFFFFFFFFFFFFFF AND CALLER PUSH20 0xFFFFFFFFFFFFFFFFFFFFFFFFFFFFFFFFFFFFFFFF AND EQ ISZERO SWAP1 POP PUSH0 PUSH0 SWAP1 POP JUMPDEST DUP6 DUP6 SWAP1 POP DUP2 LT ISZERO PUSH2 0x2422 JUMPI DUP2 ISZERO PUSH2 0x2386 JUMPI PUSH2 0x2363 ADDRESS DUP8 DUP8 DUP5 DUP2 DUP2 LT PUSH2 0x232A JUMPI PUSH2 0x2329 PUSH2 0x67EB JUMP JUMPDEST JUMPDEST SWAP1 POP PUSH1 0x20 MUL DUP2 ADD SWAP1 PUSH2 0x233C SWAP2 SWAP1 PUSH2 0x72D3 JUMP JUMPDEST DUP7 PUSH1 0x40 MLOAD PUSH1 0x20 ADD PUSH2 0x234F SWAP4 SWAP3 SWAP2 SWAP1 PUSH2 0x7335 JUMP JUMPDEST PUSH1 0x40 MLOAD PUSH1 0x20 DUP2 DUP4 SUB SUB DUP2 MSTORE SWAP1 PUSH1 0x40 MSTORE PUSH2 0x4512 JUMP JUMPDEST DUP5 DUP3 DUP2 MLOAD DUP2 LT PUSH2 0x2376 JUMPI PUSH2 0x2375 PUSH2 0x67EB JUMP JUMPDEST JUMPDEST PUSH1 0x20 MUL PUSH1 0x20 ADD ADD DUP2 SWAP1 MSTORE POP PUSH2 0x2415 JUMP JUMPDEST PUSH2 0x23F6 ADDRESS DUP8 DUP8 DUP5 DUP2 DUP2 LT PUSH2 0x239D JUMPI PUSH2 0x239C PUSH2 0x67EB JUMP JUMPDEST JUMPDEST SWAP1 POP PUSH1 0x20 MUL DUP2 ADD SWAP1 PUSH2 0x23AF SWAP2 SWAP1 PUSH2 0x72D3 JUMP JUMPDEST DUP1 DUP1 PUSH1 0x1F ADD PUSH1 0x20 DUP1 SWAP2 DIV MUL PUSH1 0x20 ADD PUSH1 0x40 MLOAD SWAP1 DUP2 ADD PUSH1 0x40 MSTORE DUP1 SWAP4 SWAP3 SWAP2 SWAP1 DUP2 DUP2 MSTORE PUSH1 0x20 ADD DUP4 DUP4 DUP1 DUP3 DUP5 CALLDATACOPY PUSH0 DUP2 DUP5 ADD MSTORE PUSH1 0x1F NOT PUSH1 0x1F DUP3 ADD AND SWAP1 POP DUP1 DUP4 ADD SWAP3 POP POP POP POP POP POP POP PUSH2 0x4512 JUMP JUMPDEST DUP5 DUP3 DUP2 MLOAD DUP2 LT PUSH2 0x2409 JUMPI PUSH2 0x2408 PUSH2 0x67EB JUMP JUMPDEST JUMPDEST PUSH1 0x20 MUL PUSH1 0x20 ADD ADD DUP2 SWAP1 MSTORE POP JUMPDEST DUP1 DUP1 PUSH1 0x1 ADD SWAP2 POP POP PUSH2 0x2302 JUMP JUMPDEST POP POP POP SWAP3 SWAP2 POP POP JUMP JUMPDEST PUSH0 PUSH0 SLOAD SWAP1 POP SWAP1 JUMP JUMPDEST PUSH0 PUSH0 PUSH1 0xA PUSH0 SWAP1 SLOAD SWAP1 PUSH2 0x100 EXP SWAP1 DIV PUSH20 0xFFFFFFFFFFFFFFFFFFFFFFFFFFFFFFFFFFFFFFFF AND PUSH1 0xA PUSH1 0x14 SWAP1 SLOAD SWAP1 PUSH2 0x100 EXP SWAP1 DIV PUSH2 0xFFFF AND SWAP2 POP SWAP2 POP SWAP1 SWAP2 JUMP JUMPDEST PUSH2 0x247B DUP5 DUP5 DUP5 PUSH2 0x30C1 JUMP JUMPDEST PUSH2 0x249A DUP4 PUSH20 0xFFFFFFFFFFFFFFFFFFFFFFFFFFFFFFFFFFFFFFFF AND PUSH2 0x453F JUMP JUMPDEST ISZERO PUSH2 0x24E2 JUMPI PUSH2 0x24AB DUP5 DUP5 DUP5 DUP5 PUSH2 0x4561 JUMP JUMPDEST PUSH2 0x24E1 JUMPI PUSH1 0x40 MLOAD PUSH32 0xD1A57ED600000000000000000000000000000000000000000000000000000000 DUP2 MSTORE PUSH1 0x4 ADD PUSH1 0x40 MLOAD DUP1 SWAP2 SUB SWAP1 REVERT JUMPDEST JUMPDEST POP POP POP POP JUMP JUMPDEST PUSH1 0x60 PUSH0 PUSH2 0x24F4 DUP4 PUSH2 0x46AC JUMP JUMPDEST POP SWAP1 POP PUSH0 PUSH2 0x2501 DUP5 PUSH2 0x47B9 JUMP JUMPDEST SWAP1 POP PUSH2 0x250C DUP3 PUSH2 0x17BD JUMP JUMPDEST ISZERO PUSH2 0x253A JUMPI DUP1 PUSH1 0x40 MLOAD PUSH1 0x20 ADD PUSH2 0x2522 SWAP2 SWAP1 PUSH2 0x73A8 JUMP JUMPDEST PUSH1 0x40 MLOAD PUSH1 0x20 DUP2 DUP4 SUB SUB DUP2 MSTORE SWAP1 PUSH1 0x40 MSTORE SWAP3 POP POP POP PUSH2 0x2569 JUMP JUMPDEST DUP1 PUSH2 0x2544 DUP6 PUSH2 0x495A JUMP JUMPDEST PUSH1 0x40 MLOAD PUSH1 0x20 ADD PUSH2 0x2555 SWAP3 SWAP2 SWAP1 PUSH2 0x73C9 JUMP JUMPDEST PUSH1 0x40 MLOAD PUSH1 0x20 DUP2 DUP4 SUB SUB DUP2 MSTORE SWAP1 PUSH1 0x40 MSTORE SWAP3 POP POP POP JUMPDEST SWAP2 SWAP1 POP JUMP JUMPDEST PUSH1 0x60 PUSH2 0x2578 PUSH2 0x4AB3 JUMP JUMPDEST PUSH2 0x25B7 JUMPI PUSH1 0x40 MLOAD PUSH32 0x8C379A000000000000000000000000000000000000000000000000000000000 DUP2 MSTORE PUSH1 0x4 ADD PUSH2 0x25AE SWAP1 PUSH2 0x7436 JUMP JUMPDEST PUSH1 0x40 MLOAD DUP1 SWAP2 SUB SWAP1 REVERT JUMPDEST PUSH0 PUSH2 0x25C1 DUP6 PUSH2 0x1188 JUMP JUMPDEST SWAP1 POP PUSH2 0x25CE DUP2 DUP6 DUP6 PUSH2 0x1EB1 JUMP JUMPDEST SWAP2 POP PUSH2 0x25E8 DUP2 PUSH1 0x40 MLOAD DUP1 PUSH1 0x20 ADD PUSH1 0x40 MSTORE DUP1 PUSH0 DUP2 MSTORE POP PUSH2 0x4AEF JUMP JUMPDEST PUSH2 0x25F2 DUP2 DUP4 PUSH2 0x4B12 JUMP JUMPDEST DUP5 PUSH32 0x6DF1D8DB2A036436FFE0B2D1833F2C5F1E624818DFCE2578C0FAA4B83EF9998D DUP4 PUSH1 0x40 MLOAD PUSH2 0x2622 SWAP2 SWAP1 PUSH2 0x5AA6 JUMP JUMPDEST PUSH1 0x40 MLOAD DUP1 SWAP2 SUB SWAP1 LOG2 POP SWAP4 SWAP3 POP POP POP JUMP JUMPDEST PUSH0 PUSH0 DUP4 DUP4 SWAP1 POP GT ISZERO PUSH2 0x26C7 JUMPI PUSH0 PUSH0 DUP5 DUP5 DUP2 ADD SWAP1 PUSH2 0x264F SWAP2 SWAP1 PUSH2 0x7454 JUMP JUMPDEST SWAP2 POP SWAP2 POP PUSH0 DUP3 MLOAD EQ ISZERO DUP1 ISZERO PUSH2 0x2664 JUMPI POP PUSH0 DUP2 EQ ISZERO JUMPDEST ISZERO PUSH2 0x26C4 JUMPI PUSH2 0x26C3 DUP9 PUSH1 0x10 SLOAD PUSH2 0x267A SWAP2 SWAP1 PUSH2 0x694B JUMP JUMPDEST DUP7 DUP7 DUP1 DUP1 PUSH1 0x1F ADD PUSH1 0x20 DUP1 SWAP2 DIV MUL PUSH1 0x20 ADD PUSH1 0x40 MLOAD SWAP1 DUP2 ADD PUSH1 0x40 MSTORE DUP1 SWAP4 SWAP3 SWAP2 SWAP1 DUP2 DUP2 MSTORE PUSH1 0x20 ADD DUP4 DUP4 DUP1 DUP3 DUP5 CALLDATACOPY PUSH0 DUP2 DUP5 ADD MSTORE PUSH1 0x1F NOT PUSH1 0x1F DUP3 ADD AND SWAP1 POP DUP1 DUP4 ADD SWAP3 POP POP POP POP POP POP POP PUSH2 0x4AEF JUMP JUMPDEST JUMPDEST POP POP JUMPDEST PUSH2 0x26D4 DUP7 DUP7 DUP7 DUP7 DUP7 PUSH2 0x4BD6 JUMP JUMPDEST SWAP1 POP SWAP6 SWAP5 POP POP POP POP POP JUMP JUMPDEST PUSH1 0x12 DUP1 PUSH0 ADD SLOAD SWAP1 DUP1 PUSH1 0x1 ADD SLOAD SWAP1 DUP1 PUSH1 0x2 ADD SLOAD SWAP1 DUP1 PUSH1 0x3 ADD SLOAD SWAP1 DUP1 PUSH1 0x4 ADD SLOAD SWAP1 DUP1 PUSH1 0x5 ADD SLOAD SWAP1 DUP1 PUSH1 0x6 ADD PUSH0 SWAP1 SLOAD SWAP1 PUSH2 0x100 EXP SWAP1 DIV PUSH20 0xFFFFFFFFFFFFFFFFFFFFFFFFFFFFFFFFFFFFFFFF AND SWAP1 DUP1 PUSH1 0x7 ADD DUP1 SLOAD PUSH2 0x2738 SWAP1 PUSH2 0x67BB JUMP JUMPDEST DUP1 PUSH1 0x1F ADD PUSH1 0x20 DUP1 SWAP2 DIV MUL PUSH1 0x20 ADD PUSH1 0x40 MLOAD SWAP1 DUP2 ADD PUSH1 0x40 MSTORE DUP1 SWAP3 SWAP2 SWAP1 DUP2 DUP2 MSTORE PUSH1 0x20 ADD DUP3 DUP1 SLOAD PUSH2 0x2764 SWAP1 PUSH2 0x67BB JUMP JUMPDEST DUP1 ISZERO PUSH2 0x27AF JUMPI DUP1 PUSH1 0x1F LT PUSH2 0x2786 JUMPI PUSH2 0x100 DUP1 DUP4 SLOAD DIV MUL DUP4 MSTORE SWAP2 PUSH1 0x20 ADD SWAP2 PUSH2 0x27AF JUMP JUMPDEST DUP3 ADD SWAP2 SWAP1 PUSH0 MSTORE PUSH1 0x20 PUSH0 KECCAK256 SWAP1 JUMPDEST DUP2 SLOAD DUP2 MSTORE SWAP1 PUSH1 0x1 ADD SWAP1 PUSH1 0x20 ADD DUP1 DUP4 GT PUSH2 0x2792 JUMPI DUP3 SWAP1 SUB PUSH1 0x1F AND DUP3 ADD SWAP2 JUMPDEST POP POP POP POP POP SWAP1 POP DUP9 JUMP JUMPDEST PUSH1 0x1E SLOAD DUP2 JUMP JUMPDEST PUSH1 0x20 SLOAD DUP2 JUMP JUMPDEST PUSH1 0x9 PUSH0 SWAP1 SLOAD SWAP1 PUSH2 0x100 EXP SWAP1 DIV PUSH20 0xFFFFFFFFFFFFFFFFFFFFFFFFFFFFFFFFFFFFFFFF AND PUSH20 0xFFFFFFFFFFFFFFFFFFFFFFFFFFFFFFFFFFFFFFFF AND CALLER PUSH20 0xFFFFFFFFFFFFFFFFFFFFFFFFFFFFFFFFFFFFFFFF AND EQ PUSH2 0x284B JUMPI PUSH1 0x40 MLOAD PUSH32 0x2D99739600000000000000000000000000000000000000000000000000000000 DUP2 MSTORE PUSH1 0x4 ADD PUSH1 0x40 MLOAD DUP1 SWAP2 SUB SWAP1 REVERT JUMPDEST DUP1 PUSH1 0x1D DUP2 SWAP1 SSTORE POP POP JUMP JUMPDEST PUSH1 0x60 PUSH0 DUP5 MLOAD SWAP1 POP PUSH1 0x40 MLOAD SWAP2 POP PUSH1 0x20 DUP2 DUP4 ADD ADD PUSH1 0x40 MSTORE DUP1 DUP3 MSTORE PUSH0 PUSH0 SWAP1 POP JUMPDEST DUP2 DUP2 LT ISZERO PUSH2 0x28D5 JUMPI PUSH0 DUP6 DUP6 DUP4 PUSH1 0x40 MLOAD PUSH1 0x20 ADD PUSH2 0x2890 SWAP4 SWAP3 SWAP2 SWAP1 PUSH2 0x74AE JUMP JUMPDEST PUSH1 0x40 MLOAD PUSH1 0x20 DUP2 DUP4 SUB SUB DUP2 MSTORE SWAP1 PUSH1 0x40 MSTORE DUP1 MLOAD SWAP1 PUSH1 0x20 ADD KECCAK256 SWAP1 POP PUSH0 PUSH1 0x20 DUP4 ADD DUP9 ADD MLOAD SWAP1 POP DUP2 DUP2 XOR SWAP1 POP DUP1 PUSH1 0x20 DUP5 ADD DUP7 ADD MSTORE POP POP PUSH1 0x20 DUP2 PUSH2 0x28CE SWAP2 SWAP1 PUSH2 0x694B JUMP JUMPDEST SWAP1 POP PUSH2 0x2872 JUMP JUMPDEST POP POP SWAP4 SWAP3 POP POP POP JUMP JUMPDEST PUSH1 0x8 DUP1 SLOAD PUSH2 0x28EB SWAP1 PUSH2 0x67BB JUMP JUMPDEST DUP1 PUSH1 0x1F ADD PUSH1 0x20 DUP1 SWAP2 DIV MUL PUSH1 0x20 ADD PUSH1 0x40 MLOAD SWAP1 DUP2 ADD PUSH1 0x40 MSTORE DUP1 SWAP3 SWAP2 SWAP1 DUP2 DUP2 MSTORE PUSH1 0x20 ADD DUP3 DUP1 SLOAD PUSH2 0x2917 SWAP1 PUSH2 0x67BB JUMP JUMPDEST DUP1 ISZERO PUSH2 0x2962 JUMPI DUP1 PUSH1 0x1F LT PUSH2 0x2939 JUMPI PUSH2 0x100 DUP1 DUP4 SLOAD DIV MUL DUP4 MSTORE SWAP2 PUSH1 0x20 ADD SWAP2 PUSH2 0x2962 JUMP JUMPDEST DUP3 ADD SWAP2 SWAP1 PUSH0 MSTORE PUSH1 0x20 PUSH0 KECCAK256 SWAP1 JUMPDEST DUP2 SLOAD DUP2 MSTORE SWAP1 PUSH1 0x1 ADD SWAP1 PUSH1 0x20 ADD DUP1 DUP4 GT PUSH2 0x2945 JUMPI DUP3 SWAP1 SUB PUSH1 0x1F AND DUP3 ADD SWAP2 JUMPDEST POP POP POP POP POP DUP2 JUMP JUMPDEST PUSH0 PUSH1 0x7 PUSH0 DUP5 PUSH20 0xFFFFFFFFFFFFFFFFFFFFFFFFFFFFFFFFFFFFFFFF AND PUSH20 0xFFFFFFFFFFFFFFFFFFFFFFFFFFFFFFFFFFFFFFFF AND DUP2 MSTORE PUSH1 0x20 ADD SWAP1 DUP2 MSTORE PUSH1 0x20 ADD PUSH0 KECCAK256 PUSH0 DUP4 PUSH20 0xFFFFFFFFFFFFFFFFFFFFFFFFFFFFFFFFFFFFFFFF AND PUSH20 0xFFFFFFFFFFFFFFFFFFFFFFFFFFFFFFFFFFFFFFFF AND DUP2 MSTORE PUSH1 0x20 ADD SWAP1 DUP2 MSTORE PUSH1 0x20 ADD PUSH0 KECCAK256 PUSH0 SWAP1 SLOAD SWAP1 PUSH2 0x100 EXP SWAP1 DIV PUSH1 0xFF AND SWAP1 POP SWAP3 SWAP2 POP POP JUMP JUMPDEST PUSH0 PUSH0 PUSH1 0x12 PUSH1 0x40 MLOAD DUP1 PUSH2 0x100 ADD PUSH1 0x40 MSTORE SWAP1 DUP2 PUSH0 DUP3 ADD SLOAD DUP2 MSTORE PUSH1 0x20 ADD PUSH1 0x1 DUP3 ADD SLOAD DUP2 MSTORE PUSH1 0x20 ADD PUSH1 0x2 DUP3 ADD SLOAD DUP2 MSTORE PUSH1 0x20 ADD PUSH1 0x3 DUP3 ADD SLOAD DUP2 MSTORE PUSH1 0x20 ADD PUSH1 0x4 DUP3 ADD SLOAD DUP2 MSTORE PUSH1 0x20 ADD PUSH1 0x5 DUP3 ADD SLOAD DUP2 MSTORE PUSH1 0x20 ADD PUSH1 0x6 DUP3 ADD PUSH0 SWAP1 SLOAD SWAP1 PUSH2 0x100 EXP SWAP1 DIV PUSH20 0xFFFFFFFFFFFFFFFFFFFFFFFFFFFFFFFFFFFFFFFF AND PUSH20 0xFFFFFFFFFFFFFFFFFFFFFFFFFFFFFFFFFFFFFFFF AND PUSH20 0xFFFFFFFFFFFFFFFFFFFFFFFFFFFFFFFFFFFFFFFF AND DUP2 MSTORE PUSH1 0x20 ADD PUSH1 0x7 DUP3 ADD DUP1 SLOAD PUSH2 0x2AA8 SWAP1 PUSH2 0x67BB JUMP JUMPDEST DUP1 PUSH1 0x1F ADD PUSH1 0x20 DUP1 SWAP2 DIV MUL PUSH1 0x20 ADD PUSH1 0x40 MLOAD SWAP1 DUP2 ADD PUSH1 0x40 MSTORE DUP1 SWAP3 SWAP2 SWAP1 DUP2 DUP2 MSTORE PUSH1 0x20 ADD DUP3 DUP1 SLOAD PUSH2 0x2AD4 SWAP1 PUSH2 0x67BB JUMP JUMPDEST DUP1 ISZERO PUSH2 0x2B1F JUMPI DUP1 PUSH1 0x1F LT PUSH2 0x2AF6 JUMPI PUSH2 0x100 DUP1 DUP4 SLOAD DIV MUL DUP4 MSTORE SWAP2 PUSH1 0x20 ADD SWAP2 PUSH2 0x2B1F JUMP JUMPDEST DUP3 ADD SWAP2 SWAP1 PUSH0 MSTORE PUSH1 0x20 PUSH0 KECCAK256 SWAP1 JUMPDEST DUP2 SLOAD DUP2 MSTORE SWAP1 PUSH1 0x1 ADD SWAP1 PUSH1 0x20 ADD DUP1 DUP4 GT PUSH2 0x2B02 JUMPI DUP3 SWAP1 SUB PUSH1 0x1F AND DUP3 ADD SWAP2 JUMPDEST POP POP POP POP POP DUP2 MSTORE POP POP SWAP1 POP PUSH0 DUP2 PUSH1 0x60 ADD MLOAD SWAP1 POP PUSH0 DUP3 PUSH1 0xA0 ADD MLOAD SWAP1 POP PUSH0 DUP4 PUSH1 0xC0 ADD MLOAD SWAP1 POP PUSH0 PUSH0 SHL DUP5 PUSH1 0x80 ADD MLOAD EQ PUSH2 0x2BB8 JUMPI PUSH2 0x2BB2 DUP7 DUP1 PUSH0 ADD SWAP1 PUSH2 0x2B61 SWAP2 SWAP1 PUSH2 0x74D7 JUMP JUMPDEST DUP7 PUSH1 0x80 ADD MLOAD DUP14 DUP11 PUSH1 0x20 ADD CALLDATALOAD DUP12 PUSH1 0x40 ADD CALLDATALOAD DUP13 PUSH1 0x60 ADD PUSH1 0x20 DUP2 ADD SWAP1 PUSH2 0x2B84 SWAP2 SWAP1 PUSH2 0x5C0C JUMP JUMPDEST PUSH1 0x40 MLOAD PUSH1 0x20 ADD PUSH2 0x2B97 SWAP5 SWAP4 SWAP3 SWAP2 SWAP1 PUSH2 0x7539 JUMP JUMPDEST PUSH1 0x40 MLOAD PUSH1 0x20 DUP2 DUP4 SUB SUB DUP2 MSTORE SWAP1 PUSH1 0x40 MSTORE DUP1 MLOAD SWAP1 PUSH1 0x20 ADD KECCAK256 PUSH2 0x4D10 JUMP JUMPDEST POP DUP1 SWAP6 POP POP JUMPDEST DUP5 ISZERO PUSH2 0x2CA3 JUMPI PUSH0 DUP7 PUSH1 0x20 ADD CALLDATALOAD SUB PUSH2 0x2BCF JUMPI DUP3 PUSH2 0x2BD5 JUMP JUMPDEST DUP6 PUSH1 0x20 ADD CALLDATALOAD JUMPDEST SWAP3 POP PUSH32 0xFFFFFFFFFFFFFFFFFFFFFFFFFFFFFFFFFFFFFFFFFFFFFFFFFFFFFFFFFFFFFFFF DUP7 PUSH1 0x40 ADD CALLDATALOAD SUB PUSH2 0x2C08 JUMPI DUP2 PUSH2 0x2C0E JUMP JUMPDEST DUP6 PUSH1 0x40 ADD CALLDATALOAD JUMPDEST SWAP2 POP PUSH32 0xFFFFFFFFFFFFFFFFFFFFFFFFFFFFFFFFFFFFFFFFFFFFFFFFFFFFFFFFFFFFFFFF DUP7 PUSH1 0x40 ADD CALLDATALOAD EQ ISZERO DUP1 ISZERO PUSH2 0x2C82 JUMPI POP PUSH0 PUSH20 0xFFFFFFFFFFFFFFFFFFFFFFFFFFFFFFFFFFFFFFFF AND DUP7 PUSH1 0x60 ADD PUSH1 0x20 DUP2 ADD SWAP1 PUSH2 0x2C69 SWAP2 SWAP1 PUSH2 0x5C0C JUMP JUMPDEST PUSH20 0xFFFFFFFFFFFFFFFFFFFFFFFFFFFFFFFFFFFFFFFF AND EQ ISZERO JUMPDEST PUSH2 0x2C8C JUMPI DUP1 PUSH2 0x2CA0 JUMP JUMPDEST DUP6 PUSH1 0x60 ADD PUSH1 0x20 DUP2 ADD SWAP1 PUSH2 0x2C9F SWAP2 SWAP1 PUSH2 0x5C0C JUMP JUMPDEST JUMPDEST SWAP1 POP JUMPDEST PUSH0 PUSH1 0x1B PUSH0 PUSH1 0x1A SLOAD DUP2 MSTORE PUSH1 0x20 ADD SWAP1 DUP2 MSTORE PUSH1 0x20 ADD PUSH0 KECCAK256 PUSH0 DUP13 PUSH20 0xFFFFFFFFFFFFFFFFFFFFFFFFFFFFFFFFFFFFFFFF AND PUSH20 0xFFFFFFFFFFFFFFFFFFFFFFFFFFFFFFFFFFFFFFFF AND DUP2 MSTORE PUSH1 0x20 ADD SWAP1 DUP2 MSTORE PUSH1 0x20 ADD PUSH0 KECCAK256 SLOAD SWAP1 POP DUP2 PUSH20 0xFFFFFFFFFFFFFFFFFFFFFFFFFFFFFFFFFFFFFFFF AND DUP10 PUSH20 0xFFFFFFFFFFFFFFFFFFFFFFFFFFFFFFFFFFFFFFFF AND EQ ISZERO DUP1 PUSH2 0x2D30 JUMPI POP DUP3 DUP9 EQ ISZERO JUMPDEST ISZERO PUSH2 0x2D78 JUMPI DUP9 DUP9 DUP4 DUP6 PUSH1 0x40 MLOAD PUSH32 0xF13474E900000000000000000000000000000000000000000000000000000000 DUP2 MSTORE PUSH1 0x4 ADD PUSH2 0x2D6F SWAP5 SWAP4 SWAP3 SWAP2 SWAP1 PUSH2 0x7586 JUMP JUMPDEST PUSH1 0x40 MLOAD DUP1 SWAP2 SUB SWAP1 REVERT JUMPDEST PUSH0 DUP11 EQ DUP1 PUSH2 0x2D90 JUMPI POP DUP4 DUP2 DUP12 PUSH2 0x2D8E SWAP2 SWAP1 PUSH2 0x694B JUMP JUMPDEST GT JUMPDEST ISZERO PUSH2 0x2DDF JUMPI DUP4 DUP2 DUP12 PUSH2 0x2DA2 SWAP2 SWAP1 PUSH2 0x694B JUMP JUMPDEST PUSH1 0x40 MLOAD PUSH32 0x9E7762DB00000000000000000000000000000000000000000000000000000000 DUP2 MSTORE PUSH1 0x4 ADD PUSH2 0x2DD6 SWAP3 SWAP2 SWAP1 PUSH2 0x75C9 JUMP JUMPDEST PUSH1 0x40 MLOAD DUP1 SWAP2 SUB SWAP1 REVERT JUMPDEST DUP5 PUSH1 0x20 ADD MLOAD DUP11 DUP7 PUSH1 0x40 ADD MLOAD PUSH2 0x2DF4 SWAP2 SWAP1 PUSH2 0x694B JUMP JUMPDEST GT ISZERO PUSH2 0x2E4C JUMPI DUP5 PUSH1 0x20 ADD MLOAD DUP11 DUP7 PUSH1 0x40 ADD MLOAD PUSH2 0x2E0F SWAP2 SWAP1 PUSH2 0x694B JUMP JUMPDEST PUSH1 0x40 MLOAD PUSH32 0xFE381CC900000000000000000000000000000000000000000000000000000000 DUP2 MSTORE PUSH1 0x4 ADD PUSH2 0x2E43 SWAP3 SWAP2 SWAP1 PUSH2 0x75C9 JUMP JUMPDEST PUSH1 0x40 MLOAD DUP1 SWAP2 SUB SWAP1 REVERT JUMPDEST TIMESTAMP DUP6 PUSH0 ADD MLOAD GT ISZERO PUSH2 0x2E99 JUMPI DUP5 PUSH0 ADD MLOAD TIMESTAMP PUSH1 0x40 MLOAD PUSH32 0x4562091E00000000000000000000000000000000000000000000000000000000 DUP2 MSTORE PUSH1 0x4 ADD PUSH2 0x2E90 SWAP3 SWAP2 SWAP1 PUSH2 0x75C9 JUMP JUMPDEST PUSH1 0x40 MLOAD DUP1 SWAP2 SUB SWAP1 REVERT JUMPDEST POP POP POP POP POP SWAP6 SWAP5 POP POP POP POP POP JUMP JUMPDEST PUSH1 0x23 PUSH1 0x20 MSTORE DUP1 PUSH0 MSTORE PUSH1 0x40 PUSH0 KECCAK256 PUSH0 SWAP2 POP SWAP1 POP SLOAD DUP2 JUMP JUMPDEST PUSH0 DUP2 PUSH2 0x2EC6 PUSH2 0x30BA JUMP JUMPDEST GT ISZERO DUP1 ISZERO PUSH2 0x2ED4 JUMPI POP PUSH0 SLOAD DUP3 LT JUMPDEST DUP1 ISZERO PUSH2 0x2EFE JUMPI POP PUSH1 0x4 PUSH0 DUP4 DUP2 MSTORE PUSH1 0x20 ADD SWAP1 DUP2 MSTORE PUSH1 0x20 ADD PUSH0 KECCAK256 PUSH0 ADD PUSH1 0x1C SWAP1 SLOAD SWAP1 PUSH2 0x100 EXP SWAP1 DIV PUSH1 0xFF AND ISZERO JUMPDEST SWAP1 POP SWAP2 SWAP1 POP JUMP JUMPDEST PUSH0 CALLER SWAP1 POP SWAP1 JUMP JUMPDEST DUP3 PUSH1 0x6 PUSH0 DUP5 DUP2 MSTORE PUSH1 0x20 ADD SWAP1 DUP2 MSTORE PUSH1 0x20 ADD PUSH0 KECCAK256 PUSH0 PUSH2 0x100 EXP DUP2 SLOAD DUP2 PUSH20 0xFFFFFFFFFFFFFFFFFFFFFFFFFFFFFFFFFFFFFFFF MUL NOT AND SWAP1 DUP4 PUSH20 0xFFFFFFFFFFFFFFFFFFFFFFFFFFFFFFFFFFFFFFFF AND MUL OR SWAP1 SSTORE POP DUP2 DUP4 PUSH20 0xFFFFFFFFFFFFFFFFFFFFFFFFFFFFFFFFFFFFFFFF AND DUP3 PUSH20 0xFFFFFFFFFFFFFFFFFFFFFFFFFFFFFFFFFFFFFFFF AND PUSH32 0x8C5BE1E5EBEC7D5BD14F71427D1E84F3DD0314C0F7B2291E5B200AC8C7C3B925 PUSH1 0x40 MLOAD PUSH1 0x40 MLOAD DUP1 SWAP2 SUB SWAP1 LOG4 POP POP POP JUMP JUMPDEST PUSH0 PUSH2 0x2FC4 PUSH2 0x1D5C JUMP JUMPDEST PUSH20 0xFFFFFFFFFFFFFFFFFFFFFFFFFFFFFFFFFFFFFFFF AND CALLER PUSH20 0xFFFFFFFFFFFFFFFFFFFFFFFFFFFFFFFFFFFFFFFF AND EQ SWAP1 POP SWAP1 JUMP JUMPDEST PUSH0 PUSH1 0x9 PUSH0 SWAP1 SLOAD SWAP1 PUSH2 0x100 EXP SWAP1 DIV PUSH20 0xFFFFFFFFFFFFFFFFFFFFFFFFFFFFFFFFFFFFFFFF AND SWAP1 POP DUP2 PUSH1 0x9 PUSH0 PUSH2 0x100 EXP DUP2 SLOAD DUP2 PUSH20 0xFFFFFFFFFFFFFFFFFFFFFFFFFFFFFFFFFFFFFFFF MUL NOT AND SWAP1 DUP4 PUSH20 0xFFFFFFFFFFFFFFFFFFFFFFFFFFFFFFFFFFFFFFFF AND MUL OR SWAP1 SSTORE POP DUP2 PUSH20 0xFFFFFFFFFFFFFFFFFFFFFFFFFFFFFFFFFFFFFFFF AND DUP2 PUSH20 0xFFFFFFFFFFFFFFFFFFFFFFFFFFFFFFFFFFFFFFFF AND PUSH32 0x8292FCE18FA69EDF4DB7B94EA2E58241DF0AE57F97E0A6C9B29067028BF92D76 PUSH1 0x40 MLOAD PUSH1 0x40 MLOAD DUP1 SWAP2 SUB SWAP1 LOG3 POP POP JUMP JUMPDEST PUSH0 PUSH0 SWAP1 POP SWAP1 JUMP JUMPDEST PUSH0 PUSH2 0x30CB DUP3 PUSH2 0x3D61 JUMP JUMPDEST SWAP1 POP DUP4 PUSH20 0xFFFFFFFFFFFFFFFFFFFFFFFFFFFFFFFFFFFFFFFF AND DUP2 PUSH0 ADD MLOAD PUSH20 0xFFFFFFFFFFFFFFFFFFFFFFFFFFFFFFFFFFFFFFFF AND EQ PUSH2 0x3135 JUMPI PUSH1 0x40 MLOAD PUSH32 0xA114810000000000000000000000000000000000000000000000000000000000 DUP2 MSTORE PUSH1 0x4 ADD PUSH1 0x40 MLOAD DUP1 SWAP2 SUB SWAP1 REVERT JUMPDEST PUSH0 DUP5 PUSH20 0xFFFFFFFFFFFFFFFFFFFFFFFFFFFFFFFFFFFFFFFF AND PUSH2 0x3155 PUSH2 0x2F05 JUMP JUMPDEST PUSH20 0xFFFFFFFFFFFFFFFFFFFFFFFFFFFFFFFFFFFFFFFF AND EQ DUP1 PUSH2 0x3184 JUMPI POP PUSH2 0x3183 DUP6 PUSH2 0x317E PUSH2 0x2F05 JUMP JUMPDEST PUSH2 0x296A JUMP JUMPDEST JUMPDEST DUP1 PUSH2 0x31C9 JUMPI POP PUSH2 0x3192 PUSH2 0x2F05 JUMP JUMPDEST PUSH20 0xFFFFFFFFFFFFFFFFFFFFFFFFFFFFFFFFFFFFFFFF AND PUSH2 0x31B1 DUP5 PUSH2 0xF9E JUMP JUMPDEST PUSH20 0xFFFFFFFFFFFFFFFFFFFFFFFFFFFFFFFFFFFFFFFF AND EQ JUMPDEST SWAP1 POP DUP1 PUSH2 0x3202 JUMPI PUSH1 0x40 MLOAD PUSH32 0x59C896BE00000000000000000000000000000000000000000000000000000000 DUP2 MSTORE PUSH1 0x4 ADD PUSH1 0x40 MLOAD DUP1 SWAP2 SUB SWAP1 REVERT JUMPDEST PUSH0 PUSH20 0xFFFFFFFFFFFFFFFFFFFFFFFFFFFFFFFFFFFFFFFF AND DUP5 PUSH20 0xFFFFFFFFFFFFFFFFFFFFFFFFFFFFFFFFFFFFFFFF AND SUB PUSH2 0x3267 JUMPI PUSH1 0x40 MLOAD PUSH32 0xEA553B3400000000000000000000000000000000000000000000000000000000 DUP2 MSTORE PUSH1 0x4 ADD PUSH1 0x40 MLOAD DUP1 SWAP2 SUB SWAP1 REVERT JUMPDEST PUSH2 0x3274 DUP6 DUP6 DUP6 PUSH1 0x1 PUSH2 0x4DAC JUMP JUMPDEST PUSH2 0x327F PUSH0 DUP5 DUP8 PUSH2 0x2F0C JUMP JUMPDEST PUSH1 0x1 PUSH1 0x5 PUSH0 DUP8 PUSH20 0xFFFFFFFFFFFFFFFFFFFFFFFFFFFFFFFFFFFFFFFF AND PUSH20 0xFFFFFFFFFFFFFFFFFFFFFFFFFFFFFFFFFFFFFFFF AND DUP2 MSTORE PUSH1 0x20 ADD SWAP1 DUP2 MSTORE PUSH1 0x20 ADD PUSH0 KECCAK256 PUSH0 ADD PUSH0 DUP3 DUP3 DUP3 SWAP1 SLOAD SWAP1 PUSH2 0x100 EXP SWAP1 DIV PUSH8 0xFFFFFFFFFFFFFFFF AND SUB SWAP3 POP PUSH2 0x100 EXP DUP2 SLOAD DUP2 PUSH8 0xFFFFFFFFFFFFFFFF MUL NOT AND SWAP1 DUP4 PUSH8 0xFFFFFFFFFFFFFFFF AND MUL OR SWAP1 SSTORE POP PUSH1 0x1 PUSH1 0x5 PUSH0 DUP7 PUSH20 0xFFFFFFFFFFFFFFFFFFFFFFFFFFFFFFFFFFFFFFFF AND PUSH20 0xFFFFFFFFFFFFFFFFFFFFFFFFFFFFFFFFFFFFFFFF AND DUP2 MSTORE PUSH1 0x20 ADD SWAP1 DUP2 MSTORE PUSH1 0x20 ADD PUSH0 KECCAK256 PUSH0 ADD PUSH0 DUP3 DUP3 DUP3 SWAP1 SLOAD SWAP1 PUSH2 0x100 EXP SWAP1 DIV PUSH8 0xFFFFFFFFFFFFFFFF AND ADD SWAP3 POP PUSH2 0x100 EXP DUP2 SLOAD DUP2 PUSH8 0xFFFFFFFFFFFFFFFF MUL NOT AND SWAP1 DUP4 PUSH8 0xFFFFFFFFFFFFFFFF AND MUL OR SWAP1 SSTORE POP PUSH0 PUSH1 0x4 PUSH0 DUP6 DUP2 MSTORE PUSH1 0x20 ADD SWAP1 DUP2 MSTORE PUSH1 0x20 ADD PUSH0 KECCAK256 SWAP1 POP DUP5 DUP2 PUSH0 ADD PUSH0 PUSH2 0x100 EXP DUP2 SLOAD DUP2 PUSH20 0xFFFFFFFFFFFFFFFFFFFFFFFFFFFFFFFFFFFFFFFF MUL NOT AND SWAP1 DUP4 PUSH20 0xFFFFFFFFFFFFFFFFFFFFFFFFFFFFFFFFFFFFFFFF AND MUL OR SWAP1 SSTORE POP TIMESTAMP DUP2 PUSH0 ADD PUSH1 0x14 PUSH2 0x100 EXP DUP2 SLOAD DUP2 PUSH8 0xFFFFFFFFFFFFFFFF MUL NOT AND SWAP1 DUP4 PUSH8 0xFFFFFFFFFFFFFFFF AND MUL OR SWAP1 SSTORE POP PUSH0 PUSH1 0x1 DUP6 ADD SWAP1 POP PUSH0 PUSH1 0x4 PUSH0 DUP4 DUP2 MSTORE PUSH1 0x20 ADD SWAP1 DUP2 MSTORE PUSH1 0x20 ADD PUSH0 KECCAK256 SWAP1 POP PUSH0 PUSH20 0xFFFFFFFFFFFFFFFFFFFFFFFFFFFFFFFFFFFFFFFF AND DUP2 PUSH0 ADD PUSH0 SWAP1 SLOAD SWAP1 PUSH2 0x100 EXP SWAP1 DIV PUSH20 0xFFFFFFFFFFFFFFFFFFFFFFFFFFFFFFFFFFFFFFFF AND PUSH20 0xFFFFFFFFFFFFFFFFFFFFFFFFFFFFFFFFFFFFFFFF AND SUB PUSH2 0x34E5 JUMPI PUSH0 SLOAD DUP3 EQ PUSH2 0x34E4 JUMPI DUP8 DUP2 PUSH0 ADD PUSH0 PUSH2 0x100 EXP DUP2 SLOAD DUP2 PUSH20 0xFFFFFFFFFFFFFFFFFFFFFFFFFFFFFFFFFFFFFFFF MUL NOT AND SWAP1 DUP4 PUSH20 0xFFFFFFFFFFFFFFFFFFFFFFFFFFFFFFFFFFFFFFFF AND MUL OR SWAP1 SSTORE POP DUP5 PUSH1 0x20 ADD MLOAD DUP2 PUSH0 ADD PUSH1 0x14 PUSH2 0x100 EXP DUP2 SLOAD DUP2 PUSH8 0xFFFFFFFFFFFFFFFF MUL NOT AND SWAP1 DUP4 PUSH8 0xFFFFFFFFFFFFFFFF AND MUL OR SWAP1 SSTORE POP JUMPDEST JUMPDEST POP POP POP DUP3 DUP5 PUSH20 0xFFFFFFFFFFFFFFFFFFFFFFFFFFFFFFFFFFFFFFFF AND DUP7 PUSH20 0xFFFFFFFFFFFFFFFFFFFFFFFFFFFFFFFFFFFFFFFF AND PUSH32 0xDDF252AD1BE2C89B69C2B068FC378DAA952BA7F163C4A11628F55A4DF523B3EF PUSH1 0x40 MLOAD PUSH1 0x40 MLOAD DUP1 SWAP2 SUB SWAP1 LOG4 PUSH2 0x3550 DUP6 DUP6 DUP6 PUSH1 0x1 PUSH2 0x4DB2 JUMP JUMPDEST POP POP POP POP POP JUMP JUMPDEST PUSH0 PUSH0 SLOAD SWAP1 POP PUSH0 PUSH20 0xFFFFFFFFFFFFFFFFFFFFFFFFFFFFFFFFFFFFFFFF AND DUP4 PUSH20 0xFFFFFFFFFFFFFFFFFFFFFFFFFFFFFFFFFFFFFFFF AND SUB PUSH2 0x35C1 JUMPI PUSH1 0x40 MLOAD PUSH32 0x2E07630000000000000000000000000000000000000000000000000000000000 DUP2 MSTORE PUSH1 0x4 ADD PUSH1 0x40 MLOAD DUP1 SWAP2 SUB SWAP1 REVERT JUMPDEST PUSH0 DUP3 SUB PUSH2 0x35FA JUMPI PUSH1 0x40 MLOAD PUSH32 0xB562E8DD00000000000000000000000000000000000000000000000000000000 DUP2 MSTORE PUSH1 0x4 ADD PUSH1 0x40 MLOAD DUP1 SWAP2 SUB SWAP1 REVERT JUMPDEST PUSH2 0x3606 PUSH0 DUP5 DUP4 DUP6 PUSH2 0x4DAC JUMP JUMPDEST DUP2 PUSH1 0x5 PUSH0 DUP6 PUSH20 0xFFFFFFFFFFFFFFFFFFFFFFFFFFFFFFFFFFFFFFFF AND PUSH20 0xFFFFFFFFFFFFFFFFFFFFFFFFFFFFFFFFFFFFFFFF AND DUP2 MSTORE PUSH1 0x20 ADD SWAP1 DUP2 MSTORE PUSH1 0x20 ADD PUSH0 KECCAK256 PUSH0 ADD PUSH0 DUP3 DUP3 DUP3 SWAP1 SLOAD SWAP1 PUSH2 0x100 EXP SWAP1 DIV PUSH8 0xFFFFFFFFFFFFFFFF AND ADD SWAP3 POP PUSH2 0x100 EXP DUP2 SLOAD DUP2 PUSH8 0xFFFFFFFFFFFFFFFF MUL NOT AND SWAP1 DUP4 PUSH8 0xFFFFFFFFFFFFFFFF AND MUL OR SWAP1 SSTORE POP DUP2 PUSH1 0x5 PUSH0 DUP6 PUSH20 0xFFFFFFFFFFFFFFFFFFFFFFFFFFFFFFFFFFFFFFFF AND PUSH20 0xFFFFFFFFFFFFFFFFFFFFFFFFFFFFFFFFFFFFFFFF AND DUP2 MSTORE PUSH1 0x20 ADD SWAP1 DUP2 MSTORE PUSH1 0x20 ADD PUSH0 KECCAK256 PUSH0 ADD PUSH1 0x8 DUP3 DUP3 DUP3 SWAP1 SLOAD SWAP1 PUSH2 0x100 EXP SWAP1 DIV PUSH8 0xFFFFFFFFFFFFFFFF AND ADD SWAP3 POP PUSH2 0x100 EXP DUP2 SLOAD DUP2 PUSH8 0xFFFFFFFFFFFFFFFF MUL NOT AND SWAP1 DUP4 PUSH8 0xFFFFFFFFFFFFFFFF AND MUL OR SWAP1 SSTORE POP DUP3 PUSH1 0x4 PUSH0 DUP4 DUP2 MSTORE PUSH1 0x20 ADD SWAP1 DUP2 MSTORE PUSH1 0x20 ADD PUSH0 KECCAK256 PUSH0 ADD PUSH0 PUSH2 0x100 EXP DUP2 SLOAD DUP2 PUSH20 0xFFFFFFFFFFFFFFFFFFFFFFFFFFFFFFFFFFFFFFFF MUL NOT AND SWAP1 DUP4 PUSH20 0xFFFFFFFFFFFFFFFFFFFFFFFFFFFFFFFFFFFFFFFF AND MUL OR SWAP1 SSTORE POP TIMESTAMP PUSH1 0x4 PUSH0 DUP4 DUP2 MSTORE PUSH1 0x20 ADD SWAP1 DUP2 MSTORE PUSH1 0x20 ADD PUSH0 KECCAK256 PUSH0 ADD PUSH1 0x14 PUSH2 0x100 EXP DUP2 SLOAD DUP2 PUSH8 0xFFFFFFFFFFFFFFFF MUL NOT AND SWAP1 DUP4 PUSH8 0xFFFFFFFFFFFFFFFF AND MUL OR SWAP1 SSTORE POP PUSH0 DUP2 SWAP1 POP PUSH0 DUP4 DUP3 ADD SWAP1 POP JUMPDEST DUP2 DUP1 PUSH1 0x1 ADD SWAP3 POP DUP6 PUSH20 0xFFFFFFFFFFFFFFFFFFFFFFFFFFFFFFFFFFFFFFFF AND PUSH0 PUSH20 0xFFFFFFFFFFFFFFFFFFFFFFFFFFFFFFFFFFFFFFFF AND PUSH32 0xDDF252AD1BE2C89B69C2B068FC378DAA952BA7F163C4A11628F55A4DF523B3EF PUSH1 0x40 MLOAD PUSH1 0x40 MLOAD DUP1 SWAP2 SUB SWAP1 LOG4 DUP1 DUP3 LT PUSH2 0x3799 JUMPI DUP2 PUSH0 DUP2 SWAP1 SSTORE POP POP POP PUSH2 0x3815 PUSH0 DUP5 DUP4 DUP6 PUSH2 0x4DB2 JUMP JUMPDEST POP POP POP JUMP JUMPDEST PUSH0 PUSH2 0x3823 PUSH2 0x1D5C JUMP JUMPDEST PUSH20 0xFFFFFFFFFFFFFFFFFFFFFFFFFFFFFFFFFFFFFFFF AND CALLER PUSH20 0xFFFFFFFFFFFFFFFFFFFFFFFFFFFFFFFFFFFFFFFF AND EQ SWAP1 POP SWAP1 JUMP JUMPDEST PUSH0 CALLER SWAP1 POP SWAP1 JUMP JUMPDEST PUSH0 PUSH2 0x3867 DUP4 PUSH2 0x3D61 JUMP JUMPDEST SWAP1 POP PUSH0 DUP2 PUSH0 ADD MLOAD SWAP1 POP DUP3 ISZERO PUSH2 0x3945 JUMPI PUSH0 DUP2 PUSH20 0xFFFFFFFFFFFFFFFFFFFFFFFFFFFFFFFFFFFFFFFF AND PUSH2 0x3896 PUSH2 0x2F05 JUMP JUMPDEST PUSH20 0xFFFFFFFFFFFFFFFFFFFFFFFFFFFFFFFFFFFFFFFF AND EQ DUP1 PUSH2 0x38C5 JUMPI POP PUSH2 0x38C4 DUP3 PUSH2 0x38BF PUSH2 0x2F05 JUMP JUMPDEST PUSH2 0x296A JUMP JUMPDEST JUMPDEST DUP1 PUSH2 0x390A JUMPI POP PUSH2 0x38D3 PUSH2 0x2F05 JUMP JUMPDEST PUSH20 0xFFFFFFFFFFFFFFFFFFFFFFFFFFFFFFFFFFFFFFFF AND PUSH2 0x38F2 DUP7 PUSH2 0xF9E JUMP JUMPDEST PUSH20 0xFFFFFFFFFFFFFFFFFFFFFFFFFFFFFFFFFFFFFFFF AND EQ JUMPDEST SWAP1 POP DUP1 PUSH2 0x3943 JUMPI PUSH1 0x40 MLOAD PUSH32 0x59C896BE00000000000000000000000000000000000000000000000000000000 DUP2 MSTORE PUSH1 0x4 ADD PUSH1 0x40 MLOAD DUP1 SWAP2 SUB SWAP1 REVERT JUMPDEST POP JUMPDEST PUSH2 0x3952 DUP2 PUSH0 DUP7 PUSH1 0x1 PUSH2 0x4DAC JUMP JUMPDEST PUSH2 0x395D PUSH0 DUP6 DUP4 PUSH2 0x2F0C JUMP JUMPDEST PUSH0 PUSH1 0x5 PUSH0 DUP4 PUSH20 0xFFFFFFFFFFFFFFFFFFFFFFFFFFFFFFFFFFFFFFFF AND PUSH20 0xFFFFFFFFFFFFFFFFFFFFFFFFFFFFFFFFFFFFFFFF AND DUP2 MSTORE PUSH1 0x20 ADD SWAP1 DUP2 MSTORE PUSH1 0x20 ADD PUSH0 KECCAK256 SWAP1 POP PUSH1 0x1 DUP2 PUSH0 ADD PUSH0 DUP3 DUP3 DUP3 SWAP1 SLOAD SWAP1 PUSH2 0x100 EXP SWAP1 DIV PUSH8 0xFFFFFFFFFFFFFFFF AND SUB SWAP3 POP PUSH2 0x100 EXP DUP2 SLOAD DUP2 PUSH8 0xFFFFFFFFFFFFFFFF MUL NOT AND SWAP1 DUP4 PUSH8 0xFFFFFFFFFFFFFFFF AND MUL OR SWAP1 SSTORE POP PUSH1 0x1 DUP2 PUSH0 ADD PUSH1 0x10 DUP3 DUP3 DUP3 SWAP1 SLOAD SWAP1 PUSH2 0x100 EXP SWAP1 DIV PUSH8 0xFFFFFFFFFFFFFFFF AND ADD SWAP3 POP PUSH2 0x100 EXP DUP2 SLOAD DUP2 PUSH8 0xFFFFFFFFFFFFFFFF MUL NOT AND SWAP1 DUP4 PUSH8 0xFFFFFFFFFFFFFFFF AND MUL OR SWAP1 SSTORE POP PUSH0 PUSH1 0x4 PUSH0 DUP8 DUP2 MSTORE PUSH1 0x20 ADD SWAP1 DUP2 MSTORE PUSH1 0x20 ADD PUSH0 KECCAK256 SWAP1 POP DUP3 DUP2 PUSH0 ADD PUSH0 PUSH2 0x100 EXP DUP2 SLOAD DUP2 PUSH20 0xFFFFFFFFFFFFFFFFFFFFFFFFFFFFFFFFFFFFFFFF MUL NOT AND SWAP1 DUP4 PUSH20 0xFFFFFFFFFFFFFFFFFFFFFFFFFFFFFFFFFFFFFFFF AND MUL OR SWAP1 SSTORE POP TIMESTAMP DUP2 PUSH0 ADD PUSH1 0x14 PUSH2 0x100 EXP DUP2 SLOAD DUP2 PUSH8 0xFFFFFFFFFFFFFFFF MUL NOT AND SWAP1 DUP4 PUSH8 0xFFFFFFFFFFFFFFFF AND MUL OR SWAP1 SSTORE POP PUSH1 0x1 DUP2 PUSH0 ADD PUSH1 0x1C PUSH2 0x100 EXP DUP2 SLOAD DUP2 PUSH1 0xFF MUL NOT AND SWAP1 DUP4 ISZERO ISZERO MUL OR SWAP1 SSTORE POP PUSH0 PUSH1 0x1 DUP8 ADD SWAP1 POP PUSH0 PUSH1 0x4 PUSH0 DUP4 DUP2 MSTORE PUSH1 0x20 ADD SWAP1 DUP2 MSTORE PUSH1 0x20 ADD PUSH0 KECCAK256 SWAP1 POP PUSH0 PUSH20 0xFFFFFFFFFFFFFFFFFFFFFFFFFFFFFFFFFFFFFFFF AND DUP2 PUSH0 ADD PUSH0 SWAP1 SLOAD SWAP1 PUSH2 0x100 EXP SWAP1 DIV PUSH20 0xFFFFFFFFFFFFFFFFFFFFFFFFFFFFFFFFFFFFFFFF AND PUSH20 0xFFFFFFFFFFFFFFFFFFFFFFFFFFFFFFFFFFFFFFFF AND SUB PUSH2 0x3BA8 JUMPI PUSH0 SLOAD DUP3 EQ PUSH2 0x3BA7 JUMPI DUP5 DUP2 PUSH0 ADD PUSH0 PUSH2 0x100 EXP DUP2 SLOAD DUP2 PUSH20 0xFFFFFFFFFFFFFFFFFFFFFFFFFFFFFFFFFFFFFFFF MUL NOT AND SWAP1 DUP4 PUSH20 0xFFFFFFFFFFFFFFFFFFFFFFFFFFFFFFFFFFFFFFFF AND MUL OR SWAP1 SSTORE POP DUP6 PUSH1 0x20 ADD MLOAD DUP2 PUSH0 ADD PUSH1 0x14 PUSH2 0x100 EXP DUP2 SLOAD DUP2 PUSH8 0xFFFFFFFFFFFFFFFF MUL NOT AND SWAP1 DUP4 PUSH8 0xFFFFFFFFFFFFFFFF AND MUL OR SWAP1 SSTORE POP JUMPDEST JUMPDEST POP POP POP POP DUP4 PUSH0 PUSH20 0xFFFFFFFFFFFFFFFFFFFFFFFFFFFFFFFFFFFFFFFF AND DUP3 PUSH20 0xFFFFFFFFFFFFFFFFFFFFFFFFFFFFFFFFFFFFFFFF AND PUSH32 0xDDF252AD1BE2C89B69C2B068FC378DAA952BA7F163C4A11628F55A4DF523B3EF PUSH1 0x40 MLOAD PUSH1 0x40 MLOAD DUP1 SWAP2 SUB SWAP1 LOG4 PUSH2 0x3C14 DUP2 PUSH0 DUP7 PUSH1 0x1 PUSH2 0x4DB2 JUMP JUMPDEST PUSH1 0x1 PUSH0 DUP2 SLOAD DUP1 SWAP3 SWAP2 SWAP1 PUSH1 0x1 ADD SWAP2 SWAP1 POP SSTORE POP POP POP POP POP JUMP JUMPDEST PUSH0 PUSH2 0x3C34 PUSH2 0x1D5C JUMP JUMPDEST PUSH20 0xFFFFFFFFFFFFFFFFFFFFFFFFFFFFFFFFFFFFFFFF AND CALLER PUSH20 0xFFFFFFFFFFFFFFFFFFFFFFFFFFFFFFFFFFFFFFFF AND EQ SWAP1 POP SWAP1 JUMP JUMPDEST PUSH2 0x2710 DUP2 GT ISZERO PUSH2 0x3CB2 JUMPI PUSH2 0x2710 DUP2 PUSH1 0x40 MLOAD PUSH32 0x5249856800000000000000000000000000000000000000000000000000000000 DUP2 MSTORE PUSH1 0x4 ADD PUSH2 0x3CA9 SWAP3 SWAP2 SWAP1 PUSH2 0x7629 JUMP JUMPDEST PUSH1 0x40 MLOAD DUP1 SWAP2 SUB SWAP1 REVERT JUMPDEST DUP2 PUSH1 0xA PUSH0 PUSH2 0x100 EXP DUP2 SLOAD DUP2 PUSH20 0xFFFFFFFFFFFFFFFFFFFFFFFFFFFFFFFFFFFFFFFF MUL NOT AND SWAP1 DUP4 PUSH20 0xFFFFFFFFFFFFFFFFFFFFFFFFFFFFFFFFFFFFFFFF AND MUL OR SWAP1 SSTORE POP DUP1 PUSH1 0xA PUSH1 0x14 PUSH2 0x100 EXP DUP2 SLOAD DUP2 PUSH2 0xFFFF MUL NOT AND SWAP1 DUP4 PUSH2 0xFFFF AND MUL OR SWAP1 SSTORE POP DUP2 PUSH20 0xFFFFFFFFFFFFFFFFFFFFFFFFFFFFFFFFFFFFFFFF AND PUSH32 0x90D7EC04BCB8978719414F82E52E4CB651DB41D0E6F8CEA6118C2191E6183ADB DUP3 PUSH1 0x40 MLOAD PUSH2 0x3D55 SWAP2 SWAP1 PUSH2 0x5B36 JUMP JUMPDEST PUSH1 0x40 MLOAD DUP1 SWAP2 SUB SWAP1 LOG2 POP POP JUMP JUMPDEST PUSH2 0x3D69 PUSH2 0x5932 JUMP JUMPDEST PUSH0 DUP3 SWAP1 POP DUP1 PUSH2 0x3D76 PUSH2 0x30BA JUMP JUMPDEST GT PUSH2 0x3FA2 JUMPI PUSH0 SLOAD DUP2 LT ISZERO PUSH2 0x3FA1 JUMPI PUSH0 PUSH1 0x4 PUSH0 DUP4 DUP2 MSTORE PUSH1 0x20 ADD SWAP1 DUP2 MSTORE PUSH1 0x20 ADD PUSH0 KECCAK256 PUSH1 0x40 MLOAD DUP1 PUSH1 0x60 ADD PUSH1 0x40 MSTORE SWAP1 DUP2 PUSH0 DUP3 ADD PUSH0 SWAP1 SLOAD SWAP1 PUSH2 0x100 EXP SWAP1 DIV PUSH20 0xFFFFFFFFFFFFFFFFFFFFFFFFFFFFFFFFFFFFFFFF AND PUSH20 0xFFFFFFFFFFFFFFFFFFFFFFFFFFFFFFFFFFFFFFFF AND PUSH20 0xFFFFFFFFFFFFFFFFFFFFFFFFFFFFFFFFFFFFFFFF AND DUP2 MSTORE PUSH1 0x20 ADD PUSH0 DUP3 ADD PUSH1 0x14 SWAP1 SLOAD SWAP1 PUSH2 0x100 EXP SWAP1 DIV PUSH8 0xFFFFFFFFFFFFFFFF AND PUSH8 0xFFFFFFFFFFFFFFFF AND PUSH8 0xFFFFFFFFFFFFFFFF AND DUP2 MSTORE PUSH1 0x20 ADD PUSH0 DUP3 ADD PUSH1 0x1C SWAP1 SLOAD SWAP1 PUSH2 0x100 EXP SWAP1 DIV PUSH1 0xFF AND ISZERO ISZERO ISZERO ISZERO DUP2 MSTORE POP POP SWAP1 POP DUP1 PUSH1 0x40 ADD MLOAD PUSH2 0x3F9F JUMPI PUSH0 PUSH20 0xFFFFFFFFFFFFFFFFFFFFFFFFFFFFFFFFFFFFFFFF AND DUP2 PUSH0 ADD MLOAD PUSH20 0xFFFFFFFFFFFFFFFFFFFFFFFFFFFFFFFFFFFFFFFF AND EQ PUSH2 0x3E8B JUMPI DUP1 SWAP3 POP POP POP PUSH2 0x3FD4 JUMP JUMPDEST JUMPDEST PUSH1 0x1 ISZERO PUSH2 0x3F9E JUMPI DUP2 DUP1 PUSH1 0x1 SWAP1 SUB SWAP3 POP POP PUSH1 0x4 PUSH0 DUP4 DUP2 MSTORE PUSH1 0x20 ADD SWAP1 DUP2 MSTORE PUSH1 0x20 ADD PUSH0 KECCAK256 PUSH1 0x40 MLOAD DUP1 PUSH1 0x60 ADD PUSH1 0x40 MSTORE SWAP1 DUP2 PUSH0 DUP3 ADD PUSH0 SWAP1 SLOAD SWAP1 PUSH2 0x100 EXP SWAP1 DIV PUSH20 0xFFFFFFFFFFFFFFFFFFFFFFFFFFFFFFFFFFFFFFFF AND PUSH20 0xFFFFFFFFFFFFFFFFFFFFFFFFFFFFFFFFFFFFFFFF AND PUSH20 0xFFFFFFFFFFFFFFFFFFFFFFFFFFFFFFFFFFFFFFFF AND DUP2 MSTORE PUSH1 0x20 ADD PUSH0 DUP3 ADD PUSH1 0x14 SWAP1 SLOAD SWAP1 PUSH2 0x100 EXP SWAP1 DIV PUSH8 0xFFFFFFFFFFFFFFFF AND PUSH8 0xFFFFFFFFFFFFFFFF AND PUSH8 0xFFFFFFFFFFFFFFFF AND DUP2 MSTORE PUSH1 0x20 ADD PUSH0 DUP3 ADD PUSH1 0x1C SWAP1 SLOAD SWAP1 PUSH2 0x100 EXP SWAP1 DIV PUSH1 0xFF AND ISZERO ISZERO ISZERO ISZERO DUP2 MSTORE POP POP SWAP1 POP PUSH0 PUSH20 0xFFFFFFFFFFFFFFFFFFFFFFFFFFFFFFFFFFFFFFFF AND DUP2 PUSH0 ADD MLOAD PUSH20 0xFFFFFFFFFFFFFFFFFFFFFFFFFFFFFFFFFFFFFFFF AND EQ PUSH2 0x3F99 JUMPI DUP1 SWAP3 POP POP POP PUSH2 0x3FD4 JUMP JUMPDEST PUSH2 0x3E8C JUMP JUMPDEST JUMPDEST POP JUMPDEST JUMPDEST PUSH1 0x40 MLOAD PUSH32 0xDF2D9B4200000000000000000000000000000000000000000000000000000000 DUP2 MSTORE PUSH1 0x4 ADD PUSH1 0x40 MLOAD DUP1 SWAP2 SUB SWAP1 REVERT JUMPDEST SWAP2 SWAP1 POP JUMP JUMPDEST PUSH0 PUSH2 0x3FE2 PUSH2 0x1D5C JUMP JUMPDEST PUSH20 0xFFFFFFFFFFFFFFFFFFFFFFFFFFFFFFFFFFFFFFFF AND CALLER PUSH20 0xFFFFFFFFFFFFFFFFFFFFFFFFFFFFFFFFFFFFFFFF AND EQ SWAP1 POP SWAP1 JUMP JUMPDEST PUSH0 PUSH20 0xFFFFFFFFFFFFFFFFFFFFFFFFFFFFFFFFFFFFFFFF AND DUP2 PUSH20 0xFFFFFFFFFFFFFFFFFFFFFFFFFFFFFFFFFFFFFFFF AND SUB PUSH2 0x4085 JUMPI DUP1 PUSH1 0x40 MLOAD PUSH32 0x3DF2B0DC00000000000000000000000000000000000000000000000000000000 DUP2 MSTORE PUSH1 0x4 ADD PUSH2 0x407C SWAP2 SWAP1 PUSH2 0x5B05 JUMP JUMPDEST PUSH1 0x40 MLOAD DUP1 SWAP2 SUB SWAP1 REVERT JUMPDEST DUP1 PUSH1 0xF PUSH0 PUSH2 0x100 EXP DUP2 SLOAD DUP2 PUSH20 0xFFFFFFFFFFFFFFFFFFFFFFFFFFFFFFFFFFFFFFFF MUL NOT AND SWAP1 DUP4 PUSH20 0xFFFFFFFFFFFFFFFFFFFFFFFFFFFFFFFFFFFFFFFF AND MUL OR SWAP1 SSTORE POP DUP1 PUSH20 0xFFFFFFFFFFFFFFFFFFFFFFFFFFFFFFFFFFFFFFFF AND PUSH32 0x299D17E95023F496E0FFC4909CFF1A61F74BB5EB18DE6F900F4155BFA1B3B333 PUSH1 0x40 MLOAD PUSH1 0x40 MLOAD DUP1 SWAP2 SUB SWAP1 LOG2 POP JUMP JUMPDEST PUSH1 0x10 SLOAD DUP6 PUSH0 SLOAD PUSH2 0x411B SWAP2 SWAP1 PUSH2 0x694B JUMP JUMPDEST GT ISZERO PUSH2 0x415C JUMPI PUSH1 0x40 MLOAD PUSH32 0x8C379A000000000000000000000000000000000000000000000000000000000 DUP2 MSTORE PUSH1 0x4 ADD PUSH2 0x4153 SWAP1 PUSH2 0x769A JUMP JUMPDEST PUSH1 0x40 MLOAD DUP1 SWAP2 SUB SWAP1 REVERT JUMPDEST POP POP POP POP POP POP JUMP JUMPDEST PUSH0 DUP2 SUB PUSH2 0x41B2 JUMPI PUSH0 CALLVALUE EQ PUSH2 0x41AD JUMPI PUSH1 0x40 MLOAD PUSH32 0x8C379A000000000000000000000000000000000000000000000000000000000 DUP2 MSTORE PUSH1 0x4 ADD PUSH2 0x41A4 SWAP1 PUSH2 0x7702 JUMP JUMPDEST PUSH1 0x40 MLOAD DUP1 SWAP2 SUB SWAP1 REVERT JUMPDEST PUSH2 0x42AE JUMP JUMPDEST PUSH0 DUP2 DUP5 PUSH2 0x41BF SWAP2 SWAP1 PUSH2 0x6845 JUMP JUMPDEST SWAP1 POP PUSH0 PUSH20 0xEEEEEEEEEEEEEEEEEEEEEEEEEEEEEEEEEEEEEEEE PUSH20 0xFFFFFFFFFFFFFFFFFFFFFFFFFFFFFFFFFFFFFFFF AND DUP5 PUSH20 0xFFFFFFFFFFFFFFFFFFFFFFFFFFFFFFFFFFFFFFFF AND SUB PUSH2 0x4213 JUMPI DUP2 CALLVALUE EQ SWAP1 POP PUSH2 0x4219 JUMP JUMPDEST PUSH0 CALLVALUE EQ SWAP1 POP JUMPDEST DUP1 PUSH2 0x4259 JUMPI PUSH1 0x40 MLOAD PUSH32 0x8C379A000000000000000000000000000000000000000000000000000000000 DUP2 MSTORE PUSH1 0x4 ADD PUSH2 0x4250 SWAP1 PUSH2 0x776A JUMP JUMPDEST PUSH1 0x40 MLOAD DUP1 SWAP2 SUB SWAP1 REVERT JUMPDEST PUSH0 PUSH0 PUSH20 0xFFFFFFFFFFFFFFFFFFFFFFFFFFFFFFFFFFFFFFFF AND DUP8 PUSH20 0xFFFFFFFFFFFFFFFFFFFFFFFFFFFFFFFFFFFFFFFF AND EQ PUSH2 0x4293 JUMPI DUP7 PUSH2 0x429C JUMP JUMPDEST PUSH2 0x429B PUSH2 0xF71 JUMP JUMPDEST JUMPDEST SWAP1 POP PUSH2 0x42AA DUP6 CALLER DUP4 DUP7 PUSH2 0x4DB8 JUMP JUMPDEST POP POP POP JUMPDEST POP POP POP POP JUMP JUMPDEST PUSH0 PUSH0 SLOAD SWAP1 POP PUSH2 0x42C3 DUP4 DUP4 PUSH2 0x4E2A JUMP JUMPDEST SWAP3 SWAP2 POP POP JUMP JUMPDEST POP POP POP POP POP POP JUMP JUMPDEST PUSH0 PUSH2 0x42DA PUSH2 0x1D5C JUMP JUMPDEST PUSH20 0xFFFFFFFFFFFFFFFFFFFFFFFFFFFFFFFFFFFFFFFF AND CALLER PUSH20 0xFFFFFFFFFFFFFFFFFFFFFFFFFFFFFFFFFFFFFFFF AND EQ SWAP1 POP SWAP1 JUMP JUMPDEST PUSH0 PUSH1 0x8 DUP1 SLOAD PUSH2 0x431B SWAP1 PUSH2 0x67BB JUMP JUMPDEST DUP1 PUSH1 0x1F ADD PUSH1 0x20 DUP1 SWAP2 DIV MUL PUSH1 0x20 ADD PUSH1 0x40 MLOAD SWAP1 DUP2 ADD PUSH1 0x40 MSTORE DUP1 SWAP3 SWAP2 SWAP1 DUP2 DUP2 MSTORE PUSH1 0x20 ADD DUP3 DUP1 SLOAD PUSH2 0x4347 SWAP1 PUSH2 0x67BB JUMP JUMPDEST DUP1 ISZERO PUSH2 0x4392 JUMPI DUP1 PUSH1 0x1F LT PUSH2 0x4369 JUMPI PUSH2 0x100 DUP1 DUP4 SLOAD DIV MUL DUP4 MSTORE SWAP2 PUSH1 0x20 ADD SWAP2 PUSH2 0x4392 JUMP JUMPDEST DUP3 ADD SWAP2 SWAP1 PUSH0 MSTORE PUSH1 0x20 PUSH0 KECCAK256 SWAP1 JUMPDEST DUP2 SLOAD DUP2 MSTORE SWAP1 PUSH1 0x1 ADD SWAP1 PUSH1 0x20 ADD DUP1 DUP4 GT PUSH2 0x4375 JUMPI DUP3 SWAP1 SUB PUSH1 0x1F AND DUP3 ADD SWAP2 JUMPDEST POP POP POP POP POP SWAP1 POP DUP2 PUSH1 0x8 SWAP1 DUP2 PUSH2 0x43A8 SWAP2 SWAP1 PUSH2 0x6D9B JUMP JUMPDEST POP PUSH32 0xC9C7C3FE08B88B4DF9D4D47EF47D2C43D55C025A0BA88CA442580ED9E7348A16 DUP2 DUP4 PUSH1 0x40 MLOAD PUSH2 0x43DA SWAP3 SWAP2 SWAP1 PUSH2 0x7788 JUMP JUMPDEST PUSH1 0x40 MLOAD DUP1 SWAP2 SUB SWAP1 LOG1 POP POP JUMP JUMPDEST PUSH2 0x2710 DUP2 GT ISZERO PUSH2 0x4431 JUMPI PUSH2 0x2710 DUP2 PUSH1 0x40 MLOAD PUSH32 0x5249856800000000000000000000000000000000000000000000000000000000 DUP2 MSTORE PUSH1 0x4 ADD PUSH2 0x4428 SWAP3 SWAP2 SWAP1 PUSH2 0x7629 JUMP JUMPDEST PUSH1 0x40 MLOAD DUP1 SWAP2 SUB SWAP1 REVERT JUMPDEST PUSH1 0x40 MLOAD DUP1 PUSH1 0x40 ADD PUSH1 0x40 MSTORE DUP1 DUP4 PUSH20 0xFFFFFFFFFFFFFFFFFFFFFFFFFFFFFFFFFFFFFFFF AND DUP2 MSTORE PUSH1 0x20 ADD DUP3 DUP2 MSTORE POP PUSH1 0xB PUSH0 DUP6 DUP2 MSTORE PUSH1 0x20 ADD SWAP1 DUP2 MSTORE PUSH1 0x20 ADD PUSH0 KECCAK256 PUSH0 DUP3 ADD MLOAD DUP2 PUSH0 ADD PUSH0 PUSH2 0x100 EXP DUP2 SLOAD DUP2 PUSH20 0xFFFFFFFFFFFFFFFFFFFFFFFFFFFFFFFFFFFFFFFF MUL NOT AND SWAP1 DUP4 PUSH20 0xFFFFFFFFFFFFFFFFFFFFFFFFFFFFFFFFFFFFFFFF AND MUL OR SWAP1 SSTORE POP PUSH1 0x20 DUP3 ADD MLOAD DUP2 PUSH1 0x1 ADD SSTORE SWAP1 POP POP DUP2 PUSH20 0xFFFFFFFFFFFFFFFFFFFFFFFFFFFFFFFFFFFFFFFF AND DUP4 PUSH32 0x7365CF4122F072A3365C20D54EFF9B38D73C096C28E1892EC8F5B0E403A0F12D DUP4 PUSH1 0x40 MLOAD PUSH2 0x4505 SWAP2 SWAP1 PUSH2 0x5B36 JUMP JUMPDEST PUSH1 0x40 MLOAD DUP1 SWAP2 SUB SWAP1 LOG3 POP POP POP JUMP JUMPDEST PUSH1 0x60 PUSH2 0x4537 DUP4 DUP4 PUSH1 0x40 MLOAD DUP1 PUSH1 0x60 ADD PUSH1 0x40 MSTORE DUP1 PUSH1 0x27 DUP2 MSTORE PUSH1 0x20 ADD PUSH2 0x7CE5 PUSH1 0x27 SWAP2 CODECOPY PUSH2 0x4E47 JUMP JUMPDEST SWAP1 POP SWAP3 SWAP2 POP POP JUMP JUMPDEST PUSH0 PUSH0 DUP3 PUSH20 0xFFFFFFFFFFFFFFFFFFFFFFFFFFFFFFFFFFFFFFFF AND EXTCODESIZE GT SWAP1 POP SWAP2 SWAP1 POP JUMP JUMPDEST PUSH0 DUP4 PUSH20 0xFFFFFFFFFFFFFFFFFFFFFFFFFFFFFFFFFFFFFFFF AND PUSH4 0x150B7A02 PUSH2 0x4586 PUSH2 0x2F05 JUMP JUMPDEST DUP8 DUP7 DUP7 PUSH1 0x40 MLOAD DUP6 PUSH4 0xFFFFFFFF AND PUSH1 0xE0 SHL DUP2 MSTORE PUSH1 0x4 ADD PUSH2 0x45A8 SWAP5 SWAP4 SWAP3 SWAP2 SWAP1 PUSH2 0x77BD JUMP JUMPDEST PUSH1 0x20 PUSH1 0x40 MLOAD DUP1 DUP4 SUB DUP2 PUSH0 DUP8 GAS CALL SWAP3 POP POP POP DUP1 ISZERO PUSH2 0x45E3 JUMPI POP PUSH1 0x40 MLOAD RETURNDATASIZE PUSH1 0x1F NOT PUSH1 0x1F DUP3 ADD AND DUP3 ADD DUP1 PUSH1 0x40 MSTORE POP DUP2 ADD SWAP1 PUSH2 0x45E0 SWAP2 SWAP1 PUSH2 0x781B JUMP JUMPDEST PUSH1 0x1 JUMPDEST PUSH2 0x4659 JUMPI RETURNDATASIZE DUP1 PUSH0 DUP2 EQ PUSH2 0x4611 JUMPI PUSH1 0x40 MLOAD SWAP2 POP PUSH1 0x1F NOT PUSH1 0x3F RETURNDATASIZE ADD AND DUP3 ADD PUSH1 0x40 MSTORE RETURNDATASIZE DUP3 MSTORE RETURNDATASIZE PUSH0 PUSH1 0x20 DUP5 ADD RETURNDATACOPY PUSH2 0x4616 JUMP JUMPDEST PUSH1 0x60 SWAP2 POP JUMPDEST POP PUSH0 DUP2 MLOAD SUB PUSH2 0x4651 JUMPI PUSH1 0x40 MLOAD PUSH32 0xD1A57ED600000000000000000000000000000000000000000000000000000000 DUP2 MSTORE PUSH1 0x4 ADD PUSH1 0x40 MLOAD DUP1 SWAP2 SUB SWAP1 REVERT JUMPDEST DUP1 MLOAD DUP2 PUSH1 0x20 ADD REVERT JUMPDEST PUSH4 0x150B7A02 PUSH1 0xE0 SHL PUSH28 0xFFFFFFFFFFFFFFFFFFFFFFFFFFFFFFFFFFFFFFFFFFFFFFFFFFFFFFFF NOT AND DUP2 PUSH28 0xFFFFFFFFFFFFFFFFFFFFFFFFFFFFFFFFFFFFFFFFFFFFFFFFFFFFFFFF NOT AND EQ SWAP2 POP POP SWAP5 SWAP4 POP POP POP POP JUMP JUMPDEST PUSH0 PUSH0 PUSH0 PUSH2 0x46B7 PUSH2 0x1ACE JUMP JUMPDEST SWAP1 POP PUSH0 PUSH1 0xC DUP1 SLOAD DUP1 PUSH1 0x20 MUL PUSH1 0x20 ADD PUSH1 0x40 MLOAD SWAP1 DUP2 ADD PUSH1 0x40 MSTORE DUP1 SWAP3 SWAP2 SWAP1 DUP2 DUP2 MSTORE PUSH1 0x20 ADD DUP3 DUP1 SLOAD DUP1 ISZERO PUSH2 0x4704 JUMPI PUSH1 0x20 MUL DUP3 ADD SWAP2 SWAP1 PUSH0 MSTORE PUSH1 0x20 PUSH0 KECCAK256 SWAP1 JUMPDEST DUP2 SLOAD DUP2 MSTORE PUSH1 0x20 ADD SWAP1 PUSH1 0x1 ADD SWAP1 DUP1 DUP4 GT PUSH2 0x46F0 JUMPI JUMPDEST POP POP POP POP POP SWAP1 POP PUSH0 PUSH0 SWAP1 POP JUMPDEST DUP3 DUP2 LT ISZERO PUSH2 0x4776 JUMPI DUP2 DUP2 DUP2 MLOAD DUP2 LT PUSH2 0x472B JUMPI PUSH2 0x472A PUSH2 0x67EB JUMP JUMPDEST JUMPDEST PUSH1 0x20 MUL PUSH1 0x20 ADD ADD MLOAD DUP7 LT ISZERO PUSH2 0x4762 JUMPI DUP1 SWAP4 POP DUP2 DUP2 DUP2 MLOAD DUP2 LT PUSH2 0x4750 JUMPI PUSH2 0x474F PUSH2 0x67EB JUMP JUMPDEST JUMPDEST PUSH1 0x20 MUL PUSH1 0x20 ADD ADD MLOAD SWAP5 POP POP POP POP PUSH2 0x47B4 JUMP JUMPDEST PUSH1 0x1 DUP2 PUSH2 0x476F SWAP2 SWAP1 PUSH2 0x694B JUMP JUMPDEST SWAP1 POP PUSH2 0x4710 JUMP JUMPDEST POP DUP5 PUSH1 0x40 MLOAD PUSH32 0x25E5FDA400000000000000000000000000000000000000000000000000000000 DUP2 MSTORE PUSH1 0x4 ADD PUSH2 0x47AB SWAP2 SWAP1 PUSH2 0x5B36 JUMP JUMPDEST PUSH1 0x40 MLOAD DUP1 SWAP2 SUB SWAP1 REVERT JUMPDEST SWAP2 POP SWAP2 JUMP JUMPDEST PUSH1 0x60 PUSH0 PUSH2 0x47C4 PUSH2 0x1ACE JUMP JUMPDEST SWAP1 POP PUSH0 PUSH1 0xC DUP1 SLOAD DUP1 PUSH1 0x20 MUL PUSH1 0x20 ADD PUSH1 0x40 MLOAD SWAP1 DUP2 ADD PUSH1 0x40 MSTORE DUP1 SWAP3 SWAP2 SWAP1 DUP2 DUP2 MSTORE PUSH1 0x20 ADD DUP3 DUP1 SLOAD DUP1 ISZERO PUSH2 0x4811 JUMPI PUSH1 0x20 MUL DUP3 ADD SWAP2 SWAP1 PUSH0 MSTORE PUSH1 0x20 PUSH0 KECCAK256 SWAP1 JUMPDEST DUP2 SLOAD DUP2 MSTORE PUSH1 0x20 ADD SWAP1 PUSH1 0x1 ADD SWAP1 DUP1 DUP4 GT PUSH2 0x47FD JUMPI JUMPDEST POP POP POP POP POP SWAP1 POP PUSH0 PUSH0 SWAP1 POP JUMPDEST DUP3 DUP2 LT ISZERO PUSH2 0x4917 JUMPI DUP2 DUP2 DUP2 MLOAD DUP2 LT PUSH2 0x4838 JUMPI PUSH2 0x4837 PUSH2 0x67EB JUMP JUMPDEST JUMPDEST PUSH1 0x20 MUL PUSH1 0x20 ADD ADD MLOAD DUP6 LT ISZERO PUSH2 0x4903 JUMPI PUSH1 0xD PUSH0 DUP4 DUP4 DUP2 MLOAD DUP2 LT PUSH2 0x485D JUMPI PUSH2 0x485C PUSH2 0x67EB JUMP JUMPDEST JUMPDEST PUSH1 0x20 MUL PUSH1 0x20 ADD ADD MLOAD DUP2 MSTORE PUSH1 0x20 ADD SWAP1 DUP2 MSTORE PUSH1 0x20 ADD PUSH0 KECCAK256 DUP1 SLOAD PUSH2 0x487D SWAP1 PUSH2 0x67BB JUMP JUMPDEST DUP1 PUSH1 0x1F ADD PUSH1 0x20 DUP1 SWAP2 DIV MUL PUSH1 0x20 ADD PUSH1 0x40 MLOAD SWAP1 DUP2 ADD PUSH1 0x40 MSTORE DUP1 SWAP3 SWAP2 SWAP1 DUP2 DUP2 MSTORE PUSH1 0x20 ADD DUP3 DUP1 SLOAD PUSH2 0x48A9 SWAP1 PUSH2 0x67BB JUMP JUMPDEST DUP1 ISZERO PUSH2 0x48F4 JUMPI DUP1 PUSH1 0x1F LT PUSH2 0x48CB JUMPI PUSH2 0x100 DUP1 DUP4 SLOAD DIV MUL DUP4 MSTORE SWAP2 PUSH1 0x20 ADD SWAP2 PUSH2 0x48F4 JUMP JUMPDEST DUP3 ADD SWAP2 SWAP1 PUSH0 MSTORE PUSH1 0x20 PUSH0 KECCAK256 SWAP1 JUMPDEST DUP2 SLOAD DUP2 MSTORE SWAP1 PUSH1 0x1 ADD SWAP1 PUSH1 0x20 ADD DUP1 DUP4 GT PUSH2 0x48D7 JUMPI DUP3 SWAP1 SUB PUSH1 0x1F AND DUP3 ADD SWAP2 JUMPDEST POP POP POP POP POP SWAP4 POP POP POP POP PUSH2 0x4955 JUMP JUMPDEST PUSH1 0x1 DUP2 PUSH2 0x4910 SWAP2 SWAP1 PUSH2 0x694B JUMP JUMPDEST SWAP1 POP PUSH2 0x481D JUMP JUMPDEST POP DUP4 PUSH1 0x40 MLOAD PUSH32 0x25E5FDA400000000000000000000000000000000000000000000000000000000 DUP2 MSTORE PUSH1 0x4 ADD PUSH2 0x494C SWAP2 SWAP1 PUSH2 0x5B36 JUMP JUMPDEST PUSH1 0x40 MLOAD DUP1 SWAP2 SUB SWAP1 REVERT JUMPDEST SWAP2 SWAP1 POP JUMP JUMPDEST PUSH1 0x60 PUSH0 DUP3 SUB PUSH2 0x49A0 JUMPI PUSH1 0x40 MLOAD DUP1 PUSH1 0x40 ADD PUSH1 0x40 MSTORE DUP1 PUSH1 0x1 DUP2 MSTORE PUSH1 0x20 ADD PUSH32 0x3000000000000000000000000000000000000000000000000000000000000000 DUP2 MSTORE POP SWAP1 POP PUSH2 0x4AAE JUMP JUMPDEST PUSH0 DUP3 SWAP1 POP PUSH0 JUMPDEST PUSH0 DUP3 EQ PUSH2 0x49CF JUMPI DUP1 DUP1 PUSH2 0x49B8 SWAP1 PUSH2 0x6AB6 JUMP JUMPDEST SWAP2 POP POP PUSH1 0xA DUP3 PUSH2 0x49C8 SWAP2 SWAP1 PUSH2 0x68B3 JUMP JUMPDEST SWAP2 POP PUSH2 0x49A6 JUMP JUMPDEST PUSH0 DUP2 PUSH8 0xFFFFFFFFFFFFFFFF DUP2 GT ISZERO PUSH2 0x49EA JUMPI PUSH2 0x49E9 PUSH2 0x5DDE JUMP JUMPDEST JUMPDEST PUSH1 0x40 MLOAD SWAP1 DUP1 DUP3 MSTORE DUP1 PUSH1 0x1F ADD PUSH1 0x1F NOT AND PUSH1 0x20 ADD DUP3 ADD PUSH1 0x40 MSTORE DUP1 ISZERO PUSH2 0x4A1C JUMPI DUP2 PUSH1 0x20 ADD PUSH1 0x1 DUP3 MUL DUP1 CALLDATASIZE DUP4 CALLDATACOPY DUP1 DUP3 ADD SWAP2 POP POP SWAP1 POP JUMPDEST POP SWAP1 POP JUMPDEST PUSH0 DUP6 EQ PUSH2 0x4AA7 JUMPI PUSH1 0x1 DUP3 PUSH2 0x4A34 SWAP2 SWAP1 PUSH2 0x7846 JUMP JUMPDEST SWAP2 POP PUSH1 0xA DUP6 PUSH2 0x4A43 SWAP2 SWAP1 PUSH2 0x7879 JUMP JUMPDEST PUSH1 0x30 PUSH2 0x4A4F SWAP2 SWAP1 PUSH2 0x694B JUMP JUMPDEST PUSH1 0xF8 SHL DUP2 DUP4 DUP2 MLOAD DUP2 LT PUSH2 0x4A65 JUMPI PUSH2 0x4A64 PUSH2 0x67EB JUMP JUMPDEST JUMPDEST PUSH1 0x20 ADD ADD SWAP1 PUSH31 0xFFFFFFFFFFFFFFFFFFFFFFFFFFFFFFFFFFFFFFFFFFFFFFFFFFFFFFFFFFFFFF NOT AND SWAP1 DUP2 PUSH0 BYTE SWAP1 MSTORE8 POP PUSH1 0xA DUP6 PUSH2 0x4AA0 SWAP2 SWAP1 PUSH2 0x68B3 JUMP JUMPDEST SWAP5 POP PUSH2 0x4A20 JUMP JUMPDEST DUP1 SWAP4 POP POP POP POP JUMPDEST SWAP2 SWAP1 POP JUMP JUMPDEST PUSH0 PUSH2 0x4ABC PUSH2 0x1D5C JUMP JUMPDEST PUSH20 0xFFFFFFFFFFFFFFFFFFFFFFFFFFFFFFFFFFFFFFFF AND CALLER PUSH20 0xFFFFFFFFFFFFFFFFFFFFFFFFFFFFFFFFFFFFFFFF AND EQ SWAP1 POP SWAP1 JUMP JUMPDEST DUP1 PUSH1 0x11 PUSH0 DUP5 DUP2 MSTORE PUSH1 0x20 ADD SWAP1 DUP2 MSTORE PUSH1 0x20 ADD PUSH0 KECCAK256 SWAP1 DUP2 PUSH2 0x4B0D SWAP2 SWAP1 PUSH2 0x7901 JUMP JUMPDEST POP POP POP JUMP JUMPDEST PUSH1 0xE PUSH0 DUP4 DUP2 MSTORE PUSH1 0x20 ADD SWAP1 DUP2 MSTORE PUSH1 0x20 ADD PUSH0 KECCAK256 PUSH0 SWAP1 SLOAD SWAP1 PUSH2 0x100 EXP SWAP1 DIV PUSH1 0xFF AND ISZERO PUSH2 0x4B72 JUMPI DUP2 PUSH1 0x40 MLOAD PUSH32 0xBA0F359200000000000000000000000000000000000000000000000000000000 DUP2 MSTORE PUSH1 0x4 ADD PUSH2 0x4B69 SWAP2 SWAP1 PUSH2 0x5B36 JUMP JUMPDEST PUSH1 0x40 MLOAD DUP1 SWAP2 SUB SWAP1 REVERT JUMPDEST DUP1 PUSH1 0xD PUSH0 DUP5 DUP2 MSTORE PUSH1 0x20 ADD SWAP1 DUP2 MSTORE PUSH1 0x20 ADD PUSH0 KECCAK256 SWAP1 DUP2 PUSH2 0x4B90 SWAP2 SWAP1 PUSH2 0x6D9B JUMP JUMPDEST POP PUSH32 0x6BD5C950A8D8DF17F772F5AF37CB3655737899CBF903264B9795592DA439661C PUSH2 0x4BBB DUP4 PUSH2 0x4EC9 JUMP JUMPDEST DUP4 PUSH1 0x40 MLOAD PUSH2 0x4BCA SWAP3 SWAP2 SWAP1 PUSH2 0x75C9 JUMP JUMPDEST PUSH1 0x40 MLOAD DUP1 SWAP2 SUB SWAP1 LOG1 POP POP JUMP JUMPDEST PUSH0 PUSH2 0x4BDF PUSH2 0x4FE9 JUMP JUMPDEST PUSH2 0x4C15 JUMPI PUSH1 0x40 MLOAD PUSH32 0xF409EC7300000000000000000000000000000000000000000000000000000000 DUP2 MSTORE PUSH1 0x4 ADD PUSH1 0x40 MLOAD DUP1 SWAP2 SUB SWAP1 REVERT JUMPDEST PUSH0 DUP7 SUB PUSH2 0x4C4E JUMPI PUSH1 0x40 MLOAD PUSH32 0x8FD36A9B00000000000000000000000000000000000000000000000000000000 DUP2 MSTORE PUSH1 0x4 ADD PUSH1 0x40 MLOAD DUP1 SWAP2 SUB SWAP1 REVERT JUMPDEST PUSH0 PUSH1 0x10 SLOAD SWAP1 POP PUSH2 0x4CA2 DUP2 DUP9 DUP9 DUP9 DUP1 DUP1 PUSH1 0x1F ADD PUSH1 0x20 DUP1 SWAP2 DIV MUL PUSH1 0x20 ADD PUSH1 0x40 MLOAD SWAP1 DUP2 ADD PUSH1 0x40 MSTORE DUP1 SWAP4 SWAP3 SWAP2 SWAP1 DUP2 DUP2 MSTORE PUSH1 0x20 ADD DUP4 DUP4 DUP1 DUP3 DUP5 CALLDATACOPY PUSH0 DUP2 DUP5 ADD MSTORE PUSH1 0x1F NOT PUSH1 0x1F DUP3 ADD AND SWAP1 POP DUP1 DUP4 ADD SWAP3 POP POP POP POP POP POP POP PUSH2 0x5025 JUMP JUMPDEST PUSH1 0x10 PUSH0 DUP3 SWAP6 POP DUP4 SWAP2 SWAP1 POP SSTORE POP POP DUP1 PUSH32 0x2A0365091EF1A40953C670DCE28177E37520648A6FDC91506BFFAC0AB045570D PUSH1 0x1 DUP10 DUP5 PUSH2 0x4CDF SWAP2 SWAP1 PUSH2 0x694B JUMP JUMPDEST PUSH2 0x4CE9 SWAP2 SWAP1 PUSH2 0x7846 JUMP JUMPDEST DUP9 DUP9 DUP9 DUP9 PUSH1 0x40 MLOAD PUSH2 0x4CFE SWAP6 SWAP5 SWAP4 SWAP3 SWAP2 SWAP1 PUSH2 0x7A28 JUMP JUMPDEST PUSH1 0x40 MLOAD DUP1 SWAP2 SUB SWAP1 LOG2 POP SWAP6 SWAP5 POP POP POP POP POP JUMP JUMPDEST PUSH0 PUSH0 PUSH0 DUP4 SWAP1 POP PUSH0 PUSH0 SWAP1 POP PUSH0 PUSH0 SWAP1 POP JUMPDEST DUP9 DUP9 SWAP1 POP DUP2 LT ISZERO PUSH2 0x4D98 JUMPI PUSH1 0x2 DUP3 PUSH2 0x4D37 SWAP2 SWAP1 PUSH2 0x6845 JUMP JUMPDEST SWAP2 POP PUSH0 DUP10 DUP10 DUP4 DUP2 DUP2 LT PUSH2 0x4D4D JUMPI PUSH2 0x4D4C PUSH2 0x67EB JUMP JUMPDEST JUMPDEST SWAP1 POP PUSH1 0x20 MUL ADD CALLDATALOAD SWAP1 POP DUP1 DUP5 GT PUSH2 0x4D6E JUMPI PUSH2 0x4D67 DUP5 DUP3 PUSH2 0x5085 JUMP JUMPDEST SWAP4 POP PUSH2 0x4D8A JUMP JUMPDEST PUSH2 0x4D78 DUP2 DUP6 PUSH2 0x5085 JUMP JUMPDEST SWAP4 POP PUSH1 0x1 DUP4 PUSH2 0x4D87 SWAP2 SWAP1 PUSH2 0x694B JUMP JUMPDEST SWAP3 POP JUMPDEST POP DUP1 DUP1 PUSH1 0x1 ADD SWAP2 POP POP PUSH2 0x4D1F JUMP JUMPDEST POP DUP6 DUP3 EQ DUP2 SWAP4 POP SWAP4 POP POP POP SWAP5 POP SWAP5 SWAP3 POP POP POP JUMP JUMPDEST POP POP POP POP JUMP JUMPDEST POP POP POP POP JUMP JUMPDEST PUSH0 DUP2 SUB ISZERO PUSH2 0x4E24 JUMPI PUSH20 0xEEEEEEEEEEEEEEEEEEEEEEEEEEEEEEEEEEEEEEEE PUSH20 0xFFFFFFFFFFFFFFFFFFFFFFFFFFFFFFFFFFFFFFFF AND DUP5 PUSH20 0xFFFFFFFFFFFFFFFFFFFFFFFFFFFFFFFFFFFFFFFF AND SUB PUSH2 0x4E16 JUMPI PUSH2 0x4E11 DUP3 DUP3 PUSH2 0x5099 JUMP JUMPDEST PUSH2 0x4E23 JUMP JUMPDEST PUSH2 0x4E22 DUP5 DUP5 DUP5 DUP5 PUSH2 0x514A JUMP JUMPDEST JUMPDEST JUMPDEST POP POP POP POP JUMP JUMPDEST PUSH2 0x4E43 DUP3 DUP3 PUSH1 0x40 MLOAD DUP1 PUSH1 0x20 ADD PUSH1 0x40 MSTORE DUP1 PUSH0 DUP2 MSTORE POP PUSH2 0x5216 JUMP JUMPDEST POP POP JUMP JUMPDEST PUSH1 0x60 PUSH0 PUSH0 DUP6 PUSH20 0xFFFFFFFFFFFFFFFFFFFFFFFFFFFFFFFFFFFFFFFF AND DUP6 PUSH1 0x40 MLOAD PUSH2 0x4E70 SWAP2 SWAP1 PUSH2 0x7A9F JUMP JUMPDEST PUSH0 PUSH1 0x40 MLOAD DUP1 DUP4 SUB DUP2 DUP6 GAS DELEGATECALL SWAP2 POP POP RETURNDATASIZE DUP1 PUSH0 DUP2 EQ PUSH2 0x4EA8 JUMPI PUSH1 0x40 MLOAD SWAP2 POP PUSH1 0x1F NOT PUSH1 0x3F RETURNDATASIZE ADD AND DUP3 ADD PUSH1 0x40 MSTORE RETURNDATASIZE DUP3 MSTORE RETURNDATASIZE PUSH0 PUSH1 0x20 DUP5 ADD RETURNDATACOPY PUSH2 0x4EAD JUMP JUMPDEST PUSH1 0x60 SWAP2 POP JUMPDEST POP SWAP2 POP SWAP2 POP PUSH2 0x4EBE DUP7 DUP4 DUP4 DUP8 PUSH2 0x55BB JUMP JUMPDEST SWAP3 POP POP POP SWAP4 SWAP3 POP POP POP JUMP JUMPDEST PUSH0 PUSH0 PUSH2 0x4ED3 PUSH2 0x1ACE JUMP JUMPDEST SWAP1 POP PUSH0 PUSH1 0xC DUP1 SLOAD DUP1 PUSH1 0x20 MUL PUSH1 0x20 ADD PUSH1 0x40 MLOAD SWAP1 DUP2 ADD PUSH1 0x40 MSTORE DUP1 SWAP3 SWAP2 SWAP1 DUP2 DUP2 MSTORE PUSH1 0x20 ADD DUP3 DUP1 SLOAD DUP1 ISZERO PUSH2 0x4F20 JUMPI PUSH1 0x20 MUL DUP3 ADD SWAP2 SWAP1 PUSH0 MSTORE PUSH1 0x20 PUSH0 KECCAK256 SWAP1 JUMPDEST DUP2 SLOAD DUP2 MSTORE PUSH1 0x20 ADD SWAP1 PUSH1 0x1 ADD SWAP1 DUP1 DUP4 GT PUSH2 0x4F0C JUMPI JUMPDEST POP POP POP POP POP SWAP1 POP PUSH0 PUSH0 SWAP1 POP JUMPDEST DUP3 DUP2 LT ISZERO PUSH2 0x4FA6 JUMPI DUP2 DUP2 DUP2 MLOAD DUP2 LT PUSH2 0x4F47 JUMPI PUSH2 0x4F46 PUSH2 0x67EB JUMP JUMPDEST JUMPDEST PUSH1 0x20 MUL PUSH1 0x20 ADD ADD MLOAD DUP6 SUB PUSH2 0x4F99 JUMPI PUSH0 DUP2 GT ISZERO PUSH2 0x4F8E JUMPI DUP2 PUSH1 0x1 DUP3 PUSH2 0x4F6B SWAP2 SWAP1 PUSH2 0x7846 JUMP JUMPDEST DUP2 MLOAD DUP2 LT PUSH2 0x4F7C JUMPI PUSH2 0x4F7B PUSH2 0x67EB JUMP JUMPDEST JUMPDEST PUSH1 0x20 MUL PUSH1 0x20 ADD ADD MLOAD SWAP4 POP POP POP POP PUSH2 0x4FE4 JUMP JUMPDEST PUSH0 SWAP4 POP POP POP POP PUSH2 0x4FE4 JUMP JUMPDEST DUP1 DUP1 PUSH1 0x1 ADD SWAP2 POP POP PUSH2 0x4F2C JUMP JUMPDEST POP DUP4 PUSH1 0x40 MLOAD PUSH32 0xF2624EE00000000000000000000000000000000000000000000000000000000 DUP2 MSTORE PUSH1 0x4 ADD PUSH2 0x4FDB SWAP2 SWAP1 PUSH2 0x5B36 JUMP JUMPDEST PUSH1 0x40 MLOAD DUP1 SWAP2 SUB SWAP1 REVERT JUMPDEST SWAP2 SWAP1 POP JUMP JUMPDEST PUSH0 PUSH2 0x4FF2 PUSH2 0x1D5C JUMP JUMPDEST PUSH20 0xFFFFFFFFFFFFFFFFFFFFFFFFFFFFFFFFFFFFFFFF AND CALLER PUSH20 0xFFFFFFFFFFFFFFFFFFFFFFFFFFFFFFFFFFFFFFFF AND EQ SWAP1 POP SWAP1 JUMP JUMPDEST PUSH0 PUSH0 DUP4 DUP6 PUSH2 0x5033 SWAP2 SWAP1 PUSH2 0x694B JUMP JUMPDEST SWAP1 POP DUP1 SWAP2 POP PUSH1 0xC DUP2 SWAP1 DUP1 PUSH1 0x1 DUP2 SLOAD ADD DUP1 DUP3 SSTORE DUP1 SWAP2 POP POP PUSH1 0x1 SWAP1 SUB SWAP1 PUSH0 MSTORE PUSH1 0x20 PUSH0 KECCAK256 ADD PUSH0 SWAP1 SWAP2 SWAP1 SWAP2 SWAP1 SWAP2 POP SSTORE DUP3 PUSH1 0xD PUSH0 DUP4 DUP2 MSTORE PUSH1 0x20 ADD SWAP1 DUP2 MSTORE PUSH1 0x20 ADD PUSH0 KECCAK256 SWAP1 DUP2 PUSH2 0x507C SWAP2 SWAP1 PUSH2 0x6D9B JUMP JUMPDEST POP SWAP4 POP SWAP4 SWAP2 POP POP JUMP JUMPDEST PUSH0 DUP3 PUSH0 MSTORE DUP2 PUSH1 0x20 MSTORE PUSH1 0x40 PUSH0 KECCAK256 SWAP1 POP SWAP3 SWAP2 POP POP JUMP JUMPDEST PUSH0 DUP3 PUSH20 0xFFFFFFFFFFFFFFFFFFFFFFFFFFFFFFFFFFFFFFFF AND DUP3 PUSH1 0x40 MLOAD PUSH2 0x50BE SWAP1 PUSH2 0x7AD8 JUMP JUMPDEST PUSH0 PUSH1 0x40 MLOAD DUP1 DUP4 SUB DUP2 DUP6 DUP8 GAS CALL SWAP3 POP POP POP RETURNDATASIZE DUP1 PUSH0 DUP2 EQ PUSH2 0x50F8 JUMPI PUSH1 0x40 MLOAD SWAP2 POP PUSH1 0x1F NOT PUSH1 0x3F RETURNDATASIZE ADD AND DUP3 ADD PUSH1 0x40 MSTORE RETURNDATASIZE DUP3 MSTORE RETURNDATASIZE PUSH0 PUSH1 0x20 DUP5 ADD RETURNDATACOPY PUSH2 0x50FD JUMP JUMPDEST PUSH1 0x60 SWAP2 POP JUMPDEST POP POP SWAP1 POP DUP1 PUSH2 0x5145 JUMPI DUP3 DUP3 PUSH1 0x40 MLOAD PUSH32 0xBFB89D8200000000000000000000000000000000000000000000000000000000 DUP2 MSTORE PUSH1 0x4 ADD PUSH2 0x513C SWAP3 SWAP2 SWAP1 PUSH2 0x5CC5 JUMP JUMPDEST PUSH1 0x40 MLOAD DUP1 SWAP2 SUB SWAP1 REVERT JUMPDEST POP POP POP JUMP JUMPDEST DUP2 PUSH20 0xFFFFFFFFFFFFFFFFFFFFFFFFFFFFFFFFFFFFFFFF AND DUP4 PUSH20 0xFFFFFFFFFFFFFFFFFFFFFFFFFFFFFFFFFFFFFFFF AND SUB ISZERO PUSH2 0x5210 JUMPI ADDRESS PUSH20 0xFFFFFFFFFFFFFFFFFFFFFFFFFFFFFFFFFFFFFFFF AND DUP4 PUSH20 0xFFFFFFFFFFFFFFFFFFFFFFFFFFFFFFFFFFFFFFFF AND SUB PUSH2 0x51E1 JUMPI PUSH2 0x51DC DUP3 DUP3 DUP7 PUSH20 0xFFFFFFFFFFFFFFFFFFFFFFFFFFFFFFFFFFFFFFFF AND PUSH2 0x562F SWAP1 SWAP3 SWAP2 SWAP1 PUSH4 0xFFFFFFFF AND JUMP JUMPDEST PUSH2 0x520F JUMP JUMPDEST PUSH2 0x520E DUP4 DUP4 DUP4 DUP8 PUSH20 0xFFFFFFFFFFFFFFFFFFFFFFFFFFFFFFFFFFFFFFFF AND PUSH2 0x56B5 SWAP1 SWAP4 SWAP3 SWAP2 SWAP1 PUSH4 0xFFFFFFFF AND JUMP JUMPDEST JUMPDEST JUMPDEST POP POP POP POP JUMP JUMPDEST PUSH0 PUSH0 SLOAD SWAP1 POP PUSH0 PUSH20 0xFFFFFFFFFFFFFFFFFFFFFFFFFFFFFFFFFFFFFFFF AND DUP5 PUSH20 0xFFFFFFFFFFFFFFFFFFFFFFFFFFFFFFFFFFFFFFFF AND SUB PUSH2 0x5280 JUMPI PUSH1 0x40 MLOAD PUSH32 0x2E07630000000000000000000000000000000000000000000000000000000000 DUP2 MSTORE PUSH1 0x4 ADD PUSH1 0x40 MLOAD DUP1 SWAP2 SUB SWAP1 REVERT JUMPDEST PUSH0 DUP4 SUB PUSH2 0x52B9 JUMPI PUSH1 0x40 MLOAD PUSH32 0xB562E8DD00000000000000000000000000000000000000000000000000000000 DUP2 MSTORE PUSH1 0x4 ADD PUSH1 0x40 MLOAD DUP1 SWAP2 SUB SWAP1 REVERT JUMPDEST PUSH2 0x52C5 PUSH0 DUP6 DUP4 DUP7 PUSH2 0x4DAC JUMP JUMPDEST DUP3 PUSH1 0x5 PUSH0 DUP7 PUSH20 0xFFFFFFFFFFFFFFFFFFFFFFFFFFFFFFFFFFFFFFFF AND PUSH20 0xFFFFFFFFFFFFFFFFFFFFFFFFFFFFFFFFFFFFFFFF AND DUP2 MSTORE PUSH1 0x20 ADD SWAP1 DUP2 MSTORE PUSH1 0x20 ADD PUSH0 KECCAK256 PUSH0 ADD PUSH0 DUP3 DUP3 DUP3 SWAP1 SLOAD SWAP1 PUSH2 0x100 EXP SWAP1 DIV PUSH8 0xFFFFFFFFFFFFFFFF AND ADD SWAP3 POP PUSH2 0x100 EXP DUP2 SLOAD DUP2 PUSH8 0xFFFFFFFFFFFFFFFF MUL NOT AND SWAP1 DUP4 PUSH8 0xFFFFFFFFFFFFFFFF AND MUL OR SWAP1 SSTORE POP DUP3 PUSH1 0x5 PUSH0 DUP7 PUSH20 0xFFFFFFFFFFFFFFFFFFFFFFFFFFFFFFFFFFFFFFFF AND PUSH20 0xFFFFFFFFFFFFFFFFFFFFFFFFFFFFFFFFFFFFFFFF AND DUP2 MSTORE PUSH1 0x20 ADD SWAP1 DUP2 MSTORE PUSH1 0x20 ADD PUSH0 KECCAK256 PUSH0 ADD PUSH1 0x8 DUP3 DUP3 DUP3 SWAP1 SLOAD SWAP1 PUSH2 0x100 EXP SWAP1 DIV PUSH8 0xFFFFFFFFFFFFFFFF AND ADD SWAP3 POP PUSH2 0x100 EXP DUP2 SLOAD DUP2 PUSH8 0xFFFFFFFFFFFFFFFF MUL NOT AND SWAP1 DUP4 PUSH8 0xFFFFFFFFFFFFFFFF AND MUL OR SWAP1 SSTORE POP DUP4 PUSH1 0x4 PUSH0 DUP4 DUP2 MSTORE PUSH1 0x20 ADD SWAP1 DUP2 MSTORE PUSH1 0x20 ADD PUSH0 KECCAK256 PUSH0 ADD PUSH0 PUSH2 0x100 EXP DUP2 SLOAD DUP2 PUSH20 0xFFFFFFFFFFFFFFFFFFFFFFFFFFFFFFFFFFFFFFFF MUL NOT AND SWAP1 DUP4 PUSH20 0xFFFFFFFFFFFFFFFFFFFFFFFFFFFFFFFFFFFFFFFF AND MUL OR SWAP1 SSTORE POP TIMESTAMP PUSH1 0x4 PUSH0 DUP4 DUP2 MSTORE PUSH1 0x20 ADD SWAP1 DUP2 MSTORE PUSH1 0x20 ADD PUSH0 KECCAK256 PUSH0 ADD PUSH1 0x14 PUSH2 0x100 EXP DUP2 SLOAD DUP2 PUSH8 0xFFFFFFFFFFFFFFFF MUL NOT AND SWAP1 DUP4 PUSH8 0xFFFFFFFFFFFFFFFF AND MUL OR SWAP1 SSTORE POP PUSH0 DUP2 SWAP1 POP PUSH0 DUP5 DUP3 ADD SWAP1 POP PUSH2 0x5476 DUP7 PUSH20 0xFFFFFFFFFFFFFFFFFFFFFFFFFFFFFFFFFFFFFFFF AND PUSH2 0x453F JUMP JUMPDEST ISZERO PUSH2 0x5537 JUMPI JUMPDEST DUP2 DUP7 PUSH20 0xFFFFFFFFFFFFFFFFFFFFFFFFFFFFFFFFFFFFFFFF AND PUSH0 PUSH20 0xFFFFFFFFFFFFFFFFFFFFFFFFFFFFFFFFFFFFFFFF AND PUSH32 0xDDF252AD1BE2C89B69C2B068FC378DAA952BA7F163C4A11628F55A4DF523B3EF PUSH1 0x40 MLOAD PUSH1 0x40 MLOAD DUP1 SWAP2 SUB SWAP1 LOG4 PUSH2 0x54E9 PUSH0 DUP8 DUP5 DUP1 PUSH1 0x1 ADD SWAP6 POP DUP8 PUSH2 0x4561 JUMP JUMPDEST PUSH2 0x551F JUMPI PUSH1 0x40 MLOAD PUSH32 0xD1A57ED600000000000000000000000000000000000000000000000000000000 DUP2 MSTORE PUSH1 0x4 ADD PUSH1 0x40 MLOAD DUP1 SWAP2 SUB SWAP1 REVERT JUMPDEST DUP1 DUP3 LT PUSH2 0x547C JUMPI DUP3 PUSH0 SLOAD EQ PUSH2 0x5532 JUMPI PUSH0 PUSH0 REVERT JUMPDEST PUSH2 0x55A1 JUMP JUMPDEST JUMPDEST DUP2 DUP1 PUSH1 0x1 ADD SWAP3 POP DUP7 PUSH20 0xFFFFFFFFFFFFFFFFFFFFFFFFFFFFFFFFFFFFFFFF AND PUSH0 PUSH20 0xFFFFFFFFFFFFFFFFFFFFFFFFFFFFFFFFFFFFFFFF AND PUSH32 0xDDF252AD1BE2C89B69C2B068FC378DAA952BA7F163C4A11628F55A4DF523B3EF PUSH1 0x40 MLOAD PUSH1 0x40 MLOAD DUP1 SWAP2 SUB SWAP1 LOG4 DUP1 DUP3 LT PUSH2 0x5538 JUMPI JUMPDEST DUP2 PUSH0 DUP2 SWAP1 SSTORE POP POP POP PUSH2 0x55B5 PUSH0 DUP6 DUP4 DUP7 PUSH2 0x4DB2 JUMP JUMPDEST POP POP POP POP JUMP JUMPDEST PUSH1 0x60 DUP4 ISZERO PUSH2 0x561C JUMPI PUSH0 DUP4 MLOAD SUB PUSH2 0x5614 JUMPI PUSH2 0x55D4 DUP6 PUSH2 0x453F JUMP JUMPDEST PUSH2 0x5613 JUMPI PUSH1 0x40 MLOAD PUSH32 0x8C379A000000000000000000000000000000000000000000000000000000000 DUP2 MSTORE PUSH1 0x4 ADD PUSH2 0x560A SWAP1 PUSH2 0x7B36 JUMP JUMPDEST PUSH1 0x40 MLOAD DUP1 SWAP2 SUB SWAP1 REVERT JUMPDEST JUMPDEST DUP3 SWAP1 POP PUSH2 0x5627 JUMP JUMPDEST PUSH2 0x5626 DUP4 DUP4 PUSH2 0x573E JUMP JUMPDEST JUMPDEST SWAP5 SWAP4 POP POP POP POP JUMP JUMPDEST PUSH2 0x56B0 DUP4 PUSH4 0xA9059CBB PUSH1 0xE0 SHL DUP5 DUP5 PUSH1 0x40 MLOAD PUSH1 0x24 ADD PUSH2 0x564E SWAP3 SWAP2 SWAP1 PUSH2 0x5CC5 JUMP JUMPDEST PUSH1 0x40 MLOAD PUSH1 0x20 DUP2 DUP4 SUB SUB DUP2 MSTORE SWAP1 PUSH1 0x40 MSTORE SWAP1 PUSH28 0xFFFFFFFFFFFFFFFFFFFFFFFFFFFFFFFFFFFFFFFFFFFFFFFFFFFFFFFF NOT AND PUSH1 0x20 DUP3 ADD DUP1 MLOAD PUSH28 0xFFFFFFFFFFFFFFFFFFFFFFFFFFFFFFFFFFFFFFFFFFFFFFFFFFFFFFFF DUP4 DUP2 DUP4 AND OR DUP4 MSTORE POP POP POP POP PUSH2 0x578D JUMP JUMPDEST POP POP POP JUMP JUMPDEST PUSH2 0x5738 DUP5 PUSH4 0x23B872DD PUSH1 0xE0 SHL DUP6 DUP6 DUP6 PUSH1 0x40 MLOAD PUSH1 0x24 ADD PUSH2 0x56D6 SWAP4 SWAP3 SWAP2 SWAP1 PUSH2 0x7B54 JUMP JUMPDEST PUSH1 0x40 MLOAD PUSH1 0x20 DUP2 DUP4 SUB SUB DUP2 MSTORE SWAP1 PUSH1 0x40 MSTORE SWAP1 PUSH28 0xFFFFFFFFFFFFFFFFFFFFFFFFFFFFFFFFFFFFFFFFFFFFFFFFFFFFFFFF NOT AND PUSH1 0x20 DUP3 ADD DUP1 MLOAD PUSH28 0xFFFFFFFFFFFFFFFFFFFFFFFFFFFFFFFFFFFFFFFFFFFFFFFFFFFFFFFF DUP4 DUP2 DUP4 AND OR DUP4 MSTORE POP POP POP POP PUSH2 0x578D JUMP JUMPDEST POP POP POP POP JUMP JUMPDEST PUSH0 DUP3 MLOAD GT ISZERO PUSH2 0x5750 JUMPI DUP2 MLOAD DUP1 DUP4 PUSH1 0x20 ADD REVERT JUMPDEST DUP1 PUSH1 0x40 MLOAD PUSH32 0x8C379A000000000000000000000000000000000000000000000000000000000 DUP2 MSTORE PUSH1 0x4 ADD PUSH2 0x5784 SWAP2 SWAP1 PUSH2 0x5AA6 JUMP JUMPDEST PUSH1 0x40 MLOAD DUP1 SWAP2 SUB SWAP1 REVERT JUMPDEST PUSH0 PUSH2 0x57EE DUP3 PUSH1 0x40 MLOAD DUP1 PUSH1 0x40 ADD PUSH1 0x40 MSTORE DUP1 PUSH1 0x20 DUP2 MSTORE PUSH1 0x20 ADD PUSH32 0x5361666545524332303A206C6F772D6C6576656C2063616C6C206661696C6564 DUP2 MSTORE POP DUP6 PUSH20 0xFFFFFFFFFFFFFFFFFFFFFFFFFFFFFFFFFFFFFFFF AND PUSH2 0x5852 SWAP1 SWAP3 SWAP2 SWAP1 PUSH4 0xFFFFFFFF AND JUMP JUMPDEST SWAP1 POP PUSH0 DUP2 MLOAD GT ISZERO PUSH2 0x584D JUMPI DUP1 DUP1 PUSH1 0x20 ADD SWAP1 MLOAD DUP2 ADD SWAP1 PUSH2 0x580D SWAP2 SWAP1 PUSH2 0x7B9D JUMP JUMPDEST PUSH2 0x584C JUMPI PUSH1 0x40 MLOAD PUSH32 0x8C379A000000000000000000000000000000000000000000000000000000000 DUP2 MSTORE PUSH1 0x4 ADD PUSH2 0x5843 SWAP1 PUSH2 0x7C38 JUMP JUMPDEST PUSH1 0x40 MLOAD DUP1 SWAP2 SUB SWAP1 REVERT JUMPDEST JUMPDEST POP POP POP JUMP JUMPDEST PUSH1 0x60 PUSH2 0x5860 DUP5 DUP5 PUSH0 DUP6 PUSH2 0x5869 JUMP JUMPDEST SWAP1 POP SWAP4 SWAP3 POP POP POP JUMP JUMPDEST PUSH1 0x60 DUP3 SELFBALANCE LT ISZERO PUSH2 0x58AE JUMPI PUSH1 0x40 MLOAD PUSH32 0x8C379A000000000000000000000000000000000000000000000000000000000 DUP2 MSTORE PUSH1 0x4 ADD PUSH2 0x58A5 SWAP1 PUSH2 0x7CC6 JUMP JUMPDEST PUSH1 0x40 MLOAD DUP1 SWAP2 SUB SWAP1 REVERT JUMPDEST PUSH0 PUSH0 DUP7 PUSH20 0xFFFFFFFFFFFFFFFFFFFFFFFFFFFFFFFFFFFFFFFF AND DUP6 DUP8 PUSH1 0x40 MLOAD PUSH2 0x58D6 SWAP2 SWAP1 PUSH2 0x7A9F JUMP JUMPDEST PUSH0 PUSH1 0x40 MLOAD DUP1 DUP4 SUB DUP2 DUP6 DUP8 GAS CALL SWAP3 POP POP POP RETURNDATASIZE DUP1 PUSH0 DUP2 EQ PUSH2 0x5910 JUMPI PUSH1 0x40 MLOAD SWAP2 POP PUSH1 0x1F NOT PUSH1 0x3F RETURNDATASIZE ADD AND DUP3 ADD PUSH1 0x40 MSTORE RETURNDATASIZE DUP3 MSTORE RETURNDATASIZE PUSH0 PUSH1 0x20 DUP5 ADD RETURNDATACOPY PUSH2 0x5915 JUMP JUMPDEST PUSH1 0x60 SWAP2 POP JUMPDEST POP SWAP2 POP SWAP2 POP PUSH2 0x5926 DUP8 DUP4 DUP4 DUP8 PUSH2 0x55BB JUMP JUMPDEST SWAP3 POP POP POP SWAP5 SWAP4 POP POP POP POP JUMP JUMPDEST PUSH1 0x40 MLOAD DUP1 PUSH1 0x60 ADD PUSH1 0x40 MSTORE DUP1 PUSH0 PUSH20 0xFFFFFFFFFFFFFFFFFFFFFFFFFFFFFFFFFFFFFFFF AND DUP2 MSTORE PUSH1 0x20 ADD PUSH0 PUSH8 0xFFFFFFFFFFFFFFFF AND DUP2 MSTORE PUSH1 0x20 ADD PUSH0 ISZERO ISZERO DUP2 MSTORE POP SWAP1 JUMP JUMPDEST PUSH0 PUSH1 0x40 MLOAD SWAP1 POP SWAP1 JUMP JUMPDEST PUSH0 PUSH0 REVERT JUMPDEST PUSH0 PUSH0 REVERT JUMPDEST PUSH0 PUSH32 0xFFFFFFFF00000000000000000000000000000000000000000000000000000000 DUP3 AND SWAP1 POP SWAP2 SWAP1 POP JUMP JUMPDEST PUSH2 0x59B7 DUP2 PUSH2 0x5983 JUMP JUMPDEST DUP2 EQ PUSH2 0x59C1 JUMPI PUSH0 PUSH0 REVERT JUMPDEST POP JUMP JUMPDEST PUSH0 DUP2 CALLDATALOAD SWAP1 POP PUSH2 0x59D2 DUP2 PUSH2 0x59AE JUMP JUMPDEST SWAP3 SWAP2 POP POP JUMP JUMPDEST PUSH0 PUSH1 0x20 DUP3 DUP5 SUB SLT ISZERO PUSH2 0x59ED JUMPI PUSH2 0x59EC PUSH2 0x597B JUMP JUMPDEST JUMPDEST PUSH0 PUSH2 0x59FA DUP5 DUP3 DUP6 ADD PUSH2 0x59C4 JUMP JUMPDEST SWAP2 POP POP SWAP3 SWAP2 POP POP JUMP JUMPDEST PUSH0 DUP2 ISZERO ISZERO SWAP1 POP SWAP2 SWAP1 POP JUMP JUMPDEST PUSH2 0x5A17 DUP2 PUSH2 0x5A03 JUMP JUMPDEST DUP3 MSTORE POP POP JUMP JUMPDEST PUSH0 PUSH1 0x20 DUP3 ADD SWAP1 POP PUSH2 0x5A30 PUSH0 DUP4 ADD DUP5 PUSH2 0x5A0E JUMP JUMPDEST SWAP3 SWAP2 POP POP JUMP JUMPDEST PUSH0 DUP2 MLOAD SWAP1 POP SWAP2 SWAP1 POP JUMP JUMPDEST PUSH0 DUP3 DUP3 MSTORE PUSH1 0x20 DUP3 ADD SWAP1 POP SWAP3 SWAP2 POP POP JUMP JUMPDEST DUP3 DUP2 DUP4 MCOPY PUSH0 DUP4 DUP4 ADD MSTORE POP POP POP JUMP JUMPDEST PUSH0 PUSH1 0x1F NOT PUSH1 0x1F DUP4 ADD AND SWAP1 POP SWAP2 SWAP1 POP JUMP JUMPDEST PUSH0 PUSH2 0x5A78 DUP3 PUSH2 0x5A36 JUMP JUMPDEST PUSH2 0x5A82 DUP2 DUP6 PUSH2 0x5A40 JUMP JUMPDEST SWAP4 POP PUSH2 0x5A92 DUP2 DUP6 PUSH1 0x20 DUP7 ADD PUSH2 0x5A50 JUMP JUMPDEST PUSH2 0x5A9B DUP2 PUSH2 0x5A5E JUMP JUMPDEST DUP5 ADD SWAP2 POP POP SWAP3 SWAP2 POP POP JUMP JUMPDEST PUSH0 PUSH1 0x20 DUP3 ADD SWAP1 POP DUP2 DUP2 SUB PUSH0 DUP4 ADD MSTORE PUSH2 0x5ABE DUP2 DUP5 PUSH2 0x5A6E JUMP JUMPDEST SWAP1 POP SWAP3 SWAP2 POP POP JUMP JUMPDEST PUSH0 PUSH20 0xFFFFFFFFFFFFFFFFFFFFFFFFFFFFFFFFFFFFFFFF DUP3 AND SWAP1 POP SWAP2 SWAP1 POP JUMP JUMPDEST PUSH0 PUSH2 0x5AEF DUP3 PUSH2 0x5AC6 JUMP JUMPDEST SWAP1 POP SWAP2 SWAP1 POP JUMP JUMPDEST PUSH2 0x5AFF DUP2 PUSH2 0x5AE5 JUMP JUMPDEST DUP3 MSTORE POP POP JUMP JUMPDEST PUSH0 PUSH1 0x20 DUP3 ADD SWAP1 POP PUSH2 0x5B18 PUSH0 DUP4 ADD DUP5 PUSH2 0x5AF6 JUMP JUMPDEST SWAP3 SWAP2 POP POP JUMP JUMPDEST PUSH0 DUP2 SWAP1 POP SWAP2 SWAP1 POP JUMP JUMPDEST PUSH2 0x5B30 DUP2 PUSH2 0x5B1E JUMP JUMPDEST DUP3 MSTORE POP POP JUMP JUMPDEST PUSH0 PUSH1 0x20 DUP3 ADD SWAP1 POP PUSH2 0x5B49 PUSH0 DUP4 ADD DUP5 PUSH2 0x5B27 JUMP JUMPDEST SWAP3 SWAP2 POP POP JUMP JUMPDEST PUSH2 0x5B58 DUP2 PUSH2 0x5B1E JUMP JUMPDEST DUP2 EQ PUSH2 0x5B62 JUMPI PUSH0 PUSH0 REVERT JUMPDEST POP JUMP JUMPDEST PUSH0 DUP2 CALLDATALOAD SWAP1 POP PUSH2 0x5B73 DUP2 PUSH2 0x5B4F JUMP JUMPDEST SWAP3 SWAP2 POP POP JUMP JUMPDEST PUSH0 PUSH1 0x20 DUP3 DUP5 SUB SLT ISZERO PUSH2 0x5B8E JUMPI PUSH2 0x5B8D PUSH2 0x597B JUMP JUMPDEST JUMPDEST PUSH0 PUSH2 0x5B9B DUP5 DUP3 DUP6 ADD PUSH2 0x5B65 JUMP JUMPDEST SWAP2 POP POP SWAP3 SWAP2 POP POP JUMP JUMPDEST PUSH2 0x5BAD DUP2 PUSH2 0x5AE5 JUMP JUMPDEST DUP2 EQ PUSH2 0x5BB7 JUMPI PUSH0 PUSH0 REVERT JUMPDEST POP JUMP JUMPDEST PUSH0 DUP2 CALLDATALOAD SWAP1 POP PUSH2 0x5BC8 DUP2 PUSH2 0x5BA4 JUMP JUMPDEST SWAP3 SWAP2 POP POP JUMP JUMPDEST PUSH0 PUSH0 PUSH1 0x40 DUP4 DUP6 SUB SLT ISZERO PUSH2 0x5BE4 JUMPI PUSH2 0x5BE3 PUSH2 0x597B JUMP JUMPDEST JUMPDEST PUSH0 PUSH2 0x5BF1 DUP6 DUP3 DUP7 ADD PUSH2 0x5BBA JUMP JUMPDEST SWAP3 POP POP PUSH1 0x20 PUSH2 0x5C02 DUP6 DUP3 DUP7 ADD PUSH2 0x5B65 JUMP JUMPDEST SWAP2 POP POP SWAP3 POP SWAP3 SWAP1 POP JUMP JUMPDEST PUSH0 PUSH1 0x20 DUP3 DUP5 SUB SLT ISZERO PUSH2 0x5C21 JUMPI PUSH2 0x5C20 PUSH2 0x597B JUMP JUMPDEST JUMPDEST PUSH0 PUSH2 0x5C2E DUP5 DUP3 DUP6 ADD PUSH2 0x5BBA JUMP JUMPDEST SWAP2 POP POP SWAP3 SWAP2 POP POP JUMP JUMPDEST PUSH0 PUSH0 PUSH0 PUSH1 0x60 DUP5 DUP7 SUB SLT ISZERO PUSH2 0x5C4E JUMPI PUSH2 0x5C4D PUSH2 0x597B JUMP JUMPDEST JUMPDEST PUSH0 PUSH2 0x5C5B DUP7 DUP3 DUP8 ADD PUSH2 0x5BBA JUMP JUMPDEST SWAP4 POP POP PUSH1 0x20 PUSH2 0x5C6C DUP7 DUP3 DUP8 ADD PUSH2 0x5BBA JUMP JUMPDEST SWAP3 POP POP PUSH1 0x40 PUSH2 0x5C7D DUP7 DUP3 DUP8 ADD PUSH2 0x5B65 JUMP JUMPDEST SWAP2 POP POP SWAP3 POP SWAP3 POP SWAP3 JUMP JUMPDEST PUSH0 PUSH0 PUSH1 0x40 DUP4 DUP6 SUB SLT ISZERO PUSH2 0x5C9D JUMPI PUSH2 0x5C9C PUSH2 0x597B JUMP JUMPDEST JUMPDEST PUSH0 PUSH2 0x5CAA DUP6 DUP3 DUP7 ADD PUSH2 0x5B65 JUMP JUMPDEST SWAP3 POP POP PUSH1 0x20 PUSH2 0x5CBB DUP6 DUP3 DUP7 ADD PUSH2 0x5B65 JUMP JUMPDEST SWAP2 POP POP SWAP3 POP SWAP3 SWAP1 POP JUMP JUMPDEST PUSH0 PUSH1 0x40 DUP3 ADD SWAP1 POP PUSH2 0x5CD8 PUSH0 DUP4 ADD DUP6 PUSH2 0x5AF6 JUMP JUMPDEST PUSH2 0x5CE5 PUSH1 0x20 DUP4 ADD DUP5 PUSH2 0x5B27 JUMP JUMPDEST SWAP4 SWAP3 POP POP POP JUMP JUMPDEST PUSH0 PUSH0 REVERT JUMPDEST PUSH0 PUSH2 0x100 DUP3 DUP5 SUB SLT ISZERO PUSH2 0x5D06 JUMPI PUSH2 0x5D05 PUSH2 0x5CEC JUMP JUMPDEST JUMPDEST DUP2 SWAP1 POP SWAP3 SWAP2 POP POP JUMP JUMPDEST PUSH2 0x5D18 DUP2 PUSH2 0x5A03 JUMP JUMPDEST DUP2 EQ PUSH2 0x5D22 JUMPI PUSH0 PUSH0 REVERT JUMPDEST POP JUMP JUMPDEST PUSH0 DUP2 CALLDATALOAD SWAP1 POP PUSH2 0x5D33 DUP2 PUSH2 0x5D0F JUMP JUMPDEST SWAP3 SWAP2 POP POP JUMP JUMPDEST PUSH0 PUSH0 PUSH1 0x40 DUP4 DUP6 SUB SLT ISZERO PUSH2 0x5D4F JUMPI PUSH2 0x5D4E PUSH2 0x597B JUMP JUMPDEST JUMPDEST PUSH0 DUP4 ADD CALLDATALOAD PUSH8 0xFFFFFFFFFFFFFFFF DUP2 GT ISZERO PUSH2 0x5D6C JUMPI PUSH2 0x5D6B PUSH2 0x597F JUMP JUMPDEST JUMPDEST PUSH2 0x5D78 DUP6 DUP3 DUP7 ADD PUSH2 0x5CF0 JUMP JUMPDEST SWAP3 POP POP PUSH1 0x20 PUSH2 0x5D89 DUP6 DUP3 DUP7 ADD PUSH2 0x5D25 JUMP JUMPDEST SWAP2 POP POP SWAP3 POP SWAP3 SWAP1 POP JUMP JUMPDEST PUSH0 PUSH2 0xFFFF DUP3 AND SWAP1 POP SWAP2 SWAP1 POP JUMP JUMPDEST PUSH2 0x5DA9 DUP2 PUSH2 0x5D93 JUMP JUMPDEST DUP3 MSTORE POP POP JUMP JUMPDEST PUSH0 PUSH1 0x40 DUP3 ADD SWAP1 POP PUSH2 0x5DC2 PUSH0 DUP4 ADD DUP6 PUSH2 0x5AF6 JUMP JUMPDEST PUSH2 0x5DCF PUSH1 0x20 DUP4 ADD DUP5 PUSH2 0x5DA0 JUMP JUMPDEST SWAP4 SWAP3 POP POP POP JUMP JUMPDEST PUSH0 PUSH0 REVERT JUMPDEST PUSH0 PUSH0 REVERT JUMPDEST PUSH32 0x4E487B7100000000000000000000000000000000000000000000000000000000 PUSH0 MSTORE PUSH1 0x41 PUSH1 0x4 MSTORE PUSH1 0x24 PUSH0 REVERT JUMPDEST PUSH2 0x5E14 DUP3 PUSH2 0x5A5E JUMP JUMPDEST DUP2 ADD DUP2 DUP2 LT PUSH8 0xFFFFFFFFFFFFFFFF DUP3 GT OR ISZERO PUSH2 0x5E33 JUMPI PUSH2 0x5E32 PUSH2 0x5DDE JUMP JUMPDEST JUMPDEST DUP1 PUSH1 0x40 MSTORE POP POP POP JUMP JUMPDEST PUSH0 PUSH2 0x5E45 PUSH2 0x5972 JUMP JUMPDEST SWAP1 POP PUSH2 0x5E51 DUP3 DUP3 PUSH2 0x5E0B JUMP JUMPDEST SWAP2 SWAP1 POP JUMP JUMPDEST PUSH0 PUSH8 0xFFFFFFFFFFFFFFFF DUP3 GT ISZERO PUSH2 0x5E70 JUMPI PUSH2 0x5E6F PUSH2 0x5DDE JUMP JUMPDEST JUMPDEST PUSH2 0x5E79 DUP3 PUSH2 0x5A5E JUMP JUMPDEST SWAP1 POP PUSH1 0x20 DUP2 ADD SWAP1 POP SWAP2 SWAP1 POP JUMP JUMPDEST DUP3 DUP2 DUP4 CALLDATACOPY PUSH0 DUP4 DUP4 ADD MSTORE POP POP POP JUMP JUMPDEST PUSH0 PUSH2 0x5EA6 PUSH2 0x5EA1 DUP5 PUSH2 0x5E56 JUMP JUMPDEST PUSH2 0x5E3C JUMP JUMPDEST SWAP1 POP DUP3 DUP2 MSTORE PUSH1 0x20 DUP2 ADD DUP5 DUP5 DUP5 ADD GT ISZERO PUSH2 0x5EC2 JUMPI PUSH2 0x5EC1 PUSH2 0x5DDA JUMP JUMPDEST JUMPDEST PUSH2 0x5ECD DUP5 DUP3 DUP6 PUSH2 0x5E86 JUMP JUMPDEST POP SWAP4 SWAP3 POP POP POP JUMP JUMPDEST PUSH0 DUP3 PUSH1 0x1F DUP4 ADD SLT PUSH2 0x5EE9 JUMPI PUSH2 0x5EE8 PUSH2 0x5DD6 JUMP JUMPDEST JUMPDEST DUP2 CALLDATALOAD PUSH2 0x5EF9 DUP5 DUP3 PUSH1 0x20 DUP7 ADD PUSH2 0x5E94 JUMP JUMPDEST SWAP2 POP POP SWAP3 SWAP2 POP POP JUMP JUMPDEST PUSH0 PUSH1 0x20 DUP3 DUP5 SUB SLT ISZERO PUSH2 0x5F17 JUMPI PUSH2 0x5F16 PUSH2 0x597B JUMP JUMPDEST JUMPDEST PUSH0 DUP3 ADD CALLDATALOAD PUSH8 0xFFFFFFFFFFFFFFFF DUP2 GT ISZERO PUSH2 0x5F34 JUMPI PUSH2 0x5F33 PUSH2 0x597F JUMP JUMPDEST JUMPDEST PUSH2 0x5F40 DUP5 DUP3 DUP6 ADD PUSH2 0x5ED5 JUMP JUMPDEST SWAP2 POP POP SWAP3 SWAP2 POP POP JUMP JUMPDEST PUSH0 PUSH1 0x80 DUP3 DUP5 SUB SLT ISZERO PUSH2 0x5F5E JUMPI PUSH2 0x5F5D PUSH2 0x5CEC JUMP JUMPDEST JUMPDEST DUP2 SWAP1 POP SWAP3 SWAP2 POP POP JUMP JUMPDEST PUSH0 PUSH8 0xFFFFFFFFFFFFFFFF DUP3 GT ISZERO PUSH2 0x5F81 JUMPI PUSH2 0x5F80 PUSH2 0x5DDE JUMP JUMPDEST JUMPDEST PUSH2 0x5F8A DUP3 PUSH2 0x5A5E JUMP JUMPDEST SWAP1 POP PUSH1 0x20 DUP2 ADD SWAP1 POP SWAP2 SWAP1 POP JUMP JUMPDEST PUSH0 PUSH2 0x5FA9 PUSH2 0x5FA4 DUP5 PUSH2 0x5F67 JUMP JUMPDEST PUSH2 0x5E3C JUMP JUMPDEST SWAP1 POP DUP3 DUP2 MSTORE PUSH1 0x20 DUP2 ADD DUP5 DUP5 DUP5 ADD GT ISZERO PUSH2 0x5FC5 JUMPI PUSH2 0x5FC4 PUSH2 0x5DDA JUMP JUMPDEST JUMPDEST PUSH2 0x5FD0 DUP5 DUP3 DUP6 PUSH2 0x5E86 JUMP JUMPDEST POP SWAP4 SWAP3 POP POP POP JUMP JUMPDEST PUSH0 DUP3 PUSH1 0x1F DUP4 ADD SLT PUSH2 0x5FEC JUMPI PUSH2 0x5FEB PUSH2 0x5DD6 JUMP JUMPDEST JUMPDEST DUP2 CALLDATALOAD PUSH2 0x5FFC DUP5 DUP3 PUSH1 0x20 DUP7 ADD PUSH2 0x5F97 JUMP JUMPDEST SWAP2 POP POP SWAP3 SWAP2 POP POP JUMP JUMPDEST PUSH0 PUSH0 PUSH0 PUSH0 PUSH0 PUSH0 PUSH1 0xC0 DUP8 DUP10 SUB SLT ISZERO PUSH2 0x601F JUMPI PUSH2 0x601E PUSH2 0x597B JUMP JUMPDEST JUMPDEST PUSH0 PUSH2 0x602C DUP10 DUP3 DUP11 ADD PUSH2 0x5BBA JUMP JUMPDEST SWAP7 POP POP PUSH1 0x20 PUSH2 0x603D DUP10 DUP3 DUP11 ADD PUSH2 0x5B65 JUMP JUMPDEST SWAP6 POP POP PUSH1 0x40 PUSH2 0x604E DUP10 DUP3 DUP11 ADD PUSH2 0x5BBA JUMP JUMPDEST SWAP5 POP POP PUSH1 0x60 PUSH2 0x605F DUP10 DUP3 DUP11 ADD PUSH2 0x5B65 JUMP JUMPDEST SWAP4 POP POP PUSH1 0x80 DUP8 ADD CALLDATALOAD PUSH8 0xFFFFFFFFFFFFFFFF DUP2 GT ISZERO PUSH2 0x6080 JUMPI PUSH2 0x607F PUSH2 0x597F JUMP JUMPDEST JUMPDEST PUSH2 0x608C DUP10 DUP3 DUP11 ADD PUSH2 0x5F49 JUMP JUMPDEST SWAP3 POP POP PUSH1 0xA0 DUP8 ADD CALLDATALOAD PUSH8 0xFFFFFFFFFFFFFFFF DUP2 GT ISZERO PUSH2 0x60AD JUMPI PUSH2 0x60AC PUSH2 0x597F JUMP JUMPDEST JUMPDEST PUSH2 0x60B9 DUP10 DUP3 DUP11 ADD PUSH2 0x5FD8 JUMP JUMPDEST SWAP2 POP POP SWAP3 SWAP6 POP SWAP3 SWAP6 POP SWAP3 SWAP6 JUMP JUMPDEST PUSH0 PUSH0 PUSH0 PUSH1 0x60 DUP5 DUP7 SUB SLT ISZERO PUSH2 0x60DD JUMPI PUSH2 0x60DC PUSH2 0x597B JUMP JUMPDEST JUMPDEST PUSH0 PUSH2 0x60EA DUP7 DUP3 DUP8 ADD PUSH2 0x5B65 JUMP JUMPDEST SWAP4 POP POP PUSH1 0x20 PUSH2 0x60FB DUP7 DUP3 DUP8 ADD PUSH2 0x5BBA JUMP JUMPDEST SWAP3 POP POP PUSH1 0x40 PUSH2 0x610C DUP7 DUP3 DUP8 ADD PUSH2 0x5B65 JUMP JUMPDEST SWAP2 POP POP SWAP3 POP SWAP3 POP SWAP3 JUMP JUMPDEST PUSH0 PUSH0 REVERT JUMPDEST PUSH0 PUSH0 REVERT JUMPDEST PUSH0 PUSH0 DUP4 PUSH1 0x1F DUP5 ADD SLT PUSH2 0x6133 JUMPI PUSH2 0x6132 PUSH2 0x5DD6 JUMP JUMPDEST JUMPDEST DUP3 CALLDATALOAD SWAP1 POP PUSH8 0xFFFFFFFFFFFFFFFF DUP2 GT ISZERO PUSH2 0x6150 JUMPI PUSH2 0x614F PUSH2 0x6116 JUMP JUMPDEST JUMPDEST PUSH1 0x20 DUP4 ADD SWAP2 POP DUP4 PUSH1 0x1 DUP3 MUL DUP4 ADD GT ISZERO PUSH2 0x616C JUMPI PUSH2 0x616B PUSH2 0x611A JUMP JUMPDEST JUMPDEST SWAP3 POP SWAP3 SWAP1 POP JUMP JUMPDEST PUSH0 PUSH0 PUSH0 PUSH1 0x40 DUP5 DUP7 SUB SLT ISZERO PUSH2 0x618A JUMPI PUSH2 0x6189 PUSH2 0x597B JUMP JUMPDEST JUMPDEST PUSH0 PUSH2 0x6197 DUP7 DUP3 DUP8 ADD PUSH2 0x5B65 JUMP JUMPDEST SWAP4 POP POP PUSH1 0x20 DUP5 ADD CALLDATALOAD PUSH8 0xFFFFFFFFFFFFFFFF DUP2 GT ISZERO PUSH2 0x61B8 JUMPI PUSH2 0x61B7 PUSH2 0x597F JUMP JUMPDEST JUMPDEST PUSH2 0x61C4 DUP7 DUP3 DUP8 ADD PUSH2 0x611E JUMP JUMPDEST SWAP3 POP SWAP3 POP POP SWAP3 POP SWAP3 POP SWAP3 JUMP JUMPDEST PUSH0 DUP2 MLOAD SWAP1 POP SWAP2 SWAP1 POP JUMP JUMPDEST PUSH0 DUP3 DUP3 MSTORE PUSH1 0x20 DUP3 ADD SWAP1 POP SWAP3 SWAP2 POP POP JUMP JUMPDEST PUSH0 PUSH2 0x61F4 DUP3 PUSH2 0x61D0 JUMP JUMPDEST PUSH2 0x61FE DUP2 DUP6 PUSH2 0x61DA JUMP JUMPDEST SWAP4 POP PUSH2 0x620E DUP2 DUP6 PUSH1 0x20 DUP7 ADD PUSH2 0x5A50 JUMP JUMPDEST PUSH2 0x6217 DUP2 PUSH2 0x5A5E JUMP JUMPDEST DUP5 ADD SWAP2 POP POP SWAP3 SWAP2 POP POP JUMP JUMPDEST PUSH0 PUSH1 0x20 DUP3 ADD SWAP1 POP DUP2 DUP2 SUB PUSH0 DUP4 ADD MSTORE PUSH2 0x623A DUP2 DUP5 PUSH2 0x61EA JUMP JUMPDEST SWAP1 POP SWAP3 SWAP2 POP POP JUMP JUMPDEST PUSH0 PUSH0 PUSH1 0x40 DUP4 DUP6 SUB SLT ISZERO PUSH2 0x6258 JUMPI PUSH2 0x6257 PUSH2 0x597B JUMP JUMPDEST JUMPDEST PUSH0 PUSH2 0x6265 DUP6 DUP3 DUP7 ADD PUSH2 0x5BBA JUMP JUMPDEST SWAP3 POP POP PUSH1 0x20 PUSH2 0x6276 DUP6 DUP3 DUP7 ADD PUSH2 0x5D25 JUMP JUMPDEST SWAP2 POP POP SWAP3 POP SWAP3 SWAP1 POP JUMP JUMPDEST PUSH0 PUSH0 DUP4 PUSH1 0x1F DUP5 ADD SLT PUSH2 0x6295 JUMPI PUSH2 0x6294 PUSH2 0x5DD6 JUMP JUMPDEST JUMPDEST DUP3 CALLDATALOAD SWAP1 POP PUSH8 0xFFFFFFFFFFFFFFFF DUP2 GT ISZERO PUSH2 0x62B2 JUMPI PUSH2 0x62B1 PUSH2 0x6116 JUMP JUMPDEST JUMPDEST PUSH1 0x20 DUP4 ADD SWAP2 POP DUP4 PUSH1 0x20 DUP3 MUL DUP4 ADD GT ISZERO PUSH2 0x62CE JUMPI PUSH2 0x62CD PUSH2 0x611A JUMP JUMPDEST JUMPDEST SWAP3 POP SWAP3 SWAP1 POP JUMP JUMPDEST PUSH0 PUSH0 PUSH1 0x20 DUP4 DUP6 SUB SLT ISZERO PUSH2 0x62EB JUMPI PUSH2 0x62EA PUSH2 0x597B JUMP JUMPDEST JUMPDEST PUSH0 DUP4 ADD CALLDATALOAD PUSH8 0xFFFFFFFFFFFFFFFF DUP2 GT ISZERO PUSH2 0x6308 JUMPI PUSH2 0x6307 PUSH2 0x597F JUMP JUMPDEST JUMPDEST PUSH2 0x6314 DUP6 DUP3 DUP7 ADD PUSH2 0x6280 JUMP JUMPDEST SWAP3 POP SWAP3 POP POP SWAP3 POP SWAP3 SWAP1 POP JUMP JUMPDEST PUSH0 DUP2 MLOAD SWAP1 POP SWAP2 SWAP1 POP JUMP JUMPDEST PUSH0 DUP3 DUP3 MSTORE PUSH1 0x20 DUP3 ADD SWAP1 POP SWAP3 SWAP2 POP POP JUMP JUMPDEST PUSH0 DUP2 SWAP1 POP PUSH1 0x20 DUP3 ADD SWAP1 POP SWAP2 SWAP1 POP JUMP JUMPDEST PUSH0 DUP3 DUP3 MSTORE PUSH1 0x20 DUP3 ADD SWAP1 POP SWAP3 SWAP2 POP POP JUMP JUMPDEST PUSH0 PUSH2 0x6363 DUP3 PUSH2 0x61D0 JUMP JUMPDEST PUSH2 0x636D DUP2 DUP6 PUSH2 0x6349 JUMP JUMPDEST SWAP4 POP PUSH2 0x637D DUP2 DUP6 PUSH1 0x20 DUP7 ADD PUSH2 0x5A50 JUMP JUMPDEST PUSH2 0x6386 DUP2 PUSH2 0x5A5E JUMP JUMPDEST DUP5 ADD SWAP2 POP POP SWAP3 SWAP2 POP POP JUMP JUMPDEST PUSH0 PUSH2 0x639C DUP4 DUP4 PUSH2 0x6359 JUMP JUMPDEST SWAP1 POP SWAP3 SWAP2 POP POP JUMP JUMPDEST PUSH0 PUSH1 0x20 DUP3 ADD SWAP1 POP SWAP2 SWAP1 POP JUMP JUMPDEST PUSH0 PUSH2 0x63BA DUP3 PUSH2 0x6320 JUMP JUMPDEST PUSH2 0x63C4 DUP2 DUP6 PUSH2 0x632A JUMP JUMPDEST SWAP4 POP DUP4 PUSH1 0x20 DUP3 MUL DUP6 ADD PUSH2 0x63D6 DUP6 PUSH2 0x633A JUMP JUMPDEST DUP1 PUSH0 JUMPDEST DUP6 DUP2 LT ISZERO PUSH2 0x6411 JUMPI DUP5 DUP5 SUB DUP10 MSTORE DUP2 MLOAD PUSH2 0x63F2 DUP6 DUP3 PUSH2 0x6391 JUMP JUMPDEST SWAP5 POP PUSH2 0x63FD DUP4 PUSH2 0x63A4 JUMP JUMPDEST SWAP3 POP PUSH1 0x20 DUP11 ADD SWAP10 POP POP PUSH1 0x1 DUP2 ADD SWAP1 POP PUSH2 0x63D9 JUMP JUMPDEST POP DUP3 SWAP8 POP DUP8 SWAP6 POP POP POP POP POP POP SWAP3 SWAP2 POP POP JUMP JUMPDEST PUSH0 PUSH1 0x20 DUP3 ADD SWAP1 POP DUP2 DUP2 SUB PUSH0 DUP4 ADD MSTORE PUSH2 0x643B DUP2 DUP5 PUSH2 0x63B0 JUMP JUMPDEST SWAP1 POP SWAP3 SWAP2 POP POP JUMP JUMPDEST PUSH0 PUSH0 PUSH0 PUSH0 PUSH1 0x80 DUP6 DUP8 SUB SLT ISZERO PUSH2 0x645B JUMPI PUSH2 0x645A PUSH2 0x597B JUMP JUMPDEST JUMPDEST PUSH0 PUSH2 0x6468 DUP8 DUP3 DUP9 ADD PUSH2 0x5BBA JUMP JUMPDEST SWAP5 POP POP PUSH1 0x20 PUSH2 0x6479 DUP8 DUP3 DUP9 ADD PUSH2 0x5BBA JUMP JUMPDEST SWAP4 POP POP PUSH1 0x40 PUSH2 0x648A DUP8 DUP3 DUP9 ADD PUSH2 0x5B65 JUMP JUMPDEST SWAP3 POP POP PUSH1 0x60 DUP6 ADD CALLDATALOAD PUSH8 0xFFFFFFFFFFFFFFFF DUP2 GT ISZERO PUSH2 0x64AB JUMPI PUSH2 0x64AA PUSH2 0x597F JUMP JUMPDEST JUMPDEST PUSH2 0x64B7 DUP8 DUP3 DUP9 ADD PUSH2 0x5FD8 JUMP JUMPDEST SWAP2 POP POP SWAP3 SWAP6 SWAP2 SWAP5 POP SWAP3 POP JUMP JUMPDEST PUSH0 PUSH0 DUP4 PUSH1 0x1F DUP5 ADD SLT PUSH2 0x64D8 JUMPI PUSH2 0x64D7 PUSH2 0x5DD6 JUMP JUMPDEST JUMPDEST DUP3 CALLDATALOAD SWAP1 POP PUSH8 0xFFFFFFFFFFFFFFFF DUP2 GT ISZERO PUSH2 0x64F5 JUMPI PUSH2 0x64F4 PUSH2 0x6116 JUMP JUMPDEST JUMPDEST PUSH1 0x20 DUP4 ADD SWAP2 POP DUP4 PUSH1 0x1 DUP3 MUL DUP4 ADD GT ISZERO PUSH2 0x6511 JUMPI PUSH2 0x6510 PUSH2 0x611A JUMP JUMPDEST JUMPDEST SWAP3 POP SWAP3 SWAP1 POP JUMP JUMPDEST PUSH0 PUSH0 PUSH0 PUSH0 PUSH0 PUSH1 0x60 DUP7 DUP9 SUB SLT ISZERO PUSH2 0x6531 JUMPI PUSH2 0x6530 PUSH2 0x597B JUMP JUMPDEST JUMPDEST PUSH0 PUSH2 0x653E DUP9 DUP3 DUP10 ADD PUSH2 0x5B65 JUMP JUMPDEST SWAP6 POP POP PUSH1 0x20 DUP7 ADD CALLDATALOAD PUSH8 0xFFFFFFFFFFFFFFFF DUP2 GT ISZERO PUSH2 0x655F JUMPI PUSH2 0x655E PUSH2 0x597F JUMP JUMPDEST JUMPDEST PUSH2 0x656B DUP9 DUP3 DUP10 ADD PUSH2 0x64C3 JUMP JUMPDEST SWAP5 POP SWAP5 POP POP PUSH1 0x40 DUP7 ADD CALLDATALOAD PUSH8 0xFFFFFFFFFFFFFFFF DUP2 GT ISZERO PUSH2 0x658E JUMPI PUSH2 0x658D PUSH2 0x597F JUMP JUMPDEST JUMPDEST PUSH2 0x659A DUP9 DUP3 DUP10 ADD PUSH2 0x611E JUMP JUMPDEST SWAP3 POP SWAP3 POP POP SWAP3 SWAP6 POP SWAP3 SWAP6 SWAP1 SWAP4 POP JUMP JUMPDEST PUSH0 DUP2 SWAP1 POP SWAP2 SWAP1 POP JUMP JUMPDEST PUSH2 0x65BB DUP2 PUSH2 0x65A9 JUMP JUMPDEST DUP3 MSTORE POP POP JUMP JUMPDEST PUSH0 PUSH2 0x100 DUP3 ADD SWAP1 POP PUSH2 0x65D5 PUSH0 DUP4 ADD DUP12 PUSH2 0x5B27 JUMP JUMPDEST PUSH2 0x65E2 PUSH1 0x20 DUP4 ADD DUP11 PUSH2 0x5B27 JUMP JUMPDEST PUSH2 0x65EF PUSH1 0x40 DUP4 ADD DUP10 PUSH2 0x5B27 JUMP JUMPDEST PUSH2 0x65FC PUSH1 0x60 DUP4 ADD DUP9 PUSH2 0x5B27 JUMP JUMPDEST PUSH2 0x6609 PUSH1 0x80 DUP4 ADD DUP8 PUSH2 0x65B2 JUMP JUMPDEST PUSH2 0x6616 PUSH1 0xA0 DUP4 ADD DUP7 PUSH2 0x5B27 JUMP JUMPDEST PUSH2 0x6623 PUSH1 0xC0 DUP4 ADD DUP6 PUSH2 0x5AF6 JUMP JUMPDEST DUP2 DUP2 SUB PUSH1 0xE0 DUP4 ADD MSTORE PUSH2 0x6635 DUP2 DUP5 PUSH2 0x5A6E JUMP JUMPDEST SWAP1 POP SWAP10 SWAP9 POP POP POP POP POP POP POP POP POP JUMP JUMPDEST PUSH0 PUSH0 PUSH0 PUSH1 0x40 DUP5 DUP7 SUB SLT ISZERO PUSH2 0x665B JUMPI PUSH2 0x665A PUSH2 0x597B JUMP JUMPDEST JUMPDEST PUSH0 DUP5 ADD CALLDATALOAD PUSH8 0xFFFFFFFFFFFFFFFF DUP2 GT ISZERO PUSH2 0x6678 JUMPI PUSH2 0x6677 PUSH2 0x597F JUMP JUMPDEST JUMPDEST PUSH2 0x6684 DUP7 DUP3 DUP8 ADD PUSH2 0x5FD8 JUMP JUMPDEST SWAP4 POP POP PUSH1 0x20 DUP5 ADD CALLDATALOAD PUSH8 0xFFFFFFFFFFFFFFFF DUP2 GT ISZERO PUSH2 0x66A5 JUMPI PUSH2 0x66A4 PUSH2 0x597F JUMP JUMPDEST JUMPDEST PUSH2 0x66B1 DUP7 DUP3 DUP8 ADD PUSH2 0x611E JUMP JUMPDEST SWAP3 POP SWAP3 POP POP SWAP3 POP SWAP3 POP SWAP3 JUMP JUMPDEST PUSH0 PUSH0 PUSH1 0x40 DUP4 DUP6 SUB SLT ISZERO PUSH2 0x66D3 JUMPI PUSH2 0x66D2 PUSH2 0x597B JUMP JUMPDEST JUMPDEST PUSH0 PUSH2 0x66E0 DUP6 DUP3 DUP7 ADD PUSH2 0x5BBA JUMP JUMPDEST SWAP3 POP POP PUSH1 0x20 PUSH2 0x66F1 DUP6 DUP3 DUP7 ADD PUSH2 0x5BBA JUMP JUMPDEST SWAP2 POP POP SWAP3 POP SWAP3 SWAP1 POP JUMP JUMPDEST PUSH0 PUSH0 PUSH0 PUSH0 PUSH0 PUSH1 0xA0 DUP7 DUP9 SUB SLT ISZERO PUSH2 0x6714 JUMPI PUSH2 0x6713 PUSH2 0x597B JUMP JUMPDEST JUMPDEST PUSH0 PUSH2 0x6721 DUP9 DUP3 DUP10 ADD PUSH2 0x5BBA JUMP JUMPDEST SWAP6 POP POP PUSH1 0x20 PUSH2 0x6732 DUP9 DUP3 DUP10 ADD PUSH2 0x5B65 JUMP JUMPDEST SWAP5 POP POP PUSH1 0x40 PUSH2 0x6743 DUP9 DUP3 DUP10 ADD PUSH2 0x5BBA JUMP JUMPDEST SWAP4 POP POP PUSH1 0x60 PUSH2 0x6754 DUP9 DUP3 DUP10 ADD PUSH2 0x5B65 JUMP JUMPDEST SWAP3 POP POP PUSH1 0x80 DUP7 ADD CALLDATALOAD PUSH8 0xFFFFFFFFFFFFFFFF DUP2 GT ISZERO PUSH2 0x6775 JUMPI PUSH2 0x6774 PUSH2 0x597F JUMP JUMPDEST JUMPDEST PUSH2 0x6781 DUP9 DUP3 DUP10 ADD PUSH2 0x5F49 JUMP JUMPDEST SWAP2 POP POP SWAP3 SWAP6 POP SWAP3 SWAP6 SWAP1 SWAP4 POP JUMP JUMPDEST PUSH32 0x4E487B7100000000000000000000000000000000000000000000000000000000 PUSH0 MSTORE PUSH1 0x22 PUSH1 0x4 MSTORE PUSH1 0x24 PUSH0 REVERT JUMPDEST PUSH0 PUSH1 0x2 DUP3 DIV SWAP1 POP PUSH1 0x1 DUP3 AND DUP1 PUSH2 0x67D2 JUMPI PUSH1 0x7F DUP3 AND SWAP2 POP JUMPDEST PUSH1 0x20 DUP3 LT DUP2 SUB PUSH2 0x67E5 JUMPI PUSH2 0x67E4 PUSH2 0x678E JUMP JUMPDEST JUMPDEST POP SWAP2 SWAP1 POP JUMP JUMPDEST PUSH32 0x4E487B7100000000000000000000000000000000000000000000000000000000 PUSH0 MSTORE PUSH1 0x32 PUSH1 0x4 MSTORE PUSH1 0x24 PUSH0 REVERT JUMPDEST PUSH32 0x4E487B7100000000000000000000000000000000000000000000000000000000 PUSH0 MSTORE PUSH1 0x11 PUSH1 0x4 MSTORE PUSH1 0x24 PUSH0 REVERT JUMPDEST PUSH0 PUSH2 0x684F DUP3 PUSH2 0x5B1E JUMP JUMPDEST SWAP2 POP PUSH2 0x685A DUP4 PUSH2 0x5B1E JUMP JUMPDEST SWAP3 POP DUP3 DUP3 MUL PUSH2 0x6868 DUP2 PUSH2 0x5B1E JUMP JUMPDEST SWAP2 POP DUP3 DUP3 DIV DUP5 EQ DUP4 ISZERO OR PUSH2 0x687F JUMPI PUSH2 0x687E PUSH2 0x6818 JUMP JUMPDEST JUMPDEST POP SWAP3 SWAP2 POP POP JUMP JUMPDEST PUSH32 0x4E487B7100000000000000000000000000000000000000000000000000000000 PUSH0 MSTORE PUSH1 0x12 PUSH1 0x4 MSTORE PUSH1 0x24 PUSH0 REVERT JUMPDEST PUSH0 PUSH2 0x68BD DUP3 PUSH2 0x5B1E JUMP JUMPDEST SWAP2 POP PUSH2 0x68C8 DUP4 PUSH2 0x5B1E JUMP JUMPDEST SWAP3 POP DUP3 PUSH2 0x68D8 JUMPI PUSH2 0x68D7 PUSH2 0x6886 JUMP JUMPDEST JUMPDEST DUP3 DUP3 DIV SWAP1 POP SWAP3 SWAP2 POP POP JUMP JUMPDEST PUSH32 0x5175616E746974792063616E6E6F74206265207A65726F000000000000000000 PUSH0 DUP3 ADD MSTORE POP JUMP JUMPDEST PUSH0 PUSH2 0x6917 PUSH1 0x17 DUP4 PUSH2 0x5A40 JUMP JUMPDEST SWAP2 POP PUSH2 0x6922 DUP3 PUSH2 0x68E3 JUMP JUMPDEST PUSH1 0x20 DUP3 ADD SWAP1 POP SWAP2 SWAP1 POP JUMP JUMPDEST PUSH0 PUSH1 0x20 DUP3 ADD SWAP1 POP DUP2 DUP2 SUB PUSH0 DUP4 ADD MSTORE PUSH2 0x6944 DUP2 PUSH2 0x690B JUMP JUMPDEST SWAP1 POP SWAP2 SWAP1 POP JUMP JUMPDEST PUSH0 PUSH2 0x6955 DUP3 PUSH2 0x5B1E JUMP JUMPDEST SWAP2 POP PUSH2 0x6960 DUP4 PUSH2 0x5B1E JUMP JUMPDEST SWAP3 POP DUP3 DUP3 ADD SWAP1 POP DUP1 DUP3 GT ISZERO PUSH2 0x6978 JUMPI PUSH2 0x6977 PUSH2 0x6818 JUMP JUMPDEST JUMPDEST SWAP3 SWAP2 POP POP JUMP JUMPDEST PUSH32 0x45786365656473206D6178207065722077616C6C657400000000000000000000 PUSH0 DUP3 ADD MSTORE POP JUMP JUMPDEST PUSH0 PUSH2 0x69B2 PUSH1 0x16 DUP4 PUSH2 0x5A40 JUMP JUMPDEST SWAP2 POP PUSH2 0x69BD DUP3 PUSH2 0x697E JUMP JUMPDEST PUSH1 0x20 DUP3 ADD SWAP1 POP SWAP2 SWAP1 POP JUMP JUMPDEST PUSH0 PUSH1 0x20 DUP3 ADD SWAP1 POP DUP2 DUP2 SUB PUSH0 DUP4 ADD MSTORE PUSH2 0x69DF DUP2 PUSH2 0x69A6 JUMP JUMPDEST SWAP1 POP SWAP2 SWAP1 POP JUMP JUMPDEST PUSH32 0x4578636565647320746F74616C20737570706C79000000000000000000000000 PUSH0 DUP3 ADD MSTORE POP JUMP JUMPDEST PUSH0 PUSH2 0x6A1A PUSH1 0x14 DUP4 PUSH2 0x5A40 JUMP JUMPDEST SWAP2 POP PUSH2 0x6A25 DUP3 PUSH2 0x69E6 JUMP JUMPDEST PUSH1 0x20 DUP3 ADD SWAP1 POP SWAP2 SWAP1 POP JUMP JUMPDEST PUSH0 PUSH1 0x20 DUP3 ADD SWAP1 POP DUP2 DUP2 SUB PUSH0 DUP4 ADD MSTORE PUSH2 0x6A47 DUP2 PUSH2 0x6A0E JUMP JUMPDEST SWAP1 POP SWAP2 SWAP1 POP JUMP JUMPDEST PUSH32 0x496E73756666696369656E74204554482073656E740000000000000000000000 PUSH0 DUP3 ADD MSTORE POP JUMP JUMPDEST PUSH0 PUSH2 0x6A82 PUSH1 0x15 DUP4 PUSH2 0x5A40 JUMP JUMPDEST SWAP2 POP PUSH2 0x6A8D DUP3 PUSH2 0x6A4E JUMP JUMPDEST PUSH1 0x20 DUP3 ADD SWAP1 POP SWAP2 SWAP1 POP JUMP JUMPDEST PUSH0 PUSH1 0x20 DUP3 ADD SWAP1 POP DUP2 DUP2 SUB PUSH0 DUP4 ADD MSTORE PUSH2 0x6AAF DUP2 PUSH2 0x6A76 JUMP JUMPDEST SWAP1 POP SWAP2 SWAP1 POP JUMP JUMPDEST PUSH0 PUSH2 0x6AC0 DUP3 PUSH2 0x5B1E JUMP JUMPDEST SWAP2 POP PUSH32 0xFFFFFFFFFFFFFFFFFFFFFFFFFFFFFFFFFFFFFFFFFFFFFFFFFFFFFFFFFFFFFFFF DUP3 SUB PUSH2 0x6AF2 JUMPI PUSH2 0x6AF1 PUSH2 0x6818 JUMP JUMPDEST JUMPDEST PUSH1 0x1 DUP3 ADD SWAP1 POP SWAP2 SWAP1 POP JUMP JUMPDEST PUSH0 DUP2 PUSH1 0x60 SHL SWAP1 POP SWAP2 SWAP1 POP JUMP JUMPDEST PUSH0 PUSH2 0x6B13 DUP3 PUSH2 0x6AFD JUMP JUMPDEST SWAP1 POP SWAP2 SWAP1 POP JUMP JUMPDEST PUSH0 PUSH2 0x6B24 DUP3 PUSH2 0x6B09 JUMP JUMPDEST SWAP1 POP SWAP2 SWAP1 POP JUMP JUMPDEST PUSH2 0x6B3C PUSH2 0x6B37 DUP3 PUSH2 0x5AE5 JUMP JUMPDEST PUSH2 0x6B1A JUMP JUMPDEST DUP3 MSTORE POP POP JUMP JUMPDEST PUSH0 DUP2 SWAP1 POP SWAP2 SWAP1 POP JUMP JUMPDEST PUSH2 0x6B5C PUSH2 0x6B57 DUP3 PUSH2 0x5B1E JUMP JUMPDEST PUSH2 0x6B42 JUMP JUMPDEST DUP3 MSTORE POP POP JUMP JUMPDEST PUSH0 PUSH2 0x6B6D DUP3 DUP6 PUSH2 0x6B2B JUMP JUMPDEST PUSH1 0x14 DUP3 ADD SWAP2 POP PUSH2 0x6B7D DUP3 DUP5 PUSH2 0x6B4B JUMP JUMPDEST PUSH1 0x20 DUP3 ADD SWAP2 POP DUP2 SWAP1 POP SWAP4 SWAP3 POP POP POP JUMP JUMPDEST PUSH0 PUSH0 REVERT JUMPDEST PUSH0 PUSH0 REVERT JUMPDEST PUSH0 PUSH0 REVERT JUMPDEST PUSH0 PUSH0 DUP4 CALLDATALOAD PUSH1 0x1 PUSH1 0x20 SUB DUP5 CALLDATASIZE SUB SUB DUP2 SLT PUSH2 0x6BB5 JUMPI PUSH2 0x6BB4 PUSH2 0x6B8D JUMP JUMPDEST JUMPDEST DUP1 DUP5 ADD SWAP3 POP DUP3 CALLDATALOAD SWAP2 POP PUSH8 0xFFFFFFFFFFFFFFFF DUP3 GT ISZERO PUSH2 0x6BD7 JUMPI PUSH2 0x6BD6 PUSH2 0x6B91 JUMP JUMPDEST JUMPDEST PUSH1 0x20 DUP4 ADD SWAP3 POP PUSH1 0x1 DUP3 MUL CALLDATASIZE SUB DUP4 SGT ISZERO PUSH2 0x6BF3 JUMPI PUSH2 0x6BF2 PUSH2 0x6B95 JUMP JUMPDEST JUMPDEST POP SWAP3 POP SWAP3 SWAP1 POP JUMP JUMPDEST PUSH0 DUP2 SWAP1 POP DUP2 PUSH0 MSTORE PUSH1 0x20 PUSH0 KECCAK256 SWAP1 POP SWAP2 SWAP1 POP JUMP JUMPDEST PUSH0 PUSH1 0x20 PUSH1 0x1F DUP4 ADD DIV SWAP1 POP SWAP2 SWAP1 POP JUMP JUMPDEST PUSH0 DUP3 DUP3 SHL SWAP1 POP SWAP3 SWAP2 POP POP JUMP JUMPDEST PUSH0 PUSH1 0x8 DUP4 MUL PUSH2 0x6C57 PUSH32 0xFFFFFFFFFFFFFFFFFFFFFFFFFFFFFFFFFFFFFFFFFFFFFFFFFFFFFFFFFFFFFFFF DUP3 PUSH2 0x6C1C JUMP JUMPDEST PUSH2 0x6C61 DUP7 DUP4 PUSH2 0x6C1C JUMP JUMPDEST SWAP6 POP DUP1 NOT DUP5 AND SWAP4 POP DUP1 DUP7 AND DUP5 OR SWAP3 POP POP POP SWAP4 SWAP3 POP POP POP JUMP JUMPDEST PUSH0 DUP2 SWAP1 POP SWAP2 SWAP1 POP JUMP JUMPDEST PUSH0 PUSH2 0x6C9C PUSH2 0x6C97 PUSH2 0x6C92 DUP5 PUSH2 0x5B1E JUMP JUMPDEST PUSH2 0x6C79 JUMP JUMPDEST PUSH2 0x5B1E JUMP JUMPDEST SWAP1 POP SWAP2 SWAP1 POP JUMP JUMPDEST PUSH0 DUP2 SWAP1 POP SWAP2 SWAP1 POP JUMP JUMPDEST PUSH2 0x6CB5 DUP4 PUSH2 0x6C82 JUMP JUMPDEST PUSH2 0x6CC9 PUSH2 0x6CC1 DUP3 PUSH2 0x6CA3 JUMP JUMPDEST DUP5 DUP5 SLOAD PUSH2 0x6C28 JUMP JUMPDEST DUP3 SSTORE POP POP POP POP JUMP JUMPDEST PUSH0 PUSH0 SWAP1 POP SWAP1 JUMP JUMPDEST PUSH2 0x6CE0 PUSH2 0x6CD1 JUMP JUMPDEST PUSH2 0x6CEB DUP2 DUP5 DUP5 PUSH2 0x6CAC JUMP JUMPDEST POP POP POP JUMP JUMPDEST JUMPDEST DUP2 DUP2 LT ISZERO PUSH2 0x6D0E JUMPI PUSH2 0x6D03 PUSH0 DUP3 PUSH2 0x6CD8 JUMP JUMPDEST PUSH1 0x1 DUP2 ADD SWAP1 POP PUSH2 0x6CF1 JUMP JUMPDEST POP POP JUMP JUMPDEST PUSH1 0x1F DUP3 GT ISZERO PUSH2 0x6D53 JUMPI PUSH2 0x6D24 DUP2 PUSH2 0x6BFB JUMP JUMPDEST PUSH2 0x6D2D DUP5 PUSH2 0x6C0D JUMP JUMPDEST DUP2 ADD PUSH1 0x20 DUP6 LT ISZERO PUSH2 0x6D3C JUMPI DUP2 SWAP1 POP JUMPDEST PUSH2 0x6D50 PUSH2 0x6D48 DUP6 PUSH2 0x6C0D JUMP JUMPDEST DUP4 ADD DUP3 PUSH2 0x6CF0 JUMP JUMPDEST POP POP JUMPDEST POP POP POP JUMP JUMPDEST PUSH0 DUP3 DUP3 SHR SWAP1 POP SWAP3 SWAP2 POP POP JUMP JUMPDEST PUSH0 PUSH2 0x6D73 PUSH0 NOT DUP5 PUSH1 0x8 MUL PUSH2 0x6D58 JUMP JUMPDEST NOT DUP1 DUP4 AND SWAP2 POP POP SWAP3 SWAP2 POP POP JUMP JUMPDEST PUSH0 PUSH2 0x6D8B DUP4 DUP4 PUSH2 0x6D64 JUMP JUMPDEST SWAP2 POP DUP3 PUSH1 0x2 MUL DUP3 OR SWAP1 POP SWAP3 SWAP2 POP POP JUMP JUMPDEST PUSH2 0x6DA4 DUP3 PUSH2 0x5A36 JUMP JUMPDEST PUSH8 0xFFFFFFFFFFFFFFFF DUP2 GT ISZERO PUSH2 0x6DBD JUMPI PUSH2 0x6DBC PUSH2 0x5DDE JUMP JUMPDEST JUMPDEST PUSH2 0x6DC7 DUP3 SLOAD PUSH2 0x67BB JUMP JUMPDEST PUSH2 0x6DD2 DUP3 DUP3 DUP6 PUSH2 0x6D12 JUMP JUMPDEST PUSH0 PUSH1 0x20 SWAP1 POP PUSH1 0x1F DUP4 GT PUSH1 0x1 DUP2 EQ PUSH2 0x6E03 JUMPI PUSH0 DUP5 ISZERO PUSH2 0x6DF1 JUMPI DUP3 DUP8 ADD MLOAD SWAP1 POP JUMPDEST PUSH2 0x6DFB DUP6 DUP3 PUSH2 0x6D80 JUMP JUMPDEST DUP7 SSTORE POP PUSH2 0x6E62 JUMP JUMPDEST PUSH1 0x1F NOT DUP5 AND PUSH2 0x6E11 DUP7 PUSH2 0x6BFB JUMP JUMPDEST PUSH0 JUMPDEST DUP3 DUP2 LT ISZERO PUSH2 0x6E38 JUMPI DUP5 DUP10 ADD MLOAD DUP3 SSTORE PUSH1 0x1 DUP3 ADD SWAP2 POP PUSH1 0x20 DUP6 ADD SWAP5 POP PUSH1 0x20 DUP2 ADD SWAP1 POP PUSH2 0x6E13 JUMP JUMPDEST DUP7 DUP4 LT ISZERO PUSH2 0x6E55 JUMPI DUP5 DUP10 ADD MLOAD PUSH2 0x6E51 PUSH1 0x1F DUP10 AND DUP3 PUSH2 0x6D64 JUMP JUMPDEST DUP4 SSTORE POP JUMPDEST PUSH1 0x1 PUSH1 0x2 DUP9 MUL ADD DUP9 SSTORE POP POP POP JUMPDEST POP POP POP POP POP POP JUMP JUMPDEST PUSH0 PUSH2 0x6E78 PUSH1 0x20 DUP5 ADD DUP5 PUSH2 0x5B65 JUMP JUMPDEST SWAP1 POP SWAP3 SWAP2 POP POP JUMP JUMPDEST PUSH2 0x6E89 DUP2 PUSH2 0x5B1E JUMP JUMPDEST DUP3 MSTORE POP POP JUMP JUMPDEST PUSH2 0x6E98 DUP2 PUSH2 0x65A9 JUMP JUMPDEST DUP2 EQ PUSH2 0x6EA2 JUMPI PUSH0 PUSH0 REVERT JUMPDEST POP JUMP JUMPDEST PUSH0 DUP2 CALLDATALOAD SWAP1 POP PUSH2 0x6EB3 DUP2 PUSH2 0x6E8F JUMP JUMPDEST SWAP3 SWAP2 POP POP JUMP JUMPDEST PUSH0 PUSH2 0x6EC7 PUSH1 0x20 DUP5 ADD DUP5 PUSH2 0x6EA5 JUMP JUMPDEST SWAP1 POP SWAP3 SWAP2 POP POP JUMP JUMPDEST PUSH2 0x6ED8 DUP2 PUSH2 0x65A9 JUMP JUMPDEST DUP3 MSTORE POP POP JUMP JUMPDEST PUSH0 PUSH2 0x6EEC PUSH1 0x20 DUP5 ADD DUP5 PUSH2 0x5BBA JUMP JUMPDEST SWAP1 POP SWAP3 SWAP2 POP POP JUMP JUMPDEST PUSH2 0x6EFD DUP2 PUSH2 0x5AE5 JUMP JUMPDEST DUP3 MSTORE POP POP JUMP JUMPDEST PUSH0 PUSH0 REVERT JUMPDEST PUSH0 PUSH0 REVERT JUMPDEST PUSH0 PUSH0 REVERT JUMPDEST PUSH0 PUSH0 DUP4 CALLDATALOAD PUSH1 0x1 PUSH1 0x20 SUB DUP5 CALLDATASIZE SUB SUB DUP2 SLT PUSH2 0x6F2B JUMPI PUSH2 0x6F2A PUSH2 0x6F0B JUMP JUMPDEST JUMPDEST DUP4 DUP2 ADD SWAP3 POP DUP3 CALLDATALOAD SWAP2 POP PUSH1 0x20 DUP4 ADD SWAP3 POP PUSH8 0xFFFFFFFFFFFFFFFF DUP3 GT ISZERO PUSH2 0x6F53 JUMPI PUSH2 0x6F52 PUSH2 0x6F03 JUMP JUMPDEST JUMPDEST PUSH1 0x1 DUP3 MUL CALLDATASIZE SUB DUP4 SGT ISZERO PUSH2 0x6F69 JUMPI PUSH2 0x6F68 PUSH2 0x6F07 JUMP JUMPDEST JUMPDEST POP SWAP3 POP SWAP3 SWAP1 POP JUMP JUMPDEST PUSH0 DUP3 DUP3 MSTORE PUSH1 0x20 DUP3 ADD SWAP1 POP SWAP3 SWAP2 POP POP JUMP JUMPDEST PUSH0 PUSH2 0x6F8C DUP4 DUP6 PUSH2 0x6F71 JUMP JUMPDEST SWAP4 POP PUSH2 0x6F99 DUP4 DUP6 DUP5 PUSH2 0x5E86 JUMP JUMPDEST PUSH2 0x6FA2 DUP4 PUSH2 0x5A5E JUMP JUMPDEST DUP5 ADD SWAP1 POP SWAP4 SWAP3 POP POP POP JUMP JUMPDEST PUSH0 PUSH2 0x100 DUP4 ADD PUSH2 0x6FBF PUSH0 DUP5 ADD DUP5 PUSH2 0x6E6A JUMP JUMPDEST PUSH2 0x6FCB PUSH0 DUP7 ADD DUP3 PUSH2 0x6E80 JUMP JUMPDEST POP PUSH2 0x6FD9 PUSH1 0x20 DUP5 ADD DUP5 PUSH2 0x6E6A JUMP JUMPDEST PUSH2 0x6FE6 PUSH1 0x20 DUP7 ADD DUP3 PUSH2 0x6E80 JUMP JUMPDEST POP PUSH2 0x6FF4 PUSH1 0x40 DUP5 ADD DUP5 PUSH2 0x6E6A JUMP JUMPDEST PUSH2 0x7001 PUSH1 0x40 DUP7 ADD DUP3 PUSH2 0x6E80 JUMP JUMPDEST POP PUSH2 0x700F PUSH1 0x60 DUP5 ADD DUP5 PUSH2 0x6E6A JUMP JUMPDEST PUSH2 0x701C PUSH1 0x60 DUP7 ADD DUP3 PUSH2 0x6E80 JUMP JUMPDEST POP PUSH2 0x702A PUSH1 0x80 DUP5 ADD DUP5 PUSH2 0x6EB9 JUMP JUMPDEST PUSH2 0x7037 PUSH1 0x80 DUP7 ADD DUP3 PUSH2 0x6ECF JUMP JUMPDEST POP PUSH2 0x7045 PUSH1 0xA0 DUP5 ADD DUP5 PUSH2 0x6E6A JUMP JUMPDEST PUSH2 0x7052 PUSH1 0xA0 DUP7 ADD DUP3 PUSH2 0x6E80 JUMP JUMPDEST POP PUSH2 0x7060 PUSH1 0xC0 DUP5 ADD DUP5 PUSH2 0x6EDE JUMP JUMPDEST PUSH2 0x706D PUSH1 0xC0 DUP7 ADD DUP3 PUSH2 0x6EF4 JUMP JUMPDEST POP PUSH2 0x707B PUSH1 0xE0 DUP5 ADD DUP5 PUSH2 0x6F0F JUMP JUMPDEST DUP6 DUP4 SUB PUSH1 0xE0 DUP8 ADD MSTORE PUSH2 0x708E DUP4 DUP3 DUP5 PUSH2 0x6F81 JUMP JUMPDEST SWAP3 POP POP POP DUP1 SWAP2 POP POP SWAP3 SWAP2 POP POP JUMP JUMPDEST PUSH0 PUSH1 0x40 DUP3 ADD SWAP1 POP DUP2 DUP2 SUB PUSH0 DUP4 ADD MSTORE PUSH2 0x70B4 DUP2 DUP6 PUSH2 0x6FAD JUMP JUMPDEST SWAP1 POP PUSH2 0x70C3 PUSH1 0x20 DUP4 ADD DUP5 PUSH2 0x5A0E JUMP JUMPDEST SWAP4 SWAP3 POP POP POP JUMP JUMPDEST PUSH32 0x496E76616C696420746965720000000000000000000000000000000000000000 PUSH0 DUP3 ADD MSTORE POP JUMP JUMPDEST PUSH0 PUSH2 0x70FE PUSH1 0xC DUP4 PUSH2 0x5A40 JUMP JUMPDEST SWAP2 POP PUSH2 0x7109 DUP3 PUSH2 0x70CA JUMP JUMPDEST PUSH1 0x20 DUP3 ADD SWAP1 POP SWAP2 SWAP1 POP JUMP JUMPDEST PUSH0 PUSH1 0x20 DUP3 ADD SWAP1 POP DUP2 DUP2 SUB PUSH0 DUP4 ADD MSTORE PUSH2 0x712B DUP2 PUSH2 0x70F2 JUMP JUMPDEST SWAP1 POP SWAP2 SWAP1 POP JUMP JUMPDEST PUSH0 PUSH2 0x7144 PUSH2 0x713F DUP5 PUSH2 0x5F67 JUMP JUMPDEST PUSH2 0x5E3C JUMP JUMPDEST SWAP1 POP DUP3 DUP2 MSTORE PUSH1 0x20 DUP2 ADD DUP5 DUP5 DUP5 ADD GT ISZERO PUSH2 0x7160 JUMPI PUSH2 0x715F PUSH2 0x5DDA JUMP JUMPDEST JUMPDEST PUSH2 0x716B DUP5 DUP3 DUP6 PUSH2 0x5A50 JUMP JUMPDEST POP SWAP4 SWAP3 POP POP POP JUMP JUMPDEST PUSH0 DUP3 PUSH1 0x1F DUP4 ADD SLT PUSH2 0x7187 JUMPI PUSH2 0x7186 PUSH2 0x5DD6 JUMP JUMPDEST JUMPDEST DUP2 MLOAD PUSH2 0x7197 DUP5 DUP3 PUSH1 0x20 DUP7 ADD PUSH2 0x7132 JUMP JUMPDEST SWAP2 POP POP SWAP3 SWAP2 POP POP JUMP JUMPDEST PUSH0 DUP2 MLOAD SWAP1 POP PUSH2 0x71AE DUP2 PUSH2 0x6E8F JUMP JUMPDEST SWAP3 SWAP2 POP POP JUMP JUMPDEST PUSH0 PUSH0 PUSH1 0x40 DUP4 DUP6 SUB SLT ISZERO PUSH2 0x71CA JUMPI PUSH2 0x71C9 PUSH2 0x597B JUMP JUMPDEST JUMPDEST PUSH0 DUP4 ADD MLOAD PUSH8 0xFFFFFFFFFFFFFFFF DUP2 GT ISZERO PUSH2 0x71E7 JUMPI PUSH2 0x71E6 PUSH2 0x597F JUMP JUMPDEST JUMPDEST PUSH2 0x71F3 DUP6 DUP3 DUP7 ADD PUSH2 0x7173 JUMP JUMPDEST SWAP3 POP POP PUSH1 0x20 PUSH2 0x7204 DUP6 DUP3 DUP7 ADD PUSH2 0x71A0 JUMP JUMPDEST SWAP2 POP POP SWAP3 POP SWAP3 SWAP1 POP JUMP JUMPDEST PUSH0 DUP2 SWAP1 POP SWAP3 SWAP2 POP POP JUMP JUMPDEST PUSH0 PUSH2 0x7222 DUP3 PUSH2 0x5A36 JUMP JUMPDEST PUSH2 0x722C DUP2 DUP6 PUSH2 0x720E JUMP JUMPDEST SWAP4 POP PUSH2 0x723C DUP2 DUP6 PUSH1 0x20 DUP7 ADD PUSH2 0x5A50 JUMP JUMPDEST DUP1 DUP5 ADD SWAP2 POP POP SWAP3 SWAP2 POP POP JUMP JUMPDEST PUSH0 DUP2 SWAP1 POP SWAP3 SWAP2 POP POP JUMP JUMPDEST PUSH0 PUSH2 0x725D DUP4 DUP6 PUSH2 0x7248 JUMP JUMPDEST SWAP4 POP PUSH2 0x726A DUP4 DUP6 DUP5 PUSH2 0x5E86 JUMP JUMPDEST DUP3 DUP5 ADD SWAP1 POP SWAP4 SWAP3 POP POP POP JUMP JUMPDEST PUSH0 PUSH2 0x7281 DUP3 DUP8 PUSH2 0x7218 JUMP JUMPDEST SWAP2 POP PUSH2 0x728E DUP3 DUP6 DUP8 PUSH2 0x7252 JUMP JUMPDEST SWAP2 POP PUSH2 0x729A DUP3 DUP5 PUSH2 0x6B4B JUMP JUMPDEST PUSH1 0x20 DUP3 ADD SWAP2 POP DUP2 SWAP1 POP SWAP6 SWAP5 POP POP POP POP POP JUMP JUMPDEST PUSH0 PUSH1 0x40 DUP3 ADD SWAP1 POP PUSH2 0x72BF PUSH0 DUP4 ADD DUP6 PUSH2 0x65B2 JUMP JUMPDEST PUSH2 0x72CC PUSH1 0x20 DUP4 ADD DUP5 PUSH2 0x65B2 JUMP JUMPDEST SWAP4 SWAP3 POP POP POP JUMP JUMPDEST PUSH0 PUSH0 DUP4 CALLDATALOAD PUSH1 0x1 PUSH1 0x20 SUB DUP5 CALLDATASIZE SUB SUB DUP2 SLT PUSH2 0x72EF JUMPI PUSH2 0x72EE PUSH2 0x6B8D JUMP JUMPDEST JUMPDEST DUP1 DUP5 ADD SWAP3 POP DUP3 CALLDATALOAD SWAP2 POP PUSH8 0xFFFFFFFFFFFFFFFF DUP3 GT ISZERO PUSH2 0x7311 JUMPI PUSH2 0x7310 PUSH2 0x6B91 JUMP JUMPDEST JUMPDEST PUSH1 0x20 DUP4 ADD SWAP3 POP PUSH1 0x1 DUP3 MUL CALLDATASIZE SUB DUP4 SGT ISZERO PUSH2 0x732D JUMPI PUSH2 0x732C PUSH2 0x6B95 JUMP JUMPDEST JUMPDEST POP SWAP3 POP SWAP3 SWAP1 POP JUMP JUMPDEST PUSH0 PUSH2 0x7341 DUP3 DUP6 DUP8 PUSH2 0x7252 JUMP JUMPDEST SWAP2 POP PUSH2 0x734D DUP3 DUP5 PUSH2 0x6B2B JUMP JUMPDEST PUSH1 0x14 DUP3 ADD SWAP2 POP DUP2 SWAP1 POP SWAP5 SWAP4 POP POP POP POP JUMP JUMPDEST PUSH32 0x3000000000000000000000000000000000000000000000000000000000000000 PUSH0 DUP3 ADD MSTORE POP JUMP JUMPDEST PUSH0 PUSH2 0x7392 PUSH1 0x1 DUP4 PUSH2 0x720E JUMP JUMPDEST SWAP2 POP PUSH2 0x739D DUP3 PUSH2 0x735E JUMP JUMPDEST PUSH1 0x1 DUP3 ADD SWAP1 POP SWAP2 SWAP1 POP JUMP JUMPDEST PUSH0 PUSH2 0x73B3 DUP3 DUP5 PUSH2 0x7218 JUMP JUMPDEST SWAP2 POP PUSH2 0x73BE DUP3 PUSH2 0x7386 JUMP JUMPDEST SWAP2 POP DUP2 SWAP1 POP SWAP3 SWAP2 POP POP JUMP JUMPDEST PUSH0 PUSH2 0x73D4 DUP3 DUP6 PUSH2 0x7218 JUMP JUMPDEST SWAP2 POP PUSH2 0x73E0 DUP3 DUP5 PUSH2 0x7218 JUMP JUMPDEST SWAP2 POP DUP2 SWAP1 POP SWAP4 SWAP3 POP POP POP JUMP JUMPDEST PUSH32 0x4E6F7420617574686F72697A6564000000000000000000000000000000000000 PUSH0 DUP3 ADD MSTORE POP JUMP JUMPDEST PUSH0 PUSH2 0x7420 PUSH1 0xE DUP4 PUSH2 0x5A40 JUMP JUMPDEST SWAP2 POP PUSH2 0x742B DUP3 PUSH2 0x73EC JUMP JUMPDEST PUSH1 0x20 DUP3 ADD SWAP1 POP SWAP2 SWAP1 POP JUMP JUMPDEST PUSH0 PUSH1 0x20 DUP3 ADD SWAP1 POP DUP2 DUP2 SUB PUSH0 DUP4 ADD MSTORE PUSH2 0x744D DUP2 PUSH2 0x7414 JUMP JUMPDEST SWAP1 POP SWAP2 SWAP1 POP JUMP JUMPDEST PUSH0 PUSH0 PUSH1 0x40 DUP4 DUP6 SUB SLT ISZERO PUSH2 0x746A JUMPI PUSH2 0x7469 PUSH2 0x597B JUMP JUMPDEST JUMPDEST PUSH0 DUP4 ADD CALLDATALOAD PUSH8 0xFFFFFFFFFFFFFFFF DUP2 GT ISZERO PUSH2 0x7487 JUMPI PUSH2 0x7486 PUSH2 0x597F JUMP JUMPDEST JUMPDEST PUSH2 0x7493 DUP6 DUP3 DUP7 ADD PUSH2 0x5FD8 JUMP JUMPDEST SWAP3 POP POP PUSH1 0x20 PUSH2 0x74A4 DUP6 DUP3 DUP7 ADD PUSH2 0x6EA5 JUMP JUMPDEST SWAP2 POP POP SWAP3 POP SWAP3 SWAP1 POP JUMP JUMPDEST PUSH0 PUSH2 0x74BA DUP3 DUP6 DUP8 PUSH2 0x7252 JUMP JUMPDEST SWAP2 POP PUSH2 0x74C6 DUP3 DUP5 PUSH2 0x6B4B JUMP JUMPDEST PUSH1 0x20 DUP3 ADD SWAP2 POP DUP2 SWAP1 POP SWAP5 SWAP4 POP POP POP POP JUMP JUMPDEST PUSH0 PUSH0 DUP4 CALLDATALOAD PUSH1 0x1 PUSH1 0x20 SUB DUP5 CALLDATASIZE SUB SUB DUP2 SLT PUSH2 0x74F3 JUMPI PUSH2 0x74F2 PUSH2 0x6B8D JUMP JUMPDEST JUMPDEST DUP1 DUP5 ADD SWAP3 POP DUP3 CALLDATALOAD SWAP2 POP PUSH8 0xFFFFFFFFFFFFFFFF DUP3 GT ISZERO PUSH2 0x7515 JUMPI PUSH2 0x7514 PUSH2 0x6B91 JUMP JUMPDEST JUMPDEST PUSH1 0x20 DUP4 ADD SWAP3 POP PUSH1 0x20 DUP3 MUL CALLDATASIZE SUB DUP4 SGT ISZERO PUSH2 0x7531 JUMPI PUSH2 0x7530 PUSH2 0x6B95 JUMP JUMPDEST JUMPDEST POP SWAP3 POP SWAP3 SWAP1 POP JUMP JUMPDEST PUSH0 PUSH2 0x7544 DUP3 DUP8 PUSH2 0x6B2B JUMP JUMPDEST PUSH1 0x14 DUP3 ADD SWAP2 POP PUSH2 0x7554 DUP3 DUP7 PUSH2 0x6B4B JUMP JUMPDEST PUSH1 0x20 DUP3 ADD SWAP2 POP PUSH2 0x7564 DUP3 DUP6 PUSH2 0x6B4B JUMP JUMPDEST PUSH1 0x20 DUP3 ADD SWAP2 POP PUSH2 0x7574 DUP3 DUP5 PUSH2 0x6B2B JUMP JUMPDEST PUSH1 0x14 DUP3 ADD SWAP2 POP DUP2 SWAP1 POP SWAP6 SWAP5 POP POP POP POP POP JUMP JUMPDEST PUSH0 PUSH1 0x80 DUP3 ADD SWAP1 POP PUSH2 0x7599 PUSH0 DUP4 ADD DUP8 PUSH2 0x5AF6 JUMP JUMPDEST PUSH2 0x75A6 PUSH1 0x20 DUP4 ADD DUP7 PUSH2 0x5B27 JUMP JUMPDEST PUSH2 0x75B3 PUSH1 0x40 DUP4 ADD DUP6 PUSH2 0x5AF6 JUMP JUMPDEST PUSH2 0x75C0 PUSH1 0x60 DUP4 ADD DUP5 PUSH2 0x5B27 JUMP JUMPDEST SWAP6 SWAP5 POP POP POP POP POP JUMP JUMPDEST PUSH0 PUSH1 0x40 DUP3 ADD SWAP1 POP PUSH2 0x75DC PUSH0 DUP4 ADD DUP6 PUSH2 0x5B27 JUMP JUMPDEST PUSH2 0x75E9 PUSH1 0x20 DUP4 ADD DUP5 PUSH2 0x5B27 JUMP JUMPDEST SWAP4 SWAP3 POP POP POP JUMP JUMPDEST PUSH0 DUP2 SWAP1 POP SWAP2 SWAP1 POP JUMP JUMPDEST PUSH0 PUSH2 0x7613 PUSH2 0x760E PUSH2 0x7609 DUP5 PUSH2 0x75F0 JUMP JUMPDEST PUSH2 0x6C79 JUMP JUMPDEST PUSH2 0x5B1E JUMP JUMPDEST SWAP1 POP SWAP2 SWAP1 POP JUMP JUMPDEST PUSH2 0x7623 DUP2 PUSH2 0x75F9 JUMP JUMPDEST DUP3 MSTORE POP POP JUMP JUMPDEST PUSH0 PUSH1 0x40 DUP3 ADD SWAP1 POP PUSH2 0x763C PUSH0 DUP4 ADD DUP6 PUSH2 0x761A JUMP JUMPDEST PUSH2 0x7649 PUSH1 0x20 DUP4 ADD DUP5 PUSH2 0x5B27 JUMP JUMPDEST SWAP4 SWAP3 POP POP POP JUMP JUMPDEST PUSH32 0x4E6F7420656E6F756768206D696E74656420746F6B656E730000000000000000 PUSH0 DUP3 ADD MSTORE POP JUMP JUMPDEST PUSH0 PUSH2 0x7684 PUSH1 0x18 DUP4 PUSH2 0x5A40 JUMP JUMPDEST SWAP2 POP PUSH2 0x768F DUP3 PUSH2 0x7650 JUMP JUMPDEST PUSH1 0x20 DUP3 ADD SWAP1 POP SWAP2 SWAP1 POP JUMP JUMPDEST PUSH0 PUSH1 0x20 DUP3 ADD SWAP1 POP DUP2 DUP2 SUB PUSH0 DUP4 ADD MSTORE PUSH2 0x76B1 DUP2 PUSH2 0x7678 JUMP JUMPDEST SWAP1 POP SWAP2 SWAP1 POP JUMP JUMPDEST PUSH32 0x2156616C75650000000000000000000000000000000000000000000000000000 PUSH0 DUP3 ADD MSTORE POP JUMP JUMPDEST PUSH0 PUSH2 0x76EC PUSH1 0x6 DUP4 PUSH2 0x5A40 JUMP JUMPDEST SWAP2 POP PUSH2 0x76F7 DUP3 PUSH2 0x76B8 JUMP JUMPDEST PUSH1 0x20 DUP3 ADD SWAP1 POP SWAP2 SWAP1 POP JUMP JUMPDEST PUSH0 PUSH1 0x20 DUP3 ADD SWAP1 POP DUP2 DUP2 SUB PUSH0 DUP4 ADD MSTORE PUSH2 0x7719 DUP2 PUSH2 0x76E0 JUMP JUMPDEST SWAP1 POP SWAP2 SWAP1 POP JUMP JUMPDEST PUSH32 0x496E76616C6964206D73672076616C7565000000000000000000000000000000 PUSH0 DUP3 ADD MSTORE POP JUMP JUMPDEST PUSH0 PUSH2 0x7754 PUSH1 0x11 DUP4 PUSH2 0x5A40 JUMP JUMPDEST SWAP2 POP PUSH2 0x775F DUP3 PUSH2 0x7720 JUMP JUMPDEST PUSH1 0x20 DUP3 ADD SWAP1 POP SWAP2 SWAP1 POP JUMP JUMPDEST PUSH0 PUSH1 0x20 DUP3 ADD SWAP1 POP DUP2 DUP2 SUB PUSH0 DUP4 ADD MSTORE PUSH2 0x7781 DUP2 PUSH2 0x7748 JUMP JUMPDEST SWAP1 POP SWAP2 SWAP1 POP JUMP JUMPDEST PUSH0 PUSH1 0x40 DUP3 ADD SWAP1 POP DUP2 DUP2 SUB PUSH0 DUP4 ADD MSTORE PUSH2 0x77A0 DUP2 DUP6 PUSH2 0x5A6E JUMP JUMPDEST SWAP1 POP DUP2 DUP2 SUB PUSH1 0x20 DUP4 ADD MSTORE PUSH2 0x77B4 DUP2 DUP5 PUSH2 0x5A6E JUMP JUMPDEST SWAP1 POP SWAP4 SWAP3 POP POP POP JUMP JUMPDEST PUSH0 PUSH1 0x80 DUP3 ADD SWAP1 POP PUSH2 0x77D0 PUSH0 DUP4 ADD DUP8 PUSH2 0x5AF6 JUMP JUMPDEST PUSH2 0x77DD PUSH1 0x20 DUP4 ADD DUP7 PUSH2 0x5AF6 JUMP JUMPDEST PUSH2 0x77EA PUSH1 0x40 DUP4 ADD DUP6 PUSH2 0x5B27 JUMP JUMPDEST DUP2 DUP2 SUB PUSH1 0x60 DUP4 ADD MSTORE PUSH2 0x77FC DUP2 DUP5 PUSH2 0x61EA JUMP JUMPDEST SWAP1 POP SWAP6 SWAP5 POP POP POP POP POP JUMP JUMPDEST PUSH0 DUP2 MLOAD SWAP1 POP PUSH2 0x7815 DUP2 PUSH2 0x59AE JUMP JUMPDEST SWAP3 SWAP2 POP POP JUMP JUMPDEST PUSH0 PUSH1 0x20 DUP3 DUP5 SUB SLT ISZERO PUSH2 0x7830 JUMPI PUSH2 0x782F PUSH2 0x597B JUMP JUMPDEST JUMPDEST PUSH0 PUSH2 0x783D DUP5 DUP3 DUP6 ADD PUSH2 0x7807 JUMP JUMPDEST SWAP2 POP POP SWAP3 SWAP2 POP POP JUMP JUMPDEST PUSH0 PUSH2 0x7850 DUP3 PUSH2 0x5B1E JUMP JUMPDEST SWAP2 POP PUSH2 0x785B DUP4 PUSH2 0x5B1E JUMP JUMPDEST SWAP3 POP DUP3 DUP3 SUB SWAP1 POP DUP2 DUP2 GT ISZERO PUSH2 0x7873 JUMPI PUSH2 0x7872 PUSH2 0x6818 JUMP JUMPDEST JUMPDEST SWAP3 SWAP2 POP POP JUMP JUMPDEST PUSH0 PUSH2 0x7883 DUP3 PUSH2 0x5B1E JUMP JUMPDEST SWAP2 POP PUSH2 0x788E DUP4 PUSH2 0x5B1E JUMP JUMPDEST SWAP3 POP DUP3 PUSH2 0x789E JUMPI PUSH2 0x789D PUSH2 0x6886 JUMP JUMPDEST JUMPDEST DUP3 DUP3 MOD SWAP1 POP SWAP3 SWAP2 POP POP JUMP JUMPDEST PUSH0 DUP2 SWAP1 POP DUP2 PUSH0 MSTORE PUSH1 0x20 PUSH0 KECCAK256 SWAP1 POP SWAP2 SWAP1 POP JUMP JUMPDEST PUSH1 0x1F DUP3 GT ISZERO PUSH2 0x78FC JUMPI PUSH2 0x78CD DUP2 PUSH2 0x78A9 JUMP JUMPDEST PUSH2 0x78D6 DUP5 PUSH2 0x6C0D JUMP JUMPDEST DUP2 ADD PUSH1 0x20 DUP6 LT ISZERO PUSH2 0x78E5 JUMPI DUP2 SWAP1 POP JUMPDEST PUSH2 0x78F9 PUSH2 0x78F1 DUP6 PUSH2 0x6C0D JUMP JUMPDEST DUP4 ADD DUP3 PUSH2 0x6CF0 JUMP JUMPDEST POP POP JUMPDEST POP POP POP JUMP JUMPDEST PUSH2 0x790A DUP3 PUSH2 0x61D0 JUMP JUMPDEST PUSH8 0xFFFFFFFFFFFFFFFF DUP2 GT ISZERO PUSH2 0x7923 JUMPI PUSH2 0x7922 PUSH2 0x5DDE JUMP JUMPDEST JUMPDEST PUSH2 0x792D DUP3 SLOAD PUSH2 0x67BB JUMP JUMPDEST PUSH2 0x7938 DUP3 DUP3 DUP6 PUSH2 0x78BB JUMP JUMPDEST PUSH0 PUSH1 0x20 SWAP1 POP PUSH1 0x1F DUP4 GT PUSH1 0x1 DUP2 EQ PUSH2 0x7969 JUMPI PUSH0 DUP5 ISZERO PUSH2 0x7957 JUMPI DUP3 DUP8 ADD MLOAD SWAP1 POP JUMPDEST PUSH2 0x7961 DUP6 DUP3 PUSH2 0x6D80 JUMP JUMPDEST DUP7 SSTORE POP PUSH2 0x79C8 JUMP JUMPDEST PUSH1 0x1F NOT DUP5 AND PUSH2 0x7977 DUP7 PUSH2 0x78A9 JUMP JUMPDEST PUSH0 JUMPDEST DUP3 DUP2 LT ISZERO PUSH2 0x799E JUMPI DUP5 DUP10 ADD MLOAD DUP3 SSTORE PUSH1 0x1 DUP3 ADD SWAP2 POP PUSH1 0x20 DUP6 ADD SWAP5 POP PUSH1 0x20 DUP2 ADD SWAP1 POP PUSH2 0x7979 JUMP JUMPDEST DUP7 DUP4 LT ISZERO PUSH2 0x79BB JUMPI DUP5 DUP10 ADD MLOAD PUSH2 0x79B7 PUSH1 0x1F DUP10 AND DUP3 PUSH2 0x6D64 JUMP JUMPDEST DUP4 SSTORE POP JUMPDEST PUSH1 0x1 PUSH1 0x2 DUP9 MUL ADD DUP9 SSTORE POP POP POP JUMPDEST POP POP POP POP POP POP JUMP JUMPDEST PUSH0 PUSH2 0x79DB DUP4 DUP6 PUSH2 0x5A40 JUMP JUMPDEST SWAP4 POP PUSH2 0x79E8 DUP4 DUP6 DUP5 PUSH2 0x5E86 JUMP JUMPDEST PUSH2 0x79F1 DUP4 PUSH2 0x5A5E JUMP JUMPDEST DUP5 ADD SWAP1 POP SWAP4 SWAP3 POP POP POP JUMP JUMPDEST PUSH0 PUSH2 0x7A07 DUP4 DUP6 PUSH2 0x61DA JUMP JUMPDEST SWAP4 POP PUSH2 0x7A14 DUP4 DUP6 DUP5 PUSH2 0x5E86 JUMP JUMPDEST PUSH2 0x7A1D DUP4 PUSH2 0x5A5E JUMP JUMPDEST DUP5 ADD SWAP1 POP SWAP4 SWAP3 POP POP POP JUMP JUMPDEST PUSH0 PUSH1 0x60 DUP3 ADD SWAP1 POP PUSH2 0x7A3B PUSH0 DUP4 ADD DUP9 PUSH2 0x5B27 JUMP JUMPDEST DUP2 DUP2 SUB PUSH1 0x20 DUP4 ADD MSTORE PUSH2 0x7A4E DUP2 DUP7 DUP9 PUSH2 0x79D0 JUMP JUMPDEST SWAP1 POP DUP2 DUP2 SUB PUSH1 0x40 DUP4 ADD MSTORE PUSH2 0x7A63 DUP2 DUP5 DUP7 PUSH2 0x79FC JUMP JUMPDEST SWAP1 POP SWAP7 SWAP6 POP POP POP POP POP POP JUMP JUMPDEST PUSH0 PUSH2 0x7A79 DUP3 PUSH2 0x61D0 JUMP JUMPDEST PUSH2 0x7A83 DUP2 DUP6 PUSH2 0x7248 JUMP JUMPDEST SWAP4 POP PUSH2 0x7A93 DUP2 DUP6 PUSH1 0x20 DUP7 ADD PUSH2 0x5A50 JUMP JUMPDEST DUP1 DUP5 ADD SWAP2 POP POP SWAP3 SWAP2 POP POP JUMP JUMPDEST PUSH0 PUSH2 0x7AAA DUP3 DUP5 PUSH2 0x7A6F JUMP JUMPDEST SWAP2 POP DUP2 SWAP1 POP SWAP3 SWAP2 POP POP JUMP JUMPDEST POP JUMP JUMPDEST PUSH0 PUSH2 0x7AC3 PUSH0 DUP4 PUSH2 0x7248 JUMP JUMPDEST SWAP2 POP PUSH2 0x7ACE DUP3 PUSH2 0x7AB5 JUMP JUMPDEST PUSH0 DUP3 ADD SWAP1 POP SWAP2 SWAP1 POP JUMP JUMPDEST PUSH0 PUSH2 0x7AE2 DUP3 PUSH2 0x7AB8 JUMP JUMPDEST SWAP2 POP DUP2 SWAP1 POP SWAP2 SWAP1 POP JUMP JUMPDEST PUSH32 0x416464726573733A2063616C6C20746F206E6F6E2D636F6E7472616374000000 PUSH0 DUP3 ADD MSTORE POP JUMP JUMPDEST PUSH0 PUSH2 0x7B20 PUSH1 0x1D DUP4 PUSH2 0x5A40 JUMP JUMPDEST SWAP2 POP PUSH2 0x7B2B DUP3 PUSH2 0x7AEC JUMP JUMPDEST PUSH1 0x20 DUP3 ADD SWAP1 POP SWAP2 SWAP1 POP JUMP JUMPDEST PUSH0 PUSH1 0x20 DUP3 ADD SWAP1 POP DUP2 DUP2 SUB PUSH0 DUP4 ADD MSTORE PUSH2 0x7B4D DUP2 PUSH2 0x7B14 JUMP JUMPDEST SWAP1 POP SWAP2 SWAP1 POP JUMP JUMPDEST PUSH0 PUSH1 0x60 DUP3 ADD SWAP1 POP PUSH2 0x7B67 PUSH0 DUP4 ADD DUP7 PUSH2 0x5AF6 JUMP JUMPDEST PUSH2 0x7B74 PUSH1 0x20 DUP4 ADD DUP6 PUSH2 0x5AF6 JUMP JUMPDEST PUSH2 0x7B81 PUSH1 0x40 DUP4 ADD DUP5 PUSH2 0x5B27 JUMP JUMPDEST SWAP5 SWAP4 POP POP POP POP JUMP JUMPDEST PUSH0 DUP2 MLOAD SWAP1 POP PUSH2 0x7B97 DUP2 PUSH2 0x5D0F JUMP JUMPDEST SWAP3 SWAP2 POP POP JUMP JUMPDEST PUSH0 PUSH1 0x20 DUP3 DUP5 SUB SLT ISZERO PUSH2 0x7BB2 JUMPI PUSH2 0x7BB1 PUSH2 0x597B JUMP JUMPDEST JUMPDEST PUSH0 PUSH2 0x7BBF DUP5 DUP3 DUP6 ADD PUSH2 0x7B89 JUMP JUMPDEST SWAP2 POP POP SWAP3 SWAP2 POP POP JUMP JUMPDEST PUSH32 0x5361666545524332303A204552433230206F7065726174696F6E20646964206E PUSH0 DUP3 ADD MSTORE PUSH32 0x6F74207375636365656400000000000000000000000000000000000000000000 PUSH1 0x20 DUP3 ADD MSTORE POP JUMP JUMPDEST PUSH0 PUSH2 0x7C22 PUSH1 0x2A DUP4 PUSH2 0x5A40 JUMP JUMPDEST SWAP2 POP PUSH2 0x7C2D DUP3 PUSH2 0x7BC8 JUMP JUMPDEST PUSH1 0x40 DUP3 ADD SWAP1 POP SWAP2 SWAP1 POP JUMP JUMPDEST PUSH0 PUSH1 0x20 DUP3 ADD SWAP1 POP DUP2 DUP2 SUB PUSH0 DUP4 ADD MSTORE PUSH2 0x7C4F DUP2 PUSH2 0x7C16 JUMP JUMPDEST SWAP1 POP SWAP2 SWAP1 POP JUMP JUMPDEST PUSH32 0x416464726573733A20696E73756666696369656E742062616C616E636520666F PUSH0 DUP3 ADD MSTORE PUSH32 0x722063616C6C0000000000000000000000000000000000000000000000000000 PUSH1 0x20 DUP3 ADD MSTORE POP JUMP JUMPDEST PUSH0 PUSH2 0x7CB0 PUSH1 0x26 DUP4 PUSH2 0x5A40 JUMP JUMPDEST SWAP2 POP PUSH2 0x7CBB DUP3 PUSH2 0x7C56 JUMP JUMPDEST PUSH1 0x40 DUP3 ADD SWAP1 POP SWAP2 SWAP1 POP JUMP JUMPDEST PUSH0 PUSH1 0x20 DUP3 ADD SWAP1 POP DUP2 DUP2 SUB PUSH0 DUP4 ADD MSTORE PUSH2 0x7CDD DUP2 PUSH2 0x7CA4 JUMP JUMPDEST SWAP1 POP SWAP2 SWAP1 POP JUMP INVALID COINBASE PUSH5 0x6472657373 GASPRICE KECCAK256 PUSH13 0x6F772D6C6576656C2064656C65 PUSH8 0x6174652063616C6C KECCAK256 PUSH7 0x61696C6564A264 PUSH10 0x70667358221220FE4652 SELFBALANCE 0xB9 0xB2 0xE7 0xEA SWAP10 0xDE BLOCKHASH PUSH0 SWAP2 0xDA CALL 0xDD EQ SWAP11 CALLER 0x2B PUSH5 0x3C1A797557 SMOD BLOCKHASH 0xCB NUMBER BLOBBASEFEE JUMP PUSH5 0x736F6C6343 STOP ADDMOD SHR STOP CALLER "
		},
		"gasEstimates": {
			"creation": {
				"codeDepositCost": "6413000",
				"executionCost": "infinite",
				"totalCost": "infinite"
			},
			"external": {
				"MAX_TIERS()": "394",
				"TOTAL_SUPPLY()": "415",
				"approve(address,uint256)": "infinite",
				"balanceOf(address)": "2978",
				"batchFrozen(uint256)": "2876",
				"burn(uint256)": "infinite",
				"claim(address,uint256,address,uint256,(bytes32[],uint256,uint256,address),bytes)": "infinite",
				"claim(uint256)": "infinite",
				"claimCondition()": "infinite",
				"contractURI()": "infinite",
				"currentTier()": "2558",
				"encryptDecrypt(bytes,bytes)": "infinite",
				"encryptedData(uint256)": "infinite",
				"getApproved(uint256)": "7469",
				"getBaseURICount()": "2529",
				"getBatchIdAtIndex(uint256)": "infinite",
				"getDefaultRoyaltyInfo()": "4887",
				"getRevealURI(uint256,bytes)": "infinite",
				"getRoyaltyInfoForToken(uint256)": "9661",
				"getSupplyClaimedByWallet(address)": "5117",
				"isApprovedForAll(address,address)": "infinite",
				"isEncryptedBatch(uint256)": "3024",
				"lazyMint(uint256,string,bytes)": "infinite",
				"maxPerWallet()": "2515",
				"multicall(bytes[])": "infinite",
				"name()": "infinite",
				"nextTokenIdToClaim()": "2564",
				"nextTokenIdToMint()": "2501",
				"owner()": "2583",
				"ownerOf(uint256)": "infinite",
				"primarySaleRecipient()": "2629",
				"reveal(uint256,bytes)": "infinite",
				"royaltyInfo(uint256,uint256)": "infinite",
				"safeTransferFrom(address,address,uint256)": "infinite",
				"safeTransferFrom(address,address,uint256,bytes)": "infinite",
				"setApprovalForAll(address,bool)": "infinite",
				"setBaseURI(string)": "infinite",
				"setClaimConditions((uint256,uint256,uint256,uint256,bytes32,uint256,address,string),bool)": "infinite",
				"setContractURI(string)": "infinite",
				"setDefaultRoyaltyInfo(address,uint256)": "infinite",
				"setMaxPerWallet(uint256)": "24773",
				"setOwner(address)": "30808",
				"setPrimarySaleRecipient(address)": "infinite",
				"setRoyaltyInfoForToken(uint256,address,uint256)": "infinite",
				"setTierPrice(uint256,uint256)": "infinite",
				"supportsInterface(bytes4)": "828",
				"symbol()": "infinite",
				"tierMinted()": "2492",
				"tierPrices(uint256)": "infinite",
				"tierSize()": "2536",
				"tokenURI(uint256)": "infinite",
				"totalMinted()": "2514",
				"totalSupply()": "4645",
				"transferFrom(address,address,uint256)": "infinite",
				"verifyClaim(address,uint256,address,uint256,(bytes32[],uint256,uint256,address))": "infinite",
				"walletMints(address)": "2934"
			}
		},
		"methodIdentifiers": {
			"MAX_TIERS()": "07c3d4af",
			"TOTAL_SUPPLY()": "902d55a5",
			"approve(address,uint256)": "095ea7b3",
			"balanceOf(address)": "70a08231",
			"batchFrozen(uint256)": "83040532",
			"burn(uint256)": "42966c68",
			"claim(address,uint256,address,uint256,(bytes32[],uint256,uint256,address),bytes)": "84bb1e42",
			"claim(uint256)": "379607f5",
			"claimCondition()": "d637ed59",
			"contractURI()": "e8a3d485",
			"currentTier()": "d679677a",
			"encryptDecrypt(bytes,bytes)": "e7150322",
			"encryptedData(uint256)": "a05112fc",
			"getApproved(uint256)": "081812fc",
			"getBaseURICount()": "63b45e2d",
			"getBatchIdAtIndex(uint256)": "2419f51b",
			"getDefaultRoyaltyInfo()": "b24f2d39",
			"getRevealURI(uint256,bytes)": "9fc4d68f",
			"getRoyaltyInfoForToken(uint256)": "4cc157df",
			"getSupplyClaimedByWallet(address)": "35b65e1f",
			"isApprovedForAll(address,address)": "e985e9c5",
			"isEncryptedBatch(uint256)": "492e224b",
			"lazyMint(uint256,string,bytes)": "d37c353b",
			"maxPerWallet()": "453c2310",
			"multicall(bytes[])": "ac9650d8",
			"name()": "06fdde03",
			"nextTokenIdToClaim()": "acd083f8",
			"nextTokenIdToMint()": "3b1475a7",
			"owner()": "8da5cb5b",
			"ownerOf(uint256)": "6352211e",
			"primarySaleRecipient()": "079fe40e",
			"reveal(uint256,bytes)": "ce805642",
			"royaltyInfo(uint256,uint256)": "2a55205a",
			"safeTransferFrom(address,address,uint256)": "42842e0e",
			"safeTransferFrom(address,address,uint256,bytes)": "b88d4fde",
			"setApprovalForAll(address,bool)": "a22cb465",
			"setBaseURI(string)": "55f804b3",
			"setClaimConditions((uint256,uint256,uint256,uint256,bytes32,uint256,address,string),bool)": "426cfaf3",
			"setContractURI(string)": "938e3d7b",
			"setDefaultRoyaltyInfo(address,uint256)": "600dd5ea",
			"setMaxPerWallet(uint256)": "e268e4d3",
			"setOwner(address)": "13af4035",
			"setPrimarySaleRecipient(address)": "6f4f2837",
			"setRoyaltyInfoForToken(uint256,address,uint256)": "9bcf7a15",
			"setTierPrice(uint256,uint256)": "5e6bb7bf",
			"supportsInterface(bytes4)": "01ffc9a7",
			"symbol()": "95d89b41",
			"tierMinted()": "dd7d9386",
			"tierPrices(uint256)": "300eccab",
			"tierSize()": "68a9a2fd",
			"tokenURI(uint256)": "c87b56dd",
			"totalMinted()": "a2309ff8",
			"totalSupply()": "18160ddd",
			"transferFrom(address,address,uint256)": "23b872dd",
			"verifyClaim(address,uint256,address,uint256,(bytes32[],uint256,uint256,address))": "eec8897c",
			"walletMints(address)": "f0293fd3"
		}
	},
	"abi": [
		{
			"inputs": [
				{
					"internalType": "address",
					"name": "_defaultAdmin",
					"type": "address"
				},
				{
					"internalType": "string",
					"name": "_name",
					"type": "string"
				},
				{
					"internalType": "string",
					"name": "_symbol",
					"type": "string"
				},
				{
					"internalType": "address",
					"name": "_royaltyRecipient",
					"type": "address"
				},
				{
					"internalType": "uint128",
					"name": "_royaltyBps",
					"type": "uint128"
				},
				{
					"internalType": "address",
					"name": "_primarySaleRecipient",
					"type": "address"
				},
				{
					"internalType": "string",
					"name": "_baseURI",
					"type": "string"
				}
			],
			"stateMutability": "nonpayable",
			"type": "constructor"
		},
		{
			"inputs": [],
			"name": "ApprovalCallerNotOwnerNorApproved",
			"type": "error"
		},
		{
			"inputs": [],
			"name": "ApprovalQueryForNonexistentToken",
			"type": "error"
		},
		{
			"inputs": [],
			"name": "ApprovalToCurrentOwner",
			"type": "error"
		},
		{
			"inputs": [],
			"name": "ApproveToCaller",
			"type": "error"
		},
		{
			"inputs": [],
			"name": "BalanceQueryForZeroAddress",
			"type": "error"
		},
		{
			"inputs": [
				{
					"internalType": "uint256",
					"name": "index",
					"type": "uint256"
				}
			],
			"name": "BatchMintInvalidBatchId",
			"type": "error"
		},
		{
			"inputs": [
				{
					"internalType": "uint256",
					"name": "tokenId",
					"type": "uint256"
				}
			],
			"name": "BatchMintInvalidTokenId",
			"type": "error"
		},
		{
			"inputs": [
				{
					"internalType": "uint256",
					"name": "batchId",
					"type": "uint256"
				}
			],
			"name": "BatchMintMetadataFrozen",
			"type": "error"
		},
		{
			"inputs": [],
			"name": "ContractMetadataUnauthorized",
			"type": "error"
		},
		{
			"inputs": [
				{
					"internalType": "address",
					"name": "recipient",
					"type": "address"
				},
				{
					"internalType": "uint256",
					"name": "value",
					"type": "uint256"
				}
			],
			"name": "CurrencyTransferLibFailedNativeTransfer",
			"type": "error"
		},
		{
			"inputs": [
				{
					"internalType": "bytes32",
					"name": "expected",
					"type": "bytes32"
				},
				{
					"internalType": "bytes32",
					"name": "actual",
					"type": "bytes32"
				}
			],
			"name": "DelayedRevealIncorrectResultHash",
			"type": "error"
		},
		{
			"inputs": [],
			"name": "DelayedRevealNothingToReveal",
			"type": "error"
		},
		{
			"inputs": [
				{
					"internalType": "uint256",
					"name": "expected",
					"type": "uint256"
				},
				{
					"internalType": "uint256",
					"name": "actual",
					"type": "uint256"
				}
			],
			"name": "DropClaimExceedLimit",
			"type": "error"
		},
		{
			"inputs": [
				{
					"internalType": "uint256",
					"name": "expected",
					"type": "uint256"
				},
				{
					"internalType": "uint256",
					"name": "actual",
					"type": "uint256"
				}
			],
			"name": "DropClaimExceedMaxSupply",
			"type": "error"
		},
		{
			"inputs": [
				{
					"internalType": "address",
					"name": "expectedCurrency",
					"type": "address"
				},
				{
					"internalType": "uint256",
					"name": "expectedPricePerToken",
					"type": "uint256"
				},
				{
					"internalType": "address",
					"name": "actualCurrency",
					"type": "address"
				},
				{
					"internalType": "uint256",
					"name": "actualExpectedPricePerToken",
					"type": "uint256"
				}
			],
			"name": "DropClaimInvalidTokenPrice",
			"type": "error"
		},
		{
			"inputs": [
				{
					"internalType": "uint256",
					"name": "expected",
					"type": "uint256"
				},
				{
					"internalType": "uint256",
					"name": "actual",
					"type": "uint256"
				}
			],
			"name": "DropClaimNotStarted",
			"type": "error"
		},
		{
			"inputs": [],
			"name": "DropExceedMaxSupply",
			"type": "error"
		},
		{
			"inputs": [],
			"name": "DropNoActiveCondition",
			"type": "error"
		},
		{
			"inputs": [],
			"name": "DropUnauthorized",
			"type": "error"
		},
		{
			"inputs": [],
			"name": "LazyMintInvalidAmount",
			"type": "error"
		},
		{
			"inputs": [],
			"name": "LazyMintUnauthorized",
			"type": "error"
		},
		{
			"inputs": [],
			"name": "MintToZeroAddress",
			"type": "error"
		},
		{
			"inputs": [],
			"name": "MintZeroQuantity",
			"type": "error"
		},
		{
			"inputs": [],
			"name": "OwnableUnauthorized",
			"type": "error"
		},
		{
			"inputs": [],
			"name": "OwnerQueryForNonexistentToken",
			"type": "error"
		},
		{
			"inputs": [
				{
					"internalType": "address",
					"name": "recipient",
					"type": "address"
				}
			],
			"name": "PrimarySaleInvalidRecipient",
			"type": "error"
		},
		{
			"inputs": [],
			"name": "PrimarySaleUnauthorized",
			"type": "error"
		},
		{
			"inputs": [
				{
					"internalType": "uint256",
					"name": "max",
					"type": "uint256"
				},
				{
					"internalType": "uint256",
					"name": "actual",
					"type": "uint256"
				}
			],
			"name": "RoyaltyExceededMaxFeeBps",
			"type": "error"
		},
		{
			"inputs": [
				{
					"internalType": "address",
					"name": "recipient",
					"type": "address"
				}
			],
			"name": "RoyaltyInvalidRecipient",
			"type": "error"
		},
		{
			"inputs": [],
			"name": "RoyaltyUnauthorized",
			"type": "error"
		},
		{
			"inputs": [],
			"name": "TransferCallerNotOwnerNorApproved",
			"type": "error"
		},
		{
			"inputs": [],
			"name": "TransferFromIncorrectOwner",
			"type": "error"
		},
		{
			"inputs": [],
			"name": "TransferToNonERC721ReceiverImplementer",
			"type": "error"
		},
		{
			"inputs": [],
			"name": "TransferToZeroAddress",
			"type": "error"
		},
		{
			"inputs": [],
			"name": "URIQueryForNonexistentToken",
			"type": "error"
		},
		{
			"anonymous": false,
			"inputs": [
				{
					"indexed": true,
					"internalType": "address",
					"name": "owner",
					"type": "address"
				},
				{
					"indexed": true,
					"internalType": "address",
					"name": "approved",
					"type": "address"
				},
				{
					"indexed": true,
					"internalType": "uint256",
					"name": "tokenId",
					"type": "uint256"
				}
			],
			"name": "Approval",
			"type": "event"
		},
		{
			"anonymous": false,
			"inputs": [
				{
					"indexed": true,
					"internalType": "address",
					"name": "owner",
					"type": "address"
				},
				{
					"indexed": true,
					"internalType": "address",
					"name": "operator",
					"type": "address"
				},
				{
					"indexed": false,
					"internalType": "bool",
					"name": "approved",
					"type": "bool"
				}
			],
			"name": "ApprovalForAll",
			"type": "event"
		},
		{
			"anonymous": false,
			"inputs": [
				{
					"indexed": false,
					"internalType": "uint256",
					"name": "_fromTokenId",
					"type": "uint256"
				},
				{
					"indexed": false,
					"internalType": "uint256",
					"name": "_toTokenId",
					"type": "uint256"
				}
			],
			"name": "BatchMetadataUpdate",
			"type": "event"
		},
		{
			"anonymous": false,
			"inputs": [
				{
					"components": [
						{
							"internalType": "uint256",
							"name": "startTimestamp",
							"type": "uint256"
						},
						{
							"internalType": "uint256",
							"name": "maxClaimableSupply",
							"type": "uint256"
						},
						{
							"internalType": "uint256",
							"name": "supplyClaimed",
							"type": "uint256"
						},
						{
							"internalType": "uint256",
							"name": "quantityLimitPerWallet",
							"type": "uint256"
						},
						{
							"internalType": "bytes32",
							"name": "merkleRoot",
							"type": "bytes32"
						},
						{
							"internalType": "uint256",
							"name": "pricePerToken",
							"type": "uint256"
						},
						{
							"internalType": "address",
							"name": "currency",
							"type": "address"
						},
						{
							"internalType": "string",
							"name": "metadata",
							"type": "string"
						}
					],
					"indexed": false,
					"internalType": "struct IClaimCondition.ClaimCondition",
					"name": "condition",
					"type": "tuple"
				},
				{
					"indexed": false,
					"internalType": "bool",
					"name": "resetEligibility",
					"type": "bool"
				}
			],
			"name": "ClaimConditionUpdated",
			"type": "event"
		},
		{
			"anonymous": false,
			"inputs": [
				{
					"indexed": false,
					"internalType": "string",
					"name": "prevURI",
					"type": "string"
				},
				{
					"indexed": false,
					"internalType": "string",
					"name": "newURI",
					"type": "string"
				}
			],
			"name": "ContractURIUpdated",
			"type": "event"
		},
		{
			"anonymous": false,
			"inputs": [
				{
					"indexed": true,
					"internalType": "address",
					"name": "newRoyaltyRecipient",
					"type": "address"
				},
				{
					"indexed": false,
					"internalType": "uint256",
					"name": "newRoyaltyBps",
					"type": "uint256"
				}
			],
			"name": "DefaultRoyalty",
			"type": "event"
		},
		{
			"anonymous": false,
			"inputs": [],
			"name": "MetadataFrozen",
			"type": "event"
		},
		{
			"anonymous": false,
			"inputs": [
				{
					"indexed": true,
					"internalType": "address",
					"name": "prevOwner",
					"type": "address"
				},
				{
					"indexed": true,
					"internalType": "address",
					"name": "newOwner",
					"type": "address"
				}
			],
			"name": "OwnerUpdated",
			"type": "event"
		},
		{
			"anonymous": false,
			"inputs": [
				{
					"indexed": true,
					"internalType": "address",
					"name": "recipient",
					"type": "address"
				}
			],
			"name": "PrimarySaleRecipientUpdated",
			"type": "event"
		},
		{
			"anonymous": false,
			"inputs": [
				{
					"indexed": true,
					"internalType": "uint256",
					"name": "tokenId",
					"type": "uint256"
				},
				{
					"indexed": true,
					"internalType": "address",
					"name": "royaltyRecipient",
					"type": "address"
				},
				{
					"indexed": false,
					"internalType": "uint256",
					"name": "royaltyBps",
					"type": "uint256"
				}
			],
			"name": "RoyaltyForToken",
			"type": "event"
		},
		{
			"anonymous": false,
			"inputs": [
				{
					"indexed": true,
					"internalType": "uint256",
					"name": "index",
					"type": "uint256"
				},
				{
					"indexed": false,
					"internalType": "string",
					"name": "revealedURI",
					"type": "string"
				}
			],
			"name": "TokenURIRevealed",
			"type": "event"
		},
		{
			"anonymous": false,
			"inputs": [
				{
					"indexed": true,
					"internalType": "address",
					"name": "claimer",
					"type": "address"
				},
				{
					"indexed": true,
					"internalType": "address",
					"name": "receiver",
					"type": "address"
				},
				{
					"indexed": true,
					"internalType": "uint256",
					"name": "startTokenId",
					"type": "uint256"
				},
				{
					"indexed": false,
					"internalType": "uint256",
					"name": "quantityClaimed",
					"type": "uint256"
				}
			],
			"name": "TokensClaimed",
			"type": "event"
		},
		{
			"anonymous": false,
			"inputs": [
				{
					"indexed": true,
					"internalType": "uint256",
					"name": "startTokenId",
					"type": "uint256"
				},
				{
					"indexed": false,
					"internalType": "uint256",
					"name": "endTokenId",
					"type": "uint256"
				},
				{
					"indexed": false,
					"internalType": "string",
					"name": "baseURI",
					"type": "string"
				},
				{
					"indexed": false,
					"internalType": "bytes",
					"name": "encryptedBaseURI",
					"type": "bytes"
				}
			],
			"name": "TokensLazyMinted",
			"type": "event"
		},
		{
			"anonymous": false,
			"inputs": [
				{
					"indexed": true,
					"internalType": "address",
					"name": "from",
					"type": "address"
				},
				{
					"indexed": true,
					"internalType": "address",
					"name": "to",
					"type": "address"
				},
				{
					"indexed": true,
					"internalType": "uint256",
					"name": "tokenId",
					"type": "uint256"
				}
			],
			"name": "Transfer",
			"type": "event"
		},
		{
			"inputs": [],
			"name": "MAX_TIERS",
			"outputs": [
				{
					"internalType": "uint256",
					"name": "",
					"type": "uint256"
				}
			],
			"stateMutability": "view",
			"type": "function"
		},
		{
			"inputs": [],
			"name": "TOTAL_SUPPLY",
			"outputs": [
				{
					"internalType": "uint256",
					"name": "",
					"type": "uint256"
				}
			],
			"stateMutability": "view",
			"type": "function"
		},
		{
			"inputs": [
				{
					"internalType": "address",
					"name": "to",
					"type": "address"
				},
				{
					"internalType": "uint256",
					"name": "tokenId",
					"type": "uint256"
				}
			],
			"name": "approve",
			"outputs": [],
			"stateMutability": "nonpayable",
			"type": "function"
		},
		{
			"inputs": [
				{
					"internalType": "address",
					"name": "owner",
					"type": "address"
				}
			],
			"name": "balanceOf",
			"outputs": [
				{
					"internalType": "uint256",
					"name": "",
					"type": "uint256"
				}
			],
			"stateMutability": "view",
			"type": "function"
		},
		{
			"inputs": [
				{
					"internalType": "uint256",
					"name": "",
					"type": "uint256"
				}
			],
			"name": "batchFrozen",
			"outputs": [
				{
					"internalType": "bool",
					"name": "",
					"type": "bool"
				}
			],
			"stateMutability": "view",
			"type": "function"
		},
		{
			"inputs": [
				{
					"internalType": "uint256",
					"name": "_tokenId",
					"type": "uint256"
				}
			],
			"name": "burn",
			"outputs": [],
			"stateMutability": "nonpayable",
			"type": "function"
		},
		{
			"inputs": [
				{
					"internalType": "uint256",
					"name": "quantity",
					"type": "uint256"
				}
			],
			"name": "claim",
			"outputs": [],
			"stateMutability": "payable",
			"type": "function"
		},
		{
			"inputs": [
				{
					"internalType": "address",
					"name": "_receiver",
					"type": "address"
				},
				{
					"internalType": "uint256",
					"name": "_quantity",
					"type": "uint256"
				},
				{
					"internalType": "address",
					"name": "_currency",
					"type": "address"
				},
				{
					"internalType": "uint256",
					"name": "_pricePerToken",
					"type": "uint256"
				},
				{
					"components": [
						{
							"internalType": "bytes32[]",
							"name": "proof",
							"type": "bytes32[]"
						},
						{
							"internalType": "uint256",
							"name": "quantityLimitPerWallet",
							"type": "uint256"
						},
						{
							"internalType": "uint256",
							"name": "pricePerToken",
							"type": "uint256"
						},
						{
							"internalType": "address",
							"name": "currency",
							"type": "address"
						}
					],
					"internalType": "struct IDropSinglePhase.AllowlistProof",
					"name": "_allowlistProof",
					"type": "tuple"
				},
				{
					"internalType": "bytes",
					"name": "_data",
					"type": "bytes"
				}
			],
			"name": "claim",
			"outputs": [],
			"stateMutability": "payable",
			"type": "function"
		},
		{
			"inputs": [],
			"name": "claimCondition",
			"outputs": [
				{
					"internalType": "uint256",
					"name": "startTimestamp",
					"type": "uint256"
				},
				{
					"internalType": "uint256",
					"name": "maxClaimableSupply",
					"type": "uint256"
				},
				{
					"internalType": "uint256",
					"name": "supplyClaimed",
					"type": "uint256"
				},
				{
					"internalType": "uint256",
					"name": "quantityLimitPerWallet",
					"type": "uint256"
				},
				{
					"internalType": "bytes32",
					"name": "merkleRoot",
					"type": "bytes32"
				},
				{
					"internalType": "uint256",
					"name": "pricePerToken",
					"type": "uint256"
				},
				{
					"internalType": "address",
					"name": "currency",
					"type": "address"
				},
				{
					"internalType": "string",
					"name": "metadata",
					"type": "string"
				}
			],
			"stateMutability": "view",
			"type": "function"
		},
		{
			"inputs": [],
			"name": "contractURI",
			"outputs": [
				{
					"internalType": "string",
					"name": "",
					"type": "string"
				}
			],
			"stateMutability": "view",
			"type": "function"
		},
		{
			"inputs": [],
			"name": "currentTier",
			"outputs": [
				{
					"internalType": "uint256",
					"name": "",
					"type": "uint256"
				}
			],
			"stateMutability": "view",
			"type": "function"
		},
		{
			"inputs": [
				{
					"internalType": "bytes",
					"name": "data",
					"type": "bytes"
				},
				{
					"internalType": "bytes",
					"name": "key",
					"type": "bytes"
				}
			],
			"name": "encryptDecrypt",
			"outputs": [
				{
					"internalType": "bytes",
					"name": "result",
					"type": "bytes"
				}
			],
			"stateMutability": "pure",
			"type": "function"
		},
		{
			"inputs": [
				{
					"internalType": "uint256",
					"name": "",
					"type": "uint256"
				}
			],
			"name": "encryptedData",
			"outputs": [
				{
					"internalType": "bytes",
					"name": "",
					"type": "bytes"
				}
			],
			"stateMutability": "view",
			"type": "function"
		},
		{
			"inputs": [
				{
					"internalType": "uint256",
					"name": "tokenId",
					"type": "uint256"
				}
			],
			"name": "getApproved",
			"outputs": [
				{
					"internalType": "address",
					"name": "",
					"type": "address"
				}
			],
			"stateMutability": "view",
			"type": "function"
		},
		{
			"inputs": [],
			"name": "getBaseURICount",
			"outputs": [
				{
					"internalType": "uint256",
					"name": "",
					"type": "uint256"
				}
			],
			"stateMutability": "view",
			"type": "function"
		},
		{
			"inputs": [
				{
					"internalType": "uint256",
					"name": "_index",
					"type": "uint256"
				}
			],
			"name": "getBatchIdAtIndex",
			"outputs": [
				{
					"internalType": "uint256",
					"name": "",
					"type": "uint256"
				}
			],
			"stateMutability": "view",
			"type": "function"
		},
		{
			"inputs": [],
			"name": "getDefaultRoyaltyInfo",
			"outputs": [
				{
					"internalType": "address",
					"name": "",
					"type": "address"
				},
				{
					"internalType": "uint16",
					"name": "",
					"type": "uint16"
				}
			],
			"stateMutability": "view",
			"type": "function"
		},
		{
			"inputs": [
				{
					"internalType": "uint256",
					"name": "_batchId",
					"type": "uint256"
				},
				{
					"internalType": "bytes",
					"name": "_key",
					"type": "bytes"
				}
			],
			"name": "getRevealURI",
			"outputs": [
				{
					"internalType": "string",
					"name": "revealedURI",
					"type": "string"
				}
			],
			"stateMutability": "view",
			"type": "function"
		},
		{
			"inputs": [
				{
					"internalType": "uint256",
					"name": "_tokenId",
					"type": "uint256"
				}
			],
			"name": "getRoyaltyInfoForToken",
			"outputs": [
				{
					"internalType": "address",
					"name": "",
					"type": "address"
				},
				{
					"internalType": "uint16",
					"name": "",
					"type": "uint16"
				}
			],
			"stateMutability": "view",
			"type": "function"
		},
		{
			"inputs": [
				{
					"internalType": "address",
					"name": "_claimer",
					"type": "address"
				}
			],
			"name": "getSupplyClaimedByWallet",
			"outputs": [
				{
					"internalType": "uint256",
					"name": "",
					"type": "uint256"
				}
			],
			"stateMutability": "view",
			"type": "function"
		},
		{
			"inputs": [
				{
					"internalType": "address",
					"name": "owner",
					"type": "address"
				},
				{
					"internalType": "address",
					"name": "operator",
					"type": "address"
				}
			],
			"name": "isApprovedForAll",
			"outputs": [
				{
					"internalType": "bool",
					"name": "",
					"type": "bool"
				}
			],
			"stateMutability": "view",
			"type": "function"
		},
		{
			"inputs": [
				{
					"internalType": "uint256",
					"name": "_batchId",
					"type": "uint256"
				}
			],
			"name": "isEncryptedBatch",
			"outputs": [
				{
					"internalType": "bool",
					"name": "",
					"type": "bool"
				}
			],
			"stateMutability": "view",
			"type": "function"
		},
		{
			"inputs": [
				{
					"internalType": "uint256",
					"name": "_amount",
					"type": "uint256"
				},
				{
					"internalType": "string",
					"name": "_baseURIForTokens",
					"type": "string"
				},
				{
					"internalType": "bytes",
					"name": "_data",
					"type": "bytes"
				}
			],
			"name": "lazyMint",
			"outputs": [
				{
					"internalType": "uint256",
					"name": "batchId",
					"type": "uint256"
				}
			],
			"stateMutability": "nonpayable",
			"type": "function"
		},
		{
			"inputs": [],
			"name": "maxPerWallet",
			"outputs": [
				{
					"internalType": "uint256",
					"name": "",
					"type": "uint256"
				}
			],
			"stateMutability": "view",
			"type": "function"
		},
		{
			"inputs": [
				{
					"internalType": "bytes[]",
					"name": "data",
					"type": "bytes[]"
				}
			],
			"name": "multicall",
			"outputs": [
				{
					"internalType": "bytes[]",
					"name": "results",
					"type": "bytes[]"
				}
			],
			"stateMutability": "nonpayable",
			"type": "function"
		},
		{
			"inputs": [],
			"name": "name",
			"outputs": [
				{
					"internalType": "string",
					"name": "",
					"type": "string"
				}
			],
			"stateMutability": "view",
			"type": "function"
		},
		{
			"inputs": [],
			"name": "nextTokenIdToClaim",
			"outputs": [
				{
					"internalType": "uint256",
					"name": "",
					"type": "uint256"
				}
			],
			"stateMutability": "view",
			"type": "function"
		},
		{
			"inputs": [],
			"name": "nextTokenIdToMint",
			"outputs": [
				{
					"internalType": "uint256",
					"name": "",
					"type": "uint256"
				}
			],
			"stateMutability": "view",
			"type": "function"
		},
		{
			"inputs": [],
			"name": "owner",
			"outputs": [
				{
					"internalType": "address",
					"name": "",
					"type": "address"
				}
			],
			"stateMutability": "view",
			"type": "function"
		},
		{
			"inputs": [
				{
					"internalType": "uint256",
					"name": "tokenId",
					"type": "uint256"
				}
			],
			"name": "ownerOf",
			"outputs": [
				{
					"internalType": "address",
					"name": "",
					"type": "address"
				}
			],
			"stateMutability": "view",
			"type": "function"
		},
		{
			"inputs": [],
			"name": "primarySaleRecipient",
			"outputs": [
				{
					"internalType": "address",
					"name": "",
					"type": "address"
				}
			],
			"stateMutability": "view",
			"type": "function"
		},
		{
			"inputs": [
				{
					"internalType": "uint256",
					"name": "_index",
					"type": "uint256"
				},
				{
					"internalType": "bytes",
					"name": "_key",
					"type": "bytes"
				}
			],
			"name": "reveal",
			"outputs": [
				{
					"internalType": "string",
					"name": "revealedURI",
					"type": "string"
				}
			],
			"stateMutability": "nonpayable",
			"type": "function"
		},
		{
			"inputs": [
				{
					"internalType": "uint256",
					"name": "tokenId",
					"type": "uint256"
				},
				{
					"internalType": "uint256",
					"name": "salePrice",
					"type": "uint256"
				}
			],
			"name": "royaltyInfo",
			"outputs": [
				{
					"internalType": "address",
					"name": "receiver",
					"type": "address"
				},
				{
					"internalType": "uint256",
					"name": "royaltyAmount",
					"type": "uint256"
				}
			],
			"stateMutability": "view",
			"type": "function"
		},
		{
			"inputs": [
				{
					"internalType": "address",
					"name": "from",
					"type": "address"
				},
				{
					"internalType": "address",
					"name": "to",
					"type": "address"
				},
				{
					"internalType": "uint256",
					"name": "tokenId",
					"type": "uint256"
				}
			],
			"name": "safeTransferFrom",
			"outputs": [],
			"stateMutability": "nonpayable",
			"type": "function"
		},
		{
			"inputs": [
				{
					"internalType": "address",
					"name": "from",
					"type": "address"
				},
				{
					"internalType": "address",
					"name": "to",
					"type": "address"
				},
				{
					"internalType": "uint256",
					"name": "tokenId",
					"type": "uint256"
				},
				{
					"internalType": "bytes",
					"name": "_data",
					"type": "bytes"
				}
			],
			"name": "safeTransferFrom",
			"outputs": [],
			"stateMutability": "nonpayable",
			"type": "function"
		},
		{
			"inputs": [
				{
					"internalType": "address",
					"name": "operator",
					"type": "address"
				},
				{
					"internalType": "bool",
					"name": "approved",
					"type": "bool"
				}
			],
			"name": "setApprovalForAll",
			"outputs": [],
			"stateMutability": "nonpayable",
			"type": "function"
		},
		{
			"inputs": [
				{
					"internalType": "string",
					"name": "_newBaseURI",
					"type": "string"
				}
			],
			"name": "setBaseURI",
			"outputs": [],
			"stateMutability": "nonpayable",
			"type": "function"
		},
		{
			"inputs": [
				{
					"components": [
						{
							"internalType": "uint256",
							"name": "startTimestamp",
							"type": "uint256"
						},
						{
							"internalType": "uint256",
							"name": "maxClaimableSupply",
							"type": "uint256"
						},
						{
							"internalType": "uint256",
							"name": "supplyClaimed",
							"type": "uint256"
						},
						{
							"internalType": "uint256",
							"name": "quantityLimitPerWallet",
							"type": "uint256"
						},
						{
							"internalType": "bytes32",
							"name": "merkleRoot",
							"type": "bytes32"
						},
						{
							"internalType": "uint256",
							"name": "pricePerToken",
							"type": "uint256"
						},
						{
							"internalType": "address",
							"name": "currency",
							"type": "address"
						},
						{
							"internalType": "string",
							"name": "metadata",
							"type": "string"
						}
					],
					"internalType": "struct IClaimCondition.ClaimCondition",
					"name": "_condition",
					"type": "tuple"
				},
				{
					"internalType": "bool",
					"name": "_resetClaimEligibility",
					"type": "bool"
				}
			],
			"name": "setClaimConditions",
			"outputs": [],
			"stateMutability": "nonpayable",
			"type": "function"
		},
		{
			"inputs": [
				{
					"internalType": "string",
					"name": "_uri",
					"type": "string"
				}
			],
			"name": "setContractURI",
			"outputs": [],
			"stateMutability": "nonpayable",
			"type": "function"
		},
		{
			"inputs": [
				{
					"internalType": "address",
					"name": "_royaltyRecipient",
					"type": "address"
				},
				{
					"internalType": "uint256",
					"name": "_royaltyBps",
					"type": "uint256"
				}
			],
			"name": "setDefaultRoyaltyInfo",
			"outputs": [],
			"stateMutability": "nonpayable",
			"type": "function"
		},
		{
			"inputs": [
				{
					"internalType": "uint256",
					"name": "_newMax",
					"type": "uint256"
				}
			],
			"name": "setMaxPerWallet",
			"outputs": [],
			"stateMutability": "nonpayable",
			"type": "function"
		},
		{
			"inputs": [
				{
					"internalType": "address",
					"name": "_newOwner",
					"type": "address"
				}
			],
			"name": "setOwner",
			"outputs": [],
			"stateMutability": "nonpayable",
			"type": "function"
		},
		{
			"inputs": [
				{
					"internalType": "address",
					"name": "_saleRecipient",
					"type": "address"
				}
			],
			"name": "setPrimarySaleRecipient",
			"outputs": [],
			"stateMutability": "nonpayable",
			"type": "function"
		},
		{
			"inputs": [
				{
					"internalType": "uint256",
					"name": "_tokenId",
					"type": "uint256"
				},
				{
					"internalType": "address",
					"name": "_recipient",
					"type": "address"
				},
				{
					"internalType": "uint256",
					"name": "_bps",
					"type": "uint256"
				}
			],
			"name": "setRoyaltyInfoForToken",
			"outputs": [],
			"stateMutability": "nonpayable",
			"type": "function"
		},
		{
			"inputs": [
				{
					"internalType": "uint256",
					"name": "tier",
					"type": "uint256"
				},
				{
					"internalType": "uint256",
					"name": "price",
					"type": "uint256"
				}
			],
			"name": "setTierPrice",
			"outputs": [],
			"stateMutability": "nonpayable",
			"type": "function"
		},
		{
			"inputs": [
				{
					"internalType": "bytes4",
					"name": "interfaceId",
					"type": "bytes4"
				}
			],
			"name": "supportsInterface",
			"outputs": [
				{
					"internalType": "bool",
					"name": "",
					"type": "bool"
				}
			],
			"stateMutability": "view",
			"type": "function"
		},
		{
			"inputs": [],
			"name": "symbol",
			"outputs": [
				{
					"internalType": "string",
					"name": "",
					"type": "string"
				}
			],
			"stateMutability": "view",
			"type": "function"
		},
		{
			"inputs": [],
			"name": "tierMinted",
			"outputs": [
				{
					"internalType": "uint256",
					"name": "",
					"type": "uint256"
				}
			],
			"stateMutability": "view",
			"type": "function"
		},
		{
			"inputs": [
				{
					"internalType": "uint256",
					"name": "",
					"type": "uint256"
				}
			],
			"name": "tierPrices",
			"outputs": [
				{
					"internalType": "uint256",
					"name": "",
					"type": "uint256"
				}
			],
			"stateMutability": "view",
			"type": "function"
		},
		{
			"inputs": [],
			"name": "tierSize",
			"outputs": [
				{
					"internalType": "uint256",
					"name": "",
					"type": "uint256"
				}
			],
			"stateMutability": "view",
			"type": "function"
		},
		{
			"inputs": [
				{
					"internalType": "uint256",
					"name": "_tokenId",
					"type": "uint256"
				}
			],
			"name": "tokenURI",
			"outputs": [
				{
					"internalType": "string",
					"name": "",
					"type": "string"
				}
			],
			"stateMutability": "view",
			"type": "function"
		},
		{
			"inputs": [],
			"name": "totalMinted",
			"outputs": [
				{
					"internalType": "uint256",
					"name": "",
					"type": "uint256"
				}
			],
			"stateMutability": "view",
			"type": "function"
		},
		{
			"inputs": [],
			"name": "totalSupply",
			"outputs": [
				{
					"internalType": "uint256",
					"name": "",
					"type": "uint256"
				}
			],
			"stateMutability": "view",
			"type": "function"
		},
		{
			"inputs": [
				{
					"internalType": "address",
					"name": "from",
					"type": "address"
				},
				{
					"internalType": "address",
					"name": "to",
					"type": "address"
				},
				{
					"internalType": "uint256",
					"name": "tokenId",
					"type": "uint256"
				}
			],
			"name": "transferFrom",
			"outputs": [],
			"stateMutability": "nonpayable",
			"type": "function"
		},
		{
			"inputs": [
				{
					"internalType": "address",
					"name": "_claimer",
					"type": "address"
				},
				{
					"internalType": "uint256",
					"name": "_quantity",
					"type": "uint256"
				},
				{
					"internalType": "address",
					"name": "_currency",
					"type": "address"
				},
				{
					"internalType": "uint256",
					"name": "_pricePerToken",
					"type": "uint256"
				},
				{
					"components": [
						{
							"internalType": "bytes32[]",
							"name": "proof",
							"type": "bytes32[]"
						},
						{
							"internalType": "uint256",
							"name": "quantityLimitPerWallet",
							"type": "uint256"
						},
						{
							"internalType": "uint256",
							"name": "pricePerToken",
							"type": "uint256"
						},
						{
							"internalType": "address",
							"name": "currency",
							"type": "address"
						}
					],
					"internalType": "struct IDropSinglePhase.AllowlistProof",
					"name": "_allowlistProof",
					"type": "tuple"
				}
			],
			"name": "verifyClaim",
			"outputs": [
				{
					"internalType": "bool",
					"name": "isOverride",
					"type": "bool"
				}
			],
			"stateMutability": "view",
			"type": "function"
		},
		{
			"inputs": [
				{
					"internalType": "address",
					"name": "",
					"type": "address"
				}
			],
			"name": "walletMints",
			"outputs": [
				{
					"internalType": "uint256",
					"name": "",
					"type": "uint256"
				}
			],
			"stateMutability": "view",
			"type": "function"
		}
	]
}