{
	"data": {
		"bytecode": {
			"linkReferences": {},
			"object": "608060405262015b38601d55604d601e556064601f5560016020555f6021555f602255735f4ec3df9cbd43714fe2740f5e3616155c5b8419602e5f6101000a81548173ffffffffffffffffffffffffffffffffffffffff021916908373ffffffffffffffffffffffffffffffffffffffff160217905550733e7d1eab13ad0104d2750b8863b489d65364e32d602f5f6101000a81548173ffffffffffffffffffffffffffffffffffffffff021916908373ffffffffffffffffffffffffffffffffffffffff160217905550738fffffd4afb6115b954bd326cbe7b4ba576818f660305f6101000a81548173ffffffffffffffffffffffffffffffffffffffff021916908373ffffffffffffffffffffffffffffffffffffffff16021790555073deb288f737066589598e9214e782fa5a8ed689e860315f6101000a81548173ffffffffffffffffffffffffffffffffffffffff021916908373ffffffffffffffffffffffffffffffffffffffff16021790555034801561017d575f5ffd5b5060405161ba2938038061ba29833981810160405281019061019f91906106ec565b868686868686848481600290816101b691906109ed565b5080600390816101c691906109ed565b506101d561024660201b60201c565b5f8190555050506101eb8661024d60201b60201c565b61020d83836fffffffffffffffffffffffffffffffff1661031060201b60201c565b61021c8161040a60201b60201c565b5050505050506001601c81905550806023908161023991906109ed565b5050505050505050610b6c565b5f5f905090565b5f60095f9054906101000a900473ffffffffffffffffffffffffffffffffffffffff1690508160095f6101000a81548173ffffffffffffffffffffffffffffffffffffffff021916908373ffffffffffffffffffffffffffffffffffffffff1602179055508173ffffffffffffffffffffffffffffffffffffffff168173ffffffffffffffffffffffffffffffffffffffff167f8292fce18fa69edf4db7b94ea2e58241df0ae57f97e0a6c9b29067028bf92d7660405160405180910390a35050565b61271081111561035b57612710816040517f52498568000000000000000000000000000000000000000000000000000000008152600401610352929190610b04565b60405180910390fd5b81600a5f6101000a81548173ffffffffffffffffffffffffffffffffffffffff021916908373ffffffffffffffffffffffffffffffffffffffff16021790555080600a60146101000a81548161ffff021916908361ffff1602179055508173ffffffffffffffffffffffffffffffffffffffff167f90d7ec04bcb8978719414f82e52e4cb651db41d0e6f8cea6118c2191e6183adb826040516103fe9190610b2b565b60405180910390a25050565b5f73ffffffffffffffffffffffffffffffffffffffff168173ffffffffffffffffffffffffffffffffffffffff160361047a57806040517f3df2b0dc0000000000000000000000000000000000000000000000000000000081526004016104719190610b53565b60405180910390fd5b80600f5f6101000a81548173ffffffffffffffffffffffffffffffffffffffff021916908373ffffffffffffffffffffffffffffffffffffffff1602179055508073ffffffffffffffffffffffffffffffffffffffff167f299d17e95023f496e0ffc4909cff1a61f74bb5eb18de6f900f4155bfa1b3b33360405160405180910390a250565b5f604051905090565b5f5ffd5b5f5ffd5b5f73ffffffffffffffffffffffffffffffffffffffff82169050919050565b5f61053a82610511565b9050919050565b61054a81610530565b8114610554575f5ffd5b50565b5f8151905061056581610541565b92915050565b5f5ffd5b5f5ffd5b5f601f19601f8301169050919050565b7f4e487b71000000000000000000000000000000000000000000000000000000005f52604160045260245ffd5b6105b982610573565b810181811067ffffffffffffffff821117156105d8576105d7610583565b5b80604052505050565b5f6105ea610500565b90506105f682826105b0565b919050565b5f67ffffffffffffffff82111561061557610614610583565b5b61061e82610573565b9050602081019050919050565b8281835e5f83830152505050565b5f61064b610646846105fb565b6105e1565b9050828152602081018484840111156106675761066661056f565b5b61067284828561062b565b509392505050565b5f82601f83011261068e5761068d61056b565b5b815161069e848260208601610639565b91505092915050565b5f6fffffffffffffffffffffffffffffffff82169050919050565b6106cb816106a7565b81146106d5575f5ffd5b50565b5f815190506106e6816106c2565b92915050565b5f5f5f5f5f5f5f60e0888a03121561070757610706610509565b5b5f6107148a828b01610557565b975050602088015167ffffffffffffffff8111156107355761073461050d565b5b6107418a828b0161067a565b965050604088015167ffffffffffffffff8111156107625761076161050d565b5b61076e8a828b0161067a565b955050606061077f8a828b01610557565b94505060806107908a828b016106d8565b93505060a06107a18a828b01610557565b92505060c088015167ffffffffffffffff8111156107c2576107c161050d565b5b6107ce8a828b0161067a565b91505092959891949750929550565b5f81519050919050565b7f4e487b71000000000000000000000000000000000000000000000000000000005f52602260045260245ffd5b5f600282049050600182168061082b57607f821691505b60208210810361083e5761083d6107e7565b5b50919050565b5f819050815f5260205f209050919050565b5f6020601f8301049050919050565b5f82821b905092915050565b5f600883026108a07fffffffffffffffffffffffffffffffffffffffffffffffffffffffffffffffff82610865565b6108aa8683610865565b95508019841693508086168417925050509392505050565b5f819050919050565b5f819050919050565b5f6108ee6108e96108e4846108c2565b6108cb565b6108c2565b9050919050565b5f819050919050565b610907836108d4565b61091b610913826108f5565b848454610871565b825550505050565b5f5f905090565b610932610923565b61093d8184846108fe565b505050565b5b81811015610960576109555f8261092a565b600181019050610943565b5050565b601f8211156109a55761097681610844565b61097f84610856565b8101602085101561098e578190505b6109a261099a85610856565b830182610942565b50505b505050565b5f82821c905092915050565b5f6109c55f19846008026109aa565b1980831691505092915050565b5f6109dd83836109b6565b9150826002028217905092915050565b6109f6826107dd565b67ffffffffffffffff811115610a0f57610a0e610583565b5b610a198254610814565b610a24828285610964565b5f60209050601f831160018114610a55575f8415610a43578287015190505b610a4d85826109d2565b865550610ab4565b601f198416610a6386610844565b5f5b82811015610a8a57848901518255600182019150602085019450602081019050610a65565b86831015610aa75784890151610aa3601f8916826109b6565b8355505b6001600288020188555050505b505050505050565b5f819050919050565b5f610adf610ada610ad584610abc565b6108cb565b6108c2565b9050919050565b610aef81610ac5565b82525050565b610afe816108c2565b82525050565b5f604082019050610b175f830185610ae6565b610b246020830184610af5565b9392505050565b5f602082019050610b3e5f830184610af5565b92915050565b610b4d81610530565b82525050565b5f602082019050610b665f830184610b44565b92915050565b61aeb080610b795f395ff3fe608060405260043610610425575f3560e01c80636f4f283711610228578063b24f2d391161012d578063d679677a116100b5578063e8a3d48511610079578063e8a3d485146110ff578063e985e9c514611129578063eec8897c14611165578063f0293fd3146111a1578063f7ea7a3d146111dd57610425565b8063d679677a1461100b578063d6f9237214611035578063dd7d938614611071578063e268e4d31461109b578063e7150322146110c357610425565b8063ce805642116100fc578063ce80564214610eea578063d02641a014610f26578063d37c353b14610f62578063d499bc8514610f9e578063d637ed5914610fda57610425565b8063b24f2d3914610e33578063b88d4fde14610e5e578063bee2c64c14610e86578063c87b56dd14610eae57610425565b806395d89b41116101b0578063a05112fc1161017f578063a05112fc14610d3f578063a22cb46514610d7b578063a2309ff814610da3578063ac9650d814610dcd578063acd083f814610e0957610425565b806395d89b4114610c755780639b2c76d414610c9f5780639bcf7a1514610cdb5780639fc4d68f14610d0357610425565b806386cbf53a116101f757806386cbf53a14610b955780638947606914610bd15780638da5cb5b14610bf9578063902d55a514610c23578063938e3d7b14610c4d57610425565b80636f4f283714610ad957806370a0823114610b015780638304053214610b3d57806384bb1e4214610b7957610425565b806335b65e1f1161032e5780634c63c518116102b657806360d46f6a1161028557806360d46f6a146109e55780636352211e14610a0d57806363b45e2d14610a495780636c0360eb14610a735780636c9c7b6314610a9d57610425565b80634c63c5181461091c5780634cc157df1461095857806355f804b314610995578063600dd5ea146109bd57610425565b806342842e0e116102fd57806342842e0e1461085057806342966c6814610878578063453c2310146108a057806348eec4f8146108ca578063492e224b146108e057610425565b806335b65e1f146107ac5780633b1475a7146107e85780633ccfd60b14610812578063426cfaf31461082857610425565b806318160ddd116103b1578063257f7fd511610380578063257f7fd51461067f5780632a55205a146106bb5780632b396b9a146106f8578063300eccab1461073457806330521bde1461077057610425565b806318160ddd146105b557806323b872dd146105df5780632419f51b14610607578063247e0bf01461064357610425565b806307c3d4af116103f857806307c3d4af146104e3578063081812fc1461050d578063095ea7b3146105495780630e910f1d1461057157806313af40351461058d57610425565b8063010a38f51461042957806301ffc9a71461045357806306fdde031461048f578063079fe40e146104b9575b5f5ffd5b348015610434575f5ffd5b5061043d611205565b60405161044a9190617990565b60405180910390f35b34801561045e575f5ffd5b5061047960048036038101906104749190617a0f565b61120e565b6040516104869190617a54565b60405180910390f35b34801561049a575f5ffd5b506104a3611307565b6040516104b09190617add565b60405180910390f35b3480156104c4575f5ffd5b506104cd611397565b6040516104da9190617b3c565b60405180910390f35b3480156104ee575f5ffd5b506104f76113bf565b6040516105049190617990565b60405180910390f35b348015610518575f5ffd5b50610533600480360381019061052e9190617b7f565b6113c5565b6040516105409190617b3c565b60405180910390f35b348015610554575f5ffd5b5061056f600480360381019061056a9190617bd4565b61143d565b005b61058b60048036038101906105869190617d3e565b611540565b005b348015610598575f5ffd5b506105b360048036038101906105ae9190617daa565b612196565b005b3480156105c0575f5ffd5b506105c96121e0565b6040516105d69190617990565b60405180910390f35b3480156105ea575f5ffd5b5061060560048036038101906106009190617dd5565b6121f5565b005b348015610612575f5ffd5b5061062d60048036038101906106289190617b7f565b612205565b60405161063a9190617990565b60405180910390f35b34801561064e575f5ffd5b5061066960048036038101906106649190617b7f565b612275565b6040516106769190617990565b60405180910390f35b34801561068a575f5ffd5b506106a560048036038101906106a09190617e25565b61228a565b6040516106b29190617990565b60405180910390f35b3480156106c6575f5ffd5b506106e160048036038101906106dc9190617e63565b61230c565b6040516106ef929190617ea1565b60405180910390f35b348015610703575f5ffd5b5061071e60048036038101906107199190617b7f565b612348565b60405161072b9190617990565b60405180910390f35b34801561073f575f5ffd5b5061075a60048036038101906107559190617b7f565b6123b2565b6040516107679190617990565b60405180910390f35b34801561077b575f5ffd5b5061079660048036038101906107919190617b7f565b6123c7565b6040516107a39190617990565b60405180910390f35b3480156107b7575f5ffd5b506107d260048036038101906107cd9190617daa565b6123dc565b6040516107df9190617990565b60405180910390f35b3480156107f3575f5ffd5b506107fc612433565b6040516108099190617990565b60405180910390f35b34801561081d575f5ffd5b5061082661243c565b005b348015610833575f5ffd5b5061084e60048036038101906108499190617f15565b612602565b005b34801561085b575f5ffd5b5061087660048036038101906108719190617dd5565b612870565b005b348015610883575f5ffd5b5061089e60048036038101906108999190617b7f565b61288f565b005b3480156108ab575f5ffd5b506108b461289d565b6040516108c19190617990565b60405180910390f35b3480156108d5575f5ffd5b506108de6128a3565b005b3480156108eb575f5ffd5b5061090660048036038101906109019190617b7f565b612ac8565b6040516109139190617a54565b60405180910390f35b348015610927575f5ffd5b50610942600480360381019061093d9190617e25565b612af0565b60405161094f9190617990565b60405180910390f35b348015610963575f5ffd5b5061097e60048036038101906109799190617b7f565b612b10565b60405161098c929190617f8b565b60405180910390f35b3480156109a0575f5ffd5b506109bb60048036038101906109b69190617fb2565b612c11565b005b3480156109c8575f5ffd5b506109e360048036038101906109de9190617bd4565b612caa565b005b3480156109f0575f5ffd5b50610a0b6004803603810190610a0691906180bd565b612cf6565b005b348015610a18575f5ffd5b50610a336004803603810190610a2e9190617b7f565b612f44565b604051610a409190617b3c565b60405180910390f35b348015610a54575f5ffd5b50610a5d612f58565b604051610a6a9190617990565b60405180910390f35b348015610a7e575f5ffd5b50610a87612f64565b604051610a949190617add565b60405180910390f35b348015610aa8575f5ffd5b50610ac36004803603810190610abe9190617daa565b612ff0565b604051610ad09190617add565b60405180910390f35b348015610ae4575f5ffd5b50610aff6004803603810190610afa9190617daa565b61302d565b005b348015610b0c575f5ffd5b50610b276004803603810190610b229190617daa565b613077565b604051610b349190617990565b60405180910390f35b348015610b48575f5ffd5b50610b636004803603810190610b5e9190617b7f565b613141565b604051610b709190617a54565b60405180910390f35b610b936004803603810190610b8e9190618201565b61315e565b005b348015610ba0575f5ffd5b50610bbb6004803603810190610bb69190617daa565b6132a9565b604051610bc89190617990565b60405180910390f35b348015610bdc575f5ffd5b50610bf76004803603810190610bf29190617daa565b6132be565b005b348015610c04575f5ffd5b50610c0d613556565b604051610c1a9190617b3c565b60405180910390f35b348015610c2e575f5ffd5b50610c3761357e565b604051610c449190617990565b60405180910390f35b348015610c58575f5ffd5b50610c736004803603810190610c6e9190617fb2565b613584565b005b348015610c80575f5ffd5b50610c896135ce565b604051610c969190617add565b60405180910390f35b348015610caa575f5ffd5b50610cc56004803603810190610cc09190617daa565b61365e565b604051610cd29190617add565b60405180910390f35b348015610ce6575f5ffd5b50610d016004803603810190610cfc91906182c2565b6136f9565b005b348015610d0e575f5ffd5b50610d296004803603810190610d24919061836b565b613747565b604051610d369190617add565b60405180910390f35b348015610d4a575f5ffd5b50610d656004803603810190610d609190617b7f565b6138ed565b604051610d72919061841a565b60405180910390f35b348015610d86575f5ffd5b50610da16004803603810190610d9c919061843a565b613988565b005b348015610dae575f5ffd5b50610db7613afa565b604051610dc49190617990565b60405180910390f35b348015610dd8575f5ffd5b50610df36004803603810190610dee91906184cd565b613b00565b604051610e00919061861b565b60405180910390f35b348015610e14575f5ffd5b50610e1d613cc1565b604051610e2a9190617990565b60405180910390f35b348015610e3e575f5ffd5b50610e47613cc9565b604051610e55929190617f8b565b60405180910390f35b348015610e69575f5ffd5b50610e846004803603810190610e7f919061863b565b613d06565b005b348015610e91575f5ffd5b50610eac6004803603810190610ea791906186bb565b613d7e565b005b348015610eb9575f5ffd5b50610ed46004803603810190610ecf9190617b7f565b613ee0565b604051610ee19190617add565b60405180910390f35b348015610ef5575f5ffd5b50610f106004803603810190610f0b919061836b565b613f63565b604051610f1d9190617add565b60405180910390f35b348015610f31575f5ffd5b50610f4c6004803603810190610f479190617daa565b614027565b604051610f599190617990565b60405180910390f35b348015610f6d575f5ffd5b50610f886004803603810190610f839190618786565b6145cd565b604051610f959190617990565b60405180910390f35b348015610fa9575f5ffd5b50610fc46004803603810190610fbf9190617daa565b61467a565b604051610fd191906188ce565b60405180910390f35b348015610fe5575f5ffd5b50610fee6146c8565b604051611002989796959493929190618906565b60405180910390f35b348015611016575f5ffd5b5061101f6147a2565b60405161102c9190617990565b60405180910390f35b348015611040575f5ffd5b5061105b60048036038101906110569190617fb2565b6147a8565b6040516110689190617b3c565b60405180910390f35b34801561107c575f5ffd5b506110856147f0565b6040516110929190617990565b60405180910390f35b3480156110a6575f5ffd5b506110c160048036038101906110bc9190617b7f565b6147f6565b005b3480156110ce575f5ffd5b506110e960048036038101906110e49190618989565b6148bd565b6040516110f6919061841a565b60405180910390f35b34801561110a575f5ffd5b50611113614946565b6040516111209190617add565b60405180910390f35b348015611134575f5ffd5b5061114f600480360381019061114a9190617e25565b6149d2565b60405161115c9190617a54565b60405180910390f35b348015611170575f5ffd5b5061118b60048036038101906111869190618a02565b614a60565b6040516111989190617a54565b60405180910390f35b3480156111ac575f5ffd5b506111c760048036038101906111c29190617daa565b614f0f565b6040516111d49190617990565b60405180910390f35b3480156111e8575f5ffd5b5061120360048036038101906111fe9190617b7f565b614f24565b005b5f602154905090565b5f6301ffc9a760e01b827bffffffffffffffffffffffffffffffffffffffffffffffffffffffff1916148061126857506380ac58cd60e01b827bffffffffffffffffffffffffffffffffffffffffffffffffffffffff1916145b806112985750635b5e139f60e01b827bffffffffffffffffffffffffffffffffffffffffffffffffffffffff1916145b8061130057507f2a55205a000000000000000000000000000000000000000000000000000000007bffffffffffffffffffffffffffffffffffffffffffffffffffffffff1916827bffffffffffffffffffffffffffffffffffffffffffffffffffffffff1916145b9050919050565b60606002805461131690618ac2565b80601f016020809104026020016040519081016040528092919081815260200182805461134290618ac2565b801561138d5780601f106113645761010080835404028352916020019161138d565b820191905f5260205f20905b81548152906001019060200180831161137057829003601f168201915b5050505050905090565b5f600f5f9054906101000a900473ffffffffffffffffffffffffffffffffffffffff16905090565b601e5481565b5f6113cf82615030565b611405576040517fcf4700e400000000000000000000000000000000000000000000000000000000815260040160405180910390fd5b60065f8381526020019081526020015f205f9054906101000a900473ffffffffffffffffffffffffffffffffffffffff169050919050565b5f61144782612f44565b90508073ffffffffffffffffffffffffffffffffffffffff168373ffffffffffffffffffffffffffffffffffffffff16036114ae576040517f943f7b8c00000000000000000000000000000000000000000000000000000000815260040160405180910390fd5b8073ffffffffffffffffffffffffffffffffffffffff166114cd615079565b73ffffffffffffffffffffffffffffffffffffffff1614611530576114f9816114f4615079565b6149d2565b61152f576040517fcfb3b94200000000000000000000000000000000000000000000000000000000815260040160405180910390fd5b5b61153b838383615080565b505050565b61154861512f565b5f831161158a576040517f08c379a000000000000000000000000000000000000000000000000000000000815260040161158190618b3c565b60405180910390fd5b601f548360265f3373ffffffffffffffffffffffffffffffffffffffff1673ffffffffffffffffffffffffffffffffffffffff1681526020019081526020015f20546115d69190618b87565b1115611617576040517f08c379a000000000000000000000000000000000000000000000000000000000815260040161160e90618c04565b60405180910390fd5b601d54836021546116289190618b87565b1115611669576040517f08c379a000000000000000000000000000000000000000000000000000000000815260040161166090618c6c565b60405180910390fd5b6006602b5f3373ffffffffffffffffffffffffffffffffffffffff1673ffffffffffffffffffffffffffffffffffffffff1681526020019081526020015f20546116b39190618b87565b43116116f4576040517f08c379a00000000000000000000000000000000000000000000000000000000081526004016116eb90618cfa565b60405180910390fd5b5f5f90505f8490505f5f90505f5f865111156119e05760298660405161171a9190618d52565b90815260200160405180910390205f9054906101000a900473ffffffffffffffffffffffffffffffffffffffff1690505f73ffffffffffffffffffffffffffffffffffffffff168173ffffffffffffffffffffffffffffffffffffffff16036117b8576040517f08c379a00000000000000000000000000000000000000000000000000000000081526004016117af90618db2565b60405180910390fd5b3373ffffffffffffffffffffffffffffffffffffffff168173ffffffffffffffffffffffffffffffffffffffff1603611826576040517f08c379a000000000000000000000000000000000000000000000000000000000815260040161181d90618e1a565b60405180910390fd5b61187533602a5f8473ffffffffffffffffffffffffffffffffffffffff1673ffffffffffffffffffffffffffffffffffffffff1681526020019081526020015f2061517e90919063ffffffff16565b505b5f8311156119db575f61188986614027565b90505f600d602054111561189e57600a6118a1565b60145b60ff1690505f60646005846118b69190618e38565b6118c09190618ea6565b90505f606483856118d19190618e38565b6118db9190618ea6565b90505f60225460255f60205481526020019081526020015f20546118ff9190618ed6565b9050808811611965578783866119159190618ed6565b61191f9190618e38565b8961192a9190618b87565b985087826119389190618e38565b876119439190618b87565b96508760225f8282546119569190618b87565b925050819055505f97506119d1565b8083866119729190618ed6565b61197c9190618e38565b896119879190618b87565b985080826119959190618e38565b876119a09190618b87565b96508060215f8282546119b39190618b87565b9250508190555080886119c69190618ed6565b97506119d06151ab565b5b5050505050611877565b611a91565b5b5f831115611a90575f6119f386614027565b90505f60225460255f60205481526020019081526020015f2054611a179190618ed6565b9050808511611a59578482611a2c9190618e38565b86611a379190618b87565b95508460225f828254611a4a9190618b87565b925050819055505f9450611a89565b8082611a659190618e38565b86611a709190618b87565b95508085611a7e9190618ed6565b9450611a886151ab565b5b50506119e1565b5b8660265f3373ffffffffffffffffffffffffffffffffffffffff1673ffffffffffffffffffffffffffffffffffffffff1681526020019081526020015f205f828254611add9190618b87565b925050819055508660215f828254611af59190618b87565b9250508190555043602b5f3373ffffffffffffffffffffffffffffffffffffffff1673ffffffffffffffffffffffffffffffffffffffff1681526020019081526020015f20819055505f73ffffffffffffffffffffffffffffffffffffffff168573ffffffffffffffffffffffffffffffffffffffff1603611d605783341015611bb4576040517f08c379a0000000000000000000000000000000000000000000000000000000008152600401611bab90618f53565b60405180910390fd5b83341115611c71575f3373ffffffffffffffffffffffffffffffffffffffff168534611be09190618ed6565b604051611bec90618f9e565b5f6040518083038185875af1925050503d805f8114611c26576040519150601f19603f3d011682016040523d82523d5f602084013e611c2b565b606091505b5050905080611c6f576040517f08c379a0000000000000000000000000000000000000000000000000000000008152600401611c6690618ffc565b60405180910390fd5b505b5f82118015611cac57505f73ffffffffffffffffffffffffffffffffffffffff168173ffffffffffffffffffffffffffffffffffffffff1614155b15611d5b575f8173ffffffffffffffffffffffffffffffffffffffff1683604051611cd690618f9e565b5f6040518083038185875af1925050503d805f8114611d10576040519150601f19603f3d011682016040523d82523d5f602084013e611d15565b606091505b5050905080611d59576040517f08c379a0000000000000000000000000000000000000000000000000000000008152600401611d5090619064565b60405180910390fd5b505b612093565b5f859050848173ffffffffffffffffffffffffffffffffffffffff1663dd62ed3e33306040518363ffffffff1660e01b8152600401611da0929190619082565b602060405180830381865afa158015611dbb573d5f5f3e3d5ffd5b505050506040513d601f19601f82011682018060405250810190611ddf91906190bd565b1015611e20576040517f08c379a0000000000000000000000000000000000000000000000000000000008152600401611e1790619132565b60405180910390fd5b8073ffffffffffffffffffffffffffffffffffffffff166323b872dd3330886040518463ffffffff1660e01b8152600401611e5d93929190619150565b6020604051808303815f875af1158015611e79573d5f5f3e3d5ffd5b505050506040513d601f19601f82011682018060405250810190611e9d9190619199565b611edc576040517f08c379a0000000000000000000000000000000000000000000000000000000008152600401611ed39061920e565b60405180910390fd5b5f83118015611f1757505f73ffffffffffffffffffffffffffffffffffffffff168273ffffffffffffffffffffffffffffffffffffffff1614155b1561209157828173ffffffffffffffffffffffffffffffffffffffff166370a08231306040518263ffffffff1660e01b8152600401611f569190617b3c565b602060405180830381865afa158015611f71573d5f5f3e3d5ffd5b505050506040513d601f19601f82011682018060405250810190611f9591906190bd565b1015611fd6576040517f08c379a0000000000000000000000000000000000000000000000000000000008152600401611fcd9061929c565b60405180910390fd5b8073ffffffffffffffffffffffffffffffffffffffff1663a9059cbb83856040518363ffffffff1660e01b8152600401612011929190617ea1565b6020604051808303815f875af115801561202d573d5f5f3e3d5ffd5b505050506040513d601f19601f820116820180604052508101906120519190619199565b612090576040517f08c379a000000000000000000000000000000000000000000000000000000000815260040161208790619304565b60405180910390fd5b5b505b61209d3388615213565b508660265f3373ffffffffffffffffffffffffffffffffffffffff1673ffffffffffffffffffffffffffffffffffffffff1681526020019081526020015f205f8282546120ea9190618b87565b9250508190555043602b5f3373ffffffffffffffffffffffffffffffffffffffff1673ffffffffffffffffffffffffffffffffffffffff1681526020019081526020015f20819055503373ffffffffffffffffffffffffffffffffffffffff167fb46fb7549f34f1a9358a1481b651cc450f7467a2c9eab8ca3e8f8ac0e722ee7288878960405161217d93929190619322565b60405180910390a25050505061219161526a565b505050565b61219e615274565b6121d4576040517f2d99739600000000000000000000000000000000000000000000000000000000815260040160405180910390fd5b6121dd816152b0565b50565b5f6121e9615373565b6001545f540303905090565b61220083838361537a565b505050565b5f61220e612f58565b821061225157816040517f0f2624ee0000000000000000000000000000000000000000000000000000000081526004016122489190617990565b60405180910390fd5b600c82815481106122655761226461935e565b5b905f5260205f2001549050919050565b602d602052805f5260405f205f915090505481565b5f60275f8473ffffffffffffffffffffffffffffffffffffffff1673ffffffffffffffffffffffffffffffffffffffff1681526020019081526020015f205f8373ffffffffffffffffffffffffffffffffffffffff1673ffffffffffffffffffffffffffffffffffffffff1681526020019081526020015f2054905092915050565b5f5f5f5f61231986612b10565b61ffff169150915081935061271081866123339190618e38565b61233d9190618ea6565b925050509250929050565b5f5f8211801561235a5750601e548211155b612399576040517f08c379a0000000000000000000000000000000000000000000000000000000008152600401612390906193d5565b60405180910390fd5b602d5f8381526020019081526020015f20549050919050565b6024602052805f5260405f205f915090505481565b6025602052805f5260405f205f915090505481565b5f601b5f601a5481526020019081526020015f205f8373ffffffffffffffffffffffffffffffffffffffff1673ffffffffffffffffffffffffffffffffffffffff1681526020019081526020015f20549050919050565b5f601054905090565b60095f9054906101000a900473ffffffffffffffffffffffffffffffffffffffff1673ffffffffffffffffffffffffffffffffffffffff163373ffffffffffffffffffffffffffffffffffffffff16146124c2576040517f2d99739600000000000000000000000000000000000000000000000000000000815260040160405180910390fd5b5f4790505f8111612508576040517f08c379a00000000000000000000000000000000000000000000000000000000081526004016124ff9061943d565b60405180910390fd5b5f3373ffffffffffffffffffffffffffffffffffffffff168260405161252d90618f9e565b5f6040518083038185875af1925050503d805f8114612567576040519150601f19603f3d011682016040523d82523d5f602084013e61256c565b606091505b50509050806125b0576040517f08c379a00000000000000000000000000000000000000000000000000000000081526004016125a7906194a5565b60405180910390fd5b3373ffffffffffffffffffffffffffffffffffffffff167f7084f5476618d8e60b11ef0d7d3f06914655adb8793e28ff7f018d4c76d505d5836040516125f69190617990565b60405180910390a25050565b61260a615810565b612640576040517f56c4ef5100000000000000000000000000000000000000000000000000000000815260040160405180910390fd5b5f601a5490505f6012600201549050821561268b575f905061266061584c565b43604051602001612672929190619528565b6040516020818303038152906040528051906020012091505b83602001358111156126c9576040517f0656a73e00000000000000000000000000000000000000000000000000000000815260040160405180910390fd5b604051806101000160405280855f013581526020018560200135815260200182815260200185606001358152602001856080013581526020018560a0013581526020018560c001602081019061271f9190617daa565b73ffffffffffffffffffffffffffffffffffffffff168152602001858060e0019061274a919061955f565b8080601f0160208091040260200160405190810160405280939291908181526020018383808284375f81840152601f19601f8201169050808301925050505050505081525060125f820151815f01556020820151816001015560408201518160020155606082015181600301556080820151816004015560a0820151816005015560c0820151816006015f6101000a81548173ffffffffffffffffffffffffffffffffffffffff021916908373ffffffffffffffffffffffffffffffffffffffff16021790555060e08201518160070190816128269190619761565b5090505081601a819055507f6dab9d7d05d468100139089b2516cb8ff286c3972ff070d3b509e371f0d0d4b88484604051612862929190619a53565b60405180910390a150505050565b61288a83838360405180602001604052805f815250613d06565b505050565b61289a816001615853565b50565b601f5481565b5f60285f3373ffffffffffffffffffffffffffffffffffffffff1673ffffffffffffffffffffffffffffffffffffffff1681526020019081526020015f2080546128ec90618ac2565b90501461292e576040517f08c379a000000000000000000000000000000000000000000000000000000000815260040161292590619acb565b60405180910390fd5b5f61293833612ff0565b90505f73ffffffffffffffffffffffffffffffffffffffff166029826040516129619190618d52565b90815260200160405180910390205f9054906101000a900473ffffffffffffffffffffffffffffffffffffffff1673ffffffffffffffffffffffffffffffffffffffff16146129e5576040517f08c379a00000000000000000000000000000000000000000000000000000000081526004016129dc90619b33565b60405180910390fd5b8060285f3373ffffffffffffffffffffffffffffffffffffffff1673ffffffffffffffffffffffffffffffffffffffff1681526020019081526020015f209081612a2f9190619761565b5033602982604051612a419190618d52565b90815260200160405180910390205f6101000a81548173ffffffffffffffffffffffffffffffffffffffff021916908373ffffffffffffffffffffffffffffffffffffffff1602179055507fe8ca9ff7362b2885ad0e2b48628ea1734bf0e9ffaa84267274cfd05ab4897d543382604051612abd929190619b51565b60405180910390a150565b5f5f60115f8481526020019081526020015f208054612ae690618ac2565b9050119050919050565b6027602052815f5260405f20602052805f5260405f205f91509150505481565b5f5f5f600b5f8581526020019081526020015f206040518060400160405290815f82015f9054906101000a900473ffffffffffffffffffffffffffffffffffffffff1673ffffffffffffffffffffffffffffffffffffffff1673ffffffffffffffffffffffffffffffffffffffff16815260200160018201548152505090505f73ffffffffffffffffffffffffffffffffffffffff16815f015173ffffffffffffffffffffffffffffffffffffffff1614612bd357805f01518160200151612c07565b600a5f9054906101000a900473ffffffffffffffffffffffffffffffffffffffff16600a60149054906101000a900461ffff165b9250925050915091565b60095f9054906101000a900473ffffffffffffffffffffffffffffffffffffffff1673ffffffffffffffffffffffffffffffffffffffff163373ffffffffffffffffffffffffffffffffffffffff1614612c97576040517f2d99739600000000000000000000000000000000000000000000000000000000815260040160405180910390fd5b8060239081612ca69190619761565b5050565b612cb2615c21565b612ce8576040517fdf5c6b0200000000000000000000000000000000000000000000000000000000815260040160405180910390fd5b612cf28282615c5d565b5050565b60095f9054906101000a900473ffffffffffffffffffffffffffffffffffffffff1673ffffffffffffffffffffffffffffffffffffffff163373ffffffffffffffffffffffffffffffffffffffff1614612d7c576040517f2d99739600000000000000000000000000000000000000000000000000000000815260040160405180910390fd5b602054831015612dc1576040517f08c379a0000000000000000000000000000000000000000000000000000000008152600401612db890619bef565b60405180910390fd5b8051825114612e05576040517f08c379a0000000000000000000000000000000000000000000000000000000008152600401612dfc90619c57565b60405180910390fd5b601e5483612e139190618ed6565b82511115612e56576040517f08c379a0000000000000000000000000000000000000000000000000000000008152600401612e4d90619cbf565b60405180910390fd5b82601e819055505f8251601e54612e6d9190618ed6565b90505f5f90505b8351811015612f06575f60018284612e8c9190618b87565b612e969190618b87565b9050848281518110612eab57612eaa61935e565b5b602002602001015160245f8381526020019081526020015f2081905550838281518110612edb57612eda61935e565b5b602002602001015160255f8381526020019081526020015f2081905550508080600101915050612e74565b507f3a891c266cce5520b84f7c59f71d4bf155abf9d231148198d16129c6f065cc4e84604051612f369190617990565b60405180910390a150505050565b5f612f4e82615d57565b5f01519050919050565b5f600c80549050905090565b60238054612f7190618ac2565b80601f0160208091040260200160405190810160405280929190818152602001828054612f9d90618ac2565b8015612fe85780601f10612fbf57610100808354040283529160200191612fe8565b820191905f5260205f20905b815481529060010190602001808311612fcb57829003601f168201915b505050505081565b60605f826040516020016130049190619cdd565b60405160208183030381529060405280519060200120905061302581615fcf565b915050919050565b6130356161c7565b61306b576040517f7260843c00000000000000000000000000000000000000000000000000000000815260040160405180910390fd5b61307481616203565b50565b5f5f73ffffffffffffffffffffffffffffffffffffffff168273ffffffffffffffffffffffffffffffffffffffff16036130dd576040517f8f4eb60400000000000000000000000000000000000000000000000000000000815260040160405180910390fd5b60055f8373ffffffffffffffffffffffffffffffffffffffff1673ffffffffffffffffffffffffffffffffffffffff1681526020019081526020015f205f015f9054906101000a900467ffffffffffffffff1667ffffffffffffffff169050919050565b600e602052805f5260405f205f915054906101000a900460ff1681565b61316c8686868686866162f9565b5f601a54905061318661317d61584c565b87878787614a60565b508560126002015f82825461319b9190618b87565b9250508190555085601b5f8381526020019081526020015f205f6131bd61584c565b73ffffffffffffffffffffffffffffffffffffffff1673ffffffffffffffffffffffffffffffffffffffff1681526020019081526020015f205f8282546132049190618b87565b925050819055506132175f878787616352565b5f6132228888615213565b9050808873ffffffffffffffffffffffffffffffffffffffff1661324461584c565b73ffffffffffffffffffffffffffffffffffffffff167fff097c7d8b1957a4ff09ef1361b5fb54dcede3941ba836d0beb9d10bec725de68a6040516132899190617990565b60405180910390a461329f8888888888886164a2565b5050505050505050565b602b602052805f5260405f205f915090505481565b60095f9054906101000a900473ffffffffffffffffffffffffffffffffffffffff1673ffffffffffffffffffffffffffffffffffffffff163373ffffffffffffffffffffffffffffffffffffffff1614613344576040517f2d99739600000000000000000000000000000000000000000000000000000000815260040160405180910390fd5b5f8190505f8173ffffffffffffffffffffffffffffffffffffffff166370a08231306040518263ffffffff1660e01b81526004016133829190617b3c565b602060405180830381865afa15801561339d573d5f5f3e3d5ffd5b505050506040513d601f19601f820116820180604052508101906133c191906190bd565b90505f8111613405576040517f08c379a00000000000000000000000000000000000000000000000000000000081526004016133fc90619d41565b60405180910390fd5b5f8111613447576040517f08c379a000000000000000000000000000000000000000000000000000000000815260040161343e90619d41565b60405180910390fd5b8173ffffffffffffffffffffffffffffffffffffffff1663a9059cbb33836040518363ffffffff1660e01b8152600401613482929190617ea1565b6020604051808303815f875af115801561349e573d5f5f3e3d5ffd5b505050506040513d601f19601f820116820180604052508101906134c29190619199565b613501576040517f08c379a00000000000000000000000000000000000000000000000000000000081526004016134f89061920e565b60405180910390fd5b3373ffffffffffffffffffffffffffffffffffffffff167f8210728e7c071f615b840ee026032693858fbcd5e5359e67e438c890f59e56208483604051613549929190617ea1565b60405180910390a2505050565b5f60095f9054906101000a900473ffffffffffffffffffffffffffffffffffffffff16905090565b601d5481565b61358c6164aa565b6135c2576040517f9f7f092500000000000000000000000000000000000000000000000000000000815260040160405180910390fd5b6135cb816164e6565b50565b6060600380546135dd90618ac2565b80601f016020809104026020016040519081016040528092919081815260200182805461360990618ac2565b80156136545780601f1061362b57610100808354040283529160200191613654565b820191905f5260205f20905b81548152906001019060200180831161363757829003601f168201915b5050505050905090565b6028602052805f5260405f205f91509050805461367a90618ac2565b80601f01602080910402602001604051908101604052809291908181526020018280546136a690618ac2565b80156136f15780601f106136c8576101008083540402835291602001916136f1565b820191905f5260205f20905b8154815290600101906020018083116136d457829003601f168201915b505050505081565b613701615c21565b613737576040517fdf5c6b0200000000000000000000000000000000000000000000000000000000815260040160405180910390fd5b6137428383836165bf565b505050565b60605f60115f8681526020019081526020015f20805461376690618ac2565b80601f016020809104026020016040519081016040528092919081815260200182805461379290618ac2565b80156137dd5780601f106137b4576101008083540402835291602001916137dd565b820191905f5260205f20905b8154815290600101906020018083116137c057829003601f168201915b505050505090505f81510361381e576040517f5d0580b300000000000000000000000000000000000000000000000000000000815260040160405180910390fd5b5f5f828060200190518101906138349190619de1565b915091506138438287876148bd565b9350808487874660405160200161385d9493929190619e5f565b60405160208183030381529060405280519060200120146138e35780848787466040516020016138909493929190619e5f565b604051602081830303815290604052805190602001206040517fcd915d3c0000000000000000000000000000000000000000000000000000000081526004016138da929190619e95565b60405180910390fd5b5050509392505050565b6011602052805f5260405f205f91509050805461390990618ac2565b80601f016020809104026020016040519081016040528092919081815260200182805461393590618ac2565b80156139805780601f1061395757610100808354040283529160200191613980565b820191905f5260205f20905b81548152906001019060200180831161396357829003601f168201915b505050505081565b613990615079565b73ffffffffffffffffffffffffffffffffffffffff168273ffffffffffffffffffffffffffffffffffffffff16036139f4576040517fb06307db00000000000000000000000000000000000000000000000000000000815260040160405180910390fd5b8060075f613a00615079565b73ffffffffffffffffffffffffffffffffffffffff1673ffffffffffffffffffffffffffffffffffffffff1681526020019081526020015f205f8473ffffffffffffffffffffffffffffffffffffffff1673ffffffffffffffffffffffffffffffffffffffff1681526020019081526020015f205f6101000a81548160ff0219169083151502179055508173ffffffffffffffffffffffffffffffffffffffff16613aa9615079565b73ffffffffffffffffffffffffffffffffffffffff167f17307eab39ab6107e8899845ad3d59bd9653f200f220920489ca2b5937696c3183604051613aee9190617a54565b60405180910390a35050565b60215481565b60608282905067ffffffffffffffff811115613b1f57613b1e617c1a565b5b604051908082528060200260200182016040528015613b5257816020015b6060815260200190600190039081613b3d5790505b5090505f613b5e615079565b90505f8173ffffffffffffffffffffffffffffffffffffffff163373ffffffffffffffffffffffffffffffffffffffff16141590505f5f90505b85859050811015613cb8578115613c1c57613bf930878784818110613bc057613bbf61935e565b5b9050602002810190613bd29190619ebc565b86604051602001613be593929190619f1e565b6040516020818303038152906040526166eb565b848281518110613c0c57613c0b61935e565b5b6020026020010181905250613cab565b613c8c30878784818110613c3357613c3261935e565b5b9050602002810190613c459190619ebc565b8080601f0160208091040260200160405190810160405280939291908181526020018383808284375f81840152601f19601f820116905080830192505050505050506166eb565b848281518110613c9f57613c9e61935e565b5b60200260200101819052505b8080600101915050613b98565b50505092915050565b5f5f54905090565b5f5f600a5f9054906101000a900473ffffffffffffffffffffffffffffffffffffffff16600a60149054906101000a900461ffff16915091509091565b613d1184848461537a565b613d308373ffffffffffffffffffffffffffffffffffffffff16616718565b15613d7857613d418484848461673a565b613d77576040517fd1a57ed600000000000000000000000000000000000000000000000000000000815260040160405180910390fd5b5b50505050565b60095f9054906101000a900473ffffffffffffffffffffffffffffffffffffffff1673ffffffffffffffffffffffffffffffffffffffff163373ffffffffffffffffffffffffffffffffffffffff1614613e04576040517f2d99739600000000000000000000000000000000000000000000000000000000815260040160405180910390fd5b8051825114613e48576040517f08c379a0000000000000000000000000000000000000000000000000000000008152600401613e3f90619fb7565b60405180910390fd5b5f5f90505b8251811015613edb57828181518110613e6957613e6861935e565b5b602002602001015160255f600184613e819190618b87565b81526020019081526020015f2081905550818181518110613ea557613ea461935e565b5b602002602001015160245f600184613ebd9190618b87565b81526020019081526020015f20819055508080600101915050613e4d565b505050565b6060613eeb82615030565b613f2a576040517f08c379a0000000000000000000000000000000000000000000000000000000008152600401613f219061a045565b60405180910390fd5b5f613f36836005616885565b9050602381604051602001613f4c92919061a12d565b604051602081830303815290604052915050919050565b6060613f6d6169ba565b613fac576040517f08c379a0000000000000000000000000000000000000000000000000000000008152600401613fa39061a1a5565b60405180910390fd5b5f613fb685612205565b9050613fc3818585613747565b9150613fdd8160405180602001604052805f8152506169f6565b613fe78183616a19565b847f6df1d8db2a036436ffe0b2d1833f2c5f1e624818dfce2578c0faa4b83ef9998d836040516140179190617add565b60405180910390a2509392505050565b5f5f60245f60205481526020019081526020015f205490505f602e5f9054906101000a900473ffffffffffffffffffffffffffffffffffffffff1673ffffffffffffffffffffffffffffffffffffffff1663feaf968c6040518163ffffffff1660e01b815260040160a060405180830381865afa1580156140aa573d5f5f3e3d5ffd5b505050506040513d601f19601f820116820180604052508101906140ce919061a235565b5050509150505f8113614116576040517f08c379a000000000000000000000000000000000000000000000000000000000815260040161410d9061a2f6565b60405180910390fd5b5f6305f5e10083836141289190618e38565b6141329190618ea6565b90505f73ffffffffffffffffffffffffffffffffffffffff168573ffffffffffffffffffffffffffffffffffffffff1603614172578293505050506145c8565b73dac17f958d2ee523a2206206994597c13d831ec773ffffffffffffffffffffffffffffffffffffffff168573ffffffffffffffffffffffffffffffffffffffff16036142c5575f602f5f9054906101000a900473ffffffffffffffffffffffffffffffffffffffff1673ffffffffffffffffffffffffffffffffffffffff1663feaf968c6040518163ffffffff1660e01b815260040160a060405180830381865afa158015614224573d5f5f3e3d5ffd5b505050506040513d601f19601f82011682018060405250810190614248919061a235565b5050509150505f8113614290576040517f08c379a00000000000000000000000000000000000000000000000000000000081526004016142879061a35e565b60405180910390fd5b80620f4240836142a09190618e38565b6142aa9190618ea6565b94506402540be400856142bd9190618ea6565b9450506145c4565b73a0b86991c6218b36c1d19d4a2e9eb0ce3606eb4873ffffffffffffffffffffffffffffffffffffffff168573ffffffffffffffffffffffffffffffffffffffff1603614418575f60305f9054906101000a900473ffffffffffffffffffffffffffffffffffffffff1673ffffffffffffffffffffffffffffffffffffffff1663feaf968c6040518163ffffffff1660e01b815260040160a060405180830381865afa158015614377573d5f5f3e3d5ffd5b505050506040513d601f19601f8201168201806040525081019061439b919061a235565b5050509150505f81136143e3576040517f08c379a00000000000000000000000000000000000000000000000000000000081526004016143da9061a3c6565b60405180910390fd5b80620f4240836143f39190618e38565b6143fd9190618ea6565b94506402540be400856144109190618ea6565b9450506145c3565b732260fac5e5542a773aa44fbcfedf7c193bc2c59973ffffffffffffffffffffffffffffffffffffffff168573ffffffffffffffffffffffffffffffffffffffff1603614587575f60315f9054906101000a900473ffffffffffffffffffffffffffffffffffffffff1673ffffffffffffffffffffffffffffffffffffffff1663feaf968c6040518163ffffffff1660e01b815260040160a060405180830381865afa1580156144ca573d5f5f3e3d5ffd5b505050506040513d601f19601f820116820180604052508101906144ee919061a235565b5050509150505f8113614536576040517f08c379a000000000000000000000000000000000000000000000000000000000815260040161452d9061a42e565b60405180910390fd5b5f60245f60205481526020019081526020015f20549050816305f5e1008261455e9190618e38565b6145689190618ea6565b9550670de0b6b3a76400008661457e9190618e38565b955050506145c2565b6040517f08c379a00000000000000000000000000000000000000000000000000000000081526004016145b99061a496565b60405180910390fd5b5b5b5050505b919050565b5f5f838390501115614662575f5f84848101906145ea919061a4b4565b915091505f8251141580156145ff57505f8114155b1561465f5761465e886010546146159190618b87565b86868080601f0160208091040260200160405190810160405280939291908181526020018383808284375f81840152601f19601f820116905080830192505050505050506169f6565b5b50505b61466f8686868686616add565b905095945050505050565b60606146c1602a5f8473ffffffffffffffffffffffffffffffffffffffff1673ffffffffffffffffffffffffffffffffffffffff1681526020019081526020015f20616c17565b9050919050565b6012805f015490806001015490806002015490806003015490806004015490806005015490806006015f9054906101000a900473ffffffffffffffffffffffffffffffffffffffff169080600701805461472190618ac2565b80601f016020809104026020016040519081016040528092919081815260200182805461474d90618ac2565b80156147985780601f1061476f57610100808354040283529160200191614798565b820191905f5260205f20905b81548152906001019060200180831161477b57829003601f168201915b5050505050905088565b60205481565b6029818051602081018201805184825260208301602085012081835280955050505050505f915054906101000a900473ffffffffffffffffffffffffffffffffffffffff1681565b60225481565b60095f9054906101000a900473ffffffffffffffffffffffffffffffffffffffff1673ffffffffffffffffffffffffffffffffffffffff163373ffffffffffffffffffffffffffffffffffffffff161461487c576040517f2d99739600000000000000000000000000000000000000000000000000000000815260040160405180910390fd5b80601f819055507f792e4b1d9cb03dac94396717f290ac7220c178b75cf8a3d06614abcfd10a5ec1816040516148b29190617990565b60405180910390a150565b60605f8451905060405191506020818301016040528082525f5f90505b8181101561493d575f8585836040516020016148f89392919061a50e565b6040516020818303038152906040528051906020012090505f6020830188015190508181189050806020840186015250506020816149369190618b87565b90506148da565b50509392505050565b6008805461495390618ac2565b80601f016020809104026020016040519081016040528092919081815260200182805461497f90618ac2565b80156149ca5780601f106149a1576101008083540402835291602001916149ca565b820191905f5260205f20905b8154815290600101906020018083116149ad57829003601f168201915b505050505081565b5f60075f8473ffffffffffffffffffffffffffffffffffffffff1673ffffffffffffffffffffffffffffffffffffffff1681526020019081526020015f205f8373ffffffffffffffffffffffffffffffffffffffff1673ffffffffffffffffffffffffffffffffffffffff1681526020019081526020015f205f9054906101000a900460ff16905092915050565b5f5f6012604051806101000160405290815f82015481526020016001820154815260200160028201548152602001600382015481526020016004820154815260200160058201548152602001600682015f9054906101000a900473ffffffffffffffffffffffffffffffffffffffff1673ffffffffffffffffffffffffffffffffffffffff1673ffffffffffffffffffffffffffffffffffffffff168152602001600782018054614b1090618ac2565b80601f0160208091040260200160405190810160405280929190818152602001828054614b3c90618ac2565b8015614b875780601f10614b5e57610100808354040283529160200191614b87565b820191905f5260205f20905b815481529060010190602001808311614b6a57829003601f168201915b50505050508152505090505f816060015190505f8260a0015190505f8360c0015190505f5f1b846080015114614c2057614c1a86805f0190614bc9919061a537565b86608001518d8a602001358b604001358c6060016020810190614bec9190617daa565b604051602001614bff949392919061a599565b60405160208183030381529060405280519060200120616c36565b50809550505b8415614d0b575f866020013503614c375782614c3d565b85602001355b92507fffffffffffffffffffffffffffffffffffffffffffffffffffffffffffffffff866040013503614c705781614c76565b85604001355b91507fffffffffffffffffffffffffffffffffffffffffffffffffffffffffffffffff866040013514158015614cea57505f73ffffffffffffffffffffffffffffffffffffffff16866060016020810190614cd19190617daa565b73ffffffffffffffffffffffffffffffffffffffff1614155b614cf45780614d08565b856060016020810190614d079190617daa565b5b90505b5f601b5f601a5481526020019081526020015f205f8c73ffffffffffffffffffffffffffffffffffffffff1673ffffffffffffffffffffffffffffffffffffffff1681526020019081526020015f205490508173ffffffffffffffffffffffffffffffffffffffff168973ffffffffffffffffffffffffffffffffffffffff16141580614d985750828814155b15614de057888883856040517ff13474e9000000000000000000000000000000000000000000000000000000008152600401614dd7949392919061a5e6565b60405180910390fd5b5f8a1480614df8575083818b614df69190618b87565b115b15614e475783818b614e0a9190618b87565b6040517f9e7762db000000000000000000000000000000000000000000000000000000008152600401614e3e92919061a629565b60405180910390fd5b84602001518a8660400151614e5c9190618b87565b1115614eb45784602001518a8660400151614e779190618b87565b6040517ffe381cc9000000000000000000000000000000000000000000000000000000008152600401614eab92919061a629565b60405180910390fd5b42855f01511115614f0157845f0151426040517f4562091e000000000000000000000000000000000000000000000000000000008152600401614ef892919061a629565b60405180910390fd5b505050505095945050505050565b6026602052805f5260405f205f915090505481565b60095f9054906101000a900473ffffffffffffffffffffffffffffffffffffffff1673ffffffffffffffffffffffffffffffffffffffff163373ffffffffffffffffffffffffffffffffffffffff1614614faa576040517f2d99739600000000000000000000000000000000000000000000000000000000815260040160405180910390fd5b602154811015614fef576040517f08c379a0000000000000000000000000000000000000000000000000000000008152600401614fe69061a6c0565b60405180910390fd5b80601d819055507fe876c27307b9e6aa2b15a7730a0dfd41be0f2c7a7c39bc08e89df77a548fb794816040516150259190617990565b60405180910390a150565b5f8161503a615373565b1115801561504857505f5482105b8015615072575060045f8381526020019081526020015f205f01601c9054906101000a900460ff16155b9050919050565b5f33905090565b8260065f8481526020019081526020015f205f6101000a81548173ffffffffffffffffffffffffffffffffffffffff021916908373ffffffffffffffffffffffffffffffffffffffff160217905550818373ffffffffffffffffffffffffffffffffffffffff168273ffffffffffffffffffffffffffffffffffffffff167f8c5be1e5ebec7d5bd14f71427d1e84f3dd0314c0f7b2291e5b200ac8c7c3b92560405160405180910390a4505050565b6002601c5403615174576040517f08c379a000000000000000000000000000000000000000000000000000000000815260040161516b9061a728565b60405180910390fd5b6002601c81905550565b5f6151a3835f018373ffffffffffffffffffffffffffffffffffffffff165f1b616cd2565b905092915050565b601e54602054106151f1576040517f08c379a00000000000000000000000000000000000000000000000000000000081526004016151e89061a790565b60405180910390fd5b600160205f8282546152039190618b87565b925050819055505f602281905550565b5f60215490508160215f82825461522a9190618b87565b9250508190555061523b8383616d39565b81602d5f60205481526020019081526020015f205f82825461525d9190618b87565b9250508190555092915050565b6001601c81905550565b5f61527d613556565b73ffffffffffffffffffffffffffffffffffffffff163373ffffffffffffffffffffffffffffffffffffffff1614905090565b5f60095f9054906101000a900473ffffffffffffffffffffffffffffffffffffffff1690508160095f6101000a81548173ffffffffffffffffffffffffffffffffffffffff021916908373ffffffffffffffffffffffffffffffffffffffff1602179055508173ffffffffffffffffffffffffffffffffffffffff168173ffffffffffffffffffffffffffffffffffffffff167f8292fce18fa69edf4db7b94ea2e58241df0ae57f97e0a6c9b29067028bf92d7660405160405180910390a35050565b5f5f905090565b5f61538482615d57565b90508373ffffffffffffffffffffffffffffffffffffffff16815f015173ffffffffffffffffffffffffffffffffffffffff16146153ee576040517fa114810000000000000000000000000000000000000000000000000000000000815260040160405180910390fd5b5f8473ffffffffffffffffffffffffffffffffffffffff1661540e615079565b73ffffffffffffffffffffffffffffffffffffffff16148061543d575061543c85615437615079565b6149d2565b5b80615482575061544b615079565b73ffffffffffffffffffffffffffffffffffffffff1661546a846113c5565b73ffffffffffffffffffffffffffffffffffffffff16145b9050806154bb576040517f59c896be00000000000000000000000000000000000000000000000000000000815260040160405180910390fd5b5f73ffffffffffffffffffffffffffffffffffffffff168473ffffffffffffffffffffffffffffffffffffffff1603615520576040517fea553b3400000000000000000000000000000000000000000000000000000000815260040160405180910390fd5b61552d8585856001616d56565b6155385f8487615080565b600160055f8773ffffffffffffffffffffffffffffffffffffffff1673ffffffffffffffffffffffffffffffffffffffff1681526020019081526020015f205f015f8282829054906101000a900467ffffffffffffffff160392506101000a81548167ffffffffffffffff021916908367ffffffffffffffff160217905550600160055f8673ffffffffffffffffffffffffffffffffffffffff1673ffffffffffffffffffffffffffffffffffffffff1681526020019081526020015f205f015f8282829054906101000a900467ffffffffffffffff160192506101000a81548167ffffffffffffffff021916908367ffffffffffffffff1602179055505f60045f8581526020019081526020015f20905084815f015f6101000a81548173ffffffffffffffffffffffffffffffffffffffff021916908373ffffffffffffffffffffffffffffffffffffffff16021790555042815f0160146101000a81548167ffffffffffffffff021916908367ffffffffffffffff1602179055505f6001850190505f60045f8381526020019081526020015f2090505f73ffffffffffffffffffffffffffffffffffffffff16815f015f9054906101000a900473ffffffffffffffffffffffffffffffffffffffff1673ffffffffffffffffffffffffffffffffffffffff160361579e575f54821461579d5787815f015f6101000a81548173ffffffffffffffffffffffffffffffffffffffff021916908373ffffffffffffffffffffffffffffffffffffffff1602179055508460200151815f0160146101000a81548167ffffffffffffffff021916908367ffffffffffffffff1602179055505b5b505050828473ffffffffffffffffffffffffffffffffffffffff168673ffffffffffffffffffffffffffffffffffffffff167fddf252ad1be2c89b69c2b068fc378daa952ba7f163c4a11628f55a4df523b3ef60405160405180910390a46158098585856001616d5c565b5050505050565b5f615819613556565b73ffffffffffffffffffffffffffffffffffffffff163373ffffffffffffffffffffffffffffffffffffffff1614905090565b5f33905090565b5f61585d83615d57565b90505f815f01519050821561593b575f8173ffffffffffffffffffffffffffffffffffffffff1661588c615079565b73ffffffffffffffffffffffffffffffffffffffff1614806158bb57506158ba826158b5615079565b6149d2565b5b8061590057506158c9615079565b73ffffffffffffffffffffffffffffffffffffffff166158e8866113c5565b73ffffffffffffffffffffffffffffffffffffffff16145b905080615939576040517f59c896be00000000000000000000000000000000000000000000000000000000815260040160405180910390fd5b505b615948815f866001616d56565b6159535f8583615080565b5f60055f8373ffffffffffffffffffffffffffffffffffffffff1673ffffffffffffffffffffffffffffffffffffffff1681526020019081526020015f2090506001815f015f8282829054906101000a900467ffffffffffffffff160392506101000a81548167ffffffffffffffff021916908367ffffffffffffffff1602179055506001815f0160108282829054906101000a900467ffffffffffffffff160192506101000a81548167ffffffffffffffff021916908367ffffffffffffffff1602179055505f60045f8781526020019081526020015f20905082815f015f6101000a81548173ffffffffffffffffffffffffffffffffffffffff021916908373ffffffffffffffffffffffffffffffffffffffff16021790555042815f0160146101000a81548167ffffffffffffffff021916908367ffffffffffffffff1602179055506001815f01601c6101000a81548160ff0219169083151502179055505f6001870190505f60045f8381526020019081526020015f2090505f73ffffffffffffffffffffffffffffffffffffffff16815f015f9054906101000a900473ffffffffffffffffffffffffffffffffffffffff1673ffffffffffffffffffffffffffffffffffffffff1603615b9e575f548214615b9d5784815f015f6101000a81548173ffffffffffffffffffffffffffffffffffffffff021916908373ffffffffffffffffffffffffffffffffffffffff1602179055508560200151815f0160146101000a81548167ffffffffffffffff021916908367ffffffffffffffff1602179055505b5b50505050835f73ffffffffffffffffffffffffffffffffffffffff168273ffffffffffffffffffffffffffffffffffffffff167fddf252ad1be2c89b69c2b068fc378daa952ba7f163c4a11628f55a4df523b3ef60405160405180910390a4615c0a815f866001616d5c565b60015f815480929190600101919050555050505050565b5f615c2a613556565b73ffffffffffffffffffffffffffffffffffffffff163373ffffffffffffffffffffffffffffffffffffffff1614905090565b612710811115615ca857612710816040517f52498568000000000000000000000000000000000000000000000000000000008152600401615c9f92919061a7e7565b60405180910390fd5b81600a5f6101000a81548173ffffffffffffffffffffffffffffffffffffffff021916908373ffffffffffffffffffffffffffffffffffffffff16021790555080600a60146101000a81548161ffff021916908361ffff1602179055508173ffffffffffffffffffffffffffffffffffffffff167f90d7ec04bcb8978719414f82e52e4cb651db41d0e6f8cea6118c2191e6183adb82604051615d4b9190617990565b60405180910390a25050565b615d5f617938565b5f82905080615d6c615373565b11615f98575f54811015615f97575f60045f8381526020019081526020015f206040518060600160405290815f82015f9054906101000a900473ffffffffffffffffffffffffffffffffffffffff1673ffffffffffffffffffffffffffffffffffffffff1673ffffffffffffffffffffffffffffffffffffffff1681526020015f820160149054906101000a900467ffffffffffffffff1667ffffffffffffffff1667ffffffffffffffff1681526020015f8201601c9054906101000a900460ff16151515158152505090508060400151615f95575f73ffffffffffffffffffffffffffffffffffffffff16815f015173ffffffffffffffffffffffffffffffffffffffff1614615e81578092505050615fca565b5b600115615f945781806001900392505060045f8381526020019081526020015f206040518060600160405290815f82015f9054906101000a900473ffffffffffffffffffffffffffffffffffffffff1673ffffffffffffffffffffffffffffffffffffffff1673ffffffffffffffffffffffffffffffffffffffff1681526020015f820160149054906101000a900467ffffffffffffffff1667ffffffffffffffff1667ffffffffffffffff1681526020015f8201601c9054906101000a900460ff16151515158152505090505f73ffffffffffffffffffffffffffffffffffffffff16815f015173ffffffffffffffffffffffffffffffffffffffff1614615f8f578092505050615fca565b615e82565b5b505b5b6040517fdf2d9b4200000000000000000000000000000000000000000000000000000000815260040160405180910390fd5b919050565b60605f6040518060400160405280601081526020017f303132333435363738396162636465660000000000000000000000000000000081525090505f604067ffffffffffffffff81111561602657616025617c1a565b5b6040519080825280601f01601f1916602001820160405280156160585781602001600182028036833780820191505090505b5090505f5f90505b60208110156161bc5782600486836020811061607f5761607e61935e565b5b1a60f81b7effffffffffffffffffffffffffffffffffffffffffffffffffffffffffffff1916901c60f81c60ff16815181106160be576160bd61935e565b5b602001015160f81c60f81b826002836160d79190618e38565b815181106160e8576160e761935e565b5b60200101907effffffffffffffffffffffffffffffffffffffffffffffffffffffffffffff191690815f1a90535082600f60f81b86836020811061612f5761612e61935e565b5b1a60f81b1660f81c60ff168151811061614b5761614a61935e565b5b602001015160f81c60f81b826002836161649190618e38565b60016161709190618b87565b815181106161815761618061935e565b5b60200101907effffffffffffffffffffffffffffffffffffffffffffffffffffffffffffff191690815f1a9053508080600101915050616060565b508092505050919050565b5f6161d0613556565b73ffffffffffffffffffffffffffffffffffffffff163373ffffffffffffffffffffffffffffffffffffffff1614905090565b5f73ffffffffffffffffffffffffffffffffffffffff168173ffffffffffffffffffffffffffffffffffffffff160361627357806040517f3df2b0dc00000000000000000000000000000000000000000000000000000000815260040161626a9190617b3c565b60405180910390fd5b80600f5f6101000a81548173ffffffffffffffffffffffffffffffffffffffff021916908373ffffffffffffffffffffffffffffffffffffffff1602179055508073ffffffffffffffffffffffffffffffffffffffff167f299d17e95023f496e0ffc4909cff1a61f74bb5eb18de6f900f4155bfa1b3b33360405160405180910390a250565b601054855f546163099190618b87565b111561634a576040517f08c379a00000000000000000000000000000000000000000000000000000000081526004016163419061a858565b60405180910390fd5b505050505050565b5f81036163a0575f341461639b576040517f08c379a00000000000000000000000000000000000000000000000000000000081526004016163929061a8c0565b60405180910390fd5b61649c565b5f81846163ad9190618e38565b90505f73eeeeeeeeeeeeeeeeeeeeeeeeeeeeeeeeeeeeeeee73ffffffffffffffffffffffffffffffffffffffff168473ffffffffffffffffffffffffffffffffffffffff1603616401578134149050616407565b5f341490505b80616447576040517f08c379a000000000000000000000000000000000000000000000000000000000815260040161643e9061a928565b60405180910390fd5b5f5f73ffffffffffffffffffffffffffffffffffffffff168773ffffffffffffffffffffffffffffffffffffffff1614616481578661648a565b616489611397565b5b905061649885338386616d62565b5050505b50505050565b505050505050565b5f6164b3613556565b73ffffffffffffffffffffffffffffffffffffffff163373ffffffffffffffffffffffffffffffffffffffff1614905090565b5f600880546164f490618ac2565b80601f016020809104026020016040519081016040528092919081815260200182805461652090618ac2565b801561656b5780601f106165425761010080835404028352916020019161656b565b820191905f5260205f20905b81548152906001019060200180831161654e57829003601f168201915b5050505050905081600890816165819190619761565b507fc9c7c3fe08b88b4df9d4d47ef47d2c43d55c025a0ba88ca442580ed9e7348a1681836040516165b392919061a946565b60405180910390a15050565b61271081111561660a57612710816040517f5249856800000000000000000000000000000000000000000000000000000000815260040161660192919061a7e7565b60405180910390fd5b60405180604001604052808373ffffffffffffffffffffffffffffffffffffffff16815260200182815250600b5f8581526020019081526020015f205f820151815f015f6101000a81548173ffffffffffffffffffffffffffffffffffffffff021916908373ffffffffffffffffffffffffffffffffffffffff160217905550602082015181600101559050508173ffffffffffffffffffffffffffffffffffffffff16837f7365cf4122f072a3365c20d54eff9b38d73c096c28e1892ec8f5b0e403a0f12d836040516166de9190617990565b60405180910390a3505050565b6060616710838360405180606001604052806027815260200161ae5460279139616dd4565b905092915050565b5f5f8273ffffffffffffffffffffffffffffffffffffffff163b119050919050565b5f8373ffffffffffffffffffffffffffffffffffffffff1663150b7a0261675f615079565b8786866040518563ffffffff1660e01b8152600401616781949392919061a97b565b6020604051808303815f875af19250505080156167bc57506040513d601f19601f820116820180604052508101906167b9919061a9d9565b60015b616832573d805f81146167ea576040519150601f19603f3d011682016040523d82523d5f602084013e6167ef565b606091505b505f81510361682a576040517fd1a57ed600000000000000000000000000000000000000000000000000000000815260040160405180910390fd5b805181602001fd5b63150b7a0260e01b7bffffffffffffffffffffffffffffffffffffffffffffffffffffffff1916817bffffffffffffffffffffffffffffffffffffffffffffffffffffffff191614915050949350505050565b60605f8267ffffffffffffffff8111156168a2576168a1617c1a565b5b6040519080825280601f01601f1916602001820160405280156168d45781602001600182028036833780820191505090505b5090505f8390505b5f81111561696d57600a856168f1919061aa04565b60306168fd9190618b87565b60f81b8260018361690e9190618ed6565b8151811061691f5761691e61935e565b5b60200101907effffffffffffffffffffffffffffffffffffffffffffffffffffffffffffff191690815f1a905350600a8561695a9190618ea6565b9450806169669061aa34565b90506168dc565b505f84146169b0576040517f08c379a00000000000000000000000000000000000000000000000000000000081526004016169a79061aaa5565b60405180910390fd5b8091505092915050565b5f6169c3613556565b73ffffffffffffffffffffffffffffffffffffffff163373ffffffffffffffffffffffffffffffffffffffff1614905090565b8060115f8481526020019081526020015f209081616a14919061ab1b565b505050565b600e5f8381526020019081526020015f205f9054906101000a900460ff1615616a7957816040517fba0f3592000000000000000000000000000000000000000000000000000000008152600401616a709190617990565b60405180910390fd5b80600d5f8481526020019081526020015f209081616a979190619761565b507f6bd5c950a8d8df17f772f5af37cb3655737899cbf903264b9795592da439661c616ac283616e56565b83604051616ad192919061a629565b60405180910390a15050565b5f616ae6616f76565b616b1c576040517ff409ec7300000000000000000000000000000000000000000000000000000000815260040160405180910390fd5b5f8603616b55576040517f8fd36a9b00000000000000000000000000000000000000000000000000000000815260040160405180910390fd5b5f6010549050616ba9818888888080601f0160208091040260200160405190810160405280939291908181526020018383808284375f81840152601f19601f82011690508083019250505050505050616fb2565b60105f82955083919050555050807f2a0365091ef1a40953c670dce28177e37520648a6fdc91506bffac0ab045570d60018984616be69190618b87565b616bf09190618ed6565b88888888604051616c0595949392919061ac42565b60405180910390a25095945050505050565b60605f616c25835f01617012565b905060608190508092505050919050565b5f5f5f8390505f5f90505f5f90505b88889050811015616cbe57600282616c5d9190618e38565b91505f898983818110616c7357616c7261935e565b5b905060200201359050808411616c9457616c8d848261706b565b9350616cb0565b616c9e818561706b565b9350600183616cad9190618b87565b92505b508080600101915050616c45565b508582148193509350505094509492505050565b5f616cdd838361707f565b616d2f57825f0182908060018154018082558091505060019003905f5260205f20015f9091909190915055825f0180549050836001015f8481526020019081526020015f208190555060019050616d33565b5f90505b92915050565b616d52828260405180602001604052805f81525061709f565b5050565b50505050565b50505050565b5f810315616dce5773eeeeeeeeeeeeeeeeeeeeeeeeeeeeeeeeeeeeeeee73ffffffffffffffffffffffffffffffffffffffff168473ffffffffffffffffffffffffffffffffffffffff1603616dc057616dbb8282617444565b616dcd565b616dcc848484846174f5565b5b5b50505050565b60605f5f8573ffffffffffffffffffffffffffffffffffffffff1685604051616dfd919061acb9565b5f60405180830381855af49150503d805f8114616e35576040519150601f19603f3d011682016040523d82523d5f602084013e616e3a565b606091505b5091509150616e4b868383876175c1565b925050509392505050565b5f5f616e60612f58565b90505f600c805480602002602001604051908101604052809291908181526020018280548015616ead57602002820191905f5260205f20905b815481526020019060010190808311616e99575b505050505090505f5f90505b82811015616f3357818181518110616ed457616ed361935e565b5b60200260200101518503616f26575f811115616f1b5781600182616ef89190618ed6565b81518110616f0957616f0861935e565b5b60200260200101519350505050616f71565b5f9350505050616f71565b8080600101915050616eb9565b50836040517f0f2624ee000000000000000000000000000000000000000000000000000000008152600401616f689190617990565b60405180910390fd5b919050565b5f616f7f613556565b73ffffffffffffffffffffffffffffffffffffffff163373ffffffffffffffffffffffffffffffffffffffff1614905090565b5f5f8385616fc09190618b87565b9050809150600c81908060018154018082558091505060019003905f5260205f20015f909190919091505582600d5f8381526020019081526020015f2090816170099190619761565b50935093915050565b6060815f0180548060200260200160405190810160405280929190818152602001828054801561705f57602002820191905f5260205f20905b81548152602001906001019080831161704b575b50505050509050919050565b5f825f528160205260405f20905092915050565b5f5f836001015f8481526020019081526020015f20541415905092915050565b5f5f5490505f73ffffffffffffffffffffffffffffffffffffffff168473ffffffffffffffffffffffffffffffffffffffff1603617109576040517f2e07630000000000000000000000000000000000000000000000000000000000815260040160405180910390fd5b5f8303617142576040517fb562e8dd00000000000000000000000000000000000000000000000000000000815260040160405180910390fd5b61714e5f858386616d56565b8260055f8673ffffffffffffffffffffffffffffffffffffffff1673ffffffffffffffffffffffffffffffffffffffff1681526020019081526020015f205f015f8282829054906101000a900467ffffffffffffffff160192506101000a81548167ffffffffffffffff021916908367ffffffffffffffff1602179055508260055f8673ffffffffffffffffffffffffffffffffffffffff1673ffffffffffffffffffffffffffffffffffffffff1681526020019081526020015f205f0160088282829054906101000a900467ffffffffffffffff160192506101000a81548167ffffffffffffffff021916908367ffffffffffffffff1602179055508360045f8381526020019081526020015f205f015f6101000a81548173ffffffffffffffffffffffffffffffffffffffff021916908373ffffffffffffffffffffffffffffffffffffffff1602179055504260045f8381526020019081526020015f205f0160146101000a81548167ffffffffffffffff021916908367ffffffffffffffff1602179055505f8190505f84820190506172ff8673ffffffffffffffffffffffffffffffffffffffff16616718565b156173c0575b818673ffffffffffffffffffffffffffffffffffffffff165f73ffffffffffffffffffffffffffffffffffffffff167fddf252ad1be2c89b69c2b068fc378daa952ba7f163c4a11628f55a4df523b3ef60405160405180910390a46173725f87848060010195508761673a565b6173a8576040517fd1a57ed600000000000000000000000000000000000000000000000000000000815260040160405180910390fd5b80821061730557825f54146173bb575f5ffd5b61742a565b5b818060010192508673ffffffffffffffffffffffffffffffffffffffff165f73ffffffffffffffffffffffffffffffffffffffff167fddf252ad1be2c89b69c2b068fc378daa952ba7f163c4a11628f55a4df523b3ef60405160405180910390a48082106173c1575b815f81905550505061743e5f858386616d5c565b50505050565b5f8273ffffffffffffffffffffffffffffffffffffffff168260405161746990618f9e565b5f6040518083038185875af1925050503d805f81146174a3576040519150601f19603f3d011682016040523d82523d5f602084013e6174a8565b606091505b50509050806174f05782826040517fbfb89d820000000000000000000000000000000000000000000000000000000081526004016174e7929190617ea1565b60405180910390fd5b505050565b8173ffffffffffffffffffffffffffffffffffffffff168373ffffffffffffffffffffffffffffffffffffffff1603156175bb573073ffffffffffffffffffffffffffffffffffffffff168373ffffffffffffffffffffffffffffffffffffffff160361758c5761758782828673ffffffffffffffffffffffffffffffffffffffff166176359092919063ffffffff16565b6175ba565b6175b98383838773ffffffffffffffffffffffffffffffffffffffff166176bb909392919063ffffffff16565b5b5b50505050565b60608315617622575f83510361761a576175da85616718565b617619576040517f08c379a00000000000000000000000000000000000000000000000000000000081526004016176109061ad19565b60405180910390fd5b5b82905061762d565b61762c8383617744565b5b949350505050565b6176b68363a9059cbb60e01b8484604051602401617654929190617ea1565b604051602081830303815290604052907bffffffffffffffffffffffffffffffffffffffffffffffffffffffff19166020820180517bffffffffffffffffffffffffffffffffffffffffffffffffffffffff8381831617835250505050617793565b505050565b61773e846323b872dd60e01b8585856040516024016176dc93929190619150565b604051602081830303815290604052907bffffffffffffffffffffffffffffffffffffffffffffffffffffffff19166020820180517bffffffffffffffffffffffffffffffffffffffffffffffffffffffff8381831617835250505050617793565b50505050565b5f825111156177565781518083602001fd5b806040517f08c379a000000000000000000000000000000000000000000000000000000000815260040161778a9190617add565b60405180910390fd5b5f6177f4826040518060400160405280602081526020017f5361666545524332303a206c6f772d6c6576656c2063616c6c206661696c65648152508573ffffffffffffffffffffffffffffffffffffffff166178589092919063ffffffff16565b90505f8151111561785357808060200190518101906178139190619199565b617852576040517f08c379a00000000000000000000000000000000000000000000000000000000081526004016178499061ada7565b60405180910390fd5b5b505050565b606061786684845f8561786f565b90509392505050565b6060824710156178b4576040517f08c379a00000000000000000000000000000000000000000000000000000000081526004016178ab9061ae35565b60405180910390fd5b5f5f8673ffffffffffffffffffffffffffffffffffffffff1685876040516178dc919061acb9565b5f6040518083038185875af1925050503d805f8114617916576040519150601f19603f3d011682016040523d82523d5f602084013e61791b565b606091505b509150915061792c878383876175c1565b92505050949350505050565b60405180606001604052805f73ffffffffffffffffffffffffffffffffffffffff1681526020015f67ffffffffffffffff1681526020015f151581525090565b5f819050919050565b61798a81617978565b82525050565b5f6020820190506179a35f830184617981565b92915050565b5f604051905090565b5f5ffd5b5f5ffd5b5f7fffffffff0000000000000000000000000000000000000000000000000000000082169050919050565b6179ee816179ba565b81146179f8575f5ffd5b50565b5f81359050617a09816179e5565b92915050565b5f60208284031215617a2457617a236179b2565b5b5f617a31848285016179fb565b91505092915050565b5f8115159050919050565b617a4e81617a3a565b82525050565b5f602082019050617a675f830184617a45565b92915050565b5f81519050919050565b5f82825260208201905092915050565b8281835e5f83830152505050565b5f601f19601f8301169050919050565b5f617aaf82617a6d565b617ab98185617a77565b9350617ac9818560208601617a87565b617ad281617a95565b840191505092915050565b5f6020820190508181035f830152617af58184617aa5565b905092915050565b5f73ffffffffffffffffffffffffffffffffffffffff82169050919050565b5f617b2682617afd565b9050919050565b617b3681617b1c565b82525050565b5f602082019050617b4f5f830184617b2d565b92915050565b617b5e81617978565b8114617b68575f5ffd5b50565b5f81359050617b7981617b55565b92915050565b5f60208284031215617b9457617b936179b2565b5b5f617ba184828501617b6b565b91505092915050565b617bb381617b1c565b8114617bbd575f5ffd5b50565b5f81359050617bce81617baa565b92915050565b5f5f60408385031215617bea57617be96179b2565b5b5f617bf785828601617bc0565b9250506020617c0885828601617b6b565b9150509250929050565b5f5ffd5b5f5ffd5b7f4e487b71000000000000000000000000000000000000000000000000000000005f52604160045260245ffd5b617c5082617a95565b810181811067ffffffffffffffff82111715617c6f57617c6e617c1a565b5b80604052505050565b5f617c816179a9565b9050617c8d8282617c47565b919050565b5f67ffffffffffffffff821115617cac57617cab617c1a565b5b617cb582617a95565b9050602081019050919050565b828183375f83830152505050565b5f617ce2617cdd84617c92565b617c78565b905082815260208101848484011115617cfe57617cfd617c16565b5b617d09848285617cc2565b509392505050565b5f82601f830112617d2557617d24617c12565b5b8135617d35848260208601617cd0565b91505092915050565b5f5f5f60608486031215617d5557617d546179b2565b5b5f617d6286828701617b6b565b935050602084013567ffffffffffffffff811115617d8357617d826179b6565b5b617d8f86828701617d11565b9250506040617da086828701617bc0565b9150509250925092565b5f60208284031215617dbf57617dbe6179b2565b5b5f617dcc84828501617bc0565b91505092915050565b5f5f5f60608486031215617dec57617deb6179b2565b5b5f617df986828701617bc0565b9350506020617e0a86828701617bc0565b9250506040617e1b86828701617b6b565b9150509250925092565b5f5f60408385031215617e3b57617e3a6179b2565b5b5f617e4885828601617bc0565b9250506020617e5985828601617bc0565b9150509250929050565b5f5f60408385031215617e7957617e786179b2565b5b5f617e8685828601617b6b565b9250506020617e9785828601617b6b565b9150509250929050565b5f604082019050617eb45f830185617b2d565b617ec16020830184617981565b9392505050565b5f5ffd5b5f6101008284031215617ee257617ee1617ec8565b5b81905092915050565b617ef481617a3a565b8114617efe575f5ffd5b50565b5f81359050617f0f81617eeb565b92915050565b5f5f60408385031215617f2b57617f2a6179b2565b5b5f83013567ffffffffffffffff811115617f4857617f476179b6565b5b617f5485828601617ecc565b9250506020617f6585828601617f01565b9150509250929050565b5f61ffff82169050919050565b617f8581617f6f565b82525050565b5f604082019050617f9e5f830185617b2d565b617fab6020830184617f7c565b9392505050565b5f60208284031215617fc757617fc66179b2565b5b5f82013567ffffffffffffffff811115617fe457617fe36179b6565b5b617ff084828501617d11565b91505092915050565b5f67ffffffffffffffff82111561801357618012617c1a565b5b602082029050602081019050919050565b5f5ffd5b5f61803a61803584617ff9565b617c78565b9050808382526020820190506020840283018581111561805d5761805c618024565b5b835b8181101561808657806180728882617b6b565b84526020840193505060208101905061805f565b5050509392505050565b5f82601f8301126180a4576180a3617c12565b5b81356180b4848260208601618028565b91505092915050565b5f5f5f606084860312156180d4576180d36179b2565b5b5f6180e186828701617b6b565b935050602084013567ffffffffffffffff811115618102576181016179b6565b5b61810e86828701618090565b925050604084013567ffffffffffffffff81111561812f5761812e6179b6565b5b61813b86828701618090565b9150509250925092565b5f6080828403121561815a57618159617ec8565b5b81905092915050565b5f67ffffffffffffffff82111561817d5761817c617c1a565b5b61818682617a95565b9050602081019050919050565b5f6181a56181a084618163565b617c78565b9050828152602081018484840111156181c1576181c0617c16565b5b6181cc848285617cc2565b509392505050565b5f82601f8301126181e8576181e7617c12565b5b81356181f8848260208601618193565b91505092915050565b5f5f5f5f5f5f60c0878903121561821b5761821a6179b2565b5b5f61822889828a01617bc0565b965050602061823989828a01617b6b565b955050604061824a89828a01617bc0565b945050606061825b89828a01617b6b565b935050608087013567ffffffffffffffff81111561827c5761827b6179b6565b5b61828889828a01618145565b92505060a087013567ffffffffffffffff8111156182a9576182a86179b6565b5b6182b589828a016181d4565b9150509295509295509295565b5f5f5f606084860312156182d9576182d86179b2565b5b5f6182e686828701617b6b565b93505060206182f786828701617bc0565b925050604061830886828701617b6b565b9150509250925092565b5f5ffd5b5f5f83601f84011261832b5761832a617c12565b5b8235905067ffffffffffffffff81111561834857618347618312565b5b60208301915083600182028301111561836457618363618024565b5b9250929050565b5f5f5f60408486031215618382576183816179b2565b5b5f61838f86828701617b6b565b935050602084013567ffffffffffffffff8111156183b0576183af6179b6565b5b6183bc86828701618316565b92509250509250925092565b5f81519050919050565b5f82825260208201905092915050565b5f6183ec826183c8565b6183f681856183d2565b9350618406818560208601617a87565b61840f81617a95565b840191505092915050565b5f6020820190508181035f83015261843281846183e2565b905092915050565b5f5f604083850312156184505761844f6179b2565b5b5f61845d85828601617bc0565b925050602061846e85828601617f01565b9150509250929050565b5f5f83601f84011261848d5761848c617c12565b5b8235905067ffffffffffffffff8111156184aa576184a9618312565b5b6020830191508360208202830111156184c6576184c5618024565b5b9250929050565b5f5f602083850312156184e3576184e26179b2565b5b5f83013567ffffffffffffffff811115618500576184ff6179b6565b5b61850c85828601618478565b92509250509250929050565b5f81519050919050565b5f82825260208201905092915050565b5f819050602082019050919050565b5f82825260208201905092915050565b5f61855b826183c8565b6185658185618541565b9350618575818560208601617a87565b61857e81617a95565b840191505092915050565b5f6185948383618551565b905092915050565b5f602082019050919050565b5f6185b282618518565b6185bc8185618522565b9350836020820285016185ce85618532565b805f5b8581101561860957848403895281516185ea8582618589565b94506185f58361859c565b925060208a019950506001810190506185d1565b50829750879550505050505092915050565b5f6020820190508181035f83015261863381846185a8565b905092915050565b5f5f5f5f60808587031215618653576186526179b2565b5b5f61866087828801617bc0565b945050602061867187828801617bc0565b935050604061868287828801617b6b565b925050606085013567ffffffffffffffff8111156186a3576186a26179b6565b5b6186af878288016181d4565b91505092959194509250565b5f5f604083850312156186d1576186d06179b2565b5b5f83013567ffffffffffffffff8111156186ee576186ed6179b6565b5b6186fa85828601618090565b925050602083013567ffffffffffffffff81111561871b5761871a6179b6565b5b61872785828601618090565b9150509250929050565b5f5f83601f84011261874657618745617c12565b5b8235905067ffffffffffffffff81111561876357618762618312565b5b60208301915083600182028301111561877f5761877e618024565b5b9250929050565b5f5f5f5f5f6060868803121561879f5761879e6179b2565b5b5f6187ac88828901617b6b565b955050602086013567ffffffffffffffff8111156187cd576187cc6179b6565b5b6187d988828901618731565b9450945050604086013567ffffffffffffffff8111156187fc576187fb6179b6565b5b61880888828901618316565b92509250509295509295909350565b5f81519050919050565b5f82825260208201905092915050565b5f819050602082019050919050565b61884981617b1c565b82525050565b5f61885a8383618840565b60208301905092915050565b5f602082019050919050565b5f61887c82618817565b6188868185618821565b935061889183618831565b805f5b838110156188c15781516188a8888261884f565b97506188b383618866565b925050600181019050618894565b5085935050505092915050565b5f6020820190508181035f8301526188e68184618872565b905092915050565b5f819050919050565b618900816188ee565b82525050565b5f6101008201905061891a5f83018b617981565b618927602083018a617981565b6189346040830189617981565b6189416060830188617981565b61894e60808301876188f7565b61895b60a0830186617981565b61896860c0830185617b2d565b81810360e083015261897a8184617aa5565b90509998505050505050505050565b5f5f5f604084860312156189a05761899f6179b2565b5b5f84013567ffffffffffffffff8111156189bd576189bc6179b6565b5b6189c9868287016181d4565b935050602084013567ffffffffffffffff8111156189ea576189e96179b6565b5b6189f686828701618316565b92509250509250925092565b5f5f5f5f5f60a08688031215618a1b57618a1a6179b2565b5b5f618a2888828901617bc0565b9550506020618a3988828901617b6b565b9450506040618a4a88828901617bc0565b9350506060618a5b88828901617b6b565b925050608086013567ffffffffffffffff811115618a7c57618a7b6179b6565b5b618a8888828901618145565b9150509295509295909350565b7f4e487b71000000000000000000000000000000000000000000000000000000005f52602260045260245ffd5b5f6002820490506001821680618ad957607f821691505b602082108103618aec57618aeb618a95565b5b50919050565b7f5175616e746974792063616e6e6f74206265207a65726f0000000000000000005f82015250565b5f618b26601783617a77565b9150618b3182618af2565b602082019050919050565b5f6020820190508181035f830152618b5381618b1a565b9050919050565b7f4e487b71000000000000000000000000000000000000000000000000000000005f52601160045260245ffd5b5f618b9182617978565b9150618b9c83617978565b9250828201905080821115618bb457618bb3618b5a565b5b92915050565b7f45786365656473206d6178207065722077616c6c6574000000000000000000005f82015250565b5f618bee601683617a77565b9150618bf982618bba565b602082019050919050565b5f6020820190508181035f830152618c1b81618be2565b9050919050565b7f4578636565647320746f74616c20737570706c790000000000000000000000005f82015250565b5f618c56601483617a77565b9150618c6182618c22565b602082019050919050565b5f6020820190508181035f830152618c8381618c4a565b9050919050565b7f446f75626c65207370656e64696e672070726f74656374696f6e3a20576169745f8201527f20666f72203620626c6f636b7300000000000000000000000000000000000000602082015250565b5f618ce4602d83617a77565b9150618cef82618c8a565b604082019050919050565b5f6020820190508181035f830152618d1181618cd8565b9050919050565b5f81905092915050565b5f618d2c82617a6d565b618d368185618d18565b9350618d46818560208601617a87565b80840191505092915050565b5f618d5d8284618d22565b915081905092915050565b7f496e76616c696420726566657272616c20636f646500000000000000000000005f82015250565b5f618d9c601583617a77565b9150618da782618d68565b602082019050919050565b5f6020820190508181035f830152618dc981618d90565b9050919050565b7f43616e6e6f7420726566657220796f757273656c6600000000000000000000005f82015250565b5f618e04601583617a77565b9150618e0f82618dd0565b602082019050919050565b5f6020820190508181035f830152618e3181618df8565b9050919050565b5f618e4282617978565b9150618e4d83617978565b9250828202618e5b81617978565b91508282048414831517618e7257618e71618b5a565b5b5092915050565b7f4e487b71000000000000000000000000000000000000000000000000000000005f52601260045260245ffd5b5f618eb082617978565b9150618ebb83617978565b925082618ecb57618eca618e79565b5b828204905092915050565b5f618ee082617978565b9150618eeb83617978565b9250828203905081811115618f0357618f02618b5a565b5b92915050565b7f496e73756666696369656e74204554482066756e6473000000000000000000005f82015250565b5f618f3d601683617a77565b9150618f4882618f09565b602082019050919050565b5f6020820190508181035f830152618f6a81618f31565b9050919050565b5f81905092915050565b50565b5f618f895f83618f71565b9150618f9482618f7b565b5f82019050919050565b5f618fa882618f7e565b9150819050919050565b7f45544820726566756e64206661696c65640000000000000000000000000000005f82015250565b5f618fe6601183617a77565b9150618ff182618fb2565b602082019050919050565b5f6020820190508181035f83015261901381618fda565b9050919050565b7f45544820726577617264207472616e73666572206661696c65640000000000005f82015250565b5f61904e601a83617a77565b91506190598261901a565b602082019050919050565b5f6020820190508181035f83015261907b81619042565b9050919050565b5f6040820190506190955f830185617b2d565b6190a26020830184617b2d565b9392505050565b5f815190506190b781617b55565b92915050565b5f602082840312156190d2576190d16179b2565b5b5f6190df848285016190a9565b91505092915050565b7f496e73756666696369656e7420746f6b656e20616c6c6f77616e6365000000005f82015250565b5f61911c601c83617a77565b9150619127826190e8565b602082019050919050565b5f6020820190508181035f83015261914981619110565b9050919050565b5f6060820190506191635f830186617b2d565b6191706020830185617b2d565b61917d6040830184617981565b949350505050565b5f8151905061919381617eeb565b92915050565b5f602082840312156191ae576191ad6179b2565b5b5f6191bb84828501619185565b91505092915050565b7f546f6b656e207472616e73666572206661696c656400000000000000000000005f82015250565b5f6191f8601583617a77565b9150619203826191c4565b602082019050919050565b5f6020820190508181035f830152619225816191ec565b9050919050565b7f496e73756666696369656e7420746f6b656e2062616c616e636520666f7220725f8201527f6577617264000000000000000000000000000000000000000000000000000000602082015250565b5f619286602583617a77565b91506192918261922c565b604082019050919050565b5f6020820190508181035f8301526192b38161927a565b9050919050565b7f546f6b656e20726577617264207472616e73666572206661696c6564000000005f82015250565b5f6192ee601c83617a77565b91506192f9826192ba565b602082019050919050565b5f6020820190508181035f83015261931b816192e2565b9050919050565b5f6060820190506193355f830186617981565b6193426020830185617b2d565b81810360408301526193548184617aa5565b9050949350505050565b7f4e487b71000000000000000000000000000000000000000000000000000000005f52603260045260245ffd5b7f496e76616c6964207469657200000000000000000000000000000000000000005f82015250565b5f6193bf600c83617a77565b91506193ca8261938b565b602082019050919050565b5f6020820190508181035f8301526193ec816193b3565b9050919050565b7f4e6f2066756e647320746f2077697468647261770000000000000000000000005f82015250565b5f619427601483617a77565b9150619432826193f3565b602082019050919050565b5f6020820190508181035f8301526194548161941b565b9050919050565b7f5769746864726177616c206661696c65640000000000000000000000000000005f82015250565b5f61948f601183617a77565b915061949a8261945b565b602082019050919050565b5f6020820190508181035f8301526194bc81619483565b9050919050565b5f8160601b9050919050565b5f6194d9826194c3565b9050919050565b5f6194ea826194cf565b9050919050565b6195026194fd82617b1c565b6194e0565b82525050565b5f819050919050565b61952261951d82617978565b619508565b82525050565b5f61953382856194f1565b6014820191506195438284619511565b6020820191508190509392505050565b5f5ffd5b5f5ffd5b5f5ffd5b5f5f8335600160200384360303811261957b5761957a619553565b5b80840192508235915067ffffffffffffffff82111561959d5761959c619557565b5b6020830192506001820236038313156195b9576195b861955b565b5b509250929050565b5f819050815f5260205f209050919050565b5f6020601f8301049050919050565b5f82821b905092915050565b5f6008830261961d7fffffffffffffffffffffffffffffffffffffffffffffffffffffffffffffffff826195e2565b61962786836195e2565b95508019841693508086168417925050509392505050565b5f819050919050565b5f61966261965d61965884617978565b61963f565b617978565b9050919050565b5f819050919050565b61967b83619648565b61968f61968782619669565b8484546195ee565b825550505050565b5f5f905090565b6196a6619697565b6196b1818484619672565b505050565b5b818110156196d4576196c95f8261969e565b6001810190506196b7565b5050565b601f821115619719576196ea816195c1565b6196f3846195d3565b81016020851015619702578190505b61971661970e856195d3565b8301826196b6565b50505b505050565b5f82821c905092915050565b5f6197395f198460080261971e565b1980831691505092915050565b5f619751838361972a565b9150826002028217905092915050565b61976a82617a6d565b67ffffffffffffffff81111561978357619782617c1a565b5b61978d8254618ac2565b6197988282856196d8565b5f60209050601f8311600181146197c9575f84156197b7578287015190505b6197c18582619746565b865550619828565b601f1984166197d7866195c1565b5f5b828110156197fe578489015182556001820191506020850194506020810190506197d9565b8683101561981b5784890151619817601f89168261972a565b8355505b6001600288020188555050505b505050505050565b5f61983e6020840184617b6b565b905092915050565b61984f81617978565b82525050565b61985e816188ee565b8114619868575f5ffd5b50565b5f8135905061987981619855565b92915050565b5f61988d602084018461986b565b905092915050565b61989e816188ee565b82525050565b5f6198b26020840184617bc0565b905092915050565b5f5ffd5b5f5ffd5b5f5ffd5b5f5f833560016020038436030381126198e2576198e16198c2565b5b83810192508235915060208301925067ffffffffffffffff82111561990a576199096198ba565b5b6001820236038313156199205761991f6198be565b5b509250929050565b5f82825260208201905092915050565b5f6199438385619928565b9350619950838584617cc2565b61995983617a95565b840190509392505050565b5f61010083016199765f840184619830565b6199825f860182619846565b506199906020840184619830565b61999d6020860182619846565b506199ab6040840184619830565b6199b86040860182619846565b506199c66060840184619830565b6199d36060860182619846565b506199e1608084018461987f565b6199ee6080860182619895565b506199fc60a0840184619830565b619a0960a0860182619846565b50619a1760c08401846198a4565b619a2460c0860182618840565b50619a3260e08401846198c6565b85830360e0870152619a45838284619938565b925050508091505092915050565b5f6040820190508181035f830152619a6b8185619964565b9050619a7a6020830184617a45565b9392505050565b7f526566657272616c20636f646520616c726561647920726567697374657265645f82015250565b5f619ab5602083617a77565b9150619ac082619a81565b602082019050919050565b5f6020820190508181035f830152619ae281619aa9565b9050919050565b7f526566657272616c20636f646520616c726561647920696e20757365000000005f82015250565b5f619b1d601c83617a77565b9150619b2882619ae9565b602082019050919050565b5f6020820190508181035f830152619b4a81619b11565b9050919050565b5f604082019050619b645f830185617b2d565b8181036020830152619b768184617aa5565b90509392505050565b7f4e6577206d61782074696572732063616e6e6f74206265206c657373207468615f8201527f6e207468652063757272656e7420746965720000000000000000000000000000602082015250565b5f619bd9603283617a77565b9150619be482619b7f565b604082019050919050565b5f6020820190508181035f830152619c0681619bcd565b9050919050565b7f50726963657320616e642073697a6573206c656e677468206d69736d617463685f82015250565b5f619c41602083617a77565b9150619c4c82619c0d565b602082019050919050565b5f6020820190508181035f830152619c6e81619c35565b9050919050565b7f4578636565647320616c6c6f776564206e6577207469657273000000000000005f82015250565b5f619ca9601983617a77565b9150619cb482619c75565b602082019050919050565b5f6020820190508181035f830152619cd681619c9d565b9050919050565b5f619ce882846194f1565b60148201915081905092915050565b7f4e6f20746f6b656e2062616c616e636520746f207769746864726177000000005f82015250565b5f619d2b601c83617a77565b9150619d3682619cf7565b602082019050919050565b5f6020820190508181035f830152619d5881619d1f565b9050919050565b5f619d71619d6c84618163565b617c78565b905082815260208101848484011115619d8d57619d8c617c16565b5b619d98848285617a87565b509392505050565b5f82601f830112619db457619db3617c12565b5b8151619dc4848260208601619d5f565b91505092915050565b5f81519050619ddb81619855565b92915050565b5f5f60408385031215619df757619df66179b2565b5b5f83015167ffffffffffffffff811115619e1457619e136179b6565b5b619e2085828601619da0565b9250506020619e3185828601619dcd565b9150509250929050565b5f619e468385618f71565b9350619e53838584617cc2565b82840190509392505050565b5f619e6a8287618d22565b9150619e77828587619e3b565b9150619e838284619511565b60208201915081905095945050505050565b5f604082019050619ea85f8301856188f7565b619eb560208301846188f7565b9392505050565b5f5f83356001602003843603038112619ed857619ed7619553565b5b80840192508235915067ffffffffffffffff821115619efa57619ef9619557565b5b602083019250600182023603831315619f1657619f1561955b565b5b509250929050565b5f619f2a828587619e3b565b9150619f3682846194f1565b601482019150819050949350505050565b7f53697a657320616e642070726963657320617272617973206d757374206861765f8201527f65207468652073616d65206c656e677468000000000000000000000000000000602082015250565b5f619fa1603183617a77565b9150619fac82619f47565b604082019050919050565b5f6020820190508181035f830152619fce81619f95565b9050919050565b7f4552433732314d657461646174613a2055524920717565727920666f72206e6f5f8201527f6e6578697374656e7420746f6b656e0000000000000000000000000000000000602082015250565b5f61a02f602f83617a77565b915061a03a82619fd5565b604082019050919050565b5f6020820190508181035f83015261a05c8161a023565b9050919050565b5f815461a06f81618ac2565b61a0798186618d18565b9450600182165f811461a093576001811461a0a85761a0da565b60ff198316865281151582028601935061a0da565b61a0b1856195c1565b5f5b8381101561a0d25781548189015260018201915060208101905061a0b3565b838801955050505b50505092915050565b7f2e6a736f6e0000000000000000000000000000000000000000000000000000005f82015250565b5f61a117600583618d18565b915061a1228261a0e3565b600582019050919050565b5f61a138828561a063565b915061a1448284618d22565b915061a14f8261a10b565b91508190509392505050565b7f4e6f7420617574686f72697a65640000000000000000000000000000000000005f82015250565b5f61a18f600e83617a77565b915061a19a8261a15b565b602082019050919050565b5f6020820190508181035f83015261a1bc8161a183565b9050919050565b5f69ffffffffffffffffffff82169050919050565b61a1e18161a1c3565b811461a1eb575f5ffd5b50565b5f8151905061a1fc8161a1d8565b92915050565b5f819050919050565b61a2148161a202565b811461a21e575f5ffd5b50565b5f8151905061a22f8161a20b565b92915050565b5f5f5f5f5f60a0868803121561a24e5761a24d6179b2565b5b5f61a25b8882890161a1ee565b955050602061a26c8882890161a221565b945050604061a27d888289016190a9565b935050606061a28e888289016190a9565b925050608061a29f8882890161a1ee565b9150509295509295909350565b7f496e76616c6964204554482f55534420707269636500000000000000000000005f82015250565b5f61a2e0601583617a77565b915061a2eb8261a2ac565b602082019050919050565b5f6020820190508181035f83015261a30d8161a2d4565b9050919050565b7f496e76616c696420555344542f555344207072696365000000000000000000005f82015250565b5f61a348601683617a77565b915061a3538261a314565b602082019050919050565b5f6020820190508181035f83015261a3758161a33c565b9050919050565b7f496e76616c696420555344432f555344207072696365000000000000000000005f82015250565b5f61a3b0601683617a77565b915061a3bb8261a37c565b602082019050919050565b5f6020820190508181035f83015261a3dd8161a3a4565b9050919050565b7f496e76616c696420574254432f455448207072696365000000000000000000005f82015250565b5f61a418601683617a77565b915061a4238261a3e4565b602082019050919050565b5f6020820190508181035f83015261a4458161a40c565b9050919050565b7f556e737570706f7274656420746f6b656e0000000000000000000000000000005f82015250565b5f61a480601183617a77565b915061a48b8261a44c565b602082019050919050565b5f6020820190508181035f83015261a4ad8161a474565b9050919050565b5f5f6040838503121561a4ca5761a4c96179b2565b5b5f83013567ffffffffffffffff81111561a4e75761a4e66179b6565b5b61a4f3858286016181d4565b925050602061a5048582860161986b565b9150509250929050565b5f61a51a828587619e3b565b915061a5268284619511565b602082019150819050949350505050565b5f5f8335600160200384360303811261a5535761a552619553565b5b80840192508235915067ffffffffffffffff82111561a5755761a574619557565b5b60208301925060208202360383131561a5915761a59061955b565b5b509250929050565b5f61a5a482876194f1565b60148201915061a5b48286619511565b60208201915061a5c48285619511565b60208201915061a5d482846194f1565b60148201915081905095945050505050565b5f60808201905061a5f95f830187617b2d565b61a6066020830186617981565b61a6136040830185617b2d565b61a6206060830184617981565b95945050505050565b5f60408201905061a63c5f830185617981565b61a6496020830184617981565b9392505050565b7f4e657720746f74616c20737570706c792063616e6e6f74206265206c657373205f8201527f7468616e206d696e74656420746f6b656e730000000000000000000000000000602082015250565b5f61a6aa603283617a77565b915061a6b58261a650565b604082019050919050565b5f6020820190508181035f83015261a6d78161a69e565b9050919050565b7f5265656e7472616e637947756172643a207265656e7472616e742063616c6c005f82015250565b5f61a712601f83617a77565b915061a71d8261a6de565b602082019050919050565b5f6020820190508181035f83015261a73f8161a706565b9050919050565b7f416c6c20746965727320636f6d706c65746564000000000000000000000000005f82015250565b5f61a77a601383617a77565b915061a7858261a746565b602082019050919050565b5f6020820190508181035f83015261a7a78161a76e565b9050919050565b5f819050919050565b5f61a7d161a7cc61a7c78461a7ae565b61963f565b617978565b9050919050565b61a7e18161a7b7565b82525050565b5f60408201905061a7fa5f83018561a7d8565b61a8076020830184617981565b9392505050565b7f4e6f7420656e6f756768206d696e74656420746f6b656e7300000000000000005f82015250565b5f61a842601883617a77565b915061a84d8261a80e565b602082019050919050565b5f6020820190508181035f83015261a86f8161a836565b9050919050565b7f2156616c756500000000000000000000000000000000000000000000000000005f82015250565b5f61a8aa600683617a77565b915061a8b58261a876565b602082019050919050565b5f6020820190508181035f83015261a8d78161a89e565b9050919050565b7f496e76616c6964206d73672076616c75650000000000000000000000000000005f82015250565b5f61a912601183617a77565b915061a91d8261a8de565b602082019050919050565b5f6020820190508181035f83015261a93f8161a906565b9050919050565b5f6040820190508181035f83015261a95e8185617aa5565b9050818103602083015261a9728184617aa5565b90509392505050565b5f60808201905061a98e5f830187617b2d565b61a99b6020830186617b2d565b61a9a86040830185617981565b818103606083015261a9ba81846183e2565b905095945050505050565b5f8151905061a9d3816179e5565b92915050565b5f6020828403121561a9ee5761a9ed6179b2565b5b5f61a9fb8482850161a9c5565b91505092915050565b5f61aa0e82617978565b915061aa1983617978565b92508261aa295761aa28618e79565b5b828206905092915050565b5f61aa3e82617978565b91505f820361aa505761aa4f618b5a565b5b600182039050919050565b7f56616c75652065786365656473206469676974206c656e6774680000000000005f82015250565b5f61aa8f601a83617a77565b915061aa9a8261aa5b565b602082019050919050565b5f6020820190508181035f83015261aabc8161aa83565b9050919050565b5f819050815f5260205f209050919050565b601f82111561ab165761aae78161aac3565b61aaf0846195d3565b8101602085101561aaff578190505b61ab1361ab0b856195d3565b8301826196b6565b50505b505050565b61ab24826183c8565b67ffffffffffffffff81111561ab3d5761ab3c617c1a565b5b61ab478254618ac2565b61ab5282828561aad5565b5f60209050601f83116001811461ab83575f841561ab71578287015190505b61ab7b8582619746565b86555061abe2565b601f19841661ab918661aac3565b5f5b8281101561abb85784890151825560018201915060208501945060208101905061ab93565b8683101561abd5578489015161abd1601f89168261972a565b8355505b6001600288020188555050505b505050505050565b5f61abf58385617a77565b935061ac02838584617cc2565b61ac0b83617a95565b840190509392505050565b5f61ac2183856183d2565b935061ac2e838584617cc2565b61ac3783617a95565b840190509392505050565b5f60608201905061ac555f830188617981565b818103602083015261ac6881868861abea565b9050818103604083015261ac7d81848661ac16565b90509695505050505050565b5f61ac93826183c8565b61ac9d8185618f71565b935061acad818560208601617a87565b80840191505092915050565b5f61acc4828461ac89565b915081905092915050565b7f416464726573733a2063616c6c20746f206e6f6e2d636f6e74726163740000005f82015250565b5f61ad03601d83617a77565b915061ad0e8261accf565b602082019050919050565b5f6020820190508181035f83015261ad308161acf7565b9050919050565b7f5361666545524332303a204552433230206f7065726174696f6e20646964206e5f8201527f6f74207375636365656400000000000000000000000000000000000000000000602082015250565b5f61ad91602a83617a77565b915061ad9c8261ad37565b604082019050919050565b5f6020820190508181035f83015261adbe8161ad85565b9050919050565b7f416464726573733a20696e73756666696369656e742062616c616e636520666f5f8201527f722063616c6c0000000000000000000000000000000000000000000000000000602082015250565b5f61ae1f602683617a77565b915061ae2a8261adc5565b604082019050919050565b5f6020820190508181035f83015261ae4c8161ae13565b905091905056fe416464726573733a206c6f772d6c6576656c2064656c65676174652063616c6c206661696c6564a2646970667358221220b3d98976cac77368828ada02e2d397761fa8fed2157da90993623eaea126b87664736f6c634300081c0033",
			"opcodes": "PUSH1 0x80 PUSH1 0x40 MSTORE PUSH3 0x15B38 PUSH1 0x1D SSTORE PUSH1 0x4D PUSH1 0x1E SSTORE PUSH1 0x64 PUSH1 0x1F SSTORE PUSH1 0x1 PUSH1 0x20 SSTORE PUSH0 PUSH1 0x21 SSTORE PUSH0 PUSH1 0x22 SSTORE PUSH20 0x5F4EC3DF9CBD43714FE2740F5E3616155C5B8419 PUSH1 0x2E PUSH0 PUSH2 0x100 EXP DUP2 SLOAD DUP2 PUSH20 0xFFFFFFFFFFFFFFFFFFFFFFFFFFFFFFFFFFFFFFFF MUL NOT AND SWAP1 DUP4 PUSH20 0xFFFFFFFFFFFFFFFFFFFFFFFFFFFFFFFFFFFFFFFF AND MUL OR SWAP1 SSTORE POP PUSH20 0x3E7D1EAB13AD0104D2750B8863B489D65364E32D PUSH1 0x2F PUSH0 PUSH2 0x100 EXP DUP2 SLOAD DUP2 PUSH20 0xFFFFFFFFFFFFFFFFFFFFFFFFFFFFFFFFFFFFFFFF MUL NOT AND SWAP1 DUP4 PUSH20 0xFFFFFFFFFFFFFFFFFFFFFFFFFFFFFFFFFFFFFFFF AND MUL OR SWAP1 SSTORE POP PUSH20 0x8FFFFFD4AFB6115B954BD326CBE7B4BA576818F6 PUSH1 0x30 PUSH0 PUSH2 0x100 EXP DUP2 SLOAD DUP2 PUSH20 0xFFFFFFFFFFFFFFFFFFFFFFFFFFFFFFFFFFFFFFFF MUL NOT AND SWAP1 DUP4 PUSH20 0xFFFFFFFFFFFFFFFFFFFFFFFFFFFFFFFFFFFFFFFF AND MUL OR SWAP1 SSTORE POP PUSH20 0xDEB288F737066589598E9214E782FA5A8ED689E8 PUSH1 0x31 PUSH0 PUSH2 0x100 EXP DUP2 SLOAD DUP2 PUSH20 0xFFFFFFFFFFFFFFFFFFFFFFFFFFFFFFFFFFFFFFFF MUL NOT AND SWAP1 DUP4 PUSH20 0xFFFFFFFFFFFFFFFFFFFFFFFFFFFFFFFFFFFFFFFF AND MUL OR SWAP1 SSTORE POP CALLVALUE DUP1 ISZERO PUSH2 0x17D JUMPI PUSH0 PUSH0 REVERT JUMPDEST POP PUSH1 0x40 MLOAD PUSH2 0xBA29 CODESIZE SUB DUP1 PUSH2 0xBA29 DUP4 CODECOPY DUP2 DUP2 ADD PUSH1 0x40 MSTORE DUP2 ADD SWAP1 PUSH2 0x19F SWAP2 SWAP1 PUSH2 0x6EC JUMP JUMPDEST DUP7 DUP7 DUP7 DUP7 DUP7 DUP7 DUP5 DUP5 DUP2 PUSH1 0x2 SWAP1 DUP2 PUSH2 0x1B6 SWAP2 SWAP1 PUSH2 0x9ED JUMP JUMPDEST POP DUP1 PUSH1 0x3 SWAP1 DUP2 PUSH2 0x1C6 SWAP2 SWAP1 PUSH2 0x9ED JUMP JUMPDEST POP PUSH2 0x1D5 PUSH2 0x246 PUSH1 0x20 SHL PUSH1 0x20 SHR JUMP JUMPDEST PUSH0 DUP2 SWAP1 SSTORE POP POP POP PUSH2 0x1EB DUP7 PUSH2 0x24D PUSH1 0x20 SHL PUSH1 0x20 SHR JUMP JUMPDEST PUSH2 0x20D DUP4 DUP4 PUSH16 0xFFFFFFFFFFFFFFFFFFFFFFFFFFFFFFFF AND PUSH2 0x310 PUSH1 0x20 SHL PUSH1 0x20 SHR JUMP JUMPDEST PUSH2 0x21C DUP2 PUSH2 0x40A PUSH1 0x20 SHL PUSH1 0x20 SHR JUMP JUMPDEST POP POP POP POP POP POP PUSH1 0x1 PUSH1 0x1C DUP2 SWAP1 SSTORE POP DUP1 PUSH1 0x23 SWAP1 DUP2 PUSH2 0x239 SWAP2 SWAP1 PUSH2 0x9ED JUMP JUMPDEST POP POP POP POP POP POP POP POP PUSH2 0xB6C JUMP JUMPDEST PUSH0 PUSH0 SWAP1 POP SWAP1 JUMP JUMPDEST PUSH0 PUSH1 0x9 PUSH0 SWAP1 SLOAD SWAP1 PUSH2 0x100 EXP SWAP1 DIV PUSH20 0xFFFFFFFFFFFFFFFFFFFFFFFFFFFFFFFFFFFFFFFF AND SWAP1 POP DUP2 PUSH1 0x9 PUSH0 PUSH2 0x100 EXP DUP2 SLOAD DUP2 PUSH20 0xFFFFFFFFFFFFFFFFFFFFFFFFFFFFFFFFFFFFFFFF MUL NOT AND SWAP1 DUP4 PUSH20 0xFFFFFFFFFFFFFFFFFFFFFFFFFFFFFFFFFFFFFFFF AND MUL OR SWAP1 SSTORE POP DUP2 PUSH20 0xFFFFFFFFFFFFFFFFFFFFFFFFFFFFFFFFFFFFFFFF AND DUP2 PUSH20 0xFFFFFFFFFFFFFFFFFFFFFFFFFFFFFFFFFFFFFFFF AND PUSH32 0x8292FCE18FA69EDF4DB7B94EA2E58241DF0AE57F97E0A6C9B29067028BF92D76 PUSH1 0x40 MLOAD PUSH1 0x40 MLOAD DUP1 SWAP2 SUB SWAP1 LOG3 POP POP JUMP JUMPDEST PUSH2 0x2710 DUP2 GT ISZERO PUSH2 0x35B JUMPI PUSH2 0x2710 DUP2 PUSH1 0x40 MLOAD PUSH32 0x5249856800000000000000000000000000000000000000000000000000000000 DUP2 MSTORE PUSH1 0x4 ADD PUSH2 0x352 SWAP3 SWAP2 SWAP1 PUSH2 0xB04 JUMP JUMPDEST PUSH1 0x40 MLOAD DUP1 SWAP2 SUB SWAP1 REVERT JUMPDEST DUP2 PUSH1 0xA PUSH0 PUSH2 0x100 EXP DUP2 SLOAD DUP2 PUSH20 0xFFFFFFFFFFFFFFFFFFFFFFFFFFFFFFFFFFFFFFFF MUL NOT AND SWAP1 DUP4 PUSH20 0xFFFFFFFFFFFFFFFFFFFFFFFFFFFFFFFFFFFFFFFF AND MUL OR SWAP1 SSTORE POP DUP1 PUSH1 0xA PUSH1 0x14 PUSH2 0x100 EXP DUP2 SLOAD DUP2 PUSH2 0xFFFF MUL NOT AND SWAP1 DUP4 PUSH2 0xFFFF AND MUL OR SWAP1 SSTORE POP DUP2 PUSH20 0xFFFFFFFFFFFFFFFFFFFFFFFFFFFFFFFFFFFFFFFF AND PUSH32 0x90D7EC04BCB8978719414F82E52E4CB651DB41D0E6F8CEA6118C2191E6183ADB DUP3 PUSH1 0x40 MLOAD PUSH2 0x3FE SWAP2 SWAP1 PUSH2 0xB2B JUMP JUMPDEST PUSH1 0x40 MLOAD DUP1 SWAP2 SUB SWAP1 LOG2 POP POP JUMP JUMPDEST PUSH0 PUSH20 0xFFFFFFFFFFFFFFFFFFFFFFFFFFFFFFFFFFFFFFFF AND DUP2 PUSH20 0xFFFFFFFFFFFFFFFFFFFFFFFFFFFFFFFFFFFFFFFF AND SUB PUSH2 0x47A JUMPI DUP1 PUSH1 0x40 MLOAD PUSH32 0x3DF2B0DC00000000000000000000000000000000000000000000000000000000 DUP2 MSTORE PUSH1 0x4 ADD PUSH2 0x471 SWAP2 SWAP1 PUSH2 0xB53 JUMP JUMPDEST PUSH1 0x40 MLOAD DUP1 SWAP2 SUB SWAP1 REVERT JUMPDEST DUP1 PUSH1 0xF PUSH0 PUSH2 0x100 EXP DUP2 SLOAD DUP2 PUSH20 0xFFFFFFFFFFFFFFFFFFFFFFFFFFFFFFFFFFFFFFFF MUL NOT AND SWAP1 DUP4 PUSH20 0xFFFFFFFFFFFFFFFFFFFFFFFFFFFFFFFFFFFFFFFF AND MUL OR SWAP1 SSTORE POP DUP1 PUSH20 0xFFFFFFFFFFFFFFFFFFFFFFFFFFFFFFFFFFFFFFFF AND PUSH32 0x299D17E95023F496E0FFC4909CFF1A61F74BB5EB18DE6F900F4155BFA1B3B333 PUSH1 0x40 MLOAD PUSH1 0x40 MLOAD DUP1 SWAP2 SUB SWAP1 LOG2 POP JUMP JUMPDEST PUSH0 PUSH1 0x40 MLOAD SWAP1 POP SWAP1 JUMP JUMPDEST PUSH0 PUSH0 REVERT JUMPDEST PUSH0 PUSH0 REVERT JUMPDEST PUSH0 PUSH20 0xFFFFFFFFFFFFFFFFFFFFFFFFFFFFFFFFFFFFFFFF DUP3 AND SWAP1 POP SWAP2 SWAP1 POP JUMP JUMPDEST PUSH0 PUSH2 0x53A DUP3 PUSH2 0x511 JUMP JUMPDEST SWAP1 POP SWAP2 SWAP1 POP JUMP JUMPDEST PUSH2 0x54A DUP2 PUSH2 0x530 JUMP JUMPDEST DUP2 EQ PUSH2 0x554 JUMPI PUSH0 PUSH0 REVERT JUMPDEST POP JUMP JUMPDEST PUSH0 DUP2 MLOAD SWAP1 POP PUSH2 0x565 DUP2 PUSH2 0x541 JUMP JUMPDEST SWAP3 SWAP2 POP POP JUMP JUMPDEST PUSH0 PUSH0 REVERT JUMPDEST PUSH0 PUSH0 REVERT JUMPDEST PUSH0 PUSH1 0x1F NOT PUSH1 0x1F DUP4 ADD AND SWAP1 POP SWAP2 SWAP1 POP JUMP JUMPDEST PUSH32 0x4E487B7100000000000000000000000000000000000000000000000000000000 PUSH0 MSTORE PUSH1 0x41 PUSH1 0x4 MSTORE PUSH1 0x24 PUSH0 REVERT JUMPDEST PUSH2 0x5B9 DUP3 PUSH2 0x573 JUMP JUMPDEST DUP2 ADD DUP2 DUP2 LT PUSH8 0xFFFFFFFFFFFFFFFF DUP3 GT OR ISZERO PUSH2 0x5D8 JUMPI PUSH2 0x5D7 PUSH2 0x583 JUMP JUMPDEST JUMPDEST DUP1 PUSH1 0x40 MSTORE POP POP POP JUMP JUMPDEST PUSH0 PUSH2 0x5EA PUSH2 0x500 JUMP JUMPDEST SWAP1 POP PUSH2 0x5F6 DUP3 DUP3 PUSH2 0x5B0 JUMP JUMPDEST SWAP2 SWAP1 POP JUMP JUMPDEST PUSH0 PUSH8 0xFFFFFFFFFFFFFFFF DUP3 GT ISZERO PUSH2 0x615 JUMPI PUSH2 0x614 PUSH2 0x583 JUMP JUMPDEST JUMPDEST PUSH2 0x61E DUP3 PUSH2 0x573 JUMP JUMPDEST SWAP1 POP PUSH1 0x20 DUP2 ADD SWAP1 POP SWAP2 SWAP1 POP JUMP JUMPDEST DUP3 DUP2 DUP4 MCOPY PUSH0 DUP4 DUP4 ADD MSTORE POP POP POP JUMP JUMPDEST PUSH0 PUSH2 0x64B PUSH2 0x646 DUP5 PUSH2 0x5FB JUMP JUMPDEST PUSH2 0x5E1 JUMP JUMPDEST SWAP1 POP DUP3 DUP2 MSTORE PUSH1 0x20 DUP2 ADD DUP5 DUP5 DUP5 ADD GT ISZERO PUSH2 0x667 JUMPI PUSH2 0x666 PUSH2 0x56F JUMP JUMPDEST JUMPDEST PUSH2 0x672 DUP5 DUP3 DUP6 PUSH2 0x62B JUMP JUMPDEST POP SWAP4 SWAP3 POP POP POP JUMP JUMPDEST PUSH0 DUP3 PUSH1 0x1F DUP4 ADD SLT PUSH2 0x68E JUMPI PUSH2 0x68D PUSH2 0x56B JUMP JUMPDEST JUMPDEST DUP2 MLOAD PUSH2 0x69E DUP5 DUP3 PUSH1 0x20 DUP7 ADD PUSH2 0x639 JUMP JUMPDEST SWAP2 POP POP SWAP3 SWAP2 POP POP JUMP JUMPDEST PUSH0 PUSH16 0xFFFFFFFFFFFFFFFFFFFFFFFFFFFFFFFF DUP3 AND SWAP1 POP SWAP2 SWAP1 POP JUMP JUMPDEST PUSH2 0x6CB DUP2 PUSH2 0x6A7 JUMP JUMPDEST DUP2 EQ PUSH2 0x6D5 JUMPI PUSH0 PUSH0 REVERT JUMPDEST POP JUMP JUMPDEST PUSH0 DUP2 MLOAD SWAP1 POP PUSH2 0x6E6 DUP2 PUSH2 0x6C2 JUMP JUMPDEST SWAP3 SWAP2 POP POP JUMP JUMPDEST PUSH0 PUSH0 PUSH0 PUSH0 PUSH0 PUSH0 PUSH0 PUSH1 0xE0 DUP9 DUP11 SUB SLT ISZERO PUSH2 0x707 JUMPI PUSH2 0x706 PUSH2 0x509 JUMP JUMPDEST JUMPDEST PUSH0 PUSH2 0x714 DUP11 DUP3 DUP12 ADD PUSH2 0x557 JUMP JUMPDEST SWAP8 POP POP PUSH1 0x20 DUP9 ADD MLOAD PUSH8 0xFFFFFFFFFFFFFFFF DUP2 GT ISZERO PUSH2 0x735 JUMPI PUSH2 0x734 PUSH2 0x50D JUMP JUMPDEST JUMPDEST PUSH2 0x741 DUP11 DUP3 DUP12 ADD PUSH2 0x67A JUMP JUMPDEST SWAP7 POP POP PUSH1 0x40 DUP9 ADD MLOAD PUSH8 0xFFFFFFFFFFFFFFFF DUP2 GT ISZERO PUSH2 0x762 JUMPI PUSH2 0x761 PUSH2 0x50D JUMP JUMPDEST JUMPDEST PUSH2 0x76E DUP11 DUP3 DUP12 ADD PUSH2 0x67A JUMP JUMPDEST SWAP6 POP POP PUSH1 0x60 PUSH2 0x77F DUP11 DUP3 DUP12 ADD PUSH2 0x557 JUMP JUMPDEST SWAP5 POP POP PUSH1 0x80 PUSH2 0x790 DUP11 DUP3 DUP12 ADD PUSH2 0x6D8 JUMP JUMPDEST SWAP4 POP POP PUSH1 0xA0 PUSH2 0x7A1 DUP11 DUP3 DUP12 ADD PUSH2 0x557 JUMP JUMPDEST SWAP3 POP POP PUSH1 0xC0 DUP9 ADD MLOAD PUSH8 0xFFFFFFFFFFFFFFFF DUP2 GT ISZERO PUSH2 0x7C2 JUMPI PUSH2 0x7C1 PUSH2 0x50D JUMP JUMPDEST JUMPDEST PUSH2 0x7CE DUP11 DUP3 DUP12 ADD PUSH2 0x67A JUMP JUMPDEST SWAP2 POP POP SWAP3 SWAP6 SWAP9 SWAP2 SWAP5 SWAP8 POP SWAP3 SWAP6 POP JUMP JUMPDEST PUSH0 DUP2 MLOAD SWAP1 POP SWAP2 SWAP1 POP JUMP JUMPDEST PUSH32 0x4E487B7100000000000000000000000000000000000000000000000000000000 PUSH0 MSTORE PUSH1 0x22 PUSH1 0x4 MSTORE PUSH1 0x24 PUSH0 REVERT JUMPDEST PUSH0 PUSH1 0x2 DUP3 DIV SWAP1 POP PUSH1 0x1 DUP3 AND DUP1 PUSH2 0x82B JUMPI PUSH1 0x7F DUP3 AND SWAP2 POP JUMPDEST PUSH1 0x20 DUP3 LT DUP2 SUB PUSH2 0x83E JUMPI PUSH2 0x83D PUSH2 0x7E7 JUMP JUMPDEST JUMPDEST POP SWAP2 SWAP1 POP JUMP JUMPDEST PUSH0 DUP2 SWAP1 POP DUP2 PUSH0 MSTORE PUSH1 0x20 PUSH0 KECCAK256 SWAP1 POP SWAP2 SWAP1 POP JUMP JUMPDEST PUSH0 PUSH1 0x20 PUSH1 0x1F DUP4 ADD DIV SWAP1 POP SWAP2 SWAP1 POP JUMP JUMPDEST PUSH0 DUP3 DUP3 SHL SWAP1 POP SWAP3 SWAP2 POP POP JUMP JUMPDEST PUSH0 PUSH1 0x8 DUP4 MUL PUSH2 0x8A0 PUSH32 0xFFFFFFFFFFFFFFFFFFFFFFFFFFFFFFFFFFFFFFFFFFFFFFFFFFFFFFFFFFFFFFFF DUP3 PUSH2 0x865 JUMP JUMPDEST PUSH2 0x8AA DUP7 DUP4 PUSH2 0x865 JUMP JUMPDEST SWAP6 POP DUP1 NOT DUP5 AND SWAP4 POP DUP1 DUP7 AND DUP5 OR SWAP3 POP POP POP SWAP4 SWAP3 POP POP POP JUMP JUMPDEST PUSH0 DUP2 SWAP1 POP SWAP2 SWAP1 POP JUMP JUMPDEST PUSH0 DUP2 SWAP1 POP SWAP2 SWAP1 POP JUMP JUMPDEST PUSH0 PUSH2 0x8EE PUSH2 0x8E9 PUSH2 0x8E4 DUP5 PUSH2 0x8C2 JUMP JUMPDEST PUSH2 0x8CB JUMP JUMPDEST PUSH2 0x8C2 JUMP JUMPDEST SWAP1 POP SWAP2 SWAP1 POP JUMP JUMPDEST PUSH0 DUP2 SWAP1 POP SWAP2 SWAP1 POP JUMP JUMPDEST PUSH2 0x907 DUP4 PUSH2 0x8D4 JUMP JUMPDEST PUSH2 0x91B PUSH2 0x913 DUP3 PUSH2 0x8F5 JUMP JUMPDEST DUP5 DUP5 SLOAD PUSH2 0x871 JUMP JUMPDEST DUP3 SSTORE POP POP POP POP JUMP JUMPDEST PUSH0 PUSH0 SWAP1 POP SWAP1 JUMP JUMPDEST PUSH2 0x932 PUSH2 0x923 JUMP JUMPDEST PUSH2 0x93D DUP2 DUP5 DUP5 PUSH2 0x8FE JUMP JUMPDEST POP POP POP JUMP JUMPDEST JUMPDEST DUP2 DUP2 LT ISZERO PUSH2 0x960 JUMPI PUSH2 0x955 PUSH0 DUP3 PUSH2 0x92A JUMP JUMPDEST PUSH1 0x1 DUP2 ADD SWAP1 POP PUSH2 0x943 JUMP JUMPDEST POP POP JUMP JUMPDEST PUSH1 0x1F DUP3 GT ISZERO PUSH2 0x9A5 JUMPI PUSH2 0x976 DUP2 PUSH2 0x844 JUMP JUMPDEST PUSH2 0x97F DUP5 PUSH2 0x856 JUMP JUMPDEST DUP2 ADD PUSH1 0x20 DUP6 LT ISZERO PUSH2 0x98E JUMPI DUP2 SWAP1 POP JUMPDEST PUSH2 0x9A2 PUSH2 0x99A DUP6 PUSH2 0x856 JUMP JUMPDEST DUP4 ADD DUP3 PUSH2 0x942 JUMP JUMPDEST POP POP JUMPDEST POP POP POP JUMP JUMPDEST PUSH0 DUP3 DUP3 SHR SWAP1 POP SWAP3 SWAP2 POP POP JUMP JUMPDEST PUSH0 PUSH2 0x9C5 PUSH0 NOT DUP5 PUSH1 0x8 MUL PUSH2 0x9AA JUMP JUMPDEST NOT DUP1 DUP4 AND SWAP2 POP POP SWAP3 SWAP2 POP POP JUMP JUMPDEST PUSH0 PUSH2 0x9DD DUP4 DUP4 PUSH2 0x9B6 JUMP JUMPDEST SWAP2 POP DUP3 PUSH1 0x2 MUL DUP3 OR SWAP1 POP SWAP3 SWAP2 POP POP JUMP JUMPDEST PUSH2 0x9F6 DUP3 PUSH2 0x7DD JUMP JUMPDEST PUSH8 0xFFFFFFFFFFFFFFFF DUP2 GT ISZERO PUSH2 0xA0F JUMPI PUSH2 0xA0E PUSH2 0x583 JUMP JUMPDEST JUMPDEST PUSH2 0xA19 DUP3 SLOAD PUSH2 0x814 JUMP JUMPDEST PUSH2 0xA24 DUP3 DUP3 DUP6 PUSH2 0x964 JUMP JUMPDEST PUSH0 PUSH1 0x20 SWAP1 POP PUSH1 0x1F DUP4 GT PUSH1 0x1 DUP2 EQ PUSH2 0xA55 JUMPI PUSH0 DUP5 ISZERO PUSH2 0xA43 JUMPI DUP3 DUP8 ADD MLOAD SWAP1 POP JUMPDEST PUSH2 0xA4D DUP6 DUP3 PUSH2 0x9D2 JUMP JUMPDEST DUP7 SSTORE POP PUSH2 0xAB4 JUMP JUMPDEST PUSH1 0x1F NOT DUP5 AND PUSH2 0xA63 DUP7 PUSH2 0x844 JUMP JUMPDEST PUSH0 JUMPDEST DUP3 DUP2 LT ISZERO PUSH2 0xA8A JUMPI DUP5 DUP10 ADD MLOAD DUP3 SSTORE PUSH1 0x1 DUP3 ADD SWAP2 POP PUSH1 0x20 DUP6 ADD SWAP5 POP PUSH1 0x20 DUP2 ADD SWAP1 POP PUSH2 0xA65 JUMP JUMPDEST DUP7 DUP4 LT ISZERO PUSH2 0xAA7 JUMPI DUP5 DUP10 ADD MLOAD PUSH2 0xAA3 PUSH1 0x1F DUP10 AND DUP3 PUSH2 0x9B6 JUMP JUMPDEST DUP4 SSTORE POP JUMPDEST PUSH1 0x1 PUSH1 0x2 DUP9 MUL ADD DUP9 SSTORE POP POP POP JUMPDEST POP POP POP POP POP POP JUMP JUMPDEST PUSH0 DUP2 SWAP1 POP SWAP2 SWAP1 POP JUMP JUMPDEST PUSH0 PUSH2 0xADF PUSH2 0xADA PUSH2 0xAD5 DUP5 PUSH2 0xABC JUMP JUMPDEST PUSH2 0x8CB JUMP JUMPDEST PUSH2 0x8C2 JUMP JUMPDEST SWAP1 POP SWAP2 SWAP1 POP JUMP JUMPDEST PUSH2 0xAEF DUP2 PUSH2 0xAC5 JUMP JUMPDEST DUP3 MSTORE POP POP JUMP JUMPDEST PUSH2 0xAFE DUP2 PUSH2 0x8C2 JUMP JUMPDEST DUP3 MSTORE POP POP JUMP JUMPDEST PUSH0 PUSH1 0x40 DUP3 ADD SWAP1 POP PUSH2 0xB17 PUSH0 DUP4 ADD DUP6 PUSH2 0xAE6 JUMP JUMPDEST PUSH2 0xB24 PUSH1 0x20 DUP4 ADD DUP5 PUSH2 0xAF5 JUMP JUMPDEST SWAP4 SWAP3 POP POP POP JUMP JUMPDEST PUSH0 PUSH1 0x20 DUP3 ADD SWAP1 POP PUSH2 0xB3E PUSH0 DUP4 ADD DUP5 PUSH2 0xAF5 JUMP JUMPDEST SWAP3 SWAP2 POP POP JUMP JUMPDEST PUSH2 0xB4D DUP2 PUSH2 0x530 JUMP JUMPDEST DUP3 MSTORE POP POP JUMP JUMPDEST PUSH0 PUSH1 0x20 DUP3 ADD SWAP1 POP PUSH2 0xB66 PUSH0 DUP4 ADD DUP5 PUSH2 0xB44 JUMP JUMPDEST SWAP3 SWAP2 POP POP JUMP JUMPDEST PUSH2 0xAEB0 DUP1 PUSH2 0xB79 PUSH0 CODECOPY PUSH0 RETURN INVALID PUSH1 0x80 PUSH1 0x40 MSTORE PUSH1 0x4 CALLDATASIZE LT PUSH2 0x425 JUMPI PUSH0 CALLDATALOAD PUSH1 0xE0 SHR DUP1 PUSH4 0x6F4F2837 GT PUSH2 0x228 JUMPI DUP1 PUSH4 0xB24F2D39 GT PUSH2 0x12D JUMPI DUP1 PUSH4 0xD679677A GT PUSH2 0xB5 JUMPI DUP1 PUSH4 0xE8A3D485 GT PUSH2 0x79 JUMPI DUP1 PUSH4 0xE8A3D485 EQ PUSH2 0x10FF JUMPI DUP1 PUSH4 0xE985E9C5 EQ PUSH2 0x1129 JUMPI DUP1 PUSH4 0xEEC8897C EQ PUSH2 0x1165 JUMPI DUP1 PUSH4 0xF0293FD3 EQ PUSH2 0x11A1 JUMPI DUP1 PUSH4 0xF7EA7A3D EQ PUSH2 0x11DD JUMPI PUSH2 0x425 JUMP JUMPDEST DUP1 PUSH4 0xD679677A EQ PUSH2 0x100B JUMPI DUP1 PUSH4 0xD6F92372 EQ PUSH2 0x1035 JUMPI DUP1 PUSH4 0xDD7D9386 EQ PUSH2 0x1071 JUMPI DUP1 PUSH4 0xE268E4D3 EQ PUSH2 0x109B JUMPI DUP1 PUSH4 0xE7150322 EQ PUSH2 0x10C3 JUMPI PUSH2 0x425 JUMP JUMPDEST DUP1 PUSH4 0xCE805642 GT PUSH2 0xFC JUMPI DUP1 PUSH4 0xCE805642 EQ PUSH2 0xEEA JUMPI DUP1 PUSH4 0xD02641A0 EQ PUSH2 0xF26 JUMPI DUP1 PUSH4 0xD37C353B EQ PUSH2 0xF62 JUMPI DUP1 PUSH4 0xD499BC85 EQ PUSH2 0xF9E JUMPI DUP1 PUSH4 0xD637ED59 EQ PUSH2 0xFDA JUMPI PUSH2 0x425 JUMP JUMPDEST DUP1 PUSH4 0xB24F2D39 EQ PUSH2 0xE33 JUMPI DUP1 PUSH4 0xB88D4FDE EQ PUSH2 0xE5E JUMPI DUP1 PUSH4 0xBEE2C64C EQ PUSH2 0xE86 JUMPI DUP1 PUSH4 0xC87B56DD EQ PUSH2 0xEAE JUMPI PUSH2 0x425 JUMP JUMPDEST DUP1 PUSH4 0x95D89B41 GT PUSH2 0x1B0 JUMPI DUP1 PUSH4 0xA05112FC GT PUSH2 0x17F JUMPI DUP1 PUSH4 0xA05112FC EQ PUSH2 0xD3F JUMPI DUP1 PUSH4 0xA22CB465 EQ PUSH2 0xD7B JUMPI DUP1 PUSH4 0xA2309FF8 EQ PUSH2 0xDA3 JUMPI DUP1 PUSH4 0xAC9650D8 EQ PUSH2 0xDCD JUMPI DUP1 PUSH4 0xACD083F8 EQ PUSH2 0xE09 JUMPI PUSH2 0x425 JUMP JUMPDEST DUP1 PUSH4 0x95D89B41 EQ PUSH2 0xC75 JUMPI DUP1 PUSH4 0x9B2C76D4 EQ PUSH2 0xC9F JUMPI DUP1 PUSH4 0x9BCF7A15 EQ PUSH2 0xCDB JUMPI DUP1 PUSH4 0x9FC4D68F EQ PUSH2 0xD03 JUMPI PUSH2 0x425 JUMP JUMPDEST DUP1 PUSH4 0x86CBF53A GT PUSH2 0x1F7 JUMPI DUP1 PUSH4 0x86CBF53A EQ PUSH2 0xB95 JUMPI DUP1 PUSH4 0x89476069 EQ PUSH2 0xBD1 JUMPI DUP1 PUSH4 0x8DA5CB5B EQ PUSH2 0xBF9 JUMPI DUP1 PUSH4 0x902D55A5 EQ PUSH2 0xC23 JUMPI DUP1 PUSH4 0x938E3D7B EQ PUSH2 0xC4D JUMPI PUSH2 0x425 JUMP JUMPDEST DUP1 PUSH4 0x6F4F2837 EQ PUSH2 0xAD9 JUMPI DUP1 PUSH4 0x70A08231 EQ PUSH2 0xB01 JUMPI DUP1 PUSH4 0x83040532 EQ PUSH2 0xB3D JUMPI DUP1 PUSH4 0x84BB1E42 EQ PUSH2 0xB79 JUMPI PUSH2 0x425 JUMP JUMPDEST DUP1 PUSH4 0x35B65E1F GT PUSH2 0x32E JUMPI DUP1 PUSH4 0x4C63C518 GT PUSH2 0x2B6 JUMPI DUP1 PUSH4 0x60D46F6A GT PUSH2 0x285 JUMPI DUP1 PUSH4 0x60D46F6A EQ PUSH2 0x9E5 JUMPI DUP1 PUSH4 0x6352211E EQ PUSH2 0xA0D JUMPI DUP1 PUSH4 0x63B45E2D EQ PUSH2 0xA49 JUMPI DUP1 PUSH4 0x6C0360EB EQ PUSH2 0xA73 JUMPI DUP1 PUSH4 0x6C9C7B63 EQ PUSH2 0xA9D JUMPI PUSH2 0x425 JUMP JUMPDEST DUP1 PUSH4 0x4C63C518 EQ PUSH2 0x91C JUMPI DUP1 PUSH4 0x4CC157DF EQ PUSH2 0x958 JUMPI DUP1 PUSH4 0x55F804B3 EQ PUSH2 0x995 JUMPI DUP1 PUSH4 0x600DD5EA EQ PUSH2 0x9BD JUMPI PUSH2 0x425 JUMP JUMPDEST DUP1 PUSH4 0x42842E0E GT PUSH2 0x2FD JUMPI DUP1 PUSH4 0x42842E0E EQ PUSH2 0x850 JUMPI DUP1 PUSH4 0x42966C68 EQ PUSH2 0x878 JUMPI DUP1 PUSH4 0x453C2310 EQ PUSH2 0x8A0 JUMPI DUP1 PUSH4 0x48EEC4F8 EQ PUSH2 0x8CA JUMPI DUP1 PUSH4 0x492E224B EQ PUSH2 0x8E0 JUMPI PUSH2 0x425 JUMP JUMPDEST DUP1 PUSH4 0x35B65E1F EQ PUSH2 0x7AC JUMPI DUP1 PUSH4 0x3B1475A7 EQ PUSH2 0x7E8 JUMPI DUP1 PUSH4 0x3CCFD60B EQ PUSH2 0x812 JUMPI DUP1 PUSH4 0x426CFAF3 EQ PUSH2 0x828 JUMPI PUSH2 0x425 JUMP JUMPDEST DUP1 PUSH4 0x18160DDD GT PUSH2 0x3B1 JUMPI DUP1 PUSH4 0x257F7FD5 GT PUSH2 0x380 JUMPI DUP1 PUSH4 0x257F7FD5 EQ PUSH2 0x67F JUMPI DUP1 PUSH4 0x2A55205A EQ PUSH2 0x6BB JUMPI DUP1 PUSH4 0x2B396B9A EQ PUSH2 0x6F8 JUMPI DUP1 PUSH4 0x300ECCAB EQ PUSH2 0x734 JUMPI DUP1 PUSH4 0x30521BDE EQ PUSH2 0x770 JUMPI PUSH2 0x425 JUMP JUMPDEST DUP1 PUSH4 0x18160DDD EQ PUSH2 0x5B5 JUMPI DUP1 PUSH4 0x23B872DD EQ PUSH2 0x5DF JUMPI DUP1 PUSH4 0x2419F51B EQ PUSH2 0x607 JUMPI DUP1 PUSH4 0x247E0BF0 EQ PUSH2 0x643 JUMPI PUSH2 0x425 JUMP JUMPDEST DUP1 PUSH4 0x7C3D4AF GT PUSH2 0x3F8 JUMPI DUP1 PUSH4 0x7C3D4AF EQ PUSH2 0x4E3 JUMPI DUP1 PUSH4 0x81812FC EQ PUSH2 0x50D JUMPI DUP1 PUSH4 0x95EA7B3 EQ PUSH2 0x549 JUMPI DUP1 PUSH4 0xE910F1D EQ PUSH2 0x571 JUMPI DUP1 PUSH4 0x13AF4035 EQ PUSH2 0x58D JUMPI PUSH2 0x425 JUMP JUMPDEST DUP1 PUSH4 0x10A38F5 EQ PUSH2 0x429 JUMPI DUP1 PUSH4 0x1FFC9A7 EQ PUSH2 0x453 JUMPI DUP1 PUSH4 0x6FDDE03 EQ PUSH2 0x48F JUMPI DUP1 PUSH4 0x79FE40E EQ PUSH2 0x4B9 JUMPI JUMPDEST PUSH0 PUSH0 REVERT JUMPDEST CALLVALUE DUP1 ISZERO PUSH2 0x434 JUMPI PUSH0 PUSH0 REVERT JUMPDEST POP PUSH2 0x43D PUSH2 0x1205 JUMP JUMPDEST PUSH1 0x40 MLOAD PUSH2 0x44A SWAP2 SWAP1 PUSH2 0x7990 JUMP JUMPDEST PUSH1 0x40 MLOAD DUP1 SWAP2 SUB SWAP1 RETURN JUMPDEST CALLVALUE DUP1 ISZERO PUSH2 0x45E JUMPI PUSH0 PUSH0 REVERT JUMPDEST POP PUSH2 0x479 PUSH1 0x4 DUP1 CALLDATASIZE SUB DUP2 ADD SWAP1 PUSH2 0x474 SWAP2 SWAP1 PUSH2 0x7A0F JUMP JUMPDEST PUSH2 0x120E JUMP JUMPDEST PUSH1 0x40 MLOAD PUSH2 0x486 SWAP2 SWAP1 PUSH2 0x7A54 JUMP JUMPDEST PUSH1 0x40 MLOAD DUP1 SWAP2 SUB SWAP1 RETURN JUMPDEST CALLVALUE DUP1 ISZERO PUSH2 0x49A JUMPI PUSH0 PUSH0 REVERT JUMPDEST POP PUSH2 0x4A3 PUSH2 0x1307 JUMP JUMPDEST PUSH1 0x40 MLOAD PUSH2 0x4B0 SWAP2 SWAP1 PUSH2 0x7ADD JUMP JUMPDEST PUSH1 0x40 MLOAD DUP1 SWAP2 SUB SWAP1 RETURN JUMPDEST CALLVALUE DUP1 ISZERO PUSH2 0x4C4 JUMPI PUSH0 PUSH0 REVERT JUMPDEST POP PUSH2 0x4CD PUSH2 0x1397 JUMP JUMPDEST PUSH1 0x40 MLOAD PUSH2 0x4DA SWAP2 SWAP1 PUSH2 0x7B3C JUMP JUMPDEST PUSH1 0x40 MLOAD DUP1 SWAP2 SUB SWAP1 RETURN JUMPDEST CALLVALUE DUP1 ISZERO PUSH2 0x4EE JUMPI PUSH0 PUSH0 REVERT JUMPDEST POP PUSH2 0x4F7 PUSH2 0x13BF JUMP JUMPDEST PUSH1 0x40 MLOAD PUSH2 0x504 SWAP2 SWAP1 PUSH2 0x7990 JUMP JUMPDEST PUSH1 0x40 MLOAD DUP1 SWAP2 SUB SWAP1 RETURN JUMPDEST CALLVALUE DUP1 ISZERO PUSH2 0x518 JUMPI PUSH0 PUSH0 REVERT JUMPDEST POP PUSH2 0x533 PUSH1 0x4 DUP1 CALLDATASIZE SUB DUP2 ADD SWAP1 PUSH2 0x52E SWAP2 SWAP1 PUSH2 0x7B7F JUMP JUMPDEST PUSH2 0x13C5 JUMP JUMPDEST PUSH1 0x40 MLOAD PUSH2 0x540 SWAP2 SWAP1 PUSH2 0x7B3C JUMP JUMPDEST PUSH1 0x40 MLOAD DUP1 SWAP2 SUB SWAP1 RETURN JUMPDEST CALLVALUE DUP1 ISZERO PUSH2 0x554 JUMPI PUSH0 PUSH0 REVERT JUMPDEST POP PUSH2 0x56F PUSH1 0x4 DUP1 CALLDATASIZE SUB DUP2 ADD SWAP1 PUSH2 0x56A SWAP2 SWAP1 PUSH2 0x7BD4 JUMP JUMPDEST PUSH2 0x143D JUMP JUMPDEST STOP JUMPDEST PUSH2 0x58B PUSH1 0x4 DUP1 CALLDATASIZE SUB DUP2 ADD SWAP1 PUSH2 0x586 SWAP2 SWAP1 PUSH2 0x7D3E JUMP JUMPDEST PUSH2 0x1540 JUMP JUMPDEST STOP JUMPDEST CALLVALUE DUP1 ISZERO PUSH2 0x598 JUMPI PUSH0 PUSH0 REVERT JUMPDEST POP PUSH2 0x5B3 PUSH1 0x4 DUP1 CALLDATASIZE SUB DUP2 ADD SWAP1 PUSH2 0x5AE SWAP2 SWAP1 PUSH2 0x7DAA JUMP JUMPDEST PUSH2 0x2196 JUMP JUMPDEST STOP JUMPDEST CALLVALUE DUP1 ISZERO PUSH2 0x5C0 JUMPI PUSH0 PUSH0 REVERT JUMPDEST POP PUSH2 0x5C9 PUSH2 0x21E0 JUMP JUMPDEST PUSH1 0x40 MLOAD PUSH2 0x5D6 SWAP2 SWAP1 PUSH2 0x7990 JUMP JUMPDEST PUSH1 0x40 MLOAD DUP1 SWAP2 SUB SWAP1 RETURN JUMPDEST CALLVALUE DUP1 ISZERO PUSH2 0x5EA JUMPI PUSH0 PUSH0 REVERT JUMPDEST POP PUSH2 0x605 PUSH1 0x4 DUP1 CALLDATASIZE SUB DUP2 ADD SWAP1 PUSH2 0x600 SWAP2 SWAP1 PUSH2 0x7DD5 JUMP JUMPDEST PUSH2 0x21F5 JUMP JUMPDEST STOP JUMPDEST CALLVALUE DUP1 ISZERO PUSH2 0x612 JUMPI PUSH0 PUSH0 REVERT JUMPDEST POP PUSH2 0x62D PUSH1 0x4 DUP1 CALLDATASIZE SUB DUP2 ADD SWAP1 PUSH2 0x628 SWAP2 SWAP1 PUSH2 0x7B7F JUMP JUMPDEST PUSH2 0x2205 JUMP JUMPDEST PUSH1 0x40 MLOAD PUSH2 0x63A SWAP2 SWAP1 PUSH2 0x7990 JUMP JUMPDEST PUSH1 0x40 MLOAD DUP1 SWAP2 SUB SWAP1 RETURN JUMPDEST CALLVALUE DUP1 ISZERO PUSH2 0x64E JUMPI PUSH0 PUSH0 REVERT JUMPDEST POP PUSH2 0x669 PUSH1 0x4 DUP1 CALLDATASIZE SUB DUP2 ADD SWAP1 PUSH2 0x664 SWAP2 SWAP1 PUSH2 0x7B7F JUMP JUMPDEST PUSH2 0x2275 JUMP JUMPDEST PUSH1 0x40 MLOAD PUSH2 0x676 SWAP2 SWAP1 PUSH2 0x7990 JUMP JUMPDEST PUSH1 0x40 MLOAD DUP1 SWAP2 SUB SWAP1 RETURN JUMPDEST CALLVALUE DUP1 ISZERO PUSH2 0x68A JUMPI PUSH0 PUSH0 REVERT JUMPDEST POP PUSH2 0x6A5 PUSH1 0x4 DUP1 CALLDATASIZE SUB DUP2 ADD SWAP1 PUSH2 0x6A0 SWAP2 SWAP1 PUSH2 0x7E25 JUMP JUMPDEST PUSH2 0x228A JUMP JUMPDEST PUSH1 0x40 MLOAD PUSH2 0x6B2 SWAP2 SWAP1 PUSH2 0x7990 JUMP JUMPDEST PUSH1 0x40 MLOAD DUP1 SWAP2 SUB SWAP1 RETURN JUMPDEST CALLVALUE DUP1 ISZERO PUSH2 0x6C6 JUMPI PUSH0 PUSH0 REVERT JUMPDEST POP PUSH2 0x6E1 PUSH1 0x4 DUP1 CALLDATASIZE SUB DUP2 ADD SWAP1 PUSH2 0x6DC SWAP2 SWAP1 PUSH2 0x7E63 JUMP JUMPDEST PUSH2 0x230C JUMP JUMPDEST PUSH1 0x40 MLOAD PUSH2 0x6EF SWAP3 SWAP2 SWAP1 PUSH2 0x7EA1 JUMP JUMPDEST PUSH1 0x40 MLOAD DUP1 SWAP2 SUB SWAP1 RETURN JUMPDEST CALLVALUE DUP1 ISZERO PUSH2 0x703 JUMPI PUSH0 PUSH0 REVERT JUMPDEST POP PUSH2 0x71E PUSH1 0x4 DUP1 CALLDATASIZE SUB DUP2 ADD SWAP1 PUSH2 0x719 SWAP2 SWAP1 PUSH2 0x7B7F JUMP JUMPDEST PUSH2 0x2348 JUMP JUMPDEST PUSH1 0x40 MLOAD PUSH2 0x72B SWAP2 SWAP1 PUSH2 0x7990 JUMP JUMPDEST PUSH1 0x40 MLOAD DUP1 SWAP2 SUB SWAP1 RETURN JUMPDEST CALLVALUE DUP1 ISZERO PUSH2 0x73F JUMPI PUSH0 PUSH0 REVERT JUMPDEST POP PUSH2 0x75A PUSH1 0x4 DUP1 CALLDATASIZE SUB DUP2 ADD SWAP1 PUSH2 0x755 SWAP2 SWAP1 PUSH2 0x7B7F JUMP JUMPDEST PUSH2 0x23B2 JUMP JUMPDEST PUSH1 0x40 MLOAD PUSH2 0x767 SWAP2 SWAP1 PUSH2 0x7990 JUMP JUMPDEST PUSH1 0x40 MLOAD DUP1 SWAP2 SUB SWAP1 RETURN JUMPDEST CALLVALUE DUP1 ISZERO PUSH2 0x77B JUMPI PUSH0 PUSH0 REVERT JUMPDEST POP PUSH2 0x796 PUSH1 0x4 DUP1 CALLDATASIZE SUB DUP2 ADD SWAP1 PUSH2 0x791 SWAP2 SWAP1 PUSH2 0x7B7F JUMP JUMPDEST PUSH2 0x23C7 JUMP JUMPDEST PUSH1 0x40 MLOAD PUSH2 0x7A3 SWAP2 SWAP1 PUSH2 0x7990 JUMP JUMPDEST PUSH1 0x40 MLOAD DUP1 SWAP2 SUB SWAP1 RETURN JUMPDEST CALLVALUE DUP1 ISZERO PUSH2 0x7B7 JUMPI PUSH0 PUSH0 REVERT JUMPDEST POP PUSH2 0x7D2 PUSH1 0x4 DUP1 CALLDATASIZE SUB DUP2 ADD SWAP1 PUSH2 0x7CD SWAP2 SWAP1 PUSH2 0x7DAA JUMP JUMPDEST PUSH2 0x23DC JUMP JUMPDEST PUSH1 0x40 MLOAD PUSH2 0x7DF SWAP2 SWAP1 PUSH2 0x7990 JUMP JUMPDEST PUSH1 0x40 MLOAD DUP1 SWAP2 SUB SWAP1 RETURN JUMPDEST CALLVALUE DUP1 ISZERO PUSH2 0x7F3 JUMPI PUSH0 PUSH0 REVERT JUMPDEST POP PUSH2 0x7FC PUSH2 0x2433 JUMP JUMPDEST PUSH1 0x40 MLOAD PUSH2 0x809 SWAP2 SWAP1 PUSH2 0x7990 JUMP JUMPDEST PUSH1 0x40 MLOAD DUP1 SWAP2 SUB SWAP1 RETURN JUMPDEST CALLVALUE DUP1 ISZERO PUSH2 0x81D JUMPI PUSH0 PUSH0 REVERT JUMPDEST POP PUSH2 0x826 PUSH2 0x243C JUMP JUMPDEST STOP JUMPDEST CALLVALUE DUP1 ISZERO PUSH2 0x833 JUMPI PUSH0 PUSH0 REVERT JUMPDEST POP PUSH2 0x84E PUSH1 0x4 DUP1 CALLDATASIZE SUB DUP2 ADD SWAP1 PUSH2 0x849 SWAP2 SWAP1 PUSH2 0x7F15 JUMP JUMPDEST PUSH2 0x2602 JUMP JUMPDEST STOP JUMPDEST CALLVALUE DUP1 ISZERO PUSH2 0x85B JUMPI PUSH0 PUSH0 REVERT JUMPDEST POP PUSH2 0x876 PUSH1 0x4 DUP1 CALLDATASIZE SUB DUP2 ADD SWAP1 PUSH2 0x871 SWAP2 SWAP1 PUSH2 0x7DD5 JUMP JUMPDEST PUSH2 0x2870 JUMP JUMPDEST STOP JUMPDEST CALLVALUE DUP1 ISZERO PUSH2 0x883 JUMPI PUSH0 PUSH0 REVERT JUMPDEST POP PUSH2 0x89E PUSH1 0x4 DUP1 CALLDATASIZE SUB DUP2 ADD SWAP1 PUSH2 0x899 SWAP2 SWAP1 PUSH2 0x7B7F JUMP JUMPDEST PUSH2 0x288F JUMP JUMPDEST STOP JUMPDEST CALLVALUE DUP1 ISZERO PUSH2 0x8AB JUMPI PUSH0 PUSH0 REVERT JUMPDEST POP PUSH2 0x8B4 PUSH2 0x289D JUMP JUMPDEST PUSH1 0x40 MLOAD PUSH2 0x8C1 SWAP2 SWAP1 PUSH2 0x7990 JUMP JUMPDEST PUSH1 0x40 MLOAD DUP1 SWAP2 SUB SWAP1 RETURN JUMPDEST CALLVALUE DUP1 ISZERO PUSH2 0x8D5 JUMPI PUSH0 PUSH0 REVERT JUMPDEST POP PUSH2 0x8DE PUSH2 0x28A3 JUMP JUMPDEST STOP JUMPDEST CALLVALUE DUP1 ISZERO PUSH2 0x8EB JUMPI PUSH0 PUSH0 REVERT JUMPDEST POP PUSH2 0x906 PUSH1 0x4 DUP1 CALLDATASIZE SUB DUP2 ADD SWAP1 PUSH2 0x901 SWAP2 SWAP1 PUSH2 0x7B7F JUMP JUMPDEST PUSH2 0x2AC8 JUMP JUMPDEST PUSH1 0x40 MLOAD PUSH2 0x913 SWAP2 SWAP1 PUSH2 0x7A54 JUMP JUMPDEST PUSH1 0x40 MLOAD DUP1 SWAP2 SUB SWAP1 RETURN JUMPDEST CALLVALUE DUP1 ISZERO PUSH2 0x927 JUMPI PUSH0 PUSH0 REVERT JUMPDEST POP PUSH2 0x942 PUSH1 0x4 DUP1 CALLDATASIZE SUB DUP2 ADD SWAP1 PUSH2 0x93D SWAP2 SWAP1 PUSH2 0x7E25 JUMP JUMPDEST PUSH2 0x2AF0 JUMP JUMPDEST PUSH1 0x40 MLOAD PUSH2 0x94F SWAP2 SWAP1 PUSH2 0x7990 JUMP JUMPDEST PUSH1 0x40 MLOAD DUP1 SWAP2 SUB SWAP1 RETURN JUMPDEST CALLVALUE DUP1 ISZERO PUSH2 0x963 JUMPI PUSH0 PUSH0 REVERT JUMPDEST POP PUSH2 0x97E PUSH1 0x4 DUP1 CALLDATASIZE SUB DUP2 ADD SWAP1 PUSH2 0x979 SWAP2 SWAP1 PUSH2 0x7B7F JUMP JUMPDEST PUSH2 0x2B10 JUMP JUMPDEST PUSH1 0x40 MLOAD PUSH2 0x98C SWAP3 SWAP2 SWAP1 PUSH2 0x7F8B JUMP JUMPDEST PUSH1 0x40 MLOAD DUP1 SWAP2 SUB SWAP1 RETURN JUMPDEST CALLVALUE DUP1 ISZERO PUSH2 0x9A0 JUMPI PUSH0 PUSH0 REVERT JUMPDEST POP PUSH2 0x9BB PUSH1 0x4 DUP1 CALLDATASIZE SUB DUP2 ADD SWAP1 PUSH2 0x9B6 SWAP2 SWAP1 PUSH2 0x7FB2 JUMP JUMPDEST PUSH2 0x2C11 JUMP JUMPDEST STOP JUMPDEST CALLVALUE DUP1 ISZERO PUSH2 0x9C8 JUMPI PUSH0 PUSH0 REVERT JUMPDEST POP PUSH2 0x9E3 PUSH1 0x4 DUP1 CALLDATASIZE SUB DUP2 ADD SWAP1 PUSH2 0x9DE SWAP2 SWAP1 PUSH2 0x7BD4 JUMP JUMPDEST PUSH2 0x2CAA JUMP JUMPDEST STOP JUMPDEST CALLVALUE DUP1 ISZERO PUSH2 0x9F0 JUMPI PUSH0 PUSH0 REVERT JUMPDEST POP PUSH2 0xA0B PUSH1 0x4 DUP1 CALLDATASIZE SUB DUP2 ADD SWAP1 PUSH2 0xA06 SWAP2 SWAP1 PUSH2 0x80BD JUMP JUMPDEST PUSH2 0x2CF6 JUMP JUMPDEST STOP JUMPDEST CALLVALUE DUP1 ISZERO PUSH2 0xA18 JUMPI PUSH0 PUSH0 REVERT JUMPDEST POP PUSH2 0xA33 PUSH1 0x4 DUP1 CALLDATASIZE SUB DUP2 ADD SWAP1 PUSH2 0xA2E SWAP2 SWAP1 PUSH2 0x7B7F JUMP JUMPDEST PUSH2 0x2F44 JUMP JUMPDEST PUSH1 0x40 MLOAD PUSH2 0xA40 SWAP2 SWAP1 PUSH2 0x7B3C JUMP JUMPDEST PUSH1 0x40 MLOAD DUP1 SWAP2 SUB SWAP1 RETURN JUMPDEST CALLVALUE DUP1 ISZERO PUSH2 0xA54 JUMPI PUSH0 PUSH0 REVERT JUMPDEST POP PUSH2 0xA5D PUSH2 0x2F58 JUMP JUMPDEST PUSH1 0x40 MLOAD PUSH2 0xA6A SWAP2 SWAP1 PUSH2 0x7990 JUMP JUMPDEST PUSH1 0x40 MLOAD DUP1 SWAP2 SUB SWAP1 RETURN JUMPDEST CALLVALUE DUP1 ISZERO PUSH2 0xA7E JUMPI PUSH0 PUSH0 REVERT JUMPDEST POP PUSH2 0xA87 PUSH2 0x2F64 JUMP JUMPDEST PUSH1 0x40 MLOAD PUSH2 0xA94 SWAP2 SWAP1 PUSH2 0x7ADD JUMP JUMPDEST PUSH1 0x40 MLOAD DUP1 SWAP2 SUB SWAP1 RETURN JUMPDEST CALLVALUE DUP1 ISZERO PUSH2 0xAA8 JUMPI PUSH0 PUSH0 REVERT JUMPDEST POP PUSH2 0xAC3 PUSH1 0x4 DUP1 CALLDATASIZE SUB DUP2 ADD SWAP1 PUSH2 0xABE SWAP2 SWAP1 PUSH2 0x7DAA JUMP JUMPDEST PUSH2 0x2FF0 JUMP JUMPDEST PUSH1 0x40 MLOAD PUSH2 0xAD0 SWAP2 SWAP1 PUSH2 0x7ADD JUMP JUMPDEST PUSH1 0x40 MLOAD DUP1 SWAP2 SUB SWAP1 RETURN JUMPDEST CALLVALUE DUP1 ISZERO PUSH2 0xAE4 JUMPI PUSH0 PUSH0 REVERT JUMPDEST POP PUSH2 0xAFF PUSH1 0x4 DUP1 CALLDATASIZE SUB DUP2 ADD SWAP1 PUSH2 0xAFA SWAP2 SWAP1 PUSH2 0x7DAA JUMP JUMPDEST PUSH2 0x302D JUMP JUMPDEST STOP JUMPDEST CALLVALUE DUP1 ISZERO PUSH2 0xB0C JUMPI PUSH0 PUSH0 REVERT JUMPDEST POP PUSH2 0xB27 PUSH1 0x4 DUP1 CALLDATASIZE SUB DUP2 ADD SWAP1 PUSH2 0xB22 SWAP2 SWAP1 PUSH2 0x7DAA JUMP JUMPDEST PUSH2 0x3077 JUMP JUMPDEST PUSH1 0x40 MLOAD PUSH2 0xB34 SWAP2 SWAP1 PUSH2 0x7990 JUMP JUMPDEST PUSH1 0x40 MLOAD DUP1 SWAP2 SUB SWAP1 RETURN JUMPDEST CALLVALUE DUP1 ISZERO PUSH2 0xB48 JUMPI PUSH0 PUSH0 REVERT JUMPDEST POP PUSH2 0xB63 PUSH1 0x4 DUP1 CALLDATASIZE SUB DUP2 ADD SWAP1 PUSH2 0xB5E SWAP2 SWAP1 PUSH2 0x7B7F JUMP JUMPDEST PUSH2 0x3141 JUMP JUMPDEST PUSH1 0x40 MLOAD PUSH2 0xB70 SWAP2 SWAP1 PUSH2 0x7A54 JUMP JUMPDEST PUSH1 0x40 MLOAD DUP1 SWAP2 SUB SWAP1 RETURN JUMPDEST PUSH2 0xB93 PUSH1 0x4 DUP1 CALLDATASIZE SUB DUP2 ADD SWAP1 PUSH2 0xB8E SWAP2 SWAP1 PUSH2 0x8201 JUMP JUMPDEST PUSH2 0x315E JUMP JUMPDEST STOP JUMPDEST CALLVALUE DUP1 ISZERO PUSH2 0xBA0 JUMPI PUSH0 PUSH0 REVERT JUMPDEST POP PUSH2 0xBBB PUSH1 0x4 DUP1 CALLDATASIZE SUB DUP2 ADD SWAP1 PUSH2 0xBB6 SWAP2 SWAP1 PUSH2 0x7DAA JUMP JUMPDEST PUSH2 0x32A9 JUMP JUMPDEST PUSH1 0x40 MLOAD PUSH2 0xBC8 SWAP2 SWAP1 PUSH2 0x7990 JUMP JUMPDEST PUSH1 0x40 MLOAD DUP1 SWAP2 SUB SWAP1 RETURN JUMPDEST CALLVALUE DUP1 ISZERO PUSH2 0xBDC JUMPI PUSH0 PUSH0 REVERT JUMPDEST POP PUSH2 0xBF7 PUSH1 0x4 DUP1 CALLDATASIZE SUB DUP2 ADD SWAP1 PUSH2 0xBF2 SWAP2 SWAP1 PUSH2 0x7DAA JUMP JUMPDEST PUSH2 0x32BE JUMP JUMPDEST STOP JUMPDEST CALLVALUE DUP1 ISZERO PUSH2 0xC04 JUMPI PUSH0 PUSH0 REVERT JUMPDEST POP PUSH2 0xC0D PUSH2 0x3556 JUMP JUMPDEST PUSH1 0x40 MLOAD PUSH2 0xC1A SWAP2 SWAP1 PUSH2 0x7B3C JUMP JUMPDEST PUSH1 0x40 MLOAD DUP1 SWAP2 SUB SWAP1 RETURN JUMPDEST CALLVALUE DUP1 ISZERO PUSH2 0xC2E JUMPI PUSH0 PUSH0 REVERT JUMPDEST POP PUSH2 0xC37 PUSH2 0x357E JUMP JUMPDEST PUSH1 0x40 MLOAD PUSH2 0xC44 SWAP2 SWAP1 PUSH2 0x7990 JUMP JUMPDEST PUSH1 0x40 MLOAD DUP1 SWAP2 SUB SWAP1 RETURN JUMPDEST CALLVALUE DUP1 ISZERO PUSH2 0xC58 JUMPI PUSH0 PUSH0 REVERT JUMPDEST POP PUSH2 0xC73 PUSH1 0x4 DUP1 CALLDATASIZE SUB DUP2 ADD SWAP1 PUSH2 0xC6E SWAP2 SWAP1 PUSH2 0x7FB2 JUMP JUMPDEST PUSH2 0x3584 JUMP JUMPDEST STOP JUMPDEST CALLVALUE DUP1 ISZERO PUSH2 0xC80 JUMPI PUSH0 PUSH0 REVERT JUMPDEST POP PUSH2 0xC89 PUSH2 0x35CE JUMP JUMPDEST PUSH1 0x40 MLOAD PUSH2 0xC96 SWAP2 SWAP1 PUSH2 0x7ADD JUMP JUMPDEST PUSH1 0x40 MLOAD DUP1 SWAP2 SUB SWAP1 RETURN JUMPDEST CALLVALUE DUP1 ISZERO PUSH2 0xCAA JUMPI PUSH0 PUSH0 REVERT JUMPDEST POP PUSH2 0xCC5 PUSH1 0x4 DUP1 CALLDATASIZE SUB DUP2 ADD SWAP1 PUSH2 0xCC0 SWAP2 SWAP1 PUSH2 0x7DAA JUMP JUMPDEST PUSH2 0x365E JUMP JUMPDEST PUSH1 0x40 MLOAD PUSH2 0xCD2 SWAP2 SWAP1 PUSH2 0x7ADD JUMP JUMPDEST PUSH1 0x40 MLOAD DUP1 SWAP2 SUB SWAP1 RETURN JUMPDEST CALLVALUE DUP1 ISZERO PUSH2 0xCE6 JUMPI PUSH0 PUSH0 REVERT JUMPDEST POP PUSH2 0xD01 PUSH1 0x4 DUP1 CALLDATASIZE SUB DUP2 ADD SWAP1 PUSH2 0xCFC SWAP2 SWAP1 PUSH2 0x82C2 JUMP JUMPDEST PUSH2 0x36F9 JUMP JUMPDEST STOP JUMPDEST CALLVALUE DUP1 ISZERO PUSH2 0xD0E JUMPI PUSH0 PUSH0 REVERT JUMPDEST POP PUSH2 0xD29 PUSH1 0x4 DUP1 CALLDATASIZE SUB DUP2 ADD SWAP1 PUSH2 0xD24 SWAP2 SWAP1 PUSH2 0x836B JUMP JUMPDEST PUSH2 0x3747 JUMP JUMPDEST PUSH1 0x40 MLOAD PUSH2 0xD36 SWAP2 SWAP1 PUSH2 0x7ADD JUMP JUMPDEST PUSH1 0x40 MLOAD DUP1 SWAP2 SUB SWAP1 RETURN JUMPDEST CALLVALUE DUP1 ISZERO PUSH2 0xD4A JUMPI PUSH0 PUSH0 REVERT JUMPDEST POP PUSH2 0xD65 PUSH1 0x4 DUP1 CALLDATASIZE SUB DUP2 ADD SWAP1 PUSH2 0xD60 SWAP2 SWAP1 PUSH2 0x7B7F JUMP JUMPDEST PUSH2 0x38ED JUMP JUMPDEST PUSH1 0x40 MLOAD PUSH2 0xD72 SWAP2 SWAP1 PUSH2 0x841A JUMP JUMPDEST PUSH1 0x40 MLOAD DUP1 SWAP2 SUB SWAP1 RETURN JUMPDEST CALLVALUE DUP1 ISZERO PUSH2 0xD86 JUMPI PUSH0 PUSH0 REVERT JUMPDEST POP PUSH2 0xDA1 PUSH1 0x4 DUP1 CALLDATASIZE SUB DUP2 ADD SWAP1 PUSH2 0xD9C SWAP2 SWAP1 PUSH2 0x843A JUMP JUMPDEST PUSH2 0x3988 JUMP JUMPDEST STOP JUMPDEST CALLVALUE DUP1 ISZERO PUSH2 0xDAE JUMPI PUSH0 PUSH0 REVERT JUMPDEST POP PUSH2 0xDB7 PUSH2 0x3AFA JUMP JUMPDEST PUSH1 0x40 MLOAD PUSH2 0xDC4 SWAP2 SWAP1 PUSH2 0x7990 JUMP JUMPDEST PUSH1 0x40 MLOAD DUP1 SWAP2 SUB SWAP1 RETURN JUMPDEST CALLVALUE DUP1 ISZERO PUSH2 0xDD8 JUMPI PUSH0 PUSH0 REVERT JUMPDEST POP PUSH2 0xDF3 PUSH1 0x4 DUP1 CALLDATASIZE SUB DUP2 ADD SWAP1 PUSH2 0xDEE SWAP2 SWAP1 PUSH2 0x84CD JUMP JUMPDEST PUSH2 0x3B00 JUMP JUMPDEST PUSH1 0x40 MLOAD PUSH2 0xE00 SWAP2 SWAP1 PUSH2 0x861B JUMP JUMPDEST PUSH1 0x40 MLOAD DUP1 SWAP2 SUB SWAP1 RETURN JUMPDEST CALLVALUE DUP1 ISZERO PUSH2 0xE14 JUMPI PUSH0 PUSH0 REVERT JUMPDEST POP PUSH2 0xE1D PUSH2 0x3CC1 JUMP JUMPDEST PUSH1 0x40 MLOAD PUSH2 0xE2A SWAP2 SWAP1 PUSH2 0x7990 JUMP JUMPDEST PUSH1 0x40 MLOAD DUP1 SWAP2 SUB SWAP1 RETURN JUMPDEST CALLVALUE DUP1 ISZERO PUSH2 0xE3E JUMPI PUSH0 PUSH0 REVERT JUMPDEST POP PUSH2 0xE47 PUSH2 0x3CC9 JUMP JUMPDEST PUSH1 0x40 MLOAD PUSH2 0xE55 SWAP3 SWAP2 SWAP1 PUSH2 0x7F8B JUMP JUMPDEST PUSH1 0x40 MLOAD DUP1 SWAP2 SUB SWAP1 RETURN JUMPDEST CALLVALUE DUP1 ISZERO PUSH2 0xE69 JUMPI PUSH0 PUSH0 REVERT JUMPDEST POP PUSH2 0xE84 PUSH1 0x4 DUP1 CALLDATASIZE SUB DUP2 ADD SWAP1 PUSH2 0xE7F SWAP2 SWAP1 PUSH2 0x863B JUMP JUMPDEST PUSH2 0x3D06 JUMP JUMPDEST STOP JUMPDEST CALLVALUE DUP1 ISZERO PUSH2 0xE91 JUMPI PUSH0 PUSH0 REVERT JUMPDEST POP PUSH2 0xEAC PUSH1 0x4 DUP1 CALLDATASIZE SUB DUP2 ADD SWAP1 PUSH2 0xEA7 SWAP2 SWAP1 PUSH2 0x86BB JUMP JUMPDEST PUSH2 0x3D7E JUMP JUMPDEST STOP JUMPDEST CALLVALUE DUP1 ISZERO PUSH2 0xEB9 JUMPI PUSH0 PUSH0 REVERT JUMPDEST POP PUSH2 0xED4 PUSH1 0x4 DUP1 CALLDATASIZE SUB DUP2 ADD SWAP1 PUSH2 0xECF SWAP2 SWAP1 PUSH2 0x7B7F JUMP JUMPDEST PUSH2 0x3EE0 JUMP JUMPDEST PUSH1 0x40 MLOAD PUSH2 0xEE1 SWAP2 SWAP1 PUSH2 0x7ADD JUMP JUMPDEST PUSH1 0x40 MLOAD DUP1 SWAP2 SUB SWAP1 RETURN JUMPDEST CALLVALUE DUP1 ISZERO PUSH2 0xEF5 JUMPI PUSH0 PUSH0 REVERT JUMPDEST POP PUSH2 0xF10 PUSH1 0x4 DUP1 CALLDATASIZE SUB DUP2 ADD SWAP1 PUSH2 0xF0B SWAP2 SWAP1 PUSH2 0x836B JUMP JUMPDEST PUSH2 0x3F63 JUMP JUMPDEST PUSH1 0x40 MLOAD PUSH2 0xF1D SWAP2 SWAP1 PUSH2 0x7ADD JUMP JUMPDEST PUSH1 0x40 MLOAD DUP1 SWAP2 SUB SWAP1 RETURN JUMPDEST CALLVALUE DUP1 ISZERO PUSH2 0xF31 JUMPI PUSH0 PUSH0 REVERT JUMPDEST POP PUSH2 0xF4C PUSH1 0x4 DUP1 CALLDATASIZE SUB DUP2 ADD SWAP1 PUSH2 0xF47 SWAP2 SWAP1 PUSH2 0x7DAA JUMP JUMPDEST PUSH2 0x4027 JUMP JUMPDEST PUSH1 0x40 MLOAD PUSH2 0xF59 SWAP2 SWAP1 PUSH2 0x7990 JUMP JUMPDEST PUSH1 0x40 MLOAD DUP1 SWAP2 SUB SWAP1 RETURN JUMPDEST CALLVALUE DUP1 ISZERO PUSH2 0xF6D JUMPI PUSH0 PUSH0 REVERT JUMPDEST POP PUSH2 0xF88 PUSH1 0x4 DUP1 CALLDATASIZE SUB DUP2 ADD SWAP1 PUSH2 0xF83 SWAP2 SWAP1 PUSH2 0x8786 JUMP JUMPDEST PUSH2 0x45CD JUMP JUMPDEST PUSH1 0x40 MLOAD PUSH2 0xF95 SWAP2 SWAP1 PUSH2 0x7990 JUMP JUMPDEST PUSH1 0x40 MLOAD DUP1 SWAP2 SUB SWAP1 RETURN JUMPDEST CALLVALUE DUP1 ISZERO PUSH2 0xFA9 JUMPI PUSH0 PUSH0 REVERT JUMPDEST POP PUSH2 0xFC4 PUSH1 0x4 DUP1 CALLDATASIZE SUB DUP2 ADD SWAP1 PUSH2 0xFBF SWAP2 SWAP1 PUSH2 0x7DAA JUMP JUMPDEST PUSH2 0x467A JUMP JUMPDEST PUSH1 0x40 MLOAD PUSH2 0xFD1 SWAP2 SWAP1 PUSH2 0x88CE JUMP JUMPDEST PUSH1 0x40 MLOAD DUP1 SWAP2 SUB SWAP1 RETURN JUMPDEST CALLVALUE DUP1 ISZERO PUSH2 0xFE5 JUMPI PUSH0 PUSH0 REVERT JUMPDEST POP PUSH2 0xFEE PUSH2 0x46C8 JUMP JUMPDEST PUSH1 0x40 MLOAD PUSH2 0x1002 SWAP9 SWAP8 SWAP7 SWAP6 SWAP5 SWAP4 SWAP3 SWAP2 SWAP1 PUSH2 0x8906 JUMP JUMPDEST PUSH1 0x40 MLOAD DUP1 SWAP2 SUB SWAP1 RETURN JUMPDEST CALLVALUE DUP1 ISZERO PUSH2 0x1016 JUMPI PUSH0 PUSH0 REVERT JUMPDEST POP PUSH2 0x101F PUSH2 0x47A2 JUMP JUMPDEST PUSH1 0x40 MLOAD PUSH2 0x102C SWAP2 SWAP1 PUSH2 0x7990 JUMP JUMPDEST PUSH1 0x40 MLOAD DUP1 SWAP2 SUB SWAP1 RETURN JUMPDEST CALLVALUE DUP1 ISZERO PUSH2 0x1040 JUMPI PUSH0 PUSH0 REVERT JUMPDEST POP PUSH2 0x105B PUSH1 0x4 DUP1 CALLDATASIZE SUB DUP2 ADD SWAP1 PUSH2 0x1056 SWAP2 SWAP1 PUSH2 0x7FB2 JUMP JUMPDEST PUSH2 0x47A8 JUMP JUMPDEST PUSH1 0x40 MLOAD PUSH2 0x1068 SWAP2 SWAP1 PUSH2 0x7B3C JUMP JUMPDEST PUSH1 0x40 MLOAD DUP1 SWAP2 SUB SWAP1 RETURN JUMPDEST CALLVALUE DUP1 ISZERO PUSH2 0x107C JUMPI PUSH0 PUSH0 REVERT JUMPDEST POP PUSH2 0x1085 PUSH2 0x47F0 JUMP JUMPDEST PUSH1 0x40 MLOAD PUSH2 0x1092 SWAP2 SWAP1 PUSH2 0x7990 JUMP JUMPDEST PUSH1 0x40 MLOAD DUP1 SWAP2 SUB SWAP1 RETURN JUMPDEST CALLVALUE DUP1 ISZERO PUSH2 0x10A6 JUMPI PUSH0 PUSH0 REVERT JUMPDEST POP PUSH2 0x10C1 PUSH1 0x4 DUP1 CALLDATASIZE SUB DUP2 ADD SWAP1 PUSH2 0x10BC SWAP2 SWAP1 PUSH2 0x7B7F JUMP JUMPDEST PUSH2 0x47F6 JUMP JUMPDEST STOP JUMPDEST CALLVALUE DUP1 ISZERO PUSH2 0x10CE JUMPI PUSH0 PUSH0 REVERT JUMPDEST POP PUSH2 0x10E9 PUSH1 0x4 DUP1 CALLDATASIZE SUB DUP2 ADD SWAP1 PUSH2 0x10E4 SWAP2 SWAP1 PUSH2 0x8989 JUMP JUMPDEST PUSH2 0x48BD JUMP JUMPDEST PUSH1 0x40 MLOAD PUSH2 0x10F6 SWAP2 SWAP1 PUSH2 0x841A JUMP JUMPDEST PUSH1 0x40 MLOAD DUP1 SWAP2 SUB SWAP1 RETURN JUMPDEST CALLVALUE DUP1 ISZERO PUSH2 0x110A JUMPI PUSH0 PUSH0 REVERT JUMPDEST POP PUSH2 0x1113 PUSH2 0x4946 JUMP JUMPDEST PUSH1 0x40 MLOAD PUSH2 0x1120 SWAP2 SWAP1 PUSH2 0x7ADD JUMP JUMPDEST PUSH1 0x40 MLOAD DUP1 SWAP2 SUB SWAP1 RETURN JUMPDEST CALLVALUE DUP1 ISZERO PUSH2 0x1134 JUMPI PUSH0 PUSH0 REVERT JUMPDEST POP PUSH2 0x114F PUSH1 0x4 DUP1 CALLDATASIZE SUB DUP2 ADD SWAP1 PUSH2 0x114A SWAP2 SWAP1 PUSH2 0x7E25 JUMP JUMPDEST PUSH2 0x49D2 JUMP JUMPDEST PUSH1 0x40 MLOAD PUSH2 0x115C SWAP2 SWAP1 PUSH2 0x7A54 JUMP JUMPDEST PUSH1 0x40 MLOAD DUP1 SWAP2 SUB SWAP1 RETURN JUMPDEST CALLVALUE DUP1 ISZERO PUSH2 0x1170 JUMPI PUSH0 PUSH0 REVERT JUMPDEST POP PUSH2 0x118B PUSH1 0x4 DUP1 CALLDATASIZE SUB DUP2 ADD SWAP1 PUSH2 0x1186 SWAP2 SWAP1 PUSH2 0x8A02 JUMP JUMPDEST PUSH2 0x4A60 JUMP JUMPDEST PUSH1 0x40 MLOAD PUSH2 0x1198 SWAP2 SWAP1 PUSH2 0x7A54 JUMP JUMPDEST PUSH1 0x40 MLOAD DUP1 SWAP2 SUB SWAP1 RETURN JUMPDEST CALLVALUE DUP1 ISZERO PUSH2 0x11AC JUMPI PUSH0 PUSH0 REVERT JUMPDEST POP PUSH2 0x11C7 PUSH1 0x4 DUP1 CALLDATASIZE SUB DUP2 ADD SWAP1 PUSH2 0x11C2 SWAP2 SWAP1 PUSH2 0x7DAA JUMP JUMPDEST PUSH2 0x4F0F JUMP JUMPDEST PUSH1 0x40 MLOAD PUSH2 0x11D4 SWAP2 SWAP1 PUSH2 0x7990 JUMP JUMPDEST PUSH1 0x40 MLOAD DUP1 SWAP2 SUB SWAP1 RETURN JUMPDEST CALLVALUE DUP1 ISZERO PUSH2 0x11E8 JUMPI PUSH0 PUSH0 REVERT JUMPDEST POP PUSH2 0x1203 PUSH1 0x4 DUP1 CALLDATASIZE SUB DUP2 ADD SWAP1 PUSH2 0x11FE SWAP2 SWAP1 PUSH2 0x7B7F JUMP JUMPDEST PUSH2 0x4F24 JUMP JUMPDEST STOP JUMPDEST PUSH0 PUSH1 0x21 SLOAD SWAP1 POP SWAP1 JUMP JUMPDEST PUSH0 PUSH4 0x1FFC9A7 PUSH1 0xE0 SHL DUP3 PUSH28 0xFFFFFFFFFFFFFFFFFFFFFFFFFFFFFFFFFFFFFFFFFFFFFFFFFFFFFFFF NOT AND EQ DUP1 PUSH2 0x1268 JUMPI POP PUSH4 0x80AC58CD PUSH1 0xE0 SHL DUP3 PUSH28 0xFFFFFFFFFFFFFFFFFFFFFFFFFFFFFFFFFFFFFFFFFFFFFFFFFFFFFFFF NOT AND EQ JUMPDEST DUP1 PUSH2 0x1298 JUMPI POP PUSH4 0x5B5E139F PUSH1 0xE0 SHL DUP3 PUSH28 0xFFFFFFFFFFFFFFFFFFFFFFFFFFFFFFFFFFFFFFFFFFFFFFFFFFFFFFFF NOT AND EQ JUMPDEST DUP1 PUSH2 0x1300 JUMPI POP PUSH32 0x2A55205A00000000000000000000000000000000000000000000000000000000 PUSH28 0xFFFFFFFFFFFFFFFFFFFFFFFFFFFFFFFFFFFFFFFFFFFFFFFFFFFFFFFF NOT AND DUP3 PUSH28 0xFFFFFFFFFFFFFFFFFFFFFFFFFFFFFFFFFFFFFFFFFFFFFFFFFFFFFFFF NOT AND EQ JUMPDEST SWAP1 POP SWAP2 SWAP1 POP JUMP JUMPDEST PUSH1 0x60 PUSH1 0x2 DUP1 SLOAD PUSH2 0x1316 SWAP1 PUSH2 0x8AC2 JUMP JUMPDEST DUP1 PUSH1 0x1F ADD PUSH1 0x20 DUP1 SWAP2 DIV MUL PUSH1 0x20 ADD PUSH1 0x40 MLOAD SWAP1 DUP2 ADD PUSH1 0x40 MSTORE DUP1 SWAP3 SWAP2 SWAP1 DUP2 DUP2 MSTORE PUSH1 0x20 ADD DUP3 DUP1 SLOAD PUSH2 0x1342 SWAP1 PUSH2 0x8AC2 JUMP JUMPDEST DUP1 ISZERO PUSH2 0x138D JUMPI DUP1 PUSH1 0x1F LT PUSH2 0x1364 JUMPI PUSH2 0x100 DUP1 DUP4 SLOAD DIV MUL DUP4 MSTORE SWAP2 PUSH1 0x20 ADD SWAP2 PUSH2 0x138D JUMP JUMPDEST DUP3 ADD SWAP2 SWAP1 PUSH0 MSTORE PUSH1 0x20 PUSH0 KECCAK256 SWAP1 JUMPDEST DUP2 SLOAD DUP2 MSTORE SWAP1 PUSH1 0x1 ADD SWAP1 PUSH1 0x20 ADD DUP1 DUP4 GT PUSH2 0x1370 JUMPI DUP3 SWAP1 SUB PUSH1 0x1F AND DUP3 ADD SWAP2 JUMPDEST POP POP POP POP POP SWAP1 POP SWAP1 JUMP JUMPDEST PUSH0 PUSH1 0xF PUSH0 SWAP1 SLOAD SWAP1 PUSH2 0x100 EXP SWAP1 DIV PUSH20 0xFFFFFFFFFFFFFFFFFFFFFFFFFFFFFFFFFFFFFFFF AND SWAP1 POP SWAP1 JUMP JUMPDEST PUSH1 0x1E SLOAD DUP2 JUMP JUMPDEST PUSH0 PUSH2 0x13CF DUP3 PUSH2 0x5030 JUMP JUMPDEST PUSH2 0x1405 JUMPI PUSH1 0x40 MLOAD PUSH32 0xCF4700E400000000000000000000000000000000000000000000000000000000 DUP2 MSTORE PUSH1 0x4 ADD PUSH1 0x40 MLOAD DUP1 SWAP2 SUB SWAP1 REVERT JUMPDEST PUSH1 0x6 PUSH0 DUP4 DUP2 MSTORE PUSH1 0x20 ADD SWAP1 DUP2 MSTORE PUSH1 0x20 ADD PUSH0 KECCAK256 PUSH0 SWAP1 SLOAD SWAP1 PUSH2 0x100 EXP SWAP1 DIV PUSH20 0xFFFFFFFFFFFFFFFFFFFFFFFFFFFFFFFFFFFFFFFF AND SWAP1 POP SWAP2 SWAP1 POP JUMP JUMPDEST PUSH0 PUSH2 0x1447 DUP3 PUSH2 0x2F44 JUMP JUMPDEST SWAP1 POP DUP1 PUSH20 0xFFFFFFFFFFFFFFFFFFFFFFFFFFFFFFFFFFFFFFFF AND DUP4 PUSH20 0xFFFFFFFFFFFFFFFFFFFFFFFFFFFFFFFFFFFFFFFF AND SUB PUSH2 0x14AE JUMPI PUSH1 0x40 MLOAD PUSH32 0x943F7B8C00000000000000000000000000000000000000000000000000000000 DUP2 MSTORE PUSH1 0x4 ADD PUSH1 0x40 MLOAD DUP1 SWAP2 SUB SWAP1 REVERT JUMPDEST DUP1 PUSH20 0xFFFFFFFFFFFFFFFFFFFFFFFFFFFFFFFFFFFFFFFF AND PUSH2 0x14CD PUSH2 0x5079 JUMP JUMPDEST PUSH20 0xFFFFFFFFFFFFFFFFFFFFFFFFFFFFFFFFFFFFFFFF AND EQ PUSH2 0x1530 JUMPI PUSH2 0x14F9 DUP2 PUSH2 0x14F4 PUSH2 0x5079 JUMP JUMPDEST PUSH2 0x49D2 JUMP JUMPDEST PUSH2 0x152F JUMPI PUSH1 0x40 MLOAD PUSH32 0xCFB3B94200000000000000000000000000000000000000000000000000000000 DUP2 MSTORE PUSH1 0x4 ADD PUSH1 0x40 MLOAD DUP1 SWAP2 SUB SWAP1 REVERT JUMPDEST JUMPDEST PUSH2 0x153B DUP4 DUP4 DUP4 PUSH2 0x5080 JUMP JUMPDEST POP POP POP JUMP JUMPDEST PUSH2 0x1548 PUSH2 0x512F JUMP JUMPDEST PUSH0 DUP4 GT PUSH2 0x158A JUMPI PUSH1 0x40 MLOAD PUSH32 0x8C379A000000000000000000000000000000000000000000000000000000000 DUP2 MSTORE PUSH1 0x4 ADD PUSH2 0x1581 SWAP1 PUSH2 0x8B3C JUMP JUMPDEST PUSH1 0x40 MLOAD DUP1 SWAP2 SUB SWAP1 REVERT JUMPDEST PUSH1 0x1F SLOAD DUP4 PUSH1 0x26 PUSH0 CALLER PUSH20 0xFFFFFFFFFFFFFFFFFFFFFFFFFFFFFFFFFFFFFFFF AND PUSH20 0xFFFFFFFFFFFFFFFFFFFFFFFFFFFFFFFFFFFFFFFF AND DUP2 MSTORE PUSH1 0x20 ADD SWAP1 DUP2 MSTORE PUSH1 0x20 ADD PUSH0 KECCAK256 SLOAD PUSH2 0x15D6 SWAP2 SWAP1 PUSH2 0x8B87 JUMP JUMPDEST GT ISZERO PUSH2 0x1617 JUMPI PUSH1 0x40 MLOAD PUSH32 0x8C379A000000000000000000000000000000000000000000000000000000000 DUP2 MSTORE PUSH1 0x4 ADD PUSH2 0x160E SWAP1 PUSH2 0x8C04 JUMP JUMPDEST PUSH1 0x40 MLOAD DUP1 SWAP2 SUB SWAP1 REVERT JUMPDEST PUSH1 0x1D SLOAD DUP4 PUSH1 0x21 SLOAD PUSH2 0x1628 SWAP2 SWAP1 PUSH2 0x8B87 JUMP JUMPDEST GT ISZERO PUSH2 0x1669 JUMPI PUSH1 0x40 MLOAD PUSH32 0x8C379A000000000000000000000000000000000000000000000000000000000 DUP2 MSTORE PUSH1 0x4 ADD PUSH2 0x1660 SWAP1 PUSH2 0x8C6C JUMP JUMPDEST PUSH1 0x40 MLOAD DUP1 SWAP2 SUB SWAP1 REVERT JUMPDEST PUSH1 0x6 PUSH1 0x2B PUSH0 CALLER PUSH20 0xFFFFFFFFFFFFFFFFFFFFFFFFFFFFFFFFFFFFFFFF AND PUSH20 0xFFFFFFFFFFFFFFFFFFFFFFFFFFFFFFFFFFFFFFFF AND DUP2 MSTORE PUSH1 0x20 ADD SWAP1 DUP2 MSTORE PUSH1 0x20 ADD PUSH0 KECCAK256 SLOAD PUSH2 0x16B3 SWAP2 SWAP1 PUSH2 0x8B87 JUMP JUMPDEST NUMBER GT PUSH2 0x16F4 JUMPI PUSH1 0x40 MLOAD PUSH32 0x8C379A000000000000000000000000000000000000000000000000000000000 DUP2 MSTORE PUSH1 0x4 ADD PUSH2 0x16EB SWAP1 PUSH2 0x8CFA JUMP JUMPDEST PUSH1 0x40 MLOAD DUP1 SWAP2 SUB SWAP1 REVERT JUMPDEST PUSH0 PUSH0 SWAP1 POP PUSH0 DUP5 SWAP1 POP PUSH0 PUSH0 SWAP1 POP PUSH0 PUSH0 DUP7 MLOAD GT ISZERO PUSH2 0x19E0 JUMPI PUSH1 0x29 DUP7 PUSH1 0x40 MLOAD PUSH2 0x171A SWAP2 SWAP1 PUSH2 0x8D52 JUMP JUMPDEST SWAP1 DUP2 MSTORE PUSH1 0x20 ADD PUSH1 0x40 MLOAD DUP1 SWAP2 SUB SWAP1 KECCAK256 PUSH0 SWAP1 SLOAD SWAP1 PUSH2 0x100 EXP SWAP1 DIV PUSH20 0xFFFFFFFFFFFFFFFFFFFFFFFFFFFFFFFFFFFFFFFF AND SWAP1 POP PUSH0 PUSH20 0xFFFFFFFFFFFFFFFFFFFFFFFFFFFFFFFFFFFFFFFF AND DUP2 PUSH20 0xFFFFFFFFFFFFFFFFFFFFFFFFFFFFFFFFFFFFFFFF AND SUB PUSH2 0x17B8 JUMPI PUSH1 0x40 MLOAD PUSH32 0x8C379A000000000000000000000000000000000000000000000000000000000 DUP2 MSTORE PUSH1 0x4 ADD PUSH2 0x17AF SWAP1 PUSH2 0x8DB2 JUMP JUMPDEST PUSH1 0x40 MLOAD DUP1 SWAP2 SUB SWAP1 REVERT JUMPDEST CALLER PUSH20 0xFFFFFFFFFFFFFFFFFFFFFFFFFFFFFFFFFFFFFFFF AND DUP2 PUSH20 0xFFFFFFFFFFFFFFFFFFFFFFFFFFFFFFFFFFFFFFFF AND SUB PUSH2 0x1826 JUMPI PUSH1 0x40 MLOAD PUSH32 0x8C379A000000000000000000000000000000000000000000000000000000000 DUP2 MSTORE PUSH1 0x4 ADD PUSH2 0x181D SWAP1 PUSH2 0x8E1A JUMP JUMPDEST PUSH1 0x40 MLOAD DUP1 SWAP2 SUB SWAP1 REVERT JUMPDEST PUSH2 0x1875 CALLER PUSH1 0x2A PUSH0 DUP5 PUSH20 0xFFFFFFFFFFFFFFFFFFFFFFFFFFFFFFFFFFFFFFFF AND PUSH20 0xFFFFFFFFFFFFFFFFFFFFFFFFFFFFFFFFFFFFFFFF AND DUP2 MSTORE PUSH1 0x20 ADD SWAP1 DUP2 MSTORE PUSH1 0x20 ADD PUSH0 KECCAK256 PUSH2 0x517E SWAP1 SWAP2 SWAP1 PUSH4 0xFFFFFFFF AND JUMP JUMPDEST POP JUMPDEST PUSH0 DUP4 GT ISZERO PUSH2 0x19DB JUMPI PUSH0 PUSH2 0x1889 DUP7 PUSH2 0x4027 JUMP JUMPDEST SWAP1 POP PUSH0 PUSH1 0xD PUSH1 0x20 SLOAD GT ISZERO PUSH2 0x189E JUMPI PUSH1 0xA PUSH2 0x18A1 JUMP JUMPDEST PUSH1 0x14 JUMPDEST PUSH1 0xFF AND SWAP1 POP PUSH0 PUSH1 0x64 PUSH1 0x5 DUP5 PUSH2 0x18B6 SWAP2 SWAP1 PUSH2 0x8E38 JUMP JUMPDEST PUSH2 0x18C0 SWAP2 SWAP1 PUSH2 0x8EA6 JUMP JUMPDEST SWAP1 POP PUSH0 PUSH1 0x64 DUP4 DUP6 PUSH2 0x18D1 SWAP2 SWAP1 PUSH2 0x8E38 JUMP JUMPDEST PUSH2 0x18DB SWAP2 SWAP1 PUSH2 0x8EA6 JUMP JUMPDEST SWAP1 POP PUSH0 PUSH1 0x22 SLOAD PUSH1 0x25 PUSH0 PUSH1 0x20 SLOAD DUP2 MSTORE PUSH1 0x20 ADD SWAP1 DUP2 MSTORE PUSH1 0x20 ADD PUSH0 KECCAK256 SLOAD PUSH2 0x18FF SWAP2 SWAP1 PUSH2 0x8ED6 JUMP JUMPDEST SWAP1 POP DUP1 DUP9 GT PUSH2 0x1965 JUMPI DUP8 DUP4 DUP7 PUSH2 0x1915 SWAP2 SWAP1 PUSH2 0x8ED6 JUMP JUMPDEST PUSH2 0x191F SWAP2 SWAP1 PUSH2 0x8E38 JUMP JUMPDEST DUP10 PUSH2 0x192A SWAP2 SWAP1 PUSH2 0x8B87 JUMP JUMPDEST SWAP9 POP DUP8 DUP3 PUSH2 0x1938 SWAP2 SWAP1 PUSH2 0x8E38 JUMP JUMPDEST DUP8 PUSH2 0x1943 SWAP2 SWAP1 PUSH2 0x8B87 JUMP JUMPDEST SWAP7 POP DUP8 PUSH1 0x22 PUSH0 DUP3 DUP3 SLOAD PUSH2 0x1956 SWAP2 SWAP1 PUSH2 0x8B87 JUMP JUMPDEST SWAP3 POP POP DUP2 SWAP1 SSTORE POP PUSH0 SWAP8 POP PUSH2 0x19D1 JUMP JUMPDEST DUP1 DUP4 DUP7 PUSH2 0x1972 SWAP2 SWAP1 PUSH2 0x8ED6 JUMP JUMPDEST PUSH2 0x197C SWAP2 SWAP1 PUSH2 0x8E38 JUMP JUMPDEST DUP10 PUSH2 0x1987 SWAP2 SWAP1 PUSH2 0x8B87 JUMP JUMPDEST SWAP9 POP DUP1 DUP3 PUSH2 0x1995 SWAP2 SWAP1 PUSH2 0x8E38 JUMP JUMPDEST DUP8 PUSH2 0x19A0 SWAP2 SWAP1 PUSH2 0x8B87 JUMP JUMPDEST SWAP7 POP DUP1 PUSH1 0x21 PUSH0 DUP3 DUP3 SLOAD PUSH2 0x19B3 SWAP2 SWAP1 PUSH2 0x8B87 JUMP JUMPDEST SWAP3 POP POP DUP2 SWAP1 SSTORE POP DUP1 DUP9 PUSH2 0x19C6 SWAP2 SWAP1 PUSH2 0x8ED6 JUMP JUMPDEST SWAP8 POP PUSH2 0x19D0 PUSH2 0x51AB JUMP JUMPDEST JUMPDEST POP POP POP POP POP PUSH2 0x1877 JUMP JUMPDEST PUSH2 0x1A91 JUMP JUMPDEST JUMPDEST PUSH0 DUP4 GT ISZERO PUSH2 0x1A90 JUMPI PUSH0 PUSH2 0x19F3 DUP7 PUSH2 0x4027 JUMP JUMPDEST SWAP1 POP PUSH0 PUSH1 0x22 SLOAD PUSH1 0x25 PUSH0 PUSH1 0x20 SLOAD DUP2 MSTORE PUSH1 0x20 ADD SWAP1 DUP2 MSTORE PUSH1 0x20 ADD PUSH0 KECCAK256 SLOAD PUSH2 0x1A17 SWAP2 SWAP1 PUSH2 0x8ED6 JUMP JUMPDEST SWAP1 POP DUP1 DUP6 GT PUSH2 0x1A59 JUMPI DUP5 DUP3 PUSH2 0x1A2C SWAP2 SWAP1 PUSH2 0x8E38 JUMP JUMPDEST DUP7 PUSH2 0x1A37 SWAP2 SWAP1 PUSH2 0x8B87 JUMP JUMPDEST SWAP6 POP DUP5 PUSH1 0x22 PUSH0 DUP3 DUP3 SLOAD PUSH2 0x1A4A SWAP2 SWAP1 PUSH2 0x8B87 JUMP JUMPDEST SWAP3 POP POP DUP2 SWAP1 SSTORE POP PUSH0 SWAP5 POP PUSH2 0x1A89 JUMP JUMPDEST DUP1 DUP3 PUSH2 0x1A65 SWAP2 SWAP1 PUSH2 0x8E38 JUMP JUMPDEST DUP7 PUSH2 0x1A70 SWAP2 SWAP1 PUSH2 0x8B87 JUMP JUMPDEST SWAP6 POP DUP1 DUP6 PUSH2 0x1A7E SWAP2 SWAP1 PUSH2 0x8ED6 JUMP JUMPDEST SWAP5 POP PUSH2 0x1A88 PUSH2 0x51AB JUMP JUMPDEST JUMPDEST POP POP PUSH2 0x19E1 JUMP JUMPDEST JUMPDEST DUP7 PUSH1 0x26 PUSH0 CALLER PUSH20 0xFFFFFFFFFFFFFFFFFFFFFFFFFFFFFFFFFFFFFFFF AND PUSH20 0xFFFFFFFFFFFFFFFFFFFFFFFFFFFFFFFFFFFFFFFF AND DUP2 MSTORE PUSH1 0x20 ADD SWAP1 DUP2 MSTORE PUSH1 0x20 ADD PUSH0 KECCAK256 PUSH0 DUP3 DUP3 SLOAD PUSH2 0x1ADD SWAP2 SWAP1 PUSH2 0x8B87 JUMP JUMPDEST SWAP3 POP POP DUP2 SWAP1 SSTORE POP DUP7 PUSH1 0x21 PUSH0 DUP3 DUP3 SLOAD PUSH2 0x1AF5 SWAP2 SWAP1 PUSH2 0x8B87 JUMP JUMPDEST SWAP3 POP POP DUP2 SWAP1 SSTORE POP NUMBER PUSH1 0x2B PUSH0 CALLER PUSH20 0xFFFFFFFFFFFFFFFFFFFFFFFFFFFFFFFFFFFFFFFF AND PUSH20 0xFFFFFFFFFFFFFFFFFFFFFFFFFFFFFFFFFFFFFFFF AND DUP2 MSTORE PUSH1 0x20 ADD SWAP1 DUP2 MSTORE PUSH1 0x20 ADD PUSH0 KECCAK256 DUP2 SWAP1 SSTORE POP PUSH0 PUSH20 0xFFFFFFFFFFFFFFFFFFFFFFFFFFFFFFFFFFFFFFFF AND DUP6 PUSH20 0xFFFFFFFFFFFFFFFFFFFFFFFFFFFFFFFFFFFFFFFF AND SUB PUSH2 0x1D60 JUMPI DUP4 CALLVALUE LT ISZERO PUSH2 0x1BB4 JUMPI PUSH1 0x40 MLOAD PUSH32 0x8C379A000000000000000000000000000000000000000000000000000000000 DUP2 MSTORE PUSH1 0x4 ADD PUSH2 0x1BAB SWAP1 PUSH2 0x8F53 JUMP JUMPDEST PUSH1 0x40 MLOAD DUP1 SWAP2 SUB SWAP1 REVERT JUMPDEST DUP4 CALLVALUE GT ISZERO PUSH2 0x1C71 JUMPI PUSH0 CALLER PUSH20 0xFFFFFFFFFFFFFFFFFFFFFFFFFFFFFFFFFFFFFFFF AND DUP6 CALLVALUE PUSH2 0x1BE0 SWAP2 SWAP1 PUSH2 0x8ED6 JUMP JUMPDEST PUSH1 0x40 MLOAD PUSH2 0x1BEC SWAP1 PUSH2 0x8F9E JUMP JUMPDEST PUSH0 PUSH1 0x40 MLOAD DUP1 DUP4 SUB DUP2 DUP6 DUP8 GAS CALL SWAP3 POP POP POP RETURNDATASIZE DUP1 PUSH0 DUP2 EQ PUSH2 0x1C26 JUMPI PUSH1 0x40 MLOAD SWAP2 POP PUSH1 0x1F NOT PUSH1 0x3F RETURNDATASIZE ADD AND DUP3 ADD PUSH1 0x40 MSTORE RETURNDATASIZE DUP3 MSTORE RETURNDATASIZE PUSH0 PUSH1 0x20 DUP5 ADD RETURNDATACOPY PUSH2 0x1C2B JUMP JUMPDEST PUSH1 0x60 SWAP2 POP JUMPDEST POP POP SWAP1 POP DUP1 PUSH2 0x1C6F JUMPI PUSH1 0x40 MLOAD PUSH32 0x8C379A000000000000000000000000000000000000000000000000000000000 DUP2 MSTORE PUSH1 0x4 ADD PUSH2 0x1C66 SWAP1 PUSH2 0x8FFC JUMP JUMPDEST PUSH1 0x40 MLOAD DUP1 SWAP2 SUB SWAP1 REVERT JUMPDEST POP JUMPDEST PUSH0 DUP3 GT DUP1 ISZERO PUSH2 0x1CAC JUMPI POP PUSH0 PUSH20 0xFFFFFFFFFFFFFFFFFFFFFFFFFFFFFFFFFFFFFFFF AND DUP2 PUSH20 0xFFFFFFFFFFFFFFFFFFFFFFFFFFFFFFFFFFFFFFFF AND EQ ISZERO JUMPDEST ISZERO PUSH2 0x1D5B JUMPI PUSH0 DUP2 PUSH20 0xFFFFFFFFFFFFFFFFFFFFFFFFFFFFFFFFFFFFFFFF AND DUP4 PUSH1 0x40 MLOAD PUSH2 0x1CD6 SWAP1 PUSH2 0x8F9E JUMP JUMPDEST PUSH0 PUSH1 0x40 MLOAD DUP1 DUP4 SUB DUP2 DUP6 DUP8 GAS CALL SWAP3 POP POP POP RETURNDATASIZE DUP1 PUSH0 DUP2 EQ PUSH2 0x1D10 JUMPI PUSH1 0x40 MLOAD SWAP2 POP PUSH1 0x1F NOT PUSH1 0x3F RETURNDATASIZE ADD AND DUP3 ADD PUSH1 0x40 MSTORE RETURNDATASIZE DUP3 MSTORE RETURNDATASIZE PUSH0 PUSH1 0x20 DUP5 ADD RETURNDATACOPY PUSH2 0x1D15 JUMP JUMPDEST PUSH1 0x60 SWAP2 POP JUMPDEST POP POP SWAP1 POP DUP1 PUSH2 0x1D59 JUMPI PUSH1 0x40 MLOAD PUSH32 0x8C379A000000000000000000000000000000000000000000000000000000000 DUP2 MSTORE PUSH1 0x4 ADD PUSH2 0x1D50 SWAP1 PUSH2 0x9064 JUMP JUMPDEST PUSH1 0x40 MLOAD DUP1 SWAP2 SUB SWAP1 REVERT JUMPDEST POP JUMPDEST PUSH2 0x2093 JUMP JUMPDEST PUSH0 DUP6 SWAP1 POP DUP5 DUP2 PUSH20 0xFFFFFFFFFFFFFFFFFFFFFFFFFFFFFFFFFFFFFFFF AND PUSH4 0xDD62ED3E CALLER ADDRESS PUSH1 0x40 MLOAD DUP4 PUSH4 0xFFFFFFFF AND PUSH1 0xE0 SHL DUP2 MSTORE PUSH1 0x4 ADD PUSH2 0x1DA0 SWAP3 SWAP2 SWAP1 PUSH2 0x9082 JUMP JUMPDEST PUSH1 0x20 PUSH1 0x40 MLOAD DUP1 DUP4 SUB DUP2 DUP7 GAS STATICCALL ISZERO DUP1 ISZERO PUSH2 0x1DBB JUMPI RETURNDATASIZE PUSH0 PUSH0 RETURNDATACOPY RETURNDATASIZE PUSH0 REVERT JUMPDEST POP POP POP POP PUSH1 0x40 MLOAD RETURNDATASIZE PUSH1 0x1F NOT PUSH1 0x1F DUP3 ADD AND DUP3 ADD DUP1 PUSH1 0x40 MSTORE POP DUP2 ADD SWAP1 PUSH2 0x1DDF SWAP2 SWAP1 PUSH2 0x90BD JUMP JUMPDEST LT ISZERO PUSH2 0x1E20 JUMPI PUSH1 0x40 MLOAD PUSH32 0x8C379A000000000000000000000000000000000000000000000000000000000 DUP2 MSTORE PUSH1 0x4 ADD PUSH2 0x1E17 SWAP1 PUSH2 0x9132 JUMP JUMPDEST PUSH1 0x40 MLOAD DUP1 SWAP2 SUB SWAP1 REVERT JUMPDEST DUP1 PUSH20 0xFFFFFFFFFFFFFFFFFFFFFFFFFFFFFFFFFFFFFFFF AND PUSH4 0x23B872DD CALLER ADDRESS DUP9 PUSH1 0x40 MLOAD DUP5 PUSH4 0xFFFFFFFF AND PUSH1 0xE0 SHL DUP2 MSTORE PUSH1 0x4 ADD PUSH2 0x1E5D SWAP4 SWAP3 SWAP2 SWAP1 PUSH2 0x9150 JUMP JUMPDEST PUSH1 0x20 PUSH1 0x40 MLOAD DUP1 DUP4 SUB DUP2 PUSH0 DUP8 GAS CALL ISZERO DUP1 ISZERO PUSH2 0x1E79 JUMPI RETURNDATASIZE PUSH0 PUSH0 RETURNDATACOPY RETURNDATASIZE PUSH0 REVERT JUMPDEST POP POP POP POP PUSH1 0x40 MLOAD RETURNDATASIZE PUSH1 0x1F NOT PUSH1 0x1F DUP3 ADD AND DUP3 ADD DUP1 PUSH1 0x40 MSTORE POP DUP2 ADD SWAP1 PUSH2 0x1E9D SWAP2 SWAP1 PUSH2 0x9199 JUMP JUMPDEST PUSH2 0x1EDC JUMPI PUSH1 0x40 MLOAD PUSH32 0x8C379A000000000000000000000000000000000000000000000000000000000 DUP2 MSTORE PUSH1 0x4 ADD PUSH2 0x1ED3 SWAP1 PUSH2 0x920E JUMP JUMPDEST PUSH1 0x40 MLOAD DUP1 SWAP2 SUB SWAP1 REVERT JUMPDEST PUSH0 DUP4 GT DUP1 ISZERO PUSH2 0x1F17 JUMPI POP PUSH0 PUSH20 0xFFFFFFFFFFFFFFFFFFFFFFFFFFFFFFFFFFFFFFFF AND DUP3 PUSH20 0xFFFFFFFFFFFFFFFFFFFFFFFFFFFFFFFFFFFFFFFF AND EQ ISZERO JUMPDEST ISZERO PUSH2 0x2091 JUMPI DUP3 DUP2 PUSH20 0xFFFFFFFFFFFFFFFFFFFFFFFFFFFFFFFFFFFFFFFF AND PUSH4 0x70A08231 ADDRESS PUSH1 0x40 MLOAD DUP3 PUSH4 0xFFFFFFFF AND PUSH1 0xE0 SHL DUP2 MSTORE PUSH1 0x4 ADD PUSH2 0x1F56 SWAP2 SWAP1 PUSH2 0x7B3C JUMP JUMPDEST PUSH1 0x20 PUSH1 0x40 MLOAD DUP1 DUP4 SUB DUP2 DUP7 GAS STATICCALL ISZERO DUP1 ISZERO PUSH2 0x1F71 JUMPI RETURNDATASIZE PUSH0 PUSH0 RETURNDATACOPY RETURNDATASIZE PUSH0 REVERT JUMPDEST POP POP POP POP PUSH1 0x40 MLOAD RETURNDATASIZE PUSH1 0x1F NOT PUSH1 0x1F DUP3 ADD AND DUP3 ADD DUP1 PUSH1 0x40 MSTORE POP DUP2 ADD SWAP1 PUSH2 0x1F95 SWAP2 SWAP1 PUSH2 0x90BD JUMP JUMPDEST LT ISZERO PUSH2 0x1FD6 JUMPI PUSH1 0x40 MLOAD PUSH32 0x8C379A000000000000000000000000000000000000000000000000000000000 DUP2 MSTORE PUSH1 0x4 ADD PUSH2 0x1FCD SWAP1 PUSH2 0x929C JUMP JUMPDEST PUSH1 0x40 MLOAD DUP1 SWAP2 SUB SWAP1 REVERT JUMPDEST DUP1 PUSH20 0xFFFFFFFFFFFFFFFFFFFFFFFFFFFFFFFFFFFFFFFF AND PUSH4 0xA9059CBB DUP4 DUP6 PUSH1 0x40 MLOAD DUP4 PUSH4 0xFFFFFFFF AND PUSH1 0xE0 SHL DUP2 MSTORE PUSH1 0x4 ADD PUSH2 0x2011 SWAP3 SWAP2 SWAP1 PUSH2 0x7EA1 JUMP JUMPDEST PUSH1 0x20 PUSH1 0x40 MLOAD DUP1 DUP4 SUB DUP2 PUSH0 DUP8 GAS CALL ISZERO DUP1 ISZERO PUSH2 0x202D JUMPI RETURNDATASIZE PUSH0 PUSH0 RETURNDATACOPY RETURNDATASIZE PUSH0 REVERT JUMPDEST POP POP POP POP PUSH1 0x40 MLOAD RETURNDATASIZE PUSH1 0x1F NOT PUSH1 0x1F DUP3 ADD AND DUP3 ADD DUP1 PUSH1 0x40 MSTORE POP DUP2 ADD SWAP1 PUSH2 0x2051 SWAP2 SWAP1 PUSH2 0x9199 JUMP JUMPDEST PUSH2 0x2090 JUMPI PUSH1 0x40 MLOAD PUSH32 0x8C379A000000000000000000000000000000000000000000000000000000000 DUP2 MSTORE PUSH1 0x4 ADD PUSH2 0x2087 SWAP1 PUSH2 0x9304 JUMP JUMPDEST PUSH1 0x40 MLOAD DUP1 SWAP2 SUB SWAP1 REVERT JUMPDEST JUMPDEST POP JUMPDEST PUSH2 0x209D CALLER DUP9 PUSH2 0x5213 JUMP JUMPDEST POP DUP7 PUSH1 0x26 PUSH0 CALLER PUSH20 0xFFFFFFFFFFFFFFFFFFFFFFFFFFFFFFFFFFFFFFFF AND PUSH20 0xFFFFFFFFFFFFFFFFFFFFFFFFFFFFFFFFFFFFFFFF AND DUP2 MSTORE PUSH1 0x20 ADD SWAP1 DUP2 MSTORE PUSH1 0x20 ADD PUSH0 KECCAK256 PUSH0 DUP3 DUP3 SLOAD PUSH2 0x20EA SWAP2 SWAP1 PUSH2 0x8B87 JUMP JUMPDEST SWAP3 POP POP DUP2 SWAP1 SSTORE POP NUMBER PUSH1 0x2B PUSH0 CALLER PUSH20 0xFFFFFFFFFFFFFFFFFFFFFFFFFFFFFFFFFFFFFFFF AND PUSH20 0xFFFFFFFFFFFFFFFFFFFFFFFFFFFFFFFFFFFFFFFF AND DUP2 MSTORE PUSH1 0x20 ADD SWAP1 DUP2 MSTORE PUSH1 0x20 ADD PUSH0 KECCAK256 DUP2 SWAP1 SSTORE POP CALLER PUSH20 0xFFFFFFFFFFFFFFFFFFFFFFFFFFFFFFFFFFFFFFFF AND PUSH32 0xB46FB7549F34F1A9358A1481B651CC450F7467A2C9EAB8CA3E8F8AC0E722EE72 DUP9 DUP8 DUP10 PUSH1 0x40 MLOAD PUSH2 0x217D SWAP4 SWAP3 SWAP2 SWAP1 PUSH2 0x9322 JUMP JUMPDEST PUSH1 0x40 MLOAD DUP1 SWAP2 SUB SWAP1 LOG2 POP POP POP POP PUSH2 0x2191 PUSH2 0x526A JUMP JUMPDEST POP POP POP JUMP JUMPDEST PUSH2 0x219E PUSH2 0x5274 JUMP JUMPDEST PUSH2 0x21D4 JUMPI PUSH1 0x40 MLOAD PUSH32 0x2D99739600000000000000000000000000000000000000000000000000000000 DUP2 MSTORE PUSH1 0x4 ADD PUSH1 0x40 MLOAD DUP1 SWAP2 SUB SWAP1 REVERT JUMPDEST PUSH2 0x21DD DUP2 PUSH2 0x52B0 JUMP JUMPDEST POP JUMP JUMPDEST PUSH0 PUSH2 0x21E9 PUSH2 0x5373 JUMP JUMPDEST PUSH1 0x1 SLOAD PUSH0 SLOAD SUB SUB SWAP1 POP SWAP1 JUMP JUMPDEST PUSH2 0x2200 DUP4 DUP4 DUP4 PUSH2 0x537A JUMP JUMPDEST POP POP POP JUMP JUMPDEST PUSH0 PUSH2 0x220E PUSH2 0x2F58 JUMP JUMPDEST DUP3 LT PUSH2 0x2251 JUMPI DUP2 PUSH1 0x40 MLOAD PUSH32 0xF2624EE00000000000000000000000000000000000000000000000000000000 DUP2 MSTORE PUSH1 0x4 ADD PUSH2 0x2248 SWAP2 SWAP1 PUSH2 0x7990 JUMP JUMPDEST PUSH1 0x40 MLOAD DUP1 SWAP2 SUB SWAP1 REVERT JUMPDEST PUSH1 0xC DUP3 DUP2 SLOAD DUP2 LT PUSH2 0x2265 JUMPI PUSH2 0x2264 PUSH2 0x935E JUMP JUMPDEST JUMPDEST SWAP1 PUSH0 MSTORE PUSH1 0x20 PUSH0 KECCAK256 ADD SLOAD SWAP1 POP SWAP2 SWAP1 POP JUMP JUMPDEST PUSH1 0x2D PUSH1 0x20 MSTORE DUP1 PUSH0 MSTORE PUSH1 0x40 PUSH0 KECCAK256 PUSH0 SWAP2 POP SWAP1 POP SLOAD DUP2 JUMP JUMPDEST PUSH0 PUSH1 0x27 PUSH0 DUP5 PUSH20 0xFFFFFFFFFFFFFFFFFFFFFFFFFFFFFFFFFFFFFFFF AND PUSH20 0xFFFFFFFFFFFFFFFFFFFFFFFFFFFFFFFFFFFFFFFF AND DUP2 MSTORE PUSH1 0x20 ADD SWAP1 DUP2 MSTORE PUSH1 0x20 ADD PUSH0 KECCAK256 PUSH0 DUP4 PUSH20 0xFFFFFFFFFFFFFFFFFFFFFFFFFFFFFFFFFFFFFFFF AND PUSH20 0xFFFFFFFFFFFFFFFFFFFFFFFFFFFFFFFFFFFFFFFF AND DUP2 MSTORE PUSH1 0x20 ADD SWAP1 DUP2 MSTORE PUSH1 0x20 ADD PUSH0 KECCAK256 SLOAD SWAP1 POP SWAP3 SWAP2 POP POP JUMP JUMPDEST PUSH0 PUSH0 PUSH0 PUSH0 PUSH2 0x2319 DUP7 PUSH2 0x2B10 JUMP JUMPDEST PUSH2 0xFFFF AND SWAP2 POP SWAP2 POP DUP2 SWAP4 POP PUSH2 0x2710 DUP2 DUP7 PUSH2 0x2333 SWAP2 SWAP1 PUSH2 0x8E38 JUMP JUMPDEST PUSH2 0x233D SWAP2 SWAP1 PUSH2 0x8EA6 JUMP JUMPDEST SWAP3 POP POP POP SWAP3 POP SWAP3 SWAP1 POP JUMP JUMPDEST PUSH0 PUSH0 DUP3 GT DUP1 ISZERO PUSH2 0x235A JUMPI POP PUSH1 0x1E SLOAD DUP3 GT ISZERO JUMPDEST PUSH2 0x2399 JUMPI PUSH1 0x40 MLOAD PUSH32 0x8C379A000000000000000000000000000000000000000000000000000000000 DUP2 MSTORE PUSH1 0x4 ADD PUSH2 0x2390 SWAP1 PUSH2 0x93D5 JUMP JUMPDEST PUSH1 0x40 MLOAD DUP1 SWAP2 SUB SWAP1 REVERT JUMPDEST PUSH1 0x2D PUSH0 DUP4 DUP2 MSTORE PUSH1 0x20 ADD SWAP1 DUP2 MSTORE PUSH1 0x20 ADD PUSH0 KECCAK256 SLOAD SWAP1 POP SWAP2 SWAP1 POP JUMP JUMPDEST PUSH1 0x24 PUSH1 0x20 MSTORE DUP1 PUSH0 MSTORE PUSH1 0x40 PUSH0 KECCAK256 PUSH0 SWAP2 POP SWAP1 POP SLOAD DUP2 JUMP JUMPDEST PUSH1 0x25 PUSH1 0x20 MSTORE DUP1 PUSH0 MSTORE PUSH1 0x40 PUSH0 KECCAK256 PUSH0 SWAP2 POP SWAP1 POP SLOAD DUP2 JUMP JUMPDEST PUSH0 PUSH1 0x1B PUSH0 PUSH1 0x1A SLOAD DUP2 MSTORE PUSH1 0x20 ADD SWAP1 DUP2 MSTORE PUSH1 0x20 ADD PUSH0 KECCAK256 PUSH0 DUP4 PUSH20 0xFFFFFFFFFFFFFFFFFFFFFFFFFFFFFFFFFFFFFFFF AND PUSH20 0xFFFFFFFFFFFFFFFFFFFFFFFFFFFFFFFFFFFFFFFF AND DUP2 MSTORE PUSH1 0x20 ADD SWAP1 DUP2 MSTORE PUSH1 0x20 ADD PUSH0 KECCAK256 SLOAD SWAP1 POP SWAP2 SWAP1 POP JUMP JUMPDEST PUSH0 PUSH1 0x10 SLOAD SWAP1 POP SWAP1 JUMP JUMPDEST PUSH1 0x9 PUSH0 SWAP1 SLOAD SWAP1 PUSH2 0x100 EXP SWAP1 DIV PUSH20 0xFFFFFFFFFFFFFFFFFFFFFFFFFFFFFFFFFFFFFFFF AND PUSH20 0xFFFFFFFFFFFFFFFFFFFFFFFFFFFFFFFFFFFFFFFF AND CALLER PUSH20 0xFFFFFFFFFFFFFFFFFFFFFFFFFFFFFFFFFFFFFFFF AND EQ PUSH2 0x24C2 JUMPI PUSH1 0x40 MLOAD PUSH32 0x2D99739600000000000000000000000000000000000000000000000000000000 DUP2 MSTORE PUSH1 0x4 ADD PUSH1 0x40 MLOAD DUP1 SWAP2 SUB SWAP1 REVERT JUMPDEST PUSH0 SELFBALANCE SWAP1 POP PUSH0 DUP2 GT PUSH2 0x2508 JUMPI PUSH1 0x40 MLOAD PUSH32 0x8C379A000000000000000000000000000000000000000000000000000000000 DUP2 MSTORE PUSH1 0x4 ADD PUSH2 0x24FF SWAP1 PUSH2 0x943D JUMP JUMPDEST PUSH1 0x40 MLOAD DUP1 SWAP2 SUB SWAP1 REVERT JUMPDEST PUSH0 CALLER PUSH20 0xFFFFFFFFFFFFFFFFFFFFFFFFFFFFFFFFFFFFFFFF AND DUP3 PUSH1 0x40 MLOAD PUSH2 0x252D SWAP1 PUSH2 0x8F9E JUMP JUMPDEST PUSH0 PUSH1 0x40 MLOAD DUP1 DUP4 SUB DUP2 DUP6 DUP8 GAS CALL SWAP3 POP POP POP RETURNDATASIZE DUP1 PUSH0 DUP2 EQ PUSH2 0x2567 JUMPI PUSH1 0x40 MLOAD SWAP2 POP PUSH1 0x1F NOT PUSH1 0x3F RETURNDATASIZE ADD AND DUP3 ADD PUSH1 0x40 MSTORE RETURNDATASIZE DUP3 MSTORE RETURNDATASIZE PUSH0 PUSH1 0x20 DUP5 ADD RETURNDATACOPY PUSH2 0x256C JUMP JUMPDEST PUSH1 0x60 SWAP2 POP JUMPDEST POP POP SWAP1 POP DUP1 PUSH2 0x25B0 JUMPI PUSH1 0x40 MLOAD PUSH32 0x8C379A000000000000000000000000000000000000000000000000000000000 DUP2 MSTORE PUSH1 0x4 ADD PUSH2 0x25A7 SWAP1 PUSH2 0x94A5 JUMP JUMPDEST PUSH1 0x40 MLOAD DUP1 SWAP2 SUB SWAP1 REVERT JUMPDEST CALLER PUSH20 0xFFFFFFFFFFFFFFFFFFFFFFFFFFFFFFFFFFFFFFFF AND PUSH32 0x7084F5476618D8E60B11EF0D7D3F06914655ADB8793E28FF7F018D4C76D505D5 DUP4 PUSH1 0x40 MLOAD PUSH2 0x25F6 SWAP2 SWAP1 PUSH2 0x7990 JUMP JUMPDEST PUSH1 0x40 MLOAD DUP1 SWAP2 SUB SWAP1 LOG2 POP POP JUMP JUMPDEST PUSH2 0x260A PUSH2 0x5810 JUMP JUMPDEST PUSH2 0x2640 JUMPI PUSH1 0x40 MLOAD PUSH32 0x56C4EF5100000000000000000000000000000000000000000000000000000000 DUP2 MSTORE PUSH1 0x4 ADD PUSH1 0x40 MLOAD DUP1 SWAP2 SUB SWAP1 REVERT JUMPDEST PUSH0 PUSH1 0x1A SLOAD SWAP1 POP PUSH0 PUSH1 0x12 PUSH1 0x2 ADD SLOAD SWAP1 POP DUP3 ISZERO PUSH2 0x268B JUMPI PUSH0 SWAP1 POP PUSH2 0x2660 PUSH2 0x584C JUMP JUMPDEST NUMBER PUSH1 0x40 MLOAD PUSH1 0x20 ADD PUSH2 0x2672 SWAP3 SWAP2 SWAP1 PUSH2 0x9528 JUMP JUMPDEST PUSH1 0x40 MLOAD PUSH1 0x20 DUP2 DUP4 SUB SUB DUP2 MSTORE SWAP1 PUSH1 0x40 MSTORE DUP1 MLOAD SWAP1 PUSH1 0x20 ADD KECCAK256 SWAP2 POP JUMPDEST DUP4 PUSH1 0x20 ADD CALLDATALOAD DUP2 GT ISZERO PUSH2 0x26C9 JUMPI PUSH1 0x40 MLOAD PUSH32 0x656A73E00000000000000000000000000000000000000000000000000000000 DUP2 MSTORE PUSH1 0x4 ADD PUSH1 0x40 MLOAD DUP1 SWAP2 SUB SWAP1 REVERT JUMPDEST PUSH1 0x40 MLOAD DUP1 PUSH2 0x100 ADD PUSH1 0x40 MSTORE DUP1 DUP6 PUSH0 ADD CALLDATALOAD DUP2 MSTORE PUSH1 0x20 ADD DUP6 PUSH1 0x20 ADD CALLDATALOAD DUP2 MSTORE PUSH1 0x20 ADD DUP3 DUP2 MSTORE PUSH1 0x20 ADD DUP6 PUSH1 0x60 ADD CALLDATALOAD DUP2 MSTORE PUSH1 0x20 ADD DUP6 PUSH1 0x80 ADD CALLDATALOAD DUP2 MSTORE PUSH1 0x20 ADD DUP6 PUSH1 0xA0 ADD CALLDATALOAD DUP2 MSTORE PUSH1 0x20 ADD DUP6 PUSH1 0xC0 ADD PUSH1 0x20 DUP2 ADD SWAP1 PUSH2 0x271F SWAP2 SWAP1 PUSH2 0x7DAA JUMP JUMPDEST PUSH20 0xFFFFFFFFFFFFFFFFFFFFFFFFFFFFFFFFFFFFFFFF AND DUP2 MSTORE PUSH1 0x20 ADD DUP6 DUP1 PUSH1 0xE0 ADD SWAP1 PUSH2 0x274A SWAP2 SWAP1 PUSH2 0x955F JUMP JUMPDEST DUP1 DUP1 PUSH1 0x1F ADD PUSH1 0x20 DUP1 SWAP2 DIV MUL PUSH1 0x20 ADD PUSH1 0x40 MLOAD SWAP1 DUP2 ADD PUSH1 0x40 MSTORE DUP1 SWAP4 SWAP3 SWAP2 SWAP1 DUP2 DUP2 MSTORE PUSH1 0x20 ADD DUP4 DUP4 DUP1 DUP3 DUP5 CALLDATACOPY PUSH0 DUP2 DUP5 ADD MSTORE PUSH1 0x1F NOT PUSH1 0x1F DUP3 ADD AND SWAP1 POP DUP1 DUP4 ADD SWAP3 POP POP POP POP POP POP POP DUP2 MSTORE POP PUSH1 0x12 PUSH0 DUP3 ADD MLOAD DUP2 PUSH0 ADD SSTORE PUSH1 0x20 DUP3 ADD MLOAD DUP2 PUSH1 0x1 ADD SSTORE PUSH1 0x40 DUP3 ADD MLOAD DUP2 PUSH1 0x2 ADD SSTORE PUSH1 0x60 DUP3 ADD MLOAD DUP2 PUSH1 0x3 ADD SSTORE PUSH1 0x80 DUP3 ADD MLOAD DUP2 PUSH1 0x4 ADD SSTORE PUSH1 0xA0 DUP3 ADD MLOAD DUP2 PUSH1 0x5 ADD SSTORE PUSH1 0xC0 DUP3 ADD MLOAD DUP2 PUSH1 0x6 ADD PUSH0 PUSH2 0x100 EXP DUP2 SLOAD DUP2 PUSH20 0xFFFFFFFFFFFFFFFFFFFFFFFFFFFFFFFFFFFFFFFF MUL NOT AND SWAP1 DUP4 PUSH20 0xFFFFFFFFFFFFFFFFFFFFFFFFFFFFFFFFFFFFFFFF AND MUL OR SWAP1 SSTORE POP PUSH1 0xE0 DUP3 ADD MLOAD DUP2 PUSH1 0x7 ADD SWAP1 DUP2 PUSH2 0x2826 SWAP2 SWAP1 PUSH2 0x9761 JUMP JUMPDEST POP SWAP1 POP POP DUP2 PUSH1 0x1A DUP2 SWAP1 SSTORE POP PUSH32 0x6DAB9D7D05D468100139089B2516CB8FF286C3972FF070D3B509E371F0D0D4B8 DUP5 DUP5 PUSH1 0x40 MLOAD PUSH2 0x2862 SWAP3 SWAP2 SWAP1 PUSH2 0x9A53 JUMP JUMPDEST PUSH1 0x40 MLOAD DUP1 SWAP2 SUB SWAP1 LOG1 POP POP POP POP JUMP JUMPDEST PUSH2 0x288A DUP4 DUP4 DUP4 PUSH1 0x40 MLOAD DUP1 PUSH1 0x20 ADD PUSH1 0x40 MSTORE DUP1 PUSH0 DUP2 MSTORE POP PUSH2 0x3D06 JUMP JUMPDEST POP POP POP JUMP JUMPDEST PUSH2 0x289A DUP2 PUSH1 0x1 PUSH2 0x5853 JUMP JUMPDEST POP JUMP JUMPDEST PUSH1 0x1F SLOAD DUP2 JUMP JUMPDEST PUSH0 PUSH1 0x28 PUSH0 CALLER PUSH20 0xFFFFFFFFFFFFFFFFFFFFFFFFFFFFFFFFFFFFFFFF AND PUSH20 0xFFFFFFFFFFFFFFFFFFFFFFFFFFFFFFFFFFFFFFFF AND DUP2 MSTORE PUSH1 0x20 ADD SWAP1 DUP2 MSTORE PUSH1 0x20 ADD PUSH0 KECCAK256 DUP1 SLOAD PUSH2 0x28EC SWAP1 PUSH2 0x8AC2 JUMP JUMPDEST SWAP1 POP EQ PUSH2 0x292E JUMPI PUSH1 0x40 MLOAD PUSH32 0x8C379A000000000000000000000000000000000000000000000000000000000 DUP2 MSTORE PUSH1 0x4 ADD PUSH2 0x2925 SWAP1 PUSH2 0x9ACB JUMP JUMPDEST PUSH1 0x40 MLOAD DUP1 SWAP2 SUB SWAP1 REVERT JUMPDEST PUSH0 PUSH2 0x2938 CALLER PUSH2 0x2FF0 JUMP JUMPDEST SWAP1 POP PUSH0 PUSH20 0xFFFFFFFFFFFFFFFFFFFFFFFFFFFFFFFFFFFFFFFF AND PUSH1 0x29 DUP3 PUSH1 0x40 MLOAD PUSH2 0x2961 SWAP2 SWAP1 PUSH2 0x8D52 JUMP JUMPDEST SWAP1 DUP2 MSTORE PUSH1 0x20 ADD PUSH1 0x40 MLOAD DUP1 SWAP2 SUB SWAP1 KECCAK256 PUSH0 SWAP1 SLOAD SWAP1 PUSH2 0x100 EXP SWAP1 DIV PUSH20 0xFFFFFFFFFFFFFFFFFFFFFFFFFFFFFFFFFFFFFFFF AND PUSH20 0xFFFFFFFFFFFFFFFFFFFFFFFFFFFFFFFFFFFFFFFF AND EQ PUSH2 0x29E5 JUMPI PUSH1 0x40 MLOAD PUSH32 0x8C379A000000000000000000000000000000000000000000000000000000000 DUP2 MSTORE PUSH1 0x4 ADD PUSH2 0x29DC SWAP1 PUSH2 0x9B33 JUMP JUMPDEST PUSH1 0x40 MLOAD DUP1 SWAP2 SUB SWAP1 REVERT JUMPDEST DUP1 PUSH1 0x28 PUSH0 CALLER PUSH20 0xFFFFFFFFFFFFFFFFFFFFFFFFFFFFFFFFFFFFFFFF AND PUSH20 0xFFFFFFFFFFFFFFFFFFFFFFFFFFFFFFFFFFFFFFFF AND DUP2 MSTORE PUSH1 0x20 ADD SWAP1 DUP2 MSTORE PUSH1 0x20 ADD PUSH0 KECCAK256 SWAP1 DUP2 PUSH2 0x2A2F SWAP2 SWAP1 PUSH2 0x9761 JUMP JUMPDEST POP CALLER PUSH1 0x29 DUP3 PUSH1 0x40 MLOAD PUSH2 0x2A41 SWAP2 SWAP1 PUSH2 0x8D52 JUMP JUMPDEST SWAP1 DUP2 MSTORE PUSH1 0x20 ADD PUSH1 0x40 MLOAD DUP1 SWAP2 SUB SWAP1 KECCAK256 PUSH0 PUSH2 0x100 EXP DUP2 SLOAD DUP2 PUSH20 0xFFFFFFFFFFFFFFFFFFFFFFFFFFFFFFFFFFFFFFFF MUL NOT AND SWAP1 DUP4 PUSH20 0xFFFFFFFFFFFFFFFFFFFFFFFFFFFFFFFFFFFFFFFF AND MUL OR SWAP1 SSTORE POP PUSH32 0xE8CA9FF7362B2885AD0E2B48628EA1734BF0E9FFAA84267274CFD05AB4897D54 CALLER DUP3 PUSH1 0x40 MLOAD PUSH2 0x2ABD SWAP3 SWAP2 SWAP1 PUSH2 0x9B51 JUMP JUMPDEST PUSH1 0x40 MLOAD DUP1 SWAP2 SUB SWAP1 LOG1 POP JUMP JUMPDEST PUSH0 PUSH0 PUSH1 0x11 PUSH0 DUP5 DUP2 MSTORE PUSH1 0x20 ADD SWAP1 DUP2 MSTORE PUSH1 0x20 ADD PUSH0 KECCAK256 DUP1 SLOAD PUSH2 0x2AE6 SWAP1 PUSH2 0x8AC2 JUMP JUMPDEST SWAP1 POP GT SWAP1 POP SWAP2 SWAP1 POP JUMP JUMPDEST PUSH1 0x27 PUSH1 0x20 MSTORE DUP2 PUSH0 MSTORE PUSH1 0x40 PUSH0 KECCAK256 PUSH1 0x20 MSTORE DUP1 PUSH0 MSTORE PUSH1 0x40 PUSH0 KECCAK256 PUSH0 SWAP2 POP SWAP2 POP POP SLOAD DUP2 JUMP JUMPDEST PUSH0 PUSH0 PUSH0 PUSH1 0xB PUSH0 DUP6 DUP2 MSTORE PUSH1 0x20 ADD SWAP1 DUP2 MSTORE PUSH1 0x20 ADD PUSH0 KECCAK256 PUSH1 0x40 MLOAD DUP1 PUSH1 0x40 ADD PUSH1 0x40 MSTORE SWAP1 DUP2 PUSH0 DUP3 ADD PUSH0 SWAP1 SLOAD SWAP1 PUSH2 0x100 EXP SWAP1 DIV PUSH20 0xFFFFFFFFFFFFFFFFFFFFFFFFFFFFFFFFFFFFFFFF AND PUSH20 0xFFFFFFFFFFFFFFFFFFFFFFFFFFFFFFFFFFFFFFFF AND PUSH20 0xFFFFFFFFFFFFFFFFFFFFFFFFFFFFFFFFFFFFFFFF AND DUP2 MSTORE PUSH1 0x20 ADD PUSH1 0x1 DUP3 ADD SLOAD DUP2 MSTORE POP POP SWAP1 POP PUSH0 PUSH20 0xFFFFFFFFFFFFFFFFFFFFFFFFFFFFFFFFFFFFFFFF AND DUP2 PUSH0 ADD MLOAD PUSH20 0xFFFFFFFFFFFFFFFFFFFFFFFFFFFFFFFFFFFFFFFF AND EQ PUSH2 0x2BD3 JUMPI DUP1 PUSH0 ADD MLOAD DUP2 PUSH1 0x20 ADD MLOAD PUSH2 0x2C07 JUMP JUMPDEST PUSH1 0xA PUSH0 SWAP1 SLOAD SWAP1 PUSH2 0x100 EXP SWAP1 DIV PUSH20 0xFFFFFFFFFFFFFFFFFFFFFFFFFFFFFFFFFFFFFFFF AND PUSH1 0xA PUSH1 0x14 SWAP1 SLOAD SWAP1 PUSH2 0x100 EXP SWAP1 DIV PUSH2 0xFFFF AND JUMPDEST SWAP3 POP SWAP3 POP POP SWAP2 POP SWAP2 JUMP JUMPDEST PUSH1 0x9 PUSH0 SWAP1 SLOAD SWAP1 PUSH2 0x100 EXP SWAP1 DIV PUSH20 0xFFFFFFFFFFFFFFFFFFFFFFFFFFFFFFFFFFFFFFFF AND PUSH20 0xFFFFFFFFFFFFFFFFFFFFFFFFFFFFFFFFFFFFFFFF AND CALLER PUSH20 0xFFFFFFFFFFFFFFFFFFFFFFFFFFFFFFFFFFFFFFFF AND EQ PUSH2 0x2C97 JUMPI PUSH1 0x40 MLOAD PUSH32 0x2D99739600000000000000000000000000000000000000000000000000000000 DUP2 MSTORE PUSH1 0x4 ADD PUSH1 0x40 MLOAD DUP1 SWAP2 SUB SWAP1 REVERT JUMPDEST DUP1 PUSH1 0x23 SWAP1 DUP2 PUSH2 0x2CA6 SWAP2 SWAP1 PUSH2 0x9761 JUMP JUMPDEST POP POP JUMP JUMPDEST PUSH2 0x2CB2 PUSH2 0x5C21 JUMP JUMPDEST PUSH2 0x2CE8 JUMPI PUSH1 0x40 MLOAD PUSH32 0xDF5C6B0200000000000000000000000000000000000000000000000000000000 DUP2 MSTORE PUSH1 0x4 ADD PUSH1 0x40 MLOAD DUP1 SWAP2 SUB SWAP1 REVERT JUMPDEST PUSH2 0x2CF2 DUP3 DUP3 PUSH2 0x5C5D JUMP JUMPDEST POP POP JUMP JUMPDEST PUSH1 0x9 PUSH0 SWAP1 SLOAD SWAP1 PUSH2 0x100 EXP SWAP1 DIV PUSH20 0xFFFFFFFFFFFFFFFFFFFFFFFFFFFFFFFFFFFFFFFF AND PUSH20 0xFFFFFFFFFFFFFFFFFFFFFFFFFFFFFFFFFFFFFFFF AND CALLER PUSH20 0xFFFFFFFFFFFFFFFFFFFFFFFFFFFFFFFFFFFFFFFF AND EQ PUSH2 0x2D7C JUMPI PUSH1 0x40 MLOAD PUSH32 0x2D99739600000000000000000000000000000000000000000000000000000000 DUP2 MSTORE PUSH1 0x4 ADD PUSH1 0x40 MLOAD DUP1 SWAP2 SUB SWAP1 REVERT JUMPDEST PUSH1 0x20 SLOAD DUP4 LT ISZERO PUSH2 0x2DC1 JUMPI PUSH1 0x40 MLOAD PUSH32 0x8C379A000000000000000000000000000000000000000000000000000000000 DUP2 MSTORE PUSH1 0x4 ADD PUSH2 0x2DB8 SWAP1 PUSH2 0x9BEF JUMP JUMPDEST PUSH1 0x40 MLOAD DUP1 SWAP2 SUB SWAP1 REVERT JUMPDEST DUP1 MLOAD DUP3 MLOAD EQ PUSH2 0x2E05 JUMPI PUSH1 0x40 MLOAD PUSH32 0x8C379A000000000000000000000000000000000000000000000000000000000 DUP2 MSTORE PUSH1 0x4 ADD PUSH2 0x2DFC SWAP1 PUSH2 0x9C57 JUMP JUMPDEST PUSH1 0x40 MLOAD DUP1 SWAP2 SUB SWAP1 REVERT JUMPDEST PUSH1 0x1E SLOAD DUP4 PUSH2 0x2E13 SWAP2 SWAP1 PUSH2 0x8ED6 JUMP JUMPDEST DUP3 MLOAD GT ISZERO PUSH2 0x2E56 JUMPI PUSH1 0x40 MLOAD PUSH32 0x8C379A000000000000000000000000000000000000000000000000000000000 DUP2 MSTORE PUSH1 0x4 ADD PUSH2 0x2E4D SWAP1 PUSH2 0x9CBF JUMP JUMPDEST PUSH1 0x40 MLOAD DUP1 SWAP2 SUB SWAP1 REVERT JUMPDEST DUP3 PUSH1 0x1E DUP2 SWAP1 SSTORE POP PUSH0 DUP3 MLOAD PUSH1 0x1E SLOAD PUSH2 0x2E6D SWAP2 SWAP1 PUSH2 0x8ED6 JUMP JUMPDEST SWAP1 POP PUSH0 PUSH0 SWAP1 POP JUMPDEST DUP4 MLOAD DUP2 LT ISZERO PUSH2 0x2F06 JUMPI PUSH0 PUSH1 0x1 DUP3 DUP5 PUSH2 0x2E8C SWAP2 SWAP1 PUSH2 0x8B87 JUMP JUMPDEST PUSH2 0x2E96 SWAP2 SWAP1 PUSH2 0x8B87 JUMP JUMPDEST SWAP1 POP DUP5 DUP3 DUP2 MLOAD DUP2 LT PUSH2 0x2EAB JUMPI PUSH2 0x2EAA PUSH2 0x935E JUMP JUMPDEST JUMPDEST PUSH1 0x20 MUL PUSH1 0x20 ADD ADD MLOAD PUSH1 0x24 PUSH0 DUP4 DUP2 MSTORE PUSH1 0x20 ADD SWAP1 DUP2 MSTORE PUSH1 0x20 ADD PUSH0 KECCAK256 DUP2 SWAP1 SSTORE POP DUP4 DUP3 DUP2 MLOAD DUP2 LT PUSH2 0x2EDB JUMPI PUSH2 0x2EDA PUSH2 0x935E JUMP JUMPDEST JUMPDEST PUSH1 0x20 MUL PUSH1 0x20 ADD ADD MLOAD PUSH1 0x25 PUSH0 DUP4 DUP2 MSTORE PUSH1 0x20 ADD SWAP1 DUP2 MSTORE PUSH1 0x20 ADD PUSH0 KECCAK256 DUP2 SWAP1 SSTORE POP POP DUP1 DUP1 PUSH1 0x1 ADD SWAP2 POP POP PUSH2 0x2E74 JUMP JUMPDEST POP PUSH32 0x3A891C266CCE5520B84F7C59F71D4BF155ABF9D231148198D16129C6F065CC4E DUP5 PUSH1 0x40 MLOAD PUSH2 0x2F36 SWAP2 SWAP1 PUSH2 0x7990 JUMP JUMPDEST PUSH1 0x40 MLOAD DUP1 SWAP2 SUB SWAP1 LOG1 POP POP POP POP JUMP JUMPDEST PUSH0 PUSH2 0x2F4E DUP3 PUSH2 0x5D57 JUMP JUMPDEST PUSH0 ADD MLOAD SWAP1 POP SWAP2 SWAP1 POP JUMP JUMPDEST PUSH0 PUSH1 0xC DUP1 SLOAD SWAP1 POP SWAP1 POP SWAP1 JUMP JUMPDEST PUSH1 0x23 DUP1 SLOAD PUSH2 0x2F71 SWAP1 PUSH2 0x8AC2 JUMP JUMPDEST DUP1 PUSH1 0x1F ADD PUSH1 0x20 DUP1 SWAP2 DIV MUL PUSH1 0x20 ADD PUSH1 0x40 MLOAD SWAP1 DUP2 ADD PUSH1 0x40 MSTORE DUP1 SWAP3 SWAP2 SWAP1 DUP2 DUP2 MSTORE PUSH1 0x20 ADD DUP3 DUP1 SLOAD PUSH2 0x2F9D SWAP1 PUSH2 0x8AC2 JUMP JUMPDEST DUP1 ISZERO PUSH2 0x2FE8 JUMPI DUP1 PUSH1 0x1F LT PUSH2 0x2FBF JUMPI PUSH2 0x100 DUP1 DUP4 SLOAD DIV MUL DUP4 MSTORE SWAP2 PUSH1 0x20 ADD SWAP2 PUSH2 0x2FE8 JUMP JUMPDEST DUP3 ADD SWAP2 SWAP1 PUSH0 MSTORE PUSH1 0x20 PUSH0 KECCAK256 SWAP1 JUMPDEST DUP2 SLOAD DUP2 MSTORE SWAP1 PUSH1 0x1 ADD SWAP1 PUSH1 0x20 ADD DUP1 DUP4 GT PUSH2 0x2FCB JUMPI DUP3 SWAP1 SUB PUSH1 0x1F AND DUP3 ADD SWAP2 JUMPDEST POP POP POP POP POP DUP2 JUMP JUMPDEST PUSH1 0x60 PUSH0 DUP3 PUSH1 0x40 MLOAD PUSH1 0x20 ADD PUSH2 0x3004 SWAP2 SWAP1 PUSH2 0x9CDD JUMP JUMPDEST PUSH1 0x40 MLOAD PUSH1 0x20 DUP2 DUP4 SUB SUB DUP2 MSTORE SWAP1 PUSH1 0x40 MSTORE DUP1 MLOAD SWAP1 PUSH1 0x20 ADD KECCAK256 SWAP1 POP PUSH2 0x3025 DUP2 PUSH2 0x5FCF JUMP JUMPDEST SWAP2 POP POP SWAP2 SWAP1 POP JUMP JUMPDEST PUSH2 0x3035 PUSH2 0x61C7 JUMP JUMPDEST PUSH2 0x306B JUMPI PUSH1 0x40 MLOAD PUSH32 0x7260843C00000000000000000000000000000000000000000000000000000000 DUP2 MSTORE PUSH1 0x4 ADD PUSH1 0x40 MLOAD DUP1 SWAP2 SUB SWAP1 REVERT JUMPDEST PUSH2 0x3074 DUP2 PUSH2 0x6203 JUMP JUMPDEST POP JUMP JUMPDEST PUSH0 PUSH0 PUSH20 0xFFFFFFFFFFFFFFFFFFFFFFFFFFFFFFFFFFFFFFFF AND DUP3 PUSH20 0xFFFFFFFFFFFFFFFFFFFFFFFFFFFFFFFFFFFFFFFF AND SUB PUSH2 0x30DD JUMPI PUSH1 0x40 MLOAD PUSH32 0x8F4EB60400000000000000000000000000000000000000000000000000000000 DUP2 MSTORE PUSH1 0x4 ADD PUSH1 0x40 MLOAD DUP1 SWAP2 SUB SWAP1 REVERT JUMPDEST PUSH1 0x5 PUSH0 DUP4 PUSH20 0xFFFFFFFFFFFFFFFFFFFFFFFFFFFFFFFFFFFFFFFF AND PUSH20 0xFFFFFFFFFFFFFFFFFFFFFFFFFFFFFFFFFFFFFFFF AND DUP2 MSTORE PUSH1 0x20 ADD SWAP1 DUP2 MSTORE PUSH1 0x20 ADD PUSH0 KECCAK256 PUSH0 ADD PUSH0 SWAP1 SLOAD SWAP1 PUSH2 0x100 EXP SWAP1 DIV PUSH8 0xFFFFFFFFFFFFFFFF AND PUSH8 0xFFFFFFFFFFFFFFFF AND SWAP1 POP SWAP2 SWAP1 POP JUMP JUMPDEST PUSH1 0xE PUSH1 0x20 MSTORE DUP1 PUSH0 MSTORE PUSH1 0x40 PUSH0 KECCAK256 PUSH0 SWAP2 POP SLOAD SWAP1 PUSH2 0x100 EXP SWAP1 DIV PUSH1 0xFF AND DUP2 JUMP JUMPDEST PUSH2 0x316C DUP7 DUP7 DUP7 DUP7 DUP7 DUP7 PUSH2 0x62F9 JUMP JUMPDEST PUSH0 PUSH1 0x1A SLOAD SWAP1 POP PUSH2 0x3186 PUSH2 0x317D PUSH2 0x584C JUMP JUMPDEST DUP8 DUP8 DUP8 DUP8 PUSH2 0x4A60 JUMP JUMPDEST POP DUP6 PUSH1 0x12 PUSH1 0x2 ADD PUSH0 DUP3 DUP3 SLOAD PUSH2 0x319B SWAP2 SWAP1 PUSH2 0x8B87 JUMP JUMPDEST SWAP3 POP POP DUP2 SWAP1 SSTORE POP DUP6 PUSH1 0x1B PUSH0 DUP4 DUP2 MSTORE PUSH1 0x20 ADD SWAP1 DUP2 MSTORE PUSH1 0x20 ADD PUSH0 KECCAK256 PUSH0 PUSH2 0x31BD PUSH2 0x584C JUMP JUMPDEST PUSH20 0xFFFFFFFFFFFFFFFFFFFFFFFFFFFFFFFFFFFFFFFF AND PUSH20 0xFFFFFFFFFFFFFFFFFFFFFFFFFFFFFFFFFFFFFFFF AND DUP2 MSTORE PUSH1 0x20 ADD SWAP1 DUP2 MSTORE PUSH1 0x20 ADD PUSH0 KECCAK256 PUSH0 DUP3 DUP3 SLOAD PUSH2 0x3204 SWAP2 SWAP1 PUSH2 0x8B87 JUMP JUMPDEST SWAP3 POP POP DUP2 SWAP1 SSTORE POP PUSH2 0x3217 PUSH0 DUP8 DUP8 DUP8 PUSH2 0x6352 JUMP JUMPDEST PUSH0 PUSH2 0x3222 DUP9 DUP9 PUSH2 0x5213 JUMP JUMPDEST SWAP1 POP DUP1 DUP9 PUSH20 0xFFFFFFFFFFFFFFFFFFFFFFFFFFFFFFFFFFFFFFFF AND PUSH2 0x3244 PUSH2 0x584C JUMP JUMPDEST PUSH20 0xFFFFFFFFFFFFFFFFFFFFFFFFFFFFFFFFFFFFFFFF AND PUSH32 0xFF097C7D8B1957A4FF09EF1361B5FB54DCEDE3941BA836D0BEB9D10BEC725DE6 DUP11 PUSH1 0x40 MLOAD PUSH2 0x3289 SWAP2 SWAP1 PUSH2 0x7990 JUMP JUMPDEST PUSH1 0x40 MLOAD DUP1 SWAP2 SUB SWAP1 LOG4 PUSH2 0x329F DUP9 DUP9 DUP9 DUP9 DUP9 DUP9 PUSH2 0x64A2 JUMP JUMPDEST POP POP POP POP POP POP POP POP JUMP JUMPDEST PUSH1 0x2B PUSH1 0x20 MSTORE DUP1 PUSH0 MSTORE PUSH1 0x40 PUSH0 KECCAK256 PUSH0 SWAP2 POP SWAP1 POP SLOAD DUP2 JUMP JUMPDEST PUSH1 0x9 PUSH0 SWAP1 SLOAD SWAP1 PUSH2 0x100 EXP SWAP1 DIV PUSH20 0xFFFFFFFFFFFFFFFFFFFFFFFFFFFFFFFFFFFFFFFF AND PUSH20 0xFFFFFFFFFFFFFFFFFFFFFFFFFFFFFFFFFFFFFFFF AND CALLER PUSH20 0xFFFFFFFFFFFFFFFFFFFFFFFFFFFFFFFFFFFFFFFF AND EQ PUSH2 0x3344 JUMPI PUSH1 0x40 MLOAD PUSH32 0x2D99739600000000000000000000000000000000000000000000000000000000 DUP2 MSTORE PUSH1 0x4 ADD PUSH1 0x40 MLOAD DUP1 SWAP2 SUB SWAP1 REVERT JUMPDEST PUSH0 DUP2 SWAP1 POP PUSH0 DUP2 PUSH20 0xFFFFFFFFFFFFFFFFFFFFFFFFFFFFFFFFFFFFFFFF AND PUSH4 0x70A08231 ADDRESS PUSH1 0x40 MLOAD DUP3 PUSH4 0xFFFFFFFF AND PUSH1 0xE0 SHL DUP2 MSTORE PUSH1 0x4 ADD PUSH2 0x3382 SWAP2 SWAP1 PUSH2 0x7B3C JUMP JUMPDEST PUSH1 0x20 PUSH1 0x40 MLOAD DUP1 DUP4 SUB DUP2 DUP7 GAS STATICCALL ISZERO DUP1 ISZERO PUSH2 0x339D JUMPI RETURNDATASIZE PUSH0 PUSH0 RETURNDATACOPY RETURNDATASIZE PUSH0 REVERT JUMPDEST POP POP POP POP PUSH1 0x40 MLOAD RETURNDATASIZE PUSH1 0x1F NOT PUSH1 0x1F DUP3 ADD AND DUP3 ADD DUP1 PUSH1 0x40 MSTORE POP DUP2 ADD SWAP1 PUSH2 0x33C1 SWAP2 SWAP1 PUSH2 0x90BD JUMP JUMPDEST SWAP1 POP PUSH0 DUP2 GT PUSH2 0x3405 JUMPI PUSH1 0x40 MLOAD PUSH32 0x8C379A000000000000000000000000000000000000000000000000000000000 DUP2 MSTORE PUSH1 0x4 ADD PUSH2 0x33FC SWAP1 PUSH2 0x9D41 JUMP JUMPDEST PUSH1 0x40 MLOAD DUP1 SWAP2 SUB SWAP1 REVERT JUMPDEST PUSH0 DUP2 GT PUSH2 0x3447 JUMPI PUSH1 0x40 MLOAD PUSH32 0x8C379A000000000000000000000000000000000000000000000000000000000 DUP2 MSTORE PUSH1 0x4 ADD PUSH2 0x343E SWAP1 PUSH2 0x9D41 JUMP JUMPDEST PUSH1 0x40 MLOAD DUP1 SWAP2 SUB SWAP1 REVERT JUMPDEST DUP2 PUSH20 0xFFFFFFFFFFFFFFFFFFFFFFFFFFFFFFFFFFFFFFFF AND PUSH4 0xA9059CBB CALLER DUP4 PUSH1 0x40 MLOAD DUP4 PUSH4 0xFFFFFFFF AND PUSH1 0xE0 SHL DUP2 MSTORE PUSH1 0x4 ADD PUSH2 0x3482 SWAP3 SWAP2 SWAP1 PUSH2 0x7EA1 JUMP JUMPDEST PUSH1 0x20 PUSH1 0x40 MLOAD DUP1 DUP4 SUB DUP2 PUSH0 DUP8 GAS CALL ISZERO DUP1 ISZERO PUSH2 0x349E JUMPI RETURNDATASIZE PUSH0 PUSH0 RETURNDATACOPY RETURNDATASIZE PUSH0 REVERT JUMPDEST POP POP POP POP PUSH1 0x40 MLOAD RETURNDATASIZE PUSH1 0x1F NOT PUSH1 0x1F DUP3 ADD AND DUP3 ADD DUP1 PUSH1 0x40 MSTORE POP DUP2 ADD SWAP1 PUSH2 0x34C2 SWAP2 SWAP1 PUSH2 0x9199 JUMP JUMPDEST PUSH2 0x3501 JUMPI PUSH1 0x40 MLOAD PUSH32 0x8C379A000000000000000000000000000000000000000000000000000000000 DUP2 MSTORE PUSH1 0x4 ADD PUSH2 0x34F8 SWAP1 PUSH2 0x920E JUMP JUMPDEST PUSH1 0x40 MLOAD DUP1 SWAP2 SUB SWAP1 REVERT JUMPDEST CALLER PUSH20 0xFFFFFFFFFFFFFFFFFFFFFFFFFFFFFFFFFFFFFFFF AND PUSH32 0x8210728E7C071F615B840EE026032693858FBCD5E5359E67E438C890F59E5620 DUP5 DUP4 PUSH1 0x40 MLOAD PUSH2 0x3549 SWAP3 SWAP2 SWAP1 PUSH2 0x7EA1 JUMP JUMPDEST PUSH1 0x40 MLOAD DUP1 SWAP2 SUB SWAP1 LOG2 POP POP POP JUMP JUMPDEST PUSH0 PUSH1 0x9 PUSH0 SWAP1 SLOAD SWAP1 PUSH2 0x100 EXP SWAP1 DIV PUSH20 0xFFFFFFFFFFFFFFFFFFFFFFFFFFFFFFFFFFFFFFFF AND SWAP1 POP SWAP1 JUMP JUMPDEST PUSH1 0x1D SLOAD DUP2 JUMP JUMPDEST PUSH2 0x358C PUSH2 0x64AA JUMP JUMPDEST PUSH2 0x35C2 JUMPI PUSH1 0x40 MLOAD PUSH32 0x9F7F092500000000000000000000000000000000000000000000000000000000 DUP2 MSTORE PUSH1 0x4 ADD PUSH1 0x40 MLOAD DUP1 SWAP2 SUB SWAP1 REVERT JUMPDEST PUSH2 0x35CB DUP2 PUSH2 0x64E6 JUMP JUMPDEST POP JUMP JUMPDEST PUSH1 0x60 PUSH1 0x3 DUP1 SLOAD PUSH2 0x35DD SWAP1 PUSH2 0x8AC2 JUMP JUMPDEST DUP1 PUSH1 0x1F ADD PUSH1 0x20 DUP1 SWAP2 DIV MUL PUSH1 0x20 ADD PUSH1 0x40 MLOAD SWAP1 DUP2 ADD PUSH1 0x40 MSTORE DUP1 SWAP3 SWAP2 SWAP1 DUP2 DUP2 MSTORE PUSH1 0x20 ADD DUP3 DUP1 SLOAD PUSH2 0x3609 SWAP1 PUSH2 0x8AC2 JUMP JUMPDEST DUP1 ISZERO PUSH2 0x3654 JUMPI DUP1 PUSH1 0x1F LT PUSH2 0x362B JUMPI PUSH2 0x100 DUP1 DUP4 SLOAD DIV MUL DUP4 MSTORE SWAP2 PUSH1 0x20 ADD SWAP2 PUSH2 0x3654 JUMP JUMPDEST DUP3 ADD SWAP2 SWAP1 PUSH0 MSTORE PUSH1 0x20 PUSH0 KECCAK256 SWAP1 JUMPDEST DUP2 SLOAD DUP2 MSTORE SWAP1 PUSH1 0x1 ADD SWAP1 PUSH1 0x20 ADD DUP1 DUP4 GT PUSH2 0x3637 JUMPI DUP3 SWAP1 SUB PUSH1 0x1F AND DUP3 ADD SWAP2 JUMPDEST POP POP POP POP POP SWAP1 POP SWAP1 JUMP JUMPDEST PUSH1 0x28 PUSH1 0x20 MSTORE DUP1 PUSH0 MSTORE PUSH1 0x40 PUSH0 KECCAK256 PUSH0 SWAP2 POP SWAP1 POP DUP1 SLOAD PUSH2 0x367A SWAP1 PUSH2 0x8AC2 JUMP JUMPDEST DUP1 PUSH1 0x1F ADD PUSH1 0x20 DUP1 SWAP2 DIV MUL PUSH1 0x20 ADD PUSH1 0x40 MLOAD SWAP1 DUP2 ADD PUSH1 0x40 MSTORE DUP1 SWAP3 SWAP2 SWAP1 DUP2 DUP2 MSTORE PUSH1 0x20 ADD DUP3 DUP1 SLOAD PUSH2 0x36A6 SWAP1 PUSH2 0x8AC2 JUMP JUMPDEST DUP1 ISZERO PUSH2 0x36F1 JUMPI DUP1 PUSH1 0x1F LT PUSH2 0x36C8 JUMPI PUSH2 0x100 DUP1 DUP4 SLOAD DIV MUL DUP4 MSTORE SWAP2 PUSH1 0x20 ADD SWAP2 PUSH2 0x36F1 JUMP JUMPDEST DUP3 ADD SWAP2 SWAP1 PUSH0 MSTORE PUSH1 0x20 PUSH0 KECCAK256 SWAP1 JUMPDEST DUP2 SLOAD DUP2 MSTORE SWAP1 PUSH1 0x1 ADD SWAP1 PUSH1 0x20 ADD DUP1 DUP4 GT PUSH2 0x36D4 JUMPI DUP3 SWAP1 SUB PUSH1 0x1F AND DUP3 ADD SWAP2 JUMPDEST POP POP POP POP POP DUP2 JUMP JUMPDEST PUSH2 0x3701 PUSH2 0x5C21 JUMP JUMPDEST PUSH2 0x3737 JUMPI PUSH1 0x40 MLOAD PUSH32 0xDF5C6B0200000000000000000000000000000000000000000000000000000000 DUP2 MSTORE PUSH1 0x4 ADD PUSH1 0x40 MLOAD DUP1 SWAP2 SUB SWAP1 REVERT JUMPDEST PUSH2 0x3742 DUP4 DUP4 DUP4 PUSH2 0x65BF JUMP JUMPDEST POP POP POP JUMP JUMPDEST PUSH1 0x60 PUSH0 PUSH1 0x11 PUSH0 DUP7 DUP2 MSTORE PUSH1 0x20 ADD SWAP1 DUP2 MSTORE PUSH1 0x20 ADD PUSH0 KECCAK256 DUP1 SLOAD PUSH2 0x3766 SWAP1 PUSH2 0x8AC2 JUMP JUMPDEST DUP1 PUSH1 0x1F ADD PUSH1 0x20 DUP1 SWAP2 DIV MUL PUSH1 0x20 ADD PUSH1 0x40 MLOAD SWAP1 DUP2 ADD PUSH1 0x40 MSTORE DUP1 SWAP3 SWAP2 SWAP1 DUP2 DUP2 MSTORE PUSH1 0x20 ADD DUP3 DUP1 SLOAD PUSH2 0x3792 SWAP1 PUSH2 0x8AC2 JUMP JUMPDEST DUP1 ISZERO PUSH2 0x37DD JUMPI DUP1 PUSH1 0x1F LT PUSH2 0x37B4 JUMPI PUSH2 0x100 DUP1 DUP4 SLOAD DIV MUL DUP4 MSTORE SWAP2 PUSH1 0x20 ADD SWAP2 PUSH2 0x37DD JUMP JUMPDEST DUP3 ADD SWAP2 SWAP1 PUSH0 MSTORE PUSH1 0x20 PUSH0 KECCAK256 SWAP1 JUMPDEST DUP2 SLOAD DUP2 MSTORE SWAP1 PUSH1 0x1 ADD SWAP1 PUSH1 0x20 ADD DUP1 DUP4 GT PUSH2 0x37C0 JUMPI DUP3 SWAP1 SUB PUSH1 0x1F AND DUP3 ADD SWAP2 JUMPDEST POP POP POP POP POP SWAP1 POP PUSH0 DUP2 MLOAD SUB PUSH2 0x381E JUMPI PUSH1 0x40 MLOAD PUSH32 0x5D0580B300000000000000000000000000000000000000000000000000000000 DUP2 MSTORE PUSH1 0x4 ADD PUSH1 0x40 MLOAD DUP1 SWAP2 SUB SWAP1 REVERT JUMPDEST PUSH0 PUSH0 DUP3 DUP1 PUSH1 0x20 ADD SWAP1 MLOAD DUP2 ADD SWAP1 PUSH2 0x3834 SWAP2 SWAP1 PUSH2 0x9DE1 JUMP JUMPDEST SWAP2 POP SWAP2 POP PUSH2 0x3843 DUP3 DUP8 DUP8 PUSH2 0x48BD JUMP JUMPDEST SWAP4 POP DUP1 DUP5 DUP8 DUP8 CHAINID PUSH1 0x40 MLOAD PUSH1 0x20 ADD PUSH2 0x385D SWAP5 SWAP4 SWAP3 SWAP2 SWAP1 PUSH2 0x9E5F JUMP JUMPDEST PUSH1 0x40 MLOAD PUSH1 0x20 DUP2 DUP4 SUB SUB DUP2 MSTORE SWAP1 PUSH1 0x40 MSTORE DUP1 MLOAD SWAP1 PUSH1 0x20 ADD KECCAK256 EQ PUSH2 0x38E3 JUMPI DUP1 DUP5 DUP8 DUP8 CHAINID PUSH1 0x40 MLOAD PUSH1 0x20 ADD PUSH2 0x3890 SWAP5 SWAP4 SWAP3 SWAP2 SWAP1 PUSH2 0x9E5F JUMP JUMPDEST PUSH1 0x40 MLOAD PUSH1 0x20 DUP2 DUP4 SUB SUB DUP2 MSTORE SWAP1 PUSH1 0x40 MSTORE DUP1 MLOAD SWAP1 PUSH1 0x20 ADD KECCAK256 PUSH1 0x40 MLOAD PUSH32 0xCD915D3C00000000000000000000000000000000000000000000000000000000 DUP2 MSTORE PUSH1 0x4 ADD PUSH2 0x38DA SWAP3 SWAP2 SWAP1 PUSH2 0x9E95 JUMP JUMPDEST PUSH1 0x40 MLOAD DUP1 SWAP2 SUB SWAP1 REVERT JUMPDEST POP POP POP SWAP4 SWAP3 POP POP POP JUMP JUMPDEST PUSH1 0x11 PUSH1 0x20 MSTORE DUP1 PUSH0 MSTORE PUSH1 0x40 PUSH0 KECCAK256 PUSH0 SWAP2 POP SWAP1 POP DUP1 SLOAD PUSH2 0x3909 SWAP1 PUSH2 0x8AC2 JUMP JUMPDEST DUP1 PUSH1 0x1F ADD PUSH1 0x20 DUP1 SWAP2 DIV MUL PUSH1 0x20 ADD PUSH1 0x40 MLOAD SWAP1 DUP2 ADD PUSH1 0x40 MSTORE DUP1 SWAP3 SWAP2 SWAP1 DUP2 DUP2 MSTORE PUSH1 0x20 ADD DUP3 DUP1 SLOAD PUSH2 0x3935 SWAP1 PUSH2 0x8AC2 JUMP JUMPDEST DUP1 ISZERO PUSH2 0x3980 JUMPI DUP1 PUSH1 0x1F LT PUSH2 0x3957 JUMPI PUSH2 0x100 DUP1 DUP4 SLOAD DIV MUL DUP4 MSTORE SWAP2 PUSH1 0x20 ADD SWAP2 PUSH2 0x3980 JUMP JUMPDEST DUP3 ADD SWAP2 SWAP1 PUSH0 MSTORE PUSH1 0x20 PUSH0 KECCAK256 SWAP1 JUMPDEST DUP2 SLOAD DUP2 MSTORE SWAP1 PUSH1 0x1 ADD SWAP1 PUSH1 0x20 ADD DUP1 DUP4 GT PUSH2 0x3963 JUMPI DUP3 SWAP1 SUB PUSH1 0x1F AND DUP3 ADD SWAP2 JUMPDEST POP POP POP POP POP DUP2 JUMP JUMPDEST PUSH2 0x3990 PUSH2 0x5079 JUMP JUMPDEST PUSH20 0xFFFFFFFFFFFFFFFFFFFFFFFFFFFFFFFFFFFFFFFF AND DUP3 PUSH20 0xFFFFFFFFFFFFFFFFFFFFFFFFFFFFFFFFFFFFFFFF AND SUB PUSH2 0x39F4 JUMPI PUSH1 0x40 MLOAD PUSH32 0xB06307DB00000000000000000000000000000000000000000000000000000000 DUP2 MSTORE PUSH1 0x4 ADD PUSH1 0x40 MLOAD DUP1 SWAP2 SUB SWAP1 REVERT JUMPDEST DUP1 PUSH1 0x7 PUSH0 PUSH2 0x3A00 PUSH2 0x5079 JUMP JUMPDEST PUSH20 0xFFFFFFFFFFFFFFFFFFFFFFFFFFFFFFFFFFFFFFFF AND PUSH20 0xFFFFFFFFFFFFFFFFFFFFFFFFFFFFFFFFFFFFFFFF AND DUP2 MSTORE PUSH1 0x20 ADD SWAP1 DUP2 MSTORE PUSH1 0x20 ADD PUSH0 KECCAK256 PUSH0 DUP5 PUSH20 0xFFFFFFFFFFFFFFFFFFFFFFFFFFFFFFFFFFFFFFFF AND PUSH20 0xFFFFFFFFFFFFFFFFFFFFFFFFFFFFFFFFFFFFFFFF AND DUP2 MSTORE PUSH1 0x20 ADD SWAP1 DUP2 MSTORE PUSH1 0x20 ADD PUSH0 KECCAK256 PUSH0 PUSH2 0x100 EXP DUP2 SLOAD DUP2 PUSH1 0xFF MUL NOT AND SWAP1 DUP4 ISZERO ISZERO MUL OR SWAP1 SSTORE POP DUP2 PUSH20 0xFFFFFFFFFFFFFFFFFFFFFFFFFFFFFFFFFFFFFFFF AND PUSH2 0x3AA9 PUSH2 0x5079 JUMP JUMPDEST PUSH20 0xFFFFFFFFFFFFFFFFFFFFFFFFFFFFFFFFFFFFFFFF AND PUSH32 0x17307EAB39AB6107E8899845AD3D59BD9653F200F220920489CA2B5937696C31 DUP4 PUSH1 0x40 MLOAD PUSH2 0x3AEE SWAP2 SWAP1 PUSH2 0x7A54 JUMP JUMPDEST PUSH1 0x40 MLOAD DUP1 SWAP2 SUB SWAP1 LOG3 POP POP JUMP JUMPDEST PUSH1 0x21 SLOAD DUP2 JUMP JUMPDEST PUSH1 0x60 DUP3 DUP3 SWAP1 POP PUSH8 0xFFFFFFFFFFFFFFFF DUP2 GT ISZERO PUSH2 0x3B1F JUMPI PUSH2 0x3B1E PUSH2 0x7C1A JUMP JUMPDEST JUMPDEST PUSH1 0x40 MLOAD SWAP1 DUP1 DUP3 MSTORE DUP1 PUSH1 0x20 MUL PUSH1 0x20 ADD DUP3 ADD PUSH1 0x40 MSTORE DUP1 ISZERO PUSH2 0x3B52 JUMPI DUP2 PUSH1 0x20 ADD JUMPDEST PUSH1 0x60 DUP2 MSTORE PUSH1 0x20 ADD SWAP1 PUSH1 0x1 SWAP1 SUB SWAP1 DUP2 PUSH2 0x3B3D JUMPI SWAP1 POP JUMPDEST POP SWAP1 POP PUSH0 PUSH2 0x3B5E PUSH2 0x5079 JUMP JUMPDEST SWAP1 POP PUSH0 DUP2 PUSH20 0xFFFFFFFFFFFFFFFFFFFFFFFFFFFFFFFFFFFFFFFF AND CALLER PUSH20 0xFFFFFFFFFFFFFFFFFFFFFFFFFFFFFFFFFFFFFFFF AND EQ ISZERO SWAP1 POP PUSH0 PUSH0 SWAP1 POP JUMPDEST DUP6 DUP6 SWAP1 POP DUP2 LT ISZERO PUSH2 0x3CB8 JUMPI DUP2 ISZERO PUSH2 0x3C1C JUMPI PUSH2 0x3BF9 ADDRESS DUP8 DUP8 DUP5 DUP2 DUP2 LT PUSH2 0x3BC0 JUMPI PUSH2 0x3BBF PUSH2 0x935E JUMP JUMPDEST JUMPDEST SWAP1 POP PUSH1 0x20 MUL DUP2 ADD SWAP1 PUSH2 0x3BD2 SWAP2 SWAP1 PUSH2 0x9EBC JUMP JUMPDEST DUP7 PUSH1 0x40 MLOAD PUSH1 0x20 ADD PUSH2 0x3BE5 SWAP4 SWAP3 SWAP2 SWAP1 PUSH2 0x9F1E JUMP JUMPDEST PUSH1 0x40 MLOAD PUSH1 0x20 DUP2 DUP4 SUB SUB DUP2 MSTORE SWAP1 PUSH1 0x40 MSTORE PUSH2 0x66EB JUMP JUMPDEST DUP5 DUP3 DUP2 MLOAD DUP2 LT PUSH2 0x3C0C JUMPI PUSH2 0x3C0B PUSH2 0x935E JUMP JUMPDEST JUMPDEST PUSH1 0x20 MUL PUSH1 0x20 ADD ADD DUP2 SWAP1 MSTORE POP PUSH2 0x3CAB JUMP JUMPDEST PUSH2 0x3C8C ADDRESS DUP8 DUP8 DUP5 DUP2 DUP2 LT PUSH2 0x3C33 JUMPI PUSH2 0x3C32 PUSH2 0x935E JUMP JUMPDEST JUMPDEST SWAP1 POP PUSH1 0x20 MUL DUP2 ADD SWAP1 PUSH2 0x3C45 SWAP2 SWAP1 PUSH2 0x9EBC JUMP JUMPDEST DUP1 DUP1 PUSH1 0x1F ADD PUSH1 0x20 DUP1 SWAP2 DIV MUL PUSH1 0x20 ADD PUSH1 0x40 MLOAD SWAP1 DUP2 ADD PUSH1 0x40 MSTORE DUP1 SWAP4 SWAP3 SWAP2 SWAP1 DUP2 DUP2 MSTORE PUSH1 0x20 ADD DUP4 DUP4 DUP1 DUP3 DUP5 CALLDATACOPY PUSH0 DUP2 DUP5 ADD MSTORE PUSH1 0x1F NOT PUSH1 0x1F DUP3 ADD AND SWAP1 POP DUP1 DUP4 ADD SWAP3 POP POP POP POP POP POP POP PUSH2 0x66EB JUMP JUMPDEST DUP5 DUP3 DUP2 MLOAD DUP2 LT PUSH2 0x3C9F JUMPI PUSH2 0x3C9E PUSH2 0x935E JUMP JUMPDEST JUMPDEST PUSH1 0x20 MUL PUSH1 0x20 ADD ADD DUP2 SWAP1 MSTORE POP JUMPDEST DUP1 DUP1 PUSH1 0x1 ADD SWAP2 POP POP PUSH2 0x3B98 JUMP JUMPDEST POP POP POP SWAP3 SWAP2 POP POP JUMP JUMPDEST PUSH0 PUSH0 SLOAD SWAP1 POP SWAP1 JUMP JUMPDEST PUSH0 PUSH0 PUSH1 0xA PUSH0 SWAP1 SLOAD SWAP1 PUSH2 0x100 EXP SWAP1 DIV PUSH20 0xFFFFFFFFFFFFFFFFFFFFFFFFFFFFFFFFFFFFFFFF AND PUSH1 0xA PUSH1 0x14 SWAP1 SLOAD SWAP1 PUSH2 0x100 EXP SWAP1 DIV PUSH2 0xFFFF AND SWAP2 POP SWAP2 POP SWAP1 SWAP2 JUMP JUMPDEST PUSH2 0x3D11 DUP5 DUP5 DUP5 PUSH2 0x537A JUMP JUMPDEST PUSH2 0x3D30 DUP4 PUSH20 0xFFFFFFFFFFFFFFFFFFFFFFFFFFFFFFFFFFFFFFFF AND PUSH2 0x6718 JUMP JUMPDEST ISZERO PUSH2 0x3D78 JUMPI PUSH2 0x3D41 DUP5 DUP5 DUP5 DUP5 PUSH2 0x673A JUMP JUMPDEST PUSH2 0x3D77 JUMPI PUSH1 0x40 MLOAD PUSH32 0xD1A57ED600000000000000000000000000000000000000000000000000000000 DUP2 MSTORE PUSH1 0x4 ADD PUSH1 0x40 MLOAD DUP1 SWAP2 SUB SWAP1 REVERT JUMPDEST JUMPDEST POP POP POP POP JUMP JUMPDEST PUSH1 0x9 PUSH0 SWAP1 SLOAD SWAP1 PUSH2 0x100 EXP SWAP1 DIV PUSH20 0xFFFFFFFFFFFFFFFFFFFFFFFFFFFFFFFFFFFFFFFF AND PUSH20 0xFFFFFFFFFFFFFFFFFFFFFFFFFFFFFFFFFFFFFFFF AND CALLER PUSH20 0xFFFFFFFFFFFFFFFFFFFFFFFFFFFFFFFFFFFFFFFF AND EQ PUSH2 0x3E04 JUMPI PUSH1 0x40 MLOAD PUSH32 0x2D99739600000000000000000000000000000000000000000000000000000000 DUP2 MSTORE PUSH1 0x4 ADD PUSH1 0x40 MLOAD DUP1 SWAP2 SUB SWAP1 REVERT JUMPDEST DUP1 MLOAD DUP3 MLOAD EQ PUSH2 0x3E48 JUMPI PUSH1 0x40 MLOAD PUSH32 0x8C379A000000000000000000000000000000000000000000000000000000000 DUP2 MSTORE PUSH1 0x4 ADD PUSH2 0x3E3F SWAP1 PUSH2 0x9FB7 JUMP JUMPDEST PUSH1 0x40 MLOAD DUP1 SWAP2 SUB SWAP1 REVERT JUMPDEST PUSH0 PUSH0 SWAP1 POP JUMPDEST DUP3 MLOAD DUP2 LT ISZERO PUSH2 0x3EDB JUMPI DUP3 DUP2 DUP2 MLOAD DUP2 LT PUSH2 0x3E69 JUMPI PUSH2 0x3E68 PUSH2 0x935E JUMP JUMPDEST JUMPDEST PUSH1 0x20 MUL PUSH1 0x20 ADD ADD MLOAD PUSH1 0x25 PUSH0 PUSH1 0x1 DUP5 PUSH2 0x3E81 SWAP2 SWAP1 PUSH2 0x8B87 JUMP JUMPDEST DUP2 MSTORE PUSH1 0x20 ADD SWAP1 DUP2 MSTORE PUSH1 0x20 ADD PUSH0 KECCAK256 DUP2 SWAP1 SSTORE POP DUP2 DUP2 DUP2 MLOAD DUP2 LT PUSH2 0x3EA5 JUMPI PUSH2 0x3EA4 PUSH2 0x935E JUMP JUMPDEST JUMPDEST PUSH1 0x20 MUL PUSH1 0x20 ADD ADD MLOAD PUSH1 0x24 PUSH0 PUSH1 0x1 DUP5 PUSH2 0x3EBD SWAP2 SWAP1 PUSH2 0x8B87 JUMP JUMPDEST DUP2 MSTORE PUSH1 0x20 ADD SWAP1 DUP2 MSTORE PUSH1 0x20 ADD PUSH0 KECCAK256 DUP2 SWAP1 SSTORE POP DUP1 DUP1 PUSH1 0x1 ADD SWAP2 POP POP PUSH2 0x3E4D JUMP JUMPDEST POP POP POP JUMP JUMPDEST PUSH1 0x60 PUSH2 0x3EEB DUP3 PUSH2 0x5030 JUMP JUMPDEST PUSH2 0x3F2A JUMPI PUSH1 0x40 MLOAD PUSH32 0x8C379A000000000000000000000000000000000000000000000000000000000 DUP2 MSTORE PUSH1 0x4 ADD PUSH2 0x3F21 SWAP1 PUSH2 0xA045 JUMP JUMPDEST PUSH1 0x40 MLOAD DUP1 SWAP2 SUB SWAP1 REVERT JUMPDEST PUSH0 PUSH2 0x3F36 DUP4 PUSH1 0x5 PUSH2 0x6885 JUMP JUMPDEST SWAP1 POP PUSH1 0x23 DUP2 PUSH1 0x40 MLOAD PUSH1 0x20 ADD PUSH2 0x3F4C SWAP3 SWAP2 SWAP1 PUSH2 0xA12D JUMP JUMPDEST PUSH1 0x40 MLOAD PUSH1 0x20 DUP2 DUP4 SUB SUB DUP2 MSTORE SWAP1 PUSH1 0x40 MSTORE SWAP2 POP POP SWAP2 SWAP1 POP JUMP JUMPDEST PUSH1 0x60 PUSH2 0x3F6D PUSH2 0x69BA JUMP JUMPDEST PUSH2 0x3FAC JUMPI PUSH1 0x40 MLOAD PUSH32 0x8C379A000000000000000000000000000000000000000000000000000000000 DUP2 MSTORE PUSH1 0x4 ADD PUSH2 0x3FA3 SWAP1 PUSH2 0xA1A5 JUMP JUMPDEST PUSH1 0x40 MLOAD DUP1 SWAP2 SUB SWAP1 REVERT JUMPDEST PUSH0 PUSH2 0x3FB6 DUP6 PUSH2 0x2205 JUMP JUMPDEST SWAP1 POP PUSH2 0x3FC3 DUP2 DUP6 DUP6 PUSH2 0x3747 JUMP JUMPDEST SWAP2 POP PUSH2 0x3FDD DUP2 PUSH1 0x40 MLOAD DUP1 PUSH1 0x20 ADD PUSH1 0x40 MSTORE DUP1 PUSH0 DUP2 MSTORE POP PUSH2 0x69F6 JUMP JUMPDEST PUSH2 0x3FE7 DUP2 DUP4 PUSH2 0x6A19 JUMP JUMPDEST DUP5 PUSH32 0x6DF1D8DB2A036436FFE0B2D1833F2C5F1E624818DFCE2578C0FAA4B83EF9998D DUP4 PUSH1 0x40 MLOAD PUSH2 0x4017 SWAP2 SWAP1 PUSH2 0x7ADD JUMP JUMPDEST PUSH1 0x40 MLOAD DUP1 SWAP2 SUB SWAP1 LOG2 POP SWAP4 SWAP3 POP POP POP JUMP JUMPDEST PUSH0 PUSH0 PUSH1 0x24 PUSH0 PUSH1 0x20 SLOAD DUP2 MSTORE PUSH1 0x20 ADD SWAP1 DUP2 MSTORE PUSH1 0x20 ADD PUSH0 KECCAK256 SLOAD SWAP1 POP PUSH0 PUSH1 0x2E PUSH0 SWAP1 SLOAD SWAP1 PUSH2 0x100 EXP SWAP1 DIV PUSH20 0xFFFFFFFFFFFFFFFFFFFFFFFFFFFFFFFFFFFFFFFF AND PUSH20 0xFFFFFFFFFFFFFFFFFFFFFFFFFFFFFFFFFFFFFFFF AND PUSH4 0xFEAF968C PUSH1 0x40 MLOAD DUP2 PUSH4 0xFFFFFFFF AND PUSH1 0xE0 SHL DUP2 MSTORE PUSH1 0x4 ADD PUSH1 0xA0 PUSH1 0x40 MLOAD DUP1 DUP4 SUB DUP2 DUP7 GAS STATICCALL ISZERO DUP1 ISZERO PUSH2 0x40AA JUMPI RETURNDATASIZE PUSH0 PUSH0 RETURNDATACOPY RETURNDATASIZE PUSH0 REVERT JUMPDEST POP POP POP POP PUSH1 0x40 MLOAD RETURNDATASIZE PUSH1 0x1F NOT PUSH1 0x1F DUP3 ADD AND DUP3 ADD DUP1 PUSH1 0x40 MSTORE POP DUP2 ADD SWAP1 PUSH2 0x40CE SWAP2 SWAP1 PUSH2 0xA235 JUMP JUMPDEST POP POP POP SWAP2 POP POP PUSH0 DUP2 SGT PUSH2 0x4116 JUMPI PUSH1 0x40 MLOAD PUSH32 0x8C379A000000000000000000000000000000000000000000000000000000000 DUP2 MSTORE PUSH1 0x4 ADD PUSH2 0x410D SWAP1 PUSH2 0xA2F6 JUMP JUMPDEST PUSH1 0x40 MLOAD DUP1 SWAP2 SUB SWAP1 REVERT JUMPDEST PUSH0 PUSH4 0x5F5E100 DUP4 DUP4 PUSH2 0x4128 SWAP2 SWAP1 PUSH2 0x8E38 JUMP JUMPDEST PUSH2 0x4132 SWAP2 SWAP1 PUSH2 0x8EA6 JUMP JUMPDEST SWAP1 POP PUSH0 PUSH20 0xFFFFFFFFFFFFFFFFFFFFFFFFFFFFFFFFFFFFFFFF AND DUP6 PUSH20 0xFFFFFFFFFFFFFFFFFFFFFFFFFFFFFFFFFFFFFFFF AND SUB PUSH2 0x4172 JUMPI DUP3 SWAP4 POP POP POP POP PUSH2 0x45C8 JUMP JUMPDEST PUSH20 0xDAC17F958D2EE523A2206206994597C13D831EC7 PUSH20 0xFFFFFFFFFFFFFFFFFFFFFFFFFFFFFFFFFFFFFFFF AND DUP6 PUSH20 0xFFFFFFFFFFFFFFFFFFFFFFFFFFFFFFFFFFFFFFFF AND SUB PUSH2 0x42C5 JUMPI PUSH0 PUSH1 0x2F PUSH0 SWAP1 SLOAD SWAP1 PUSH2 0x100 EXP SWAP1 DIV PUSH20 0xFFFFFFFFFFFFFFFFFFFFFFFFFFFFFFFFFFFFFFFF AND PUSH20 0xFFFFFFFFFFFFFFFFFFFFFFFFFFFFFFFFFFFFFFFF AND PUSH4 0xFEAF968C PUSH1 0x40 MLOAD DUP2 PUSH4 0xFFFFFFFF AND PUSH1 0xE0 SHL DUP2 MSTORE PUSH1 0x4 ADD PUSH1 0xA0 PUSH1 0x40 MLOAD DUP1 DUP4 SUB DUP2 DUP7 GAS STATICCALL ISZERO DUP1 ISZERO PUSH2 0x4224 JUMPI RETURNDATASIZE PUSH0 PUSH0 RETURNDATACOPY RETURNDATASIZE PUSH0 REVERT JUMPDEST POP POP POP POP PUSH1 0x40 MLOAD RETURNDATASIZE PUSH1 0x1F NOT PUSH1 0x1F DUP3 ADD AND DUP3 ADD DUP1 PUSH1 0x40 MSTORE POP DUP2 ADD SWAP1 PUSH2 0x4248 SWAP2 SWAP1 PUSH2 0xA235 JUMP JUMPDEST POP POP POP SWAP2 POP POP PUSH0 DUP2 SGT PUSH2 0x4290 JUMPI PUSH1 0x40 MLOAD PUSH32 0x8C379A000000000000000000000000000000000000000000000000000000000 DUP2 MSTORE PUSH1 0x4 ADD PUSH2 0x4287 SWAP1 PUSH2 0xA35E JUMP JUMPDEST PUSH1 0x40 MLOAD DUP1 SWAP2 SUB SWAP1 REVERT JUMPDEST DUP1 PUSH3 0xF4240 DUP4 PUSH2 0x42A0 SWAP2 SWAP1 PUSH2 0x8E38 JUMP JUMPDEST PUSH2 0x42AA SWAP2 SWAP1 PUSH2 0x8EA6 JUMP JUMPDEST SWAP5 POP PUSH5 0x2540BE400 DUP6 PUSH2 0x42BD SWAP2 SWAP1 PUSH2 0x8EA6 JUMP JUMPDEST SWAP5 POP POP PUSH2 0x45C4 JUMP JUMPDEST PUSH20 0xA0B86991C6218B36C1D19D4A2E9EB0CE3606EB48 PUSH20 0xFFFFFFFFFFFFFFFFFFFFFFFFFFFFFFFFFFFFFFFF AND DUP6 PUSH20 0xFFFFFFFFFFFFFFFFFFFFFFFFFFFFFFFFFFFFFFFF AND SUB PUSH2 0x4418 JUMPI PUSH0 PUSH1 0x30 PUSH0 SWAP1 SLOAD SWAP1 PUSH2 0x100 EXP SWAP1 DIV PUSH20 0xFFFFFFFFFFFFFFFFFFFFFFFFFFFFFFFFFFFFFFFF AND PUSH20 0xFFFFFFFFFFFFFFFFFFFFFFFFFFFFFFFFFFFFFFFF AND PUSH4 0xFEAF968C PUSH1 0x40 MLOAD DUP2 PUSH4 0xFFFFFFFF AND PUSH1 0xE0 SHL DUP2 MSTORE PUSH1 0x4 ADD PUSH1 0xA0 PUSH1 0x40 MLOAD DUP1 DUP4 SUB DUP2 DUP7 GAS STATICCALL ISZERO DUP1 ISZERO PUSH2 0x4377 JUMPI RETURNDATASIZE PUSH0 PUSH0 RETURNDATACOPY RETURNDATASIZE PUSH0 REVERT JUMPDEST POP POP POP POP PUSH1 0x40 MLOAD RETURNDATASIZE PUSH1 0x1F NOT PUSH1 0x1F DUP3 ADD AND DUP3 ADD DUP1 PUSH1 0x40 MSTORE POP DUP2 ADD SWAP1 PUSH2 0x439B SWAP2 SWAP1 PUSH2 0xA235 JUMP JUMPDEST POP POP POP SWAP2 POP POP PUSH0 DUP2 SGT PUSH2 0x43E3 JUMPI PUSH1 0x40 MLOAD PUSH32 0x8C379A000000000000000000000000000000000000000000000000000000000 DUP2 MSTORE PUSH1 0x4 ADD PUSH2 0x43DA SWAP1 PUSH2 0xA3C6 JUMP JUMPDEST PUSH1 0x40 MLOAD DUP1 SWAP2 SUB SWAP1 REVERT JUMPDEST DUP1 PUSH3 0xF4240 DUP4 PUSH2 0x43F3 SWAP2 SWAP1 PUSH2 0x8E38 JUMP JUMPDEST PUSH2 0x43FD SWAP2 SWAP1 PUSH2 0x8EA6 JUMP JUMPDEST SWAP5 POP PUSH5 0x2540BE400 DUP6 PUSH2 0x4410 SWAP2 SWAP1 PUSH2 0x8EA6 JUMP JUMPDEST SWAP5 POP POP PUSH2 0x45C3 JUMP JUMPDEST PUSH20 0x2260FAC5E5542A773AA44FBCFEDF7C193BC2C599 PUSH20 0xFFFFFFFFFFFFFFFFFFFFFFFFFFFFFFFFFFFFFFFF AND DUP6 PUSH20 0xFFFFFFFFFFFFFFFFFFFFFFFFFFFFFFFFFFFFFFFF AND SUB PUSH2 0x4587 JUMPI PUSH0 PUSH1 0x31 PUSH0 SWAP1 SLOAD SWAP1 PUSH2 0x100 EXP SWAP1 DIV PUSH20 0xFFFFFFFFFFFFFFFFFFFFFFFFFFFFFFFFFFFFFFFF AND PUSH20 0xFFFFFFFFFFFFFFFFFFFFFFFFFFFFFFFFFFFFFFFF AND PUSH4 0xFEAF968C PUSH1 0x40 MLOAD DUP2 PUSH4 0xFFFFFFFF AND PUSH1 0xE0 SHL DUP2 MSTORE PUSH1 0x4 ADD PUSH1 0xA0 PUSH1 0x40 MLOAD DUP1 DUP4 SUB DUP2 DUP7 GAS STATICCALL ISZERO DUP1 ISZERO PUSH2 0x44CA JUMPI RETURNDATASIZE PUSH0 PUSH0 RETURNDATACOPY RETURNDATASIZE PUSH0 REVERT JUMPDEST POP POP POP POP PUSH1 0x40 MLOAD RETURNDATASIZE PUSH1 0x1F NOT PUSH1 0x1F DUP3 ADD AND DUP3 ADD DUP1 PUSH1 0x40 MSTORE POP DUP2 ADD SWAP1 PUSH2 0x44EE SWAP2 SWAP1 PUSH2 0xA235 JUMP JUMPDEST POP POP POP SWAP2 POP POP PUSH0 DUP2 SGT PUSH2 0x4536 JUMPI PUSH1 0x40 MLOAD PUSH32 0x8C379A000000000000000000000000000000000000000000000000000000000 DUP2 MSTORE PUSH1 0x4 ADD PUSH2 0x452D SWAP1 PUSH2 0xA42E JUMP JUMPDEST PUSH1 0x40 MLOAD DUP1 SWAP2 SUB SWAP1 REVERT JUMPDEST PUSH0 PUSH1 0x24 PUSH0 PUSH1 0x20 SLOAD DUP2 MSTORE PUSH1 0x20 ADD SWAP1 DUP2 MSTORE PUSH1 0x20 ADD PUSH0 KECCAK256 SLOAD SWAP1 POP DUP2 PUSH4 0x5F5E100 DUP3 PUSH2 0x455E SWAP2 SWAP1 PUSH2 0x8E38 JUMP JUMPDEST PUSH2 0x4568 SWAP2 SWAP1 PUSH2 0x8EA6 JUMP JUMPDEST SWAP6 POP PUSH8 0xDE0B6B3A7640000 DUP7 PUSH2 0x457E SWAP2 SWAP1 PUSH2 0x8E38 JUMP JUMPDEST SWAP6 POP POP POP PUSH2 0x45C2 JUMP JUMPDEST PUSH1 0x40 MLOAD PUSH32 0x8C379A000000000000000000000000000000000000000000000000000000000 DUP2 MSTORE PUSH1 0x4 ADD PUSH2 0x45B9 SWAP1 PUSH2 0xA496 JUMP JUMPDEST PUSH1 0x40 MLOAD DUP1 SWAP2 SUB SWAP1 REVERT JUMPDEST JUMPDEST JUMPDEST POP POP POP JUMPDEST SWAP2 SWAP1 POP JUMP JUMPDEST PUSH0 PUSH0 DUP4 DUP4 SWAP1 POP GT ISZERO PUSH2 0x4662 JUMPI PUSH0 PUSH0 DUP5 DUP5 DUP2 ADD SWAP1 PUSH2 0x45EA SWAP2 SWAP1 PUSH2 0xA4B4 JUMP JUMPDEST SWAP2 POP SWAP2 POP PUSH0 DUP3 MLOAD EQ ISZERO DUP1 ISZERO PUSH2 0x45FF JUMPI POP PUSH0 DUP2 EQ ISZERO JUMPDEST ISZERO PUSH2 0x465F JUMPI PUSH2 0x465E DUP9 PUSH1 0x10 SLOAD PUSH2 0x4615 SWAP2 SWAP1 PUSH2 0x8B87 JUMP JUMPDEST DUP7 DUP7 DUP1 DUP1 PUSH1 0x1F ADD PUSH1 0x20 DUP1 SWAP2 DIV MUL PUSH1 0x20 ADD PUSH1 0x40 MLOAD SWAP1 DUP2 ADD PUSH1 0x40 MSTORE DUP1 SWAP4 SWAP3 SWAP2 SWAP1 DUP2 DUP2 MSTORE PUSH1 0x20 ADD DUP4 DUP4 DUP1 DUP3 DUP5 CALLDATACOPY PUSH0 DUP2 DUP5 ADD MSTORE PUSH1 0x1F NOT PUSH1 0x1F DUP3 ADD AND SWAP1 POP DUP1 DUP4 ADD SWAP3 POP POP POP POP POP POP POP PUSH2 0x69F6 JUMP JUMPDEST JUMPDEST POP POP JUMPDEST PUSH2 0x466F DUP7 DUP7 DUP7 DUP7 DUP7 PUSH2 0x6ADD JUMP JUMPDEST SWAP1 POP SWAP6 SWAP5 POP POP POP POP POP JUMP JUMPDEST PUSH1 0x60 PUSH2 0x46C1 PUSH1 0x2A PUSH0 DUP5 PUSH20 0xFFFFFFFFFFFFFFFFFFFFFFFFFFFFFFFFFFFFFFFF AND PUSH20 0xFFFFFFFFFFFFFFFFFFFFFFFFFFFFFFFFFFFFFFFF AND DUP2 MSTORE PUSH1 0x20 ADD SWAP1 DUP2 MSTORE PUSH1 0x20 ADD PUSH0 KECCAK256 PUSH2 0x6C17 JUMP JUMPDEST SWAP1 POP SWAP2 SWAP1 POP JUMP JUMPDEST PUSH1 0x12 DUP1 PUSH0 ADD SLOAD SWAP1 DUP1 PUSH1 0x1 ADD SLOAD SWAP1 DUP1 PUSH1 0x2 ADD SLOAD SWAP1 DUP1 PUSH1 0x3 ADD SLOAD SWAP1 DUP1 PUSH1 0x4 ADD SLOAD SWAP1 DUP1 PUSH1 0x5 ADD SLOAD SWAP1 DUP1 PUSH1 0x6 ADD PUSH0 SWAP1 SLOAD SWAP1 PUSH2 0x100 EXP SWAP1 DIV PUSH20 0xFFFFFFFFFFFFFFFFFFFFFFFFFFFFFFFFFFFFFFFF AND SWAP1 DUP1 PUSH1 0x7 ADD DUP1 SLOAD PUSH2 0x4721 SWAP1 PUSH2 0x8AC2 JUMP JUMPDEST DUP1 PUSH1 0x1F ADD PUSH1 0x20 DUP1 SWAP2 DIV MUL PUSH1 0x20 ADD PUSH1 0x40 MLOAD SWAP1 DUP2 ADD PUSH1 0x40 MSTORE DUP1 SWAP3 SWAP2 SWAP1 DUP2 DUP2 MSTORE PUSH1 0x20 ADD DUP3 DUP1 SLOAD PUSH2 0x474D SWAP1 PUSH2 0x8AC2 JUMP JUMPDEST DUP1 ISZERO PUSH2 0x4798 JUMPI DUP1 PUSH1 0x1F LT PUSH2 0x476F JUMPI PUSH2 0x100 DUP1 DUP4 SLOAD DIV MUL DUP4 MSTORE SWAP2 PUSH1 0x20 ADD SWAP2 PUSH2 0x4798 JUMP JUMPDEST DUP3 ADD SWAP2 SWAP1 PUSH0 MSTORE PUSH1 0x20 PUSH0 KECCAK256 SWAP1 JUMPDEST DUP2 SLOAD DUP2 MSTORE SWAP1 PUSH1 0x1 ADD SWAP1 PUSH1 0x20 ADD DUP1 DUP4 GT PUSH2 0x477B JUMPI DUP3 SWAP1 SUB PUSH1 0x1F AND DUP3 ADD SWAP2 JUMPDEST POP POP POP POP POP SWAP1 POP DUP9 JUMP JUMPDEST PUSH1 0x20 SLOAD DUP2 JUMP JUMPDEST PUSH1 0x29 DUP2 DUP1 MLOAD PUSH1 0x20 DUP2 ADD DUP3 ADD DUP1 MLOAD DUP5 DUP3 MSTORE PUSH1 0x20 DUP4 ADD PUSH1 0x20 DUP6 ADD KECCAK256 DUP2 DUP4 MSTORE DUP1 SWAP6 POP POP POP POP POP POP PUSH0 SWAP2 POP SLOAD SWAP1 PUSH2 0x100 EXP SWAP1 DIV PUSH20 0xFFFFFFFFFFFFFFFFFFFFFFFFFFFFFFFFFFFFFFFF AND DUP2 JUMP JUMPDEST PUSH1 0x22 SLOAD DUP2 JUMP JUMPDEST PUSH1 0x9 PUSH0 SWAP1 SLOAD SWAP1 PUSH2 0x100 EXP SWAP1 DIV PUSH20 0xFFFFFFFFFFFFFFFFFFFFFFFFFFFFFFFFFFFFFFFF AND PUSH20 0xFFFFFFFFFFFFFFFFFFFFFFFFFFFFFFFFFFFFFFFF AND CALLER PUSH20 0xFFFFFFFFFFFFFFFFFFFFFFFFFFFFFFFFFFFFFFFF AND EQ PUSH2 0x487C JUMPI PUSH1 0x40 MLOAD PUSH32 0x2D99739600000000000000000000000000000000000000000000000000000000 DUP2 MSTORE PUSH1 0x4 ADD PUSH1 0x40 MLOAD DUP1 SWAP2 SUB SWAP1 REVERT JUMPDEST DUP1 PUSH1 0x1F DUP2 SWAP1 SSTORE POP PUSH32 0x792E4B1D9CB03DAC94396717F290AC7220C178B75CF8A3D06614ABCFD10A5EC1 DUP2 PUSH1 0x40 MLOAD PUSH2 0x48B2 SWAP2 SWAP1 PUSH2 0x7990 JUMP JUMPDEST PUSH1 0x40 MLOAD DUP1 SWAP2 SUB SWAP1 LOG1 POP JUMP JUMPDEST PUSH1 0x60 PUSH0 DUP5 MLOAD SWAP1 POP PUSH1 0x40 MLOAD SWAP2 POP PUSH1 0x20 DUP2 DUP4 ADD ADD PUSH1 0x40 MSTORE DUP1 DUP3 MSTORE PUSH0 PUSH0 SWAP1 POP JUMPDEST DUP2 DUP2 LT ISZERO PUSH2 0x493D JUMPI PUSH0 DUP6 DUP6 DUP4 PUSH1 0x40 MLOAD PUSH1 0x20 ADD PUSH2 0x48F8 SWAP4 SWAP3 SWAP2 SWAP1 PUSH2 0xA50E JUMP JUMPDEST PUSH1 0x40 MLOAD PUSH1 0x20 DUP2 DUP4 SUB SUB DUP2 MSTORE SWAP1 PUSH1 0x40 MSTORE DUP1 MLOAD SWAP1 PUSH1 0x20 ADD KECCAK256 SWAP1 POP PUSH0 PUSH1 0x20 DUP4 ADD DUP9 ADD MLOAD SWAP1 POP DUP2 DUP2 XOR SWAP1 POP DUP1 PUSH1 0x20 DUP5 ADD DUP7 ADD MSTORE POP POP PUSH1 0x20 DUP2 PUSH2 0x4936 SWAP2 SWAP1 PUSH2 0x8B87 JUMP JUMPDEST SWAP1 POP PUSH2 0x48DA JUMP JUMPDEST POP POP SWAP4 SWAP3 POP POP POP JUMP JUMPDEST PUSH1 0x8 DUP1 SLOAD PUSH2 0x4953 SWAP1 PUSH2 0x8AC2 JUMP JUMPDEST DUP1 PUSH1 0x1F ADD PUSH1 0x20 DUP1 SWAP2 DIV MUL PUSH1 0x20 ADD PUSH1 0x40 MLOAD SWAP1 DUP2 ADD PUSH1 0x40 MSTORE DUP1 SWAP3 SWAP2 SWAP1 DUP2 DUP2 MSTORE PUSH1 0x20 ADD DUP3 DUP1 SLOAD PUSH2 0x497F SWAP1 PUSH2 0x8AC2 JUMP JUMPDEST DUP1 ISZERO PUSH2 0x49CA JUMPI DUP1 PUSH1 0x1F LT PUSH2 0x49A1 JUMPI PUSH2 0x100 DUP1 DUP4 SLOAD DIV MUL DUP4 MSTORE SWAP2 PUSH1 0x20 ADD SWAP2 PUSH2 0x49CA JUMP JUMPDEST DUP3 ADD SWAP2 SWAP1 PUSH0 MSTORE PUSH1 0x20 PUSH0 KECCAK256 SWAP1 JUMPDEST DUP2 SLOAD DUP2 MSTORE SWAP1 PUSH1 0x1 ADD SWAP1 PUSH1 0x20 ADD DUP1 DUP4 GT PUSH2 0x49AD JUMPI DUP3 SWAP1 SUB PUSH1 0x1F AND DUP3 ADD SWAP2 JUMPDEST POP POP POP POP POP DUP2 JUMP JUMPDEST PUSH0 PUSH1 0x7 PUSH0 DUP5 PUSH20 0xFFFFFFFFFFFFFFFFFFFFFFFFFFFFFFFFFFFFFFFF AND PUSH20 0xFFFFFFFFFFFFFFFFFFFFFFFFFFFFFFFFFFFFFFFF AND DUP2 MSTORE PUSH1 0x20 ADD SWAP1 DUP2 MSTORE PUSH1 0x20 ADD PUSH0 KECCAK256 PUSH0 DUP4 PUSH20 0xFFFFFFFFFFFFFFFFFFFFFFFFFFFFFFFFFFFFFFFF AND PUSH20 0xFFFFFFFFFFFFFFFFFFFFFFFFFFFFFFFFFFFFFFFF AND DUP2 MSTORE PUSH1 0x20 ADD SWAP1 DUP2 MSTORE PUSH1 0x20 ADD PUSH0 KECCAK256 PUSH0 SWAP1 SLOAD SWAP1 PUSH2 0x100 EXP SWAP1 DIV PUSH1 0xFF AND SWAP1 POP SWAP3 SWAP2 POP POP JUMP JUMPDEST PUSH0 PUSH0 PUSH1 0x12 PUSH1 0x40 MLOAD DUP1 PUSH2 0x100 ADD PUSH1 0x40 MSTORE SWAP1 DUP2 PUSH0 DUP3 ADD SLOAD DUP2 MSTORE PUSH1 0x20 ADD PUSH1 0x1 DUP3 ADD SLOAD DUP2 MSTORE PUSH1 0x20 ADD PUSH1 0x2 DUP3 ADD SLOAD DUP2 MSTORE PUSH1 0x20 ADD PUSH1 0x3 DUP3 ADD SLOAD DUP2 MSTORE PUSH1 0x20 ADD PUSH1 0x4 DUP3 ADD SLOAD DUP2 MSTORE PUSH1 0x20 ADD PUSH1 0x5 DUP3 ADD SLOAD DUP2 MSTORE PUSH1 0x20 ADD PUSH1 0x6 DUP3 ADD PUSH0 SWAP1 SLOAD SWAP1 PUSH2 0x100 EXP SWAP1 DIV PUSH20 0xFFFFFFFFFFFFFFFFFFFFFFFFFFFFFFFFFFFFFFFF AND PUSH20 0xFFFFFFFFFFFFFFFFFFFFFFFFFFFFFFFFFFFFFFFF AND PUSH20 0xFFFFFFFFFFFFFFFFFFFFFFFFFFFFFFFFFFFFFFFF AND DUP2 MSTORE PUSH1 0x20 ADD PUSH1 0x7 DUP3 ADD DUP1 SLOAD PUSH2 0x4B10 SWAP1 PUSH2 0x8AC2 JUMP JUMPDEST DUP1 PUSH1 0x1F ADD PUSH1 0x20 DUP1 SWAP2 DIV MUL PUSH1 0x20 ADD PUSH1 0x40 MLOAD SWAP1 DUP2 ADD PUSH1 0x40 MSTORE DUP1 SWAP3 SWAP2 SWAP1 DUP2 DUP2 MSTORE PUSH1 0x20 ADD DUP3 DUP1 SLOAD PUSH2 0x4B3C SWAP1 PUSH2 0x8AC2 JUMP JUMPDEST DUP1 ISZERO PUSH2 0x4B87 JUMPI DUP1 PUSH1 0x1F LT PUSH2 0x4B5E JUMPI PUSH2 0x100 DUP1 DUP4 SLOAD DIV MUL DUP4 MSTORE SWAP2 PUSH1 0x20 ADD SWAP2 PUSH2 0x4B87 JUMP JUMPDEST DUP3 ADD SWAP2 SWAP1 PUSH0 MSTORE PUSH1 0x20 PUSH0 KECCAK256 SWAP1 JUMPDEST DUP2 SLOAD DUP2 MSTORE SWAP1 PUSH1 0x1 ADD SWAP1 PUSH1 0x20 ADD DUP1 DUP4 GT PUSH2 0x4B6A JUMPI DUP3 SWAP1 SUB PUSH1 0x1F AND DUP3 ADD SWAP2 JUMPDEST POP POP POP POP POP DUP2 MSTORE POP POP SWAP1 POP PUSH0 DUP2 PUSH1 0x60 ADD MLOAD SWAP1 POP PUSH0 DUP3 PUSH1 0xA0 ADD MLOAD SWAP1 POP PUSH0 DUP4 PUSH1 0xC0 ADD MLOAD SWAP1 POP PUSH0 PUSH0 SHL DUP5 PUSH1 0x80 ADD MLOAD EQ PUSH2 0x4C20 JUMPI PUSH2 0x4C1A DUP7 DUP1 PUSH0 ADD SWAP1 PUSH2 0x4BC9 SWAP2 SWAP1 PUSH2 0xA537 JUMP JUMPDEST DUP7 PUSH1 0x80 ADD MLOAD DUP14 DUP11 PUSH1 0x20 ADD CALLDATALOAD DUP12 PUSH1 0x40 ADD CALLDATALOAD DUP13 PUSH1 0x60 ADD PUSH1 0x20 DUP2 ADD SWAP1 PUSH2 0x4BEC SWAP2 SWAP1 PUSH2 0x7DAA JUMP JUMPDEST PUSH1 0x40 MLOAD PUSH1 0x20 ADD PUSH2 0x4BFF SWAP5 SWAP4 SWAP3 SWAP2 SWAP1 PUSH2 0xA599 JUMP JUMPDEST PUSH1 0x40 MLOAD PUSH1 0x20 DUP2 DUP4 SUB SUB DUP2 MSTORE SWAP1 PUSH1 0x40 MSTORE DUP1 MLOAD SWAP1 PUSH1 0x20 ADD KECCAK256 PUSH2 0x6C36 JUMP JUMPDEST POP DUP1 SWAP6 POP POP JUMPDEST DUP5 ISZERO PUSH2 0x4D0B JUMPI PUSH0 DUP7 PUSH1 0x20 ADD CALLDATALOAD SUB PUSH2 0x4C37 JUMPI DUP3 PUSH2 0x4C3D JUMP JUMPDEST DUP6 PUSH1 0x20 ADD CALLDATALOAD JUMPDEST SWAP3 POP PUSH32 0xFFFFFFFFFFFFFFFFFFFFFFFFFFFFFFFFFFFFFFFFFFFFFFFFFFFFFFFFFFFFFFFF DUP7 PUSH1 0x40 ADD CALLDATALOAD SUB PUSH2 0x4C70 JUMPI DUP2 PUSH2 0x4C76 JUMP JUMPDEST DUP6 PUSH1 0x40 ADD CALLDATALOAD JUMPDEST SWAP2 POP PUSH32 0xFFFFFFFFFFFFFFFFFFFFFFFFFFFFFFFFFFFFFFFFFFFFFFFFFFFFFFFFFFFFFFFF DUP7 PUSH1 0x40 ADD CALLDATALOAD EQ ISZERO DUP1 ISZERO PUSH2 0x4CEA JUMPI POP PUSH0 PUSH20 0xFFFFFFFFFFFFFFFFFFFFFFFFFFFFFFFFFFFFFFFF AND DUP7 PUSH1 0x60 ADD PUSH1 0x20 DUP2 ADD SWAP1 PUSH2 0x4CD1 SWAP2 SWAP1 PUSH2 0x7DAA JUMP JUMPDEST PUSH20 0xFFFFFFFFFFFFFFFFFFFFFFFFFFFFFFFFFFFFFFFF AND EQ ISZERO JUMPDEST PUSH2 0x4CF4 JUMPI DUP1 PUSH2 0x4D08 JUMP JUMPDEST DUP6 PUSH1 0x60 ADD PUSH1 0x20 DUP2 ADD SWAP1 PUSH2 0x4D07 SWAP2 SWAP1 PUSH2 0x7DAA JUMP JUMPDEST JUMPDEST SWAP1 POP JUMPDEST PUSH0 PUSH1 0x1B PUSH0 PUSH1 0x1A SLOAD DUP2 MSTORE PUSH1 0x20 ADD SWAP1 DUP2 MSTORE PUSH1 0x20 ADD PUSH0 KECCAK256 PUSH0 DUP13 PUSH20 0xFFFFFFFFFFFFFFFFFFFFFFFFFFFFFFFFFFFFFFFF AND PUSH20 0xFFFFFFFFFFFFFFFFFFFFFFFFFFFFFFFFFFFFFFFF AND DUP2 MSTORE PUSH1 0x20 ADD SWAP1 DUP2 MSTORE PUSH1 0x20 ADD PUSH0 KECCAK256 SLOAD SWAP1 POP DUP2 PUSH20 0xFFFFFFFFFFFFFFFFFFFFFFFFFFFFFFFFFFFFFFFF AND DUP10 PUSH20 0xFFFFFFFFFFFFFFFFFFFFFFFFFFFFFFFFFFFFFFFF AND EQ ISZERO DUP1 PUSH2 0x4D98 JUMPI POP DUP3 DUP9 EQ ISZERO JUMPDEST ISZERO PUSH2 0x4DE0 JUMPI DUP9 DUP9 DUP4 DUP6 PUSH1 0x40 MLOAD PUSH32 0xF13474E900000000000000000000000000000000000000000000000000000000 DUP2 MSTORE PUSH1 0x4 ADD PUSH2 0x4DD7 SWAP5 SWAP4 SWAP3 SWAP2 SWAP1 PUSH2 0xA5E6 JUMP JUMPDEST PUSH1 0x40 MLOAD DUP1 SWAP2 SUB SWAP1 REVERT JUMPDEST PUSH0 DUP11 EQ DUP1 PUSH2 0x4DF8 JUMPI POP DUP4 DUP2 DUP12 PUSH2 0x4DF6 SWAP2 SWAP1 PUSH2 0x8B87 JUMP JUMPDEST GT JUMPDEST ISZERO PUSH2 0x4E47 JUMPI DUP4 DUP2 DUP12 PUSH2 0x4E0A SWAP2 SWAP1 PUSH2 0x8B87 JUMP JUMPDEST PUSH1 0x40 MLOAD PUSH32 0x9E7762DB00000000000000000000000000000000000000000000000000000000 DUP2 MSTORE PUSH1 0x4 ADD PUSH2 0x4E3E SWAP3 SWAP2 SWAP1 PUSH2 0xA629 JUMP JUMPDEST PUSH1 0x40 MLOAD DUP1 SWAP2 SUB SWAP1 REVERT JUMPDEST DUP5 PUSH1 0x20 ADD MLOAD DUP11 DUP7 PUSH1 0x40 ADD MLOAD PUSH2 0x4E5C SWAP2 SWAP1 PUSH2 0x8B87 JUMP JUMPDEST GT ISZERO PUSH2 0x4EB4 JUMPI DUP5 PUSH1 0x20 ADD MLOAD DUP11 DUP7 PUSH1 0x40 ADD MLOAD PUSH2 0x4E77 SWAP2 SWAP1 PUSH2 0x8B87 JUMP JUMPDEST PUSH1 0x40 MLOAD PUSH32 0xFE381CC900000000000000000000000000000000000000000000000000000000 DUP2 MSTORE PUSH1 0x4 ADD PUSH2 0x4EAB SWAP3 SWAP2 SWAP1 PUSH2 0xA629 JUMP JUMPDEST PUSH1 0x40 MLOAD DUP1 SWAP2 SUB SWAP1 REVERT JUMPDEST TIMESTAMP DUP6 PUSH0 ADD MLOAD GT ISZERO PUSH2 0x4F01 JUMPI DUP5 PUSH0 ADD MLOAD TIMESTAMP PUSH1 0x40 MLOAD PUSH32 0x4562091E00000000000000000000000000000000000000000000000000000000 DUP2 MSTORE PUSH1 0x4 ADD PUSH2 0x4EF8 SWAP3 SWAP2 SWAP1 PUSH2 0xA629 JUMP JUMPDEST PUSH1 0x40 MLOAD DUP1 SWAP2 SUB SWAP1 REVERT JUMPDEST POP POP POP POP POP SWAP6 SWAP5 POP POP POP POP POP JUMP JUMPDEST PUSH1 0x26 PUSH1 0x20 MSTORE DUP1 PUSH0 MSTORE PUSH1 0x40 PUSH0 KECCAK256 PUSH0 SWAP2 POP SWAP1 POP SLOAD DUP2 JUMP JUMPDEST PUSH1 0x9 PUSH0 SWAP1 SLOAD SWAP1 PUSH2 0x100 EXP SWAP1 DIV PUSH20 0xFFFFFFFFFFFFFFFFFFFFFFFFFFFFFFFFFFFFFFFF AND PUSH20 0xFFFFFFFFFFFFFFFFFFFFFFFFFFFFFFFFFFFFFFFF AND CALLER PUSH20 0xFFFFFFFFFFFFFFFFFFFFFFFFFFFFFFFFFFFFFFFF AND EQ PUSH2 0x4FAA JUMPI PUSH1 0x40 MLOAD PUSH32 0x2D99739600000000000000000000000000000000000000000000000000000000 DUP2 MSTORE PUSH1 0x4 ADD PUSH1 0x40 MLOAD DUP1 SWAP2 SUB SWAP1 REVERT JUMPDEST PUSH1 0x21 SLOAD DUP2 LT ISZERO PUSH2 0x4FEF JUMPI PUSH1 0x40 MLOAD PUSH32 0x8C379A000000000000000000000000000000000000000000000000000000000 DUP2 MSTORE PUSH1 0x4 ADD PUSH2 0x4FE6 SWAP1 PUSH2 0xA6C0 JUMP JUMPDEST PUSH1 0x40 MLOAD DUP1 SWAP2 SUB SWAP1 REVERT JUMPDEST DUP1 PUSH1 0x1D DUP2 SWAP1 SSTORE POP PUSH32 0xE876C27307B9E6AA2B15A7730A0DFD41BE0F2C7A7C39BC08E89DF77A548FB794 DUP2 PUSH1 0x40 MLOAD PUSH2 0x5025 SWAP2 SWAP1 PUSH2 0x7990 JUMP JUMPDEST PUSH1 0x40 MLOAD DUP1 SWAP2 SUB SWAP1 LOG1 POP JUMP JUMPDEST PUSH0 DUP2 PUSH2 0x503A PUSH2 0x5373 JUMP JUMPDEST GT ISZERO DUP1 ISZERO PUSH2 0x5048 JUMPI POP PUSH0 SLOAD DUP3 LT JUMPDEST DUP1 ISZERO PUSH2 0x5072 JUMPI POP PUSH1 0x4 PUSH0 DUP4 DUP2 MSTORE PUSH1 0x20 ADD SWAP1 DUP2 MSTORE PUSH1 0x20 ADD PUSH0 KECCAK256 PUSH0 ADD PUSH1 0x1C SWAP1 SLOAD SWAP1 PUSH2 0x100 EXP SWAP1 DIV PUSH1 0xFF AND ISZERO JUMPDEST SWAP1 POP SWAP2 SWAP1 POP JUMP JUMPDEST PUSH0 CALLER SWAP1 POP SWAP1 JUMP JUMPDEST DUP3 PUSH1 0x6 PUSH0 DUP5 DUP2 MSTORE PUSH1 0x20 ADD SWAP1 DUP2 MSTORE PUSH1 0x20 ADD PUSH0 KECCAK256 PUSH0 PUSH2 0x100 EXP DUP2 SLOAD DUP2 PUSH20 0xFFFFFFFFFFFFFFFFFFFFFFFFFFFFFFFFFFFFFFFF MUL NOT AND SWAP1 DUP4 PUSH20 0xFFFFFFFFFFFFFFFFFFFFFFFFFFFFFFFFFFFFFFFF AND MUL OR SWAP1 SSTORE POP DUP2 DUP4 PUSH20 0xFFFFFFFFFFFFFFFFFFFFFFFFFFFFFFFFFFFFFFFF AND DUP3 PUSH20 0xFFFFFFFFFFFFFFFFFFFFFFFFFFFFFFFFFFFFFFFF AND PUSH32 0x8C5BE1E5EBEC7D5BD14F71427D1E84F3DD0314C0F7B2291E5B200AC8C7C3B925 PUSH1 0x40 MLOAD PUSH1 0x40 MLOAD DUP1 SWAP2 SUB SWAP1 LOG4 POP POP POP JUMP JUMPDEST PUSH1 0x2 PUSH1 0x1C SLOAD SUB PUSH2 0x5174 JUMPI PUSH1 0x40 MLOAD PUSH32 0x8C379A000000000000000000000000000000000000000000000000000000000 DUP2 MSTORE PUSH1 0x4 ADD PUSH2 0x516B SWAP1 PUSH2 0xA728 JUMP JUMPDEST PUSH1 0x40 MLOAD DUP1 SWAP2 SUB SWAP1 REVERT JUMPDEST PUSH1 0x2 PUSH1 0x1C DUP2 SWAP1 SSTORE POP JUMP JUMPDEST PUSH0 PUSH2 0x51A3 DUP4 PUSH0 ADD DUP4 PUSH20 0xFFFFFFFFFFFFFFFFFFFFFFFFFFFFFFFFFFFFFFFF AND PUSH0 SHL PUSH2 0x6CD2 JUMP JUMPDEST SWAP1 POP SWAP3 SWAP2 POP POP JUMP JUMPDEST PUSH1 0x1E SLOAD PUSH1 0x20 SLOAD LT PUSH2 0x51F1 JUMPI PUSH1 0x40 MLOAD PUSH32 0x8C379A000000000000000000000000000000000000000000000000000000000 DUP2 MSTORE PUSH1 0x4 ADD PUSH2 0x51E8 SWAP1 PUSH2 0xA790 JUMP JUMPDEST PUSH1 0x40 MLOAD DUP1 SWAP2 SUB SWAP1 REVERT JUMPDEST PUSH1 0x1 PUSH1 0x20 PUSH0 DUP3 DUP3 SLOAD PUSH2 0x5203 SWAP2 SWAP1 PUSH2 0x8B87 JUMP JUMPDEST SWAP3 POP POP DUP2 SWAP1 SSTORE POP PUSH0 PUSH1 0x22 DUP2 SWAP1 SSTORE POP JUMP JUMPDEST PUSH0 PUSH1 0x21 SLOAD SWAP1 POP DUP2 PUSH1 0x21 PUSH0 DUP3 DUP3 SLOAD PUSH2 0x522A SWAP2 SWAP1 PUSH2 0x8B87 JUMP JUMPDEST SWAP3 POP POP DUP2 SWAP1 SSTORE POP PUSH2 0x523B DUP4 DUP4 PUSH2 0x6D39 JUMP JUMPDEST DUP2 PUSH1 0x2D PUSH0 PUSH1 0x20 SLOAD DUP2 MSTORE PUSH1 0x20 ADD SWAP1 DUP2 MSTORE PUSH1 0x20 ADD PUSH0 KECCAK256 PUSH0 DUP3 DUP3 SLOAD PUSH2 0x525D SWAP2 SWAP1 PUSH2 0x8B87 JUMP JUMPDEST SWAP3 POP POP DUP2 SWAP1 SSTORE POP SWAP3 SWAP2 POP POP JUMP JUMPDEST PUSH1 0x1 PUSH1 0x1C DUP2 SWAP1 SSTORE POP JUMP JUMPDEST PUSH0 PUSH2 0x527D PUSH2 0x3556 JUMP JUMPDEST PUSH20 0xFFFFFFFFFFFFFFFFFFFFFFFFFFFFFFFFFFFFFFFF AND CALLER PUSH20 0xFFFFFFFFFFFFFFFFFFFFFFFFFFFFFFFFFFFFFFFF AND EQ SWAP1 POP SWAP1 JUMP JUMPDEST PUSH0 PUSH1 0x9 PUSH0 SWAP1 SLOAD SWAP1 PUSH2 0x100 EXP SWAP1 DIV PUSH20 0xFFFFFFFFFFFFFFFFFFFFFFFFFFFFFFFFFFFFFFFF AND SWAP1 POP DUP2 PUSH1 0x9 PUSH0 PUSH2 0x100 EXP DUP2 SLOAD DUP2 PUSH20 0xFFFFFFFFFFFFFFFFFFFFFFFFFFFFFFFFFFFFFFFF MUL NOT AND SWAP1 DUP4 PUSH20 0xFFFFFFFFFFFFFFFFFFFFFFFFFFFFFFFFFFFFFFFF AND MUL OR SWAP1 SSTORE POP DUP2 PUSH20 0xFFFFFFFFFFFFFFFFFFFFFFFFFFFFFFFFFFFFFFFF AND DUP2 PUSH20 0xFFFFFFFFFFFFFFFFFFFFFFFFFFFFFFFFFFFFFFFF AND PUSH32 0x8292FCE18FA69EDF4DB7B94EA2E58241DF0AE57F97E0A6C9B29067028BF92D76 PUSH1 0x40 MLOAD PUSH1 0x40 MLOAD DUP1 SWAP2 SUB SWAP1 LOG3 POP POP JUMP JUMPDEST PUSH0 PUSH0 SWAP1 POP SWAP1 JUMP JUMPDEST PUSH0 PUSH2 0x5384 DUP3 PUSH2 0x5D57 JUMP JUMPDEST SWAP1 POP DUP4 PUSH20 0xFFFFFFFFFFFFFFFFFFFFFFFFFFFFFFFFFFFFFFFF AND DUP2 PUSH0 ADD MLOAD PUSH20 0xFFFFFFFFFFFFFFFFFFFFFFFFFFFFFFFFFFFFFFFF AND EQ PUSH2 0x53EE JUMPI PUSH1 0x40 MLOAD PUSH32 0xA114810000000000000000000000000000000000000000000000000000000000 DUP2 MSTORE PUSH1 0x4 ADD PUSH1 0x40 MLOAD DUP1 SWAP2 SUB SWAP1 REVERT JUMPDEST PUSH0 DUP5 PUSH20 0xFFFFFFFFFFFFFFFFFFFFFFFFFFFFFFFFFFFFFFFF AND PUSH2 0x540E PUSH2 0x5079 JUMP JUMPDEST PUSH20 0xFFFFFFFFFFFFFFFFFFFFFFFFFFFFFFFFFFFFFFFF AND EQ DUP1 PUSH2 0x543D JUMPI POP PUSH2 0x543C DUP6 PUSH2 0x5437 PUSH2 0x5079 JUMP JUMPDEST PUSH2 0x49D2 JUMP JUMPDEST JUMPDEST DUP1 PUSH2 0x5482 JUMPI POP PUSH2 0x544B PUSH2 0x5079 JUMP JUMPDEST PUSH20 0xFFFFFFFFFFFFFFFFFFFFFFFFFFFFFFFFFFFFFFFF AND PUSH2 0x546A DUP5 PUSH2 0x13C5 JUMP JUMPDEST PUSH20 0xFFFFFFFFFFFFFFFFFFFFFFFFFFFFFFFFFFFFFFFF AND EQ JUMPDEST SWAP1 POP DUP1 PUSH2 0x54BB JUMPI PUSH1 0x40 MLOAD PUSH32 0x59C896BE00000000000000000000000000000000000000000000000000000000 DUP2 MSTORE PUSH1 0x4 ADD PUSH1 0x40 MLOAD DUP1 SWAP2 SUB SWAP1 REVERT JUMPDEST PUSH0 PUSH20 0xFFFFFFFFFFFFFFFFFFFFFFFFFFFFFFFFFFFFFFFF AND DUP5 PUSH20 0xFFFFFFFFFFFFFFFFFFFFFFFFFFFFFFFFFFFFFFFF AND SUB PUSH2 0x5520 JUMPI PUSH1 0x40 MLOAD PUSH32 0xEA553B3400000000000000000000000000000000000000000000000000000000 DUP2 MSTORE PUSH1 0x4 ADD PUSH1 0x40 MLOAD DUP1 SWAP2 SUB SWAP1 REVERT JUMPDEST PUSH2 0x552D DUP6 DUP6 DUP6 PUSH1 0x1 PUSH2 0x6D56 JUMP JUMPDEST PUSH2 0x5538 PUSH0 DUP5 DUP8 PUSH2 0x5080 JUMP JUMPDEST PUSH1 0x1 PUSH1 0x5 PUSH0 DUP8 PUSH20 0xFFFFFFFFFFFFFFFFFFFFFFFFFFFFFFFFFFFFFFFF AND PUSH20 0xFFFFFFFFFFFFFFFFFFFFFFFFFFFFFFFFFFFFFFFF AND DUP2 MSTORE PUSH1 0x20 ADD SWAP1 DUP2 MSTORE PUSH1 0x20 ADD PUSH0 KECCAK256 PUSH0 ADD PUSH0 DUP3 DUP3 DUP3 SWAP1 SLOAD SWAP1 PUSH2 0x100 EXP SWAP1 DIV PUSH8 0xFFFFFFFFFFFFFFFF AND SUB SWAP3 POP PUSH2 0x100 EXP DUP2 SLOAD DUP2 PUSH8 0xFFFFFFFFFFFFFFFF MUL NOT AND SWAP1 DUP4 PUSH8 0xFFFFFFFFFFFFFFFF AND MUL OR SWAP1 SSTORE POP PUSH1 0x1 PUSH1 0x5 PUSH0 DUP7 PUSH20 0xFFFFFFFFFFFFFFFFFFFFFFFFFFFFFFFFFFFFFFFF AND PUSH20 0xFFFFFFFFFFFFFFFFFFFFFFFFFFFFFFFFFFFFFFFF AND DUP2 MSTORE PUSH1 0x20 ADD SWAP1 DUP2 MSTORE PUSH1 0x20 ADD PUSH0 KECCAK256 PUSH0 ADD PUSH0 DUP3 DUP3 DUP3 SWAP1 SLOAD SWAP1 PUSH2 0x100 EXP SWAP1 DIV PUSH8 0xFFFFFFFFFFFFFFFF AND ADD SWAP3 POP PUSH2 0x100 EXP DUP2 SLOAD DUP2 PUSH8 0xFFFFFFFFFFFFFFFF MUL NOT AND SWAP1 DUP4 PUSH8 0xFFFFFFFFFFFFFFFF AND MUL OR SWAP1 SSTORE POP PUSH0 PUSH1 0x4 PUSH0 DUP6 DUP2 MSTORE PUSH1 0x20 ADD SWAP1 DUP2 MSTORE PUSH1 0x20 ADD PUSH0 KECCAK256 SWAP1 POP DUP5 DUP2 PUSH0 ADD PUSH0 PUSH2 0x100 EXP DUP2 SLOAD DUP2 PUSH20 0xFFFFFFFFFFFFFFFFFFFFFFFFFFFFFFFFFFFFFFFF MUL NOT AND SWAP1 DUP4 PUSH20 0xFFFFFFFFFFFFFFFFFFFFFFFFFFFFFFFFFFFFFFFF AND MUL OR SWAP1 SSTORE POP TIMESTAMP DUP2 PUSH0 ADD PUSH1 0x14 PUSH2 0x100 EXP DUP2 SLOAD DUP2 PUSH8 0xFFFFFFFFFFFFFFFF MUL NOT AND SWAP1 DUP4 PUSH8 0xFFFFFFFFFFFFFFFF AND MUL OR SWAP1 SSTORE POP PUSH0 PUSH1 0x1 DUP6 ADD SWAP1 POP PUSH0 PUSH1 0x4 PUSH0 DUP4 DUP2 MSTORE PUSH1 0x20 ADD SWAP1 DUP2 MSTORE PUSH1 0x20 ADD PUSH0 KECCAK256 SWAP1 POP PUSH0 PUSH20 0xFFFFFFFFFFFFFFFFFFFFFFFFFFFFFFFFFFFFFFFF AND DUP2 PUSH0 ADD PUSH0 SWAP1 SLOAD SWAP1 PUSH2 0x100 EXP SWAP1 DIV PUSH20 0xFFFFFFFFFFFFFFFFFFFFFFFFFFFFFFFFFFFFFFFF AND PUSH20 0xFFFFFFFFFFFFFFFFFFFFFFFFFFFFFFFFFFFFFFFF AND SUB PUSH2 0x579E JUMPI PUSH0 SLOAD DUP3 EQ PUSH2 0x579D JUMPI DUP8 DUP2 PUSH0 ADD PUSH0 PUSH2 0x100 EXP DUP2 SLOAD DUP2 PUSH20 0xFFFFFFFFFFFFFFFFFFFFFFFFFFFFFFFFFFFFFFFF MUL NOT AND SWAP1 DUP4 PUSH20 0xFFFFFFFFFFFFFFFFFFFFFFFFFFFFFFFFFFFFFFFF AND MUL OR SWAP1 SSTORE POP DUP5 PUSH1 0x20 ADD MLOAD DUP2 PUSH0 ADD PUSH1 0x14 PUSH2 0x100 EXP DUP2 SLOAD DUP2 PUSH8 0xFFFFFFFFFFFFFFFF MUL NOT AND SWAP1 DUP4 PUSH8 0xFFFFFFFFFFFFFFFF AND MUL OR SWAP1 SSTORE POP JUMPDEST JUMPDEST POP POP POP DUP3 DUP5 PUSH20 0xFFFFFFFFFFFFFFFFFFFFFFFFFFFFFFFFFFFFFFFF AND DUP7 PUSH20 0xFFFFFFFFFFFFFFFFFFFFFFFFFFFFFFFFFFFFFFFF AND PUSH32 0xDDF252AD1BE2C89B69C2B068FC378DAA952BA7F163C4A11628F55A4DF523B3EF PUSH1 0x40 MLOAD PUSH1 0x40 MLOAD DUP1 SWAP2 SUB SWAP1 LOG4 PUSH2 0x5809 DUP6 DUP6 DUP6 PUSH1 0x1 PUSH2 0x6D5C JUMP JUMPDEST POP POP POP POP POP JUMP JUMPDEST PUSH0 PUSH2 0x5819 PUSH2 0x3556 JUMP JUMPDEST PUSH20 0xFFFFFFFFFFFFFFFFFFFFFFFFFFFFFFFFFFFFFFFF AND CALLER PUSH20 0xFFFFFFFFFFFFFFFFFFFFFFFFFFFFFFFFFFFFFFFF AND EQ SWAP1 POP SWAP1 JUMP JUMPDEST PUSH0 CALLER SWAP1 POP SWAP1 JUMP JUMPDEST PUSH0 PUSH2 0x585D DUP4 PUSH2 0x5D57 JUMP JUMPDEST SWAP1 POP PUSH0 DUP2 PUSH0 ADD MLOAD SWAP1 POP DUP3 ISZERO PUSH2 0x593B JUMPI PUSH0 DUP2 PUSH20 0xFFFFFFFFFFFFFFFFFFFFFFFFFFFFFFFFFFFFFFFF AND PUSH2 0x588C PUSH2 0x5079 JUMP JUMPDEST PUSH20 0xFFFFFFFFFFFFFFFFFFFFFFFFFFFFFFFFFFFFFFFF AND EQ DUP1 PUSH2 0x58BB JUMPI POP PUSH2 0x58BA DUP3 PUSH2 0x58B5 PUSH2 0x5079 JUMP JUMPDEST PUSH2 0x49D2 JUMP JUMPDEST JUMPDEST DUP1 PUSH2 0x5900 JUMPI POP PUSH2 0x58C9 PUSH2 0x5079 JUMP JUMPDEST PUSH20 0xFFFFFFFFFFFFFFFFFFFFFFFFFFFFFFFFFFFFFFFF AND PUSH2 0x58E8 DUP7 PUSH2 0x13C5 JUMP JUMPDEST PUSH20 0xFFFFFFFFFFFFFFFFFFFFFFFFFFFFFFFFFFFFFFFF AND EQ JUMPDEST SWAP1 POP DUP1 PUSH2 0x5939 JUMPI PUSH1 0x40 MLOAD PUSH32 0x59C896BE00000000000000000000000000000000000000000000000000000000 DUP2 MSTORE PUSH1 0x4 ADD PUSH1 0x40 MLOAD DUP1 SWAP2 SUB SWAP1 REVERT JUMPDEST POP JUMPDEST PUSH2 0x5948 DUP2 PUSH0 DUP7 PUSH1 0x1 PUSH2 0x6D56 JUMP JUMPDEST PUSH2 0x5953 PUSH0 DUP6 DUP4 PUSH2 0x5080 JUMP JUMPDEST PUSH0 PUSH1 0x5 PUSH0 DUP4 PUSH20 0xFFFFFFFFFFFFFFFFFFFFFFFFFFFFFFFFFFFFFFFF AND PUSH20 0xFFFFFFFFFFFFFFFFFFFFFFFFFFFFFFFFFFFFFFFF AND DUP2 MSTORE PUSH1 0x20 ADD SWAP1 DUP2 MSTORE PUSH1 0x20 ADD PUSH0 KECCAK256 SWAP1 POP PUSH1 0x1 DUP2 PUSH0 ADD PUSH0 DUP3 DUP3 DUP3 SWAP1 SLOAD SWAP1 PUSH2 0x100 EXP SWAP1 DIV PUSH8 0xFFFFFFFFFFFFFFFF AND SUB SWAP3 POP PUSH2 0x100 EXP DUP2 SLOAD DUP2 PUSH8 0xFFFFFFFFFFFFFFFF MUL NOT AND SWAP1 DUP4 PUSH8 0xFFFFFFFFFFFFFFFF AND MUL OR SWAP1 SSTORE POP PUSH1 0x1 DUP2 PUSH0 ADD PUSH1 0x10 DUP3 DUP3 DUP3 SWAP1 SLOAD SWAP1 PUSH2 0x100 EXP SWAP1 DIV PUSH8 0xFFFFFFFFFFFFFFFF AND ADD SWAP3 POP PUSH2 0x100 EXP DUP2 SLOAD DUP2 PUSH8 0xFFFFFFFFFFFFFFFF MUL NOT AND SWAP1 DUP4 PUSH8 0xFFFFFFFFFFFFFFFF AND MUL OR SWAP1 SSTORE POP PUSH0 PUSH1 0x4 PUSH0 DUP8 DUP2 MSTORE PUSH1 0x20 ADD SWAP1 DUP2 MSTORE PUSH1 0x20 ADD PUSH0 KECCAK256 SWAP1 POP DUP3 DUP2 PUSH0 ADD PUSH0 PUSH2 0x100 EXP DUP2 SLOAD DUP2 PUSH20 0xFFFFFFFFFFFFFFFFFFFFFFFFFFFFFFFFFFFFFFFF MUL NOT AND SWAP1 DUP4 PUSH20 0xFFFFFFFFFFFFFFFFFFFFFFFFFFFFFFFFFFFFFFFF AND MUL OR SWAP1 SSTORE POP TIMESTAMP DUP2 PUSH0 ADD PUSH1 0x14 PUSH2 0x100 EXP DUP2 SLOAD DUP2 PUSH8 0xFFFFFFFFFFFFFFFF MUL NOT AND SWAP1 DUP4 PUSH8 0xFFFFFFFFFFFFFFFF AND MUL OR SWAP1 SSTORE POP PUSH1 0x1 DUP2 PUSH0 ADD PUSH1 0x1C PUSH2 0x100 EXP DUP2 SLOAD DUP2 PUSH1 0xFF MUL NOT AND SWAP1 DUP4 ISZERO ISZERO MUL OR SWAP1 SSTORE POP PUSH0 PUSH1 0x1 DUP8 ADD SWAP1 POP PUSH0 PUSH1 0x4 PUSH0 DUP4 DUP2 MSTORE PUSH1 0x20 ADD SWAP1 DUP2 MSTORE PUSH1 0x20 ADD PUSH0 KECCAK256 SWAP1 POP PUSH0 PUSH20 0xFFFFFFFFFFFFFFFFFFFFFFFFFFFFFFFFFFFFFFFF AND DUP2 PUSH0 ADD PUSH0 SWAP1 SLOAD SWAP1 PUSH2 0x100 EXP SWAP1 DIV PUSH20 0xFFFFFFFFFFFFFFFFFFFFFFFFFFFFFFFFFFFFFFFF AND PUSH20 0xFFFFFFFFFFFFFFFFFFFFFFFFFFFFFFFFFFFFFFFF AND SUB PUSH2 0x5B9E JUMPI PUSH0 SLOAD DUP3 EQ PUSH2 0x5B9D JUMPI DUP5 DUP2 PUSH0 ADD PUSH0 PUSH2 0x100 EXP DUP2 SLOAD DUP2 PUSH20 0xFFFFFFFFFFFFFFFFFFFFFFFFFFFFFFFFFFFFFFFF MUL NOT AND SWAP1 DUP4 PUSH20 0xFFFFFFFFFFFFFFFFFFFFFFFFFFFFFFFFFFFFFFFF AND MUL OR SWAP1 SSTORE POP DUP6 PUSH1 0x20 ADD MLOAD DUP2 PUSH0 ADD PUSH1 0x14 PUSH2 0x100 EXP DUP2 SLOAD DUP2 PUSH8 0xFFFFFFFFFFFFFFFF MUL NOT AND SWAP1 DUP4 PUSH8 0xFFFFFFFFFFFFFFFF AND MUL OR SWAP1 SSTORE POP JUMPDEST JUMPDEST POP POP POP POP DUP4 PUSH0 PUSH20 0xFFFFFFFFFFFFFFFFFFFFFFFFFFFFFFFFFFFFFFFF AND DUP3 PUSH20 0xFFFFFFFFFFFFFFFFFFFFFFFFFFFFFFFFFFFFFFFF AND PUSH32 0xDDF252AD1BE2C89B69C2B068FC378DAA952BA7F163C4A11628F55A4DF523B3EF PUSH1 0x40 MLOAD PUSH1 0x40 MLOAD DUP1 SWAP2 SUB SWAP1 LOG4 PUSH2 0x5C0A DUP2 PUSH0 DUP7 PUSH1 0x1 PUSH2 0x6D5C JUMP JUMPDEST PUSH1 0x1 PUSH0 DUP2 SLOAD DUP1 SWAP3 SWAP2 SWAP1 PUSH1 0x1 ADD SWAP2 SWAP1 POP SSTORE POP POP POP POP POP JUMP JUMPDEST PUSH0 PUSH2 0x5C2A PUSH2 0x3556 JUMP JUMPDEST PUSH20 0xFFFFFFFFFFFFFFFFFFFFFFFFFFFFFFFFFFFFFFFF AND CALLER PUSH20 0xFFFFFFFFFFFFFFFFFFFFFFFFFFFFFFFFFFFFFFFF AND EQ SWAP1 POP SWAP1 JUMP JUMPDEST PUSH2 0x2710 DUP2 GT ISZERO PUSH2 0x5CA8 JUMPI PUSH2 0x2710 DUP2 PUSH1 0x40 MLOAD PUSH32 0x5249856800000000000000000000000000000000000000000000000000000000 DUP2 MSTORE PUSH1 0x4 ADD PUSH2 0x5C9F SWAP3 SWAP2 SWAP1 PUSH2 0xA7E7 JUMP JUMPDEST PUSH1 0x40 MLOAD DUP1 SWAP2 SUB SWAP1 REVERT JUMPDEST DUP2 PUSH1 0xA PUSH0 PUSH2 0x100 EXP DUP2 SLOAD DUP2 PUSH20 0xFFFFFFFFFFFFFFFFFFFFFFFFFFFFFFFFFFFFFFFF MUL NOT AND SWAP1 DUP4 PUSH20 0xFFFFFFFFFFFFFFFFFFFFFFFFFFFFFFFFFFFFFFFF AND MUL OR SWAP1 SSTORE POP DUP1 PUSH1 0xA PUSH1 0x14 PUSH2 0x100 EXP DUP2 SLOAD DUP2 PUSH2 0xFFFF MUL NOT AND SWAP1 DUP4 PUSH2 0xFFFF AND MUL OR SWAP1 SSTORE POP DUP2 PUSH20 0xFFFFFFFFFFFFFFFFFFFFFFFFFFFFFFFFFFFFFFFF AND PUSH32 0x90D7EC04BCB8978719414F82E52E4CB651DB41D0E6F8CEA6118C2191E6183ADB DUP3 PUSH1 0x40 MLOAD PUSH2 0x5D4B SWAP2 SWAP1 PUSH2 0x7990 JUMP JUMPDEST PUSH1 0x40 MLOAD DUP1 SWAP2 SUB SWAP1 LOG2 POP POP JUMP JUMPDEST PUSH2 0x5D5F PUSH2 0x7938 JUMP JUMPDEST PUSH0 DUP3 SWAP1 POP DUP1 PUSH2 0x5D6C PUSH2 0x5373 JUMP JUMPDEST GT PUSH2 0x5F98 JUMPI PUSH0 SLOAD DUP2 LT ISZERO PUSH2 0x5F97 JUMPI PUSH0 PUSH1 0x4 PUSH0 DUP4 DUP2 MSTORE PUSH1 0x20 ADD SWAP1 DUP2 MSTORE PUSH1 0x20 ADD PUSH0 KECCAK256 PUSH1 0x40 MLOAD DUP1 PUSH1 0x60 ADD PUSH1 0x40 MSTORE SWAP1 DUP2 PUSH0 DUP3 ADD PUSH0 SWAP1 SLOAD SWAP1 PUSH2 0x100 EXP SWAP1 DIV PUSH20 0xFFFFFFFFFFFFFFFFFFFFFFFFFFFFFFFFFFFFFFFF AND PUSH20 0xFFFFFFFFFFFFFFFFFFFFFFFFFFFFFFFFFFFFFFFF AND PUSH20 0xFFFFFFFFFFFFFFFFFFFFFFFFFFFFFFFFFFFFFFFF AND DUP2 MSTORE PUSH1 0x20 ADD PUSH0 DUP3 ADD PUSH1 0x14 SWAP1 SLOAD SWAP1 PUSH2 0x100 EXP SWAP1 DIV PUSH8 0xFFFFFFFFFFFFFFFF AND PUSH8 0xFFFFFFFFFFFFFFFF AND PUSH8 0xFFFFFFFFFFFFFFFF AND DUP2 MSTORE PUSH1 0x20 ADD PUSH0 DUP3 ADD PUSH1 0x1C SWAP1 SLOAD SWAP1 PUSH2 0x100 EXP SWAP1 DIV PUSH1 0xFF AND ISZERO ISZERO ISZERO ISZERO DUP2 MSTORE POP POP SWAP1 POP DUP1 PUSH1 0x40 ADD MLOAD PUSH2 0x5F95 JUMPI PUSH0 PUSH20 0xFFFFFFFFFFFFFFFFFFFFFFFFFFFFFFFFFFFFFFFF AND DUP2 PUSH0 ADD MLOAD PUSH20 0xFFFFFFFFFFFFFFFFFFFFFFFFFFFFFFFFFFFFFFFF AND EQ PUSH2 0x5E81 JUMPI DUP1 SWAP3 POP POP POP PUSH2 0x5FCA JUMP JUMPDEST JUMPDEST PUSH1 0x1 ISZERO PUSH2 0x5F94 JUMPI DUP2 DUP1 PUSH1 0x1 SWAP1 SUB SWAP3 POP POP PUSH1 0x4 PUSH0 DUP4 DUP2 MSTORE PUSH1 0x20 ADD SWAP1 DUP2 MSTORE PUSH1 0x20 ADD PUSH0 KECCAK256 PUSH1 0x40 MLOAD DUP1 PUSH1 0x60 ADD PUSH1 0x40 MSTORE SWAP1 DUP2 PUSH0 DUP3 ADD PUSH0 SWAP1 SLOAD SWAP1 PUSH2 0x100 EXP SWAP1 DIV PUSH20 0xFFFFFFFFFFFFFFFFFFFFFFFFFFFFFFFFFFFFFFFF AND PUSH20 0xFFFFFFFFFFFFFFFFFFFFFFFFFFFFFFFFFFFFFFFF AND PUSH20 0xFFFFFFFFFFFFFFFFFFFFFFFFFFFFFFFFFFFFFFFF AND DUP2 MSTORE PUSH1 0x20 ADD PUSH0 DUP3 ADD PUSH1 0x14 SWAP1 SLOAD SWAP1 PUSH2 0x100 EXP SWAP1 DIV PUSH8 0xFFFFFFFFFFFFFFFF AND PUSH8 0xFFFFFFFFFFFFFFFF AND PUSH8 0xFFFFFFFFFFFFFFFF AND DUP2 MSTORE PUSH1 0x20 ADD PUSH0 DUP3 ADD PUSH1 0x1C SWAP1 SLOAD SWAP1 PUSH2 0x100 EXP SWAP1 DIV PUSH1 0xFF AND ISZERO ISZERO ISZERO ISZERO DUP2 MSTORE POP POP SWAP1 POP PUSH0 PUSH20 0xFFFFFFFFFFFFFFFFFFFFFFFFFFFFFFFFFFFFFFFF AND DUP2 PUSH0 ADD MLOAD PUSH20 0xFFFFFFFFFFFFFFFFFFFFFFFFFFFFFFFFFFFFFFFF AND EQ PUSH2 0x5F8F JUMPI DUP1 SWAP3 POP POP POP PUSH2 0x5FCA JUMP JUMPDEST PUSH2 0x5E82 JUMP JUMPDEST JUMPDEST POP JUMPDEST JUMPDEST PUSH1 0x40 MLOAD PUSH32 0xDF2D9B4200000000000000000000000000000000000000000000000000000000 DUP2 MSTORE PUSH1 0x4 ADD PUSH1 0x40 MLOAD DUP1 SWAP2 SUB SWAP1 REVERT JUMPDEST SWAP2 SWAP1 POP JUMP JUMPDEST PUSH1 0x60 PUSH0 PUSH1 0x40 MLOAD DUP1 PUSH1 0x40 ADD PUSH1 0x40 MSTORE DUP1 PUSH1 0x10 DUP2 MSTORE PUSH1 0x20 ADD PUSH32 0x3031323334353637383961626364656600000000000000000000000000000000 DUP2 MSTORE POP SWAP1 POP PUSH0 PUSH1 0x40 PUSH8 0xFFFFFFFFFFFFFFFF DUP2 GT ISZERO PUSH2 0x6026 JUMPI PUSH2 0x6025 PUSH2 0x7C1A JUMP JUMPDEST JUMPDEST PUSH1 0x40 MLOAD SWAP1 DUP1 DUP3 MSTORE DUP1 PUSH1 0x1F ADD PUSH1 0x1F NOT AND PUSH1 0x20 ADD DUP3 ADD PUSH1 0x40 MSTORE DUP1 ISZERO PUSH2 0x6058 JUMPI DUP2 PUSH1 0x20 ADD PUSH1 0x1 DUP3 MUL DUP1 CALLDATASIZE DUP4 CALLDATACOPY DUP1 DUP3 ADD SWAP2 POP POP SWAP1 POP JUMPDEST POP SWAP1 POP PUSH0 PUSH0 SWAP1 POP JUMPDEST PUSH1 0x20 DUP2 LT ISZERO PUSH2 0x61BC JUMPI DUP3 PUSH1 0x4 DUP7 DUP4 PUSH1 0x20 DUP2 LT PUSH2 0x607F JUMPI PUSH2 0x607E PUSH2 0x935E JUMP JUMPDEST JUMPDEST BYTE PUSH1 0xF8 SHL PUSH31 0xFFFFFFFFFFFFFFFFFFFFFFFFFFFFFFFFFFFFFFFFFFFFFFFFFFFFFFFFFFFFFF NOT AND SWAP1 SHR PUSH1 0xF8 SHR PUSH1 0xFF AND DUP2 MLOAD DUP2 LT PUSH2 0x60BE JUMPI PUSH2 0x60BD PUSH2 0x935E JUMP JUMPDEST JUMPDEST PUSH1 0x20 ADD ADD MLOAD PUSH1 0xF8 SHR PUSH1 0xF8 SHL DUP3 PUSH1 0x2 DUP4 PUSH2 0x60D7 SWAP2 SWAP1 PUSH2 0x8E38 JUMP JUMPDEST DUP2 MLOAD DUP2 LT PUSH2 0x60E8 JUMPI PUSH2 0x60E7 PUSH2 0x935E JUMP JUMPDEST JUMPDEST PUSH1 0x20 ADD ADD SWAP1 PUSH31 0xFFFFFFFFFFFFFFFFFFFFFFFFFFFFFFFFFFFFFFFFFFFFFFFFFFFFFFFFFFFFFF NOT AND SWAP1 DUP2 PUSH0 BYTE SWAP1 MSTORE8 POP DUP3 PUSH1 0xF PUSH1 0xF8 SHL DUP7 DUP4 PUSH1 0x20 DUP2 LT PUSH2 0x612F JUMPI PUSH2 0x612E PUSH2 0x935E JUMP JUMPDEST JUMPDEST BYTE PUSH1 0xF8 SHL AND PUSH1 0xF8 SHR PUSH1 0xFF AND DUP2 MLOAD DUP2 LT PUSH2 0x614B JUMPI PUSH2 0x614A PUSH2 0x935E JUMP JUMPDEST JUMPDEST PUSH1 0x20 ADD ADD MLOAD PUSH1 0xF8 SHR PUSH1 0xF8 SHL DUP3 PUSH1 0x2 DUP4 PUSH2 0x6164 SWAP2 SWAP1 PUSH2 0x8E38 JUMP JUMPDEST PUSH1 0x1 PUSH2 0x6170 SWAP2 SWAP1 PUSH2 0x8B87 JUMP JUMPDEST DUP2 MLOAD DUP2 LT PUSH2 0x6181 JUMPI PUSH2 0x6180 PUSH2 0x935E JUMP JUMPDEST JUMPDEST PUSH1 0x20 ADD ADD SWAP1 PUSH31 0xFFFFFFFFFFFFFFFFFFFFFFFFFFFFFFFFFFFFFFFFFFFFFFFFFFFFFFFFFFFFFF NOT AND SWAP1 DUP2 PUSH0 BYTE SWAP1 MSTORE8 POP DUP1 DUP1 PUSH1 0x1 ADD SWAP2 POP POP PUSH2 0x6060 JUMP JUMPDEST POP DUP1 SWAP3 POP POP POP SWAP2 SWAP1 POP JUMP JUMPDEST PUSH0 PUSH2 0x61D0 PUSH2 0x3556 JUMP JUMPDEST PUSH20 0xFFFFFFFFFFFFFFFFFFFFFFFFFFFFFFFFFFFFFFFF AND CALLER PUSH20 0xFFFFFFFFFFFFFFFFFFFFFFFFFFFFFFFFFFFFFFFF AND EQ SWAP1 POP SWAP1 JUMP JUMPDEST PUSH0 PUSH20 0xFFFFFFFFFFFFFFFFFFFFFFFFFFFFFFFFFFFFFFFF AND DUP2 PUSH20 0xFFFFFFFFFFFFFFFFFFFFFFFFFFFFFFFFFFFFFFFF AND SUB PUSH2 0x6273 JUMPI DUP1 PUSH1 0x40 MLOAD PUSH32 0x3DF2B0DC00000000000000000000000000000000000000000000000000000000 DUP2 MSTORE PUSH1 0x4 ADD PUSH2 0x626A SWAP2 SWAP1 PUSH2 0x7B3C JUMP JUMPDEST PUSH1 0x40 MLOAD DUP1 SWAP2 SUB SWAP1 REVERT JUMPDEST DUP1 PUSH1 0xF PUSH0 PUSH2 0x100 EXP DUP2 SLOAD DUP2 PUSH20 0xFFFFFFFFFFFFFFFFFFFFFFFFFFFFFFFFFFFFFFFF MUL NOT AND SWAP1 DUP4 PUSH20 0xFFFFFFFFFFFFFFFFFFFFFFFFFFFFFFFFFFFFFFFF AND MUL OR SWAP1 SSTORE POP DUP1 PUSH20 0xFFFFFFFFFFFFFFFFFFFFFFFFFFFFFFFFFFFFFFFF AND PUSH32 0x299D17E95023F496E0FFC4909CFF1A61F74BB5EB18DE6F900F4155BFA1B3B333 PUSH1 0x40 MLOAD PUSH1 0x40 MLOAD DUP1 SWAP2 SUB SWAP1 LOG2 POP JUMP JUMPDEST PUSH1 0x10 SLOAD DUP6 PUSH0 SLOAD PUSH2 0x6309 SWAP2 SWAP1 PUSH2 0x8B87 JUMP JUMPDEST GT ISZERO PUSH2 0x634A JUMPI PUSH1 0x40 MLOAD PUSH32 0x8C379A000000000000000000000000000000000000000000000000000000000 DUP2 MSTORE PUSH1 0x4 ADD PUSH2 0x6341 SWAP1 PUSH2 0xA858 JUMP JUMPDEST PUSH1 0x40 MLOAD DUP1 SWAP2 SUB SWAP1 REVERT JUMPDEST POP POP POP POP POP POP JUMP JUMPDEST PUSH0 DUP2 SUB PUSH2 0x63A0 JUMPI PUSH0 CALLVALUE EQ PUSH2 0x639B JUMPI PUSH1 0x40 MLOAD PUSH32 0x8C379A000000000000000000000000000000000000000000000000000000000 DUP2 MSTORE PUSH1 0x4 ADD PUSH2 0x6392 SWAP1 PUSH2 0xA8C0 JUMP JUMPDEST PUSH1 0x40 MLOAD DUP1 SWAP2 SUB SWAP1 REVERT JUMPDEST PUSH2 0x649C JUMP JUMPDEST PUSH0 DUP2 DUP5 PUSH2 0x63AD SWAP2 SWAP1 PUSH2 0x8E38 JUMP JUMPDEST SWAP1 POP PUSH0 PUSH20 0xEEEEEEEEEEEEEEEEEEEEEEEEEEEEEEEEEEEEEEEE PUSH20 0xFFFFFFFFFFFFFFFFFFFFFFFFFFFFFFFFFFFFFFFF AND DUP5 PUSH20 0xFFFFFFFFFFFFFFFFFFFFFFFFFFFFFFFFFFFFFFFF AND SUB PUSH2 0x6401 JUMPI DUP2 CALLVALUE EQ SWAP1 POP PUSH2 0x6407 JUMP JUMPDEST PUSH0 CALLVALUE EQ SWAP1 POP JUMPDEST DUP1 PUSH2 0x6447 JUMPI PUSH1 0x40 MLOAD PUSH32 0x8C379A000000000000000000000000000000000000000000000000000000000 DUP2 MSTORE PUSH1 0x4 ADD PUSH2 0x643E SWAP1 PUSH2 0xA928 JUMP JUMPDEST PUSH1 0x40 MLOAD DUP1 SWAP2 SUB SWAP1 REVERT JUMPDEST PUSH0 PUSH0 PUSH20 0xFFFFFFFFFFFFFFFFFFFFFFFFFFFFFFFFFFFFFFFF AND DUP8 PUSH20 0xFFFFFFFFFFFFFFFFFFFFFFFFFFFFFFFFFFFFFFFF AND EQ PUSH2 0x6481 JUMPI DUP7 PUSH2 0x648A JUMP JUMPDEST PUSH2 0x6489 PUSH2 0x1397 JUMP JUMPDEST JUMPDEST SWAP1 POP PUSH2 0x6498 DUP6 CALLER DUP4 DUP7 PUSH2 0x6D62 JUMP JUMPDEST POP POP POP JUMPDEST POP POP POP POP JUMP JUMPDEST POP POP POP POP POP POP JUMP JUMPDEST PUSH0 PUSH2 0x64B3 PUSH2 0x3556 JUMP JUMPDEST PUSH20 0xFFFFFFFFFFFFFFFFFFFFFFFFFFFFFFFFFFFFFFFF AND CALLER PUSH20 0xFFFFFFFFFFFFFFFFFFFFFFFFFFFFFFFFFFFFFFFF AND EQ SWAP1 POP SWAP1 JUMP JUMPDEST PUSH0 PUSH1 0x8 DUP1 SLOAD PUSH2 0x64F4 SWAP1 PUSH2 0x8AC2 JUMP JUMPDEST DUP1 PUSH1 0x1F ADD PUSH1 0x20 DUP1 SWAP2 DIV MUL PUSH1 0x20 ADD PUSH1 0x40 MLOAD SWAP1 DUP2 ADD PUSH1 0x40 MSTORE DUP1 SWAP3 SWAP2 SWAP1 DUP2 DUP2 MSTORE PUSH1 0x20 ADD DUP3 DUP1 SLOAD PUSH2 0x6520 SWAP1 PUSH2 0x8AC2 JUMP JUMPDEST DUP1 ISZERO PUSH2 0x656B JUMPI DUP1 PUSH1 0x1F LT PUSH2 0x6542 JUMPI PUSH2 0x100 DUP1 DUP4 SLOAD DIV MUL DUP4 MSTORE SWAP2 PUSH1 0x20 ADD SWAP2 PUSH2 0x656B JUMP JUMPDEST DUP3 ADD SWAP2 SWAP1 PUSH0 MSTORE PUSH1 0x20 PUSH0 KECCAK256 SWAP1 JUMPDEST DUP2 SLOAD DUP2 MSTORE SWAP1 PUSH1 0x1 ADD SWAP1 PUSH1 0x20 ADD DUP1 DUP4 GT PUSH2 0x654E JUMPI DUP3 SWAP1 SUB PUSH1 0x1F AND DUP3 ADD SWAP2 JUMPDEST POP POP POP POP POP SWAP1 POP DUP2 PUSH1 0x8 SWAP1 DUP2 PUSH2 0x6581 SWAP2 SWAP1 PUSH2 0x9761 JUMP JUMPDEST POP PUSH32 0xC9C7C3FE08B88B4DF9D4D47EF47D2C43D55C025A0BA88CA442580ED9E7348A16 DUP2 DUP4 PUSH1 0x40 MLOAD PUSH2 0x65B3 SWAP3 SWAP2 SWAP1 PUSH2 0xA946 JUMP JUMPDEST PUSH1 0x40 MLOAD DUP1 SWAP2 SUB SWAP1 LOG1 POP POP JUMP JUMPDEST PUSH2 0x2710 DUP2 GT ISZERO PUSH2 0x660A JUMPI PUSH2 0x2710 DUP2 PUSH1 0x40 MLOAD PUSH32 0x5249856800000000000000000000000000000000000000000000000000000000 DUP2 MSTORE PUSH1 0x4 ADD PUSH2 0x6601 SWAP3 SWAP2 SWAP1 PUSH2 0xA7E7 JUMP JUMPDEST PUSH1 0x40 MLOAD DUP1 SWAP2 SUB SWAP1 REVERT JUMPDEST PUSH1 0x40 MLOAD DUP1 PUSH1 0x40 ADD PUSH1 0x40 MSTORE DUP1 DUP4 PUSH20 0xFFFFFFFFFFFFFFFFFFFFFFFFFFFFFFFFFFFFFFFF AND DUP2 MSTORE PUSH1 0x20 ADD DUP3 DUP2 MSTORE POP PUSH1 0xB PUSH0 DUP6 DUP2 MSTORE PUSH1 0x20 ADD SWAP1 DUP2 MSTORE PUSH1 0x20 ADD PUSH0 KECCAK256 PUSH0 DUP3 ADD MLOAD DUP2 PUSH0 ADD PUSH0 PUSH2 0x100 EXP DUP2 SLOAD DUP2 PUSH20 0xFFFFFFFFFFFFFFFFFFFFFFFFFFFFFFFFFFFFFFFF MUL NOT AND SWAP1 DUP4 PUSH20 0xFFFFFFFFFFFFFFFFFFFFFFFFFFFFFFFFFFFFFFFF AND MUL OR SWAP1 SSTORE POP PUSH1 0x20 DUP3 ADD MLOAD DUP2 PUSH1 0x1 ADD SSTORE SWAP1 POP POP DUP2 PUSH20 0xFFFFFFFFFFFFFFFFFFFFFFFFFFFFFFFFFFFFFFFF AND DUP4 PUSH32 0x7365CF4122F072A3365C20D54EFF9B38D73C096C28E1892EC8F5B0E403A0F12D DUP4 PUSH1 0x40 MLOAD PUSH2 0x66DE SWAP2 SWAP1 PUSH2 0x7990 JUMP JUMPDEST PUSH1 0x40 MLOAD DUP1 SWAP2 SUB SWAP1 LOG3 POP POP POP JUMP JUMPDEST PUSH1 0x60 PUSH2 0x6710 DUP4 DUP4 PUSH1 0x40 MLOAD DUP1 PUSH1 0x60 ADD PUSH1 0x40 MSTORE DUP1 PUSH1 0x27 DUP2 MSTORE PUSH1 0x20 ADD PUSH2 0xAE54 PUSH1 0x27 SWAP2 CODECOPY PUSH2 0x6DD4 JUMP JUMPDEST SWAP1 POP SWAP3 SWAP2 POP POP JUMP JUMPDEST PUSH0 PUSH0 DUP3 PUSH20 0xFFFFFFFFFFFFFFFFFFFFFFFFFFFFFFFFFFFFFFFF AND EXTCODESIZE GT SWAP1 POP SWAP2 SWAP1 POP JUMP JUMPDEST PUSH0 DUP4 PUSH20 0xFFFFFFFFFFFFFFFFFFFFFFFFFFFFFFFFFFFFFFFF AND PUSH4 0x150B7A02 PUSH2 0x675F PUSH2 0x5079 JUMP JUMPDEST DUP8 DUP7 DUP7 PUSH1 0x40 MLOAD DUP6 PUSH4 0xFFFFFFFF AND PUSH1 0xE0 SHL DUP2 MSTORE PUSH1 0x4 ADD PUSH2 0x6781 SWAP5 SWAP4 SWAP3 SWAP2 SWAP1 PUSH2 0xA97B JUMP JUMPDEST PUSH1 0x20 PUSH1 0x40 MLOAD DUP1 DUP4 SUB DUP2 PUSH0 DUP8 GAS CALL SWAP3 POP POP POP DUP1 ISZERO PUSH2 0x67BC JUMPI POP PUSH1 0x40 MLOAD RETURNDATASIZE PUSH1 0x1F NOT PUSH1 0x1F DUP3 ADD AND DUP3 ADD DUP1 PUSH1 0x40 MSTORE POP DUP2 ADD SWAP1 PUSH2 0x67B9 SWAP2 SWAP1 PUSH2 0xA9D9 JUMP JUMPDEST PUSH1 0x1 JUMPDEST PUSH2 0x6832 JUMPI RETURNDATASIZE DUP1 PUSH0 DUP2 EQ PUSH2 0x67EA JUMPI PUSH1 0x40 MLOAD SWAP2 POP PUSH1 0x1F NOT PUSH1 0x3F RETURNDATASIZE ADD AND DUP3 ADD PUSH1 0x40 MSTORE RETURNDATASIZE DUP3 MSTORE RETURNDATASIZE PUSH0 PUSH1 0x20 DUP5 ADD RETURNDATACOPY PUSH2 0x67EF JUMP JUMPDEST PUSH1 0x60 SWAP2 POP JUMPDEST POP PUSH0 DUP2 MLOAD SUB PUSH2 0x682A JUMPI PUSH1 0x40 MLOAD PUSH32 0xD1A57ED600000000000000000000000000000000000000000000000000000000 DUP2 MSTORE PUSH1 0x4 ADD PUSH1 0x40 MLOAD DUP1 SWAP2 SUB SWAP1 REVERT JUMPDEST DUP1 MLOAD DUP2 PUSH1 0x20 ADD REVERT JUMPDEST PUSH4 0x150B7A02 PUSH1 0xE0 SHL PUSH28 0xFFFFFFFFFFFFFFFFFFFFFFFFFFFFFFFFFFFFFFFFFFFFFFFFFFFFFFFF NOT AND DUP2 PUSH28 0xFFFFFFFFFFFFFFFFFFFFFFFFFFFFFFFFFFFFFFFFFFFFFFFFFFFFFFFF NOT AND EQ SWAP2 POP POP SWAP5 SWAP4 POP POP POP POP JUMP JUMPDEST PUSH1 0x60 PUSH0 DUP3 PUSH8 0xFFFFFFFFFFFFFFFF DUP2 GT ISZERO PUSH2 0x68A2 JUMPI PUSH2 0x68A1 PUSH2 0x7C1A JUMP JUMPDEST JUMPDEST PUSH1 0x40 MLOAD SWAP1 DUP1 DUP3 MSTORE DUP1 PUSH1 0x1F ADD PUSH1 0x1F NOT AND PUSH1 0x20 ADD DUP3 ADD PUSH1 0x40 MSTORE DUP1 ISZERO PUSH2 0x68D4 JUMPI DUP2 PUSH1 0x20 ADD PUSH1 0x1 DUP3 MUL DUP1 CALLDATASIZE DUP4 CALLDATACOPY DUP1 DUP3 ADD SWAP2 POP POP SWAP1 POP JUMPDEST POP SWAP1 POP PUSH0 DUP4 SWAP1 POP JUMPDEST PUSH0 DUP2 GT ISZERO PUSH2 0x696D JUMPI PUSH1 0xA DUP6 PUSH2 0x68F1 SWAP2 SWAP1 PUSH2 0xAA04 JUMP JUMPDEST PUSH1 0x30 PUSH2 0x68FD SWAP2 SWAP1 PUSH2 0x8B87 JUMP JUMPDEST PUSH1 0xF8 SHL DUP3 PUSH1 0x1 DUP4 PUSH2 0x690E SWAP2 SWAP1 PUSH2 0x8ED6 JUMP JUMPDEST DUP2 MLOAD DUP2 LT PUSH2 0x691F JUMPI PUSH2 0x691E PUSH2 0x935E JUMP JUMPDEST JUMPDEST PUSH1 0x20 ADD ADD SWAP1 PUSH31 0xFFFFFFFFFFFFFFFFFFFFFFFFFFFFFFFFFFFFFFFFFFFFFFFFFFFFFFFFFFFFFF NOT AND SWAP1 DUP2 PUSH0 BYTE SWAP1 MSTORE8 POP PUSH1 0xA DUP6 PUSH2 0x695A SWAP2 SWAP1 PUSH2 0x8EA6 JUMP JUMPDEST SWAP5 POP DUP1 PUSH2 0x6966 SWAP1 PUSH2 0xAA34 JUMP JUMPDEST SWAP1 POP PUSH2 0x68DC JUMP JUMPDEST POP PUSH0 DUP5 EQ PUSH2 0x69B0 JUMPI PUSH1 0x40 MLOAD PUSH32 0x8C379A000000000000000000000000000000000000000000000000000000000 DUP2 MSTORE PUSH1 0x4 ADD PUSH2 0x69A7 SWAP1 PUSH2 0xAAA5 JUMP JUMPDEST PUSH1 0x40 MLOAD DUP1 SWAP2 SUB SWAP1 REVERT JUMPDEST DUP1 SWAP2 POP POP SWAP3 SWAP2 POP POP JUMP JUMPDEST PUSH0 PUSH2 0x69C3 PUSH2 0x3556 JUMP JUMPDEST PUSH20 0xFFFFFFFFFFFFFFFFFFFFFFFFFFFFFFFFFFFFFFFF AND CALLER PUSH20 0xFFFFFFFFFFFFFFFFFFFFFFFFFFFFFFFFFFFFFFFF AND EQ SWAP1 POP SWAP1 JUMP JUMPDEST DUP1 PUSH1 0x11 PUSH0 DUP5 DUP2 MSTORE PUSH1 0x20 ADD SWAP1 DUP2 MSTORE PUSH1 0x20 ADD PUSH0 KECCAK256 SWAP1 DUP2 PUSH2 0x6A14 SWAP2 SWAP1 PUSH2 0xAB1B JUMP JUMPDEST POP POP POP JUMP JUMPDEST PUSH1 0xE PUSH0 DUP4 DUP2 MSTORE PUSH1 0x20 ADD SWAP1 DUP2 MSTORE PUSH1 0x20 ADD PUSH0 KECCAK256 PUSH0 SWAP1 SLOAD SWAP1 PUSH2 0x100 EXP SWAP1 DIV PUSH1 0xFF AND ISZERO PUSH2 0x6A79 JUMPI DUP2 PUSH1 0x40 MLOAD PUSH32 0xBA0F359200000000000000000000000000000000000000000000000000000000 DUP2 MSTORE PUSH1 0x4 ADD PUSH2 0x6A70 SWAP2 SWAP1 PUSH2 0x7990 JUMP JUMPDEST PUSH1 0x40 MLOAD DUP1 SWAP2 SUB SWAP1 REVERT JUMPDEST DUP1 PUSH1 0xD PUSH0 DUP5 DUP2 MSTORE PUSH1 0x20 ADD SWAP1 DUP2 MSTORE PUSH1 0x20 ADD PUSH0 KECCAK256 SWAP1 DUP2 PUSH2 0x6A97 SWAP2 SWAP1 PUSH2 0x9761 JUMP JUMPDEST POP PUSH32 0x6BD5C950A8D8DF17F772F5AF37CB3655737899CBF903264B9795592DA439661C PUSH2 0x6AC2 DUP4 PUSH2 0x6E56 JUMP JUMPDEST DUP4 PUSH1 0x40 MLOAD PUSH2 0x6AD1 SWAP3 SWAP2 SWAP1 PUSH2 0xA629 JUMP JUMPDEST PUSH1 0x40 MLOAD DUP1 SWAP2 SUB SWAP1 LOG1 POP POP JUMP JUMPDEST PUSH0 PUSH2 0x6AE6 PUSH2 0x6F76 JUMP JUMPDEST PUSH2 0x6B1C JUMPI PUSH1 0x40 MLOAD PUSH32 0xF409EC7300000000000000000000000000000000000000000000000000000000 DUP2 MSTORE PUSH1 0x4 ADD PUSH1 0x40 MLOAD DUP1 SWAP2 SUB SWAP1 REVERT JUMPDEST PUSH0 DUP7 SUB PUSH2 0x6B55 JUMPI PUSH1 0x40 MLOAD PUSH32 0x8FD36A9B00000000000000000000000000000000000000000000000000000000 DUP2 MSTORE PUSH1 0x4 ADD PUSH1 0x40 MLOAD DUP1 SWAP2 SUB SWAP1 REVERT JUMPDEST PUSH0 PUSH1 0x10 SLOAD SWAP1 POP PUSH2 0x6BA9 DUP2 DUP9 DUP9 DUP9 DUP1 DUP1 PUSH1 0x1F ADD PUSH1 0x20 DUP1 SWAP2 DIV MUL PUSH1 0x20 ADD PUSH1 0x40 MLOAD SWAP1 DUP2 ADD PUSH1 0x40 MSTORE DUP1 SWAP4 SWAP3 SWAP2 SWAP1 DUP2 DUP2 MSTORE PUSH1 0x20 ADD DUP4 DUP4 DUP1 DUP3 DUP5 CALLDATACOPY PUSH0 DUP2 DUP5 ADD MSTORE PUSH1 0x1F NOT PUSH1 0x1F DUP3 ADD AND SWAP1 POP DUP1 DUP4 ADD SWAP3 POP POP POP POP POP POP POP PUSH2 0x6FB2 JUMP JUMPDEST PUSH1 0x10 PUSH0 DUP3 SWAP6 POP DUP4 SWAP2 SWAP1 POP SSTORE POP POP DUP1 PUSH32 0x2A0365091EF1A40953C670DCE28177E37520648A6FDC91506BFFAC0AB045570D PUSH1 0x1 DUP10 DUP5 PUSH2 0x6BE6 SWAP2 SWAP1 PUSH2 0x8B87 JUMP JUMPDEST PUSH2 0x6BF0 SWAP2 SWAP1 PUSH2 0x8ED6 JUMP JUMPDEST DUP9 DUP9 DUP9 DUP9 PUSH1 0x40 MLOAD PUSH2 0x6C05 SWAP6 SWAP5 SWAP4 SWAP3 SWAP2 SWAP1 PUSH2 0xAC42 JUMP JUMPDEST PUSH1 0x40 MLOAD DUP1 SWAP2 SUB SWAP1 LOG2 POP SWAP6 SWAP5 POP POP POP POP POP JUMP JUMPDEST PUSH1 0x60 PUSH0 PUSH2 0x6C25 DUP4 PUSH0 ADD PUSH2 0x7012 JUMP JUMPDEST SWAP1 POP PUSH1 0x60 DUP2 SWAP1 POP DUP1 SWAP3 POP POP POP SWAP2 SWAP1 POP JUMP JUMPDEST PUSH0 PUSH0 PUSH0 DUP4 SWAP1 POP PUSH0 PUSH0 SWAP1 POP PUSH0 PUSH0 SWAP1 POP JUMPDEST DUP9 DUP9 SWAP1 POP DUP2 LT ISZERO PUSH2 0x6CBE JUMPI PUSH1 0x2 DUP3 PUSH2 0x6C5D SWAP2 SWAP1 PUSH2 0x8E38 JUMP JUMPDEST SWAP2 POP PUSH0 DUP10 DUP10 DUP4 DUP2 DUP2 LT PUSH2 0x6C73 JUMPI PUSH2 0x6C72 PUSH2 0x935E JUMP JUMPDEST JUMPDEST SWAP1 POP PUSH1 0x20 MUL ADD CALLDATALOAD SWAP1 POP DUP1 DUP5 GT PUSH2 0x6C94 JUMPI PUSH2 0x6C8D DUP5 DUP3 PUSH2 0x706B JUMP JUMPDEST SWAP4 POP PUSH2 0x6CB0 JUMP JUMPDEST PUSH2 0x6C9E DUP2 DUP6 PUSH2 0x706B JUMP JUMPDEST SWAP4 POP PUSH1 0x1 DUP4 PUSH2 0x6CAD SWAP2 SWAP1 PUSH2 0x8B87 JUMP JUMPDEST SWAP3 POP JUMPDEST POP DUP1 DUP1 PUSH1 0x1 ADD SWAP2 POP POP PUSH2 0x6C45 JUMP JUMPDEST POP DUP6 DUP3 EQ DUP2 SWAP4 POP SWAP4 POP POP POP SWAP5 POP SWAP5 SWAP3 POP POP POP JUMP JUMPDEST PUSH0 PUSH2 0x6CDD DUP4 DUP4 PUSH2 0x707F JUMP JUMPDEST PUSH2 0x6D2F JUMPI DUP3 PUSH0 ADD DUP3 SWAP1 DUP1 PUSH1 0x1 DUP2 SLOAD ADD DUP1 DUP3 SSTORE DUP1 SWAP2 POP POP PUSH1 0x1 SWAP1 SUB SWAP1 PUSH0 MSTORE PUSH1 0x20 PUSH0 KECCAK256 ADD PUSH0 SWAP1 SWAP2 SWAP1 SWAP2 SWAP1 SWAP2 POP SSTORE DUP3 PUSH0 ADD DUP1 SLOAD SWAP1 POP DUP4 PUSH1 0x1 ADD PUSH0 DUP5 DUP2 MSTORE PUSH1 0x20 ADD SWAP1 DUP2 MSTORE PUSH1 0x20 ADD PUSH0 KECCAK256 DUP2 SWAP1 SSTORE POP PUSH1 0x1 SWAP1 POP PUSH2 0x6D33 JUMP JUMPDEST PUSH0 SWAP1 POP JUMPDEST SWAP3 SWAP2 POP POP JUMP JUMPDEST PUSH2 0x6D52 DUP3 DUP3 PUSH1 0x40 MLOAD DUP1 PUSH1 0x20 ADD PUSH1 0x40 MSTORE DUP1 PUSH0 DUP2 MSTORE POP PUSH2 0x709F JUMP JUMPDEST POP POP JUMP JUMPDEST POP POP POP POP JUMP JUMPDEST POP POP POP POP JUMP JUMPDEST PUSH0 DUP2 SUB ISZERO PUSH2 0x6DCE JUMPI PUSH20 0xEEEEEEEEEEEEEEEEEEEEEEEEEEEEEEEEEEEEEEEE PUSH20 0xFFFFFFFFFFFFFFFFFFFFFFFFFFFFFFFFFFFFFFFF AND DUP5 PUSH20 0xFFFFFFFFFFFFFFFFFFFFFFFFFFFFFFFFFFFFFFFF AND SUB PUSH2 0x6DC0 JUMPI PUSH2 0x6DBB DUP3 DUP3 PUSH2 0x7444 JUMP JUMPDEST PUSH2 0x6DCD JUMP JUMPDEST PUSH2 0x6DCC DUP5 DUP5 DUP5 DUP5 PUSH2 0x74F5 JUMP JUMPDEST JUMPDEST JUMPDEST POP POP POP POP JUMP JUMPDEST PUSH1 0x60 PUSH0 PUSH0 DUP6 PUSH20 0xFFFFFFFFFFFFFFFFFFFFFFFFFFFFFFFFFFFFFFFF AND DUP6 PUSH1 0x40 MLOAD PUSH2 0x6DFD SWAP2 SWAP1 PUSH2 0xACB9 JUMP JUMPDEST PUSH0 PUSH1 0x40 MLOAD DUP1 DUP4 SUB DUP2 DUP6 GAS DELEGATECALL SWAP2 POP POP RETURNDATASIZE DUP1 PUSH0 DUP2 EQ PUSH2 0x6E35 JUMPI PUSH1 0x40 MLOAD SWAP2 POP PUSH1 0x1F NOT PUSH1 0x3F RETURNDATASIZE ADD AND DUP3 ADD PUSH1 0x40 MSTORE RETURNDATASIZE DUP3 MSTORE RETURNDATASIZE PUSH0 PUSH1 0x20 DUP5 ADD RETURNDATACOPY PUSH2 0x6E3A JUMP JUMPDEST PUSH1 0x60 SWAP2 POP JUMPDEST POP SWAP2 POP SWAP2 POP PUSH2 0x6E4B DUP7 DUP4 DUP4 DUP8 PUSH2 0x75C1 JUMP JUMPDEST SWAP3 POP POP POP SWAP4 SWAP3 POP POP POP JUMP JUMPDEST PUSH0 PUSH0 PUSH2 0x6E60 PUSH2 0x2F58 JUMP JUMPDEST SWAP1 POP PUSH0 PUSH1 0xC DUP1 SLOAD DUP1 PUSH1 0x20 MUL PUSH1 0x20 ADD PUSH1 0x40 MLOAD SWAP1 DUP2 ADD PUSH1 0x40 MSTORE DUP1 SWAP3 SWAP2 SWAP1 DUP2 DUP2 MSTORE PUSH1 0x20 ADD DUP3 DUP1 SLOAD DUP1 ISZERO PUSH2 0x6EAD JUMPI PUSH1 0x20 MUL DUP3 ADD SWAP2 SWAP1 PUSH0 MSTORE PUSH1 0x20 PUSH0 KECCAK256 SWAP1 JUMPDEST DUP2 SLOAD DUP2 MSTORE PUSH1 0x20 ADD SWAP1 PUSH1 0x1 ADD SWAP1 DUP1 DUP4 GT PUSH2 0x6E99 JUMPI JUMPDEST POP POP POP POP POP SWAP1 POP PUSH0 PUSH0 SWAP1 POP JUMPDEST DUP3 DUP2 LT ISZERO PUSH2 0x6F33 JUMPI DUP2 DUP2 DUP2 MLOAD DUP2 LT PUSH2 0x6ED4 JUMPI PUSH2 0x6ED3 PUSH2 0x935E JUMP JUMPDEST JUMPDEST PUSH1 0x20 MUL PUSH1 0x20 ADD ADD MLOAD DUP6 SUB PUSH2 0x6F26 JUMPI PUSH0 DUP2 GT ISZERO PUSH2 0x6F1B JUMPI DUP2 PUSH1 0x1 DUP3 PUSH2 0x6EF8 SWAP2 SWAP1 PUSH2 0x8ED6 JUMP JUMPDEST DUP2 MLOAD DUP2 LT PUSH2 0x6F09 JUMPI PUSH2 0x6F08 PUSH2 0x935E JUMP JUMPDEST JUMPDEST PUSH1 0x20 MUL PUSH1 0x20 ADD ADD MLOAD SWAP4 POP POP POP POP PUSH2 0x6F71 JUMP JUMPDEST PUSH0 SWAP4 POP POP POP POP PUSH2 0x6F71 JUMP JUMPDEST DUP1 DUP1 PUSH1 0x1 ADD SWAP2 POP POP PUSH2 0x6EB9 JUMP JUMPDEST POP DUP4 PUSH1 0x40 MLOAD PUSH32 0xF2624EE00000000000000000000000000000000000000000000000000000000 DUP2 MSTORE PUSH1 0x4 ADD PUSH2 0x6F68 SWAP2 SWAP1 PUSH2 0x7990 JUMP JUMPDEST PUSH1 0x40 MLOAD DUP1 SWAP2 SUB SWAP1 REVERT JUMPDEST SWAP2 SWAP1 POP JUMP JUMPDEST PUSH0 PUSH2 0x6F7F PUSH2 0x3556 JUMP JUMPDEST PUSH20 0xFFFFFFFFFFFFFFFFFFFFFFFFFFFFFFFFFFFFFFFF AND CALLER PUSH20 0xFFFFFFFFFFFFFFFFFFFFFFFFFFFFFFFFFFFFFFFF AND EQ SWAP1 POP SWAP1 JUMP JUMPDEST PUSH0 PUSH0 DUP4 DUP6 PUSH2 0x6FC0 SWAP2 SWAP1 PUSH2 0x8B87 JUMP JUMPDEST SWAP1 POP DUP1 SWAP2 POP PUSH1 0xC DUP2 SWAP1 DUP1 PUSH1 0x1 DUP2 SLOAD ADD DUP1 DUP3 SSTORE DUP1 SWAP2 POP POP PUSH1 0x1 SWAP1 SUB SWAP1 PUSH0 MSTORE PUSH1 0x20 PUSH0 KECCAK256 ADD PUSH0 SWAP1 SWAP2 SWAP1 SWAP2 SWAP1 SWAP2 POP SSTORE DUP3 PUSH1 0xD PUSH0 DUP4 DUP2 MSTORE PUSH1 0x20 ADD SWAP1 DUP2 MSTORE PUSH1 0x20 ADD PUSH0 KECCAK256 SWAP1 DUP2 PUSH2 0x7009 SWAP2 SWAP1 PUSH2 0x9761 JUMP JUMPDEST POP SWAP4 POP SWAP4 SWAP2 POP POP JUMP JUMPDEST PUSH1 0x60 DUP2 PUSH0 ADD DUP1 SLOAD DUP1 PUSH1 0x20 MUL PUSH1 0x20 ADD PUSH1 0x40 MLOAD SWAP1 DUP2 ADD PUSH1 0x40 MSTORE DUP1 SWAP3 SWAP2 SWAP1 DUP2 DUP2 MSTORE PUSH1 0x20 ADD DUP3 DUP1 SLOAD DUP1 ISZERO PUSH2 0x705F JUMPI PUSH1 0x20 MUL DUP3 ADD SWAP2 SWAP1 PUSH0 MSTORE PUSH1 0x20 PUSH0 KECCAK256 SWAP1 JUMPDEST DUP2 SLOAD DUP2 MSTORE PUSH1 0x20 ADD SWAP1 PUSH1 0x1 ADD SWAP1 DUP1 DUP4 GT PUSH2 0x704B JUMPI JUMPDEST POP POP POP POP POP SWAP1 POP SWAP2 SWAP1 POP JUMP JUMPDEST PUSH0 DUP3 PUSH0 MSTORE DUP2 PUSH1 0x20 MSTORE PUSH1 0x40 PUSH0 KECCAK256 SWAP1 POP SWAP3 SWAP2 POP POP JUMP JUMPDEST PUSH0 PUSH0 DUP4 PUSH1 0x1 ADD PUSH0 DUP5 DUP2 MSTORE PUSH1 0x20 ADD SWAP1 DUP2 MSTORE PUSH1 0x20 ADD PUSH0 KECCAK256 SLOAD EQ ISZERO SWAP1 POP SWAP3 SWAP2 POP POP JUMP JUMPDEST PUSH0 PUSH0 SLOAD SWAP1 POP PUSH0 PUSH20 0xFFFFFFFFFFFFFFFFFFFFFFFFFFFFFFFFFFFFFFFF AND DUP5 PUSH20 0xFFFFFFFFFFFFFFFFFFFFFFFFFFFFFFFFFFFFFFFF AND SUB PUSH2 0x7109 JUMPI PUSH1 0x40 MLOAD PUSH32 0x2E07630000000000000000000000000000000000000000000000000000000000 DUP2 MSTORE PUSH1 0x4 ADD PUSH1 0x40 MLOAD DUP1 SWAP2 SUB SWAP1 REVERT JUMPDEST PUSH0 DUP4 SUB PUSH2 0x7142 JUMPI PUSH1 0x40 MLOAD PUSH32 0xB562E8DD00000000000000000000000000000000000000000000000000000000 DUP2 MSTORE PUSH1 0x4 ADD PUSH1 0x40 MLOAD DUP1 SWAP2 SUB SWAP1 REVERT JUMPDEST PUSH2 0x714E PUSH0 DUP6 DUP4 DUP7 PUSH2 0x6D56 JUMP JUMPDEST DUP3 PUSH1 0x5 PUSH0 DUP7 PUSH20 0xFFFFFFFFFFFFFFFFFFFFFFFFFFFFFFFFFFFFFFFF AND PUSH20 0xFFFFFFFFFFFFFFFFFFFFFFFFFFFFFFFFFFFFFFFF AND DUP2 MSTORE PUSH1 0x20 ADD SWAP1 DUP2 MSTORE PUSH1 0x20 ADD PUSH0 KECCAK256 PUSH0 ADD PUSH0 DUP3 DUP3 DUP3 SWAP1 SLOAD SWAP1 PUSH2 0x100 EXP SWAP1 DIV PUSH8 0xFFFFFFFFFFFFFFFF AND ADD SWAP3 POP PUSH2 0x100 EXP DUP2 SLOAD DUP2 PUSH8 0xFFFFFFFFFFFFFFFF MUL NOT AND SWAP1 DUP4 PUSH8 0xFFFFFFFFFFFFFFFF AND MUL OR SWAP1 SSTORE POP DUP3 PUSH1 0x5 PUSH0 DUP7 PUSH20 0xFFFFFFFFFFFFFFFFFFFFFFFFFFFFFFFFFFFFFFFF AND PUSH20 0xFFFFFFFFFFFFFFFFFFFFFFFFFFFFFFFFFFFFFFFF AND DUP2 MSTORE PUSH1 0x20 ADD SWAP1 DUP2 MSTORE PUSH1 0x20 ADD PUSH0 KECCAK256 PUSH0 ADD PUSH1 0x8 DUP3 DUP3 DUP3 SWAP1 SLOAD SWAP1 PUSH2 0x100 EXP SWAP1 DIV PUSH8 0xFFFFFFFFFFFFFFFF AND ADD SWAP3 POP PUSH2 0x100 EXP DUP2 SLOAD DUP2 PUSH8 0xFFFFFFFFFFFFFFFF MUL NOT AND SWAP1 DUP4 PUSH8 0xFFFFFFFFFFFFFFFF AND MUL OR SWAP1 SSTORE POP DUP4 PUSH1 0x4 PUSH0 DUP4 DUP2 MSTORE PUSH1 0x20 ADD SWAP1 DUP2 MSTORE PUSH1 0x20 ADD PUSH0 KECCAK256 PUSH0 ADD PUSH0 PUSH2 0x100 EXP DUP2 SLOAD DUP2 PUSH20 0xFFFFFFFFFFFFFFFFFFFFFFFFFFFFFFFFFFFFFFFF MUL NOT AND SWAP1 DUP4 PUSH20 0xFFFFFFFFFFFFFFFFFFFFFFFFFFFFFFFFFFFFFFFF AND MUL OR SWAP1 SSTORE POP TIMESTAMP PUSH1 0x4 PUSH0 DUP4 DUP2 MSTORE PUSH1 0x20 ADD SWAP1 DUP2 MSTORE PUSH1 0x20 ADD PUSH0 KECCAK256 PUSH0 ADD PUSH1 0x14 PUSH2 0x100 EXP DUP2 SLOAD DUP2 PUSH8 0xFFFFFFFFFFFFFFFF MUL NOT AND SWAP1 DUP4 PUSH8 0xFFFFFFFFFFFFFFFF AND MUL OR SWAP1 SSTORE POP PUSH0 DUP2 SWAP1 POP PUSH0 DUP5 DUP3 ADD SWAP1 POP PUSH2 0x72FF DUP7 PUSH20 0xFFFFFFFFFFFFFFFFFFFFFFFFFFFFFFFFFFFFFFFF AND PUSH2 0x6718 JUMP JUMPDEST ISZERO PUSH2 0x73C0 JUMPI JUMPDEST DUP2 DUP7 PUSH20 0xFFFFFFFFFFFFFFFFFFFFFFFFFFFFFFFFFFFFFFFF AND PUSH0 PUSH20 0xFFFFFFFFFFFFFFFFFFFFFFFFFFFFFFFFFFFFFFFF AND PUSH32 0xDDF252AD1BE2C89B69C2B068FC378DAA952BA7F163C4A11628F55A4DF523B3EF PUSH1 0x40 MLOAD PUSH1 0x40 MLOAD DUP1 SWAP2 SUB SWAP1 LOG4 PUSH2 0x7372 PUSH0 DUP8 DUP5 DUP1 PUSH1 0x1 ADD SWAP6 POP DUP8 PUSH2 0x673A JUMP JUMPDEST PUSH2 0x73A8 JUMPI PUSH1 0x40 MLOAD PUSH32 0xD1A57ED600000000000000000000000000000000000000000000000000000000 DUP2 MSTORE PUSH1 0x4 ADD PUSH1 0x40 MLOAD DUP1 SWAP2 SUB SWAP1 REVERT JUMPDEST DUP1 DUP3 LT PUSH2 0x7305 JUMPI DUP3 PUSH0 SLOAD EQ PUSH2 0x73BB JUMPI PUSH0 PUSH0 REVERT JUMPDEST PUSH2 0x742A JUMP JUMPDEST JUMPDEST DUP2 DUP1 PUSH1 0x1 ADD SWAP3 POP DUP7 PUSH20 0xFFFFFFFFFFFFFFFFFFFFFFFFFFFFFFFFFFFFFFFF AND PUSH0 PUSH20 0xFFFFFFFFFFFFFFFFFFFFFFFFFFFFFFFFFFFFFFFF AND PUSH32 0xDDF252AD1BE2C89B69C2B068FC378DAA952BA7F163C4A11628F55A4DF523B3EF PUSH1 0x40 MLOAD PUSH1 0x40 MLOAD DUP1 SWAP2 SUB SWAP1 LOG4 DUP1 DUP3 LT PUSH2 0x73C1 JUMPI JUMPDEST DUP2 PUSH0 DUP2 SWAP1 SSTORE POP POP POP PUSH2 0x743E PUSH0 DUP6 DUP4 DUP7 PUSH2 0x6D5C JUMP JUMPDEST POP POP POP POP JUMP JUMPDEST PUSH0 DUP3 PUSH20 0xFFFFFFFFFFFFFFFFFFFFFFFFFFFFFFFFFFFFFFFF AND DUP3 PUSH1 0x40 MLOAD PUSH2 0x7469 SWAP1 PUSH2 0x8F9E JUMP JUMPDEST PUSH0 PUSH1 0x40 MLOAD DUP1 DUP4 SUB DUP2 DUP6 DUP8 GAS CALL SWAP3 POP POP POP RETURNDATASIZE DUP1 PUSH0 DUP2 EQ PUSH2 0x74A3 JUMPI PUSH1 0x40 MLOAD SWAP2 POP PUSH1 0x1F NOT PUSH1 0x3F RETURNDATASIZE ADD AND DUP3 ADD PUSH1 0x40 MSTORE RETURNDATASIZE DUP3 MSTORE RETURNDATASIZE PUSH0 PUSH1 0x20 DUP5 ADD RETURNDATACOPY PUSH2 0x74A8 JUMP JUMPDEST PUSH1 0x60 SWAP2 POP JUMPDEST POP POP SWAP1 POP DUP1 PUSH2 0x74F0 JUMPI DUP3 DUP3 PUSH1 0x40 MLOAD PUSH32 0xBFB89D8200000000000000000000000000000000000000000000000000000000 DUP2 MSTORE PUSH1 0x4 ADD PUSH2 0x74E7 SWAP3 SWAP2 SWAP1 PUSH2 0x7EA1 JUMP JUMPDEST PUSH1 0x40 MLOAD DUP1 SWAP2 SUB SWAP1 REVERT JUMPDEST POP POP POP JUMP JUMPDEST DUP2 PUSH20 0xFFFFFFFFFFFFFFFFFFFFFFFFFFFFFFFFFFFFFFFF AND DUP4 PUSH20 0xFFFFFFFFFFFFFFFFFFFFFFFFFFFFFFFFFFFFFFFF AND SUB ISZERO PUSH2 0x75BB JUMPI ADDRESS PUSH20 0xFFFFFFFFFFFFFFFFFFFFFFFFFFFFFFFFFFFFFFFF AND DUP4 PUSH20 0xFFFFFFFFFFFFFFFFFFFFFFFFFFFFFFFFFFFFFFFF AND SUB PUSH2 0x758C JUMPI PUSH2 0x7587 DUP3 DUP3 DUP7 PUSH20 0xFFFFFFFFFFFFFFFFFFFFFFFFFFFFFFFFFFFFFFFF AND PUSH2 0x7635 SWAP1 SWAP3 SWAP2 SWAP1 PUSH4 0xFFFFFFFF AND JUMP JUMPDEST PUSH2 0x75BA JUMP JUMPDEST PUSH2 0x75B9 DUP4 DUP4 DUP4 DUP8 PUSH20 0xFFFFFFFFFFFFFFFFFFFFFFFFFFFFFFFFFFFFFFFF AND PUSH2 0x76BB SWAP1 SWAP4 SWAP3 SWAP2 SWAP1 PUSH4 0xFFFFFFFF AND JUMP JUMPDEST JUMPDEST JUMPDEST POP POP POP POP JUMP JUMPDEST PUSH1 0x60 DUP4 ISZERO PUSH2 0x7622 JUMPI PUSH0 DUP4 MLOAD SUB PUSH2 0x761A JUMPI PUSH2 0x75DA DUP6 PUSH2 0x6718 JUMP JUMPDEST PUSH2 0x7619 JUMPI PUSH1 0x40 MLOAD PUSH32 0x8C379A000000000000000000000000000000000000000000000000000000000 DUP2 MSTORE PUSH1 0x4 ADD PUSH2 0x7610 SWAP1 PUSH2 0xAD19 JUMP JUMPDEST PUSH1 0x40 MLOAD DUP1 SWAP2 SUB SWAP1 REVERT JUMPDEST JUMPDEST DUP3 SWAP1 POP PUSH2 0x762D JUMP JUMPDEST PUSH2 0x762C DUP4 DUP4 PUSH2 0x7744 JUMP JUMPDEST JUMPDEST SWAP5 SWAP4 POP POP POP POP JUMP JUMPDEST PUSH2 0x76B6 DUP4 PUSH4 0xA9059CBB PUSH1 0xE0 SHL DUP5 DUP5 PUSH1 0x40 MLOAD PUSH1 0x24 ADD PUSH2 0x7654 SWAP3 SWAP2 SWAP1 PUSH2 0x7EA1 JUMP JUMPDEST PUSH1 0x40 MLOAD PUSH1 0x20 DUP2 DUP4 SUB SUB DUP2 MSTORE SWAP1 PUSH1 0x40 MSTORE SWAP1 PUSH28 0xFFFFFFFFFFFFFFFFFFFFFFFFFFFFFFFFFFFFFFFFFFFFFFFFFFFFFFFF NOT AND PUSH1 0x20 DUP3 ADD DUP1 MLOAD PUSH28 0xFFFFFFFFFFFFFFFFFFFFFFFFFFFFFFFFFFFFFFFFFFFFFFFFFFFFFFFF DUP4 DUP2 DUP4 AND OR DUP4 MSTORE POP POP POP POP PUSH2 0x7793 JUMP JUMPDEST POP POP POP JUMP JUMPDEST PUSH2 0x773E DUP5 PUSH4 0x23B872DD PUSH1 0xE0 SHL DUP6 DUP6 DUP6 PUSH1 0x40 MLOAD PUSH1 0x24 ADD PUSH2 0x76DC SWAP4 SWAP3 SWAP2 SWAP1 PUSH2 0x9150 JUMP JUMPDEST PUSH1 0x40 MLOAD PUSH1 0x20 DUP2 DUP4 SUB SUB DUP2 MSTORE SWAP1 PUSH1 0x40 MSTORE SWAP1 PUSH28 0xFFFFFFFFFFFFFFFFFFFFFFFFFFFFFFFFFFFFFFFFFFFFFFFFFFFFFFFF NOT AND PUSH1 0x20 DUP3 ADD DUP1 MLOAD PUSH28 0xFFFFFFFFFFFFFFFFFFFFFFFFFFFFFFFFFFFFFFFFFFFFFFFFFFFFFFFF DUP4 DUP2 DUP4 AND OR DUP4 MSTORE POP POP POP POP PUSH2 0x7793 JUMP JUMPDEST POP POP POP POP JUMP JUMPDEST PUSH0 DUP3 MLOAD GT ISZERO PUSH2 0x7756 JUMPI DUP2 MLOAD DUP1 DUP4 PUSH1 0x20 ADD REVERT JUMPDEST DUP1 PUSH1 0x40 MLOAD PUSH32 0x8C379A000000000000000000000000000000000000000000000000000000000 DUP2 MSTORE PUSH1 0x4 ADD PUSH2 0x778A SWAP2 SWAP1 PUSH2 0x7ADD JUMP JUMPDEST PUSH1 0x40 MLOAD DUP1 SWAP2 SUB SWAP1 REVERT JUMPDEST PUSH0 PUSH2 0x77F4 DUP3 PUSH1 0x40 MLOAD DUP1 PUSH1 0x40 ADD PUSH1 0x40 MSTORE DUP1 PUSH1 0x20 DUP2 MSTORE PUSH1 0x20 ADD PUSH32 0x5361666545524332303A206C6F772D6C6576656C2063616C6C206661696C6564 DUP2 MSTORE POP DUP6 PUSH20 0xFFFFFFFFFFFFFFFFFFFFFFFFFFFFFFFFFFFFFFFF AND PUSH2 0x7858 SWAP1 SWAP3 SWAP2 SWAP1 PUSH4 0xFFFFFFFF AND JUMP JUMPDEST SWAP1 POP PUSH0 DUP2 MLOAD GT ISZERO PUSH2 0x7853 JUMPI DUP1 DUP1 PUSH1 0x20 ADD SWAP1 MLOAD DUP2 ADD SWAP1 PUSH2 0x7813 SWAP2 SWAP1 PUSH2 0x9199 JUMP JUMPDEST PUSH2 0x7852 JUMPI PUSH1 0x40 MLOAD PUSH32 0x8C379A000000000000000000000000000000000000000000000000000000000 DUP2 MSTORE PUSH1 0x4 ADD PUSH2 0x7849 SWAP1 PUSH2 0xADA7 JUMP JUMPDEST PUSH1 0x40 MLOAD DUP1 SWAP2 SUB SWAP1 REVERT JUMPDEST JUMPDEST POP POP POP JUMP JUMPDEST PUSH1 0x60 PUSH2 0x7866 DUP5 DUP5 PUSH0 DUP6 PUSH2 0x786F JUMP JUMPDEST SWAP1 POP SWAP4 SWAP3 POP POP POP JUMP JUMPDEST PUSH1 0x60 DUP3 SELFBALANCE LT ISZERO PUSH2 0x78B4 JUMPI PUSH1 0x40 MLOAD PUSH32 0x8C379A000000000000000000000000000000000000000000000000000000000 DUP2 MSTORE PUSH1 0x4 ADD PUSH2 0x78AB SWAP1 PUSH2 0xAE35 JUMP JUMPDEST PUSH1 0x40 MLOAD DUP1 SWAP2 SUB SWAP1 REVERT JUMPDEST PUSH0 PUSH0 DUP7 PUSH20 0xFFFFFFFFFFFFFFFFFFFFFFFFFFFFFFFFFFFFFFFF AND DUP6 DUP8 PUSH1 0x40 MLOAD PUSH2 0x78DC SWAP2 SWAP1 PUSH2 0xACB9 JUMP JUMPDEST PUSH0 PUSH1 0x40 MLOAD DUP1 DUP4 SUB DUP2 DUP6 DUP8 GAS CALL SWAP3 POP POP POP RETURNDATASIZE DUP1 PUSH0 DUP2 EQ PUSH2 0x7916 JUMPI PUSH1 0x40 MLOAD SWAP2 POP PUSH1 0x1F NOT PUSH1 0x3F RETURNDATASIZE ADD AND DUP3 ADD PUSH1 0x40 MSTORE RETURNDATASIZE DUP3 MSTORE RETURNDATASIZE PUSH0 PUSH1 0x20 DUP5 ADD RETURNDATACOPY PUSH2 0x791B JUMP JUMPDEST PUSH1 0x60 SWAP2 POP JUMPDEST POP SWAP2 POP SWAP2 POP PUSH2 0x792C DUP8 DUP4 DUP4 DUP8 PUSH2 0x75C1 JUMP JUMPDEST SWAP3 POP POP POP SWAP5 SWAP4 POP POP POP POP JUMP JUMPDEST PUSH1 0x40 MLOAD DUP1 PUSH1 0x60 ADD PUSH1 0x40 MSTORE DUP1 PUSH0 PUSH20 0xFFFFFFFFFFFFFFFFFFFFFFFFFFFFFFFFFFFFFFFF AND DUP2 MSTORE PUSH1 0x20 ADD PUSH0 PUSH8 0xFFFFFFFFFFFFFFFF AND DUP2 MSTORE PUSH1 0x20 ADD PUSH0 ISZERO ISZERO DUP2 MSTORE POP SWAP1 JUMP JUMPDEST PUSH0 DUP2 SWAP1 POP SWAP2 SWAP1 POP JUMP JUMPDEST PUSH2 0x798A DUP2 PUSH2 0x7978 JUMP JUMPDEST DUP3 MSTORE POP POP JUMP JUMPDEST PUSH0 PUSH1 0x20 DUP3 ADD SWAP1 POP PUSH2 0x79A3 PUSH0 DUP4 ADD DUP5 PUSH2 0x7981 JUMP JUMPDEST SWAP3 SWAP2 POP POP JUMP JUMPDEST PUSH0 PUSH1 0x40 MLOAD SWAP1 POP SWAP1 JUMP JUMPDEST PUSH0 PUSH0 REVERT JUMPDEST PUSH0 PUSH0 REVERT JUMPDEST PUSH0 PUSH32 0xFFFFFFFF00000000000000000000000000000000000000000000000000000000 DUP3 AND SWAP1 POP SWAP2 SWAP1 POP JUMP JUMPDEST PUSH2 0x79EE DUP2 PUSH2 0x79BA JUMP JUMPDEST DUP2 EQ PUSH2 0x79F8 JUMPI PUSH0 PUSH0 REVERT JUMPDEST POP JUMP JUMPDEST PUSH0 DUP2 CALLDATALOAD SWAP1 POP PUSH2 0x7A09 DUP2 PUSH2 0x79E5 JUMP JUMPDEST SWAP3 SWAP2 POP POP JUMP JUMPDEST PUSH0 PUSH1 0x20 DUP3 DUP5 SUB SLT ISZERO PUSH2 0x7A24 JUMPI PUSH2 0x7A23 PUSH2 0x79B2 JUMP JUMPDEST JUMPDEST PUSH0 PUSH2 0x7A31 DUP5 DUP3 DUP6 ADD PUSH2 0x79FB JUMP JUMPDEST SWAP2 POP POP SWAP3 SWAP2 POP POP JUMP JUMPDEST PUSH0 DUP2 ISZERO ISZERO SWAP1 POP SWAP2 SWAP1 POP JUMP JUMPDEST PUSH2 0x7A4E DUP2 PUSH2 0x7A3A JUMP JUMPDEST DUP3 MSTORE POP POP JUMP JUMPDEST PUSH0 PUSH1 0x20 DUP3 ADD SWAP1 POP PUSH2 0x7A67 PUSH0 DUP4 ADD DUP5 PUSH2 0x7A45 JUMP JUMPDEST SWAP3 SWAP2 POP POP JUMP JUMPDEST PUSH0 DUP2 MLOAD SWAP1 POP SWAP2 SWAP1 POP JUMP JUMPDEST PUSH0 DUP3 DUP3 MSTORE PUSH1 0x20 DUP3 ADD SWAP1 POP SWAP3 SWAP2 POP POP JUMP JUMPDEST DUP3 DUP2 DUP4 MCOPY PUSH0 DUP4 DUP4 ADD MSTORE POP POP POP JUMP JUMPDEST PUSH0 PUSH1 0x1F NOT PUSH1 0x1F DUP4 ADD AND SWAP1 POP SWAP2 SWAP1 POP JUMP JUMPDEST PUSH0 PUSH2 0x7AAF DUP3 PUSH2 0x7A6D JUMP JUMPDEST PUSH2 0x7AB9 DUP2 DUP6 PUSH2 0x7A77 JUMP JUMPDEST SWAP4 POP PUSH2 0x7AC9 DUP2 DUP6 PUSH1 0x20 DUP7 ADD PUSH2 0x7A87 JUMP JUMPDEST PUSH2 0x7AD2 DUP2 PUSH2 0x7A95 JUMP JUMPDEST DUP5 ADD SWAP2 POP POP SWAP3 SWAP2 POP POP JUMP JUMPDEST PUSH0 PUSH1 0x20 DUP3 ADD SWAP1 POP DUP2 DUP2 SUB PUSH0 DUP4 ADD MSTORE PUSH2 0x7AF5 DUP2 DUP5 PUSH2 0x7AA5 JUMP JUMPDEST SWAP1 POP SWAP3 SWAP2 POP POP JUMP JUMPDEST PUSH0 PUSH20 0xFFFFFFFFFFFFFFFFFFFFFFFFFFFFFFFFFFFFFFFF DUP3 AND SWAP1 POP SWAP2 SWAP1 POP JUMP JUMPDEST PUSH0 PUSH2 0x7B26 DUP3 PUSH2 0x7AFD JUMP JUMPDEST SWAP1 POP SWAP2 SWAP1 POP JUMP JUMPDEST PUSH2 0x7B36 DUP2 PUSH2 0x7B1C JUMP JUMPDEST DUP3 MSTORE POP POP JUMP JUMPDEST PUSH0 PUSH1 0x20 DUP3 ADD SWAP1 POP PUSH2 0x7B4F PUSH0 DUP4 ADD DUP5 PUSH2 0x7B2D JUMP JUMPDEST SWAP3 SWAP2 POP POP JUMP JUMPDEST PUSH2 0x7B5E DUP2 PUSH2 0x7978 JUMP JUMPDEST DUP2 EQ PUSH2 0x7B68 JUMPI PUSH0 PUSH0 REVERT JUMPDEST POP JUMP JUMPDEST PUSH0 DUP2 CALLDATALOAD SWAP1 POP PUSH2 0x7B79 DUP2 PUSH2 0x7B55 JUMP JUMPDEST SWAP3 SWAP2 POP POP JUMP JUMPDEST PUSH0 PUSH1 0x20 DUP3 DUP5 SUB SLT ISZERO PUSH2 0x7B94 JUMPI PUSH2 0x7B93 PUSH2 0x79B2 JUMP JUMPDEST JUMPDEST PUSH0 PUSH2 0x7BA1 DUP5 DUP3 DUP6 ADD PUSH2 0x7B6B JUMP JUMPDEST SWAP2 POP POP SWAP3 SWAP2 POP POP JUMP JUMPDEST PUSH2 0x7BB3 DUP2 PUSH2 0x7B1C JUMP JUMPDEST DUP2 EQ PUSH2 0x7BBD JUMPI PUSH0 PUSH0 REVERT JUMPDEST POP JUMP JUMPDEST PUSH0 DUP2 CALLDATALOAD SWAP1 POP PUSH2 0x7BCE DUP2 PUSH2 0x7BAA JUMP JUMPDEST SWAP3 SWAP2 POP POP JUMP JUMPDEST PUSH0 PUSH0 PUSH1 0x40 DUP4 DUP6 SUB SLT ISZERO PUSH2 0x7BEA JUMPI PUSH2 0x7BE9 PUSH2 0x79B2 JUMP JUMPDEST JUMPDEST PUSH0 PUSH2 0x7BF7 DUP6 DUP3 DUP7 ADD PUSH2 0x7BC0 JUMP JUMPDEST SWAP3 POP POP PUSH1 0x20 PUSH2 0x7C08 DUP6 DUP3 DUP7 ADD PUSH2 0x7B6B JUMP JUMPDEST SWAP2 POP POP SWAP3 POP SWAP3 SWAP1 POP JUMP JUMPDEST PUSH0 PUSH0 REVERT JUMPDEST PUSH0 PUSH0 REVERT JUMPDEST PUSH32 0x4E487B7100000000000000000000000000000000000000000000000000000000 PUSH0 MSTORE PUSH1 0x41 PUSH1 0x4 MSTORE PUSH1 0x24 PUSH0 REVERT JUMPDEST PUSH2 0x7C50 DUP3 PUSH2 0x7A95 JUMP JUMPDEST DUP2 ADD DUP2 DUP2 LT PUSH8 0xFFFFFFFFFFFFFFFF DUP3 GT OR ISZERO PUSH2 0x7C6F JUMPI PUSH2 0x7C6E PUSH2 0x7C1A JUMP JUMPDEST JUMPDEST DUP1 PUSH1 0x40 MSTORE POP POP POP JUMP JUMPDEST PUSH0 PUSH2 0x7C81 PUSH2 0x79A9 JUMP JUMPDEST SWAP1 POP PUSH2 0x7C8D DUP3 DUP3 PUSH2 0x7C47 JUMP JUMPDEST SWAP2 SWAP1 POP JUMP JUMPDEST PUSH0 PUSH8 0xFFFFFFFFFFFFFFFF DUP3 GT ISZERO PUSH2 0x7CAC JUMPI PUSH2 0x7CAB PUSH2 0x7C1A JUMP JUMPDEST JUMPDEST PUSH2 0x7CB5 DUP3 PUSH2 0x7A95 JUMP JUMPDEST SWAP1 POP PUSH1 0x20 DUP2 ADD SWAP1 POP SWAP2 SWAP1 POP JUMP JUMPDEST DUP3 DUP2 DUP4 CALLDATACOPY PUSH0 DUP4 DUP4 ADD MSTORE POP POP POP JUMP JUMPDEST PUSH0 PUSH2 0x7CE2 PUSH2 0x7CDD DUP5 PUSH2 0x7C92 JUMP JUMPDEST PUSH2 0x7C78 JUMP JUMPDEST SWAP1 POP DUP3 DUP2 MSTORE PUSH1 0x20 DUP2 ADD DUP5 DUP5 DUP5 ADD GT ISZERO PUSH2 0x7CFE JUMPI PUSH2 0x7CFD PUSH2 0x7C16 JUMP JUMPDEST JUMPDEST PUSH2 0x7D09 DUP5 DUP3 DUP6 PUSH2 0x7CC2 JUMP JUMPDEST POP SWAP4 SWAP3 POP POP POP JUMP JUMPDEST PUSH0 DUP3 PUSH1 0x1F DUP4 ADD SLT PUSH2 0x7D25 JUMPI PUSH2 0x7D24 PUSH2 0x7C12 JUMP JUMPDEST JUMPDEST DUP2 CALLDATALOAD PUSH2 0x7D35 DUP5 DUP3 PUSH1 0x20 DUP7 ADD PUSH2 0x7CD0 JUMP JUMPDEST SWAP2 POP POP SWAP3 SWAP2 POP POP JUMP JUMPDEST PUSH0 PUSH0 PUSH0 PUSH1 0x60 DUP5 DUP7 SUB SLT ISZERO PUSH2 0x7D55 JUMPI PUSH2 0x7D54 PUSH2 0x79B2 JUMP JUMPDEST JUMPDEST PUSH0 PUSH2 0x7D62 DUP7 DUP3 DUP8 ADD PUSH2 0x7B6B JUMP JUMPDEST SWAP4 POP POP PUSH1 0x20 DUP5 ADD CALLDATALOAD PUSH8 0xFFFFFFFFFFFFFFFF DUP2 GT ISZERO PUSH2 0x7D83 JUMPI PUSH2 0x7D82 PUSH2 0x79B6 JUMP JUMPDEST JUMPDEST PUSH2 0x7D8F DUP7 DUP3 DUP8 ADD PUSH2 0x7D11 JUMP JUMPDEST SWAP3 POP POP PUSH1 0x40 PUSH2 0x7DA0 DUP7 DUP3 DUP8 ADD PUSH2 0x7BC0 JUMP JUMPDEST SWAP2 POP POP SWAP3 POP SWAP3 POP SWAP3 JUMP JUMPDEST PUSH0 PUSH1 0x20 DUP3 DUP5 SUB SLT ISZERO PUSH2 0x7DBF JUMPI PUSH2 0x7DBE PUSH2 0x79B2 JUMP JUMPDEST JUMPDEST PUSH0 PUSH2 0x7DCC DUP5 DUP3 DUP6 ADD PUSH2 0x7BC0 JUMP JUMPDEST SWAP2 POP POP SWAP3 SWAP2 POP POP JUMP JUMPDEST PUSH0 PUSH0 PUSH0 PUSH1 0x60 DUP5 DUP7 SUB SLT ISZERO PUSH2 0x7DEC JUMPI PUSH2 0x7DEB PUSH2 0x79B2 JUMP JUMPDEST JUMPDEST PUSH0 PUSH2 0x7DF9 DUP7 DUP3 DUP8 ADD PUSH2 0x7BC0 JUMP JUMPDEST SWAP4 POP POP PUSH1 0x20 PUSH2 0x7E0A DUP7 DUP3 DUP8 ADD PUSH2 0x7BC0 JUMP JUMPDEST SWAP3 POP POP PUSH1 0x40 PUSH2 0x7E1B DUP7 DUP3 DUP8 ADD PUSH2 0x7B6B JUMP JUMPDEST SWAP2 POP POP SWAP3 POP SWAP3 POP SWAP3 JUMP JUMPDEST PUSH0 PUSH0 PUSH1 0x40 DUP4 DUP6 SUB SLT ISZERO PUSH2 0x7E3B JUMPI PUSH2 0x7E3A PUSH2 0x79B2 JUMP JUMPDEST JUMPDEST PUSH0 PUSH2 0x7E48 DUP6 DUP3 DUP7 ADD PUSH2 0x7BC0 JUMP JUMPDEST SWAP3 POP POP PUSH1 0x20 PUSH2 0x7E59 DUP6 DUP3 DUP7 ADD PUSH2 0x7BC0 JUMP JUMPDEST SWAP2 POP POP SWAP3 POP SWAP3 SWAP1 POP JUMP JUMPDEST PUSH0 PUSH0 PUSH1 0x40 DUP4 DUP6 SUB SLT ISZERO PUSH2 0x7E79 JUMPI PUSH2 0x7E78 PUSH2 0x79B2 JUMP JUMPDEST JUMPDEST PUSH0 PUSH2 0x7E86 DUP6 DUP3 DUP7 ADD PUSH2 0x7B6B JUMP JUMPDEST SWAP3 POP POP PUSH1 0x20 PUSH2 0x7E97 DUP6 DUP3 DUP7 ADD PUSH2 0x7B6B JUMP JUMPDEST SWAP2 POP POP SWAP3 POP SWAP3 SWAP1 POP JUMP JUMPDEST PUSH0 PUSH1 0x40 DUP3 ADD SWAP1 POP PUSH2 0x7EB4 PUSH0 DUP4 ADD DUP6 PUSH2 0x7B2D JUMP JUMPDEST PUSH2 0x7EC1 PUSH1 0x20 DUP4 ADD DUP5 PUSH2 0x7981 JUMP JUMPDEST SWAP4 SWAP3 POP POP POP JUMP JUMPDEST PUSH0 PUSH0 REVERT JUMPDEST PUSH0 PUSH2 0x100 DUP3 DUP5 SUB SLT ISZERO PUSH2 0x7EE2 JUMPI PUSH2 0x7EE1 PUSH2 0x7EC8 JUMP JUMPDEST JUMPDEST DUP2 SWAP1 POP SWAP3 SWAP2 POP POP JUMP JUMPDEST PUSH2 0x7EF4 DUP2 PUSH2 0x7A3A JUMP JUMPDEST DUP2 EQ PUSH2 0x7EFE JUMPI PUSH0 PUSH0 REVERT JUMPDEST POP JUMP JUMPDEST PUSH0 DUP2 CALLDATALOAD SWAP1 POP PUSH2 0x7F0F DUP2 PUSH2 0x7EEB JUMP JUMPDEST SWAP3 SWAP2 POP POP JUMP JUMPDEST PUSH0 PUSH0 PUSH1 0x40 DUP4 DUP6 SUB SLT ISZERO PUSH2 0x7F2B JUMPI PUSH2 0x7F2A PUSH2 0x79B2 JUMP JUMPDEST JUMPDEST PUSH0 DUP4 ADD CALLDATALOAD PUSH8 0xFFFFFFFFFFFFFFFF DUP2 GT ISZERO PUSH2 0x7F48 JUMPI PUSH2 0x7F47 PUSH2 0x79B6 JUMP JUMPDEST JUMPDEST PUSH2 0x7F54 DUP6 DUP3 DUP7 ADD PUSH2 0x7ECC JUMP JUMPDEST SWAP3 POP POP PUSH1 0x20 PUSH2 0x7F65 DUP6 DUP3 DUP7 ADD PUSH2 0x7F01 JUMP JUMPDEST SWAP2 POP POP SWAP3 POP SWAP3 SWAP1 POP JUMP JUMPDEST PUSH0 PUSH2 0xFFFF DUP3 AND SWAP1 POP SWAP2 SWAP1 POP JUMP JUMPDEST PUSH2 0x7F85 DUP2 PUSH2 0x7F6F JUMP JUMPDEST DUP3 MSTORE POP POP JUMP JUMPDEST PUSH0 PUSH1 0x40 DUP3 ADD SWAP1 POP PUSH2 0x7F9E PUSH0 DUP4 ADD DUP6 PUSH2 0x7B2D JUMP JUMPDEST PUSH2 0x7FAB PUSH1 0x20 DUP4 ADD DUP5 PUSH2 0x7F7C JUMP JUMPDEST SWAP4 SWAP3 POP POP POP JUMP JUMPDEST PUSH0 PUSH1 0x20 DUP3 DUP5 SUB SLT ISZERO PUSH2 0x7FC7 JUMPI PUSH2 0x7FC6 PUSH2 0x79B2 JUMP JUMPDEST JUMPDEST PUSH0 DUP3 ADD CALLDATALOAD PUSH8 0xFFFFFFFFFFFFFFFF DUP2 GT ISZERO PUSH2 0x7FE4 JUMPI PUSH2 0x7FE3 PUSH2 0x79B6 JUMP JUMPDEST JUMPDEST PUSH2 0x7FF0 DUP5 DUP3 DUP6 ADD PUSH2 0x7D11 JUMP JUMPDEST SWAP2 POP POP SWAP3 SWAP2 POP POP JUMP JUMPDEST PUSH0 PUSH8 0xFFFFFFFFFFFFFFFF DUP3 GT ISZERO PUSH2 0x8013 JUMPI PUSH2 0x8012 PUSH2 0x7C1A JUMP JUMPDEST JUMPDEST PUSH1 0x20 DUP3 MUL SWAP1 POP PUSH1 0x20 DUP2 ADD SWAP1 POP SWAP2 SWAP1 POP JUMP JUMPDEST PUSH0 PUSH0 REVERT JUMPDEST PUSH0 PUSH2 0x803A PUSH2 0x8035 DUP5 PUSH2 0x7FF9 JUMP JUMPDEST PUSH2 0x7C78 JUMP JUMPDEST SWAP1 POP DUP1 DUP4 DUP3 MSTORE PUSH1 0x20 DUP3 ADD SWAP1 POP PUSH1 0x20 DUP5 MUL DUP4 ADD DUP6 DUP2 GT ISZERO PUSH2 0x805D JUMPI PUSH2 0x805C PUSH2 0x8024 JUMP JUMPDEST JUMPDEST DUP4 JUMPDEST DUP2 DUP2 LT ISZERO PUSH2 0x8086 JUMPI DUP1 PUSH2 0x8072 DUP9 DUP3 PUSH2 0x7B6B JUMP JUMPDEST DUP5 MSTORE PUSH1 0x20 DUP5 ADD SWAP4 POP POP PUSH1 0x20 DUP2 ADD SWAP1 POP PUSH2 0x805F JUMP JUMPDEST POP POP POP SWAP4 SWAP3 POP POP POP JUMP JUMPDEST PUSH0 DUP3 PUSH1 0x1F DUP4 ADD SLT PUSH2 0x80A4 JUMPI PUSH2 0x80A3 PUSH2 0x7C12 JUMP JUMPDEST JUMPDEST DUP2 CALLDATALOAD PUSH2 0x80B4 DUP5 DUP3 PUSH1 0x20 DUP7 ADD PUSH2 0x8028 JUMP JUMPDEST SWAP2 POP POP SWAP3 SWAP2 POP POP JUMP JUMPDEST PUSH0 PUSH0 PUSH0 PUSH1 0x60 DUP5 DUP7 SUB SLT ISZERO PUSH2 0x80D4 JUMPI PUSH2 0x80D3 PUSH2 0x79B2 JUMP JUMPDEST JUMPDEST PUSH0 PUSH2 0x80E1 DUP7 DUP3 DUP8 ADD PUSH2 0x7B6B JUMP JUMPDEST SWAP4 POP POP PUSH1 0x20 DUP5 ADD CALLDATALOAD PUSH8 0xFFFFFFFFFFFFFFFF DUP2 GT ISZERO PUSH2 0x8102 JUMPI PUSH2 0x8101 PUSH2 0x79B6 JUMP JUMPDEST JUMPDEST PUSH2 0x810E DUP7 DUP3 DUP8 ADD PUSH2 0x8090 JUMP JUMPDEST SWAP3 POP POP PUSH1 0x40 DUP5 ADD CALLDATALOAD PUSH8 0xFFFFFFFFFFFFFFFF DUP2 GT ISZERO PUSH2 0x812F JUMPI PUSH2 0x812E PUSH2 0x79B6 JUMP JUMPDEST JUMPDEST PUSH2 0x813B DUP7 DUP3 DUP8 ADD PUSH2 0x8090 JUMP JUMPDEST SWAP2 POP POP SWAP3 POP SWAP3 POP SWAP3 JUMP JUMPDEST PUSH0 PUSH1 0x80 DUP3 DUP5 SUB SLT ISZERO PUSH2 0x815A JUMPI PUSH2 0x8159 PUSH2 0x7EC8 JUMP JUMPDEST JUMPDEST DUP2 SWAP1 POP SWAP3 SWAP2 POP POP JUMP JUMPDEST PUSH0 PUSH8 0xFFFFFFFFFFFFFFFF DUP3 GT ISZERO PUSH2 0x817D JUMPI PUSH2 0x817C PUSH2 0x7C1A JUMP JUMPDEST JUMPDEST PUSH2 0x8186 DUP3 PUSH2 0x7A95 JUMP JUMPDEST SWAP1 POP PUSH1 0x20 DUP2 ADD SWAP1 POP SWAP2 SWAP1 POP JUMP JUMPDEST PUSH0 PUSH2 0x81A5 PUSH2 0x81A0 DUP5 PUSH2 0x8163 JUMP JUMPDEST PUSH2 0x7C78 JUMP JUMPDEST SWAP1 POP DUP3 DUP2 MSTORE PUSH1 0x20 DUP2 ADD DUP5 DUP5 DUP5 ADD GT ISZERO PUSH2 0x81C1 JUMPI PUSH2 0x81C0 PUSH2 0x7C16 JUMP JUMPDEST JUMPDEST PUSH2 0x81CC DUP5 DUP3 DUP6 PUSH2 0x7CC2 JUMP JUMPDEST POP SWAP4 SWAP3 POP POP POP JUMP JUMPDEST PUSH0 DUP3 PUSH1 0x1F DUP4 ADD SLT PUSH2 0x81E8 JUMPI PUSH2 0x81E7 PUSH2 0x7C12 JUMP JUMPDEST JUMPDEST DUP2 CALLDATALOAD PUSH2 0x81F8 DUP5 DUP3 PUSH1 0x20 DUP7 ADD PUSH2 0x8193 JUMP JUMPDEST SWAP2 POP POP SWAP3 SWAP2 POP POP JUMP JUMPDEST PUSH0 PUSH0 PUSH0 PUSH0 PUSH0 PUSH0 PUSH1 0xC0 DUP8 DUP10 SUB SLT ISZERO PUSH2 0x821B JUMPI PUSH2 0x821A PUSH2 0x79B2 JUMP JUMPDEST JUMPDEST PUSH0 PUSH2 0x8228 DUP10 DUP3 DUP11 ADD PUSH2 0x7BC0 JUMP JUMPDEST SWAP7 POP POP PUSH1 0x20 PUSH2 0x8239 DUP10 DUP3 DUP11 ADD PUSH2 0x7B6B JUMP JUMPDEST SWAP6 POP POP PUSH1 0x40 PUSH2 0x824A DUP10 DUP3 DUP11 ADD PUSH2 0x7BC0 JUMP JUMPDEST SWAP5 POP POP PUSH1 0x60 PUSH2 0x825B DUP10 DUP3 DUP11 ADD PUSH2 0x7B6B JUMP JUMPDEST SWAP4 POP POP PUSH1 0x80 DUP8 ADD CALLDATALOAD PUSH8 0xFFFFFFFFFFFFFFFF DUP2 GT ISZERO PUSH2 0x827C JUMPI PUSH2 0x827B PUSH2 0x79B6 JUMP JUMPDEST JUMPDEST PUSH2 0x8288 DUP10 DUP3 DUP11 ADD PUSH2 0x8145 JUMP JUMPDEST SWAP3 POP POP PUSH1 0xA0 DUP8 ADD CALLDATALOAD PUSH8 0xFFFFFFFFFFFFFFFF DUP2 GT ISZERO PUSH2 0x82A9 JUMPI PUSH2 0x82A8 PUSH2 0x79B6 JUMP JUMPDEST JUMPDEST PUSH2 0x82B5 DUP10 DUP3 DUP11 ADD PUSH2 0x81D4 JUMP JUMPDEST SWAP2 POP POP SWAP3 SWAP6 POP SWAP3 SWAP6 POP SWAP3 SWAP6 JUMP JUMPDEST PUSH0 PUSH0 PUSH0 PUSH1 0x60 DUP5 DUP7 SUB SLT ISZERO PUSH2 0x82D9 JUMPI PUSH2 0x82D8 PUSH2 0x79B2 JUMP JUMPDEST JUMPDEST PUSH0 PUSH2 0x82E6 DUP7 DUP3 DUP8 ADD PUSH2 0x7B6B JUMP JUMPDEST SWAP4 POP POP PUSH1 0x20 PUSH2 0x82F7 DUP7 DUP3 DUP8 ADD PUSH2 0x7BC0 JUMP JUMPDEST SWAP3 POP POP PUSH1 0x40 PUSH2 0x8308 DUP7 DUP3 DUP8 ADD PUSH2 0x7B6B JUMP JUMPDEST SWAP2 POP POP SWAP3 POP SWAP3 POP SWAP3 JUMP JUMPDEST PUSH0 PUSH0 REVERT JUMPDEST PUSH0 PUSH0 DUP4 PUSH1 0x1F DUP5 ADD SLT PUSH2 0x832B JUMPI PUSH2 0x832A PUSH2 0x7C12 JUMP JUMPDEST JUMPDEST DUP3 CALLDATALOAD SWAP1 POP PUSH8 0xFFFFFFFFFFFFFFFF DUP2 GT ISZERO PUSH2 0x8348 JUMPI PUSH2 0x8347 PUSH2 0x8312 JUMP JUMPDEST JUMPDEST PUSH1 0x20 DUP4 ADD SWAP2 POP DUP4 PUSH1 0x1 DUP3 MUL DUP4 ADD GT ISZERO PUSH2 0x8364 JUMPI PUSH2 0x8363 PUSH2 0x8024 JUMP JUMPDEST JUMPDEST SWAP3 POP SWAP3 SWAP1 POP JUMP JUMPDEST PUSH0 PUSH0 PUSH0 PUSH1 0x40 DUP5 DUP7 SUB SLT ISZERO PUSH2 0x8382 JUMPI PUSH2 0x8381 PUSH2 0x79B2 JUMP JUMPDEST JUMPDEST PUSH0 PUSH2 0x838F DUP7 DUP3 DUP8 ADD PUSH2 0x7B6B JUMP JUMPDEST SWAP4 POP POP PUSH1 0x20 DUP5 ADD CALLDATALOAD PUSH8 0xFFFFFFFFFFFFFFFF DUP2 GT ISZERO PUSH2 0x83B0 JUMPI PUSH2 0x83AF PUSH2 0x79B6 JUMP JUMPDEST JUMPDEST PUSH2 0x83BC DUP7 DUP3 DUP8 ADD PUSH2 0x8316 JUMP JUMPDEST SWAP3 POP SWAP3 POP POP SWAP3 POP SWAP3 POP SWAP3 JUMP JUMPDEST PUSH0 DUP2 MLOAD SWAP1 POP SWAP2 SWAP1 POP JUMP JUMPDEST PUSH0 DUP3 DUP3 MSTORE PUSH1 0x20 DUP3 ADD SWAP1 POP SWAP3 SWAP2 POP POP JUMP JUMPDEST PUSH0 PUSH2 0x83EC DUP3 PUSH2 0x83C8 JUMP JUMPDEST PUSH2 0x83F6 DUP2 DUP6 PUSH2 0x83D2 JUMP JUMPDEST SWAP4 POP PUSH2 0x8406 DUP2 DUP6 PUSH1 0x20 DUP7 ADD PUSH2 0x7A87 JUMP JUMPDEST PUSH2 0x840F DUP2 PUSH2 0x7A95 JUMP JUMPDEST DUP5 ADD SWAP2 POP POP SWAP3 SWAP2 POP POP JUMP JUMPDEST PUSH0 PUSH1 0x20 DUP3 ADD SWAP1 POP DUP2 DUP2 SUB PUSH0 DUP4 ADD MSTORE PUSH2 0x8432 DUP2 DUP5 PUSH2 0x83E2 JUMP JUMPDEST SWAP1 POP SWAP3 SWAP2 POP POP JUMP JUMPDEST PUSH0 PUSH0 PUSH1 0x40 DUP4 DUP6 SUB SLT ISZERO PUSH2 0x8450 JUMPI PUSH2 0x844F PUSH2 0x79B2 JUMP JUMPDEST JUMPDEST PUSH0 PUSH2 0x845D DUP6 DUP3 DUP7 ADD PUSH2 0x7BC0 JUMP JUMPDEST SWAP3 POP POP PUSH1 0x20 PUSH2 0x846E DUP6 DUP3 DUP7 ADD PUSH2 0x7F01 JUMP JUMPDEST SWAP2 POP POP SWAP3 POP SWAP3 SWAP1 POP JUMP JUMPDEST PUSH0 PUSH0 DUP4 PUSH1 0x1F DUP5 ADD SLT PUSH2 0x848D JUMPI PUSH2 0x848C PUSH2 0x7C12 JUMP JUMPDEST JUMPDEST DUP3 CALLDATALOAD SWAP1 POP PUSH8 0xFFFFFFFFFFFFFFFF DUP2 GT ISZERO PUSH2 0x84AA JUMPI PUSH2 0x84A9 PUSH2 0x8312 JUMP JUMPDEST JUMPDEST PUSH1 0x20 DUP4 ADD SWAP2 POP DUP4 PUSH1 0x20 DUP3 MUL DUP4 ADD GT ISZERO PUSH2 0x84C6 JUMPI PUSH2 0x84C5 PUSH2 0x8024 JUMP JUMPDEST JUMPDEST SWAP3 POP SWAP3 SWAP1 POP JUMP JUMPDEST PUSH0 PUSH0 PUSH1 0x20 DUP4 DUP6 SUB SLT ISZERO PUSH2 0x84E3 JUMPI PUSH2 0x84E2 PUSH2 0x79B2 JUMP JUMPDEST JUMPDEST PUSH0 DUP4 ADD CALLDATALOAD PUSH8 0xFFFFFFFFFFFFFFFF DUP2 GT ISZERO PUSH2 0x8500 JUMPI PUSH2 0x84FF PUSH2 0x79B6 JUMP JUMPDEST JUMPDEST PUSH2 0x850C DUP6 DUP3 DUP7 ADD PUSH2 0x8478 JUMP JUMPDEST SWAP3 POP SWAP3 POP POP SWAP3 POP SWAP3 SWAP1 POP JUMP JUMPDEST PUSH0 DUP2 MLOAD SWAP1 POP SWAP2 SWAP1 POP JUMP JUMPDEST PUSH0 DUP3 DUP3 MSTORE PUSH1 0x20 DUP3 ADD SWAP1 POP SWAP3 SWAP2 POP POP JUMP JUMPDEST PUSH0 DUP2 SWAP1 POP PUSH1 0x20 DUP3 ADD SWAP1 POP SWAP2 SWAP1 POP JUMP JUMPDEST PUSH0 DUP3 DUP3 MSTORE PUSH1 0x20 DUP3 ADD SWAP1 POP SWAP3 SWAP2 POP POP JUMP JUMPDEST PUSH0 PUSH2 0x855B DUP3 PUSH2 0x83C8 JUMP JUMPDEST PUSH2 0x8565 DUP2 DUP6 PUSH2 0x8541 JUMP JUMPDEST SWAP4 POP PUSH2 0x8575 DUP2 DUP6 PUSH1 0x20 DUP7 ADD PUSH2 0x7A87 JUMP JUMPDEST PUSH2 0x857E DUP2 PUSH2 0x7A95 JUMP JUMPDEST DUP5 ADD SWAP2 POP POP SWAP3 SWAP2 POP POP JUMP JUMPDEST PUSH0 PUSH2 0x8594 DUP4 DUP4 PUSH2 0x8551 JUMP JUMPDEST SWAP1 POP SWAP3 SWAP2 POP POP JUMP JUMPDEST PUSH0 PUSH1 0x20 DUP3 ADD SWAP1 POP SWAP2 SWAP1 POP JUMP JUMPDEST PUSH0 PUSH2 0x85B2 DUP3 PUSH2 0x8518 JUMP JUMPDEST PUSH2 0x85BC DUP2 DUP6 PUSH2 0x8522 JUMP JUMPDEST SWAP4 POP DUP4 PUSH1 0x20 DUP3 MUL DUP6 ADD PUSH2 0x85CE DUP6 PUSH2 0x8532 JUMP JUMPDEST DUP1 PUSH0 JUMPDEST DUP6 DUP2 LT ISZERO PUSH2 0x8609 JUMPI DUP5 DUP5 SUB DUP10 MSTORE DUP2 MLOAD PUSH2 0x85EA DUP6 DUP3 PUSH2 0x8589 JUMP JUMPDEST SWAP5 POP PUSH2 0x85F5 DUP4 PUSH2 0x859C JUMP JUMPDEST SWAP3 POP PUSH1 0x20 DUP11 ADD SWAP10 POP POP PUSH1 0x1 DUP2 ADD SWAP1 POP PUSH2 0x85D1 JUMP JUMPDEST POP DUP3 SWAP8 POP DUP8 SWAP6 POP POP POP POP POP POP SWAP3 SWAP2 POP POP JUMP JUMPDEST PUSH0 PUSH1 0x20 DUP3 ADD SWAP1 POP DUP2 DUP2 SUB PUSH0 DUP4 ADD MSTORE PUSH2 0x8633 DUP2 DUP5 PUSH2 0x85A8 JUMP JUMPDEST SWAP1 POP SWAP3 SWAP2 POP POP JUMP JUMPDEST PUSH0 PUSH0 PUSH0 PUSH0 PUSH1 0x80 DUP6 DUP8 SUB SLT ISZERO PUSH2 0x8653 JUMPI PUSH2 0x8652 PUSH2 0x79B2 JUMP JUMPDEST JUMPDEST PUSH0 PUSH2 0x8660 DUP8 DUP3 DUP9 ADD PUSH2 0x7BC0 JUMP JUMPDEST SWAP5 POP POP PUSH1 0x20 PUSH2 0x8671 DUP8 DUP3 DUP9 ADD PUSH2 0x7BC0 JUMP JUMPDEST SWAP4 POP POP PUSH1 0x40 PUSH2 0x8682 DUP8 DUP3 DUP9 ADD PUSH2 0x7B6B JUMP JUMPDEST SWAP3 POP POP PUSH1 0x60 DUP6 ADD CALLDATALOAD PUSH8 0xFFFFFFFFFFFFFFFF DUP2 GT ISZERO PUSH2 0x86A3 JUMPI PUSH2 0x86A2 PUSH2 0x79B6 JUMP JUMPDEST JUMPDEST PUSH2 0x86AF DUP8 DUP3 DUP9 ADD PUSH2 0x81D4 JUMP JUMPDEST SWAP2 POP POP SWAP3 SWAP6 SWAP2 SWAP5 POP SWAP3 POP JUMP JUMPDEST PUSH0 PUSH0 PUSH1 0x40 DUP4 DUP6 SUB SLT ISZERO PUSH2 0x86D1 JUMPI PUSH2 0x86D0 PUSH2 0x79B2 JUMP JUMPDEST JUMPDEST PUSH0 DUP4 ADD CALLDATALOAD PUSH8 0xFFFFFFFFFFFFFFFF DUP2 GT ISZERO PUSH2 0x86EE JUMPI PUSH2 0x86ED PUSH2 0x79B6 JUMP JUMPDEST JUMPDEST PUSH2 0x86FA DUP6 DUP3 DUP7 ADD PUSH2 0x8090 JUMP JUMPDEST SWAP3 POP POP PUSH1 0x20 DUP4 ADD CALLDATALOAD PUSH8 0xFFFFFFFFFFFFFFFF DUP2 GT ISZERO PUSH2 0x871B JUMPI PUSH2 0x871A PUSH2 0x79B6 JUMP JUMPDEST JUMPDEST PUSH2 0x8727 DUP6 DUP3 DUP7 ADD PUSH2 0x8090 JUMP JUMPDEST SWAP2 POP POP SWAP3 POP SWAP3 SWAP1 POP JUMP JUMPDEST PUSH0 PUSH0 DUP4 PUSH1 0x1F DUP5 ADD SLT PUSH2 0x8746 JUMPI PUSH2 0x8745 PUSH2 0x7C12 JUMP JUMPDEST JUMPDEST DUP3 CALLDATALOAD SWAP1 POP PUSH8 0xFFFFFFFFFFFFFFFF DUP2 GT ISZERO PUSH2 0x8763 JUMPI PUSH2 0x8762 PUSH2 0x8312 JUMP JUMPDEST JUMPDEST PUSH1 0x20 DUP4 ADD SWAP2 POP DUP4 PUSH1 0x1 DUP3 MUL DUP4 ADD GT ISZERO PUSH2 0x877F JUMPI PUSH2 0x877E PUSH2 0x8024 JUMP JUMPDEST JUMPDEST SWAP3 POP SWAP3 SWAP1 POP JUMP JUMPDEST PUSH0 PUSH0 PUSH0 PUSH0 PUSH0 PUSH1 0x60 DUP7 DUP9 SUB SLT ISZERO PUSH2 0x879F JUMPI PUSH2 0x879E PUSH2 0x79B2 JUMP JUMPDEST JUMPDEST PUSH0 PUSH2 0x87AC DUP9 DUP3 DUP10 ADD PUSH2 0x7B6B JUMP JUMPDEST SWAP6 POP POP PUSH1 0x20 DUP7 ADD CALLDATALOAD PUSH8 0xFFFFFFFFFFFFFFFF DUP2 GT ISZERO PUSH2 0x87CD JUMPI PUSH2 0x87CC PUSH2 0x79B6 JUMP JUMPDEST JUMPDEST PUSH2 0x87D9 DUP9 DUP3 DUP10 ADD PUSH2 0x8731 JUMP JUMPDEST SWAP5 POP SWAP5 POP POP PUSH1 0x40 DUP7 ADD CALLDATALOAD PUSH8 0xFFFFFFFFFFFFFFFF DUP2 GT ISZERO PUSH2 0x87FC JUMPI PUSH2 0x87FB PUSH2 0x79B6 JUMP JUMPDEST JUMPDEST PUSH2 0x8808 DUP9 DUP3 DUP10 ADD PUSH2 0x8316 JUMP JUMPDEST SWAP3 POP SWAP3 POP POP SWAP3 SWAP6 POP SWAP3 SWAP6 SWAP1 SWAP4 POP JUMP JUMPDEST PUSH0 DUP2 MLOAD SWAP1 POP SWAP2 SWAP1 POP JUMP JUMPDEST PUSH0 DUP3 DUP3 MSTORE PUSH1 0x20 DUP3 ADD SWAP1 POP SWAP3 SWAP2 POP POP JUMP JUMPDEST PUSH0 DUP2 SWAP1 POP PUSH1 0x20 DUP3 ADD SWAP1 POP SWAP2 SWAP1 POP JUMP JUMPDEST PUSH2 0x8849 DUP2 PUSH2 0x7B1C JUMP JUMPDEST DUP3 MSTORE POP POP JUMP JUMPDEST PUSH0 PUSH2 0x885A DUP4 DUP4 PUSH2 0x8840 JUMP JUMPDEST PUSH1 0x20 DUP4 ADD SWAP1 POP SWAP3 SWAP2 POP POP JUMP JUMPDEST PUSH0 PUSH1 0x20 DUP3 ADD SWAP1 POP SWAP2 SWAP1 POP JUMP JUMPDEST PUSH0 PUSH2 0x887C DUP3 PUSH2 0x8817 JUMP JUMPDEST PUSH2 0x8886 DUP2 DUP6 PUSH2 0x8821 JUMP JUMPDEST SWAP4 POP PUSH2 0x8891 DUP4 PUSH2 0x8831 JUMP JUMPDEST DUP1 PUSH0 JUMPDEST DUP4 DUP2 LT ISZERO PUSH2 0x88C1 JUMPI DUP2 MLOAD PUSH2 0x88A8 DUP9 DUP3 PUSH2 0x884F JUMP JUMPDEST SWAP8 POP PUSH2 0x88B3 DUP4 PUSH2 0x8866 JUMP JUMPDEST SWAP3 POP POP PUSH1 0x1 DUP2 ADD SWAP1 POP PUSH2 0x8894 JUMP JUMPDEST POP DUP6 SWAP4 POP POP POP POP SWAP3 SWAP2 POP POP JUMP JUMPDEST PUSH0 PUSH1 0x20 DUP3 ADD SWAP1 POP DUP2 DUP2 SUB PUSH0 DUP4 ADD MSTORE PUSH2 0x88E6 DUP2 DUP5 PUSH2 0x8872 JUMP JUMPDEST SWAP1 POP SWAP3 SWAP2 POP POP JUMP JUMPDEST PUSH0 DUP2 SWAP1 POP SWAP2 SWAP1 POP JUMP JUMPDEST PUSH2 0x8900 DUP2 PUSH2 0x88EE JUMP JUMPDEST DUP3 MSTORE POP POP JUMP JUMPDEST PUSH0 PUSH2 0x100 DUP3 ADD SWAP1 POP PUSH2 0x891A PUSH0 DUP4 ADD DUP12 PUSH2 0x7981 JUMP JUMPDEST PUSH2 0x8927 PUSH1 0x20 DUP4 ADD DUP11 PUSH2 0x7981 JUMP JUMPDEST PUSH2 0x8934 PUSH1 0x40 DUP4 ADD DUP10 PUSH2 0x7981 JUMP JUMPDEST PUSH2 0x8941 PUSH1 0x60 DUP4 ADD DUP9 PUSH2 0x7981 JUMP JUMPDEST PUSH2 0x894E PUSH1 0x80 DUP4 ADD DUP8 PUSH2 0x88F7 JUMP JUMPDEST PUSH2 0x895B PUSH1 0xA0 DUP4 ADD DUP7 PUSH2 0x7981 JUMP JUMPDEST PUSH2 0x8968 PUSH1 0xC0 DUP4 ADD DUP6 PUSH2 0x7B2D JUMP JUMPDEST DUP2 DUP2 SUB PUSH1 0xE0 DUP4 ADD MSTORE PUSH2 0x897A DUP2 DUP5 PUSH2 0x7AA5 JUMP JUMPDEST SWAP1 POP SWAP10 SWAP9 POP POP POP POP POP POP POP POP POP JUMP JUMPDEST PUSH0 PUSH0 PUSH0 PUSH1 0x40 DUP5 DUP7 SUB SLT ISZERO PUSH2 0x89A0 JUMPI PUSH2 0x899F PUSH2 0x79B2 JUMP JUMPDEST JUMPDEST PUSH0 DUP5 ADD CALLDATALOAD PUSH8 0xFFFFFFFFFFFFFFFF DUP2 GT ISZERO PUSH2 0x89BD JUMPI PUSH2 0x89BC PUSH2 0x79B6 JUMP JUMPDEST JUMPDEST PUSH2 0x89C9 DUP7 DUP3 DUP8 ADD PUSH2 0x81D4 JUMP JUMPDEST SWAP4 POP POP PUSH1 0x20 DUP5 ADD CALLDATALOAD PUSH8 0xFFFFFFFFFFFFFFFF DUP2 GT ISZERO PUSH2 0x89EA JUMPI PUSH2 0x89E9 PUSH2 0x79B6 JUMP JUMPDEST JUMPDEST PUSH2 0x89F6 DUP7 DUP3 DUP8 ADD PUSH2 0x8316 JUMP JUMPDEST SWAP3 POP SWAP3 POP POP SWAP3 POP SWAP3 POP SWAP3 JUMP JUMPDEST PUSH0 PUSH0 PUSH0 PUSH0 PUSH0 PUSH1 0xA0 DUP7 DUP9 SUB SLT ISZERO PUSH2 0x8A1B JUMPI PUSH2 0x8A1A PUSH2 0x79B2 JUMP JUMPDEST JUMPDEST PUSH0 PUSH2 0x8A28 DUP9 DUP3 DUP10 ADD PUSH2 0x7BC0 JUMP JUMPDEST SWAP6 POP POP PUSH1 0x20 PUSH2 0x8A39 DUP9 DUP3 DUP10 ADD PUSH2 0x7B6B JUMP JUMPDEST SWAP5 POP POP PUSH1 0x40 PUSH2 0x8A4A DUP9 DUP3 DUP10 ADD PUSH2 0x7BC0 JUMP JUMPDEST SWAP4 POP POP PUSH1 0x60 PUSH2 0x8A5B DUP9 DUP3 DUP10 ADD PUSH2 0x7B6B JUMP JUMPDEST SWAP3 POP POP PUSH1 0x80 DUP7 ADD CALLDATALOAD PUSH8 0xFFFFFFFFFFFFFFFF DUP2 GT ISZERO PUSH2 0x8A7C JUMPI PUSH2 0x8A7B PUSH2 0x79B6 JUMP JUMPDEST JUMPDEST PUSH2 0x8A88 DUP9 DUP3 DUP10 ADD PUSH2 0x8145 JUMP JUMPDEST SWAP2 POP POP SWAP3 SWAP6 POP SWAP3 SWAP6 SWAP1 SWAP4 POP JUMP JUMPDEST PUSH32 0x4E487B7100000000000000000000000000000000000000000000000000000000 PUSH0 MSTORE PUSH1 0x22 PUSH1 0x4 MSTORE PUSH1 0x24 PUSH0 REVERT JUMPDEST PUSH0 PUSH1 0x2 DUP3 DIV SWAP1 POP PUSH1 0x1 DUP3 AND DUP1 PUSH2 0x8AD9 JUMPI PUSH1 0x7F DUP3 AND SWAP2 POP JUMPDEST PUSH1 0x20 DUP3 LT DUP2 SUB PUSH2 0x8AEC JUMPI PUSH2 0x8AEB PUSH2 0x8A95 JUMP JUMPDEST JUMPDEST POP SWAP2 SWAP1 POP JUMP JUMPDEST PUSH32 0x5175616E746974792063616E6E6F74206265207A65726F000000000000000000 PUSH0 DUP3 ADD MSTORE POP JUMP JUMPDEST PUSH0 PUSH2 0x8B26 PUSH1 0x17 DUP4 PUSH2 0x7A77 JUMP JUMPDEST SWAP2 POP PUSH2 0x8B31 DUP3 PUSH2 0x8AF2 JUMP JUMPDEST PUSH1 0x20 DUP3 ADD SWAP1 POP SWAP2 SWAP1 POP JUMP JUMPDEST PUSH0 PUSH1 0x20 DUP3 ADD SWAP1 POP DUP2 DUP2 SUB PUSH0 DUP4 ADD MSTORE PUSH2 0x8B53 DUP2 PUSH2 0x8B1A JUMP JUMPDEST SWAP1 POP SWAP2 SWAP1 POP JUMP JUMPDEST PUSH32 0x4E487B7100000000000000000000000000000000000000000000000000000000 PUSH0 MSTORE PUSH1 0x11 PUSH1 0x4 MSTORE PUSH1 0x24 PUSH0 REVERT JUMPDEST PUSH0 PUSH2 0x8B91 DUP3 PUSH2 0x7978 JUMP JUMPDEST SWAP2 POP PUSH2 0x8B9C DUP4 PUSH2 0x7978 JUMP JUMPDEST SWAP3 POP DUP3 DUP3 ADD SWAP1 POP DUP1 DUP3 GT ISZERO PUSH2 0x8BB4 JUMPI PUSH2 0x8BB3 PUSH2 0x8B5A JUMP JUMPDEST JUMPDEST SWAP3 SWAP2 POP POP JUMP JUMPDEST PUSH32 0x45786365656473206D6178207065722077616C6C657400000000000000000000 PUSH0 DUP3 ADD MSTORE POP JUMP JUMPDEST PUSH0 PUSH2 0x8BEE PUSH1 0x16 DUP4 PUSH2 0x7A77 JUMP JUMPDEST SWAP2 POP PUSH2 0x8BF9 DUP3 PUSH2 0x8BBA JUMP JUMPDEST PUSH1 0x20 DUP3 ADD SWAP1 POP SWAP2 SWAP1 POP JUMP JUMPDEST PUSH0 PUSH1 0x20 DUP3 ADD SWAP1 POP DUP2 DUP2 SUB PUSH0 DUP4 ADD MSTORE PUSH2 0x8C1B DUP2 PUSH2 0x8BE2 JUMP JUMPDEST SWAP1 POP SWAP2 SWAP1 POP JUMP JUMPDEST PUSH32 0x4578636565647320746F74616C20737570706C79000000000000000000000000 PUSH0 DUP3 ADD MSTORE POP JUMP JUMPDEST PUSH0 PUSH2 0x8C56 PUSH1 0x14 DUP4 PUSH2 0x7A77 JUMP JUMPDEST SWAP2 POP PUSH2 0x8C61 DUP3 PUSH2 0x8C22 JUMP JUMPDEST PUSH1 0x20 DUP3 ADD SWAP1 POP SWAP2 SWAP1 POP JUMP JUMPDEST PUSH0 PUSH1 0x20 DUP3 ADD SWAP1 POP DUP2 DUP2 SUB PUSH0 DUP4 ADD MSTORE PUSH2 0x8C83 DUP2 PUSH2 0x8C4A JUMP JUMPDEST SWAP1 POP SWAP2 SWAP1 POP JUMP JUMPDEST PUSH32 0x446F75626C65207370656E64696E672070726F74656374696F6E3A2057616974 PUSH0 DUP3 ADD MSTORE PUSH32 0x20666F72203620626C6F636B7300000000000000000000000000000000000000 PUSH1 0x20 DUP3 ADD MSTORE POP JUMP JUMPDEST PUSH0 PUSH2 0x8CE4 PUSH1 0x2D DUP4 PUSH2 0x7A77 JUMP JUMPDEST SWAP2 POP PUSH2 0x8CEF DUP3 PUSH2 0x8C8A JUMP JUMPDEST PUSH1 0x40 DUP3 ADD SWAP1 POP SWAP2 SWAP1 POP JUMP JUMPDEST PUSH0 PUSH1 0x20 DUP3 ADD SWAP1 POP DUP2 DUP2 SUB PUSH0 DUP4 ADD MSTORE PUSH2 0x8D11 DUP2 PUSH2 0x8CD8 JUMP JUMPDEST SWAP1 POP SWAP2 SWAP1 POP JUMP JUMPDEST PUSH0 DUP2 SWAP1 POP SWAP3 SWAP2 POP POP JUMP JUMPDEST PUSH0 PUSH2 0x8D2C DUP3 PUSH2 0x7A6D JUMP JUMPDEST PUSH2 0x8D36 DUP2 DUP6 PUSH2 0x8D18 JUMP JUMPDEST SWAP4 POP PUSH2 0x8D46 DUP2 DUP6 PUSH1 0x20 DUP7 ADD PUSH2 0x7A87 JUMP JUMPDEST DUP1 DUP5 ADD SWAP2 POP POP SWAP3 SWAP2 POP POP JUMP JUMPDEST PUSH0 PUSH2 0x8D5D DUP3 DUP5 PUSH2 0x8D22 JUMP JUMPDEST SWAP2 POP DUP2 SWAP1 POP SWAP3 SWAP2 POP POP JUMP JUMPDEST PUSH32 0x496E76616C696420726566657272616C20636F64650000000000000000000000 PUSH0 DUP3 ADD MSTORE POP JUMP JUMPDEST PUSH0 PUSH2 0x8D9C PUSH1 0x15 DUP4 PUSH2 0x7A77 JUMP JUMPDEST SWAP2 POP PUSH2 0x8DA7 DUP3 PUSH2 0x8D68 JUMP JUMPDEST PUSH1 0x20 DUP3 ADD SWAP1 POP SWAP2 SWAP1 POP JUMP JUMPDEST PUSH0 PUSH1 0x20 DUP3 ADD SWAP1 POP DUP2 DUP2 SUB PUSH0 DUP4 ADD MSTORE PUSH2 0x8DC9 DUP2 PUSH2 0x8D90 JUMP JUMPDEST SWAP1 POP SWAP2 SWAP1 POP JUMP JUMPDEST PUSH32 0x43616E6E6F7420726566657220796F757273656C660000000000000000000000 PUSH0 DUP3 ADD MSTORE POP JUMP JUMPDEST PUSH0 PUSH2 0x8E04 PUSH1 0x15 DUP4 PUSH2 0x7A77 JUMP JUMPDEST SWAP2 POP PUSH2 0x8E0F DUP3 PUSH2 0x8DD0 JUMP JUMPDEST PUSH1 0x20 DUP3 ADD SWAP1 POP SWAP2 SWAP1 POP JUMP JUMPDEST PUSH0 PUSH1 0x20 DUP3 ADD SWAP1 POP DUP2 DUP2 SUB PUSH0 DUP4 ADD MSTORE PUSH2 0x8E31 DUP2 PUSH2 0x8DF8 JUMP JUMPDEST SWAP1 POP SWAP2 SWAP1 POP JUMP JUMPDEST PUSH0 PUSH2 0x8E42 DUP3 PUSH2 0x7978 JUMP JUMPDEST SWAP2 POP PUSH2 0x8E4D DUP4 PUSH2 0x7978 JUMP JUMPDEST SWAP3 POP DUP3 DUP3 MUL PUSH2 0x8E5B DUP2 PUSH2 0x7978 JUMP JUMPDEST SWAP2 POP DUP3 DUP3 DIV DUP5 EQ DUP4 ISZERO OR PUSH2 0x8E72 JUMPI PUSH2 0x8E71 PUSH2 0x8B5A JUMP JUMPDEST JUMPDEST POP SWAP3 SWAP2 POP POP JUMP JUMPDEST PUSH32 0x4E487B7100000000000000000000000000000000000000000000000000000000 PUSH0 MSTORE PUSH1 0x12 PUSH1 0x4 MSTORE PUSH1 0x24 PUSH0 REVERT JUMPDEST PUSH0 PUSH2 0x8EB0 DUP3 PUSH2 0x7978 JUMP JUMPDEST SWAP2 POP PUSH2 0x8EBB DUP4 PUSH2 0x7978 JUMP JUMPDEST SWAP3 POP DUP3 PUSH2 0x8ECB JUMPI PUSH2 0x8ECA PUSH2 0x8E79 JUMP JUMPDEST JUMPDEST DUP3 DUP3 DIV SWAP1 POP SWAP3 SWAP2 POP POP JUMP JUMPDEST PUSH0 PUSH2 0x8EE0 DUP3 PUSH2 0x7978 JUMP JUMPDEST SWAP2 POP PUSH2 0x8EEB DUP4 PUSH2 0x7978 JUMP JUMPDEST SWAP3 POP DUP3 DUP3 SUB SWAP1 POP DUP2 DUP2 GT ISZERO PUSH2 0x8F03 JUMPI PUSH2 0x8F02 PUSH2 0x8B5A JUMP JUMPDEST JUMPDEST SWAP3 SWAP2 POP POP JUMP JUMPDEST PUSH32 0x496E73756666696369656E74204554482066756E647300000000000000000000 PUSH0 DUP3 ADD MSTORE POP JUMP JUMPDEST PUSH0 PUSH2 0x8F3D PUSH1 0x16 DUP4 PUSH2 0x7A77 JUMP JUMPDEST SWAP2 POP PUSH2 0x8F48 DUP3 PUSH2 0x8F09 JUMP JUMPDEST PUSH1 0x20 DUP3 ADD SWAP1 POP SWAP2 SWAP1 POP JUMP JUMPDEST PUSH0 PUSH1 0x20 DUP3 ADD SWAP1 POP DUP2 DUP2 SUB PUSH0 DUP4 ADD MSTORE PUSH2 0x8F6A DUP2 PUSH2 0x8F31 JUMP JUMPDEST SWAP1 POP SWAP2 SWAP1 POP JUMP JUMPDEST PUSH0 DUP2 SWAP1 POP SWAP3 SWAP2 POP POP JUMP JUMPDEST POP JUMP JUMPDEST PUSH0 PUSH2 0x8F89 PUSH0 DUP4 PUSH2 0x8F71 JUMP JUMPDEST SWAP2 POP PUSH2 0x8F94 DUP3 PUSH2 0x8F7B JUMP JUMPDEST PUSH0 DUP3 ADD SWAP1 POP SWAP2 SWAP1 POP JUMP JUMPDEST PUSH0 PUSH2 0x8FA8 DUP3 PUSH2 0x8F7E JUMP JUMPDEST SWAP2 POP DUP2 SWAP1 POP SWAP2 SWAP1 POP JUMP JUMPDEST PUSH32 0x45544820726566756E64206661696C6564000000000000000000000000000000 PUSH0 DUP3 ADD MSTORE POP JUMP JUMPDEST PUSH0 PUSH2 0x8FE6 PUSH1 0x11 DUP4 PUSH2 0x7A77 JUMP JUMPDEST SWAP2 POP PUSH2 0x8FF1 DUP3 PUSH2 0x8FB2 JUMP JUMPDEST PUSH1 0x20 DUP3 ADD SWAP1 POP SWAP2 SWAP1 POP JUMP JUMPDEST PUSH0 PUSH1 0x20 DUP3 ADD SWAP1 POP DUP2 DUP2 SUB PUSH0 DUP4 ADD MSTORE PUSH2 0x9013 DUP2 PUSH2 0x8FDA JUMP JUMPDEST SWAP1 POP SWAP2 SWAP1 POP JUMP JUMPDEST PUSH32 0x45544820726577617264207472616E73666572206661696C6564000000000000 PUSH0 DUP3 ADD MSTORE POP JUMP JUMPDEST PUSH0 PUSH2 0x904E PUSH1 0x1A DUP4 PUSH2 0x7A77 JUMP JUMPDEST SWAP2 POP PUSH2 0x9059 DUP3 PUSH2 0x901A JUMP JUMPDEST PUSH1 0x20 DUP3 ADD SWAP1 POP SWAP2 SWAP1 POP JUMP JUMPDEST PUSH0 PUSH1 0x20 DUP3 ADD SWAP1 POP DUP2 DUP2 SUB PUSH0 DUP4 ADD MSTORE PUSH2 0x907B DUP2 PUSH2 0x9042 JUMP JUMPDEST SWAP1 POP SWAP2 SWAP1 POP JUMP JUMPDEST PUSH0 PUSH1 0x40 DUP3 ADD SWAP1 POP PUSH2 0x9095 PUSH0 DUP4 ADD DUP6 PUSH2 0x7B2D JUMP JUMPDEST PUSH2 0x90A2 PUSH1 0x20 DUP4 ADD DUP5 PUSH2 0x7B2D JUMP JUMPDEST SWAP4 SWAP3 POP POP POP JUMP JUMPDEST PUSH0 DUP2 MLOAD SWAP1 POP PUSH2 0x90B7 DUP2 PUSH2 0x7B55 JUMP JUMPDEST SWAP3 SWAP2 POP POP JUMP JUMPDEST PUSH0 PUSH1 0x20 DUP3 DUP5 SUB SLT ISZERO PUSH2 0x90D2 JUMPI PUSH2 0x90D1 PUSH2 0x79B2 JUMP JUMPDEST JUMPDEST PUSH0 PUSH2 0x90DF DUP5 DUP3 DUP6 ADD PUSH2 0x90A9 JUMP JUMPDEST SWAP2 POP POP SWAP3 SWAP2 POP POP JUMP JUMPDEST PUSH32 0x496E73756666696369656E7420746F6B656E20616C6C6F77616E636500000000 PUSH0 DUP3 ADD MSTORE POP JUMP JUMPDEST PUSH0 PUSH2 0x911C PUSH1 0x1C DUP4 PUSH2 0x7A77 JUMP JUMPDEST SWAP2 POP PUSH2 0x9127 DUP3 PUSH2 0x90E8 JUMP JUMPDEST PUSH1 0x20 DUP3 ADD SWAP1 POP SWAP2 SWAP1 POP JUMP JUMPDEST PUSH0 PUSH1 0x20 DUP3 ADD SWAP1 POP DUP2 DUP2 SUB PUSH0 DUP4 ADD MSTORE PUSH2 0x9149 DUP2 PUSH2 0x9110 JUMP JUMPDEST SWAP1 POP SWAP2 SWAP1 POP JUMP JUMPDEST PUSH0 PUSH1 0x60 DUP3 ADD SWAP1 POP PUSH2 0x9163 PUSH0 DUP4 ADD DUP7 PUSH2 0x7B2D JUMP JUMPDEST PUSH2 0x9170 PUSH1 0x20 DUP4 ADD DUP6 PUSH2 0x7B2D JUMP JUMPDEST PUSH2 0x917D PUSH1 0x40 DUP4 ADD DUP5 PUSH2 0x7981 JUMP JUMPDEST SWAP5 SWAP4 POP POP POP POP JUMP JUMPDEST PUSH0 DUP2 MLOAD SWAP1 POP PUSH2 0x9193 DUP2 PUSH2 0x7EEB JUMP JUMPDEST SWAP3 SWAP2 POP POP JUMP JUMPDEST PUSH0 PUSH1 0x20 DUP3 DUP5 SUB SLT ISZERO PUSH2 0x91AE JUMPI PUSH2 0x91AD PUSH2 0x79B2 JUMP JUMPDEST JUMPDEST PUSH0 PUSH2 0x91BB DUP5 DUP3 DUP6 ADD PUSH2 0x9185 JUMP JUMPDEST SWAP2 POP POP SWAP3 SWAP2 POP POP JUMP JUMPDEST PUSH32 0x546F6B656E207472616E73666572206661696C65640000000000000000000000 PUSH0 DUP3 ADD MSTORE POP JUMP JUMPDEST PUSH0 PUSH2 0x91F8 PUSH1 0x15 DUP4 PUSH2 0x7A77 JUMP JUMPDEST SWAP2 POP PUSH2 0x9203 DUP3 PUSH2 0x91C4 JUMP JUMPDEST PUSH1 0x20 DUP3 ADD SWAP1 POP SWAP2 SWAP1 POP JUMP JUMPDEST PUSH0 PUSH1 0x20 DUP3 ADD SWAP1 POP DUP2 DUP2 SUB PUSH0 DUP4 ADD MSTORE PUSH2 0x9225 DUP2 PUSH2 0x91EC JUMP JUMPDEST SWAP1 POP SWAP2 SWAP1 POP JUMP JUMPDEST PUSH32 0x496E73756666696369656E7420746F6B656E2062616C616E636520666F722072 PUSH0 DUP3 ADD MSTORE PUSH32 0x6577617264000000000000000000000000000000000000000000000000000000 PUSH1 0x20 DUP3 ADD MSTORE POP JUMP JUMPDEST PUSH0 PUSH2 0x9286 PUSH1 0x25 DUP4 PUSH2 0x7A77 JUMP JUMPDEST SWAP2 POP PUSH2 0x9291 DUP3 PUSH2 0x922C JUMP JUMPDEST PUSH1 0x40 DUP3 ADD SWAP1 POP SWAP2 SWAP1 POP JUMP JUMPDEST PUSH0 PUSH1 0x20 DUP3 ADD SWAP1 POP DUP2 DUP2 SUB PUSH0 DUP4 ADD MSTORE PUSH2 0x92B3 DUP2 PUSH2 0x927A JUMP JUMPDEST SWAP1 POP SWAP2 SWAP1 POP JUMP JUMPDEST PUSH32 0x546F6B656E20726577617264207472616E73666572206661696C656400000000 PUSH0 DUP3 ADD MSTORE POP JUMP JUMPDEST PUSH0 PUSH2 0x92EE PUSH1 0x1C DUP4 PUSH2 0x7A77 JUMP JUMPDEST SWAP2 POP PUSH2 0x92F9 DUP3 PUSH2 0x92BA JUMP JUMPDEST PUSH1 0x20 DUP3 ADD SWAP1 POP SWAP2 SWAP1 POP JUMP JUMPDEST PUSH0 PUSH1 0x20 DUP3 ADD SWAP1 POP DUP2 DUP2 SUB PUSH0 DUP4 ADD MSTORE PUSH2 0x931B DUP2 PUSH2 0x92E2 JUMP JUMPDEST SWAP1 POP SWAP2 SWAP1 POP JUMP JUMPDEST PUSH0 PUSH1 0x60 DUP3 ADD SWAP1 POP PUSH2 0x9335 PUSH0 DUP4 ADD DUP7 PUSH2 0x7981 JUMP JUMPDEST PUSH2 0x9342 PUSH1 0x20 DUP4 ADD DUP6 PUSH2 0x7B2D JUMP JUMPDEST DUP2 DUP2 SUB PUSH1 0x40 DUP4 ADD MSTORE PUSH2 0x9354 DUP2 DUP5 PUSH2 0x7AA5 JUMP JUMPDEST SWAP1 POP SWAP5 SWAP4 POP POP POP POP JUMP JUMPDEST PUSH32 0x4E487B7100000000000000000000000000000000000000000000000000000000 PUSH0 MSTORE PUSH1 0x32 PUSH1 0x4 MSTORE PUSH1 0x24 PUSH0 REVERT JUMPDEST PUSH32 0x496E76616C696420746965720000000000000000000000000000000000000000 PUSH0 DUP3 ADD MSTORE POP JUMP JUMPDEST PUSH0 PUSH2 0x93BF PUSH1 0xC DUP4 PUSH2 0x7A77 JUMP JUMPDEST SWAP2 POP PUSH2 0x93CA DUP3 PUSH2 0x938B JUMP JUMPDEST PUSH1 0x20 DUP3 ADD SWAP1 POP SWAP2 SWAP1 POP JUMP JUMPDEST PUSH0 PUSH1 0x20 DUP3 ADD SWAP1 POP DUP2 DUP2 SUB PUSH0 DUP4 ADD MSTORE PUSH2 0x93EC DUP2 PUSH2 0x93B3 JUMP JUMPDEST SWAP1 POP SWAP2 SWAP1 POP JUMP JUMPDEST PUSH32 0x4E6F2066756E647320746F207769746864726177000000000000000000000000 PUSH0 DUP3 ADD MSTORE POP JUMP JUMPDEST PUSH0 PUSH2 0x9427 PUSH1 0x14 DUP4 PUSH2 0x7A77 JUMP JUMPDEST SWAP2 POP PUSH2 0x9432 DUP3 PUSH2 0x93F3 JUMP JUMPDEST PUSH1 0x20 DUP3 ADD SWAP1 POP SWAP2 SWAP1 POP JUMP JUMPDEST PUSH0 PUSH1 0x20 DUP3 ADD SWAP1 POP DUP2 DUP2 SUB PUSH0 DUP4 ADD MSTORE PUSH2 0x9454 DUP2 PUSH2 0x941B JUMP JUMPDEST SWAP1 POP SWAP2 SWAP1 POP JUMP JUMPDEST PUSH32 0x5769746864726177616C206661696C6564000000000000000000000000000000 PUSH0 DUP3 ADD MSTORE POP JUMP JUMPDEST PUSH0 PUSH2 0x948F PUSH1 0x11 DUP4 PUSH2 0x7A77 JUMP JUMPDEST SWAP2 POP PUSH2 0x949A DUP3 PUSH2 0x945B JUMP JUMPDEST PUSH1 0x20 DUP3 ADD SWAP1 POP SWAP2 SWAP1 POP JUMP JUMPDEST PUSH0 PUSH1 0x20 DUP3 ADD SWAP1 POP DUP2 DUP2 SUB PUSH0 DUP4 ADD MSTORE PUSH2 0x94BC DUP2 PUSH2 0x9483 JUMP JUMPDEST SWAP1 POP SWAP2 SWAP1 POP JUMP JUMPDEST PUSH0 DUP2 PUSH1 0x60 SHL SWAP1 POP SWAP2 SWAP1 POP JUMP JUMPDEST PUSH0 PUSH2 0x94D9 DUP3 PUSH2 0x94C3 JUMP JUMPDEST SWAP1 POP SWAP2 SWAP1 POP JUMP JUMPDEST PUSH0 PUSH2 0x94EA DUP3 PUSH2 0x94CF JUMP JUMPDEST SWAP1 POP SWAP2 SWAP1 POP JUMP JUMPDEST PUSH2 0x9502 PUSH2 0x94FD DUP3 PUSH2 0x7B1C JUMP JUMPDEST PUSH2 0x94E0 JUMP JUMPDEST DUP3 MSTORE POP POP JUMP JUMPDEST PUSH0 DUP2 SWAP1 POP SWAP2 SWAP1 POP JUMP JUMPDEST PUSH2 0x9522 PUSH2 0x951D DUP3 PUSH2 0x7978 JUMP JUMPDEST PUSH2 0x9508 JUMP JUMPDEST DUP3 MSTORE POP POP JUMP JUMPDEST PUSH0 PUSH2 0x9533 DUP3 DUP6 PUSH2 0x94F1 JUMP JUMPDEST PUSH1 0x14 DUP3 ADD SWAP2 POP PUSH2 0x9543 DUP3 DUP5 PUSH2 0x9511 JUMP JUMPDEST PUSH1 0x20 DUP3 ADD SWAP2 POP DUP2 SWAP1 POP SWAP4 SWAP3 POP POP POP JUMP JUMPDEST PUSH0 PUSH0 REVERT JUMPDEST PUSH0 PUSH0 REVERT JUMPDEST PUSH0 PUSH0 REVERT JUMPDEST PUSH0 PUSH0 DUP4 CALLDATALOAD PUSH1 0x1 PUSH1 0x20 SUB DUP5 CALLDATASIZE SUB SUB DUP2 SLT PUSH2 0x957B JUMPI PUSH2 0x957A PUSH2 0x9553 JUMP JUMPDEST JUMPDEST DUP1 DUP5 ADD SWAP3 POP DUP3 CALLDATALOAD SWAP2 POP PUSH8 0xFFFFFFFFFFFFFFFF DUP3 GT ISZERO PUSH2 0x959D JUMPI PUSH2 0x959C PUSH2 0x9557 JUMP JUMPDEST JUMPDEST PUSH1 0x20 DUP4 ADD SWAP3 POP PUSH1 0x1 DUP3 MUL CALLDATASIZE SUB DUP4 SGT ISZERO PUSH2 0x95B9 JUMPI PUSH2 0x95B8 PUSH2 0x955B JUMP JUMPDEST JUMPDEST POP SWAP3 POP SWAP3 SWAP1 POP JUMP JUMPDEST PUSH0 DUP2 SWAP1 POP DUP2 PUSH0 MSTORE PUSH1 0x20 PUSH0 KECCAK256 SWAP1 POP SWAP2 SWAP1 POP JUMP JUMPDEST PUSH0 PUSH1 0x20 PUSH1 0x1F DUP4 ADD DIV SWAP1 POP SWAP2 SWAP1 POP JUMP JUMPDEST PUSH0 DUP3 DUP3 SHL SWAP1 POP SWAP3 SWAP2 POP POP JUMP JUMPDEST PUSH0 PUSH1 0x8 DUP4 MUL PUSH2 0x961D PUSH32 0xFFFFFFFFFFFFFFFFFFFFFFFFFFFFFFFFFFFFFFFFFFFFFFFFFFFFFFFFFFFFFFFF DUP3 PUSH2 0x95E2 JUMP JUMPDEST PUSH2 0x9627 DUP7 DUP4 PUSH2 0x95E2 JUMP JUMPDEST SWAP6 POP DUP1 NOT DUP5 AND SWAP4 POP DUP1 DUP7 AND DUP5 OR SWAP3 POP POP POP SWAP4 SWAP3 POP POP POP JUMP JUMPDEST PUSH0 DUP2 SWAP1 POP SWAP2 SWAP1 POP JUMP JUMPDEST PUSH0 PUSH2 0x9662 PUSH2 0x965D PUSH2 0x9658 DUP5 PUSH2 0x7978 JUMP JUMPDEST PUSH2 0x963F JUMP JUMPDEST PUSH2 0x7978 JUMP JUMPDEST SWAP1 POP SWAP2 SWAP1 POP JUMP JUMPDEST PUSH0 DUP2 SWAP1 POP SWAP2 SWAP1 POP JUMP JUMPDEST PUSH2 0x967B DUP4 PUSH2 0x9648 JUMP JUMPDEST PUSH2 0x968F PUSH2 0x9687 DUP3 PUSH2 0x9669 JUMP JUMPDEST DUP5 DUP5 SLOAD PUSH2 0x95EE JUMP JUMPDEST DUP3 SSTORE POP POP POP POP JUMP JUMPDEST PUSH0 PUSH0 SWAP1 POP SWAP1 JUMP JUMPDEST PUSH2 0x96A6 PUSH2 0x9697 JUMP JUMPDEST PUSH2 0x96B1 DUP2 DUP5 DUP5 PUSH2 0x9672 JUMP JUMPDEST POP POP POP JUMP JUMPDEST JUMPDEST DUP2 DUP2 LT ISZERO PUSH2 0x96D4 JUMPI PUSH2 0x96C9 PUSH0 DUP3 PUSH2 0x969E JUMP JUMPDEST PUSH1 0x1 DUP2 ADD SWAP1 POP PUSH2 0x96B7 JUMP JUMPDEST POP POP JUMP JUMPDEST PUSH1 0x1F DUP3 GT ISZERO PUSH2 0x9719 JUMPI PUSH2 0x96EA DUP2 PUSH2 0x95C1 JUMP JUMPDEST PUSH2 0x96F3 DUP5 PUSH2 0x95D3 JUMP JUMPDEST DUP2 ADD PUSH1 0x20 DUP6 LT ISZERO PUSH2 0x9702 JUMPI DUP2 SWAP1 POP JUMPDEST PUSH2 0x9716 PUSH2 0x970E DUP6 PUSH2 0x95D3 JUMP JUMPDEST DUP4 ADD DUP3 PUSH2 0x96B6 JUMP JUMPDEST POP POP JUMPDEST POP POP POP JUMP JUMPDEST PUSH0 DUP3 DUP3 SHR SWAP1 POP SWAP3 SWAP2 POP POP JUMP JUMPDEST PUSH0 PUSH2 0x9739 PUSH0 NOT DUP5 PUSH1 0x8 MUL PUSH2 0x971E JUMP JUMPDEST NOT DUP1 DUP4 AND SWAP2 POP POP SWAP3 SWAP2 POP POP JUMP JUMPDEST PUSH0 PUSH2 0x9751 DUP4 DUP4 PUSH2 0x972A JUMP JUMPDEST SWAP2 POP DUP3 PUSH1 0x2 MUL DUP3 OR SWAP1 POP SWAP3 SWAP2 POP POP JUMP JUMPDEST PUSH2 0x976A DUP3 PUSH2 0x7A6D JUMP JUMPDEST PUSH8 0xFFFFFFFFFFFFFFFF DUP2 GT ISZERO PUSH2 0x9783 JUMPI PUSH2 0x9782 PUSH2 0x7C1A JUMP JUMPDEST JUMPDEST PUSH2 0x978D DUP3 SLOAD PUSH2 0x8AC2 JUMP JUMPDEST PUSH2 0x9798 DUP3 DUP3 DUP6 PUSH2 0x96D8 JUMP JUMPDEST PUSH0 PUSH1 0x20 SWAP1 POP PUSH1 0x1F DUP4 GT PUSH1 0x1 DUP2 EQ PUSH2 0x97C9 JUMPI PUSH0 DUP5 ISZERO PUSH2 0x97B7 JUMPI DUP3 DUP8 ADD MLOAD SWAP1 POP JUMPDEST PUSH2 0x97C1 DUP6 DUP3 PUSH2 0x9746 JUMP JUMPDEST DUP7 SSTORE POP PUSH2 0x9828 JUMP JUMPDEST PUSH1 0x1F NOT DUP5 AND PUSH2 0x97D7 DUP7 PUSH2 0x95C1 JUMP JUMPDEST PUSH0 JUMPDEST DUP3 DUP2 LT ISZERO PUSH2 0x97FE JUMPI DUP5 DUP10 ADD MLOAD DUP3 SSTORE PUSH1 0x1 DUP3 ADD SWAP2 POP PUSH1 0x20 DUP6 ADD SWAP5 POP PUSH1 0x20 DUP2 ADD SWAP1 POP PUSH2 0x97D9 JUMP JUMPDEST DUP7 DUP4 LT ISZERO PUSH2 0x981B JUMPI DUP5 DUP10 ADD MLOAD PUSH2 0x9817 PUSH1 0x1F DUP10 AND DUP3 PUSH2 0x972A JUMP JUMPDEST DUP4 SSTORE POP JUMPDEST PUSH1 0x1 PUSH1 0x2 DUP9 MUL ADD DUP9 SSTORE POP POP POP JUMPDEST POP POP POP POP POP POP JUMP JUMPDEST PUSH0 PUSH2 0x983E PUSH1 0x20 DUP5 ADD DUP5 PUSH2 0x7B6B JUMP JUMPDEST SWAP1 POP SWAP3 SWAP2 POP POP JUMP JUMPDEST PUSH2 0x984F DUP2 PUSH2 0x7978 JUMP JUMPDEST DUP3 MSTORE POP POP JUMP JUMPDEST PUSH2 0x985E DUP2 PUSH2 0x88EE JUMP JUMPDEST DUP2 EQ PUSH2 0x9868 JUMPI PUSH0 PUSH0 REVERT JUMPDEST POP JUMP JUMPDEST PUSH0 DUP2 CALLDATALOAD SWAP1 POP PUSH2 0x9879 DUP2 PUSH2 0x9855 JUMP JUMPDEST SWAP3 SWAP2 POP POP JUMP JUMPDEST PUSH0 PUSH2 0x988D PUSH1 0x20 DUP5 ADD DUP5 PUSH2 0x986B JUMP JUMPDEST SWAP1 POP SWAP3 SWAP2 POP POP JUMP JUMPDEST PUSH2 0x989E DUP2 PUSH2 0x88EE JUMP JUMPDEST DUP3 MSTORE POP POP JUMP JUMPDEST PUSH0 PUSH2 0x98B2 PUSH1 0x20 DUP5 ADD DUP5 PUSH2 0x7BC0 JUMP JUMPDEST SWAP1 POP SWAP3 SWAP2 POP POP JUMP JUMPDEST PUSH0 PUSH0 REVERT JUMPDEST PUSH0 PUSH0 REVERT JUMPDEST PUSH0 PUSH0 REVERT JUMPDEST PUSH0 PUSH0 DUP4 CALLDATALOAD PUSH1 0x1 PUSH1 0x20 SUB DUP5 CALLDATASIZE SUB SUB DUP2 SLT PUSH2 0x98E2 JUMPI PUSH2 0x98E1 PUSH2 0x98C2 JUMP JUMPDEST JUMPDEST DUP4 DUP2 ADD SWAP3 POP DUP3 CALLDATALOAD SWAP2 POP PUSH1 0x20 DUP4 ADD SWAP3 POP PUSH8 0xFFFFFFFFFFFFFFFF DUP3 GT ISZERO PUSH2 0x990A JUMPI PUSH2 0x9909 PUSH2 0x98BA JUMP JUMPDEST JUMPDEST PUSH1 0x1 DUP3 MUL CALLDATASIZE SUB DUP4 SGT ISZERO PUSH2 0x9920 JUMPI PUSH2 0x991F PUSH2 0x98BE JUMP JUMPDEST JUMPDEST POP SWAP3 POP SWAP3 SWAP1 POP JUMP JUMPDEST PUSH0 DUP3 DUP3 MSTORE PUSH1 0x20 DUP3 ADD SWAP1 POP SWAP3 SWAP2 POP POP JUMP JUMPDEST PUSH0 PUSH2 0x9943 DUP4 DUP6 PUSH2 0x9928 JUMP JUMPDEST SWAP4 POP PUSH2 0x9950 DUP4 DUP6 DUP5 PUSH2 0x7CC2 JUMP JUMPDEST PUSH2 0x9959 DUP4 PUSH2 0x7A95 JUMP JUMPDEST DUP5 ADD SWAP1 POP SWAP4 SWAP3 POP POP POP JUMP JUMPDEST PUSH0 PUSH2 0x100 DUP4 ADD PUSH2 0x9976 PUSH0 DUP5 ADD DUP5 PUSH2 0x9830 JUMP JUMPDEST PUSH2 0x9982 PUSH0 DUP7 ADD DUP3 PUSH2 0x9846 JUMP JUMPDEST POP PUSH2 0x9990 PUSH1 0x20 DUP5 ADD DUP5 PUSH2 0x9830 JUMP JUMPDEST PUSH2 0x999D PUSH1 0x20 DUP7 ADD DUP3 PUSH2 0x9846 JUMP JUMPDEST POP PUSH2 0x99AB PUSH1 0x40 DUP5 ADD DUP5 PUSH2 0x9830 JUMP JUMPDEST PUSH2 0x99B8 PUSH1 0x40 DUP7 ADD DUP3 PUSH2 0x9846 JUMP JUMPDEST POP PUSH2 0x99C6 PUSH1 0x60 DUP5 ADD DUP5 PUSH2 0x9830 JUMP JUMPDEST PUSH2 0x99D3 PUSH1 0x60 DUP7 ADD DUP3 PUSH2 0x9846 JUMP JUMPDEST POP PUSH2 0x99E1 PUSH1 0x80 DUP5 ADD DUP5 PUSH2 0x987F JUMP JUMPDEST PUSH2 0x99EE PUSH1 0x80 DUP7 ADD DUP3 PUSH2 0x9895 JUMP JUMPDEST POP PUSH2 0x99FC PUSH1 0xA0 DUP5 ADD DUP5 PUSH2 0x9830 JUMP JUMPDEST PUSH2 0x9A09 PUSH1 0xA0 DUP7 ADD DUP3 PUSH2 0x9846 JUMP JUMPDEST POP PUSH2 0x9A17 PUSH1 0xC0 DUP5 ADD DUP5 PUSH2 0x98A4 JUMP JUMPDEST PUSH2 0x9A24 PUSH1 0xC0 DUP7 ADD DUP3 PUSH2 0x8840 JUMP JUMPDEST POP PUSH2 0x9A32 PUSH1 0xE0 DUP5 ADD DUP5 PUSH2 0x98C6 JUMP JUMPDEST DUP6 DUP4 SUB PUSH1 0xE0 DUP8 ADD MSTORE PUSH2 0x9A45 DUP4 DUP3 DUP5 PUSH2 0x9938 JUMP JUMPDEST SWAP3 POP POP POP DUP1 SWAP2 POP POP SWAP3 SWAP2 POP POP JUMP JUMPDEST PUSH0 PUSH1 0x40 DUP3 ADD SWAP1 POP DUP2 DUP2 SUB PUSH0 DUP4 ADD MSTORE PUSH2 0x9A6B DUP2 DUP6 PUSH2 0x9964 JUMP JUMPDEST SWAP1 POP PUSH2 0x9A7A PUSH1 0x20 DUP4 ADD DUP5 PUSH2 0x7A45 JUMP JUMPDEST SWAP4 SWAP3 POP POP POP JUMP JUMPDEST PUSH32 0x526566657272616C20636F646520616C72656164792072656769737465726564 PUSH0 DUP3 ADD MSTORE POP JUMP JUMPDEST PUSH0 PUSH2 0x9AB5 PUSH1 0x20 DUP4 PUSH2 0x7A77 JUMP JUMPDEST SWAP2 POP PUSH2 0x9AC0 DUP3 PUSH2 0x9A81 JUMP JUMPDEST PUSH1 0x20 DUP3 ADD SWAP1 POP SWAP2 SWAP1 POP JUMP JUMPDEST PUSH0 PUSH1 0x20 DUP3 ADD SWAP1 POP DUP2 DUP2 SUB PUSH0 DUP4 ADD MSTORE PUSH2 0x9AE2 DUP2 PUSH2 0x9AA9 JUMP JUMPDEST SWAP1 POP SWAP2 SWAP1 POP JUMP JUMPDEST PUSH32 0x526566657272616C20636F646520616C726561647920696E2075736500000000 PUSH0 DUP3 ADD MSTORE POP JUMP JUMPDEST PUSH0 PUSH2 0x9B1D PUSH1 0x1C DUP4 PUSH2 0x7A77 JUMP JUMPDEST SWAP2 POP PUSH2 0x9B28 DUP3 PUSH2 0x9AE9 JUMP JUMPDEST PUSH1 0x20 DUP3 ADD SWAP1 POP SWAP2 SWAP1 POP JUMP JUMPDEST PUSH0 PUSH1 0x20 DUP3 ADD SWAP1 POP DUP2 DUP2 SUB PUSH0 DUP4 ADD MSTORE PUSH2 0x9B4A DUP2 PUSH2 0x9B11 JUMP JUMPDEST SWAP1 POP SWAP2 SWAP1 POP JUMP JUMPDEST PUSH0 PUSH1 0x40 DUP3 ADD SWAP1 POP PUSH2 0x9B64 PUSH0 DUP4 ADD DUP6 PUSH2 0x7B2D JUMP JUMPDEST DUP2 DUP2 SUB PUSH1 0x20 DUP4 ADD MSTORE PUSH2 0x9B76 DUP2 DUP5 PUSH2 0x7AA5 JUMP JUMPDEST SWAP1 POP SWAP4 SWAP3 POP POP POP JUMP JUMPDEST PUSH32 0x4E6577206D61782074696572732063616E6E6F74206265206C65737320746861 PUSH0 DUP3 ADD MSTORE PUSH32 0x6E207468652063757272656E7420746965720000000000000000000000000000 PUSH1 0x20 DUP3 ADD MSTORE POP JUMP JUMPDEST PUSH0 PUSH2 0x9BD9 PUSH1 0x32 DUP4 PUSH2 0x7A77 JUMP JUMPDEST SWAP2 POP PUSH2 0x9BE4 DUP3 PUSH2 0x9B7F JUMP JUMPDEST PUSH1 0x40 DUP3 ADD SWAP1 POP SWAP2 SWAP1 POP JUMP JUMPDEST PUSH0 PUSH1 0x20 DUP3 ADD SWAP1 POP DUP2 DUP2 SUB PUSH0 DUP4 ADD MSTORE PUSH2 0x9C06 DUP2 PUSH2 0x9BCD JUMP JUMPDEST SWAP1 POP SWAP2 SWAP1 POP JUMP JUMPDEST PUSH32 0x50726963657320616E642073697A6573206C656E677468206D69736D61746368 PUSH0 DUP3 ADD MSTORE POP JUMP JUMPDEST PUSH0 PUSH2 0x9C41 PUSH1 0x20 DUP4 PUSH2 0x7A77 JUMP JUMPDEST SWAP2 POP PUSH2 0x9C4C DUP3 PUSH2 0x9C0D JUMP JUMPDEST PUSH1 0x20 DUP3 ADD SWAP1 POP SWAP2 SWAP1 POP JUMP JUMPDEST PUSH0 PUSH1 0x20 DUP3 ADD SWAP1 POP DUP2 DUP2 SUB PUSH0 DUP4 ADD MSTORE PUSH2 0x9C6E DUP2 PUSH2 0x9C35 JUMP JUMPDEST SWAP1 POP SWAP2 SWAP1 POP JUMP JUMPDEST PUSH32 0x4578636565647320616C6C6F776564206E657720746965727300000000000000 PUSH0 DUP3 ADD MSTORE POP JUMP JUMPDEST PUSH0 PUSH2 0x9CA9 PUSH1 0x19 DUP4 PUSH2 0x7A77 JUMP JUMPDEST SWAP2 POP PUSH2 0x9CB4 DUP3 PUSH2 0x9C75 JUMP JUMPDEST PUSH1 0x20 DUP3 ADD SWAP1 POP SWAP2 SWAP1 POP JUMP JUMPDEST PUSH0 PUSH1 0x20 DUP3 ADD SWAP1 POP DUP2 DUP2 SUB PUSH0 DUP4 ADD MSTORE PUSH2 0x9CD6 DUP2 PUSH2 0x9C9D JUMP JUMPDEST SWAP1 POP SWAP2 SWAP1 POP JUMP JUMPDEST PUSH0 PUSH2 0x9CE8 DUP3 DUP5 PUSH2 0x94F1 JUMP JUMPDEST PUSH1 0x14 DUP3 ADD SWAP2 POP DUP2 SWAP1 POP SWAP3 SWAP2 POP POP JUMP JUMPDEST PUSH32 0x4E6F20746F6B656E2062616C616E636520746F20776974686472617700000000 PUSH0 DUP3 ADD MSTORE POP JUMP JUMPDEST PUSH0 PUSH2 0x9D2B PUSH1 0x1C DUP4 PUSH2 0x7A77 JUMP JUMPDEST SWAP2 POP PUSH2 0x9D36 DUP3 PUSH2 0x9CF7 JUMP JUMPDEST PUSH1 0x20 DUP3 ADD SWAP1 POP SWAP2 SWAP1 POP JUMP JUMPDEST PUSH0 PUSH1 0x20 DUP3 ADD SWAP1 POP DUP2 DUP2 SUB PUSH0 DUP4 ADD MSTORE PUSH2 0x9D58 DUP2 PUSH2 0x9D1F JUMP JUMPDEST SWAP1 POP SWAP2 SWAP1 POP JUMP JUMPDEST PUSH0 PUSH2 0x9D71 PUSH2 0x9D6C DUP5 PUSH2 0x8163 JUMP JUMPDEST PUSH2 0x7C78 JUMP JUMPDEST SWAP1 POP DUP3 DUP2 MSTORE PUSH1 0x20 DUP2 ADD DUP5 DUP5 DUP5 ADD GT ISZERO PUSH2 0x9D8D JUMPI PUSH2 0x9D8C PUSH2 0x7C16 JUMP JUMPDEST JUMPDEST PUSH2 0x9D98 DUP5 DUP3 DUP6 PUSH2 0x7A87 JUMP JUMPDEST POP SWAP4 SWAP3 POP POP POP JUMP JUMPDEST PUSH0 DUP3 PUSH1 0x1F DUP4 ADD SLT PUSH2 0x9DB4 JUMPI PUSH2 0x9DB3 PUSH2 0x7C12 JUMP JUMPDEST JUMPDEST DUP2 MLOAD PUSH2 0x9DC4 DUP5 DUP3 PUSH1 0x20 DUP7 ADD PUSH2 0x9D5F JUMP JUMPDEST SWAP2 POP POP SWAP3 SWAP2 POP POP JUMP JUMPDEST PUSH0 DUP2 MLOAD SWAP1 POP PUSH2 0x9DDB DUP2 PUSH2 0x9855 JUMP JUMPDEST SWAP3 SWAP2 POP POP JUMP JUMPDEST PUSH0 PUSH0 PUSH1 0x40 DUP4 DUP6 SUB SLT ISZERO PUSH2 0x9DF7 JUMPI PUSH2 0x9DF6 PUSH2 0x79B2 JUMP JUMPDEST JUMPDEST PUSH0 DUP4 ADD MLOAD PUSH8 0xFFFFFFFFFFFFFFFF DUP2 GT ISZERO PUSH2 0x9E14 JUMPI PUSH2 0x9E13 PUSH2 0x79B6 JUMP JUMPDEST JUMPDEST PUSH2 0x9E20 DUP6 DUP3 DUP7 ADD PUSH2 0x9DA0 JUMP JUMPDEST SWAP3 POP POP PUSH1 0x20 PUSH2 0x9E31 DUP6 DUP3 DUP7 ADD PUSH2 0x9DCD JUMP JUMPDEST SWAP2 POP POP SWAP3 POP SWAP3 SWAP1 POP JUMP JUMPDEST PUSH0 PUSH2 0x9E46 DUP4 DUP6 PUSH2 0x8F71 JUMP JUMPDEST SWAP4 POP PUSH2 0x9E53 DUP4 DUP6 DUP5 PUSH2 0x7CC2 JUMP JUMPDEST DUP3 DUP5 ADD SWAP1 POP SWAP4 SWAP3 POP POP POP JUMP JUMPDEST PUSH0 PUSH2 0x9E6A DUP3 DUP8 PUSH2 0x8D22 JUMP JUMPDEST SWAP2 POP PUSH2 0x9E77 DUP3 DUP6 DUP8 PUSH2 0x9E3B JUMP JUMPDEST SWAP2 POP PUSH2 0x9E83 DUP3 DUP5 PUSH2 0x9511 JUMP JUMPDEST PUSH1 0x20 DUP3 ADD SWAP2 POP DUP2 SWAP1 POP SWAP6 SWAP5 POP POP POP POP POP JUMP JUMPDEST PUSH0 PUSH1 0x40 DUP3 ADD SWAP1 POP PUSH2 0x9EA8 PUSH0 DUP4 ADD DUP6 PUSH2 0x88F7 JUMP JUMPDEST PUSH2 0x9EB5 PUSH1 0x20 DUP4 ADD DUP5 PUSH2 0x88F7 JUMP JUMPDEST SWAP4 SWAP3 POP POP POP JUMP JUMPDEST PUSH0 PUSH0 DUP4 CALLDATALOAD PUSH1 0x1 PUSH1 0x20 SUB DUP5 CALLDATASIZE SUB SUB DUP2 SLT PUSH2 0x9ED8 JUMPI PUSH2 0x9ED7 PUSH2 0x9553 JUMP JUMPDEST JUMPDEST DUP1 DUP5 ADD SWAP3 POP DUP3 CALLDATALOAD SWAP2 POP PUSH8 0xFFFFFFFFFFFFFFFF DUP3 GT ISZERO PUSH2 0x9EFA JUMPI PUSH2 0x9EF9 PUSH2 0x9557 JUMP JUMPDEST JUMPDEST PUSH1 0x20 DUP4 ADD SWAP3 POP PUSH1 0x1 DUP3 MUL CALLDATASIZE SUB DUP4 SGT ISZERO PUSH2 0x9F16 JUMPI PUSH2 0x9F15 PUSH2 0x955B JUMP JUMPDEST JUMPDEST POP SWAP3 POP SWAP3 SWAP1 POP JUMP JUMPDEST PUSH0 PUSH2 0x9F2A DUP3 DUP6 DUP8 PUSH2 0x9E3B JUMP JUMPDEST SWAP2 POP PUSH2 0x9F36 DUP3 DUP5 PUSH2 0x94F1 JUMP JUMPDEST PUSH1 0x14 DUP3 ADD SWAP2 POP DUP2 SWAP1 POP SWAP5 SWAP4 POP POP POP POP JUMP JUMPDEST PUSH32 0x53697A657320616E642070726963657320617272617973206D75737420686176 PUSH0 DUP3 ADD MSTORE PUSH32 0x65207468652073616D65206C656E677468000000000000000000000000000000 PUSH1 0x20 DUP3 ADD MSTORE POP JUMP JUMPDEST PUSH0 PUSH2 0x9FA1 PUSH1 0x31 DUP4 PUSH2 0x7A77 JUMP JUMPDEST SWAP2 POP PUSH2 0x9FAC DUP3 PUSH2 0x9F47 JUMP JUMPDEST PUSH1 0x40 DUP3 ADD SWAP1 POP SWAP2 SWAP1 POP JUMP JUMPDEST PUSH0 PUSH1 0x20 DUP3 ADD SWAP1 POP DUP2 DUP2 SUB PUSH0 DUP4 ADD MSTORE PUSH2 0x9FCE DUP2 PUSH2 0x9F95 JUMP JUMPDEST SWAP1 POP SWAP2 SWAP1 POP JUMP JUMPDEST PUSH32 0x4552433732314D657461646174613A2055524920717565727920666F72206E6F PUSH0 DUP3 ADD MSTORE PUSH32 0x6E6578697374656E7420746F6B656E0000000000000000000000000000000000 PUSH1 0x20 DUP3 ADD MSTORE POP JUMP JUMPDEST PUSH0 PUSH2 0xA02F PUSH1 0x2F DUP4 PUSH2 0x7A77 JUMP JUMPDEST SWAP2 POP PUSH2 0xA03A DUP3 PUSH2 0x9FD5 JUMP JUMPDEST PUSH1 0x40 DUP3 ADD SWAP1 POP SWAP2 SWAP1 POP JUMP JUMPDEST PUSH0 PUSH1 0x20 DUP3 ADD SWAP1 POP DUP2 DUP2 SUB PUSH0 DUP4 ADD MSTORE PUSH2 0xA05C DUP2 PUSH2 0xA023 JUMP JUMPDEST SWAP1 POP SWAP2 SWAP1 POP JUMP JUMPDEST PUSH0 DUP2 SLOAD PUSH2 0xA06F DUP2 PUSH2 0x8AC2 JUMP JUMPDEST PUSH2 0xA079 DUP2 DUP7 PUSH2 0x8D18 JUMP JUMPDEST SWAP5 POP PUSH1 0x1 DUP3 AND PUSH0 DUP2 EQ PUSH2 0xA093 JUMPI PUSH1 0x1 DUP2 EQ PUSH2 0xA0A8 JUMPI PUSH2 0xA0DA JUMP JUMPDEST PUSH1 0xFF NOT DUP4 AND DUP7 MSTORE DUP2 ISZERO ISZERO DUP3 MUL DUP7 ADD SWAP4 POP PUSH2 0xA0DA JUMP JUMPDEST PUSH2 0xA0B1 DUP6 PUSH2 0x95C1 JUMP JUMPDEST PUSH0 JUMPDEST DUP4 DUP2 LT ISZERO PUSH2 0xA0D2 JUMPI DUP2 SLOAD DUP2 DUP10 ADD MSTORE PUSH1 0x1 DUP3 ADD SWAP2 POP PUSH1 0x20 DUP2 ADD SWAP1 POP PUSH2 0xA0B3 JUMP JUMPDEST DUP4 DUP9 ADD SWAP6 POP POP POP JUMPDEST POP POP POP SWAP3 SWAP2 POP POP JUMP JUMPDEST PUSH32 0x2E6A736F6E000000000000000000000000000000000000000000000000000000 PUSH0 DUP3 ADD MSTORE POP JUMP JUMPDEST PUSH0 PUSH2 0xA117 PUSH1 0x5 DUP4 PUSH2 0x8D18 JUMP JUMPDEST SWAP2 POP PUSH2 0xA122 DUP3 PUSH2 0xA0E3 JUMP JUMPDEST PUSH1 0x5 DUP3 ADD SWAP1 POP SWAP2 SWAP1 POP JUMP JUMPDEST PUSH0 PUSH2 0xA138 DUP3 DUP6 PUSH2 0xA063 JUMP JUMPDEST SWAP2 POP PUSH2 0xA144 DUP3 DUP5 PUSH2 0x8D22 JUMP JUMPDEST SWAP2 POP PUSH2 0xA14F DUP3 PUSH2 0xA10B JUMP JUMPDEST SWAP2 POP DUP2 SWAP1 POP SWAP4 SWAP3 POP POP POP JUMP JUMPDEST PUSH32 0x4E6F7420617574686F72697A6564000000000000000000000000000000000000 PUSH0 DUP3 ADD MSTORE POP JUMP JUMPDEST PUSH0 PUSH2 0xA18F PUSH1 0xE DUP4 PUSH2 0x7A77 JUMP JUMPDEST SWAP2 POP PUSH2 0xA19A DUP3 PUSH2 0xA15B JUMP JUMPDEST PUSH1 0x20 DUP3 ADD SWAP1 POP SWAP2 SWAP1 POP JUMP JUMPDEST PUSH0 PUSH1 0x20 DUP3 ADD SWAP1 POP DUP2 DUP2 SUB PUSH0 DUP4 ADD MSTORE PUSH2 0xA1BC DUP2 PUSH2 0xA183 JUMP JUMPDEST SWAP1 POP SWAP2 SWAP1 POP JUMP JUMPDEST PUSH0 PUSH10 0xFFFFFFFFFFFFFFFFFFFF DUP3 AND SWAP1 POP SWAP2 SWAP1 POP JUMP JUMPDEST PUSH2 0xA1E1 DUP2 PUSH2 0xA1C3 JUMP JUMPDEST DUP2 EQ PUSH2 0xA1EB JUMPI PUSH0 PUSH0 REVERT JUMPDEST POP JUMP JUMPDEST PUSH0 DUP2 MLOAD SWAP1 POP PUSH2 0xA1FC DUP2 PUSH2 0xA1D8 JUMP JUMPDEST SWAP3 SWAP2 POP POP JUMP JUMPDEST PUSH0 DUP2 SWAP1 POP SWAP2 SWAP1 POP JUMP JUMPDEST PUSH2 0xA214 DUP2 PUSH2 0xA202 JUMP JUMPDEST DUP2 EQ PUSH2 0xA21E JUMPI PUSH0 PUSH0 REVERT JUMPDEST POP JUMP JUMPDEST PUSH0 DUP2 MLOAD SWAP1 POP PUSH2 0xA22F DUP2 PUSH2 0xA20B JUMP JUMPDEST SWAP3 SWAP2 POP POP JUMP JUMPDEST PUSH0 PUSH0 PUSH0 PUSH0 PUSH0 PUSH1 0xA0 DUP7 DUP9 SUB SLT ISZERO PUSH2 0xA24E JUMPI PUSH2 0xA24D PUSH2 0x79B2 JUMP JUMPDEST JUMPDEST PUSH0 PUSH2 0xA25B DUP9 DUP3 DUP10 ADD PUSH2 0xA1EE JUMP JUMPDEST SWAP6 POP POP PUSH1 0x20 PUSH2 0xA26C DUP9 DUP3 DUP10 ADD PUSH2 0xA221 JUMP JUMPDEST SWAP5 POP POP PUSH1 0x40 PUSH2 0xA27D DUP9 DUP3 DUP10 ADD PUSH2 0x90A9 JUMP JUMPDEST SWAP4 POP POP PUSH1 0x60 PUSH2 0xA28E DUP9 DUP3 DUP10 ADD PUSH2 0x90A9 JUMP JUMPDEST SWAP3 POP POP PUSH1 0x80 PUSH2 0xA29F DUP9 DUP3 DUP10 ADD PUSH2 0xA1EE JUMP JUMPDEST SWAP2 POP POP SWAP3 SWAP6 POP SWAP3 SWAP6 SWAP1 SWAP4 POP JUMP JUMPDEST PUSH32 0x496E76616C6964204554482F5553442070726963650000000000000000000000 PUSH0 DUP3 ADD MSTORE POP JUMP JUMPDEST PUSH0 PUSH2 0xA2E0 PUSH1 0x15 DUP4 PUSH2 0x7A77 JUMP JUMPDEST SWAP2 POP PUSH2 0xA2EB DUP3 PUSH2 0xA2AC JUMP JUMPDEST PUSH1 0x20 DUP3 ADD SWAP1 POP SWAP2 SWAP1 POP JUMP JUMPDEST PUSH0 PUSH1 0x20 DUP3 ADD SWAP1 POP DUP2 DUP2 SUB PUSH0 DUP4 ADD MSTORE PUSH2 0xA30D DUP2 PUSH2 0xA2D4 JUMP JUMPDEST SWAP1 POP SWAP2 SWAP1 POP JUMP JUMPDEST PUSH32 0x496E76616C696420555344542F55534420707269636500000000000000000000 PUSH0 DUP3 ADD MSTORE POP JUMP JUMPDEST PUSH0 PUSH2 0xA348 PUSH1 0x16 DUP4 PUSH2 0x7A77 JUMP JUMPDEST SWAP2 POP PUSH2 0xA353 DUP3 PUSH2 0xA314 JUMP JUMPDEST PUSH1 0x20 DUP3 ADD SWAP1 POP SWAP2 SWAP1 POP JUMP JUMPDEST PUSH0 PUSH1 0x20 DUP3 ADD SWAP1 POP DUP2 DUP2 SUB PUSH0 DUP4 ADD MSTORE PUSH2 0xA375 DUP2 PUSH2 0xA33C JUMP JUMPDEST SWAP1 POP SWAP2 SWAP1 POP JUMP JUMPDEST PUSH32 0x496E76616C696420555344432F55534420707269636500000000000000000000 PUSH0 DUP3 ADD MSTORE POP JUMP JUMPDEST PUSH0 PUSH2 0xA3B0 PUSH1 0x16 DUP4 PUSH2 0x7A77 JUMP JUMPDEST SWAP2 POP PUSH2 0xA3BB DUP3 PUSH2 0xA37C JUMP JUMPDEST PUSH1 0x20 DUP3 ADD SWAP1 POP SWAP2 SWAP1 POP JUMP JUMPDEST PUSH0 PUSH1 0x20 DUP3 ADD SWAP1 POP DUP2 DUP2 SUB PUSH0 DUP4 ADD MSTORE PUSH2 0xA3DD DUP2 PUSH2 0xA3A4 JUMP JUMPDEST SWAP1 POP SWAP2 SWAP1 POP JUMP JUMPDEST PUSH32 0x496E76616C696420574254432F45544820707269636500000000000000000000 PUSH0 DUP3 ADD MSTORE POP JUMP JUMPDEST PUSH0 PUSH2 0xA418 PUSH1 0x16 DUP4 PUSH2 0x7A77 JUMP JUMPDEST SWAP2 POP PUSH2 0xA423 DUP3 PUSH2 0xA3E4 JUMP JUMPDEST PUSH1 0x20 DUP3 ADD SWAP1 POP SWAP2 SWAP1 POP JUMP JUMPDEST PUSH0 PUSH1 0x20 DUP3 ADD SWAP1 POP DUP2 DUP2 SUB PUSH0 DUP4 ADD MSTORE PUSH2 0xA445 DUP2 PUSH2 0xA40C JUMP JUMPDEST SWAP1 POP SWAP2 SWAP1 POP JUMP JUMPDEST PUSH32 0x556E737570706F7274656420746F6B656E000000000000000000000000000000 PUSH0 DUP3 ADD MSTORE POP JUMP JUMPDEST PUSH0 PUSH2 0xA480 PUSH1 0x11 DUP4 PUSH2 0x7A77 JUMP JUMPDEST SWAP2 POP PUSH2 0xA48B DUP3 PUSH2 0xA44C JUMP JUMPDEST PUSH1 0x20 DUP3 ADD SWAP1 POP SWAP2 SWAP1 POP JUMP JUMPDEST PUSH0 PUSH1 0x20 DUP3 ADD SWAP1 POP DUP2 DUP2 SUB PUSH0 DUP4 ADD MSTORE PUSH2 0xA4AD DUP2 PUSH2 0xA474 JUMP JUMPDEST SWAP1 POP SWAP2 SWAP1 POP JUMP JUMPDEST PUSH0 PUSH0 PUSH1 0x40 DUP4 DUP6 SUB SLT ISZERO PUSH2 0xA4CA JUMPI PUSH2 0xA4C9 PUSH2 0x79B2 JUMP JUMPDEST JUMPDEST PUSH0 DUP4 ADD CALLDATALOAD PUSH8 0xFFFFFFFFFFFFFFFF DUP2 GT ISZERO PUSH2 0xA4E7 JUMPI PUSH2 0xA4E6 PUSH2 0x79B6 JUMP JUMPDEST JUMPDEST PUSH2 0xA4F3 DUP6 DUP3 DUP7 ADD PUSH2 0x81D4 JUMP JUMPDEST SWAP3 POP POP PUSH1 0x20 PUSH2 0xA504 DUP6 DUP3 DUP7 ADD PUSH2 0x986B JUMP JUMPDEST SWAP2 POP POP SWAP3 POP SWAP3 SWAP1 POP JUMP JUMPDEST PUSH0 PUSH2 0xA51A DUP3 DUP6 DUP8 PUSH2 0x9E3B JUMP JUMPDEST SWAP2 POP PUSH2 0xA526 DUP3 DUP5 PUSH2 0x9511 JUMP JUMPDEST PUSH1 0x20 DUP3 ADD SWAP2 POP DUP2 SWAP1 POP SWAP5 SWAP4 POP POP POP POP JUMP JUMPDEST PUSH0 PUSH0 DUP4 CALLDATALOAD PUSH1 0x1 PUSH1 0x20 SUB DUP5 CALLDATASIZE SUB SUB DUP2 SLT PUSH2 0xA553 JUMPI PUSH2 0xA552 PUSH2 0x9553 JUMP JUMPDEST JUMPDEST DUP1 DUP5 ADD SWAP3 POP DUP3 CALLDATALOAD SWAP2 POP PUSH8 0xFFFFFFFFFFFFFFFF DUP3 GT ISZERO PUSH2 0xA575 JUMPI PUSH2 0xA574 PUSH2 0x9557 JUMP JUMPDEST JUMPDEST PUSH1 0x20 DUP4 ADD SWAP3 POP PUSH1 0x20 DUP3 MUL CALLDATASIZE SUB DUP4 SGT ISZERO PUSH2 0xA591 JUMPI PUSH2 0xA590 PUSH2 0x955B JUMP JUMPDEST JUMPDEST POP SWAP3 POP SWAP3 SWAP1 POP JUMP JUMPDEST PUSH0 PUSH2 0xA5A4 DUP3 DUP8 PUSH2 0x94F1 JUMP JUMPDEST PUSH1 0x14 DUP3 ADD SWAP2 POP PUSH2 0xA5B4 DUP3 DUP7 PUSH2 0x9511 JUMP JUMPDEST PUSH1 0x20 DUP3 ADD SWAP2 POP PUSH2 0xA5C4 DUP3 DUP6 PUSH2 0x9511 JUMP JUMPDEST PUSH1 0x20 DUP3 ADD SWAP2 POP PUSH2 0xA5D4 DUP3 DUP5 PUSH2 0x94F1 JUMP JUMPDEST PUSH1 0x14 DUP3 ADD SWAP2 POP DUP2 SWAP1 POP SWAP6 SWAP5 POP POP POP POP POP JUMP JUMPDEST PUSH0 PUSH1 0x80 DUP3 ADD SWAP1 POP PUSH2 0xA5F9 PUSH0 DUP4 ADD DUP8 PUSH2 0x7B2D JUMP JUMPDEST PUSH2 0xA606 PUSH1 0x20 DUP4 ADD DUP7 PUSH2 0x7981 JUMP JUMPDEST PUSH2 0xA613 PUSH1 0x40 DUP4 ADD DUP6 PUSH2 0x7B2D JUMP JUMPDEST PUSH2 0xA620 PUSH1 0x60 DUP4 ADD DUP5 PUSH2 0x7981 JUMP JUMPDEST SWAP6 SWAP5 POP POP POP POP POP JUMP JUMPDEST PUSH0 PUSH1 0x40 DUP3 ADD SWAP1 POP PUSH2 0xA63C PUSH0 DUP4 ADD DUP6 PUSH2 0x7981 JUMP JUMPDEST PUSH2 0xA649 PUSH1 0x20 DUP4 ADD DUP5 PUSH2 0x7981 JUMP JUMPDEST SWAP4 SWAP3 POP POP POP JUMP JUMPDEST PUSH32 0x4E657720746F74616C20737570706C792063616E6E6F74206265206C65737320 PUSH0 DUP3 ADD MSTORE PUSH32 0x7468616E206D696E74656420746F6B656E730000000000000000000000000000 PUSH1 0x20 DUP3 ADD MSTORE POP JUMP JUMPDEST PUSH0 PUSH2 0xA6AA PUSH1 0x32 DUP4 PUSH2 0x7A77 JUMP JUMPDEST SWAP2 POP PUSH2 0xA6B5 DUP3 PUSH2 0xA650 JUMP JUMPDEST PUSH1 0x40 DUP3 ADD SWAP1 POP SWAP2 SWAP1 POP JUMP JUMPDEST PUSH0 PUSH1 0x20 DUP3 ADD SWAP1 POP DUP2 DUP2 SUB PUSH0 DUP4 ADD MSTORE PUSH2 0xA6D7 DUP2 PUSH2 0xA69E JUMP JUMPDEST SWAP1 POP SWAP2 SWAP1 POP JUMP JUMPDEST PUSH32 0x5265656E7472616E637947756172643A207265656E7472616E742063616C6C00 PUSH0 DUP3 ADD MSTORE POP JUMP JUMPDEST PUSH0 PUSH2 0xA712 PUSH1 0x1F DUP4 PUSH2 0x7A77 JUMP JUMPDEST SWAP2 POP PUSH2 0xA71D DUP3 PUSH2 0xA6DE JUMP JUMPDEST PUSH1 0x20 DUP3 ADD SWAP1 POP SWAP2 SWAP1 POP JUMP JUMPDEST PUSH0 PUSH1 0x20 DUP3 ADD SWAP1 POP DUP2 DUP2 SUB PUSH0 DUP4 ADD MSTORE PUSH2 0xA73F DUP2 PUSH2 0xA706 JUMP JUMPDEST SWAP1 POP SWAP2 SWAP1 POP JUMP JUMPDEST PUSH32 0x416C6C20746965727320636F6D706C6574656400000000000000000000000000 PUSH0 DUP3 ADD MSTORE POP JUMP JUMPDEST PUSH0 PUSH2 0xA77A PUSH1 0x13 DUP4 PUSH2 0x7A77 JUMP JUMPDEST SWAP2 POP PUSH2 0xA785 DUP3 PUSH2 0xA746 JUMP JUMPDEST PUSH1 0x20 DUP3 ADD SWAP1 POP SWAP2 SWAP1 POP JUMP JUMPDEST PUSH0 PUSH1 0x20 DUP3 ADD SWAP1 POP DUP2 DUP2 SUB PUSH0 DUP4 ADD MSTORE PUSH2 0xA7A7 DUP2 PUSH2 0xA76E JUMP JUMPDEST SWAP1 POP SWAP2 SWAP1 POP JUMP JUMPDEST PUSH0 DUP2 SWAP1 POP SWAP2 SWAP1 POP JUMP JUMPDEST PUSH0 PUSH2 0xA7D1 PUSH2 0xA7CC PUSH2 0xA7C7 DUP5 PUSH2 0xA7AE JUMP JUMPDEST PUSH2 0x963F JUMP JUMPDEST PUSH2 0x7978 JUMP JUMPDEST SWAP1 POP SWAP2 SWAP1 POP JUMP JUMPDEST PUSH2 0xA7E1 DUP2 PUSH2 0xA7B7 JUMP JUMPDEST DUP3 MSTORE POP POP JUMP JUMPDEST PUSH0 PUSH1 0x40 DUP3 ADD SWAP1 POP PUSH2 0xA7FA PUSH0 DUP4 ADD DUP6 PUSH2 0xA7D8 JUMP JUMPDEST PUSH2 0xA807 PUSH1 0x20 DUP4 ADD DUP5 PUSH2 0x7981 JUMP JUMPDEST SWAP4 SWAP3 POP POP POP JUMP JUMPDEST PUSH32 0x4E6F7420656E6F756768206D696E74656420746F6B656E730000000000000000 PUSH0 DUP3 ADD MSTORE POP JUMP JUMPDEST PUSH0 PUSH2 0xA842 PUSH1 0x18 DUP4 PUSH2 0x7A77 JUMP JUMPDEST SWAP2 POP PUSH2 0xA84D DUP3 PUSH2 0xA80E JUMP JUMPDEST PUSH1 0x20 DUP3 ADD SWAP1 POP SWAP2 SWAP1 POP JUMP JUMPDEST PUSH0 PUSH1 0x20 DUP3 ADD SWAP1 POP DUP2 DUP2 SUB PUSH0 DUP4 ADD MSTORE PUSH2 0xA86F DUP2 PUSH2 0xA836 JUMP JUMPDEST SWAP1 POP SWAP2 SWAP1 POP JUMP JUMPDEST PUSH32 0x2156616C75650000000000000000000000000000000000000000000000000000 PUSH0 DUP3 ADD MSTORE POP JUMP JUMPDEST PUSH0 PUSH2 0xA8AA PUSH1 0x6 DUP4 PUSH2 0x7A77 JUMP JUMPDEST SWAP2 POP PUSH2 0xA8B5 DUP3 PUSH2 0xA876 JUMP JUMPDEST PUSH1 0x20 DUP3 ADD SWAP1 POP SWAP2 SWAP1 POP JUMP JUMPDEST PUSH0 PUSH1 0x20 DUP3 ADD SWAP1 POP DUP2 DUP2 SUB PUSH0 DUP4 ADD MSTORE PUSH2 0xA8D7 DUP2 PUSH2 0xA89E JUMP JUMPDEST SWAP1 POP SWAP2 SWAP1 POP JUMP JUMPDEST PUSH32 0x496E76616C6964206D73672076616C7565000000000000000000000000000000 PUSH0 DUP3 ADD MSTORE POP JUMP JUMPDEST PUSH0 PUSH2 0xA912 PUSH1 0x11 DUP4 PUSH2 0x7A77 JUMP JUMPDEST SWAP2 POP PUSH2 0xA91D DUP3 PUSH2 0xA8DE JUMP JUMPDEST PUSH1 0x20 DUP3 ADD SWAP1 POP SWAP2 SWAP1 POP JUMP JUMPDEST PUSH0 PUSH1 0x20 DUP3 ADD SWAP1 POP DUP2 DUP2 SUB PUSH0 DUP4 ADD MSTORE PUSH2 0xA93F DUP2 PUSH2 0xA906 JUMP JUMPDEST SWAP1 POP SWAP2 SWAP1 POP JUMP JUMPDEST PUSH0 PUSH1 0x40 DUP3 ADD SWAP1 POP DUP2 DUP2 SUB PUSH0 DUP4 ADD MSTORE PUSH2 0xA95E DUP2 DUP6 PUSH2 0x7AA5 JUMP JUMPDEST SWAP1 POP DUP2 DUP2 SUB PUSH1 0x20 DUP4 ADD MSTORE PUSH2 0xA972 DUP2 DUP5 PUSH2 0x7AA5 JUMP JUMPDEST SWAP1 POP SWAP4 SWAP3 POP POP POP JUMP JUMPDEST PUSH0 PUSH1 0x80 DUP3 ADD SWAP1 POP PUSH2 0xA98E PUSH0 DUP4 ADD DUP8 PUSH2 0x7B2D JUMP JUMPDEST PUSH2 0xA99B PUSH1 0x20 DUP4 ADD DUP7 PUSH2 0x7B2D JUMP JUMPDEST PUSH2 0xA9A8 PUSH1 0x40 DUP4 ADD DUP6 PUSH2 0x7981 JUMP JUMPDEST DUP2 DUP2 SUB PUSH1 0x60 DUP4 ADD MSTORE PUSH2 0xA9BA DUP2 DUP5 PUSH2 0x83E2 JUMP JUMPDEST SWAP1 POP SWAP6 SWAP5 POP POP POP POP POP JUMP JUMPDEST PUSH0 DUP2 MLOAD SWAP1 POP PUSH2 0xA9D3 DUP2 PUSH2 0x79E5 JUMP JUMPDEST SWAP3 SWAP2 POP POP JUMP JUMPDEST PUSH0 PUSH1 0x20 DUP3 DUP5 SUB SLT ISZERO PUSH2 0xA9EE JUMPI PUSH2 0xA9ED PUSH2 0x79B2 JUMP JUMPDEST JUMPDEST PUSH0 PUSH2 0xA9FB DUP5 DUP3 DUP6 ADD PUSH2 0xA9C5 JUMP JUMPDEST SWAP2 POP POP SWAP3 SWAP2 POP POP JUMP JUMPDEST PUSH0 PUSH2 0xAA0E DUP3 PUSH2 0x7978 JUMP JUMPDEST SWAP2 POP PUSH2 0xAA19 DUP4 PUSH2 0x7978 JUMP JUMPDEST SWAP3 POP DUP3 PUSH2 0xAA29 JUMPI PUSH2 0xAA28 PUSH2 0x8E79 JUMP JUMPDEST JUMPDEST DUP3 DUP3 MOD SWAP1 POP SWAP3 SWAP2 POP POP JUMP JUMPDEST PUSH0 PUSH2 0xAA3E DUP3 PUSH2 0x7978 JUMP JUMPDEST SWAP2 POP PUSH0 DUP3 SUB PUSH2 0xAA50 JUMPI PUSH2 0xAA4F PUSH2 0x8B5A JUMP JUMPDEST JUMPDEST PUSH1 0x1 DUP3 SUB SWAP1 POP SWAP2 SWAP1 POP JUMP JUMPDEST PUSH32 0x56616C75652065786365656473206469676974206C656E677468000000000000 PUSH0 DUP3 ADD MSTORE POP JUMP JUMPDEST PUSH0 PUSH2 0xAA8F PUSH1 0x1A DUP4 PUSH2 0x7A77 JUMP JUMPDEST SWAP2 POP PUSH2 0xAA9A DUP3 PUSH2 0xAA5B JUMP JUMPDEST PUSH1 0x20 DUP3 ADD SWAP1 POP SWAP2 SWAP1 POP JUMP JUMPDEST PUSH0 PUSH1 0x20 DUP3 ADD SWAP1 POP DUP2 DUP2 SUB PUSH0 DUP4 ADD MSTORE PUSH2 0xAABC DUP2 PUSH2 0xAA83 JUMP JUMPDEST SWAP1 POP SWAP2 SWAP1 POP JUMP JUMPDEST PUSH0 DUP2 SWAP1 POP DUP2 PUSH0 MSTORE PUSH1 0x20 PUSH0 KECCAK256 SWAP1 POP SWAP2 SWAP1 POP JUMP JUMPDEST PUSH1 0x1F DUP3 GT ISZERO PUSH2 0xAB16 JUMPI PUSH2 0xAAE7 DUP2 PUSH2 0xAAC3 JUMP JUMPDEST PUSH2 0xAAF0 DUP5 PUSH2 0x95D3 JUMP JUMPDEST DUP2 ADD PUSH1 0x20 DUP6 LT ISZERO PUSH2 0xAAFF JUMPI DUP2 SWAP1 POP JUMPDEST PUSH2 0xAB13 PUSH2 0xAB0B DUP6 PUSH2 0x95D3 JUMP JUMPDEST DUP4 ADD DUP3 PUSH2 0x96B6 JUMP JUMPDEST POP POP JUMPDEST POP POP POP JUMP JUMPDEST PUSH2 0xAB24 DUP3 PUSH2 0x83C8 JUMP JUMPDEST PUSH8 0xFFFFFFFFFFFFFFFF DUP2 GT ISZERO PUSH2 0xAB3D JUMPI PUSH2 0xAB3C PUSH2 0x7C1A JUMP JUMPDEST JUMPDEST PUSH2 0xAB47 DUP3 SLOAD PUSH2 0x8AC2 JUMP JUMPDEST PUSH2 0xAB52 DUP3 DUP3 DUP6 PUSH2 0xAAD5 JUMP JUMPDEST PUSH0 PUSH1 0x20 SWAP1 POP PUSH1 0x1F DUP4 GT PUSH1 0x1 DUP2 EQ PUSH2 0xAB83 JUMPI PUSH0 DUP5 ISZERO PUSH2 0xAB71 JUMPI DUP3 DUP8 ADD MLOAD SWAP1 POP JUMPDEST PUSH2 0xAB7B DUP6 DUP3 PUSH2 0x9746 JUMP JUMPDEST DUP7 SSTORE POP PUSH2 0xABE2 JUMP JUMPDEST PUSH1 0x1F NOT DUP5 AND PUSH2 0xAB91 DUP7 PUSH2 0xAAC3 JUMP JUMPDEST PUSH0 JUMPDEST DUP3 DUP2 LT ISZERO PUSH2 0xABB8 JUMPI DUP5 DUP10 ADD MLOAD DUP3 SSTORE PUSH1 0x1 DUP3 ADD SWAP2 POP PUSH1 0x20 DUP6 ADD SWAP5 POP PUSH1 0x20 DUP2 ADD SWAP1 POP PUSH2 0xAB93 JUMP JUMPDEST DUP7 DUP4 LT ISZERO PUSH2 0xABD5 JUMPI DUP5 DUP10 ADD MLOAD PUSH2 0xABD1 PUSH1 0x1F DUP10 AND DUP3 PUSH2 0x972A JUMP JUMPDEST DUP4 SSTORE POP JUMPDEST PUSH1 0x1 PUSH1 0x2 DUP9 MUL ADD DUP9 SSTORE POP POP POP JUMPDEST POP POP POP POP POP POP JUMP JUMPDEST PUSH0 PUSH2 0xABF5 DUP4 DUP6 PUSH2 0x7A77 JUMP JUMPDEST SWAP4 POP PUSH2 0xAC02 DUP4 DUP6 DUP5 PUSH2 0x7CC2 JUMP JUMPDEST PUSH2 0xAC0B DUP4 PUSH2 0x7A95 JUMP JUMPDEST DUP5 ADD SWAP1 POP SWAP4 SWAP3 POP POP POP JUMP JUMPDEST PUSH0 PUSH2 0xAC21 DUP4 DUP6 PUSH2 0x83D2 JUMP JUMPDEST SWAP4 POP PUSH2 0xAC2E DUP4 DUP6 DUP5 PUSH2 0x7CC2 JUMP JUMPDEST PUSH2 0xAC37 DUP4 PUSH2 0x7A95 JUMP JUMPDEST DUP5 ADD SWAP1 POP SWAP4 SWAP3 POP POP POP JUMP JUMPDEST PUSH0 PUSH1 0x60 DUP3 ADD SWAP1 POP PUSH2 0xAC55 PUSH0 DUP4 ADD DUP9 PUSH2 0x7981 JUMP JUMPDEST DUP2 DUP2 SUB PUSH1 0x20 DUP4 ADD MSTORE PUSH2 0xAC68 DUP2 DUP7 DUP9 PUSH2 0xABEA JUMP JUMPDEST SWAP1 POP DUP2 DUP2 SUB PUSH1 0x40 DUP4 ADD MSTORE PUSH2 0xAC7D DUP2 DUP5 DUP7 PUSH2 0xAC16 JUMP JUMPDEST SWAP1 POP SWAP7 SWAP6 POP POP POP POP POP POP JUMP JUMPDEST PUSH0 PUSH2 0xAC93 DUP3 PUSH2 0x83C8 JUMP JUMPDEST PUSH2 0xAC9D DUP2 DUP6 PUSH2 0x8F71 JUMP JUMPDEST SWAP4 POP PUSH2 0xACAD DUP2 DUP6 PUSH1 0x20 DUP7 ADD PUSH2 0x7A87 JUMP JUMPDEST DUP1 DUP5 ADD SWAP2 POP POP SWAP3 SWAP2 POP POP JUMP JUMPDEST PUSH0 PUSH2 0xACC4 DUP3 DUP5 PUSH2 0xAC89 JUMP JUMPDEST SWAP2 POP DUP2 SWAP1 POP SWAP3 SWAP2 POP POP JUMP JUMPDEST PUSH32 0x416464726573733A2063616C6C20746F206E6F6E2D636F6E7472616374000000 PUSH0 DUP3 ADD MSTORE POP JUMP JUMPDEST PUSH0 PUSH2 0xAD03 PUSH1 0x1D DUP4 PUSH2 0x7A77 JUMP JUMPDEST SWAP2 POP PUSH2 0xAD0E DUP3 PUSH2 0xACCF JUMP JUMPDEST PUSH1 0x20 DUP3 ADD SWAP1 POP SWAP2 SWAP1 POP JUMP JUMPDEST PUSH0 PUSH1 0x20 DUP3 ADD SWAP1 POP DUP2 DUP2 SUB PUSH0 DUP4 ADD MSTORE PUSH2 0xAD30 DUP2 PUSH2 0xACF7 JUMP JUMPDEST SWAP1 POP SWAP2 SWAP1 POP JUMP JUMPDEST PUSH32 0x5361666545524332303A204552433230206F7065726174696F6E20646964206E PUSH0 DUP3 ADD MSTORE PUSH32 0x6F74207375636365656400000000000000000000000000000000000000000000 PUSH1 0x20 DUP3 ADD MSTORE POP JUMP JUMPDEST PUSH0 PUSH2 0xAD91 PUSH1 0x2A DUP4 PUSH2 0x7A77 JUMP JUMPDEST SWAP2 POP PUSH2 0xAD9C DUP3 PUSH2 0xAD37 JUMP JUMPDEST PUSH1 0x40 DUP3 ADD SWAP1 POP SWAP2 SWAP1 POP JUMP JUMPDEST PUSH0 PUSH1 0x20 DUP3 ADD SWAP1 POP DUP2 DUP2 SUB PUSH0 DUP4 ADD MSTORE PUSH2 0xADBE DUP2 PUSH2 0xAD85 JUMP JUMPDEST SWAP1 POP SWAP2 SWAP1 POP JUMP JUMPDEST PUSH32 0x416464726573733A20696E73756666696369656E742062616C616E636520666F PUSH0 DUP3 ADD MSTORE PUSH32 0x722063616C6C0000000000000000000000000000000000000000000000000000 PUSH1 0x20 DUP3 ADD MSTORE POP JUMP JUMPDEST PUSH0 PUSH2 0xAE1F PUSH1 0x26 DUP4 PUSH2 0x7A77 JUMP JUMPDEST SWAP2 POP PUSH2 0xAE2A DUP3 PUSH2 0xADC5 JUMP JUMPDEST PUSH1 0x40 DUP3 ADD SWAP1 POP SWAP2 SWAP1 POP JUMP JUMPDEST PUSH0 PUSH1 0x20 DUP3 ADD SWAP1 POP DUP2 DUP2 SUB PUSH0 DUP4 ADD MSTORE PUSH2 0xAE4C DUP2 PUSH2 0xAE13 JUMP JUMPDEST SWAP1 POP SWAP2 SWAP1 POP JUMP INVALID COINBASE PUSH5 0x6472657373 GASPRICE KECCAK256 PUSH13 0x6F772D6C6576656C2064656C65 PUSH8 0x6174652063616C6C KECCAK256 PUSH7 0x61696C6564A264 PUSH10 0x70667358221220B3D989 PUSH23 0xCAC77368828ADA02E2D397761FA8FED2157DA90993623E 0xAE LOG1 0x26 0xB8 PUSH23 0x64736F6C634300081C0033000000000000000000000000 "
		},
		"gasEstimates": {
			"creation": {
				"codeDepositCost": "8944000",
				"executionCost": "infinite",
				"totalCost": "infinite"
			},
			"external": {
				"MAX_TIERS()": "2494",
				"TOTAL_SUPPLY()": "2559",
				"approve(address,uint256)": "infinite",
				"balanceOf(address)": "3000",
				"baseURI()": "infinite",
				"batchFrozen(uint256)": "2898",
				"burn(uint256)": "infinite",
				"buyNode(uint256,string,address)": "infinite",
				"claim(address,uint256,address,uint256,(bytes32[],uint256,uint256,address),bytes)": "infinite",
				"claimCondition()": "infinite",
				"contractURI()": "infinite",
				"currentTier()": "2492",
				"encryptDecrypt(bytes,bytes)": "infinite",
				"encryptedData(uint256)": "infinite",
				"generateReferralCode(address)": "infinite",
				"getApproved(uint256)": "7469",
				"getBaseURICount()": "2551",
				"getBatchIdAtIndex(uint256)": "infinite",
				"getDefaultRoyaltyInfo()": "4887",
				"getReferees(address)": "infinite",
				"getReferralRewards(address,address)": "infinite",
				"getRevealURI(uint256,bytes)": "infinite",
				"getRoyaltyInfoForToken(uint256)": "9617",
				"getSupplyClaimedByWallet(address)": "5074",
				"getTierMintCount(uint256)": "infinite",
				"getTokenId()": "2502",
				"getTokenPrice(address)": "infinite",
				"initializeTiers(uint256[],uint256[])": "infinite",
				"isApprovedForAll(address,address)": "infinite",
				"isEncryptedBatch(uint256)": "3068",
				"lastPurchaseBlock(address)": "2870",
				"lazyMint(uint256,string,bytes)": "infinite",
				"maxPerWallet()": "2537",
				"multicall(bytes[])": "infinite",
				"name()": "infinite",
				"nextTokenIdToClaim()": "2586",
				"nextTokenIdToMint()": "2523",
				"owner()": "2627",
				"ownerOf(uint256)": "infinite",
				"primarySaleRecipient()": "2651",
				"referralCodeToAddress(string)": "infinite",
				"referralRewards(address,address)": "infinite",
				"registerReferralCode()": "infinite",
				"reveal(uint256,bytes)": "infinite",
				"royaltyInfo(uint256,uint256)": "infinite",
				"safeTransferFrom(address,address,uint256)": "infinite",
				"safeTransferFrom(address,address,uint256,bytes)": "infinite",
				"setApprovalForAll(address,bool)": "infinite",
				"setBaseURI(string)": "infinite",
				"setClaimConditions((uint256,uint256,uint256,uint256,bytes32,uint256,address,string),bool)": "infinite",
				"setContractURI(string)": "infinite",
				"setDefaultRoyaltyInfo(address,uint256)": "infinite",
				"setMaxPerWallet(uint256)": "infinite",
				"setMaxTiers(uint256,uint256[],uint256[])": "infinite",
				"setOwner(address)": "30830",
				"setPrimarySaleRecipient(address)": "infinite",
				"setRoyaltyInfoForToken(uint256,address,uint256)": "infinite",
				"setTotalSupply(uint256)": "infinite",
				"supportsInterface(bytes4)": "850",
				"symbol()": "infinite",
				"tierMintCount(uint256)": "infinite",
				"tierMinted()": "2536",
				"tierPrices(uint256)": "infinite",
				"tierSizes(uint256)": "infinite",
				"tokenURI(uint256)": "infinite",
				"totalMinted()": "2536",
				"totalSupply()": "4645",
				"transferFrom(address,address,uint256)": "infinite",
				"userReferralCodes(address)": "infinite",
				"verifyClaim(address,uint256,address,uint256,(bytes32[],uint256,uint256,address))": "infinite",
				"walletMints(address)": "2934",
				"withdraw()": "infinite",
				"withdrawToken(address)": "infinite"
			},
			"internal": {
				"_advanceTier()": "infinite",
				"_setTokenURI(uint256,string memory)": "infinite",
				"_toPaddedString(uint256,uint256)": "infinite",
				"_transferTokensOnClaim(address,uint256)": "infinite",
				"toHexString(bytes32)": "infinite"
			}
		},
		"methodIdentifiers": {
			"MAX_TIERS()": "07c3d4af",
			"TOTAL_SUPPLY()": "902d55a5",
			"approve(address,uint256)": "095ea7b3",
			"balanceOf(address)": "70a08231",
			"baseURI()": "6c0360eb",
			"batchFrozen(uint256)": "83040532",
			"burn(uint256)": "42966c68",
			"buyNode(uint256,string,address)": "0e910f1d",
			"claim(address,uint256,address,uint256,(bytes32[],uint256,uint256,address),bytes)": "84bb1e42",
			"claimCondition()": "d637ed59",
			"contractURI()": "e8a3d485",
			"currentTier()": "d679677a",
			"encryptDecrypt(bytes,bytes)": "e7150322",
			"encryptedData(uint256)": "a05112fc",
			"generateReferralCode(address)": "6c9c7b63",
			"getApproved(uint256)": "081812fc",
			"getBaseURICount()": "63b45e2d",
			"getBatchIdAtIndex(uint256)": "2419f51b",
			"getDefaultRoyaltyInfo()": "b24f2d39",
			"getReferees(address)": "d499bc85",
			"getReferralRewards(address,address)": "257f7fd5",
			"getRevealURI(uint256,bytes)": "9fc4d68f",
			"getRoyaltyInfoForToken(uint256)": "4cc157df",
			"getSupplyClaimedByWallet(address)": "35b65e1f",
			"getTierMintCount(uint256)": "2b396b9a",
			"getTokenId()": "010a38f5",
			"getTokenPrice(address)": "d02641a0",
			"initializeTiers(uint256[],uint256[])": "bee2c64c",
			"isApprovedForAll(address,address)": "e985e9c5",
			"isEncryptedBatch(uint256)": "492e224b",
			"lastPurchaseBlock(address)": "86cbf53a",
			"lazyMint(uint256,string,bytes)": "d37c353b",
			"maxPerWallet()": "453c2310",
			"multicall(bytes[])": "ac9650d8",
			"name()": "06fdde03",
			"nextTokenIdToClaim()": "acd083f8",
			"nextTokenIdToMint()": "3b1475a7",
			"owner()": "8da5cb5b",
			"ownerOf(uint256)": "6352211e",
			"primarySaleRecipient()": "079fe40e",
			"referralCodeToAddress(string)": "d6f92372",
			"referralRewards(address,address)": "4c63c518",
			"registerReferralCode()": "48eec4f8",
			"reveal(uint256,bytes)": "ce805642",
			"royaltyInfo(uint256,uint256)": "2a55205a",
			"safeTransferFrom(address,address,uint256)": "42842e0e",
			"safeTransferFrom(address,address,uint256,bytes)": "b88d4fde",
			"setApprovalForAll(address,bool)": "a22cb465",
			"setBaseURI(string)": "55f804b3",
			"setClaimConditions((uint256,uint256,uint256,uint256,bytes32,uint256,address,string),bool)": "426cfaf3",
			"setContractURI(string)": "938e3d7b",
			"setDefaultRoyaltyInfo(address,uint256)": "600dd5ea",
			"setMaxPerWallet(uint256)": "e268e4d3",
			"setMaxTiers(uint256,uint256[],uint256[])": "60d46f6a",
			"setOwner(address)": "13af4035",
			"setPrimarySaleRecipient(address)": "6f4f2837",
			"setRoyaltyInfoForToken(uint256,address,uint256)": "9bcf7a15",
			"setTotalSupply(uint256)": "f7ea7a3d",
			"supportsInterface(bytes4)": "01ffc9a7",
			"symbol()": "95d89b41",
			"tierMintCount(uint256)": "247e0bf0",
			"tierMinted()": "dd7d9386",
			"tierPrices(uint256)": "300eccab",
			"tierSizes(uint256)": "30521bde",
			"tokenURI(uint256)": "c87b56dd",
			"totalMinted()": "a2309ff8",
			"totalSupply()": "18160ddd",
			"transferFrom(address,address,uint256)": "23b872dd",
			"userReferralCodes(address)": "9b2c76d4",
			"verifyClaim(address,uint256,address,uint256,(bytes32[],uint256,uint256,address))": "eec8897c",
			"walletMints(address)": "f0293fd3",
			"withdraw()": "3ccfd60b",
			"withdrawToken(address)": "89476069"
		}
	},
	"abi": [
		{
			"inputs": [
				{
					"internalType": "address",
					"name": "_defaultAdmin",
					"type": "address"
				},
				{
					"internalType": "string",
					"name": "_name",
					"type": "string"
				},
				{
					"internalType": "string",
					"name": "_symbol",
					"type": "string"
				},
				{
					"internalType": "address",
					"name": "_royaltyRecipient",
					"type": "address"
				},
				{
					"internalType": "uint128",
					"name": "_royaltyBps",
					"type": "uint128"
				},
				{
					"internalType": "address",
					"name": "_primarySaleRecipient",
					"type": "address"
				},
				{
					"internalType": "string",
					"name": "_baseURI",
					"type": "string"
				}
			],
			"stateMutability": "nonpayable",
			"type": "constructor"
		},
		{
			"inputs": [],
			"name": "ApprovalCallerNotOwnerNorApproved",
			"type": "error"
		},
		{
			"inputs": [],
			"name": "ApprovalQueryForNonexistentToken",
			"type": "error"
		},
		{
			"inputs": [],
			"name": "ApprovalToCurrentOwner",
			"type": "error"
		},
		{
			"inputs": [],
			"name": "ApproveToCaller",
			"type": "error"
		},
		{
			"inputs": [],
			"name": "BalanceQueryForZeroAddress",
			"type": "error"
		},
		{
			"inputs": [
				{
					"internalType": "uint256",
					"name": "index",
					"type": "uint256"
				}
			],
			"name": "BatchMintInvalidBatchId",
			"type": "error"
		},
		{
			"inputs": [
				{
					"internalType": "uint256",
					"name": "tokenId",
					"type": "uint256"
				}
			],
			"name": "BatchMintInvalidTokenId",
			"type": "error"
		},
		{
			"inputs": [
				{
					"internalType": "uint256",
					"name": "batchId",
					"type": "uint256"
				}
			],
			"name": "BatchMintMetadataFrozen",
			"type": "error"
		},
		{
			"inputs": [],
			"name": "ContractMetadataUnauthorized",
			"type": "error"
		},
		{
			"inputs": [
				{
					"internalType": "address",
					"name": "recipient",
					"type": "address"
				},
				{
					"internalType": "uint256",
					"name": "value",
					"type": "uint256"
				}
			],
			"name": "CurrencyTransferLibFailedNativeTransfer",
			"type": "error"
		},
		{
			"inputs": [
				{
					"internalType": "bytes32",
					"name": "expected",
					"type": "bytes32"
				},
				{
					"internalType": "bytes32",
					"name": "actual",
					"type": "bytes32"
				}
			],
			"name": "DelayedRevealIncorrectResultHash",
			"type": "error"
		},
		{
			"inputs": [],
			"name": "DelayedRevealNothingToReveal",
			"type": "error"
		},
		{
			"inputs": [
				{
					"internalType": "uint256",
					"name": "expected",
					"type": "uint256"
				},
				{
					"internalType": "uint256",
					"name": "actual",
					"type": "uint256"
				}
			],
			"name": "DropClaimExceedLimit",
			"type": "error"
		},
		{
			"inputs": [
				{
					"internalType": "uint256",
					"name": "expected",
					"type": "uint256"
				},
				{
					"internalType": "uint256",
					"name": "actual",
					"type": "uint256"
				}
			],
			"name": "DropClaimExceedMaxSupply",
			"type": "error"
		},
		{
			"inputs": [
				{
					"internalType": "address",
					"name": "expectedCurrency",
					"type": "address"
				},
				{
					"internalType": "uint256",
					"name": "expectedPricePerToken",
					"type": "uint256"
				},
				{
					"internalType": "address",
					"name": "actualCurrency",
					"type": "address"
				},
				{
					"internalType": "uint256",
					"name": "actualExpectedPricePerToken",
					"type": "uint256"
				}
			],
			"name": "DropClaimInvalidTokenPrice",
			"type": "error"
		},
		{
			"inputs": [
				{
					"internalType": "uint256",
					"name": "expected",
					"type": "uint256"
				},
				{
					"internalType": "uint256",
					"name": "actual",
					"type": "uint256"
				}
			],
			"name": "DropClaimNotStarted",
			"type": "error"
		},
		{
			"inputs": [],
			"name": "DropExceedMaxSupply",
			"type": "error"
		},
		{
			"inputs": [],
			"name": "DropNoActiveCondition",
			"type": "error"
		},
		{
			"inputs": [],
			"name": "DropUnauthorized",
			"type": "error"
		},
		{
			"inputs": [],
			"name": "LazyMintInvalidAmount",
			"type": "error"
		},
		{
			"inputs": [],
			"name": "LazyMintUnauthorized",
			"type": "error"
		},
		{
			"inputs": [],
			"name": "MintToZeroAddress",
			"type": "error"
		},
		{
			"inputs": [],
			"name": "MintZeroQuantity",
			"type": "error"
		},
		{
			"inputs": [],
			"name": "OwnableUnauthorized",
			"type": "error"
		},
		{
			"inputs": [],
			"name": "OwnerQueryForNonexistentToken",
			"type": "error"
		},
		{
			"inputs": [
				{
					"internalType": "address",
					"name": "recipient",
					"type": "address"
				}
			],
			"name": "PrimarySaleInvalidRecipient",
			"type": "error"
		},
		{
			"inputs": [],
			"name": "PrimarySaleUnauthorized",
			"type": "error"
		},
		{
			"inputs": [
				{
					"internalType": "uint256",
					"name": "max",
					"type": "uint256"
				},
				{
					"internalType": "uint256",
					"name": "actual",
					"type": "uint256"
				}
			],
			"name": "RoyaltyExceededMaxFeeBps",
			"type": "error"
		},
		{
			"inputs": [
				{
					"internalType": "address",
					"name": "recipient",
					"type": "address"
				}
			],
			"name": "RoyaltyInvalidRecipient",
			"type": "error"
		},
		{
			"inputs": [],
			"name": "RoyaltyUnauthorized",
			"type": "error"
		},
		{
			"inputs": [],
			"name": "TransferCallerNotOwnerNorApproved",
			"type": "error"
		},
		{
			"inputs": [],
			"name": "TransferFromIncorrectOwner",
			"type": "error"
		},
		{
			"inputs": [],
			"name": "TransferToNonERC721ReceiverImplementer",
			"type": "error"
		},
		{
			"inputs": [],
			"name": "TransferToZeroAddress",
			"type": "error"
		},
		{
			"inputs": [],
			"name": "URIQueryForNonexistentToken",
			"type": "error"
		},
		{
			"anonymous": false,
			"inputs": [
				{
					"indexed": true,
					"internalType": "address",
					"name": "owner",
					"type": "address"
				},
				{
					"indexed": true,
					"internalType": "address",
					"name": "approved",
					"type": "address"
				},
				{
					"indexed": true,
					"internalType": "uint256",
					"name": "tokenId",
					"type": "uint256"
				}
			],
			"name": "Approval",
			"type": "event"
		},
		{
			"anonymous": false,
			"inputs": [
				{
					"indexed": true,
					"internalType": "address",
					"name": "owner",
					"type": "address"
				},
				{
					"indexed": true,
					"internalType": "address",
					"name": "operator",
					"type": "address"
				},
				{
					"indexed": false,
					"internalType": "bool",
					"name": "approved",
					"type": "bool"
				}
			],
			"name": "ApprovalForAll",
			"type": "event"
		},
		{
			"anonymous": false,
			"inputs": [
				{
					"indexed": false,
					"internalType": "string",
					"name": "newBaseImageURI",
					"type": "string"
				}
			],
			"name": "BaseImageURISet",
			"type": "event"
		},
		{
			"anonymous": false,
			"inputs": [
				{
					"indexed": false,
					"internalType": "uint256",
					"name": "_fromTokenId",
					"type": "uint256"
				},
				{
					"indexed": false,
					"internalType": "uint256",
					"name": "_toTokenId",
					"type": "uint256"
				}
			],
			"name": "BatchMetadataUpdate",
			"type": "event"
		},
		{
			"anonymous": false,
			"inputs": [
				{
					"components": [
						{
							"internalType": "uint256",
							"name": "startTimestamp",
							"type": "uint256"
						},
						{
							"internalType": "uint256",
							"name": "maxClaimableSupply",
							"type": "uint256"
						},
						{
							"internalType": "uint256",
							"name": "supplyClaimed",
							"type": "uint256"
						},
						{
							"internalType": "uint256",
							"name": "quantityLimitPerWallet",
							"type": "uint256"
						},
						{
							"internalType": "bytes32",
							"name": "merkleRoot",
							"type": "bytes32"
						},
						{
							"internalType": "uint256",
							"name": "pricePerToken",
							"type": "uint256"
						},
						{
							"internalType": "address",
							"name": "currency",
							"type": "address"
						},
						{
							"internalType": "string",
							"name": "metadata",
							"type": "string"
						}
					],
					"indexed": false,
					"internalType": "struct IClaimCondition.ClaimCondition",
					"name": "condition",
					"type": "tuple"
				},
				{
					"indexed": false,
					"internalType": "bool",
					"name": "resetEligibility",
					"type": "bool"
				}
			],
			"name": "ClaimConditionUpdated",
			"type": "event"
		},
		{
			"anonymous": false,
			"inputs": [
				{
					"indexed": false,
					"internalType": "string",
					"name": "prevURI",
					"type": "string"
				},
				{
					"indexed": false,
					"internalType": "string",
					"name": "newURI",
					"type": "string"
				}
			],
			"name": "ContractURIUpdated",
			"type": "event"
		},
		{
			"anonymous": false,
			"inputs": [
				{
					"indexed": true,
					"internalType": "address",
					"name": "newRoyaltyRecipient",
					"type": "address"
				},
				{
					"indexed": false,
					"internalType": "uint256",
					"name": "newRoyaltyBps",
					"type": "uint256"
				}
			],
			"name": "DefaultRoyalty",
			"type": "event"
		},
		{
			"anonymous": false,
			"inputs": [
				{
					"indexed": false,
					"internalType": "uint256",
					"name": "newMaxPerWallet",
					"type": "uint256"
				}
			],
			"name": "MaxPerWalletSet",
			"type": "event"
		},
		{
			"anonymous": false,
			"inputs": [
				{
					"indexed": false,
					"internalType": "uint256",
					"name": "newMaxTiers",
					"type": "uint256"
				}
			],
			"name": "MaxTiersSet",
			"type": "event"
		},
		{
			"anonymous": false,
			"inputs": [],
			"name": "MetadataFrozen",
			"type": "event"
		},
		{
			"anonymous": false,
			"inputs": [
				{
					"indexed": true,
					"internalType": "address",
					"name": "buyer",
					"type": "address"
				},
				{
					"indexed": false,
					"internalType": "uint256",
					"name": "quantity",
					"type": "uint256"
				},
				{
					"indexed": false,
					"internalType": "address",
					"name": "paymentToken",
					"type": "address"
				},
				{
					"indexed": false,
					"internalType": "string",
					"name": "referrerCode",
					"type": "string"
				}
			],
			"name": "NodePurchased",
			"type": "event"
		},
		{
			"anonymous": false,
			"inputs": [
				{
					"indexed": true,
					"internalType": "address",
					"name": "prevOwner",
					"type": "address"
				},
				{
					"indexed": true,
					"internalType": "address",
					"name": "newOwner",
					"type": "address"
				}
			],
			"name": "OwnerUpdated",
			"type": "event"
		},
		{
			"anonymous": false,
			"inputs": [
				{
					"indexed": true,
					"internalType": "address",
					"name": "recipient",
					"type": "address"
				}
			],
			"name": "PrimarySaleRecipientUpdated",
			"type": "event"
		},
		{
			"anonymous": false,
			"inputs": [
				{
					"indexed": false,
					"internalType": "address",
					"name": "user",
					"type": "address"
				},
				{
					"indexed": false,
					"internalType": "string",
					"name": "referralCode",
					"type": "string"
				}
			],
			"name": "ReferralCodeRegistered",
			"type": "event"
		},
		{
			"anonymous": false,
			"inputs": [
				{
					"indexed": true,
					"internalType": "uint256",
					"name": "tokenId",
					"type": "uint256"
				},
				{
					"indexed": true,
					"internalType": "address",
					"name": "royaltyRecipient",
					"type": "address"
				},
				{
					"indexed": false,
					"internalType": "uint256",
					"name": "royaltyBps",
					"type": "uint256"
				}
			],
			"name": "RoyaltyForToken",
			"type": "event"
		},
		{
			"anonymous": false,
			"inputs": [
				{
					"indexed": true,
					"internalType": "uint256",
					"name": "index",
					"type": "uint256"
				},
				{
					"indexed": false,
					"internalType": "string",
					"name": "revealedURI",
					"type": "string"
				}
			],
			"name": "TokenURIRevealed",
			"type": "event"
		},
		{
			"anonymous": false,
			"inputs": [
				{
					"indexed": true,
					"internalType": "address",
					"name": "owner",
					"type": "address"
				},
				{
					"indexed": false,
					"internalType": "address",
					"name": "token",
					"type": "address"
				},
				{
					"indexed": false,
					"internalType": "uint256",
					"name": "amount",
					"type": "uint256"
				}
			],
			"name": "TokenWithdrawn",
			"type": "event"
		},
		{
			"anonymous": false,
			"inputs": [
				{
					"indexed": true,
					"internalType": "address",
					"name": "claimer",
					"type": "address"
				},
				{
					"indexed": true,
					"internalType": "address",
					"name": "receiver",
					"type": "address"
				},
				{
					"indexed": true,
					"internalType": "uint256",
					"name": "startTokenId",
					"type": "uint256"
				},
				{
					"indexed": false,
					"internalType": "uint256",
					"name": "quantityClaimed",
					"type": "uint256"
				}
			],
			"name": "TokensClaimed",
			"type": "event"
		},
		{
			"anonymous": false,
			"inputs": [
				{
					"indexed": true,
					"internalType": "uint256",
					"name": "startTokenId",
					"type": "uint256"
				},
				{
					"indexed": false,
					"internalType": "uint256",
					"name": "endTokenId",
					"type": "uint256"
				},
				{
					"indexed": false,
					"internalType": "string",
					"name": "baseURI",
					"type": "string"
				},
				{
					"indexed": false,
					"internalType": "bytes",
					"name": "encryptedBaseURI",
					"type": "bytes"
				}
			],
			"name": "TokensLazyMinted",
			"type": "event"
		},
		{
			"anonymous": false,
			"inputs": [
				{
					"indexed": false,
					"internalType": "uint256",
					"name": "newTotalSupply",
					"type": "uint256"
				}
			],
			"name": "TotalSupplySet",
			"type": "event"
		},
		{
			"anonymous": false,
			"inputs": [
				{
					"indexed": true,
					"internalType": "address",
					"name": "from",
					"type": "address"
				},
				{
					"indexed": true,
					"internalType": "address",
					"name": "to",
					"type": "address"
				},
				{
					"indexed": true,
					"internalType": "uint256",
					"name": "tokenId",
					"type": "uint256"
				}
			],
			"name": "Transfer",
			"type": "event"
		},
		{
			"anonymous": false,
			"inputs": [
				{
					"indexed": true,
					"internalType": "address",
					"name": "owner",
					"type": "address"
				},
				{
					"indexed": false,
					"internalType": "uint256",
					"name": "amount",
					"type": "uint256"
				}
			],
			"name": "Withdrawn",
			"type": "event"
		},
		{
			"inputs": [],
			"name": "MAX_TIERS",
			"outputs": [
				{
					"internalType": "uint256",
					"name": "",
					"type": "uint256"
				}
			],
			"stateMutability": "view",
			"type": "function"
		},
		{
			"inputs": [],
			"name": "TOTAL_SUPPLY",
			"outputs": [
				{
					"internalType": "uint256",
					"name": "",
					"type": "uint256"
				}
			],
			"stateMutability": "view",
			"type": "function"
		},
		{
			"inputs": [
				{
					"internalType": "address",
					"name": "to",
					"type": "address"
				},
				{
					"internalType": "uint256",
					"name": "tokenId",
					"type": "uint256"
				}
			],
			"name": "approve",
			"outputs": [],
			"stateMutability": "nonpayable",
			"type": "function"
		},
		{
			"inputs": [
				{
					"internalType": "address",
					"name": "owner",
					"type": "address"
				}
			],
			"name": "balanceOf",
			"outputs": [
				{
					"internalType": "uint256",
					"name": "",
					"type": "uint256"
				}
			],
			"stateMutability": "view",
			"type": "function"
		},
		{
			"inputs": [],
			"name": "baseURI",
			"outputs": [
				{
					"internalType": "string",
					"name": "",
					"type": "string"
				}
			],
			"stateMutability": "view",
			"type": "function"
		},
		{
			"inputs": [
				{
					"internalType": "uint256",
					"name": "",
					"type": "uint256"
				}
			],
			"name": "batchFrozen",
			"outputs": [
				{
					"internalType": "bool",
					"name": "",
					"type": "bool"
				}
			],
			"stateMutability": "view",
			"type": "function"
		},
		{
			"inputs": [
				{
					"internalType": "uint256",
					"name": "_tokenId",
					"type": "uint256"
				}
			],
			"name": "burn",
			"outputs": [],
			"stateMutability": "nonpayable",
			"type": "function"
		},
		{
			"inputs": [
				{
					"internalType": "uint256",
					"name": "quantity",
					"type": "uint256"
				},
				{
					"internalType": "string",
					"name": "referrerCode",
					"type": "string"
				},
				{
					"internalType": "address",
					"name": "paymentToken",
					"type": "address"
				}
			],
			"name": "buyNode",
			"outputs": [],
			"stateMutability": "payable",
			"type": "function"
		},
		{
			"inputs": [
				{
					"internalType": "address",
					"name": "_receiver",
					"type": "address"
				},
				{
					"internalType": "uint256",
					"name": "_quantity",
					"type": "uint256"
				},
				{
					"internalType": "address",
					"name": "_currency",
					"type": "address"
				},
				{
					"internalType": "uint256",
					"name": "_pricePerToken",
					"type": "uint256"
				},
				{
					"components": [
						{
							"internalType": "bytes32[]",
							"name": "proof",
							"type": "bytes32[]"
						},
						{
							"internalType": "uint256",
							"name": "quantityLimitPerWallet",
							"type": "uint256"
						},
						{
							"internalType": "uint256",
							"name": "pricePerToken",
							"type": "uint256"
						},
						{
							"internalType": "address",
							"name": "currency",
							"type": "address"
						}
					],
					"internalType": "struct IDropSinglePhase.AllowlistProof",
					"name": "_allowlistProof",
					"type": "tuple"
				},
				{
					"internalType": "bytes",
					"name": "_data",
					"type": "bytes"
				}
			],
			"name": "claim",
			"outputs": [],
			"stateMutability": "payable",
			"type": "function"
		},
		{
			"inputs": [],
			"name": "claimCondition",
			"outputs": [
				{
					"internalType": "uint256",
					"name": "startTimestamp",
					"type": "uint256"
				},
				{
					"internalType": "uint256",
					"name": "maxClaimableSupply",
					"type": "uint256"
				},
				{
					"internalType": "uint256",
					"name": "supplyClaimed",
					"type": "uint256"
				},
				{
					"internalType": "uint256",
					"name": "quantityLimitPerWallet",
					"type": "uint256"
				},
				{
					"internalType": "bytes32",
					"name": "merkleRoot",
					"type": "bytes32"
				},
				{
					"internalType": "uint256",
					"name": "pricePerToken",
					"type": "uint256"
				},
				{
					"internalType": "address",
					"name": "currency",
					"type": "address"
				},
				{
					"internalType": "string",
					"name": "metadata",
					"type": "string"
				}
			],
			"stateMutability": "view",
			"type": "function"
		},
		{
			"inputs": [],
			"name": "contractURI",
			"outputs": [
				{
					"internalType": "string",
					"name": "",
					"type": "string"
				}
			],
			"stateMutability": "view",
			"type": "function"
		},
		{
			"inputs": [],
			"name": "currentTier",
			"outputs": [
				{
					"internalType": "uint256",
					"name": "",
					"type": "uint256"
				}
			],
			"stateMutability": "view",
			"type": "function"
		},
		{
			"inputs": [
				{
					"internalType": "bytes",
					"name": "data",
					"type": "bytes"
				},
				{
					"internalType": "bytes",
					"name": "key",
					"type": "bytes"
				}
			],
			"name": "encryptDecrypt",
			"outputs": [
				{
					"internalType": "bytes",
					"name": "result",
					"type": "bytes"
				}
			],
			"stateMutability": "pure",
			"type": "function"
		},
		{
			"inputs": [
				{
					"internalType": "uint256",
					"name": "",
					"type": "uint256"
				}
			],
			"name": "encryptedData",
			"outputs": [
				{
					"internalType": "bytes",
					"name": "",
					"type": "bytes"
				}
			],
			"stateMutability": "view",
			"type": "function"
		},
		{
			"inputs": [
				{
					"internalType": "address",
					"name": "user",
					"type": "address"
				}
			],
			"name": "generateReferralCode",
			"outputs": [
				{
					"internalType": "string",
					"name": "",
					"type": "string"
				}
			],
			"stateMutability": "pure",
			"type": "function"
		},
		{
			"inputs": [
				{
					"internalType": "uint256",
					"name": "tokenId",
					"type": "uint256"
				}
			],
			"name": "getApproved",
			"outputs": [
				{
					"internalType": "address",
					"name": "",
					"type": "address"
				}
			],
			"stateMutability": "view",
			"type": "function"
		},
		{
			"inputs": [],
			"name": "getBaseURICount",
			"outputs": [
				{
					"internalType": "uint256",
					"name": "",
					"type": "uint256"
				}
			],
			"stateMutability": "view",
			"type": "function"
		},
		{
			"inputs": [
				{
					"internalType": "uint256",
					"name": "_index",
					"type": "uint256"
				}
			],
			"name": "getBatchIdAtIndex",
			"outputs": [
				{
					"internalType": "uint256",
					"name": "",
					"type": "uint256"
				}
			],
			"stateMutability": "view",
			"type": "function"
		},
		{
			"inputs": [],
			"name": "getDefaultRoyaltyInfo",
			"outputs": [
				{
					"internalType": "address",
					"name": "",
					"type": "address"
				},
				{
					"internalType": "uint16",
					"name": "",
					"type": "uint16"
				}
			],
			"stateMutability": "view",
			"type": "function"
		},
		{
			"inputs": [
				{
					"internalType": "address",
					"name": "referrer",
					"type": "address"
				}
			],
			"name": "getReferees",
			"outputs": [
				{
					"internalType": "address[]",
					"name": "",
					"type": "address[]"
				}
			],
			"stateMutability": "view",
			"type": "function"
		},
		{
			"inputs": [
				{
					"internalType": "address",
					"name": "user",
					"type": "address"
				},
				{
					"internalType": "address",
					"name": "token",
					"type": "address"
				}
			],
			"name": "getReferralRewards",
			"outputs": [
				{
					"internalType": "uint256",
					"name": "",
					"type": "uint256"
				}
			],
			"stateMutability": "view",
			"type": "function"
		},
		{
			"inputs": [
				{
					"internalType": "uint256",
					"name": "_batchId",
					"type": "uint256"
				},
				{
					"internalType": "bytes",
					"name": "_key",
					"type": "bytes"
				}
			],
			"name": "getRevealURI",
			"outputs": [
				{
					"internalType": "string",
					"name": "revealedURI",
					"type": "string"
				}
			],
			"stateMutability": "view",
			"type": "function"
		},
		{
			"inputs": [
				{
					"internalType": "uint256",
					"name": "_tokenId",
					"type": "uint256"
				}
			],
			"name": "getRoyaltyInfoForToken",
			"outputs": [
				{
					"internalType": "address",
					"name": "",
					"type": "address"
				},
				{
					"internalType": "uint16",
					"name": "",
					"type": "uint16"
				}
			],
			"stateMutability": "view",
			"type": "function"
		},
		{
			"inputs": [
				{
					"internalType": "address",
					"name": "_claimer",
					"type": "address"
				}
			],
			"name": "getSupplyClaimedByWallet",
			"outputs": [
				{
					"internalType": "uint256",
					"name": "",
					"type": "uint256"
				}
			],
			"stateMutability": "view",
			"type": "function"
		},
		{
			"inputs": [
				{
					"internalType": "uint256",
					"name": "tier",
					"type": "uint256"
				}
			],
			"name": "getTierMintCount",
			"outputs": [
				{
					"internalType": "uint256",
					"name": "",
					"type": "uint256"
				}
			],
			"stateMutability": "view",
			"type": "function"
		},
		{
			"inputs": [],
			"name": "getTokenId",
			"outputs": [
				{
					"internalType": "uint256",
					"name": "",
					"type": "uint256"
				}
			],
			"stateMutability": "view",
			"type": "function"
		},
		{
			"inputs": [
				{
					"internalType": "address",
					"name": "token",
					"type": "address"
				}
			],
			"name": "getTokenPrice",
			"outputs": [
				{
					"internalType": "uint256",
					"name": "pricePerNodeInToken",
					"type": "uint256"
				}
			],
			"stateMutability": "view",
			"type": "function"
		},
		{
			"inputs": [
				{
					"internalType": "uint256[]",
					"name": "sizes",
					"type": "uint256[]"
				},
				{
					"internalType": "uint256[]",
					"name": "prices",
					"type": "uint256[]"
				}
			],
			"name": "initializeTiers",
			"outputs": [],
			"stateMutability": "nonpayable",
			"type": "function"
		},
		{
			"inputs": [
				{
					"internalType": "address",
					"name": "owner",
					"type": "address"
				},
				{
					"internalType": "address",
					"name": "operator",
					"type": "address"
				}
			],
			"name": "isApprovedForAll",
			"outputs": [
				{
					"internalType": "bool",
					"name": "",
					"type": "bool"
				}
			],
			"stateMutability": "view",
			"type": "function"
		},
		{
			"inputs": [
				{
					"internalType": "uint256",
					"name": "_batchId",
					"type": "uint256"
				}
			],
			"name": "isEncryptedBatch",
			"outputs": [
				{
					"internalType": "bool",
					"name": "",
					"type": "bool"
				}
			],
			"stateMutability": "view",
			"type": "function"
		},
		{
			"inputs": [
				{
					"internalType": "address",
					"name": "",
					"type": "address"
				}
			],
			"name": "lastPurchaseBlock",
			"outputs": [
				{
					"internalType": "uint256",
					"name": "",
					"type": "uint256"
				}
			],
			"stateMutability": "view",
			"type": "function"
		},
		{
			"inputs": [
				{
					"internalType": "uint256",
					"name": "_amount",
					"type": "uint256"
				},
				{
					"internalType": "string",
					"name": "_baseURIForTokens",
					"type": "string"
				},
				{
					"internalType": "bytes",
					"name": "_data",
					"type": "bytes"
				}
			],
			"name": "lazyMint",
			"outputs": [
				{
					"internalType": "uint256",
					"name": "batchId",
					"type": "uint256"
				}
			],
			"stateMutability": "nonpayable",
			"type": "function"
		},
		{
			"inputs": [],
			"name": "maxPerWallet",
			"outputs": [
				{
					"internalType": "uint256",
					"name": "",
					"type": "uint256"
				}
			],
			"stateMutability": "view",
			"type": "function"
		},
		{
			"inputs": [
				{
					"internalType": "bytes[]",
					"name": "data",
					"type": "bytes[]"
				}
			],
			"name": "multicall",
			"outputs": [
				{
					"internalType": "bytes[]",
					"name": "results",
					"type": "bytes[]"
				}
			],
			"stateMutability": "nonpayable",
			"type": "function"
		},
		{
			"inputs": [],
			"name": "name",
			"outputs": [
				{
					"internalType": "string",
					"name": "",
					"type": "string"
				}
			],
			"stateMutability": "view",
			"type": "function"
		},
		{
			"inputs": [],
			"name": "nextTokenIdToClaim",
			"outputs": [
				{
					"internalType": "uint256",
					"name": "",
					"type": "uint256"
				}
			],
			"stateMutability": "view",
			"type": "function"
		},
		{
			"inputs": [],
			"name": "nextTokenIdToMint",
			"outputs": [
				{
					"internalType": "uint256",
					"name": "",
					"type": "uint256"
				}
			],
			"stateMutability": "view",
			"type": "function"
		},
		{
			"inputs": [],
			"name": "owner",
			"outputs": [
				{
					"internalType": "address",
					"name": "",
					"type": "address"
				}
			],
			"stateMutability": "view",
			"type": "function"
		},
		{
			"inputs": [
				{
					"internalType": "uint256",
					"name": "tokenId",
					"type": "uint256"
				}
			],
			"name": "ownerOf",
			"outputs": [
				{
					"internalType": "address",
					"name": "",
					"type": "address"
				}
			],
			"stateMutability": "view",
			"type": "function"
		},
		{
			"inputs": [],
			"name": "primarySaleRecipient",
			"outputs": [
				{
					"internalType": "address",
					"name": "",
					"type": "address"
				}
			],
			"stateMutability": "view",
			"type": "function"
		},
		{
			"inputs": [
				{
					"internalType": "string",
					"name": "",
					"type": "string"
				}
			],
			"name": "referralCodeToAddress",
			"outputs": [
				{
					"internalType": "address",
					"name": "",
					"type": "address"
				}
			],
			"stateMutability": "view",
			"type": "function"
		},
		{
			"inputs": [
				{
					"internalType": "address",
					"name": "",
					"type": "address"
				},
				{
					"internalType": "address",
					"name": "",
					"type": "address"
				}
			],
			"name": "referralRewards",
			"outputs": [
				{
					"internalType": "uint256",
					"name": "",
					"type": "uint256"
				}
			],
			"stateMutability": "view",
			"type": "function"
		},
		{
			"inputs": [],
			"name": "registerReferralCode",
			"outputs": [],
			"stateMutability": "nonpayable",
			"type": "function"
		},
		{
			"inputs": [
				{
					"internalType": "uint256",
					"name": "_index",
					"type": "uint256"
				},
				{
					"internalType": "bytes",
					"name": "_key",
					"type": "bytes"
				}
			],
			"name": "reveal",
			"outputs": [
				{
					"internalType": "string",
					"name": "revealedURI",
					"type": "string"
				}
			],
			"stateMutability": "nonpayable",
			"type": "function"
		},
		{
			"inputs": [
				{
					"internalType": "uint256",
					"name": "tokenId",
					"type": "uint256"
				},
				{
					"internalType": "uint256",
					"name": "salePrice",
					"type": "uint256"
				}
			],
			"name": "royaltyInfo",
			"outputs": [
				{
					"internalType": "address",
					"name": "receiver",
					"type": "address"
				},
				{
					"internalType": "uint256",
					"name": "royaltyAmount",
					"type": "uint256"
				}
			],
			"stateMutability": "view",
			"type": "function"
		},
		{
			"inputs": [
				{
					"internalType": "address",
					"name": "from",
					"type": "address"
				},
				{
					"internalType": "address",
					"name": "to",
					"type": "address"
				},
				{
					"internalType": "uint256",
					"name": "tokenId",
					"type": "uint256"
				}
			],
			"name": "safeTransferFrom",
			"outputs": [],
			"stateMutability": "nonpayable",
			"type": "function"
		},
		{
			"inputs": [
				{
					"internalType": "address",
					"name": "from",
					"type": "address"
				},
				{
					"internalType": "address",
					"name": "to",
					"type": "address"
				},
				{
					"internalType": "uint256",
					"name": "tokenId",
					"type": "uint256"
				},
				{
					"internalType": "bytes",
					"name": "_data",
					"type": "bytes"
				}
			],
			"name": "safeTransferFrom",
			"outputs": [],
			"stateMutability": "nonpayable",
			"type": "function"
		},
		{
			"inputs": [
				{
					"internalType": "address",
					"name": "operator",
					"type": "address"
				},
				{
					"internalType": "bool",
					"name": "approved",
					"type": "bool"
				}
			],
			"name": "setApprovalForAll",
			"outputs": [],
			"stateMutability": "nonpayable",
			"type": "function"
		},
		{
			"inputs": [
				{
					"internalType": "string",
					"name": "_newBaseURI",
					"type": "string"
				}
			],
			"name": "setBaseURI",
			"outputs": [],
			"stateMutability": "nonpayable",
			"type": "function"
		},
		{
			"inputs": [
				{
					"components": [
						{
							"internalType": "uint256",
							"name": "startTimestamp",
							"type": "uint256"
						},
						{
							"internalType": "uint256",
							"name": "maxClaimableSupply",
							"type": "uint256"
						},
						{
							"internalType": "uint256",
							"name": "supplyClaimed",
							"type": "uint256"
						},
						{
							"internalType": "uint256",
							"name": "quantityLimitPerWallet",
							"type": "uint256"
						},
						{
							"internalType": "bytes32",
							"name": "merkleRoot",
							"type": "bytes32"
						},
						{
							"internalType": "uint256",
							"name": "pricePerToken",
							"type": "uint256"
						},
						{
							"internalType": "address",
							"name": "currency",
							"type": "address"
						},
						{
							"internalType": "string",
							"name": "metadata",
							"type": "string"
						}
					],
					"internalType": "struct IClaimCondition.ClaimCondition",
					"name": "_condition",
					"type": "tuple"
				},
				{
					"internalType": "bool",
					"name": "_resetClaimEligibility",
					"type": "bool"
				}
			],
			"name": "setClaimConditions",
			"outputs": [],
			"stateMutability": "nonpayable",
			"type": "function"
		},
		{
			"inputs": [
				{
					"internalType": "string",
					"name": "_uri",
					"type": "string"
				}
			],
			"name": "setContractURI",
			"outputs": [],
			"stateMutability": "nonpayable",
			"type": "function"
		},
		{
			"inputs": [
				{
					"internalType": "address",
					"name": "_royaltyRecipient",
					"type": "address"
				},
				{
					"internalType": "uint256",
					"name": "_royaltyBps",
					"type": "uint256"
				}
			],
			"name": "setDefaultRoyaltyInfo",
			"outputs": [],
			"stateMutability": "nonpayable",
			"type": "function"
		},
		{
			"inputs": [
				{
					"internalType": "uint256",
					"name": "_newMax",
					"type": "uint256"
				}
			],
			"name": "setMaxPerWallet",
			"outputs": [],
			"stateMutability": "nonpayable",
			"type": "function"
		},
		{
			"inputs": [
				{
					"internalType": "uint256",
					"name": "newMaxTiers",
					"type": "uint256"
				},
				{
					"internalType": "uint256[]",
					"name": "newTierPrices",
					"type": "uint256[]"
				},
				{
					"internalType": "uint256[]",
					"name": "newTierSizes",
					"type": "uint256[]"
				}
			],
			"name": "setMaxTiers",
			"outputs": [],
			"stateMutability": "nonpayable",
			"type": "function"
		},
		{
			"inputs": [
				{
					"internalType": "address",
					"name": "_newOwner",
					"type": "address"
				}
			],
			"name": "setOwner",
			"outputs": [],
			"stateMutability": "nonpayable",
			"type": "function"
		},
		{
			"inputs": [
				{
					"internalType": "address",
					"name": "_saleRecipient",
					"type": "address"
				}
			],
			"name": "setPrimarySaleRecipient",
			"outputs": [],
			"stateMutability": "nonpayable",
			"type": "function"
		},
		{
			"inputs": [
				{
					"internalType": "uint256",
					"name": "_tokenId",
					"type": "uint256"
				},
				{
					"internalType": "address",
					"name": "_recipient",
					"type": "address"
				},
				{
					"internalType": "uint256",
					"name": "_bps",
					"type": "uint256"
				}
			],
			"name": "setRoyaltyInfoForToken",
			"outputs": [],
			"stateMutability": "nonpayable",
			"type": "function"
		},
		{
			"inputs": [
				{
					"internalType": "uint256",
					"name": "newTotalSupply",
					"type": "uint256"
				}
			],
			"name": "setTotalSupply",
			"outputs": [],
			"stateMutability": "nonpayable",
			"type": "function"
		},
		{
			"inputs": [
				{
					"internalType": "bytes4",
					"name": "interfaceId",
					"type": "bytes4"
				}
			],
			"name": "supportsInterface",
			"outputs": [
				{
					"internalType": "bool",
					"name": "",
					"type": "bool"
				}
			],
			"stateMutability": "view",
			"type": "function"
		},
		{
			"inputs": [],
			"name": "symbol",
			"outputs": [
				{
					"internalType": "string",
					"name": "",
					"type": "string"
				}
			],
			"stateMutability": "view",
			"type": "function"
		},
		{
			"inputs": [
				{
					"internalType": "uint256",
					"name": "",
					"type": "uint256"
				}
			],
			"name": "tierMintCount",
			"outputs": [
				{
					"internalType": "uint256",
					"name": "",
					"type": "uint256"
				}
			],
			"stateMutability": "view",
			"type": "function"
		},
		{
			"inputs": [],
			"name": "tierMinted",
			"outputs": [
				{
					"internalType": "uint256",
					"name": "",
					"type": "uint256"
				}
			],
			"stateMutability": "view",
			"type": "function"
		},
		{
			"inputs": [
				{
					"internalType": "uint256",
					"name": "",
					"type": "uint256"
				}
			],
			"name": "tierPrices",
			"outputs": [
				{
					"internalType": "uint256",
					"name": "",
					"type": "uint256"
				}
			],
			"stateMutability": "view",
			"type": "function"
		},
		{
			"inputs": [
				{
					"internalType": "uint256",
					"name": "",
					"type": "uint256"
				}
			],
			"name": "tierSizes",
			"outputs": [
				{
					"internalType": "uint256",
					"name": "",
					"type": "uint256"
				}
			],
			"stateMutability": "view",
			"type": "function"
		},
		{
			"inputs": [
				{
					"internalType": "uint256",
					"name": "tokenId",
					"type": "uint256"
				}
			],
			"name": "tokenURI",
			"outputs": [
				{
					"internalType": "string",
					"name": "",
					"type": "string"
				}
			],
			"stateMutability": "view",
			"type": "function"
		},
		{
			"inputs": [],
			"name": "totalMinted",
			"outputs": [
				{
					"internalType": "uint256",
					"name": "",
					"type": "uint256"
				}
			],
			"stateMutability": "view",
			"type": "function"
		},
		{
			"inputs": [],
			"name": "totalSupply",
			"outputs": [
				{
					"internalType": "uint256",
					"name": "",
					"type": "uint256"
				}
			],
			"stateMutability": "view",
			"type": "function"
		},
		{
			"inputs": [
				{
					"internalType": "address",
					"name": "from",
					"type": "address"
				},
				{
					"internalType": "address",
					"name": "to",
					"type": "address"
				},
				{
					"internalType": "uint256",
					"name": "tokenId",
					"type": "uint256"
				}
			],
			"name": "transferFrom",
			"outputs": [],
			"stateMutability": "nonpayable",
			"type": "function"
		},
		{
			"inputs": [
				{
					"internalType": "address",
					"name": "",
					"type": "address"
				}
			],
			"name": "userReferralCodes",
			"outputs": [
				{
					"internalType": "string",
					"name": "",
					"type": "string"
				}
			],
			"stateMutability": "view",
			"type": "function"
		},
		{
			"inputs": [
				{
					"internalType": "address",
					"name": "_claimer",
					"type": "address"
				},
				{
					"internalType": "uint256",
					"name": "_quantity",
					"type": "uint256"
				},
				{
					"internalType": "address",
					"name": "_currency",
					"type": "address"
				},
				{
					"internalType": "uint256",
					"name": "_pricePerToken",
					"type": "uint256"
				},
				{
					"components": [
						{
							"internalType": "bytes32[]",
							"name": "proof",
							"type": "bytes32[]"
						},
						{
							"internalType": "uint256",
							"name": "quantityLimitPerWallet",
							"type": "uint256"
						},
						{
							"internalType": "uint256",
							"name": "pricePerToken",
							"type": "uint256"
						},
						{
							"internalType": "address",
							"name": "currency",
							"type": "address"
						}
					],
					"internalType": "struct IDropSinglePhase.AllowlistProof",
					"name": "_allowlistProof",
					"type": "tuple"
				}
			],
			"name": "verifyClaim",
			"outputs": [
				{
					"internalType": "bool",
					"name": "isOverride",
					"type": "bool"
				}
			],
			"stateMutability": "view",
			"type": "function"
		},
		{
			"inputs": [
				{
					"internalType": "address",
					"name": "",
					"type": "address"
				}
			],
			"name": "walletMints",
			"outputs": [
				{
					"internalType": "uint256",
					"name": "",
					"type": "uint256"
				}
			],
			"stateMutability": "view",
			"type": "function"
		},
		{
			"inputs": [],
			"name": "withdraw",
			"outputs": [],
			"stateMutability": "nonpayable",
			"type": "function"
		},
		{
			"inputs": [
				{
					"internalType": "address",
					"name": "token",
					"type": "address"
				}
			],
			"name": "withdrawToken",
			"outputs": [],
			"stateMutability": "nonpayable",
			"type": "function"
		}
	]
}