{
	"data": {
		"bytecode": {
			"linkReferences": {},
			"object": "608060405234801561000f575f5ffd5b5060405161430738038061430783398181016040528101906100319190610399565b828585815f9081610042919061064f565b508060019081610052919061064f565b5050505f73ffffffffffffffffffffffffffffffffffffffff168173ffffffffffffffffffffffffffffffffffffffff16036100c5575f6040517f1e4fbdf70000000000000000000000000000000000000000000000000000000081526004016100bc919061072d565b60405180910390fd5b6100d4816100fc60201b60201c565b5081600781905550806008819055506100f2836100fc60201b60201c565b5050505050610746565b5f60065f9054906101000a900473ffffffffffffffffffffffffffffffffffffffff1690508160065f6101000a81548173ffffffffffffffffffffffffffffffffffffffff021916908373ffffffffffffffffffffffffffffffffffffffff1602179055508173ffffffffffffffffffffffffffffffffffffffff168173ffffffffffffffffffffffffffffffffffffffff167f8be0079c531659141344cd1fd0a4f28419497f9722a3daafe3b4186f6b6457e060405160405180910390a35050565b5f604051905090565b5f5ffd5b5f5ffd5b5f5ffd5b5f5ffd5b5f601f19601f8301169050919050565b7f4e487b71000000000000000000000000000000000000000000000000000000005f52604160045260245ffd5b61021e826101d8565b810181811067ffffffffffffffff8211171561023d5761023c6101e8565b5b80604052505050565b5f61024f6101bf565b905061025b8282610215565b919050565b5f67ffffffffffffffff82111561027a576102796101e8565b5b610283826101d8565b9050602081019050919050565b8281835e5f83830152505050565b5f6102b06102ab84610260565b610246565b9050828152602081018484840111156102cc576102cb6101d4565b5b6102d7848285610290565b509392505050565b5f82601f8301126102f3576102f26101d0565b5b815161030384826020860161029e565b91505092915050565b5f73ffffffffffffffffffffffffffffffffffffffff82169050919050565b5f6103358261030c565b9050919050565b6103458161032b565b811461034f575f5ffd5b50565b5f815190506103608161033c565b92915050565b5f819050919050565b61037881610366565b8114610382575f5ffd5b50565b5f815190506103938161036f565b92915050565b5f5f5f5f5f60a086880312156103b2576103b16101c8565b5b5f86015167ffffffffffffffff8111156103cf576103ce6101cc565b5b6103db888289016102df565b955050602086015167ffffffffffffffff8111156103fc576103fb6101cc565b5b610408888289016102df565b945050604061041988828901610352565b935050606061042a88828901610385565b925050608061043b88828901610385565b9150509295509295909350565b5f81519050919050565b7f4e487b71000000000000000000000000000000000000000000000000000000005f52602260045260245ffd5b5f600282049050600182168061049657607f821691505b6020821081036104a9576104a8610452565b5b50919050565b5f819050815f5260205f209050919050565b5f6020601f8301049050919050565b5f82821b905092915050565b5f6008830261050b7fffffffffffffffffffffffffffffffffffffffffffffffffffffffffffffffff826104d0565b61051586836104d0565b95508019841693508086168417925050509392505050565b5f819050919050565b5f61055061054b61054684610366565b61052d565b610366565b9050919050565b5f819050919050565b61056983610536565b61057d61057582610557565b8484546104dc565b825550505050565b5f5f905090565b610594610585565b61059f818484610560565b505050565b5b818110156105c2576105b75f8261058c565b6001810190506105a5565b5050565b601f821115610607576105d8816104af565b6105e1846104c1565b810160208510156105f0578190505b6106046105fc856104c1565b8301826105a4565b50505b505050565b5f82821c905092915050565b5f6106275f198460080261060c565b1980831691505092915050565b5f61063f8383610618565b9150826002028217905092915050565b61065882610448565b67ffffffffffffffff811115610671576106706101e8565b5b61067b825461047f565b6106868282856105c6565b5f60209050601f8311600181146106b7575f84156106a5578287015190505b6106af8582610634565b865550610716565b601f1984166106c5866104af565b5f5b828110156106ec578489015182556001820191506020850194506020810190506106c7565b868310156107095784890151610705601f891682610618565b8355505b6001600288020188555050505b505050505050565b6107278161032b565b82525050565b5f6020820190506107405f83018461071e565b92915050565b613bb4806107535f395ff3fe608060405260043610610165575f3560e01c806370a08231116100d0578063a22cb46511610089578063cdf4002e11610063578063cdf4002e146104f1578063e985e9c51461051b578063f2fde38b14610557578063f82ca1c81461057f57610165565b8063a22cb46514610465578063b88d4fde1461048d578063c87b56dd146104b557610165565b806370a082311461036d578063715018a6146103a957806377097fc8146103bf5780637ff9b596146103e75780638da5cb5b1461041157806395d89b411461043b57610165565b806342842e0e1161012257806342842e0e1461027157806342966c681461029957806357360e55146102c157806360316801146102eb5780636352211e14610327578063672756ad1461036357610165565b806301ffc9a71461016957806306fdde03146101a5578063081812fc146101cf578063095ea7b31461020b57806323b872dd1461023357806324600fc31461025b575b5f5ffd5b348015610174575f5ffd5b5061018f600480360381019061018a919061262f565b6105a9565b60405161019c9190612674565b60405180910390f35b3480156101b0575f5ffd5b506101b961068a565b6040516101c691906126fd565b60405180910390f35b3480156101da575f5ffd5b506101f560048036038101906101f09190612750565b610719565b60405161020291906127ba565b60405180910390f35b348015610216575f5ffd5b50610231600480360381019061022c91906127fd565b61075b565b005b34801561023e575f5ffd5b506102596004803603810190610254919061283b565b610871565b005b348015610266575f5ffd5b5061026f610923565b005b34801561027c575f5ffd5b506102976004803603810190610292919061283b565b610978565b005b3480156102a4575f5ffd5b506102bf60048036038101906102ba9190612750565b610997565b005b3480156102cc575f5ffd5b506102d5610a86565b6040516102e2919061289a565b60405180910390f35b3480156102f6575f5ffd5b50610311600480360381019061030c9190612750565b610a8c565b60405161031e9190612944565b60405180910390f35b348015610332575f5ffd5b5061034d60048036038101906103489190612750565b610b98565b60405161035a91906127ba565b60405180910390f35b61036b610c1c565b005b348015610378575f5ffd5b50610393600480360381019061038e9190612964565b610da5565b6040516103a0919061289a565b60405180910390f35b3480156103b4575f5ffd5b506103bd610e59565b005b3480156103ca575f5ffd5b506103e560048036038101906103e09190612abb565b610e6c565b005b3480156103f2575f5ffd5b506103fb610fae565b604051610408919061289a565b60405180910390f35b34801561041c575f5ffd5b50610425610fb4565b60405161043291906127ba565b60405180910390f35b348015610446575f5ffd5b5061044f610fdc565b60405161045c91906126fd565b60405180910390f35b348015610470575f5ffd5b5061048b60048036038101906104869190612b3f565b61106c565b005b348015610498575f5ffd5b506104b360048036038101906104ae9190612c1b565b611082565b005b3480156104c0575f5ffd5b506104db60048036038101906104d69190612750565b6110e4565b6040516104e891906126fd565b60405180910390f35b3480156104fc575f5ffd5b50610505611149565b604051610512919061289a565b60405180910390f35b348015610526575f5ffd5b50610541600480360381019061053c9190612c9b565b61114f565b60405161054e9190612674565b60405180910390f35b348015610562575f5ffd5b5061057d60048036038101906105789190612964565b6111dd565b005b34801561058a575f5ffd5b50610593611261565b6040516105a09190612d81565b60405180910390f35b5f7f80ac58cd000000000000000000000000000000000000000000000000000000007bffffffffffffffffffffffffffffffffffffffffffffffffffffffff1916827bffffffffffffffffffffffffffffffffffffffffffffffffffffffff1916148061067357507f5b5e139f000000000000000000000000000000000000000000000000000000007bffffffffffffffffffffffffffffffffffffffffffffffffffffffff1916827bffffffffffffffffffffffffffffffffffffffffffffffffffffffff1916145b806106835750610682826113a0565b5b9050919050565b60605f805461069890612dce565b80601f01602080910402602001604051908101604052809291908181526020018280546106c490612dce565b801561070f5780601f106106e65761010080835404028352916020019161070f565b820191905f5260205f20905b8154815290600101906020018083116106f257829003601f168201915b5050505050905090565b5f61072382611409565b60045f8381526020019081526020015f205f9054906101000a900473ffffffffffffffffffffffffffffffffffffffff169050919050565b5f61076582610b98565b90508073ffffffffffffffffffffffffffffffffffffffff168373ffffffffffffffffffffffffffffffffffffffff16036107d5576040517f08c379a00000000000000000000000000000000000000000000000000000000081526004016107cc90612e6e565b60405180910390fd5b8073ffffffffffffffffffffffffffffffffffffffff166107f4611454565b73ffffffffffffffffffffffffffffffffffffffff16148061082357506108228161081d611454565b61114f565b5b610862576040517f08c379a000000000000000000000000000000000000000000000000000000000815260040161085990612efc565b60405180910390fd5b61086c838361145b565b505050565b3073ffffffffffffffffffffffffffffffffffffffff168373ffffffffffffffffffffffffffffffffffffffff1614610913575f73ffffffffffffffffffffffffffffffffffffffff168373ffffffffffffffffffffffffffffffffffffffff1614610912576040517f08c379a000000000000000000000000000000000000000000000000000000000815260040161090990612f8a565b60405180910390fd5b5b61091e838383611511565b505050565b61092b611571565b610933610fb4565b73ffffffffffffffffffffffffffffffffffffffff166108fc4790811502906040515f60405180830381858888f19350505050158015610975573d5f5f3e3d5ffd5b50565b61099283838360405180602001604052805f815250611082565b505050565b3373ffffffffffffffffffffffffffffffffffffffff166109b782610b98565b73ffffffffffffffffffffffffffffffffffffffff1614610a0d576040517f08c379a0000000000000000000000000000000000000000000000000000000008152600401610a0490612ff2565b60405180910390fd5b610a16816115f8565b600b5f8281526020019081526020015f205f5f82015f9055600182015f610a3d9190612558565b5050803373ffffffffffffffffffffffffffffffffffffffff167fcc16f5dbb4873280815c1ee09dbd06736cffcc184412cf7a71a0fdb75d397ca560405160405180910390a350565b60085481565b610a94612595565b610a9d82611739565b610adc576040517f08c379a0000000000000000000000000000000000000000000000000000000008152600401610ad39061305a565b60405180910390fd5b600b5f8381526020019081526020015f206040518060400160405290815f8201548152602001600182018054610b1190612dce565b80601f0160208091040260200160405190810160405280929190818152602001828054610b3d90612dce565b8015610b885780601f10610b5f57610100808354040283529160200191610b88565b820191905f5260205f20905b815481529060010190602001808311610b6b57829003601f168201915b5050505050815250509050919050565b5f5f610ba383611779565b90505f73ffffffffffffffffffffffffffffffffffffffff168173ffffffffffffffffffffffffffffffffffffffff1603610c13576040517f08c379a0000000000000000000000000000000000000000000000000000000008152600401610c0a906130c2565b60405180910390fd5b80915050919050565b600754341015610c61576040517f08c379a0000000000000000000000000000000000000000000000000000000008152600401610c589061312a565b60405180910390fd5b5f610c6a6117b2565b90507fffffffffffffffffffffffffffffffffffffffffffffffffffffffffffffffff8103610cce576040517f08c379a0000000000000000000000000000000000000000000000000000000008152600401610cc590613192565b60405180910390fd5b6001600c5f8381526020019081526020015f205f6101000a81548160ff021916908315150217905550610d02303383611835565b600754341115610d5e573373ffffffffffffffffffffffffffffffffffffffff166108fc60075434610d3491906131dd565b90811502906040515f60405180830381858888f19350505050158015610d5c573d5f5f3e3d5ffd5b505b803373ffffffffffffffffffffffffffffffffffffffff167f47cee97cb7acd717b3c0aa1435d004cd5b3c8c57d70dbceb4e4458bbd60e39d460405160405180910390a350565b5f5f73ffffffffffffffffffffffffffffffffffffffff168273ffffffffffffffffffffffffffffffffffffffff1603610e14576040517f08c379a0000000000000000000000000000000000000000000000000000000008152600401610e0b90613280565b60405180910390fd5b60035f8373ffffffffffffffffffffffffffffffffffffffff1673ffffffffffffffffffffffffffffffffffffffff1681526020019081526020015f20549050919050565b610e61611571565b610e6a5f6118e7565b565b610e74611571565b5f82118015610e92575060085482600954610e8f919061329e565b11155b610ed1576040517f08c379a0000000000000000000000000000000000000000000000000000000008152600401610ec890613341565b60405180910390fd5b5f5f90505b82811015610fa9575f600a5f815480929190610ef19061335f565b91905055905060405180604001604052806001815260200184815250600b5f8381526020019081526020015f205f820151815f01556020820151816001019081610f3b9190613546565b50905050610f4930826119aa565b60095f815480929190610f5b9061335f565b9190505550807fa198e4d3a50ce07d020c16f3758076bc00bcdcc3fc1a43f55e7b8c28609d791f600185604051610f9392919061364e565b60405180910390a2508080600101915050610ed6565b505050565b60075481565b5f60065f9054906101000a900473ffffffffffffffffffffffffffffffffffffffff16905090565b606060018054610feb90612dce565b80601f016020809104026020016040519081016040528092919081815260200182805461101790612dce565b80156110625780601f1061103957610100808354040283529160200191611062565b820191905f5260205f20905b81548152906001019060200180831161104557829003601f168201915b5050505050905090565b61107e611077611454565b83836119c7565b5050565b61109361108d611454565b83611b2e565b6110d2576040517f08c379a00000000000000000000000000000000000000000000000000000000081526004016110c9906136ec565b60405180910390fd5b6110de84848484611bc2565b50505050565b60606110ef82611409565b5f6110f8611c1e565b90505f8151116111165760405180602001604052805f815250611141565b8061112084611c34565b604051602001611131929190613744565b6040516020818303038152906040525b915050919050565b60095481565b5f60055f8473ffffffffffffffffffffffffffffffffffffffff1673ffffffffffffffffffffffffffffffffffffffff1681526020019081526020015f205f8373ffffffffffffffffffffffffffffffffffffffff1673ffffffffffffffffffffffffffffffffffffffff1681526020019081526020015f205f9054906101000a900460ff16905092915050565b6111e5611571565b5f73ffffffffffffffffffffffffffffffffffffffff168173ffffffffffffffffffffffffffffffffffffffff1603611255575f6040517f1e4fbdf700000000000000000000000000000000000000000000000000000000815260040161124c91906127ba565b60405180910390fd5b61125e816118e7565b50565b60605f5f90505f5f90505b600a548110156112c75761127f81611739565b80156112a65750600c5f8281526020019081526020015f205f9054906101000a900460ff16155b156112ba5781806112b69061335f565b9250505b808060010191505061126c565b505f8167ffffffffffffffff8111156112e3576112e2612997565b5b6040519080825280602002602001820160405280156113115781602001602082028036833780820191505090505b5090505f5f90505f5f90505b600a548110156113965761133081611739565b80156113575750600c5f8281526020019081526020015f205f9054906101000a900460ff16155b1561138957808383806113699061335f565b94508151811061137c5761137b613767565b5b6020026020010181815250505b808060010191505061131d565b5081935050505090565b5f7f01ffc9a7000000000000000000000000000000000000000000000000000000007bffffffffffffffffffffffffffffffffffffffffffffffffffffffff1916827bffffffffffffffffffffffffffffffffffffffffffffffffffffffff1916149050919050565b61141281611739565b611451576040517f08c379a0000000000000000000000000000000000000000000000000000000008152600401611448906130c2565b60405180910390fd5b50565b5f33905090565b8160045f8381526020019081526020015f205f6101000a81548173ffffffffffffffffffffffffffffffffffffffff021916908373ffffffffffffffffffffffffffffffffffffffff160217905550808273ffffffffffffffffffffffffffffffffffffffff166114cb83610b98565b73ffffffffffffffffffffffffffffffffffffffff167f8c5be1e5ebec7d5bd14f71427d1e84f3dd0314c0f7b2291e5b200ac8c7c3b92560405160405180910390a45050565b61152261151c611454565b82611b2e565b611561576040517f08c379a0000000000000000000000000000000000000000000000000000000008152600401611558906136ec565b60405180910390fd5b61156c838383611835565b505050565b611579611454565b73ffffffffffffffffffffffffffffffffffffffff16611597610fb4565b73ffffffffffffffffffffffffffffffffffffffff16146115f6576115ba611454565b6040517f118cdaa70000000000000000000000000000000000000000000000000000000081526004016115ed91906127ba565b60405180910390fd5b565b5f61160282610b98565b9050611611815f846001611cfe565b61161a82610b98565b905060045f8381526020019081526020015f205f6101000a81549073ffffffffffffffffffffffffffffffffffffffff0219169055600160035f8373ffffffffffffffffffffffffffffffffffffffff1673ffffffffffffffffffffffffffffffffffffffff1681526020019081526020015f205f828254039250508190555060025f8381526020019081526020015f205f6101000a81549073ffffffffffffffffffffffffffffffffffffffff0219169055815f73ffffffffffffffffffffffffffffffffffffffff168273ffffffffffffffffffffffffffffffffffffffff167fddf252ad1be2c89b69c2b068fc378daa952ba7f163c4a11628f55a4df523b3ef60405160405180910390a4611735815f846001611d04565b5050565b5f5f73ffffffffffffffffffffffffffffffffffffffff1661175a83611779565b73ffffffffffffffffffffffffffffffffffffffff1614159050919050565b5f60025f8381526020019081526020015f205f9054906101000a900473ffffffffffffffffffffffffffffffffffffffff169050919050565b5f5f5f90505b600a5481101561180d576117cb81611739565b80156117f25750600c5f8281526020019081526020015f205f9054906101000a900460ff16155b156118005780915050611832565b80806001019150506117b8565b507fffffffffffffffffffffffffffffffffffffffffffffffffffffffffffffffff90505b90565b3073ffffffffffffffffffffffffffffffffffffffff168373ffffffffffffffffffffffffffffffffffffffff16146118d7575f73ffffffffffffffffffffffffffffffffffffffff168373ffffffffffffffffffffffffffffffffffffffff16146118d6576040517f08c379a00000000000000000000000000000000000000000000000000000000081526004016118cd90612f8a565b60405180910390fd5b5b6118e2838383611d0a565b505050565b5f60065f9054906101000a900473ffffffffffffffffffffffffffffffffffffffff1690508160065f6101000a81548173ffffffffffffffffffffffffffffffffffffffff021916908373ffffffffffffffffffffffffffffffffffffffff1602179055508173ffffffffffffffffffffffffffffffffffffffff168173ffffffffffffffffffffffffffffffffffffffff167f8be0079c531659141344cd1fd0a4f28419497f9722a3daafe3b4186f6b6457e060405160405180910390a35050565b6119c3828260405180602001604052805f815250611ff6565b5050565b8173ffffffffffffffffffffffffffffffffffffffff168373ffffffffffffffffffffffffffffffffffffffff1603611a35576040517f08c379a0000000000000000000000000000000000000000000000000000000008152600401611a2c906137de565b60405180910390fd5b8060055f8573ffffffffffffffffffffffffffffffffffffffff1673ffffffffffffffffffffffffffffffffffffffff1681526020019081526020015f205f8473ffffffffffffffffffffffffffffffffffffffff1673ffffffffffffffffffffffffffffffffffffffff1681526020019081526020015f205f6101000a81548160ff0219169083151502179055508173ffffffffffffffffffffffffffffffffffffffff168373ffffffffffffffffffffffffffffffffffffffff167f17307eab39ab6107e8899845ad3d59bd9653f200f220920489ca2b5937696c3183604051611b219190612674565b60405180910390a3505050565b5f5f611b3983610b98565b90508073ffffffffffffffffffffffffffffffffffffffff168473ffffffffffffffffffffffffffffffffffffffff161480611b7b5750611b7a818561114f565b5b80611bb957508373ffffffffffffffffffffffffffffffffffffffff16611ba184610719565b73ffffffffffffffffffffffffffffffffffffffff16145b91505092915050565b611bcd848484611835565b611bd984848484612050565b611c18576040517f08c379a0000000000000000000000000000000000000000000000000000000008152600401611c0f9061386c565b60405180910390fd5b50505050565b606060405180602001604052805f815250905090565b60605f6001611c42846121d2565b0190505f8167ffffffffffffffff811115611c6057611c5f612997565b5b6040519080825280601f01601f191660200182016040528015611c925781602001600182028036833780820191505090505b5090505f82602001820190505b600115611cf3578080600190039150507f3031323334353637383961626364656600000000000000000000000000000000600a86061a8153600a8581611ce857611ce761388a565b5b0494505f8503611c9f575b819350505050919050565b50505050565b50505050565b8273ffffffffffffffffffffffffffffffffffffffff16611d2a82610b98565b73ffffffffffffffffffffffffffffffffffffffff1614611d80576040517f08c379a0000000000000000000000000000000000000000000000000000000008152600401611d7790613927565b60405180910390fd5b5f73ffffffffffffffffffffffffffffffffffffffff168273ffffffffffffffffffffffffffffffffffffffff1603611dee576040517f08c379a0000000000000000000000000000000000000000000000000000000008152600401611de5906139b5565b60405180910390fd5b611dfb8383836001611cfe565b8273ffffffffffffffffffffffffffffffffffffffff16611e1b82610b98565b73ffffffffffffffffffffffffffffffffffffffff1614611e71576040517f08c379a0000000000000000000000000000000000000000000000000000000008152600401611e6890613927565b60405180910390fd5b60045f8281526020019081526020015f205f6101000a81549073ffffffffffffffffffffffffffffffffffffffff0219169055600160035f8573ffffffffffffffffffffffffffffffffffffffff1673ffffffffffffffffffffffffffffffffffffffff1681526020019081526020015f205f8282540392505081905550600160035f8473ffffffffffffffffffffffffffffffffffffffff1673ffffffffffffffffffffffffffffffffffffffff1681526020019081526020015f205f82825401925050819055508160025f8381526020019081526020015f205f6101000a81548173ffffffffffffffffffffffffffffffffffffffff021916908373ffffffffffffffffffffffffffffffffffffffff160217905550808273ffffffffffffffffffffffffffffffffffffffff168473ffffffffffffffffffffffffffffffffffffffff167fddf252ad1be2c89b69c2b068fc378daa952ba7f163c4a11628f55a4df523b3ef60405160405180910390a4611ff18383836001611d04565b505050565b6120008383612323565b61200c5f848484612050565b61204b576040517f08c379a00000000000000000000000000000000000000000000000000000000081526004016120429061386c565b60405180910390fd5b505050565b5f6120708473ffffffffffffffffffffffffffffffffffffffff16612536565b156121c5578373ffffffffffffffffffffffffffffffffffffffff1663150b7a02612099611454565b8786866040518563ffffffff1660e01b81526004016120bb9493929190613a25565b6020604051808303815f875af19250505080156120f657506040513d601f19601f820116820180604052508101906120f39190613a83565b60015b612175573d805f8114612124576040519150601f19603f3d011682016040523d82523d5f602084013e612129565b606091505b505f81510361216d576040517f08c379a00000000000000000000000000000000000000000000000000000000081526004016121649061386c565b60405180910390fd5b805181602001fd5b63150b7a0260e01b7bffffffffffffffffffffffffffffffffffffffffffffffffffffffff1916817bffffffffffffffffffffffffffffffffffffffffffffffffffffffff1916149150506121ca565b600190505b949350505050565b5f5f5f90507a184f03e93ff9f4daa797ed6e38ed64bf6a1f010000000000000000831061222e577a184f03e93ff9f4daa797ed6e38ed64bf6a1f01000000000000000083816122245761222361388a565b5b0492506040810190505b6d04ee2d6d415b85acef8100000000831061226b576d04ee2d6d415b85acef810000000083816122615761226061388a565b5b0492506020810190505b662386f26fc10000831061229a57662386f26fc1000083816122905761228f61388a565b5b0492506010810190505b6305f5e10083106122c3576305f5e10083816122b9576122b861388a565b5b0492506008810190505b61271083106122e85761271083816122de576122dd61388a565b5b0492506004810190505b6064831061230b57606483816123015761230061388a565b5b0492506002810190505b600a831061231a576001810190505b80915050919050565b5f73ffffffffffffffffffffffffffffffffffffffff168273ffffffffffffffffffffffffffffffffffffffff1603612391576040517f08c379a000000000000000000000000000000000000000000000000000000000815260040161238890613af8565b60405180910390fd5b61239a81611739565b156123da576040517f08c379a00000000000000000000000000000000000000000000000000000000081526004016123d190613b60565b60405180910390fd5b6123e75f83836001611cfe565b6123f081611739565b15612430576040517f08c379a000000000000000000000000000000000000000000000000000000000815260040161242790613b60565b60405180910390fd5b600160035f8473ffffffffffffffffffffffffffffffffffffffff1673ffffffffffffffffffffffffffffffffffffffff1681526020019081526020015f205f82825401925050819055508160025f8381526020019081526020015f205f6101000a81548173ffffffffffffffffffffffffffffffffffffffff021916908373ffffffffffffffffffffffffffffffffffffffff160217905550808273ffffffffffffffffffffffffffffffffffffffff165f73ffffffffffffffffffffffffffffffffffffffff167fddf252ad1be2c89b69c2b068fc378daa952ba7f163c4a11628f55a4df523b3ef60405160405180910390a46125325f83836001611d04565b5050565b5f5f8273ffffffffffffffffffffffffffffffffffffffff163b119050919050565b50805461256490612dce565b5f825580601f106125755750612592565b601f0160209004905f5260205f209081019061259191906125ae565b5b50565b60405180604001604052805f8152602001606081525090565b5b808211156125c5575f815f9055506001016125af565b5090565b5f604051905090565b5f5ffd5b5f5ffd5b5f7fffffffff0000000000000000000000000000000000000000000000000000000082169050919050565b61260e816125da565b8114612618575f5ffd5b50565b5f8135905061262981612605565b92915050565b5f60208284031215612644576126436125d2565b5b5f6126518482850161261b565b91505092915050565b5f8115159050919050565b61266e8161265a565b82525050565b5f6020820190506126875f830184612665565b92915050565b5f81519050919050565b5f82825260208201905092915050565b8281835e5f83830152505050565b5f601f19601f8301169050919050565b5f6126cf8261268d565b6126d98185612697565b93506126e98185602086016126a7565b6126f2816126b5565b840191505092915050565b5f6020820190508181035f83015261271581846126c5565b905092915050565b5f819050919050565b61272f8161271d565b8114612739575f5ffd5b50565b5f8135905061274a81612726565b92915050565b5f60208284031215612765576127646125d2565b5b5f6127728482850161273c565b91505092915050565b5f73ffffffffffffffffffffffffffffffffffffffff82169050919050565b5f6127a48261277b565b9050919050565b6127b48161279a565b82525050565b5f6020820190506127cd5f8301846127ab565b92915050565b6127dc8161279a565b81146127e6575f5ffd5b50565b5f813590506127f7816127d3565b92915050565b5f5f60408385031215612813576128126125d2565b5b5f612820858286016127e9565b92505060206128318582860161273c565b9150509250929050565b5f5f5f60608486031215612852576128516125d2565b5b5f61285f868287016127e9565b9350506020612870868287016127e9565b92505060406128818682870161273c565b9150509250925092565b6128948161271d565b82525050565b5f6020820190506128ad5f83018461288b565b92915050565b6128bc8161271d565b82525050565b5f82825260208201905092915050565b5f6128dc8261268d565b6128e681856128c2565b93506128f68185602086016126a7565b6128ff816126b5565b840191505092915050565b5f604083015f83015161291f5f8601826128b3565b506020830151848203602086015261293782826128d2565b9150508091505092915050565b5f6020820190508181035f83015261295c818461290a565b905092915050565b5f60208284031215612979576129786125d2565b5b5f612986848285016127e9565b91505092915050565b5f5ffd5b5f5ffd5b7f4e487b71000000000000000000000000000000000000000000000000000000005f52604160045260245ffd5b6129cd826126b5565b810181811067ffffffffffffffff821117156129ec576129eb612997565b5b80604052505050565b5f6129fe6125c9565b9050612a0a82826129c4565b919050565b5f67ffffffffffffffff821115612a2957612a28612997565b5b612a32826126b5565b9050602081019050919050565b828183375f83830152505050565b5f612a5f612a5a84612a0f565b6129f5565b905082815260208101848484011115612a7b57612a7a612993565b5b612a86848285612a3f565b509392505050565b5f82601f830112612aa257612aa161298f565b5b8135612ab2848260208601612a4d565b91505092915050565b5f5f60408385031215612ad157612ad06125d2565b5b5f612ade8582860161273c565b925050602083013567ffffffffffffffff811115612aff57612afe6125d6565b5b612b0b85828601612a8e565b9150509250929050565b612b1e8161265a565b8114612b28575f5ffd5b50565b5f81359050612b3981612b15565b92915050565b5f5f60408385031215612b5557612b546125d2565b5b5f612b62858286016127e9565b9250506020612b7385828601612b2b565b9150509250929050565b5f67ffffffffffffffff821115612b9757612b96612997565b5b612ba0826126b5565b9050602081019050919050565b5f612bbf612bba84612b7d565b6129f5565b905082815260208101848484011115612bdb57612bda612993565b5b612be6848285612a3f565b509392505050565b5f82601f830112612c0257612c0161298f565b5b8135612c12848260208601612bad565b91505092915050565b5f5f5f5f60808587031215612c3357612c326125d2565b5b5f612c40878288016127e9565b9450506020612c51878288016127e9565b9350506040612c628782880161273c565b925050606085013567ffffffffffffffff811115612c8357612c826125d6565b5b612c8f87828801612bee565b91505092959194509250565b5f5f60408385031215612cb157612cb06125d2565b5b5f612cbe858286016127e9565b9250506020612ccf858286016127e9565b9150509250929050565b5f81519050919050565b5f82825260208201905092915050565b5f819050602082019050919050565b5f612d0d83836128b3565b60208301905092915050565b5f602082019050919050565b5f612d2f82612cd9565b612d398185612ce3565b9350612d4483612cf3565b805f5b83811015612d74578151612d5b8882612d02565b9750612d6683612d19565b925050600181019050612d47565b5085935050505092915050565b5f6020820190508181035f830152612d998184612d25565b905092915050565b7f4e487b71000000000000000000000000000000000000000000000000000000005f52602260045260245ffd5b5f6002820490506001821680612de557607f821691505b602082108103612df857612df7612da1565b5b50919050565b7f4552433732313a20617070726f76616c20746f2063757272656e74206f776e655f8201527f7200000000000000000000000000000000000000000000000000000000000000602082015250565b5f612e58602183612697565b9150612e6382612dfe565b604082019050919050565b5f6020820190508181035f830152612e8581612e4c565b9050919050565b7f4552433732313a20617070726f76652063616c6c6572206973206e6f7420746f5f8201527f6b656e206f776e6572206f7220617070726f76656420666f7220616c6c000000602082015250565b5f612ee6603d83612697565b9150612ef182612e8c565b604082019050919050565b5f6020820190508181035f830152612f1381612eda565b9050919050565b7f4e46547320617265206e6f6e2d7472616e7366657261626c65206166746572205f8201527f636c61696d696e67000000000000000000000000000000000000000000000000602082015250565b5f612f74602883612697565b9150612f7f82612f1a565b604082019050919050565b5f6020820190508181035f830152612fa181612f68565b9050919050565b7f43616c6c6572206973206e6f7420746865206f776e65720000000000000000005f82015250565b5f612fdc601783612697565b9150612fe782612fa8565b602082019050919050565b5f6020820190508181035f83015261300981612fd0565b9050919050565b7f546f6b656e20646f6573206e6f742065786973740000000000000000000000005f82015250565b5f613044601483612697565b915061304f82613010565b602082019050919050565b5f6020820190508181035f83015261307181613038565b9050919050565b7f4552433732313a20696e76616c696420746f6b656e20494400000000000000005f82015250565b5f6130ac601883612697565b91506130b782613078565b602082019050919050565b5f6020820190508181035f8301526130d9816130a0565b9050919050565b7f496e73756666696369656e74207061796d656e740000000000000000000000005f82015250565b5f613114601483612697565b915061311f826130e0565b602082019050919050565b5f6020820190508181035f83015261314181613108565b9050919050565b7f4e6f204e46547320617661696c61626c6520666f7220636c61696d696e6700005f82015250565b5f61317c601e83612697565b915061318782613148565b602082019050919050565b5f6020820190508181035f8301526131a981613170565b9050919050565b7f4e487b71000000000000000000000000000000000000000000000000000000005f52601160045260245ffd5b5f6131e78261271d565b91506131f28361271d565b925082820390508181111561320a576132096131b0565b5b92915050565b7f4552433732313a2061646472657373207a65726f206973206e6f7420612076615f8201527f6c6964206f776e65720000000000000000000000000000000000000000000000602082015250565b5f61326a602983612697565b915061327582613210565b604082019050919050565b5f6020820190508181035f8301526132978161325e565b9050919050565b5f6132a88261271d565b91506132b38361271d565b92508282019050808211156132cb576132ca6131b0565b5b92915050565b7f496e76616c6964206b696c6f7761747420616d6f756e74206f722065786365655f8201527f647320746f74616c206b696c6f77617474730000000000000000000000000000602082015250565b5f61332b603283612697565b9150613336826132d1565b604082019050919050565b5f6020820190508181035f8301526133588161331f565b9050919050565b5f6133698261271d565b91507fffffffffffffffffffffffffffffffffffffffffffffffffffffffffffffffff820361339b5761339a6131b0565b5b600182019050919050565b5f819050815f5260205f209050919050565b5f6020601f8301049050919050565b5f82821b905092915050565b5f600883026134027fffffffffffffffffffffffffffffffffffffffffffffffffffffffffffffffff826133c7565b61340c86836133c7565b95508019841693508086168417925050509392505050565b5f819050919050565b5f61344761344261343d8461271d565b613424565b61271d565b9050919050565b5f819050919050565b6134608361342d565b61347461346c8261344e565b8484546133d3565b825550505050565b5f5f905090565b61348b61347c565b613496818484613457565b505050565b5b818110156134b9576134ae5f82613483565b60018101905061349c565b5050565b601f8211156134fe576134cf816133a6565b6134d8846133b8565b810160208510156134e7578190505b6134fb6134f3856133b8565b83018261349b565b50505b505050565b5f82821c905092915050565b5f61351e5f1984600802613503565b1980831691505092915050565b5f613536838361350f565b9150826002028217905092915050565b61354f8261268d565b67ffffffffffffffff81111561356857613567612997565b5b6135728254612dce565b61357d8282856134bd565b5f60209050601f8311600181146135ae575f841561359c578287015190505b6135a6858261352b565b86555061360d565b601f1984166135bc866133a6565b5f5b828110156135e3578489015182556001820191506020850194506020810190506135be565b8683101561360057848901516135fc601f89168261350f565b8355505b6001600288020188555050505b505050505050565b5f819050919050565b5f61363861363361362e84613615565b613424565b61271d565b9050919050565b6136488161361e565b82525050565b5f6040820190506136615f83018561363f565b818103602083015261367381846126c5565b90509392505050565b7f4552433732313a2063616c6c6572206973206e6f7420746f6b656e206f776e655f8201527f72206f7220617070726f76656400000000000000000000000000000000000000602082015250565b5f6136d6602d83612697565b91506136e18261367c565b604082019050919050565b5f6020820190508181035f830152613703816136ca565b9050919050565b5f81905092915050565b5f61371e8261268d565b613728818561370a565b93506137388185602086016126a7565b80840191505092915050565b5f61374f8285613714565b915061375b8284613714565b91508190509392505050565b7f4e487b71000000000000000000000000000000000000000000000000000000005f52603260045260245ffd5b7f4552433732313a20617070726f766520746f2063616c6c6572000000000000005f82015250565b5f6137c8601983612697565b91506137d382613794565b602082019050919050565b5f6020820190508181035f8301526137f5816137bc565b9050919050565b7f4552433732313a207472616e7366657220746f206e6f6e2045524337323152655f8201527f63656976657220696d706c656d656e7465720000000000000000000000000000602082015250565b5f613856603283612697565b9150613861826137fc565b604082019050919050565b5f6020820190508181035f8301526138838161384a565b9050919050565b7f4e487b71000000000000000000000000000000000000000000000000000000005f52601260045260245ffd5b7f4552433732313a207472616e736665722066726f6d20696e636f7272656374205f8201527f6f776e6572000000000000000000000000000000000000000000000000000000602082015250565b5f613911602583612697565b915061391c826138b7565b604082019050919050565b5f6020820190508181035f83015261393e81613905565b9050919050565b7f4552433732313a207472616e7366657220746f20746865207a65726f206164645f8201527f7265737300000000000000000000000000000000000000000000000000000000602082015250565b5f61399f602483612697565b91506139aa82613945565b604082019050919050565b5f6020820190508181035f8301526139cc81613993565b9050919050565b5f81519050919050565b5f82825260208201905092915050565b5f6139f7826139d3565b613a0181856139dd565b9350613a118185602086016126a7565b613a1a816126b5565b840191505092915050565b5f608082019050613a385f8301876127ab565b613a4560208301866127ab565b613a52604083018561288b565b8181036060830152613a6481846139ed565b905095945050505050565b5f81519050613a7d81612605565b92915050565b5f60208284031215613a9857613a976125d2565b5b5f613aa584828501613a6f565b91505092915050565b7f4552433732313a206d696e7420746f20746865207a65726f20616464726573735f82015250565b5f613ae2602083612697565b9150613aed82613aae565b602082019050919050565b5f6020820190508181035f830152613b0f81613ad6565b9050919050565b7f4552433732313a20746f6b656e20616c7265616479206d696e746564000000005f82015250565b5f613b4a601c83612697565b9150613b5582613b16565b602082019050919050565b5f6020820190508181035f830152613b7781613b3e565b905091905056fea2646970667358221220bac77533a10c17ce0e849c967e062f33a07e41116b48278569d727c21ad37ce564736f6c634300081c0033",
			"opcodes": "PUSH1 0x80 PUSH1 0x40 MSTORE CALLVALUE DUP1 ISZERO PUSH2 0xF JUMPI PUSH0 PUSH0 REVERT JUMPDEST POP PUSH1 0x40 MLOAD PUSH2 0x4307 CODESIZE SUB DUP1 PUSH2 0x4307 DUP4 CODECOPY DUP2 DUP2 ADD PUSH1 0x40 MSTORE DUP2 ADD SWAP1 PUSH2 0x31 SWAP2 SWAP1 PUSH2 0x399 JUMP JUMPDEST DUP3 DUP6 DUP6 DUP2 PUSH0 SWAP1 DUP2 PUSH2 0x42 SWAP2 SWAP1 PUSH2 0x64F JUMP JUMPDEST POP DUP1 PUSH1 0x1 SWAP1 DUP2 PUSH2 0x52 SWAP2 SWAP1 PUSH2 0x64F JUMP JUMPDEST POP POP POP PUSH0 PUSH20 0xFFFFFFFFFFFFFFFFFFFFFFFFFFFFFFFFFFFFFFFF AND DUP2 PUSH20 0xFFFFFFFFFFFFFFFFFFFFFFFFFFFFFFFFFFFFFFFF AND SUB PUSH2 0xC5 JUMPI PUSH0 PUSH1 0x40 MLOAD PUSH32 0x1E4FBDF700000000000000000000000000000000000000000000000000000000 DUP2 MSTORE PUSH1 0x4 ADD PUSH2 0xBC SWAP2 SWAP1 PUSH2 0x72D JUMP JUMPDEST PUSH1 0x40 MLOAD DUP1 SWAP2 SUB SWAP1 REVERT JUMPDEST PUSH2 0xD4 DUP2 PUSH2 0xFC PUSH1 0x20 SHL PUSH1 0x20 SHR JUMP JUMPDEST POP DUP2 PUSH1 0x7 DUP2 SWAP1 SSTORE POP DUP1 PUSH1 0x8 DUP2 SWAP1 SSTORE POP PUSH2 0xF2 DUP4 PUSH2 0xFC PUSH1 0x20 SHL PUSH1 0x20 SHR JUMP JUMPDEST POP POP POP POP POP PUSH2 0x746 JUMP JUMPDEST PUSH0 PUSH1 0x6 PUSH0 SWAP1 SLOAD SWAP1 PUSH2 0x100 EXP SWAP1 DIV PUSH20 0xFFFFFFFFFFFFFFFFFFFFFFFFFFFFFFFFFFFFFFFF AND SWAP1 POP DUP2 PUSH1 0x6 PUSH0 PUSH2 0x100 EXP DUP2 SLOAD DUP2 PUSH20 0xFFFFFFFFFFFFFFFFFFFFFFFFFFFFFFFFFFFFFFFF MUL NOT AND SWAP1 DUP4 PUSH20 0xFFFFFFFFFFFFFFFFFFFFFFFFFFFFFFFFFFFFFFFF AND MUL OR SWAP1 SSTORE POP DUP2 PUSH20 0xFFFFFFFFFFFFFFFFFFFFFFFFFFFFFFFFFFFFFFFF AND DUP2 PUSH20 0xFFFFFFFFFFFFFFFFFFFFFFFFFFFFFFFFFFFFFFFF AND PUSH32 0x8BE0079C531659141344CD1FD0A4F28419497F9722A3DAAFE3B4186F6B6457E0 PUSH1 0x40 MLOAD PUSH1 0x40 MLOAD DUP1 SWAP2 SUB SWAP1 LOG3 POP POP JUMP JUMPDEST PUSH0 PUSH1 0x40 MLOAD SWAP1 POP SWAP1 JUMP JUMPDEST PUSH0 PUSH0 REVERT JUMPDEST PUSH0 PUSH0 REVERT JUMPDEST PUSH0 PUSH0 REVERT JUMPDEST PUSH0 PUSH0 REVERT JUMPDEST PUSH0 PUSH1 0x1F NOT PUSH1 0x1F DUP4 ADD AND SWAP1 POP SWAP2 SWAP1 POP JUMP JUMPDEST PUSH32 0x4E487B7100000000000000000000000000000000000000000000000000000000 PUSH0 MSTORE PUSH1 0x41 PUSH1 0x4 MSTORE PUSH1 0x24 PUSH0 REVERT JUMPDEST PUSH2 0x21E DUP3 PUSH2 0x1D8 JUMP JUMPDEST DUP2 ADD DUP2 DUP2 LT PUSH8 0xFFFFFFFFFFFFFFFF DUP3 GT OR ISZERO PUSH2 0x23D JUMPI PUSH2 0x23C PUSH2 0x1E8 JUMP JUMPDEST JUMPDEST DUP1 PUSH1 0x40 MSTORE POP POP POP JUMP JUMPDEST PUSH0 PUSH2 0x24F PUSH2 0x1BF JUMP JUMPDEST SWAP1 POP PUSH2 0x25B DUP3 DUP3 PUSH2 0x215 JUMP JUMPDEST SWAP2 SWAP1 POP JUMP JUMPDEST PUSH0 PUSH8 0xFFFFFFFFFFFFFFFF DUP3 GT ISZERO PUSH2 0x27A JUMPI PUSH2 0x279 PUSH2 0x1E8 JUMP JUMPDEST JUMPDEST PUSH2 0x283 DUP3 PUSH2 0x1D8 JUMP JUMPDEST SWAP1 POP PUSH1 0x20 DUP2 ADD SWAP1 POP SWAP2 SWAP1 POP JUMP JUMPDEST DUP3 DUP2 DUP4 MCOPY PUSH0 DUP4 DUP4 ADD MSTORE POP POP POP JUMP JUMPDEST PUSH0 PUSH2 0x2B0 PUSH2 0x2AB DUP5 PUSH2 0x260 JUMP JUMPDEST PUSH2 0x246 JUMP JUMPDEST SWAP1 POP DUP3 DUP2 MSTORE PUSH1 0x20 DUP2 ADD DUP5 DUP5 DUP5 ADD GT ISZERO PUSH2 0x2CC JUMPI PUSH2 0x2CB PUSH2 0x1D4 JUMP JUMPDEST JUMPDEST PUSH2 0x2D7 DUP5 DUP3 DUP6 PUSH2 0x290 JUMP JUMPDEST POP SWAP4 SWAP3 POP POP POP JUMP JUMPDEST PUSH0 DUP3 PUSH1 0x1F DUP4 ADD SLT PUSH2 0x2F3 JUMPI PUSH2 0x2F2 PUSH2 0x1D0 JUMP JUMPDEST JUMPDEST DUP2 MLOAD PUSH2 0x303 DUP5 DUP3 PUSH1 0x20 DUP7 ADD PUSH2 0x29E JUMP JUMPDEST SWAP2 POP POP SWAP3 SWAP2 POP POP JUMP JUMPDEST PUSH0 PUSH20 0xFFFFFFFFFFFFFFFFFFFFFFFFFFFFFFFFFFFFFFFF DUP3 AND SWAP1 POP SWAP2 SWAP1 POP JUMP JUMPDEST PUSH0 PUSH2 0x335 DUP3 PUSH2 0x30C JUMP JUMPDEST SWAP1 POP SWAP2 SWAP1 POP JUMP JUMPDEST PUSH2 0x345 DUP2 PUSH2 0x32B JUMP JUMPDEST DUP2 EQ PUSH2 0x34F JUMPI PUSH0 PUSH0 REVERT JUMPDEST POP JUMP JUMPDEST PUSH0 DUP2 MLOAD SWAP1 POP PUSH2 0x360 DUP2 PUSH2 0x33C JUMP JUMPDEST SWAP3 SWAP2 POP POP JUMP JUMPDEST PUSH0 DUP2 SWAP1 POP SWAP2 SWAP1 POP JUMP JUMPDEST PUSH2 0x378 DUP2 PUSH2 0x366 JUMP JUMPDEST DUP2 EQ PUSH2 0x382 JUMPI PUSH0 PUSH0 REVERT JUMPDEST POP JUMP JUMPDEST PUSH0 DUP2 MLOAD SWAP1 POP PUSH2 0x393 DUP2 PUSH2 0x36F JUMP JUMPDEST SWAP3 SWAP2 POP POP JUMP JUMPDEST PUSH0 PUSH0 PUSH0 PUSH0 PUSH0 PUSH1 0xA0 DUP7 DUP9 SUB SLT ISZERO PUSH2 0x3B2 JUMPI PUSH2 0x3B1 PUSH2 0x1C8 JUMP JUMPDEST JUMPDEST PUSH0 DUP7 ADD MLOAD PUSH8 0xFFFFFFFFFFFFFFFF DUP2 GT ISZERO PUSH2 0x3CF JUMPI PUSH2 0x3CE PUSH2 0x1CC JUMP JUMPDEST JUMPDEST PUSH2 0x3DB DUP9 DUP3 DUP10 ADD PUSH2 0x2DF JUMP JUMPDEST SWAP6 POP POP PUSH1 0x20 DUP7 ADD MLOAD PUSH8 0xFFFFFFFFFFFFFFFF DUP2 GT ISZERO PUSH2 0x3FC JUMPI PUSH2 0x3FB PUSH2 0x1CC JUMP JUMPDEST JUMPDEST PUSH2 0x408 DUP9 DUP3 DUP10 ADD PUSH2 0x2DF JUMP JUMPDEST SWAP5 POP POP PUSH1 0x40 PUSH2 0x419 DUP9 DUP3 DUP10 ADD PUSH2 0x352 JUMP JUMPDEST SWAP4 POP POP PUSH1 0x60 PUSH2 0x42A DUP9 DUP3 DUP10 ADD PUSH2 0x385 JUMP JUMPDEST SWAP3 POP POP PUSH1 0x80 PUSH2 0x43B DUP9 DUP3 DUP10 ADD PUSH2 0x385 JUMP JUMPDEST SWAP2 POP POP SWAP3 SWAP6 POP SWAP3 SWAP6 SWAP1 SWAP4 POP JUMP JUMPDEST PUSH0 DUP2 MLOAD SWAP1 POP SWAP2 SWAP1 POP JUMP JUMPDEST PUSH32 0x4E487B7100000000000000000000000000000000000000000000000000000000 PUSH0 MSTORE PUSH1 0x22 PUSH1 0x4 MSTORE PUSH1 0x24 PUSH0 REVERT JUMPDEST PUSH0 PUSH1 0x2 DUP3 DIV SWAP1 POP PUSH1 0x1 DUP3 AND DUP1 PUSH2 0x496 JUMPI PUSH1 0x7F DUP3 AND SWAP2 POP JUMPDEST PUSH1 0x20 DUP3 LT DUP2 SUB PUSH2 0x4A9 JUMPI PUSH2 0x4A8 PUSH2 0x452 JUMP JUMPDEST JUMPDEST POP SWAP2 SWAP1 POP JUMP JUMPDEST PUSH0 DUP2 SWAP1 POP DUP2 PUSH0 MSTORE PUSH1 0x20 PUSH0 KECCAK256 SWAP1 POP SWAP2 SWAP1 POP JUMP JUMPDEST PUSH0 PUSH1 0x20 PUSH1 0x1F DUP4 ADD DIV SWAP1 POP SWAP2 SWAP1 POP JUMP JUMPDEST PUSH0 DUP3 DUP3 SHL SWAP1 POP SWAP3 SWAP2 POP POP JUMP JUMPDEST PUSH0 PUSH1 0x8 DUP4 MUL PUSH2 0x50B PUSH32 0xFFFFFFFFFFFFFFFFFFFFFFFFFFFFFFFFFFFFFFFFFFFFFFFFFFFFFFFFFFFFFFFF DUP3 PUSH2 0x4D0 JUMP JUMPDEST PUSH2 0x515 DUP7 DUP4 PUSH2 0x4D0 JUMP JUMPDEST SWAP6 POP DUP1 NOT DUP5 AND SWAP4 POP DUP1 DUP7 AND DUP5 OR SWAP3 POP POP POP SWAP4 SWAP3 POP POP POP JUMP JUMPDEST PUSH0 DUP2 SWAP1 POP SWAP2 SWAP1 POP JUMP JUMPDEST PUSH0 PUSH2 0x550 PUSH2 0x54B PUSH2 0x546 DUP5 PUSH2 0x366 JUMP JUMPDEST PUSH2 0x52D JUMP JUMPDEST PUSH2 0x366 JUMP JUMPDEST SWAP1 POP SWAP2 SWAP1 POP JUMP JUMPDEST PUSH0 DUP2 SWAP1 POP SWAP2 SWAP1 POP JUMP JUMPDEST PUSH2 0x569 DUP4 PUSH2 0x536 JUMP JUMPDEST PUSH2 0x57D PUSH2 0x575 DUP3 PUSH2 0x557 JUMP JUMPDEST DUP5 DUP5 SLOAD PUSH2 0x4DC JUMP JUMPDEST DUP3 SSTORE POP POP POP POP JUMP JUMPDEST PUSH0 PUSH0 SWAP1 POP SWAP1 JUMP JUMPDEST PUSH2 0x594 PUSH2 0x585 JUMP JUMPDEST PUSH2 0x59F DUP2 DUP5 DUP5 PUSH2 0x560 JUMP JUMPDEST POP POP POP JUMP JUMPDEST JUMPDEST DUP2 DUP2 LT ISZERO PUSH2 0x5C2 JUMPI PUSH2 0x5B7 PUSH0 DUP3 PUSH2 0x58C JUMP JUMPDEST PUSH1 0x1 DUP2 ADD SWAP1 POP PUSH2 0x5A5 JUMP JUMPDEST POP POP JUMP JUMPDEST PUSH1 0x1F DUP3 GT ISZERO PUSH2 0x607 JUMPI PUSH2 0x5D8 DUP2 PUSH2 0x4AF JUMP JUMPDEST PUSH2 0x5E1 DUP5 PUSH2 0x4C1 JUMP JUMPDEST DUP2 ADD PUSH1 0x20 DUP6 LT ISZERO PUSH2 0x5F0 JUMPI DUP2 SWAP1 POP JUMPDEST PUSH2 0x604 PUSH2 0x5FC DUP6 PUSH2 0x4C1 JUMP JUMPDEST DUP4 ADD DUP3 PUSH2 0x5A4 JUMP JUMPDEST POP POP JUMPDEST POP POP POP JUMP JUMPDEST PUSH0 DUP3 DUP3 SHR SWAP1 POP SWAP3 SWAP2 POP POP JUMP JUMPDEST PUSH0 PUSH2 0x627 PUSH0 NOT DUP5 PUSH1 0x8 MUL PUSH2 0x60C JUMP JUMPDEST NOT DUP1 DUP4 AND SWAP2 POP POP SWAP3 SWAP2 POP POP JUMP JUMPDEST PUSH0 PUSH2 0x63F DUP4 DUP4 PUSH2 0x618 JUMP JUMPDEST SWAP2 POP DUP3 PUSH1 0x2 MUL DUP3 OR SWAP1 POP SWAP3 SWAP2 POP POP JUMP JUMPDEST PUSH2 0x658 DUP3 PUSH2 0x448 JUMP JUMPDEST PUSH8 0xFFFFFFFFFFFFFFFF DUP2 GT ISZERO PUSH2 0x671 JUMPI PUSH2 0x670 PUSH2 0x1E8 JUMP JUMPDEST JUMPDEST PUSH2 0x67B DUP3 SLOAD PUSH2 0x47F JUMP JUMPDEST PUSH2 0x686 DUP3 DUP3 DUP6 PUSH2 0x5C6 JUMP JUMPDEST PUSH0 PUSH1 0x20 SWAP1 POP PUSH1 0x1F DUP4 GT PUSH1 0x1 DUP2 EQ PUSH2 0x6B7 JUMPI PUSH0 DUP5 ISZERO PUSH2 0x6A5 JUMPI DUP3 DUP8 ADD MLOAD SWAP1 POP JUMPDEST PUSH2 0x6AF DUP6 DUP3 PUSH2 0x634 JUMP JUMPDEST DUP7 SSTORE POP PUSH2 0x716 JUMP JUMPDEST PUSH1 0x1F NOT DUP5 AND PUSH2 0x6C5 DUP7 PUSH2 0x4AF JUMP JUMPDEST PUSH0 JUMPDEST DUP3 DUP2 LT ISZERO PUSH2 0x6EC JUMPI DUP5 DUP10 ADD MLOAD DUP3 SSTORE PUSH1 0x1 DUP3 ADD SWAP2 POP PUSH1 0x20 DUP6 ADD SWAP5 POP PUSH1 0x20 DUP2 ADD SWAP1 POP PUSH2 0x6C7 JUMP JUMPDEST DUP7 DUP4 LT ISZERO PUSH2 0x709 JUMPI DUP5 DUP10 ADD MLOAD PUSH2 0x705 PUSH1 0x1F DUP10 AND DUP3 PUSH2 0x618 JUMP JUMPDEST DUP4 SSTORE POP JUMPDEST PUSH1 0x1 PUSH1 0x2 DUP9 MUL ADD DUP9 SSTORE POP POP POP JUMPDEST POP POP POP POP POP POP JUMP JUMPDEST PUSH2 0x727 DUP2 PUSH2 0x32B JUMP JUMPDEST DUP3 MSTORE POP POP JUMP JUMPDEST PUSH0 PUSH1 0x20 DUP3 ADD SWAP1 POP PUSH2 0x740 PUSH0 DUP4 ADD DUP5 PUSH2 0x71E JUMP JUMPDEST SWAP3 SWAP2 POP POP JUMP JUMPDEST PUSH2 0x3BB4 DUP1 PUSH2 0x753 PUSH0 CODECOPY PUSH0 RETURN INVALID PUSH1 0x80 PUSH1 0x40 MSTORE PUSH1 0x4 CALLDATASIZE LT PUSH2 0x165 JUMPI PUSH0 CALLDATALOAD PUSH1 0xE0 SHR DUP1 PUSH4 0x70A08231 GT PUSH2 0xD0 JUMPI DUP1 PUSH4 0xA22CB465 GT PUSH2 0x89 JUMPI DUP1 PUSH4 0xCDF4002E GT PUSH2 0x63 JUMPI DUP1 PUSH4 0xCDF4002E EQ PUSH2 0x4F1 JUMPI DUP1 PUSH4 0xE985E9C5 EQ PUSH2 0x51B JUMPI DUP1 PUSH4 0xF2FDE38B EQ PUSH2 0x557 JUMPI DUP1 PUSH4 0xF82CA1C8 EQ PUSH2 0x57F JUMPI PUSH2 0x165 JUMP JUMPDEST DUP1 PUSH4 0xA22CB465 EQ PUSH2 0x465 JUMPI DUP1 PUSH4 0xB88D4FDE EQ PUSH2 0x48D JUMPI DUP1 PUSH4 0xC87B56DD EQ PUSH2 0x4B5 JUMPI PUSH2 0x165 JUMP JUMPDEST DUP1 PUSH4 0x70A08231 EQ PUSH2 0x36D JUMPI DUP1 PUSH4 0x715018A6 EQ PUSH2 0x3A9 JUMPI DUP1 PUSH4 0x77097FC8 EQ PUSH2 0x3BF JUMPI DUP1 PUSH4 0x7FF9B596 EQ PUSH2 0x3E7 JUMPI DUP1 PUSH4 0x8DA5CB5B EQ PUSH2 0x411 JUMPI DUP1 PUSH4 0x95D89B41 EQ PUSH2 0x43B JUMPI PUSH2 0x165 JUMP JUMPDEST DUP1 PUSH4 0x42842E0E GT PUSH2 0x122 JUMPI DUP1 PUSH4 0x42842E0E EQ PUSH2 0x271 JUMPI DUP1 PUSH4 0x42966C68 EQ PUSH2 0x299 JUMPI DUP1 PUSH4 0x57360E55 EQ PUSH2 0x2C1 JUMPI DUP1 PUSH4 0x60316801 EQ PUSH2 0x2EB JUMPI DUP1 PUSH4 0x6352211E EQ PUSH2 0x327 JUMPI DUP1 PUSH4 0x672756AD EQ PUSH2 0x363 JUMPI PUSH2 0x165 JUMP JUMPDEST DUP1 PUSH4 0x1FFC9A7 EQ PUSH2 0x169 JUMPI DUP1 PUSH4 0x6FDDE03 EQ PUSH2 0x1A5 JUMPI DUP1 PUSH4 0x81812FC EQ PUSH2 0x1CF JUMPI DUP1 PUSH4 0x95EA7B3 EQ PUSH2 0x20B JUMPI DUP1 PUSH4 0x23B872DD EQ PUSH2 0x233 JUMPI DUP1 PUSH4 0x24600FC3 EQ PUSH2 0x25B JUMPI JUMPDEST PUSH0 PUSH0 REVERT JUMPDEST CALLVALUE DUP1 ISZERO PUSH2 0x174 JUMPI PUSH0 PUSH0 REVERT JUMPDEST POP PUSH2 0x18F PUSH1 0x4 DUP1 CALLDATASIZE SUB DUP2 ADD SWAP1 PUSH2 0x18A SWAP2 SWAP1 PUSH2 0x262F JUMP JUMPDEST PUSH2 0x5A9 JUMP JUMPDEST PUSH1 0x40 MLOAD PUSH2 0x19C SWAP2 SWAP1 PUSH2 0x2674 JUMP JUMPDEST PUSH1 0x40 MLOAD DUP1 SWAP2 SUB SWAP1 RETURN JUMPDEST CALLVALUE DUP1 ISZERO PUSH2 0x1B0 JUMPI PUSH0 PUSH0 REVERT JUMPDEST POP PUSH2 0x1B9 PUSH2 0x68A JUMP JUMPDEST PUSH1 0x40 MLOAD PUSH2 0x1C6 SWAP2 SWAP1 PUSH2 0x26FD JUMP JUMPDEST PUSH1 0x40 MLOAD DUP1 SWAP2 SUB SWAP1 RETURN JUMPDEST CALLVALUE DUP1 ISZERO PUSH2 0x1DA JUMPI PUSH0 PUSH0 REVERT JUMPDEST POP PUSH2 0x1F5 PUSH1 0x4 DUP1 CALLDATASIZE SUB DUP2 ADD SWAP1 PUSH2 0x1F0 SWAP2 SWAP1 PUSH2 0x2750 JUMP JUMPDEST PUSH2 0x719 JUMP JUMPDEST PUSH1 0x40 MLOAD PUSH2 0x202 SWAP2 SWAP1 PUSH2 0x27BA JUMP JUMPDEST PUSH1 0x40 MLOAD DUP1 SWAP2 SUB SWAP1 RETURN JUMPDEST CALLVALUE DUP1 ISZERO PUSH2 0x216 JUMPI PUSH0 PUSH0 REVERT JUMPDEST POP PUSH2 0x231 PUSH1 0x4 DUP1 CALLDATASIZE SUB DUP2 ADD SWAP1 PUSH2 0x22C SWAP2 SWAP1 PUSH2 0x27FD JUMP JUMPDEST PUSH2 0x75B JUMP JUMPDEST STOP JUMPDEST CALLVALUE DUP1 ISZERO PUSH2 0x23E JUMPI PUSH0 PUSH0 REVERT JUMPDEST POP PUSH2 0x259 PUSH1 0x4 DUP1 CALLDATASIZE SUB DUP2 ADD SWAP1 PUSH2 0x254 SWAP2 SWAP1 PUSH2 0x283B JUMP JUMPDEST PUSH2 0x871 JUMP JUMPDEST STOP JUMPDEST CALLVALUE DUP1 ISZERO PUSH2 0x266 JUMPI PUSH0 PUSH0 REVERT JUMPDEST POP PUSH2 0x26F PUSH2 0x923 JUMP JUMPDEST STOP JUMPDEST CALLVALUE DUP1 ISZERO PUSH2 0x27C JUMPI PUSH0 PUSH0 REVERT JUMPDEST POP PUSH2 0x297 PUSH1 0x4 DUP1 CALLDATASIZE SUB DUP2 ADD SWAP1 PUSH2 0x292 SWAP2 SWAP1 PUSH2 0x283B JUMP JUMPDEST PUSH2 0x978 JUMP JUMPDEST STOP JUMPDEST CALLVALUE DUP1 ISZERO PUSH2 0x2A4 JUMPI PUSH0 PUSH0 REVERT JUMPDEST POP PUSH2 0x2BF PUSH1 0x4 DUP1 CALLDATASIZE SUB DUP2 ADD SWAP1 PUSH2 0x2BA SWAP2 SWAP1 PUSH2 0x2750 JUMP JUMPDEST PUSH2 0x997 JUMP JUMPDEST STOP JUMPDEST CALLVALUE DUP1 ISZERO PUSH2 0x2CC JUMPI PUSH0 PUSH0 REVERT JUMPDEST POP PUSH2 0x2D5 PUSH2 0xA86 JUMP JUMPDEST PUSH1 0x40 MLOAD PUSH2 0x2E2 SWAP2 SWAP1 PUSH2 0x289A JUMP JUMPDEST PUSH1 0x40 MLOAD DUP1 SWAP2 SUB SWAP1 RETURN JUMPDEST CALLVALUE DUP1 ISZERO PUSH2 0x2F6 JUMPI PUSH0 PUSH0 REVERT JUMPDEST POP PUSH2 0x311 PUSH1 0x4 DUP1 CALLDATASIZE SUB DUP2 ADD SWAP1 PUSH2 0x30C SWAP2 SWAP1 PUSH2 0x2750 JUMP JUMPDEST PUSH2 0xA8C JUMP JUMPDEST PUSH1 0x40 MLOAD PUSH2 0x31E SWAP2 SWAP1 PUSH2 0x2944 JUMP JUMPDEST PUSH1 0x40 MLOAD DUP1 SWAP2 SUB SWAP1 RETURN JUMPDEST CALLVALUE DUP1 ISZERO PUSH2 0x332 JUMPI PUSH0 PUSH0 REVERT JUMPDEST POP PUSH2 0x34D PUSH1 0x4 DUP1 CALLDATASIZE SUB DUP2 ADD SWAP1 PUSH2 0x348 SWAP2 SWAP1 PUSH2 0x2750 JUMP JUMPDEST PUSH2 0xB98 JUMP JUMPDEST PUSH1 0x40 MLOAD PUSH2 0x35A SWAP2 SWAP1 PUSH2 0x27BA JUMP JUMPDEST PUSH1 0x40 MLOAD DUP1 SWAP2 SUB SWAP1 RETURN JUMPDEST PUSH2 0x36B PUSH2 0xC1C JUMP JUMPDEST STOP JUMPDEST CALLVALUE DUP1 ISZERO PUSH2 0x378 JUMPI PUSH0 PUSH0 REVERT JUMPDEST POP PUSH2 0x393 PUSH1 0x4 DUP1 CALLDATASIZE SUB DUP2 ADD SWAP1 PUSH2 0x38E SWAP2 SWAP1 PUSH2 0x2964 JUMP JUMPDEST PUSH2 0xDA5 JUMP JUMPDEST PUSH1 0x40 MLOAD PUSH2 0x3A0 SWAP2 SWAP1 PUSH2 0x289A JUMP JUMPDEST PUSH1 0x40 MLOAD DUP1 SWAP2 SUB SWAP1 RETURN JUMPDEST CALLVALUE DUP1 ISZERO PUSH2 0x3B4 JUMPI PUSH0 PUSH0 REVERT JUMPDEST POP PUSH2 0x3BD PUSH2 0xE59 JUMP JUMPDEST STOP JUMPDEST CALLVALUE DUP1 ISZERO PUSH2 0x3CA JUMPI PUSH0 PUSH0 REVERT JUMPDEST POP PUSH2 0x3E5 PUSH1 0x4 DUP1 CALLDATASIZE SUB DUP2 ADD SWAP1 PUSH2 0x3E0 SWAP2 SWAP1 PUSH2 0x2ABB JUMP JUMPDEST PUSH2 0xE6C JUMP JUMPDEST STOP JUMPDEST CALLVALUE DUP1 ISZERO PUSH2 0x3F2 JUMPI PUSH0 PUSH0 REVERT JUMPDEST POP PUSH2 0x3FB PUSH2 0xFAE JUMP JUMPDEST PUSH1 0x40 MLOAD PUSH2 0x408 SWAP2 SWAP1 PUSH2 0x289A JUMP JUMPDEST PUSH1 0x40 MLOAD DUP1 SWAP2 SUB SWAP1 RETURN JUMPDEST CALLVALUE DUP1 ISZERO PUSH2 0x41C JUMPI PUSH0 PUSH0 REVERT JUMPDEST POP PUSH2 0x425 PUSH2 0xFB4 JUMP JUMPDEST PUSH1 0x40 MLOAD PUSH2 0x432 SWAP2 SWAP1 PUSH2 0x27BA JUMP JUMPDEST PUSH1 0x40 MLOAD DUP1 SWAP2 SUB SWAP1 RETURN JUMPDEST CALLVALUE DUP1 ISZERO PUSH2 0x446 JUMPI PUSH0 PUSH0 REVERT JUMPDEST POP PUSH2 0x44F PUSH2 0xFDC JUMP JUMPDEST PUSH1 0x40 MLOAD PUSH2 0x45C SWAP2 SWAP1 PUSH2 0x26FD JUMP JUMPDEST PUSH1 0x40 MLOAD DUP1 SWAP2 SUB SWAP1 RETURN JUMPDEST CALLVALUE DUP1 ISZERO PUSH2 0x470 JUMPI PUSH0 PUSH0 REVERT JUMPDEST POP PUSH2 0x48B PUSH1 0x4 DUP1 CALLDATASIZE SUB DUP2 ADD SWAP1 PUSH2 0x486 SWAP2 SWAP1 PUSH2 0x2B3F JUMP JUMPDEST PUSH2 0x106C JUMP JUMPDEST STOP JUMPDEST CALLVALUE DUP1 ISZERO PUSH2 0x498 JUMPI PUSH0 PUSH0 REVERT JUMPDEST POP PUSH2 0x4B3 PUSH1 0x4 DUP1 CALLDATASIZE SUB DUP2 ADD SWAP1 PUSH2 0x4AE SWAP2 SWAP1 PUSH2 0x2C1B JUMP JUMPDEST PUSH2 0x1082 JUMP JUMPDEST STOP JUMPDEST CALLVALUE DUP1 ISZERO PUSH2 0x4C0 JUMPI PUSH0 PUSH0 REVERT JUMPDEST POP PUSH2 0x4DB PUSH1 0x4 DUP1 CALLDATASIZE SUB DUP2 ADD SWAP1 PUSH2 0x4D6 SWAP2 SWAP1 PUSH2 0x2750 JUMP JUMPDEST PUSH2 0x10E4 JUMP JUMPDEST PUSH1 0x40 MLOAD PUSH2 0x4E8 SWAP2 SWAP1 PUSH2 0x26FD JUMP JUMPDEST PUSH1 0x40 MLOAD DUP1 SWAP2 SUB SWAP1 RETURN JUMPDEST CALLVALUE DUP1 ISZERO PUSH2 0x4FC JUMPI PUSH0 PUSH0 REVERT JUMPDEST POP PUSH2 0x505 PUSH2 0x1149 JUMP JUMPDEST PUSH1 0x40 MLOAD PUSH2 0x512 SWAP2 SWAP1 PUSH2 0x289A JUMP JUMPDEST PUSH1 0x40 MLOAD DUP1 SWAP2 SUB SWAP1 RETURN JUMPDEST CALLVALUE DUP1 ISZERO PUSH2 0x526 JUMPI PUSH0 PUSH0 REVERT JUMPDEST POP PUSH2 0x541 PUSH1 0x4 DUP1 CALLDATASIZE SUB DUP2 ADD SWAP1 PUSH2 0x53C SWAP2 SWAP1 PUSH2 0x2C9B JUMP JUMPDEST PUSH2 0x114F JUMP JUMPDEST PUSH1 0x40 MLOAD PUSH2 0x54E SWAP2 SWAP1 PUSH2 0x2674 JUMP JUMPDEST PUSH1 0x40 MLOAD DUP1 SWAP2 SUB SWAP1 RETURN JUMPDEST CALLVALUE DUP1 ISZERO PUSH2 0x562 JUMPI PUSH0 PUSH0 REVERT JUMPDEST POP PUSH2 0x57D PUSH1 0x4 DUP1 CALLDATASIZE SUB DUP2 ADD SWAP1 PUSH2 0x578 SWAP2 SWAP1 PUSH2 0x2964 JUMP JUMPDEST PUSH2 0x11DD JUMP JUMPDEST STOP JUMPDEST CALLVALUE DUP1 ISZERO PUSH2 0x58A JUMPI PUSH0 PUSH0 REVERT JUMPDEST POP PUSH2 0x593 PUSH2 0x1261 JUMP JUMPDEST PUSH1 0x40 MLOAD PUSH2 0x5A0 SWAP2 SWAP1 PUSH2 0x2D81 JUMP JUMPDEST PUSH1 0x40 MLOAD DUP1 SWAP2 SUB SWAP1 RETURN JUMPDEST PUSH0 PUSH32 0x80AC58CD00000000000000000000000000000000000000000000000000000000 PUSH28 0xFFFFFFFFFFFFFFFFFFFFFFFFFFFFFFFFFFFFFFFFFFFFFFFFFFFFFFFF NOT AND DUP3 PUSH28 0xFFFFFFFFFFFFFFFFFFFFFFFFFFFFFFFFFFFFFFFFFFFFFFFFFFFFFFFF NOT AND EQ DUP1 PUSH2 0x673 JUMPI POP PUSH32 0x5B5E139F00000000000000000000000000000000000000000000000000000000 PUSH28 0xFFFFFFFFFFFFFFFFFFFFFFFFFFFFFFFFFFFFFFFFFFFFFFFFFFFFFFFF NOT AND DUP3 PUSH28 0xFFFFFFFFFFFFFFFFFFFFFFFFFFFFFFFFFFFFFFFFFFFFFFFFFFFFFFFF NOT AND EQ JUMPDEST DUP1 PUSH2 0x683 JUMPI POP PUSH2 0x682 DUP3 PUSH2 0x13A0 JUMP JUMPDEST JUMPDEST SWAP1 POP SWAP2 SWAP1 POP JUMP JUMPDEST PUSH1 0x60 PUSH0 DUP1 SLOAD PUSH2 0x698 SWAP1 PUSH2 0x2DCE JUMP JUMPDEST DUP1 PUSH1 0x1F ADD PUSH1 0x20 DUP1 SWAP2 DIV MUL PUSH1 0x20 ADD PUSH1 0x40 MLOAD SWAP1 DUP2 ADD PUSH1 0x40 MSTORE DUP1 SWAP3 SWAP2 SWAP1 DUP2 DUP2 MSTORE PUSH1 0x20 ADD DUP3 DUP1 SLOAD PUSH2 0x6C4 SWAP1 PUSH2 0x2DCE JUMP JUMPDEST DUP1 ISZERO PUSH2 0x70F JUMPI DUP1 PUSH1 0x1F LT PUSH2 0x6E6 JUMPI PUSH2 0x100 DUP1 DUP4 SLOAD DIV MUL DUP4 MSTORE SWAP2 PUSH1 0x20 ADD SWAP2 PUSH2 0x70F JUMP JUMPDEST DUP3 ADD SWAP2 SWAP1 PUSH0 MSTORE PUSH1 0x20 PUSH0 KECCAK256 SWAP1 JUMPDEST DUP2 SLOAD DUP2 MSTORE SWAP1 PUSH1 0x1 ADD SWAP1 PUSH1 0x20 ADD DUP1 DUP4 GT PUSH2 0x6F2 JUMPI DUP3 SWAP1 SUB PUSH1 0x1F AND DUP3 ADD SWAP2 JUMPDEST POP POP POP POP POP SWAP1 POP SWAP1 JUMP JUMPDEST PUSH0 PUSH2 0x723 DUP3 PUSH2 0x1409 JUMP JUMPDEST PUSH1 0x4 PUSH0 DUP4 DUP2 MSTORE PUSH1 0x20 ADD SWAP1 DUP2 MSTORE PUSH1 0x20 ADD PUSH0 KECCAK256 PUSH0 SWAP1 SLOAD SWAP1 PUSH2 0x100 EXP SWAP1 DIV PUSH20 0xFFFFFFFFFFFFFFFFFFFFFFFFFFFFFFFFFFFFFFFF AND SWAP1 POP SWAP2 SWAP1 POP JUMP JUMPDEST PUSH0 PUSH2 0x765 DUP3 PUSH2 0xB98 JUMP JUMPDEST SWAP1 POP DUP1 PUSH20 0xFFFFFFFFFFFFFFFFFFFFFFFFFFFFFFFFFFFFFFFF AND DUP4 PUSH20 0xFFFFFFFFFFFFFFFFFFFFFFFFFFFFFFFFFFFFFFFF AND SUB PUSH2 0x7D5 JUMPI PUSH1 0x40 MLOAD PUSH32 0x8C379A000000000000000000000000000000000000000000000000000000000 DUP2 MSTORE PUSH1 0x4 ADD PUSH2 0x7CC SWAP1 PUSH2 0x2E6E JUMP JUMPDEST PUSH1 0x40 MLOAD DUP1 SWAP2 SUB SWAP1 REVERT JUMPDEST DUP1 PUSH20 0xFFFFFFFFFFFFFFFFFFFFFFFFFFFFFFFFFFFFFFFF AND PUSH2 0x7F4 PUSH2 0x1454 JUMP JUMPDEST PUSH20 0xFFFFFFFFFFFFFFFFFFFFFFFFFFFFFFFFFFFFFFFF AND EQ DUP1 PUSH2 0x823 JUMPI POP PUSH2 0x822 DUP2 PUSH2 0x81D PUSH2 0x1454 JUMP JUMPDEST PUSH2 0x114F JUMP JUMPDEST JUMPDEST PUSH2 0x862 JUMPI PUSH1 0x40 MLOAD PUSH32 0x8C379A000000000000000000000000000000000000000000000000000000000 DUP2 MSTORE PUSH1 0x4 ADD PUSH2 0x859 SWAP1 PUSH2 0x2EFC JUMP JUMPDEST PUSH1 0x40 MLOAD DUP1 SWAP2 SUB SWAP1 REVERT JUMPDEST PUSH2 0x86C DUP4 DUP4 PUSH2 0x145B JUMP JUMPDEST POP POP POP JUMP JUMPDEST ADDRESS PUSH20 0xFFFFFFFFFFFFFFFFFFFFFFFFFFFFFFFFFFFFFFFF AND DUP4 PUSH20 0xFFFFFFFFFFFFFFFFFFFFFFFFFFFFFFFFFFFFFFFF AND EQ PUSH2 0x913 JUMPI PUSH0 PUSH20 0xFFFFFFFFFFFFFFFFFFFFFFFFFFFFFFFFFFFFFFFF AND DUP4 PUSH20 0xFFFFFFFFFFFFFFFFFFFFFFFFFFFFFFFFFFFFFFFF AND EQ PUSH2 0x912 JUMPI PUSH1 0x40 MLOAD PUSH32 0x8C379A000000000000000000000000000000000000000000000000000000000 DUP2 MSTORE PUSH1 0x4 ADD PUSH2 0x909 SWAP1 PUSH2 0x2F8A JUMP JUMPDEST PUSH1 0x40 MLOAD DUP1 SWAP2 SUB SWAP1 REVERT JUMPDEST JUMPDEST PUSH2 0x91E DUP4 DUP4 DUP4 PUSH2 0x1511 JUMP JUMPDEST POP POP POP JUMP JUMPDEST PUSH2 0x92B PUSH2 0x1571 JUMP JUMPDEST PUSH2 0x933 PUSH2 0xFB4 JUMP JUMPDEST PUSH20 0xFFFFFFFFFFFFFFFFFFFFFFFFFFFFFFFFFFFFFFFF AND PUSH2 0x8FC SELFBALANCE SWAP1 DUP2 ISZERO MUL SWAP1 PUSH1 0x40 MLOAD PUSH0 PUSH1 0x40 MLOAD DUP1 DUP4 SUB DUP2 DUP6 DUP9 DUP9 CALL SWAP4 POP POP POP POP ISZERO DUP1 ISZERO PUSH2 0x975 JUMPI RETURNDATASIZE PUSH0 PUSH0 RETURNDATACOPY RETURNDATASIZE PUSH0 REVERT JUMPDEST POP JUMP JUMPDEST PUSH2 0x992 DUP4 DUP4 DUP4 PUSH1 0x40 MLOAD DUP1 PUSH1 0x20 ADD PUSH1 0x40 MSTORE DUP1 PUSH0 DUP2 MSTORE POP PUSH2 0x1082 JUMP JUMPDEST POP POP POP JUMP JUMPDEST CALLER PUSH20 0xFFFFFFFFFFFFFFFFFFFFFFFFFFFFFFFFFFFFFFFF AND PUSH2 0x9B7 DUP3 PUSH2 0xB98 JUMP JUMPDEST PUSH20 0xFFFFFFFFFFFFFFFFFFFFFFFFFFFFFFFFFFFFFFFF AND EQ PUSH2 0xA0D JUMPI PUSH1 0x40 MLOAD PUSH32 0x8C379A000000000000000000000000000000000000000000000000000000000 DUP2 MSTORE PUSH1 0x4 ADD PUSH2 0xA04 SWAP1 PUSH2 0x2FF2 JUMP JUMPDEST PUSH1 0x40 MLOAD DUP1 SWAP2 SUB SWAP1 REVERT JUMPDEST PUSH2 0xA16 DUP2 PUSH2 0x15F8 JUMP JUMPDEST PUSH1 0xB PUSH0 DUP3 DUP2 MSTORE PUSH1 0x20 ADD SWAP1 DUP2 MSTORE PUSH1 0x20 ADD PUSH0 KECCAK256 PUSH0 PUSH0 DUP3 ADD PUSH0 SWAP1 SSTORE PUSH1 0x1 DUP3 ADD PUSH0 PUSH2 0xA3D SWAP2 SWAP1 PUSH2 0x2558 JUMP JUMPDEST POP POP DUP1 CALLER PUSH20 0xFFFFFFFFFFFFFFFFFFFFFFFFFFFFFFFFFFFFFFFF AND PUSH32 0xCC16F5DBB4873280815C1EE09DBD06736CFFCC184412CF7A71A0FDB75D397CA5 PUSH1 0x40 MLOAD PUSH1 0x40 MLOAD DUP1 SWAP2 SUB SWAP1 LOG3 POP JUMP JUMPDEST PUSH1 0x8 SLOAD DUP2 JUMP JUMPDEST PUSH2 0xA94 PUSH2 0x2595 JUMP JUMPDEST PUSH2 0xA9D DUP3 PUSH2 0x1739 JUMP JUMPDEST PUSH2 0xADC JUMPI PUSH1 0x40 MLOAD PUSH32 0x8C379A000000000000000000000000000000000000000000000000000000000 DUP2 MSTORE PUSH1 0x4 ADD PUSH2 0xAD3 SWAP1 PUSH2 0x305A JUMP JUMPDEST PUSH1 0x40 MLOAD DUP1 SWAP2 SUB SWAP1 REVERT JUMPDEST PUSH1 0xB PUSH0 DUP4 DUP2 MSTORE PUSH1 0x20 ADD SWAP1 DUP2 MSTORE PUSH1 0x20 ADD PUSH0 KECCAK256 PUSH1 0x40 MLOAD DUP1 PUSH1 0x40 ADD PUSH1 0x40 MSTORE SWAP1 DUP2 PUSH0 DUP3 ADD SLOAD DUP2 MSTORE PUSH1 0x20 ADD PUSH1 0x1 DUP3 ADD DUP1 SLOAD PUSH2 0xB11 SWAP1 PUSH2 0x2DCE JUMP JUMPDEST DUP1 PUSH1 0x1F ADD PUSH1 0x20 DUP1 SWAP2 DIV MUL PUSH1 0x20 ADD PUSH1 0x40 MLOAD SWAP1 DUP2 ADD PUSH1 0x40 MSTORE DUP1 SWAP3 SWAP2 SWAP1 DUP2 DUP2 MSTORE PUSH1 0x20 ADD DUP3 DUP1 SLOAD PUSH2 0xB3D SWAP1 PUSH2 0x2DCE JUMP JUMPDEST DUP1 ISZERO PUSH2 0xB88 JUMPI DUP1 PUSH1 0x1F LT PUSH2 0xB5F JUMPI PUSH2 0x100 DUP1 DUP4 SLOAD DIV MUL DUP4 MSTORE SWAP2 PUSH1 0x20 ADD SWAP2 PUSH2 0xB88 JUMP JUMPDEST DUP3 ADD SWAP2 SWAP1 PUSH0 MSTORE PUSH1 0x20 PUSH0 KECCAK256 SWAP1 JUMPDEST DUP2 SLOAD DUP2 MSTORE SWAP1 PUSH1 0x1 ADD SWAP1 PUSH1 0x20 ADD DUP1 DUP4 GT PUSH2 0xB6B JUMPI DUP3 SWAP1 SUB PUSH1 0x1F AND DUP3 ADD SWAP2 JUMPDEST POP POP POP POP POP DUP2 MSTORE POP POP SWAP1 POP SWAP2 SWAP1 POP JUMP JUMPDEST PUSH0 PUSH0 PUSH2 0xBA3 DUP4 PUSH2 0x1779 JUMP JUMPDEST SWAP1 POP PUSH0 PUSH20 0xFFFFFFFFFFFFFFFFFFFFFFFFFFFFFFFFFFFFFFFF AND DUP2 PUSH20 0xFFFFFFFFFFFFFFFFFFFFFFFFFFFFFFFFFFFFFFFF AND SUB PUSH2 0xC13 JUMPI PUSH1 0x40 MLOAD PUSH32 0x8C379A000000000000000000000000000000000000000000000000000000000 DUP2 MSTORE PUSH1 0x4 ADD PUSH2 0xC0A SWAP1 PUSH2 0x30C2 JUMP JUMPDEST PUSH1 0x40 MLOAD DUP1 SWAP2 SUB SWAP1 REVERT JUMPDEST DUP1 SWAP2 POP POP SWAP2 SWAP1 POP JUMP JUMPDEST PUSH1 0x7 SLOAD CALLVALUE LT ISZERO PUSH2 0xC61 JUMPI PUSH1 0x40 MLOAD PUSH32 0x8C379A000000000000000000000000000000000000000000000000000000000 DUP2 MSTORE PUSH1 0x4 ADD PUSH2 0xC58 SWAP1 PUSH2 0x312A JUMP JUMPDEST PUSH1 0x40 MLOAD DUP1 SWAP2 SUB SWAP1 REVERT JUMPDEST PUSH0 PUSH2 0xC6A PUSH2 0x17B2 JUMP JUMPDEST SWAP1 POP PUSH32 0xFFFFFFFFFFFFFFFFFFFFFFFFFFFFFFFFFFFFFFFFFFFFFFFFFFFFFFFFFFFFFFFF DUP2 SUB PUSH2 0xCCE JUMPI PUSH1 0x40 MLOAD PUSH32 0x8C379A000000000000000000000000000000000000000000000000000000000 DUP2 MSTORE PUSH1 0x4 ADD PUSH2 0xCC5 SWAP1 PUSH2 0x3192 JUMP JUMPDEST PUSH1 0x40 MLOAD DUP1 SWAP2 SUB SWAP1 REVERT JUMPDEST PUSH1 0x1 PUSH1 0xC PUSH0 DUP4 DUP2 MSTORE PUSH1 0x20 ADD SWAP1 DUP2 MSTORE PUSH1 0x20 ADD PUSH0 KECCAK256 PUSH0 PUSH2 0x100 EXP DUP2 SLOAD DUP2 PUSH1 0xFF MUL NOT AND SWAP1 DUP4 ISZERO ISZERO MUL OR SWAP1 SSTORE POP PUSH2 0xD02 ADDRESS CALLER DUP4 PUSH2 0x1835 JUMP JUMPDEST PUSH1 0x7 SLOAD CALLVALUE GT ISZERO PUSH2 0xD5E JUMPI CALLER PUSH20 0xFFFFFFFFFFFFFFFFFFFFFFFFFFFFFFFFFFFFFFFF AND PUSH2 0x8FC PUSH1 0x7 SLOAD CALLVALUE PUSH2 0xD34 SWAP2 SWAP1 PUSH2 0x31DD JUMP JUMPDEST SWAP1 DUP2 ISZERO MUL SWAP1 PUSH1 0x40 MLOAD PUSH0 PUSH1 0x40 MLOAD DUP1 DUP4 SUB DUP2 DUP6 DUP9 DUP9 CALL SWAP4 POP POP POP POP ISZERO DUP1 ISZERO PUSH2 0xD5C JUMPI RETURNDATASIZE PUSH0 PUSH0 RETURNDATACOPY RETURNDATASIZE PUSH0 REVERT JUMPDEST POP JUMPDEST DUP1 CALLER PUSH20 0xFFFFFFFFFFFFFFFFFFFFFFFFFFFFFFFFFFFFFFFF AND PUSH32 0x47CEE97CB7ACD717B3C0AA1435D004CD5B3C8C57D70DBCEB4E4458BBD60E39D4 PUSH1 0x40 MLOAD PUSH1 0x40 MLOAD DUP1 SWAP2 SUB SWAP1 LOG3 POP JUMP JUMPDEST PUSH0 PUSH0 PUSH20 0xFFFFFFFFFFFFFFFFFFFFFFFFFFFFFFFFFFFFFFFF AND DUP3 PUSH20 0xFFFFFFFFFFFFFFFFFFFFFFFFFFFFFFFFFFFFFFFF AND SUB PUSH2 0xE14 JUMPI PUSH1 0x40 MLOAD PUSH32 0x8C379A000000000000000000000000000000000000000000000000000000000 DUP2 MSTORE PUSH1 0x4 ADD PUSH2 0xE0B SWAP1 PUSH2 0x3280 JUMP JUMPDEST PUSH1 0x40 MLOAD DUP1 SWAP2 SUB SWAP1 REVERT JUMPDEST PUSH1 0x3 PUSH0 DUP4 PUSH20 0xFFFFFFFFFFFFFFFFFFFFFFFFFFFFFFFFFFFFFFFF AND PUSH20 0xFFFFFFFFFFFFFFFFFFFFFFFFFFFFFFFFFFFFFFFF AND DUP2 MSTORE PUSH1 0x20 ADD SWAP1 DUP2 MSTORE PUSH1 0x20 ADD PUSH0 KECCAK256 SLOAD SWAP1 POP SWAP2 SWAP1 POP JUMP JUMPDEST PUSH2 0xE61 PUSH2 0x1571 JUMP JUMPDEST PUSH2 0xE6A PUSH0 PUSH2 0x18E7 JUMP JUMPDEST JUMP JUMPDEST PUSH2 0xE74 PUSH2 0x1571 JUMP JUMPDEST PUSH0 DUP3 GT DUP1 ISZERO PUSH2 0xE92 JUMPI POP PUSH1 0x8 SLOAD DUP3 PUSH1 0x9 SLOAD PUSH2 0xE8F SWAP2 SWAP1 PUSH2 0x329E JUMP JUMPDEST GT ISZERO JUMPDEST PUSH2 0xED1 JUMPI PUSH1 0x40 MLOAD PUSH32 0x8C379A000000000000000000000000000000000000000000000000000000000 DUP2 MSTORE PUSH1 0x4 ADD PUSH2 0xEC8 SWAP1 PUSH2 0x3341 JUMP JUMPDEST PUSH1 0x40 MLOAD DUP1 SWAP2 SUB SWAP1 REVERT JUMPDEST PUSH0 PUSH0 SWAP1 POP JUMPDEST DUP3 DUP2 LT ISZERO PUSH2 0xFA9 JUMPI PUSH0 PUSH1 0xA PUSH0 DUP2 SLOAD DUP1 SWAP3 SWAP2 SWAP1 PUSH2 0xEF1 SWAP1 PUSH2 0x335F JUMP JUMPDEST SWAP2 SWAP1 POP SSTORE SWAP1 POP PUSH1 0x40 MLOAD DUP1 PUSH1 0x40 ADD PUSH1 0x40 MSTORE DUP1 PUSH1 0x1 DUP2 MSTORE PUSH1 0x20 ADD DUP5 DUP2 MSTORE POP PUSH1 0xB PUSH0 DUP4 DUP2 MSTORE PUSH1 0x20 ADD SWAP1 DUP2 MSTORE PUSH1 0x20 ADD PUSH0 KECCAK256 PUSH0 DUP3 ADD MLOAD DUP2 PUSH0 ADD SSTORE PUSH1 0x20 DUP3 ADD MLOAD DUP2 PUSH1 0x1 ADD SWAP1 DUP2 PUSH2 0xF3B SWAP2 SWAP1 PUSH2 0x3546 JUMP JUMPDEST POP SWAP1 POP POP PUSH2 0xF49 ADDRESS DUP3 PUSH2 0x19AA JUMP JUMPDEST PUSH1 0x9 PUSH0 DUP2 SLOAD DUP1 SWAP3 SWAP2 SWAP1 PUSH2 0xF5B SWAP1 PUSH2 0x335F JUMP JUMPDEST SWAP2 SWAP1 POP SSTORE POP DUP1 PUSH32 0xA198E4D3A50CE07D020C16F3758076BC00BCDCC3FC1A43F55E7B8C28609D791F PUSH1 0x1 DUP6 PUSH1 0x40 MLOAD PUSH2 0xF93 SWAP3 SWAP2 SWAP1 PUSH2 0x364E JUMP JUMPDEST PUSH1 0x40 MLOAD DUP1 SWAP2 SUB SWAP1 LOG2 POP DUP1 DUP1 PUSH1 0x1 ADD SWAP2 POP POP PUSH2 0xED6 JUMP JUMPDEST POP POP POP JUMP JUMPDEST PUSH1 0x7 SLOAD DUP2 JUMP JUMPDEST PUSH0 PUSH1 0x6 PUSH0 SWAP1 SLOAD SWAP1 PUSH2 0x100 EXP SWAP1 DIV PUSH20 0xFFFFFFFFFFFFFFFFFFFFFFFFFFFFFFFFFFFFFFFF AND SWAP1 POP SWAP1 JUMP JUMPDEST PUSH1 0x60 PUSH1 0x1 DUP1 SLOAD PUSH2 0xFEB SWAP1 PUSH2 0x2DCE JUMP JUMPDEST DUP1 PUSH1 0x1F ADD PUSH1 0x20 DUP1 SWAP2 DIV MUL PUSH1 0x20 ADD PUSH1 0x40 MLOAD SWAP1 DUP2 ADD PUSH1 0x40 MSTORE DUP1 SWAP3 SWAP2 SWAP1 DUP2 DUP2 MSTORE PUSH1 0x20 ADD DUP3 DUP1 SLOAD PUSH2 0x1017 SWAP1 PUSH2 0x2DCE JUMP JUMPDEST DUP1 ISZERO PUSH2 0x1062 JUMPI DUP1 PUSH1 0x1F LT PUSH2 0x1039 JUMPI PUSH2 0x100 DUP1 DUP4 SLOAD DIV MUL DUP4 MSTORE SWAP2 PUSH1 0x20 ADD SWAP2 PUSH2 0x1062 JUMP JUMPDEST DUP3 ADD SWAP2 SWAP1 PUSH0 MSTORE PUSH1 0x20 PUSH0 KECCAK256 SWAP1 JUMPDEST DUP2 SLOAD DUP2 MSTORE SWAP1 PUSH1 0x1 ADD SWAP1 PUSH1 0x20 ADD DUP1 DUP4 GT PUSH2 0x1045 JUMPI DUP3 SWAP1 SUB PUSH1 0x1F AND DUP3 ADD SWAP2 JUMPDEST POP POP POP POP POP SWAP1 POP SWAP1 JUMP JUMPDEST PUSH2 0x107E PUSH2 0x1077 PUSH2 0x1454 JUMP JUMPDEST DUP4 DUP4 PUSH2 0x19C7 JUMP JUMPDEST POP POP JUMP JUMPDEST PUSH2 0x1093 PUSH2 0x108D PUSH2 0x1454 JUMP JUMPDEST DUP4 PUSH2 0x1B2E JUMP JUMPDEST PUSH2 0x10D2 JUMPI PUSH1 0x40 MLOAD PUSH32 0x8C379A000000000000000000000000000000000000000000000000000000000 DUP2 MSTORE PUSH1 0x4 ADD PUSH2 0x10C9 SWAP1 PUSH2 0x36EC JUMP JUMPDEST PUSH1 0x40 MLOAD DUP1 SWAP2 SUB SWAP1 REVERT JUMPDEST PUSH2 0x10DE DUP5 DUP5 DUP5 DUP5 PUSH2 0x1BC2 JUMP JUMPDEST POP POP POP POP JUMP JUMPDEST PUSH1 0x60 PUSH2 0x10EF DUP3 PUSH2 0x1409 JUMP JUMPDEST PUSH0 PUSH2 0x10F8 PUSH2 0x1C1E JUMP JUMPDEST SWAP1 POP PUSH0 DUP2 MLOAD GT PUSH2 0x1116 JUMPI PUSH1 0x40 MLOAD DUP1 PUSH1 0x20 ADD PUSH1 0x40 MSTORE DUP1 PUSH0 DUP2 MSTORE POP PUSH2 0x1141 JUMP JUMPDEST DUP1 PUSH2 0x1120 DUP5 PUSH2 0x1C34 JUMP JUMPDEST PUSH1 0x40 MLOAD PUSH1 0x20 ADD PUSH2 0x1131 SWAP3 SWAP2 SWAP1 PUSH2 0x3744 JUMP JUMPDEST PUSH1 0x40 MLOAD PUSH1 0x20 DUP2 DUP4 SUB SUB DUP2 MSTORE SWAP1 PUSH1 0x40 MSTORE JUMPDEST SWAP2 POP POP SWAP2 SWAP1 POP JUMP JUMPDEST PUSH1 0x9 SLOAD DUP2 JUMP JUMPDEST PUSH0 PUSH1 0x5 PUSH0 DUP5 PUSH20 0xFFFFFFFFFFFFFFFFFFFFFFFFFFFFFFFFFFFFFFFF AND PUSH20 0xFFFFFFFFFFFFFFFFFFFFFFFFFFFFFFFFFFFFFFFF AND DUP2 MSTORE PUSH1 0x20 ADD SWAP1 DUP2 MSTORE PUSH1 0x20 ADD PUSH0 KECCAK256 PUSH0 DUP4 PUSH20 0xFFFFFFFFFFFFFFFFFFFFFFFFFFFFFFFFFFFFFFFF AND PUSH20 0xFFFFFFFFFFFFFFFFFFFFFFFFFFFFFFFFFFFFFFFF AND DUP2 MSTORE PUSH1 0x20 ADD SWAP1 DUP2 MSTORE PUSH1 0x20 ADD PUSH0 KECCAK256 PUSH0 SWAP1 SLOAD SWAP1 PUSH2 0x100 EXP SWAP1 DIV PUSH1 0xFF AND SWAP1 POP SWAP3 SWAP2 POP POP JUMP JUMPDEST PUSH2 0x11E5 PUSH2 0x1571 JUMP JUMPDEST PUSH0 PUSH20 0xFFFFFFFFFFFFFFFFFFFFFFFFFFFFFFFFFFFFFFFF AND DUP2 PUSH20 0xFFFFFFFFFFFFFFFFFFFFFFFFFFFFFFFFFFFFFFFF AND SUB PUSH2 0x1255 JUMPI PUSH0 PUSH1 0x40 MLOAD PUSH32 0x1E4FBDF700000000000000000000000000000000000000000000000000000000 DUP2 MSTORE PUSH1 0x4 ADD PUSH2 0x124C SWAP2 SWAP1 PUSH2 0x27BA JUMP JUMPDEST PUSH1 0x40 MLOAD DUP1 SWAP2 SUB SWAP1 REVERT JUMPDEST PUSH2 0x125E DUP2 PUSH2 0x18E7 JUMP JUMPDEST POP JUMP JUMPDEST PUSH1 0x60 PUSH0 PUSH0 SWAP1 POP PUSH0 PUSH0 SWAP1 POP JUMPDEST PUSH1 0xA SLOAD DUP2 LT ISZERO PUSH2 0x12C7 JUMPI PUSH2 0x127F DUP2 PUSH2 0x1739 JUMP JUMPDEST DUP1 ISZERO PUSH2 0x12A6 JUMPI POP PUSH1 0xC PUSH0 DUP3 DUP2 MSTORE PUSH1 0x20 ADD SWAP1 DUP2 MSTORE PUSH1 0x20 ADD PUSH0 KECCAK256 PUSH0 SWAP1 SLOAD SWAP1 PUSH2 0x100 EXP SWAP1 DIV PUSH1 0xFF AND ISZERO JUMPDEST ISZERO PUSH2 0x12BA JUMPI DUP2 DUP1 PUSH2 0x12B6 SWAP1 PUSH2 0x335F JUMP JUMPDEST SWAP3 POP POP JUMPDEST DUP1 DUP1 PUSH1 0x1 ADD SWAP2 POP POP PUSH2 0x126C JUMP JUMPDEST POP PUSH0 DUP2 PUSH8 0xFFFFFFFFFFFFFFFF DUP2 GT ISZERO PUSH2 0x12E3 JUMPI PUSH2 0x12E2 PUSH2 0x2997 JUMP JUMPDEST JUMPDEST PUSH1 0x40 MLOAD SWAP1 DUP1 DUP3 MSTORE DUP1 PUSH1 0x20 MUL PUSH1 0x20 ADD DUP3 ADD PUSH1 0x40 MSTORE DUP1 ISZERO PUSH2 0x1311 JUMPI DUP2 PUSH1 0x20 ADD PUSH1 0x20 DUP3 MUL DUP1 CALLDATASIZE DUP4 CALLDATACOPY DUP1 DUP3 ADD SWAP2 POP POP SWAP1 POP JUMPDEST POP SWAP1 POP PUSH0 PUSH0 SWAP1 POP PUSH0 PUSH0 SWAP1 POP JUMPDEST PUSH1 0xA SLOAD DUP2 LT ISZERO PUSH2 0x1396 JUMPI PUSH2 0x1330 DUP2 PUSH2 0x1739 JUMP JUMPDEST DUP1 ISZERO PUSH2 0x1357 JUMPI POP PUSH1 0xC PUSH0 DUP3 DUP2 MSTORE PUSH1 0x20 ADD SWAP1 DUP2 MSTORE PUSH1 0x20 ADD PUSH0 KECCAK256 PUSH0 SWAP1 SLOAD SWAP1 PUSH2 0x100 EXP SWAP1 DIV PUSH1 0xFF AND ISZERO JUMPDEST ISZERO PUSH2 0x1389 JUMPI DUP1 DUP4 DUP4 DUP1 PUSH2 0x1369 SWAP1 PUSH2 0x335F JUMP JUMPDEST SWAP5 POP DUP2 MLOAD DUP2 LT PUSH2 0x137C JUMPI PUSH2 0x137B PUSH2 0x3767 JUMP JUMPDEST JUMPDEST PUSH1 0x20 MUL PUSH1 0x20 ADD ADD DUP2 DUP2 MSTORE POP POP JUMPDEST DUP1 DUP1 PUSH1 0x1 ADD SWAP2 POP POP PUSH2 0x131D JUMP JUMPDEST POP DUP2 SWAP4 POP POP POP POP SWAP1 JUMP JUMPDEST PUSH0 PUSH32 0x1FFC9A700000000000000000000000000000000000000000000000000000000 PUSH28 0xFFFFFFFFFFFFFFFFFFFFFFFFFFFFFFFFFFFFFFFFFFFFFFFFFFFFFFFF NOT AND DUP3 PUSH28 0xFFFFFFFFFFFFFFFFFFFFFFFFFFFFFFFFFFFFFFFFFFFFFFFFFFFFFFFF NOT AND EQ SWAP1 POP SWAP2 SWAP1 POP JUMP JUMPDEST PUSH2 0x1412 DUP2 PUSH2 0x1739 JUMP JUMPDEST PUSH2 0x1451 JUMPI PUSH1 0x40 MLOAD PUSH32 0x8C379A000000000000000000000000000000000000000000000000000000000 DUP2 MSTORE PUSH1 0x4 ADD PUSH2 0x1448 SWAP1 PUSH2 0x30C2 JUMP JUMPDEST PUSH1 0x40 MLOAD DUP1 SWAP2 SUB SWAP1 REVERT JUMPDEST POP JUMP JUMPDEST PUSH0 CALLER SWAP1 POP SWAP1 JUMP JUMPDEST DUP2 PUSH1 0x4 PUSH0 DUP4 DUP2 MSTORE PUSH1 0x20 ADD SWAP1 DUP2 MSTORE PUSH1 0x20 ADD PUSH0 KECCAK256 PUSH0 PUSH2 0x100 EXP DUP2 SLOAD DUP2 PUSH20 0xFFFFFFFFFFFFFFFFFFFFFFFFFFFFFFFFFFFFFFFF MUL NOT AND SWAP1 DUP4 PUSH20 0xFFFFFFFFFFFFFFFFFFFFFFFFFFFFFFFFFFFFFFFF AND MUL OR SWAP1 SSTORE POP DUP1 DUP3 PUSH20 0xFFFFFFFFFFFFFFFFFFFFFFFFFFFFFFFFFFFFFFFF AND PUSH2 0x14CB DUP4 PUSH2 0xB98 JUMP JUMPDEST PUSH20 0xFFFFFFFFFFFFFFFFFFFFFFFFFFFFFFFFFFFFFFFF AND PUSH32 0x8C5BE1E5EBEC7D5BD14F71427D1E84F3DD0314C0F7B2291E5B200AC8C7C3B925 PUSH1 0x40 MLOAD PUSH1 0x40 MLOAD DUP1 SWAP2 SUB SWAP1 LOG4 POP POP JUMP JUMPDEST PUSH2 0x1522 PUSH2 0x151C PUSH2 0x1454 JUMP JUMPDEST DUP3 PUSH2 0x1B2E JUMP JUMPDEST PUSH2 0x1561 JUMPI PUSH1 0x40 MLOAD PUSH32 0x8C379A000000000000000000000000000000000000000000000000000000000 DUP2 MSTORE PUSH1 0x4 ADD PUSH2 0x1558 SWAP1 PUSH2 0x36EC JUMP JUMPDEST PUSH1 0x40 MLOAD DUP1 SWAP2 SUB SWAP1 REVERT JUMPDEST PUSH2 0x156C DUP4 DUP4 DUP4 PUSH2 0x1835 JUMP JUMPDEST POP POP POP JUMP JUMPDEST PUSH2 0x1579 PUSH2 0x1454 JUMP JUMPDEST PUSH20 0xFFFFFFFFFFFFFFFFFFFFFFFFFFFFFFFFFFFFFFFF AND PUSH2 0x1597 PUSH2 0xFB4 JUMP JUMPDEST PUSH20 0xFFFFFFFFFFFFFFFFFFFFFFFFFFFFFFFFFFFFFFFF AND EQ PUSH2 0x15F6 JUMPI PUSH2 0x15BA PUSH2 0x1454 JUMP JUMPDEST PUSH1 0x40 MLOAD PUSH32 0x118CDAA700000000000000000000000000000000000000000000000000000000 DUP2 MSTORE PUSH1 0x4 ADD PUSH2 0x15ED SWAP2 SWAP1 PUSH2 0x27BA JUMP JUMPDEST PUSH1 0x40 MLOAD DUP1 SWAP2 SUB SWAP1 REVERT JUMPDEST JUMP JUMPDEST PUSH0 PUSH2 0x1602 DUP3 PUSH2 0xB98 JUMP JUMPDEST SWAP1 POP PUSH2 0x1611 DUP2 PUSH0 DUP5 PUSH1 0x1 PUSH2 0x1CFE JUMP JUMPDEST PUSH2 0x161A DUP3 PUSH2 0xB98 JUMP JUMPDEST SWAP1 POP PUSH1 0x4 PUSH0 DUP4 DUP2 MSTORE PUSH1 0x20 ADD SWAP1 DUP2 MSTORE PUSH1 0x20 ADD PUSH0 KECCAK256 PUSH0 PUSH2 0x100 EXP DUP2 SLOAD SWAP1 PUSH20 0xFFFFFFFFFFFFFFFFFFFFFFFFFFFFFFFFFFFFFFFF MUL NOT AND SWAP1 SSTORE PUSH1 0x1 PUSH1 0x3 PUSH0 DUP4 PUSH20 0xFFFFFFFFFFFFFFFFFFFFFFFFFFFFFFFFFFFFFFFF AND PUSH20 0xFFFFFFFFFFFFFFFFFFFFFFFFFFFFFFFFFFFFFFFF AND DUP2 MSTORE PUSH1 0x20 ADD SWAP1 DUP2 MSTORE PUSH1 0x20 ADD PUSH0 KECCAK256 PUSH0 DUP3 DUP3 SLOAD SUB SWAP3 POP POP DUP2 SWAP1 SSTORE POP PUSH1 0x2 PUSH0 DUP4 DUP2 MSTORE PUSH1 0x20 ADD SWAP1 DUP2 MSTORE PUSH1 0x20 ADD PUSH0 KECCAK256 PUSH0 PUSH2 0x100 EXP DUP2 SLOAD SWAP1 PUSH20 0xFFFFFFFFFFFFFFFFFFFFFFFFFFFFFFFFFFFFFFFF MUL NOT AND SWAP1 SSTORE DUP2 PUSH0 PUSH20 0xFFFFFFFFFFFFFFFFFFFFFFFFFFFFFFFFFFFFFFFF AND DUP3 PUSH20 0xFFFFFFFFFFFFFFFFFFFFFFFFFFFFFFFFFFFFFFFF AND PUSH32 0xDDF252AD1BE2C89B69C2B068FC378DAA952BA7F163C4A11628F55A4DF523B3EF PUSH1 0x40 MLOAD PUSH1 0x40 MLOAD DUP1 SWAP2 SUB SWAP1 LOG4 PUSH2 0x1735 DUP2 PUSH0 DUP5 PUSH1 0x1 PUSH2 0x1D04 JUMP JUMPDEST POP POP JUMP JUMPDEST PUSH0 PUSH0 PUSH20 0xFFFFFFFFFFFFFFFFFFFFFFFFFFFFFFFFFFFFFFFF AND PUSH2 0x175A DUP4 PUSH2 0x1779 JUMP JUMPDEST PUSH20 0xFFFFFFFFFFFFFFFFFFFFFFFFFFFFFFFFFFFFFFFF AND EQ ISZERO SWAP1 POP SWAP2 SWAP1 POP JUMP JUMPDEST PUSH0 PUSH1 0x2 PUSH0 DUP4 DUP2 MSTORE PUSH1 0x20 ADD SWAP1 DUP2 MSTORE PUSH1 0x20 ADD PUSH0 KECCAK256 PUSH0 SWAP1 SLOAD SWAP1 PUSH2 0x100 EXP SWAP1 DIV PUSH20 0xFFFFFFFFFFFFFFFFFFFFFFFFFFFFFFFFFFFFFFFF AND SWAP1 POP SWAP2 SWAP1 POP JUMP JUMPDEST PUSH0 PUSH0 PUSH0 SWAP1 POP JUMPDEST PUSH1 0xA SLOAD DUP2 LT ISZERO PUSH2 0x180D JUMPI PUSH2 0x17CB DUP2 PUSH2 0x1739 JUMP JUMPDEST DUP1 ISZERO PUSH2 0x17F2 JUMPI POP PUSH1 0xC PUSH0 DUP3 DUP2 MSTORE PUSH1 0x20 ADD SWAP1 DUP2 MSTORE PUSH1 0x20 ADD PUSH0 KECCAK256 PUSH0 SWAP1 SLOAD SWAP1 PUSH2 0x100 EXP SWAP1 DIV PUSH1 0xFF AND ISZERO JUMPDEST ISZERO PUSH2 0x1800 JUMPI DUP1 SWAP2 POP POP PUSH2 0x1832 JUMP JUMPDEST DUP1 DUP1 PUSH1 0x1 ADD SWAP2 POP POP PUSH2 0x17B8 JUMP JUMPDEST POP PUSH32 0xFFFFFFFFFFFFFFFFFFFFFFFFFFFFFFFFFFFFFFFFFFFFFFFFFFFFFFFFFFFFFFFF SWAP1 POP JUMPDEST SWAP1 JUMP JUMPDEST ADDRESS PUSH20 0xFFFFFFFFFFFFFFFFFFFFFFFFFFFFFFFFFFFFFFFF AND DUP4 PUSH20 0xFFFFFFFFFFFFFFFFFFFFFFFFFFFFFFFFFFFFFFFF AND EQ PUSH2 0x18D7 JUMPI PUSH0 PUSH20 0xFFFFFFFFFFFFFFFFFFFFFFFFFFFFFFFFFFFFFFFF AND DUP4 PUSH20 0xFFFFFFFFFFFFFFFFFFFFFFFFFFFFFFFFFFFFFFFF AND EQ PUSH2 0x18D6 JUMPI PUSH1 0x40 MLOAD PUSH32 0x8C379A000000000000000000000000000000000000000000000000000000000 DUP2 MSTORE PUSH1 0x4 ADD PUSH2 0x18CD SWAP1 PUSH2 0x2F8A JUMP JUMPDEST PUSH1 0x40 MLOAD DUP1 SWAP2 SUB SWAP1 REVERT JUMPDEST JUMPDEST PUSH2 0x18E2 DUP4 DUP4 DUP4 PUSH2 0x1D0A JUMP JUMPDEST POP POP POP JUMP JUMPDEST PUSH0 PUSH1 0x6 PUSH0 SWAP1 SLOAD SWAP1 PUSH2 0x100 EXP SWAP1 DIV PUSH20 0xFFFFFFFFFFFFFFFFFFFFFFFFFFFFFFFFFFFFFFFF AND SWAP1 POP DUP2 PUSH1 0x6 PUSH0 PUSH2 0x100 EXP DUP2 SLOAD DUP2 PUSH20 0xFFFFFFFFFFFFFFFFFFFFFFFFFFFFFFFFFFFFFFFF MUL NOT AND SWAP1 DUP4 PUSH20 0xFFFFFFFFFFFFFFFFFFFFFFFFFFFFFFFFFFFFFFFF AND MUL OR SWAP1 SSTORE POP DUP2 PUSH20 0xFFFFFFFFFFFFFFFFFFFFFFFFFFFFFFFFFFFFFFFF AND DUP2 PUSH20 0xFFFFFFFFFFFFFFFFFFFFFFFFFFFFFFFFFFFFFFFF AND PUSH32 0x8BE0079C531659141344CD1FD0A4F28419497F9722A3DAAFE3B4186F6B6457E0 PUSH1 0x40 MLOAD PUSH1 0x40 MLOAD DUP1 SWAP2 SUB SWAP1 LOG3 POP POP JUMP JUMPDEST PUSH2 0x19C3 DUP3 DUP3 PUSH1 0x40 MLOAD DUP1 PUSH1 0x20 ADD PUSH1 0x40 MSTORE DUP1 PUSH0 DUP2 MSTORE POP PUSH2 0x1FF6 JUMP JUMPDEST POP POP JUMP JUMPDEST DUP2 PUSH20 0xFFFFFFFFFFFFFFFFFFFFFFFFFFFFFFFFFFFFFFFF AND DUP4 PUSH20 0xFFFFFFFFFFFFFFFFFFFFFFFFFFFFFFFFFFFFFFFF AND SUB PUSH2 0x1A35 JUMPI PUSH1 0x40 MLOAD PUSH32 0x8C379A000000000000000000000000000000000000000000000000000000000 DUP2 MSTORE PUSH1 0x4 ADD PUSH2 0x1A2C SWAP1 PUSH2 0x37DE JUMP JUMPDEST PUSH1 0x40 MLOAD DUP1 SWAP2 SUB SWAP1 REVERT JUMPDEST DUP1 PUSH1 0x5 PUSH0 DUP6 PUSH20 0xFFFFFFFFFFFFFFFFFFFFFFFFFFFFFFFFFFFFFFFF AND PUSH20 0xFFFFFFFFFFFFFFFFFFFFFFFFFFFFFFFFFFFFFFFF AND DUP2 MSTORE PUSH1 0x20 ADD SWAP1 DUP2 MSTORE PUSH1 0x20 ADD PUSH0 KECCAK256 PUSH0 DUP5 PUSH20 0xFFFFFFFFFFFFFFFFFFFFFFFFFFFFFFFFFFFFFFFF AND PUSH20 0xFFFFFFFFFFFFFFFFFFFFFFFFFFFFFFFFFFFFFFFF AND DUP2 MSTORE PUSH1 0x20 ADD SWAP1 DUP2 MSTORE PUSH1 0x20 ADD PUSH0 KECCAK256 PUSH0 PUSH2 0x100 EXP DUP2 SLOAD DUP2 PUSH1 0xFF MUL NOT AND SWAP1 DUP4 ISZERO ISZERO MUL OR SWAP1 SSTORE POP DUP2 PUSH20 0xFFFFFFFFFFFFFFFFFFFFFFFFFFFFFFFFFFFFFFFF AND DUP4 PUSH20 0xFFFFFFFFFFFFFFFFFFFFFFFFFFFFFFFFFFFFFFFF AND PUSH32 0x17307EAB39AB6107E8899845AD3D59BD9653F200F220920489CA2B5937696C31 DUP4 PUSH1 0x40 MLOAD PUSH2 0x1B21 SWAP2 SWAP1 PUSH2 0x2674 JUMP JUMPDEST PUSH1 0x40 MLOAD DUP1 SWAP2 SUB SWAP1 LOG3 POP POP POP JUMP JUMPDEST PUSH0 PUSH0 PUSH2 0x1B39 DUP4 PUSH2 0xB98 JUMP JUMPDEST SWAP1 POP DUP1 PUSH20 0xFFFFFFFFFFFFFFFFFFFFFFFFFFFFFFFFFFFFFFFF AND DUP5 PUSH20 0xFFFFFFFFFFFFFFFFFFFFFFFFFFFFFFFFFFFFFFFF AND EQ DUP1 PUSH2 0x1B7B JUMPI POP PUSH2 0x1B7A DUP2 DUP6 PUSH2 0x114F JUMP JUMPDEST JUMPDEST DUP1 PUSH2 0x1BB9 JUMPI POP DUP4 PUSH20 0xFFFFFFFFFFFFFFFFFFFFFFFFFFFFFFFFFFFFFFFF AND PUSH2 0x1BA1 DUP5 PUSH2 0x719 JUMP JUMPDEST PUSH20 0xFFFFFFFFFFFFFFFFFFFFFFFFFFFFFFFFFFFFFFFF AND EQ JUMPDEST SWAP2 POP POP SWAP3 SWAP2 POP POP JUMP JUMPDEST PUSH2 0x1BCD DUP5 DUP5 DUP5 PUSH2 0x1835 JUMP JUMPDEST PUSH2 0x1BD9 DUP5 DUP5 DUP5 DUP5 PUSH2 0x2050 JUMP JUMPDEST PUSH2 0x1C18 JUMPI PUSH1 0x40 MLOAD PUSH32 0x8C379A000000000000000000000000000000000000000000000000000000000 DUP2 MSTORE PUSH1 0x4 ADD PUSH2 0x1C0F SWAP1 PUSH2 0x386C JUMP JUMPDEST PUSH1 0x40 MLOAD DUP1 SWAP2 SUB SWAP1 REVERT JUMPDEST POP POP POP POP JUMP JUMPDEST PUSH1 0x60 PUSH1 0x40 MLOAD DUP1 PUSH1 0x20 ADD PUSH1 0x40 MSTORE DUP1 PUSH0 DUP2 MSTORE POP SWAP1 POP SWAP1 JUMP JUMPDEST PUSH1 0x60 PUSH0 PUSH1 0x1 PUSH2 0x1C42 DUP5 PUSH2 0x21D2 JUMP JUMPDEST ADD SWAP1 POP PUSH0 DUP2 PUSH8 0xFFFFFFFFFFFFFFFF DUP2 GT ISZERO PUSH2 0x1C60 JUMPI PUSH2 0x1C5F PUSH2 0x2997 JUMP JUMPDEST JUMPDEST PUSH1 0x40 MLOAD SWAP1 DUP1 DUP3 MSTORE DUP1 PUSH1 0x1F ADD PUSH1 0x1F NOT AND PUSH1 0x20 ADD DUP3 ADD PUSH1 0x40 MSTORE DUP1 ISZERO PUSH2 0x1C92 JUMPI DUP2 PUSH1 0x20 ADD PUSH1 0x1 DUP3 MUL DUP1 CALLDATASIZE DUP4 CALLDATACOPY DUP1 DUP3 ADD SWAP2 POP POP SWAP1 POP JUMPDEST POP SWAP1 POP PUSH0 DUP3 PUSH1 0x20 ADD DUP3 ADD SWAP1 POP JUMPDEST PUSH1 0x1 ISZERO PUSH2 0x1CF3 JUMPI DUP1 DUP1 PUSH1 0x1 SWAP1 SUB SWAP2 POP POP PUSH32 0x3031323334353637383961626364656600000000000000000000000000000000 PUSH1 0xA DUP7 MOD BYTE DUP2 MSTORE8 PUSH1 0xA DUP6 DUP2 PUSH2 0x1CE8 JUMPI PUSH2 0x1CE7 PUSH2 0x388A JUMP JUMPDEST JUMPDEST DIV SWAP5 POP PUSH0 DUP6 SUB PUSH2 0x1C9F JUMPI JUMPDEST DUP2 SWAP4 POP POP POP POP SWAP2 SWAP1 POP JUMP JUMPDEST POP POP POP POP JUMP JUMPDEST POP POP POP POP JUMP JUMPDEST DUP3 PUSH20 0xFFFFFFFFFFFFFFFFFFFFFFFFFFFFFFFFFFFFFFFF AND PUSH2 0x1D2A DUP3 PUSH2 0xB98 JUMP JUMPDEST PUSH20 0xFFFFFFFFFFFFFFFFFFFFFFFFFFFFFFFFFFFFFFFF AND EQ PUSH2 0x1D80 JUMPI PUSH1 0x40 MLOAD PUSH32 0x8C379A000000000000000000000000000000000000000000000000000000000 DUP2 MSTORE PUSH1 0x4 ADD PUSH2 0x1D77 SWAP1 PUSH2 0x3927 JUMP JUMPDEST PUSH1 0x40 MLOAD DUP1 SWAP2 SUB SWAP1 REVERT JUMPDEST PUSH0 PUSH20 0xFFFFFFFFFFFFFFFFFFFFFFFFFFFFFFFFFFFFFFFF AND DUP3 PUSH20 0xFFFFFFFFFFFFFFFFFFFFFFFFFFFFFFFFFFFFFFFF AND SUB PUSH2 0x1DEE JUMPI PUSH1 0x40 MLOAD PUSH32 0x8C379A000000000000000000000000000000000000000000000000000000000 DUP2 MSTORE PUSH1 0x4 ADD PUSH2 0x1DE5 SWAP1 PUSH2 0x39B5 JUMP JUMPDEST PUSH1 0x40 MLOAD DUP1 SWAP2 SUB SWAP1 REVERT JUMPDEST PUSH2 0x1DFB DUP4 DUP4 DUP4 PUSH1 0x1 PUSH2 0x1CFE JUMP JUMPDEST DUP3 PUSH20 0xFFFFFFFFFFFFFFFFFFFFFFFFFFFFFFFFFFFFFFFF AND PUSH2 0x1E1B DUP3 PUSH2 0xB98 JUMP JUMPDEST PUSH20 0xFFFFFFFFFFFFFFFFFFFFFFFFFFFFFFFFFFFFFFFF AND EQ PUSH2 0x1E71 JUMPI PUSH1 0x40 MLOAD PUSH32 0x8C379A000000000000000000000000000000000000000000000000000000000 DUP2 MSTORE PUSH1 0x4 ADD PUSH2 0x1E68 SWAP1 PUSH2 0x3927 JUMP JUMPDEST PUSH1 0x40 MLOAD DUP1 SWAP2 SUB SWAP1 REVERT JUMPDEST PUSH1 0x4 PUSH0 DUP3 DUP2 MSTORE PUSH1 0x20 ADD SWAP1 DUP2 MSTORE PUSH1 0x20 ADD PUSH0 KECCAK256 PUSH0 PUSH2 0x100 EXP DUP2 SLOAD SWAP1 PUSH20 0xFFFFFFFFFFFFFFFFFFFFFFFFFFFFFFFFFFFFFFFF MUL NOT AND SWAP1 SSTORE PUSH1 0x1 PUSH1 0x3 PUSH0 DUP6 PUSH20 0xFFFFFFFFFFFFFFFFFFFFFFFFFFFFFFFFFFFFFFFF AND PUSH20 0xFFFFFFFFFFFFFFFFFFFFFFFFFFFFFFFFFFFFFFFF AND DUP2 MSTORE PUSH1 0x20 ADD SWAP1 DUP2 MSTORE PUSH1 0x20 ADD PUSH0 KECCAK256 PUSH0 DUP3 DUP3 SLOAD SUB SWAP3 POP POP DUP2 SWAP1 SSTORE POP PUSH1 0x1 PUSH1 0x3 PUSH0 DUP5 PUSH20 0xFFFFFFFFFFFFFFFFFFFFFFFFFFFFFFFFFFFFFFFF AND PUSH20 0xFFFFFFFFFFFFFFFFFFFFFFFFFFFFFFFFFFFFFFFF AND DUP2 MSTORE PUSH1 0x20 ADD SWAP1 DUP2 MSTORE PUSH1 0x20 ADD PUSH0 KECCAK256 PUSH0 DUP3 DUP3 SLOAD ADD SWAP3 POP POP DUP2 SWAP1 SSTORE POP DUP2 PUSH1 0x2 PUSH0 DUP4 DUP2 MSTORE PUSH1 0x20 ADD SWAP1 DUP2 MSTORE PUSH1 0x20 ADD PUSH0 KECCAK256 PUSH0 PUSH2 0x100 EXP DUP2 SLOAD DUP2 PUSH20 0xFFFFFFFFFFFFFFFFFFFFFFFFFFFFFFFFFFFFFFFF MUL NOT AND SWAP1 DUP4 PUSH20 0xFFFFFFFFFFFFFFFFFFFFFFFFFFFFFFFFFFFFFFFF AND MUL OR SWAP1 SSTORE POP DUP1 DUP3 PUSH20 0xFFFFFFFFFFFFFFFFFFFFFFFFFFFFFFFFFFFFFFFF AND DUP5 PUSH20 0xFFFFFFFFFFFFFFFFFFFFFFFFFFFFFFFFFFFFFFFF AND PUSH32 0xDDF252AD1BE2C89B69C2B068FC378DAA952BA7F163C4A11628F55A4DF523B3EF PUSH1 0x40 MLOAD PUSH1 0x40 MLOAD DUP1 SWAP2 SUB SWAP1 LOG4 PUSH2 0x1FF1 DUP4 DUP4 DUP4 PUSH1 0x1 PUSH2 0x1D04 JUMP JUMPDEST POP POP POP JUMP JUMPDEST PUSH2 0x2000 DUP4 DUP4 PUSH2 0x2323 JUMP JUMPDEST PUSH2 0x200C PUSH0 DUP5 DUP5 DUP5 PUSH2 0x2050 JUMP JUMPDEST PUSH2 0x204B JUMPI PUSH1 0x40 MLOAD PUSH32 0x8C379A000000000000000000000000000000000000000000000000000000000 DUP2 MSTORE PUSH1 0x4 ADD PUSH2 0x2042 SWAP1 PUSH2 0x386C JUMP JUMPDEST PUSH1 0x40 MLOAD DUP1 SWAP2 SUB SWAP1 REVERT JUMPDEST POP POP POP JUMP JUMPDEST PUSH0 PUSH2 0x2070 DUP5 PUSH20 0xFFFFFFFFFFFFFFFFFFFFFFFFFFFFFFFFFFFFFFFF AND PUSH2 0x2536 JUMP JUMPDEST ISZERO PUSH2 0x21C5 JUMPI DUP4 PUSH20 0xFFFFFFFFFFFFFFFFFFFFFFFFFFFFFFFFFFFFFFFF AND PUSH4 0x150B7A02 PUSH2 0x2099 PUSH2 0x1454 JUMP JUMPDEST DUP8 DUP7 DUP7 PUSH1 0x40 MLOAD DUP6 PUSH4 0xFFFFFFFF AND PUSH1 0xE0 SHL DUP2 MSTORE PUSH1 0x4 ADD PUSH2 0x20BB SWAP5 SWAP4 SWAP3 SWAP2 SWAP1 PUSH2 0x3A25 JUMP JUMPDEST PUSH1 0x20 PUSH1 0x40 MLOAD DUP1 DUP4 SUB DUP2 PUSH0 DUP8 GAS CALL SWAP3 POP POP POP DUP1 ISZERO PUSH2 0x20F6 JUMPI POP PUSH1 0x40 MLOAD RETURNDATASIZE PUSH1 0x1F NOT PUSH1 0x1F DUP3 ADD AND DUP3 ADD DUP1 PUSH1 0x40 MSTORE POP DUP2 ADD SWAP1 PUSH2 0x20F3 SWAP2 SWAP1 PUSH2 0x3A83 JUMP JUMPDEST PUSH1 0x1 JUMPDEST PUSH2 0x2175 JUMPI RETURNDATASIZE DUP1 PUSH0 DUP2 EQ PUSH2 0x2124 JUMPI PUSH1 0x40 MLOAD SWAP2 POP PUSH1 0x1F NOT PUSH1 0x3F RETURNDATASIZE ADD AND DUP3 ADD PUSH1 0x40 MSTORE RETURNDATASIZE DUP3 MSTORE RETURNDATASIZE PUSH0 PUSH1 0x20 DUP5 ADD RETURNDATACOPY PUSH2 0x2129 JUMP JUMPDEST PUSH1 0x60 SWAP2 POP JUMPDEST POP PUSH0 DUP2 MLOAD SUB PUSH2 0x216D JUMPI PUSH1 0x40 MLOAD PUSH32 0x8C379A000000000000000000000000000000000000000000000000000000000 DUP2 MSTORE PUSH1 0x4 ADD PUSH2 0x2164 SWAP1 PUSH2 0x386C JUMP JUMPDEST PUSH1 0x40 MLOAD DUP1 SWAP2 SUB SWAP1 REVERT JUMPDEST DUP1 MLOAD DUP2 PUSH1 0x20 ADD REVERT JUMPDEST PUSH4 0x150B7A02 PUSH1 0xE0 SHL PUSH28 0xFFFFFFFFFFFFFFFFFFFFFFFFFFFFFFFFFFFFFFFFFFFFFFFFFFFFFFFF NOT AND DUP2 PUSH28 0xFFFFFFFFFFFFFFFFFFFFFFFFFFFFFFFFFFFFFFFFFFFFFFFFFFFFFFFF NOT AND EQ SWAP2 POP POP PUSH2 0x21CA JUMP JUMPDEST PUSH1 0x1 SWAP1 POP JUMPDEST SWAP5 SWAP4 POP POP POP POP JUMP JUMPDEST PUSH0 PUSH0 PUSH0 SWAP1 POP PUSH27 0x184F03E93FF9F4DAA797ED6E38ED64BF6A1F010000000000000000 DUP4 LT PUSH2 0x222E JUMPI PUSH27 0x184F03E93FF9F4DAA797ED6E38ED64BF6A1F010000000000000000 DUP4 DUP2 PUSH2 0x2224 JUMPI PUSH2 0x2223 PUSH2 0x388A JUMP JUMPDEST JUMPDEST DIV SWAP3 POP PUSH1 0x40 DUP2 ADD SWAP1 POP JUMPDEST PUSH14 0x4EE2D6D415B85ACEF8100000000 DUP4 LT PUSH2 0x226B JUMPI PUSH14 0x4EE2D6D415B85ACEF8100000000 DUP4 DUP2 PUSH2 0x2261 JUMPI PUSH2 0x2260 PUSH2 0x388A JUMP JUMPDEST JUMPDEST DIV SWAP3 POP PUSH1 0x20 DUP2 ADD SWAP1 POP JUMPDEST PUSH7 0x2386F26FC10000 DUP4 LT PUSH2 0x229A JUMPI PUSH7 0x2386F26FC10000 DUP4 DUP2 PUSH2 0x2290 JUMPI PUSH2 0x228F PUSH2 0x388A JUMP JUMPDEST JUMPDEST DIV SWAP3 POP PUSH1 0x10 DUP2 ADD SWAP1 POP JUMPDEST PUSH4 0x5F5E100 DUP4 LT PUSH2 0x22C3 JUMPI PUSH4 0x5F5E100 DUP4 DUP2 PUSH2 0x22B9 JUMPI PUSH2 0x22B8 PUSH2 0x388A JUMP JUMPDEST JUMPDEST DIV SWAP3 POP PUSH1 0x8 DUP2 ADD SWAP1 POP JUMPDEST PUSH2 0x2710 DUP4 LT PUSH2 0x22E8 JUMPI PUSH2 0x2710 DUP4 DUP2 PUSH2 0x22DE JUMPI PUSH2 0x22DD PUSH2 0x388A JUMP JUMPDEST JUMPDEST DIV SWAP3 POP PUSH1 0x4 DUP2 ADD SWAP1 POP JUMPDEST PUSH1 0x64 DUP4 LT PUSH2 0x230B JUMPI PUSH1 0x64 DUP4 DUP2 PUSH2 0x2301 JUMPI PUSH2 0x2300 PUSH2 0x388A JUMP JUMPDEST JUMPDEST DIV SWAP3 POP PUSH1 0x2 DUP2 ADD SWAP1 POP JUMPDEST PUSH1 0xA DUP4 LT PUSH2 0x231A JUMPI PUSH1 0x1 DUP2 ADD SWAP1 POP JUMPDEST DUP1 SWAP2 POP POP SWAP2 SWAP1 POP JUMP JUMPDEST PUSH0 PUSH20 0xFFFFFFFFFFFFFFFFFFFFFFFFFFFFFFFFFFFFFFFF AND DUP3 PUSH20 0xFFFFFFFFFFFFFFFFFFFFFFFFFFFFFFFFFFFFFFFF AND SUB PUSH2 0x2391 JUMPI PUSH1 0x40 MLOAD PUSH32 0x8C379A000000000000000000000000000000000000000000000000000000000 DUP2 MSTORE PUSH1 0x4 ADD PUSH2 0x2388 SWAP1 PUSH2 0x3AF8 JUMP JUMPDEST PUSH1 0x40 MLOAD DUP1 SWAP2 SUB SWAP1 REVERT JUMPDEST PUSH2 0x239A DUP2 PUSH2 0x1739 JUMP JUMPDEST ISZERO PUSH2 0x23DA JUMPI PUSH1 0x40 MLOAD PUSH32 0x8C379A000000000000000000000000000000000000000000000000000000000 DUP2 MSTORE PUSH1 0x4 ADD PUSH2 0x23D1 SWAP1 PUSH2 0x3B60 JUMP JUMPDEST PUSH1 0x40 MLOAD DUP1 SWAP2 SUB SWAP1 REVERT JUMPDEST PUSH2 0x23E7 PUSH0 DUP4 DUP4 PUSH1 0x1 PUSH2 0x1CFE JUMP JUMPDEST PUSH2 0x23F0 DUP2 PUSH2 0x1739 JUMP JUMPDEST ISZERO PUSH2 0x2430 JUMPI PUSH1 0x40 MLOAD PUSH32 0x8C379A000000000000000000000000000000000000000000000000000000000 DUP2 MSTORE PUSH1 0x4 ADD PUSH2 0x2427 SWAP1 PUSH2 0x3B60 JUMP JUMPDEST PUSH1 0x40 MLOAD DUP1 SWAP2 SUB SWAP1 REVERT JUMPDEST PUSH1 0x1 PUSH1 0x3 PUSH0 DUP5 PUSH20 0xFFFFFFFFFFFFFFFFFFFFFFFFFFFFFFFFFFFFFFFF AND PUSH20 0xFFFFFFFFFFFFFFFFFFFFFFFFFFFFFFFFFFFFFFFF AND DUP2 MSTORE PUSH1 0x20 ADD SWAP1 DUP2 MSTORE PUSH1 0x20 ADD PUSH0 KECCAK256 PUSH0 DUP3 DUP3 SLOAD ADD SWAP3 POP POP DUP2 SWAP1 SSTORE POP DUP2 PUSH1 0x2 PUSH0 DUP4 DUP2 MSTORE PUSH1 0x20 ADD SWAP1 DUP2 MSTORE PUSH1 0x20 ADD PUSH0 KECCAK256 PUSH0 PUSH2 0x100 EXP DUP2 SLOAD DUP2 PUSH20 0xFFFFFFFFFFFFFFFFFFFFFFFFFFFFFFFFFFFFFFFF MUL NOT AND SWAP1 DUP4 PUSH20 0xFFFFFFFFFFFFFFFFFFFFFFFFFFFFFFFFFFFFFFFF AND MUL OR SWAP1 SSTORE POP DUP1 DUP3 PUSH20 0xFFFFFFFFFFFFFFFFFFFFFFFFFFFFFFFFFFFFFFFF AND PUSH0 PUSH20 0xFFFFFFFFFFFFFFFFFFFFFFFFFFFFFFFFFFFFFFFF AND PUSH32 0xDDF252AD1BE2C89B69C2B068FC378DAA952BA7F163C4A11628F55A4DF523B3EF PUSH1 0x40 MLOAD PUSH1 0x40 MLOAD DUP1 SWAP2 SUB SWAP1 LOG4 PUSH2 0x2532 PUSH0 DUP4 DUP4 PUSH1 0x1 PUSH2 0x1D04 JUMP JUMPDEST POP POP JUMP JUMPDEST PUSH0 PUSH0 DUP3 PUSH20 0xFFFFFFFFFFFFFFFFFFFFFFFFFFFFFFFFFFFFFFFF AND EXTCODESIZE GT SWAP1 POP SWAP2 SWAP1 POP JUMP JUMPDEST POP DUP1 SLOAD PUSH2 0x2564 SWAP1 PUSH2 0x2DCE JUMP JUMPDEST PUSH0 DUP3 SSTORE DUP1 PUSH1 0x1F LT PUSH2 0x2575 JUMPI POP PUSH2 0x2592 JUMP JUMPDEST PUSH1 0x1F ADD PUSH1 0x20 SWAP1 DIV SWAP1 PUSH0 MSTORE PUSH1 0x20 PUSH0 KECCAK256 SWAP1 DUP2 ADD SWAP1 PUSH2 0x2591 SWAP2 SWAP1 PUSH2 0x25AE JUMP JUMPDEST JUMPDEST POP JUMP JUMPDEST PUSH1 0x40 MLOAD DUP1 PUSH1 0x40 ADD PUSH1 0x40 MSTORE DUP1 PUSH0 DUP2 MSTORE PUSH1 0x20 ADD PUSH1 0x60 DUP2 MSTORE POP SWAP1 JUMP JUMPDEST JUMPDEST DUP1 DUP3 GT ISZERO PUSH2 0x25C5 JUMPI PUSH0 DUP2 PUSH0 SWAP1 SSTORE POP PUSH1 0x1 ADD PUSH2 0x25AF JUMP JUMPDEST POP SWAP1 JUMP JUMPDEST PUSH0 PUSH1 0x40 MLOAD SWAP1 POP SWAP1 JUMP JUMPDEST PUSH0 PUSH0 REVERT JUMPDEST PUSH0 PUSH0 REVERT JUMPDEST PUSH0 PUSH32 0xFFFFFFFF00000000000000000000000000000000000000000000000000000000 DUP3 AND SWAP1 POP SWAP2 SWAP1 POP JUMP JUMPDEST PUSH2 0x260E DUP2 PUSH2 0x25DA JUMP JUMPDEST DUP2 EQ PUSH2 0x2618 JUMPI PUSH0 PUSH0 REVERT JUMPDEST POP JUMP JUMPDEST PUSH0 DUP2 CALLDATALOAD SWAP1 POP PUSH2 0x2629 DUP2 PUSH2 0x2605 JUMP JUMPDEST SWAP3 SWAP2 POP POP JUMP JUMPDEST PUSH0 PUSH1 0x20 DUP3 DUP5 SUB SLT ISZERO PUSH2 0x2644 JUMPI PUSH2 0x2643 PUSH2 0x25D2 JUMP JUMPDEST JUMPDEST PUSH0 PUSH2 0x2651 DUP5 DUP3 DUP6 ADD PUSH2 0x261B JUMP JUMPDEST SWAP2 POP POP SWAP3 SWAP2 POP POP JUMP JUMPDEST PUSH0 DUP2 ISZERO ISZERO SWAP1 POP SWAP2 SWAP1 POP JUMP JUMPDEST PUSH2 0x266E DUP2 PUSH2 0x265A JUMP JUMPDEST DUP3 MSTORE POP POP JUMP JUMPDEST PUSH0 PUSH1 0x20 DUP3 ADD SWAP1 POP PUSH2 0x2687 PUSH0 DUP4 ADD DUP5 PUSH2 0x2665 JUMP JUMPDEST SWAP3 SWAP2 POP POP JUMP JUMPDEST PUSH0 DUP2 MLOAD SWAP1 POP SWAP2 SWAP1 POP JUMP JUMPDEST PUSH0 DUP3 DUP3 MSTORE PUSH1 0x20 DUP3 ADD SWAP1 POP SWAP3 SWAP2 POP POP JUMP JUMPDEST DUP3 DUP2 DUP4 MCOPY PUSH0 DUP4 DUP4 ADD MSTORE POP POP POP JUMP JUMPDEST PUSH0 PUSH1 0x1F NOT PUSH1 0x1F DUP4 ADD AND SWAP1 POP SWAP2 SWAP1 POP JUMP JUMPDEST PUSH0 PUSH2 0x26CF DUP3 PUSH2 0x268D JUMP JUMPDEST PUSH2 0x26D9 DUP2 DUP6 PUSH2 0x2697 JUMP JUMPDEST SWAP4 POP PUSH2 0x26E9 DUP2 DUP6 PUSH1 0x20 DUP7 ADD PUSH2 0x26A7 JUMP JUMPDEST PUSH2 0x26F2 DUP2 PUSH2 0x26B5 JUMP JUMPDEST DUP5 ADD SWAP2 POP POP SWAP3 SWAP2 POP POP JUMP JUMPDEST PUSH0 PUSH1 0x20 DUP3 ADD SWAP1 POP DUP2 DUP2 SUB PUSH0 DUP4 ADD MSTORE PUSH2 0x2715 DUP2 DUP5 PUSH2 0x26C5 JUMP JUMPDEST SWAP1 POP SWAP3 SWAP2 POP POP JUMP JUMPDEST PUSH0 DUP2 SWAP1 POP SWAP2 SWAP1 POP JUMP JUMPDEST PUSH2 0x272F DUP2 PUSH2 0x271D JUMP JUMPDEST DUP2 EQ PUSH2 0x2739 JUMPI PUSH0 PUSH0 REVERT JUMPDEST POP JUMP JUMPDEST PUSH0 DUP2 CALLDATALOAD SWAP1 POP PUSH2 0x274A DUP2 PUSH2 0x2726 JUMP JUMPDEST SWAP3 SWAP2 POP POP JUMP JUMPDEST PUSH0 PUSH1 0x20 DUP3 DUP5 SUB SLT ISZERO PUSH2 0x2765 JUMPI PUSH2 0x2764 PUSH2 0x25D2 JUMP JUMPDEST JUMPDEST PUSH0 PUSH2 0x2772 DUP5 DUP3 DUP6 ADD PUSH2 0x273C JUMP JUMPDEST SWAP2 POP POP SWAP3 SWAP2 POP POP JUMP JUMPDEST PUSH0 PUSH20 0xFFFFFFFFFFFFFFFFFFFFFFFFFFFFFFFFFFFFFFFF DUP3 AND SWAP1 POP SWAP2 SWAP1 POP JUMP JUMPDEST PUSH0 PUSH2 0x27A4 DUP3 PUSH2 0x277B JUMP JUMPDEST SWAP1 POP SWAP2 SWAP1 POP JUMP JUMPDEST PUSH2 0x27B4 DUP2 PUSH2 0x279A JUMP JUMPDEST DUP3 MSTORE POP POP JUMP JUMPDEST PUSH0 PUSH1 0x20 DUP3 ADD SWAP1 POP PUSH2 0x27CD PUSH0 DUP4 ADD DUP5 PUSH2 0x27AB JUMP JUMPDEST SWAP3 SWAP2 POP POP JUMP JUMPDEST PUSH2 0x27DC DUP2 PUSH2 0x279A JUMP JUMPDEST DUP2 EQ PUSH2 0x27E6 JUMPI PUSH0 PUSH0 REVERT JUMPDEST POP JUMP JUMPDEST PUSH0 DUP2 CALLDATALOAD SWAP1 POP PUSH2 0x27F7 DUP2 PUSH2 0x27D3 JUMP JUMPDEST SWAP3 SWAP2 POP POP JUMP JUMPDEST PUSH0 PUSH0 PUSH1 0x40 DUP4 DUP6 SUB SLT ISZERO PUSH2 0x2813 JUMPI PUSH2 0x2812 PUSH2 0x25D2 JUMP JUMPDEST JUMPDEST PUSH0 PUSH2 0x2820 DUP6 DUP3 DUP7 ADD PUSH2 0x27E9 JUMP JUMPDEST SWAP3 POP POP PUSH1 0x20 PUSH2 0x2831 DUP6 DUP3 DUP7 ADD PUSH2 0x273C JUMP JUMPDEST SWAP2 POP POP SWAP3 POP SWAP3 SWAP1 POP JUMP JUMPDEST PUSH0 PUSH0 PUSH0 PUSH1 0x60 DUP5 DUP7 SUB SLT ISZERO PUSH2 0x2852 JUMPI PUSH2 0x2851 PUSH2 0x25D2 JUMP JUMPDEST JUMPDEST PUSH0 PUSH2 0x285F DUP7 DUP3 DUP8 ADD PUSH2 0x27E9 JUMP JUMPDEST SWAP4 POP POP PUSH1 0x20 PUSH2 0x2870 DUP7 DUP3 DUP8 ADD PUSH2 0x27E9 JUMP JUMPDEST SWAP3 POP POP PUSH1 0x40 PUSH2 0x2881 DUP7 DUP3 DUP8 ADD PUSH2 0x273C JUMP JUMPDEST SWAP2 POP POP SWAP3 POP SWAP3 POP SWAP3 JUMP JUMPDEST PUSH2 0x2894 DUP2 PUSH2 0x271D JUMP JUMPDEST DUP3 MSTORE POP POP JUMP JUMPDEST PUSH0 PUSH1 0x20 DUP3 ADD SWAP1 POP PUSH2 0x28AD PUSH0 DUP4 ADD DUP5 PUSH2 0x288B JUMP JUMPDEST SWAP3 SWAP2 POP POP JUMP JUMPDEST PUSH2 0x28BC DUP2 PUSH2 0x271D JUMP JUMPDEST DUP3 MSTORE POP POP JUMP JUMPDEST PUSH0 DUP3 DUP3 MSTORE PUSH1 0x20 DUP3 ADD SWAP1 POP SWAP3 SWAP2 POP POP JUMP JUMPDEST PUSH0 PUSH2 0x28DC DUP3 PUSH2 0x268D JUMP JUMPDEST PUSH2 0x28E6 DUP2 DUP6 PUSH2 0x28C2 JUMP JUMPDEST SWAP4 POP PUSH2 0x28F6 DUP2 DUP6 PUSH1 0x20 DUP7 ADD PUSH2 0x26A7 JUMP JUMPDEST PUSH2 0x28FF DUP2 PUSH2 0x26B5 JUMP JUMPDEST DUP5 ADD SWAP2 POP POP SWAP3 SWAP2 POP POP JUMP JUMPDEST PUSH0 PUSH1 0x40 DUP4 ADD PUSH0 DUP4 ADD MLOAD PUSH2 0x291F PUSH0 DUP7 ADD DUP3 PUSH2 0x28B3 JUMP JUMPDEST POP PUSH1 0x20 DUP4 ADD MLOAD DUP5 DUP3 SUB PUSH1 0x20 DUP7 ADD MSTORE PUSH2 0x2937 DUP3 DUP3 PUSH2 0x28D2 JUMP JUMPDEST SWAP2 POP POP DUP1 SWAP2 POP POP SWAP3 SWAP2 POP POP JUMP JUMPDEST PUSH0 PUSH1 0x20 DUP3 ADD SWAP1 POP DUP2 DUP2 SUB PUSH0 DUP4 ADD MSTORE PUSH2 0x295C DUP2 DUP5 PUSH2 0x290A JUMP JUMPDEST SWAP1 POP SWAP3 SWAP2 POP POP JUMP JUMPDEST PUSH0 PUSH1 0x20 DUP3 DUP5 SUB SLT ISZERO PUSH2 0x2979 JUMPI PUSH2 0x2978 PUSH2 0x25D2 JUMP JUMPDEST JUMPDEST PUSH0 PUSH2 0x2986 DUP5 DUP3 DUP6 ADD PUSH2 0x27E9 JUMP JUMPDEST SWAP2 POP POP SWAP3 SWAP2 POP POP JUMP JUMPDEST PUSH0 PUSH0 REVERT JUMPDEST PUSH0 PUSH0 REVERT JUMPDEST PUSH32 0x4E487B7100000000000000000000000000000000000000000000000000000000 PUSH0 MSTORE PUSH1 0x41 PUSH1 0x4 MSTORE PUSH1 0x24 PUSH0 REVERT JUMPDEST PUSH2 0x29CD DUP3 PUSH2 0x26B5 JUMP JUMPDEST DUP2 ADD DUP2 DUP2 LT PUSH8 0xFFFFFFFFFFFFFFFF DUP3 GT OR ISZERO PUSH2 0x29EC JUMPI PUSH2 0x29EB PUSH2 0x2997 JUMP JUMPDEST JUMPDEST DUP1 PUSH1 0x40 MSTORE POP POP POP JUMP JUMPDEST PUSH0 PUSH2 0x29FE PUSH2 0x25C9 JUMP JUMPDEST SWAP1 POP PUSH2 0x2A0A DUP3 DUP3 PUSH2 0x29C4 JUMP JUMPDEST SWAP2 SWAP1 POP JUMP JUMPDEST PUSH0 PUSH8 0xFFFFFFFFFFFFFFFF DUP3 GT ISZERO PUSH2 0x2A29 JUMPI PUSH2 0x2A28 PUSH2 0x2997 JUMP JUMPDEST JUMPDEST PUSH2 0x2A32 DUP3 PUSH2 0x26B5 JUMP JUMPDEST SWAP1 POP PUSH1 0x20 DUP2 ADD SWAP1 POP SWAP2 SWAP1 POP JUMP JUMPDEST DUP3 DUP2 DUP4 CALLDATACOPY PUSH0 DUP4 DUP4 ADD MSTORE POP POP POP JUMP JUMPDEST PUSH0 PUSH2 0x2A5F PUSH2 0x2A5A DUP5 PUSH2 0x2A0F JUMP JUMPDEST PUSH2 0x29F5 JUMP JUMPDEST SWAP1 POP DUP3 DUP2 MSTORE PUSH1 0x20 DUP2 ADD DUP5 DUP5 DUP5 ADD GT ISZERO PUSH2 0x2A7B JUMPI PUSH2 0x2A7A PUSH2 0x2993 JUMP JUMPDEST JUMPDEST PUSH2 0x2A86 DUP5 DUP3 DUP6 PUSH2 0x2A3F JUMP JUMPDEST POP SWAP4 SWAP3 POP POP POP JUMP JUMPDEST PUSH0 DUP3 PUSH1 0x1F DUP4 ADD SLT PUSH2 0x2AA2 JUMPI PUSH2 0x2AA1 PUSH2 0x298F JUMP JUMPDEST JUMPDEST DUP2 CALLDATALOAD PUSH2 0x2AB2 DUP5 DUP3 PUSH1 0x20 DUP7 ADD PUSH2 0x2A4D JUMP JUMPDEST SWAP2 POP POP SWAP3 SWAP2 POP POP JUMP JUMPDEST PUSH0 PUSH0 PUSH1 0x40 DUP4 DUP6 SUB SLT ISZERO PUSH2 0x2AD1 JUMPI PUSH2 0x2AD0 PUSH2 0x25D2 JUMP JUMPDEST JUMPDEST PUSH0 PUSH2 0x2ADE DUP6 DUP3 DUP7 ADD PUSH2 0x273C JUMP JUMPDEST SWAP3 POP POP PUSH1 0x20 DUP4 ADD CALLDATALOAD PUSH8 0xFFFFFFFFFFFFFFFF DUP2 GT ISZERO PUSH2 0x2AFF JUMPI PUSH2 0x2AFE PUSH2 0x25D6 JUMP JUMPDEST JUMPDEST PUSH2 0x2B0B DUP6 DUP3 DUP7 ADD PUSH2 0x2A8E JUMP JUMPDEST SWAP2 POP POP SWAP3 POP SWAP3 SWAP1 POP JUMP JUMPDEST PUSH2 0x2B1E DUP2 PUSH2 0x265A JUMP JUMPDEST DUP2 EQ PUSH2 0x2B28 JUMPI PUSH0 PUSH0 REVERT JUMPDEST POP JUMP JUMPDEST PUSH0 DUP2 CALLDATALOAD SWAP1 POP PUSH2 0x2B39 DUP2 PUSH2 0x2B15 JUMP JUMPDEST SWAP3 SWAP2 POP POP JUMP JUMPDEST PUSH0 PUSH0 PUSH1 0x40 DUP4 DUP6 SUB SLT ISZERO PUSH2 0x2B55 JUMPI PUSH2 0x2B54 PUSH2 0x25D2 JUMP JUMPDEST JUMPDEST PUSH0 PUSH2 0x2B62 DUP6 DUP3 DUP7 ADD PUSH2 0x27E9 JUMP JUMPDEST SWAP3 POP POP PUSH1 0x20 PUSH2 0x2B73 DUP6 DUP3 DUP7 ADD PUSH2 0x2B2B JUMP JUMPDEST SWAP2 POP POP SWAP3 POP SWAP3 SWAP1 POP JUMP JUMPDEST PUSH0 PUSH8 0xFFFFFFFFFFFFFFFF DUP3 GT ISZERO PUSH2 0x2B97 JUMPI PUSH2 0x2B96 PUSH2 0x2997 JUMP JUMPDEST JUMPDEST PUSH2 0x2BA0 DUP3 PUSH2 0x26B5 JUMP JUMPDEST SWAP1 POP PUSH1 0x20 DUP2 ADD SWAP1 POP SWAP2 SWAP1 POP JUMP JUMPDEST PUSH0 PUSH2 0x2BBF PUSH2 0x2BBA DUP5 PUSH2 0x2B7D JUMP JUMPDEST PUSH2 0x29F5 JUMP JUMPDEST SWAP1 POP DUP3 DUP2 MSTORE PUSH1 0x20 DUP2 ADD DUP5 DUP5 DUP5 ADD GT ISZERO PUSH2 0x2BDB JUMPI PUSH2 0x2BDA PUSH2 0x2993 JUMP JUMPDEST JUMPDEST PUSH2 0x2BE6 DUP5 DUP3 DUP6 PUSH2 0x2A3F JUMP JUMPDEST POP SWAP4 SWAP3 POP POP POP JUMP JUMPDEST PUSH0 DUP3 PUSH1 0x1F DUP4 ADD SLT PUSH2 0x2C02 JUMPI PUSH2 0x2C01 PUSH2 0x298F JUMP JUMPDEST JUMPDEST DUP2 CALLDATALOAD PUSH2 0x2C12 DUP5 DUP3 PUSH1 0x20 DUP7 ADD PUSH2 0x2BAD JUMP JUMPDEST SWAP2 POP POP SWAP3 SWAP2 POP POP JUMP JUMPDEST PUSH0 PUSH0 PUSH0 PUSH0 PUSH1 0x80 DUP6 DUP8 SUB SLT ISZERO PUSH2 0x2C33 JUMPI PUSH2 0x2C32 PUSH2 0x25D2 JUMP JUMPDEST JUMPDEST PUSH0 PUSH2 0x2C40 DUP8 DUP3 DUP9 ADD PUSH2 0x27E9 JUMP JUMPDEST SWAP5 POP POP PUSH1 0x20 PUSH2 0x2C51 DUP8 DUP3 DUP9 ADD PUSH2 0x27E9 JUMP JUMPDEST SWAP4 POP POP PUSH1 0x40 PUSH2 0x2C62 DUP8 DUP3 DUP9 ADD PUSH2 0x273C JUMP JUMPDEST SWAP3 POP POP PUSH1 0x60 DUP6 ADD CALLDATALOAD PUSH8 0xFFFFFFFFFFFFFFFF DUP2 GT ISZERO PUSH2 0x2C83 JUMPI PUSH2 0x2C82 PUSH2 0x25D6 JUMP JUMPDEST JUMPDEST PUSH2 0x2C8F DUP8 DUP3 DUP9 ADD PUSH2 0x2BEE JUMP JUMPDEST SWAP2 POP POP SWAP3 SWAP6 SWAP2 SWAP5 POP SWAP3 POP JUMP JUMPDEST PUSH0 PUSH0 PUSH1 0x40 DUP4 DUP6 SUB SLT ISZERO PUSH2 0x2CB1 JUMPI PUSH2 0x2CB0 PUSH2 0x25D2 JUMP JUMPDEST JUMPDEST PUSH0 PUSH2 0x2CBE DUP6 DUP3 DUP7 ADD PUSH2 0x27E9 JUMP JUMPDEST SWAP3 POP POP PUSH1 0x20 PUSH2 0x2CCF DUP6 DUP3 DUP7 ADD PUSH2 0x27E9 JUMP JUMPDEST SWAP2 POP POP SWAP3 POP SWAP3 SWAP1 POP JUMP JUMPDEST PUSH0 DUP2 MLOAD SWAP1 POP SWAP2 SWAP1 POP JUMP JUMPDEST PUSH0 DUP3 DUP3 MSTORE PUSH1 0x20 DUP3 ADD SWAP1 POP SWAP3 SWAP2 POP POP JUMP JUMPDEST PUSH0 DUP2 SWAP1 POP PUSH1 0x20 DUP3 ADD SWAP1 POP SWAP2 SWAP1 POP JUMP JUMPDEST PUSH0 PUSH2 0x2D0D DUP4 DUP4 PUSH2 0x28B3 JUMP JUMPDEST PUSH1 0x20 DUP4 ADD SWAP1 POP SWAP3 SWAP2 POP POP JUMP JUMPDEST PUSH0 PUSH1 0x20 DUP3 ADD SWAP1 POP SWAP2 SWAP1 POP JUMP JUMPDEST PUSH0 PUSH2 0x2D2F DUP3 PUSH2 0x2CD9 JUMP JUMPDEST PUSH2 0x2D39 DUP2 DUP6 PUSH2 0x2CE3 JUMP JUMPDEST SWAP4 POP PUSH2 0x2D44 DUP4 PUSH2 0x2CF3 JUMP JUMPDEST DUP1 PUSH0 JUMPDEST DUP4 DUP2 LT ISZERO PUSH2 0x2D74 JUMPI DUP2 MLOAD PUSH2 0x2D5B DUP9 DUP3 PUSH2 0x2D02 JUMP JUMPDEST SWAP8 POP PUSH2 0x2D66 DUP4 PUSH2 0x2D19 JUMP JUMPDEST SWAP3 POP POP PUSH1 0x1 DUP2 ADD SWAP1 POP PUSH2 0x2D47 JUMP JUMPDEST POP DUP6 SWAP4 POP POP POP POP SWAP3 SWAP2 POP POP JUMP JUMPDEST PUSH0 PUSH1 0x20 DUP3 ADD SWAP1 POP DUP2 DUP2 SUB PUSH0 DUP4 ADD MSTORE PUSH2 0x2D99 DUP2 DUP5 PUSH2 0x2D25 JUMP JUMPDEST SWAP1 POP SWAP3 SWAP2 POP POP JUMP JUMPDEST PUSH32 0x4E487B7100000000000000000000000000000000000000000000000000000000 PUSH0 MSTORE PUSH1 0x22 PUSH1 0x4 MSTORE PUSH1 0x24 PUSH0 REVERT JUMPDEST PUSH0 PUSH1 0x2 DUP3 DIV SWAP1 POP PUSH1 0x1 DUP3 AND DUP1 PUSH2 0x2DE5 JUMPI PUSH1 0x7F DUP3 AND SWAP2 POP JUMPDEST PUSH1 0x20 DUP3 LT DUP2 SUB PUSH2 0x2DF8 JUMPI PUSH2 0x2DF7 PUSH2 0x2DA1 JUMP JUMPDEST JUMPDEST POP SWAP2 SWAP1 POP JUMP JUMPDEST PUSH32 0x4552433732313A20617070726F76616C20746F2063757272656E74206F776E65 PUSH0 DUP3 ADD MSTORE PUSH32 0x7200000000000000000000000000000000000000000000000000000000000000 PUSH1 0x20 DUP3 ADD MSTORE POP JUMP JUMPDEST PUSH0 PUSH2 0x2E58 PUSH1 0x21 DUP4 PUSH2 0x2697 JUMP JUMPDEST SWAP2 POP PUSH2 0x2E63 DUP3 PUSH2 0x2DFE JUMP JUMPDEST PUSH1 0x40 DUP3 ADD SWAP1 POP SWAP2 SWAP1 POP JUMP JUMPDEST PUSH0 PUSH1 0x20 DUP3 ADD SWAP1 POP DUP2 DUP2 SUB PUSH0 DUP4 ADD MSTORE PUSH2 0x2E85 DUP2 PUSH2 0x2E4C JUMP JUMPDEST SWAP1 POP SWAP2 SWAP1 POP JUMP JUMPDEST PUSH32 0x4552433732313A20617070726F76652063616C6C6572206973206E6F7420746F PUSH0 DUP3 ADD MSTORE PUSH32 0x6B656E206F776E6572206F7220617070726F76656420666F7220616C6C000000 PUSH1 0x20 DUP3 ADD MSTORE POP JUMP JUMPDEST PUSH0 PUSH2 0x2EE6 PUSH1 0x3D DUP4 PUSH2 0x2697 JUMP JUMPDEST SWAP2 POP PUSH2 0x2EF1 DUP3 PUSH2 0x2E8C JUMP JUMPDEST PUSH1 0x40 DUP3 ADD SWAP1 POP SWAP2 SWAP1 POP JUMP JUMPDEST PUSH0 PUSH1 0x20 DUP3 ADD SWAP1 POP DUP2 DUP2 SUB PUSH0 DUP4 ADD MSTORE PUSH2 0x2F13 DUP2 PUSH2 0x2EDA JUMP JUMPDEST SWAP1 POP SWAP2 SWAP1 POP JUMP JUMPDEST PUSH32 0x4E46547320617265206E6F6E2D7472616E7366657261626C6520616674657220 PUSH0 DUP3 ADD MSTORE PUSH32 0x636C61696D696E67000000000000000000000000000000000000000000000000 PUSH1 0x20 DUP3 ADD MSTORE POP JUMP JUMPDEST PUSH0 PUSH2 0x2F74 PUSH1 0x28 DUP4 PUSH2 0x2697 JUMP JUMPDEST SWAP2 POP PUSH2 0x2F7F DUP3 PUSH2 0x2F1A JUMP JUMPDEST PUSH1 0x40 DUP3 ADD SWAP1 POP SWAP2 SWAP1 POP JUMP JUMPDEST PUSH0 PUSH1 0x20 DUP3 ADD SWAP1 POP DUP2 DUP2 SUB PUSH0 DUP4 ADD MSTORE PUSH2 0x2FA1 DUP2 PUSH2 0x2F68 JUMP JUMPDEST SWAP1 POP SWAP2 SWAP1 POP JUMP JUMPDEST PUSH32 0x43616C6C6572206973206E6F7420746865206F776E6572000000000000000000 PUSH0 DUP3 ADD MSTORE POP JUMP JUMPDEST PUSH0 PUSH2 0x2FDC PUSH1 0x17 DUP4 PUSH2 0x2697 JUMP JUMPDEST SWAP2 POP PUSH2 0x2FE7 DUP3 PUSH2 0x2FA8 JUMP JUMPDEST PUSH1 0x20 DUP3 ADD SWAP1 POP SWAP2 SWAP1 POP JUMP JUMPDEST PUSH0 PUSH1 0x20 DUP3 ADD SWAP1 POP DUP2 DUP2 SUB PUSH0 DUP4 ADD MSTORE PUSH2 0x3009 DUP2 PUSH2 0x2FD0 JUMP JUMPDEST SWAP1 POP SWAP2 SWAP1 POP JUMP JUMPDEST PUSH32 0x546F6B656E20646F6573206E6F74206578697374000000000000000000000000 PUSH0 DUP3 ADD MSTORE POP JUMP JUMPDEST PUSH0 PUSH2 0x3044 PUSH1 0x14 DUP4 PUSH2 0x2697 JUMP JUMPDEST SWAP2 POP PUSH2 0x304F DUP3 PUSH2 0x3010 JUMP JUMPDEST PUSH1 0x20 DUP3 ADD SWAP1 POP SWAP2 SWAP1 POP JUMP JUMPDEST PUSH0 PUSH1 0x20 DUP3 ADD SWAP1 POP DUP2 DUP2 SUB PUSH0 DUP4 ADD MSTORE PUSH2 0x3071 DUP2 PUSH2 0x3038 JUMP JUMPDEST SWAP1 POP SWAP2 SWAP1 POP JUMP JUMPDEST PUSH32 0x4552433732313A20696E76616C696420746F6B656E2049440000000000000000 PUSH0 DUP3 ADD MSTORE POP JUMP JUMPDEST PUSH0 PUSH2 0x30AC PUSH1 0x18 DUP4 PUSH2 0x2697 JUMP JUMPDEST SWAP2 POP PUSH2 0x30B7 DUP3 PUSH2 0x3078 JUMP JUMPDEST PUSH1 0x20 DUP3 ADD SWAP1 POP SWAP2 SWAP1 POP JUMP JUMPDEST PUSH0 PUSH1 0x20 DUP3 ADD SWAP1 POP DUP2 DUP2 SUB PUSH0 DUP4 ADD MSTORE PUSH2 0x30D9 DUP2 PUSH2 0x30A0 JUMP JUMPDEST SWAP1 POP SWAP2 SWAP1 POP JUMP JUMPDEST PUSH32 0x496E73756666696369656E74207061796D656E74000000000000000000000000 PUSH0 DUP3 ADD MSTORE POP JUMP JUMPDEST PUSH0 PUSH2 0x3114 PUSH1 0x14 DUP4 PUSH2 0x2697 JUMP JUMPDEST SWAP2 POP PUSH2 0x311F DUP3 PUSH2 0x30E0 JUMP JUMPDEST PUSH1 0x20 DUP3 ADD SWAP1 POP SWAP2 SWAP1 POP JUMP JUMPDEST PUSH0 PUSH1 0x20 DUP3 ADD SWAP1 POP DUP2 DUP2 SUB PUSH0 DUP4 ADD MSTORE PUSH2 0x3141 DUP2 PUSH2 0x3108 JUMP JUMPDEST SWAP1 POP SWAP2 SWAP1 POP JUMP JUMPDEST PUSH32 0x4E6F204E46547320617661696C61626C6520666F7220636C61696D696E670000 PUSH0 DUP3 ADD MSTORE POP JUMP JUMPDEST PUSH0 PUSH2 0x317C PUSH1 0x1E DUP4 PUSH2 0x2697 JUMP JUMPDEST SWAP2 POP PUSH2 0x3187 DUP3 PUSH2 0x3148 JUMP JUMPDEST PUSH1 0x20 DUP3 ADD SWAP1 POP SWAP2 SWAP1 POP JUMP JUMPDEST PUSH0 PUSH1 0x20 DUP3 ADD SWAP1 POP DUP2 DUP2 SUB PUSH0 DUP4 ADD MSTORE PUSH2 0x31A9 DUP2 PUSH2 0x3170 JUMP JUMPDEST SWAP1 POP SWAP2 SWAP1 POP JUMP JUMPDEST PUSH32 0x4E487B7100000000000000000000000000000000000000000000000000000000 PUSH0 MSTORE PUSH1 0x11 PUSH1 0x4 MSTORE PUSH1 0x24 PUSH0 REVERT JUMPDEST PUSH0 PUSH2 0x31E7 DUP3 PUSH2 0x271D JUMP JUMPDEST SWAP2 POP PUSH2 0x31F2 DUP4 PUSH2 0x271D JUMP JUMPDEST SWAP3 POP DUP3 DUP3 SUB SWAP1 POP DUP2 DUP2 GT ISZERO PUSH2 0x320A JUMPI PUSH2 0x3209 PUSH2 0x31B0 JUMP JUMPDEST JUMPDEST SWAP3 SWAP2 POP POP JUMP JUMPDEST PUSH32 0x4552433732313A2061646472657373207A65726F206973206E6F742061207661 PUSH0 DUP3 ADD MSTORE PUSH32 0x6C6964206F776E65720000000000000000000000000000000000000000000000 PUSH1 0x20 DUP3 ADD MSTORE POP JUMP JUMPDEST PUSH0 PUSH2 0x326A PUSH1 0x29 DUP4 PUSH2 0x2697 JUMP JUMPDEST SWAP2 POP PUSH2 0x3275 DUP3 PUSH2 0x3210 JUMP JUMPDEST PUSH1 0x40 DUP3 ADD SWAP1 POP SWAP2 SWAP1 POP JUMP JUMPDEST PUSH0 PUSH1 0x20 DUP3 ADD SWAP1 POP DUP2 DUP2 SUB PUSH0 DUP4 ADD MSTORE PUSH2 0x3297 DUP2 PUSH2 0x325E JUMP JUMPDEST SWAP1 POP SWAP2 SWAP1 POP JUMP JUMPDEST PUSH0 PUSH2 0x32A8 DUP3 PUSH2 0x271D JUMP JUMPDEST SWAP2 POP PUSH2 0x32B3 DUP4 PUSH2 0x271D JUMP JUMPDEST SWAP3 POP DUP3 DUP3 ADD SWAP1 POP DUP1 DUP3 GT ISZERO PUSH2 0x32CB JUMPI PUSH2 0x32CA PUSH2 0x31B0 JUMP JUMPDEST JUMPDEST SWAP3 SWAP2 POP POP JUMP JUMPDEST PUSH32 0x496E76616C6964206B696C6F7761747420616D6F756E74206F72206578636565 PUSH0 DUP3 ADD MSTORE PUSH32 0x647320746F74616C206B696C6F77617474730000000000000000000000000000 PUSH1 0x20 DUP3 ADD MSTORE POP JUMP JUMPDEST PUSH0 PUSH2 0x332B PUSH1 0x32 DUP4 PUSH2 0x2697 JUMP JUMPDEST SWAP2 POP PUSH2 0x3336 DUP3 PUSH2 0x32D1 JUMP JUMPDEST PUSH1 0x40 DUP3 ADD SWAP1 POP SWAP2 SWAP1 POP JUMP JUMPDEST PUSH0 PUSH1 0x20 DUP3 ADD SWAP1 POP DUP2 DUP2 SUB PUSH0 DUP4 ADD MSTORE PUSH2 0x3358 DUP2 PUSH2 0x331F JUMP JUMPDEST SWAP1 POP SWAP2 SWAP1 POP JUMP JUMPDEST PUSH0 PUSH2 0x3369 DUP3 PUSH2 0x271D JUMP JUMPDEST SWAP2 POP PUSH32 0xFFFFFFFFFFFFFFFFFFFFFFFFFFFFFFFFFFFFFFFFFFFFFFFFFFFFFFFFFFFFFFFF DUP3 SUB PUSH2 0x339B JUMPI PUSH2 0x339A PUSH2 0x31B0 JUMP JUMPDEST JUMPDEST PUSH1 0x1 DUP3 ADD SWAP1 POP SWAP2 SWAP1 POP JUMP JUMPDEST PUSH0 DUP2 SWAP1 POP DUP2 PUSH0 MSTORE PUSH1 0x20 PUSH0 KECCAK256 SWAP1 POP SWAP2 SWAP1 POP JUMP JUMPDEST PUSH0 PUSH1 0x20 PUSH1 0x1F DUP4 ADD DIV SWAP1 POP SWAP2 SWAP1 POP JUMP JUMPDEST PUSH0 DUP3 DUP3 SHL SWAP1 POP SWAP3 SWAP2 POP POP JUMP JUMPDEST PUSH0 PUSH1 0x8 DUP4 MUL PUSH2 0x3402 PUSH32 0xFFFFFFFFFFFFFFFFFFFFFFFFFFFFFFFFFFFFFFFFFFFFFFFFFFFFFFFFFFFFFFFF DUP3 PUSH2 0x33C7 JUMP JUMPDEST PUSH2 0x340C DUP7 DUP4 PUSH2 0x33C7 JUMP JUMPDEST SWAP6 POP DUP1 NOT DUP5 AND SWAP4 POP DUP1 DUP7 AND DUP5 OR SWAP3 POP POP POP SWAP4 SWAP3 POP POP POP JUMP JUMPDEST PUSH0 DUP2 SWAP1 POP SWAP2 SWAP1 POP JUMP JUMPDEST PUSH0 PUSH2 0x3447 PUSH2 0x3442 PUSH2 0x343D DUP5 PUSH2 0x271D JUMP JUMPDEST PUSH2 0x3424 JUMP JUMPDEST PUSH2 0x271D JUMP JUMPDEST SWAP1 POP SWAP2 SWAP1 POP JUMP JUMPDEST PUSH0 DUP2 SWAP1 POP SWAP2 SWAP1 POP JUMP JUMPDEST PUSH2 0x3460 DUP4 PUSH2 0x342D JUMP JUMPDEST PUSH2 0x3474 PUSH2 0x346C DUP3 PUSH2 0x344E JUMP JUMPDEST DUP5 DUP5 SLOAD PUSH2 0x33D3 JUMP JUMPDEST DUP3 SSTORE POP POP POP POP JUMP JUMPDEST PUSH0 PUSH0 SWAP1 POP SWAP1 JUMP JUMPDEST PUSH2 0x348B PUSH2 0x347C JUMP JUMPDEST PUSH2 0x3496 DUP2 DUP5 DUP5 PUSH2 0x3457 JUMP JUMPDEST POP POP POP JUMP JUMPDEST JUMPDEST DUP2 DUP2 LT ISZERO PUSH2 0x34B9 JUMPI PUSH2 0x34AE PUSH0 DUP3 PUSH2 0x3483 JUMP JUMPDEST PUSH1 0x1 DUP2 ADD SWAP1 POP PUSH2 0x349C JUMP JUMPDEST POP POP JUMP JUMPDEST PUSH1 0x1F DUP3 GT ISZERO PUSH2 0x34FE JUMPI PUSH2 0x34CF DUP2 PUSH2 0x33A6 JUMP JUMPDEST PUSH2 0x34D8 DUP5 PUSH2 0x33B8 JUMP JUMPDEST DUP2 ADD PUSH1 0x20 DUP6 LT ISZERO PUSH2 0x34E7 JUMPI DUP2 SWAP1 POP JUMPDEST PUSH2 0x34FB PUSH2 0x34F3 DUP6 PUSH2 0x33B8 JUMP JUMPDEST DUP4 ADD DUP3 PUSH2 0x349B JUMP JUMPDEST POP POP JUMPDEST POP POP POP JUMP JUMPDEST PUSH0 DUP3 DUP3 SHR SWAP1 POP SWAP3 SWAP2 POP POP JUMP JUMPDEST PUSH0 PUSH2 0x351E PUSH0 NOT DUP5 PUSH1 0x8 MUL PUSH2 0x3503 JUMP JUMPDEST NOT DUP1 DUP4 AND SWAP2 POP POP SWAP3 SWAP2 POP POP JUMP JUMPDEST PUSH0 PUSH2 0x3536 DUP4 DUP4 PUSH2 0x350F JUMP JUMPDEST SWAP2 POP DUP3 PUSH1 0x2 MUL DUP3 OR SWAP1 POP SWAP3 SWAP2 POP POP JUMP JUMPDEST PUSH2 0x354F DUP3 PUSH2 0x268D JUMP JUMPDEST PUSH8 0xFFFFFFFFFFFFFFFF DUP2 GT ISZERO PUSH2 0x3568 JUMPI PUSH2 0x3567 PUSH2 0x2997 JUMP JUMPDEST JUMPDEST PUSH2 0x3572 DUP3 SLOAD PUSH2 0x2DCE JUMP JUMPDEST PUSH2 0x357D DUP3 DUP3 DUP6 PUSH2 0x34BD JUMP JUMPDEST PUSH0 PUSH1 0x20 SWAP1 POP PUSH1 0x1F DUP4 GT PUSH1 0x1 DUP2 EQ PUSH2 0x35AE JUMPI PUSH0 DUP5 ISZERO PUSH2 0x359C JUMPI DUP3 DUP8 ADD MLOAD SWAP1 POP JUMPDEST PUSH2 0x35A6 DUP6 DUP3 PUSH2 0x352B JUMP JUMPDEST DUP7 SSTORE POP PUSH2 0x360D JUMP JUMPDEST PUSH1 0x1F NOT DUP5 AND PUSH2 0x35BC DUP7 PUSH2 0x33A6 JUMP JUMPDEST PUSH0 JUMPDEST DUP3 DUP2 LT ISZERO PUSH2 0x35E3 JUMPI DUP5 DUP10 ADD MLOAD DUP3 SSTORE PUSH1 0x1 DUP3 ADD SWAP2 POP PUSH1 0x20 DUP6 ADD SWAP5 POP PUSH1 0x20 DUP2 ADD SWAP1 POP PUSH2 0x35BE JUMP JUMPDEST DUP7 DUP4 LT ISZERO PUSH2 0x3600 JUMPI DUP5 DUP10 ADD MLOAD PUSH2 0x35FC PUSH1 0x1F DUP10 AND DUP3 PUSH2 0x350F JUMP JUMPDEST DUP4 SSTORE POP JUMPDEST PUSH1 0x1 PUSH1 0x2 DUP9 MUL ADD DUP9 SSTORE POP POP POP JUMPDEST POP POP POP POP POP POP JUMP JUMPDEST PUSH0 DUP2 SWAP1 POP SWAP2 SWAP1 POP JUMP JUMPDEST PUSH0 PUSH2 0x3638 PUSH2 0x3633 PUSH2 0x362E DUP5 PUSH2 0x3615 JUMP JUMPDEST PUSH2 0x3424 JUMP JUMPDEST PUSH2 0x271D JUMP JUMPDEST SWAP1 POP SWAP2 SWAP1 POP JUMP JUMPDEST PUSH2 0x3648 DUP2 PUSH2 0x361E JUMP JUMPDEST DUP3 MSTORE POP POP JUMP JUMPDEST PUSH0 PUSH1 0x40 DUP3 ADD SWAP1 POP PUSH2 0x3661 PUSH0 DUP4 ADD DUP6 PUSH2 0x363F JUMP JUMPDEST DUP2 DUP2 SUB PUSH1 0x20 DUP4 ADD MSTORE PUSH2 0x3673 DUP2 DUP5 PUSH2 0x26C5 JUMP JUMPDEST SWAP1 POP SWAP4 SWAP3 POP POP POP JUMP JUMPDEST PUSH32 0x4552433732313A2063616C6C6572206973206E6F7420746F6B656E206F776E65 PUSH0 DUP3 ADD MSTORE PUSH32 0x72206F7220617070726F76656400000000000000000000000000000000000000 PUSH1 0x20 DUP3 ADD MSTORE POP JUMP JUMPDEST PUSH0 PUSH2 0x36D6 PUSH1 0x2D DUP4 PUSH2 0x2697 JUMP JUMPDEST SWAP2 POP PUSH2 0x36E1 DUP3 PUSH2 0x367C JUMP JUMPDEST PUSH1 0x40 DUP3 ADD SWAP1 POP SWAP2 SWAP1 POP JUMP JUMPDEST PUSH0 PUSH1 0x20 DUP3 ADD SWAP1 POP DUP2 DUP2 SUB PUSH0 DUP4 ADD MSTORE PUSH2 0x3703 DUP2 PUSH2 0x36CA JUMP JUMPDEST SWAP1 POP SWAP2 SWAP1 POP JUMP JUMPDEST PUSH0 DUP2 SWAP1 POP SWAP3 SWAP2 POP POP JUMP JUMPDEST PUSH0 PUSH2 0x371E DUP3 PUSH2 0x268D JUMP JUMPDEST PUSH2 0x3728 DUP2 DUP6 PUSH2 0x370A JUMP JUMPDEST SWAP4 POP PUSH2 0x3738 DUP2 DUP6 PUSH1 0x20 DUP7 ADD PUSH2 0x26A7 JUMP JUMPDEST DUP1 DUP5 ADD SWAP2 POP POP SWAP3 SWAP2 POP POP JUMP JUMPDEST PUSH0 PUSH2 0x374F DUP3 DUP6 PUSH2 0x3714 JUMP JUMPDEST SWAP2 POP PUSH2 0x375B DUP3 DUP5 PUSH2 0x3714 JUMP JUMPDEST SWAP2 POP DUP2 SWAP1 POP SWAP4 SWAP3 POP POP POP JUMP JUMPDEST PUSH32 0x4E487B7100000000000000000000000000000000000000000000000000000000 PUSH0 MSTORE PUSH1 0x32 PUSH1 0x4 MSTORE PUSH1 0x24 PUSH0 REVERT JUMPDEST PUSH32 0x4552433732313A20617070726F766520746F2063616C6C657200000000000000 PUSH0 DUP3 ADD MSTORE POP JUMP JUMPDEST PUSH0 PUSH2 0x37C8 PUSH1 0x19 DUP4 PUSH2 0x2697 JUMP JUMPDEST SWAP2 POP PUSH2 0x37D3 DUP3 PUSH2 0x3794 JUMP JUMPDEST PUSH1 0x20 DUP3 ADD SWAP1 POP SWAP2 SWAP1 POP JUMP JUMPDEST PUSH0 PUSH1 0x20 DUP3 ADD SWAP1 POP DUP2 DUP2 SUB PUSH0 DUP4 ADD MSTORE PUSH2 0x37F5 DUP2 PUSH2 0x37BC JUMP JUMPDEST SWAP1 POP SWAP2 SWAP1 POP JUMP JUMPDEST PUSH32 0x4552433732313A207472616E7366657220746F206E6F6E204552433732315265 PUSH0 DUP3 ADD MSTORE PUSH32 0x63656976657220696D706C656D656E7465720000000000000000000000000000 PUSH1 0x20 DUP3 ADD MSTORE POP JUMP JUMPDEST PUSH0 PUSH2 0x3856 PUSH1 0x32 DUP4 PUSH2 0x2697 JUMP JUMPDEST SWAP2 POP PUSH2 0x3861 DUP3 PUSH2 0x37FC JUMP JUMPDEST PUSH1 0x40 DUP3 ADD SWAP1 POP SWAP2 SWAP1 POP JUMP JUMPDEST PUSH0 PUSH1 0x20 DUP3 ADD SWAP1 POP DUP2 DUP2 SUB PUSH0 DUP4 ADD MSTORE PUSH2 0x3883 DUP2 PUSH2 0x384A JUMP JUMPDEST SWAP1 POP SWAP2 SWAP1 POP JUMP JUMPDEST PUSH32 0x4E487B7100000000000000000000000000000000000000000000000000000000 PUSH0 MSTORE PUSH1 0x12 PUSH1 0x4 MSTORE PUSH1 0x24 PUSH0 REVERT JUMPDEST PUSH32 0x4552433732313A207472616E736665722066726F6D20696E636F727265637420 PUSH0 DUP3 ADD MSTORE PUSH32 0x6F776E6572000000000000000000000000000000000000000000000000000000 PUSH1 0x20 DUP3 ADD MSTORE POP JUMP JUMPDEST PUSH0 PUSH2 0x3911 PUSH1 0x25 DUP4 PUSH2 0x2697 JUMP JUMPDEST SWAP2 POP PUSH2 0x391C DUP3 PUSH2 0x38B7 JUMP JUMPDEST PUSH1 0x40 DUP3 ADD SWAP1 POP SWAP2 SWAP1 POP JUMP JUMPDEST PUSH0 PUSH1 0x20 DUP3 ADD SWAP1 POP DUP2 DUP2 SUB PUSH0 DUP4 ADD MSTORE PUSH2 0x393E DUP2 PUSH2 0x3905 JUMP JUMPDEST SWAP1 POP SWAP2 SWAP1 POP JUMP JUMPDEST PUSH32 0x4552433732313A207472616E7366657220746F20746865207A65726F20616464 PUSH0 DUP3 ADD MSTORE PUSH32 0x7265737300000000000000000000000000000000000000000000000000000000 PUSH1 0x20 DUP3 ADD MSTORE POP JUMP JUMPDEST PUSH0 PUSH2 0x399F PUSH1 0x24 DUP4 PUSH2 0x2697 JUMP JUMPDEST SWAP2 POP PUSH2 0x39AA DUP3 PUSH2 0x3945 JUMP JUMPDEST PUSH1 0x40 DUP3 ADD SWAP1 POP SWAP2 SWAP1 POP JUMP JUMPDEST PUSH0 PUSH1 0x20 DUP3 ADD SWAP1 POP DUP2 DUP2 SUB PUSH0 DUP4 ADD MSTORE PUSH2 0x39CC DUP2 PUSH2 0x3993 JUMP JUMPDEST SWAP1 POP SWAP2 SWAP1 POP JUMP JUMPDEST PUSH0 DUP2 MLOAD SWAP1 POP SWAP2 SWAP1 POP JUMP JUMPDEST PUSH0 DUP3 DUP3 MSTORE PUSH1 0x20 DUP3 ADD SWAP1 POP SWAP3 SWAP2 POP POP JUMP JUMPDEST PUSH0 PUSH2 0x39F7 DUP3 PUSH2 0x39D3 JUMP JUMPDEST PUSH2 0x3A01 DUP2 DUP6 PUSH2 0x39DD JUMP JUMPDEST SWAP4 POP PUSH2 0x3A11 DUP2 DUP6 PUSH1 0x20 DUP7 ADD PUSH2 0x26A7 JUMP JUMPDEST PUSH2 0x3A1A DUP2 PUSH2 0x26B5 JUMP JUMPDEST DUP5 ADD SWAP2 POP POP SWAP3 SWAP2 POP POP JUMP JUMPDEST PUSH0 PUSH1 0x80 DUP3 ADD SWAP1 POP PUSH2 0x3A38 PUSH0 DUP4 ADD DUP8 PUSH2 0x27AB JUMP JUMPDEST PUSH2 0x3A45 PUSH1 0x20 DUP4 ADD DUP7 PUSH2 0x27AB JUMP JUMPDEST PUSH2 0x3A52 PUSH1 0x40 DUP4 ADD DUP6 PUSH2 0x288B JUMP JUMPDEST DUP2 DUP2 SUB PUSH1 0x60 DUP4 ADD MSTORE PUSH2 0x3A64 DUP2 DUP5 PUSH2 0x39ED JUMP JUMPDEST SWAP1 POP SWAP6 SWAP5 POP POP POP POP POP JUMP JUMPDEST PUSH0 DUP2 MLOAD SWAP1 POP PUSH2 0x3A7D DUP2 PUSH2 0x2605 JUMP JUMPDEST SWAP3 SWAP2 POP POP JUMP JUMPDEST PUSH0 PUSH1 0x20 DUP3 DUP5 SUB SLT ISZERO PUSH2 0x3A98 JUMPI PUSH2 0x3A97 PUSH2 0x25D2 JUMP JUMPDEST JUMPDEST PUSH0 PUSH2 0x3AA5 DUP5 DUP3 DUP6 ADD PUSH2 0x3A6F JUMP JUMPDEST SWAP2 POP POP SWAP3 SWAP2 POP POP JUMP JUMPDEST PUSH32 0x4552433732313A206D696E7420746F20746865207A65726F2061646472657373 PUSH0 DUP3 ADD MSTORE POP JUMP JUMPDEST PUSH0 PUSH2 0x3AE2 PUSH1 0x20 DUP4 PUSH2 0x2697 JUMP JUMPDEST SWAP2 POP PUSH2 0x3AED DUP3 PUSH2 0x3AAE JUMP JUMPDEST PUSH1 0x20 DUP3 ADD SWAP1 POP SWAP2 SWAP1 POP JUMP JUMPDEST PUSH0 PUSH1 0x20 DUP3 ADD SWAP1 POP DUP2 DUP2 SUB PUSH0 DUP4 ADD MSTORE PUSH2 0x3B0F DUP2 PUSH2 0x3AD6 JUMP JUMPDEST SWAP1 POP SWAP2 SWAP1 POP JUMP JUMPDEST PUSH32 0x4552433732313A20746F6B656E20616C7265616479206D696E74656400000000 PUSH0 DUP3 ADD MSTORE POP JUMP JUMPDEST PUSH0 PUSH2 0x3B4A PUSH1 0x1C DUP4 PUSH2 0x2697 JUMP JUMPDEST SWAP2 POP PUSH2 0x3B55 DUP3 PUSH2 0x3B16 JUMP JUMPDEST PUSH1 0x20 DUP3 ADD SWAP1 POP SWAP2 SWAP1 POP JUMP JUMPDEST PUSH0 PUSH1 0x20 DUP3 ADD SWAP1 POP DUP2 DUP2 SUB PUSH0 DUP4 ADD MSTORE PUSH2 0x3B77 DUP2 PUSH2 0x3B3E JUMP JUMPDEST SWAP1 POP SWAP2 SWAP1 POP JUMP INVALID LOG2 PUSH5 0x6970667358 0x22 SLT KECCAK256 0xBA 0xC7 PUSH22 0x33A10C17CE0E849C967E062F33A07E41116B48278569 0xD7 0x27 0xC2 BYTE 0xD3 PUSH29 0xE564736F6C634300081C00330000000000000000000000000000000000 "
		},
		"gasEstimates": {
			"creation": {
				"codeDepositCost": "3056800",
				"executionCost": "infinite",
				"totalCost": "infinite"
			},
			"external": {
				"approve(address,uint256)": "infinite",
				"balanceOf(address)": "2886",
				"burn(uint256)": "infinite",
				"claimNFT()": "infinite",
				"getApproved(uint256)": "5281",
				"getTokenMetadata(uint256)": "infinite",
				"getUnclaimedTokens()": "infinite",
				"isApprovedForAll(address,address)": "infinite",
				"kilowattsMinted()": "2469",
				"mint(uint256,string)": "infinite",
				"name()": "infinite",
				"owner()": "2626",
				"ownerOf(uint256)": "3093",
				"renounceOwnership()": "infinite",
				"safeTransferFrom(address,address,uint256)": "infinite",
				"safeTransferFrom(address,address,uint256,bytes)": "infinite",
				"setApprovalForAll(address,bool)": "infinite",
				"supportsInterface(bytes4)": "787",
				"symbol()": "infinite",
				"tokenPrice()": "2514",
				"tokenURI(uint256)": "infinite",
				"totalKilowatts()": "2492",
				"transferFrom(address,address,uint256)": "infinite",
				"transferOwnership(address)": "infinite",
				"withdrawFunds()": "infinite"
			},
			"internal": {
				"_transfer(address,address,uint256)": "infinite",
				"findUnclaimedToken()": "infinite"
			}
		},
		"methodIdentifiers": {
			"approve(address,uint256)": "095ea7b3",
			"balanceOf(address)": "70a08231",
			"burn(uint256)": "42966c68",
			"claimNFT()": "672756ad",
			"getApproved(uint256)": "081812fc",
			"getTokenMetadata(uint256)": "60316801",
			"getUnclaimedTokens()": "f82ca1c8",
			"isApprovedForAll(address,address)": "e985e9c5",
			"kilowattsMinted()": "cdf4002e",
			"mint(uint256,string)": "77097fc8",
			"name()": "06fdde03",
			"owner()": "8da5cb5b",
			"ownerOf(uint256)": "6352211e",
			"renounceOwnership()": "715018a6",
			"safeTransferFrom(address,address,uint256)": "42842e0e",
			"safeTransferFrom(address,address,uint256,bytes)": "b88d4fde",
			"setApprovalForAll(address,bool)": "a22cb465",
			"supportsInterface(bytes4)": "01ffc9a7",
			"symbol()": "95d89b41",
			"tokenPrice()": "7ff9b596",
			"tokenURI(uint256)": "c87b56dd",
			"totalKilowatts()": "57360e55",
			"transferFrom(address,address,uint256)": "23b872dd",
			"transferOwnership(address)": "f2fde38b",
			"withdrawFunds()": "24600fc3"
		}
	},
	"abi": [
		{
			"inputs": [
				{
					"internalType": "string",
					"name": "name",
					"type": "string"
				},
				{
					"internalType": "string",
					"name": "symbol",
					"type": "string"
				},
				{
					"internalType": "address",
					"name": "initialOwner",
					"type": "address"
				},
				{
					"internalType": "uint256",
					"name": "_tokenPrice",
					"type": "uint256"
				},
				{
					"internalType": "uint256",
					"name": "_totalKilowatts",
					"type": "uint256"
				}
			],
			"stateMutability": "nonpayable",
			"type": "constructor"
		},
		{
			"inputs": [
				{
					"internalType": "address",
					"name": "owner",
					"type": "address"
				}
			],
			"name": "OwnableInvalidOwner",
			"type": "error"
		},
		{
			"inputs": [
				{
					"internalType": "address",
					"name": "account",
					"type": "address"
				}
			],
			"name": "OwnableUnauthorizedAccount",
			"type": "error"
		},
		{
			"anonymous": false,
			"inputs": [
				{
					"indexed": true,
					"internalType": "address",
					"name": "owner",
					"type": "address"
				},
				{
					"indexed": true,
					"internalType": "address",
					"name": "approved",
					"type": "address"
				},
				{
					"indexed": true,
					"internalType": "uint256",
					"name": "tokenId",
					"type": "uint256"
				}
			],
			"name": "Approval",
			"type": "event"
		},
		{
			"anonymous": false,
			"inputs": [
				{
					"indexed": true,
					"internalType": "address",
					"name": "owner",
					"type": "address"
				},
				{
					"indexed": true,
					"internalType": "address",
					"name": "operator",
					"type": "address"
				},
				{
					"indexed": false,
					"internalType": "bool",
					"name": "approved",
					"type": "bool"
				}
			],
			"name": "ApprovalForAll",
			"type": "event"
		},
		{
			"anonymous": false,
			"inputs": [
				{
					"indexed": true,
					"internalType": "address",
					"name": "user",
					"type": "address"
				},
				{
					"indexed": true,
					"internalType": "uint256",
					"name": "tokenId",
					"type": "uint256"
				}
			],
			"name": "Burn",
			"type": "event"
		},
		{
			"anonymous": false,
			"inputs": [
				{
					"indexed": true,
					"internalType": "address",
					"name": "user",
					"type": "address"
				},
				{
					"indexed": true,
					"internalType": "uint256",
					"name": "tokenId",
					"type": "uint256"
				}
			],
			"name": "Claim",
			"type": "event"
		},
		{
			"anonymous": false,
			"inputs": [
				{
					"indexed": true,
					"internalType": "uint256",
					"name": "tokenId",
					"type": "uint256"
				},
				{
					"indexed": false,
					"internalType": "uint256",
					"name": "kilowatts",
					"type": "uint256"
				},
				{
					"indexed": false,
					"internalType": "string",
					"name": "imageUrl",
					"type": "string"
				}
			],
			"name": "Mint",
			"type": "event"
		},
		{
			"anonymous": false,
			"inputs": [
				{
					"indexed": true,
					"internalType": "address",
					"name": "previousOwner",
					"type": "address"
				},
				{
					"indexed": true,
					"internalType": "address",
					"name": "newOwner",
					"type": "address"
				}
			],
			"name": "OwnershipTransferred",
			"type": "event"
		},
		{
			"anonymous": false,
			"inputs": [
				{
					"indexed": true,
					"internalType": "address",
					"name": "from",
					"type": "address"
				},
				{
					"indexed": true,
					"internalType": "address",
					"name": "to",
					"type": "address"
				},
				{
					"indexed": true,
					"internalType": "uint256",
					"name": "tokenId",
					"type": "uint256"
				}
			],
			"name": "Transfer",
			"type": "event"
		},
		{
			"inputs": [
				{
					"internalType": "address",
					"name": "to",
					"type": "address"
				},
				{
					"internalType": "uint256",
					"name": "tokenId",
					"type": "uint256"
				}
			],
			"name": "approve",
			"outputs": [],
			"stateMutability": "nonpayable",
			"type": "function"
		},
		{
			"inputs": [
				{
					"internalType": "address",
					"name": "owner",
					"type": "address"
				}
			],
			"name": "balanceOf",
			"outputs": [
				{
					"internalType": "uint256",
					"name": "",
					"type": "uint256"
				}
			],
			"stateMutability": "view",
			"type": "function"
		},
		{
			"inputs": [
				{
					"internalType": "uint256",
					"name": "tokenId",
					"type": "uint256"
				}
			],
			"name": "burn",
			"outputs": [],
			"stateMutability": "nonpayable",
			"type": "function"
		},
		{
			"inputs": [],
			"name": "claimNFT",
			"outputs": [],
			"stateMutability": "payable",
			"type": "function"
		},
		{
			"inputs": [
				{
					"internalType": "uint256",
					"name": "tokenId",
					"type": "uint256"
				}
			],
			"name": "getApproved",
			"outputs": [
				{
					"internalType": "address",
					"name": "",
					"type": "address"
				}
			],
			"stateMutability": "view",
			"type": "function"
		},
		{
			"inputs": [
				{
					"internalType": "uint256",
					"name": "tokenId",
					"type": "uint256"
				}
			],
			"name": "getTokenMetadata",
			"outputs": [
				{
					"components": [
						{
							"internalType": "uint256",
							"name": "kilowatts",
							"type": "uint256"
						},
						{
							"internalType": "string",
							"name": "imageUrl",
							"type": "string"
						}
					],
					"internalType": "struct SolarNFT.TokenMetadata",
					"name": "",
					"type": "tuple"
				}
			],
			"stateMutability": "view",
			"type": "function"
		},
		{
			"inputs": [],
			"name": "getUnclaimedTokens",
			"outputs": [
				{
					"internalType": "uint256[]",
					"name": "",
					"type": "uint256[]"
				}
			],
			"stateMutability": "view",
			"type": "function"
		},
		{
			"inputs": [
				{
					"internalType": "address",
					"name": "owner",
					"type": "address"
				},
				{
					"internalType": "address",
					"name": "operator",
					"type": "address"
				}
			],
			"name": "isApprovedForAll",
			"outputs": [
				{
					"internalType": "bool",
					"name": "",
					"type": "bool"
				}
			],
			"stateMutability": "view",
			"type": "function"
		},
		{
			"inputs": [],
			"name": "kilowattsMinted",
			"outputs": [
				{
					"internalType": "uint256",
					"name": "",
					"type": "uint256"
				}
			],
			"stateMutability": "view",
			"type": "function"
		},
		{
			"inputs": [
				{
					"internalType": "uint256",
					"name": "kilowatts",
					"type": "uint256"
				},
				{
					"internalType": "string",
					"name": "imageUrl",
					"type": "string"
				}
			],
			"name": "mint",
			"outputs": [],
			"stateMutability": "nonpayable",
			"type": "function"
		},
		{
			"inputs": [],
			"name": "name",
			"outputs": [
				{
					"internalType": "string",
					"name": "",
					"type": "string"
				}
			],
			"stateMutability": "view",
			"type": "function"
		},
		{
			"inputs": [],
			"name": "owner",
			"outputs": [
				{
					"internalType": "address",
					"name": "",
					"type": "address"
				}
			],
			"stateMutability": "view",
			"type": "function"
		},
		{
			"inputs": [
				{
					"internalType": "uint256",
					"name": "tokenId",
					"type": "uint256"
				}
			],
			"name": "ownerOf",
			"outputs": [
				{
					"internalType": "address",
					"name": "",
					"type": "address"
				}
			],
			"stateMutability": "view",
			"type": "function"
		},
		{
			"inputs": [],
			"name": "renounceOwnership",
			"outputs": [],
			"stateMutability": "nonpayable",
			"type": "function"
		},
		{
			"inputs": [
				{
					"internalType": "address",
					"name": "from",
					"type": "address"
				},
				{
					"internalType": "address",
					"name": "to",
					"type": "address"
				},
				{
					"internalType": "uint256",
					"name": "tokenId",
					"type": "uint256"
				}
			],
			"name": "safeTransferFrom",
			"outputs": [],
			"stateMutability": "nonpayable",
			"type": "function"
		},
		{
			"inputs": [
				{
					"internalType": "address",
					"name": "from",
					"type": "address"
				},
				{
					"internalType": "address",
					"name": "to",
					"type": "address"
				},
				{
					"internalType": "uint256",
					"name": "tokenId",
					"type": "uint256"
				},
				{
					"internalType": "bytes",
					"name": "data",
					"type": "bytes"
				}
			],
			"name": "safeTransferFrom",
			"outputs": [],
			"stateMutability": "nonpayable",
			"type": "function"
		},
		{
			"inputs": [
				{
					"internalType": "address",
					"name": "operator",
					"type": "address"
				},
				{
					"internalType": "bool",
					"name": "approved",
					"type": "bool"
				}
			],
			"name": "setApprovalForAll",
			"outputs": [],
			"stateMutability": "nonpayable",
			"type": "function"
		},
		{
			"inputs": [
				{
					"internalType": "bytes4",
					"name": "interfaceId",
					"type": "bytes4"
				}
			],
			"name": "supportsInterface",
			"outputs": [
				{
					"internalType": "bool",
					"name": "",
					"type": "bool"
				}
			],
			"stateMutability": "view",
			"type": "function"
		},
		{
			"inputs": [],
			"name": "symbol",
			"outputs": [
				{
					"internalType": "string",
					"name": "",
					"type": "string"
				}
			],
			"stateMutability": "view",
			"type": "function"
		},
		{
			"inputs": [],
			"name": "tokenPrice",
			"outputs": [
				{
					"internalType": "uint256",
					"name": "",
					"type": "uint256"
				}
			],
			"stateMutability": "view",
			"type": "function"
		},
		{
			"inputs": [
				{
					"internalType": "uint256",
					"name": "tokenId",
					"type": "uint256"
				}
			],
			"name": "tokenURI",
			"outputs": [
				{
					"internalType": "string",
					"name": "",
					"type": "string"
				}
			],
			"stateMutability": "view",
			"type": "function"
		},
		{
			"inputs": [],
			"name": "totalKilowatts",
			"outputs": [
				{
					"internalType": "uint256",
					"name": "",
					"type": "uint256"
				}
			],
			"stateMutability": "view",
			"type": "function"
		},
		{
			"inputs": [
				{
					"internalType": "address",
					"name": "from",
					"type": "address"
				},
				{
					"internalType": "address",
					"name": "to",
					"type": "address"
				},
				{
					"internalType": "uint256",
					"name": "tokenId",
					"type": "uint256"
				}
			],
			"name": "transferFrom",
			"outputs": [],
			"stateMutability": "nonpayable",
			"type": "function"
		},
		{
			"inputs": [
				{
					"internalType": "address",
					"name": "newOwner",
					"type": "address"
				}
			],
			"name": "transferOwnership",
			"outputs": [],
			"stateMutability": "nonpayable",
			"type": "function"
		},
		{
			"inputs": [],
			"name": "withdrawFunds",
			"outputs": [],
			"stateMutability": "nonpayable",
			"type": "function"
		}
	]
}